{
	"data": {
		"bytecode": {
			"linkReferences": {},
			"object": "6080604052348015600f57600080fd5b50611d508061001f6000396000f3fe608060405234801561001057600080fd5b50600436106100365760003560e01c806301ffc9a71461003b5780638ef98a7e1461006b575b600080fd5b6100556004803603810190610050919061143a565b61009b565b6040516100629190611482565b60405180910390f35b61008560048036038101906100809190611502565b610105565b6040516100929190611646565b60405180910390f35b60007f8ef98a7e000000000000000000000000000000000000000000000000000000007bffffffffffffffffffffffffffffffffffffffffffffffffffffffff1916827bffffffffffffffffffffffffffffffffffffffffffffffffffffffff1916149050919050565b606060008585906101169190611680565b9050633b3b57de60e01b7bffffffffffffffffffffffffffffffffffffffffffffffffffffffff1916817bffffffffffffffffffffffffffffffffffffffffffffffffffffffff1916036101765761016e8484610272565b915050610268565b63f1cb7e0660e01b7bffffffffffffffffffffffffffffffffffffffffffffffffffffffff1916817bffffffffffffffffffffffffffffffffffffffffffffffffffffffff1916036101d6576101ce8686868661037a565b915050610268565b6359d1d43c60e01b7bffffffffffffffffffffffffffffffffffffffffffffffffffffffff1916817bffffffffffffffffffffffffffffffffffffffffffffffffffffffff1916036102365761022e8686868661052e565b915050610268565b6040517fd623472500000000000000000000000000000000000000000000000000000000815260040160405180910390fd5b9695505050505050565b606060006102f984848080601f016020809104026020016040519081016040528093929190818152602001838380828437600081840152601f19601f820116905080830192505050505050506040518060400160405280600681526020017f615b36305d3d00000000000000000000000000000000000000000000000000008152506105d3565b9050600081510361030d5780915050610374565b6000806103276002845185610f809092919063ffffffff16565b915091508061036d57826040517f3de780240000000000000000000000000000000000000000000000000000000081526004016103649190611646565b60405180910390fd5b8193505050505b92915050565b6060600085856004908092610391939291906116e9565b81019061039e9190611790565b9150506060600063800000008316146104335761042c85858080601f016020809104026020016040519081016040528093929190818152602001838380828437600081840152601f19601f82011690508083019250505050505050610408637fffffff8516611125565b6040516020016104189190611858565b6040516020818303038152906040526105d3565b90506104ab565b6104a885858080601f016020809104026020016040519081016040528093929190818152602001838380828437600081840152601f19601f8201169050808301925050505050505061048484611125565b60405160200161049491906118b3565b6040516020818303038152906040526105d3565b90505b60008151036104be578092505050610526565b6000806104d86002845185610f809092919063ffffffff16565b915091508061051e57826040517f3de780240000000000000000000000000000000000000000000000000000000081526004016105159190611646565b60405180910390fd5b819450505050505b949350505050565b6060600085856004908092610545939291906116e9565b8101906105529190611a18565b91505060006105c485858080601f016020809104026020016040519081016040528093929190818152602001838380828437600081840152601f19601f82011690508083019250505050505050836040516020016105b09190611a9a565b6040516020818303038152906040526105d3565b90508092505050949350505050565b60606000808451905060005b81811015610f6457600083036106315761060a8186600088518a61128590949392919063ffffffff16565b156106275784518161061c9190611afe565b90506003925061062c565b600192505b610f5f565b60018303610756575b81811015610751577f3d0000000000000000000000000000000000000000000000000000000000000086828151811061067657610675611b32565b5b602001015160f81c60f81b7effffffffffffffffffffffffffffffffffffffffffffffffffffffffffffff1916036106c057600692506001816106b99190611afe565b9050610751565b7f5b000000000000000000000000000000000000000000000000000000000000008682815181106106f4576106f3611b32565b5b602001015160f81c60f81b7effffffffffffffffffffffffffffffffffffffffffffffffffffffffffffff19160361073e57600292506001816107379190611afe565b9050610751565b808061074990611b61565b91505061063a565b610f5e565b60028303610873575b8181101561086e577f5d0000000000000000000000000000000000000000000000000000000000000086828151811061079b5761079a611b32565b5b602001015160f81c60f81b7effffffffffffffffffffffffffffffffffffffffffffffffffffffffffffff19160361085b57600692506001816107de9190611afe565b90507f3d0000000000000000000000000000000000000000000000000000000000000086828151811061081457610813611b32565b5b602001015160f81c60f81b7effffffffffffffffffffffffffffffffffffffffffffffffffffffffffffff191603610856576001816108539190611afe565b90505b61086e565b808061086690611b61565b91505061075f565b610f5d565b60038303610903577f27000000000000000000000000000000000000000000000000000000000000008682815181106108af576108ae611b32565b5b602001015160f81c60f81b7effffffffffffffffffffffffffffffffffffffffffffffffffffffffffffff1916036108f957600492506001816108f29190611afe565b90506108fe565b600592505b610f5c565b60048303610b2d5760008190506000805b84841015610b255780156109a55788848151811061093557610934611b32565b5b602001015160f81c60f81b89838561094d9190611afe565b8151811061095e5761095d611b32565b5b60200101907effffffffffffffffffffffffffffffffffffffffffffffffffffffffffffff1916908160001a90535060018261099a9190611afe565b915060009050610b18565b7f5c000000000000000000000000000000000000000000000000000000000000008985815181106109d9576109d8611b32565b5b602001015160f81c60f81b7effffffffffffffffffffffffffffffffffffffffffffffffffffffffffffff191603610a145760019050610b17565b7f2700000000000000000000000000000000000000000000000000000000000000898581518110610a4857610a47611b32565b5b602001015160f81c60f81b7effffffffffffffffffffffffffffffffffffffffffffffffffffffffffffff191603610a9c57610a8f83838b6112a99092919063ffffffff16565b9650505050505050610f7a565b888481518110610aaf57610aae611b32565b5b602001015160f81c60f81b898385610ac79190611afe565b81518110610ad857610ad7611b32565b5b60200101907effffffffffffffffffffffffffffffffffffffffffffffffffffffffffffff1916908160001a905350600182610b149190611afe565b91505b5b8380600101945050610914565b505050610f5b565b60058303610c0c5760008190505b82821015610be1577f2000000000000000000000000000000000000000000000000000000000000000878381518110610b7757610b76611b32565b5b602001015160f81c60f81b7effffffffffffffffffffffffffffffffffffffffffffffffffffffffffffff191603610bd457610bc9818284610bb99190611ba9565b896112a99092919063ffffffff16565b945050505050610f7a565b8180600101925050610b3b565b610c01818285610bf19190611ba9565b896112a99092919063ffffffff16565b945050505050610f7a565b60068303610c9c577f2700000000000000000000000000000000000000000000000000000000000000868281518110610c4857610c47611b32565b5b602001015160f81c60f81b7effffffffffffffffffffffffffffffffffffffffffffffffffffffffffffff191603610c925760079250600181610c8b9190611afe565b9050610c97565b600892505b610f5a565b60078303610e415760005b82821015610e3b578015610cbe5760009050610e28565b7f5c00000000000000000000000000000000000000000000000000000000000000878381518110610cf257610cf1611b32565b5b602001015160f81c60f81b7effffffffffffffffffffffffffffffffffffffffffffffffffffffffffffff191603610d2d5760019050610e27565b7f2700000000000000000000000000000000000000000000000000000000000000878381518110610d6157610d60611b32565b5b602001015160f81c60f81b7effffffffffffffffffffffffffffffffffffffffffffffffffffffffffffff191603610e2657600182610da09190611afe565b91505b7f2000000000000000000000000000000000000000000000000000000000000000878381518110610dd757610dd6611b32565b5b602001015160f81c60f81b7effffffffffffffffffffffffffffffffffffffffffffffffffffffffffffff191603610e1d57600182610e169190611afe565b9150610da3565b60009350610e3b565b5b5b8180610e3390611b61565b925050610ca7565b50610f59565b60088314610e5257610e51611bdd565b5b5b81811015610f58577f2000000000000000000000000000000000000000000000000000000000000000868281518110610e8f57610e8e611b32565b5b602001015160f81c60f81b7effffffffffffffffffffffffffffffffffffffffffffffffffffffffffffff191603610f45575b7f2000000000000000000000000000000000000000000000000000000000000000868281518110610ef657610ef5611b32565b5b602001015160f81c60f81b7effffffffffffffffffffffffffffffffffffffffffffffffffffffffffffff191603610f3c57600181610f359190611afe565b9050610ec2565b60009250610f58565b8080610f5090611b61565b915050610e53565b5b5b5b5b5b5b5b6105df565b5060405180602001604052806000815250925050505b92915050565b60606000808484610f919190611ba9565b90506001600282610fa29190611c3b565b03610fe2576040517f08c379a0000000000000000000000000000000000000000000000000000000008152600401610fd990611cc9565b60405180910390fd5b600281610fef9190611ce9565b67ffffffffffffffff811115611008576110076118ed565b5b6040519080825280601f01601f19166020018201604052801561103a5781602001600182028036833780820191505090505b50925060019150855184111561104f57600080fd5b6110b1565b6000603a8210602f8311161561106f576030820390506110ac565b6047821060408311161561108b57600a604183030190506110ac565b606782106060831116156110a757600a606183030190506110ac565b60ff90505b919050565b60208601855b8581101561111a576110ce8183015160001a611054565b6110e06001830184015160001a611054565b60ff811460ff831417156110f95760009550505061111a565b808260041b178060028b86030460208a0101535050506002810190506110b7565b505050935093915050565b60606000820361116c576040518060400160405280600181526020017f30000000000000000000000000000000000000000000000000000000000000008152509050611280565b600082905060005b6000821461119e57808061118790611b61565b915050600a826111979190611ce9565b9150611174565b60008167ffffffffffffffff8111156111ba576111b96118ed565b5b6040519080825280601f01601f1916602001820160405280156111ec5781602001600182028036833780820191505090505b5090505b60008514611279576001826112059190611ba9565b9150600a856112149190611c3b565b60306112209190611afe565b60f81b81838151811061123657611235611b32565b5b60200101907effffffffffffffffffffffffffffffffffffffffffffffffffffffffffffff1916908160001a905350600a856112729190611ce9565b94506111f0565b8093505050505b919050565b600061129284848461133e565b61129d87878561133e565b14905095945050505050565b6060835182846112b99190611afe565b11156112c457600080fd5b60008267ffffffffffffffff8111156112e0576112df6118ed565b5b6040519080825280601f01601f1916602001820160405280156113125781602001600182028036833780820191505090505b509050600080602083019150856020880101905061133182828761136a565b8293505050509392505050565b60008351828461134e9190611afe565b111561135957600080fd5b818360208601012090509392505050565b5b602081106113a957815183526020836113849190611afe565b92506020826113939190611afe565b91506020816113a29190611ba9565b905061136b565b60006001826020036101000a0390508019835116818551168181178652505050505050565b6000604051905090565b600080fd5b600080fd5b60007fffffffff0000000000000000000000000000000000000000000000000000000082169050919050565b611417816113e2565b811461142257600080fd5b50565b6000813590506114348161140e565b92915050565b6000602082840312156114505761144f6113d8565b5b600061145e84828501611425565b91505092915050565b60008115159050919050565b61147c81611467565b82525050565b60006020820190506114976000830184611473565b92915050565b600080fd5b600080fd5b600080fd5b60008083601f8401126114c2576114c161149d565b5b8235905067ffffffffffffffff8111156114df576114de6114a2565b5b6020830191508360018202830111156114fb576114fa6114a7565b5b9250929050565b6000806000806000806060878903121561151f5761151e6113d8565b5b600087013567ffffffffffffffff81111561153d5761153c6113dd565b5b61154989828a016114ac565b9650965050602087013567ffffffffffffffff81111561156c5761156b6113dd565b5b61157889828a016114ac565b9450945050604087013567ffffffffffffffff81111561159b5761159a6113dd565b5b6115a789828a016114ac565b92509250509295509295509295565b600081519050919050565b600082825260208201905092915050565b60005b838110156115f05780820151818401526020810190506115d5565b60008484015250505050565b6000601f19601f8301169050919050565b6000611618826115b6565b61162281856115c1565b93506116328185602086016115d2565b61163b816115fc565b840191505092915050565b60006020820190508181036000830152611660818461160d565b905092915050565b600082905092915050565b600082821b905092915050565b600061168c8383611668565b8261169781356113e2565b925060048210156116d7576116d27fffffffff0000000000000000000000000000000000000000000000000000000083600403600802611673565b831692505b505092915050565b600080fd5b600080fd5b600080858511156116fd576116fc6116df565b5b8386111561170e5761170d6116e4565b5b6001850283019150848603905094509492505050565b6000819050919050565b61173781611724565b811461174257600080fd5b50565b6000813590506117548161172e565b92915050565b6000819050919050565b61176d8161175a565b811461177857600080fd5b50565b60008135905061178a81611764565b92915050565b600080604083850312156117a7576117a66113d8565b5b60006117b585828601611745565b92505060206117c68582860161177b565b9150509250929050565b7f615b650000000000000000000000000000000000000000000000000000000000815250565b600081905092915050565b600061180c826115b6565b61181681856117f6565b93506118268185602086016115d2565b80840191505092915050565b7f5d3d000000000000000000000000000000000000000000000000000000000000815250565b6000611863826117d0565b6003820191506118738284611801565b915061187e82611832565b60028201915081905092915050565b7f615b000000000000000000000000000000000000000000000000000000000000815250565b60006118be8261188d565b6002820191506118ce8284611801565b91506118d982611832565b60028201915081905092915050565b600080fd5b7f4e487b7100000000000000000000000000000000000000000000000000000000600052604160045260246000fd5b611925826115fc565b810181811067ffffffffffffffff82111715611944576119436118ed565b5b80604052505050565b60006119576113ce565b9050611963828261191c565b919050565b600067ffffffffffffffff821115611983576119826118ed565b5b61198c826115fc565b9050602081019050919050565b82818337600083830152505050565b60006119bb6119b684611968565b61194d565b9050828152602081018484840111156119d7576119d66118e8565b5b6119e2848285611999565b509392505050565b600082601f8301126119ff576119fe61149d565b5b8135611a0f8482602086016119a8565b91505092915050565b60008060408385031215611a2f57611a2e6113d8565b5b6000611a3d85828601611745565b925050602083013567ffffffffffffffff811115611a5e57611a5d6113dd565b5b611a6a858286016119ea565b9150509250929050565b7f745b000000000000000000000000000000000000000000000000000000000000815250565b6000611aa582611a74565b600282019150611ab58284611801565b9150611ac082611832565b60028201915081905092915050565b7f4e487b7100000000000000000000000000000000000000000000000000000000600052601160045260246000fd5b6000611b098261175a565b9150611b148361175a565b9250828201905080821115611b2c57611b2b611acf565b5b92915050565b7f4e487b7100000000000000000000000000000000000000000000000000000000600052603260045260246000fd5b6000611b6c8261175a565b91507fffffffffffffffffffffffffffffffffffffffffffffffffffffffffffffffff8203611b9e57611b9d611acf565b5b600182019050919050565b6000611bb48261175a565b9150611bbf8361175a565b9250828203905081811115611bd757611bd6611acf565b5b92915050565b7f4e487b7100000000000000000000000000000000000000000000000000000000600052600160045260246000fd5b7f4e487b7100000000000000000000000000000000000000000000000000000000600052601260045260246000fd5b6000611c468261175a565b9150611c518361175a565b925082611c6157611c60611c0c565b5b828206905092915050565b600082825260208201905092915050565b7f496e76616c696420737472696e67206c656e6774680000000000000000000000600082015250565b6000611cb3601583611c6c565b9150611cbe82611c7d565b602082019050919050565b60006020820190508181036000830152611ce281611ca6565b9050919050565b6000611cf48261175a565b9150611cff8361175a565b925082611d0f57611d0e611c0c565b5b82820490509291505056fea264697066735822122005374872c79e9fc994eba7ad7eed44ecd4912bdf5010ce4135d8ab3cc3303e2d64736f6c634300081b0033",
			"opcodes": "PUSH1 0x80 PUSH1 0x40 MSTORE CALLVALUE DUP1 ISZERO PUSH1 0xF JUMPI PUSH1 0x0 DUP1 REVERT JUMPDEST POP PUSH2 0x1D50 DUP1 PUSH2 0x1F PUSH1 0x0 CODECOPY PUSH1 0x0 RETURN INVALID PUSH1 0x80 PUSH1 0x40 MSTORE CALLVALUE DUP1 ISZERO PUSH2 0x10 JUMPI PUSH1 0x0 DUP1 REVERT JUMPDEST POP PUSH1 0x4 CALLDATASIZE LT PUSH2 0x36 JUMPI PUSH1 0x0 CALLDATALOAD PUSH1 0xE0 SHR DUP1 PUSH4 0x1FFC9A7 EQ PUSH2 0x3B JUMPI DUP1 PUSH4 0x8EF98A7E EQ PUSH2 0x6B JUMPI JUMPDEST PUSH1 0x0 DUP1 REVERT JUMPDEST PUSH2 0x55 PUSH1 0x4 DUP1 CALLDATASIZE SUB DUP2 ADD SWAP1 PUSH2 0x50 SWAP2 SWAP1 PUSH2 0x143A JUMP JUMPDEST PUSH2 0x9B JUMP JUMPDEST PUSH1 0x40 MLOAD PUSH2 0x62 SWAP2 SWAP1 PUSH2 0x1482 JUMP JUMPDEST PUSH1 0x40 MLOAD DUP1 SWAP2 SUB SWAP1 RETURN JUMPDEST PUSH2 0x85 PUSH1 0x4 DUP1 CALLDATASIZE SUB DUP2 ADD SWAP1 PUSH2 0x80 SWAP2 SWAP1 PUSH2 0x1502 JUMP JUMPDEST PUSH2 0x105 JUMP JUMPDEST PUSH1 0x40 MLOAD PUSH2 0x92 SWAP2 SWAP1 PUSH2 0x1646 JUMP JUMPDEST PUSH1 0x40 MLOAD DUP1 SWAP2 SUB SWAP1 RETURN JUMPDEST PUSH1 0x0 PUSH32 0x8EF98A7E00000000000000000000000000000000000000000000000000000000 PUSH28 0xFFFFFFFFFFFFFFFFFFFFFFFFFFFFFFFFFFFFFFFFFFFFFFFFFFFFFFFF NOT AND DUP3 PUSH28 0xFFFFFFFFFFFFFFFFFFFFFFFFFFFFFFFFFFFFFFFFFFFFFFFFFFFFFFFF NOT AND EQ SWAP1 POP SWAP2 SWAP1 POP JUMP JUMPDEST PUSH1 0x60 PUSH1 0x0 DUP6 DUP6 SWAP1 PUSH2 0x116 SWAP2 SWAP1 PUSH2 0x1680 JUMP JUMPDEST SWAP1 POP PUSH4 0x3B3B57DE PUSH1 0xE0 SHL PUSH28 0xFFFFFFFFFFFFFFFFFFFFFFFFFFFFFFFFFFFFFFFFFFFFFFFFFFFFFFFF NOT AND DUP2 PUSH28 0xFFFFFFFFFFFFFFFFFFFFFFFFFFFFFFFFFFFFFFFFFFFFFFFFFFFFFFFF NOT AND SUB PUSH2 0x176 JUMPI PUSH2 0x16E DUP5 DUP5 PUSH2 0x272 JUMP JUMPDEST SWAP2 POP POP PUSH2 0x268 JUMP JUMPDEST PUSH4 0xF1CB7E06 PUSH1 0xE0 SHL PUSH28 0xFFFFFFFFFFFFFFFFFFFFFFFFFFFFFFFFFFFFFFFFFFFFFFFFFFFFFFFF NOT AND DUP2 PUSH28 0xFFFFFFFFFFFFFFFFFFFFFFFFFFFFFFFFFFFFFFFFFFFFFFFFFFFFFFFF NOT AND SUB PUSH2 0x1D6 JUMPI PUSH2 0x1CE DUP7 DUP7 DUP7 DUP7 PUSH2 0x37A JUMP JUMPDEST SWAP2 POP POP PUSH2 0x268 JUMP JUMPDEST PUSH4 0x59D1D43C PUSH1 0xE0 SHL PUSH28 0xFFFFFFFFFFFFFFFFFFFFFFFFFFFFFFFFFFFFFFFFFFFFFFFFFFFFFFFF NOT AND DUP2 PUSH28 0xFFFFFFFFFFFFFFFFFFFFFFFFFFFFFFFFFFFFFFFFFFFFFFFFFFFFFFFF NOT AND SUB PUSH2 0x236 JUMPI PUSH2 0x22E DUP7 DUP7 DUP7 DUP7 PUSH2 0x52E JUMP JUMPDEST SWAP2 POP POP PUSH2 0x268 JUMP JUMPDEST PUSH1 0x40 MLOAD PUSH32 0xD623472500000000000000000000000000000000000000000000000000000000 DUP2 MSTORE PUSH1 0x4 ADD PUSH1 0x40 MLOAD DUP1 SWAP2 SUB SWAP1 REVERT JUMPDEST SWAP7 SWAP6 POP POP POP POP POP POP JUMP JUMPDEST PUSH1 0x60 PUSH1 0x0 PUSH2 0x2F9 DUP5 DUP5 DUP1 DUP1 PUSH1 0x1F ADD PUSH1 0x20 DUP1 SWAP2 DIV MUL PUSH1 0x20 ADD PUSH1 0x40 MLOAD SWAP1 DUP2 ADD PUSH1 0x40 MSTORE DUP1 SWAP4 SWAP3 SWAP2 SWAP1 DUP2 DUP2 MSTORE PUSH1 0x20 ADD DUP4 DUP4 DUP1 DUP3 DUP5 CALLDATACOPY PUSH1 0x0 DUP2 DUP5 ADD MSTORE PUSH1 0x1F NOT PUSH1 0x1F DUP3 ADD AND SWAP1 POP DUP1 DUP4 ADD SWAP3 POP POP POP POP POP POP POP PUSH1 0x40 MLOAD DUP1 PUSH1 0x40 ADD PUSH1 0x40 MSTORE DUP1 PUSH1 0x6 DUP2 MSTORE PUSH1 0x20 ADD PUSH32 0x615B36305D3D0000000000000000000000000000000000000000000000000000 DUP2 MSTORE POP PUSH2 0x5D3 JUMP JUMPDEST SWAP1 POP PUSH1 0x0 DUP2 MLOAD SUB PUSH2 0x30D JUMPI DUP1 SWAP2 POP POP PUSH2 0x374 JUMP JUMPDEST PUSH1 0x0 DUP1 PUSH2 0x327 PUSH1 0x2 DUP5 MLOAD DUP6 PUSH2 0xF80 SWAP1 SWAP3 SWAP2 SWAP1 PUSH4 0xFFFFFFFF AND JUMP JUMPDEST SWAP2 POP SWAP2 POP DUP1 PUSH2 0x36D JUMPI DUP3 PUSH1 0x40 MLOAD PUSH32 0x3DE7802400000000000000000000000000000000000000000000000000000000 DUP2 MSTORE PUSH1 0x4 ADD PUSH2 0x364 SWAP2 SWAP1 PUSH2 0x1646 JUMP JUMPDEST PUSH1 0x40 MLOAD DUP1 SWAP2 SUB SWAP1 REVERT JUMPDEST DUP2 SWAP4 POP POP POP POP JUMPDEST SWAP3 SWAP2 POP POP JUMP JUMPDEST PUSH1 0x60 PUSH1 0x0 DUP6 DUP6 PUSH1 0x4 SWAP1 DUP1 SWAP3 PUSH2 0x391 SWAP4 SWAP3 SWAP2 SWAP1 PUSH2 0x16E9 JUMP JUMPDEST DUP2 ADD SWAP1 PUSH2 0x39E SWAP2 SWAP1 PUSH2 0x1790 JUMP JUMPDEST SWAP2 POP POP PUSH1 0x60 PUSH1 0x0 PUSH4 0x80000000 DUP4 AND EQ PUSH2 0x433 JUMPI PUSH2 0x42C DUP6 DUP6 DUP1 DUP1 PUSH1 0x1F ADD PUSH1 0x20 DUP1 SWAP2 DIV MUL PUSH1 0x20 ADD PUSH1 0x40 MLOAD SWAP1 DUP2 ADD PUSH1 0x40 MSTORE DUP1 SWAP4 SWAP3 SWAP2 SWAP1 DUP2 DUP2 MSTORE PUSH1 0x20 ADD DUP4 DUP4 DUP1 DUP3 DUP5 CALLDATACOPY PUSH1 0x0 DUP2 DUP5 ADD MSTORE PUSH1 0x1F NOT PUSH1 0x1F DUP3 ADD AND SWAP1 POP DUP1 DUP4 ADD SWAP3 POP POP POP POP POP POP POP PUSH2 0x408 PUSH4 0x7FFFFFFF DUP6 AND PUSH2 0x1125 JUMP JUMPDEST PUSH1 0x40 MLOAD PUSH1 0x20 ADD PUSH2 0x418 SWAP2 SWAP1 PUSH2 0x1858 JUMP JUMPDEST PUSH1 0x40 MLOAD PUSH1 0x20 DUP2 DUP4 SUB SUB DUP2 MSTORE SWAP1 PUSH1 0x40 MSTORE PUSH2 0x5D3 JUMP JUMPDEST SWAP1 POP PUSH2 0x4AB JUMP JUMPDEST PUSH2 0x4A8 DUP6 DUP6 DUP1 DUP1 PUSH1 0x1F ADD PUSH1 0x20 DUP1 SWAP2 DIV MUL PUSH1 0x20 ADD PUSH1 0x40 MLOAD SWAP1 DUP2 ADD PUSH1 0x40 MSTORE DUP1 SWAP4 SWAP3 SWAP2 SWAP1 DUP2 DUP2 MSTORE PUSH1 0x20 ADD DUP4 DUP4 DUP1 DUP3 DUP5 CALLDATACOPY PUSH1 0x0 DUP2 DUP5 ADD MSTORE PUSH1 0x1F NOT PUSH1 0x1F DUP3 ADD AND SWAP1 POP DUP1 DUP4 ADD SWAP3 POP POP POP POP POP POP POP PUSH2 0x484 DUP5 PUSH2 0x1125 JUMP JUMPDEST PUSH1 0x40 MLOAD PUSH1 0x20 ADD PUSH2 0x494 SWAP2 SWAP1 PUSH2 0x18B3 JUMP JUMPDEST PUSH1 0x40 MLOAD PUSH1 0x20 DUP2 DUP4 SUB SUB DUP2 MSTORE SWAP1 PUSH1 0x40 MSTORE PUSH2 0x5D3 JUMP JUMPDEST SWAP1 POP JUMPDEST PUSH1 0x0 DUP2 MLOAD SUB PUSH2 0x4BE JUMPI DUP1 SWAP3 POP POP POP PUSH2 0x526 JUMP JUMPDEST PUSH1 0x0 DUP1 PUSH2 0x4D8 PUSH1 0x2 DUP5 MLOAD DUP6 PUSH2 0xF80 SWAP1 SWAP3 SWAP2 SWAP1 PUSH4 0xFFFFFFFF AND JUMP JUMPDEST SWAP2 POP SWAP2 POP DUP1 PUSH2 0x51E JUMPI DUP3 PUSH1 0x40 MLOAD PUSH32 0x3DE7802400000000000000000000000000000000000000000000000000000000 DUP2 MSTORE PUSH1 0x4 ADD PUSH2 0x515 SWAP2 SWAP1 PUSH2 0x1646 JUMP JUMPDEST PUSH1 0x40 MLOAD DUP1 SWAP2 SUB SWAP1 REVERT JUMPDEST DUP2 SWAP5 POP POP POP POP POP JUMPDEST SWAP5 SWAP4 POP POP POP POP JUMP JUMPDEST PUSH1 0x60 PUSH1 0x0 DUP6 DUP6 PUSH1 0x4 SWAP1 DUP1 SWAP3 PUSH2 0x545 SWAP4 SWAP3 SWAP2 SWAP1 PUSH2 0x16E9 JUMP JUMPDEST DUP2 ADD SWAP1 PUSH2 0x552 SWAP2 SWAP1 PUSH2 0x1A18 JUMP JUMPDEST SWAP2 POP POP PUSH1 0x0 PUSH2 0x5C4 DUP6 DUP6 DUP1 DUP1 PUSH1 0x1F ADD PUSH1 0x20 DUP1 SWAP2 DIV MUL PUSH1 0x20 ADD PUSH1 0x40 MLOAD SWAP1 DUP2 ADD PUSH1 0x40 MSTORE DUP1 SWAP4 SWAP3 SWAP2 SWAP1 DUP2 DUP2 MSTORE PUSH1 0x20 ADD DUP4 DUP4 DUP1 DUP3 DUP5 CALLDATACOPY PUSH1 0x0 DUP2 DUP5 ADD MSTORE PUSH1 0x1F NOT PUSH1 0x1F DUP3 ADD AND SWAP1 POP DUP1 DUP4 ADD SWAP3 POP POP POP POP POP POP POP DUP4 PUSH1 0x40 MLOAD PUSH1 0x20 ADD PUSH2 0x5B0 SWAP2 SWAP1 PUSH2 0x1A9A JUMP JUMPDEST PUSH1 0x40 MLOAD PUSH1 0x20 DUP2 DUP4 SUB SUB DUP2 MSTORE SWAP1 PUSH1 0x40 MSTORE PUSH2 0x5D3 JUMP JUMPDEST SWAP1 POP DUP1 SWAP3 POP POP POP SWAP5 SWAP4 POP POP POP POP JUMP JUMPDEST PUSH1 0x60 PUSH1 0x0 DUP1 DUP5 MLOAD SWAP1 POP PUSH1 0x0 JUMPDEST DUP2 DUP2 LT ISZERO PUSH2 0xF64 JUMPI PUSH1 0x0 DUP4 SUB PUSH2 0x631 JUMPI PUSH2 0x60A DUP2 DUP7 PUSH1 0x0 DUP9 MLOAD DUP11 PUSH2 0x1285 SWAP1 SWAP5 SWAP4 SWAP3 SWAP2 SWAP1 PUSH4 0xFFFFFFFF AND JUMP JUMPDEST ISZERO PUSH2 0x627 JUMPI DUP5 MLOAD DUP2 PUSH2 0x61C SWAP2 SWAP1 PUSH2 0x1AFE JUMP JUMPDEST SWAP1 POP PUSH1 0x3 SWAP3 POP PUSH2 0x62C JUMP JUMPDEST PUSH1 0x1 SWAP3 POP JUMPDEST PUSH2 0xF5F JUMP JUMPDEST PUSH1 0x1 DUP4 SUB PUSH2 0x756 JUMPI JUMPDEST DUP2 DUP2 LT ISZERO PUSH2 0x751 JUMPI PUSH32 0x3D00000000000000000000000000000000000000000000000000000000000000 DUP7 DUP3 DUP2 MLOAD DUP2 LT PUSH2 0x676 JUMPI PUSH2 0x675 PUSH2 0x1B32 JUMP JUMPDEST JUMPDEST PUSH1 0x20 ADD ADD MLOAD PUSH1 0xF8 SHR PUSH1 0xF8 SHL PUSH31 0xFFFFFFFFFFFFFFFFFFFFFFFFFFFFFFFFFFFFFFFFFFFFFFFFFFFFFFFFFFFFFF NOT AND SUB PUSH2 0x6C0 JUMPI PUSH1 0x6 SWAP3 POP PUSH1 0x1 DUP2 PUSH2 0x6B9 SWAP2 SWAP1 PUSH2 0x1AFE JUMP JUMPDEST SWAP1 POP PUSH2 0x751 JUMP JUMPDEST PUSH32 0x5B00000000000000000000000000000000000000000000000000000000000000 DUP7 DUP3 DUP2 MLOAD DUP2 LT PUSH2 0x6F4 JUMPI PUSH2 0x6F3 PUSH2 0x1B32 JUMP JUMPDEST JUMPDEST PUSH1 0x20 ADD ADD MLOAD PUSH1 0xF8 SHR PUSH1 0xF8 SHL PUSH31 0xFFFFFFFFFFFFFFFFFFFFFFFFFFFFFFFFFFFFFFFFFFFFFFFFFFFFFFFFFFFFFF NOT AND SUB PUSH2 0x73E JUMPI PUSH1 0x2 SWAP3 POP PUSH1 0x1 DUP2 PUSH2 0x737 SWAP2 SWAP1 PUSH2 0x1AFE JUMP JUMPDEST SWAP1 POP PUSH2 0x751 JUMP JUMPDEST DUP1 DUP1 PUSH2 0x749 SWAP1 PUSH2 0x1B61 JUMP JUMPDEST SWAP2 POP POP PUSH2 0x63A JUMP JUMPDEST PUSH2 0xF5E JUMP JUMPDEST PUSH1 0x2 DUP4 SUB PUSH2 0x873 JUMPI JUMPDEST DUP2 DUP2 LT ISZERO PUSH2 0x86E JUMPI PUSH32 0x5D00000000000000000000000000000000000000000000000000000000000000 DUP7 DUP3 DUP2 MLOAD DUP2 LT PUSH2 0x79B JUMPI PUSH2 0x79A PUSH2 0x1B32 JUMP JUMPDEST JUMPDEST PUSH1 0x20 ADD ADD MLOAD PUSH1 0xF8 SHR PUSH1 0xF8 SHL PUSH31 0xFFFFFFFFFFFFFFFFFFFFFFFFFFFFFFFFFFFFFFFFFFFFFFFFFFFFFFFFFFFFFF NOT AND SUB PUSH2 0x85B JUMPI PUSH1 0x6 SWAP3 POP PUSH1 0x1 DUP2 PUSH2 0x7DE SWAP2 SWAP1 PUSH2 0x1AFE JUMP JUMPDEST SWAP1 POP PUSH32 0x3D00000000000000000000000000000000000000000000000000000000000000 DUP7 DUP3 DUP2 MLOAD DUP2 LT PUSH2 0x814 JUMPI PUSH2 0x813 PUSH2 0x1B32 JUMP JUMPDEST JUMPDEST PUSH1 0x20 ADD ADD MLOAD PUSH1 0xF8 SHR PUSH1 0xF8 SHL PUSH31 0xFFFFFFFFFFFFFFFFFFFFFFFFFFFFFFFFFFFFFFFFFFFFFFFFFFFFFFFFFFFFFF NOT AND SUB PUSH2 0x856 JUMPI PUSH1 0x1 DUP2 PUSH2 0x853 SWAP2 SWAP1 PUSH2 0x1AFE JUMP JUMPDEST SWAP1 POP JUMPDEST PUSH2 0x86E JUMP JUMPDEST DUP1 DUP1 PUSH2 0x866 SWAP1 PUSH2 0x1B61 JUMP JUMPDEST SWAP2 POP POP PUSH2 0x75F JUMP JUMPDEST PUSH2 0xF5D JUMP JUMPDEST PUSH1 0x3 DUP4 SUB PUSH2 0x903 JUMPI PUSH32 0x2700000000000000000000000000000000000000000000000000000000000000 DUP7 DUP3 DUP2 MLOAD DUP2 LT PUSH2 0x8AF JUMPI PUSH2 0x8AE PUSH2 0x1B32 JUMP JUMPDEST JUMPDEST PUSH1 0x20 ADD ADD MLOAD PUSH1 0xF8 SHR PUSH1 0xF8 SHL PUSH31 0xFFFFFFFFFFFFFFFFFFFFFFFFFFFFFFFFFFFFFFFFFFFFFFFFFFFFFFFFFFFFFF NOT AND SUB PUSH2 0x8F9 JUMPI PUSH1 0x4 SWAP3 POP PUSH1 0x1 DUP2 PUSH2 0x8F2 SWAP2 SWAP1 PUSH2 0x1AFE JUMP JUMPDEST SWAP1 POP PUSH2 0x8FE JUMP JUMPDEST PUSH1 0x5 SWAP3 POP JUMPDEST PUSH2 0xF5C JUMP JUMPDEST PUSH1 0x4 DUP4 SUB PUSH2 0xB2D JUMPI PUSH1 0x0 DUP2 SWAP1 POP PUSH1 0x0 DUP1 JUMPDEST DUP5 DUP5 LT ISZERO PUSH2 0xB25 JUMPI DUP1 ISZERO PUSH2 0x9A5 JUMPI DUP9 DUP5 DUP2 MLOAD DUP2 LT PUSH2 0x935 JUMPI PUSH2 0x934 PUSH2 0x1B32 JUMP JUMPDEST JUMPDEST PUSH1 0x20 ADD ADD MLOAD PUSH1 0xF8 SHR PUSH1 0xF8 SHL DUP10 DUP4 DUP6 PUSH2 0x94D SWAP2 SWAP1 PUSH2 0x1AFE JUMP JUMPDEST DUP2 MLOAD DUP2 LT PUSH2 0x95E JUMPI PUSH2 0x95D PUSH2 0x1B32 JUMP JUMPDEST JUMPDEST PUSH1 0x20 ADD ADD SWAP1 PUSH31 0xFFFFFFFFFFFFFFFFFFFFFFFFFFFFFFFFFFFFFFFFFFFFFFFFFFFFFFFFFFFFFF NOT AND SWAP1 DUP2 PUSH1 0x0 BYTE SWAP1 MSTORE8 POP PUSH1 0x1 DUP3 PUSH2 0x99A SWAP2 SWAP1 PUSH2 0x1AFE JUMP JUMPDEST SWAP2 POP PUSH1 0x0 SWAP1 POP PUSH2 0xB18 JUMP JUMPDEST PUSH32 0x5C00000000000000000000000000000000000000000000000000000000000000 DUP10 DUP6 DUP2 MLOAD DUP2 LT PUSH2 0x9D9 JUMPI PUSH2 0x9D8 PUSH2 0x1B32 JUMP JUMPDEST JUMPDEST PUSH1 0x20 ADD ADD MLOAD PUSH1 0xF8 SHR PUSH1 0xF8 SHL PUSH31 0xFFFFFFFFFFFFFFFFFFFFFFFFFFFFFFFFFFFFFFFFFFFFFFFFFFFFFFFFFFFFFF NOT AND SUB PUSH2 0xA14 JUMPI PUSH1 0x1 SWAP1 POP PUSH2 0xB17 JUMP JUMPDEST PUSH32 0x2700000000000000000000000000000000000000000000000000000000000000 DUP10 DUP6 DUP2 MLOAD DUP2 LT PUSH2 0xA48 JUMPI PUSH2 0xA47 PUSH2 0x1B32 JUMP JUMPDEST JUMPDEST PUSH1 0x20 ADD ADD MLOAD PUSH1 0xF8 SHR PUSH1 0xF8 SHL PUSH31 0xFFFFFFFFFFFFFFFFFFFFFFFFFFFFFFFFFFFFFFFFFFFFFFFFFFFFFFFFFFFFFF NOT AND SUB PUSH2 0xA9C JUMPI PUSH2 0xA8F DUP4 DUP4 DUP12 PUSH2 0x12A9 SWAP1 SWAP3 SWAP2 SWAP1 PUSH4 0xFFFFFFFF AND JUMP JUMPDEST SWAP7 POP POP POP POP POP POP POP PUSH2 0xF7A JUMP JUMPDEST DUP9 DUP5 DUP2 MLOAD DUP2 LT PUSH2 0xAAF JUMPI PUSH2 0xAAE PUSH2 0x1B32 JUMP JUMPDEST JUMPDEST PUSH1 0x20 ADD ADD MLOAD PUSH1 0xF8 SHR PUSH1 0xF8 SHL DUP10 DUP4 DUP6 PUSH2 0xAC7 SWAP2 SWAP1 PUSH2 0x1AFE JUMP JUMPDEST DUP2 MLOAD DUP2 LT PUSH2 0xAD8 JUMPI PUSH2 0xAD7 PUSH2 0x1B32 JUMP JUMPDEST JUMPDEST PUSH1 0x20 ADD ADD SWAP1 PUSH31 0xFFFFFFFFFFFFFFFFFFFFFFFFFFFFFFFFFFFFFFFFFFFFFFFFFFFFFFFFFFFFFF NOT AND SWAP1 DUP2 PUSH1 0x0 BYTE SWAP1 MSTORE8 POP PUSH1 0x1 DUP3 PUSH2 0xB14 SWAP2 SWAP1 PUSH2 0x1AFE JUMP JUMPDEST SWAP2 POP JUMPDEST JUMPDEST DUP4 DUP1 PUSH1 0x1 ADD SWAP5 POP POP PUSH2 0x914 JUMP JUMPDEST POP POP POP PUSH2 0xF5B JUMP JUMPDEST PUSH1 0x5 DUP4 SUB PUSH2 0xC0C JUMPI PUSH1 0x0 DUP2 SWAP1 POP JUMPDEST DUP3 DUP3 LT ISZERO PUSH2 0xBE1 JUMPI PUSH32 0x2000000000000000000000000000000000000000000000000000000000000000 DUP8 DUP4 DUP2 MLOAD DUP2 LT PUSH2 0xB77 JUMPI PUSH2 0xB76 PUSH2 0x1B32 JUMP JUMPDEST JUMPDEST PUSH1 0x20 ADD ADD MLOAD PUSH1 0xF8 SHR PUSH1 0xF8 SHL PUSH31 0xFFFFFFFFFFFFFFFFFFFFFFFFFFFFFFFFFFFFFFFFFFFFFFFFFFFFFFFFFFFFFF NOT AND SUB PUSH2 0xBD4 JUMPI PUSH2 0xBC9 DUP2 DUP3 DUP5 PUSH2 0xBB9 SWAP2 SWAP1 PUSH2 0x1BA9 JUMP JUMPDEST DUP10 PUSH2 0x12A9 SWAP1 SWAP3 SWAP2 SWAP1 PUSH4 0xFFFFFFFF AND JUMP JUMPDEST SWAP5 POP POP POP POP POP PUSH2 0xF7A JUMP JUMPDEST DUP2 DUP1 PUSH1 0x1 ADD SWAP3 POP POP PUSH2 0xB3B JUMP JUMPDEST PUSH2 0xC01 DUP2 DUP3 DUP6 PUSH2 0xBF1 SWAP2 SWAP1 PUSH2 0x1BA9 JUMP JUMPDEST DUP10 PUSH2 0x12A9 SWAP1 SWAP3 SWAP2 SWAP1 PUSH4 0xFFFFFFFF AND JUMP JUMPDEST SWAP5 POP POP POP POP POP PUSH2 0xF7A JUMP JUMPDEST PUSH1 0x6 DUP4 SUB PUSH2 0xC9C JUMPI PUSH32 0x2700000000000000000000000000000000000000000000000000000000000000 DUP7 DUP3 DUP2 MLOAD DUP2 LT PUSH2 0xC48 JUMPI PUSH2 0xC47 PUSH2 0x1B32 JUMP JUMPDEST JUMPDEST PUSH1 0x20 ADD ADD MLOAD PUSH1 0xF8 SHR PUSH1 0xF8 SHL PUSH31 0xFFFFFFFFFFFFFFFFFFFFFFFFFFFFFFFFFFFFFFFFFFFFFFFFFFFFFFFFFFFFFF NOT AND SUB PUSH2 0xC92 JUMPI PUSH1 0x7 SWAP3 POP PUSH1 0x1 DUP2 PUSH2 0xC8B SWAP2 SWAP1 PUSH2 0x1AFE JUMP JUMPDEST SWAP1 POP PUSH2 0xC97 JUMP JUMPDEST PUSH1 0x8 SWAP3 POP JUMPDEST PUSH2 0xF5A JUMP JUMPDEST PUSH1 0x7 DUP4 SUB PUSH2 0xE41 JUMPI PUSH1 0x0 JUMPDEST DUP3 DUP3 LT ISZERO PUSH2 0xE3B JUMPI DUP1 ISZERO PUSH2 0xCBE JUMPI PUSH1 0x0 SWAP1 POP PUSH2 0xE28 JUMP JUMPDEST PUSH32 0x5C00000000000000000000000000000000000000000000000000000000000000 DUP8 DUP4 DUP2 MLOAD DUP2 LT PUSH2 0xCF2 JUMPI PUSH2 0xCF1 PUSH2 0x1B32 JUMP JUMPDEST JUMPDEST PUSH1 0x20 ADD ADD MLOAD PUSH1 0xF8 SHR PUSH1 0xF8 SHL PUSH31 0xFFFFFFFFFFFFFFFFFFFFFFFFFFFFFFFFFFFFFFFFFFFFFFFFFFFFFFFFFFFFFF NOT AND SUB PUSH2 0xD2D JUMPI PUSH1 0x1 SWAP1 POP PUSH2 0xE27 JUMP JUMPDEST PUSH32 0x2700000000000000000000000000000000000000000000000000000000000000 DUP8 DUP4 DUP2 MLOAD DUP2 LT PUSH2 0xD61 JUMPI PUSH2 0xD60 PUSH2 0x1B32 JUMP JUMPDEST JUMPDEST PUSH1 0x20 ADD ADD MLOAD PUSH1 0xF8 SHR PUSH1 0xF8 SHL PUSH31 0xFFFFFFFFFFFFFFFFFFFFFFFFFFFFFFFFFFFFFFFFFFFFFFFFFFFFFFFFFFFFFF NOT AND SUB PUSH2 0xE26 JUMPI PUSH1 0x1 DUP3 PUSH2 0xDA0 SWAP2 SWAP1 PUSH2 0x1AFE JUMP JUMPDEST SWAP2 POP JUMPDEST PUSH32 0x2000000000000000000000000000000000000000000000000000000000000000 DUP8 DUP4 DUP2 MLOAD DUP2 LT PUSH2 0xDD7 JUMPI PUSH2 0xDD6 PUSH2 0x1B32 JUMP JUMPDEST JUMPDEST PUSH1 0x20 ADD ADD MLOAD PUSH1 0xF8 SHR PUSH1 0xF8 SHL PUSH31 0xFFFFFFFFFFFFFFFFFFFFFFFFFFFFFFFFFFFFFFFFFFFFFFFFFFFFFFFFFFFFFF NOT AND SUB PUSH2 0xE1D JUMPI PUSH1 0x1 DUP3 PUSH2 0xE16 SWAP2 SWAP1 PUSH2 0x1AFE JUMP JUMPDEST SWAP2 POP PUSH2 0xDA3 JUMP JUMPDEST PUSH1 0x0 SWAP4 POP PUSH2 0xE3B JUMP JUMPDEST JUMPDEST JUMPDEST DUP2 DUP1 PUSH2 0xE33 SWAP1 PUSH2 0x1B61 JUMP JUMPDEST SWAP3 POP POP PUSH2 0xCA7 JUMP JUMPDEST POP PUSH2 0xF59 JUMP JUMPDEST PUSH1 0x8 DUP4 EQ PUSH2 0xE52 JUMPI PUSH2 0xE51 PUSH2 0x1BDD JUMP JUMPDEST JUMPDEST JUMPDEST DUP2 DUP2 LT ISZERO PUSH2 0xF58 JUMPI PUSH32 0x2000000000000000000000000000000000000000000000000000000000000000 DUP7 DUP3 DUP2 MLOAD DUP2 LT PUSH2 0xE8F JUMPI PUSH2 0xE8E PUSH2 0x1B32 JUMP JUMPDEST JUMPDEST PUSH1 0x20 ADD ADD MLOAD PUSH1 0xF8 SHR PUSH1 0xF8 SHL PUSH31 0xFFFFFFFFFFFFFFFFFFFFFFFFFFFFFFFFFFFFFFFFFFFFFFFFFFFFFFFFFFFFFF NOT AND SUB PUSH2 0xF45 JUMPI JUMPDEST PUSH32 0x2000000000000000000000000000000000000000000000000000000000000000 DUP7 DUP3 DUP2 MLOAD DUP2 LT PUSH2 0xEF6 JUMPI PUSH2 0xEF5 PUSH2 0x1B32 JUMP JUMPDEST JUMPDEST PUSH1 0x20 ADD ADD MLOAD PUSH1 0xF8 SHR PUSH1 0xF8 SHL PUSH31 0xFFFFFFFFFFFFFFFFFFFFFFFFFFFFFFFFFFFFFFFFFFFFFFFFFFFFFFFFFFFFFF NOT AND SUB PUSH2 0xF3C JUMPI PUSH1 0x1 DUP2 PUSH2 0xF35 SWAP2 SWAP1 PUSH2 0x1AFE JUMP JUMPDEST SWAP1 POP PUSH2 0xEC2 JUMP JUMPDEST PUSH1 0x0 SWAP3 POP PUSH2 0xF58 JUMP JUMPDEST DUP1 DUP1 PUSH2 0xF50 SWAP1 PUSH2 0x1B61 JUMP JUMPDEST SWAP2 POP POP PUSH2 0xE53 JUMP JUMPDEST JUMPDEST JUMPDEST JUMPDEST JUMPDEST JUMPDEST JUMPDEST JUMPDEST PUSH2 0x5DF JUMP JUMPDEST POP PUSH1 0x40 MLOAD DUP1 PUSH1 0x20 ADD PUSH1 0x40 MSTORE DUP1 PUSH1 0x0 DUP2 MSTORE POP SWAP3 POP POP POP JUMPDEST SWAP3 SWAP2 POP POP JUMP JUMPDEST PUSH1 0x60 PUSH1 0x0 DUP1 DUP5 DUP5 PUSH2 0xF91 SWAP2 SWAP1 PUSH2 0x1BA9 JUMP JUMPDEST SWAP1 POP PUSH1 0x1 PUSH1 0x2 DUP3 PUSH2 0xFA2 SWAP2 SWAP1 PUSH2 0x1C3B JUMP JUMPDEST SUB PUSH2 0xFE2 JUMPI PUSH1 0x40 MLOAD PUSH32 0x8C379A000000000000000000000000000000000000000000000000000000000 DUP2 MSTORE PUSH1 0x4 ADD PUSH2 0xFD9 SWAP1 PUSH2 0x1CC9 JUMP JUMPDEST PUSH1 0x40 MLOAD DUP1 SWAP2 SUB SWAP1 REVERT JUMPDEST PUSH1 0x2 DUP2 PUSH2 0xFEF SWAP2 SWAP1 PUSH2 0x1CE9 JUMP JUMPDEST PUSH8 0xFFFFFFFFFFFFFFFF DUP2 GT ISZERO PUSH2 0x1008 JUMPI PUSH2 0x1007 PUSH2 0x18ED JUMP JUMPDEST JUMPDEST PUSH1 0x40 MLOAD SWAP1 DUP1 DUP3 MSTORE DUP1 PUSH1 0x1F ADD PUSH1 0x1F NOT AND PUSH1 0x20 ADD DUP3 ADD PUSH1 0x40 MSTORE DUP1 ISZERO PUSH2 0x103A JUMPI DUP2 PUSH1 0x20 ADD PUSH1 0x1 DUP3 MUL DUP1 CALLDATASIZE DUP4 CALLDATACOPY DUP1 DUP3 ADD SWAP2 POP POP SWAP1 POP JUMPDEST POP SWAP3 POP PUSH1 0x1 SWAP2 POP DUP6 MLOAD DUP5 GT ISZERO PUSH2 0x104F JUMPI PUSH1 0x0 DUP1 REVERT JUMPDEST PUSH2 0x10B1 JUMP JUMPDEST PUSH1 0x0 PUSH1 0x3A DUP3 LT PUSH1 0x2F DUP4 GT AND ISZERO PUSH2 0x106F JUMPI PUSH1 0x30 DUP3 SUB SWAP1 POP PUSH2 0x10AC JUMP JUMPDEST PUSH1 0x47 DUP3 LT PUSH1 0x40 DUP4 GT AND ISZERO PUSH2 0x108B JUMPI PUSH1 0xA PUSH1 0x41 DUP4 SUB ADD SWAP1 POP PUSH2 0x10AC JUMP JUMPDEST PUSH1 0x67 DUP3 LT PUSH1 0x60 DUP4 GT AND ISZERO PUSH2 0x10A7 JUMPI PUSH1 0xA PUSH1 0x61 DUP4 SUB ADD SWAP1 POP PUSH2 0x10AC JUMP JUMPDEST PUSH1 0xFF SWAP1 POP JUMPDEST SWAP2 SWAP1 POP JUMP JUMPDEST PUSH1 0x20 DUP7 ADD DUP6 JUMPDEST DUP6 DUP2 LT ISZERO PUSH2 0x111A JUMPI PUSH2 0x10CE DUP2 DUP4 ADD MLOAD PUSH1 0x0 BYTE PUSH2 0x1054 JUMP JUMPDEST PUSH2 0x10E0 PUSH1 0x1 DUP4 ADD DUP5 ADD MLOAD PUSH1 0x0 BYTE PUSH2 0x1054 JUMP JUMPDEST PUSH1 0xFF DUP2 EQ PUSH1 0xFF DUP4 EQ OR ISZERO PUSH2 0x10F9 JUMPI PUSH1 0x0 SWAP6 POP POP POP PUSH2 0x111A JUMP JUMPDEST DUP1 DUP3 PUSH1 0x4 SHL OR DUP1 PUSH1 0x2 DUP12 DUP7 SUB DIV PUSH1 0x20 DUP11 ADD ADD MSTORE8 POP POP POP PUSH1 0x2 DUP2 ADD SWAP1 POP PUSH2 0x10B7 JUMP JUMPDEST POP POP POP SWAP4 POP SWAP4 SWAP2 POP POP JUMP JUMPDEST PUSH1 0x60 PUSH1 0x0 DUP3 SUB PUSH2 0x116C JUMPI PUSH1 0x40 MLOAD DUP1 PUSH1 0x40 ADD PUSH1 0x40 MSTORE DUP1 PUSH1 0x1 DUP2 MSTORE PUSH1 0x20 ADD PUSH32 0x3000000000000000000000000000000000000000000000000000000000000000 DUP2 MSTORE POP SWAP1 POP PUSH2 0x1280 JUMP JUMPDEST PUSH1 0x0 DUP3 SWAP1 POP PUSH1 0x0 JUMPDEST PUSH1 0x0 DUP3 EQ PUSH2 0x119E JUMPI DUP1 DUP1 PUSH2 0x1187 SWAP1 PUSH2 0x1B61 JUMP JUMPDEST SWAP2 POP POP PUSH1 0xA DUP3 PUSH2 0x1197 SWAP2 SWAP1 PUSH2 0x1CE9 JUMP JUMPDEST SWAP2 POP PUSH2 0x1174 JUMP JUMPDEST PUSH1 0x0 DUP2 PUSH8 0xFFFFFFFFFFFFFFFF DUP2 GT ISZERO PUSH2 0x11BA JUMPI PUSH2 0x11B9 PUSH2 0x18ED JUMP JUMPDEST JUMPDEST PUSH1 0x40 MLOAD SWAP1 DUP1 DUP3 MSTORE DUP1 PUSH1 0x1F ADD PUSH1 0x1F NOT AND PUSH1 0x20 ADD DUP3 ADD PUSH1 0x40 MSTORE DUP1 ISZERO PUSH2 0x11EC JUMPI DUP2 PUSH1 0x20 ADD PUSH1 0x1 DUP3 MUL DUP1 CALLDATASIZE DUP4 CALLDATACOPY DUP1 DUP3 ADD SWAP2 POP POP SWAP1 POP JUMPDEST POP SWAP1 POP JUMPDEST PUSH1 0x0 DUP6 EQ PUSH2 0x1279 JUMPI PUSH1 0x1 DUP3 PUSH2 0x1205 SWAP2 SWAP1 PUSH2 0x1BA9 JUMP JUMPDEST SWAP2 POP PUSH1 0xA DUP6 PUSH2 0x1214 SWAP2 SWAP1 PUSH2 0x1C3B JUMP JUMPDEST PUSH1 0x30 PUSH2 0x1220 SWAP2 SWAP1 PUSH2 0x1AFE JUMP JUMPDEST PUSH1 0xF8 SHL DUP2 DUP4 DUP2 MLOAD DUP2 LT PUSH2 0x1236 JUMPI PUSH2 0x1235 PUSH2 0x1B32 JUMP JUMPDEST JUMPDEST PUSH1 0x20 ADD ADD SWAP1 PUSH31 0xFFFFFFFFFFFFFFFFFFFFFFFFFFFFFFFFFFFFFFFFFFFFFFFFFFFFFFFFFFFFFF NOT AND SWAP1 DUP2 PUSH1 0x0 BYTE SWAP1 MSTORE8 POP PUSH1 0xA DUP6 PUSH2 0x1272 SWAP2 SWAP1 PUSH2 0x1CE9 JUMP JUMPDEST SWAP5 POP PUSH2 0x11F0 JUMP JUMPDEST DUP1 SWAP4 POP POP POP POP JUMPDEST SWAP2 SWAP1 POP JUMP JUMPDEST PUSH1 0x0 PUSH2 0x1292 DUP5 DUP5 DUP5 PUSH2 0x133E JUMP JUMPDEST PUSH2 0x129D DUP8 DUP8 DUP6 PUSH2 0x133E JUMP JUMPDEST EQ SWAP1 POP SWAP6 SWAP5 POP POP POP POP POP JUMP JUMPDEST PUSH1 0x60 DUP4 MLOAD DUP3 DUP5 PUSH2 0x12B9 SWAP2 SWAP1 PUSH2 0x1AFE JUMP JUMPDEST GT ISZERO PUSH2 0x12C4 JUMPI PUSH1 0x0 DUP1 REVERT JUMPDEST PUSH1 0x0 DUP3 PUSH8 0xFFFFFFFFFFFFFFFF DUP2 GT ISZERO PUSH2 0x12E0 JUMPI PUSH2 0x12DF PUSH2 0x18ED JUMP JUMPDEST JUMPDEST PUSH1 0x40 MLOAD SWAP1 DUP1 DUP3 MSTORE DUP1 PUSH1 0x1F ADD PUSH1 0x1F NOT AND PUSH1 0x20 ADD DUP3 ADD PUSH1 0x40 MSTORE DUP1 ISZERO PUSH2 0x1312 JUMPI DUP2 PUSH1 0x20 ADD PUSH1 0x1 DUP3 MUL DUP1 CALLDATASIZE DUP4 CALLDATACOPY DUP1 DUP3 ADD SWAP2 POP POP SWAP1 POP JUMPDEST POP SWAP1 POP PUSH1 0x0 DUP1 PUSH1 0x20 DUP4 ADD SWAP2 POP DUP6 PUSH1 0x20 DUP9 ADD ADD SWAP1 POP PUSH2 0x1331 DUP3 DUP3 DUP8 PUSH2 0x136A JUMP JUMPDEST DUP3 SWAP4 POP POP POP POP SWAP4 SWAP3 POP POP POP JUMP JUMPDEST PUSH1 0x0 DUP4 MLOAD DUP3 DUP5 PUSH2 0x134E SWAP2 SWAP1 PUSH2 0x1AFE JUMP JUMPDEST GT ISZERO PUSH2 0x1359 JUMPI PUSH1 0x0 DUP1 REVERT JUMPDEST DUP2 DUP4 PUSH1 0x20 DUP7 ADD ADD KECCAK256 SWAP1 POP SWAP4 SWAP3 POP POP POP JUMP JUMPDEST JUMPDEST PUSH1 0x20 DUP2 LT PUSH2 0x13A9 JUMPI DUP2 MLOAD DUP4 MSTORE PUSH1 0x20 DUP4 PUSH2 0x1384 SWAP2 SWAP1 PUSH2 0x1AFE JUMP JUMPDEST SWAP3 POP PUSH1 0x20 DUP3 PUSH2 0x1393 SWAP2 SWAP1 PUSH2 0x1AFE JUMP JUMPDEST SWAP2 POP PUSH1 0x20 DUP2 PUSH2 0x13A2 SWAP2 SWAP1 PUSH2 0x1BA9 JUMP JUMPDEST SWAP1 POP PUSH2 0x136B JUMP JUMPDEST PUSH1 0x0 PUSH1 0x1 DUP3 PUSH1 0x20 SUB PUSH2 0x100 EXP SUB SWAP1 POP DUP1 NOT DUP4 MLOAD AND DUP2 DUP6 MLOAD AND DUP2 DUP2 OR DUP7 MSTORE POP POP POP POP POP POP JUMP JUMPDEST PUSH1 0x0 PUSH1 0x40 MLOAD SWAP1 POP SWAP1 JUMP JUMPDEST PUSH1 0x0 DUP1 REVERT JUMPDEST PUSH1 0x0 DUP1 REVERT JUMPDEST PUSH1 0x0 PUSH32 0xFFFFFFFF00000000000000000000000000000000000000000000000000000000 DUP3 AND SWAP1 POP SWAP2 SWAP1 POP JUMP JUMPDEST PUSH2 0x1417 DUP2 PUSH2 0x13E2 JUMP JUMPDEST DUP2 EQ PUSH2 0x1422 JUMPI PUSH1 0x0 DUP1 REVERT JUMPDEST POP JUMP JUMPDEST PUSH1 0x0 DUP2 CALLDATALOAD SWAP1 POP PUSH2 0x1434 DUP2 PUSH2 0x140E JUMP JUMPDEST SWAP3 SWAP2 POP POP JUMP JUMPDEST PUSH1 0x0 PUSH1 0x20 DUP3 DUP5 SUB SLT ISZERO PUSH2 0x1450 JUMPI PUSH2 0x144F PUSH2 0x13D8 JUMP JUMPDEST JUMPDEST PUSH1 0x0 PUSH2 0x145E DUP5 DUP3 DUP6 ADD PUSH2 0x1425 JUMP JUMPDEST SWAP2 POP POP SWAP3 SWAP2 POP POP JUMP JUMPDEST PUSH1 0x0 DUP2 ISZERO ISZERO SWAP1 POP SWAP2 SWAP1 POP JUMP JUMPDEST PUSH2 0x147C DUP2 PUSH2 0x1467 JUMP JUMPDEST DUP3 MSTORE POP POP JUMP JUMPDEST PUSH1 0x0 PUSH1 0x20 DUP3 ADD SWAP1 POP PUSH2 0x1497 PUSH1 0x0 DUP4 ADD DUP5 PUSH2 0x1473 JUMP JUMPDEST SWAP3 SWAP2 POP POP JUMP JUMPDEST PUSH1 0x0 DUP1 REVERT JUMPDEST PUSH1 0x0 DUP1 REVERT JUMPDEST PUSH1 0x0 DUP1 REVERT JUMPDEST PUSH1 0x0 DUP1 DUP4 PUSH1 0x1F DUP5 ADD SLT PUSH2 0x14C2 JUMPI PUSH2 0x14C1 PUSH2 0x149D JUMP JUMPDEST JUMPDEST DUP3 CALLDATALOAD SWAP1 POP PUSH8 0xFFFFFFFFFFFFFFFF DUP2 GT ISZERO PUSH2 0x14DF JUMPI PUSH2 0x14DE PUSH2 0x14A2 JUMP JUMPDEST JUMPDEST PUSH1 0x20 DUP4 ADD SWAP2 POP DUP4 PUSH1 0x1 DUP3 MUL DUP4 ADD GT ISZERO PUSH2 0x14FB JUMPI PUSH2 0x14FA PUSH2 0x14A7 JUMP JUMPDEST JUMPDEST SWAP3 POP SWAP3 SWAP1 POP JUMP JUMPDEST PUSH1 0x0 DUP1 PUSH1 0x0 DUP1 PUSH1 0x0 DUP1 PUSH1 0x60 DUP8 DUP10 SUB SLT ISZERO PUSH2 0x151F JUMPI PUSH2 0x151E PUSH2 0x13D8 JUMP JUMPDEST JUMPDEST PUSH1 0x0 DUP8 ADD CALLDATALOAD PUSH8 0xFFFFFFFFFFFFFFFF DUP2 GT ISZERO PUSH2 0x153D JUMPI PUSH2 0x153C PUSH2 0x13DD JUMP JUMPDEST JUMPDEST PUSH2 0x1549 DUP10 DUP3 DUP11 ADD PUSH2 0x14AC JUMP JUMPDEST SWAP7 POP SWAP7 POP POP PUSH1 0x20 DUP8 ADD CALLDATALOAD PUSH8 0xFFFFFFFFFFFFFFFF DUP2 GT ISZERO PUSH2 0x156C JUMPI PUSH2 0x156B PUSH2 0x13DD JUMP JUMPDEST JUMPDEST PUSH2 0x1578 DUP10 DUP3 DUP11 ADD PUSH2 0x14AC JUMP JUMPDEST SWAP5 POP SWAP5 POP POP PUSH1 0x40 DUP8 ADD CALLDATALOAD PUSH8 0xFFFFFFFFFFFFFFFF DUP2 GT ISZERO PUSH2 0x159B JUMPI PUSH2 0x159A PUSH2 0x13DD JUMP JUMPDEST JUMPDEST PUSH2 0x15A7 DUP10 DUP3 DUP11 ADD PUSH2 0x14AC JUMP JUMPDEST SWAP3 POP SWAP3 POP POP SWAP3 SWAP6 POP SWAP3 SWAP6 POP SWAP3 SWAP6 JUMP JUMPDEST PUSH1 0x0 DUP2 MLOAD SWAP1 POP SWAP2 SWAP1 POP JUMP JUMPDEST PUSH1 0x0 DUP3 DUP3 MSTORE PUSH1 0x20 DUP3 ADD SWAP1 POP SWAP3 SWAP2 POP POP JUMP JUMPDEST PUSH1 0x0 JUMPDEST DUP4 DUP2 LT ISZERO PUSH2 0x15F0 JUMPI DUP1 DUP3 ADD MLOAD DUP2 DUP5 ADD MSTORE PUSH1 0x20 DUP2 ADD SWAP1 POP PUSH2 0x15D5 JUMP JUMPDEST PUSH1 0x0 DUP5 DUP5 ADD MSTORE POP POP POP POP JUMP JUMPDEST PUSH1 0x0 PUSH1 0x1F NOT PUSH1 0x1F DUP4 ADD AND SWAP1 POP SWAP2 SWAP1 POP JUMP JUMPDEST PUSH1 0x0 PUSH2 0x1618 DUP3 PUSH2 0x15B6 JUMP JUMPDEST PUSH2 0x1622 DUP2 DUP6 PUSH2 0x15C1 JUMP JUMPDEST SWAP4 POP PUSH2 0x1632 DUP2 DUP6 PUSH1 0x20 DUP7 ADD PUSH2 0x15D2 JUMP JUMPDEST PUSH2 0x163B DUP2 PUSH2 0x15FC JUMP JUMPDEST DUP5 ADD SWAP2 POP POP SWAP3 SWAP2 POP POP JUMP JUMPDEST PUSH1 0x0 PUSH1 0x20 DUP3 ADD SWAP1 POP DUP2 DUP2 SUB PUSH1 0x0 DUP4 ADD MSTORE PUSH2 0x1660 DUP2 DUP5 PUSH2 0x160D JUMP JUMPDEST SWAP1 POP SWAP3 SWAP2 POP POP JUMP JUMPDEST PUSH1 0x0 DUP3 SWAP1 POP SWAP3 SWAP2 POP POP JUMP JUMPDEST PUSH1 0x0 DUP3 DUP3 SHL SWAP1 POP SWAP3 SWAP2 POP POP JUMP JUMPDEST PUSH1 0x0 PUSH2 0x168C DUP4 DUP4 PUSH2 0x1668 JUMP JUMPDEST DUP3 PUSH2 0x1697 DUP2 CALLDATALOAD PUSH2 0x13E2 JUMP JUMPDEST SWAP3 POP PUSH1 0x4 DUP3 LT ISZERO PUSH2 0x16D7 JUMPI PUSH2 0x16D2 PUSH32 0xFFFFFFFF00000000000000000000000000000000000000000000000000000000 DUP4 PUSH1 0x4 SUB PUSH1 0x8 MUL PUSH2 0x1673 JUMP JUMPDEST DUP4 AND SWAP3 POP JUMPDEST POP POP SWAP3 SWAP2 POP POP JUMP JUMPDEST PUSH1 0x0 DUP1 REVERT JUMPDEST PUSH1 0x0 DUP1 REVERT JUMPDEST PUSH1 0x0 DUP1 DUP6 DUP6 GT ISZERO PUSH2 0x16FD JUMPI PUSH2 0x16FC PUSH2 0x16DF JUMP JUMPDEST JUMPDEST DUP4 DUP7 GT ISZERO PUSH2 0x170E JUMPI PUSH2 0x170D PUSH2 0x16E4 JUMP JUMPDEST JUMPDEST PUSH1 0x1 DUP6 MUL DUP4 ADD SWAP2 POP DUP5 DUP7 SUB SWAP1 POP SWAP5 POP SWAP5 SWAP3 POP POP POP JUMP JUMPDEST PUSH1 0x0 DUP2 SWAP1 POP SWAP2 SWAP1 POP JUMP JUMPDEST PUSH2 0x1737 DUP2 PUSH2 0x1724 JUMP JUMPDEST DUP2 EQ PUSH2 0x1742 JUMPI PUSH1 0x0 DUP1 REVERT JUMPDEST POP JUMP JUMPDEST PUSH1 0x0 DUP2 CALLDATALOAD SWAP1 POP PUSH2 0x1754 DUP2 PUSH2 0x172E JUMP JUMPDEST SWAP3 SWAP2 POP POP JUMP JUMPDEST PUSH1 0x0 DUP2 SWAP1 POP SWAP2 SWAP1 POP JUMP JUMPDEST PUSH2 0x176D DUP2 PUSH2 0x175A JUMP JUMPDEST DUP2 EQ PUSH2 0x1778 JUMPI PUSH1 0x0 DUP1 REVERT JUMPDEST POP JUMP JUMPDEST PUSH1 0x0 DUP2 CALLDATALOAD SWAP1 POP PUSH2 0x178A DUP2 PUSH2 0x1764 JUMP JUMPDEST SWAP3 SWAP2 POP POP JUMP JUMPDEST PUSH1 0x0 DUP1 PUSH1 0x40 DUP4 DUP6 SUB SLT ISZERO PUSH2 0x17A7 JUMPI PUSH2 0x17A6 PUSH2 0x13D8 JUMP JUMPDEST JUMPDEST PUSH1 0x0 PUSH2 0x17B5 DUP6 DUP3 DUP7 ADD PUSH2 0x1745 JUMP JUMPDEST SWAP3 POP POP PUSH1 0x20 PUSH2 0x17C6 DUP6 DUP3 DUP7 ADD PUSH2 0x177B JUMP JUMPDEST SWAP2 POP POP SWAP3 POP SWAP3 SWAP1 POP JUMP JUMPDEST PUSH32 0x615B650000000000000000000000000000000000000000000000000000000000 DUP2 MSTORE POP JUMP JUMPDEST PUSH1 0x0 DUP2 SWAP1 POP SWAP3 SWAP2 POP POP JUMP JUMPDEST PUSH1 0x0 PUSH2 0x180C DUP3 PUSH2 0x15B6 JUMP JUMPDEST PUSH2 0x1816 DUP2 DUP6 PUSH2 0x17F6 JUMP JUMPDEST SWAP4 POP PUSH2 0x1826 DUP2 DUP6 PUSH1 0x20 DUP7 ADD PUSH2 0x15D2 JUMP JUMPDEST DUP1 DUP5 ADD SWAP2 POP POP SWAP3 SWAP2 POP POP JUMP JUMPDEST PUSH32 0x5D3D000000000000000000000000000000000000000000000000000000000000 DUP2 MSTORE POP JUMP JUMPDEST PUSH1 0x0 PUSH2 0x1863 DUP3 PUSH2 0x17D0 JUMP JUMPDEST PUSH1 0x3 DUP3 ADD SWAP2 POP PUSH2 0x1873 DUP3 DUP5 PUSH2 0x1801 JUMP JUMPDEST SWAP2 POP PUSH2 0x187E DUP3 PUSH2 0x1832 JUMP JUMPDEST PUSH1 0x2 DUP3 ADD SWAP2 POP DUP2 SWAP1 POP SWAP3 SWAP2 POP POP JUMP JUMPDEST PUSH32 0x615B000000000000000000000000000000000000000000000000000000000000 DUP2 MSTORE POP JUMP JUMPDEST PUSH1 0x0 PUSH2 0x18BE DUP3 PUSH2 0x188D JUMP JUMPDEST PUSH1 0x2 DUP3 ADD SWAP2 POP PUSH2 0x18CE DUP3 DUP5 PUSH2 0x1801 JUMP JUMPDEST SWAP2 POP PUSH2 0x18D9 DUP3 PUSH2 0x1832 JUMP JUMPDEST PUSH1 0x2 DUP3 ADD SWAP2 POP DUP2 SWAP1 POP SWAP3 SWAP2 POP POP JUMP JUMPDEST PUSH1 0x0 DUP1 REVERT JUMPDEST PUSH32 0x4E487B7100000000000000000000000000000000000000000000000000000000 PUSH1 0x0 MSTORE PUSH1 0x41 PUSH1 0x4 MSTORE PUSH1 0x24 PUSH1 0x0 REVERT JUMPDEST PUSH2 0x1925 DUP3 PUSH2 0x15FC JUMP JUMPDEST DUP2 ADD DUP2 DUP2 LT PUSH8 0xFFFFFFFFFFFFFFFF DUP3 GT OR ISZERO PUSH2 0x1944 JUMPI PUSH2 0x1943 PUSH2 0x18ED JUMP JUMPDEST JUMPDEST DUP1 PUSH1 0x40 MSTORE POP POP POP JUMP JUMPDEST PUSH1 0x0 PUSH2 0x1957 PUSH2 0x13CE JUMP JUMPDEST SWAP1 POP PUSH2 0x1963 DUP3 DUP3 PUSH2 0x191C JUMP JUMPDEST SWAP2 SWAP1 POP JUMP JUMPDEST PUSH1 0x0 PUSH8 0xFFFFFFFFFFFFFFFF DUP3 GT ISZERO PUSH2 0x1983 JUMPI PUSH2 0x1982 PUSH2 0x18ED JUMP JUMPDEST JUMPDEST PUSH2 0x198C DUP3 PUSH2 0x15FC JUMP JUMPDEST SWAP1 POP PUSH1 0x20 DUP2 ADD SWAP1 POP SWAP2 SWAP1 POP JUMP JUMPDEST DUP3 DUP2 DUP4 CALLDATACOPY PUSH1 0x0 DUP4 DUP4 ADD MSTORE POP POP POP JUMP JUMPDEST PUSH1 0x0 PUSH2 0x19BB PUSH2 0x19B6 DUP5 PUSH2 0x1968 JUMP JUMPDEST PUSH2 0x194D JUMP JUMPDEST SWAP1 POP DUP3 DUP2 MSTORE PUSH1 0x20 DUP2 ADD DUP5 DUP5 DUP5 ADD GT ISZERO PUSH2 0x19D7 JUMPI PUSH2 0x19D6 PUSH2 0x18E8 JUMP JUMPDEST JUMPDEST PUSH2 0x19E2 DUP5 DUP3 DUP6 PUSH2 0x1999 JUMP JUMPDEST POP SWAP4 SWAP3 POP POP POP JUMP JUMPDEST PUSH1 0x0 DUP3 PUSH1 0x1F DUP4 ADD SLT PUSH2 0x19FF JUMPI PUSH2 0x19FE PUSH2 0x149D JUMP JUMPDEST JUMPDEST DUP2 CALLDATALOAD PUSH2 0x1A0F DUP5 DUP3 PUSH1 0x20 DUP7 ADD PUSH2 0x19A8 JUMP JUMPDEST SWAP2 POP POP SWAP3 SWAP2 POP POP JUMP JUMPDEST PUSH1 0x0 DUP1 PUSH1 0x40 DUP4 DUP6 SUB SLT ISZERO PUSH2 0x1A2F JUMPI PUSH2 0x1A2E PUSH2 0x13D8 JUMP JUMPDEST JUMPDEST PUSH1 0x0 PUSH2 0x1A3D DUP6 DUP3 DUP7 ADD PUSH2 0x1745 JUMP JUMPDEST SWAP3 POP POP PUSH1 0x20 DUP4 ADD CALLDATALOAD PUSH8 0xFFFFFFFFFFFFFFFF DUP2 GT ISZERO PUSH2 0x1A5E JUMPI PUSH2 0x1A5D PUSH2 0x13DD JUMP JUMPDEST JUMPDEST PUSH2 0x1A6A DUP6 DUP3 DUP7 ADD PUSH2 0x19EA JUMP JUMPDEST SWAP2 POP POP SWAP3 POP SWAP3 SWAP1 POP JUMP JUMPDEST PUSH32 0x745B000000000000000000000000000000000000000000000000000000000000 DUP2 MSTORE POP JUMP JUMPDEST PUSH1 0x0 PUSH2 0x1AA5 DUP3 PUSH2 0x1A74 JUMP JUMPDEST PUSH1 0x2 DUP3 ADD SWAP2 POP PUSH2 0x1AB5 DUP3 DUP5 PUSH2 0x1801 JUMP JUMPDEST SWAP2 POP PUSH2 0x1AC0 DUP3 PUSH2 0x1832 JUMP JUMPDEST PUSH1 0x2 DUP3 ADD SWAP2 POP DUP2 SWAP1 POP SWAP3 SWAP2 POP POP JUMP JUMPDEST PUSH32 0x4E487B7100000000000000000000000000000000000000000000000000000000 PUSH1 0x0 MSTORE PUSH1 0x11 PUSH1 0x4 MSTORE PUSH1 0x24 PUSH1 0x0 REVERT JUMPDEST PUSH1 0x0 PUSH2 0x1B09 DUP3 PUSH2 0x175A JUMP JUMPDEST SWAP2 POP PUSH2 0x1B14 DUP4 PUSH2 0x175A JUMP JUMPDEST SWAP3 POP DUP3 DUP3 ADD SWAP1 POP DUP1 DUP3 GT ISZERO PUSH2 0x1B2C JUMPI PUSH2 0x1B2B PUSH2 0x1ACF JUMP JUMPDEST JUMPDEST SWAP3 SWAP2 POP POP JUMP JUMPDEST PUSH32 0x4E487B7100000000000000000000000000000000000000000000000000000000 PUSH1 0x0 MSTORE PUSH1 0x32 PUSH1 0x4 MSTORE PUSH1 0x24 PUSH1 0x0 REVERT JUMPDEST PUSH1 0x0 PUSH2 0x1B6C DUP3 PUSH2 0x175A JUMP JUMPDEST SWAP2 POP PUSH32 0xFFFFFFFFFFFFFFFFFFFFFFFFFFFFFFFFFFFFFFFFFFFFFFFFFFFFFFFFFFFFFFFF DUP3 SUB PUSH2 0x1B9E JUMPI PUSH2 0x1B9D PUSH2 0x1ACF JUMP JUMPDEST JUMPDEST PUSH1 0x1 DUP3 ADD SWAP1 POP SWAP2 SWAP1 POP JUMP JUMPDEST PUSH1 0x0 PUSH2 0x1BB4 DUP3 PUSH2 0x175A JUMP JUMPDEST SWAP2 POP PUSH2 0x1BBF DUP4 PUSH2 0x175A JUMP JUMPDEST SWAP3 POP DUP3 DUP3 SUB SWAP1 POP DUP2 DUP2 GT ISZERO PUSH2 0x1BD7 JUMPI PUSH2 0x1BD6 PUSH2 0x1ACF JUMP JUMPDEST JUMPDEST SWAP3 SWAP2 POP POP JUMP JUMPDEST PUSH32 0x4E487B7100000000000000000000000000000000000000000000000000000000 PUSH1 0x0 MSTORE PUSH1 0x1 PUSH1 0x4 MSTORE PUSH1 0x24 PUSH1 0x0 REVERT JUMPDEST PUSH32 0x4E487B7100000000000000000000000000000000000000000000000000000000 PUSH1 0x0 MSTORE PUSH1 0x12 PUSH1 0x4 MSTORE PUSH1 0x24 PUSH1 0x0 REVERT JUMPDEST PUSH1 0x0 PUSH2 0x1C46 DUP3 PUSH2 0x175A JUMP JUMPDEST SWAP2 POP PUSH2 0x1C51 DUP4 PUSH2 0x175A JUMP JUMPDEST SWAP3 POP DUP3 PUSH2 0x1C61 JUMPI PUSH2 0x1C60 PUSH2 0x1C0C JUMP JUMPDEST JUMPDEST DUP3 DUP3 MOD SWAP1 POP SWAP3 SWAP2 POP POP JUMP JUMPDEST PUSH1 0x0 DUP3 DUP3 MSTORE PUSH1 0x20 DUP3 ADD SWAP1 POP SWAP3 SWAP2 POP POP JUMP JUMPDEST PUSH32 0x496E76616C696420737472696E67206C656E6774680000000000000000000000 PUSH1 0x0 DUP3 ADD MSTORE POP JUMP JUMPDEST PUSH1 0x0 PUSH2 0x1CB3 PUSH1 0x15 DUP4 PUSH2 0x1C6C JUMP JUMPDEST SWAP2 POP PUSH2 0x1CBE DUP3 PUSH2 0x1C7D JUMP JUMPDEST PUSH1 0x20 DUP3 ADD SWAP1 POP SWAP2 SWAP1 POP JUMP JUMPDEST PUSH1 0x0 PUSH1 0x20 DUP3 ADD SWAP1 POP DUP2 DUP2 SUB PUSH1 0x0 DUP4 ADD MSTORE PUSH2 0x1CE2 DUP2 PUSH2 0x1CA6 JUMP JUMPDEST SWAP1 POP SWAP2 SWAP1 POP JUMP JUMPDEST PUSH1 0x0 PUSH2 0x1CF4 DUP3 PUSH2 0x175A JUMP JUMPDEST SWAP2 POP PUSH2 0x1CFF DUP4 PUSH2 0x175A JUMP JUMPDEST SWAP3 POP DUP3 PUSH2 0x1D0F JUMPI PUSH2 0x1D0E PUSH2 0x1C0C JUMP JUMPDEST JUMPDEST DUP3 DUP3 DIV SWAP1 POP SWAP3 SWAP2 POP POP JUMP INVALID LOG2 PUSH5 0x6970667358 0x22 SLT KECCAK256 SDIV CALLDATACOPY BASEFEE PUSH19 0xC79E9FC994EBA7AD7EED44ECD4912BDF5010CE COINBASE CALLDATALOAD 0xD8 0xAB EXTCODECOPY 0xC3 ADDRESS RETURNDATACOPY 0x2D PUSH5 0x736F6C6343 STOP ADDMOD SHL STOP CALLER "
		},
		"gasEstimates": {
			"creation": {
				"codeDepositCost": "1500800",
				"executionCost": "1568",
				"totalCost": "1502368"
			},
			"external": {
				"resolve(bytes,bytes,bytes)": "infinite",
				"supportsInterface(bytes4)": "616"
			},
			"internal": {
				"_findValue(bytes memory,bytes memory)": "infinite",
				"_resolveAddr(bytes calldata)": "infinite",
				"_resolveAddress(bytes calldata,bytes calldata)": "infinite",
				"_resolveText(bytes calldata,bytes calldata)": "infinite"
			}
		},
		"methodIdentifiers": {
			"resolve(bytes,bytes,bytes)": "8ef98a7e",
			"supportsInterface(bytes4)": "01ffc9a7"
		}
	},
	"abi": [
		{
			"inputs": [
				{
					"internalType": "bytes",
					"name": "addr",
					"type": "bytes"
				}
			],
			"name": "InvalidAddressFormat",
			"type": "error"
		},
		{
			"inputs": [],
			"name": "NotImplemented",
			"type": "error"
		},
		{
			"inputs": [
				{
					"internalType": "bytes",
					"name": "",
					"type": "bytes"
				},
				{
					"internalType": "bytes",
					"name": "data",
					"type": "bytes"
				},
				{
					"internalType": "bytes",
					"name": "context",
					"type": "bytes"
				}
			],
			"name": "resolve",
			"outputs": [
				{
					"internalType": "bytes",
					"name": "",
					"type": "bytes"
				}
			],
			"stateMutability": "pure",
			"type": "function"
		},
		{
			"inputs": [
				{
					"internalType": "bytes4",
					"name": "interfaceId",
					"type": "bytes4"
				}
			],
			"name": "supportsInterface",
			"outputs": [
				{
					"internalType": "bool",
					"name": "",
					"type": "bool"
				}
			],
			"stateMutability": "view",
			"type": "function"
		}
	]
}