{
	"package/contracts/dnsregistrar/TLDPublicSuffixList.sol": {
		"TLDPublicSuffixList": {
			"abi": [
				{
					"inputs": [
						{
							"internalType": "bytes",
							"name": "name",
							"type": "bytes"
						}
					],
					"name": "isPublicSuffix",
					"outputs": [
						{
							"internalType": "bool",
							"name": "",
							"type": "bool"
						}
					],
					"stateMutability": "view",
					"type": "function"
				}
			],
			"devdoc": {
				"details": "A public suffix list that treats all TLDs as public suffixes.",
				"kind": "dev",
				"methods": {},
				"version": 1
			},
			"evm": {
				"assembly": "    /* \"package/contracts/dnsregistrar/TLDPublicSuffixList.sol\":171:449  contract TLDPublicSuffixList is PublicSuffixList {... */\n  mstore(0x40, 0x80)\n  callvalue\n  dup1\n  iszero\n  tag_1\n  jumpi\n  0x00\n  dup1\n  revert\ntag_1:\n  pop\n  dataSize(sub_0)\n  dup1\n  dataOffset(sub_0)\n  0x00\n  codecopy\n  0x00\n  return\nstop\n\nsub_0: assembly {\n        /* \"package/contracts/dnsregistrar/TLDPublicSuffixList.sol\":171:449  contract TLDPublicSuffixList is PublicSuffixList {... */\n      mstore(0x40, 0x80)\n      callvalue\n      dup1\n      iszero\n      tag_1\n      jumpi\n      0x00\n      dup1\n      revert\n    tag_1:\n      pop\n      jumpi(tag_2, lt(calldatasize, 0x04))\n      shr(0xe0, calldataload(0x00))\n      dup1\n      0x4f89059e\n      eq\n      tag_3\n      jumpi\n    tag_2:\n      0x00\n      dup1\n      revert\n        /* \"package/contracts/dnsregistrar/TLDPublicSuffixList.sol\":255:447  function isPublicSuffix(bytes calldata name) external view override returns (bool) {... */\n    tag_3:\n      tag_4\n      0x04\n      dup1\n      calldatasize\n      sub\n      dup2\n      add\n      swap1\n      tag_5\n      swap2\n      swap1\n      tag_6\n      jump\t// in\n    tag_5:\n      tag_7\n      jump\t// in\n    tag_4:\n      mload(0x40)\n      tag_8\n      swap2\n      swap1\n      tag_9\n      jump\t// in\n    tag_8:\n      mload(0x40)\n      dup1\n      swap2\n      sub\n      swap1\n      return\n    tag_7:\n        /* \"package/contracts/dnsregistrar/TLDPublicSuffixList.sol\":332:336  bool */\n      0x00\n        /* \"package/contracts/dnsregistrar/TLDPublicSuffixList.sol\":344:360  uint256 labellen */\n      dup1\n        /* \"package/contracts/dnsregistrar/TLDPublicSuffixList.sol\":363:380  name.readUint8(0) */\n      tag_11\n        /* \"package/contracts/dnsregistrar/TLDPublicSuffixList.sol\":378:379  0 */\n      0x00\n        /* \"package/contracts/dnsregistrar/TLDPublicSuffixList.sol\":363:367  name */\n      dup6\n      dup6\n        /* \"package/contracts/dnsregistrar/TLDPublicSuffixList.sol\":363:377  name.readUint8 */\n      dup1\n      dup1\n      0x1f\n      add\n      0x20\n      dup1\n      swap2\n      div\n      mul\n      0x20\n      add\n      mload(0x40)\n      swap1\n      dup2\n      add\n      0x40\n      mstore\n      dup1\n      swap4\n      swap3\n      swap2\n      swap1\n      dup2\n      dup2\n      mstore\n      0x20\n      add\n      dup4\n      dup4\n      dup1\n      dup3\n      dup5\n      calldatacopy\n      0x00\n      dup2\n      dup5\n      add\n      mstore\n      not(0x1f)\n      0x1f\n      dup3\n      add\n      and\n      swap1\n      pop\n      dup1\n      dup4\n      add\n      swap3\n      pop\n      pop\n      pop\n      pop\n      pop\n      pop\n      pop\n      tag_12\n      swap1\n        /* \"package/contracts/dnsregistrar/TLDPublicSuffixList.sol\":363:380  name.readUint8(0) */\n      swap2\n      swap1\n      0xffffffff\n      and\n      jump\t// in\n    tag_11:\n        /* \"package/contracts/dnsregistrar/TLDPublicSuffixList.sol\":344:380  uint256 labellen = name.readUint8(0) */\n      0xff\n      and\n      swap1\n      pop\n        /* \"package/contracts/dnsregistrar/TLDPublicSuffixList.sol\":404:405  0 */\n      0x00\n        /* \"package/contracts/dnsregistrar/TLDPublicSuffixList.sol\":393:401  labellen */\n      dup2\n        /* \"package/contracts/dnsregistrar/TLDPublicSuffixList.sol\":393:405  labellen > 0 */\n      gt\n        /* \"package/contracts/dnsregistrar/TLDPublicSuffixList.sol\":393:442  labellen > 0 && name.readUint8(labellen + 1) == 0 */\n      dup1\n      iszero\n      tag_13\n      jumpi\n      pop\n        /* \"package/contracts/dnsregistrar/TLDPublicSuffixList.sol\":441:442  0 */\n      0x00\n        /* \"package/contracts/dnsregistrar/TLDPublicSuffixList.sol\":409:437  name.readUint8(labellen + 1) */\n      tag_14\n        /* \"package/contracts/dnsregistrar/TLDPublicSuffixList.sol\":435:436  1 */\n      0x01\n        /* \"package/contracts/dnsregistrar/TLDPublicSuffixList.sol\":424:432  labellen */\n      dup4\n        /* \"package/contracts/dnsregistrar/TLDPublicSuffixList.sol\":424:436  labellen + 1 */\n      tag_15\n      swap2\n      swap1\n      tag_16\n      jump\t// in\n    tag_15:\n        /* \"package/contracts/dnsregistrar/TLDPublicSuffixList.sol\":409:413  name */\n      dup7\n      dup7\n        /* \"package/contracts/dnsregistrar/TLDPublicSuffixList.sol\":409:423  name.readUint8 */\n      dup1\n      dup1\n      0x1f\n      add\n      0x20\n      dup1\n      swap2\n      div\n      mul\n      0x20\n      add\n      mload(0x40)\n      swap1\n      dup2\n      add\n      0x40\n      mstore\n      dup1\n      swap4\n      swap3\n      swap2\n      swap1\n      dup2\n      dup2\n      mstore\n      0x20\n      add\n      dup4\n      dup4\n      dup1\n      dup3\n      dup5\n      calldatacopy\n      0x00\n      dup2\n      dup5\n      add\n      mstore\n      not(0x1f)\n      0x1f\n      dup3\n      add\n      and\n      swap1\n      pop\n      dup1\n      dup4\n      add\n      swap3\n      pop\n      pop\n      pop\n      pop\n      pop\n      pop\n      pop\n      tag_12\n      swap1\n        /* \"package/contracts/dnsregistrar/TLDPublicSuffixList.sol\":409:437  name.readUint8(labellen + 1) */\n      swap2\n      swap1\n      0xffffffff\n      and\n      jump\t// in\n    tag_14:\n        /* \"package/contracts/dnsregistrar/TLDPublicSuffixList.sol\":409:442  name.readUint8(labellen + 1) == 0 */\n      0xff\n      and\n      eq\n        /* \"package/contracts/dnsregistrar/TLDPublicSuffixList.sol\":393:442  labellen > 0 && name.readUint8(labellen + 1) == 0 */\n    tag_13:\n        /* \"package/contracts/dnsregistrar/TLDPublicSuffixList.sol\":386:442  return labellen > 0 && name.readUint8(labellen + 1) == 0 */\n      swap2\n      pop\n      pop\n        /* \"package/contracts/dnsregistrar/TLDPublicSuffixList.sol\":255:447  function isPublicSuffix(bytes calldata name) external view override returns (bool) {... */\n      swap3\n      swap2\n      pop\n      pop\n      jump\t// out\n        /* \"package/contracts/utils/BytesUtils.sol\":6804:6923  function readUint8(bytes memory self, uint256 idx) internal pure returns (uint8 ret) {... */\n    tag_12:\n        /* \"package/contracts/utils/BytesUtils.sol\":6878:6887  uint8 ret */\n      0x00\n        /* \"package/contracts/utils/BytesUtils.sol\":6908:6912  self */\n      dup3\n        /* \"package/contracts/utils/BytesUtils.sol\":6913:6916  idx */\n      dup3\n        /* \"package/contracts/utils/BytesUtils.sol\":6908:6917  self[idx] */\n      dup2\n      mload\n      dup2\n      lt\n      tag_18\n      jumpi\n      tag_19\n      tag_20\n      jump\t// in\n    tag_19:\n    tag_18:\n      0x20\n      add\n      add\n      mload\n      0xf8\n      shr\n      0xf8\n      shl\n        /* \"package/contracts/utils/BytesUtils.sol\":6902:6918  uint8(self[idx]) */\n      0xf8\n      shr\n        /* \"package/contracts/utils/BytesUtils.sol\":6895:6918  return uint8(self[idx]) */\n      swap1\n      pop\n        /* \"package/contracts/utils/BytesUtils.sol\":6804:6923  function readUint8(bytes memory self, uint256 idx) internal pure returns (uint8 ret) {... */\n      swap3\n      swap2\n      pop\n      pop\n      jump\t// out\n        /* \"#utility.yul\":88:205   */\n    tag_22:\n        /* \"#utility.yul\":197:198   */\n      0x00\n        /* \"#utility.yul\":194:195   */\n      dup1\n        /* \"#utility.yul\":187:199   */\n      revert\n        /* \"#utility.yul\":211:328   */\n    tag_23:\n        /* \"#utility.yul\":320:321   */\n      0x00\n        /* \"#utility.yul\":317:318   */\n      dup1\n        /* \"#utility.yul\":310:322   */\n      revert\n        /* \"#utility.yul\":334:451   */\n    tag_24:\n        /* \"#utility.yul\":443:444   */\n      0x00\n        /* \"#utility.yul\":440:441   */\n      dup1\n        /* \"#utility.yul\":433:445   */\n      revert\n        /* \"#utility.yul\":457:574   */\n    tag_25:\n        /* \"#utility.yul\":566:567   */\n      0x00\n        /* \"#utility.yul\":563:564   */\n      dup1\n        /* \"#utility.yul\":556:568   */\n      revert\n        /* \"#utility.yul\":580:697   */\n    tag_26:\n        /* \"#utility.yul\":689:690   */\n      0x00\n        /* \"#utility.yul\":686:687   */\n      dup1\n        /* \"#utility.yul\":679:691   */\n      revert\n        /* \"#utility.yul\":716:1268   */\n    tag_27:\n        /* \"#utility.yul\":773:781   */\n      0x00\n        /* \"#utility.yul\":783:789   */\n      dup1\n        /* \"#utility.yul\":833:836   */\n      dup4\n        /* \"#utility.yul\":826:830   */\n      0x1f\n        /* \"#utility.yul\":818:824   */\n      dup5\n        /* \"#utility.yul\":814:831   */\n      add\n        /* \"#utility.yul\":810:837   */\n      slt\n        /* \"#utility.yul\":800:922   */\n      tag_40\n      jumpi\n        /* \"#utility.yul\":841:920   */\n      tag_41\n      tag_24\n      jump\t// in\n    tag_41:\n        /* \"#utility.yul\":800:922   */\n    tag_40:\n        /* \"#utility.yul\":954:960   */\n      dup3\n        /* \"#utility.yul\":941:961   */\n      calldataload\n        /* \"#utility.yul\":931:961   */\n      swap1\n      pop\n        /* \"#utility.yul\":984:1002   */\n      0xffffffffffffffff\n        /* \"#utility.yul\":976:982   */\n      dup2\n        /* \"#utility.yul\":973:1003   */\n      gt\n        /* \"#utility.yul\":970:1087   */\n      iszero\n      tag_42\n      jumpi\n        /* \"#utility.yul\":1006:1085   */\n      tag_43\n      tag_25\n      jump\t// in\n    tag_43:\n        /* \"#utility.yul\":970:1087   */\n    tag_42:\n        /* \"#utility.yul\":1120:1124   */\n      0x20\n        /* \"#utility.yul\":1112:1118   */\n      dup4\n        /* \"#utility.yul\":1108:1125   */\n      add\n        /* \"#utility.yul\":1096:1125   */\n      swap2\n      pop\n        /* \"#utility.yul\":1174:1177   */\n      dup4\n        /* \"#utility.yul\":1166:1170   */\n      0x01\n        /* \"#utility.yul\":1158:1164   */\n      dup3\n        /* \"#utility.yul\":1154:1171   */\n      mul\n        /* \"#utility.yul\":1144:1152   */\n      dup4\n        /* \"#utility.yul\":1140:1172   */\n      add\n        /* \"#utility.yul\":1137:1178   */\n      gt\n        /* \"#utility.yul\":1134:1262   */\n      iszero\n      tag_44\n      jumpi\n        /* \"#utility.yul\":1181:1260   */\n      tag_45\n      tag_26\n      jump\t// in\n    tag_45:\n        /* \"#utility.yul\":1134:1262   */\n    tag_44:\n        /* \"#utility.yul\":716:1268   */\n      swap3\n      pop\n      swap3\n      swap1\n      pop\n      jump\t// out\n        /* \"#utility.yul\":1274:1801   */\n    tag_6:\n        /* \"#utility.yul\":1344:1350   */\n      0x00\n        /* \"#utility.yul\":1352:1358   */\n      dup1\n        /* \"#utility.yul\":1401:1403   */\n      0x20\n        /* \"#utility.yul\":1389:1398   */\n      dup4\n        /* \"#utility.yul\":1380:1387   */\n      dup6\n        /* \"#utility.yul\":1376:1399   */\n      sub\n        /* \"#utility.yul\":1372:1404   */\n      slt\n        /* \"#utility.yul\":1369:1488   */\n      iszero\n      tag_47\n      jumpi\n        /* \"#utility.yul\":1407:1486   */\n      tag_48\n      tag_22\n      jump\t// in\n    tag_48:\n        /* \"#utility.yul\":1369:1488   */\n    tag_47:\n        /* \"#utility.yul\":1555:1556   */\n      0x00\n        /* \"#utility.yul\":1544:1553   */\n      dup4\n        /* \"#utility.yul\":1540:1557   */\n      add\n        /* \"#utility.yul\":1527:1558   */\n      calldataload\n        /* \"#utility.yul\":1585:1603   */\n      0xffffffffffffffff\n        /* \"#utility.yul\":1577:1583   */\n      dup2\n        /* \"#utility.yul\":1574:1604   */\n      gt\n        /* \"#utility.yul\":1571:1688   */\n      iszero\n      tag_49\n      jumpi\n        /* \"#utility.yul\":1607:1686   */\n      tag_50\n      tag_23\n      jump\t// in\n    tag_50:\n        /* \"#utility.yul\":1571:1688   */\n    tag_49:\n        /* \"#utility.yul\":1720:1784   */\n      tag_51\n        /* \"#utility.yul\":1776:1783   */\n      dup6\n        /* \"#utility.yul\":1767:1773   */\n      dup3\n        /* \"#utility.yul\":1756:1765   */\n      dup7\n        /* \"#utility.yul\":1752:1774   */\n      add\n        /* \"#utility.yul\":1720:1784   */\n      tag_27\n      jump\t// in\n    tag_51:\n        /* \"#utility.yul\":1702:1784   */\n      swap3\n      pop\n      swap3\n      pop\n        /* \"#utility.yul\":1498:1794   */\n      pop\n        /* \"#utility.yul\":1274:1801   */\n      swap3\n      pop\n      swap3\n      swap1\n      pop\n      jump\t// out\n        /* \"#utility.yul\":1807:1897   */\n    tag_28:\n        /* \"#utility.yul\":1841:1848   */\n      0x00\n        /* \"#utility.yul\":1884:1889   */\n      dup2\n        /* \"#utility.yul\":1877:1890   */\n      iszero\n        /* \"#utility.yul\":1870:1891   */\n      iszero\n        /* \"#utility.yul\":1859:1891   */\n      swap1\n      pop\n        /* \"#utility.yul\":1807:1897   */\n      swap2\n      swap1\n      pop\n      jump\t// out\n        /* \"#utility.yul\":1903:2012   */\n    tag_29:\n        /* \"#utility.yul\":1984:2005   */\n      tag_54\n        /* \"#utility.yul\":1999:2004   */\n      dup2\n        /* \"#utility.yul\":1984:2005   */\n      tag_28\n      jump\t// in\n    tag_54:\n        /* \"#utility.yul\":1979:1982   */\n      dup3\n        /* \"#utility.yul\":1972:2006   */\n      mstore\n        /* \"#utility.yul\":1903:2012   */\n      pop\n      pop\n      jump\t// out\n        /* \"#utility.yul\":2018:2228   */\n    tag_9:\n        /* \"#utility.yul\":2105:2109   */\n      0x00\n        /* \"#utility.yul\":2143:2145   */\n      0x20\n        /* \"#utility.yul\":2132:2141   */\n      dup3\n        /* \"#utility.yul\":2128:2146   */\n      add\n        /* \"#utility.yul\":2120:2146   */\n      swap1\n      pop\n        /* \"#utility.yul\":2156:2221   */\n      tag_56\n        /* \"#utility.yul\":2218:2219   */\n      0x00\n        /* \"#utility.yul\":2207:2216   */\n      dup4\n        /* \"#utility.yul\":2203:2220   */\n      add\n        /* \"#utility.yul\":2194:2200   */\n      dup5\n        /* \"#utility.yul\":2156:2221   */\n      tag_29\n      jump\t// in\n    tag_56:\n        /* \"#utility.yul\":2018:2228   */\n      swap3\n      swap2\n      pop\n      pop\n      jump\t// out\n        /* \"#utility.yul\":2234:2311   */\n    tag_30:\n        /* \"#utility.yul\":2271:2278   */\n      0x00\n        /* \"#utility.yul\":2300:2305   */\n      dup2\n        /* \"#utility.yul\":2289:2305   */\n      swap1\n      pop\n        /* \"#utility.yul\":2234:2311   */\n      swap2\n      swap1\n      pop\n      jump\t// out\n        /* \"#utility.yul\":2317:2497   */\n    tag_31:\n        /* \"#utility.yul\":2365:2442   */\n      0x4e487b7100000000000000000000000000000000000000000000000000000000\n        /* \"#utility.yul\":2362:2363   */\n      0x00\n        /* \"#utility.yul\":2355:2443   */\n      mstore\n        /* \"#utility.yul\":2462:2466   */\n      0x11\n        /* \"#utility.yul\":2459:2460   */\n      0x04\n        /* \"#utility.yul\":2452:2467   */\n      mstore\n        /* \"#utility.yul\":2486:2490   */\n      0x24\n        /* \"#utility.yul\":2483:2484   */\n      0x00\n        /* \"#utility.yul\":2476:2491   */\n      revert\n        /* \"#utility.yul\":2503:2694   */\n    tag_16:\n        /* \"#utility.yul\":2543:2546   */\n      0x00\n        /* \"#utility.yul\":2562:2582   */\n      tag_60\n        /* \"#utility.yul\":2580:2581   */\n      dup3\n        /* \"#utility.yul\":2562:2582   */\n      tag_30\n      jump\t// in\n    tag_60:\n        /* \"#utility.yul\":2557:2582   */\n      swap2\n      pop\n        /* \"#utility.yul\":2596:2616   */\n      tag_61\n        /* \"#utility.yul\":2614:2615   */\n      dup4\n        /* \"#utility.yul\":2596:2616   */\n      tag_30\n      jump\t// in\n    tag_61:\n        /* \"#utility.yul\":2591:2616   */\n      swap3\n      pop\n        /* \"#utility.yul\":2639:2640   */\n      dup3\n        /* \"#utility.yul\":2636:2637   */\n      dup3\n        /* \"#utility.yul\":2632:2641   */\n      add\n        /* \"#utility.yul\":2625:2641   */\n      swap1\n      pop\n        /* \"#utility.yul\":2660:2663   */\n      dup1\n        /* \"#utility.yul\":2657:2658   */\n      dup3\n        /* \"#utility.yul\":2654:2664   */\n      gt\n        /* \"#utility.yul\":2651:2687   */\n      iszero\n      tag_62\n      jumpi\n        /* \"#utility.yul\":2667:2685   */\n      tag_63\n      tag_31\n      jump\t// in\n    tag_63:\n        /* \"#utility.yul\":2651:2687   */\n    tag_62:\n        /* \"#utility.yul\":2503:2694   */\n      swap3\n      swap2\n      pop\n      pop\n      jump\t// out\n        /* \"#utility.yul\":2700:2880   */\n    tag_20:\n        /* \"#utility.yul\":2748:2825   */\n      0x4e487b7100000000000000000000000000000000000000000000000000000000\n        /* \"#utility.yul\":2745:2746   */\n      0x00\n        /* \"#utility.yul\":2738:2826   */\n      mstore\n        /* \"#utility.yul\":2845:2849   */\n      0x32\n        /* \"#utility.yul\":2842:2843   */\n      0x04\n        /* \"#utility.yul\":2835:2850   */\n      mstore\n        /* \"#utility.yul\":2869:2873   */\n      0x24\n        /* \"#utility.yul\":2866:2867   */\n      0x00\n        /* \"#utility.yul\":2859:2874   */\n      revert\n\n    auxdata: 0xa26469706673582212205c4c32c309618d9176966c2844ee006f025193e9a4c4747ca008703bb14eb31364736f6c63430008140033\n}\n",
				"bytecode": {
					"linkReferences": {},
					"object": "608060405234801561001057600080fd5b5061032d806100206000396000f3fe608060405234801561001057600080fd5b506004361061002b5760003560e01c80634f89059e14610030575b600080fd5b61004a600480360381019061004591906101d8565b610060565b6040516100579190610240565b60405180910390f35b6000806100bb600085858080601f016020809104026020016040519081016040528093929190818152602001838380828437600081840152601f19601f8201169050808301925050505050505061013e90919063ffffffff16565b60ff169050600081118015610135575060006101306001836100dd9190610294565b86868080601f016020809104026020016040519081016040528093929190818152602001838380828437600081840152601f19601f8201169050808301925050505050505061013e90919063ffffffff16565b60ff16145b91505092915050565b6000828281518110610153576101526102c8565b5b602001015160f81c60f81b60f81c905092915050565b600080fd5b600080fd5b600080fd5b600080fd5b600080fd5b60008083601f84011261019857610197610173565b5b8235905067ffffffffffffffff8111156101b5576101b4610178565b5b6020830191508360018202830111156101d1576101d061017d565b5b9250929050565b600080602083850312156101ef576101ee610169565b5b600083013567ffffffffffffffff81111561020d5761020c61016e565b5b61021985828601610182565b92509250509250929050565b60008115159050919050565b61023a81610225565b82525050565b60006020820190506102556000830184610231565b92915050565b6000819050919050565b7f4e487b7100000000000000000000000000000000000000000000000000000000600052601160045260246000fd5b600061029f8261025b565b91506102aa8361025b565b92508282019050808211156102c2576102c1610265565b5b92915050565b7f4e487b7100000000000000000000000000000000000000000000000000000000600052603260045260246000fdfea26469706673582212205c4c32c309618d9176966c2844ee006f025193e9a4c4747ca008703bb14eb31364736f6c63430008140033",
					"opcodes": "PUSH1 0x80 PUSH1 0x40 MSTORE CALLVALUE DUP1 ISZERO PUSH2 0x10 JUMPI PUSH1 0x0 DUP1 REVERT JUMPDEST POP PUSH2 0x32D DUP1 PUSH2 0x20 PUSH1 0x0 CODECOPY PUSH1 0x0 RETURN INVALID PUSH1 0x80 PUSH1 0x40 MSTORE CALLVALUE DUP1 ISZERO PUSH2 0x10 JUMPI PUSH1 0x0 DUP1 REVERT JUMPDEST POP PUSH1 0x4 CALLDATASIZE LT PUSH2 0x2B JUMPI PUSH1 0x0 CALLDATALOAD PUSH1 0xE0 SHR DUP1 PUSH4 0x4F89059E EQ PUSH2 0x30 JUMPI JUMPDEST PUSH1 0x0 DUP1 REVERT JUMPDEST PUSH2 0x4A PUSH1 0x4 DUP1 CALLDATASIZE SUB DUP2 ADD SWAP1 PUSH2 0x45 SWAP2 SWAP1 PUSH2 0x1D8 JUMP JUMPDEST PUSH2 0x60 JUMP JUMPDEST PUSH1 0x40 MLOAD PUSH2 0x57 SWAP2 SWAP1 PUSH2 0x240 JUMP JUMPDEST PUSH1 0x40 MLOAD DUP1 SWAP2 SUB SWAP1 RETURN JUMPDEST PUSH1 0x0 DUP1 PUSH2 0xBB PUSH1 0x0 DUP6 DUP6 DUP1 DUP1 PUSH1 0x1F ADD PUSH1 0x20 DUP1 SWAP2 DIV MUL PUSH1 0x20 ADD PUSH1 0x40 MLOAD SWAP1 DUP2 ADD PUSH1 0x40 MSTORE DUP1 SWAP4 SWAP3 SWAP2 SWAP1 DUP2 DUP2 MSTORE PUSH1 0x20 ADD DUP4 DUP4 DUP1 DUP3 DUP5 CALLDATACOPY PUSH1 0x0 DUP2 DUP5 ADD MSTORE PUSH1 0x1F NOT PUSH1 0x1F DUP3 ADD AND SWAP1 POP DUP1 DUP4 ADD SWAP3 POP POP POP POP POP POP POP PUSH2 0x13E SWAP1 SWAP2 SWAP1 PUSH4 0xFFFFFFFF AND JUMP JUMPDEST PUSH1 0xFF AND SWAP1 POP PUSH1 0x0 DUP2 GT DUP1 ISZERO PUSH2 0x135 JUMPI POP PUSH1 0x0 PUSH2 0x130 PUSH1 0x1 DUP4 PUSH2 0xDD SWAP2 SWAP1 PUSH2 0x294 JUMP JUMPDEST DUP7 DUP7 DUP1 DUP1 PUSH1 0x1F ADD PUSH1 0x20 DUP1 SWAP2 DIV MUL PUSH1 0x20 ADD PUSH1 0x40 MLOAD SWAP1 DUP2 ADD PUSH1 0x40 MSTORE DUP1 SWAP4 SWAP3 SWAP2 SWAP1 DUP2 DUP2 MSTORE PUSH1 0x20 ADD DUP4 DUP4 DUP1 DUP3 DUP5 CALLDATACOPY PUSH1 0x0 DUP2 DUP5 ADD MSTORE PUSH1 0x1F NOT PUSH1 0x1F DUP3 ADD AND SWAP1 POP DUP1 DUP4 ADD SWAP3 POP POP POP POP POP POP POP PUSH2 0x13E SWAP1 SWAP2 SWAP1 PUSH4 0xFFFFFFFF AND JUMP JUMPDEST PUSH1 0xFF AND EQ JUMPDEST SWAP2 POP POP SWAP3 SWAP2 POP POP JUMP JUMPDEST PUSH1 0x0 DUP3 DUP3 DUP2 MLOAD DUP2 LT PUSH2 0x153 JUMPI PUSH2 0x152 PUSH2 0x2C8 JUMP JUMPDEST JUMPDEST PUSH1 0x20 ADD ADD MLOAD PUSH1 0xF8 SHR PUSH1 0xF8 SHL PUSH1 0xF8 SHR SWAP1 POP SWAP3 SWAP2 POP POP JUMP JUMPDEST PUSH1 0x0 DUP1 REVERT JUMPDEST PUSH1 0x0 DUP1 REVERT JUMPDEST PUSH1 0x0 DUP1 REVERT JUMPDEST PUSH1 0x0 DUP1 REVERT JUMPDEST PUSH1 0x0 DUP1 REVERT JUMPDEST PUSH1 0x0 DUP1 DUP4 PUSH1 0x1F DUP5 ADD SLT PUSH2 0x198 JUMPI PUSH2 0x197 PUSH2 0x173 JUMP JUMPDEST JUMPDEST DUP3 CALLDATALOAD SWAP1 POP PUSH8 0xFFFFFFFFFFFFFFFF DUP2 GT ISZERO PUSH2 0x1B5 JUMPI PUSH2 0x1B4 PUSH2 0x178 JUMP JUMPDEST JUMPDEST PUSH1 0x20 DUP4 ADD SWAP2 POP DUP4 PUSH1 0x1 DUP3 MUL DUP4 ADD GT ISZERO PUSH2 0x1D1 JUMPI PUSH2 0x1D0 PUSH2 0x17D JUMP JUMPDEST JUMPDEST SWAP3 POP SWAP3 SWAP1 POP JUMP JUMPDEST PUSH1 0x0 DUP1 PUSH1 0x20 DUP4 DUP6 SUB SLT ISZERO PUSH2 0x1EF JUMPI PUSH2 0x1EE PUSH2 0x169 JUMP JUMPDEST JUMPDEST PUSH1 0x0 DUP4 ADD CALLDATALOAD PUSH8 0xFFFFFFFFFFFFFFFF DUP2 GT ISZERO PUSH2 0x20D JUMPI PUSH2 0x20C PUSH2 0x16E JUMP JUMPDEST JUMPDEST PUSH2 0x219 DUP6 DUP3 DUP7 ADD PUSH2 0x182 JUMP JUMPDEST SWAP3 POP SWAP3 POP POP SWAP3 POP SWAP3 SWAP1 POP JUMP JUMPDEST PUSH1 0x0 DUP2 ISZERO ISZERO SWAP1 POP SWAP2 SWAP1 POP JUMP JUMPDEST PUSH2 0x23A DUP2 PUSH2 0x225 JUMP JUMPDEST DUP3 MSTORE POP POP JUMP JUMPDEST PUSH1 0x0 PUSH1 0x20 DUP3 ADD SWAP1 POP PUSH2 0x255 PUSH1 0x0 DUP4 ADD DUP5 PUSH2 0x231 JUMP JUMPDEST SWAP3 SWAP2 POP POP JUMP JUMPDEST PUSH1 0x0 DUP2 SWAP1 POP SWAP2 SWAP1 POP JUMP JUMPDEST PUSH32 0x4E487B7100000000000000000000000000000000000000000000000000000000 PUSH1 0x0 MSTORE PUSH1 0x11 PUSH1 0x4 MSTORE PUSH1 0x24 PUSH1 0x0 REVERT JUMPDEST PUSH1 0x0 PUSH2 0x29F DUP3 PUSH2 0x25B JUMP JUMPDEST SWAP2 POP PUSH2 0x2AA DUP4 PUSH2 0x25B JUMP JUMPDEST SWAP3 POP DUP3 DUP3 ADD SWAP1 POP DUP1 DUP3 GT ISZERO PUSH2 0x2C2 JUMPI PUSH2 0x2C1 PUSH2 0x265 JUMP JUMPDEST JUMPDEST SWAP3 SWAP2 POP POP JUMP JUMPDEST PUSH32 0x4E487B7100000000000000000000000000000000000000000000000000000000 PUSH1 0x0 MSTORE PUSH1 0x32 PUSH1 0x4 MSTORE PUSH1 0x24 PUSH1 0x0 REVERT INVALID LOG2 PUSH5 0x6970667358 0x22 SLT KECCAK256 0x5C 0x4C ORIGIN 0xC3 MULMOD PUSH2 0x8D91 PUSH23 0x966C2844EE006F025193E9A4C4747CA008703BB14EB313 PUSH5 0x736F6C6343 STOP ADDMOD EQ STOP CALLER "
				},
				"gasEstimates": {
					"creation": {
						"codeDepositCost": "162600",
						"executionCost": "208",
						"totalCost": "162808"
					},
					"external": {
						"isPublicSuffix(bytes)": "infinite"
					}
				},
				"methodIdentifiers": {
					"isPublicSuffix(bytes)": "4f89059e"
				}
			},
			"storageLayout": {
				"storage": [],
				"types": null
			},
			"userdoc": {
				"kind": "user",
				"methods": {},
				"version": 1
			}
		}
	}
}