{
	"onchain_code.sol": {
		"AttestationService": {
			"abi": [
				{
					"inputs": [
						{
							"internalType": "address",
							"name": "_eas",
							"type": "address"
						},
						{
							"internalType": "address",
							"name": "_schemaRegistry",
							"type": "address"
						}
					],
					"stateMutability": "nonpayable",
					"type": "constructor"
				},
				{
					"anonymous": false,
					"inputs": [
						{
							"indexed": true,
							"internalType": "bytes32",
							"name": "attestationId",
							"type": "bytes32"
						},
						{
							"indexed": true,
							"internalType": "address",
							"name": "recipient",
							"type": "address"
						},
						{
							"indexed": true,
							"internalType": "address",
							"name": "attester",
							"type": "address"
						}
					],
					"name": "AttestationCreated",
					"type": "event"
				},
				{
					"anonymous": false,
					"inputs": [
						{
							"indexed": true,
							"internalType": "bytes32",
							"name": "role",
							"type": "bytes32"
						},
						{
							"indexed": true,
							"internalType": "bytes32",
							"name": "previousAdminRole",
							"type": "bytes32"
						},
						{
							"indexed": true,
							"internalType": "bytes32",
							"name": "newAdminRole",
							"type": "bytes32"
						}
					],
					"name": "RoleAdminChanged",
					"type": "event"
				},
				{
					"anonymous": false,
					"inputs": [
						{
							"indexed": true,
							"internalType": "bytes32",
							"name": "role",
							"type": "bytes32"
						},
						{
							"indexed": true,
							"internalType": "address",
							"name": "account",
							"type": "address"
						},
						{
							"indexed": true,
							"internalType": "address",
							"name": "sender",
							"type": "address"
						}
					],
					"name": "RoleGranted",
					"type": "event"
				},
				{
					"anonymous": false,
					"inputs": [
						{
							"indexed": true,
							"internalType": "bytes32",
							"name": "role",
							"type": "bytes32"
						},
						{
							"indexed": true,
							"internalType": "address",
							"name": "account",
							"type": "address"
						},
						{
							"indexed": true,
							"internalType": "address",
							"name": "sender",
							"type": "address"
						}
					],
					"name": "RoleRevoked",
					"type": "event"
				},
				{
					"anonymous": false,
					"inputs": [
						{
							"indexed": true,
							"internalType": "bytes32",
							"name": "schemaId",
							"type": "bytes32"
						}
					],
					"name": "SchemaCreated",
					"type": "event"
				},
				{
					"inputs": [],
					"name": "ATTESTATION_CREATOR_ROLE",
					"outputs": [
						{
							"internalType": "bytes32",
							"name": "",
							"type": "bytes32"
						}
					],
					"stateMutability": "view",
					"type": "function"
				},
				{
					"inputs": [],
					"name": "DEFAULT_ADMIN_ROLE",
					"outputs": [
						{
							"internalType": "bytes32",
							"name": "",
							"type": "bytes32"
						}
					],
					"stateMutability": "view",
					"type": "function"
				},
				{
					"inputs": [
						{
							"internalType": "address",
							"name": "recipient",
							"type": "address"
						},
						{
							"internalType": "uint256",
							"name": "tokenId",
							"type": "uint256"
						}
					],
					"name": "createMissionEnrollmentAttestation",
					"outputs": [
						{
							"internalType": "bytes32",
							"name": "",
							"type": "bytes32"
						}
					],
					"stateMutability": "nonpayable",
					"type": "function"
				},
				{
					"inputs": [],
					"name": "createMissionEnrollmentSchema",
					"outputs": [],
					"stateMutability": "nonpayable",
					"type": "function"
				},
				{
					"inputs": [
						{
							"internalType": "bytes32",
							"name": "role",
							"type": "bytes32"
						}
					],
					"name": "getRoleAdmin",
					"outputs": [
						{
							"internalType": "bytes32",
							"name": "",
							"type": "bytes32"
						}
					],
					"stateMutability": "view",
					"type": "function"
				},
				{
					"inputs": [
						{
							"internalType": "address",
							"name": "account",
							"type": "address"
						}
					],
					"name": "grantAttestationCreatorRole",
					"outputs": [],
					"stateMutability": "nonpayable",
					"type": "function"
				},
				{
					"inputs": [
						{
							"internalType": "bytes32",
							"name": "role",
							"type": "bytes32"
						},
						{
							"internalType": "address",
							"name": "account",
							"type": "address"
						}
					],
					"name": "grantRole",
					"outputs": [],
					"stateMutability": "nonpayable",
					"type": "function"
				},
				{
					"inputs": [
						{
							"internalType": "bytes32",
							"name": "role",
							"type": "bytes32"
						},
						{
							"internalType": "address",
							"name": "account",
							"type": "address"
						}
					],
					"name": "hasRole",
					"outputs": [
						{
							"internalType": "bool",
							"name": "",
							"type": "bool"
						}
					],
					"stateMutability": "view",
					"type": "function"
				},
				{
					"inputs": [],
					"name": "initialize",
					"outputs": [],
					"stateMutability": "nonpayable",
					"type": "function"
				},
				{
					"inputs": [
						{
							"internalType": "address",
							"name": "account",
							"type": "address"
						}
					],
					"name": "isApprovedAttestationCreator",
					"outputs": [
						{
							"internalType": "bool",
							"name": "",
							"type": "bool"
						}
					],
					"stateMutability": "view",
					"type": "function"
				},
				{
					"inputs": [],
					"name": "missionEnrollmentSchema",
					"outputs": [
						{
							"internalType": "bytes32",
							"name": "",
							"type": "bytes32"
						}
					],
					"stateMutability": "view",
					"type": "function"
				},
				{
					"inputs": [
						{
							"internalType": "bytes32",
							"name": "role",
							"type": "bytes32"
						},
						{
							"internalType": "address",
							"name": "account",
							"type": "address"
						}
					],
					"name": "renounceRole",
					"outputs": [],
					"stateMutability": "nonpayable",
					"type": "function"
				},
				{
					"inputs": [
						{
							"internalType": "address",
							"name": "account",
							"type": "address"
						}
					],
					"name": "revokeAttestationCreatorRole",
					"outputs": [],
					"stateMutability": "nonpayable",
					"type": "function"
				},
				{
					"inputs": [
						{
							"internalType": "bytes32",
							"name": "role",
							"type": "bytes32"
						},
						{
							"internalType": "address",
							"name": "account",
							"type": "address"
						}
					],
					"name": "revokeRole",
					"outputs": [],
					"stateMutability": "nonpayable",
					"type": "function"
				},
				{
					"inputs": [
						{
							"internalType": "bytes4",
							"name": "interfaceId",
							"type": "bytes4"
						}
					],
					"name": "supportsInterface",
					"outputs": [
						{
							"internalType": "bool",
							"name": "",
							"type": "bool"
						}
					],
					"stateMutability": "view",
					"type": "function"
				},
				{
					"inputs": [
						{
							"internalType": "bytes32",
							"name": "attestationId",
							"type": "bytes32"
						}
					],
					"name": "verifyAttestation",
					"outputs": [
						{
							"internalType": "bool",
							"name": "",
							"type": "bool"
						}
					],
					"stateMutability": "view",
					"type": "function"
				}
			],
			"devdoc": {
				"events": {
					"RoleAdminChanged(bytes32,bytes32,bytes32)": {
						"details": "Emitted when `newAdminRole` is set as ``role``'s admin role, replacing `previousAdminRole` `DEFAULT_ADMIN_ROLE` is the starting admin for all roles, despite {RoleAdminChanged} not being emitted signaling this. _Available since v3.1._"
					},
					"RoleGranted(bytes32,address,address)": {
						"details": "Emitted when `account` is granted `role`. `sender` is the account that originated the contract call, an admin role bearer except when using {_setupRole}."
					},
					"RoleRevoked(bytes32,address,address)": {
						"details": "Emitted when `account` is revoked `role`. `sender` is the account that originated the contract call:   - if using `revokeRole`, it is the admin role bearer   - if using `renounceRole`, it is the role bearer (i.e. `account`)"
					}
				},
				"kind": "dev",
				"methods": {
					"getRoleAdmin(bytes32)": {
						"details": "Returns the admin role that controls `role`. See {grantRole} and {revokeRole}. To change a role's admin, use {_setRoleAdmin}."
					},
					"grantRole(bytes32,address)": {
						"details": "Grants `role` to `account`. If `account` had not been already granted `role`, emits a {RoleGranted} event. Requirements: - the caller must have ``role``'s admin role."
					},
					"hasRole(bytes32,address)": {
						"details": "Returns `true` if `account` has been granted `role`."
					},
					"renounceRole(bytes32,address)": {
						"details": "Revokes `role` from the calling account. Roles are often managed via {grantRole} and {revokeRole}: this function's purpose is to provide a mechanism for accounts to lose their privileges if they are compromised (such as when a trusted device is misplaced). If the calling account had been granted `role`, emits a {RoleRevoked} event. Requirements: - the caller must be `account`."
					},
					"revokeRole(bytes32,address)": {
						"details": "Revokes `role` from `account`. If `account` had been granted `role`, emits a {RoleRevoked} event. Requirements: - the caller must have ``role``'s admin role."
					},
					"supportsInterface(bytes4)": {
						"details": "See {IERC165-supportsInterface}."
					}
				},
				"version": 1
			},
			"evm": {
				"assembly": "    /* \"onchain_code.sol\":514:3887  contract AttestationService is AccessControl {... */\n  mstore(0x40, 0xc0)\n    /* \"onchain_code.sol\":1148:1413  constructor(address _eas, address _schemaRegistry) {... */\n  callvalue\n  dup1\n  iszero\n  tag_1\n  jumpi\n  0x00\n  dup1\n  revert\ntag_1:\n  pop\n  mload(0x40)\n  sub(codesize, bytecodeSize)\n  dup1\n  bytecodeSize\n  dup4\n  codecopy\n  dup2\n  dup2\n  add\n  0x40\n  mstore\n  dup2\n  add\n  swap1\n  tag_2\n  swap2\n  swap1\n  tag_3\n  jump\t// in\ntag_2:\n    /* \"onchain_code.sol\":1229:1230  0 */\n  0x00\n    /* \"onchain_code.sol\":1213:1231  _eas != address(0) */\n  0xffffffffffffffffffffffffffffffffffffffff\n  and\n    /* \"onchain_code.sol\":1213:1217  _eas */\n  dup3\n    /* \"onchain_code.sol\":1213:1231  _eas != address(0) */\n  0xffffffffffffffffffffffffffffffffffffffff\n  and\n  eq\n  iszero\n    /* \"onchain_code.sol\":1213:1264  _eas != address(0) && _schemaRegistry != address(0) */\n  dup1\n  iszero\n  tag_6\n  jumpi\n  pop\n    /* \"onchain_code.sol\":1262:1263  0 */\n  0x00\n    /* \"onchain_code.sol\":1235:1264  _schemaRegistry != address(0) */\n  0xffffffffffffffffffffffffffffffffffffffff\n  and\n    /* \"onchain_code.sol\":1235:1250  _schemaRegistry */\n  dup2\n    /* \"onchain_code.sol\":1235:1264  _schemaRegistry != address(0) */\n  0xffffffffffffffffffffffffffffffffffffffff\n  and\n  eq\n  iszero\n    /* \"onchain_code.sol\":1213:1264  _eas != address(0) && _schemaRegistry != address(0) */\ntag_6:\n    /* \"onchain_code.sol\":1205:1284  require(_eas != address(0) && _schemaRegistry != address(0), \"Invalid address\") */\n  tag_7\n  jumpi\n  mload(0x40)\n  0x08c379a000000000000000000000000000000000000000000000000000000000\n  dup2\n  mstore\n  0x04\n  add\n  tag_8\n  swap1\n  tag_9\n  jump\t// in\ntag_8:\n  mload(0x40)\n  dup1\n  swap2\n  sub\n  swap1\n  revert\ntag_7:\n    /* \"onchain_code.sol\":1301:1305  _eas */\n  dup2\n    /* \"onchain_code.sol\":1290:1306  eas = IEAS(_eas) */\n  0xffffffffffffffffffffffffffffffffffffffff\n  and\n  0x80\n  dup2\n  0xffffffffffffffffffffffffffffffffffffffff\n  and\n  dup2\n  mstore\n  pop\n  pop\n    /* \"onchain_code.sol\":1345:1360  _schemaRegistry */\n  dup1\n    /* \"onchain_code.sol\":1312:1361  schemaRegistry = ISchemaRegistry(_schemaRegistry) */\n  0xffffffffffffffffffffffffffffffffffffffff\n  and\n  0xa0\n  dup2\n  0xffffffffffffffffffffffffffffffffffffffff\n  and\n  dup2\n  mstore\n  pop\n  pop\n    /* \"onchain_code.sol\":1367:1408  grantRole(DEFAULT_ADMIN_ROLE, msg.sender) */\n  tag_10\n    /* \"@openzeppelin/contracts/access/AccessControl.sol\":2439:2443  0x00 */\n  0x00\n    /* \"onchain_code.sol\":1377:1395  DEFAULT_ADMIN_ROLE */\n  dup1\n  shl\n    /* \"onchain_code.sol\":1397:1407  msg.sender */\n  caller\n    /* \"onchain_code.sol\":1367:1376  grantRole */\n  shl(0x20, tag_11)\n    /* \"onchain_code.sol\":1367:1408  grantRole(DEFAULT_ADMIN_ROLE, msg.sender) */\n  0x20\n  shr\n  jump\t// in\ntag_10:\n    /* \"onchain_code.sol\":1148:1413  constructor(address _eas, address _schemaRegistry) {... */\n  pop\n  pop\n    /* \"onchain_code.sol\":514:3887  contract AttestationService is AccessControl {... */\n  jump(tag_12)\n    /* \"@openzeppelin/contracts/access/AccessControl.sol\":5719:5864  function grantRole(bytes32 role, address account) public virtual override onlyRole(getRoleAdmin(role)) {... */\ntag_11:\n    /* \"@openzeppelin/contracts/access/AccessControl.sol\":5802:5820  getRoleAdmin(role) */\n  tag_13\n    /* \"@openzeppelin/contracts/access/AccessControl.sol\":5815:5819  role */\n  dup3\n    /* \"@openzeppelin/contracts/access/AccessControl.sol\":5802:5814  getRoleAdmin */\n  shl(0x20, tag_14)\n    /* \"@openzeppelin/contracts/access/AccessControl.sol\":5802:5820  getRoleAdmin(role) */\n  0x20\n  shr\n  jump\t// in\ntag_13:\n    /* \"@openzeppelin/contracts/access/AccessControl.sol\":3958:3988  _checkRole(role, _msgSender()) */\n  tag_16\n    /* \"@openzeppelin/contracts/access/AccessControl.sol\":3969:3973  role */\n  dup2\n    /* \"@openzeppelin/contracts/access/AccessControl.sol\":3975:3987  _msgSender() */\n  tag_17\n    /* \"@openzeppelin/contracts/access/AccessControl.sol\":3975:3985  _msgSender */\n  shl(0x20, tag_18)\n    /* \"@openzeppelin/contracts/access/AccessControl.sol\":3975:3987  _msgSender() */\n  0x20\n  shr\n  jump\t// in\ntag_17:\n    /* \"@openzeppelin/contracts/access/AccessControl.sol\":3958:3968  _checkRole */\n  shl(0x20, tag_19)\n    /* \"@openzeppelin/contracts/access/AccessControl.sol\":3958:3988  _checkRole(role, _msgSender()) */\n  0x20\n  shr\n  jump\t// in\ntag_16:\n    /* \"@openzeppelin/contracts/access/AccessControl.sol\":5832:5857  _grantRole(role, account) */\n  tag_21\n    /* \"@openzeppelin/contracts/access/AccessControl.sol\":5843:5847  role */\n  dup4\n    /* \"@openzeppelin/contracts/access/AccessControl.sol\":5849:5856  account */\n  dup4\n    /* \"@openzeppelin/contracts/access/AccessControl.sol\":5832:5842  _grantRole */\n  shl(0x20, tag_22)\n    /* \"@openzeppelin/contracts/access/AccessControl.sol\":5832:5857  _grantRole(role, account) */\n  0x20\n  shr\n  jump\t// in\ntag_21:\n    /* \"@openzeppelin/contracts/access/AccessControl.sol\":5719:5864  function grantRole(bytes32 role, address account) public virtual override onlyRole(getRoleAdmin(role)) {... */\n  pop\n  pop\n  pop\n  jump\t// out\n    /* \"@openzeppelin/contracts/access/AccessControl.sol\":5348:5469  function getRoleAdmin(bytes32 role) public view override returns (bytes32) {... */\ntag_14:\n    /* \"@openzeppelin/contracts/access/AccessControl.sol\":5414:5421  bytes32 */\n  0x00\n    /* \"@openzeppelin/contracts/access/AccessControl.sol\":5440:5446  _roles */\n  dup1\n    /* \"@openzeppelin/contracts/access/AccessControl.sol\":5440:5452  _roles[role] */\n  0x00\n    /* \"@openzeppelin/contracts/access/AccessControl.sol\":5447:5451  role */\n  dup4\n    /* \"@openzeppelin/contracts/access/AccessControl.sol\":5440:5452  _roles[role] */\n  dup2\n  mstore\n  0x20\n  add\n  swap1\n  dup2\n  mstore\n  0x20\n  add\n  0x00\n  keccak256\n    /* \"@openzeppelin/contracts/access/AccessControl.sol\":5440:5462  _roles[role].adminRole */\n  0x01\n  add\n  sload\n    /* \"@openzeppelin/contracts/access/AccessControl.sol\":5433:5462  return _roles[role].adminRole */\n  swap1\n  pop\n    /* \"@openzeppelin/contracts/access/AccessControl.sol\":5348:5469  function getRoleAdmin(bytes32 role) public view override returns (bytes32) {... */\n  swap2\n  swap1\n  pop\n  jump\t// out\n    /* \"@openzeppelin/contracts/utils/Context.sol\":586:682  function _msgSender() internal view virtual returns (address) {... */\ntag_18:\n    /* \"@openzeppelin/contracts/utils/Context.sol\":639:646  address */\n  0x00\n    /* \"@openzeppelin/contracts/utils/Context.sol\":665:675  msg.sender */\n  caller\n    /* \"@openzeppelin/contracts/utils/Context.sol\":658:675  return msg.sender */\n  swap1\n  pop\n    /* \"@openzeppelin/contracts/utils/Context.sol\":586:682  function _msgSender() internal view virtual returns (address) {... */\n  swap1\n  jump\t// out\n    /* \"@openzeppelin/contracts/access/AccessControl.sol\":4792:5167  function _checkRole(bytes32 role, address account) internal view {... */\ntag_19:\n    /* \"@openzeppelin/contracts/access/AccessControl.sol\":4871:4893  hasRole(role, account) */\n  tag_26\n    /* \"@openzeppelin/contracts/access/AccessControl.sol\":4879:4883  role */\n  dup3\n    /* \"@openzeppelin/contracts/access/AccessControl.sol\":4885:4892  account */\n  dup3\n    /* \"@openzeppelin/contracts/access/AccessControl.sol\":4871:4878  hasRole */\n  shl(0x20, tag_27)\n    /* \"@openzeppelin/contracts/access/AccessControl.sol\":4871:4893  hasRole(role, account) */\n  0x20\n  shr\n  jump\t// in\ntag_26:\n    /* \"@openzeppelin/contracts/access/AccessControl.sol\":4867:5161  if(!hasRole(role, account)) {... */\n  tag_28\n  jumpi\n    /* \"@openzeppelin/contracts/access/AccessControl.sol\":5000:5041  Strings.toHexString(uint160(account), 20) */\n  tag_29\n    /* \"@openzeppelin/contracts/access/AccessControl.sol\":5028:5035  account */\n  dup2\n    /* \"@openzeppelin/contracts/access/AccessControl.sol\":5000:5041  Strings.toHexString(uint160(account), 20) */\n  0xffffffffffffffffffffffffffffffffffffffff\n  and\n    /* \"@openzeppelin/contracts/access/AccessControl.sol\":5038:5040  20 */\n  0x14\n    /* \"@openzeppelin/contracts/access/AccessControl.sol\":5000:5019  Strings.toHexString */\n  shl(0x20, tag_30)\n    /* \"@openzeppelin/contracts/access/AccessControl.sol\":5000:5041  Strings.toHexString(uint160(account), 20) */\n  0x20\n  shr\n  jump\t// in\ntag_29:\n    /* \"@openzeppelin/contracts/access/AccessControl.sol\":5096:5134  Strings.toHexString(uint256(role), 32) */\n  tag_31\n    /* \"@openzeppelin/contracts/access/AccessControl.sol\":5124:5128  role */\n  dup4\n    /* \"@openzeppelin/contracts/access/AccessControl.sol\":5116:5129  uint256(role) */\n  0x00\n  shr\n    /* \"@openzeppelin/contracts/access/AccessControl.sol\":5131:5133  32 */\n  0x20\n    /* \"@openzeppelin/contracts/access/AccessControl.sol\":5096:5115  Strings.toHexString */\n  shl(0x20, tag_30)\n    /* \"@openzeppelin/contracts/access/AccessControl.sol\":5096:5134  Strings.toHexString(uint256(role), 32) */\n  0x20\n  shr\n  jump\t// in\ntag_31:\n    /* \"@openzeppelin/contracts/access/AccessControl.sol\":4923:5148  abi.encodePacked(... */\n  add(0x20, mload(0x40))\n  tag_32\n  swap3\n  swap2\n  swap1\n  tag_33\n  jump\t// in\ntag_32:\n  mload(0x40)\n  0x20\n  dup2\n  dup4\n  sub\n  sub\n  dup2\n  mstore\n  swap1\n  0x40\n  mstore\n    /* \"@openzeppelin/contracts/access/AccessControl.sol\":4909:5150  revert(string(abi.encodePacked(... */\n  mload(0x40)\n  0x08c379a000000000000000000000000000000000000000000000000000000000\n  dup2\n  mstore\n  0x04\n  add\n  tag_34\n  swap2\n  swap1\n  tag_35\n  jump\t// in\ntag_34:\n  mload(0x40)\n  dup1\n  swap2\n  sub\n  swap1\n  revert\n    /* \"@openzeppelin/contracts/access/AccessControl.sol\":4867:5161  if(!hasRole(role, account)) {... */\ntag_28:\n    /* \"@openzeppelin/contracts/access/AccessControl.sol\":4792:5167  function _checkRole(bytes32 role, address account) internal view {... */\n  pop\n  pop\n  jump\t// out\n    /* \"@openzeppelin/contracts/access/AccessControl.sol\":7948:8172  function _grantRole(bytes32 role, address account) private {... */\ntag_22:\n    /* \"@openzeppelin/contracts/access/AccessControl.sol\":8022:8044  hasRole(role, account) */\n  tag_37\n    /* \"@openzeppelin/contracts/access/AccessControl.sol\":8030:8034  role */\n  dup3\n    /* \"@openzeppelin/contracts/access/AccessControl.sol\":8036:8043  account */\n  dup3\n    /* \"@openzeppelin/contracts/access/AccessControl.sol\":8022:8029  hasRole */\n  shl(0x20, tag_27)\n    /* \"@openzeppelin/contracts/access/AccessControl.sol\":8022:8044  hasRole(role, account) */\n  0x20\n  shr\n  jump\t// in\ntag_37:\n    /* \"@openzeppelin/contracts/access/AccessControl.sol\":8017:8166  if (!hasRole(role, account)) {... */\n  tag_38\n  jumpi\n    /* \"@openzeppelin/contracts/access/AccessControl.sol\":8092:8096  true */\n  0x01\n    /* \"@openzeppelin/contracts/access/AccessControl.sol\":8060:8066  _roles */\n  0x00\n    /* \"@openzeppelin/contracts/access/AccessControl.sol\":8060:8072  _roles[role] */\n  dup1\n    /* \"@openzeppelin/contracts/access/AccessControl.sol\":8067:8071  role */\n  dup5\n    /* \"@openzeppelin/contracts/access/AccessControl.sol\":8060:8072  _roles[role] */\n  dup2\n  mstore\n  0x20\n  add\n  swap1\n  dup2\n  mstore\n  0x20\n  add\n  0x00\n  keccak256\n    /* \"@openzeppelin/contracts/access/AccessControl.sol\":8060:8080  _roles[role].members */\n  0x00\n  add\n    /* \"@openzeppelin/contracts/access/AccessControl.sol\":8060:8089  _roles[role].members[account] */\n  0x00\n    /* \"@openzeppelin/contracts/access/AccessControl.sol\":8081:8088  account */\n  dup4\n    /* \"@openzeppelin/contracts/access/AccessControl.sol\":8060:8089  _roles[role].members[account] */\n  0xffffffffffffffffffffffffffffffffffffffff\n  and\n  0xffffffffffffffffffffffffffffffffffffffff\n  and\n  dup2\n  mstore\n  0x20\n  add\n  swap1\n  dup2\n  mstore\n  0x20\n  add\n  0x00\n  keccak256\n  0x00\n    /* \"@openzeppelin/contracts/access/AccessControl.sol\":8060:8096  _roles[role].members[account] = true */\n  0x0100\n  exp\n  dup2\n  sload\n  dup2\n  0xff\n  mul\n  not\n  and\n  swap1\n  dup4\n  iszero\n  iszero\n  mul\n  or\n  swap1\n  sstore\n  pop\n    /* \"@openzeppelin/contracts/access/AccessControl.sol\":8142:8154  _msgSender() */\n  tag_39\n    /* \"@openzeppelin/contracts/access/AccessControl.sol\":8142:8152  _msgSender */\n  shl(0x20, tag_18)\n    /* \"@openzeppelin/contracts/access/AccessControl.sol\":8142:8154  _msgSender() */\n  0x20\n  shr\n  jump\t// in\ntag_39:\n    /* \"@openzeppelin/contracts/access/AccessControl.sol\":8115:8155  RoleGranted(role, account, _msgSender()) */\n  0xffffffffffffffffffffffffffffffffffffffff\n  and\n    /* \"@openzeppelin/contracts/access/AccessControl.sol\":8133:8140  account */\n  dup2\n    /* \"@openzeppelin/contracts/access/AccessControl.sol\":8115:8155  RoleGranted(role, account, _msgSender()) */\n  0xffffffffffffffffffffffffffffffffffffffff\n  and\n    /* \"@openzeppelin/contracts/access/AccessControl.sol\":8127:8131  role */\n  dup4\n    /* \"@openzeppelin/contracts/access/AccessControl.sol\":8115:8155  RoleGranted(role, account, _msgSender()) */\n  0x2f8788117e7eff1d82e926ec794901d17c78024a50270940304540a733656f0d\n  mload(0x40)\n  mload(0x40)\n  dup1\n  swap2\n  sub\n  swap1\n  log4\n    /* \"@openzeppelin/contracts/access/AccessControl.sol\":8017:8166  if (!hasRole(role, account)) {... */\ntag_38:\n    /* \"@openzeppelin/contracts/access/AccessControl.sol\":7948:8172  function _grantRole(bytes32 role, address account) private {... */\n  pop\n  pop\n  jump\t// out\n    /* \"@openzeppelin/contracts/access/AccessControl.sol\":4374:4511  function hasRole(bytes32 role, address account) public view override returns (bool) {... */\ntag_27:\n    /* \"@openzeppelin/contracts/access/AccessControl.sol\":4452:4456  bool */\n  0x00\n    /* \"@openzeppelin/contracts/access/AccessControl.sol\":4475:4481  _roles */\n  dup1\n    /* \"@openzeppelin/contracts/access/AccessControl.sol\":4475:4487  _roles[role] */\n  0x00\n    /* \"@openzeppelin/contracts/access/AccessControl.sol\":4482:4486  role */\n  dup5\n    /* \"@openzeppelin/contracts/access/AccessControl.sol\":4475:4487  _roles[role] */\n  dup2\n  mstore\n  0x20\n  add\n  swap1\n  dup2\n  mstore\n  0x20\n  add\n  0x00\n  keccak256\n    /* \"@openzeppelin/contracts/access/AccessControl.sol\":4475:4495  _roles[role].members */\n  0x00\n  add\n    /* \"@openzeppelin/contracts/access/AccessControl.sol\":4475:4504  _roles[role].members[account] */\n  0x00\n    /* \"@openzeppelin/contracts/access/AccessControl.sol\":4496:4503  account */\n  dup4\n    /* \"@openzeppelin/contracts/access/AccessControl.sol\":4475:4504  _roles[role].members[account] */\n  0xffffffffffffffffffffffffffffffffffffffff\n  and\n  0xffffffffffffffffffffffffffffffffffffffff\n  and\n  dup2\n  mstore\n  0x20\n  add\n  swap1\n  dup2\n  mstore\n  0x20\n  add\n  0x00\n  keccak256\n  0x00\n  swap1\n  sload\n  swap1\n  0x0100\n  exp\n  swap1\n  div\n  0xff\n  and\n    /* \"@openzeppelin/contracts/access/AccessControl.sol\":4468:4504  return _roles[role].members[account] */\n  swap1\n  pop\n    /* \"@openzeppelin/contracts/access/AccessControl.sol\":4374:4511  function hasRole(bytes32 role, address account) public view override returns (bool) {... */\n  swap3\n  swap2\n  pop\n  pop\n  jump\t// out\n    /* \"@openzeppelin/contracts/utils/Strings.sol\":1531:1968  function toHexString(uint256 value, uint256 length) internal pure returns (string memory) {... */\ntag_30:\n    /* \"@openzeppelin/contracts/utils/Strings.sol\":1606:1619  string memory */\n  0x60\n    /* \"@openzeppelin/contracts/utils/Strings.sol\":1631:1650  bytes memory buffer */\n  0x00\n    /* \"@openzeppelin/contracts/utils/Strings.sol\":1676:1677  2 */\n  0x02\n    /* \"@openzeppelin/contracts/utils/Strings.sol\":1667:1673  length */\n  dup4\n    /* \"@openzeppelin/contracts/utils/Strings.sol\":1663:1664  2 */\n  0x02\n    /* \"@openzeppelin/contracts/utils/Strings.sol\":1663:1673  2 * length */\n  tag_42\n  swap2\n  swap1\n  tag_43\n  jump\t// in\ntag_42:\n    /* \"@openzeppelin/contracts/utils/Strings.sol\":1663:1677  2 * length + 2 */\n  tag_44\n  swap2\n  swap1\n  tag_45\n  jump\t// in\ntag_44:\n    /* \"@openzeppelin/contracts/utils/Strings.sol\":1653:1678  new bytes(2 * length + 2) */\n  0xffffffffffffffff\n  dup2\n  gt\n  iszero\n  tag_46\n  jumpi\n  tag_47\n  tag_48\n  jump\t// in\ntag_47:\ntag_46:\n  mload(0x40)\n  swap1\n  dup1\n  dup3\n  mstore\n  dup1\n  0x1f\n  add\n  not(0x1f)\n  and\n  0x20\n  add\n  dup3\n  add\n  0x40\n  mstore\n  dup1\n  iszero\n  tag_49\n  jumpi\n  dup2\n  0x20\n  add\n  0x01\n  dup3\n  mul\n  dup1\n  calldatasize\n  dup4\n  calldatacopy\n  dup1\n  dup3\n  add\n  swap2\n  pop\n  pop\n  swap1\n  pop\ntag_49:\n  pop\n    /* \"@openzeppelin/contracts/utils/Strings.sol\":1631:1678  bytes memory buffer = new bytes(2 * length + 2) */\n  swap1\n  pop\n    /* \"@openzeppelin/contracts/utils/Strings.sol\":1688:1703  buffer[0] = \"0\" */\n  0x3000000000000000000000000000000000000000000000000000000000000000\n    /* \"@openzeppelin/contracts/utils/Strings.sol\":1688:1694  buffer */\n  dup2\n    /* \"@openzeppelin/contracts/utils/Strings.sol\":1695:1696  0 */\n  0x00\n    /* \"@openzeppelin/contracts/utils/Strings.sol\":1688:1697  buffer[0] */\n  dup2\n  mload\n  dup2\n  lt\n  tag_50\n  jumpi\n  tag_51\n  tag_52\n  jump\t// in\ntag_51:\ntag_50:\n  0x20\n  add\n  add\n    /* \"@openzeppelin/contracts/utils/Strings.sol\":1688:1703  buffer[0] = \"0\" */\n  swap1\n  not(0xffffffffffffffffffffffffffffffffffffffffffffffffffffffffffffff)\n  and\n  swap1\n  dup2\n  0x00\n  byte\n  swap1\n  mstore8\n  pop\n    /* \"@openzeppelin/contracts/utils/Strings.sol\":1713:1728  buffer[1] = \"x\" */\n  0x7800000000000000000000000000000000000000000000000000000000000000\n    /* \"@openzeppelin/contracts/utils/Strings.sol\":1713:1719  buffer */\n  dup2\n    /* \"@openzeppelin/contracts/utils/Strings.sol\":1720:1721  1 */\n  0x01\n    /* \"@openzeppelin/contracts/utils/Strings.sol\":1713:1722  buffer[1] */\n  dup2\n  mload\n  dup2\n  lt\n  tag_53\n  jumpi\n  tag_54\n  tag_52\n  jump\t// in\ntag_54:\ntag_53:\n  0x20\n  add\n  add\n    /* \"@openzeppelin/contracts/utils/Strings.sol\":1713:1728  buffer[1] = \"x\" */\n  swap1\n  not(0xffffffffffffffffffffffffffffffffffffffffffffffffffffffffffffff)\n  and\n  swap1\n  dup2\n  0x00\n  byte\n  swap1\n  mstore8\n  pop\n    /* \"@openzeppelin/contracts/utils/Strings.sol\":1743:1752  uint256 i */\n  0x00\n    /* \"@openzeppelin/contracts/utils/Strings.sol\":1768:1769  1 */\n  0x01\n    /* \"@openzeppelin/contracts/utils/Strings.sol\":1759:1765  length */\n  dup5\n    /* \"@openzeppelin/contracts/utils/Strings.sol\":1755:1756  2 */\n  0x02\n    /* \"@openzeppelin/contracts/utils/Strings.sol\":1755:1765  2 * length */\n  tag_58\n  swap2\n  swap1\n  tag_43\n  jump\t// in\ntag_58:\n    /* \"@openzeppelin/contracts/utils/Strings.sol\":1755:1769  2 * length + 1 */\n  tag_59\n  swap2\n  swap1\n  tag_45\n  jump\t// in\ntag_59:\n    /* \"@openzeppelin/contracts/utils/Strings.sol\":1743:1769  uint256 i = 2 * length + 1 */\n  swap1\n  pop\n    /* \"@openzeppelin/contracts/utils/Strings.sol\":1738:1866  for (uint256 i = 2 * length + 1; i > 1; --i) {... */\ntag_55:\n    /* \"@openzeppelin/contracts/utils/Strings.sol\":1775:1776  1 */\n  0x01\n    /* \"@openzeppelin/contracts/utils/Strings.sol\":1771:1772  i */\n  dup2\n    /* \"@openzeppelin/contracts/utils/Strings.sol\":1771:1776  i > 1 */\n  gt\n    /* \"@openzeppelin/contracts/utils/Strings.sol\":1738:1866  for (uint256 i = 2 * length + 1; i > 1; --i) {... */\n  iszero\n  tag_56\n  jumpi\n    /* \"@openzeppelin/contracts/utils/Strings.sol\":1809:1817  alphabet */\n  0x3031323334353637383961626364656600000000000000000000000000000000\n    /* \"@openzeppelin/contracts/utils/Strings.sol\":1826:1829  0xf */\n  0x0f\n    /* \"@openzeppelin/contracts/utils/Strings.sol\":1818:1823  value */\n  dup7\n    /* \"@openzeppelin/contracts/utils/Strings.sol\":1818:1829  value & 0xf */\n  and\n    /* \"@openzeppelin/contracts/utils/Strings.sol\":1809:1830  alphabet[value & 0xf] */\n  0x10\n  dup2\n  lt\n  tag_60\n  jumpi\n  tag_61\n  tag_52\n  jump\t// in\ntag_61:\ntag_60:\n  byte\n  0xf8\n  shl\n    /* \"@openzeppelin/contracts/utils/Strings.sol\":1797:1803  buffer */\n  dup3\n    /* \"@openzeppelin/contracts/utils/Strings.sol\":1804:1805  i */\n  dup3\n    /* \"@openzeppelin/contracts/utils/Strings.sol\":1797:1806  buffer[i] */\n  dup2\n  mload\n  dup2\n  lt\n  tag_62\n  jumpi\n  tag_63\n  tag_52\n  jump\t// in\ntag_63:\ntag_62:\n  0x20\n  add\n  add\n    /* \"@openzeppelin/contracts/utils/Strings.sol\":1797:1830  buffer[i] = alphabet[value & 0xf] */\n  swap1\n  not(0xffffffffffffffffffffffffffffffffffffffffffffffffffffffffffffff)\n  and\n  swap1\n  dup2\n  0x00\n  byte\n  swap1\n  mstore8\n  pop\n    /* \"@openzeppelin/contracts/utils/Strings.sol\":1854:1855  4 */\n  0x04\n    /* \"@openzeppelin/contracts/utils/Strings.sol\":1844:1855  value >>= 4 */\n  dup6\n  swap1\n  shr\n  swap5\n  pop\n    /* \"@openzeppelin/contracts/utils/Strings.sol\":1778:1781  --i */\n  dup1\n  tag_64\n  swap1\n  tag_65\n  jump\t// in\ntag_64:\n  swap1\n  pop\n    /* \"@openzeppelin/contracts/utils/Strings.sol\":1738:1866  for (uint256 i = 2 * length + 1; i > 1; --i) {... */\n  jump(tag_55)\ntag_56:\n  pop\n    /* \"@openzeppelin/contracts/utils/Strings.sol\":1892:1893  0 */\n  0x00\n    /* \"@openzeppelin/contracts/utils/Strings.sol\":1883:1888  value */\n  dup5\n    /* \"@openzeppelin/contracts/utils/Strings.sol\":1883:1893  value == 0 */\n  eq\n    /* \"@openzeppelin/contracts/utils/Strings.sol\":1875:1930  require(value == 0, \"Strings: hex length insufficient\") */\n  tag_66\n  jumpi\n  mload(0x40)\n  0x08c379a000000000000000000000000000000000000000000000000000000000\n  dup2\n  mstore\n  0x04\n  add\n  tag_67\n  swap1\n  tag_68\n  jump\t// in\ntag_67:\n  mload(0x40)\n  dup1\n  swap2\n  sub\n  swap1\n  revert\ntag_66:\n    /* \"@openzeppelin/contracts/utils/Strings.sol\":1954:1960  buffer */\n  dup1\n    /* \"@openzeppelin/contracts/utils/Strings.sol\":1940:1961  return string(buffer) */\n  swap2\n  pop\n  pop\n    /* \"@openzeppelin/contracts/utils/Strings.sol\":1531:1968  function toHexString(uint256 value, uint256 length) internal pure returns (string memory) {... */\n  swap3\n  swap2\n  pop\n  pop\n  jump\t// out\n    /* \"#utility.yul\":88:205   */\ntag_70:\n    /* \"#utility.yul\":197:198   */\n  0x00\n    /* \"#utility.yul\":194:195   */\n  dup1\n    /* \"#utility.yul\":187:199   */\n  revert\n    /* \"#utility.yul\":334:460   */\ntag_72:\n    /* \"#utility.yul\":371:378   */\n  0x00\n    /* \"#utility.yul\":411:453   */\n  0xffffffffffffffffffffffffffffffffffffffff\n    /* \"#utility.yul\":404:409   */\n  dup3\n    /* \"#utility.yul\":400:454   */\n  and\n    /* \"#utility.yul\":389:454   */\n  swap1\n  pop\n    /* \"#utility.yul\":334:460   */\n  swap2\n  swap1\n  pop\n  jump\t// out\n    /* \"#utility.yul\":466:562   */\ntag_73:\n    /* \"#utility.yul\":503:510   */\n  0x00\n    /* \"#utility.yul\":532:556   */\n  tag_99\n    /* \"#utility.yul\":550:555   */\n  dup3\n    /* \"#utility.yul\":532:556   */\n  tag_72\n  jump\t// in\ntag_99:\n    /* \"#utility.yul\":521:556   */\n  swap1\n  pop\n    /* \"#utility.yul\":466:562   */\n  swap2\n  swap1\n  pop\n  jump\t// out\n    /* \"#utility.yul\":568:690   */\ntag_74:\n    /* \"#utility.yul\":641:665   */\n  tag_101\n    /* \"#utility.yul\":659:664   */\n  dup2\n    /* \"#utility.yul\":641:665   */\n  tag_73\n  jump\t// in\ntag_101:\n    /* \"#utility.yul\":634:639   */\n  dup2\n    /* \"#utility.yul\":631:666   */\n  eq\n    /* \"#utility.yul\":621:684   */\n  tag_102\n  jumpi\n    /* \"#utility.yul\":680:681   */\n  0x00\n    /* \"#utility.yul\":677:678   */\n  dup1\n    /* \"#utility.yul\":670:682   */\n  revert\n    /* \"#utility.yul\":621:684   */\ntag_102:\n    /* \"#utility.yul\":568:690   */\n  pop\n  jump\t// out\n    /* \"#utility.yul\":696:839   */\ntag_75:\n    /* \"#utility.yul\":753:758   */\n  0x00\n    /* \"#utility.yul\":784:790   */\n  dup2\n    /* \"#utility.yul\":778:791   */\n  mload\n    /* \"#utility.yul\":769:791   */\n  swap1\n  pop\n    /* \"#utility.yul\":800:833   */\n  tag_104\n    /* \"#utility.yul\":827:832   */\n  dup2\n    /* \"#utility.yul\":800:833   */\n  tag_74\n  jump\t// in\ntag_104:\n    /* \"#utility.yul\":696:839   */\n  swap3\n  swap2\n  pop\n  pop\n  jump\t// out\n    /* \"#utility.yul\":845:1352   */\ntag_3:\n    /* \"#utility.yul\":924:930   */\n  0x00\n    /* \"#utility.yul\":932:938   */\n  dup1\n    /* \"#utility.yul\":981:983   */\n  0x40\n    /* \"#utility.yul\":969:978   */\n  dup4\n    /* \"#utility.yul\":960:967   */\n  dup6\n    /* \"#utility.yul\":956:979   */\n  sub\n    /* \"#utility.yul\":952:984   */\n  slt\n    /* \"#utility.yul\":949:1068   */\n  iszero\n  tag_106\n  jumpi\n    /* \"#utility.yul\":987:1066   */\n  tag_107\n  tag_70\n  jump\t// in\ntag_107:\n    /* \"#utility.yul\":949:1068   */\ntag_106:\n    /* \"#utility.yul\":1107:1108   */\n  0x00\n    /* \"#utility.yul\":1132:1196   */\n  tag_108\n    /* \"#utility.yul\":1188:1195   */\n  dup6\n    /* \"#utility.yul\":1179:1185   */\n  dup3\n    /* \"#utility.yul\":1168:1177   */\n  dup7\n    /* \"#utility.yul\":1164:1186   */\n  add\n    /* \"#utility.yul\":1132:1196   */\n  tag_75\n  jump\t// in\ntag_108:\n    /* \"#utility.yul\":1122:1196   */\n  swap3\n  pop\n    /* \"#utility.yul\":1078:1206   */\n  pop\n    /* \"#utility.yul\":1245:1247   */\n  0x20\n    /* \"#utility.yul\":1271:1335   */\n  tag_109\n    /* \"#utility.yul\":1327:1334   */\n  dup6\n    /* \"#utility.yul\":1318:1324   */\n  dup3\n    /* \"#utility.yul\":1307:1316   */\n  dup7\n    /* \"#utility.yul\":1303:1325   */\n  add\n    /* \"#utility.yul\":1271:1335   */\n  tag_75\n  jump\t// in\ntag_109:\n    /* \"#utility.yul\":1261:1335   */\n  swap2\n  pop\n    /* \"#utility.yul\":1216:1345   */\n  pop\n    /* \"#utility.yul\":845:1352   */\n  swap3\n  pop\n  swap3\n  swap1\n  pop\n  jump\t// out\n    /* \"#utility.yul\":1358:1527   */\ntag_76:\n    /* \"#utility.yul\":1442:1453   */\n  0x00\n    /* \"#utility.yul\":1476:1482   */\n  dup3\n    /* \"#utility.yul\":1471:1474   */\n  dup3\n    /* \"#utility.yul\":1464:1483   */\n  mstore\n    /* \"#utility.yul\":1516:1520   */\n  0x20\n    /* \"#utility.yul\":1511:1514   */\n  dup3\n    /* \"#utility.yul\":1507:1521   */\n  add\n    /* \"#utility.yul\":1492:1521   */\n  swap1\n  pop\n    /* \"#utility.yul\":1358:1527   */\n  swap3\n  swap2\n  pop\n  pop\n  jump\t// out\n    /* \"#utility.yul\":1533:1698   */\ntag_77:\n    /* \"#utility.yul\":1673:1690   */\n  0x496e76616c696420616464726573730000000000000000000000000000000000\n    /* \"#utility.yul\":1669:1670   */\n  0x00\n    /* \"#utility.yul\":1661:1667   */\n  dup3\n    /* \"#utility.yul\":1657:1671   */\n  add\n    /* \"#utility.yul\":1650:1691   */\n  mstore\n    /* \"#utility.yul\":1533:1698   */\n  pop\n  jump\t// out\n    /* \"#utility.yul\":1704:2070   */\ntag_78:\n    /* \"#utility.yul\":1846:1849   */\n  0x00\n    /* \"#utility.yul\":1867:1934   */\n  tag_113\n    /* \"#utility.yul\":1931:1933   */\n  0x0f\n    /* \"#utility.yul\":1926:1929   */\n  dup4\n    /* \"#utility.yul\":1867:1934   */\n  tag_76\n  jump\t// in\ntag_113:\n    /* \"#utility.yul\":1860:1934   */\n  swap2\n  pop\n    /* \"#utility.yul\":1943:2036   */\n  tag_114\n    /* \"#utility.yul\":2032:2035   */\n  dup3\n    /* \"#utility.yul\":1943:2036   */\n  tag_77\n  jump\t// in\ntag_114:\n    /* \"#utility.yul\":2061:2063   */\n  0x20\n    /* \"#utility.yul\":2056:2059   */\n  dup3\n    /* \"#utility.yul\":2052:2064   */\n  add\n    /* \"#utility.yul\":2045:2064   */\n  swap1\n  pop\n    /* \"#utility.yul\":1704:2070   */\n  swap2\n  swap1\n  pop\n  jump\t// out\n    /* \"#utility.yul\":2076:2495   */\ntag_9:\n    /* \"#utility.yul\":2242:2246   */\n  0x00\n    /* \"#utility.yul\":2280:2282   */\n  0x20\n    /* \"#utility.yul\":2269:2278   */\n  dup3\n    /* \"#utility.yul\":2265:2283   */\n  add\n    /* \"#utility.yul\":2257:2283   */\n  swap1\n  pop\n    /* \"#utility.yul\":2329:2338   */\n  dup2\n    /* \"#utility.yul\":2323:2327   */\n  dup2\n    /* \"#utility.yul\":2319:2339   */\n  sub\n    /* \"#utility.yul\":2315:2316   */\n  0x00\n    /* \"#utility.yul\":2304:2313   */\n  dup4\n    /* \"#utility.yul\":2300:2317   */\n  add\n    /* \"#utility.yul\":2293:2340   */\n  mstore\n    /* \"#utility.yul\":2357:2488   */\n  tag_116\n    /* \"#utility.yul\":2483:2487   */\n  dup2\n    /* \"#utility.yul\":2357:2488   */\n  tag_78\n  jump\t// in\ntag_116:\n    /* \"#utility.yul\":2349:2488   */\n  swap1\n  pop\n    /* \"#utility.yul\":2076:2495   */\n  swap2\n  swap1\n  pop\n  jump\t// out\n    /* \"#utility.yul\":2501:2649   */\ntag_79:\n    /* \"#utility.yul\":2603:2614   */\n  0x00\n    /* \"#utility.yul\":2640:2643   */\n  dup2\n    /* \"#utility.yul\":2625:2643   */\n  swap1\n  pop\n    /* \"#utility.yul\":2501:2649   */\n  swap3\n  swap2\n  pop\n  pop\n  jump\t// out\n    /* \"#utility.yul\":2655:2828   */\ntag_80:\n    /* \"#utility.yul\":2795:2820   */\n  0x416363657373436f6e74726f6c3a206163636f756e7420000000000000000000\n    /* \"#utility.yul\":2791:2792   */\n  0x00\n    /* \"#utility.yul\":2783:2789   */\n  dup3\n    /* \"#utility.yul\":2779:2793   */\n  add\n    /* \"#utility.yul\":2772:2821   */\n  mstore\n    /* \"#utility.yul\":2655:2828   */\n  pop\n  jump\t// out\n    /* \"#utility.yul\":2834:3236   */\ntag_81:\n    /* \"#utility.yul\":2994:2997   */\n  0x00\n    /* \"#utility.yul\":3015:3100   */\n  tag_120\n    /* \"#utility.yul\":3097:3099   */\n  0x17\n    /* \"#utility.yul\":3092:3095   */\n  dup4\n    /* \"#utility.yul\":3015:3100   */\n  tag_79\n  jump\t// in\ntag_120:\n    /* \"#utility.yul\":3008:3100   */\n  swap2\n  pop\n    /* \"#utility.yul\":3109:3202   */\n  tag_121\n    /* \"#utility.yul\":3198:3201   */\n  dup3\n    /* \"#utility.yul\":3109:3202   */\n  tag_80\n  jump\t// in\ntag_121:\n    /* \"#utility.yul\":3227:3229   */\n  0x17\n    /* \"#utility.yul\":3222:3225   */\n  dup3\n    /* \"#utility.yul\":3218:3230   */\n  add\n    /* \"#utility.yul\":3211:3230   */\n  swap1\n  pop\n    /* \"#utility.yul\":2834:3236   */\n  swap2\n  swap1\n  pop\n  jump\t// out\n    /* \"#utility.yul\":3242:3341   */\ntag_82:\n    /* \"#utility.yul\":3294:3300   */\n  0x00\n    /* \"#utility.yul\":3328:3333   */\n  dup2\n    /* \"#utility.yul\":3322:3334   */\n  mload\n    /* \"#utility.yul\":3312:3334   */\n  swap1\n  pop\n    /* \"#utility.yul\":3242:3341   */\n  swap2\n  swap1\n  pop\n  jump\t// out\n    /* \"#utility.yul\":3347:3595   */\ntag_83:\n    /* \"#utility.yul\":3429:3430   */\n  0x00\n    /* \"#utility.yul\":3439:3552   */\ntag_124:\n    /* \"#utility.yul\":3453:3459   */\n  dup4\n    /* \"#utility.yul\":3450:3451   */\n  dup2\n    /* \"#utility.yul\":3447:3460   */\n  lt\n    /* \"#utility.yul\":3439:3552   */\n  iszero\n  tag_126\n  jumpi\n    /* \"#utility.yul\":3538:3539   */\n  dup1\n    /* \"#utility.yul\":3533:3536   */\n  dup3\n    /* \"#utility.yul\":3529:3540   */\n  add\n    /* \"#utility.yul\":3523:3541   */\n  mload\n    /* \"#utility.yul\":3519:3520   */\n  dup2\n    /* \"#utility.yul\":3514:3517   */\n  dup5\n    /* \"#utility.yul\":3510:3521   */\n  add\n    /* \"#utility.yul\":3503:3542   */\n  mstore\n    /* \"#utility.yul\":3475:3477   */\n  0x20\n    /* \"#utility.yul\":3472:3473   */\n  dup2\n    /* \"#utility.yul\":3468:3478   */\n  add\n    /* \"#utility.yul\":3463:3478   */\n  swap1\n  pop\n    /* \"#utility.yul\":3439:3552   */\n  jump(tag_124)\ntag_126:\n    /* \"#utility.yul\":3586:3587   */\n  0x00\n    /* \"#utility.yul\":3577:3583   */\n  dup5\n    /* \"#utility.yul\":3572:3575   */\n  dup5\n    /* \"#utility.yul\":3568:3584   */\n  add\n    /* \"#utility.yul\":3561:3588   */\n  mstore\n    /* \"#utility.yul\":3409:3595   */\n  pop\n    /* \"#utility.yul\":3347:3595   */\n  pop\n  pop\n  pop\n  jump\t// out\n    /* \"#utility.yul\":3601:3991   */\ntag_84:\n    /* \"#utility.yul\":3707:3710   */\n  0x00\n    /* \"#utility.yul\":3735:3774   */\n  tag_128\n    /* \"#utility.yul\":3768:3773   */\n  dup3\n    /* \"#utility.yul\":3735:3774   */\n  tag_82\n  jump\t// in\ntag_128:\n    /* \"#utility.yul\":3790:3879   */\n  tag_129\n    /* \"#utility.yul\":3872:3878   */\n  dup2\n    /* \"#utility.yul\":3867:3870   */\n  dup6\n    /* \"#utility.yul\":3790:3879   */\n  tag_79\n  jump\t// in\ntag_129:\n    /* \"#utility.yul\":3783:3879   */\n  swap4\n  pop\n    /* \"#utility.yul\":3888:3953   */\n  tag_130\n    /* \"#utility.yul\":3946:3952   */\n  dup2\n    /* \"#utility.yul\":3941:3944   */\n  dup6\n    /* \"#utility.yul\":3934:3938   */\n  0x20\n    /* \"#utility.yul\":3927:3932   */\n  dup7\n    /* \"#utility.yul\":3923:3939   */\n  add\n    /* \"#utility.yul\":3888:3953   */\n  tag_83\n  jump\t// in\ntag_130:\n    /* \"#utility.yul\":3978:3984   */\n  dup1\n    /* \"#utility.yul\":3973:3976   */\n  dup5\n    /* \"#utility.yul\":3969:3985   */\n  add\n    /* \"#utility.yul\":3962:3985   */\n  swap2\n  pop\n    /* \"#utility.yul\":3711:3991   */\n  pop\n    /* \"#utility.yul\":3601:3991   */\n  swap3\n  swap2\n  pop\n  pop\n  jump\t// out\n    /* \"#utility.yul\":3997:4164   */\ntag_85:\n    /* \"#utility.yul\":4137:4156   */\n  0x206973206d697373696e6720726f6c6520000000000000000000000000000000\n    /* \"#utility.yul\":4133:4134   */\n  0x00\n    /* \"#utility.yul\":4125:4131   */\n  dup3\n    /* \"#utility.yul\":4121:4135   */\n  add\n    /* \"#utility.yul\":4114:4157   */\n  mstore\n    /* \"#utility.yul\":3997:4164   */\n  pop\n  jump\t// out\n    /* \"#utility.yul\":4170:4572   */\ntag_86:\n    /* \"#utility.yul\":4330:4333   */\n  0x00\n    /* \"#utility.yul\":4351:4436   */\n  tag_133\n    /* \"#utility.yul\":4433:4435   */\n  0x11\n    /* \"#utility.yul\":4428:4431   */\n  dup4\n    /* \"#utility.yul\":4351:4436   */\n  tag_79\n  jump\t// in\ntag_133:\n    /* \"#utility.yul\":4344:4436   */\n  swap2\n  pop\n    /* \"#utility.yul\":4445:4538   */\n  tag_134\n    /* \"#utility.yul\":4534:4537   */\n  dup3\n    /* \"#utility.yul\":4445:4538   */\n  tag_85\n  jump\t// in\ntag_134:\n    /* \"#utility.yul\":4563:4565   */\n  0x11\n    /* \"#utility.yul\":4558:4561   */\n  dup3\n    /* \"#utility.yul\":4554:4566   */\n  add\n    /* \"#utility.yul\":4547:4566   */\n  swap1\n  pop\n    /* \"#utility.yul\":4170:4572   */\n  swap2\n  swap1\n  pop\n  jump\t// out\n    /* \"#utility.yul\":4578:5545   */\ntag_33:\n    /* \"#utility.yul\":4960:4963   */\n  0x00\n    /* \"#utility.yul\":4982:5130   */\n  tag_136\n    /* \"#utility.yul\":5126:5129   */\n  dup3\n    /* \"#utility.yul\":4982:5130   */\n  tag_81\n  jump\t// in\ntag_136:\n    /* \"#utility.yul\":4975:5130   */\n  swap2\n  pop\n    /* \"#utility.yul\":5147:5242   */\n  tag_137\n    /* \"#utility.yul\":5238:5241   */\n  dup3\n    /* \"#utility.yul\":5229:5235   */\n  dup6\n    /* \"#utility.yul\":5147:5242   */\n  tag_84\n  jump\t// in\ntag_137:\n    /* \"#utility.yul\":5140:5242   */\n  swap2\n  pop\n    /* \"#utility.yul\":5259:5407   */\n  tag_138\n    /* \"#utility.yul\":5403:5406   */\n  dup3\n    /* \"#utility.yul\":5259:5407   */\n  tag_86\n  jump\t// in\ntag_138:\n    /* \"#utility.yul\":5252:5407   */\n  swap2\n  pop\n    /* \"#utility.yul\":5424:5519   */\n  tag_139\n    /* \"#utility.yul\":5515:5518   */\n  dup3\n    /* \"#utility.yul\":5506:5512   */\n  dup5\n    /* \"#utility.yul\":5424:5519   */\n  tag_84\n  jump\t// in\ntag_139:\n    /* \"#utility.yul\":5417:5519   */\n  swap2\n  pop\n    /* \"#utility.yul\":5536:5539   */\n  dup2\n    /* \"#utility.yul\":5529:5539   */\n  swap1\n  pop\n    /* \"#utility.yul\":4578:5545   */\n  swap4\n  swap3\n  pop\n  pop\n  pop\n  jump\t// out\n    /* \"#utility.yul\":5551:5653   */\ntag_87:\n    /* \"#utility.yul\":5592:5598   */\n  0x00\n    /* \"#utility.yul\":5643:5645   */\n  0x1f\n    /* \"#utility.yul\":5639:5646   */\n  not\n    /* \"#utility.yul\":5634:5636   */\n  0x1f\n    /* \"#utility.yul\":5627:5632   */\n  dup4\n    /* \"#utility.yul\":5623:5637   */\n  add\n    /* \"#utility.yul\":5619:5647   */\n  and\n    /* \"#utility.yul\":5609:5647   */\n  swap1\n  pop\n    /* \"#utility.yul\":5551:5653   */\n  swap2\n  swap1\n  pop\n  jump\t// out\n    /* \"#utility.yul\":5659:6036   */\ntag_88:\n    /* \"#utility.yul\":5747:5750   */\n  0x00\n    /* \"#utility.yul\":5775:5814   */\n  tag_142\n    /* \"#utility.yul\":5808:5813   */\n  dup3\n    /* \"#utility.yul\":5775:5814   */\n  tag_82\n  jump\t// in\ntag_142:\n    /* \"#utility.yul\":5830:5901   */\n  tag_143\n    /* \"#utility.yul\":5894:5900   */\n  dup2\n    /* \"#utility.yul\":5889:5892   */\n  dup6\n    /* \"#utility.yul\":5830:5901   */\n  tag_76\n  jump\t// in\ntag_143:\n    /* \"#utility.yul\":5823:5901   */\n  swap4\n  pop\n    /* \"#utility.yul\":5910:5975   */\n  tag_144\n    /* \"#utility.yul\":5968:5974   */\n  dup2\n    /* \"#utility.yul\":5963:5966   */\n  dup6\n    /* \"#utility.yul\":5956:5960   */\n  0x20\n    /* \"#utility.yul\":5949:5954   */\n  dup7\n    /* \"#utility.yul\":5945:5961   */\n  add\n    /* \"#utility.yul\":5910:5975   */\n  tag_83\n  jump\t// in\ntag_144:\n    /* \"#utility.yul\":6000:6029   */\n  tag_145\n    /* \"#utility.yul\":6022:6028   */\n  dup2\n    /* \"#utility.yul\":6000:6029   */\n  tag_87\n  jump\t// in\ntag_145:\n    /* \"#utility.yul\":5995:5998   */\n  dup5\n    /* \"#utility.yul\":5991:6030   */\n  add\n    /* \"#utility.yul\":5984:6030   */\n  swap2\n  pop\n    /* \"#utility.yul\":5751:6036   */\n  pop\n    /* \"#utility.yul\":5659:6036   */\n  swap3\n  swap2\n  pop\n  pop\n  jump\t// out\n    /* \"#utility.yul\":6042:6355   */\ntag_35:\n    /* \"#utility.yul\":6155:6159   */\n  0x00\n    /* \"#utility.yul\":6193:6195   */\n  0x20\n    /* \"#utility.yul\":6182:6191   */\n  dup3\n    /* \"#utility.yul\":6178:6196   */\n  add\n    /* \"#utility.yul\":6170:6196   */\n  swap1\n  pop\n    /* \"#utility.yul\":6242:6251   */\n  dup2\n    /* \"#utility.yul\":6236:6240   */\n  dup2\n    /* \"#utility.yul\":6232:6252   */\n  sub\n    /* \"#utility.yul\":6228:6229   */\n  0x00\n    /* \"#utility.yul\":6217:6226   */\n  dup4\n    /* \"#utility.yul\":6213:6230   */\n  add\n    /* \"#utility.yul\":6206:6253   */\n  mstore\n    /* \"#utility.yul\":6270:6348   */\n  tag_147\n    /* \"#utility.yul\":6343:6347   */\n  dup2\n    /* \"#utility.yul\":6334:6340   */\n  dup5\n    /* \"#utility.yul\":6270:6348   */\n  tag_88\n  jump\t// in\ntag_147:\n    /* \"#utility.yul\":6262:6348   */\n  swap1\n  pop\n    /* \"#utility.yul\":6042:6355   */\n  swap3\n  swap2\n  pop\n  pop\n  jump\t// out\n    /* \"#utility.yul\":6361:6438   */\ntag_89:\n    /* \"#utility.yul\":6398:6405   */\n  0x00\n    /* \"#utility.yul\":6427:6432   */\n  dup2\n    /* \"#utility.yul\":6416:6432   */\n  swap1\n  pop\n    /* \"#utility.yul\":6361:6438   */\n  swap2\n  swap1\n  pop\n  jump\t// out\n    /* \"#utility.yul\":6444:6624   */\ntag_90:\n    /* \"#utility.yul\":6492:6569   */\n  0x4e487b7100000000000000000000000000000000000000000000000000000000\n    /* \"#utility.yul\":6489:6490   */\n  0x00\n    /* \"#utility.yul\":6482:6570   */\n  mstore\n    /* \"#utility.yul\":6589:6593   */\n  0x11\n    /* \"#utility.yul\":6586:6587   */\n  0x04\n    /* \"#utility.yul\":6579:6594   */\n  mstore\n    /* \"#utility.yul\":6613:6617   */\n  0x24\n    /* \"#utility.yul\":6610:6611   */\n  0x00\n    /* \"#utility.yul\":6603:6618   */\n  revert\n    /* \"#utility.yul\":6630:7040   */\ntag_43:\n    /* \"#utility.yul\":6670:6677   */\n  0x00\n    /* \"#utility.yul\":6693:6713   */\n  tag_151\n    /* \"#utility.yul\":6711:6712   */\n  dup3\n    /* \"#utility.yul\":6693:6713   */\n  tag_89\n  jump\t// in\ntag_151:\n    /* \"#utility.yul\":6688:6713   */\n  swap2\n  pop\n    /* \"#utility.yul\":6727:6747   */\n  tag_152\n    /* \"#utility.yul\":6745:6746   */\n  dup4\n    /* \"#utility.yul\":6727:6747   */\n  tag_89\n  jump\t// in\ntag_152:\n    /* \"#utility.yul\":6722:6747   */\n  swap3\n  pop\n    /* \"#utility.yul\":6782:6783   */\n  dup3\n    /* \"#utility.yul\":6779:6780   */\n  dup3\n    /* \"#utility.yul\":6775:6784   */\n  mul\n    /* \"#utility.yul\":6804:6834   */\n  tag_153\n    /* \"#utility.yul\":6822:6833   */\n  dup2\n    /* \"#utility.yul\":6804:6834   */\n  tag_89\n  jump\t// in\ntag_153:\n    /* \"#utility.yul\":6793:6834   */\n  swap2\n  pop\n    /* \"#utility.yul\":6983:6984   */\n  dup3\n    /* \"#utility.yul\":6974:6981   */\n  dup3\n    /* \"#utility.yul\":6970:6985   */\n  div\n    /* \"#utility.yul\":6967:6968   */\n  dup5\n    /* \"#utility.yul\":6964:6986   */\n  eq\n    /* \"#utility.yul\":6944:6945   */\n  dup4\n    /* \"#utility.yul\":6937:6946   */\n  iszero\n    /* \"#utility.yul\":6917:7000   */\n  or\n    /* \"#utility.yul\":6894:7033   */\n  tag_154\n  jumpi\n    /* \"#utility.yul\":7013:7031   */\n  tag_155\n  tag_90\n  jump\t// in\ntag_155:\n    /* \"#utility.yul\":6894:7033   */\ntag_154:\n    /* \"#utility.yul\":6678:7040   */\n  pop\n    /* \"#utility.yul\":6630:7040   */\n  swap3\n  swap2\n  pop\n  pop\n  jump\t// out\n    /* \"#utility.yul\":7046:7237   */\ntag_45:\n    /* \"#utility.yul\":7086:7089   */\n  0x00\n    /* \"#utility.yul\":7105:7125   */\n  tag_157\n    /* \"#utility.yul\":7123:7124   */\n  dup3\n    /* \"#utility.yul\":7105:7125   */\n  tag_89\n  jump\t// in\ntag_157:\n    /* \"#utility.yul\":7100:7125   */\n  swap2\n  pop\n    /* \"#utility.yul\":7139:7159   */\n  tag_158\n    /* \"#utility.yul\":7157:7158   */\n  dup4\n    /* \"#utility.yul\":7139:7159   */\n  tag_89\n  jump\t// in\ntag_158:\n    /* \"#utility.yul\":7134:7159   */\n  swap3\n  pop\n    /* \"#utility.yul\":7182:7183   */\n  dup3\n    /* \"#utility.yul\":7179:7180   */\n  dup3\n    /* \"#utility.yul\":7175:7184   */\n  add\n    /* \"#utility.yul\":7168:7184   */\n  swap1\n  pop\n    /* \"#utility.yul\":7203:7206   */\n  dup1\n    /* \"#utility.yul\":7200:7201   */\n  dup3\n    /* \"#utility.yul\":7197:7207   */\n  gt\n    /* \"#utility.yul\":7194:7230   */\n  iszero\n  tag_159\n  jumpi\n    /* \"#utility.yul\":7210:7228   */\n  tag_160\n  tag_90\n  jump\t// in\ntag_160:\n    /* \"#utility.yul\":7194:7230   */\ntag_159:\n    /* \"#utility.yul\":7046:7237   */\n  swap3\n  swap2\n  pop\n  pop\n  jump\t// out\n    /* \"#utility.yul\":7243:7423   */\ntag_48:\n    /* \"#utility.yul\":7291:7368   */\n  0x4e487b7100000000000000000000000000000000000000000000000000000000\n    /* \"#utility.yul\":7288:7289   */\n  0x00\n    /* \"#utility.yul\":7281:7369   */\n  mstore\n    /* \"#utility.yul\":7388:7392   */\n  0x41\n    /* \"#utility.yul\":7385:7386   */\n  0x04\n    /* \"#utility.yul\":7378:7393   */\n  mstore\n    /* \"#utility.yul\":7412:7416   */\n  0x24\n    /* \"#utility.yul\":7409:7410   */\n  0x00\n    /* \"#utility.yul\":7402:7417   */\n  revert\n    /* \"#utility.yul\":7429:7609   */\ntag_52:\n    /* \"#utility.yul\":7477:7554   */\n  0x4e487b7100000000000000000000000000000000000000000000000000000000\n    /* \"#utility.yul\":7474:7475   */\n  0x00\n    /* \"#utility.yul\":7467:7555   */\n  mstore\n    /* \"#utility.yul\":7574:7578   */\n  0x32\n    /* \"#utility.yul\":7571:7572   */\n  0x04\n    /* \"#utility.yul\":7564:7579   */\n  mstore\n    /* \"#utility.yul\":7598:7602   */\n  0x24\n    /* \"#utility.yul\":7595:7596   */\n  0x00\n    /* \"#utility.yul\":7588:7603   */\n  revert\n    /* \"#utility.yul\":7615:7786   */\ntag_65:\n    /* \"#utility.yul\":7654:7657   */\n  0x00\n    /* \"#utility.yul\":7677:7701   */\n  tag_164\n    /* \"#utility.yul\":7695:7700   */\n  dup3\n    /* \"#utility.yul\":7677:7701   */\n  tag_89\n  jump\t// in\ntag_164:\n    /* \"#utility.yul\":7668:7701   */\n  swap2\n  pop\n    /* \"#utility.yul\":7723:7727   */\n  0x00\n    /* \"#utility.yul\":7716:7721   */\n  dup3\n    /* \"#utility.yul\":7713:7728   */\n  sub\n    /* \"#utility.yul\":7710:7751   */\n  tag_165\n  jumpi\n    /* \"#utility.yul\":7731:7749   */\n  tag_166\n  tag_90\n  jump\t// in\ntag_166:\n    /* \"#utility.yul\":7710:7751   */\ntag_165:\n    /* \"#utility.yul\":7778:7779   */\n  0x01\n    /* \"#utility.yul\":7771:7776   */\n  dup3\n    /* \"#utility.yul\":7767:7780   */\n  sub\n    /* \"#utility.yul\":7760:7780   */\n  swap1\n  pop\n    /* \"#utility.yul\":7615:7786   */\n  swap2\n  swap1\n  pop\n  jump\t// out\n    /* \"#utility.yul\":7792:7974   */\ntag_91:\n    /* \"#utility.yul\":7932:7966   */\n  0x537472696e67733a20686578206c656e67746820696e73756666696369656e74\n    /* \"#utility.yul\":7928:7929   */\n  0x00\n    /* \"#utility.yul\":7920:7926   */\n  dup3\n    /* \"#utility.yul\":7916:7930   */\n  add\n    /* \"#utility.yul\":7909:7967   */\n  mstore\n    /* \"#utility.yul\":7792:7974   */\n  pop\n  jump\t// out\n    /* \"#utility.yul\":7980:8346   */\ntag_92:\n    /* \"#utility.yul\":8122:8125   */\n  0x00\n    /* \"#utility.yul\":8143:8210   */\n  tag_169\n    /* \"#utility.yul\":8207:8209   */\n  0x20\n    /* \"#utility.yul\":8202:8205   */\n  dup4\n    /* \"#utility.yul\":8143:8210   */\n  tag_76\n  jump\t// in\ntag_169:\n    /* \"#utility.yul\":8136:8210   */\n  swap2\n  pop\n    /* \"#utility.yul\":8219:8312   */\n  tag_170\n    /* \"#utility.yul\":8308:8311   */\n  dup3\n    /* \"#utility.yul\":8219:8312   */\n  tag_91\n  jump\t// in\ntag_170:\n    /* \"#utility.yul\":8337:8339   */\n  0x20\n    /* \"#utility.yul\":8332:8335   */\n  dup3\n    /* \"#utility.yul\":8328:8340   */\n  add\n    /* \"#utility.yul\":8321:8340   */\n  swap1\n  pop\n    /* \"#utility.yul\":7980:8346   */\n  swap2\n  swap1\n  pop\n  jump\t// out\n    /* \"#utility.yul\":8352:8771   */\ntag_68:\n    /* \"#utility.yul\":8518:8522   */\n  0x00\n    /* \"#utility.yul\":8556:8558   */\n  0x20\n    /* \"#utility.yul\":8545:8554   */\n  dup3\n    /* \"#utility.yul\":8541:8559   */\n  add\n    /* \"#utility.yul\":8533:8559   */\n  swap1\n  pop\n    /* \"#utility.yul\":8605:8614   */\n  dup2\n    /* \"#utility.yul\":8599:8603   */\n  dup2\n    /* \"#utility.yul\":8595:8615   */\n  sub\n    /* \"#utility.yul\":8591:8592   */\n  0x00\n    /* \"#utility.yul\":8580:8589   */\n  dup4\n    /* \"#utility.yul\":8576:8593   */\n  add\n    /* \"#utility.yul\":8569:8616   */\n  mstore\n    /* \"#utility.yul\":8633:8764   */\n  tag_172\n    /* \"#utility.yul\":8759:8763   */\n  dup2\n    /* \"#utility.yul\":8633:8764   */\n  tag_92\n  jump\t// in\ntag_172:\n    /* \"#utility.yul\":8625:8764   */\n  swap1\n  pop\n    /* \"#utility.yul\":8352:8771   */\n  swap2\n  swap1\n  pop\n  jump\t// out\n    /* \"onchain_code.sol\":514:3887  contract AttestationService is AccessControl {... */\ntag_12:\n  mload(0x80)\n  mload(0xa0)\n  codecopy(0x00, dataOffset(sub_0), dataSize(sub_0))\n  0x00\n  assignImmutable(\"0x2f376be2da13ceb7f7d4d291fdf0ead4b1285423c32c5412ff3af6625953248f\")\n  0x00\n  assignImmutable(\"0x0a2c56019ccb5f08608c3b05b18a6137874ce411ef59ecc21ab7d289712eec9f\")\n  return(0x00, dataSize(sub_0))\nstop\n\nsub_0: assembly {\n        /* \"onchain_code.sol\":514:3887  contract AttestationService is AccessControl {... */\n      mstore(0x40, 0x80)\n      callvalue\n      dup1\n      iszero\n      tag_1\n      jumpi\n      0x00\n      dup1\n      revert\n    tag_1:\n      pop\n      jumpi(tag_2, lt(calldatasize, 0x04))\n      shr(0xe0, calldataload(0x00))\n      dup1\n      0x677339ce\n      gt\n      tag_19\n      jumpi\n      dup1\n      0xa217fddf\n      gt\n      tag_20\n      jumpi\n      dup1\n      0xa217fddf\n      eq\n      tag_15\n      jumpi\n      dup1\n      0xbd462049\n      eq\n      tag_16\n      jumpi\n      dup1\n      0xd547741f\n      eq\n      tag_17\n      jumpi\n      dup1\n      0xe27fadab\n      eq\n      tag_18\n      jumpi\n      jump(tag_2)\n    tag_20:\n      dup1\n      0x677339ce\n      eq\n      tag_11\n      jumpi\n      dup1\n      0x6b823894\n      eq\n      tag_12\n      jumpi\n      dup1\n      0x8129fc1c\n      eq\n      tag_13\n      jumpi\n      dup1\n      0x91d14854\n      eq\n      tag_14\n      jumpi\n      jump(tag_2)\n    tag_19:\n      dup1\n      0x2f2ff15d\n      gt\n      tag_21\n      jumpi\n      dup1\n      0x2f2ff15d\n      eq\n      tag_7\n      jumpi\n      dup1\n      0x36568abe\n      eq\n      tag_8\n      jumpi\n      dup1\n      0x4a0145b6\n      eq\n      tag_9\n      jumpi\n      dup1\n      0x624b04bd\n      eq\n      tag_10\n      jumpi\n      jump(tag_2)\n    tag_21:\n      dup1\n      0x01ffc9a7\n      eq\n      tag_3\n      jumpi\n      dup1\n      0x08f46957\n      eq\n      tag_4\n      jumpi\n      dup1\n      0x1ecf2fbf\n      eq\n      tag_5\n      jumpi\n      dup1\n      0x248a9ca3\n      eq\n      tag_6\n      jumpi\n    tag_2:\n      0x00\n      dup1\n      revert\n        /* \"@openzeppelin/contracts/access/AccessControl.sol\":4073:4287  function supportsInterface(bytes4 interfaceId) public view virtual override returns (bool) {... */\n    tag_3:\n      tag_22\n      0x04\n      dup1\n      calldatasize\n      sub\n      dup2\n      add\n      swap1\n      tag_23\n      swap2\n      swap1\n      tag_24\n      jump\t// in\n    tag_23:\n      tag_25\n      jump\t// in\n    tag_22:\n      mload(0x40)\n      tag_26\n      swap2\n      swap1\n      tag_27\n      jump\t// in\n    tag_26:\n      mload(0x40)\n      dup1\n      swap2\n      sub\n      swap1\n      return\n        /* \"onchain_code.sol\":3003:3325  function verifyAttestation(bytes32 attestationId) external view returns (bool) {... */\n    tag_4:\n      tag_28\n      0x04\n      dup1\n      calldatasize\n      sub\n      dup2\n      add\n      swap1\n      tag_29\n      swap2\n      swap1\n      tag_30\n      jump\t// in\n    tag_29:\n      tag_31\n      jump\t// in\n    tag_28:\n      mload(0x40)\n      tag_32\n      swap2\n      swap1\n      tag_27\n      jump\t// in\n    tag_32:\n      mload(0x40)\n      dup1\n      swap2\n      sub\n      swap1\n      return\n        /* \"onchain_code.sol\":3329:3475  function grantAttestationCreatorRole(address account) external onlyRole(DEFAULT_ADMIN_ROLE) {... */\n    tag_5:\n      tag_33\n      0x04\n      dup1\n      calldatasize\n      sub\n      dup2\n      add\n      swap1\n      tag_34\n      swap2\n      swap1\n      tag_35\n      jump\t// in\n    tag_34:\n      tag_36\n      jump\t// in\n    tag_33:\n      stop\n        /* \"@openzeppelin/contracts/access/AccessControl.sol\":5348:5469  function getRoleAdmin(bytes32 role) public view override returns (bytes32) {... */\n    tag_6:\n      tag_37\n      0x04\n      dup1\n      calldatasize\n      sub\n      dup2\n      add\n      swap1\n      tag_38\n      swap2\n      swap1\n      tag_30\n      jump\t// in\n    tag_38:\n      tag_39\n      jump\t// in\n    tag_37:\n      mload(0x40)\n      tag_40\n      swap2\n      swap1\n      tag_41\n      jump\t// in\n    tag_40:\n      mload(0x40)\n      dup1\n      swap2\n      sub\n      swap1\n      return\n        /* \"@openzeppelin/contracts/access/AccessControl.sol\":5719:5864  function grantRole(bytes32 role, address account) public virtual override onlyRole(getRoleAdmin(role)) {... */\n    tag_7:\n      tag_42\n      0x04\n      dup1\n      calldatasize\n      sub\n      dup2\n      add\n      swap1\n      tag_43\n      swap2\n      swap1\n      tag_44\n      jump\t// in\n    tag_43:\n      tag_45\n      jump\t// in\n    tag_42:\n      stop\n        /* \"@openzeppelin/contracts/access/AccessControl.sol\":6736:6950  function renounceRole(bytes32 role, address account) public virtual override {... */\n    tag_8:\n      tag_46\n      0x04\n      dup1\n      calldatasize\n      sub\n      dup2\n      add\n      swap1\n      tag_47\n      swap2\n      swap1\n      tag_44\n      jump\t// in\n    tag_47:\n      tag_48\n      jump\t// in\n    tag_46:\n      stop\n        /* \"onchain_code.sol\":3747:3885  function isApprovedAttestationCreator(address account) external view returns (bool) {... */\n    tag_9:\n      tag_49\n      0x04\n      dup1\n      calldatasize\n      sub\n      dup2\n      add\n      swap1\n      tag_50\n      swap2\n      swap1\n      tag_35\n      jump\t// in\n    tag_50:\n      tag_51\n      jump\t// in\n    tag_49:\n      mload(0x40)\n      tag_52\n      swap2\n      swap1\n      tag_27\n      jump\t// in\n    tag_52:\n      mload(0x40)\n      dup1\n      swap2\n      sub\n      swap1\n      return\n        /* \"onchain_code.sol\":2081:2999  function createMissionEnrollmentAttestation(address recipient, uint256 tokenId) external returns (bytes32) {... */\n    tag_10:\n      tag_53\n      0x04\n      dup1\n      calldatasize\n      sub\n      dup2\n      add\n      swap1\n      tag_54\n      swap2\n      swap1\n      tag_55\n      jump\t// in\n    tag_54:\n      tag_56\n      jump\t// in\n    tag_53:\n      mload(0x40)\n      tag_57\n      swap2\n      swap1\n      tag_41\n      jump\t// in\n    tag_57:\n      mload(0x40)\n      dup1\n      swap2\n      sub\n      swap1\n      return\n        /* \"onchain_code.sol\":3479:3743  function revokeAttestationCreatorRole(address account) external onlyRole(DEFAULT_ADMIN_ROLE) {... */\n    tag_11:\n      tag_58\n      0x04\n      dup1\n      calldatasize\n      sub\n      dup2\n      add\n      swap1\n      tag_59\n      swap2\n      swap1\n      tag_35\n      jump\t// in\n    tag_59:\n      tag_60\n      jump\t// in\n    tag_58:\n      stop\n        /* \"onchain_code.sol\":646:684  bytes32 public missionEnrollmentSchema */\n    tag_12:\n      tag_61\n      tag_62\n      jump\t// in\n    tag_61:\n      mload(0x40)\n      tag_63\n      swap2\n      swap1\n      tag_41\n      jump\t// in\n    tag_63:\n      mload(0x40)\n      dup1\n      swap2\n      sub\n      swap1\n      return\n        /* \"onchain_code.sol\":1417:1645  function initialize() external onlyRole(DEFAULT_ADMIN_ROLE) {... */\n    tag_13:\n      tag_64\n      tag_65\n      jump\t// in\n    tag_64:\n      stop\n        /* \"@openzeppelin/contracts/access/AccessControl.sol\":4374:4511  function hasRole(bytes32 role, address account) public view override returns (bool) {... */\n    tag_14:\n      tag_66\n      0x04\n      dup1\n      calldatasize\n      sub\n      dup2\n      add\n      swap1\n      tag_67\n      swap2\n      swap1\n      tag_44\n      jump\t// in\n    tag_67:\n      tag_68\n      jump\t// in\n    tag_66:\n      mload(0x40)\n      tag_69\n      swap2\n      swap1\n      tag_27\n      jump\t// in\n    tag_69:\n      mload(0x40)\n      dup1\n      swap2\n      sub\n      swap1\n      return\n        /* \"@openzeppelin/contracts/access/AccessControl.sol\":2394:2443  bytes32 public constant DEFAULT_ADMIN_ROLE = 0x00 */\n    tag_15:\n      tag_70\n      tag_71\n      jump\t// in\n    tag_70:\n      mload(0x40)\n      tag_72\n      swap2\n      swap1\n      tag_41\n      jump\t// in\n    tag_72:\n      mload(0x40)\n      dup1\n      swap2\n      sub\n      swap1\n      return\n        /* \"onchain_code.sol\":688:776  bytes32 public constant ATTESTATION_CREATOR_ROLE = keccak256(\"ATTESTATION_CREATOR_ROLE\") */\n    tag_16:\n      tag_73\n      tag_74\n      jump\t// in\n    tag_73:\n      mload(0x40)\n      tag_75\n      swap2\n      swap1\n      tag_41\n      jump\t// in\n    tag_75:\n      mload(0x40)\n      dup1\n      swap2\n      sub\n      swap1\n      return\n        /* \"@openzeppelin/contracts/access/AccessControl.sol\":6098:6245  function revokeRole(bytes32 role, address account) public virtual override onlyRole(getRoleAdmin(role)) {... */\n    tag_17:\n      tag_76\n      0x04\n      dup1\n      calldatasize\n      sub\n      dup2\n      add\n      swap1\n      tag_77\n      swap2\n      swap1\n      tag_44\n      jump\t// in\n    tag_77:\n      tag_78\n      jump\t// in\n    tag_76:\n      stop\n        /* \"onchain_code.sol\":1649:2077  function createMissionEnrollmentSchema() external onlyRole(DEFAULT_ADMIN_ROLE) {... */\n    tag_18:\n      tag_79\n      tag_80\n      jump\t// in\n    tag_79:\n      stop\n        /* \"@openzeppelin/contracts/access/AccessControl.sol\":4073:4287  function supportsInterface(bytes4 interfaceId) public view virtual override returns (bool) {... */\n    tag_25:\n        /* \"@openzeppelin/contracts/access/AccessControl.sol\":4158:4162  bool */\n      0x00\n        /* \"@openzeppelin/contracts/access/AccessControl.sol\":4196:4228  type(IAccessControl).interfaceId */\n      0x7965db0b00000000000000000000000000000000000000000000000000000000\n        /* \"@openzeppelin/contracts/access/AccessControl.sol\":4181:4228  interfaceId == type(IAccessControl).interfaceId */\n      not(0xffffffffffffffffffffffffffffffffffffffffffffffffffffffff)\n      and\n        /* \"@openzeppelin/contracts/access/AccessControl.sol\":4181:4192  interfaceId */\n      dup3\n        /* \"@openzeppelin/contracts/access/AccessControl.sol\":4181:4228  interfaceId == type(IAccessControl).interfaceId */\n      not(0xffffffffffffffffffffffffffffffffffffffffffffffffffffffff)\n      and\n      eq\n        /* \"@openzeppelin/contracts/access/AccessControl.sol\":4181:4280  interfaceId == type(IAccessControl).interfaceId... */\n      dup1\n      tag_82\n      jumpi\n      pop\n        /* \"@openzeppelin/contracts/access/AccessControl.sol\":4244:4280  super.supportsInterface(interfaceId) */\n      tag_83\n        /* \"@openzeppelin/contracts/access/AccessControl.sol\":4268:4279  interfaceId */\n      dup3\n        /* \"@openzeppelin/contracts/access/AccessControl.sol\":4244:4267  super.supportsInterface */\n      tag_84\n        /* \"@openzeppelin/contracts/access/AccessControl.sol\":4244:4280  super.supportsInterface(interfaceId) */\n      jump\t// in\n    tag_83:\n        /* \"@openzeppelin/contracts/access/AccessControl.sol\":4181:4280  interfaceId == type(IAccessControl).interfaceId... */\n    tag_82:\n        /* \"@openzeppelin/contracts/access/AccessControl.sol\":4174:4280  return interfaceId == type(IAccessControl).interfaceId... */\n      swap1\n      pop\n        /* \"@openzeppelin/contracts/access/AccessControl.sol\":4073:4287  function supportsInterface(bytes4 interfaceId) public view virtual override returns (bool) {... */\n      swap2\n      swap1\n      pop\n      jump\t// out\n        /* \"onchain_code.sol\":3003:3325  function verifyAttestation(bytes32 attestationId) external view returns (bool) {... */\n    tag_31:\n        /* \"onchain_code.sol\":3076:3080  bool */\n      0x00\n        /* \"onchain_code.sol\":3121:3122  0 */\n      dup1\n        /* \"onchain_code.sol\":3113:3123  bytes32(0) */\n      0x00\n      shl\n        /* \"onchain_code.sol\":3096:3109  attestationId */\n      dup3\n        /* \"onchain_code.sol\":3096:3123  attestationId != bytes32(0) */\n      sub\n        /* \"onchain_code.sol\":3088:3150  require(attestationId != bytes32(0), \"Invalid attestation ID\") */\n      tag_86\n      jumpi\n      mload(0x40)\n      0x08c379a000000000000000000000000000000000000000000000000000000000\n      dup2\n      mstore\n      0x04\n      add\n      tag_87\n      swap1\n      tag_88\n      jump\t// in\n    tag_87:\n      mload(0x40)\n      dup1\n      swap2\n      sub\n      swap1\n      revert\n    tag_86:\n        /* \"onchain_code.sol\":3156:3186  Attestation memory attestation */\n      0x00\n        /* \"onchain_code.sol\":3189:3192  eas */\n      immutable(\"0x0a2c56019ccb5f08608c3b05b18a6137874ce411ef59ecc21ab7d289712eec9f\")\n        /* \"onchain_code.sol\":3189:3207  eas.getAttestation */\n      0xffffffffffffffffffffffffffffffffffffffff\n      and\n      0xa3112a64\n        /* \"onchain_code.sol\":3208:3221  attestationId */\n      dup5\n        /* \"onchain_code.sol\":3189:3222  eas.getAttestation(attestationId) */\n      mload(0x40)\n      dup3\n      0xffffffff\n      and\n      0xe0\n      shl\n      dup2\n      mstore\n      0x04\n      add\n      tag_89\n      swap2\n      swap1\n      tag_41\n      jump\t// in\n    tag_89:\n      0x00\n      mload(0x40)\n      dup1\n      dup4\n      sub\n      dup2\n      dup7\n      gas\n      staticcall\n      iszero\n      dup1\n      iszero\n      tag_91\n      jumpi\n      returndatasize\n      0x00\n      dup1\n      returndatacopy\n      revert(0x00, returndatasize)\n    tag_91:\n      pop\n      pop\n      pop\n      pop\n      mload(0x40)\n      returndatasize\n      0x00\n      dup3\n      returndatacopy\n      returndatasize\n      not(0x1f)\n      0x1f\n      dup3\n      add\n      and\n      dup3\n      add\n      dup1\n      0x40\n      mstore\n      pop\n      dup2\n      add\n      swap1\n      tag_92\n      swap2\n      swap1\n      tag_93\n      jump\t// in\n    tag_92:\n        /* \"onchain_code.sol\":3156:3222  Attestation memory attestation = eas.getAttestation(attestationId) */\n      swap1\n      pop\n        /* \"onchain_code.sol\":3254:3267  attestationId */\n      dup3\n        /* \"onchain_code.sol\":3235:3246  attestation */\n      dup2\n        /* \"onchain_code.sol\":3235:3250  attestation.uid */\n      0x00\n      add\n      mload\n        /* \"onchain_code.sol\":3235:3267  attestation.uid == attestationId */\n      eq\n        /* \"onchain_code.sol\":3235:3320  attestation.uid == attestationId && approvedAttestationCreators[attestation.attester] */\n      dup1\n      iszero\n      tag_94\n      jumpi\n      pop\n        /* \"onchain_code.sol\":3271:3298  approvedAttestationCreators */\n      0x02\n        /* \"onchain_code.sol\":3271:3320  approvedAttestationCreators[attestation.attester] */\n      0x00\n        /* \"onchain_code.sol\":3299:3310  attestation */\n      dup3\n        /* \"onchain_code.sol\":3299:3319  attestation.attester */\n      0xe0\n      add\n      mload\n        /* \"onchain_code.sol\":3271:3320  approvedAttestationCreators[attestation.attester] */\n      0xffffffffffffffffffffffffffffffffffffffff\n      and\n      0xffffffffffffffffffffffffffffffffffffffff\n      and\n      dup2\n      mstore\n      0x20\n      add\n      swap1\n      dup2\n      mstore\n      0x20\n      add\n      0x00\n      keccak256\n      0x00\n      swap1\n      sload\n      swap1\n      0x0100\n      exp\n      swap1\n      div\n      0xff\n      and\n        /* \"onchain_code.sol\":3235:3320  attestation.uid == attestationId && approvedAttestationCreators[attestation.attester] */\n    tag_94:\n        /* \"onchain_code.sol\":3228:3320  return attestation.uid == attestationId && approvedAttestationCreators[attestation.attester] */\n      swap2\n      pop\n      pop\n        /* \"onchain_code.sol\":3003:3325  function verifyAttestation(bytes32 attestationId) external view returns (bool) {... */\n      swap2\n      swap1\n      pop\n      jump\t// out\n        /* \"onchain_code.sol\":3329:3475  function grantAttestationCreatorRole(address account) external onlyRole(DEFAULT_ADMIN_ROLE) {... */\n    tag_36:\n        /* \"@openzeppelin/contracts/access/AccessControl.sol\":2439:2443  0x00 */\n      0x00\n        /* \"onchain_code.sol\":3401:3419  DEFAULT_ADMIN_ROLE */\n      dup1\n      shl\n        /* \"@openzeppelin/contracts/access/AccessControl.sol\":3958:3988  _checkRole(role, _msgSender()) */\n      tag_96\n        /* \"@openzeppelin/contracts/access/AccessControl.sol\":3969:3973  role */\n      dup2\n        /* \"@openzeppelin/contracts/access/AccessControl.sol\":3975:3987  _msgSender() */\n      tag_97\n        /* \"@openzeppelin/contracts/access/AccessControl.sol\":3975:3985  _msgSender */\n      tag_98\n        /* \"@openzeppelin/contracts/access/AccessControl.sol\":3975:3987  _msgSender() */\n      jump\t// in\n    tag_97:\n        /* \"@openzeppelin/contracts/access/AccessControl.sol\":3958:3968  _checkRole */\n      tag_99\n        /* \"@openzeppelin/contracts/access/AccessControl.sol\":3958:3988  _checkRole(role, _msgSender()) */\n      jump\t// in\n    tag_96:\n        /* \"onchain_code.sol\":3466:3470  true */\n      0x01\n        /* \"onchain_code.sol\":3427:3454  approvedAttestationCreators */\n      0x02\n        /* \"onchain_code.sol\":3427:3463  approvedAttestationCreators[account] */\n      0x00\n        /* \"onchain_code.sol\":3455:3462  account */\n      dup5\n        /* \"onchain_code.sol\":3427:3463  approvedAttestationCreators[account] */\n      0xffffffffffffffffffffffffffffffffffffffff\n      and\n      0xffffffffffffffffffffffffffffffffffffffff\n      and\n      dup2\n      mstore\n      0x20\n      add\n      swap1\n      dup2\n      mstore\n      0x20\n      add\n      0x00\n      keccak256\n      0x00\n        /* \"onchain_code.sol\":3427:3470  approvedAttestationCreators[account] = true */\n      0x0100\n      exp\n      dup2\n      sload\n      dup2\n      0xff\n      mul\n      not\n      and\n      swap1\n      dup4\n      iszero\n      iszero\n      mul\n      or\n      swap1\n      sstore\n      pop\n        /* \"onchain_code.sol\":3329:3475  function grantAttestationCreatorRole(address account) external onlyRole(DEFAULT_ADMIN_ROLE) {... */\n      pop\n      pop\n      jump\t// out\n        /* \"@openzeppelin/contracts/access/AccessControl.sol\":5348:5469  function getRoleAdmin(bytes32 role) public view override returns (bytes32) {... */\n    tag_39:\n        /* \"@openzeppelin/contracts/access/AccessControl.sol\":5414:5421  bytes32 */\n      0x00\n        /* \"@openzeppelin/contracts/access/AccessControl.sol\":5440:5446  _roles */\n      dup1\n        /* \"@openzeppelin/contracts/access/AccessControl.sol\":5440:5452  _roles[role] */\n      0x00\n        /* \"@openzeppelin/contracts/access/AccessControl.sol\":5447:5451  role */\n      dup4\n        /* \"@openzeppelin/contracts/access/AccessControl.sol\":5440:5452  _roles[role] */\n      dup2\n      mstore\n      0x20\n      add\n      swap1\n      dup2\n      mstore\n      0x20\n      add\n      0x00\n      keccak256\n        /* \"@openzeppelin/contracts/access/AccessControl.sol\":5440:5462  _roles[role].adminRole */\n      0x01\n      add\n      sload\n        /* \"@openzeppelin/contracts/access/AccessControl.sol\":5433:5462  return _roles[role].adminRole */\n      swap1\n      pop\n        /* \"@openzeppelin/contracts/access/AccessControl.sol\":5348:5469  function getRoleAdmin(bytes32 role) public view override returns (bytes32) {... */\n      swap2\n      swap1\n      pop\n      jump\t// out\n        /* \"@openzeppelin/contracts/access/AccessControl.sol\":5719:5864  function grantRole(bytes32 role, address account) public virtual override onlyRole(getRoleAdmin(role)) {... */\n    tag_45:\n        /* \"@openzeppelin/contracts/access/AccessControl.sol\":5802:5820  getRoleAdmin(role) */\n      tag_102\n        /* \"@openzeppelin/contracts/access/AccessControl.sol\":5815:5819  role */\n      dup3\n        /* \"@openzeppelin/contracts/access/AccessControl.sol\":5802:5814  getRoleAdmin */\n      tag_39\n        /* \"@openzeppelin/contracts/access/AccessControl.sol\":5802:5820  getRoleAdmin(role) */\n      jump\t// in\n    tag_102:\n        /* \"@openzeppelin/contracts/access/AccessControl.sol\":3958:3988  _checkRole(role, _msgSender()) */\n      tag_104\n        /* \"@openzeppelin/contracts/access/AccessControl.sol\":3969:3973  role */\n      dup2\n        /* \"@openzeppelin/contracts/access/AccessControl.sol\":3975:3987  _msgSender() */\n      tag_105\n        /* \"@openzeppelin/contracts/access/AccessControl.sol\":3975:3985  _msgSender */\n      tag_98\n        /* \"@openzeppelin/contracts/access/AccessControl.sol\":3975:3987  _msgSender() */\n      jump\t// in\n    tag_105:\n        /* \"@openzeppelin/contracts/access/AccessControl.sol\":3958:3968  _checkRole */\n      tag_99\n        /* \"@openzeppelin/contracts/access/AccessControl.sol\":3958:3988  _checkRole(role, _msgSender()) */\n      jump\t// in\n    tag_104:\n        /* \"@openzeppelin/contracts/access/AccessControl.sol\":5832:5857  _grantRole(role, account) */\n      tag_107\n        /* \"@openzeppelin/contracts/access/AccessControl.sol\":5843:5847  role */\n      dup4\n        /* \"@openzeppelin/contracts/access/AccessControl.sol\":5849:5856  account */\n      dup4\n        /* \"@openzeppelin/contracts/access/AccessControl.sol\":5832:5842  _grantRole */\n      tag_108\n        /* \"@openzeppelin/contracts/access/AccessControl.sol\":5832:5857  _grantRole(role, account) */\n      jump\t// in\n    tag_107:\n        /* \"@openzeppelin/contracts/access/AccessControl.sol\":5719:5864  function grantRole(bytes32 role, address account) public virtual override onlyRole(getRoleAdmin(role)) {... */\n      pop\n      pop\n      pop\n      jump\t// out\n        /* \"@openzeppelin/contracts/access/AccessControl.sol\":6736:6950  function renounceRole(bytes32 role, address account) public virtual override {... */\n    tag_48:\n        /* \"@openzeppelin/contracts/access/AccessControl.sol\":6842:6854  _msgSender() */\n      tag_110\n        /* \"@openzeppelin/contracts/access/AccessControl.sol\":6842:6852  _msgSender */\n      tag_98\n        /* \"@openzeppelin/contracts/access/AccessControl.sol\":6842:6854  _msgSender() */\n      jump\t// in\n    tag_110:\n        /* \"@openzeppelin/contracts/access/AccessControl.sol\":6831:6854  account == _msgSender() */\n      0xffffffffffffffffffffffffffffffffffffffff\n      and\n        /* \"@openzeppelin/contracts/access/AccessControl.sol\":6831:6838  account */\n      dup2\n        /* \"@openzeppelin/contracts/access/AccessControl.sol\":6831:6854  account == _msgSender() */\n      0xffffffffffffffffffffffffffffffffffffffff\n      and\n      eq\n        /* \"@openzeppelin/contracts/access/AccessControl.sol\":6823:6906  require(account == _msgSender(), \"AccessControl: can only renounce roles for self\") */\n      tag_111\n      jumpi\n      mload(0x40)\n      0x08c379a000000000000000000000000000000000000000000000000000000000\n      dup2\n      mstore\n      0x04\n      add\n      tag_112\n      swap1\n      tag_113\n      jump\t// in\n    tag_112:\n      mload(0x40)\n      dup1\n      swap2\n      sub\n      swap1\n      revert\n    tag_111:\n        /* \"@openzeppelin/contracts/access/AccessControl.sol\":6917:6943  _revokeRole(role, account) */\n      tag_114\n        /* \"@openzeppelin/contracts/access/AccessControl.sol\":6929:6933  role */\n      dup3\n        /* \"@openzeppelin/contracts/access/AccessControl.sol\":6935:6942  account */\n      dup3\n        /* \"@openzeppelin/contracts/access/AccessControl.sol\":6917:6928  _revokeRole */\n      tag_115\n        /* \"@openzeppelin/contracts/access/AccessControl.sol\":6917:6943  _revokeRole(role, account) */\n      jump\t// in\n    tag_114:\n        /* \"@openzeppelin/contracts/access/AccessControl.sol\":6736:6950  function renounceRole(bytes32 role, address account) public virtual override {... */\n      pop\n      pop\n      jump\t// out\n        /* \"onchain_code.sol\":3747:3885  function isApprovedAttestationCreator(address account) external view returns (bool) {... */\n    tag_51:\n        /* \"onchain_code.sol\":3825:3829  bool */\n      0x00\n        /* \"onchain_code.sol\":3844:3871  approvedAttestationCreators */\n      0x02\n        /* \"onchain_code.sol\":3844:3880  approvedAttestationCreators[account] */\n      0x00\n        /* \"onchain_code.sol\":3872:3879  account */\n      dup4\n        /* \"onchain_code.sol\":3844:3880  approvedAttestationCreators[account] */\n      0xffffffffffffffffffffffffffffffffffffffff\n      and\n      0xffffffffffffffffffffffffffffffffffffffff\n      and\n      dup2\n      mstore\n      0x20\n      add\n      swap1\n      dup2\n      mstore\n      0x20\n      add\n      0x00\n      keccak256\n      0x00\n      swap1\n      sload\n      swap1\n      0x0100\n      exp\n      swap1\n      div\n      0xff\n      and\n        /* \"onchain_code.sol\":3837:3880  return approvedAttestationCreators[account] */\n      swap1\n      pop\n        /* \"onchain_code.sol\":3747:3885  function isApprovedAttestationCreator(address account) external view returns (bool) {... */\n      swap2\n      swap1\n      pop\n      jump\t// out\n        /* \"onchain_code.sol\":2081:2999  function createMissionEnrollmentAttestation(address recipient, uint256 tokenId) external returns (bytes32) {... */\n    tag_56:\n        /* \"onchain_code.sol\":2179:2186  bytes32 */\n      0x00\n        /* \"onchain_code.sol\":2202:2229  approvedAttestationCreators */\n      0x02\n        /* \"onchain_code.sol\":2202:2241  approvedAttestationCreators[msg.sender] */\n      0x00\n        /* \"onchain_code.sol\":2230:2240  msg.sender */\n      caller\n        /* \"onchain_code.sol\":2202:2241  approvedAttestationCreators[msg.sender] */\n      0xffffffffffffffffffffffffffffffffffffffff\n      and\n      0xffffffffffffffffffffffffffffffffffffffff\n      and\n      dup2\n      mstore\n      0x20\n      add\n      swap1\n      dup2\n      mstore\n      0x20\n      add\n      0x00\n      keccak256\n      0x00\n      swap1\n      sload\n      swap1\n      0x0100\n      exp\n      swap1\n      div\n      0xff\n      and\n        /* \"onchain_code.sol\":2194:2283  require(approvedAttestationCreators[msg.sender], \"Not authorized to create attestations\") */\n      tag_118\n      jumpi\n      mload(0x40)\n      0x08c379a000000000000000000000000000000000000000000000000000000000\n      dup2\n      mstore\n      0x04\n      add\n      tag_119\n      swap1\n      tag_120\n      jump\t// in\n    tag_119:\n      mload(0x40)\n      dup1\n      swap2\n      sub\n      swap1\n      revert\n    tag_118:\n        /* \"onchain_code.sol\":2332:2333  0 */\n      0x00\n        /* \"onchain_code.sol\":2324:2334  bytes32(0) */\n      dup1\n      shl\n        /* \"onchain_code.sol\":2297:2320  missionEnrollmentSchema */\n      sload(0x01)\n        /* \"onchain_code.sol\":2297:2334  missionEnrollmentSchema != bytes32(0) */\n      sub\n        /* \"onchain_code.sol\":2289:2357  require(missionEnrollmentSchema != bytes32(0), \"Schema not created\") */\n      tag_121\n      jumpi\n      mload(0x40)\n      0x08c379a000000000000000000000000000000000000000000000000000000000\n      dup2\n      mstore\n      0x04\n      add\n      tag_122\n      swap1\n      tag_123\n      jump\t// in\n    tag_122:\n      mload(0x40)\n      dup1\n      swap2\n      sub\n      swap1\n      revert\n    tag_121:\n        /* \"onchain_code.sol\":2392:2393  0 */\n      0x00\n        /* \"onchain_code.sol\":2371:2394  recipient != address(0) */\n      0xffffffffffffffffffffffffffffffffffffffff\n      and\n        /* \"onchain_code.sol\":2371:2380  recipient */\n      dup4\n        /* \"onchain_code.sol\":2371:2394  recipient != address(0) */\n      0xffffffffffffffffffffffffffffffffffffffff\n      and\n      sub\n        /* \"onchain_code.sol\":2363:2416  require(recipient != address(0), \"Invalid recipient\") */\n      tag_124\n      jumpi\n      mload(0x40)\n      0x08c379a000000000000000000000000000000000000000000000000000000000\n      dup2\n      mstore\n      0x04\n      add\n      tag_125\n      swap1\n      tag_126\n      jump\t// in\n    tag_125:\n      mload(0x40)\n      dup1\n      swap2\n      sub\n      swap1\n      revert\n    tag_124:\n        /* \"onchain_code.sol\":2441:2442  0 */\n      0x00\n        /* \"onchain_code.sol\":2430:2437  tokenId */\n      dup3\n        /* \"onchain_code.sol\":2430:2442  tokenId != 0 */\n      sub\n        /* \"onchain_code.sol\":2422:2463  require(tokenId != 0, \"Invalid token ID\") */\n      tag_127\n      jumpi\n      mload(0x40)\n      0x08c379a000000000000000000000000000000000000000000000000000000000\n      dup2\n      mstore\n      0x04\n      add\n      tag_128\n      swap1\n      tag_129\n      jump\t// in\n    tag_128:\n      mload(0x40)\n      dup1\n      swap2\n      sub\n      swap1\n      revert\n    tag_127:\n        /* \"onchain_code.sol\":2470:2487  bytes memory data */\n      0x00\n        /* \"onchain_code.sol\":2501:2510  recipient */\n      dup4\n        /* \"onchain_code.sol\":2512:2519  tokenId */\n      dup4\n        /* \"onchain_code.sol\":2521:2536  block.timestamp */\n      timestamp\n        /* \"onchain_code.sol\":2538:2548  msg.sender */\n      caller\n        /* \"onchain_code.sol\":2490:2549  abi.encode(recipient, tokenId, block.timestamp, msg.sender) */\n      add(0x20, mload(0x40))\n      tag_130\n      swap5\n      swap4\n      swap3\n      swap2\n      swap1\n      tag_131\n      jump\t// in\n    tag_130:\n      mload(0x40)\n      0x20\n      dup2\n      dup4\n      sub\n      sub\n      dup2\n      mstore\n      swap1\n      0x40\n      mstore\n        /* \"onchain_code.sol\":2470:2549  bytes memory data = abi.encode(recipient, tokenId, block.timestamp, msg.sender) */\n      swap1\n      pop\n        /* \"onchain_code.sol\":2556:2589  AttestationRequest memory request */\n      0x00\n        /* \"onchain_code.sol\":2592:2851  AttestationRequest({... */\n      mload(0x40)\n      dup1\n      0x40\n      add\n      0x40\n      mstore\n      dup1\n        /* \"onchain_code.sol\":2627:2650  missionEnrollmentSchema */\n      sload(0x01)\n        /* \"onchain_code.sol\":2592:2851  AttestationRequest({... */\n      dup2\n      mstore\n      0x20\n      add\n        /* \"onchain_code.sol\":2664:2844  AttestationRequestData({... */\n      mload(0x40)\n      dup1\n      0xc0\n      add\n      0x40\n      mstore\n      dup1\n        /* \"onchain_code.sol\":2708:2717  recipient */\n      dup9\n        /* \"onchain_code.sol\":2664:2844  AttestationRequestData({... */\n      0xffffffffffffffffffffffffffffffffffffffff\n      and\n      dup2\n      mstore\n      0x20\n      add\n        /* \"onchain_code.sol\":2743:2744  0 */\n      0x00\n        /* \"onchain_code.sol\":2664:2844  AttestationRequestData({... */\n      0xffffffffffffffff\n      and\n      dup2\n      mstore\n      0x20\n      add\n        /* \"onchain_code.sol\":2765:2769  true */\n      0x01\n        /* \"onchain_code.sol\":2664:2844  AttestationRequestData({... */\n      iszero\n      iszero\n      dup2\n      mstore\n      0x20\n      add\n        /* \"onchain_code.sol\":2795:2796  0 */\n      0x00\n        /* \"onchain_code.sol\":2787:2797  bytes32(0) */\n      dup1\n      shl\n        /* \"onchain_code.sol\":2664:2844  AttestationRequestData({... */\n      dup2\n      mstore\n      0x20\n      add\n        /* \"onchain_code.sol\":2813:2817  data */\n      dup6\n        /* \"onchain_code.sol\":2664:2844  AttestationRequestData({... */\n      dup2\n      mstore\n      0x20\n      add\n        /* \"onchain_code.sol\":2834:2835  0 */\n      0x00\n        /* \"onchain_code.sol\":2664:2844  AttestationRequestData({... */\n      dup2\n      mstore\n      pop\n        /* \"onchain_code.sol\":2592:2851  AttestationRequest({... */\n      dup2\n      mstore\n      pop\n        /* \"onchain_code.sol\":2556:2851  AttestationRequest memory request = AttestationRequest({... */\n      swap1\n      pop\n        /* \"onchain_code.sol\":2858:2879  bytes32 attestationId */\n      0x00\n        /* \"onchain_code.sol\":2882:2885  eas */\n      immutable(\"0x0a2c56019ccb5f08608c3b05b18a6137874ce411ef59ecc21ab7d289712eec9f\")\n        /* \"onchain_code.sol\":2882:2892  eas.attest */\n      0xffffffffffffffffffffffffffffffffffffffff\n      and\n      0xf17325e7\n        /* \"onchain_code.sol\":2893:2900  request */\n      dup4\n        /* \"onchain_code.sol\":2882:2901  eas.attest(request) */\n      mload(0x40)\n      dup3\n      0xffffffff\n      and\n      0xe0\n      shl\n      dup2\n      mstore\n      0x04\n      add\n      tag_132\n      swap2\n      swap1\n      tag_133\n      jump\t// in\n    tag_132:\n      0x20\n      mload(0x40)\n      dup1\n      dup4\n      sub\n      dup2\n      0x00\n      dup8\n      gas\n      call\n      iszero\n      dup1\n      iszero\n      tag_135\n      jumpi\n      returndatasize\n      0x00\n      dup1\n      returndatacopy\n      revert(0x00, returndatasize)\n    tag_135:\n      pop\n      pop\n      pop\n      pop\n      mload(0x40)\n      returndatasize\n      not(0x1f)\n      0x1f\n      dup3\n      add\n      and\n      dup3\n      add\n      dup1\n      0x40\n      mstore\n      pop\n      dup2\n      add\n      swap1\n      tag_136\n      swap2\n      swap1\n      tag_137\n      jump\t// in\n    tag_136:\n        /* \"onchain_code.sol\":2858:2901  bytes32 attestationId = eas.attest(request) */\n      swap1\n      pop\n        /* \"onchain_code.sol\":2957:2967  msg.sender */\n      caller\n        /* \"onchain_code.sol\":2912:2968  AttestationCreated(attestationId, recipient, msg.sender) */\n      0xffffffffffffffffffffffffffffffffffffffff\n      and\n        /* \"onchain_code.sol\":2946:2955  recipient */\n      dup7\n        /* \"onchain_code.sol\":2912:2968  AttestationCreated(attestationId, recipient, msg.sender) */\n      0xffffffffffffffffffffffffffffffffffffffff\n      and\n        /* \"onchain_code.sol\":2931:2944  attestationId */\n      dup3\n        /* \"onchain_code.sol\":2912:2968  AttestationCreated(attestationId, recipient, msg.sender) */\n      0x63f86f3e95d67d75fed996a7db68f9e7eabf0600abbd54fccabf34ec3b5fa4a7\n      mload(0x40)\n      mload(0x40)\n      dup1\n      swap2\n      sub\n      swap1\n      log4\n        /* \"onchain_code.sol\":2981:2994  attestationId */\n      dup1\n        /* \"onchain_code.sol\":2974:2994  return attestationId */\n      swap4\n      pop\n      pop\n      pop\n      pop\n        /* \"onchain_code.sol\":2081:2999  function createMissionEnrollmentAttestation(address recipient, uint256 tokenId) external returns (bytes32) {... */\n      swap3\n      swap2\n      pop\n      pop\n      jump\t// out\n        /* \"onchain_code.sol\":3479:3743  function revokeAttestationCreatorRole(address account) external onlyRole(DEFAULT_ADMIN_ROLE) {... */\n    tag_60:\n        /* \"@openzeppelin/contracts/access/AccessControl.sol\":2439:2443  0x00 */\n      0x00\n        /* \"onchain_code.sol\":3552:3570  DEFAULT_ADMIN_ROLE */\n      dup1\n      shl\n        /* \"@openzeppelin/contracts/access/AccessControl.sol\":3958:3988  _checkRole(role, _msgSender()) */\n      tag_139\n        /* \"@openzeppelin/contracts/access/AccessControl.sol\":3969:3973  role */\n      dup2\n        /* \"@openzeppelin/contracts/access/AccessControl.sol\":3975:3987  _msgSender() */\n      tag_140\n        /* \"@openzeppelin/contracts/access/AccessControl.sol\":3975:3985  _msgSender */\n      tag_98\n        /* \"@openzeppelin/contracts/access/AccessControl.sol\":3975:3987  _msgSender() */\n      jump\t// in\n    tag_140:\n        /* \"@openzeppelin/contracts/access/AccessControl.sol\":3958:3968  _checkRole */\n      tag_99\n        /* \"@openzeppelin/contracts/access/AccessControl.sol\":3958:3988  _checkRole(role, _msgSender()) */\n      jump\t// in\n    tag_139:\n        /* \"onchain_code.sol\":846:888  0xF0bC5CC2B4866dAAeCb069430c60b24520077037 */\n      0xf0bc5cc2b4866daaecb069430c60b24520077037\n        /* \"onchain_code.sol\":3586:3635  account != MISSION_ENROLLMENT_DAQHRIS_ETH_ADDRESS */\n      0xffffffffffffffffffffffffffffffffffffffff\n      and\n        /* \"onchain_code.sol\":3586:3593  account */\n      dup3\n        /* \"onchain_code.sol\":3586:3635  account != MISSION_ENROLLMENT_DAQHRIS_ETH_ADDRESS */\n      0xffffffffffffffffffffffffffffffffffffffff\n      and\n      sub\n        /* \"onchain_code.sol\":3578:3688  require(account != MISSION_ENROLLMENT_DAQHRIS_ETH_ADDRESS, \"Cannot revoke role from main attestation creator\") */\n      tag_142\n      jumpi\n      mload(0x40)\n      0x08c379a000000000000000000000000000000000000000000000000000000000\n      dup2\n      mstore\n      0x04\n      add\n      tag_143\n      swap1\n      tag_144\n      jump\t// in\n    tag_143:\n      mload(0x40)\n      dup1\n      swap2\n      sub\n      swap1\n      revert\n    tag_142:\n        /* \"onchain_code.sol\":3733:3738  false */\n      0x00\n        /* \"onchain_code.sol\":3694:3721  approvedAttestationCreators */\n      0x02\n        /* \"onchain_code.sol\":3694:3730  approvedAttestationCreators[account] */\n      0x00\n        /* \"onchain_code.sol\":3722:3729  account */\n      dup5\n        /* \"onchain_code.sol\":3694:3730  approvedAttestationCreators[account] */\n      0xffffffffffffffffffffffffffffffffffffffff\n      and\n      0xffffffffffffffffffffffffffffffffffffffff\n      and\n      dup2\n      mstore\n      0x20\n      add\n      swap1\n      dup2\n      mstore\n      0x20\n      add\n      0x00\n      keccak256\n      0x00\n        /* \"onchain_code.sol\":3694:3738  approvedAttestationCreators[account] = false */\n      0x0100\n      exp\n      dup2\n      sload\n      dup2\n      0xff\n      mul\n      not\n      and\n      swap1\n      dup4\n      iszero\n      iszero\n      mul\n      or\n      swap1\n      sstore\n      pop\n        /* \"onchain_code.sol\":3479:3743  function revokeAttestationCreatorRole(address account) external onlyRole(DEFAULT_ADMIN_ROLE) {... */\n      pop\n      pop\n      jump\t// out\n        /* \"onchain_code.sol\":646:684  bytes32 public missionEnrollmentSchema */\n    tag_62:\n      sload(0x01)\n      dup2\n      jump\t// out\n        /* \"onchain_code.sol\":1417:1645  function initialize() external onlyRole(DEFAULT_ADMIN_ROLE) {... */\n    tag_65:\n        /* \"@openzeppelin/contracts/access/AccessControl.sol\":2439:2443  0x00 */\n      0x00\n        /* \"onchain_code.sol\":1457:1475  DEFAULT_ADMIN_ROLE */\n      dup1\n      shl\n        /* \"@openzeppelin/contracts/access/AccessControl.sol\":3958:3988  _checkRole(role, _msgSender()) */\n      tag_146\n        /* \"@openzeppelin/contracts/access/AccessControl.sol\":3969:3973  role */\n      dup2\n        /* \"@openzeppelin/contracts/access/AccessControl.sol\":3975:3987  _msgSender() */\n      tag_147\n        /* \"@openzeppelin/contracts/access/AccessControl.sol\":3975:3985  _msgSender */\n      tag_98\n        /* \"@openzeppelin/contracts/access/AccessControl.sol\":3975:3987  _msgSender() */\n      jump\t// in\n    tag_147:\n        /* \"@openzeppelin/contracts/access/AccessControl.sol\":3958:3968  _checkRole */\n      tag_99\n        /* \"@openzeppelin/contracts/access/AccessControl.sol\":3958:3988  _checkRole(role, _msgSender()) */\n      jump\t// in\n    tag_146:\n        /* \"onchain_code.sol\":1492:1503  initialized */\n      0x03\n      0x00\n      swap1\n      sload\n      swap1\n      0x0100\n      exp\n      swap1\n      div\n      0xff\n      and\n        /* \"onchain_code.sol\":1491:1503  !initialized */\n      iszero\n        /* \"onchain_code.sol\":1483:1536  require(!initialized, \"Contract already initialized\") */\n      tag_149\n      jumpi\n      mload(0x40)\n      0x08c379a000000000000000000000000000000000000000000000000000000000\n      dup2\n      mstore\n      0x04\n      add\n      tag_150\n      swap1\n      tag_151\n      jump\t// in\n    tag_150:\n      mload(0x40)\n      dup1\n      swap2\n      sub\n      swap1\n      revert\n    tag_149:\n        /* \"onchain_code.sol\":1612:1616  true */\n      0x01\n        /* \"onchain_code.sol\":1542:1569  approvedAttestationCreators */\n      0x02\n        /* \"onchain_code.sol\":1542:1609  approvedAttestationCreators[MISSION_ENROLLMENT_DAQHRIS_ETH_ADDRESS] */\n      0x00\n        /* \"onchain_code.sol\":846:888  0xF0bC5CC2B4866dAAeCb069430c60b24520077037 */\n      0xf0bc5cc2b4866daaecb069430c60b24520077037\n        /* \"onchain_code.sol\":1542:1609  approvedAttestationCreators[MISSION_ENROLLMENT_DAQHRIS_ETH_ADDRESS] */\n      0xffffffffffffffffffffffffffffffffffffffff\n      and\n      0xffffffffffffffffffffffffffffffffffffffff\n      and\n      dup2\n      mstore\n      0x20\n      add\n      swap1\n      dup2\n      mstore\n      0x20\n      add\n      0x00\n      keccak256\n      0x00\n        /* \"onchain_code.sol\":1542:1616  approvedAttestationCreators[MISSION_ENROLLMENT_DAQHRIS_ETH_ADDRESS] = true */\n      0x0100\n      exp\n      dup2\n      sload\n      dup2\n      0xff\n      mul\n      not\n      and\n      swap1\n      dup4\n      iszero\n      iszero\n      mul\n      or\n      swap1\n      sstore\n      pop\n        /* \"onchain_code.sol\":1636:1640  true */\n      0x01\n        /* \"onchain_code.sol\":1622:1633  initialized */\n      0x03\n      0x00\n        /* \"onchain_code.sol\":1622:1640  initialized = true */\n      0x0100\n      exp\n      dup2\n      sload\n      dup2\n      0xff\n      mul\n      not\n      and\n      swap1\n      dup4\n      iszero\n      iszero\n      mul\n      or\n      swap1\n      sstore\n      pop\n        /* \"onchain_code.sol\":1417:1645  function initialize() external onlyRole(DEFAULT_ADMIN_ROLE) {... */\n      pop\n      jump\t// out\n        /* \"@openzeppelin/contracts/access/AccessControl.sol\":4374:4511  function hasRole(bytes32 role, address account) public view override returns (bool) {... */\n    tag_68:\n        /* \"@openzeppelin/contracts/access/AccessControl.sol\":4452:4456  bool */\n      0x00\n        /* \"@openzeppelin/contracts/access/AccessControl.sol\":4475:4481  _roles */\n      dup1\n        /* \"@openzeppelin/contracts/access/AccessControl.sol\":4475:4487  _roles[role] */\n      0x00\n        /* \"@openzeppelin/contracts/access/AccessControl.sol\":4482:4486  role */\n      dup5\n        /* \"@openzeppelin/contracts/access/AccessControl.sol\":4475:4487  _roles[role] */\n      dup2\n      mstore\n      0x20\n      add\n      swap1\n      dup2\n      mstore\n      0x20\n      add\n      0x00\n      keccak256\n        /* \"@openzeppelin/contracts/access/AccessControl.sol\":4475:4495  _roles[role].members */\n      0x00\n      add\n        /* \"@openzeppelin/contracts/access/AccessControl.sol\":4475:4504  _roles[role].members[account] */\n      0x00\n        /* \"@openzeppelin/contracts/access/AccessControl.sol\":4496:4503  account */\n      dup4\n        /* \"@openzeppelin/contracts/access/AccessControl.sol\":4475:4504  _roles[role].members[account] */\n      0xffffffffffffffffffffffffffffffffffffffff\n      and\n      0xffffffffffffffffffffffffffffffffffffffff\n      and\n      dup2\n      mstore\n      0x20\n      add\n      swap1\n      dup2\n      mstore\n      0x20\n      add\n      0x00\n      keccak256\n      0x00\n      swap1\n      sload\n      swap1\n      0x0100\n      exp\n      swap1\n      div\n      0xff\n      and\n        /* \"@openzeppelin/contracts/access/AccessControl.sol\":4468:4504  return _roles[role].members[account] */\n      swap1\n      pop\n        /* \"@openzeppelin/contracts/access/AccessControl.sol\":4374:4511  function hasRole(bytes32 role, address account) public view override returns (bool) {... */\n      swap3\n      swap2\n      pop\n      pop\n      jump\t// out\n        /* \"@openzeppelin/contracts/access/AccessControl.sol\":2394:2443  bytes32 public constant DEFAULT_ADMIN_ROLE = 0x00 */\n    tag_71:\n        /* \"@openzeppelin/contracts/access/AccessControl.sol\":2439:2443  0x00 */\n      0x00\n        /* \"@openzeppelin/contracts/access/AccessControl.sol\":2394:2443  bytes32 public constant DEFAULT_ADMIN_ROLE = 0x00 */\n      dup1\n      shl\n      dup2\n      jump\t// out\n        /* \"onchain_code.sol\":688:776  bytes32 public constant ATTESTATION_CREATOR_ROLE = keccak256(\"ATTESTATION_CREATOR_ROLE\") */\n    tag_74:\n        /* \"onchain_code.sol\":739:776  keccak256(\"ATTESTATION_CREATOR_ROLE\") */\n      0xfe59eece44efc73d9bec857e15b77961120d43be620d135f2f6356bc328d55f1\n        /* \"onchain_code.sol\":688:776  bytes32 public constant ATTESTATION_CREATOR_ROLE = keccak256(\"ATTESTATION_CREATOR_ROLE\") */\n      dup2\n      jump\t// out\n        /* \"@openzeppelin/contracts/access/AccessControl.sol\":6098:6245  function revokeRole(bytes32 role, address account) public virtual override onlyRole(getRoleAdmin(role)) {... */\n    tag_78:\n        /* \"@openzeppelin/contracts/access/AccessControl.sol\":6182:6200  getRoleAdmin(role) */\n      tag_153\n        /* \"@openzeppelin/contracts/access/AccessControl.sol\":6195:6199  role */\n      dup3\n        /* \"@openzeppelin/contracts/access/AccessControl.sol\":6182:6194  getRoleAdmin */\n      tag_39\n        /* \"@openzeppelin/contracts/access/AccessControl.sol\":6182:6200  getRoleAdmin(role) */\n      jump\t// in\n    tag_153:\n        /* \"@openzeppelin/contracts/access/AccessControl.sol\":3958:3988  _checkRole(role, _msgSender()) */\n      tag_155\n        /* \"@openzeppelin/contracts/access/AccessControl.sol\":3969:3973  role */\n      dup2\n        /* \"@openzeppelin/contracts/access/AccessControl.sol\":3975:3987  _msgSender() */\n      tag_156\n        /* \"@openzeppelin/contracts/access/AccessControl.sol\":3975:3985  _msgSender */\n      tag_98\n        /* \"@openzeppelin/contracts/access/AccessControl.sol\":3975:3987  _msgSender() */\n      jump\t// in\n    tag_156:\n        /* \"@openzeppelin/contracts/access/AccessControl.sol\":3958:3968  _checkRole */\n      tag_99\n        /* \"@openzeppelin/contracts/access/AccessControl.sol\":3958:3988  _checkRole(role, _msgSender()) */\n      jump\t// in\n    tag_155:\n        /* \"@openzeppelin/contracts/access/AccessControl.sol\":6212:6238  _revokeRole(role, account) */\n      tag_158\n        /* \"@openzeppelin/contracts/access/AccessControl.sol\":6224:6228  role */\n      dup4\n        /* \"@openzeppelin/contracts/access/AccessControl.sol\":6230:6237  account */\n      dup4\n        /* \"@openzeppelin/contracts/access/AccessControl.sol\":6212:6223  _revokeRole */\n      tag_115\n        /* \"@openzeppelin/contracts/access/AccessControl.sol\":6212:6238  _revokeRole(role, account) */\n      jump\t// in\n    tag_158:\n        /* \"@openzeppelin/contracts/access/AccessControl.sol\":6098:6245  function revokeRole(bytes32 role, address account) public virtual override onlyRole(getRoleAdmin(role)) {... */\n      pop\n      pop\n      pop\n      jump\t// out\n        /* \"onchain_code.sol\":1649:2077  function createMissionEnrollmentSchema() external onlyRole(DEFAULT_ADMIN_ROLE) {... */\n    tag_80:\n        /* \"@openzeppelin/contracts/access/AccessControl.sol\":2439:2443  0x00 */\n      0x00\n        /* \"onchain_code.sol\":1708:1726  DEFAULT_ADMIN_ROLE */\n      dup1\n      shl\n        /* \"@openzeppelin/contracts/access/AccessControl.sol\":3958:3988  _checkRole(role, _msgSender()) */\n      tag_160\n        /* \"@openzeppelin/contracts/access/AccessControl.sol\":3969:3973  role */\n      dup2\n        /* \"@openzeppelin/contracts/access/AccessControl.sol\":3975:3987  _msgSender() */\n      tag_161\n        /* \"@openzeppelin/contracts/access/AccessControl.sol\":3975:3985  _msgSender */\n      tag_98\n        /* \"@openzeppelin/contracts/access/AccessControl.sol\":3975:3987  _msgSender() */\n      jump\t// in\n    tag_161:\n        /* \"@openzeppelin/contracts/access/AccessControl.sol\":3958:3968  _checkRole */\n      tag_99\n        /* \"@openzeppelin/contracts/access/AccessControl.sol\":3958:3988  _checkRole(role, _msgSender()) */\n      jump\t// in\n    tag_160:\n        /* \"onchain_code.sol\":1777:1778  0 */\n      0x00\n        /* \"onchain_code.sol\":1769:1779  bytes32(0) */\n      dup1\n      shl\n        /* \"onchain_code.sol\":1742:1765  missionEnrollmentSchema */\n      sload(0x01)\n        /* \"onchain_code.sol\":1742:1779  missionEnrollmentSchema == bytes32(0) */\n      eq\n        /* \"onchain_code.sol\":1734:1806  require(missionEnrollmentSchema == bytes32(0), \"Schema already created\") */\n      tag_163\n      jumpi\n      mload(0x40)\n      0x08c379a000000000000000000000000000000000000000000000000000000000\n      dup2\n      mstore\n      0x04\n      add\n      tag_164\n      swap1\n      tag_165\n      jump\t// in\n    tag_164:\n      mload(0x40)\n      dup1\n      swap2\n      sub\n      swap1\n      revert\n    tag_163:\n        /* \"onchain_code.sol\":1812:1832  string memory schema */\n      0x00\n        /* \"onchain_code.sol\":1812:1907  string memory schema = \"address userAddress,uint256 tokenId,uint256 timestamp,address attester\" */\n      mload(0x40)\n      dup1\n      0x80\n      add\n      0x40\n      mstore\n      dup1\n      0x46\n      dup2\n      mstore\n      0x20\n      add\n      data_a7938286577deae3255a22639200988050aee7d22888f2c89de893baadff27ea\n      0x46\n      swap2\n      codecopy\n      swap1\n      pop\n        /* \"onchain_code.sol\":1913:1929  bytes32 schemaId */\n      0x00\n        /* \"onchain_code.sol\":1932:1946  schemaRegistry */\n      immutable(\"0x2f376be2da13ceb7f7d4d291fdf0ead4b1285423c32c5412ff3af6625953248f\")\n        /* \"onchain_code.sol\":1932:1955  schemaRegistry.register */\n      0xffffffffffffffffffffffffffffffffffffffff\n      and\n      0x60d7a278\n        /* \"onchain_code.sol\":1956:1962  schema */\n      dup4\n        /* \"onchain_code.sol\":1988:1989  0 */\n      0x00\n        /* \"onchain_code.sol\":1993:1997  true */\n      0x01\n        /* \"onchain_code.sol\":1932:1998  schemaRegistry.register(schema, ISchemaResolver(address(0)), true) */\n      mload(0x40)\n      dup5\n      0xffffffff\n      and\n      0xe0\n      shl\n      dup2\n      mstore\n      0x04\n      add\n      tag_166\n      swap4\n      swap3\n      swap2\n      swap1\n      tag_167\n      jump\t// in\n    tag_166:\n      0x20\n      mload(0x40)\n      dup1\n      dup4\n      sub\n      dup2\n      0x00\n      dup8\n      gas\n      call\n      iszero\n      dup1\n      iszero\n      tag_169\n      jumpi\n      returndatasize\n      0x00\n      dup1\n      returndatacopy\n      revert(0x00, returndatasize)\n    tag_169:\n      pop\n      pop\n      pop\n      pop\n      mload(0x40)\n      returndatasize\n      not(0x1f)\n      0x1f\n      dup3\n      add\n      and\n      dup3\n      add\n      dup1\n      0x40\n      mstore\n      pop\n      dup2\n      add\n      swap1\n      tag_170\n      swap2\n      swap1\n      tag_137\n      jump\t// in\n    tag_170:\n        /* \"onchain_code.sol\":1913:1998  bytes32 schemaId = schemaRegistry.register(schema, ISchemaResolver(address(0)), true) */\n      swap1\n      pop\n        /* \"onchain_code.sol\":2030:2038  schemaId */\n      dup1\n        /* \"onchain_code.sol\":2004:2027  missionEnrollmentSchema */\n      0x01\n        /* \"onchain_code.sol\":2004:2038  missionEnrollmentSchema = schemaId */\n      dup2\n      swap1\n      sstore\n      pop\n        /* \"onchain_code.sol\":2063:2071  schemaId */\n      dup1\n        /* \"onchain_code.sol\":2049:2072  SchemaCreated(schemaId) */\n      0xed68f5afea10be5233231e5d15186bf1c9c0b9f6d3a767404d90688bccf293af\n      mload(0x40)\n      mload(0x40)\n      dup1\n      swap2\n      sub\n      swap1\n      log2\n        /* \"onchain_code.sol\":1728:2077  {... */\n      pop\n      pop\n        /* \"onchain_code.sol\":1649:2077  function createMissionEnrollmentSchema() external onlyRole(DEFAULT_ADMIN_ROLE) {... */\n      pop\n      jump\t// out\n        /* \"@openzeppelin/contracts/utils/introspection/ERC165.sol\":763:918  function supportsInterface(bytes4 interfaceId) public view virtual override returns (bool) {... */\n    tag_84:\n        /* \"@openzeppelin/contracts/utils/introspection/ERC165.sol\":848:852  bool */\n      0x00\n        /* \"@openzeppelin/contracts/utils/introspection/ERC165.sol\":886:911  type(IERC165).interfaceId */\n      0x01ffc9a700000000000000000000000000000000000000000000000000000000\n        /* \"@openzeppelin/contracts/utils/introspection/ERC165.sol\":871:911  interfaceId == type(IERC165).interfaceId */\n      not(0xffffffffffffffffffffffffffffffffffffffffffffffffffffffff)\n      and\n        /* \"@openzeppelin/contracts/utils/introspection/ERC165.sol\":871:882  interfaceId */\n      dup3\n        /* \"@openzeppelin/contracts/utils/introspection/ERC165.sol\":871:911  interfaceId == type(IERC165).interfaceId */\n      not(0xffffffffffffffffffffffffffffffffffffffffffffffffffffffff)\n      and\n      eq\n        /* \"@openzeppelin/contracts/utils/introspection/ERC165.sol\":864:911  return interfaceId == type(IERC165).interfaceId */\n      swap1\n      pop\n        /* \"@openzeppelin/contracts/utils/introspection/ERC165.sol\":763:918  function supportsInterface(bytes4 interfaceId) public view virtual override returns (bool) {... */\n      swap2\n      swap1\n      pop\n      jump\t// out\n        /* \"@openzeppelin/contracts/utils/Context.sol\":586:682  function _msgSender() internal view virtual returns (address) {... */\n    tag_98:\n        /* \"@openzeppelin/contracts/utils/Context.sol\":639:646  address */\n      0x00\n        /* \"@openzeppelin/contracts/utils/Context.sol\":665:675  msg.sender */\n      caller\n        /* \"@openzeppelin/contracts/utils/Context.sol\":658:675  return msg.sender */\n      swap1\n      pop\n        /* \"@openzeppelin/contracts/utils/Context.sol\":586:682  function _msgSender() internal view virtual returns (address) {... */\n      swap1\n      jump\t// out\n        /* \"@openzeppelin/contracts/access/AccessControl.sol\":4792:5167  function _checkRole(bytes32 role, address account) internal view {... */\n    tag_99:\n        /* \"@openzeppelin/contracts/access/AccessControl.sol\":4871:4893  hasRole(role, account) */\n      tag_174\n        /* \"@openzeppelin/contracts/access/AccessControl.sol\":4879:4883  role */\n      dup3\n        /* \"@openzeppelin/contracts/access/AccessControl.sol\":4885:4892  account */\n      dup3\n        /* \"@openzeppelin/contracts/access/AccessControl.sol\":4871:4878  hasRole */\n      tag_68\n        /* \"@openzeppelin/contracts/access/AccessControl.sol\":4871:4893  hasRole(role, account) */\n      jump\t// in\n    tag_174:\n        /* \"@openzeppelin/contracts/access/AccessControl.sol\":4867:5161  if(!hasRole(role, account)) {... */\n      tag_175\n      jumpi\n        /* \"@openzeppelin/contracts/access/AccessControl.sol\":5000:5041  Strings.toHexString(uint160(account), 20) */\n      tag_176\n        /* \"@openzeppelin/contracts/access/AccessControl.sol\":5028:5035  account */\n      dup2\n        /* \"@openzeppelin/contracts/access/AccessControl.sol\":5000:5041  Strings.toHexString(uint160(account), 20) */\n      0xffffffffffffffffffffffffffffffffffffffff\n      and\n        /* \"@openzeppelin/contracts/access/AccessControl.sol\":5038:5040  20 */\n      0x14\n        /* \"@openzeppelin/contracts/access/AccessControl.sol\":5000:5019  Strings.toHexString */\n      tag_177\n        /* \"@openzeppelin/contracts/access/AccessControl.sol\":5000:5041  Strings.toHexString(uint160(account), 20) */\n      jump\t// in\n    tag_176:\n        /* \"@openzeppelin/contracts/access/AccessControl.sol\":5096:5134  Strings.toHexString(uint256(role), 32) */\n      tag_178\n        /* \"@openzeppelin/contracts/access/AccessControl.sol\":5124:5128  role */\n      dup4\n        /* \"@openzeppelin/contracts/access/AccessControl.sol\":5116:5129  uint256(role) */\n      0x00\n      shr\n        /* \"@openzeppelin/contracts/access/AccessControl.sol\":5131:5133  32 */\n      0x20\n        /* \"@openzeppelin/contracts/access/AccessControl.sol\":5096:5115  Strings.toHexString */\n      tag_177\n        /* \"@openzeppelin/contracts/access/AccessControl.sol\":5096:5134  Strings.toHexString(uint256(role), 32) */\n      jump\t// in\n    tag_178:\n        /* \"@openzeppelin/contracts/access/AccessControl.sol\":4923:5148  abi.encodePacked(... */\n      add(0x20, mload(0x40))\n      tag_179\n      swap3\n      swap2\n      swap1\n      tag_180\n      jump\t// in\n    tag_179:\n      mload(0x40)\n      0x20\n      dup2\n      dup4\n      sub\n      sub\n      dup2\n      mstore\n      swap1\n      0x40\n      mstore\n        /* \"@openzeppelin/contracts/access/AccessControl.sol\":4909:5150  revert(string(abi.encodePacked(... */\n      mload(0x40)\n      0x08c379a000000000000000000000000000000000000000000000000000000000\n      dup2\n      mstore\n      0x04\n      add\n      tag_181\n      swap2\n      swap1\n      tag_182\n      jump\t// in\n    tag_181:\n      mload(0x40)\n      dup1\n      swap2\n      sub\n      swap1\n      revert\n        /* \"@openzeppelin/contracts/access/AccessControl.sol\":4867:5161  if(!hasRole(role, account)) {... */\n    tag_175:\n        /* \"@openzeppelin/contracts/access/AccessControl.sol\":4792:5167  function _checkRole(bytes32 role, address account) internal view {... */\n      pop\n      pop\n      jump\t// out\n        /* \"@openzeppelin/contracts/access/AccessControl.sol\":7948:8172  function _grantRole(bytes32 role, address account) private {... */\n    tag_108:\n        /* \"@openzeppelin/contracts/access/AccessControl.sol\":8022:8044  hasRole(role, account) */\n      tag_184\n        /* \"@openzeppelin/contracts/access/AccessControl.sol\":8030:8034  role */\n      dup3\n        /* \"@openzeppelin/contracts/access/AccessControl.sol\":8036:8043  account */\n      dup3\n        /* \"@openzeppelin/contracts/access/AccessControl.sol\":8022:8029  hasRole */\n      tag_68\n        /* \"@openzeppelin/contracts/access/AccessControl.sol\":8022:8044  hasRole(role, account) */\n      jump\t// in\n    tag_184:\n        /* \"@openzeppelin/contracts/access/AccessControl.sol\":8017:8166  if (!hasRole(role, account)) {... */\n      tag_185\n      jumpi\n        /* \"@openzeppelin/contracts/access/AccessControl.sol\":8092:8096  true */\n      0x01\n        /* \"@openzeppelin/contracts/access/AccessControl.sol\":8060:8066  _roles */\n      0x00\n        /* \"@openzeppelin/contracts/access/AccessControl.sol\":8060:8072  _roles[role] */\n      dup1\n        /* \"@openzeppelin/contracts/access/AccessControl.sol\":8067:8071  role */\n      dup5\n        /* \"@openzeppelin/contracts/access/AccessControl.sol\":8060:8072  _roles[role] */\n      dup2\n      mstore\n      0x20\n      add\n      swap1\n      dup2\n      mstore\n      0x20\n      add\n      0x00\n      keccak256\n        /* \"@openzeppelin/contracts/access/AccessControl.sol\":8060:8080  _roles[role].members */\n      0x00\n      add\n        /* \"@openzeppelin/contracts/access/AccessControl.sol\":8060:8089  _roles[role].members[account] */\n      0x00\n        /* \"@openzeppelin/contracts/access/AccessControl.sol\":8081:8088  account */\n      dup4\n        /* \"@openzeppelin/contracts/access/AccessControl.sol\":8060:8089  _roles[role].members[account] */\n      0xffffffffffffffffffffffffffffffffffffffff\n      and\n      0xffffffffffffffffffffffffffffffffffffffff\n      and\n      dup2\n      mstore\n      0x20\n      add\n      swap1\n      dup2\n      mstore\n      0x20\n      add\n      0x00\n      keccak256\n      0x00\n        /* \"@openzeppelin/contracts/access/AccessControl.sol\":8060:8096  _roles[role].members[account] = true */\n      0x0100\n      exp\n      dup2\n      sload\n      dup2\n      0xff\n      mul\n      not\n      and\n      swap1\n      dup4\n      iszero\n      iszero\n      mul\n      or\n      swap1\n      sstore\n      pop\n        /* \"@openzeppelin/contracts/access/AccessControl.sol\":8142:8154  _msgSender() */\n      tag_186\n        /* \"@openzeppelin/contracts/access/AccessControl.sol\":8142:8152  _msgSender */\n      tag_98\n        /* \"@openzeppelin/contracts/access/AccessControl.sol\":8142:8154  _msgSender() */\n      jump\t// in\n    tag_186:\n        /* \"@openzeppelin/contracts/access/AccessControl.sol\":8115:8155  RoleGranted(role, account, _msgSender()) */\n      0xffffffffffffffffffffffffffffffffffffffff\n      and\n        /* \"@openzeppelin/contracts/access/AccessControl.sol\":8133:8140  account */\n      dup2\n        /* \"@openzeppelin/contracts/access/AccessControl.sol\":8115:8155  RoleGranted(role, account, _msgSender()) */\n      0xffffffffffffffffffffffffffffffffffffffff\n      and\n        /* \"@openzeppelin/contracts/access/AccessControl.sol\":8127:8131  role */\n      dup4\n        /* \"@openzeppelin/contracts/access/AccessControl.sol\":8115:8155  RoleGranted(role, account, _msgSender()) */\n      0x2f8788117e7eff1d82e926ec794901d17c78024a50270940304540a733656f0d\n      mload(0x40)\n      mload(0x40)\n      dup1\n      swap2\n      sub\n      swap1\n      log4\n        /* \"@openzeppelin/contracts/access/AccessControl.sol\":8017:8166  if (!hasRole(role, account)) {... */\n    tag_185:\n        /* \"@openzeppelin/contracts/access/AccessControl.sol\":7948:8172  function _grantRole(bytes32 role, address account) private {... */\n      pop\n      pop\n      jump\t// out\n        /* \"@openzeppelin/contracts/access/AccessControl.sol\":8178:8403  function _revokeRole(bytes32 role, address account) private {... */\n    tag_115:\n        /* \"@openzeppelin/contracts/access/AccessControl.sol\":8252:8274  hasRole(role, account) */\n      tag_188\n        /* \"@openzeppelin/contracts/access/AccessControl.sol\":8260:8264  role */\n      dup3\n        /* \"@openzeppelin/contracts/access/AccessControl.sol\":8266:8273  account */\n      dup3\n        /* \"@openzeppelin/contracts/access/AccessControl.sol\":8252:8259  hasRole */\n      tag_68\n        /* \"@openzeppelin/contracts/access/AccessControl.sol\":8252:8274  hasRole(role, account) */\n      jump\t// in\n    tag_188:\n        /* \"@openzeppelin/contracts/access/AccessControl.sol\":8248:8397  if (hasRole(role, account)) {... */\n      iszero\n      tag_189\n      jumpi\n        /* \"@openzeppelin/contracts/access/AccessControl.sol\":8322:8327  false */\n      0x00\n        /* \"@openzeppelin/contracts/access/AccessControl.sol\":8290:8296  _roles */\n      dup1\n        /* \"@openzeppelin/contracts/access/AccessControl.sol\":8290:8302  _roles[role] */\n      0x00\n        /* \"@openzeppelin/contracts/access/AccessControl.sol\":8297:8301  role */\n      dup5\n        /* \"@openzeppelin/contracts/access/AccessControl.sol\":8290:8302  _roles[role] */\n      dup2\n      mstore\n      0x20\n      add\n      swap1\n      dup2\n      mstore\n      0x20\n      add\n      0x00\n      keccak256\n        /* \"@openzeppelin/contracts/access/AccessControl.sol\":8290:8310  _roles[role].members */\n      0x00\n      add\n        /* \"@openzeppelin/contracts/access/AccessControl.sol\":8290:8319  _roles[role].members[account] */\n      0x00\n        /* \"@openzeppelin/contracts/access/AccessControl.sol\":8311:8318  account */\n      dup4\n        /* \"@openzeppelin/contracts/access/AccessControl.sol\":8290:8319  _roles[role].members[account] */\n      0xffffffffffffffffffffffffffffffffffffffff\n      and\n      0xffffffffffffffffffffffffffffffffffffffff\n      and\n      dup2\n      mstore\n      0x20\n      add\n      swap1\n      dup2\n      mstore\n      0x20\n      add\n      0x00\n      keccak256\n      0x00\n        /* \"@openzeppelin/contracts/access/AccessControl.sol\":8290:8327  _roles[role].members[account] = false */\n      0x0100\n      exp\n      dup2\n      sload\n      dup2\n      0xff\n      mul\n      not\n      and\n      swap1\n      dup4\n      iszero\n      iszero\n      mul\n      or\n      swap1\n      sstore\n      pop\n        /* \"@openzeppelin/contracts/access/AccessControl.sol\":8373:8385  _msgSender() */\n      tag_190\n        /* \"@openzeppelin/contracts/access/AccessControl.sol\":8373:8383  _msgSender */\n      tag_98\n        /* \"@openzeppelin/contracts/access/AccessControl.sol\":8373:8385  _msgSender() */\n      jump\t// in\n    tag_190:\n        /* \"@openzeppelin/contracts/access/AccessControl.sol\":8346:8386  RoleRevoked(role, account, _msgSender()) */\n      0xffffffffffffffffffffffffffffffffffffffff\n      and\n        /* \"@openzeppelin/contracts/access/AccessControl.sol\":8364:8371  account */\n      dup2\n        /* \"@openzeppelin/contracts/access/AccessControl.sol\":8346:8386  RoleRevoked(role, account, _msgSender()) */\n      0xffffffffffffffffffffffffffffffffffffffff\n      and\n        /* \"@openzeppelin/contracts/access/AccessControl.sol\":8358:8362  role */\n      dup4\n        /* \"@openzeppelin/contracts/access/AccessControl.sol\":8346:8386  RoleRevoked(role, account, _msgSender()) */\n      0xf6391f5c32d9c69d2a47ea670b442974b53935d1edc7fd64eb21e047a839171b\n      mload(0x40)\n      mload(0x40)\n      dup1\n      swap2\n      sub\n      swap1\n      log4\n        /* \"@openzeppelin/contracts/access/AccessControl.sol\":8248:8397  if (hasRole(role, account)) {... */\n    tag_189:\n        /* \"@openzeppelin/contracts/access/AccessControl.sol\":8178:8403  function _revokeRole(bytes32 role, address account) private {... */\n      pop\n      pop\n      jump\t// out\n        /* \"@openzeppelin/contracts/utils/Strings.sol\":1531:1968  function toHexString(uint256 value, uint256 length) internal pure returns (string memory) {... */\n    tag_177:\n        /* \"@openzeppelin/contracts/utils/Strings.sol\":1606:1619  string memory */\n      0x60\n        /* \"@openzeppelin/contracts/utils/Strings.sol\":1631:1650  bytes memory buffer */\n      0x00\n        /* \"@openzeppelin/contracts/utils/Strings.sol\":1676:1677  2 */\n      0x02\n        /* \"@openzeppelin/contracts/utils/Strings.sol\":1667:1673  length */\n      dup4\n        /* \"@openzeppelin/contracts/utils/Strings.sol\":1663:1664  2 */\n      0x02\n        /* \"@openzeppelin/contracts/utils/Strings.sol\":1663:1673  2 * length */\n      tag_192\n      swap2\n      swap1\n      tag_193\n      jump\t// in\n    tag_192:\n        /* \"@openzeppelin/contracts/utils/Strings.sol\":1663:1677  2 * length + 2 */\n      tag_194\n      swap2\n      swap1\n      tag_195\n      jump\t// in\n    tag_194:\n        /* \"@openzeppelin/contracts/utils/Strings.sol\":1653:1678  new bytes(2 * length + 2) */\n      0xffffffffffffffff\n      dup2\n      gt\n      iszero\n      tag_196\n      jumpi\n      tag_197\n      tag_198\n      jump\t// in\n    tag_197:\n    tag_196:\n      mload(0x40)\n      swap1\n      dup1\n      dup3\n      mstore\n      dup1\n      0x1f\n      add\n      not(0x1f)\n      and\n      0x20\n      add\n      dup3\n      add\n      0x40\n      mstore\n      dup1\n      iszero\n      tag_199\n      jumpi\n      dup2\n      0x20\n      add\n      0x01\n      dup3\n      mul\n      dup1\n      calldatasize\n      dup4\n      calldatacopy\n      dup1\n      dup3\n      add\n      swap2\n      pop\n      pop\n      swap1\n      pop\n    tag_199:\n      pop\n        /* \"@openzeppelin/contracts/utils/Strings.sol\":1631:1678  bytes memory buffer = new bytes(2 * length + 2) */\n      swap1\n      pop\n        /* \"@openzeppelin/contracts/utils/Strings.sol\":1688:1703  buffer[0] = \"0\" */\n      0x3000000000000000000000000000000000000000000000000000000000000000\n        /* \"@openzeppelin/contracts/utils/Strings.sol\":1688:1694  buffer */\n      dup2\n        /* \"@openzeppelin/contracts/utils/Strings.sol\":1695:1696  0 */\n      0x00\n        /* \"@openzeppelin/contracts/utils/Strings.sol\":1688:1697  buffer[0] */\n      dup2\n      mload\n      dup2\n      lt\n      tag_200\n      jumpi\n      tag_201\n      tag_202\n      jump\t// in\n    tag_201:\n    tag_200:\n      0x20\n      add\n      add\n        /* \"@openzeppelin/contracts/utils/Strings.sol\":1688:1703  buffer[0] = \"0\" */\n      swap1\n      not(0xffffffffffffffffffffffffffffffffffffffffffffffffffffffffffffff)\n      and\n      swap1\n      dup2\n      0x00\n      byte\n      swap1\n      mstore8\n      pop\n        /* \"@openzeppelin/contracts/utils/Strings.sol\":1713:1728  buffer[1] = \"x\" */\n      0x7800000000000000000000000000000000000000000000000000000000000000\n        /* \"@openzeppelin/contracts/utils/Strings.sol\":1713:1719  buffer */\n      dup2\n        /* \"@openzeppelin/contracts/utils/Strings.sol\":1720:1721  1 */\n      0x01\n        /* \"@openzeppelin/contracts/utils/Strings.sol\":1713:1722  buffer[1] */\n      dup2\n      mload\n      dup2\n      lt\n      tag_203\n      jumpi\n      tag_204\n      tag_202\n      jump\t// in\n    tag_204:\n    tag_203:\n      0x20\n      add\n      add\n        /* \"@openzeppelin/contracts/utils/Strings.sol\":1713:1728  buffer[1] = \"x\" */\n      swap1\n      not(0xffffffffffffffffffffffffffffffffffffffffffffffffffffffffffffff)\n      and\n      swap1\n      dup2\n      0x00\n      byte\n      swap1\n      mstore8\n      pop\n        /* \"@openzeppelin/contracts/utils/Strings.sol\":1743:1752  uint256 i */\n      0x00\n        /* \"@openzeppelin/contracts/utils/Strings.sol\":1768:1769  1 */\n      0x01\n        /* \"@openzeppelin/contracts/utils/Strings.sol\":1759:1765  length */\n      dup5\n        /* \"@openzeppelin/contracts/utils/Strings.sol\":1755:1756  2 */\n      0x02\n        /* \"@openzeppelin/contracts/utils/Strings.sol\":1755:1765  2 * length */\n      tag_208\n      swap2\n      swap1\n      tag_193\n      jump\t// in\n    tag_208:\n        /* \"@openzeppelin/contracts/utils/Strings.sol\":1755:1769  2 * length + 1 */\n      tag_209\n      swap2\n      swap1\n      tag_195\n      jump\t// in\n    tag_209:\n        /* \"@openzeppelin/contracts/utils/Strings.sol\":1743:1769  uint256 i = 2 * length + 1 */\n      swap1\n      pop\n        /* \"@openzeppelin/contracts/utils/Strings.sol\":1738:1866  for (uint256 i = 2 * length + 1; i > 1; --i) {... */\n    tag_205:\n        /* \"@openzeppelin/contracts/utils/Strings.sol\":1775:1776  1 */\n      0x01\n        /* \"@openzeppelin/contracts/utils/Strings.sol\":1771:1772  i */\n      dup2\n        /* \"@openzeppelin/contracts/utils/Strings.sol\":1771:1776  i > 1 */\n      gt\n        /* \"@openzeppelin/contracts/utils/Strings.sol\":1738:1866  for (uint256 i = 2 * length + 1; i > 1; --i) {... */\n      iszero\n      tag_206\n      jumpi\n        /* \"@openzeppelin/contracts/utils/Strings.sol\":1809:1817  alphabet */\n      0x3031323334353637383961626364656600000000000000000000000000000000\n        /* \"@openzeppelin/contracts/utils/Strings.sol\":1826:1829  0xf */\n      0x0f\n        /* \"@openzeppelin/contracts/utils/Strings.sol\":1818:1823  value */\n      dup7\n        /* \"@openzeppelin/contracts/utils/Strings.sol\":1818:1829  value & 0xf */\n      and\n        /* \"@openzeppelin/contracts/utils/Strings.sol\":1809:1830  alphabet[value & 0xf] */\n      0x10\n      dup2\n      lt\n      tag_210\n      jumpi\n      tag_211\n      tag_202\n      jump\t// in\n    tag_211:\n    tag_210:\n      byte\n      0xf8\n      shl\n        /* \"@openzeppelin/contracts/utils/Strings.sol\":1797:1803  buffer */\n      dup3\n        /* \"@openzeppelin/contracts/utils/Strings.sol\":1804:1805  i */\n      dup3\n        /* \"@openzeppelin/contracts/utils/Strings.sol\":1797:1806  buffer[i] */\n      dup2\n      mload\n      dup2\n      lt\n      tag_212\n      jumpi\n      tag_213\n      tag_202\n      jump\t// in\n    tag_213:\n    tag_212:\n      0x20\n      add\n      add\n        /* \"@openzeppelin/contracts/utils/Strings.sol\":1797:1830  buffer[i] = alphabet[value & 0xf] */\n      swap1\n      not(0xffffffffffffffffffffffffffffffffffffffffffffffffffffffffffffff)\n      and\n      swap1\n      dup2\n      0x00\n      byte\n      swap1\n      mstore8\n      pop\n        /* \"@openzeppelin/contracts/utils/Strings.sol\":1854:1855  4 */\n      0x04\n        /* \"@openzeppelin/contracts/utils/Strings.sol\":1844:1855  value >>= 4 */\n      dup6\n      swap1\n      shr\n      swap5\n      pop\n        /* \"@openzeppelin/contracts/utils/Strings.sol\":1778:1781  --i */\n      dup1\n      tag_214\n      swap1\n      tag_215\n      jump\t// in\n    tag_214:\n      swap1\n      pop\n        /* \"@openzeppelin/contracts/utils/Strings.sol\":1738:1866  for (uint256 i = 2 * length + 1; i > 1; --i) {... */\n      jump(tag_205)\n    tag_206:\n      pop\n        /* \"@openzeppelin/contracts/utils/Strings.sol\":1892:1893  0 */\n      0x00\n        /* \"@openzeppelin/contracts/utils/Strings.sol\":1883:1888  value */\n      dup5\n        /* \"@openzeppelin/contracts/utils/Strings.sol\":1883:1893  value == 0 */\n      eq\n        /* \"@openzeppelin/contracts/utils/Strings.sol\":1875:1930  require(value == 0, \"Strings: hex length insufficient\") */\n      tag_216\n      jumpi\n      mload(0x40)\n      0x08c379a000000000000000000000000000000000000000000000000000000000\n      dup2\n      mstore\n      0x04\n      add\n      tag_217\n      swap1\n      tag_218\n      jump\t// in\n    tag_217:\n      mload(0x40)\n      dup1\n      swap2\n      sub\n      swap1\n      revert\n    tag_216:\n        /* \"@openzeppelin/contracts/utils/Strings.sol\":1954:1960  buffer */\n      dup1\n        /* \"@openzeppelin/contracts/utils/Strings.sol\":1940:1961  return string(buffer) */\n      swap2\n      pop\n      pop\n        /* \"@openzeppelin/contracts/utils/Strings.sol\":1531:1968  function toHexString(uint256 value, uint256 length) internal pure returns (string memory) {... */\n      swap3\n      swap2\n      pop\n      pop\n      jump\t// out\n        /* \"#utility.yul\":7:82   */\n    tag_219:\n        /* \"#utility.yul\":40:46   */\n      0x00\n        /* \"#utility.yul\":73:75   */\n      0x40\n        /* \"#utility.yul\":67:76   */\n      mload\n        /* \"#utility.yul\":57:76   */\n      swap1\n      pop\n        /* \"#utility.yul\":7:82   */\n      swap1\n      jump\t// out\n        /* \"#utility.yul\":88:205   */\n    tag_220:\n        /* \"#utility.yul\":197:198   */\n      0x00\n        /* \"#utility.yul\":194:195   */\n      dup1\n        /* \"#utility.yul\":187:199   */\n      revert\n        /* \"#utility.yul\":211:328   */\n    tag_221:\n        /* \"#utility.yul\":320:321   */\n      0x00\n        /* \"#utility.yul\":317:318   */\n      dup1\n        /* \"#utility.yul\":310:322   */\n      revert\n        /* \"#utility.yul\":334:483   */\n    tag_222:\n        /* \"#utility.yul\":370:377   */\n      0x00\n        /* \"#utility.yul\":410:476   */\n      0xffffffff00000000000000000000000000000000000000000000000000000000\n        /* \"#utility.yul\":403:408   */\n      dup3\n        /* \"#utility.yul\":399:477   */\n      and\n        /* \"#utility.yul\":388:477   */\n      swap1\n      pop\n        /* \"#utility.yul\":334:483   */\n      swap2\n      swap1\n      pop\n      jump\t// out\n        /* \"#utility.yul\":489:609   */\n    tag_223:\n        /* \"#utility.yul\":561:584   */\n      tag_310\n        /* \"#utility.yul\":578:583   */\n      dup2\n        /* \"#utility.yul\":561:584   */\n      tag_222\n      jump\t// in\n    tag_310:\n        /* \"#utility.yul\":554:559   */\n      dup2\n        /* \"#utility.yul\":551:585   */\n      eq\n        /* \"#utility.yul\":541:603   */\n      tag_311\n      jumpi\n        /* \"#utility.yul\":599:600   */\n      0x00\n        /* \"#utility.yul\":596:597   */\n      dup1\n        /* \"#utility.yul\":589:601   */\n      revert\n        /* \"#utility.yul\":541:603   */\n    tag_311:\n        /* \"#utility.yul\":489:609   */\n      pop\n      jump\t// out\n        /* \"#utility.yul\":615:752   */\n    tag_224:\n        /* \"#utility.yul\":660:665   */\n      0x00\n        /* \"#utility.yul\":698:704   */\n      dup2\n        /* \"#utility.yul\":685:705   */\n      calldataload\n        /* \"#utility.yul\":676:705   */\n      swap1\n      pop\n        /* \"#utility.yul\":714:746   */\n      tag_313\n        /* \"#utility.yul\":740:745   */\n      dup2\n        /* \"#utility.yul\":714:746   */\n      tag_223\n      jump\t// in\n    tag_313:\n        /* \"#utility.yul\":615:752   */\n      swap3\n      swap2\n      pop\n      pop\n      jump\t// out\n        /* \"#utility.yul\":758:1085   */\n    tag_24:\n        /* \"#utility.yul\":816:822   */\n      0x00\n        /* \"#utility.yul\":865:867   */\n      0x20\n        /* \"#utility.yul\":853:862   */\n      dup3\n        /* \"#utility.yul\":844:851   */\n      dup5\n        /* \"#utility.yul\":840:863   */\n      sub\n        /* \"#utility.yul\":836:868   */\n      slt\n        /* \"#utility.yul\":833:952   */\n      iszero\n      tag_315\n      jumpi\n        /* \"#utility.yul\":871:950   */\n      tag_316\n      tag_220\n      jump\t// in\n    tag_316:\n        /* \"#utility.yul\":833:952   */\n    tag_315:\n        /* \"#utility.yul\":991:992   */\n      0x00\n        /* \"#utility.yul\":1016:1068   */\n      tag_317\n        /* \"#utility.yul\":1060:1067   */\n      dup5\n        /* \"#utility.yul\":1051:1057   */\n      dup3\n        /* \"#utility.yul\":1040:1049   */\n      dup6\n        /* \"#utility.yul\":1036:1058   */\n      add\n        /* \"#utility.yul\":1016:1068   */\n      tag_224\n      jump\t// in\n    tag_317:\n        /* \"#utility.yul\":1006:1068   */\n      swap2\n      pop\n        /* \"#utility.yul\":962:1078   */\n      pop\n        /* \"#utility.yul\":758:1085   */\n      swap3\n      swap2\n      pop\n      pop\n      jump\t// out\n        /* \"#utility.yul\":1091:1181   */\n    tag_225:\n        /* \"#utility.yul\":1125:1132   */\n      0x00\n        /* \"#utility.yul\":1168:1173   */\n      dup2\n        /* \"#utility.yul\":1161:1174   */\n      iszero\n        /* \"#utility.yul\":1154:1175   */\n      iszero\n        /* \"#utility.yul\":1143:1175   */\n      swap1\n      pop\n        /* \"#utility.yul\":1091:1181   */\n      swap2\n      swap1\n      pop\n      jump\t// out\n        /* \"#utility.yul\":1187:1296   */\n    tag_226:\n        /* \"#utility.yul\":1268:1289   */\n      tag_320\n        /* \"#utility.yul\":1283:1288   */\n      dup2\n        /* \"#utility.yul\":1268:1289   */\n      tag_225\n      jump\t// in\n    tag_320:\n        /* \"#utility.yul\":1263:1266   */\n      dup3\n        /* \"#utility.yul\":1256:1290   */\n      mstore\n        /* \"#utility.yul\":1187:1296   */\n      pop\n      pop\n      jump\t// out\n        /* \"#utility.yul\":1302:1512   */\n    tag_27:\n        /* \"#utility.yul\":1389:1393   */\n      0x00\n        /* \"#utility.yul\":1427:1429   */\n      0x20\n        /* \"#utility.yul\":1416:1425   */\n      dup3\n        /* \"#utility.yul\":1412:1430   */\n      add\n        /* \"#utility.yul\":1404:1430   */\n      swap1\n      pop\n        /* \"#utility.yul\":1440:1505   */\n      tag_322\n        /* \"#utility.yul\":1502:1503   */\n      0x00\n        /* \"#utility.yul\":1491:1500   */\n      dup4\n        /* \"#utility.yul\":1487:1504   */\n      add\n        /* \"#utility.yul\":1478:1484   */\n      dup5\n        /* \"#utility.yul\":1440:1505   */\n      tag_226\n      jump\t// in\n    tag_322:\n        /* \"#utility.yul\":1302:1512   */\n      swap3\n      swap2\n      pop\n      pop\n      jump\t// out\n        /* \"#utility.yul\":1518:1595   */\n    tag_227:\n        /* \"#utility.yul\":1555:1562   */\n      0x00\n        /* \"#utility.yul\":1584:1589   */\n      dup2\n        /* \"#utility.yul\":1573:1589   */\n      swap1\n      pop\n        /* \"#utility.yul\":1518:1595   */\n      swap2\n      swap1\n      pop\n      jump\t// out\n        /* \"#utility.yul\":1601:1723   */\n    tag_228:\n        /* \"#utility.yul\":1674:1698   */\n      tag_325\n        /* \"#utility.yul\":1692:1697   */\n      dup2\n        /* \"#utility.yul\":1674:1698   */\n      tag_227\n      jump\t// in\n    tag_325:\n        /* \"#utility.yul\":1667:1672   */\n      dup2\n        /* \"#utility.yul\":1664:1699   */\n      eq\n        /* \"#utility.yul\":1654:1717   */\n      tag_326\n      jumpi\n        /* \"#utility.yul\":1713:1714   */\n      0x00\n        /* \"#utility.yul\":1710:1711   */\n      dup1\n        /* \"#utility.yul\":1703:1715   */\n      revert\n        /* \"#utility.yul\":1654:1717   */\n    tag_326:\n        /* \"#utility.yul\":1601:1723   */\n      pop\n      jump\t// out\n        /* \"#utility.yul\":1729:1868   */\n    tag_229:\n        /* \"#utility.yul\":1775:1780   */\n      0x00\n        /* \"#utility.yul\":1813:1819   */\n      dup2\n        /* \"#utility.yul\":1800:1820   */\n      calldataload\n        /* \"#utility.yul\":1791:1820   */\n      swap1\n      pop\n        /* \"#utility.yul\":1829:1862   */\n      tag_328\n        /* \"#utility.yul\":1856:1861   */\n      dup2\n        /* \"#utility.yul\":1829:1862   */\n      tag_228\n      jump\t// in\n    tag_328:\n        /* \"#utility.yul\":1729:1868   */\n      swap3\n      swap2\n      pop\n      pop\n      jump\t// out\n        /* \"#utility.yul\":1874:2203   */\n    tag_30:\n        /* \"#utility.yul\":1933:1939   */\n      0x00\n        /* \"#utility.yul\":1982:1984   */\n      0x20\n        /* \"#utility.yul\":1970:1979   */\n      dup3\n        /* \"#utility.yul\":1961:1968   */\n      dup5\n        /* \"#utility.yul\":1957:1980   */\n      sub\n        /* \"#utility.yul\":1953:1985   */\n      slt\n        /* \"#utility.yul\":1950:2069   */\n      iszero\n      tag_330\n      jumpi\n        /* \"#utility.yul\":1988:2067   */\n      tag_331\n      tag_220\n      jump\t// in\n    tag_331:\n        /* \"#utility.yul\":1950:2069   */\n    tag_330:\n        /* \"#utility.yul\":2108:2109   */\n      0x00\n        /* \"#utility.yul\":2133:2186   */\n      tag_332\n        /* \"#utility.yul\":2178:2185   */\n      dup5\n        /* \"#utility.yul\":2169:2175   */\n      dup3\n        /* \"#utility.yul\":2158:2167   */\n      dup6\n        /* \"#utility.yul\":2154:2176   */\n      add\n        /* \"#utility.yul\":2133:2186   */\n      tag_229\n      jump\t// in\n    tag_332:\n        /* \"#utility.yul\":2123:2186   */\n      swap2\n      pop\n        /* \"#utility.yul\":2079:2196   */\n      pop\n        /* \"#utility.yul\":1874:2203   */\n      swap3\n      swap2\n      pop\n      pop\n      jump\t// out\n        /* \"#utility.yul\":2209:2335   */\n    tag_230:\n        /* \"#utility.yul\":2246:2253   */\n      0x00\n        /* \"#utility.yul\":2286:2328   */\n      0xffffffffffffffffffffffffffffffffffffffff\n        /* \"#utility.yul\":2279:2284   */\n      dup3\n        /* \"#utility.yul\":2275:2329   */\n      and\n        /* \"#utility.yul\":2264:2329   */\n      swap1\n      pop\n        /* \"#utility.yul\":2209:2335   */\n      swap2\n      swap1\n      pop\n      jump\t// out\n        /* \"#utility.yul\":2341:2437   */\n    tag_231:\n        /* \"#utility.yul\":2378:2385   */\n      0x00\n        /* \"#utility.yul\":2407:2431   */\n      tag_335\n        /* \"#utility.yul\":2425:2430   */\n      dup3\n        /* \"#utility.yul\":2407:2431   */\n      tag_230\n      jump\t// in\n    tag_335:\n        /* \"#utility.yul\":2396:2431   */\n      swap1\n      pop\n        /* \"#utility.yul\":2341:2437   */\n      swap2\n      swap1\n      pop\n      jump\t// out\n        /* \"#utility.yul\":2443:2565   */\n    tag_232:\n        /* \"#utility.yul\":2516:2540   */\n      tag_337\n        /* \"#utility.yul\":2534:2539   */\n      dup2\n        /* \"#utility.yul\":2516:2540   */\n      tag_231\n      jump\t// in\n    tag_337:\n        /* \"#utility.yul\":2509:2514   */\n      dup2\n        /* \"#utility.yul\":2506:2541   */\n      eq\n        /* \"#utility.yul\":2496:2559   */\n      tag_338\n      jumpi\n        /* \"#utility.yul\":2555:2556   */\n      0x00\n        /* \"#utility.yul\":2552:2553   */\n      dup1\n        /* \"#utility.yul\":2545:2557   */\n      revert\n        /* \"#utility.yul\":2496:2559   */\n    tag_338:\n        /* \"#utility.yul\":2443:2565   */\n      pop\n      jump\t// out\n        /* \"#utility.yul\":2571:2710   */\n    tag_233:\n        /* \"#utility.yul\":2617:2622   */\n      0x00\n        /* \"#utility.yul\":2655:2661   */\n      dup2\n        /* \"#utility.yul\":2642:2662   */\n      calldataload\n        /* \"#utility.yul\":2633:2662   */\n      swap1\n      pop\n        /* \"#utility.yul\":2671:2704   */\n      tag_340\n        /* \"#utility.yul\":2698:2703   */\n      dup2\n        /* \"#utility.yul\":2671:2704   */\n      tag_232\n      jump\t// in\n    tag_340:\n        /* \"#utility.yul\":2571:2710   */\n      swap3\n      swap2\n      pop\n      pop\n      jump\t// out\n        /* \"#utility.yul\":2716:3045   */\n    tag_35:\n        /* \"#utility.yul\":2775:2781   */\n      0x00\n        /* \"#utility.yul\":2824:2826   */\n      0x20\n        /* \"#utility.yul\":2812:2821   */\n      dup3\n        /* \"#utility.yul\":2803:2810   */\n      dup5\n        /* \"#utility.yul\":2799:2822   */\n      sub\n        /* \"#utility.yul\":2795:2827   */\n      slt\n        /* \"#utility.yul\":2792:2911   */\n      iszero\n      tag_342\n      jumpi\n        /* \"#utility.yul\":2830:2909   */\n      tag_343\n      tag_220\n      jump\t// in\n    tag_343:\n        /* \"#utility.yul\":2792:2911   */\n    tag_342:\n        /* \"#utility.yul\":2950:2951   */\n      0x00\n        /* \"#utility.yul\":2975:3028   */\n      tag_344\n        /* \"#utility.yul\":3020:3027   */\n      dup5\n        /* \"#utility.yul\":3011:3017   */\n      dup3\n        /* \"#utility.yul\":3000:3009   */\n      dup6\n        /* \"#utility.yul\":2996:3018   */\n      add\n        /* \"#utility.yul\":2975:3028   */\n      tag_233\n      jump\t// in\n    tag_344:\n        /* \"#utility.yul\":2965:3028   */\n      swap2\n      pop\n        /* \"#utility.yul\":2921:3038   */\n      pop\n        /* \"#utility.yul\":2716:3045   */\n      swap3\n      swap2\n      pop\n      pop\n      jump\t// out\n        /* \"#utility.yul\":3051:3169   */\n    tag_234:\n        /* \"#utility.yul\":3138:3162   */\n      tag_346\n        /* \"#utility.yul\":3156:3161   */\n      dup2\n        /* \"#utility.yul\":3138:3162   */\n      tag_227\n      jump\t// in\n    tag_346:\n        /* \"#utility.yul\":3133:3136   */\n      dup3\n        /* \"#utility.yul\":3126:3163   */\n      mstore\n        /* \"#utility.yul\":3051:3169   */\n      pop\n      pop\n      jump\t// out\n        /* \"#utility.yul\":3175:3397   */\n    tag_41:\n        /* \"#utility.yul\":3268:3272   */\n      0x00\n        /* \"#utility.yul\":3306:3308   */\n      0x20\n        /* \"#utility.yul\":3295:3304   */\n      dup3\n        /* \"#utility.yul\":3291:3309   */\n      add\n        /* \"#utility.yul\":3283:3309   */\n      swap1\n      pop\n        /* \"#utility.yul\":3319:3390   */\n      tag_348\n        /* \"#utility.yul\":3387:3388   */\n      0x00\n        /* \"#utility.yul\":3376:3385   */\n      dup4\n        /* \"#utility.yul\":3372:3389   */\n      add\n        /* \"#utility.yul\":3363:3369   */\n      dup5\n        /* \"#utility.yul\":3319:3390   */\n      tag_234\n      jump\t// in\n    tag_348:\n        /* \"#utility.yul\":3175:3397   */\n      swap3\n      swap2\n      pop\n      pop\n      jump\t// out\n        /* \"#utility.yul\":3403:3877   */\n    tag_44:\n        /* \"#utility.yul\":3471:3477   */\n      0x00\n        /* \"#utility.yul\":3479:3485   */\n      dup1\n        /* \"#utility.yul\":3528:3530   */\n      0x40\n        /* \"#utility.yul\":3516:3525   */\n      dup4\n        /* \"#utility.yul\":3507:3514   */\n      dup6\n        /* \"#utility.yul\":3503:3526   */\n      sub\n        /* \"#utility.yul\":3499:3531   */\n      slt\n        /* \"#utility.yul\":3496:3615   */\n      iszero\n      tag_350\n      jumpi\n        /* \"#utility.yul\":3534:3613   */\n      tag_351\n      tag_220\n      jump\t// in\n    tag_351:\n        /* \"#utility.yul\":3496:3615   */\n    tag_350:\n        /* \"#utility.yul\":3654:3655   */\n      0x00\n        /* \"#utility.yul\":3679:3732   */\n      tag_352\n        /* \"#utility.yul\":3724:3731   */\n      dup6\n        /* \"#utility.yul\":3715:3721   */\n      dup3\n        /* \"#utility.yul\":3704:3713   */\n      dup7\n        /* \"#utility.yul\":3700:3722   */\n      add\n        /* \"#utility.yul\":3679:3732   */\n      tag_229\n      jump\t// in\n    tag_352:\n        /* \"#utility.yul\":3669:3732   */\n      swap3\n      pop\n        /* \"#utility.yul\":3625:3742   */\n      pop\n        /* \"#utility.yul\":3781:3783   */\n      0x20\n        /* \"#utility.yul\":3807:3860   */\n      tag_353\n        /* \"#utility.yul\":3852:3859   */\n      dup6\n        /* \"#utility.yul\":3843:3849   */\n      dup3\n        /* \"#utility.yul\":3832:3841   */\n      dup7\n        /* \"#utility.yul\":3828:3850   */\n      add\n        /* \"#utility.yul\":3807:3860   */\n      tag_233\n      jump\t// in\n    tag_353:\n        /* \"#utility.yul\":3797:3860   */\n      swap2\n      pop\n        /* \"#utility.yul\":3752:3870   */\n      pop\n        /* \"#utility.yul\":3403:3877   */\n      swap3\n      pop\n      swap3\n      swap1\n      pop\n      jump\t// out\n        /* \"#utility.yul\":3883:3960   */\n    tag_235:\n        /* \"#utility.yul\":3920:3927   */\n      0x00\n        /* \"#utility.yul\":3949:3954   */\n      dup2\n        /* \"#utility.yul\":3938:3954   */\n      swap1\n      pop\n        /* \"#utility.yul\":3883:3960   */\n      swap2\n      swap1\n      pop\n      jump\t// out\n        /* \"#utility.yul\":3966:4088   */\n    tag_236:\n        /* \"#utility.yul\":4039:4063   */\n      tag_356\n        /* \"#utility.yul\":4057:4062   */\n      dup2\n        /* \"#utility.yul\":4039:4063   */\n      tag_235\n      jump\t// in\n    tag_356:\n        /* \"#utility.yul\":4032:4037   */\n      dup2\n        /* \"#utility.yul\":4029:4064   */\n      eq\n        /* \"#utility.yul\":4019:4082   */\n      tag_357\n      jumpi\n        /* \"#utility.yul\":4078:4079   */\n      0x00\n        /* \"#utility.yul\":4075:4076   */\n      dup1\n        /* \"#utility.yul\":4068:4080   */\n      revert\n        /* \"#utility.yul\":4019:4082   */\n    tag_357:\n        /* \"#utility.yul\":3966:4088   */\n      pop\n      jump\t// out\n        /* \"#utility.yul\":4094:4233   */\n    tag_237:\n        /* \"#utility.yul\":4140:4145   */\n      0x00\n        /* \"#utility.yul\":4178:4184   */\n      dup2\n        /* \"#utility.yul\":4165:4185   */\n      calldataload\n        /* \"#utility.yul\":4156:4185   */\n      swap1\n      pop\n        /* \"#utility.yul\":4194:4227   */\n      tag_359\n        /* \"#utility.yul\":4221:4226   */\n      dup2\n        /* \"#utility.yul\":4194:4227   */\n      tag_236\n      jump\t// in\n    tag_359:\n        /* \"#utility.yul\":4094:4233   */\n      swap3\n      swap2\n      pop\n      pop\n      jump\t// out\n        /* \"#utility.yul\":4239:4713   */\n    tag_55:\n        /* \"#utility.yul\":4307:4313   */\n      0x00\n        /* \"#utility.yul\":4315:4321   */\n      dup1\n        /* \"#utility.yul\":4364:4366   */\n      0x40\n        /* \"#utility.yul\":4352:4361   */\n      dup4\n        /* \"#utility.yul\":4343:4350   */\n      dup6\n        /* \"#utility.yul\":4339:4362   */\n      sub\n        /* \"#utility.yul\":4335:4367   */\n      slt\n        /* \"#utility.yul\":4332:4451   */\n      iszero\n      tag_361\n      jumpi\n        /* \"#utility.yul\":4370:4449   */\n      tag_362\n      tag_220\n      jump\t// in\n    tag_362:\n        /* \"#utility.yul\":4332:4451   */\n    tag_361:\n        /* \"#utility.yul\":4490:4491   */\n      0x00\n        /* \"#utility.yul\":4515:4568   */\n      tag_363\n        /* \"#utility.yul\":4560:4567   */\n      dup6\n        /* \"#utility.yul\":4551:4557   */\n      dup3\n        /* \"#utility.yul\":4540:4549   */\n      dup7\n        /* \"#utility.yul\":4536:4558   */\n      add\n        /* \"#utility.yul\":4515:4568   */\n      tag_233\n      jump\t// in\n    tag_363:\n        /* \"#utility.yul\":4505:4568   */\n      swap3\n      pop\n        /* \"#utility.yul\":4461:4578   */\n      pop\n        /* \"#utility.yul\":4617:4619   */\n      0x20\n        /* \"#utility.yul\":4643:4696   */\n      tag_364\n        /* \"#utility.yul\":4688:4695   */\n      dup6\n        /* \"#utility.yul\":4679:4685   */\n      dup3\n        /* \"#utility.yul\":4668:4677   */\n      dup7\n        /* \"#utility.yul\":4664:4686   */\n      add\n        /* \"#utility.yul\":4643:4696   */\n      tag_237\n      jump\t// in\n    tag_364:\n        /* \"#utility.yul\":4633:4696   */\n      swap2\n      pop\n        /* \"#utility.yul\":4588:4706   */\n      pop\n        /* \"#utility.yul\":4239:4713   */\n      swap3\n      pop\n      swap3\n      swap1\n      pop\n      jump\t// out\n        /* \"#utility.yul\":4719:4888   */\n    tag_238:\n        /* \"#utility.yul\":4803:4814   */\n      0x00\n        /* \"#utility.yul\":4837:4843   */\n      dup3\n        /* \"#utility.yul\":4832:4835   */\n      dup3\n        /* \"#utility.yul\":4825:4844   */\n      mstore\n        /* \"#utility.yul\":4877:4881   */\n      0x20\n        /* \"#utility.yul\":4872:4875   */\n      dup3\n        /* \"#utility.yul\":4868:4882   */\n      add\n        /* \"#utility.yul\":4853:4882   */\n      swap1\n      pop\n        /* \"#utility.yul\":4719:4888   */\n      swap3\n      swap2\n      pop\n      pop\n      jump\t// out\n        /* \"#utility.yul\":4894:5066   */\n    tag_239:\n        /* \"#utility.yul\":5034:5058   */\n      0x496e76616c6964206174746573746174696f6e20494400000000000000000000\n        /* \"#utility.yul\":5030:5031   */\n      0x00\n        /* \"#utility.yul\":5022:5028   */\n      dup3\n        /* \"#utility.yul\":5018:5032   */\n      add\n        /* \"#utility.yul\":5011:5059   */\n      mstore\n        /* \"#utility.yul\":4894:5066   */\n      pop\n      jump\t// out\n        /* \"#utility.yul\":5072:5438   */\n    tag_240:\n        /* \"#utility.yul\":5214:5217   */\n      0x00\n        /* \"#utility.yul\":5235:5302   */\n      tag_368\n        /* \"#utility.yul\":5299:5301   */\n      0x16\n        /* \"#utility.yul\":5294:5297   */\n      dup4\n        /* \"#utility.yul\":5235:5302   */\n      tag_238\n      jump\t// in\n    tag_368:\n        /* \"#utility.yul\":5228:5302   */\n      swap2\n      pop\n        /* \"#utility.yul\":5311:5404   */\n      tag_369\n        /* \"#utility.yul\":5400:5403   */\n      dup3\n        /* \"#utility.yul\":5311:5404   */\n      tag_239\n      jump\t// in\n    tag_369:\n        /* \"#utility.yul\":5429:5431   */\n      0x20\n        /* \"#utility.yul\":5424:5427   */\n      dup3\n        /* \"#utility.yul\":5420:5432   */\n      add\n        /* \"#utility.yul\":5413:5432   */\n      swap1\n      pop\n        /* \"#utility.yul\":5072:5438   */\n      swap2\n      swap1\n      pop\n      jump\t// out\n        /* \"#utility.yul\":5444:5863   */\n    tag_88:\n        /* \"#utility.yul\":5610:5614   */\n      0x00\n        /* \"#utility.yul\":5648:5650   */\n      0x20\n        /* \"#utility.yul\":5637:5646   */\n      dup3\n        /* \"#utility.yul\":5633:5651   */\n      add\n        /* \"#utility.yul\":5625:5651   */\n      swap1\n      pop\n        /* \"#utility.yul\":5697:5706   */\n      dup2\n        /* \"#utility.yul\":5691:5695   */\n      dup2\n        /* \"#utility.yul\":5687:5707   */\n      sub\n        /* \"#utility.yul\":5683:5684   */\n      0x00\n        /* \"#utility.yul\":5672:5681   */\n      dup4\n        /* \"#utility.yul\":5668:5685   */\n      add\n        /* \"#utility.yul\":5661:5708   */\n      mstore\n        /* \"#utility.yul\":5725:5856   */\n      tag_371\n        /* \"#utility.yul\":5851:5855   */\n      dup2\n        /* \"#utility.yul\":5725:5856   */\n      tag_240\n      jump\t// in\n    tag_371:\n        /* \"#utility.yul\":5717:5856   */\n      swap1\n      pop\n        /* \"#utility.yul\":5444:5863   */\n      swap2\n      swap1\n      pop\n      jump\t// out\n        /* \"#utility.yul\":5869:5986   */\n    tag_241:\n        /* \"#utility.yul\":5978:5979   */\n      0x00\n        /* \"#utility.yul\":5975:5976   */\n      dup1\n        /* \"#utility.yul\":5968:5980   */\n      revert\n        /* \"#utility.yul\":5992:6094   */\n    tag_242:\n        /* \"#utility.yul\":6033:6039   */\n      0x00\n        /* \"#utility.yul\":6084:6086   */\n      0x1f\n        /* \"#utility.yul\":6080:6087   */\n      not\n        /* \"#utility.yul\":6075:6077   */\n      0x1f\n        /* \"#utility.yul\":6068:6073   */\n      dup4\n        /* \"#utility.yul\":6064:6078   */\n      add\n        /* \"#utility.yul\":6060:6088   */\n      and\n        /* \"#utility.yul\":6050:6088   */\n      swap1\n      pop\n        /* \"#utility.yul\":5992:6094   */\n      swap2\n      swap1\n      pop\n      jump\t// out\n        /* \"#utility.yul\":6100:6280   */\n    tag_198:\n        /* \"#utility.yul\":6148:6225   */\n      0x4e487b7100000000000000000000000000000000000000000000000000000000\n        /* \"#utility.yul\":6145:6146   */\n      0x00\n        /* \"#utility.yul\":6138:6226   */\n      mstore\n        /* \"#utility.yul\":6245:6249   */\n      0x41\n        /* \"#utility.yul\":6242:6243   */\n      0x04\n        /* \"#utility.yul\":6235:6250   */\n      mstore\n        /* \"#utility.yul\":6269:6273   */\n      0x24\n        /* \"#utility.yul\":6266:6267   */\n      0x00\n        /* \"#utility.yul\":6259:6274   */\n      revert\n        /* \"#utility.yul\":6286:6567   */\n    tag_243:\n        /* \"#utility.yul\":6369:6396   */\n      tag_376\n        /* \"#utility.yul\":6391:6395   */\n      dup3\n        /* \"#utility.yul\":6369:6396   */\n      tag_242\n      jump\t// in\n    tag_376:\n        /* \"#utility.yul\":6361:6367   */\n      dup2\n        /* \"#utility.yul\":6357:6397   */\n      add\n        /* \"#utility.yul\":6499:6505   */\n      dup2\n        /* \"#utility.yul\":6487:6497   */\n      dup2\n        /* \"#utility.yul\":6484:6506   */\n      lt\n        /* \"#utility.yul\":6463:6481   */\n      0xffffffffffffffff\n        /* \"#utility.yul\":6451:6461   */\n      dup3\n        /* \"#utility.yul\":6448:6482   */\n      gt\n        /* \"#utility.yul\":6445:6507   */\n      or\n        /* \"#utility.yul\":6442:6530   */\n      iszero\n      tag_377\n      jumpi\n        /* \"#utility.yul\":6510:6528   */\n      tag_378\n      tag_198\n      jump\t// in\n    tag_378:\n        /* \"#utility.yul\":6442:6530   */\n    tag_377:\n        /* \"#utility.yul\":6550:6560   */\n      dup1\n        /* \"#utility.yul\":6546:6548   */\n      0x40\n        /* \"#utility.yul\":6539:6561   */\n      mstore\n        /* \"#utility.yul\":6329:6567   */\n      pop\n        /* \"#utility.yul\":6286:6567   */\n      pop\n      pop\n      jump\t// out\n        /* \"#utility.yul\":6573:6702   */\n    tag_244:\n        /* \"#utility.yul\":6607:6613   */\n      0x00\n        /* \"#utility.yul\":6634:6654   */\n      tag_380\n      tag_219\n      jump\t// in\n    tag_380:\n        /* \"#utility.yul\":6624:6654   */\n      swap1\n      pop\n        /* \"#utility.yul\":6663:6696   */\n      tag_381\n        /* \"#utility.yul\":6691:6695   */\n      dup3\n        /* \"#utility.yul\":6683:6689   */\n      dup3\n        /* \"#utility.yul\":6663:6696   */\n      tag_243\n      jump\t// in\n    tag_381:\n        /* \"#utility.yul\":6573:6702   */\n      swap2\n      swap1\n      pop\n      jump\t// out\n        /* \"#utility.yul\":6708:6825   */\n    tag_245:\n        /* \"#utility.yul\":6817:6818   */\n      0x00\n        /* \"#utility.yul\":6814:6815   */\n      dup1\n        /* \"#utility.yul\":6807:6819   */\n      revert\n        /* \"#utility.yul\":6831:6974   */\n    tag_246:\n        /* \"#utility.yul\":6888:6893   */\n      0x00\n        /* \"#utility.yul\":6919:6925   */\n      dup2\n        /* \"#utility.yul\":6913:6926   */\n      mload\n        /* \"#utility.yul\":6904:6926   */\n      swap1\n      pop\n        /* \"#utility.yul\":6935:6968   */\n      tag_384\n        /* \"#utility.yul\":6962:6967   */\n      dup2\n        /* \"#utility.yul\":6935:6968   */\n      tag_228\n      jump\t// in\n    tag_384:\n        /* \"#utility.yul\":6831:6974   */\n      swap3\n      swap2\n      pop\n      pop\n      jump\t// out\n        /* \"#utility.yul\":6980:7081   */\n    tag_247:\n        /* \"#utility.yul\":7016:7023   */\n      0x00\n        /* \"#utility.yul\":7056:7074   */\n      0xffffffffffffffff\n        /* \"#utility.yul\":7049:7054   */\n      dup3\n        /* \"#utility.yul\":7045:7075   */\n      and\n        /* \"#utility.yul\":7034:7075   */\n      swap1\n      pop\n        /* \"#utility.yul\":6980:7081   */\n      swap2\n      swap1\n      pop\n      jump\t// out\n        /* \"#utility.yul\":7087:7207   */\n    tag_248:\n        /* \"#utility.yul\":7159:7182   */\n      tag_387\n        /* \"#utility.yul\":7176:7181   */\n      dup2\n        /* \"#utility.yul\":7159:7182   */\n      tag_247\n      jump\t// in\n    tag_387:\n        /* \"#utility.yul\":7152:7157   */\n      dup2\n        /* \"#utility.yul\":7149:7183   */\n      eq\n        /* \"#utility.yul\":7139:7201   */\n      tag_388\n      jumpi\n        /* \"#utility.yul\":7197:7198   */\n      0x00\n        /* \"#utility.yul\":7194:7195   */\n      dup1\n        /* \"#utility.yul\":7187:7199   */\n      revert\n        /* \"#utility.yul\":7139:7201   */\n    tag_388:\n        /* \"#utility.yul\":7087:7207   */\n      pop\n      jump\t// out\n        /* \"#utility.yul\":7213:7354   */\n    tag_249:\n        /* \"#utility.yul\":7269:7274   */\n      0x00\n        /* \"#utility.yul\":7300:7306   */\n      dup2\n        /* \"#utility.yul\":7294:7307   */\n      mload\n        /* \"#utility.yul\":7285:7307   */\n      swap1\n      pop\n        /* \"#utility.yul\":7316:7348   */\n      tag_390\n        /* \"#utility.yul\":7342:7347   */\n      dup2\n        /* \"#utility.yul\":7316:7348   */\n      tag_248\n      jump\t// in\n    tag_390:\n        /* \"#utility.yul\":7213:7354   */\n      swap3\n      swap2\n      pop\n      pop\n      jump\t// out\n        /* \"#utility.yul\":7360:7503   */\n    tag_250:\n        /* \"#utility.yul\":7417:7422   */\n      0x00\n        /* \"#utility.yul\":7448:7454   */\n      dup2\n        /* \"#utility.yul\":7442:7455   */\n      mload\n        /* \"#utility.yul\":7433:7455   */\n      swap1\n      pop\n        /* \"#utility.yul\":7464:7497   */\n      tag_392\n        /* \"#utility.yul\":7491:7496   */\n      dup2\n        /* \"#utility.yul\":7464:7497   */\n      tag_232\n      jump\t// in\n    tag_392:\n        /* \"#utility.yul\":7360:7503   */\n      swap3\n      swap2\n      pop\n      pop\n      jump\t// out\n        /* \"#utility.yul\":7509:7625   */\n    tag_251:\n        /* \"#utility.yul\":7579:7600   */\n      tag_394\n        /* \"#utility.yul\":7594:7599   */\n      dup2\n        /* \"#utility.yul\":7579:7600   */\n      tag_225\n      jump\t// in\n    tag_394:\n        /* \"#utility.yul\":7572:7577   */\n      dup2\n        /* \"#utility.yul\":7569:7601   */\n      eq\n        /* \"#utility.yul\":7559:7619   */\n      tag_395\n      jumpi\n        /* \"#utility.yul\":7615:7616   */\n      0x00\n        /* \"#utility.yul\":7612:7613   */\n      dup1\n        /* \"#utility.yul\":7605:7617   */\n      revert\n        /* \"#utility.yul\":7559:7619   */\n    tag_395:\n        /* \"#utility.yul\":7509:7625   */\n      pop\n      jump\t// out\n        /* \"#utility.yul\":7631:7768   */\n    tag_252:\n        /* \"#utility.yul\":7685:7690   */\n      0x00\n        /* \"#utility.yul\":7716:7722   */\n      dup2\n        /* \"#utility.yul\":7710:7723   */\n      mload\n        /* \"#utility.yul\":7701:7723   */\n      swap1\n      pop\n        /* \"#utility.yul\":7732:7762   */\n      tag_397\n        /* \"#utility.yul\":7756:7761   */\n      dup2\n        /* \"#utility.yul\":7732:7762   */\n      tag_251\n      jump\t// in\n    tag_397:\n        /* \"#utility.yul\":7631:7768   */\n      swap3\n      swap2\n      pop\n      pop\n      jump\t// out\n        /* \"#utility.yul\":7774:7891   */\n    tag_253:\n        /* \"#utility.yul\":7883:7884   */\n      0x00\n        /* \"#utility.yul\":7880:7881   */\n      dup1\n        /* \"#utility.yul\":7873:7885   */\n      revert\n        /* \"#utility.yul\":7897:8014   */\n    tag_254:\n        /* \"#utility.yul\":8006:8007   */\n      0x00\n        /* \"#utility.yul\":8003:8004   */\n      dup1\n        /* \"#utility.yul\":7996:8008   */\n      revert\n        /* \"#utility.yul\":8020:8327   */\n    tag_255:\n        /* \"#utility.yul\":8081:8085   */\n      0x00\n        /* \"#utility.yul\":8171:8189   */\n      0xffffffffffffffff\n        /* \"#utility.yul\":8163:8169   */\n      dup3\n        /* \"#utility.yul\":8160:8190   */\n      gt\n        /* \"#utility.yul\":8157:8213   */\n      iszero\n      tag_401\n      jumpi\n        /* \"#utility.yul\":8193:8211   */\n      tag_402\n      tag_198\n      jump\t// in\n    tag_402:\n        /* \"#utility.yul\":8157:8213   */\n    tag_401:\n        /* \"#utility.yul\":8231:8260   */\n      tag_403\n        /* \"#utility.yul\":8253:8259   */\n      dup3\n        /* \"#utility.yul\":8231:8260   */\n      tag_242\n      jump\t// in\n    tag_403:\n        /* \"#utility.yul\":8223:8260   */\n      swap1\n      pop\n        /* \"#utility.yul\":8315:8319   */\n      0x20\n        /* \"#utility.yul\":8309:8313   */\n      dup2\n        /* \"#utility.yul\":8305:8320   */\n      add\n        /* \"#utility.yul\":8297:8320   */\n      swap1\n      pop\n        /* \"#utility.yul\":8020:8327   */\n      swap2\n      swap1\n      pop\n      jump\t// out\n        /* \"#utility.yul\":8333:8581   */\n    tag_256:\n        /* \"#utility.yul\":8415:8416   */\n      0x00\n        /* \"#utility.yul\":8425:8538   */\n    tag_405:\n        /* \"#utility.yul\":8439:8445   */\n      dup4\n        /* \"#utility.yul\":8436:8437   */\n      dup2\n        /* \"#utility.yul\":8433:8446   */\n      lt\n        /* \"#utility.yul\":8425:8538   */\n      iszero\n      tag_407\n      jumpi\n        /* \"#utility.yul\":8524:8525   */\n      dup1\n        /* \"#utility.yul\":8519:8522   */\n      dup3\n        /* \"#utility.yul\":8515:8526   */\n      add\n        /* \"#utility.yul\":8509:8527   */\n      mload\n        /* \"#utility.yul\":8505:8506   */\n      dup2\n        /* \"#utility.yul\":8500:8503   */\n      dup5\n        /* \"#utility.yul\":8496:8507   */\n      add\n        /* \"#utility.yul\":8489:8528   */\n      mstore\n        /* \"#utility.yul\":8461:8463   */\n      0x20\n        /* \"#utility.yul\":8458:8459   */\n      dup2\n        /* \"#utility.yul\":8454:8464   */\n      add\n        /* \"#utility.yul\":8449:8464   */\n      swap1\n      pop\n        /* \"#utility.yul\":8425:8538   */\n      jump(tag_405)\n    tag_407:\n        /* \"#utility.yul\":8572:8573   */\n      0x00\n        /* \"#utility.yul\":8563:8569   */\n      dup5\n        /* \"#utility.yul\":8558:8561   */\n      dup5\n        /* \"#utility.yul\":8554:8570   */\n      add\n        /* \"#utility.yul\":8547:8574   */\n      mstore\n        /* \"#utility.yul\":8395:8581   */\n      pop\n        /* \"#utility.yul\":8333:8581   */\n      pop\n      pop\n      pop\n      jump\t// out\n        /* \"#utility.yul\":8587:9019   */\n    tag_257:\n        /* \"#utility.yul\":8675:8680   */\n      0x00\n        /* \"#utility.yul\":8700:8765   */\n      tag_409\n        /* \"#utility.yul\":8716:8764   */\n      tag_410\n        /* \"#utility.yul\":8757:8763   */\n      dup5\n        /* \"#utility.yul\":8716:8764   */\n      tag_255\n      jump\t// in\n    tag_410:\n        /* \"#utility.yul\":8700:8765   */\n      tag_244\n      jump\t// in\n    tag_409:\n        /* \"#utility.yul\":8691:8765   */\n      swap1\n      pop\n        /* \"#utility.yul\":8788:8794   */\n      dup3\n        /* \"#utility.yul\":8781:8786   */\n      dup2\n        /* \"#utility.yul\":8774:8795   */\n      mstore\n        /* \"#utility.yul\":8826:8830   */\n      0x20\n        /* \"#utility.yul\":8819:8824   */\n      dup2\n        /* \"#utility.yul\":8815:8831   */\n      add\n        /* \"#utility.yul\":8864:8867   */\n      dup5\n        /* \"#utility.yul\":8855:8861   */\n      dup5\n        /* \"#utility.yul\":8850:8853   */\n      dup5\n        /* \"#utility.yul\":8846:8862   */\n      add\n        /* \"#utility.yul\":8843:8868   */\n      gt\n        /* \"#utility.yul\":8840:8952   */\n      iszero\n      tag_411\n      jumpi\n        /* \"#utility.yul\":8871:8950   */\n      tag_412\n      tag_254\n      jump\t// in\n    tag_412:\n        /* \"#utility.yul\":8840:8952   */\n    tag_411:\n        /* \"#utility.yul\":8961:9013   */\n      tag_413\n        /* \"#utility.yul\":9006:9012   */\n      dup5\n        /* \"#utility.yul\":9001:9004   */\n      dup3\n        /* \"#utility.yul\":8996:8999   */\n      dup6\n        /* \"#utility.yul\":8961:9013   */\n      tag_256\n      jump\t// in\n    tag_413:\n        /* \"#utility.yul\":8681:9019   */\n      pop\n        /* \"#utility.yul\":8587:9019   */\n      swap4\n      swap3\n      pop\n      pop\n      pop\n      jump\t// out\n        /* \"#utility.yul\":9038:9391   */\n    tag_258:\n        /* \"#utility.yul\":9104:9109   */\n      0x00\n        /* \"#utility.yul\":9153:9156   */\n      dup3\n        /* \"#utility.yul\":9146:9150   */\n      0x1f\n        /* \"#utility.yul\":9138:9144   */\n      dup4\n        /* \"#utility.yul\":9134:9151   */\n      add\n        /* \"#utility.yul\":9130:9157   */\n      slt\n        /* \"#utility.yul\":9120:9242   */\n      tag_415\n      jumpi\n        /* \"#utility.yul\":9161:9240   */\n      tag_416\n      tag_253\n      jump\t// in\n    tag_416:\n        /* \"#utility.yul\":9120:9242   */\n    tag_415:\n        /* \"#utility.yul\":9271:9277   */\n      dup2\n        /* \"#utility.yul\":9265:9278   */\n      mload\n        /* \"#utility.yul\":9296:9385   */\n      tag_417\n        /* \"#utility.yul\":9381:9384   */\n      dup5\n        /* \"#utility.yul\":9373:9379   */\n      dup3\n        /* \"#utility.yul\":9366:9370   */\n      0x20\n        /* \"#utility.yul\":9358:9364   */\n      dup7\n        /* \"#utility.yul\":9354:9371   */\n      add\n        /* \"#utility.yul\":9296:9385   */\n      tag_257\n      jump\t// in\n    tag_417:\n        /* \"#utility.yul\":9287:9385   */\n      swap2\n      pop\n        /* \"#utility.yul\":9110:9391   */\n      pop\n        /* \"#utility.yul\":9038:9391   */\n      swap3\n      swap2\n      pop\n      pop\n      jump\t// out\n        /* \"#utility.yul\":9423:11615   */\n    tag_259:\n        /* \"#utility.yul\":9510:9515   */\n      0x00\n        /* \"#utility.yul\":9554:9560   */\n      0x0140\n        /* \"#utility.yul\":9542:9551   */\n      dup3\n        /* \"#utility.yul\":9537:9540   */\n      dup5\n        /* \"#utility.yul\":9533:9552   */\n      sub\n        /* \"#utility.yul\":9529:9561   */\n      slt\n        /* \"#utility.yul\":9526:9645   */\n      iszero\n      tag_419\n      jumpi\n        /* \"#utility.yul\":9564:9643   */\n      tag_420\n      tag_241\n      jump\t// in\n    tag_420:\n        /* \"#utility.yul\":9526:9645   */\n    tag_419:\n        /* \"#utility.yul\":9663:9686   */\n      tag_421\n        /* \"#utility.yul\":9679:9685   */\n      0x0140\n        /* \"#utility.yul\":9663:9686   */\n      tag_244\n      jump\t// in\n    tag_421:\n        /* \"#utility.yul\":9654:9686   */\n      swap1\n      pop\n        /* \"#utility.yul\":9744:9745   */\n      0x00\n        /* \"#utility.yul\":9784:9844   */\n      tag_422\n        /* \"#utility.yul\":9840:9843   */\n      dup5\n        /* \"#utility.yul\":9831:9837   */\n      dup3\n        /* \"#utility.yul\":9820:9829   */\n      dup6\n        /* \"#utility.yul\":9816:9838   */\n      add\n        /* \"#utility.yul\":9784:9844   */\n      tag_246\n      jump\t// in\n    tag_422:\n        /* \"#utility.yul\":9777:9781   */\n      0x00\n        /* \"#utility.yul\":9770:9775   */\n      dup4\n        /* \"#utility.yul\":9766:9782   */\n      add\n        /* \"#utility.yul\":9759:9845   */\n      mstore\n        /* \"#utility.yul\":9696:9856   */\n      pop\n        /* \"#utility.yul\":9917:9919   */\n      0x20\n        /* \"#utility.yul\":9958:10018   */\n      tag_423\n        /* \"#utility.yul\":10014:10017   */\n      dup5\n        /* \"#utility.yul\":10005:10011   */\n      dup3\n        /* \"#utility.yul\":9994:10003   */\n      dup6\n        /* \"#utility.yul\":9990:10012   */\n      add\n        /* \"#utility.yul\":9958:10018   */\n      tag_246\n      jump\t// in\n    tag_423:\n        /* \"#utility.yul\":9951:9955   */\n      0x20\n        /* \"#utility.yul\":9944:9949   */\n      dup4\n        /* \"#utility.yul\":9940:9956   */\n      add\n        /* \"#utility.yul\":9933:10019   */\n      mstore\n        /* \"#utility.yul\":9866:10030   */\n      pop\n        /* \"#utility.yul\":10089:10091   */\n      0x40\n        /* \"#utility.yul\":10130:10189   */\n      tag_424\n        /* \"#utility.yul\":10185:10188   */\n      dup5\n        /* \"#utility.yul\":10176:10182   */\n      dup3\n        /* \"#utility.yul\":10165:10174   */\n      dup6\n        /* \"#utility.yul\":10161:10183   */\n      add\n        /* \"#utility.yul\":10130:10189   */\n      tag_249\n      jump\t// in\n    tag_424:\n        /* \"#utility.yul\":10123:10127   */\n      0x40\n        /* \"#utility.yul\":10116:10121   */\n      dup4\n        /* \"#utility.yul\":10112:10128   */\n      add\n        /* \"#utility.yul\":10105:10190   */\n      mstore\n        /* \"#utility.yul\":10040:10201   */\n      pop\n        /* \"#utility.yul\":10270:10272   */\n      0x60\n        /* \"#utility.yul\":10311:10370   */\n      tag_425\n        /* \"#utility.yul\":10366:10369   */\n      dup5\n        /* \"#utility.yul\":10357:10363   */\n      dup3\n        /* \"#utility.yul\":10346:10355   */\n      dup6\n        /* \"#utility.yul\":10342:10364   */\n      add\n        /* \"#utility.yul\":10311:10370   */\n      tag_249\n      jump\t// in\n    tag_425:\n        /* \"#utility.yul\":10304:10308   */\n      0x60\n        /* \"#utility.yul\":10297:10302   */\n      dup4\n        /* \"#utility.yul\":10293:10309   */\n      add\n        /* \"#utility.yul\":10286:10371   */\n      mstore\n        /* \"#utility.yul\":10211:10382   */\n      pop\n        /* \"#utility.yul\":10451:10454   */\n      0x80\n        /* \"#utility.yul\":10493:10552   */\n      tag_426\n        /* \"#utility.yul\":10548:10551   */\n      dup5\n        /* \"#utility.yul\":10539:10545   */\n      dup3\n        /* \"#utility.yul\":10528:10537   */\n      dup6\n        /* \"#utility.yul\":10524:10546   */\n      add\n        /* \"#utility.yul\":10493:10552   */\n      tag_249\n      jump\t// in\n    tag_426:\n        /* \"#utility.yul\":10486:10490   */\n      0x80\n        /* \"#utility.yul\":10479:10484   */\n      dup4\n        /* \"#utility.yul\":10475:10491   */\n      add\n        /* \"#utility.yul\":10468:10553   */\n      mstore\n        /* \"#utility.yul\":10392:10564   */\n      pop\n        /* \"#utility.yul\":10625:10628   */\n      0xa0\n        /* \"#utility.yul\":10667:10727   */\n      tag_427\n        /* \"#utility.yul\":10723:10726   */\n      dup5\n        /* \"#utility.yul\":10714:10720   */\n      dup3\n        /* \"#utility.yul\":10703:10712   */\n      dup6\n        /* \"#utility.yul\":10699:10721   */\n      add\n        /* \"#utility.yul\":10667:10727   */\n      tag_246\n      jump\t// in\n    tag_427:\n        /* \"#utility.yul\":10660:10664   */\n      0xa0\n        /* \"#utility.yul\":10653:10658   */\n      dup4\n        /* \"#utility.yul\":10649:10665   */\n      add\n        /* \"#utility.yul\":10642:10728   */\n      mstore\n        /* \"#utility.yul\":10574:10739   */\n      pop\n        /* \"#utility.yul\":10803:10806   */\n      0xc0\n        /* \"#utility.yul\":10845:10905   */\n      tag_428\n        /* \"#utility.yul\":10901:10904   */\n      dup5\n        /* \"#utility.yul\":10892:10898   */\n      dup3\n        /* \"#utility.yul\":10881:10890   */\n      dup6\n        /* \"#utility.yul\":10877:10899   */\n      add\n        /* \"#utility.yul\":10845:10905   */\n      tag_250\n      jump\t// in\n    tag_428:\n        /* \"#utility.yul\":10838:10842   */\n      0xc0\n        /* \"#utility.yul\":10831:10836   */\n      dup4\n        /* \"#utility.yul\":10827:10843   */\n      add\n        /* \"#utility.yul\":10820:10906   */\n      mstore\n        /* \"#utility.yul\":10749:10917   */\n      pop\n        /* \"#utility.yul\":10980:10983   */\n      0xe0\n        /* \"#utility.yul\":11022:11082   */\n      tag_429\n        /* \"#utility.yul\":11078:11081   */\n      dup5\n        /* \"#utility.yul\":11069:11075   */\n      dup3\n        /* \"#utility.yul\":11058:11067   */\n      dup6\n        /* \"#utility.yul\":11054:11076   */\n      add\n        /* \"#utility.yul\":11022:11082   */\n      tag_250\n      jump\t// in\n    tag_429:\n        /* \"#utility.yul\":11015:11019   */\n      0xe0\n        /* \"#utility.yul\":11008:11013   */\n      dup4\n        /* \"#utility.yul\":11004:11020   */\n      add\n        /* \"#utility.yul\":10997:11083   */\n      mstore\n        /* \"#utility.yul\":10927:11094   */\n      pop\n        /* \"#utility.yul\":11158:11161   */\n      0x0100\n        /* \"#utility.yul\":11202:11259   */\n      tag_430\n        /* \"#utility.yul\":11255:11258   */\n      dup5\n        /* \"#utility.yul\":11246:11252   */\n      dup3\n        /* \"#utility.yul\":11235:11244   */\n      dup6\n        /* \"#utility.yul\":11231:11253   */\n      add\n        /* \"#utility.yul\":11202:11259   */\n      tag_252\n      jump\t// in\n    tag_430:\n        /* \"#utility.yul\":11193:11199   */\n      0x0100\n        /* \"#utility.yul\":11186:11191   */\n      dup4\n        /* \"#utility.yul\":11182:11200   */\n      add\n        /* \"#utility.yul\":11175:11260   */\n      mstore\n        /* \"#utility.yul\":11104:11271   */\n      pop\n        /* \"#utility.yul\":11351:11354   */\n      0x0120\n        /* \"#utility.yul\":11340:11349   */\n      dup3\n        /* \"#utility.yul\":11336:11355   */\n      add\n        /* \"#utility.yul\":11330:11356   */\n      mload\n        /* \"#utility.yul\":11383:11401   */\n      0xffffffffffffffff\n        /* \"#utility.yul\":11375:11381   */\n      dup2\n        /* \"#utility.yul\":11372:11402   */\n      gt\n        /* \"#utility.yul\":11369:11486   */\n      iszero\n      tag_431\n      jumpi\n        /* \"#utility.yul\":11405:11484   */\n      tag_432\n      tag_245\n      jump\t// in\n    tag_432:\n        /* \"#utility.yul\":11369:11486   */\n    tag_431:\n        /* \"#utility.yul\":11527:11596   */\n      tag_433\n        /* \"#utility.yul\":11592:11595   */\n      dup5\n        /* \"#utility.yul\":11583:11589   */\n      dup3\n        /* \"#utility.yul\":11572:11581   */\n      dup6\n        /* \"#utility.yul\":11568:11590   */\n      add\n        /* \"#utility.yul\":11527:11596   */\n      tag_258\n      jump\t// in\n    tag_433:\n        /* \"#utility.yul\":11518:11524   */\n      0x0120\n        /* \"#utility.yul\":11511:11516   */\n      dup4\n        /* \"#utility.yul\":11507:11525   */\n      add\n        /* \"#utility.yul\":11500:11597   */\n      mstore\n        /* \"#utility.yul\":11281:11608   */\n      pop\n        /* \"#utility.yul\":9423:11615   */\n      swap3\n      swap2\n      pop\n      pop\n      jump\t// out\n        /* \"#utility.yul\":11621:12179   */\n    tag_93:\n        /* \"#utility.yul\":11718:11724   */\n      0x00\n        /* \"#utility.yul\":11767:11769   */\n      0x20\n        /* \"#utility.yul\":11755:11764   */\n      dup3\n        /* \"#utility.yul\":11746:11753   */\n      dup5\n        /* \"#utility.yul\":11742:11765   */\n      sub\n        /* \"#utility.yul\":11738:11770   */\n      slt\n        /* \"#utility.yul\":11735:11854   */\n      iszero\n      tag_435\n      jumpi\n        /* \"#utility.yul\":11773:11852   */\n      tag_436\n      tag_220\n      jump\t// in\n    tag_436:\n        /* \"#utility.yul\":11735:11854   */\n    tag_435:\n        /* \"#utility.yul\":11914:11915   */\n      0x00\n        /* \"#utility.yul\":11903:11912   */\n      dup3\n        /* \"#utility.yul\":11899:11916   */\n      add\n        /* \"#utility.yul\":11893:11917   */\n      mload\n        /* \"#utility.yul\":11944:11962   */\n      0xffffffffffffffff\n        /* \"#utility.yul\":11936:11942   */\n      dup2\n        /* \"#utility.yul\":11933:11963   */\n      gt\n        /* \"#utility.yul\":11930:12047   */\n      iszero\n      tag_437\n      jumpi\n        /* \"#utility.yul\":11966:12045   */\n      tag_438\n      tag_221\n      jump\t// in\n    tag_438:\n        /* \"#utility.yul\":11930:12047   */\n    tag_437:\n        /* \"#utility.yul\":12071:12162   */\n      tag_439\n        /* \"#utility.yul\":12154:12161   */\n      dup5\n        /* \"#utility.yul\":12145:12151   */\n      dup3\n        /* \"#utility.yul\":12134:12143   */\n      dup6\n        /* \"#utility.yul\":12130:12152   */\n      add\n        /* \"#utility.yul\":12071:12162   */\n      tag_259\n      jump\t// in\n    tag_439:\n        /* \"#utility.yul\":12061:12162   */\n      swap2\n      pop\n        /* \"#utility.yul\":11864:12172   */\n      pop\n        /* \"#utility.yul\":11621:12179   */\n      swap3\n      swap2\n      pop\n      pop\n      jump\t// out\n        /* \"#utility.yul\":12185:12419   */\n    tag_260:\n        /* \"#utility.yul\":12325:12359   */\n      0x416363657373436f6e74726f6c3a2063616e206f6e6c792072656e6f756e6365\n        /* \"#utility.yul\":12321:12322   */\n      0x00\n        /* \"#utility.yul\":12313:12319   */\n      dup3\n        /* \"#utility.yul\":12309:12323   */\n      add\n        /* \"#utility.yul\":12302:12360   */\n      mstore\n        /* \"#utility.yul\":12394:12411   */\n      0x20726f6c657320666f722073656c660000000000000000000000000000000000\n        /* \"#utility.yul\":12389:12391   */\n      0x20\n        /* \"#utility.yul\":12381:12387   */\n      dup3\n        /* \"#utility.yul\":12377:12392   */\n      add\n        /* \"#utility.yul\":12370:12412   */\n      mstore\n        /* \"#utility.yul\":12185:12419   */\n      pop\n      jump\t// out\n        /* \"#utility.yul\":12425:12791   */\n    tag_261:\n        /* \"#utility.yul\":12567:12570   */\n      0x00\n        /* \"#utility.yul\":12588:12655   */\n      tag_442\n        /* \"#utility.yul\":12652:12654   */\n      0x2f\n        /* \"#utility.yul\":12647:12650   */\n      dup4\n        /* \"#utility.yul\":12588:12655   */\n      tag_238\n      jump\t// in\n    tag_442:\n        /* \"#utility.yul\":12581:12655   */\n      swap2\n      pop\n        /* \"#utility.yul\":12664:12757   */\n      tag_443\n        /* \"#utility.yul\":12753:12756   */\n      dup3\n        /* \"#utility.yul\":12664:12757   */\n      tag_260\n      jump\t// in\n    tag_443:\n        /* \"#utility.yul\":12782:12784   */\n      0x40\n        /* \"#utility.yul\":12777:12780   */\n      dup3\n        /* \"#utility.yul\":12773:12785   */\n      add\n        /* \"#utility.yul\":12766:12785   */\n      swap1\n      pop\n        /* \"#utility.yul\":12425:12791   */\n      swap2\n      swap1\n      pop\n      jump\t// out\n        /* \"#utility.yul\":12797:13216   */\n    tag_113:\n        /* \"#utility.yul\":12963:12967   */\n      0x00\n        /* \"#utility.yul\":13001:13003   */\n      0x20\n        /* \"#utility.yul\":12990:12999   */\n      dup3\n        /* \"#utility.yul\":12986:13004   */\n      add\n        /* \"#utility.yul\":12978:13004   */\n      swap1\n      pop\n        /* \"#utility.yul\":13050:13059   */\n      dup2\n        /* \"#utility.yul\":13044:13048   */\n      dup2\n        /* \"#utility.yul\":13040:13060   */\n      sub\n        /* \"#utility.yul\":13036:13037   */\n      0x00\n        /* \"#utility.yul\":13025:13034   */\n      dup4\n        /* \"#utility.yul\":13021:13038   */\n      add\n        /* \"#utility.yul\":13014:13061   */\n      mstore\n        /* \"#utility.yul\":13078:13209   */\n      tag_445\n        /* \"#utility.yul\":13204:13208   */\n      dup2\n        /* \"#utility.yul\":13078:13209   */\n      tag_261\n      jump\t// in\n    tag_445:\n        /* \"#utility.yul\":13070:13209   */\n      swap1\n      pop\n        /* \"#utility.yul\":12797:13216   */\n      swap2\n      swap1\n      pop\n      jump\t// out\n        /* \"#utility.yul\":13222:13446   */\n    tag_262:\n        /* \"#utility.yul\":13362:13396   */\n      0x4e6f7420617574686f72697a656420746f206372656174652061747465737461\n        /* \"#utility.yul\":13358:13359   */\n      0x00\n        /* \"#utility.yul\":13350:13356   */\n      dup3\n        /* \"#utility.yul\":13346:13360   */\n      add\n        /* \"#utility.yul\":13339:13397   */\n      mstore\n        /* \"#utility.yul\":13431:13438   */\n      0x74696f6e73000000000000000000000000000000000000000000000000000000\n        /* \"#utility.yul\":13426:13428   */\n      0x20\n        /* \"#utility.yul\":13418:13424   */\n      dup3\n        /* \"#utility.yul\":13414:13429   */\n      add\n        /* \"#utility.yul\":13407:13439   */\n      mstore\n        /* \"#utility.yul\":13222:13446   */\n      pop\n      jump\t// out\n        /* \"#utility.yul\":13452:13818   */\n    tag_263:\n        /* \"#utility.yul\":13594:13597   */\n      0x00\n        /* \"#utility.yul\":13615:13682   */\n      tag_448\n        /* \"#utility.yul\":13679:13681   */\n      0x25\n        /* \"#utility.yul\":13674:13677   */\n      dup4\n        /* \"#utility.yul\":13615:13682   */\n      tag_238\n      jump\t// in\n    tag_448:\n        /* \"#utility.yul\":13608:13682   */\n      swap2\n      pop\n        /* \"#utility.yul\":13691:13784   */\n      tag_449\n        /* \"#utility.yul\":13780:13783   */\n      dup3\n        /* \"#utility.yul\":13691:13784   */\n      tag_262\n      jump\t// in\n    tag_449:\n        /* \"#utility.yul\":13809:13811   */\n      0x40\n        /* \"#utility.yul\":13804:13807   */\n      dup3\n        /* \"#utility.yul\":13800:13812   */\n      add\n        /* \"#utility.yul\":13793:13812   */\n      swap1\n      pop\n        /* \"#utility.yul\":13452:13818   */\n      swap2\n      swap1\n      pop\n      jump\t// out\n        /* \"#utility.yul\":13824:14243   */\n    tag_120:\n        /* \"#utility.yul\":13990:13994   */\n      0x00\n        /* \"#utility.yul\":14028:14030   */\n      0x20\n        /* \"#utility.yul\":14017:14026   */\n      dup3\n        /* \"#utility.yul\":14013:14031   */\n      add\n        /* \"#utility.yul\":14005:14031   */\n      swap1\n      pop\n        /* \"#utility.yul\":14077:14086   */\n      dup2\n        /* \"#utility.yul\":14071:14075   */\n      dup2\n        /* \"#utility.yul\":14067:14087   */\n      sub\n        /* \"#utility.yul\":14063:14064   */\n      0x00\n        /* \"#utility.yul\":14052:14061   */\n      dup4\n        /* \"#utility.yul\":14048:14065   */\n      add\n        /* \"#utility.yul\":14041:14088   */\n      mstore\n        /* \"#utility.yul\":14105:14236   */\n      tag_451\n        /* \"#utility.yul\":14231:14235   */\n      dup2\n        /* \"#utility.yul\":14105:14236   */\n      tag_263\n      jump\t// in\n    tag_451:\n        /* \"#utility.yul\":14097:14236   */\n      swap1\n      pop\n        /* \"#utility.yul\":13824:14243   */\n      swap2\n      swap1\n      pop\n      jump\t// out\n        /* \"#utility.yul\":14249:14417   */\n    tag_264:\n        /* \"#utility.yul\":14389:14409   */\n      0x536368656d61206e6f7420637265617465640000000000000000000000000000\n        /* \"#utility.yul\":14385:14386   */\n      0x00\n        /* \"#utility.yul\":14377:14383   */\n      dup3\n        /* \"#utility.yul\":14373:14387   */\n      add\n        /* \"#utility.yul\":14366:14410   */\n      mstore\n        /* \"#utility.yul\":14249:14417   */\n      pop\n      jump\t// out\n        /* \"#utility.yul\":14423:14789   */\n    tag_265:\n        /* \"#utility.yul\":14565:14568   */\n      0x00\n        /* \"#utility.yul\":14586:14653   */\n      tag_454\n        /* \"#utility.yul\":14650:14652   */\n      0x12\n        /* \"#utility.yul\":14645:14648   */\n      dup4\n        /* \"#utility.yul\":14586:14653   */\n      tag_238\n      jump\t// in\n    tag_454:\n        /* \"#utility.yul\":14579:14653   */\n      swap2\n      pop\n        /* \"#utility.yul\":14662:14755   */\n      tag_455\n        /* \"#utility.yul\":14751:14754   */\n      dup3\n        /* \"#utility.yul\":14662:14755   */\n      tag_264\n      jump\t// in\n    tag_455:\n        /* \"#utility.yul\":14780:14782   */\n      0x20\n        /* \"#utility.yul\":14775:14778   */\n      dup3\n        /* \"#utility.yul\":14771:14783   */\n      add\n        /* \"#utility.yul\":14764:14783   */\n      swap1\n      pop\n        /* \"#utility.yul\":14423:14789   */\n      swap2\n      swap1\n      pop\n      jump\t// out\n        /* \"#utility.yul\":14795:15214   */\n    tag_123:\n        /* \"#utility.yul\":14961:14965   */\n      0x00\n        /* \"#utility.yul\":14999:15001   */\n      0x20\n        /* \"#utility.yul\":14988:14997   */\n      dup3\n        /* \"#utility.yul\":14984:15002   */\n      add\n        /* \"#utility.yul\":14976:15002   */\n      swap1\n      pop\n        /* \"#utility.yul\":15048:15057   */\n      dup2\n        /* \"#utility.yul\":15042:15046   */\n      dup2\n        /* \"#utility.yul\":15038:15058   */\n      sub\n        /* \"#utility.yul\":15034:15035   */\n      0x00\n        /* \"#utility.yul\":15023:15032   */\n      dup4\n        /* \"#utility.yul\":15019:15036   */\n      add\n        /* \"#utility.yul\":15012:15059   */\n      mstore\n        /* \"#utility.yul\":15076:15207   */\n      tag_457\n        /* \"#utility.yul\":15202:15206   */\n      dup2\n        /* \"#utility.yul\":15076:15207   */\n      tag_265\n      jump\t// in\n    tag_457:\n        /* \"#utility.yul\":15068:15207   */\n      swap1\n      pop\n        /* \"#utility.yul\":14795:15214   */\n      swap2\n      swap1\n      pop\n      jump\t// out\n        /* \"#utility.yul\":15220:15387   */\n    tag_266:\n        /* \"#utility.yul\":15360:15379   */\n      0x496e76616c696420726563697069656e74000000000000000000000000000000\n        /* \"#utility.yul\":15356:15357   */\n      0x00\n        /* \"#utility.yul\":15348:15354   */\n      dup3\n        /* \"#utility.yul\":15344:15358   */\n      add\n        /* \"#utility.yul\":15337:15380   */\n      mstore\n        /* \"#utility.yul\":15220:15387   */\n      pop\n      jump\t// out\n        /* \"#utility.yul\":15393:15759   */\n    tag_267:\n        /* \"#utility.yul\":15535:15538   */\n      0x00\n        /* \"#utility.yul\":15556:15623   */\n      tag_460\n        /* \"#utility.yul\":15620:15622   */\n      0x11\n        /* \"#utility.yul\":15615:15618   */\n      dup4\n        /* \"#utility.yul\":15556:15623   */\n      tag_238\n      jump\t// in\n    tag_460:\n        /* \"#utility.yul\":15549:15623   */\n      swap2\n      pop\n        /* \"#utility.yul\":15632:15725   */\n      tag_461\n        /* \"#utility.yul\":15721:15724   */\n      dup3\n        /* \"#utility.yul\":15632:15725   */\n      tag_266\n      jump\t// in\n    tag_461:\n        /* \"#utility.yul\":15750:15752   */\n      0x20\n        /* \"#utility.yul\":15745:15748   */\n      dup3\n        /* \"#utility.yul\":15741:15753   */\n      add\n        /* \"#utility.yul\":15734:15753   */\n      swap1\n      pop\n        /* \"#utility.yul\":15393:15759   */\n      swap2\n      swap1\n      pop\n      jump\t// out\n        /* \"#utility.yul\":15765:16184   */\n    tag_126:\n        /* \"#utility.yul\":15931:15935   */\n      0x00\n        /* \"#utility.yul\":15969:15971   */\n      0x20\n        /* \"#utility.yul\":15958:15967   */\n      dup3\n        /* \"#utility.yul\":15954:15972   */\n      add\n        /* \"#utility.yul\":15946:15972   */\n      swap1\n      pop\n        /* \"#utility.yul\":16018:16027   */\n      dup2\n        /* \"#utility.yul\":16012:16016   */\n      dup2\n        /* \"#utility.yul\":16008:16028   */\n      sub\n        /* \"#utility.yul\":16004:16005   */\n      0x00\n        /* \"#utility.yul\":15993:16002   */\n      dup4\n        /* \"#utility.yul\":15989:16006   */\n      add\n        /* \"#utility.yul\":15982:16029   */\n      mstore\n        /* \"#utility.yul\":16046:16177   */\n      tag_463\n        /* \"#utility.yul\":16172:16176   */\n      dup2\n        /* \"#utility.yul\":16046:16177   */\n      tag_267\n      jump\t// in\n    tag_463:\n        /* \"#utility.yul\":16038:16177   */\n      swap1\n      pop\n        /* \"#utility.yul\":15765:16184   */\n      swap2\n      swap1\n      pop\n      jump\t// out\n        /* \"#utility.yul\":16190:16356   */\n    tag_268:\n        /* \"#utility.yul\":16330:16348   */\n      0x496e76616c696420746f6b656e20494400000000000000000000000000000000\n        /* \"#utility.yul\":16326:16327   */\n      0x00\n        /* \"#utility.yul\":16318:16324   */\n      dup3\n        /* \"#utility.yul\":16314:16328   */\n      add\n        /* \"#utility.yul\":16307:16349   */\n      mstore\n        /* \"#utility.yul\":16190:16356   */\n      pop\n      jump\t// out\n        /* \"#utility.yul\":16362:16728   */\n    tag_269:\n        /* \"#utility.yul\":16504:16507   */\n      0x00\n        /* \"#utility.yul\":16525:16592   */\n      tag_466\n        /* \"#utility.yul\":16589:16591   */\n      0x10\n        /* \"#utility.yul\":16584:16587   */\n      dup4\n        /* \"#utility.yul\":16525:16592   */\n      tag_238\n      jump\t// in\n    tag_466:\n        /* \"#utility.yul\":16518:16592   */\n      swap2\n      pop\n        /* \"#utility.yul\":16601:16694   */\n      tag_467\n        /* \"#utility.yul\":16690:16693   */\n      dup3\n        /* \"#utility.yul\":16601:16694   */\n      tag_268\n      jump\t// in\n    tag_467:\n        /* \"#utility.yul\":16719:16721   */\n      0x20\n        /* \"#utility.yul\":16714:16717   */\n      dup3\n        /* \"#utility.yul\":16710:16722   */\n      add\n        /* \"#utility.yul\":16703:16722   */\n      swap1\n      pop\n        /* \"#utility.yul\":16362:16728   */\n      swap2\n      swap1\n      pop\n      jump\t// out\n        /* \"#utility.yul\":16734:17153   */\n    tag_129:\n        /* \"#utility.yul\":16900:16904   */\n      0x00\n        /* \"#utility.yul\":16938:16940   */\n      0x20\n        /* \"#utility.yul\":16927:16936   */\n      dup3\n        /* \"#utility.yul\":16923:16941   */\n      add\n        /* \"#utility.yul\":16915:16941   */\n      swap1\n      pop\n        /* \"#utility.yul\":16987:16996   */\n      dup2\n        /* \"#utility.yul\":16981:16985   */\n      dup2\n        /* \"#utility.yul\":16977:16997   */\n      sub\n        /* \"#utility.yul\":16973:16974   */\n      0x00\n        /* \"#utility.yul\":16962:16971   */\n      dup4\n        /* \"#utility.yul\":16958:16975   */\n      add\n        /* \"#utility.yul\":16951:16998   */\n      mstore\n        /* \"#utility.yul\":17015:17146   */\n      tag_469\n        /* \"#utility.yul\":17141:17145   */\n      dup2\n        /* \"#utility.yul\":17015:17146   */\n      tag_269\n      jump\t// in\n    tag_469:\n        /* \"#utility.yul\":17007:17146   */\n      swap1\n      pop\n        /* \"#utility.yul\":16734:17153   */\n      swap2\n      swap1\n      pop\n      jump\t// out\n        /* \"#utility.yul\":17159:17277   */\n    tag_270:\n        /* \"#utility.yul\":17246:17270   */\n      tag_471\n        /* \"#utility.yul\":17264:17269   */\n      dup2\n        /* \"#utility.yul\":17246:17270   */\n      tag_231\n      jump\t// in\n    tag_471:\n        /* \"#utility.yul\":17241:17244   */\n      dup3\n        /* \"#utility.yul\":17234:17271   */\n      mstore\n        /* \"#utility.yul\":17159:17277   */\n      pop\n      pop\n      jump\t// out\n        /* \"#utility.yul\":17283:17401   */\n    tag_271:\n        /* \"#utility.yul\":17370:17394   */\n      tag_473\n        /* \"#utility.yul\":17388:17393   */\n      dup2\n        /* \"#utility.yul\":17370:17394   */\n      tag_235\n      jump\t// in\n    tag_473:\n        /* \"#utility.yul\":17365:17368   */\n      dup3\n        /* \"#utility.yul\":17358:17395   */\n      mstore\n        /* \"#utility.yul\":17283:17401   */\n      pop\n      pop\n      jump\t// out\n        /* \"#utility.yul\":17407:17960   */\n    tag_131:\n        /* \"#utility.yul\":17584:17588   */\n      0x00\n        /* \"#utility.yul\":17622:17625   */\n      0x80\n        /* \"#utility.yul\":17611:17620   */\n      dup3\n        /* \"#utility.yul\":17607:17626   */\n      add\n        /* \"#utility.yul\":17599:17626   */\n      swap1\n      pop\n        /* \"#utility.yul\":17636:17707   */\n      tag_475\n        /* \"#utility.yul\":17704:17705   */\n      0x00\n        /* \"#utility.yul\":17693:17702   */\n      dup4\n        /* \"#utility.yul\":17689:17706   */\n      add\n        /* \"#utility.yul\":17680:17686   */\n      dup8\n        /* \"#utility.yul\":17636:17707   */\n      tag_270\n      jump\t// in\n    tag_475:\n        /* \"#utility.yul\":17717:17789   */\n      tag_476\n        /* \"#utility.yul\":17785:17787   */\n      0x20\n        /* \"#utility.yul\":17774:17783   */\n      dup4\n        /* \"#utility.yul\":17770:17788   */\n      add\n        /* \"#utility.yul\":17761:17767   */\n      dup7\n        /* \"#utility.yul\":17717:17789   */\n      tag_271\n      jump\t// in\n    tag_476:\n        /* \"#utility.yul\":17799:17871   */\n      tag_477\n        /* \"#utility.yul\":17867:17869   */\n      0x40\n        /* \"#utility.yul\":17856:17865   */\n      dup4\n        /* \"#utility.yul\":17852:17870   */\n      add\n        /* \"#utility.yul\":17843:17849   */\n      dup6\n        /* \"#utility.yul\":17799:17871   */\n      tag_271\n      jump\t// in\n    tag_477:\n        /* \"#utility.yul\":17881:17953   */\n      tag_478\n        /* \"#utility.yul\":17949:17951   */\n      0x60\n        /* \"#utility.yul\":17938:17947   */\n      dup4\n        /* \"#utility.yul\":17934:17952   */\n      add\n        /* \"#utility.yul\":17925:17931   */\n      dup5\n        /* \"#utility.yul\":17881:17953   */\n      tag_270\n      jump\t// in\n    tag_478:\n        /* \"#utility.yul\":17407:17960   */\n      swap6\n      swap5\n      pop\n      pop\n      pop\n      pop\n      pop\n      jump\t// out\n        /* \"#utility.yul\":17966:18074   */\n    tag_272:\n        /* \"#utility.yul\":18043:18067   */\n      tag_480\n        /* \"#utility.yul\":18061:18066   */\n      dup2\n        /* \"#utility.yul\":18043:18067   */\n      tag_227\n      jump\t// in\n    tag_480:\n        /* \"#utility.yul\":18038:18041   */\n      dup3\n        /* \"#utility.yul\":18031:18068   */\n      mstore\n        /* \"#utility.yul\":17966:18074   */\n      pop\n      pop\n      jump\t// out\n        /* \"#utility.yul\":18080:18188   */\n    tag_273:\n        /* \"#utility.yul\":18157:18181   */\n      tag_482\n        /* \"#utility.yul\":18175:18180   */\n      dup2\n        /* \"#utility.yul\":18157:18181   */\n      tag_231\n      jump\t// in\n    tag_482:\n        /* \"#utility.yul\":18152:18155   */\n      dup3\n        /* \"#utility.yul\":18145:18182   */\n      mstore\n        /* \"#utility.yul\":18080:18188   */\n      pop\n      pop\n      jump\t// out\n        /* \"#utility.yul\":18194:18299   */\n    tag_274:\n        /* \"#utility.yul\":18269:18292   */\n      tag_484\n        /* \"#utility.yul\":18286:18291   */\n      dup2\n        /* \"#utility.yul\":18269:18292   */\n      tag_247\n      jump\t// in\n    tag_484:\n        /* \"#utility.yul\":18264:18267   */\n      dup3\n        /* \"#utility.yul\":18257:18293   */\n      mstore\n        /* \"#utility.yul\":18194:18299   */\n      pop\n      pop\n      jump\t// out\n        /* \"#utility.yul\":18305:18404   */\n    tag_275:\n        /* \"#utility.yul\":18376:18397   */\n      tag_486\n        /* \"#utility.yul\":18391:18396   */\n      dup2\n        /* \"#utility.yul\":18376:18397   */\n      tag_225\n      jump\t// in\n    tag_486:\n        /* \"#utility.yul\":18371:18374   */\n      dup3\n        /* \"#utility.yul\":18364:18398   */\n      mstore\n        /* \"#utility.yul\":18305:18404   */\n      pop\n      pop\n      jump\t// out\n        /* \"#utility.yul\":18410:18508   */\n    tag_276:\n        /* \"#utility.yul\":18461:18467   */\n      0x00\n        /* \"#utility.yul\":18495:18500   */\n      dup2\n        /* \"#utility.yul\":18489:18501   */\n      mload\n        /* \"#utility.yul\":18479:18501   */\n      swap1\n      pop\n        /* \"#utility.yul\":18410:18508   */\n      swap2\n      swap1\n      pop\n      jump\t// out\n        /* \"#utility.yul\":18514:18672   */\n    tag_277:\n        /* \"#utility.yul\":18587:18598   */\n      0x00\n        /* \"#utility.yul\":18621:18627   */\n      dup3\n        /* \"#utility.yul\":18616:18619   */\n      dup3\n        /* \"#utility.yul\":18609:18628   */\n      mstore\n        /* \"#utility.yul\":18661:18665   */\n      0x20\n        /* \"#utility.yul\":18656:18659   */\n      dup3\n        /* \"#utility.yul\":18652:18666   */\n      add\n        /* \"#utility.yul\":18637:18666   */\n      swap1\n      pop\n        /* \"#utility.yul\":18514:18672   */\n      swap3\n      swap2\n      pop\n      pop\n      jump\t// out\n        /* \"#utility.yul\":18678:19031   */\n    tag_278:\n        /* \"#utility.yul\":18754:18757   */\n      0x00\n        /* \"#utility.yul\":18782:18820   */\n      tag_490\n        /* \"#utility.yul\":18814:18819   */\n      dup3\n        /* \"#utility.yul\":18782:18820   */\n      tag_276\n      jump\t// in\n    tag_490:\n        /* \"#utility.yul\":18836:18896   */\n      tag_491\n        /* \"#utility.yul\":18889:18895   */\n      dup2\n        /* \"#utility.yul\":18884:18887   */\n      dup6\n        /* \"#utility.yul\":18836:18896   */\n      tag_277\n      jump\t// in\n    tag_491:\n        /* \"#utility.yul\":18829:18896   */\n      swap4\n      pop\n        /* \"#utility.yul\":18905:18970   */\n      tag_492\n        /* \"#utility.yul\":18963:18969   */\n      dup2\n        /* \"#utility.yul\":18958:18961   */\n      dup6\n        /* \"#utility.yul\":18951:18955   */\n      0x20\n        /* \"#utility.yul\":18944:18949   */\n      dup7\n        /* \"#utility.yul\":18940:18956   */\n      add\n        /* \"#utility.yul\":18905:18970   */\n      tag_256\n      jump\t// in\n    tag_492:\n        /* \"#utility.yul\":18995:19024   */\n      tag_493\n        /* \"#utility.yul\":19017:19023   */\n      dup2\n        /* \"#utility.yul\":18995:19024   */\n      tag_242\n      jump\t// in\n    tag_493:\n        /* \"#utility.yul\":18990:18993   */\n      dup5\n        /* \"#utility.yul\":18986:19025   */\n      add\n        /* \"#utility.yul\":18979:19025   */\n      swap2\n      pop\n        /* \"#utility.yul\":18758:19031   */\n      pop\n        /* \"#utility.yul\":18678:19031   */\n      swap3\n      swap2\n      pop\n      pop\n      jump\t// out\n        /* \"#utility.yul\":19037:19145   */\n    tag_279:\n        /* \"#utility.yul\":19114:19138   */\n      tag_495\n        /* \"#utility.yul\":19132:19137   */\n      dup2\n        /* \"#utility.yul\":19114:19138   */\n      tag_235\n      jump\t// in\n    tag_495:\n        /* \"#utility.yul\":19109:19112   */\n      dup3\n        /* \"#utility.yul\":19102:19139   */\n      mstore\n        /* \"#utility.yul\":19037:19145   */\n      pop\n      pop\n      jump\t// out\n        /* \"#utility.yul\":19221:20552   */\n    tag_280:\n        /* \"#utility.yul\":19356:19359   */\n      0x00\n        /* \"#utility.yul\":19392:19396   */\n      0xc0\n        /* \"#utility.yul\":19387:19390   */\n      dup4\n        /* \"#utility.yul\":19383:19397   */\n      add\n        /* \"#utility.yul\":19484:19488   */\n      0x00\n        /* \"#utility.yul\":19477:19482   */\n      dup4\n        /* \"#utility.yul\":19473:19489   */\n      add\n        /* \"#utility.yul\":19467:19490   */\n      mload\n        /* \"#utility.yul\":19503:19566   */\n      tag_497\n        /* \"#utility.yul\":19560:19564   */\n      0x00\n        /* \"#utility.yul\":19555:19558   */\n      dup7\n        /* \"#utility.yul\":19551:19565   */\n      add\n        /* \"#utility.yul\":19537:19549   */\n      dup3\n        /* \"#utility.yul\":19503:19566   */\n      tag_273\n      jump\t// in\n    tag_497:\n        /* \"#utility.yul\":19407:19576   */\n      pop\n        /* \"#utility.yul\":19668:19672   */\n      0x20\n        /* \"#utility.yul\":19661:19666   */\n      dup4\n        /* \"#utility.yul\":19657:19673   */\n      add\n        /* \"#utility.yul\":19651:19674   */\n      mload\n        /* \"#utility.yul\":19687:19748   */\n      tag_498\n        /* \"#utility.yul\":19742:19746   */\n      0x20\n        /* \"#utility.yul\":19737:19740   */\n      dup7\n        /* \"#utility.yul\":19733:19747   */\n      add\n        /* \"#utility.yul\":19719:19731   */\n      dup3\n        /* \"#utility.yul\":19687:19748   */\n      tag_274\n      jump\t// in\n    tag_498:\n        /* \"#utility.yul\":19586:19758   */\n      pop\n        /* \"#utility.yul\":19845:19849   */\n      0x40\n        /* \"#utility.yul\":19838:19843   */\n      dup4\n        /* \"#utility.yul\":19834:19850   */\n      add\n        /* \"#utility.yul\":19828:19851   */\n      mload\n        /* \"#utility.yul\":19864:19921   */\n      tag_499\n        /* \"#utility.yul\":19915:19919   */\n      0x40\n        /* \"#utility.yul\":19910:19913   */\n      dup7\n        /* \"#utility.yul\":19906:19920   */\n      add\n        /* \"#utility.yul\":19892:19904   */\n      dup3\n        /* \"#utility.yul\":19864:19921   */\n      tag_275\n      jump\t// in\n    tag_499:\n        /* \"#utility.yul\":19768:19931   */\n      pop\n        /* \"#utility.yul\":20015:20019   */\n      0x60\n        /* \"#utility.yul\":20008:20013   */\n      dup4\n        /* \"#utility.yul\":20004:20020   */\n      add\n        /* \"#utility.yul\":19998:20021   */\n      mload\n        /* \"#utility.yul\":20034:20097   */\n      tag_500\n        /* \"#utility.yul\":20091:20095   */\n      0x60\n        /* \"#utility.yul\":20086:20089   */\n      dup7\n        /* \"#utility.yul\":20082:20096   */\n      add\n        /* \"#utility.yul\":20068:20080   */\n      dup3\n        /* \"#utility.yul\":20034:20097   */\n      tag_272\n      jump\t// in\n    tag_500:\n        /* \"#utility.yul\":19941:20107   */\n      pop\n        /* \"#utility.yul\":20189:20193   */\n      0x80\n        /* \"#utility.yul\":20182:20187   */\n      dup4\n        /* \"#utility.yul\":20178:20194   */\n      add\n        /* \"#utility.yul\":20172:20195   */\n      mload\n        /* \"#utility.yul\":20242:20245   */\n      dup5\n        /* \"#utility.yul\":20236:20240   */\n      dup3\n        /* \"#utility.yul\":20232:20246   */\n      sub\n        /* \"#utility.yul\":20225:20229   */\n      0x80\n        /* \"#utility.yul\":20220:20223   */\n      dup7\n        /* \"#utility.yul\":20216:20230   */\n      add\n        /* \"#utility.yul\":20209:20247   */\n      mstore\n        /* \"#utility.yul\":20268:20339   */\n      tag_501\n        /* \"#utility.yul\":20334:20338   */\n      dup3\n        /* \"#utility.yul\":20320:20332   */\n      dup3\n        /* \"#utility.yul\":20268:20339   */\n      tag_278\n      jump\t// in\n    tag_501:\n        /* \"#utility.yul\":20260:20339   */\n      swap2\n      pop\n        /* \"#utility.yul\":20117:20350   */\n      pop\n        /* \"#utility.yul\":20433:20437   */\n      0xa0\n        /* \"#utility.yul\":20426:20431   */\n      dup4\n        /* \"#utility.yul\":20422:20438   */\n      add\n        /* \"#utility.yul\":20416:20439   */\n      mload\n        /* \"#utility.yul\":20452:20515   */\n      tag_502\n        /* \"#utility.yul\":20509:20513   */\n      0xa0\n        /* \"#utility.yul\":20504:20507   */\n      dup7\n        /* \"#utility.yul\":20500:20514   */\n      add\n        /* \"#utility.yul\":20486:20498   */\n      dup3\n        /* \"#utility.yul\":20452:20515   */\n      tag_279\n      jump\t// in\n    tag_502:\n        /* \"#utility.yul\":20360:20525   */\n      pop\n        /* \"#utility.yul\":20542:20546   */\n      dup1\n        /* \"#utility.yul\":20535:20546   */\n      swap2\n      pop\n        /* \"#utility.yul\":19361:20552   */\n      pop\n        /* \"#utility.yul\":19221:20552   */\n      swap3\n      swap2\n      pop\n      pop\n      jump\t// out\n        /* \"#utility.yul\":20620:21302   */\n    tag_281:\n        /* \"#utility.yul\":20757:20760   */\n      0x00\n        /* \"#utility.yul\":20793:20797   */\n      0x40\n        /* \"#utility.yul\":20788:20791   */\n      dup4\n        /* \"#utility.yul\":20784:20798   */\n      add\n        /* \"#utility.yul\":20882:20886   */\n      0x00\n        /* \"#utility.yul\":20875:20880   */\n      dup4\n        /* \"#utility.yul\":20871:20887   */\n      add\n        /* \"#utility.yul\":20865:20888   */\n      mload\n        /* \"#utility.yul\":20901:20964   */\n      tag_504\n        /* \"#utility.yul\":20958:20962   */\n      0x00\n        /* \"#utility.yul\":20953:20956   */\n      dup7\n        /* \"#utility.yul\":20949:20963   */\n      add\n        /* \"#utility.yul\":20935:20947   */\n      dup3\n        /* \"#utility.yul\":20901:20964   */\n      tag_272\n      jump\t// in\n    tag_504:\n        /* \"#utility.yul\":20808:20974   */\n      pop\n        /* \"#utility.yul\":21056:21060   */\n      0x20\n        /* \"#utility.yul\":21049:21054   */\n      dup4\n        /* \"#utility.yul\":21045:21061   */\n      add\n        /* \"#utility.yul\":21039:21062   */\n      mload\n        /* \"#utility.yul\":21109:21112   */\n      dup5\n        /* \"#utility.yul\":21103:21107   */\n      dup3\n        /* \"#utility.yul\":21099:21113   */\n      sub\n        /* \"#utility.yul\":21092:21096   */\n      0x20\n        /* \"#utility.yul\":21087:21090   */\n      dup7\n        /* \"#utility.yul\":21083:21097   */\n      add\n        /* \"#utility.yul\":21076:21114   */\n      mstore\n        /* \"#utility.yul\":21135:21264   */\n      tag_505\n        /* \"#utility.yul\":21259:21263   */\n      dup3\n        /* \"#utility.yul\":21245:21257   */\n      dup3\n        /* \"#utility.yul\":21135:21264   */\n      tag_280\n      jump\t// in\n    tag_505:\n        /* \"#utility.yul\":21127:21264   */\n      swap2\n      pop\n        /* \"#utility.yul\":20984:21275   */\n      pop\n        /* \"#utility.yul\":21292:21296   */\n      dup1\n        /* \"#utility.yul\":21285:21296   */\n      swap2\n      pop\n        /* \"#utility.yul\":20762:21302   */\n      pop\n        /* \"#utility.yul\":20620:21302   */\n      swap3\n      swap2\n      pop\n      pop\n      jump\t// out\n        /* \"#utility.yul\":21308:21717   */\n    tag_133:\n        /* \"#utility.yul\":21469:21473   */\n      0x00\n        /* \"#utility.yul\":21507:21509   */\n      0x20\n        /* \"#utility.yul\":21496:21505   */\n      dup3\n        /* \"#utility.yul\":21492:21510   */\n      add\n        /* \"#utility.yul\":21484:21510   */\n      swap1\n      pop\n        /* \"#utility.yul\":21556:21565   */\n      dup2\n        /* \"#utility.yul\":21550:21554   */\n      dup2\n        /* \"#utility.yul\":21546:21566   */\n      sub\n        /* \"#utility.yul\":21542:21543   */\n      0x00\n        /* \"#utility.yul\":21531:21540   */\n      dup4\n        /* \"#utility.yul\":21527:21544   */\n      add\n        /* \"#utility.yul\":21520:21567   */\n      mstore\n        /* \"#utility.yul\":21584:21710   */\n      tag_507\n        /* \"#utility.yul\":21705:21709   */\n      dup2\n        /* \"#utility.yul\":21696:21702   */\n      dup5\n        /* \"#utility.yul\":21584:21710   */\n      tag_281\n      jump\t// in\n    tag_507:\n        /* \"#utility.yul\":21576:21710   */\n      swap1\n      pop\n        /* \"#utility.yul\":21308:21717   */\n      swap3\n      swap2\n      pop\n      pop\n      jump\t// out\n        /* \"#utility.yul\":21723:22074   */\n    tag_137:\n        /* \"#utility.yul\":21793:21799   */\n      0x00\n        /* \"#utility.yul\":21842:21844   */\n      0x20\n        /* \"#utility.yul\":21830:21839   */\n      dup3\n        /* \"#utility.yul\":21821:21828   */\n      dup5\n        /* \"#utility.yul\":21817:21840   */\n      sub\n        /* \"#utility.yul\":21813:21845   */\n      slt\n        /* \"#utility.yul\":21810:21929   */\n      iszero\n      tag_509\n      jumpi\n        /* \"#utility.yul\":21848:21927   */\n      tag_510\n      tag_220\n      jump\t// in\n    tag_510:\n        /* \"#utility.yul\":21810:21929   */\n    tag_509:\n        /* \"#utility.yul\":21968:21969   */\n      0x00\n        /* \"#utility.yul\":21993:22057   */\n      tag_511\n        /* \"#utility.yul\":22049:22056   */\n      dup5\n        /* \"#utility.yul\":22040:22046   */\n      dup3\n        /* \"#utility.yul\":22029:22038   */\n      dup6\n        /* \"#utility.yul\":22025:22047   */\n      add\n        /* \"#utility.yul\":21993:22057   */\n      tag_246\n      jump\t// in\n    tag_511:\n        /* \"#utility.yul\":21983:22057   */\n      swap2\n      pop\n        /* \"#utility.yul\":21939:22067   */\n      pop\n        /* \"#utility.yul\":21723:22074   */\n      swap3\n      swap2\n      pop\n      pop\n      jump\t// out\n        /* \"#utility.yul\":22080:22315   */\n    tag_282:\n        /* \"#utility.yul\":22220:22254   */\n      0x43616e6e6f74207265766f6b6520726f6c652066726f6d206d61696e20617474\n        /* \"#utility.yul\":22216:22217   */\n      0x00\n        /* \"#utility.yul\":22208:22214   */\n      dup3\n        /* \"#utility.yul\":22204:22218   */\n      add\n        /* \"#utility.yul\":22197:22255   */\n      mstore\n        /* \"#utility.yul\":22289:22307   */\n      0x6573746174696f6e2063726561746f7200000000000000000000000000000000\n        /* \"#utility.yul\":22284:22286   */\n      0x20\n        /* \"#utility.yul\":22276:22282   */\n      dup3\n        /* \"#utility.yul\":22272:22287   */\n      add\n        /* \"#utility.yul\":22265:22308   */\n      mstore\n        /* \"#utility.yul\":22080:22315   */\n      pop\n      jump\t// out\n        /* \"#utility.yul\":22321:22687   */\n    tag_283:\n        /* \"#utility.yul\":22463:22466   */\n      0x00\n        /* \"#utility.yul\":22484:22551   */\n      tag_514\n        /* \"#utility.yul\":22548:22550   */\n      0x30\n        /* \"#utility.yul\":22543:22546   */\n      dup4\n        /* \"#utility.yul\":22484:22551   */\n      tag_238\n      jump\t// in\n    tag_514:\n        /* \"#utility.yul\":22477:22551   */\n      swap2\n      pop\n        /* \"#utility.yul\":22560:22653   */\n      tag_515\n        /* \"#utility.yul\":22649:22652   */\n      dup3\n        /* \"#utility.yul\":22560:22653   */\n      tag_282\n      jump\t// in\n    tag_515:\n        /* \"#utility.yul\":22678:22680   */\n      0x40\n        /* \"#utility.yul\":22673:22676   */\n      dup3\n        /* \"#utility.yul\":22669:22681   */\n      add\n        /* \"#utility.yul\":22662:22681   */\n      swap1\n      pop\n        /* \"#utility.yul\":22321:22687   */\n      swap2\n      swap1\n      pop\n      jump\t// out\n        /* \"#utility.yul\":22693:23112   */\n    tag_144:\n        /* \"#utility.yul\":22859:22863   */\n      0x00\n        /* \"#utility.yul\":22897:22899   */\n      0x20\n        /* \"#utility.yul\":22886:22895   */\n      dup3\n        /* \"#utility.yul\":22882:22900   */\n      add\n        /* \"#utility.yul\":22874:22900   */\n      swap1\n      pop\n        /* \"#utility.yul\":22946:22955   */\n      dup2\n        /* \"#utility.yul\":22940:22944   */\n      dup2\n        /* \"#utility.yul\":22936:22956   */\n      sub\n        /* \"#utility.yul\":22932:22933   */\n      0x00\n        /* \"#utility.yul\":22921:22930   */\n      dup4\n        /* \"#utility.yul\":22917:22934   */\n      add\n        /* \"#utility.yul\":22910:22957   */\n      mstore\n        /* \"#utility.yul\":22974:23105   */\n      tag_517\n        /* \"#utility.yul\":23100:23104   */\n      dup2\n        /* \"#utility.yul\":22974:23105   */\n      tag_283\n      jump\t// in\n    tag_517:\n        /* \"#utility.yul\":22966:23105   */\n      swap1\n      pop\n        /* \"#utility.yul\":22693:23112   */\n      swap2\n      swap1\n      pop\n      jump\t// out\n        /* \"#utility.yul\":23118:23296   */\n    tag_284:\n        /* \"#utility.yul\":23258:23288   */\n      0x436f6e747261637420616c726561647920696e697469616c697a656400000000\n        /* \"#utility.yul\":23254:23255   */\n      0x00\n        /* \"#utility.yul\":23246:23252   */\n      dup3\n        /* \"#utility.yul\":23242:23256   */\n      add\n        /* \"#utility.yul\":23235:23289   */\n      mstore\n        /* \"#utility.yul\":23118:23296   */\n      pop\n      jump\t// out\n        /* \"#utility.yul\":23302:23668   */\n    tag_285:\n        /* \"#utility.yul\":23444:23447   */\n      0x00\n        /* \"#utility.yul\":23465:23532   */\n      tag_520\n        /* \"#utility.yul\":23529:23531   */\n      0x1c\n        /* \"#utility.yul\":23524:23527   */\n      dup4\n        /* \"#utility.yul\":23465:23532   */\n      tag_238\n      jump\t// in\n    tag_520:\n        /* \"#utility.yul\":23458:23532   */\n      swap2\n      pop\n        /* \"#utility.yul\":23541:23634   */\n      tag_521\n        /* \"#utility.yul\":23630:23633   */\n      dup3\n        /* \"#utility.yul\":23541:23634   */\n      tag_284\n      jump\t// in\n    tag_521:\n        /* \"#utility.yul\":23659:23661   */\n      0x20\n        /* \"#utility.yul\":23654:23657   */\n      dup3\n        /* \"#utility.yul\":23650:23662   */\n      add\n        /* \"#utility.yul\":23643:23662   */\n      swap1\n      pop\n        /* \"#utility.yul\":23302:23668   */\n      swap2\n      swap1\n      pop\n      jump\t// out\n        /* \"#utility.yul\":23674:24093   */\n    tag_151:\n        /* \"#utility.yul\":23840:23844   */\n      0x00\n        /* \"#utility.yul\":23878:23880   */\n      0x20\n        /* \"#utility.yul\":23867:23876   */\n      dup3\n        /* \"#utility.yul\":23863:23881   */\n      add\n        /* \"#utility.yul\":23855:23881   */\n      swap1\n      pop\n        /* \"#utility.yul\":23927:23936   */\n      dup2\n        /* \"#utility.yul\":23921:23925   */\n      dup2\n        /* \"#utility.yul\":23917:23937   */\n      sub\n        /* \"#utility.yul\":23913:23914   */\n      0x00\n        /* \"#utility.yul\":23902:23911   */\n      dup4\n        /* \"#utility.yul\":23898:23915   */\n      add\n        /* \"#utility.yul\":23891:23938   */\n      mstore\n        /* \"#utility.yul\":23955:24086   */\n      tag_523\n        /* \"#utility.yul\":24081:24085   */\n      dup2\n        /* \"#utility.yul\":23955:24086   */\n      tag_285\n      jump\t// in\n    tag_523:\n        /* \"#utility.yul\":23947:24086   */\n      swap1\n      pop\n        /* \"#utility.yul\":23674:24093   */\n      swap2\n      swap1\n      pop\n      jump\t// out\n        /* \"#utility.yul\":24099:24271   */\n    tag_286:\n        /* \"#utility.yul\":24239:24263   */\n      0x536368656d6120616c7265616479206372656174656400000000000000000000\n        /* \"#utility.yul\":24235:24236   */\n      0x00\n        /* \"#utility.yul\":24227:24233   */\n      dup3\n        /* \"#utility.yul\":24223:24237   */\n      add\n        /* \"#utility.yul\":24216:24264   */\n      mstore\n        /* \"#utility.yul\":24099:24271   */\n      pop\n      jump\t// out\n        /* \"#utility.yul\":24277:24643   */\n    tag_287:\n        /* \"#utility.yul\":24419:24422   */\n      0x00\n        /* \"#utility.yul\":24440:24507   */\n      tag_526\n        /* \"#utility.yul\":24504:24506   */\n      0x16\n        /* \"#utility.yul\":24499:24502   */\n      dup4\n        /* \"#utility.yul\":24440:24507   */\n      tag_238\n      jump\t// in\n    tag_526:\n        /* \"#utility.yul\":24433:24507   */\n      swap2\n      pop\n        /* \"#utility.yul\":24516:24609   */\n      tag_527\n        /* \"#utility.yul\":24605:24608   */\n      dup3\n        /* \"#utility.yul\":24516:24609   */\n      tag_286\n      jump\t// in\n    tag_527:\n        /* \"#utility.yul\":24634:24636   */\n      0x20\n        /* \"#utility.yul\":24629:24632   */\n      dup3\n        /* \"#utility.yul\":24625:24637   */\n      add\n        /* \"#utility.yul\":24618:24637   */\n      swap1\n      pop\n        /* \"#utility.yul\":24277:24643   */\n      swap2\n      swap1\n      pop\n      jump\t// out\n        /* \"#utility.yul\":24649:25068   */\n    tag_165:\n        /* \"#utility.yul\":24815:24819   */\n      0x00\n        /* \"#utility.yul\":24853:24855   */\n      0x20\n        /* \"#utility.yul\":24842:24851   */\n      dup3\n        /* \"#utility.yul\":24838:24856   */\n      add\n        /* \"#utility.yul\":24830:24856   */\n      swap1\n      pop\n        /* \"#utility.yul\":24902:24911   */\n      dup2\n        /* \"#utility.yul\":24896:24900   */\n      dup2\n        /* \"#utility.yul\":24892:24912   */\n      sub\n        /* \"#utility.yul\":24888:24889   */\n      0x00\n        /* \"#utility.yul\":24877:24886   */\n      dup4\n        /* \"#utility.yul\":24873:24890   */\n      add\n        /* \"#utility.yul\":24866:24913   */\n      mstore\n        /* \"#utility.yul\":24930:25061   */\n      tag_529\n        /* \"#utility.yul\":25056:25060   */\n      dup2\n        /* \"#utility.yul\":24930:25061   */\n      tag_287\n      jump\t// in\n    tag_529:\n        /* \"#utility.yul\":24922:25061   */\n      swap1\n      pop\n        /* \"#utility.yul\":24649:25068   */\n      swap2\n      swap1\n      pop\n      jump\t// out\n        /* \"#utility.yul\":25074:25173   */\n    tag_288:\n        /* \"#utility.yul\":25126:25132   */\n      0x00\n        /* \"#utility.yul\":25160:25165   */\n      dup2\n        /* \"#utility.yul\":25154:25166   */\n      mload\n        /* \"#utility.yul\":25144:25166   */\n      swap1\n      pop\n        /* \"#utility.yul\":25074:25173   */\n      swap2\n      swap1\n      pop\n      jump\t// out\n        /* \"#utility.yul\":25179:25556   */\n    tag_289:\n        /* \"#utility.yul\":25267:25270   */\n      0x00\n        /* \"#utility.yul\":25295:25334   */\n      tag_532\n        /* \"#utility.yul\":25328:25333   */\n      dup3\n        /* \"#utility.yul\":25295:25334   */\n      tag_288\n      jump\t// in\n    tag_532:\n        /* \"#utility.yul\":25350:25421   */\n      tag_533\n        /* \"#utility.yul\":25414:25420   */\n      dup2\n        /* \"#utility.yul\":25409:25412   */\n      dup6\n        /* \"#utility.yul\":25350:25421   */\n      tag_238\n      jump\t// in\n    tag_533:\n        /* \"#utility.yul\":25343:25421   */\n      swap4\n      pop\n        /* \"#utility.yul\":25430:25495   */\n      tag_534\n        /* \"#utility.yul\":25488:25494   */\n      dup2\n        /* \"#utility.yul\":25483:25486   */\n      dup6\n        /* \"#utility.yul\":25476:25480   */\n      0x20\n        /* \"#utility.yul\":25469:25474   */\n      dup7\n        /* \"#utility.yul\":25465:25481   */\n      add\n        /* \"#utility.yul\":25430:25495   */\n      tag_256\n      jump\t// in\n    tag_534:\n        /* \"#utility.yul\":25520:25549   */\n      tag_535\n        /* \"#utility.yul\":25542:25548   */\n      dup2\n        /* \"#utility.yul\":25520:25549   */\n      tag_242\n      jump\t// in\n    tag_535:\n        /* \"#utility.yul\":25515:25518   */\n      dup5\n        /* \"#utility.yul\":25511:25550   */\n      add\n        /* \"#utility.yul\":25504:25550   */\n      swap2\n      pop\n        /* \"#utility.yul\":25271:25556   */\n      pop\n        /* \"#utility.yul\":25179:25556   */\n      swap3\n      swap2\n      pop\n      pop\n      jump\t// out\n        /* \"#utility.yul\":25562:25622   */\n    tag_290:\n        /* \"#utility.yul\":25590:25593   */\n      0x00\n        /* \"#utility.yul\":25611:25616   */\n      dup2\n        /* \"#utility.yul\":25604:25616   */\n      swap1\n      pop\n        /* \"#utility.yul\":25562:25622   */\n      swap2\n      swap1\n      pop\n      jump\t// out\n        /* \"#utility.yul\":25628:25770   */\n    tag_291:\n        /* \"#utility.yul\":25678:25687   */\n      0x00\n        /* \"#utility.yul\":25711:25764   */\n      tag_538\n        /* \"#utility.yul\":25729:25763   */\n      tag_539\n        /* \"#utility.yul\":25738:25762   */\n      tag_540\n        /* \"#utility.yul\":25756:25761   */\n      dup5\n        /* \"#utility.yul\":25738:25762   */\n      tag_230\n      jump\t// in\n    tag_540:\n        /* \"#utility.yul\":25729:25763   */\n      tag_290\n      jump\t// in\n    tag_539:\n        /* \"#utility.yul\":25711:25764   */\n      tag_230\n      jump\t// in\n    tag_538:\n        /* \"#utility.yul\":25698:25764   */\n      swap1\n      pop\n        /* \"#utility.yul\":25628:25770   */\n      swap2\n      swap1\n      pop\n      jump\t// out\n        /* \"#utility.yul\":25776:25902   */\n    tag_292:\n        /* \"#utility.yul\":25826:25835   */\n      0x00\n        /* \"#utility.yul\":25859:25896   */\n      tag_542\n        /* \"#utility.yul\":25890:25895   */\n      dup3\n        /* \"#utility.yul\":25859:25896   */\n      tag_291\n      jump\t// in\n    tag_542:\n        /* \"#utility.yul\":25846:25896   */\n      swap1\n      pop\n        /* \"#utility.yul\":25776:25902   */\n      swap2\n      swap1\n      pop\n      jump\t// out\n        /* \"#utility.yul\":25908:26057   */\n    tag_293:\n        /* \"#utility.yul\":25981:25990   */\n      0x00\n        /* \"#utility.yul\":26014:26051   */\n      tag_544\n        /* \"#utility.yul\":26045:26050   */\n      dup3\n        /* \"#utility.yul\":26014:26051   */\n      tag_292\n      jump\t// in\n    tag_544:\n        /* \"#utility.yul\":26001:26051   */\n      swap1\n      pop\n        /* \"#utility.yul\":25908:26057   */\n      swap2\n      swap1\n      pop\n      jump\t// out\n        /* \"#utility.yul\":26063:26240   */\n    tag_294:\n        /* \"#utility.yul\":26173:26233   */\n      tag_546\n        /* \"#utility.yul\":26227:26232   */\n      dup2\n        /* \"#utility.yul\":26173:26233   */\n      tag_293\n      jump\t// in\n    tag_546:\n        /* \"#utility.yul\":26168:26171   */\n      dup3\n        /* \"#utility.yul\":26161:26234   */\n      mstore\n        /* \"#utility.yul\":26063:26240   */\n      pop\n      pop\n      jump\t// out\n        /* \"#utility.yul\":26246:26813   */\n    tag_167:\n        /* \"#utility.yul\":26432:26436   */\n      0x00\n        /* \"#utility.yul\":26470:26472   */\n      0x60\n        /* \"#utility.yul\":26459:26468   */\n      dup3\n        /* \"#utility.yul\":26455:26473   */\n      add\n        /* \"#utility.yul\":26447:26473   */\n      swap1\n      pop\n        /* \"#utility.yul\":26519:26528   */\n      dup2\n        /* \"#utility.yul\":26513:26517   */\n      dup2\n        /* \"#utility.yul\":26509:26529   */\n      sub\n        /* \"#utility.yul\":26505:26506   */\n      0x00\n        /* \"#utility.yul\":26494:26503   */\n      dup4\n        /* \"#utility.yul\":26490:26507   */\n      add\n        /* \"#utility.yul\":26483:26530   */\n      mstore\n        /* \"#utility.yul\":26547:26625   */\n      tag_548\n        /* \"#utility.yul\":26620:26624   */\n      dup2\n        /* \"#utility.yul\":26611:26617   */\n      dup7\n        /* \"#utility.yul\":26547:26625   */\n      tag_289\n      jump\t// in\n    tag_548:\n        /* \"#utility.yul\":26539:26625   */\n      swap1\n      pop\n        /* \"#utility.yul\":26635:26730   */\n      tag_549\n        /* \"#utility.yul\":26726:26728   */\n      0x20\n        /* \"#utility.yul\":26715:26724   */\n      dup4\n        /* \"#utility.yul\":26711:26729   */\n      add\n        /* \"#utility.yul\":26702:26708   */\n      dup6\n        /* \"#utility.yul\":26635:26730   */\n      tag_294\n      jump\t// in\n    tag_549:\n        /* \"#utility.yul\":26740:26806   */\n      tag_550\n        /* \"#utility.yul\":26802:26804   */\n      0x40\n        /* \"#utility.yul\":26791:26800   */\n      dup4\n        /* \"#utility.yul\":26787:26805   */\n      add\n        /* \"#utility.yul\":26778:26784   */\n      dup5\n        /* \"#utility.yul\":26740:26806   */\n      tag_226\n      jump\t// in\n    tag_550:\n        /* \"#utility.yul\":26246:26813   */\n      swap5\n      swap4\n      pop\n      pop\n      pop\n      pop\n      jump\t// out\n        /* \"#utility.yul\":26819:26967   */\n    tag_295:\n        /* \"#utility.yul\":26921:26932   */\n      0x00\n        /* \"#utility.yul\":26958:26961   */\n      dup2\n        /* \"#utility.yul\":26943:26961   */\n      swap1\n      pop\n        /* \"#utility.yul\":26819:26967   */\n      swap3\n      swap2\n      pop\n      pop\n      jump\t// out\n        /* \"#utility.yul\":26973:27146   */\n    tag_296:\n        /* \"#utility.yul\":27113:27138   */\n      0x416363657373436f6e74726f6c3a206163636f756e7420000000000000000000\n        /* \"#utility.yul\":27109:27110   */\n      0x00\n        /* \"#utility.yul\":27101:27107   */\n      dup3\n        /* \"#utility.yul\":27097:27111   */\n      add\n        /* \"#utility.yul\":27090:27139   */\n      mstore\n        /* \"#utility.yul\":26973:27146   */\n      pop\n      jump\t// out\n        /* \"#utility.yul\":27152:27554   */\n    tag_297:\n        /* \"#utility.yul\":27312:27315   */\n      0x00\n        /* \"#utility.yul\":27333:27418   */\n      tag_554\n        /* \"#utility.yul\":27415:27417   */\n      0x17\n        /* \"#utility.yul\":27410:27413   */\n      dup4\n        /* \"#utility.yul\":27333:27418   */\n      tag_295\n      jump\t// in\n    tag_554:\n        /* \"#utility.yul\":27326:27418   */\n      swap2\n      pop\n        /* \"#utility.yul\":27427:27520   */\n      tag_555\n        /* \"#utility.yul\":27516:27519   */\n      dup3\n        /* \"#utility.yul\":27427:27520   */\n      tag_296\n      jump\t// in\n    tag_555:\n        /* \"#utility.yul\":27545:27547   */\n      0x17\n        /* \"#utility.yul\":27540:27543   */\n      dup3\n        /* \"#utility.yul\":27536:27548   */\n      add\n        /* \"#utility.yul\":27529:27548   */\n      swap1\n      pop\n        /* \"#utility.yul\":27152:27554   */\n      swap2\n      swap1\n      pop\n      jump\t// out\n        /* \"#utility.yul\":27560:27950   */\n    tag_298:\n        /* \"#utility.yul\":27666:27669   */\n      0x00\n        /* \"#utility.yul\":27694:27733   */\n      tag_557\n        /* \"#utility.yul\":27727:27732   */\n      dup3\n        /* \"#utility.yul\":27694:27733   */\n      tag_288\n      jump\t// in\n    tag_557:\n        /* \"#utility.yul\":27749:27838   */\n      tag_558\n        /* \"#utility.yul\":27831:27837   */\n      dup2\n        /* \"#utility.yul\":27826:27829   */\n      dup6\n        /* \"#utility.yul\":27749:27838   */\n      tag_295\n      jump\t// in\n    tag_558:\n        /* \"#utility.yul\":27742:27838   */\n      swap4\n      pop\n        /* \"#utility.yul\":27847:27912   */\n      tag_559\n        /* \"#utility.yul\":27905:27911   */\n      dup2\n        /* \"#utility.yul\":27900:27903   */\n      dup6\n        /* \"#utility.yul\":27893:27897   */\n      0x20\n        /* \"#utility.yul\":27886:27891   */\n      dup7\n        /* \"#utility.yul\":27882:27898   */\n      add\n        /* \"#utility.yul\":27847:27912   */\n      tag_256\n      jump\t// in\n    tag_559:\n        /* \"#utility.yul\":27937:27943   */\n      dup1\n        /* \"#utility.yul\":27932:27935   */\n      dup5\n        /* \"#utility.yul\":27928:27944   */\n      add\n        /* \"#utility.yul\":27921:27944   */\n      swap2\n      pop\n        /* \"#utility.yul\":27670:27950   */\n      pop\n        /* \"#utility.yul\":27560:27950   */\n      swap3\n      swap2\n      pop\n      pop\n      jump\t// out\n        /* \"#utility.yul\":27956:28123   */\n    tag_299:\n        /* \"#utility.yul\":28096:28115   */\n      0x206973206d697373696e6720726f6c6520000000000000000000000000000000\n        /* \"#utility.yul\":28092:28093   */\n      0x00\n        /* \"#utility.yul\":28084:28090   */\n      dup3\n        /* \"#utility.yul\":28080:28094   */\n      add\n        /* \"#utility.yul\":28073:28116   */\n      mstore\n        /* \"#utility.yul\":27956:28123   */\n      pop\n      jump\t// out\n        /* \"#utility.yul\":28129:28531   */\n    tag_300:\n        /* \"#utility.yul\":28289:28292   */\n      0x00\n        /* \"#utility.yul\":28310:28395   */\n      tag_562\n        /* \"#utility.yul\":28392:28394   */\n      0x11\n        /* \"#utility.yul\":28387:28390   */\n      dup4\n        /* \"#utility.yul\":28310:28395   */\n      tag_295\n      jump\t// in\n    tag_562:\n        /* \"#utility.yul\":28303:28395   */\n      swap2\n      pop\n        /* \"#utility.yul\":28404:28497   */\n      tag_563\n        /* \"#utility.yul\":28493:28496   */\n      dup3\n        /* \"#utility.yul\":28404:28497   */\n      tag_299\n      jump\t// in\n    tag_563:\n        /* \"#utility.yul\":28522:28524   */\n      0x11\n        /* \"#utility.yul\":28517:28520   */\n      dup3\n        /* \"#utility.yul\":28513:28525   */\n      add\n        /* \"#utility.yul\":28506:28525   */\n      swap1\n      pop\n        /* \"#utility.yul\":28129:28531   */\n      swap2\n      swap1\n      pop\n      jump\t// out\n        /* \"#utility.yul\":28537:29504   */\n    tag_180:\n        /* \"#utility.yul\":28919:28922   */\n      0x00\n        /* \"#utility.yul\":28941:29089   */\n      tag_565\n        /* \"#utility.yul\":29085:29088   */\n      dup3\n        /* \"#utility.yul\":28941:29089   */\n      tag_297\n      jump\t// in\n    tag_565:\n        /* \"#utility.yul\":28934:29089   */\n      swap2\n      pop\n        /* \"#utility.yul\":29106:29201   */\n      tag_566\n        /* \"#utility.yul\":29197:29200   */\n      dup3\n        /* \"#utility.yul\":29188:29194   */\n      dup6\n        /* \"#utility.yul\":29106:29201   */\n      tag_298\n      jump\t// in\n    tag_566:\n        /* \"#utility.yul\":29099:29201   */\n      swap2\n      pop\n        /* \"#utility.yul\":29218:29366   */\n      tag_567\n        /* \"#utility.yul\":29362:29365   */\n      dup3\n        /* \"#utility.yul\":29218:29366   */\n      tag_300\n      jump\t// in\n    tag_567:\n        /* \"#utility.yul\":29211:29366   */\n      swap2\n      pop\n        /* \"#utility.yul\":29383:29478   */\n      tag_568\n        /* \"#utility.yul\":29474:29477   */\n      dup3\n        /* \"#utility.yul\":29465:29471   */\n      dup5\n        /* \"#utility.yul\":29383:29478   */\n      tag_298\n      jump\t// in\n    tag_568:\n        /* \"#utility.yul\":29376:29478   */\n      swap2\n      pop\n        /* \"#utility.yul\":29495:29498   */\n      dup2\n        /* \"#utility.yul\":29488:29498   */\n      swap1\n      pop\n        /* \"#utility.yul\":28537:29504   */\n      swap4\n      swap3\n      pop\n      pop\n      pop\n      jump\t// out\n        /* \"#utility.yul\":29510:29823   */\n    tag_182:\n        /* \"#utility.yul\":29623:29627   */\n      0x00\n        /* \"#utility.yul\":29661:29663   */\n      0x20\n        /* \"#utility.yul\":29650:29659   */\n      dup3\n        /* \"#utility.yul\":29646:29664   */\n      add\n        /* \"#utility.yul\":29638:29664   */\n      swap1\n      pop\n        /* \"#utility.yul\":29710:29719   */\n      dup2\n        /* \"#utility.yul\":29704:29708   */\n      dup2\n        /* \"#utility.yul\":29700:29720   */\n      sub\n        /* \"#utility.yul\":29696:29697   */\n      0x00\n        /* \"#utility.yul\":29685:29694   */\n      dup4\n        /* \"#utility.yul\":29681:29698   */\n      add\n        /* \"#utility.yul\":29674:29721   */\n      mstore\n        /* \"#utility.yul\":29738:29816   */\n      tag_570\n        /* \"#utility.yul\":29811:29815   */\n      dup2\n        /* \"#utility.yul\":29802:29808   */\n      dup5\n        /* \"#utility.yul\":29738:29816   */\n      tag_289\n      jump\t// in\n    tag_570:\n        /* \"#utility.yul\":29730:29816   */\n      swap1\n      pop\n        /* \"#utility.yul\":29510:29823   */\n      swap3\n      swap2\n      pop\n      pop\n      jump\t// out\n        /* \"#utility.yul\":29829:30009   */\n    tag_301:\n        /* \"#utility.yul\":29877:29954   */\n      0x4e487b7100000000000000000000000000000000000000000000000000000000\n        /* \"#utility.yul\":29874:29875   */\n      0x00\n        /* \"#utility.yul\":29867:29955   */\n      mstore\n        /* \"#utility.yul\":29974:29978   */\n      0x11\n        /* \"#utility.yul\":29971:29972   */\n      0x04\n        /* \"#utility.yul\":29964:29979   */\n      mstore\n        /* \"#utility.yul\":29998:30002   */\n      0x24\n        /* \"#utility.yul\":29995:29996   */\n      0x00\n        /* \"#utility.yul\":29988:30003   */\n      revert\n        /* \"#utility.yul\":30015:30425   */\n    tag_193:\n        /* \"#utility.yul\":30055:30062   */\n      0x00\n        /* \"#utility.yul\":30078:30098   */\n      tag_573\n        /* \"#utility.yul\":30096:30097   */\n      dup3\n        /* \"#utility.yul\":30078:30098   */\n      tag_235\n      jump\t// in\n    tag_573:\n        /* \"#utility.yul\":30073:30098   */\n      swap2\n      pop\n        /* \"#utility.yul\":30112:30132   */\n      tag_574\n        /* \"#utility.yul\":30130:30131   */\n      dup4\n        /* \"#utility.yul\":30112:30132   */\n      tag_235\n      jump\t// in\n    tag_574:\n        /* \"#utility.yul\":30107:30132   */\n      swap3\n      pop\n        /* \"#utility.yul\":30167:30168   */\n      dup3\n        /* \"#utility.yul\":30164:30165   */\n      dup3\n        /* \"#utility.yul\":30160:30169   */\n      mul\n        /* \"#utility.yul\":30189:30219   */\n      tag_575\n        /* \"#utility.yul\":30207:30218   */\n      dup2\n        /* \"#utility.yul\":30189:30219   */\n      tag_235\n      jump\t// in\n    tag_575:\n        /* \"#utility.yul\":30178:30219   */\n      swap2\n      pop\n        /* \"#utility.yul\":30368:30369   */\n      dup3\n        /* \"#utility.yul\":30359:30366   */\n      dup3\n        /* \"#utility.yul\":30355:30370   */\n      div\n        /* \"#utility.yul\":30352:30353   */\n      dup5\n        /* \"#utility.yul\":30349:30371   */\n      eq\n        /* \"#utility.yul\":30329:30330   */\n      dup4\n        /* \"#utility.yul\":30322:30331   */\n      iszero\n        /* \"#utility.yul\":30302:30385   */\n      or\n        /* \"#utility.yul\":30279:30418   */\n      tag_576\n      jumpi\n        /* \"#utility.yul\":30398:30416   */\n      tag_577\n      tag_301\n      jump\t// in\n    tag_577:\n        /* \"#utility.yul\":30279:30418   */\n    tag_576:\n        /* \"#utility.yul\":30063:30425   */\n      pop\n        /* \"#utility.yul\":30015:30425   */\n      swap3\n      swap2\n      pop\n      pop\n      jump\t// out\n        /* \"#utility.yul\":30431:30622   */\n    tag_195:\n        /* \"#utility.yul\":30471:30474   */\n      0x00\n        /* \"#utility.yul\":30490:30510   */\n      tag_579\n        /* \"#utility.yul\":30508:30509   */\n      dup3\n        /* \"#utility.yul\":30490:30510   */\n      tag_235\n      jump\t// in\n    tag_579:\n        /* \"#utility.yul\":30485:30510   */\n      swap2\n      pop\n        /* \"#utility.yul\":30524:30544   */\n      tag_580\n        /* \"#utility.yul\":30542:30543   */\n      dup4\n        /* \"#utility.yul\":30524:30544   */\n      tag_235\n      jump\t// in\n    tag_580:\n        /* \"#utility.yul\":30519:30544   */\n      swap3\n      pop\n        /* \"#utility.yul\":30567:30568   */\n      dup3\n        /* \"#utility.yul\":30564:30565   */\n      dup3\n        /* \"#utility.yul\":30560:30569   */\n      add\n        /* \"#utility.yul\":30553:30569   */\n      swap1\n      pop\n        /* \"#utility.yul\":30588:30591   */\n      dup1\n        /* \"#utility.yul\":30585:30586   */\n      dup3\n        /* \"#utility.yul\":30582:30592   */\n      gt\n        /* \"#utility.yul\":30579:30615   */\n      iszero\n      tag_581\n      jumpi\n        /* \"#utility.yul\":30595:30613   */\n      tag_582\n      tag_301\n      jump\t// in\n    tag_582:\n        /* \"#utility.yul\":30579:30615   */\n    tag_581:\n        /* \"#utility.yul\":30431:30622   */\n      swap3\n      swap2\n      pop\n      pop\n      jump\t// out\n        /* \"#utility.yul\":30628:30808   */\n    tag_202:\n        /* \"#utility.yul\":30676:30753   */\n      0x4e487b7100000000000000000000000000000000000000000000000000000000\n        /* \"#utility.yul\":30673:30674   */\n      0x00\n        /* \"#utility.yul\":30666:30754   */\n      mstore\n        /* \"#utility.yul\":30773:30777   */\n      0x32\n        /* \"#utility.yul\":30770:30771   */\n      0x04\n        /* \"#utility.yul\":30763:30778   */\n      mstore\n        /* \"#utility.yul\":30797:30801   */\n      0x24\n        /* \"#utility.yul\":30794:30795   */\n      0x00\n        /* \"#utility.yul\":30787:30802   */\n      revert\n        /* \"#utility.yul\":30814:30985   */\n    tag_215:\n        /* \"#utility.yul\":30853:30856   */\n      0x00\n        /* \"#utility.yul\":30876:30900   */\n      tag_585\n        /* \"#utility.yul\":30894:30899   */\n      dup3\n        /* \"#utility.yul\":30876:30900   */\n      tag_235\n      jump\t// in\n    tag_585:\n        /* \"#utility.yul\":30867:30900   */\n      swap2\n      pop\n        /* \"#utility.yul\":30922:30926   */\n      0x00\n        /* \"#utility.yul\":30915:30920   */\n      dup3\n        /* \"#utility.yul\":30912:30927   */\n      sub\n        /* \"#utility.yul\":30909:30950   */\n      tag_586\n      jumpi\n        /* \"#utility.yul\":30930:30948   */\n      tag_587\n      tag_301\n      jump\t// in\n    tag_587:\n        /* \"#utility.yul\":30909:30950   */\n    tag_586:\n        /* \"#utility.yul\":30977:30978   */\n      0x01\n        /* \"#utility.yul\":30970:30975   */\n      dup3\n        /* \"#utility.yul\":30966:30979   */\n      sub\n        /* \"#utility.yul\":30959:30979   */\n      swap1\n      pop\n        /* \"#utility.yul\":30814:30985   */\n      swap2\n      swap1\n      pop\n      jump\t// out\n        /* \"#utility.yul\":30991:31173   */\n    tag_302:\n        /* \"#utility.yul\":31131:31165   */\n      0x537472696e67733a20686578206c656e67746820696e73756666696369656e74\n        /* \"#utility.yul\":31127:31128   */\n      0x00\n        /* \"#utility.yul\":31119:31125   */\n      dup3\n        /* \"#utility.yul\":31115:31129   */\n      add\n        /* \"#utility.yul\":31108:31166   */\n      mstore\n        /* \"#utility.yul\":30991:31173   */\n      pop\n      jump\t// out\n        /* \"#utility.yul\":31179:31545   */\n    tag_303:\n        /* \"#utility.yul\":31321:31324   */\n      0x00\n        /* \"#utility.yul\":31342:31409   */\n      tag_590\n        /* \"#utility.yul\":31406:31408   */\n      0x20\n        /* \"#utility.yul\":31401:31404   */\n      dup4\n        /* \"#utility.yul\":31342:31409   */\n      tag_238\n      jump\t// in\n    tag_590:\n        /* \"#utility.yul\":31335:31409   */\n      swap2\n      pop\n        /* \"#utility.yul\":31418:31511   */\n      tag_591\n        /* \"#utility.yul\":31507:31510   */\n      dup3\n        /* \"#utility.yul\":31418:31511   */\n      tag_302\n      jump\t// in\n    tag_591:\n        /* \"#utility.yul\":31536:31538   */\n      0x20\n        /* \"#utility.yul\":31531:31534   */\n      dup3\n        /* \"#utility.yul\":31527:31539   */\n      add\n        /* \"#utility.yul\":31520:31539   */\n      swap1\n      pop\n        /* \"#utility.yul\":31179:31545   */\n      swap2\n      swap1\n      pop\n      jump\t// out\n        /* \"#utility.yul\":31551:31970   */\n    tag_218:\n        /* \"#utility.yul\":31717:31721   */\n      0x00\n        /* \"#utility.yul\":31755:31757   */\n      0x20\n        /* \"#utility.yul\":31744:31753   */\n      dup3\n        /* \"#utility.yul\":31740:31758   */\n      add\n        /* \"#utility.yul\":31732:31758   */\n      swap1\n      pop\n        /* \"#utility.yul\":31804:31813   */\n      dup2\n        /* \"#utility.yul\":31798:31802   */\n      dup2\n        /* \"#utility.yul\":31794:31814   */\n      sub\n        /* \"#utility.yul\":31790:31791   */\n      0x00\n        /* \"#utility.yul\":31779:31788   */\n      dup4\n        /* \"#utility.yul\":31775:31792   */\n      add\n        /* \"#utility.yul\":31768:31815   */\n      mstore\n        /* \"#utility.yul\":31832:31963   */\n      tag_593\n        /* \"#utility.yul\":31958:31962   */\n      dup2\n        /* \"#utility.yul\":31832:31963   */\n      tag_303\n      jump\t// in\n    tag_593:\n        /* \"#utility.yul\":31824:31963   */\n      swap1\n      pop\n        /* \"#utility.yul\":31551:31970   */\n      swap2\n      swap1\n      pop\n      jump\t// out\n    stop\n    data_a7938286577deae3255a22639200988050aee7d22888f2c89de893baadff27ea 616464726573732075736572416464726573732c75696e7432353620746f6b656e49642c75696e743235362074696d657374616d702c61646472657373206174746573746572\n\n    auxdata: 0xa2646970667358221220d7dd2af6b2e59fe401d58cec4527c577974940b441a5e97a4f7f98a704bf7d3864736f6c634300081b0033\n}\n",
				"bytecode": {
					"linkReferences": {},
					"object": "60c060405234801561001057600080fd5b50604051612da7380380612da783398181016040528101906100329190610669565b600073ffffffffffffffffffffffffffffffffffffffff168273ffffffffffffffffffffffffffffffffffffffff161415801561009c5750600073ffffffffffffffffffffffffffffffffffffffff168173ffffffffffffffffffffffffffffffffffffffff1614155b6100db576040517f08c379a00000000000000000000000000000000000000000000000000000000081526004016100d290610706565b60405180910390fd5b8173ffffffffffffffffffffffffffffffffffffffff1660808173ffffffffffffffffffffffffffffffffffffffff16815250508073ffffffffffffffffffffffffffffffffffffffff1660a08173ffffffffffffffffffffffffffffffffffffffff16815250506101566000801b3361015d60201b60201c565b5050610a77565b61016c8261019e60201b60201c565b6101898161017e6101bd60201b60201c565b6101c560201b60201c565b610199838361027460201b60201c565b505050565b6000806000838152602001908152602001600020600101549050919050565b600033905090565b6101d5828261036060201b60201c565b610270576102008173ffffffffffffffffffffffffffffffffffffffff1660146103ca60201b60201c565b6102148360001c60206103ca60201b60201c565b60405160200161022592919061082f565b6040516020818303038152906040526040517f08c379a000000000000000000000000000000000000000000000000000000000815260040161026791906108b3565b60405180910390fd5b5050565b610284828261036060201b60201c565b61035c57600160008084815260200190815260200160002060000160008373ffffffffffffffffffffffffffffffffffffffff1673ffffffffffffffffffffffffffffffffffffffff16815260200190815260200160002060006101000a81548160ff0219169083151502179055506103016101bd60201b60201c565b73ffffffffffffffffffffffffffffffffffffffff168173ffffffffffffffffffffffffffffffffffffffff16837f2f8788117e7eff1d82e926ec794901d17c78024a50270940304540a733656f0d60405160405180910390a45b5050565b600080600084815260200190815260200160002060000160008373ffffffffffffffffffffffffffffffffffffffff1673ffffffffffffffffffffffffffffffffffffffff16815260200190815260200160002060009054906101000a900460ff16905092915050565b6060600060028360026103dd919061090e565b6103e79190610950565b67ffffffffffffffff811115610400576103ff610984565b5b6040519080825280601f01601f1916602001820160405280156104325781602001600182028036833780820191505090505b5090507f30000000000000000000000000000000000000000000000000000000000000008160008151811061046a576104696109b3565b5b60200101907effffffffffffffffffffffffffffffffffffffffffffffffffffffffffffff1916908160001a9053507f7800000000000000000000000000000000000000000000000000000000000000816001815181106104ce576104cd6109b3565b5b60200101907effffffffffffffffffffffffffffffffffffffffffffffffffffffffffffff1916908160001a9053506000600184600261050e919061090e565b6105189190610950565b90505b60018111156105b8577f3031323334353637383961626364656600000000000000000000000000000000600f86166010811061055a576105596109b3565b5b1a60f81b828281518110610571576105706109b3565b5b60200101907effffffffffffffffffffffffffffffffffffffffffffffffffffffffffffff1916908160001a905350600485901c9450806105b1906109e2565b905061051b565b50600084146105fc576040517f08c379a00000000000000000000000000000000000000000000000000000000081526004016105f390610a57565b60405180910390fd5b8091505092915050565b600080fd5b600073ffffffffffffffffffffffffffffffffffffffff82169050919050565b60006106368261060b565b9050919050565b6106468161062b565b811461065157600080fd5b50565b6000815190506106638161063d565b92915050565b600080604083850312156106805761067f610606565b5b600061068e85828601610654565b925050602061069f85828601610654565b9150509250929050565b600082825260208201905092915050565b7f496e76616c696420616464726573730000000000000000000000000000000000600082015250565b60006106f0600f836106a9565b91506106fb826106ba565b602082019050919050565b6000602082019050818103600083015261071f816106e3565b9050919050565b600081905092915050565b7f416363657373436f6e74726f6c3a206163636f756e7420000000000000000000600082015250565b6000610767601783610726565b915061077282610731565b601782019050919050565b600081519050919050565b60005b838110156107a657808201518184015260208101905061078b565b60008484015250505050565b60006107bd8261077d565b6107c78185610726565b93506107d7818560208601610788565b80840191505092915050565b7f206973206d697373696e6720726f6c6520000000000000000000000000000000600082015250565b6000610819601183610726565b9150610824826107e3565b601182019050919050565b600061083a8261075a565b915061084682856107b2565b91506108518261080c565b915061085d82846107b2565b91508190509392505050565b6000601f19601f8301169050919050565b60006108858261077d565b61088f81856106a9565b935061089f818560208601610788565b6108a881610869565b840191505092915050565b600060208201905081810360008301526108cd818461087a565b905092915050565b6000819050919050565b7f4e487b7100000000000000000000000000000000000000000000000000000000600052601160045260246000fd5b6000610919826108d5565b9150610924836108d5565b9250828202610932816108d5565b91508282048414831517610949576109486108df565b5b5092915050565b600061095b826108d5565b9150610966836108d5565b925082820190508082111561097e5761097d6108df565b5b92915050565b7f4e487b7100000000000000000000000000000000000000000000000000000000600052604160045260246000fd5b7f4e487b7100000000000000000000000000000000000000000000000000000000600052603260045260246000fd5b60006109ed826108d5565b915060008203610a00576109ff6108df565b5b600182039050919050565b7f537472696e67733a20686578206c656e67746820696e73756666696369656e74600082015250565b6000610a416020836106a9565b9150610a4c82610a0b565b602082019050919050565b60006020820190508181036000830152610a7081610a34565b9050919050565b60805160a051612304610aa36000396000610cc70152600081816103e401526108a101526123046000f3fe608060405234801561001057600080fd5b50600436106101005760003560e01c8063677339ce11610097578063a217fddf11610066578063a217fddf146102bd578063bd462049146102db578063d547741f146102f9578063e27fadab1461031557610100565b8063677339ce146102495780636b823894146102655780638129fc1c1461028357806391d148541461028d57610100565b80632f2ff15d116100d35780632f2ff15d146101b157806336568abe146101cd5780634a0145b6146101e9578063624b04bd1461021957610100565b806301ffc9a71461010557806308f46957146101355780631ecf2fbf14610165578063248a9ca314610181575b600080fd5b61011f600480360381019061011a919061131a565b61031f565b60405161012c9190611362565b60405180910390f35b61014f600480360381019061014a91906113b3565b610399565b60405161015c9190611362565b60405180910390f35b61017f600480360381019061017a919061143e565b6104eb565b005b61019b600480360381019061019691906113b3565b61055c565b6040516101a8919061147a565b60405180910390f35b6101cb60048036038101906101c69190611495565b61057b565b005b6101e760048036038101906101e29190611495565b6105a4565b005b61020360048036038101906101fe919061143e565b610627565b6040516102109190611362565b60405180910390f35b610233600480360381019061022e919061150b565b61067d565b604051610240919061147a565b60405180910390f35b610263600480360381019061025e919061143e565b6109a4565b005b61026d610a97565b60405161027a919061147a565b60405180910390f35b61028b610a9d565b005b6102a760048036038101906102a29190611495565b610b8c565b6040516102b49190611362565b60405180910390f35b6102c5610bf6565b6040516102d2919061147a565b60405180910390f35b6102e3610bfd565b6040516102f0919061147a565b60405180910390f35b610313600480360381019061030e9190611495565b610c21565b005b61031d610c4a565b005b60007f7965db0b000000000000000000000000000000000000000000000000000000007bffffffffffffffffffffffffffffffffffffffffffffffffffffffff1916827bffffffffffffffffffffffffffffffffffffffffffffffffffffffff19161480610392575061039182610da2565b5b9050919050565b60008060001b82036103e0576040517f08c379a00000000000000000000000000000000000000000000000000000000081526004016103d7906115a8565b60405180910390fd5b60007f000000000000000000000000000000000000000000000000000000000000000073ffffffffffffffffffffffffffffffffffffffff1663a3112a64846040518263ffffffff1660e01b815260040161043b919061147a565b600060405180830381865afa158015610458573d6000803e3d6000fd5b505050506040513d6000823e3d601f19601f8201168201806040525081019061048191906118db565b90508281600001511480156104e35750600260008260e0015173ffffffffffffffffffffffffffffffffffffffff1673ffffffffffffffffffffffffffffffffffffffff16815260200190815260200160002060009054906101000a900460ff165b915050919050565b6000801b610500816104fb610e0c565b610e14565b6001600260008473ffffffffffffffffffffffffffffffffffffffff1673ffffffffffffffffffffffffffffffffffffffff16815260200190815260200160002060006101000a81548160ff0219169083151502179055505050565b6000806000838152602001908152602001600020600101549050919050565b6105848261055c565b61059581610590610e0c565b610e14565b61059f8383610eb1565b505050565b6105ac610e0c565b73ffffffffffffffffffffffffffffffffffffffff168173ffffffffffffffffffffffffffffffffffffffff1614610619576040517f08c379a000000000000000000000000000000000000000000000000000000000815260040161061090611996565b60405180910390fd5b6106238282610f91565b5050565b6000600260008373ffffffffffffffffffffffffffffffffffffffff1673ffffffffffffffffffffffffffffffffffffffff16815260200190815260200160002060009054906101000a900460ff169050919050565b6000600260003373ffffffffffffffffffffffffffffffffffffffff1673ffffffffffffffffffffffffffffffffffffffff16815260200190815260200160002060009054906101000a900460ff1661070b576040517f08c379a000000000000000000000000000000000000000000000000000000000815260040161070290611a28565b60405180910390fd5b6000801b60015403610752576040517f08c379a000000000000000000000000000000000000000000000000000000000815260040161074990611a94565b60405180910390fd5b600073ffffffffffffffffffffffffffffffffffffffff168373ffffffffffffffffffffffffffffffffffffffff16036107c1576040517f08c379a00000000000000000000000000000000000000000000000000000000081526004016107b890611b00565b60405180910390fd5b60008203610804576040517f08c379a00000000000000000000000000000000000000000000000000000000081526004016107fb90611b6c565b60405180910390fd5b60008383423360405160200161081d9493929190611baa565b60405160208183030381529060405290506000604051806040016040528060015481526020016040518060c001604052808873ffffffffffffffffffffffffffffffffffffffff168152602001600067ffffffffffffffff1681526020016001151581526020016000801b81526020018581526020016000815250815250905060007f000000000000000000000000000000000000000000000000000000000000000073ffffffffffffffffffffffffffffffffffffffff1663f17325e7836040518263ffffffff1660e01b81526004016108f89190611d55565b6020604051808303816000875af1158015610917573d6000803e3d6000fd5b505050506040513d601f19601f8201168201806040525081019061093b9190611d77565b90503373ffffffffffffffffffffffffffffffffffffffff168673ffffffffffffffffffffffffffffffffffffffff16827f63f86f3e95d67d75fed996a7db68f9e7eabf0600abbd54fccabf34ec3b5fa4a760405160405180910390a480935050505092915050565b6000801b6109b9816109b4610e0c565b610e14565b73f0bc5cc2b4866daaecb069430c60b2452007703773ffffffffffffffffffffffffffffffffffffffff168273ffffffffffffffffffffffffffffffffffffffff1603610a3b576040517f08c379a0000000000000000000000000000000000000000000000000000000008152600401610a3290611e16565b60405180910390fd5b6000600260008473ffffffffffffffffffffffffffffffffffffffff1673ffffffffffffffffffffffffffffffffffffffff16815260200190815260200160002060006101000a81548160ff0219169083151502179055505050565b60015481565b6000801b610ab281610aad610e0c565b610e14565b600360009054906101000a900460ff1615610b02576040517f08c379a0000000000000000000000000000000000000000000000000000000008152600401610af990611e82565b60405180910390fd5b60016002600073f0bc5cc2b4866daaecb069430c60b2452007703773ffffffffffffffffffffffffffffffffffffffff1673ffffffffffffffffffffffffffffffffffffffff16815260200190815260200160002060006101000a81548160ff0219169083151502179055506001600360006101000a81548160ff02191690831515021790555050565b600080600084815260200190815260200160002060000160008373ffffffffffffffffffffffffffffffffffffffff1673ffffffffffffffffffffffffffffffffffffffff16815260200190815260200160002060009054906101000a900460ff16905092915050565b6000801b81565b7ffe59eece44efc73d9bec857e15b77961120d43be620d135f2f6356bc328d55f181565b610c2a8261055c565b610c3b81610c36610e0c565b610e14565b610c458383610f91565b505050565b6000801b610c5f81610c5a610e0c565b610e14565b6000801b60015414610ca6576040517f08c379a0000000000000000000000000000000000000000000000000000000008152600401610c9d90611eee565b60405180910390fd5b600060405180608001604052806046815260200161228960469139905060007f000000000000000000000000000000000000000000000000000000000000000073ffffffffffffffffffffffffffffffffffffffff166360d7a27883600060016040518463ffffffff1660e01b8152600401610d2493929190611fb1565b6020604051808303816000875af1158015610d43573d6000803e3d6000fd5b505050506040513d601f19601f82011682018060405250810190610d679190611d77565b905080600181905550807fed68f5afea10be5233231e5d15186bf1c9c0b9f6d3a767404d90688bccf293af60405160405180910390a2505050565b60007f01ffc9a7000000000000000000000000000000000000000000000000000000007bffffffffffffffffffffffffffffffffffffffffffffffffffffffff1916827bffffffffffffffffffffffffffffffffffffffffffffffffffffffff1916149050919050565b600033905090565b610e1e8282610b8c565b610ead57610e438173ffffffffffffffffffffffffffffffffffffffff166014611072565b610e518360001c6020611072565b604051602001610e629291906120c3565b6040516020818303038152906040526040517f08c379a0000000000000000000000000000000000000000000000000000000008152600401610ea491906120fd565b60405180910390fd5b5050565b610ebb8282610b8c565b610f8d57600160008084815260200190815260200160002060000160008373ffffffffffffffffffffffffffffffffffffffff1673ffffffffffffffffffffffffffffffffffffffff16815260200190815260200160002060006101000a81548160ff021916908315150217905550610f32610e0c565b73ffffffffffffffffffffffffffffffffffffffff168173ffffffffffffffffffffffffffffffffffffffff16837f2f8788117e7eff1d82e926ec794901d17c78024a50270940304540a733656f0d60405160405180910390a45b5050565b610f9b8282610b8c565b1561106e57600080600084815260200190815260200160002060000160008373ffffffffffffffffffffffffffffffffffffffff1673ffffffffffffffffffffffffffffffffffffffff16815260200190815260200160002060006101000a81548160ff021916908315150217905550611013610e0c565b73ffffffffffffffffffffffffffffffffffffffff168173ffffffffffffffffffffffffffffffffffffffff16837ff6391f5c32d9c69d2a47ea670b442974b53935d1edc7fd64eb21e047a839171b60405160405180910390a45b5050565b606060006002836002611085919061214e565b61108f9190612190565b67ffffffffffffffff8111156110a8576110a76115de565b5b6040519080825280601f01601f1916602001820160405280156110da5781602001600182028036833780820191505090505b5090507f300000000000000000000000000000000000000000000000000000000000000081600081518110611112576111116121c4565b5b60200101907effffffffffffffffffffffffffffffffffffffffffffffffffffffffffffff1916908160001a9053507f780000000000000000000000000000000000000000000000000000000000000081600181518110611176576111756121c4565b5b60200101907effffffffffffffffffffffffffffffffffffffffffffffffffffffffffffff1916908160001a905350600060018460026111b6919061214e565b6111c09190612190565b90505b6001811115611260577f3031323334353637383961626364656600000000000000000000000000000000600f861660108110611202576112016121c4565b5b1a60f81b828281518110611219576112186121c4565b5b60200101907effffffffffffffffffffffffffffffffffffffffffffffffffffffffffffff1916908160001a905350600485901c945080611259906121f3565b90506111c3565b50600084146112a4576040517f08c379a000000000000000000000000000000000000000000000000000000000815260040161129b90612268565b60405180910390fd5b8091505092915050565b6000604051905090565b600080fd5b600080fd5b60007fffffffff0000000000000000000000000000000000000000000000000000000082169050919050565b6112f7816112c2565b811461130257600080fd5b50565b600081359050611314816112ee565b92915050565b6000602082840312156113305761132f6112b8565b5b600061133e84828501611305565b91505092915050565b60008115159050919050565b61135c81611347565b82525050565b60006020820190506113776000830184611353565b92915050565b6000819050919050565b6113908161137d565b811461139b57600080fd5b50565b6000813590506113ad81611387565b92915050565b6000602082840312156113c9576113c86112b8565b5b60006113d78482850161139e565b91505092915050565b600073ffffffffffffffffffffffffffffffffffffffff82169050919050565b600061140b826113e0565b9050919050565b61141b81611400565b811461142657600080fd5b50565b60008135905061143881611412565b92915050565b600060208284031215611454576114536112b8565b5b600061146284828501611429565b91505092915050565b6114748161137d565b82525050565b600060208201905061148f600083018461146b565b92915050565b600080604083850312156114ac576114ab6112b8565b5b60006114ba8582860161139e565b92505060206114cb85828601611429565b9150509250929050565b6000819050919050565b6114e8816114d5565b81146114f357600080fd5b50565b600081359050611505816114df565b92915050565b60008060408385031215611522576115216112b8565b5b600061153085828601611429565b9250506020611541858286016114f6565b9150509250929050565b600082825260208201905092915050565b7f496e76616c6964206174746573746174696f6e20494400000000000000000000600082015250565b600061159260168361154b565b915061159d8261155c565b602082019050919050565b600060208201905081810360008301526115c181611585565b9050919050565b600080fd5b6000601f19601f8301169050919050565b7f4e487b7100000000000000000000000000000000000000000000000000000000600052604160045260246000fd5b611616826115cd565b810181811067ffffffffffffffff82111715611635576116346115de565b5b80604052505050565b60006116486112ae565b9050611654828261160d565b919050565b600080fd5b60008151905061166d81611387565b92915050565b600067ffffffffffffffff82169050919050565b61169081611673565b811461169b57600080fd5b50565b6000815190506116ad81611687565b92915050565b6000815190506116c281611412565b92915050565b6116d181611347565b81146116dc57600080fd5b50565b6000815190506116ee816116c8565b92915050565b600080fd5b600080fd5b600067ffffffffffffffff821115611719576117186115de565b5b611722826115cd565b9050602081019050919050565b60005b8381101561174d578082015181840152602081019050611732565b60008484015250505050565b600061176c611767846116fe565b61163e565b905082815260208101848484011115611788576117876116f9565b5b61179384828561172f565b509392505050565b600082601f8301126117b0576117af6116f4565b5b81516117c0848260208601611759565b91505092915050565b600061014082840312156117e0576117df6115c8565b5b6117eb61014061163e565b905060006117fb8482850161165e565b600083015250602061180f8482850161165e565b60208301525060406118238482850161169e565b60408301525060606118378482850161169e565b606083015250608061184b8482850161169e565b60808301525060a061185f8482850161165e565b60a08301525060c0611873848285016116b3565b60c08301525060e0611887848285016116b3565b60e08301525061010061189c848285016116df565b6101008301525061012082015167ffffffffffffffff8111156118c2576118c1611659565b5b6118ce8482850161179b565b6101208301525092915050565b6000602082840312156118f1576118f06112b8565b5b600082015167ffffffffffffffff81111561190f5761190e6112bd565b5b61191b848285016117c9565b91505092915050565b7f416363657373436f6e74726f6c3a2063616e206f6e6c792072656e6f756e636560008201527f20726f6c657320666f722073656c660000000000000000000000000000000000602082015250565b6000611980602f8361154b565b915061198b82611924565b604082019050919050565b600060208201905081810360008301526119af81611973565b9050919050565b7f4e6f7420617574686f72697a656420746f20637265617465206174746573746160008201527f74696f6e73000000000000000000000000000000000000000000000000000000602082015250565b6000611a1260258361154b565b9150611a1d826119b6565b604082019050919050565b60006020820190508181036000830152611a4181611a05565b9050919050565b7f536368656d61206e6f7420637265617465640000000000000000000000000000600082015250565b6000611a7e60128361154b565b9150611a8982611a48565b602082019050919050565b60006020820190508181036000830152611aad81611a71565b9050919050565b7f496e76616c696420726563697069656e74000000000000000000000000000000600082015250565b6000611aea60118361154b565b9150611af582611ab4565b602082019050919050565b60006020820190508181036000830152611b1981611add565b9050919050565b7f496e76616c696420746f6b656e20494400000000000000000000000000000000600082015250565b6000611b5660108361154b565b9150611b6182611b20565b602082019050919050565b60006020820190508181036000830152611b8581611b49565b9050919050565b611b9581611400565b82525050565b611ba4816114d5565b82525050565b6000608082019050611bbf6000830187611b8c565b611bcc6020830186611b9b565b611bd96040830185611b9b565b611be66060830184611b8c565b95945050505050565b611bf88161137d565b82525050565b611c0781611400565b82525050565b611c1681611673565b82525050565b611c2581611347565b82525050565b600081519050919050565b600082825260208201905092915050565b6000611c5282611c2b565b611c5c8185611c36565b9350611c6c81856020860161172f565b611c75816115cd565b840191505092915050565b611c89816114d5565b82525050565b600060c083016000830151611ca76000860182611bfe565b506020830151611cba6020860182611c0d565b506040830151611ccd6040860182611c1c565b506060830151611ce06060860182611bef565b5060808301518482036080860152611cf88282611c47565b91505060a0830151611d0d60a0860182611c80565b508091505092915050565b6000604083016000830151611d306000860182611bef565b5060208301518482036020860152611d488282611c8f565b9150508091505092915050565b60006020820190508181036000830152611d6f8184611d18565b905092915050565b600060208284031215611d8d57611d8c6112b8565b5b6000611d9b8482850161165e565b91505092915050565b7f43616e6e6f74207265766f6b6520726f6c652066726f6d206d61696e2061747460008201527f6573746174696f6e2063726561746f7200000000000000000000000000000000602082015250565b6000611e0060308361154b565b9150611e0b82611da4565b604082019050919050565b60006020820190508181036000830152611e2f81611df3565b9050919050565b7f436f6e747261637420616c726561647920696e697469616c697a656400000000600082015250565b6000611e6c601c8361154b565b9150611e7782611e36565b602082019050919050565b60006020820190508181036000830152611e9b81611e5f565b9050919050565b7f536368656d6120616c7265616479206372656174656400000000000000000000600082015250565b6000611ed860168361154b565b9150611ee382611ea2565b602082019050919050565b60006020820190508181036000830152611f0781611ecb565b9050919050565b600081519050919050565b6000611f2482611f0e565b611f2e818561154b565b9350611f3e81856020860161172f565b611f47816115cd565b840191505092915050565b6000819050919050565b6000611f77611f72611f6d846113e0565b611f52565b6113e0565b9050919050565b6000611f8982611f5c565b9050919050565b6000611f9b82611f7e565b9050919050565b611fab81611f90565b82525050565b60006060820190508181036000830152611fcb8186611f19565b9050611fda6020830185611fa2565b611fe76040830184611353565b949350505050565b600081905092915050565b7f416363657373436f6e74726f6c3a206163636f756e7420000000000000000000600082015250565b6000612030601783611fef565b915061203b82611ffa565b601782019050919050565b600061205182611f0e565b61205b8185611fef565b935061206b81856020860161172f565b80840191505092915050565b7f206973206d697373696e6720726f6c6520000000000000000000000000000000600082015250565b60006120ad601183611fef565b91506120b882612077565b601182019050919050565b60006120ce82612023565b91506120da8285612046565b91506120e5826120a0565b91506120f18284612046565b91508190509392505050565b600060208201905081810360008301526121178184611f19565b905092915050565b7f4e487b7100000000000000000000000000000000000000000000000000000000600052601160045260246000fd5b6000612159826114d5565b9150612164836114d5565b9250828202612172816114d5565b915082820484148315176121895761218861211f565b5b5092915050565b600061219b826114d5565b91506121a6836114d5565b92508282019050808211156121be576121bd61211f565b5b92915050565b7f4e487b7100000000000000000000000000000000000000000000000000000000600052603260045260246000fd5b60006121fe826114d5565b9150600082036122115761221061211f565b5b600182039050919050565b7f537472696e67733a20686578206c656e67746820696e73756666696369656e74600082015250565b600061225260208361154b565b915061225d8261221c565b602082019050919050565b6000602082019050818103600083015261228181612245565b905091905056fe616464726573732075736572416464726573732c75696e7432353620746f6b656e49642c75696e743235362074696d657374616d702c61646472657373206174746573746572a2646970667358221220d7dd2af6b2e59fe401d58cec4527c577974940b441a5e97a4f7f98a704bf7d3864736f6c634300081b0033",
					"opcodes": "PUSH1 0xC0 PUSH1 0x40 MSTORE CALLVALUE DUP1 ISZERO PUSH2 0x10 JUMPI PUSH1 0x0 DUP1 REVERT JUMPDEST POP PUSH1 0x40 MLOAD PUSH2 0x2DA7 CODESIZE SUB DUP1 PUSH2 0x2DA7 DUP4 CODECOPY DUP2 DUP2 ADD PUSH1 0x40 MSTORE DUP2 ADD SWAP1 PUSH2 0x32 SWAP2 SWAP1 PUSH2 0x669 JUMP JUMPDEST PUSH1 0x0 PUSH20 0xFFFFFFFFFFFFFFFFFFFFFFFFFFFFFFFFFFFFFFFF AND DUP3 PUSH20 0xFFFFFFFFFFFFFFFFFFFFFFFFFFFFFFFFFFFFFFFF AND EQ ISZERO DUP1 ISZERO PUSH2 0x9C JUMPI POP PUSH1 0x0 PUSH20 0xFFFFFFFFFFFFFFFFFFFFFFFFFFFFFFFFFFFFFFFF AND DUP2 PUSH20 0xFFFFFFFFFFFFFFFFFFFFFFFFFFFFFFFFFFFFFFFF AND EQ ISZERO JUMPDEST PUSH2 0xDB JUMPI PUSH1 0x40 MLOAD PUSH32 0x8C379A000000000000000000000000000000000000000000000000000000000 DUP2 MSTORE PUSH1 0x4 ADD PUSH2 0xD2 SWAP1 PUSH2 0x706 JUMP JUMPDEST PUSH1 0x40 MLOAD DUP1 SWAP2 SUB SWAP1 REVERT JUMPDEST DUP2 PUSH20 0xFFFFFFFFFFFFFFFFFFFFFFFFFFFFFFFFFFFFFFFF AND PUSH1 0x80 DUP2 PUSH20 0xFFFFFFFFFFFFFFFFFFFFFFFFFFFFFFFFFFFFFFFF AND DUP2 MSTORE POP POP DUP1 PUSH20 0xFFFFFFFFFFFFFFFFFFFFFFFFFFFFFFFFFFFFFFFF AND PUSH1 0xA0 DUP2 PUSH20 0xFFFFFFFFFFFFFFFFFFFFFFFFFFFFFFFFFFFFFFFF AND DUP2 MSTORE POP POP PUSH2 0x156 PUSH1 0x0 DUP1 SHL CALLER PUSH2 0x15D PUSH1 0x20 SHL PUSH1 0x20 SHR JUMP JUMPDEST POP POP PUSH2 0xA77 JUMP JUMPDEST PUSH2 0x16C DUP3 PUSH2 0x19E PUSH1 0x20 SHL PUSH1 0x20 SHR JUMP JUMPDEST PUSH2 0x189 DUP2 PUSH2 0x17E PUSH2 0x1BD PUSH1 0x20 SHL PUSH1 0x20 SHR JUMP JUMPDEST PUSH2 0x1C5 PUSH1 0x20 SHL PUSH1 0x20 SHR JUMP JUMPDEST PUSH2 0x199 DUP4 DUP4 PUSH2 0x274 PUSH1 0x20 SHL PUSH1 0x20 SHR JUMP JUMPDEST POP POP POP JUMP JUMPDEST PUSH1 0x0 DUP1 PUSH1 0x0 DUP4 DUP2 MSTORE PUSH1 0x20 ADD SWAP1 DUP2 MSTORE PUSH1 0x20 ADD PUSH1 0x0 KECCAK256 PUSH1 0x1 ADD SLOAD SWAP1 POP SWAP2 SWAP1 POP JUMP JUMPDEST PUSH1 0x0 CALLER SWAP1 POP SWAP1 JUMP JUMPDEST PUSH2 0x1D5 DUP3 DUP3 PUSH2 0x360 PUSH1 0x20 SHL PUSH1 0x20 SHR JUMP JUMPDEST PUSH2 0x270 JUMPI PUSH2 0x200 DUP2 PUSH20 0xFFFFFFFFFFFFFFFFFFFFFFFFFFFFFFFFFFFFFFFF AND PUSH1 0x14 PUSH2 0x3CA PUSH1 0x20 SHL PUSH1 0x20 SHR JUMP JUMPDEST PUSH2 0x214 DUP4 PUSH1 0x0 SHR PUSH1 0x20 PUSH2 0x3CA PUSH1 0x20 SHL PUSH1 0x20 SHR JUMP JUMPDEST PUSH1 0x40 MLOAD PUSH1 0x20 ADD PUSH2 0x225 SWAP3 SWAP2 SWAP1 PUSH2 0x82F JUMP JUMPDEST PUSH1 0x40 MLOAD PUSH1 0x20 DUP2 DUP4 SUB SUB DUP2 MSTORE SWAP1 PUSH1 0x40 MSTORE PUSH1 0x40 MLOAD PUSH32 0x8C379A000000000000000000000000000000000000000000000000000000000 DUP2 MSTORE PUSH1 0x4 ADD PUSH2 0x267 SWAP2 SWAP1 PUSH2 0x8B3 JUMP JUMPDEST PUSH1 0x40 MLOAD DUP1 SWAP2 SUB SWAP1 REVERT JUMPDEST POP POP JUMP JUMPDEST PUSH2 0x284 DUP3 DUP3 PUSH2 0x360 PUSH1 0x20 SHL PUSH1 0x20 SHR JUMP JUMPDEST PUSH2 0x35C JUMPI PUSH1 0x1 PUSH1 0x0 DUP1 DUP5 DUP2 MSTORE PUSH1 0x20 ADD SWAP1 DUP2 MSTORE PUSH1 0x20 ADD PUSH1 0x0 KECCAK256 PUSH1 0x0 ADD PUSH1 0x0 DUP4 PUSH20 0xFFFFFFFFFFFFFFFFFFFFFFFFFFFFFFFFFFFFFFFF AND PUSH20 0xFFFFFFFFFFFFFFFFFFFFFFFFFFFFFFFFFFFFFFFF AND DUP2 MSTORE PUSH1 0x20 ADD SWAP1 DUP2 MSTORE PUSH1 0x20 ADD PUSH1 0x0 KECCAK256 PUSH1 0x0 PUSH2 0x100 EXP DUP2 SLOAD DUP2 PUSH1 0xFF MUL NOT AND SWAP1 DUP4 ISZERO ISZERO MUL OR SWAP1 SSTORE POP PUSH2 0x301 PUSH2 0x1BD PUSH1 0x20 SHL PUSH1 0x20 SHR JUMP JUMPDEST PUSH20 0xFFFFFFFFFFFFFFFFFFFFFFFFFFFFFFFFFFFFFFFF AND DUP2 PUSH20 0xFFFFFFFFFFFFFFFFFFFFFFFFFFFFFFFFFFFFFFFF AND DUP4 PUSH32 0x2F8788117E7EFF1D82E926EC794901D17C78024A50270940304540A733656F0D PUSH1 0x40 MLOAD PUSH1 0x40 MLOAD DUP1 SWAP2 SUB SWAP1 LOG4 JUMPDEST POP POP JUMP JUMPDEST PUSH1 0x0 DUP1 PUSH1 0x0 DUP5 DUP2 MSTORE PUSH1 0x20 ADD SWAP1 DUP2 MSTORE PUSH1 0x20 ADD PUSH1 0x0 KECCAK256 PUSH1 0x0 ADD PUSH1 0x0 DUP4 PUSH20 0xFFFFFFFFFFFFFFFFFFFFFFFFFFFFFFFFFFFFFFFF AND PUSH20 0xFFFFFFFFFFFFFFFFFFFFFFFFFFFFFFFFFFFFFFFF AND DUP2 MSTORE PUSH1 0x20 ADD SWAP1 DUP2 MSTORE PUSH1 0x20 ADD PUSH1 0x0 KECCAK256 PUSH1 0x0 SWAP1 SLOAD SWAP1 PUSH2 0x100 EXP SWAP1 DIV PUSH1 0xFF AND SWAP1 POP SWAP3 SWAP2 POP POP JUMP JUMPDEST PUSH1 0x60 PUSH1 0x0 PUSH1 0x2 DUP4 PUSH1 0x2 PUSH2 0x3DD SWAP2 SWAP1 PUSH2 0x90E JUMP JUMPDEST PUSH2 0x3E7 SWAP2 SWAP1 PUSH2 0x950 JUMP JUMPDEST PUSH8 0xFFFFFFFFFFFFFFFF DUP2 GT ISZERO PUSH2 0x400 JUMPI PUSH2 0x3FF PUSH2 0x984 JUMP JUMPDEST JUMPDEST PUSH1 0x40 MLOAD SWAP1 DUP1 DUP3 MSTORE DUP1 PUSH1 0x1F ADD PUSH1 0x1F NOT AND PUSH1 0x20 ADD DUP3 ADD PUSH1 0x40 MSTORE DUP1 ISZERO PUSH2 0x432 JUMPI DUP2 PUSH1 0x20 ADD PUSH1 0x1 DUP3 MUL DUP1 CALLDATASIZE DUP4 CALLDATACOPY DUP1 DUP3 ADD SWAP2 POP POP SWAP1 POP JUMPDEST POP SWAP1 POP PUSH32 0x3000000000000000000000000000000000000000000000000000000000000000 DUP2 PUSH1 0x0 DUP2 MLOAD DUP2 LT PUSH2 0x46A JUMPI PUSH2 0x469 PUSH2 0x9B3 JUMP JUMPDEST JUMPDEST PUSH1 0x20 ADD ADD SWAP1 PUSH31 0xFFFFFFFFFFFFFFFFFFFFFFFFFFFFFFFFFFFFFFFFFFFFFFFFFFFFFFFFFFFFFF NOT AND SWAP1 DUP2 PUSH1 0x0 BYTE SWAP1 MSTORE8 POP PUSH32 0x7800000000000000000000000000000000000000000000000000000000000000 DUP2 PUSH1 0x1 DUP2 MLOAD DUP2 LT PUSH2 0x4CE JUMPI PUSH2 0x4CD PUSH2 0x9B3 JUMP JUMPDEST JUMPDEST PUSH1 0x20 ADD ADD SWAP1 PUSH31 0xFFFFFFFFFFFFFFFFFFFFFFFFFFFFFFFFFFFFFFFFFFFFFFFFFFFFFFFFFFFFFF NOT AND SWAP1 DUP2 PUSH1 0x0 BYTE SWAP1 MSTORE8 POP PUSH1 0x0 PUSH1 0x1 DUP5 PUSH1 0x2 PUSH2 0x50E SWAP2 SWAP1 PUSH2 0x90E JUMP JUMPDEST PUSH2 0x518 SWAP2 SWAP1 PUSH2 0x950 JUMP JUMPDEST SWAP1 POP JUMPDEST PUSH1 0x1 DUP2 GT ISZERO PUSH2 0x5B8 JUMPI PUSH32 0x3031323334353637383961626364656600000000000000000000000000000000 PUSH1 0xF DUP7 AND PUSH1 0x10 DUP2 LT PUSH2 0x55A JUMPI PUSH2 0x559 PUSH2 0x9B3 JUMP JUMPDEST JUMPDEST BYTE PUSH1 0xF8 SHL DUP3 DUP3 DUP2 MLOAD DUP2 LT PUSH2 0x571 JUMPI PUSH2 0x570 PUSH2 0x9B3 JUMP JUMPDEST JUMPDEST PUSH1 0x20 ADD ADD SWAP1 PUSH31 0xFFFFFFFFFFFFFFFFFFFFFFFFFFFFFFFFFFFFFFFFFFFFFFFFFFFFFFFFFFFFFF NOT AND SWAP1 DUP2 PUSH1 0x0 BYTE SWAP1 MSTORE8 POP PUSH1 0x4 DUP6 SWAP1 SHR SWAP5 POP DUP1 PUSH2 0x5B1 SWAP1 PUSH2 0x9E2 JUMP JUMPDEST SWAP1 POP PUSH2 0x51B JUMP JUMPDEST POP PUSH1 0x0 DUP5 EQ PUSH2 0x5FC JUMPI PUSH1 0x40 MLOAD PUSH32 0x8C379A000000000000000000000000000000000000000000000000000000000 DUP2 MSTORE PUSH1 0x4 ADD PUSH2 0x5F3 SWAP1 PUSH2 0xA57 JUMP JUMPDEST PUSH1 0x40 MLOAD DUP1 SWAP2 SUB SWAP1 REVERT JUMPDEST DUP1 SWAP2 POP POP SWAP3 SWAP2 POP POP JUMP JUMPDEST PUSH1 0x0 DUP1 REVERT JUMPDEST PUSH1 0x0 PUSH20 0xFFFFFFFFFFFFFFFFFFFFFFFFFFFFFFFFFFFFFFFF DUP3 AND SWAP1 POP SWAP2 SWAP1 POP JUMP JUMPDEST PUSH1 0x0 PUSH2 0x636 DUP3 PUSH2 0x60B JUMP JUMPDEST SWAP1 POP SWAP2 SWAP1 POP JUMP JUMPDEST PUSH2 0x646 DUP2 PUSH2 0x62B JUMP JUMPDEST DUP2 EQ PUSH2 0x651 JUMPI PUSH1 0x0 DUP1 REVERT JUMPDEST POP JUMP JUMPDEST PUSH1 0x0 DUP2 MLOAD SWAP1 POP PUSH2 0x663 DUP2 PUSH2 0x63D JUMP JUMPDEST SWAP3 SWAP2 POP POP JUMP JUMPDEST PUSH1 0x0 DUP1 PUSH1 0x40 DUP4 DUP6 SUB SLT ISZERO PUSH2 0x680 JUMPI PUSH2 0x67F PUSH2 0x606 JUMP JUMPDEST JUMPDEST PUSH1 0x0 PUSH2 0x68E DUP6 DUP3 DUP7 ADD PUSH2 0x654 JUMP JUMPDEST SWAP3 POP POP PUSH1 0x20 PUSH2 0x69F DUP6 DUP3 DUP7 ADD PUSH2 0x654 JUMP JUMPDEST SWAP2 POP POP SWAP3 POP SWAP3 SWAP1 POP JUMP JUMPDEST PUSH1 0x0 DUP3 DUP3 MSTORE PUSH1 0x20 DUP3 ADD SWAP1 POP SWAP3 SWAP2 POP POP JUMP JUMPDEST PUSH32 0x496E76616C696420616464726573730000000000000000000000000000000000 PUSH1 0x0 DUP3 ADD MSTORE POP JUMP JUMPDEST PUSH1 0x0 PUSH2 0x6F0 PUSH1 0xF DUP4 PUSH2 0x6A9 JUMP JUMPDEST SWAP2 POP PUSH2 0x6FB DUP3 PUSH2 0x6BA JUMP JUMPDEST PUSH1 0x20 DUP3 ADD SWAP1 POP SWAP2 SWAP1 POP JUMP JUMPDEST PUSH1 0x0 PUSH1 0x20 DUP3 ADD SWAP1 POP DUP2 DUP2 SUB PUSH1 0x0 DUP4 ADD MSTORE PUSH2 0x71F DUP2 PUSH2 0x6E3 JUMP JUMPDEST SWAP1 POP SWAP2 SWAP1 POP JUMP JUMPDEST PUSH1 0x0 DUP2 SWAP1 POP SWAP3 SWAP2 POP POP JUMP JUMPDEST PUSH32 0x416363657373436F6E74726F6C3A206163636F756E7420000000000000000000 PUSH1 0x0 DUP3 ADD MSTORE POP JUMP JUMPDEST PUSH1 0x0 PUSH2 0x767 PUSH1 0x17 DUP4 PUSH2 0x726 JUMP JUMPDEST SWAP2 POP PUSH2 0x772 DUP3 PUSH2 0x731 JUMP JUMPDEST PUSH1 0x17 DUP3 ADD SWAP1 POP SWAP2 SWAP1 POP JUMP JUMPDEST PUSH1 0x0 DUP2 MLOAD SWAP1 POP SWAP2 SWAP1 POP JUMP JUMPDEST PUSH1 0x0 JUMPDEST DUP4 DUP2 LT ISZERO PUSH2 0x7A6 JUMPI DUP1 DUP3 ADD MLOAD DUP2 DUP5 ADD MSTORE PUSH1 0x20 DUP2 ADD SWAP1 POP PUSH2 0x78B JUMP JUMPDEST PUSH1 0x0 DUP5 DUP5 ADD MSTORE POP POP POP POP JUMP JUMPDEST PUSH1 0x0 PUSH2 0x7BD DUP3 PUSH2 0x77D JUMP JUMPDEST PUSH2 0x7C7 DUP2 DUP6 PUSH2 0x726 JUMP JUMPDEST SWAP4 POP PUSH2 0x7D7 DUP2 DUP6 PUSH1 0x20 DUP7 ADD PUSH2 0x788 JUMP JUMPDEST DUP1 DUP5 ADD SWAP2 POP POP SWAP3 SWAP2 POP POP JUMP JUMPDEST PUSH32 0x206973206D697373696E6720726F6C6520000000000000000000000000000000 PUSH1 0x0 DUP3 ADD MSTORE POP JUMP JUMPDEST PUSH1 0x0 PUSH2 0x819 PUSH1 0x11 DUP4 PUSH2 0x726 JUMP JUMPDEST SWAP2 POP PUSH2 0x824 DUP3 PUSH2 0x7E3 JUMP JUMPDEST PUSH1 0x11 DUP3 ADD SWAP1 POP SWAP2 SWAP1 POP JUMP JUMPDEST PUSH1 0x0 PUSH2 0x83A DUP3 PUSH2 0x75A JUMP JUMPDEST SWAP2 POP PUSH2 0x846 DUP3 DUP6 PUSH2 0x7B2 JUMP JUMPDEST SWAP2 POP PUSH2 0x851 DUP3 PUSH2 0x80C JUMP JUMPDEST SWAP2 POP PUSH2 0x85D DUP3 DUP5 PUSH2 0x7B2 JUMP JUMPDEST SWAP2 POP DUP2 SWAP1 POP SWAP4 SWAP3 POP POP POP JUMP JUMPDEST PUSH1 0x0 PUSH1 0x1F NOT PUSH1 0x1F DUP4 ADD AND SWAP1 POP SWAP2 SWAP1 POP JUMP JUMPDEST PUSH1 0x0 PUSH2 0x885 DUP3 PUSH2 0x77D JUMP JUMPDEST PUSH2 0x88F DUP2 DUP6 PUSH2 0x6A9 JUMP JUMPDEST SWAP4 POP PUSH2 0x89F DUP2 DUP6 PUSH1 0x20 DUP7 ADD PUSH2 0x788 JUMP JUMPDEST PUSH2 0x8A8 DUP2 PUSH2 0x869 JUMP JUMPDEST DUP5 ADD SWAP2 POP POP SWAP3 SWAP2 POP POP JUMP JUMPDEST PUSH1 0x0 PUSH1 0x20 DUP3 ADD SWAP1 POP DUP2 DUP2 SUB PUSH1 0x0 DUP4 ADD MSTORE PUSH2 0x8CD DUP2 DUP5 PUSH2 0x87A JUMP JUMPDEST SWAP1 POP SWAP3 SWAP2 POP POP JUMP JUMPDEST PUSH1 0x0 DUP2 SWAP1 POP SWAP2 SWAP1 POP JUMP JUMPDEST PUSH32 0x4E487B7100000000000000000000000000000000000000000000000000000000 PUSH1 0x0 MSTORE PUSH1 0x11 PUSH1 0x4 MSTORE PUSH1 0x24 PUSH1 0x0 REVERT JUMPDEST PUSH1 0x0 PUSH2 0x919 DUP3 PUSH2 0x8D5 JUMP JUMPDEST SWAP2 POP PUSH2 0x924 DUP4 PUSH2 0x8D5 JUMP JUMPDEST SWAP3 POP DUP3 DUP3 MUL PUSH2 0x932 DUP2 PUSH2 0x8D5 JUMP JUMPDEST SWAP2 POP DUP3 DUP3 DIV DUP5 EQ DUP4 ISZERO OR PUSH2 0x949 JUMPI PUSH2 0x948 PUSH2 0x8DF JUMP JUMPDEST JUMPDEST POP SWAP3 SWAP2 POP POP JUMP JUMPDEST PUSH1 0x0 PUSH2 0x95B DUP3 PUSH2 0x8D5 JUMP JUMPDEST SWAP2 POP PUSH2 0x966 DUP4 PUSH2 0x8D5 JUMP JUMPDEST SWAP3 POP DUP3 DUP3 ADD SWAP1 POP DUP1 DUP3 GT ISZERO PUSH2 0x97E JUMPI PUSH2 0x97D PUSH2 0x8DF JUMP JUMPDEST JUMPDEST SWAP3 SWAP2 POP POP JUMP JUMPDEST PUSH32 0x4E487B7100000000000000000000000000000000000000000000000000000000 PUSH1 0x0 MSTORE PUSH1 0x41 PUSH1 0x4 MSTORE PUSH1 0x24 PUSH1 0x0 REVERT JUMPDEST PUSH32 0x4E487B7100000000000000000000000000000000000000000000000000000000 PUSH1 0x0 MSTORE PUSH1 0x32 PUSH1 0x4 MSTORE PUSH1 0x24 PUSH1 0x0 REVERT JUMPDEST PUSH1 0x0 PUSH2 0x9ED DUP3 PUSH2 0x8D5 JUMP JUMPDEST SWAP2 POP PUSH1 0x0 DUP3 SUB PUSH2 0xA00 JUMPI PUSH2 0x9FF PUSH2 0x8DF JUMP JUMPDEST JUMPDEST PUSH1 0x1 DUP3 SUB SWAP1 POP SWAP2 SWAP1 POP JUMP JUMPDEST PUSH32 0x537472696E67733A20686578206C656E67746820696E73756666696369656E74 PUSH1 0x0 DUP3 ADD MSTORE POP JUMP JUMPDEST PUSH1 0x0 PUSH2 0xA41 PUSH1 0x20 DUP4 PUSH2 0x6A9 JUMP JUMPDEST SWAP2 POP PUSH2 0xA4C DUP3 PUSH2 0xA0B JUMP JUMPDEST PUSH1 0x20 DUP3 ADD SWAP1 POP SWAP2 SWAP1 POP JUMP JUMPDEST PUSH1 0x0 PUSH1 0x20 DUP3 ADD SWAP1 POP DUP2 DUP2 SUB PUSH1 0x0 DUP4 ADD MSTORE PUSH2 0xA70 DUP2 PUSH2 0xA34 JUMP JUMPDEST SWAP1 POP SWAP2 SWAP1 POP JUMP JUMPDEST PUSH1 0x80 MLOAD PUSH1 0xA0 MLOAD PUSH2 0x2304 PUSH2 0xAA3 PUSH1 0x0 CODECOPY PUSH1 0x0 PUSH2 0xCC7 ADD MSTORE PUSH1 0x0 DUP2 DUP2 PUSH2 0x3E4 ADD MSTORE PUSH2 0x8A1 ADD MSTORE PUSH2 0x2304 PUSH1 0x0 RETURN INVALID PUSH1 0x80 PUSH1 0x40 MSTORE CALLVALUE DUP1 ISZERO PUSH2 0x10 JUMPI PUSH1 0x0 DUP1 REVERT JUMPDEST POP PUSH1 0x4 CALLDATASIZE LT PUSH2 0x100 JUMPI PUSH1 0x0 CALLDATALOAD PUSH1 0xE0 SHR DUP1 PUSH4 0x677339CE GT PUSH2 0x97 JUMPI DUP1 PUSH4 0xA217FDDF GT PUSH2 0x66 JUMPI DUP1 PUSH4 0xA217FDDF EQ PUSH2 0x2BD JUMPI DUP1 PUSH4 0xBD462049 EQ PUSH2 0x2DB JUMPI DUP1 PUSH4 0xD547741F EQ PUSH2 0x2F9 JUMPI DUP1 PUSH4 0xE27FADAB EQ PUSH2 0x315 JUMPI PUSH2 0x100 JUMP JUMPDEST DUP1 PUSH4 0x677339CE EQ PUSH2 0x249 JUMPI DUP1 PUSH4 0x6B823894 EQ PUSH2 0x265 JUMPI DUP1 PUSH4 0x8129FC1C EQ PUSH2 0x283 JUMPI DUP1 PUSH4 0x91D14854 EQ PUSH2 0x28D JUMPI PUSH2 0x100 JUMP JUMPDEST DUP1 PUSH4 0x2F2FF15D GT PUSH2 0xD3 JUMPI DUP1 PUSH4 0x2F2FF15D EQ PUSH2 0x1B1 JUMPI DUP1 PUSH4 0x36568ABE EQ PUSH2 0x1CD JUMPI DUP1 PUSH4 0x4A0145B6 EQ PUSH2 0x1E9 JUMPI DUP1 PUSH4 0x624B04BD EQ PUSH2 0x219 JUMPI PUSH2 0x100 JUMP JUMPDEST DUP1 PUSH4 0x1FFC9A7 EQ PUSH2 0x105 JUMPI DUP1 PUSH4 0x8F46957 EQ PUSH2 0x135 JUMPI DUP1 PUSH4 0x1ECF2FBF EQ PUSH2 0x165 JUMPI DUP1 PUSH4 0x248A9CA3 EQ PUSH2 0x181 JUMPI JUMPDEST PUSH1 0x0 DUP1 REVERT JUMPDEST PUSH2 0x11F PUSH1 0x4 DUP1 CALLDATASIZE SUB DUP2 ADD SWAP1 PUSH2 0x11A SWAP2 SWAP1 PUSH2 0x131A JUMP JUMPDEST PUSH2 0x31F JUMP JUMPDEST PUSH1 0x40 MLOAD PUSH2 0x12C SWAP2 SWAP1 PUSH2 0x1362 JUMP JUMPDEST PUSH1 0x40 MLOAD DUP1 SWAP2 SUB SWAP1 RETURN JUMPDEST PUSH2 0x14F PUSH1 0x4 DUP1 CALLDATASIZE SUB DUP2 ADD SWAP1 PUSH2 0x14A SWAP2 SWAP1 PUSH2 0x13B3 JUMP JUMPDEST PUSH2 0x399 JUMP JUMPDEST PUSH1 0x40 MLOAD PUSH2 0x15C SWAP2 SWAP1 PUSH2 0x1362 JUMP JUMPDEST PUSH1 0x40 MLOAD DUP1 SWAP2 SUB SWAP1 RETURN JUMPDEST PUSH2 0x17F PUSH1 0x4 DUP1 CALLDATASIZE SUB DUP2 ADD SWAP1 PUSH2 0x17A SWAP2 SWAP1 PUSH2 0x143E JUMP JUMPDEST PUSH2 0x4EB JUMP JUMPDEST STOP JUMPDEST PUSH2 0x19B PUSH1 0x4 DUP1 CALLDATASIZE SUB DUP2 ADD SWAP1 PUSH2 0x196 SWAP2 SWAP1 PUSH2 0x13B3 JUMP JUMPDEST PUSH2 0x55C JUMP JUMPDEST PUSH1 0x40 MLOAD PUSH2 0x1A8 SWAP2 SWAP1 PUSH2 0x147A JUMP JUMPDEST PUSH1 0x40 MLOAD DUP1 SWAP2 SUB SWAP1 RETURN JUMPDEST PUSH2 0x1CB PUSH1 0x4 DUP1 CALLDATASIZE SUB DUP2 ADD SWAP1 PUSH2 0x1C6 SWAP2 SWAP1 PUSH2 0x1495 JUMP JUMPDEST PUSH2 0x57B JUMP JUMPDEST STOP JUMPDEST PUSH2 0x1E7 PUSH1 0x4 DUP1 CALLDATASIZE SUB DUP2 ADD SWAP1 PUSH2 0x1E2 SWAP2 SWAP1 PUSH2 0x1495 JUMP JUMPDEST PUSH2 0x5A4 JUMP JUMPDEST STOP JUMPDEST PUSH2 0x203 PUSH1 0x4 DUP1 CALLDATASIZE SUB DUP2 ADD SWAP1 PUSH2 0x1FE SWAP2 SWAP1 PUSH2 0x143E JUMP JUMPDEST PUSH2 0x627 JUMP JUMPDEST PUSH1 0x40 MLOAD PUSH2 0x210 SWAP2 SWAP1 PUSH2 0x1362 JUMP JUMPDEST PUSH1 0x40 MLOAD DUP1 SWAP2 SUB SWAP1 RETURN JUMPDEST PUSH2 0x233 PUSH1 0x4 DUP1 CALLDATASIZE SUB DUP2 ADD SWAP1 PUSH2 0x22E SWAP2 SWAP1 PUSH2 0x150B JUMP JUMPDEST PUSH2 0x67D JUMP JUMPDEST PUSH1 0x40 MLOAD PUSH2 0x240 SWAP2 SWAP1 PUSH2 0x147A JUMP JUMPDEST PUSH1 0x40 MLOAD DUP1 SWAP2 SUB SWAP1 RETURN JUMPDEST PUSH2 0x263 PUSH1 0x4 DUP1 CALLDATASIZE SUB DUP2 ADD SWAP1 PUSH2 0x25E SWAP2 SWAP1 PUSH2 0x143E JUMP JUMPDEST PUSH2 0x9A4 JUMP JUMPDEST STOP JUMPDEST PUSH2 0x26D PUSH2 0xA97 JUMP JUMPDEST PUSH1 0x40 MLOAD PUSH2 0x27A SWAP2 SWAP1 PUSH2 0x147A JUMP JUMPDEST PUSH1 0x40 MLOAD DUP1 SWAP2 SUB SWAP1 RETURN JUMPDEST PUSH2 0x28B PUSH2 0xA9D JUMP JUMPDEST STOP JUMPDEST PUSH2 0x2A7 PUSH1 0x4 DUP1 CALLDATASIZE SUB DUP2 ADD SWAP1 PUSH2 0x2A2 SWAP2 SWAP1 PUSH2 0x1495 JUMP JUMPDEST PUSH2 0xB8C JUMP JUMPDEST PUSH1 0x40 MLOAD PUSH2 0x2B4 SWAP2 SWAP1 PUSH2 0x1362 JUMP JUMPDEST PUSH1 0x40 MLOAD DUP1 SWAP2 SUB SWAP1 RETURN JUMPDEST PUSH2 0x2C5 PUSH2 0xBF6 JUMP JUMPDEST PUSH1 0x40 MLOAD PUSH2 0x2D2 SWAP2 SWAP1 PUSH2 0x147A JUMP JUMPDEST PUSH1 0x40 MLOAD DUP1 SWAP2 SUB SWAP1 RETURN JUMPDEST PUSH2 0x2E3 PUSH2 0xBFD JUMP JUMPDEST PUSH1 0x40 MLOAD PUSH2 0x2F0 SWAP2 SWAP1 PUSH2 0x147A JUMP JUMPDEST PUSH1 0x40 MLOAD DUP1 SWAP2 SUB SWAP1 RETURN JUMPDEST PUSH2 0x313 PUSH1 0x4 DUP1 CALLDATASIZE SUB DUP2 ADD SWAP1 PUSH2 0x30E SWAP2 SWAP1 PUSH2 0x1495 JUMP JUMPDEST PUSH2 0xC21 JUMP JUMPDEST STOP JUMPDEST PUSH2 0x31D PUSH2 0xC4A JUMP JUMPDEST STOP JUMPDEST PUSH1 0x0 PUSH32 0x7965DB0B00000000000000000000000000000000000000000000000000000000 PUSH28 0xFFFFFFFFFFFFFFFFFFFFFFFFFFFFFFFFFFFFFFFFFFFFFFFFFFFFFFFF NOT AND DUP3 PUSH28 0xFFFFFFFFFFFFFFFFFFFFFFFFFFFFFFFFFFFFFFFFFFFFFFFFFFFFFFFF NOT AND EQ DUP1 PUSH2 0x392 JUMPI POP PUSH2 0x391 DUP3 PUSH2 0xDA2 JUMP JUMPDEST JUMPDEST SWAP1 POP SWAP2 SWAP1 POP JUMP JUMPDEST PUSH1 0x0 DUP1 PUSH1 0x0 SHL DUP3 SUB PUSH2 0x3E0 JUMPI PUSH1 0x40 MLOAD PUSH32 0x8C379A000000000000000000000000000000000000000000000000000000000 DUP2 MSTORE PUSH1 0x4 ADD PUSH2 0x3D7 SWAP1 PUSH2 0x15A8 JUMP JUMPDEST PUSH1 0x40 MLOAD DUP1 SWAP2 SUB SWAP1 REVERT JUMPDEST PUSH1 0x0 PUSH32 0x0 PUSH20 0xFFFFFFFFFFFFFFFFFFFFFFFFFFFFFFFFFFFFFFFF AND PUSH4 0xA3112A64 DUP5 PUSH1 0x40 MLOAD DUP3 PUSH4 0xFFFFFFFF AND PUSH1 0xE0 SHL DUP2 MSTORE PUSH1 0x4 ADD PUSH2 0x43B SWAP2 SWAP1 PUSH2 0x147A JUMP JUMPDEST PUSH1 0x0 PUSH1 0x40 MLOAD DUP1 DUP4 SUB DUP2 DUP7 GAS STATICCALL ISZERO DUP1 ISZERO PUSH2 0x458 JUMPI RETURNDATASIZE PUSH1 0x0 DUP1 RETURNDATACOPY RETURNDATASIZE PUSH1 0x0 REVERT JUMPDEST POP POP POP POP PUSH1 0x40 MLOAD RETURNDATASIZE PUSH1 0x0 DUP3 RETURNDATACOPY RETURNDATASIZE PUSH1 0x1F NOT PUSH1 0x1F DUP3 ADD AND DUP3 ADD DUP1 PUSH1 0x40 MSTORE POP DUP2 ADD SWAP1 PUSH2 0x481 SWAP2 SWAP1 PUSH2 0x18DB JUMP JUMPDEST SWAP1 POP DUP3 DUP2 PUSH1 0x0 ADD MLOAD EQ DUP1 ISZERO PUSH2 0x4E3 JUMPI POP PUSH1 0x2 PUSH1 0x0 DUP3 PUSH1 0xE0 ADD MLOAD PUSH20 0xFFFFFFFFFFFFFFFFFFFFFFFFFFFFFFFFFFFFFFFF AND PUSH20 0xFFFFFFFFFFFFFFFFFFFFFFFFFFFFFFFFFFFFFFFF AND DUP2 MSTORE PUSH1 0x20 ADD SWAP1 DUP2 MSTORE PUSH1 0x20 ADD PUSH1 0x0 KECCAK256 PUSH1 0x0 SWAP1 SLOAD SWAP1 PUSH2 0x100 EXP SWAP1 DIV PUSH1 0xFF AND JUMPDEST SWAP2 POP POP SWAP2 SWAP1 POP JUMP JUMPDEST PUSH1 0x0 DUP1 SHL PUSH2 0x500 DUP2 PUSH2 0x4FB PUSH2 0xE0C JUMP JUMPDEST PUSH2 0xE14 JUMP JUMPDEST PUSH1 0x1 PUSH1 0x2 PUSH1 0x0 DUP5 PUSH20 0xFFFFFFFFFFFFFFFFFFFFFFFFFFFFFFFFFFFFFFFF AND PUSH20 0xFFFFFFFFFFFFFFFFFFFFFFFFFFFFFFFFFFFFFFFF AND DUP2 MSTORE PUSH1 0x20 ADD SWAP1 DUP2 MSTORE PUSH1 0x20 ADD PUSH1 0x0 KECCAK256 PUSH1 0x0 PUSH2 0x100 EXP DUP2 SLOAD DUP2 PUSH1 0xFF MUL NOT AND SWAP1 DUP4 ISZERO ISZERO MUL OR SWAP1 SSTORE POP POP POP JUMP JUMPDEST PUSH1 0x0 DUP1 PUSH1 0x0 DUP4 DUP2 MSTORE PUSH1 0x20 ADD SWAP1 DUP2 MSTORE PUSH1 0x20 ADD PUSH1 0x0 KECCAK256 PUSH1 0x1 ADD SLOAD SWAP1 POP SWAP2 SWAP1 POP JUMP JUMPDEST PUSH2 0x584 DUP3 PUSH2 0x55C JUMP JUMPDEST PUSH2 0x595 DUP2 PUSH2 0x590 PUSH2 0xE0C JUMP JUMPDEST PUSH2 0xE14 JUMP JUMPDEST PUSH2 0x59F DUP4 DUP4 PUSH2 0xEB1 JUMP JUMPDEST POP POP POP JUMP JUMPDEST PUSH2 0x5AC PUSH2 0xE0C JUMP JUMPDEST PUSH20 0xFFFFFFFFFFFFFFFFFFFFFFFFFFFFFFFFFFFFFFFF AND DUP2 PUSH20 0xFFFFFFFFFFFFFFFFFFFFFFFFFFFFFFFFFFFFFFFF AND EQ PUSH2 0x619 JUMPI PUSH1 0x40 MLOAD PUSH32 0x8C379A000000000000000000000000000000000000000000000000000000000 DUP2 MSTORE PUSH1 0x4 ADD PUSH2 0x610 SWAP1 PUSH2 0x1996 JUMP JUMPDEST PUSH1 0x40 MLOAD DUP1 SWAP2 SUB SWAP1 REVERT JUMPDEST PUSH2 0x623 DUP3 DUP3 PUSH2 0xF91 JUMP JUMPDEST POP POP JUMP JUMPDEST PUSH1 0x0 PUSH1 0x2 PUSH1 0x0 DUP4 PUSH20 0xFFFFFFFFFFFFFFFFFFFFFFFFFFFFFFFFFFFFFFFF AND PUSH20 0xFFFFFFFFFFFFFFFFFFFFFFFFFFFFFFFFFFFFFFFF AND DUP2 MSTORE PUSH1 0x20 ADD SWAP1 DUP2 MSTORE PUSH1 0x20 ADD PUSH1 0x0 KECCAK256 PUSH1 0x0 SWAP1 SLOAD SWAP1 PUSH2 0x100 EXP SWAP1 DIV PUSH1 0xFF AND SWAP1 POP SWAP2 SWAP1 POP JUMP JUMPDEST PUSH1 0x0 PUSH1 0x2 PUSH1 0x0 CALLER PUSH20 0xFFFFFFFFFFFFFFFFFFFFFFFFFFFFFFFFFFFFFFFF AND PUSH20 0xFFFFFFFFFFFFFFFFFFFFFFFFFFFFFFFFFFFFFFFF AND DUP2 MSTORE PUSH1 0x20 ADD SWAP1 DUP2 MSTORE PUSH1 0x20 ADD PUSH1 0x0 KECCAK256 PUSH1 0x0 SWAP1 SLOAD SWAP1 PUSH2 0x100 EXP SWAP1 DIV PUSH1 0xFF AND PUSH2 0x70B JUMPI PUSH1 0x40 MLOAD PUSH32 0x8C379A000000000000000000000000000000000000000000000000000000000 DUP2 MSTORE PUSH1 0x4 ADD PUSH2 0x702 SWAP1 PUSH2 0x1A28 JUMP JUMPDEST PUSH1 0x40 MLOAD DUP1 SWAP2 SUB SWAP1 REVERT JUMPDEST PUSH1 0x0 DUP1 SHL PUSH1 0x1 SLOAD SUB PUSH2 0x752 JUMPI PUSH1 0x40 MLOAD PUSH32 0x8C379A000000000000000000000000000000000000000000000000000000000 DUP2 MSTORE PUSH1 0x4 ADD PUSH2 0x749 SWAP1 PUSH2 0x1A94 JUMP JUMPDEST PUSH1 0x40 MLOAD DUP1 SWAP2 SUB SWAP1 REVERT JUMPDEST PUSH1 0x0 PUSH20 0xFFFFFFFFFFFFFFFFFFFFFFFFFFFFFFFFFFFFFFFF AND DUP4 PUSH20 0xFFFFFFFFFFFFFFFFFFFFFFFFFFFFFFFFFFFFFFFF AND SUB PUSH2 0x7C1 JUMPI PUSH1 0x40 MLOAD PUSH32 0x8C379A000000000000000000000000000000000000000000000000000000000 DUP2 MSTORE PUSH1 0x4 ADD PUSH2 0x7B8 SWAP1 PUSH2 0x1B00 JUMP JUMPDEST PUSH1 0x40 MLOAD DUP1 SWAP2 SUB SWAP1 REVERT JUMPDEST PUSH1 0x0 DUP3 SUB PUSH2 0x804 JUMPI PUSH1 0x40 MLOAD PUSH32 0x8C379A000000000000000000000000000000000000000000000000000000000 DUP2 MSTORE PUSH1 0x4 ADD PUSH2 0x7FB SWAP1 PUSH2 0x1B6C JUMP JUMPDEST PUSH1 0x40 MLOAD DUP1 SWAP2 SUB SWAP1 REVERT JUMPDEST PUSH1 0x0 DUP4 DUP4 TIMESTAMP CALLER PUSH1 0x40 MLOAD PUSH1 0x20 ADD PUSH2 0x81D SWAP5 SWAP4 SWAP3 SWAP2 SWAP1 PUSH2 0x1BAA JUMP JUMPDEST PUSH1 0x40 MLOAD PUSH1 0x20 DUP2 DUP4 SUB SUB DUP2 MSTORE SWAP1 PUSH1 0x40 MSTORE SWAP1 POP PUSH1 0x0 PUSH1 0x40 MLOAD DUP1 PUSH1 0x40 ADD PUSH1 0x40 MSTORE DUP1 PUSH1 0x1 SLOAD DUP2 MSTORE PUSH1 0x20 ADD PUSH1 0x40 MLOAD DUP1 PUSH1 0xC0 ADD PUSH1 0x40 MSTORE DUP1 DUP9 PUSH20 0xFFFFFFFFFFFFFFFFFFFFFFFFFFFFFFFFFFFFFFFF AND DUP2 MSTORE PUSH1 0x20 ADD PUSH1 0x0 PUSH8 0xFFFFFFFFFFFFFFFF AND DUP2 MSTORE PUSH1 0x20 ADD PUSH1 0x1 ISZERO ISZERO DUP2 MSTORE PUSH1 0x20 ADD PUSH1 0x0 DUP1 SHL DUP2 MSTORE PUSH1 0x20 ADD DUP6 DUP2 MSTORE PUSH1 0x20 ADD PUSH1 0x0 DUP2 MSTORE POP DUP2 MSTORE POP SWAP1 POP PUSH1 0x0 PUSH32 0x0 PUSH20 0xFFFFFFFFFFFFFFFFFFFFFFFFFFFFFFFFFFFFFFFF AND PUSH4 0xF17325E7 DUP4 PUSH1 0x40 MLOAD DUP3 PUSH4 0xFFFFFFFF AND PUSH1 0xE0 SHL DUP2 MSTORE PUSH1 0x4 ADD PUSH2 0x8F8 SWAP2 SWAP1 PUSH2 0x1D55 JUMP JUMPDEST PUSH1 0x20 PUSH1 0x40 MLOAD DUP1 DUP4 SUB DUP2 PUSH1 0x0 DUP8 GAS CALL ISZERO DUP1 ISZERO PUSH2 0x917 JUMPI RETURNDATASIZE PUSH1 0x0 DUP1 RETURNDATACOPY RETURNDATASIZE PUSH1 0x0 REVERT JUMPDEST POP POP POP POP PUSH1 0x40 MLOAD RETURNDATASIZE PUSH1 0x1F NOT PUSH1 0x1F DUP3 ADD AND DUP3 ADD DUP1 PUSH1 0x40 MSTORE POP DUP2 ADD SWAP1 PUSH2 0x93B SWAP2 SWAP1 PUSH2 0x1D77 JUMP JUMPDEST SWAP1 POP CALLER PUSH20 0xFFFFFFFFFFFFFFFFFFFFFFFFFFFFFFFFFFFFFFFF AND DUP7 PUSH20 0xFFFFFFFFFFFFFFFFFFFFFFFFFFFFFFFFFFFFFFFF AND DUP3 PUSH32 0x63F86F3E95D67D75FED996A7DB68F9E7EABF0600ABBD54FCCABF34EC3B5FA4A7 PUSH1 0x40 MLOAD PUSH1 0x40 MLOAD DUP1 SWAP2 SUB SWAP1 LOG4 DUP1 SWAP4 POP POP POP POP SWAP3 SWAP2 POP POP JUMP JUMPDEST PUSH1 0x0 DUP1 SHL PUSH2 0x9B9 DUP2 PUSH2 0x9B4 PUSH2 0xE0C JUMP JUMPDEST PUSH2 0xE14 JUMP JUMPDEST PUSH20 0xF0BC5CC2B4866DAAECB069430C60B24520077037 PUSH20 0xFFFFFFFFFFFFFFFFFFFFFFFFFFFFFFFFFFFFFFFF AND DUP3 PUSH20 0xFFFFFFFFFFFFFFFFFFFFFFFFFFFFFFFFFFFFFFFF AND SUB PUSH2 0xA3B JUMPI PUSH1 0x40 MLOAD PUSH32 0x8C379A000000000000000000000000000000000000000000000000000000000 DUP2 MSTORE PUSH1 0x4 ADD PUSH2 0xA32 SWAP1 PUSH2 0x1E16 JUMP JUMPDEST PUSH1 0x40 MLOAD DUP1 SWAP2 SUB SWAP1 REVERT JUMPDEST PUSH1 0x0 PUSH1 0x2 PUSH1 0x0 DUP5 PUSH20 0xFFFFFFFFFFFFFFFFFFFFFFFFFFFFFFFFFFFFFFFF AND PUSH20 0xFFFFFFFFFFFFFFFFFFFFFFFFFFFFFFFFFFFFFFFF AND DUP2 MSTORE PUSH1 0x20 ADD SWAP1 DUP2 MSTORE PUSH1 0x20 ADD PUSH1 0x0 KECCAK256 PUSH1 0x0 PUSH2 0x100 EXP DUP2 SLOAD DUP2 PUSH1 0xFF MUL NOT AND SWAP1 DUP4 ISZERO ISZERO MUL OR SWAP1 SSTORE POP POP POP JUMP JUMPDEST PUSH1 0x1 SLOAD DUP2 JUMP JUMPDEST PUSH1 0x0 DUP1 SHL PUSH2 0xAB2 DUP2 PUSH2 0xAAD PUSH2 0xE0C JUMP JUMPDEST PUSH2 0xE14 JUMP JUMPDEST PUSH1 0x3 PUSH1 0x0 SWAP1 SLOAD SWAP1 PUSH2 0x100 EXP SWAP1 DIV PUSH1 0xFF AND ISZERO PUSH2 0xB02 JUMPI PUSH1 0x40 MLOAD PUSH32 0x8C379A000000000000000000000000000000000000000000000000000000000 DUP2 MSTORE PUSH1 0x4 ADD PUSH2 0xAF9 SWAP1 PUSH2 0x1E82 JUMP JUMPDEST PUSH1 0x40 MLOAD DUP1 SWAP2 SUB SWAP1 REVERT JUMPDEST PUSH1 0x1 PUSH1 0x2 PUSH1 0x0 PUSH20 0xF0BC5CC2B4866DAAECB069430C60B24520077037 PUSH20 0xFFFFFFFFFFFFFFFFFFFFFFFFFFFFFFFFFFFFFFFF AND PUSH20 0xFFFFFFFFFFFFFFFFFFFFFFFFFFFFFFFFFFFFFFFF AND DUP2 MSTORE PUSH1 0x20 ADD SWAP1 DUP2 MSTORE PUSH1 0x20 ADD PUSH1 0x0 KECCAK256 PUSH1 0x0 PUSH2 0x100 EXP DUP2 SLOAD DUP2 PUSH1 0xFF MUL NOT AND SWAP1 DUP4 ISZERO ISZERO MUL OR SWAP1 SSTORE POP PUSH1 0x1 PUSH1 0x3 PUSH1 0x0 PUSH2 0x100 EXP DUP2 SLOAD DUP2 PUSH1 0xFF MUL NOT AND SWAP1 DUP4 ISZERO ISZERO MUL OR SWAP1 SSTORE POP POP JUMP JUMPDEST PUSH1 0x0 DUP1 PUSH1 0x0 DUP5 DUP2 MSTORE PUSH1 0x20 ADD SWAP1 DUP2 MSTORE PUSH1 0x20 ADD PUSH1 0x0 KECCAK256 PUSH1 0x0 ADD PUSH1 0x0 DUP4 PUSH20 0xFFFFFFFFFFFFFFFFFFFFFFFFFFFFFFFFFFFFFFFF AND PUSH20 0xFFFFFFFFFFFFFFFFFFFFFFFFFFFFFFFFFFFFFFFF AND DUP2 MSTORE PUSH1 0x20 ADD SWAP1 DUP2 MSTORE PUSH1 0x20 ADD PUSH1 0x0 KECCAK256 PUSH1 0x0 SWAP1 SLOAD SWAP1 PUSH2 0x100 EXP SWAP1 DIV PUSH1 0xFF AND SWAP1 POP SWAP3 SWAP2 POP POP JUMP JUMPDEST PUSH1 0x0 DUP1 SHL DUP2 JUMP JUMPDEST PUSH32 0xFE59EECE44EFC73D9BEC857E15B77961120D43BE620D135F2F6356BC328D55F1 DUP2 JUMP JUMPDEST PUSH2 0xC2A DUP3 PUSH2 0x55C JUMP JUMPDEST PUSH2 0xC3B DUP2 PUSH2 0xC36 PUSH2 0xE0C JUMP JUMPDEST PUSH2 0xE14 JUMP JUMPDEST PUSH2 0xC45 DUP4 DUP4 PUSH2 0xF91 JUMP JUMPDEST POP POP POP JUMP JUMPDEST PUSH1 0x0 DUP1 SHL PUSH2 0xC5F DUP2 PUSH2 0xC5A PUSH2 0xE0C JUMP JUMPDEST PUSH2 0xE14 JUMP JUMPDEST PUSH1 0x0 DUP1 SHL PUSH1 0x1 SLOAD EQ PUSH2 0xCA6 JUMPI PUSH1 0x40 MLOAD PUSH32 0x8C379A000000000000000000000000000000000000000000000000000000000 DUP2 MSTORE PUSH1 0x4 ADD PUSH2 0xC9D SWAP1 PUSH2 0x1EEE JUMP JUMPDEST PUSH1 0x40 MLOAD DUP1 SWAP2 SUB SWAP1 REVERT JUMPDEST PUSH1 0x0 PUSH1 0x40 MLOAD DUP1 PUSH1 0x80 ADD PUSH1 0x40 MSTORE DUP1 PUSH1 0x46 DUP2 MSTORE PUSH1 0x20 ADD PUSH2 0x2289 PUSH1 0x46 SWAP2 CODECOPY SWAP1 POP PUSH1 0x0 PUSH32 0x0 PUSH20 0xFFFFFFFFFFFFFFFFFFFFFFFFFFFFFFFFFFFFFFFF AND PUSH4 0x60D7A278 DUP4 PUSH1 0x0 PUSH1 0x1 PUSH1 0x40 MLOAD DUP5 PUSH4 0xFFFFFFFF AND PUSH1 0xE0 SHL DUP2 MSTORE PUSH1 0x4 ADD PUSH2 0xD24 SWAP4 SWAP3 SWAP2 SWAP1 PUSH2 0x1FB1 JUMP JUMPDEST PUSH1 0x20 PUSH1 0x40 MLOAD DUP1 DUP4 SUB DUP2 PUSH1 0x0 DUP8 GAS CALL ISZERO DUP1 ISZERO PUSH2 0xD43 JUMPI RETURNDATASIZE PUSH1 0x0 DUP1 RETURNDATACOPY RETURNDATASIZE PUSH1 0x0 REVERT JUMPDEST POP POP POP POP PUSH1 0x40 MLOAD RETURNDATASIZE PUSH1 0x1F NOT PUSH1 0x1F DUP3 ADD AND DUP3 ADD DUP1 PUSH1 0x40 MSTORE POP DUP2 ADD SWAP1 PUSH2 0xD67 SWAP2 SWAP1 PUSH2 0x1D77 JUMP JUMPDEST SWAP1 POP DUP1 PUSH1 0x1 DUP2 SWAP1 SSTORE POP DUP1 PUSH32 0xED68F5AFEA10BE5233231E5D15186BF1C9C0B9F6D3A767404D90688BCCF293AF PUSH1 0x40 MLOAD PUSH1 0x40 MLOAD DUP1 SWAP2 SUB SWAP1 LOG2 POP POP POP JUMP JUMPDEST PUSH1 0x0 PUSH32 0x1FFC9A700000000000000000000000000000000000000000000000000000000 PUSH28 0xFFFFFFFFFFFFFFFFFFFFFFFFFFFFFFFFFFFFFFFFFFFFFFFFFFFFFFFF NOT AND DUP3 PUSH28 0xFFFFFFFFFFFFFFFFFFFFFFFFFFFFFFFFFFFFFFFFFFFFFFFFFFFFFFFF NOT AND EQ SWAP1 POP SWAP2 SWAP1 POP JUMP JUMPDEST PUSH1 0x0 CALLER SWAP1 POP SWAP1 JUMP JUMPDEST PUSH2 0xE1E DUP3 DUP3 PUSH2 0xB8C JUMP JUMPDEST PUSH2 0xEAD JUMPI PUSH2 0xE43 DUP2 PUSH20 0xFFFFFFFFFFFFFFFFFFFFFFFFFFFFFFFFFFFFFFFF AND PUSH1 0x14 PUSH2 0x1072 JUMP JUMPDEST PUSH2 0xE51 DUP4 PUSH1 0x0 SHR PUSH1 0x20 PUSH2 0x1072 JUMP JUMPDEST PUSH1 0x40 MLOAD PUSH1 0x20 ADD PUSH2 0xE62 SWAP3 SWAP2 SWAP1 PUSH2 0x20C3 JUMP JUMPDEST PUSH1 0x40 MLOAD PUSH1 0x20 DUP2 DUP4 SUB SUB DUP2 MSTORE SWAP1 PUSH1 0x40 MSTORE PUSH1 0x40 MLOAD PUSH32 0x8C379A000000000000000000000000000000000000000000000000000000000 DUP2 MSTORE PUSH1 0x4 ADD PUSH2 0xEA4 SWAP2 SWAP1 PUSH2 0x20FD JUMP JUMPDEST PUSH1 0x40 MLOAD DUP1 SWAP2 SUB SWAP1 REVERT JUMPDEST POP POP JUMP JUMPDEST PUSH2 0xEBB DUP3 DUP3 PUSH2 0xB8C JUMP JUMPDEST PUSH2 0xF8D JUMPI PUSH1 0x1 PUSH1 0x0 DUP1 DUP5 DUP2 MSTORE PUSH1 0x20 ADD SWAP1 DUP2 MSTORE PUSH1 0x20 ADD PUSH1 0x0 KECCAK256 PUSH1 0x0 ADD PUSH1 0x0 DUP4 PUSH20 0xFFFFFFFFFFFFFFFFFFFFFFFFFFFFFFFFFFFFFFFF AND PUSH20 0xFFFFFFFFFFFFFFFFFFFFFFFFFFFFFFFFFFFFFFFF AND DUP2 MSTORE PUSH1 0x20 ADD SWAP1 DUP2 MSTORE PUSH1 0x20 ADD PUSH1 0x0 KECCAK256 PUSH1 0x0 PUSH2 0x100 EXP DUP2 SLOAD DUP2 PUSH1 0xFF MUL NOT AND SWAP1 DUP4 ISZERO ISZERO MUL OR SWAP1 SSTORE POP PUSH2 0xF32 PUSH2 0xE0C JUMP JUMPDEST PUSH20 0xFFFFFFFFFFFFFFFFFFFFFFFFFFFFFFFFFFFFFFFF AND DUP2 PUSH20 0xFFFFFFFFFFFFFFFFFFFFFFFFFFFFFFFFFFFFFFFF AND DUP4 PUSH32 0x2F8788117E7EFF1D82E926EC794901D17C78024A50270940304540A733656F0D PUSH1 0x40 MLOAD PUSH1 0x40 MLOAD DUP1 SWAP2 SUB SWAP1 LOG4 JUMPDEST POP POP JUMP JUMPDEST PUSH2 0xF9B DUP3 DUP3 PUSH2 0xB8C JUMP JUMPDEST ISZERO PUSH2 0x106E JUMPI PUSH1 0x0 DUP1 PUSH1 0x0 DUP5 DUP2 MSTORE PUSH1 0x20 ADD SWAP1 DUP2 MSTORE PUSH1 0x20 ADD PUSH1 0x0 KECCAK256 PUSH1 0x0 ADD PUSH1 0x0 DUP4 PUSH20 0xFFFFFFFFFFFFFFFFFFFFFFFFFFFFFFFFFFFFFFFF AND PUSH20 0xFFFFFFFFFFFFFFFFFFFFFFFFFFFFFFFFFFFFFFFF AND DUP2 MSTORE PUSH1 0x20 ADD SWAP1 DUP2 MSTORE PUSH1 0x20 ADD PUSH1 0x0 KECCAK256 PUSH1 0x0 PUSH2 0x100 EXP DUP2 SLOAD DUP2 PUSH1 0xFF MUL NOT AND SWAP1 DUP4 ISZERO ISZERO MUL OR SWAP1 SSTORE POP PUSH2 0x1013 PUSH2 0xE0C JUMP JUMPDEST PUSH20 0xFFFFFFFFFFFFFFFFFFFFFFFFFFFFFFFFFFFFFFFF AND DUP2 PUSH20 0xFFFFFFFFFFFFFFFFFFFFFFFFFFFFFFFFFFFFFFFF AND DUP4 PUSH32 0xF6391F5C32D9C69D2A47EA670B442974B53935D1EDC7FD64EB21E047A839171B PUSH1 0x40 MLOAD PUSH1 0x40 MLOAD DUP1 SWAP2 SUB SWAP1 LOG4 JUMPDEST POP POP JUMP JUMPDEST PUSH1 0x60 PUSH1 0x0 PUSH1 0x2 DUP4 PUSH1 0x2 PUSH2 0x1085 SWAP2 SWAP1 PUSH2 0x214E JUMP JUMPDEST PUSH2 0x108F SWAP2 SWAP1 PUSH2 0x2190 JUMP JUMPDEST PUSH8 0xFFFFFFFFFFFFFFFF DUP2 GT ISZERO PUSH2 0x10A8 JUMPI PUSH2 0x10A7 PUSH2 0x15DE JUMP JUMPDEST JUMPDEST PUSH1 0x40 MLOAD SWAP1 DUP1 DUP3 MSTORE DUP1 PUSH1 0x1F ADD PUSH1 0x1F NOT AND PUSH1 0x20 ADD DUP3 ADD PUSH1 0x40 MSTORE DUP1 ISZERO PUSH2 0x10DA JUMPI DUP2 PUSH1 0x20 ADD PUSH1 0x1 DUP3 MUL DUP1 CALLDATASIZE DUP4 CALLDATACOPY DUP1 DUP3 ADD SWAP2 POP POP SWAP1 POP JUMPDEST POP SWAP1 POP PUSH32 0x3000000000000000000000000000000000000000000000000000000000000000 DUP2 PUSH1 0x0 DUP2 MLOAD DUP2 LT PUSH2 0x1112 JUMPI PUSH2 0x1111 PUSH2 0x21C4 JUMP JUMPDEST JUMPDEST PUSH1 0x20 ADD ADD SWAP1 PUSH31 0xFFFFFFFFFFFFFFFFFFFFFFFFFFFFFFFFFFFFFFFFFFFFFFFFFFFFFFFFFFFFFF NOT AND SWAP1 DUP2 PUSH1 0x0 BYTE SWAP1 MSTORE8 POP PUSH32 0x7800000000000000000000000000000000000000000000000000000000000000 DUP2 PUSH1 0x1 DUP2 MLOAD DUP2 LT PUSH2 0x1176 JUMPI PUSH2 0x1175 PUSH2 0x21C4 JUMP JUMPDEST JUMPDEST PUSH1 0x20 ADD ADD SWAP1 PUSH31 0xFFFFFFFFFFFFFFFFFFFFFFFFFFFFFFFFFFFFFFFFFFFFFFFFFFFFFFFFFFFFFF NOT AND SWAP1 DUP2 PUSH1 0x0 BYTE SWAP1 MSTORE8 POP PUSH1 0x0 PUSH1 0x1 DUP5 PUSH1 0x2 PUSH2 0x11B6 SWAP2 SWAP1 PUSH2 0x214E JUMP JUMPDEST PUSH2 0x11C0 SWAP2 SWAP1 PUSH2 0x2190 JUMP JUMPDEST SWAP1 POP JUMPDEST PUSH1 0x1 DUP2 GT ISZERO PUSH2 0x1260 JUMPI PUSH32 0x3031323334353637383961626364656600000000000000000000000000000000 PUSH1 0xF DUP7 AND PUSH1 0x10 DUP2 LT PUSH2 0x1202 JUMPI PUSH2 0x1201 PUSH2 0x21C4 JUMP JUMPDEST JUMPDEST BYTE PUSH1 0xF8 SHL DUP3 DUP3 DUP2 MLOAD DUP2 LT PUSH2 0x1219 JUMPI PUSH2 0x1218 PUSH2 0x21C4 JUMP JUMPDEST JUMPDEST PUSH1 0x20 ADD ADD SWAP1 PUSH31 0xFFFFFFFFFFFFFFFFFFFFFFFFFFFFFFFFFFFFFFFFFFFFFFFFFFFFFFFFFFFFFF NOT AND SWAP1 DUP2 PUSH1 0x0 BYTE SWAP1 MSTORE8 POP PUSH1 0x4 DUP6 SWAP1 SHR SWAP5 POP DUP1 PUSH2 0x1259 SWAP1 PUSH2 0x21F3 JUMP JUMPDEST SWAP1 POP PUSH2 0x11C3 JUMP JUMPDEST POP PUSH1 0x0 DUP5 EQ PUSH2 0x12A4 JUMPI PUSH1 0x40 MLOAD PUSH32 0x8C379A000000000000000000000000000000000000000000000000000000000 DUP2 MSTORE PUSH1 0x4 ADD PUSH2 0x129B SWAP1 PUSH2 0x2268 JUMP JUMPDEST PUSH1 0x40 MLOAD DUP1 SWAP2 SUB SWAP1 REVERT JUMPDEST DUP1 SWAP2 POP POP SWAP3 SWAP2 POP POP JUMP JUMPDEST PUSH1 0x0 PUSH1 0x40 MLOAD SWAP1 POP SWAP1 JUMP JUMPDEST PUSH1 0x0 DUP1 REVERT JUMPDEST PUSH1 0x0 DUP1 REVERT JUMPDEST PUSH1 0x0 PUSH32 0xFFFFFFFF00000000000000000000000000000000000000000000000000000000 DUP3 AND SWAP1 POP SWAP2 SWAP1 POP JUMP JUMPDEST PUSH2 0x12F7 DUP2 PUSH2 0x12C2 JUMP JUMPDEST DUP2 EQ PUSH2 0x1302 JUMPI PUSH1 0x0 DUP1 REVERT JUMPDEST POP JUMP JUMPDEST PUSH1 0x0 DUP2 CALLDATALOAD SWAP1 POP PUSH2 0x1314 DUP2 PUSH2 0x12EE JUMP JUMPDEST SWAP3 SWAP2 POP POP JUMP JUMPDEST PUSH1 0x0 PUSH1 0x20 DUP3 DUP5 SUB SLT ISZERO PUSH2 0x1330 JUMPI PUSH2 0x132F PUSH2 0x12B8 JUMP JUMPDEST JUMPDEST PUSH1 0x0 PUSH2 0x133E DUP5 DUP3 DUP6 ADD PUSH2 0x1305 JUMP JUMPDEST SWAP2 POP POP SWAP3 SWAP2 POP POP JUMP JUMPDEST PUSH1 0x0 DUP2 ISZERO ISZERO SWAP1 POP SWAP2 SWAP1 POP JUMP JUMPDEST PUSH2 0x135C DUP2 PUSH2 0x1347 JUMP JUMPDEST DUP3 MSTORE POP POP JUMP JUMPDEST PUSH1 0x0 PUSH1 0x20 DUP3 ADD SWAP1 POP PUSH2 0x1377 PUSH1 0x0 DUP4 ADD DUP5 PUSH2 0x1353 JUMP JUMPDEST SWAP3 SWAP2 POP POP JUMP JUMPDEST PUSH1 0x0 DUP2 SWAP1 POP SWAP2 SWAP1 POP JUMP JUMPDEST PUSH2 0x1390 DUP2 PUSH2 0x137D JUMP JUMPDEST DUP2 EQ PUSH2 0x139B JUMPI PUSH1 0x0 DUP1 REVERT JUMPDEST POP JUMP JUMPDEST PUSH1 0x0 DUP2 CALLDATALOAD SWAP1 POP PUSH2 0x13AD DUP2 PUSH2 0x1387 JUMP JUMPDEST SWAP3 SWAP2 POP POP JUMP JUMPDEST PUSH1 0x0 PUSH1 0x20 DUP3 DUP5 SUB SLT ISZERO PUSH2 0x13C9 JUMPI PUSH2 0x13C8 PUSH2 0x12B8 JUMP JUMPDEST JUMPDEST PUSH1 0x0 PUSH2 0x13D7 DUP5 DUP3 DUP6 ADD PUSH2 0x139E JUMP JUMPDEST SWAP2 POP POP SWAP3 SWAP2 POP POP JUMP JUMPDEST PUSH1 0x0 PUSH20 0xFFFFFFFFFFFFFFFFFFFFFFFFFFFFFFFFFFFFFFFF DUP3 AND SWAP1 POP SWAP2 SWAP1 POP JUMP JUMPDEST PUSH1 0x0 PUSH2 0x140B DUP3 PUSH2 0x13E0 JUMP JUMPDEST SWAP1 POP SWAP2 SWAP1 POP JUMP JUMPDEST PUSH2 0x141B DUP2 PUSH2 0x1400 JUMP JUMPDEST DUP2 EQ PUSH2 0x1426 JUMPI PUSH1 0x0 DUP1 REVERT JUMPDEST POP JUMP JUMPDEST PUSH1 0x0 DUP2 CALLDATALOAD SWAP1 POP PUSH2 0x1438 DUP2 PUSH2 0x1412 JUMP JUMPDEST SWAP3 SWAP2 POP POP JUMP JUMPDEST PUSH1 0x0 PUSH1 0x20 DUP3 DUP5 SUB SLT ISZERO PUSH2 0x1454 JUMPI PUSH2 0x1453 PUSH2 0x12B8 JUMP JUMPDEST JUMPDEST PUSH1 0x0 PUSH2 0x1462 DUP5 DUP3 DUP6 ADD PUSH2 0x1429 JUMP JUMPDEST SWAP2 POP POP SWAP3 SWAP2 POP POP JUMP JUMPDEST PUSH2 0x1474 DUP2 PUSH2 0x137D JUMP JUMPDEST DUP3 MSTORE POP POP JUMP JUMPDEST PUSH1 0x0 PUSH1 0x20 DUP3 ADD SWAP1 POP PUSH2 0x148F PUSH1 0x0 DUP4 ADD DUP5 PUSH2 0x146B JUMP JUMPDEST SWAP3 SWAP2 POP POP JUMP JUMPDEST PUSH1 0x0 DUP1 PUSH1 0x40 DUP4 DUP6 SUB SLT ISZERO PUSH2 0x14AC JUMPI PUSH2 0x14AB PUSH2 0x12B8 JUMP JUMPDEST JUMPDEST PUSH1 0x0 PUSH2 0x14BA DUP6 DUP3 DUP7 ADD PUSH2 0x139E JUMP JUMPDEST SWAP3 POP POP PUSH1 0x20 PUSH2 0x14CB DUP6 DUP3 DUP7 ADD PUSH2 0x1429 JUMP JUMPDEST SWAP2 POP POP SWAP3 POP SWAP3 SWAP1 POP JUMP JUMPDEST PUSH1 0x0 DUP2 SWAP1 POP SWAP2 SWAP1 POP JUMP JUMPDEST PUSH2 0x14E8 DUP2 PUSH2 0x14D5 JUMP JUMPDEST DUP2 EQ PUSH2 0x14F3 JUMPI PUSH1 0x0 DUP1 REVERT JUMPDEST POP JUMP JUMPDEST PUSH1 0x0 DUP2 CALLDATALOAD SWAP1 POP PUSH2 0x1505 DUP2 PUSH2 0x14DF JUMP JUMPDEST SWAP3 SWAP2 POP POP JUMP JUMPDEST PUSH1 0x0 DUP1 PUSH1 0x40 DUP4 DUP6 SUB SLT ISZERO PUSH2 0x1522 JUMPI PUSH2 0x1521 PUSH2 0x12B8 JUMP JUMPDEST JUMPDEST PUSH1 0x0 PUSH2 0x1530 DUP6 DUP3 DUP7 ADD PUSH2 0x1429 JUMP JUMPDEST SWAP3 POP POP PUSH1 0x20 PUSH2 0x1541 DUP6 DUP3 DUP7 ADD PUSH2 0x14F6 JUMP JUMPDEST SWAP2 POP POP SWAP3 POP SWAP3 SWAP1 POP JUMP JUMPDEST PUSH1 0x0 DUP3 DUP3 MSTORE PUSH1 0x20 DUP3 ADD SWAP1 POP SWAP3 SWAP2 POP POP JUMP JUMPDEST PUSH32 0x496E76616C6964206174746573746174696F6E20494400000000000000000000 PUSH1 0x0 DUP3 ADD MSTORE POP JUMP JUMPDEST PUSH1 0x0 PUSH2 0x1592 PUSH1 0x16 DUP4 PUSH2 0x154B JUMP JUMPDEST SWAP2 POP PUSH2 0x159D DUP3 PUSH2 0x155C JUMP JUMPDEST PUSH1 0x20 DUP3 ADD SWAP1 POP SWAP2 SWAP1 POP JUMP JUMPDEST PUSH1 0x0 PUSH1 0x20 DUP3 ADD SWAP1 POP DUP2 DUP2 SUB PUSH1 0x0 DUP4 ADD MSTORE PUSH2 0x15C1 DUP2 PUSH2 0x1585 JUMP JUMPDEST SWAP1 POP SWAP2 SWAP1 POP JUMP JUMPDEST PUSH1 0x0 DUP1 REVERT JUMPDEST PUSH1 0x0 PUSH1 0x1F NOT PUSH1 0x1F DUP4 ADD AND SWAP1 POP SWAP2 SWAP1 POP JUMP JUMPDEST PUSH32 0x4E487B7100000000000000000000000000000000000000000000000000000000 PUSH1 0x0 MSTORE PUSH1 0x41 PUSH1 0x4 MSTORE PUSH1 0x24 PUSH1 0x0 REVERT JUMPDEST PUSH2 0x1616 DUP3 PUSH2 0x15CD JUMP JUMPDEST DUP2 ADD DUP2 DUP2 LT PUSH8 0xFFFFFFFFFFFFFFFF DUP3 GT OR ISZERO PUSH2 0x1635 JUMPI PUSH2 0x1634 PUSH2 0x15DE JUMP JUMPDEST JUMPDEST DUP1 PUSH1 0x40 MSTORE POP POP POP JUMP JUMPDEST PUSH1 0x0 PUSH2 0x1648 PUSH2 0x12AE JUMP JUMPDEST SWAP1 POP PUSH2 0x1654 DUP3 DUP3 PUSH2 0x160D JUMP JUMPDEST SWAP2 SWAP1 POP JUMP JUMPDEST PUSH1 0x0 DUP1 REVERT JUMPDEST PUSH1 0x0 DUP2 MLOAD SWAP1 POP PUSH2 0x166D DUP2 PUSH2 0x1387 JUMP JUMPDEST SWAP3 SWAP2 POP POP JUMP JUMPDEST PUSH1 0x0 PUSH8 0xFFFFFFFFFFFFFFFF DUP3 AND SWAP1 POP SWAP2 SWAP1 POP JUMP JUMPDEST PUSH2 0x1690 DUP2 PUSH2 0x1673 JUMP JUMPDEST DUP2 EQ PUSH2 0x169B JUMPI PUSH1 0x0 DUP1 REVERT JUMPDEST POP JUMP JUMPDEST PUSH1 0x0 DUP2 MLOAD SWAP1 POP PUSH2 0x16AD DUP2 PUSH2 0x1687 JUMP JUMPDEST SWAP3 SWAP2 POP POP JUMP JUMPDEST PUSH1 0x0 DUP2 MLOAD SWAP1 POP PUSH2 0x16C2 DUP2 PUSH2 0x1412 JUMP JUMPDEST SWAP3 SWAP2 POP POP JUMP JUMPDEST PUSH2 0x16D1 DUP2 PUSH2 0x1347 JUMP JUMPDEST DUP2 EQ PUSH2 0x16DC JUMPI PUSH1 0x0 DUP1 REVERT JUMPDEST POP JUMP JUMPDEST PUSH1 0x0 DUP2 MLOAD SWAP1 POP PUSH2 0x16EE DUP2 PUSH2 0x16C8 JUMP JUMPDEST SWAP3 SWAP2 POP POP JUMP JUMPDEST PUSH1 0x0 DUP1 REVERT JUMPDEST PUSH1 0x0 DUP1 REVERT JUMPDEST PUSH1 0x0 PUSH8 0xFFFFFFFFFFFFFFFF DUP3 GT ISZERO PUSH2 0x1719 JUMPI PUSH2 0x1718 PUSH2 0x15DE JUMP JUMPDEST JUMPDEST PUSH2 0x1722 DUP3 PUSH2 0x15CD JUMP JUMPDEST SWAP1 POP PUSH1 0x20 DUP2 ADD SWAP1 POP SWAP2 SWAP1 POP JUMP JUMPDEST PUSH1 0x0 JUMPDEST DUP4 DUP2 LT ISZERO PUSH2 0x174D JUMPI DUP1 DUP3 ADD MLOAD DUP2 DUP5 ADD MSTORE PUSH1 0x20 DUP2 ADD SWAP1 POP PUSH2 0x1732 JUMP JUMPDEST PUSH1 0x0 DUP5 DUP5 ADD MSTORE POP POP POP POP JUMP JUMPDEST PUSH1 0x0 PUSH2 0x176C PUSH2 0x1767 DUP5 PUSH2 0x16FE JUMP JUMPDEST PUSH2 0x163E JUMP JUMPDEST SWAP1 POP DUP3 DUP2 MSTORE PUSH1 0x20 DUP2 ADD DUP5 DUP5 DUP5 ADD GT ISZERO PUSH2 0x1788 JUMPI PUSH2 0x1787 PUSH2 0x16F9 JUMP JUMPDEST JUMPDEST PUSH2 0x1793 DUP5 DUP3 DUP6 PUSH2 0x172F JUMP JUMPDEST POP SWAP4 SWAP3 POP POP POP JUMP JUMPDEST PUSH1 0x0 DUP3 PUSH1 0x1F DUP4 ADD SLT PUSH2 0x17B0 JUMPI PUSH2 0x17AF PUSH2 0x16F4 JUMP JUMPDEST JUMPDEST DUP2 MLOAD PUSH2 0x17C0 DUP5 DUP3 PUSH1 0x20 DUP7 ADD PUSH2 0x1759 JUMP JUMPDEST SWAP2 POP POP SWAP3 SWAP2 POP POP JUMP JUMPDEST PUSH1 0x0 PUSH2 0x140 DUP3 DUP5 SUB SLT ISZERO PUSH2 0x17E0 JUMPI PUSH2 0x17DF PUSH2 0x15C8 JUMP JUMPDEST JUMPDEST PUSH2 0x17EB PUSH2 0x140 PUSH2 0x163E JUMP JUMPDEST SWAP1 POP PUSH1 0x0 PUSH2 0x17FB DUP5 DUP3 DUP6 ADD PUSH2 0x165E JUMP JUMPDEST PUSH1 0x0 DUP4 ADD MSTORE POP PUSH1 0x20 PUSH2 0x180F DUP5 DUP3 DUP6 ADD PUSH2 0x165E JUMP JUMPDEST PUSH1 0x20 DUP4 ADD MSTORE POP PUSH1 0x40 PUSH2 0x1823 DUP5 DUP3 DUP6 ADD PUSH2 0x169E JUMP JUMPDEST PUSH1 0x40 DUP4 ADD MSTORE POP PUSH1 0x60 PUSH2 0x1837 DUP5 DUP3 DUP6 ADD PUSH2 0x169E JUMP JUMPDEST PUSH1 0x60 DUP4 ADD MSTORE POP PUSH1 0x80 PUSH2 0x184B DUP5 DUP3 DUP6 ADD PUSH2 0x169E JUMP JUMPDEST PUSH1 0x80 DUP4 ADD MSTORE POP PUSH1 0xA0 PUSH2 0x185F DUP5 DUP3 DUP6 ADD PUSH2 0x165E JUMP JUMPDEST PUSH1 0xA0 DUP4 ADD MSTORE POP PUSH1 0xC0 PUSH2 0x1873 DUP5 DUP3 DUP6 ADD PUSH2 0x16B3 JUMP JUMPDEST PUSH1 0xC0 DUP4 ADD MSTORE POP PUSH1 0xE0 PUSH2 0x1887 DUP5 DUP3 DUP6 ADD PUSH2 0x16B3 JUMP JUMPDEST PUSH1 0xE0 DUP4 ADD MSTORE POP PUSH2 0x100 PUSH2 0x189C DUP5 DUP3 DUP6 ADD PUSH2 0x16DF JUMP JUMPDEST PUSH2 0x100 DUP4 ADD MSTORE POP PUSH2 0x120 DUP3 ADD MLOAD PUSH8 0xFFFFFFFFFFFFFFFF DUP2 GT ISZERO PUSH2 0x18C2 JUMPI PUSH2 0x18C1 PUSH2 0x1659 JUMP JUMPDEST JUMPDEST PUSH2 0x18CE DUP5 DUP3 DUP6 ADD PUSH2 0x179B JUMP JUMPDEST PUSH2 0x120 DUP4 ADD MSTORE POP SWAP3 SWAP2 POP POP JUMP JUMPDEST PUSH1 0x0 PUSH1 0x20 DUP3 DUP5 SUB SLT ISZERO PUSH2 0x18F1 JUMPI PUSH2 0x18F0 PUSH2 0x12B8 JUMP JUMPDEST JUMPDEST PUSH1 0x0 DUP3 ADD MLOAD PUSH8 0xFFFFFFFFFFFFFFFF DUP2 GT ISZERO PUSH2 0x190F JUMPI PUSH2 0x190E PUSH2 0x12BD JUMP JUMPDEST JUMPDEST PUSH2 0x191B DUP5 DUP3 DUP6 ADD PUSH2 0x17C9 JUMP JUMPDEST SWAP2 POP POP SWAP3 SWAP2 POP POP JUMP JUMPDEST PUSH32 0x416363657373436F6E74726F6C3A2063616E206F6E6C792072656E6F756E6365 PUSH1 0x0 DUP3 ADD MSTORE PUSH32 0x20726F6C657320666F722073656C660000000000000000000000000000000000 PUSH1 0x20 DUP3 ADD MSTORE POP JUMP JUMPDEST PUSH1 0x0 PUSH2 0x1980 PUSH1 0x2F DUP4 PUSH2 0x154B JUMP JUMPDEST SWAP2 POP PUSH2 0x198B DUP3 PUSH2 0x1924 JUMP JUMPDEST PUSH1 0x40 DUP3 ADD SWAP1 POP SWAP2 SWAP1 POP JUMP JUMPDEST PUSH1 0x0 PUSH1 0x20 DUP3 ADD SWAP1 POP DUP2 DUP2 SUB PUSH1 0x0 DUP4 ADD MSTORE PUSH2 0x19AF DUP2 PUSH2 0x1973 JUMP JUMPDEST SWAP1 POP SWAP2 SWAP1 POP JUMP JUMPDEST PUSH32 0x4E6F7420617574686F72697A656420746F206372656174652061747465737461 PUSH1 0x0 DUP3 ADD MSTORE PUSH32 0x74696F6E73000000000000000000000000000000000000000000000000000000 PUSH1 0x20 DUP3 ADD MSTORE POP JUMP JUMPDEST PUSH1 0x0 PUSH2 0x1A12 PUSH1 0x25 DUP4 PUSH2 0x154B JUMP JUMPDEST SWAP2 POP PUSH2 0x1A1D DUP3 PUSH2 0x19B6 JUMP JUMPDEST PUSH1 0x40 DUP3 ADD SWAP1 POP SWAP2 SWAP1 POP JUMP JUMPDEST PUSH1 0x0 PUSH1 0x20 DUP3 ADD SWAP1 POP DUP2 DUP2 SUB PUSH1 0x0 DUP4 ADD MSTORE PUSH2 0x1A41 DUP2 PUSH2 0x1A05 JUMP JUMPDEST SWAP1 POP SWAP2 SWAP1 POP JUMP JUMPDEST PUSH32 0x536368656D61206E6F7420637265617465640000000000000000000000000000 PUSH1 0x0 DUP3 ADD MSTORE POP JUMP JUMPDEST PUSH1 0x0 PUSH2 0x1A7E PUSH1 0x12 DUP4 PUSH2 0x154B JUMP JUMPDEST SWAP2 POP PUSH2 0x1A89 DUP3 PUSH2 0x1A48 JUMP JUMPDEST PUSH1 0x20 DUP3 ADD SWAP1 POP SWAP2 SWAP1 POP JUMP JUMPDEST PUSH1 0x0 PUSH1 0x20 DUP3 ADD SWAP1 POP DUP2 DUP2 SUB PUSH1 0x0 DUP4 ADD MSTORE PUSH2 0x1AAD DUP2 PUSH2 0x1A71 JUMP JUMPDEST SWAP1 POP SWAP2 SWAP1 POP JUMP JUMPDEST PUSH32 0x496E76616C696420726563697069656E74000000000000000000000000000000 PUSH1 0x0 DUP3 ADD MSTORE POP JUMP JUMPDEST PUSH1 0x0 PUSH2 0x1AEA PUSH1 0x11 DUP4 PUSH2 0x154B JUMP JUMPDEST SWAP2 POP PUSH2 0x1AF5 DUP3 PUSH2 0x1AB4 JUMP JUMPDEST PUSH1 0x20 DUP3 ADD SWAP1 POP SWAP2 SWAP1 POP JUMP JUMPDEST PUSH1 0x0 PUSH1 0x20 DUP3 ADD SWAP1 POP DUP2 DUP2 SUB PUSH1 0x0 DUP4 ADD MSTORE PUSH2 0x1B19 DUP2 PUSH2 0x1ADD JUMP JUMPDEST SWAP1 POP SWAP2 SWAP1 POP JUMP JUMPDEST PUSH32 0x496E76616C696420746F6B656E20494400000000000000000000000000000000 PUSH1 0x0 DUP3 ADD MSTORE POP JUMP JUMPDEST PUSH1 0x0 PUSH2 0x1B56 PUSH1 0x10 DUP4 PUSH2 0x154B JUMP JUMPDEST SWAP2 POP PUSH2 0x1B61 DUP3 PUSH2 0x1B20 JUMP JUMPDEST PUSH1 0x20 DUP3 ADD SWAP1 POP SWAP2 SWAP1 POP JUMP JUMPDEST PUSH1 0x0 PUSH1 0x20 DUP3 ADD SWAP1 POP DUP2 DUP2 SUB PUSH1 0x0 DUP4 ADD MSTORE PUSH2 0x1B85 DUP2 PUSH2 0x1B49 JUMP JUMPDEST SWAP1 POP SWAP2 SWAP1 POP JUMP JUMPDEST PUSH2 0x1B95 DUP2 PUSH2 0x1400 JUMP JUMPDEST DUP3 MSTORE POP POP JUMP JUMPDEST PUSH2 0x1BA4 DUP2 PUSH2 0x14D5 JUMP JUMPDEST DUP3 MSTORE POP POP JUMP JUMPDEST PUSH1 0x0 PUSH1 0x80 DUP3 ADD SWAP1 POP PUSH2 0x1BBF PUSH1 0x0 DUP4 ADD DUP8 PUSH2 0x1B8C JUMP JUMPDEST PUSH2 0x1BCC PUSH1 0x20 DUP4 ADD DUP7 PUSH2 0x1B9B JUMP JUMPDEST PUSH2 0x1BD9 PUSH1 0x40 DUP4 ADD DUP6 PUSH2 0x1B9B JUMP JUMPDEST PUSH2 0x1BE6 PUSH1 0x60 DUP4 ADD DUP5 PUSH2 0x1B8C JUMP JUMPDEST SWAP6 SWAP5 POP POP POP POP POP JUMP JUMPDEST PUSH2 0x1BF8 DUP2 PUSH2 0x137D JUMP JUMPDEST DUP3 MSTORE POP POP JUMP JUMPDEST PUSH2 0x1C07 DUP2 PUSH2 0x1400 JUMP JUMPDEST DUP3 MSTORE POP POP JUMP JUMPDEST PUSH2 0x1C16 DUP2 PUSH2 0x1673 JUMP JUMPDEST DUP3 MSTORE POP POP JUMP JUMPDEST PUSH2 0x1C25 DUP2 PUSH2 0x1347 JUMP JUMPDEST DUP3 MSTORE POP POP JUMP JUMPDEST PUSH1 0x0 DUP2 MLOAD SWAP1 POP SWAP2 SWAP1 POP JUMP JUMPDEST PUSH1 0x0 DUP3 DUP3 MSTORE PUSH1 0x20 DUP3 ADD SWAP1 POP SWAP3 SWAP2 POP POP JUMP JUMPDEST PUSH1 0x0 PUSH2 0x1C52 DUP3 PUSH2 0x1C2B JUMP JUMPDEST PUSH2 0x1C5C DUP2 DUP6 PUSH2 0x1C36 JUMP JUMPDEST SWAP4 POP PUSH2 0x1C6C DUP2 DUP6 PUSH1 0x20 DUP7 ADD PUSH2 0x172F JUMP JUMPDEST PUSH2 0x1C75 DUP2 PUSH2 0x15CD JUMP JUMPDEST DUP5 ADD SWAP2 POP POP SWAP3 SWAP2 POP POP JUMP JUMPDEST PUSH2 0x1C89 DUP2 PUSH2 0x14D5 JUMP JUMPDEST DUP3 MSTORE POP POP JUMP JUMPDEST PUSH1 0x0 PUSH1 0xC0 DUP4 ADD PUSH1 0x0 DUP4 ADD MLOAD PUSH2 0x1CA7 PUSH1 0x0 DUP7 ADD DUP3 PUSH2 0x1BFE JUMP JUMPDEST POP PUSH1 0x20 DUP4 ADD MLOAD PUSH2 0x1CBA PUSH1 0x20 DUP7 ADD DUP3 PUSH2 0x1C0D JUMP JUMPDEST POP PUSH1 0x40 DUP4 ADD MLOAD PUSH2 0x1CCD PUSH1 0x40 DUP7 ADD DUP3 PUSH2 0x1C1C JUMP JUMPDEST POP PUSH1 0x60 DUP4 ADD MLOAD PUSH2 0x1CE0 PUSH1 0x60 DUP7 ADD DUP3 PUSH2 0x1BEF JUMP JUMPDEST POP PUSH1 0x80 DUP4 ADD MLOAD DUP5 DUP3 SUB PUSH1 0x80 DUP7 ADD MSTORE PUSH2 0x1CF8 DUP3 DUP3 PUSH2 0x1C47 JUMP JUMPDEST SWAP2 POP POP PUSH1 0xA0 DUP4 ADD MLOAD PUSH2 0x1D0D PUSH1 0xA0 DUP7 ADD DUP3 PUSH2 0x1C80 JUMP JUMPDEST POP DUP1 SWAP2 POP POP SWAP3 SWAP2 POP POP JUMP JUMPDEST PUSH1 0x0 PUSH1 0x40 DUP4 ADD PUSH1 0x0 DUP4 ADD MLOAD PUSH2 0x1D30 PUSH1 0x0 DUP7 ADD DUP3 PUSH2 0x1BEF JUMP JUMPDEST POP PUSH1 0x20 DUP4 ADD MLOAD DUP5 DUP3 SUB PUSH1 0x20 DUP7 ADD MSTORE PUSH2 0x1D48 DUP3 DUP3 PUSH2 0x1C8F JUMP JUMPDEST SWAP2 POP POP DUP1 SWAP2 POP POP SWAP3 SWAP2 POP POP JUMP JUMPDEST PUSH1 0x0 PUSH1 0x20 DUP3 ADD SWAP1 POP DUP2 DUP2 SUB PUSH1 0x0 DUP4 ADD MSTORE PUSH2 0x1D6F DUP2 DUP5 PUSH2 0x1D18 JUMP JUMPDEST SWAP1 POP SWAP3 SWAP2 POP POP JUMP JUMPDEST PUSH1 0x0 PUSH1 0x20 DUP3 DUP5 SUB SLT ISZERO PUSH2 0x1D8D JUMPI PUSH2 0x1D8C PUSH2 0x12B8 JUMP JUMPDEST JUMPDEST PUSH1 0x0 PUSH2 0x1D9B DUP5 DUP3 DUP6 ADD PUSH2 0x165E JUMP JUMPDEST SWAP2 POP POP SWAP3 SWAP2 POP POP JUMP JUMPDEST PUSH32 0x43616E6E6F74207265766F6B6520726F6C652066726F6D206D61696E20617474 PUSH1 0x0 DUP3 ADD MSTORE PUSH32 0x6573746174696F6E2063726561746F7200000000000000000000000000000000 PUSH1 0x20 DUP3 ADD MSTORE POP JUMP JUMPDEST PUSH1 0x0 PUSH2 0x1E00 PUSH1 0x30 DUP4 PUSH2 0x154B JUMP JUMPDEST SWAP2 POP PUSH2 0x1E0B DUP3 PUSH2 0x1DA4 JUMP JUMPDEST PUSH1 0x40 DUP3 ADD SWAP1 POP SWAP2 SWAP1 POP JUMP JUMPDEST PUSH1 0x0 PUSH1 0x20 DUP3 ADD SWAP1 POP DUP2 DUP2 SUB PUSH1 0x0 DUP4 ADD MSTORE PUSH2 0x1E2F DUP2 PUSH2 0x1DF3 JUMP JUMPDEST SWAP1 POP SWAP2 SWAP1 POP JUMP JUMPDEST PUSH32 0x436F6E747261637420616C726561647920696E697469616C697A656400000000 PUSH1 0x0 DUP3 ADD MSTORE POP JUMP JUMPDEST PUSH1 0x0 PUSH2 0x1E6C PUSH1 0x1C DUP4 PUSH2 0x154B JUMP JUMPDEST SWAP2 POP PUSH2 0x1E77 DUP3 PUSH2 0x1E36 JUMP JUMPDEST PUSH1 0x20 DUP3 ADD SWAP1 POP SWAP2 SWAP1 POP JUMP JUMPDEST PUSH1 0x0 PUSH1 0x20 DUP3 ADD SWAP1 POP DUP2 DUP2 SUB PUSH1 0x0 DUP4 ADD MSTORE PUSH2 0x1E9B DUP2 PUSH2 0x1E5F JUMP JUMPDEST SWAP1 POP SWAP2 SWAP1 POP JUMP JUMPDEST PUSH32 0x536368656D6120616C7265616479206372656174656400000000000000000000 PUSH1 0x0 DUP3 ADD MSTORE POP JUMP JUMPDEST PUSH1 0x0 PUSH2 0x1ED8 PUSH1 0x16 DUP4 PUSH2 0x154B JUMP JUMPDEST SWAP2 POP PUSH2 0x1EE3 DUP3 PUSH2 0x1EA2 JUMP JUMPDEST PUSH1 0x20 DUP3 ADD SWAP1 POP SWAP2 SWAP1 POP JUMP JUMPDEST PUSH1 0x0 PUSH1 0x20 DUP3 ADD SWAP1 POP DUP2 DUP2 SUB PUSH1 0x0 DUP4 ADD MSTORE PUSH2 0x1F07 DUP2 PUSH2 0x1ECB JUMP JUMPDEST SWAP1 POP SWAP2 SWAP1 POP JUMP JUMPDEST PUSH1 0x0 DUP2 MLOAD SWAP1 POP SWAP2 SWAP1 POP JUMP JUMPDEST PUSH1 0x0 PUSH2 0x1F24 DUP3 PUSH2 0x1F0E JUMP JUMPDEST PUSH2 0x1F2E DUP2 DUP6 PUSH2 0x154B JUMP JUMPDEST SWAP4 POP PUSH2 0x1F3E DUP2 DUP6 PUSH1 0x20 DUP7 ADD PUSH2 0x172F JUMP JUMPDEST PUSH2 0x1F47 DUP2 PUSH2 0x15CD JUMP JUMPDEST DUP5 ADD SWAP2 POP POP SWAP3 SWAP2 POP POP JUMP JUMPDEST PUSH1 0x0 DUP2 SWAP1 POP SWAP2 SWAP1 POP JUMP JUMPDEST PUSH1 0x0 PUSH2 0x1F77 PUSH2 0x1F72 PUSH2 0x1F6D DUP5 PUSH2 0x13E0 JUMP JUMPDEST PUSH2 0x1F52 JUMP JUMPDEST PUSH2 0x13E0 JUMP JUMPDEST SWAP1 POP SWAP2 SWAP1 POP JUMP JUMPDEST PUSH1 0x0 PUSH2 0x1F89 DUP3 PUSH2 0x1F5C JUMP JUMPDEST SWAP1 POP SWAP2 SWAP1 POP JUMP JUMPDEST PUSH1 0x0 PUSH2 0x1F9B DUP3 PUSH2 0x1F7E JUMP JUMPDEST SWAP1 POP SWAP2 SWAP1 POP JUMP JUMPDEST PUSH2 0x1FAB DUP2 PUSH2 0x1F90 JUMP JUMPDEST DUP3 MSTORE POP POP JUMP JUMPDEST PUSH1 0x0 PUSH1 0x60 DUP3 ADD SWAP1 POP DUP2 DUP2 SUB PUSH1 0x0 DUP4 ADD MSTORE PUSH2 0x1FCB DUP2 DUP7 PUSH2 0x1F19 JUMP JUMPDEST SWAP1 POP PUSH2 0x1FDA PUSH1 0x20 DUP4 ADD DUP6 PUSH2 0x1FA2 JUMP JUMPDEST PUSH2 0x1FE7 PUSH1 0x40 DUP4 ADD DUP5 PUSH2 0x1353 JUMP JUMPDEST SWAP5 SWAP4 POP POP POP POP JUMP JUMPDEST PUSH1 0x0 DUP2 SWAP1 POP SWAP3 SWAP2 POP POP JUMP JUMPDEST PUSH32 0x416363657373436F6E74726F6C3A206163636F756E7420000000000000000000 PUSH1 0x0 DUP3 ADD MSTORE POP JUMP JUMPDEST PUSH1 0x0 PUSH2 0x2030 PUSH1 0x17 DUP4 PUSH2 0x1FEF JUMP JUMPDEST SWAP2 POP PUSH2 0x203B DUP3 PUSH2 0x1FFA JUMP JUMPDEST PUSH1 0x17 DUP3 ADD SWAP1 POP SWAP2 SWAP1 POP JUMP JUMPDEST PUSH1 0x0 PUSH2 0x2051 DUP3 PUSH2 0x1F0E JUMP JUMPDEST PUSH2 0x205B DUP2 DUP6 PUSH2 0x1FEF JUMP JUMPDEST SWAP4 POP PUSH2 0x206B DUP2 DUP6 PUSH1 0x20 DUP7 ADD PUSH2 0x172F JUMP JUMPDEST DUP1 DUP5 ADD SWAP2 POP POP SWAP3 SWAP2 POP POP JUMP JUMPDEST PUSH32 0x206973206D697373696E6720726F6C6520000000000000000000000000000000 PUSH1 0x0 DUP3 ADD MSTORE POP JUMP JUMPDEST PUSH1 0x0 PUSH2 0x20AD PUSH1 0x11 DUP4 PUSH2 0x1FEF JUMP JUMPDEST SWAP2 POP PUSH2 0x20B8 DUP3 PUSH2 0x2077 JUMP JUMPDEST PUSH1 0x11 DUP3 ADD SWAP1 POP SWAP2 SWAP1 POP JUMP JUMPDEST PUSH1 0x0 PUSH2 0x20CE DUP3 PUSH2 0x2023 JUMP JUMPDEST SWAP2 POP PUSH2 0x20DA DUP3 DUP6 PUSH2 0x2046 JUMP JUMPDEST SWAP2 POP PUSH2 0x20E5 DUP3 PUSH2 0x20A0 JUMP JUMPDEST SWAP2 POP PUSH2 0x20F1 DUP3 DUP5 PUSH2 0x2046 JUMP JUMPDEST SWAP2 POP DUP2 SWAP1 POP SWAP4 SWAP3 POP POP POP JUMP JUMPDEST PUSH1 0x0 PUSH1 0x20 DUP3 ADD SWAP1 POP DUP2 DUP2 SUB PUSH1 0x0 DUP4 ADD MSTORE PUSH2 0x2117 DUP2 DUP5 PUSH2 0x1F19 JUMP JUMPDEST SWAP1 POP SWAP3 SWAP2 POP POP JUMP JUMPDEST PUSH32 0x4E487B7100000000000000000000000000000000000000000000000000000000 PUSH1 0x0 MSTORE PUSH1 0x11 PUSH1 0x4 MSTORE PUSH1 0x24 PUSH1 0x0 REVERT JUMPDEST PUSH1 0x0 PUSH2 0x2159 DUP3 PUSH2 0x14D5 JUMP JUMPDEST SWAP2 POP PUSH2 0x2164 DUP4 PUSH2 0x14D5 JUMP JUMPDEST SWAP3 POP DUP3 DUP3 MUL PUSH2 0x2172 DUP2 PUSH2 0x14D5 JUMP JUMPDEST SWAP2 POP DUP3 DUP3 DIV DUP5 EQ DUP4 ISZERO OR PUSH2 0x2189 JUMPI PUSH2 0x2188 PUSH2 0x211F JUMP JUMPDEST JUMPDEST POP SWAP3 SWAP2 POP POP JUMP JUMPDEST PUSH1 0x0 PUSH2 0x219B DUP3 PUSH2 0x14D5 JUMP JUMPDEST SWAP2 POP PUSH2 0x21A6 DUP4 PUSH2 0x14D5 JUMP JUMPDEST SWAP3 POP DUP3 DUP3 ADD SWAP1 POP DUP1 DUP3 GT ISZERO PUSH2 0x21BE JUMPI PUSH2 0x21BD PUSH2 0x211F JUMP JUMPDEST JUMPDEST SWAP3 SWAP2 POP POP JUMP JUMPDEST PUSH32 0x4E487B7100000000000000000000000000000000000000000000000000000000 PUSH1 0x0 MSTORE PUSH1 0x32 PUSH1 0x4 MSTORE PUSH1 0x24 PUSH1 0x0 REVERT JUMPDEST PUSH1 0x0 PUSH2 0x21FE DUP3 PUSH2 0x14D5 JUMP JUMPDEST SWAP2 POP PUSH1 0x0 DUP3 SUB PUSH2 0x2211 JUMPI PUSH2 0x2210 PUSH2 0x211F JUMP JUMPDEST JUMPDEST PUSH1 0x1 DUP3 SUB SWAP1 POP SWAP2 SWAP1 POP JUMP JUMPDEST PUSH32 0x537472696E67733A20686578206C656E67746820696E73756666696369656E74 PUSH1 0x0 DUP3 ADD MSTORE POP JUMP JUMPDEST PUSH1 0x0 PUSH2 0x2252 PUSH1 0x20 DUP4 PUSH2 0x154B JUMP JUMPDEST SWAP2 POP PUSH2 0x225D DUP3 PUSH2 0x221C JUMP JUMPDEST PUSH1 0x20 DUP3 ADD SWAP1 POP SWAP2 SWAP1 POP JUMP JUMPDEST PUSH1 0x0 PUSH1 0x20 DUP3 ADD SWAP1 POP DUP2 DUP2 SUB PUSH1 0x0 DUP4 ADD MSTORE PUSH2 0x2281 DUP2 PUSH2 0x2245 JUMP JUMPDEST SWAP1 POP SWAP2 SWAP1 POP JUMP INVALID PUSH2 0x6464 PUSH19 0x6573732075736572416464726573732C75696E PUSH21 0x32353620746F6B656E49642C75696E743235362074 PUSH10 0x6D657374616D702C6164 PUSH5 0x7265737320 PUSH2 0x7474 PUSH6 0x73746572A264 PUSH10 0x70667358221220D7DD2A 0xF6 0xB2 0xE5 SWAP16 0xE4 ADD 0xD5 DUP13 0xEC GASLIMIT 0x27 0xC5 PUSH24 0x974940B441A5E97A4F7F98A704BF7D3864736F6C63430008 SHL STOP CALLER "
				},
				"gasEstimates": {
					"creation": {
						"codeDepositCost": "1792800",
						"executionCost": "infinite",
						"totalCost": "infinite"
					},
					"external": {
						"ATTESTATION_CREATOR_ROLE()": "373",
						"DEFAULT_ADMIN_ROLE()": "357",
						"createMissionEnrollmentAttestation(address,uint256)": "infinite",
						"createMissionEnrollmentSchema()": "infinite",
						"getRoleAdmin(bytes32)": "infinite",
						"grantAttestationCreatorRole(address)": "infinite",
						"grantRole(bytes32,address)": "infinite",
						"hasRole(bytes32,address)": "3229",
						"initialize()": "infinite",
						"isApprovedAttestationCreator(address)": "2950",
						"missionEnrollmentSchema()": "2474",
						"renounceRole(bytes32,address)": "infinite",
						"revokeAttestationCreatorRole(address)": "infinite",
						"revokeRole(bytes32,address)": "infinite",
						"supportsInterface(bytes4)": "751",
						"verifyAttestation(bytes32)": "infinite"
					}
				},
				"methodIdentifiers": {
					"ATTESTATION_CREATOR_ROLE()": "bd462049",
					"DEFAULT_ADMIN_ROLE()": "a217fddf",
					"createMissionEnrollmentAttestation(address,uint256)": "624b04bd",
					"createMissionEnrollmentSchema()": "e27fadab",
					"getRoleAdmin(bytes32)": "248a9ca3",
					"grantAttestationCreatorRole(address)": "1ecf2fbf",
					"grantRole(bytes32,address)": "2f2ff15d",
					"hasRole(bytes32,address)": "91d14854",
					"initialize()": "8129fc1c",
					"isApprovedAttestationCreator(address)": "4a0145b6",
					"missionEnrollmentSchema()": "6b823894",
					"renounceRole(bytes32,address)": "36568abe",
					"revokeAttestationCreatorRole(address)": "677339ce",
					"revokeRole(bytes32,address)": "d547741f",
					"supportsInterface(bytes4)": "01ffc9a7",
					"verifyAttestation(bytes32)": "08f46957"
				}
			},
			"storageLayout": {
				"storage": [
					{
						"astId": 558,
						"contract": "onchain_code.sol:AttestationService",
						"label": "_roles",
						"offset": 0,
						"slot": "0",
						"type": "t_mapping(t_bytes32,t_struct(RoleData)553_storage)"
					},
					{
						"astId": 1144,
						"contract": "onchain_code.sol:AttestationService",
						"label": "missionEnrollmentSchema",
						"offset": 0,
						"slot": "1",
						"type": "t_bytes32"
					},
					{
						"astId": 1156,
						"contract": "onchain_code.sol:AttestationService",
						"label": "approvedAttestationCreators",
						"offset": 0,
						"slot": "2",
						"type": "t_mapping(t_address,t_bool)"
					},
					{
						"astId": 1158,
						"contract": "onchain_code.sol:AttestationService",
						"label": "initialized",
						"offset": 0,
						"slot": "3",
						"type": "t_bool"
					}
				],
				"types": {
					"t_address": {
						"encoding": "inplace",
						"label": "address",
						"numberOfBytes": "20"
					},
					"t_bool": {
						"encoding": "inplace",
						"label": "bool",
						"numberOfBytes": "1"
					},
					"t_bytes32": {
						"encoding": "inplace",
						"label": "bytes32",
						"numberOfBytes": "32"
					},
					"t_mapping(t_address,t_bool)": {
						"encoding": "mapping",
						"key": "t_address",
						"label": "mapping(address => bool)",
						"numberOfBytes": "32",
						"value": "t_bool"
					},
					"t_mapping(t_bytes32,t_struct(RoleData)553_storage)": {
						"encoding": "mapping",
						"key": "t_bytes32",
						"label": "mapping(bytes32 => struct AccessControl.RoleData)",
						"numberOfBytes": "32",
						"value": "t_struct(RoleData)553_storage"
					},
					"t_struct(RoleData)553_storage": {
						"encoding": "inplace",
						"label": "struct AccessControl.RoleData",
						"members": [
							{
								"astId": 550,
								"contract": "onchain_code.sol:AttestationService",
								"label": "members",
								"offset": 0,
								"slot": "0",
								"type": "t_mapping(t_address,t_bool)"
							},
							{
								"astId": 552,
								"contract": "onchain_code.sol:AttestationService",
								"label": "adminRole",
								"offset": 0,
								"slot": "1",
								"type": "t_bytes32"
							}
						],
						"numberOfBytes": "64"
					}
				}
			},
			"userdoc": {
				"kind": "user",
				"methods": {},
				"version": 1
			}
		}
	}
}