{"contracts/AttestationService.sol":{"AttestationService":{"abi":[{"inputs":[{"internalType":"address","name":"_eas","type":"address"},{"internalType":"address","name":"_schemaRegistry","type":"address"}],"stateMutability":"nonpayable","type":"constructor"},{"inputs":[],"name":"AccessControlBadConfirmation","type":"error"},{"inputs":[{"internalType":"address","name":"account","type":"address"},{"internalType":"bytes32","name":"neededRole","type":"bytes32"}],"name":"AccessControlUnauthorizedAccount","type":"error"},{"anonymous":false,"inputs":[{"indexed":true,"internalType":"bytes32","name":"attestationId","type":"bytes32"},{"indexed":true,"internalType":"address","name":"recipient","type":"address"},{"indexed":true,"internalType":"address","name":"attester","type":"address"}],"name":"AttestationCreated","type":"event"},{"anonymous":false,"inputs":[{"indexed":true,"internalType":"bytes32","name":"role","type":"bytes32"},{"indexed":true,"internalType":"bytes32","name":"previousAdminRole","type":"bytes32"},{"indexed":true,"internalType":"bytes32","name":"newAdminRole","type":"bytes32"}],"name":"RoleAdminChanged","type":"event"},{"anonymous":false,"inputs":[{"indexed":true,"internalType":"bytes32","name":"role","type":"bytes32"},{"indexed":true,"internalType":"address","name":"account","type":"address"},{"indexed":true,"internalType":"address","name":"sender","type":"address"}],"name":"RoleGranted","type":"event"},{"anonymous":false,"inputs":[{"indexed":true,"internalType":"bytes32","name":"role","type":"bytes32"},{"indexed":true,"internalType":"address","name":"account","type":"address"},{"indexed":true,"internalType":"address","name":"sender","type":"address"}],"name":"RoleRevoked","type":"event"},{"anonymous":false,"inputs":[{"indexed":true,"internalType":"bytes32","name":"schemaId","type":"bytes32"}],"name":"SchemaCreated","type":"event"},{"inputs":[],"name":"ATTESTATION_CREATOR_ROLE","outputs":[{"internalType":"bytes32","name":"","type":"bytes32"}],"stateMutability":"view","type":"function"},{"inputs":[],"name":"DEFAULT_ADMIN_ROLE","outputs":[{"internalType":"bytes32","name":"","type":"bytes32"}],"stateMutability":"view","type":"function"},{"inputs":[{"internalType":"address","name":"recipient","type":"address"},{"internalType":"uint256","name":"tokenId","type":"uint256"}],"name":"createMissionEnrollmentAttestation","outputs":[{"internalType":"bytes32","name":"","type":"bytes32"}],"stateMutability":"nonpayable","type":"function"},{"inputs":[],"name":"createMissionEnrollmentSchema","outputs":[],"stateMutability":"nonpayable","type":"function"},{"inputs":[{"internalType":"bytes32","name":"role","type":"bytes32"}],"name":"getRoleAdmin","outputs":[{"internalType":"bytes32","name":"","type":"bytes32"}],"stateMutability":"view","type":"function"},{"inputs":[{"internalType":"address","name":"account","type":"address"}],"name":"grantAttestationCreatorRole","outputs":[],"stateMutability":"nonpayable","type":"function"},{"inputs":[{"internalType":"bytes32","name":"role","type":"bytes32"},{"internalType":"address","name":"account","type":"address"}],"name":"grantRole","outputs":[],"stateMutability":"nonpayable","type":"function"},{"inputs":[{"internalType":"bytes32","name":"role","type":"bytes32"},{"internalType":"address","name":"account","type":"address"}],"name":"hasRole","outputs":[{"internalType":"bool","name":"","type":"bool"}],"stateMutability":"view","type":"function"},{"inputs":[],"name":"missionEnrollmentSchema","outputs":[{"internalType":"bytes32","name":"","type":"bytes32"}],"stateMutability":"view","type":"function"},{"inputs":[{"internalType":"bytes32","name":"role","type":"bytes32"},{"internalType":"address","name":"callerConfirmation","type":"address"}],"name":"renounceRole","outputs":[],"stateMutability":"nonpayable","type":"function"},{"inputs":[{"internalType":"address","name":"account","type":"address"}],"name":"revokeAttestationCreatorRole","outputs":[],"stateMutability":"nonpayable","type":"function"},{"inputs":[{"internalType":"bytes32","name":"role","type":"bytes32"},{"internalType":"address","name":"account","type":"address"}],"name":"revokeRole","outputs":[],"stateMutability":"nonpayable","type":"function"},{"inputs":[{"internalType":"bytes4","name":"interfaceId","type":"bytes4"}],"name":"supportsInterface","outputs":[{"internalType":"bool","name":"","type":"bool"}],"stateMutability":"view","type":"function"},{"inputs":[{"internalType":"bytes32","name":"attestationId","type":"bytes32"}],"name":"verifyAttestation","outputs":[{"internalType":"bool","name":"","type":"bool"}],"stateMutability":"view","type":"function"}],"devdoc":{"errors":{"AccessControlBadConfirmation()":[{"details":"The caller of a function is not the expected one. NOTE: Don't confuse with {AccessControlUnauthorizedAccount}."}],"AccessControlUnauthorizedAccount(address,bytes32)":[{"details":"The `account` is missing a role."}]},"events":{"RoleAdminChanged(bytes32,bytes32,bytes32)":{"details":"Emitted when `newAdminRole` is set as ``role``'s admin role, replacing `previousAdminRole` `DEFAULT_ADMIN_ROLE` is the starting admin for all roles, despite {RoleAdminChanged} not being emitted signaling this."},"RoleGranted(bytes32,address,address)":{"details":"Emitted when `account` is granted `role`. `sender` is the account that originated the contract call, an admin role bearer except when using {AccessControl-_setupRole}."},"RoleRevoked(bytes32,address,address)":{"details":"Emitted when `account` is revoked `role`. `sender` is the account that originated the contract call:   - if using `revokeRole`, it is the admin role bearer   - if using `renounceRole`, it is the role bearer (i.e. `account`)"}},"kind":"dev","methods":{"getRoleAdmin(bytes32)":{"details":"Returns the admin role that controls `role`. See {grantRole} and {revokeRole}. To change a role's admin, use {_setRoleAdmin}."},"grantRole(bytes32,address)":{"details":"Grants `role` to `account`. If `account` had not been already granted `role`, emits a {RoleGranted} event. Requirements: - the caller must have ``role``'s admin role. May emit a {RoleGranted} event."},"hasRole(bytes32,address)":{"details":"Returns `true` if `account` has been granted `role`."},"renounceRole(bytes32,address)":{"details":"Revokes `role` from the calling account. Roles are often managed via {grantRole} and {revokeRole}: this function's purpose is to provide a mechanism for accounts to lose their privileges if they are compromised (such as when a trusted device is misplaced). If the calling account had been revoked `role`, emits a {RoleRevoked} event. Requirements: - the caller must be `callerConfirmation`. May emit a {RoleRevoked} event."},"revokeRole(bytes32,address)":{"details":"Revokes `role` from `account`. If `account` had been granted `role`, emits a {RoleRevoked} event. Requirements: - the caller must have ``role``'s admin role. May emit a {RoleRevoked} event."},"supportsInterface(bytes4)":{"details":"See {IERC165-supportsInterface}."}},"version":1},"evm":{"bytecode":{"linkReferences":{},"object":"60c06040523480156200001157600080fd5b50604051620010dd380380620010dd8339810160408190526200003491620001ce565b6001600160a01b038216158015906200005557506001600160a01b03811615155b620000985760405162461bcd60e51b815260206004820152600f60248201526e496e76616c6964206164647265737360881b604482015260640160405180910390fd5b6001600160a01b03808316608052811660a052620000b860003362000102565b50620000f97ffe59eece44efc73d9bec857e15b77961120d43be620d135f2f6356bc328d55f173f0bc5cc2b4866daaecb069430c60b2452007703762000102565b50505062000206565b6000828152602081815260408083206001600160a01b038516845290915281205460ff16620001a7576000838152602081815260408083206001600160a01b03861684529091529020805460ff191660011790556200015e3390565b6001600160a01b0316826001600160a01b0316847f2f8788117e7eff1d82e926ec794901d17c78024a50270940304540a733656f0d60405160405180910390a4506001620001ab565b5060005b92915050565b80516001600160a01b0381168114620001c957600080fd5b919050565b60008060408385031215620001e257600080fd5b620001ed83620001b1565b9150620001fd60208401620001b1565b90509250929050565b60805160a051610eaa6200023360003960006108190152600081816102ad01526105f00152610eaa6000f3fe608060405234801561001057600080fd5b50600436106100ea5760003560e01c8063677339ce1161008c578063a217fddf11610066578063a217fddf146101d8578063bd462049146101e0578063d547741f146101f5578063e27fadab1461020857600080fd5b8063677339ce146101a95780636b823894146101bc57806391d14854146101c557600080fd5b8063248a9ca3116100c8578063248a9ca31461013f5780632f2ff15d1461017057806336568abe14610183578063624b04bd1461019657600080fd5b806301ffc9a7146100ef57806308f46957146101175780631ecf2fbf1461012a575b600080fd5b6101026100fd366004610a27565b610210565b60405190151581526020015b60405180910390f35b610102610125366004610a51565b610247565b61013d610138366004610a7f565b61035e565b005b61016261014d366004610a51565b60009081526020819052604090206001015490565b60405190815260200161010e565b61013d61017e366004610a9c565b61040b565b61013d610191366004610a9c565b610436565b6101626101a4366004610acc565b61046e565b61013d6101b7366004610a7f565b6106ad565b61016260015481565b6101026101d3366004610a9c565b610756565b610162600081565b610162600080516020610e0f83398151915281565b61013d610203366004610a9c565b61077f565b61013d6107a4565b60006001600160e01b03198216637965db0b60e01b148061024157506301ffc9a760e01b6001600160e01b03198316145b92915050565b6000816102945760405162461bcd60e51b8152602060048201526016602482015275125b9d985b1a5908185d1d195cdd185d1a5bdb88125160521b60448201526064015b60405180910390fd5b6040516328c44a9960e21b8152600481018390526000907f00000000000000000000000000000000000000000000000000000000000000006001600160a01b03169063a3112a6490602401600060405180830381865afa1580156102fc573d6000803e3d6000fd5b505050506040513d6000823e601f3d908101601f191682016040526103249190810190610c1c565b805190915083148015610357575060e08101516001600160a01b031673f0bc5cc2b4866daaecb069430c60b24520077037145b9392505050565b6000610369816108e4565b6001600160a01b03821673f0bc5cc2b4866daaecb069430c60b24520077037146103ef5760405162461bcd60e51b815260206004820152603160248201527f4f6e6c7920444151485249535f4554485f414444524553532063616e206265206044820152706772616e746564207468697320726f6c6560781b606482015260840161028b565b610407600080516020610e0f8339815191528361040b565b5050565b600082815260208190526040902060010154610426816108e4565b61043083836108f1565b50505050565b6001600160a01b038116331461045f5760405163334bd91960e11b815260040160405180910390fd5b6104698282610983565b505050565b6000600080516020610e0f833981519152610488816108e4565b6001546104cc5760405162461bcd60e51b815260206004820152601260248201527114d8da195b58481b9bdd0818dc99585d195960721b604482015260640161028b565b6001600160a01b0384166105165760405162461bcd60e51b8152602060048201526011602482015270125b9d985b1a59081c9958da5c1a595b9d607a1b604482015260640161028b565b826000036105595760405162461bcd60e51b815260206004820152601060248201526f125b9d985b1a59081d1bdad95b88125160821b604482015260640161028b565b604080516001600160a01b038616602082015290810184905242606082015233608082015260009060a00160408051601f198184030181528282018252600180548452825160c0810184526001600160a01b03808b1682526000602083810182905283870194909452606083018190526080830185905260a0830181905292860191909152925163f17325e760e01b8152919450917f0000000000000000000000000000000000000000000000000000000000000000169063f17325e790610625908590600401610d3f565b6020604051808303816000875af1158015610644573d6000803e3d6000fd5b505050506040513d601f19601f820116820180604052508101906106689190610dc2565b60405190915033906001600160a01b0389169083907f63f86f3e95d67d75fed996a7db68f9e7eabf0600abbd54fccabf34ec3b5fa4a790600090a49695505050505050565b60006106b8816108e4565b73f0bc5cc2b4866daaecb069430c60b24520077036196001600160a01b0383160161073e5760405162461bcd60e51b815260206004820152603060248201527f43616e6e6f74207265766f6b6520726f6c652066726f6d206d61696e2061747460448201526f32b9ba30ba34b7b71031b932b0ba37b960811b606482015260840161028b565b610407600080516020610e0f8339815191528361077f565b6000918252602082815260408084206001600160a01b0393909316845291905290205460ff1690565b60008281526020819052604090206001015461079a816108e4565b6104308383610983565b60006107af816108e4565b600154156107f85760405162461bcd60e51b815260206004820152601660248201527514d8da195b5848185b1c9958591e4818dc99585d195960521b604482015260640161028b565b6000604051806080016040528060468152602001610e2f60469139905060007f00000000000000000000000000000000000000000000000000000000000000006001600160a01b03166360d7a27883600060016040518463ffffffff1660e01b815260040161086993929190610ddb565b6020604051808303816000875af1158015610888573d6000803e3d6000fd5b505050506040513d601f19601f820116820180604052508101906108ac9190610dc2565b600181905560405190915081907fed68f5afea10be5233231e5d15186bf1c9c0b9f6d3a767404d90688bccf293af90600090a2505050565b6108ee81336109ee565b50565b60006108fd8383610756565b61097b576000838152602081815260408083206001600160a01b03861684529091529020805460ff191660011790556109333390565b6001600160a01b0316826001600160a01b0316847f2f8788117e7eff1d82e926ec794901d17c78024a50270940304540a733656f0d60405160405180910390a4506001610241565b506000610241565b600061098f8383610756565b1561097b576000838152602081815260408083206001600160a01b0386168085529252808320805460ff1916905551339286917ff6391f5c32d9c69d2a47ea670b442974b53935d1edc7fd64eb21e047a839171b9190a4506001610241565b6109f88282610756565b6104075760405163e2517d3f60e01b81526001600160a01b03821660048201526024810183905260440161028b565b600060208284031215610a3957600080fd5b81356001600160e01b03198116811461035757600080fd5b600060208284031215610a6357600080fd5b5035919050565b6001600160a01b03811681146108ee57600080fd5b600060208284031215610a9157600080fd5b813561035781610a6a565b60008060408385031215610aaf57600080fd5b823591506020830135610ac181610a6a565b809150509250929050565b60008060408385031215610adf57600080fd5b8235610aea81610a6a565b946020939093013593505050565b634e487b7160e01b600052604160045260246000fd5b604051610140810167ffffffffffffffff81118282101715610b3257610b32610af8565b60405290565b805167ffffffffffffffff81168114610b5057600080fd5b919050565b8051610b5081610a6a565b80518015158114610b5057600080fd5b60005b83811015610b8b578181015183820152602001610b73565b50506000910152565b600082601f830112610ba557600080fd5b815167ffffffffffffffff80821115610bc057610bc0610af8565b604051601f8301601f19908116603f01168101908282118183101715610be857610be8610af8565b81604052838152866020858801011115610c0157600080fd5b610c12846020830160208901610b70565b9695505050505050565b600060208284031215610c2e57600080fd5b815167ffffffffffffffff80821115610c4657600080fd5b908301906101408286031215610c5b57600080fd5b610c63610b0e565b8251815260208301516020820152610c7d60408401610b38565b6040820152610c8e60608401610b38565b6060820152610c9f60808401610b38565b608082015260a083015160a0820152610cba60c08401610b55565b60c0820152610ccb60e08401610b55565b60e0820152610100610cde818501610b60565b908201526101208381015183811115610cf657600080fd5b610d0288828701610b94565b918301919091525095945050505050565b60008151808452610d2b816020860160208601610b70565b601f01601f19169290920160200192915050565b60208152815160208201526000602083015160408084015260018060a01b03815116606084015267ffffffffffffffff60208201511660808401526040810151151560a0840152606081015160c0840152608081015160c060e0850152610daa610120850182610d13565b905060a0820151610100850152809250505092915050565b600060208284031215610dd457600080fd5b5051919050565b606081526000610dee6060830186610d13565b6001600160a01b039490941660208301525090151560409091015291905056fefe59eece44efc73d9bec857e15b77961120d43be620d135f2f6356bc328d55f1616464726573732075736572416464726573732c75696e7432353620746f6b656e49642c75696e743235362074696d657374616d702c61646472657373206174746573746572a26469706673582212209b1256a966eb8d5f1e80edd03a0eab0667d1cccc0d110831a964d1950eba9fe764736f6c63430008140033","opcodes":"PUSH1 0xC0 PUSH1 0x40 MSTORE CALLVALUE DUP1 ISZERO PUSH3 0x11 JUMPI PUSH1 0x0 DUP1 REVERT JUMPDEST POP PUSH1 0x40 MLOAD PUSH3 0x10DD CODESIZE SUB DUP1 PUSH3 0x10DD DUP4 CODECOPY DUP2 ADD PUSH1 0x40 DUP2 SWAP1 MSTORE PUSH3 0x34 SWAP2 PUSH3 0x1CE JUMP JUMPDEST PUSH1 0x1 PUSH1 0x1 PUSH1 0xA0 SHL SUB DUP3 AND ISZERO DUP1 ISZERO SWAP1 PUSH3 0x55 JUMPI POP PUSH1 0x1 PUSH1 0x1 PUSH1 0xA0 SHL SUB DUP2 AND ISZERO ISZERO JUMPDEST PUSH3 0x98 JUMPI PUSH1 0x40 MLOAD PUSH3 0x461BCD PUSH1 0xE5 SHL DUP2 MSTORE PUSH1 0x20 PUSH1 0x4 DUP3 ADD MSTORE PUSH1 0xF PUSH1 0x24 DUP3 ADD MSTORE PUSH15 0x496E76616C69642061646472657373 PUSH1 0x88 SHL PUSH1 0x44 DUP3 ADD MSTORE PUSH1 0x64 ADD PUSH1 0x40 MLOAD DUP1 SWAP2 SUB SWAP1 REVERT JUMPDEST PUSH1 0x1 PUSH1 0x1 PUSH1 0xA0 SHL SUB DUP1 DUP4 AND PUSH1 0x80 MSTORE DUP2 AND PUSH1 0xA0 MSTORE PUSH3 0xB8 PUSH1 0x0 CALLER PUSH3 0x102 JUMP JUMPDEST POP PUSH3 0xF9 PUSH32 0xFE59EECE44EFC73D9BEC857E15B77961120D43BE620D135F2F6356BC328D55F1 PUSH20 0xF0BC5CC2B4866DAAECB069430C60B24520077037 PUSH3 0x102 JUMP JUMPDEST POP POP POP PUSH3 0x206 JUMP JUMPDEST PUSH1 0x0 DUP3 DUP2 MSTORE PUSH1 0x20 DUP2 DUP2 MSTORE PUSH1 0x40 DUP1 DUP4 KECCAK256 PUSH1 0x1 PUSH1 0x1 PUSH1 0xA0 SHL SUB DUP6 AND DUP5 MSTORE SWAP1 SWAP2 MSTORE DUP2 KECCAK256 SLOAD PUSH1 0xFF AND PUSH3 0x1A7 JUMPI PUSH1 0x0 DUP4 DUP2 MSTORE PUSH1 0x20 DUP2 DUP2 MSTORE PUSH1 0x40 DUP1 DUP4 KECCAK256 PUSH1 0x1 PUSH1 0x1 PUSH1 0xA0 SHL SUB DUP7 AND DUP5 MSTORE SWAP1 SWAP2 MSTORE SWAP1 KECCAK256 DUP1 SLOAD PUSH1 0xFF NOT AND PUSH1 0x1 OR SWAP1 SSTORE PUSH3 0x15E CALLER SWAP1 JUMP JUMPDEST PUSH1 0x1 PUSH1 0x1 PUSH1 0xA0 SHL SUB AND DUP3 PUSH1 0x1 PUSH1 0x1 PUSH1 0xA0 SHL SUB AND DUP5 PUSH32 0x2F8788117E7EFF1D82E926EC794901D17C78024A50270940304540A733656F0D PUSH1 0x40 MLOAD PUSH1 0x40 MLOAD DUP1 SWAP2 SUB SWAP1 LOG4 POP PUSH1 0x1 PUSH3 0x1AB JUMP JUMPDEST POP PUSH1 0x0 JUMPDEST SWAP3 SWAP2 POP POP JUMP JUMPDEST DUP1 MLOAD PUSH1 0x1 PUSH1 0x1 PUSH1 0xA0 SHL SUB DUP2 AND DUP2 EQ PUSH3 0x1C9 JUMPI PUSH1 0x0 DUP1 REVERT JUMPDEST SWAP2 SWAP1 POP JUMP JUMPDEST PUSH1 0x0 DUP1 PUSH1 0x40 DUP4 DUP6 SUB SLT ISZERO PUSH3 0x1E2 JUMPI PUSH1 0x0 DUP1 REVERT JUMPDEST PUSH3 0x1ED DUP4 PUSH3 0x1B1 JUMP JUMPDEST SWAP2 POP PUSH3 0x1FD PUSH1 0x20 DUP5 ADD PUSH3 0x1B1 JUMP JUMPDEST SWAP1 POP SWAP3 POP SWAP3 SWAP1 POP JUMP JUMPDEST PUSH1 0x80 MLOAD PUSH1 0xA0 MLOAD PUSH2 0xEAA PUSH3 0x233 PUSH1 0x0 CODECOPY PUSH1 0x0 PUSH2 0x819 ADD MSTORE PUSH1 0x0 DUP2 DUP2 PUSH2 0x2AD ADD MSTORE PUSH2 0x5F0 ADD MSTORE PUSH2 0xEAA PUSH1 0x0 RETURN INVALID PUSH1 0x80 PUSH1 0x40 MSTORE CALLVALUE DUP1 ISZERO PUSH2 0x10 JUMPI PUSH1 0x0 DUP1 REVERT JUMPDEST POP PUSH1 0x4 CALLDATASIZE LT PUSH2 0xEA JUMPI PUSH1 0x0 CALLDATALOAD PUSH1 0xE0 SHR DUP1 PUSH4 0x677339CE GT PUSH2 0x8C JUMPI DUP1 PUSH4 0xA217FDDF GT PUSH2 0x66 JUMPI DUP1 PUSH4 0xA217FDDF EQ PUSH2 0x1D8 JUMPI DUP1 PUSH4 0xBD462049 EQ PUSH2 0x1E0 JUMPI DUP1 PUSH4 0xD547741F EQ PUSH2 0x1F5 JUMPI DUP1 PUSH4 0xE27FADAB EQ PUSH2 0x208 JUMPI PUSH1 0x0 DUP1 REVERT JUMPDEST DUP1 PUSH4 0x677339CE EQ PUSH2 0x1A9 JUMPI DUP1 PUSH4 0x6B823894 EQ PUSH2 0x1BC JUMPI DUP1 PUSH4 0x91D14854 EQ PUSH2 0x1C5 JUMPI PUSH1 0x0 DUP1 REVERT JUMPDEST DUP1 PUSH4 0x248A9CA3 GT PUSH2 0xC8 JUMPI DUP1 PUSH4 0x248A9CA3 EQ PUSH2 0x13F JUMPI DUP1 PUSH4 0x2F2FF15D EQ PUSH2 0x170 JUMPI DUP1 PUSH4 0x36568ABE EQ PUSH2 0x183 JUMPI DUP1 PUSH4 0x624B04BD EQ PUSH2 0x196 JUMPI PUSH1 0x0 DUP1 REVERT JUMPDEST DUP1 PUSH4 0x1FFC9A7 EQ PUSH2 0xEF JUMPI DUP1 PUSH4 0x8F46957 EQ PUSH2 0x117 JUMPI DUP1 PUSH4 0x1ECF2FBF EQ PUSH2 0x12A JUMPI JUMPDEST PUSH1 0x0 DUP1 REVERT JUMPDEST PUSH2 0x102 PUSH2 0xFD CALLDATASIZE PUSH1 0x4 PUSH2 0xA27 JUMP JUMPDEST PUSH2 0x210 JUMP JUMPDEST PUSH1 0x40 MLOAD SWAP1 ISZERO ISZERO DUP2 MSTORE PUSH1 0x20 ADD JUMPDEST PUSH1 0x40 MLOAD DUP1 SWAP2 SUB SWAP1 RETURN JUMPDEST PUSH2 0x102 PUSH2 0x125 CALLDATASIZE PUSH1 0x4 PUSH2 0xA51 JUMP JUMPDEST PUSH2 0x247 JUMP JUMPDEST PUSH2 0x13D PUSH2 0x138 CALLDATASIZE PUSH1 0x4 PUSH2 0xA7F JUMP JUMPDEST PUSH2 0x35E JUMP JUMPDEST STOP JUMPDEST PUSH2 0x162 PUSH2 0x14D CALLDATASIZE PUSH1 0x4 PUSH2 0xA51 JUMP JUMPDEST PUSH1 0x0 SWAP1 DUP2 MSTORE PUSH1 0x20 DUP2 SWAP1 MSTORE PUSH1 0x40 SWAP1 KECCAK256 PUSH1 0x1 ADD SLOAD SWAP1 JUMP JUMPDEST PUSH1 0x40 MLOAD SWAP1 DUP2 MSTORE PUSH1 0x20 ADD PUSH2 0x10E JUMP JUMPDEST PUSH2 0x13D PUSH2 0x17E CALLDATASIZE PUSH1 0x4 PUSH2 0xA9C JUMP JUMPDEST PUSH2 0x40B JUMP JUMPDEST PUSH2 0x13D PUSH2 0x191 CALLDATASIZE PUSH1 0x4 PUSH2 0xA9C JUMP JUMPDEST PUSH2 0x436 JUMP JUMPDEST PUSH2 0x162 PUSH2 0x1A4 CALLDATASIZE PUSH1 0x4 PUSH2 0xACC JUMP JUMPDEST PUSH2 0x46E JUMP JUMPDEST PUSH2 0x13D PUSH2 0x1B7 CALLDATASIZE PUSH1 0x4 PUSH2 0xA7F JUMP JUMPDEST PUSH2 0x6AD JUMP JUMPDEST PUSH2 0x162 PUSH1 0x1 SLOAD DUP2 JUMP JUMPDEST PUSH2 0x102 PUSH2 0x1D3 CALLDATASIZE PUSH1 0x4 PUSH2 0xA9C JUMP JUMPDEST PUSH2 0x756 JUMP JUMPDEST PUSH2 0x162 PUSH1 0x0 DUP2 JUMP JUMPDEST PUSH2 0x162 PUSH1 0x0 DUP1 MLOAD PUSH1 0x20 PUSH2 0xE0F DUP4 CODECOPY DUP2 MLOAD SWAP2 MSTORE DUP2 JUMP JUMPDEST PUSH2 0x13D PUSH2 0x203 CALLDATASIZE PUSH1 0x4 PUSH2 0xA9C JUMP JUMPDEST PUSH2 0x77F JUMP JUMPDEST PUSH2 0x13D PUSH2 0x7A4 JUMP JUMPDEST PUSH1 0x0 PUSH1 0x1 PUSH1 0x1 PUSH1 0xE0 SHL SUB NOT DUP3 AND PUSH4 0x7965DB0B PUSH1 0xE0 SHL EQ DUP1 PUSH2 0x241 JUMPI POP PUSH4 0x1FFC9A7 PUSH1 0xE0 SHL PUSH1 0x1 PUSH1 0x1 PUSH1 0xE0 SHL SUB NOT DUP4 AND EQ JUMPDEST SWAP3 SWAP2 POP POP JUMP JUMPDEST PUSH1 0x0 DUP2 PUSH2 0x294 JUMPI PUSH1 0x40 MLOAD PUSH3 0x461BCD PUSH1 0xE5 SHL DUP2 MSTORE PUSH1 0x20 PUSH1 0x4 DUP3 ADD MSTORE PUSH1 0x16 PUSH1 0x24 DUP3 ADD MSTORE PUSH22 0x125B9D985B1A5908185D1D195CDD185D1A5BDB881251 PUSH1 0x52 SHL PUSH1 0x44 DUP3 ADD MSTORE PUSH1 0x64 ADD JUMPDEST PUSH1 0x40 MLOAD DUP1 SWAP2 SUB SWAP1 REVERT JUMPDEST PUSH1 0x40 MLOAD PUSH4 0x28C44A99 PUSH1 0xE2 SHL DUP2 MSTORE PUSH1 0x4 DUP2 ADD DUP4 SWAP1 MSTORE PUSH1 0x0 SWAP1 PUSH32 0x0 PUSH1 0x1 PUSH1 0x1 PUSH1 0xA0 SHL SUB AND SWAP1 PUSH4 0xA3112A64 SWAP1 PUSH1 0x24 ADD PUSH1 0x0 PUSH1 0x40 MLOAD DUP1 DUP4 SUB DUP2 DUP7 GAS STATICCALL ISZERO DUP1 ISZERO PUSH2 0x2FC JUMPI RETURNDATASIZE PUSH1 0x0 DUP1 RETURNDATACOPY RETURNDATASIZE PUSH1 0x0 REVERT JUMPDEST POP POP POP POP PUSH1 0x40 MLOAD RETURNDATASIZE PUSH1 0x0 DUP3 RETURNDATACOPY PUSH1 0x1F RETURNDATASIZE SWAP1 DUP2 ADD PUSH1 0x1F NOT AND DUP3 ADD PUSH1 0x40 MSTORE PUSH2 0x324 SWAP2 SWAP1 DUP2 ADD SWAP1 PUSH2 0xC1C JUMP JUMPDEST DUP1 MLOAD SWAP1 SWAP2 POP DUP4 EQ DUP1 ISZERO PUSH2 0x357 JUMPI POP PUSH1 0xE0 DUP2 ADD MLOAD PUSH1 0x1 PUSH1 0x1 PUSH1 0xA0 SHL SUB AND PUSH20 0xF0BC5CC2B4866DAAECB069430C60B24520077037 EQ JUMPDEST SWAP4 SWAP3 POP POP POP JUMP JUMPDEST PUSH1 0x0 PUSH2 0x369 DUP2 PUSH2 0x8E4 JUMP JUMPDEST PUSH1 0x1 PUSH1 0x1 PUSH1 0xA0 SHL SUB DUP3 AND PUSH20 0xF0BC5CC2B4866DAAECB069430C60B24520077037 EQ PUSH2 0x3EF JUMPI PUSH1 0x40 MLOAD PUSH3 0x461BCD PUSH1 0xE5 SHL DUP2 MSTORE PUSH1 0x20 PUSH1 0x4 DUP3 ADD MSTORE PUSH1 0x31 PUSH1 0x24 DUP3 ADD MSTORE PUSH32 0x4F6E6C7920444151485249535F4554485F414444524553532063616E20626520 PUSH1 0x44 DUP3 ADD MSTORE PUSH17 0x6772616E746564207468697320726F6C65 PUSH1 0x78 SHL PUSH1 0x64 DUP3 ADD MSTORE PUSH1 0x84 ADD PUSH2 0x28B JUMP JUMPDEST PUSH2 0x407 PUSH1 0x0 DUP1 MLOAD PUSH1 0x20 PUSH2 0xE0F DUP4 CODECOPY DUP2 MLOAD SWAP2 MSTORE DUP4 PUSH2 0x40B JUMP JUMPDEST POP POP JUMP JUMPDEST PUSH1 0x0 DUP3 DUP2 MSTORE PUSH1 0x20 DUP2 SWAP1 MSTORE PUSH1 0x40 SWAP1 KECCAK256 PUSH1 0x1 ADD SLOAD PUSH2 0x426 DUP2 PUSH2 0x8E4 JUMP JUMPDEST PUSH2 0x430 DUP4 DUP4 PUSH2 0x8F1 JUMP JUMPDEST POP POP POP POP JUMP JUMPDEST PUSH1 0x1 PUSH1 0x1 PUSH1 0xA0 SHL SUB DUP2 AND CALLER EQ PUSH2 0x45F JUMPI PUSH1 0x40 MLOAD PUSH4 0x334BD919 PUSH1 0xE1 SHL DUP2 MSTORE PUSH1 0x4 ADD PUSH1 0x40 MLOAD DUP1 SWAP2 SUB SWAP1 REVERT JUMPDEST PUSH2 0x469 DUP3 DUP3 PUSH2 0x983 JUMP JUMPDEST POP POP POP JUMP JUMPDEST PUSH1 0x0 PUSH1 0x0 DUP1 MLOAD PUSH1 0x20 PUSH2 0xE0F DUP4 CODECOPY DUP2 MLOAD SWAP2 MSTORE PUSH2 0x488 DUP2 PUSH2 0x8E4 JUMP JUMPDEST PUSH1 0x1 SLOAD PUSH2 0x4CC JUMPI PUSH1 0x40 MLOAD PUSH3 0x461BCD PUSH1 0xE5 SHL DUP2 MSTORE PUSH1 0x20 PUSH1 0x4 DUP3 ADD MSTORE PUSH1 0x12 PUSH1 0x24 DUP3 ADD MSTORE PUSH18 0x14D8DA195B58481B9BDD0818DC99585D1959 PUSH1 0x72 SHL PUSH1 0x44 DUP3 ADD MSTORE PUSH1 0x64 ADD PUSH2 0x28B JUMP JUMPDEST PUSH1 0x1 PUSH1 0x1 PUSH1 0xA0 SHL SUB DUP5 AND PUSH2 0x516 JUMPI PUSH1 0x40 MLOAD PUSH3 0x461BCD PUSH1 0xE5 SHL DUP2 MSTORE PUSH1 0x20 PUSH1 0x4 DUP3 ADD MSTORE PUSH1 0x11 PUSH1 0x24 DUP3 ADD MSTORE PUSH17 0x125B9D985B1A59081C9958DA5C1A595B9D PUSH1 0x7A SHL PUSH1 0x44 DUP3 ADD MSTORE PUSH1 0x64 ADD PUSH2 0x28B JUMP JUMPDEST DUP3 PUSH1 0x0 SUB PUSH2 0x559 JUMPI PUSH1 0x40 MLOAD PUSH3 0x461BCD PUSH1 0xE5 SHL DUP2 MSTORE PUSH1 0x20 PUSH1 0x4 DUP3 ADD MSTORE PUSH1 0x10 PUSH1 0x24 DUP3 ADD MSTORE PUSH16 0x125B9D985B1A59081D1BDAD95B881251 PUSH1 0x82 SHL PUSH1 0x44 DUP3 ADD MSTORE PUSH1 0x64 ADD PUSH2 0x28B JUMP JUMPDEST PUSH1 0x40 DUP1 MLOAD PUSH1 0x1 PUSH1 0x1 PUSH1 0xA0 SHL SUB DUP7 AND PUSH1 0x20 DUP3 ADD MSTORE SWAP1 DUP2 ADD DUP5 SWAP1 MSTORE TIMESTAMP PUSH1 0x60 DUP3 ADD MSTORE CALLER PUSH1 0x80 DUP3 ADD MSTORE PUSH1 0x0 SWAP1 PUSH1 0xA0 ADD PUSH1 0x40 DUP1 MLOAD PUSH1 0x1F NOT DUP2 DUP5 SUB ADD DUP2 MSTORE DUP3 DUP3 ADD DUP3 MSTORE PUSH1 0x1 DUP1 SLOAD DUP5 MSTORE DUP3 MLOAD PUSH1 0xC0 DUP2 ADD DUP5 MSTORE PUSH1 0x1 PUSH1 0x1 PUSH1 0xA0 SHL SUB DUP1 DUP12 AND DUP3 MSTORE PUSH1 0x0 PUSH1 0x20 DUP4 DUP2 ADD DUP3 SWAP1 MSTORE DUP4 DUP8 ADD SWAP5 SWAP1 SWAP5 MSTORE PUSH1 0x60 DUP4 ADD DUP2 SWAP1 MSTORE PUSH1 0x80 DUP4 ADD DUP6 SWAP1 MSTORE PUSH1 0xA0 DUP4 ADD DUP2 SWAP1 MSTORE SWAP3 DUP7 ADD SWAP2 SWAP1 SWAP2 MSTORE SWAP3 MLOAD PUSH4 0xF17325E7 PUSH1 0xE0 SHL DUP2 MSTORE SWAP2 SWAP5 POP SWAP2 PUSH32 0x0 AND SWAP1 PUSH4 0xF17325E7 SWAP1 PUSH2 0x625 SWAP1 DUP6 SWAP1 PUSH1 0x4 ADD PUSH2 0xD3F JUMP JUMPDEST PUSH1 0x20 PUSH1 0x40 MLOAD DUP1 DUP4 SUB DUP2 PUSH1 0x0 DUP8 GAS CALL ISZERO DUP1 ISZERO PUSH2 0x644 JUMPI RETURNDATASIZE PUSH1 0x0 DUP1 RETURNDATACOPY RETURNDATASIZE PUSH1 0x0 REVERT JUMPDEST POP POP POP POP PUSH1 0x40 MLOAD RETURNDATASIZE PUSH1 0x1F NOT PUSH1 0x1F DUP3 ADD AND DUP3 ADD DUP1 PUSH1 0x40 MSTORE POP DUP2 ADD SWAP1 PUSH2 0x668 SWAP2 SWAP1 PUSH2 0xDC2 JUMP JUMPDEST PUSH1 0x40 MLOAD SWAP1 SWAP2 POP CALLER SWAP1 PUSH1 0x1 PUSH1 0x1 PUSH1 0xA0 SHL SUB DUP10 AND SWAP1 DUP4 SWAP1 PUSH32 0x63F86F3E95D67D75FED996A7DB68F9E7EABF0600ABBD54FCCABF34EC3B5FA4A7 SWAP1 PUSH1 0x0 SWAP1 LOG4 SWAP7 SWAP6 POP POP POP POP POP POP JUMP JUMPDEST PUSH1 0x0 PUSH2 0x6B8 DUP2 PUSH2 0x8E4 JUMP JUMPDEST PUSH20 0xF0BC5CC2B4866DAAECB069430C60B24520077036 NOT PUSH1 0x1 PUSH1 0x1 PUSH1 0xA0 SHL SUB DUP4 AND ADD PUSH2 0x73E JUMPI PUSH1 0x40 MLOAD PUSH3 0x461BCD PUSH1 0xE5 SHL DUP2 MSTORE PUSH1 0x20 PUSH1 0x4 DUP3 ADD MSTORE PUSH1 0x30 PUSH1 0x24 DUP3 ADD MSTORE PUSH32 0x43616E6E6F74207265766F6B6520726F6C652066726F6D206D61696E20617474 PUSH1 0x44 DUP3 ADD MSTORE PUSH16 0x32B9BA30BA34B7B71031B932B0BA37B9 PUSH1 0x81 SHL PUSH1 0x64 DUP3 ADD MSTORE PUSH1 0x84 ADD PUSH2 0x28B JUMP JUMPDEST PUSH2 0x407 PUSH1 0x0 DUP1 MLOAD PUSH1 0x20 PUSH2 0xE0F DUP4 CODECOPY DUP2 MLOAD SWAP2 MSTORE DUP4 PUSH2 0x77F JUMP JUMPDEST PUSH1 0x0 SWAP2 DUP3 MSTORE PUSH1 0x20 DUP3 DUP2 MSTORE PUSH1 0x40 DUP1 DUP5 KECCAK256 PUSH1 0x1 PUSH1 0x1 PUSH1 0xA0 SHL SUB SWAP4 SWAP1 SWAP4 AND DUP5 MSTORE SWAP2 SWAP1 MSTORE SWAP1 KECCAK256 SLOAD PUSH1 0xFF AND SWAP1 JUMP JUMPDEST PUSH1 0x0 DUP3 DUP2 MSTORE PUSH1 0x20 DUP2 SWAP1 MSTORE PUSH1 0x40 SWAP1 KECCAK256 PUSH1 0x1 ADD SLOAD PUSH2 0x79A DUP2 PUSH2 0x8E4 JUMP JUMPDEST PUSH2 0x430 DUP4 DUP4 PUSH2 0x983 JUMP JUMPDEST PUSH1 0x0 PUSH2 0x7AF DUP2 PUSH2 0x8E4 JUMP JUMPDEST PUSH1 0x1 SLOAD ISZERO PUSH2 0x7F8 JUMPI PUSH1 0x40 MLOAD PUSH3 0x461BCD PUSH1 0xE5 SHL DUP2 MSTORE PUSH1 0x20 PUSH1 0x4 DUP3 ADD MSTORE PUSH1 0x16 PUSH1 0x24 DUP3 ADD MSTORE PUSH22 0x14D8DA195B5848185B1C9958591E4818DC99585D1959 PUSH1 0x52 SHL PUSH1 0x44 DUP3 ADD MSTORE PUSH1 0x64 ADD PUSH2 0x28B JUMP JUMPDEST PUSH1 0x0 PUSH1 0x40 MLOAD DUP1 PUSH1 0x80 ADD PUSH1 0x40 MSTORE DUP1 PUSH1 0x46 DUP2 MSTORE PUSH1 0x20 ADD PUSH2 0xE2F PUSH1 0x46 SWAP2 CODECOPY SWAP1 POP PUSH1 0x0 PUSH32 0x0 PUSH1 0x1 PUSH1 0x1 PUSH1 0xA0 SHL SUB AND PUSH4 0x60D7A278 DUP4 PUSH1 0x0 PUSH1 0x1 PUSH1 0x40 MLOAD DUP5 PUSH4 0xFFFFFFFF AND PUSH1 0xE0 SHL DUP2 MSTORE PUSH1 0x4 ADD PUSH2 0x869 SWAP4 SWAP3 SWAP2 SWAP1 PUSH2 0xDDB JUMP JUMPDEST PUSH1 0x20 PUSH1 0x40 MLOAD DUP1 DUP4 SUB DUP2 PUSH1 0x0 DUP8 GAS CALL ISZERO DUP1 ISZERO PUSH2 0x888 JUMPI RETURNDATASIZE PUSH1 0x0 DUP1 RETURNDATACOPY RETURNDATASIZE PUSH1 0x0 REVERT JUMPDEST POP POP POP POP PUSH1 0x40 MLOAD RETURNDATASIZE PUSH1 0x1F NOT PUSH1 0x1F DUP3 ADD AND DUP3 ADD DUP1 PUSH1 0x40 MSTORE POP DUP2 ADD SWAP1 PUSH2 0x8AC SWAP2 SWAP1 PUSH2 0xDC2 JUMP JUMPDEST PUSH1 0x1 DUP2 SWAP1 SSTORE PUSH1 0x40 MLOAD SWAP1 SWAP2 POP DUP2 SWAP1 PUSH32 0xED68F5AFEA10BE5233231E5D15186BF1C9C0B9F6D3A767404D90688BCCF293AF SWAP1 PUSH1 0x0 SWAP1 LOG2 POP POP POP JUMP JUMPDEST PUSH2 0x8EE DUP2 CALLER PUSH2 0x9EE JUMP JUMPDEST POP JUMP JUMPDEST PUSH1 0x0 PUSH2 0x8FD DUP4 DUP4 PUSH2 0x756 JUMP JUMPDEST PUSH2 0x97B JUMPI PUSH1 0x0 DUP4 DUP2 MSTORE PUSH1 0x20 DUP2 DUP2 MSTORE PUSH1 0x40 DUP1 DUP4 KECCAK256 PUSH1 0x1 PUSH1 0x1 PUSH1 0xA0 SHL SUB DUP7 AND DUP5 MSTORE SWAP1 SWAP2 MSTORE SWAP1 KECCAK256 DUP1 SLOAD PUSH1 0xFF NOT AND PUSH1 0x1 OR SWAP1 SSTORE PUSH2 0x933 CALLER SWAP1 JUMP JUMPDEST PUSH1 0x1 PUSH1 0x1 PUSH1 0xA0 SHL SUB AND DUP3 PUSH1 0x1 PUSH1 0x1 PUSH1 0xA0 SHL SUB AND DUP5 PUSH32 0x2F8788117E7EFF1D82E926EC794901D17C78024A50270940304540A733656F0D PUSH1 0x40 MLOAD PUSH1 0x40 MLOAD DUP1 SWAP2 SUB SWAP1 LOG4 POP PUSH1 0x1 PUSH2 0x241 JUMP JUMPDEST POP PUSH1 0x0 PUSH2 0x241 JUMP JUMPDEST PUSH1 0x0 PUSH2 0x98F DUP4 DUP4 PUSH2 0x756 JUMP JUMPDEST ISZERO PUSH2 0x97B JUMPI PUSH1 0x0 DUP4 DUP2 MSTORE PUSH1 0x20 DUP2 DUP2 MSTORE PUSH1 0x40 DUP1 DUP4 KECCAK256 PUSH1 0x1 PUSH1 0x1 PUSH1 0xA0 SHL SUB DUP7 AND DUP1 DUP6 MSTORE SWAP3 MSTORE DUP1 DUP4 KECCAK256 DUP1 SLOAD PUSH1 0xFF NOT AND SWAP1 SSTORE MLOAD CALLER SWAP3 DUP7 SWAP2 PUSH32 0xF6391F5C32D9C69D2A47EA670B442974B53935D1EDC7FD64EB21E047A839171B SWAP2 SWAP1 LOG4 POP PUSH1 0x1 PUSH2 0x241 JUMP JUMPDEST PUSH2 0x9F8 DUP3 DUP3 PUSH2 0x756 JUMP JUMPDEST PUSH2 0x407 JUMPI PUSH1 0x40 MLOAD PUSH4 0xE2517D3F PUSH1 0xE0 SHL DUP2 MSTORE PUSH1 0x1 PUSH1 0x1 PUSH1 0xA0 SHL SUB DUP3 AND PUSH1 0x4 DUP3 ADD MSTORE PUSH1 0x24 DUP2 ADD DUP4 SWAP1 MSTORE PUSH1 0x44 ADD PUSH2 0x28B JUMP JUMPDEST PUSH1 0x0 PUSH1 0x20 DUP3 DUP5 SUB SLT ISZERO PUSH2 0xA39 JUMPI PUSH1 0x0 DUP1 REVERT JUMPDEST DUP2 CALLDATALOAD PUSH1 0x1 PUSH1 0x1 PUSH1 0xE0 SHL SUB NOT DUP2 AND DUP2 EQ PUSH2 0x357 JUMPI PUSH1 0x0 DUP1 REVERT JUMPDEST PUSH1 0x0 PUSH1 0x20 DUP3 DUP5 SUB SLT ISZERO PUSH2 0xA63 JUMPI PUSH1 0x0 DUP1 REVERT JUMPDEST POP CALLDATALOAD SWAP2 SWAP1 POP JUMP JUMPDEST PUSH1 0x1 PUSH1 0x1 PUSH1 0xA0 SHL SUB DUP2 AND DUP2 EQ PUSH2 0x8EE JUMPI PUSH1 0x0 DUP1 REVERT JUMPDEST PUSH1 0x0 PUSH1 0x20 DUP3 DUP5 SUB SLT ISZERO PUSH2 0xA91 JUMPI PUSH1 0x0 DUP1 REVERT JUMPDEST DUP2 CALLDATALOAD PUSH2 0x357 DUP2 PUSH2 0xA6A JUMP JUMPDEST PUSH1 0x0 DUP1 PUSH1 0x40 DUP4 DUP6 SUB SLT ISZERO PUSH2 0xAAF JUMPI PUSH1 0x0 DUP1 REVERT JUMPDEST DUP3 CALLDATALOAD SWAP2 POP PUSH1 0x20 DUP4 ADD CALLDATALOAD PUSH2 0xAC1 DUP2 PUSH2 0xA6A JUMP JUMPDEST DUP1 SWAP2 POP POP SWAP3 POP SWAP3 SWAP1 POP JUMP JUMPDEST PUSH1 0x0 DUP1 PUSH1 0x40 DUP4 DUP6 SUB SLT ISZERO PUSH2 0xADF JUMPI PUSH1 0x0 DUP1 REVERT JUMPDEST DUP3 CALLDATALOAD PUSH2 0xAEA DUP2 PUSH2 0xA6A JUMP JUMPDEST SWAP5 PUSH1 0x20 SWAP4 SWAP1 SWAP4 ADD CALLDATALOAD SWAP4 POP POP POP JUMP JUMPDEST PUSH4 0x4E487B71 PUSH1 0xE0 SHL PUSH1 0x0 MSTORE PUSH1 0x41 PUSH1 0x4 MSTORE PUSH1 0x24 PUSH1 0x0 REVERT JUMPDEST PUSH1 0x40 MLOAD PUSH2 0x140 DUP2 ADD PUSH8 0xFFFFFFFFFFFFFFFF DUP2 GT DUP3 DUP3 LT OR ISZERO PUSH2 0xB32 JUMPI PUSH2 0xB32 PUSH2 0xAF8 JUMP JUMPDEST PUSH1 0x40 MSTORE SWAP1 JUMP JUMPDEST DUP1 MLOAD PUSH8 0xFFFFFFFFFFFFFFFF DUP2 AND DUP2 EQ PUSH2 0xB50 JUMPI PUSH1 0x0 DUP1 REVERT JUMPDEST SWAP2 SWAP1 POP JUMP JUMPDEST DUP1 MLOAD PUSH2 0xB50 DUP2 PUSH2 0xA6A JUMP JUMPDEST DUP1 MLOAD DUP1 ISZERO ISZERO DUP2 EQ PUSH2 0xB50 JUMPI PUSH1 0x0 DUP1 REVERT JUMPDEST PUSH1 0x0 JUMPDEST DUP4 DUP2 LT ISZERO PUSH2 0xB8B JUMPI DUP2 DUP2 ADD MLOAD DUP4 DUP3 ADD MSTORE PUSH1 0x20 ADD PUSH2 0xB73 JUMP JUMPDEST POP POP PUSH1 0x0 SWAP2 ADD MSTORE JUMP JUMPDEST PUSH1 0x0 DUP3 PUSH1 0x1F DUP4 ADD SLT PUSH2 0xBA5 JUMPI PUSH1 0x0 DUP1 REVERT JUMPDEST DUP2 MLOAD PUSH8 0xFFFFFFFFFFFFFFFF DUP1 DUP3 GT ISZERO PUSH2 0xBC0 JUMPI PUSH2 0xBC0 PUSH2 0xAF8 JUMP JUMPDEST PUSH1 0x40 MLOAD PUSH1 0x1F DUP4 ADD PUSH1 0x1F NOT SWAP1 DUP2 AND PUSH1 0x3F ADD AND DUP2 ADD SWAP1 DUP3 DUP3 GT DUP2 DUP4 LT OR ISZERO PUSH2 0xBE8 JUMPI PUSH2 0xBE8 PUSH2 0xAF8 JUMP JUMPDEST DUP2 PUSH1 0x40 MSTORE DUP4 DUP2 MSTORE DUP7 PUSH1 0x20 DUP6 DUP9 ADD ADD GT ISZERO PUSH2 0xC01 JUMPI PUSH1 0x0 DUP1 REVERT JUMPDEST PUSH2 0xC12 DUP5 PUSH1 0x20 DUP4 ADD PUSH1 0x20 DUP10 ADD PUSH2 0xB70 JUMP JUMPDEST SWAP7 SWAP6 POP POP POP POP POP POP JUMP JUMPDEST PUSH1 0x0 PUSH1 0x20 DUP3 DUP5 SUB SLT ISZERO PUSH2 0xC2E JUMPI PUSH1 0x0 DUP1 REVERT JUMPDEST DUP2 MLOAD PUSH8 0xFFFFFFFFFFFFFFFF DUP1 DUP3 GT ISZERO PUSH2 0xC46 JUMPI PUSH1 0x0 DUP1 REVERT JUMPDEST SWAP1 DUP4 ADD SWAP1 PUSH2 0x140 DUP3 DUP7 SUB SLT ISZERO PUSH2 0xC5B JUMPI PUSH1 0x0 DUP1 REVERT JUMPDEST PUSH2 0xC63 PUSH2 0xB0E JUMP JUMPDEST DUP3 MLOAD DUP2 MSTORE PUSH1 0x20 DUP4 ADD MLOAD PUSH1 0x20 DUP3 ADD MSTORE PUSH2 0xC7D PUSH1 0x40 DUP5 ADD PUSH2 0xB38 JUMP JUMPDEST PUSH1 0x40 DUP3 ADD MSTORE PUSH2 0xC8E PUSH1 0x60 DUP5 ADD PUSH2 0xB38 JUMP JUMPDEST PUSH1 0x60 DUP3 ADD MSTORE PUSH2 0xC9F PUSH1 0x80 DUP5 ADD PUSH2 0xB38 JUMP JUMPDEST PUSH1 0x80 DUP3 ADD MSTORE PUSH1 0xA0 DUP4 ADD MLOAD PUSH1 0xA0 DUP3 ADD MSTORE PUSH2 0xCBA PUSH1 0xC0 DUP5 ADD PUSH2 0xB55 JUMP JUMPDEST PUSH1 0xC0 DUP3 ADD MSTORE PUSH2 0xCCB PUSH1 0xE0 DUP5 ADD PUSH2 0xB55 JUMP JUMPDEST PUSH1 0xE0 DUP3 ADD MSTORE PUSH2 0x100 PUSH2 0xCDE DUP2 DUP6 ADD PUSH2 0xB60 JUMP JUMPDEST SWAP1 DUP3 ADD MSTORE PUSH2 0x120 DUP4 DUP2 ADD MLOAD DUP4 DUP2 GT ISZERO PUSH2 0xCF6 JUMPI PUSH1 0x0 DUP1 REVERT JUMPDEST PUSH2 0xD02 DUP9 DUP3 DUP8 ADD PUSH2 0xB94 JUMP JUMPDEST SWAP2 DUP4 ADD SWAP2 SWAP1 SWAP2 MSTORE POP SWAP6 SWAP5 POP POP POP POP POP JUMP JUMPDEST PUSH1 0x0 DUP2 MLOAD DUP1 DUP5 MSTORE PUSH2 0xD2B DUP2 PUSH1 0x20 DUP7 ADD PUSH1 0x20 DUP7 ADD PUSH2 0xB70 JUMP JUMPDEST PUSH1 0x1F ADD PUSH1 0x1F NOT AND SWAP3 SWAP1 SWAP3 ADD PUSH1 0x20 ADD SWAP3 SWAP2 POP POP JUMP JUMPDEST PUSH1 0x20 DUP2 MSTORE DUP2 MLOAD PUSH1 0x20 DUP3 ADD MSTORE PUSH1 0x0 PUSH1 0x20 DUP4 ADD MLOAD PUSH1 0x40 DUP1 DUP5 ADD MSTORE PUSH1 0x1 DUP1 PUSH1 0xA0 SHL SUB DUP2 MLOAD AND PUSH1 0x60 DUP5 ADD MSTORE PUSH8 0xFFFFFFFFFFFFFFFF PUSH1 0x20 DUP3 ADD MLOAD AND PUSH1 0x80 DUP5 ADD MSTORE PUSH1 0x40 DUP2 ADD MLOAD ISZERO ISZERO PUSH1 0xA0 DUP5 ADD MSTORE PUSH1 0x60 DUP2 ADD MLOAD PUSH1 0xC0 DUP5 ADD MSTORE PUSH1 0x80 DUP2 ADD MLOAD PUSH1 0xC0 PUSH1 0xE0 DUP6 ADD MSTORE PUSH2 0xDAA PUSH2 0x120 DUP6 ADD DUP3 PUSH2 0xD13 JUMP JUMPDEST SWAP1 POP PUSH1 0xA0 DUP3 ADD MLOAD PUSH2 0x100 DUP6 ADD MSTORE DUP1 SWAP3 POP POP POP SWAP3 SWAP2 POP POP JUMP JUMPDEST PUSH1 0x0 PUSH1 0x20 DUP3 DUP5 SUB SLT ISZERO PUSH2 0xDD4 JUMPI PUSH1 0x0 DUP1 REVERT JUMPDEST POP MLOAD SWAP2 SWAP1 POP JUMP JUMPDEST PUSH1 0x60 DUP2 MSTORE PUSH1 0x0 PUSH2 0xDEE PUSH1 0x60 DUP4 ADD DUP7 PUSH2 0xD13 JUMP JUMPDEST PUSH1 0x1 PUSH1 0x1 PUSH1 0xA0 SHL SUB SWAP5 SWAP1 SWAP5 AND PUSH1 0x20 DUP4 ADD MSTORE POP SWAP1 ISZERO ISZERO PUSH1 0x40 SWAP1 SWAP2 ADD MSTORE SWAP2 SWAP1 POP JUMP INVALID INVALID MSIZE 0xEE 0xCE PREVRANDAO 0xEF 0xC7 RETURNDATASIZE SWAP12 0xEC DUP6 PUSH31 0x15B77961120D43BE620D135F2F6356BC328D55F16164647265737320757365 PUSH19 0x416464726573732C75696E7432353620746F6B PUSH6 0x6E49642C7569 PUSH15 0x743235362074696D657374616D702C PUSH2 0x6464 PUSH19 0x657373206174746573746572A2646970667358 0x22 SLT KECCAK256 SWAP12 SLT JUMP 0xA9 PUSH7 0xEB8D5F1E80EDD0 GASPRICE 0xE 0xAB MOD PUSH8 0xD1CCCC0D110831A9 PUSH5 0xD1950EBA9F 0xE7 PUSH5 0x736F6C6343 STOP ADDMOD EQ STOP CALLER "},"gasEstimates":{"creation":{"codeDepositCost":"750800","executionCost":"infinite","totalCost":"infinite"},"external":{"ATTESTATION_CREATOR_ROLE()":"infinite","DEFAULT_ADMIN_ROLE()":"217","createMissionEnrollmentAttestation(address,uint256)":"infinite","createMissionEnrollmentSchema()":"infinite","getRoleAdmin(bytes32)":"2470","grantAttestationCreatorRole(address)":"infinite","grantRole(bytes32,address)":"infinite","hasRole(bytes32,address)":"2717","missionEnrollmentSchema()":"2340","renounceRole(bytes32,address)":"29089","revokeAttestationCreatorRole(address)":"infinite","revokeRole(bytes32,address)":"infinite","supportsInterface(bytes4)":"450","verifyAttestation(bytes32)":"infinite"}},"methodIdentifiers":{"ATTESTATION_CREATOR_ROLE()":"bd462049","DEFAULT_ADMIN_ROLE()":"a217fddf","createMissionEnrollmentAttestation(address,uint256)":"624b04bd","createMissionEnrollmentSchema()":"e27fadab","getRoleAdmin(bytes32)":"248a9ca3","grantAttestationCreatorRole(address)":"1ecf2fbf","grantRole(bytes32,address)":"2f2ff15d","hasRole(bytes32,address)":"91d14854","missionEnrollmentSchema()":"6b823894","renounceRole(bytes32,address)":"36568abe","revokeAttestationCreatorRole(address)":"677339ce","revokeRole(bytes32,address)":"d547741f","supportsInterface(bytes4)":"01ffc9a7","verifyAttestation(bytes32)":"08f46957"}},"storageLayout":{"storage":[{"astId":1081,"contract":"contracts/AttestationService.sol:AttestationService","label":"_roles","offset":0,"slot":"0","type":"t_mapping(t_bytes32,t_struct(RoleData)1076_storage)"},{"astId":2932,"contract":"contracts/AttestationService.sol:AttestationService","label":"missionEnrollmentSchema","offset":0,"slot":"1","type":"t_bytes32"}],"types":{"t_address":{"encoding":"inplace","label":"address","numberOfBytes":"20"},"t_bool":{"encoding":"inplace","label":"bool","numberOfBytes":"1"},"t_bytes32":{"encoding":"inplace","label":"bytes32","numberOfBytes":"32"},"t_mapping(t_address,t_bool)":{"encoding":"mapping","key":"t_address","label":"mapping(address => bool)","numberOfBytes":"32","value":"t_bool"},"t_mapping(t_bytes32,t_struct(RoleData)1076_storage)":{"encoding":"mapping","key":"t_bytes32","label":"mapping(bytes32 => struct AccessControl.RoleData)","numberOfBytes":"32","value":"t_struct(RoleData)1076_storage"},"t_struct(RoleData)1076_storage":{"encoding":"inplace","label":"struct AccessControl.RoleData","members":[{"astId":1073,"contract":"contracts/AttestationService.sol:AttestationService","label":"hasRole","offset":0,"slot":"0","type":"t_mapping(t_address,t_bool)"},{"astId":1075,"contract":"contracts/AttestationService.sol:AttestationService","label":"adminRole","offset":0,"slot":"1","type":"t_bytes32"}],"numberOfBytes":"64"}}},"userdoc":{"kind":"user","methods":{},"version":1}}}}