{
	"package/contracts/resolvers/profiles/ExtendedResolver.sol": {
		"ExtendedResolver": {
			"abi": [
				{
					"inputs": [
						{
							"internalType": "bytes",
							"name": "",
							"type": "bytes"
						},
						{
							"internalType": "bytes",
							"name": "data",
							"type": "bytes"
						}
					],
					"name": "resolve",
					"outputs": [
						{
							"internalType": "bytes",
							"name": "",
							"type": "bytes"
						}
					],
					"stateMutability": "view",
					"type": "function"
				}
			],
			"devdoc": {
				"kind": "dev",
				"methods": {},
				"version": 1
			},
			"evm": {
				"assembly": "    /* \"package/contracts/resolvers/profiles/ExtendedResolver.sol\":57:452  contract ExtendedResolver {... */\n  mstore(0x40, 0x80)\n  callvalue\n  dup1\n  iszero\n  tag_1\n  jumpi\n  0x00\n  dup1\n  revert\ntag_1:\n  pop\n  dataSize(sub_0)\n  dup1\n  dataOffset(sub_0)\n  0x00\n  codecopy\n  0x00\n  return\nstop\n\nsub_0: assembly {\n        /* \"package/contracts/resolvers/profiles/ExtendedResolver.sol\":57:452  contract ExtendedResolver {... */\n      mstore(0x40, 0x80)\n      callvalue\n      dup1\n      iszero\n      tag_1\n      jumpi\n      0x00\n      dup1\n      revert\n    tag_1:\n      pop\n      jumpi(tag_2, lt(calldatasize, 0x04))\n      shr(0xe0, calldataload(0x00))\n      dup1\n      0x9061b923\n      eq\n      tag_3\n      jumpi\n    tag_2:\n      0x00\n      dup1\n      revert\n        /* \"package/contracts/resolvers/profiles/ExtendedResolver.sol\":87:450  function resolve(bytes memory /* name */, bytes memory data) external view returns (bytes memory) {... */\n    tag_3:\n      tag_4\n      0x04\n      dup1\n      calldatasize\n      sub\n      dup2\n      add\n      swap1\n      tag_5\n      swap2\n      swap1\n      tag_6\n      jump\t// in\n    tag_5:\n      tag_7\n      jump\t// in\n    tag_4:\n      mload(0x40)\n      tag_8\n      swap2\n      swap1\n      tag_9\n      jump\t// in\n    tag_8:\n      mload(0x40)\n      dup1\n      swap2\n      sub\n      swap1\n      return\n    tag_7:\n        /* \"package/contracts/resolvers/profiles/ExtendedResolver.sol\":171:183  bytes memory */\n      0x60\n        /* \"package/contracts/resolvers/profiles/ExtendedResolver.sol\":192:204  bool success */\n      0x00\n        /* \"package/contracts/resolvers/profiles/ExtendedResolver.sol\":206:225  bytes memory result */\n      dup1\n        /* \"package/contracts/resolvers/profiles/ExtendedResolver.sol\":237:241  this */\n      address\n        /* \"package/contracts/resolvers/profiles/ExtendedResolver.sol\":229:253  address(this).staticcall */\n      0xffffffffffffffffffffffffffffffffffffffff\n      and\n        /* \"package/contracts/resolvers/profiles/ExtendedResolver.sol\":254:258  data */\n      dup5\n        /* \"package/contracts/resolvers/profiles/ExtendedResolver.sol\":229:259  address(this).staticcall(data) */\n      mload(0x40)\n      tag_11\n      swap2\n      swap1\n      tag_12\n      jump\t// in\n    tag_11:\n      0x00\n      mload(0x40)\n      dup1\n      dup4\n      sub\n      dup2\n      dup6\n      gas\n      staticcall\n      swap2\n      pop\n      pop\n      returndatasize\n      dup1\n      0x00\n      dup2\n      eq\n      tag_15\n      jumpi\n      mload(0x40)\n      swap2\n      pop\n      and(add(returndatasize, 0x3f), not(0x1f))\n      dup3\n      add\n      0x40\n      mstore\n      returndatasize\n      dup3\n      mstore\n      returndatasize\n      0x00\n      0x20\n      dup5\n      add\n      returndatacopy\n      jump(tag_14)\n    tag_15:\n      0x60\n      swap2\n      pop\n    tag_14:\n      pop\n        /* \"package/contracts/resolvers/profiles/ExtendedResolver.sol\":191:259  (bool success, bytes memory result) = address(this).staticcall(data) */\n      swap2\n      pop\n      swap2\n      pop\n        /* \"package/contracts/resolvers/profiles/ExtendedResolver.sol\":269:276  success */\n      dup2\n        /* \"package/contracts/resolvers/profiles/ExtendedResolver.sol\":265:446  if (success) {... */\n      iszero\n      tag_16\n      jumpi\n        /* \"package/contracts/resolvers/profiles/ExtendedResolver.sol\":293:299  result */\n      dup1\n        /* \"package/contracts/resolvers/profiles/ExtendedResolver.sol\":286:299  return result */\n      swap3\n      pop\n      pop\n      pop\n      jump(tag_10)\n        /* \"package/contracts/resolvers/profiles/ExtendedResolver.sol\":265:446  if (success) {... */\n    tag_16:\n        /* \"package/contracts/resolvers/profiles/ExtendedResolver.sol\":424:430  result */\n      dup1\n        /* \"package/contracts/resolvers/profiles/ExtendedResolver.sol\":418:431  mload(result) */\n      mload\n        /* \"package/contracts/resolvers/profiles/ExtendedResolver.sol\":411:415  0x20 */\n      0x20\n        /* \"package/contracts/resolvers/profiles/ExtendedResolver.sol\":403:409  result */\n      dup3\n        /* \"package/contracts/resolvers/profiles/ExtendedResolver.sol\":399:416  add(result, 0x20) */\n      add\n        /* \"package/contracts/resolvers/profiles/ExtendedResolver.sol\":392:432  revert(add(result, 0x20), mload(result)) */\n      revert\n        /* \"package/contracts/resolvers/profiles/ExtendedResolver.sol\":87:450  function resolve(bytes memory /* name */, bytes memory data) external view returns (bytes memory) {... */\n    tag_10:\n      swap3\n      swap2\n      pop\n      pop\n      jump\t// out\n        /* \"#utility.yul\":7:82   */\n    tag_18:\n        /* \"#utility.yul\":40:46   */\n      0x00\n        /* \"#utility.yul\":73:75   */\n      0x40\n        /* \"#utility.yul\":67:76   */\n      mload\n        /* \"#utility.yul\":57:76   */\n      swap1\n      pop\n        /* \"#utility.yul\":7:82   */\n      swap1\n      jump\t// out\n        /* \"#utility.yul\":88:205   */\n    tag_19:\n        /* \"#utility.yul\":197:198   */\n      0x00\n        /* \"#utility.yul\":194:195   */\n      dup1\n        /* \"#utility.yul\":187:199   */\n      revert\n        /* \"#utility.yul\":211:328   */\n    tag_20:\n        /* \"#utility.yul\":320:321   */\n      0x00\n        /* \"#utility.yul\":317:318   */\n      dup1\n        /* \"#utility.yul\":310:322   */\n      revert\n        /* \"#utility.yul\":334:451   */\n    tag_21:\n        /* \"#utility.yul\":443:444   */\n      0x00\n        /* \"#utility.yul\":440:441   */\n      dup1\n        /* \"#utility.yul\":433:445   */\n      revert\n        /* \"#utility.yul\":457:574   */\n    tag_22:\n        /* \"#utility.yul\":566:567   */\n      0x00\n        /* \"#utility.yul\":563:564   */\n      dup1\n        /* \"#utility.yul\":556:568   */\n      revert\n        /* \"#utility.yul\":580:682   */\n    tag_23:\n        /* \"#utility.yul\":621:627   */\n      0x00\n        /* \"#utility.yul\":672:674   */\n      0x1f\n        /* \"#utility.yul\":668:675   */\n      not\n        /* \"#utility.yul\":663:665   */\n      0x1f\n        /* \"#utility.yul\":656:661   */\n      dup4\n        /* \"#utility.yul\":652:666   */\n      add\n        /* \"#utility.yul\":648:676   */\n      and\n        /* \"#utility.yul\":638:676   */\n      swap1\n      pop\n        /* \"#utility.yul\":580:682   */\n      swap2\n      swap1\n      pop\n      jump\t// out\n        /* \"#utility.yul\":688:868   */\n    tag_24:\n        /* \"#utility.yul\":736:813   */\n      0x4e487b7100000000000000000000000000000000000000000000000000000000\n        /* \"#utility.yul\":733:734   */\n      0x00\n        /* \"#utility.yul\":726:814   */\n      mstore\n        /* \"#utility.yul\":833:837   */\n      0x41\n        /* \"#utility.yul\":830:831   */\n      0x04\n        /* \"#utility.yul\":823:838   */\n      mstore\n        /* \"#utility.yul\":857:861   */\n      0x24\n        /* \"#utility.yul\":854:855   */\n      0x00\n        /* \"#utility.yul\":847:862   */\n      revert\n        /* \"#utility.yul\":874:1155   */\n    tag_25:\n        /* \"#utility.yul\":957:984   */\n      tag_46\n        /* \"#utility.yul\":979:983   */\n      dup3\n        /* \"#utility.yul\":957:984   */\n      tag_23\n      jump\t// in\n    tag_46:\n        /* \"#utility.yul\":949:955   */\n      dup2\n        /* \"#utility.yul\":945:985   */\n      add\n        /* \"#utility.yul\":1087:1093   */\n      dup2\n        /* \"#utility.yul\":1075:1085   */\n      dup2\n        /* \"#utility.yul\":1072:1094   */\n      lt\n        /* \"#utility.yul\":1051:1069   */\n      0xffffffffffffffff\n        /* \"#utility.yul\":1039:1049   */\n      dup3\n        /* \"#utility.yul\":1036:1070   */\n      gt\n        /* \"#utility.yul\":1033:1095   */\n      or\n        /* \"#utility.yul\":1030:1118   */\n      iszero\n      tag_47\n      jumpi\n        /* \"#utility.yul\":1098:1116   */\n      tag_48\n      tag_24\n      jump\t// in\n    tag_48:\n        /* \"#utility.yul\":1030:1118   */\n    tag_47:\n        /* \"#utility.yul\":1138:1148   */\n      dup1\n        /* \"#utility.yul\":1134:1136   */\n      0x40\n        /* \"#utility.yul\":1127:1149   */\n      mstore\n        /* \"#utility.yul\":917:1155   */\n      pop\n        /* \"#utility.yul\":874:1155   */\n      pop\n      pop\n      jump\t// out\n        /* \"#utility.yul\":1161:1290   */\n    tag_26:\n        /* \"#utility.yul\":1195:1201   */\n      0x00\n        /* \"#utility.yul\":1222:1242   */\n      tag_50\n      tag_18\n      jump\t// in\n    tag_50:\n        /* \"#utility.yul\":1212:1242   */\n      swap1\n      pop\n        /* \"#utility.yul\":1251:1284   */\n      tag_51\n        /* \"#utility.yul\":1279:1283   */\n      dup3\n        /* \"#utility.yul\":1271:1277   */\n      dup3\n        /* \"#utility.yul\":1251:1284   */\n      tag_25\n      jump\t// in\n    tag_51:\n        /* \"#utility.yul\":1161:1290   */\n      swap2\n      swap1\n      pop\n      jump\t// out\n        /* \"#utility.yul\":1296:1603   */\n    tag_27:\n        /* \"#utility.yul\":1357:1361   */\n      0x00\n        /* \"#utility.yul\":1447:1465   */\n      0xffffffffffffffff\n        /* \"#utility.yul\":1439:1445   */\n      dup3\n        /* \"#utility.yul\":1436:1466   */\n      gt\n        /* \"#utility.yul\":1433:1489   */\n      iszero\n      tag_53\n      jumpi\n        /* \"#utility.yul\":1469:1487   */\n      tag_54\n      tag_24\n      jump\t// in\n    tag_54:\n        /* \"#utility.yul\":1433:1489   */\n    tag_53:\n        /* \"#utility.yul\":1507:1536   */\n      tag_55\n        /* \"#utility.yul\":1529:1535   */\n      dup3\n        /* \"#utility.yul\":1507:1536   */\n      tag_23\n      jump\t// in\n    tag_55:\n        /* \"#utility.yul\":1499:1536   */\n      swap1\n      pop\n        /* \"#utility.yul\":1591:1595   */\n      0x20\n        /* \"#utility.yul\":1585:1589   */\n      dup2\n        /* \"#utility.yul\":1581:1596   */\n      add\n        /* \"#utility.yul\":1573:1596   */\n      swap1\n      pop\n        /* \"#utility.yul\":1296:1603   */\n      swap2\n      swap1\n      pop\n      jump\t// out\n        /* \"#utility.yul\":1609:1757   */\n    tag_28:\n        /* \"#utility.yul\":1707:1713   */\n      dup3\n        /* \"#utility.yul\":1702:1705   */\n      dup2\n        /* \"#utility.yul\":1697:1700   */\n      dup4\n        /* \"#utility.yul\":1684:1714   */\n      calldatacopy\n        /* \"#utility.yul\":1748:1749   */\n      0x00\n        /* \"#utility.yul\":1739:1745   */\n      dup4\n        /* \"#utility.yul\":1734:1737   */\n      dup4\n        /* \"#utility.yul\":1730:1746   */\n      add\n        /* \"#utility.yul\":1723:1750   */\n      mstore\n        /* \"#utility.yul\":1609:1757   */\n      pop\n      pop\n      pop\n      jump\t// out\n        /* \"#utility.yul\":1763:2186   */\n    tag_29:\n        /* \"#utility.yul\":1840:1845   */\n      0x00\n        /* \"#utility.yul\":1865:1930   */\n      tag_58\n        /* \"#utility.yul\":1881:1929   */\n      tag_59\n        /* \"#utility.yul\":1922:1928   */\n      dup5\n        /* \"#utility.yul\":1881:1929   */\n      tag_27\n      jump\t// in\n    tag_59:\n        /* \"#utility.yul\":1865:1930   */\n      tag_26\n      jump\t// in\n    tag_58:\n        /* \"#utility.yul\":1856:1930   */\n      swap1\n      pop\n        /* \"#utility.yul\":1953:1959   */\n      dup3\n        /* \"#utility.yul\":1946:1951   */\n      dup2\n        /* \"#utility.yul\":1939:1960   */\n      mstore\n        /* \"#utility.yul\":1991:1995   */\n      0x20\n        /* \"#utility.yul\":1984:1989   */\n      dup2\n        /* \"#utility.yul\":1980:1996   */\n      add\n        /* \"#utility.yul\":2029:2032   */\n      dup5\n        /* \"#utility.yul\":2020:2026   */\n      dup5\n        /* \"#utility.yul\":2015:2018   */\n      dup5\n        /* \"#utility.yul\":2011:2027   */\n      add\n        /* \"#utility.yul\":2008:2033   */\n      gt\n        /* \"#utility.yul\":2005:2117   */\n      iszero\n      tag_60\n      jumpi\n        /* \"#utility.yul\":2036:2115   */\n      tag_61\n      tag_22\n      jump\t// in\n    tag_61:\n        /* \"#utility.yul\":2005:2117   */\n    tag_60:\n        /* \"#utility.yul\":2126:2180   */\n      tag_62\n        /* \"#utility.yul\":2173:2179   */\n      dup5\n        /* \"#utility.yul\":2168:2171   */\n      dup3\n        /* \"#utility.yul\":2163:2166   */\n      dup6\n        /* \"#utility.yul\":2126:2180   */\n      tag_28\n      jump\t// in\n    tag_62:\n        /* \"#utility.yul\":1846:2186   */\n      pop\n        /* \"#utility.yul\":1763:2186   */\n      swap4\n      swap3\n      pop\n      pop\n      pop\n      jump\t// out\n        /* \"#utility.yul\":2205:2543   */\n    tag_30:\n        /* \"#utility.yul\":2260:2265   */\n      0x00\n        /* \"#utility.yul\":2309:2312   */\n      dup3\n        /* \"#utility.yul\":2302:2306   */\n      0x1f\n        /* \"#utility.yul\":2294:2300   */\n      dup4\n        /* \"#utility.yul\":2290:2307   */\n      add\n        /* \"#utility.yul\":2286:2313   */\n      slt\n        /* \"#utility.yul\":2276:2398   */\n      tag_64\n      jumpi\n        /* \"#utility.yul\":2317:2396   */\n      tag_65\n      tag_21\n      jump\t// in\n    tag_65:\n        /* \"#utility.yul\":2276:2398   */\n    tag_64:\n        /* \"#utility.yul\":2434:2440   */\n      dup2\n        /* \"#utility.yul\":2421:2441   */\n      calldataload\n        /* \"#utility.yul\":2459:2537   */\n      tag_66\n        /* \"#utility.yul\":2533:2536   */\n      dup5\n        /* \"#utility.yul\":2525:2531   */\n      dup3\n        /* \"#utility.yul\":2518:2522   */\n      0x20\n        /* \"#utility.yul\":2510:2516   */\n      dup7\n        /* \"#utility.yul\":2506:2523   */\n      add\n        /* \"#utility.yul\":2459:2537   */\n      tag_29\n      jump\t// in\n    tag_66:\n        /* \"#utility.yul\":2450:2537   */\n      swap2\n      pop\n        /* \"#utility.yul\":2266:2543   */\n      pop\n        /* \"#utility.yul\":2205:2543   */\n      swap3\n      swap2\n      pop\n      pop\n      jump\t// out\n        /* \"#utility.yul\":2549:3379   */\n    tag_6:\n        /* \"#utility.yul\":2635:2641   */\n      0x00\n        /* \"#utility.yul\":2643:2649   */\n      dup1\n        /* \"#utility.yul\":2692:2694   */\n      0x40\n        /* \"#utility.yul\":2680:2689   */\n      dup4\n        /* \"#utility.yul\":2671:2678   */\n      dup6\n        /* \"#utility.yul\":2667:2690   */\n      sub\n        /* \"#utility.yul\":2663:2695   */\n      slt\n        /* \"#utility.yul\":2660:2779   */\n      iszero\n      tag_68\n      jumpi\n        /* \"#utility.yul\":2698:2777   */\n      tag_69\n      tag_19\n      jump\t// in\n    tag_69:\n        /* \"#utility.yul\":2660:2779   */\n    tag_68:\n        /* \"#utility.yul\":2846:2847   */\n      0x00\n        /* \"#utility.yul\":2835:2844   */\n      dup4\n        /* \"#utility.yul\":2831:2848   */\n      add\n        /* \"#utility.yul\":2818:2849   */\n      calldataload\n        /* \"#utility.yul\":2876:2894   */\n      0xffffffffffffffff\n        /* \"#utility.yul\":2868:2874   */\n      dup2\n        /* \"#utility.yul\":2865:2895   */\n      gt\n        /* \"#utility.yul\":2862:2979   */\n      iszero\n      tag_70\n      jumpi\n        /* \"#utility.yul\":2898:2977   */\n      tag_71\n      tag_20\n      jump\t// in\n    tag_71:\n        /* \"#utility.yul\":2862:2979   */\n    tag_70:\n        /* \"#utility.yul\":3003:3065   */\n      tag_72\n        /* \"#utility.yul\":3057:3064   */\n      dup6\n        /* \"#utility.yul\":3048:3054   */\n      dup3\n        /* \"#utility.yul\":3037:3046   */\n      dup7\n        /* \"#utility.yul\":3033:3055   */\n      add\n        /* \"#utility.yul\":3003:3065   */\n      tag_30\n      jump\t// in\n    tag_72:\n        /* \"#utility.yul\":2993:3065   */\n      swap3\n      pop\n        /* \"#utility.yul\":2789:3075   */\n      pop\n        /* \"#utility.yul\":3142:3144   */\n      0x20\n        /* \"#utility.yul\":3131:3140   */\n      dup4\n        /* \"#utility.yul\":3127:3145   */\n      add\n        /* \"#utility.yul\":3114:3146   */\n      calldataload\n        /* \"#utility.yul\":3173:3191   */\n      0xffffffffffffffff\n        /* \"#utility.yul\":3165:3171   */\n      dup2\n        /* \"#utility.yul\":3162:3192   */\n      gt\n        /* \"#utility.yul\":3159:3276   */\n      iszero\n      tag_73\n      jumpi\n        /* \"#utility.yul\":3195:3274   */\n      tag_74\n      tag_20\n      jump\t// in\n    tag_74:\n        /* \"#utility.yul\":3159:3276   */\n    tag_73:\n        /* \"#utility.yul\":3300:3362   */\n      tag_75\n        /* \"#utility.yul\":3354:3361   */\n      dup6\n        /* \"#utility.yul\":3345:3351   */\n      dup3\n        /* \"#utility.yul\":3334:3343   */\n      dup7\n        /* \"#utility.yul\":3330:3352   */\n      add\n        /* \"#utility.yul\":3300:3362   */\n      tag_30\n      jump\t// in\n    tag_75:\n        /* \"#utility.yul\":3290:3362   */\n      swap2\n      pop\n        /* \"#utility.yul\":3085:3372   */\n      pop\n        /* \"#utility.yul\":2549:3379   */\n      swap3\n      pop\n      swap3\n      swap1\n      pop\n      jump\t// out\n        /* \"#utility.yul\":3385:3483   */\n    tag_31:\n        /* \"#utility.yul\":3436:3442   */\n      0x00\n        /* \"#utility.yul\":3470:3475   */\n      dup2\n        /* \"#utility.yul\":3464:3476   */\n      mload\n        /* \"#utility.yul\":3454:3476   */\n      swap1\n      pop\n        /* \"#utility.yul\":3385:3483   */\n      swap2\n      swap1\n      pop\n      jump\t// out\n        /* \"#utility.yul\":3489:3657   */\n    tag_32:\n        /* \"#utility.yul\":3572:3583   */\n      0x00\n        /* \"#utility.yul\":3606:3612   */\n      dup3\n        /* \"#utility.yul\":3601:3604   */\n      dup3\n        /* \"#utility.yul\":3594:3613   */\n      mstore\n        /* \"#utility.yul\":3646:3650   */\n      0x20\n        /* \"#utility.yul\":3641:3644   */\n      dup3\n        /* \"#utility.yul\":3637:3651   */\n      add\n        /* \"#utility.yul\":3622:3651   */\n      swap1\n      pop\n        /* \"#utility.yul\":3489:3657   */\n      swap3\n      swap2\n      pop\n      pop\n      jump\t// out\n        /* \"#utility.yul\":3663:3911   */\n    tag_33:\n        /* \"#utility.yul\":3745:3746   */\n      0x00\n        /* \"#utility.yul\":3755:3868   */\n    tag_79:\n        /* \"#utility.yul\":3769:3775   */\n      dup4\n        /* \"#utility.yul\":3766:3767   */\n      dup2\n        /* \"#utility.yul\":3763:3776   */\n      lt\n        /* \"#utility.yul\":3755:3868   */\n      iszero\n      tag_81\n      jumpi\n        /* \"#utility.yul\":3854:3855   */\n      dup1\n        /* \"#utility.yul\":3849:3852   */\n      dup3\n        /* \"#utility.yul\":3845:3856   */\n      add\n        /* \"#utility.yul\":3839:3857   */\n      mload\n        /* \"#utility.yul\":3835:3836   */\n      dup2\n        /* \"#utility.yul\":3830:3833   */\n      dup5\n        /* \"#utility.yul\":3826:3837   */\n      add\n        /* \"#utility.yul\":3819:3858   */\n      mstore\n        /* \"#utility.yul\":3791:3793   */\n      0x20\n        /* \"#utility.yul\":3788:3789   */\n      dup2\n        /* \"#utility.yul\":3784:3794   */\n      add\n        /* \"#utility.yul\":3779:3794   */\n      swap1\n      pop\n        /* \"#utility.yul\":3755:3868   */\n      jump(tag_79)\n    tag_81:\n        /* \"#utility.yul\":3902:3903   */\n      0x00\n        /* \"#utility.yul\":3893:3899   */\n      dup5\n        /* \"#utility.yul\":3888:3891   */\n      dup5\n        /* \"#utility.yul\":3884:3900   */\n      add\n        /* \"#utility.yul\":3877:3904   */\n      mstore\n        /* \"#utility.yul\":3725:3911   */\n      pop\n        /* \"#utility.yul\":3663:3911   */\n      pop\n      pop\n      pop\n      jump\t// out\n        /* \"#utility.yul\":3917:4290   */\n    tag_34:\n        /* \"#utility.yul\":4003:4006   */\n      0x00\n        /* \"#utility.yul\":4031:4069   */\n      tag_83\n        /* \"#utility.yul\":4063:4068   */\n      dup3\n        /* \"#utility.yul\":4031:4069   */\n      tag_31\n      jump\t// in\n    tag_83:\n        /* \"#utility.yul\":4085:4155   */\n      tag_84\n        /* \"#utility.yul\":4148:4154   */\n      dup2\n        /* \"#utility.yul\":4143:4146   */\n      dup6\n        /* \"#utility.yul\":4085:4155   */\n      tag_32\n      jump\t// in\n    tag_84:\n        /* \"#utility.yul\":4078:4155   */\n      swap4\n      pop\n        /* \"#utility.yul\":4164:4229   */\n      tag_85\n        /* \"#utility.yul\":4222:4228   */\n      dup2\n        /* \"#utility.yul\":4217:4220   */\n      dup6\n        /* \"#utility.yul\":4210:4214   */\n      0x20\n        /* \"#utility.yul\":4203:4208   */\n      dup7\n        /* \"#utility.yul\":4199:4215   */\n      add\n        /* \"#utility.yul\":4164:4229   */\n      tag_33\n      jump\t// in\n    tag_85:\n        /* \"#utility.yul\":4254:4283   */\n      tag_86\n        /* \"#utility.yul\":4276:4282   */\n      dup2\n        /* \"#utility.yul\":4254:4283   */\n      tag_23\n      jump\t// in\n    tag_86:\n        /* \"#utility.yul\":4249:4252   */\n      dup5\n        /* \"#utility.yul\":4245:4284   */\n      add\n        /* \"#utility.yul\":4238:4284   */\n      swap2\n      pop\n        /* \"#utility.yul\":4007:4290   */\n      pop\n        /* \"#utility.yul\":3917:4290   */\n      swap3\n      swap2\n      pop\n      pop\n      jump\t// out\n        /* \"#utility.yul\":4296:4605   */\n    tag_9:\n        /* \"#utility.yul\":4407:4411   */\n      0x00\n        /* \"#utility.yul\":4445:4447   */\n      0x20\n        /* \"#utility.yul\":4434:4443   */\n      dup3\n        /* \"#utility.yul\":4430:4448   */\n      add\n        /* \"#utility.yul\":4422:4448   */\n      swap1\n      pop\n        /* \"#utility.yul\":4494:4503   */\n      dup2\n        /* \"#utility.yul\":4488:4492   */\n      dup2\n        /* \"#utility.yul\":4484:4504   */\n      sub\n        /* \"#utility.yul\":4480:4481   */\n      0x00\n        /* \"#utility.yul\":4469:4478   */\n      dup4\n        /* \"#utility.yul\":4465:4482   */\n      add\n        /* \"#utility.yul\":4458:4505   */\n      mstore\n        /* \"#utility.yul\":4522:4598   */\n      tag_88\n        /* \"#utility.yul\":4593:4597   */\n      dup2\n        /* \"#utility.yul\":4584:4590   */\n      dup5\n        /* \"#utility.yul\":4522:4598   */\n      tag_34\n      jump\t// in\n    tag_88:\n        /* \"#utility.yul\":4514:4598   */\n      swap1\n      pop\n        /* \"#utility.yul\":4296:4605   */\n      swap3\n      swap2\n      pop\n      pop\n      jump\t// out\n        /* \"#utility.yul\":4611:4758   */\n    tag_35:\n        /* \"#utility.yul\":4712:4723   */\n      0x00\n        /* \"#utility.yul\":4749:4752   */\n      dup2\n        /* \"#utility.yul\":4734:4752   */\n      swap1\n      pop\n        /* \"#utility.yul\":4611:4758   */\n      swap3\n      swap2\n      pop\n      pop\n      jump\t// out\n        /* \"#utility.yul\":4764:5150   */\n    tag_36:\n        /* \"#utility.yul\":4868:4871   */\n      0x00\n        /* \"#utility.yul\":4896:4934   */\n      tag_91\n        /* \"#utility.yul\":4928:4933   */\n      dup3\n        /* \"#utility.yul\":4896:4934   */\n      tag_31\n      jump\t// in\n    tag_91:\n        /* \"#utility.yul\":4950:5038   */\n      tag_92\n        /* \"#utility.yul\":5031:5037   */\n      dup2\n        /* \"#utility.yul\":5026:5029   */\n      dup6\n        /* \"#utility.yul\":4950:5038   */\n      tag_35\n      jump\t// in\n    tag_92:\n        /* \"#utility.yul\":4943:5038   */\n      swap4\n      pop\n        /* \"#utility.yul\":5047:5112   */\n      tag_93\n        /* \"#utility.yul\":5105:5111   */\n      dup2\n        /* \"#utility.yul\":5100:5103   */\n      dup6\n        /* \"#utility.yul\":5093:5097   */\n      0x20\n        /* \"#utility.yul\":5086:5091   */\n      dup7\n        /* \"#utility.yul\":5082:5098   */\n      add\n        /* \"#utility.yul\":5047:5112   */\n      tag_33\n      jump\t// in\n    tag_93:\n        /* \"#utility.yul\":5137:5143   */\n      dup1\n        /* \"#utility.yul\":5132:5135   */\n      dup5\n        /* \"#utility.yul\":5128:5144   */\n      add\n        /* \"#utility.yul\":5121:5144   */\n      swap2\n      pop\n        /* \"#utility.yul\":4872:5150   */\n      pop\n        /* \"#utility.yul\":4764:5150   */\n      swap3\n      swap2\n      pop\n      pop\n      jump\t// out\n        /* \"#utility.yul\":5156:5427   */\n    tag_12:\n        /* \"#utility.yul\":5286:5289   */\n      0x00\n        /* \"#utility.yul\":5308:5401   */\n      tag_95\n        /* \"#utility.yul\":5397:5400   */\n      dup3\n        /* \"#utility.yul\":5388:5394   */\n      dup5\n        /* \"#utility.yul\":5308:5401   */\n      tag_36\n      jump\t// in\n    tag_95:\n        /* \"#utility.yul\":5301:5401   */\n      swap2\n      pop\n        /* \"#utility.yul\":5418:5421   */\n      dup2\n        /* \"#utility.yul\":5411:5421   */\n      swap1\n      pop\n        /* \"#utility.yul\":5156:5427   */\n      swap3\n      swap2\n      pop\n      pop\n      jump\t// out\n\n    auxdata: 0xa264697066735822122083def9ebd138398a43493adee900b0565eeb8957fe349b89d0b40b4ccdc0fc9f64736f6c634300081b0033\n}\n",
				"bytecode": {
					"linkReferences": {},
					"object": "6080604052348015600f57600080fd5b506103e98061001f6000396000f3fe608060405234801561001057600080fd5b506004361061002b5760003560e01c80639061b92314610030575b600080fd5b61004a60048036038101906100459190610247565b610060565b604051610057919061033e565b60405180910390f35b60606000803073ffffffffffffffffffffffffffffffffffffffff168460405161008a919061039c565b600060405180830381855afa9150503d80600081146100c5576040519150601f19603f3d011682016040523d82523d6000602084013e6100ca565b606091505b509150915081156100df5780925050506100e7565b805160208201fd5b92915050565b6000604051905090565b600080fd5b600080fd5b600080fd5b600080fd5b6000601f19601f8301169050919050565b7f4e487b7100000000000000000000000000000000000000000000000000000000600052604160045260246000fd5b6101548261010b565b810181811067ffffffffffffffff821117156101735761017261011c565b5b80604052505050565b60006101866100ed565b9050610192828261014b565b919050565b600067ffffffffffffffff8211156101b2576101b161011c565b5b6101bb8261010b565b9050602081019050919050565b82818337600083830152505050565b60006101ea6101e584610197565b61017c565b90508281526020810184848401111561020657610205610106565b5b6102118482856101c8565b509392505050565b600082601f83011261022e5761022d610101565b5b813561023e8482602086016101d7565b91505092915050565b6000806040838503121561025e5761025d6100f7565b5b600083013567ffffffffffffffff81111561027c5761027b6100fc565b5b61028885828601610219565b925050602083013567ffffffffffffffff8111156102a9576102a86100fc565b5b6102b585828601610219565b9150509250929050565b600081519050919050565b600082825260208201905092915050565b60005b838110156102f95780820151818401526020810190506102de565b60008484015250505050565b6000610310826102bf565b61031a81856102ca565b935061032a8185602086016102db565b6103338161010b565b840191505092915050565b600060208201905081810360008301526103588184610305565b905092915050565b600081905092915050565b6000610376826102bf565b6103808185610360565b93506103908185602086016102db565b80840191505092915050565b60006103a8828461036b565b91508190509291505056fea264697066735822122083def9ebd138398a43493adee900b0565eeb8957fe349b89d0b40b4ccdc0fc9f64736f6c634300081b0033",
					"opcodes": "PUSH1 0x80 PUSH1 0x40 MSTORE CALLVALUE DUP1 ISZERO PUSH1 0xF JUMPI PUSH1 0x0 DUP1 REVERT JUMPDEST POP PUSH2 0x3E9 DUP1 PUSH2 0x1F PUSH1 0x0 CODECOPY PUSH1 0x0 RETURN INVALID PUSH1 0x80 PUSH1 0x40 MSTORE CALLVALUE DUP1 ISZERO PUSH2 0x10 JUMPI PUSH1 0x0 DUP1 REVERT JUMPDEST POP PUSH1 0x4 CALLDATASIZE LT PUSH2 0x2B JUMPI PUSH1 0x0 CALLDATALOAD PUSH1 0xE0 SHR DUP1 PUSH4 0x9061B923 EQ PUSH2 0x30 JUMPI JUMPDEST PUSH1 0x0 DUP1 REVERT JUMPDEST PUSH2 0x4A PUSH1 0x4 DUP1 CALLDATASIZE SUB DUP2 ADD SWAP1 PUSH2 0x45 SWAP2 SWAP1 PUSH2 0x247 JUMP JUMPDEST PUSH2 0x60 JUMP JUMPDEST PUSH1 0x40 MLOAD PUSH2 0x57 SWAP2 SWAP1 PUSH2 0x33E JUMP JUMPDEST PUSH1 0x40 MLOAD DUP1 SWAP2 SUB SWAP1 RETURN JUMPDEST PUSH1 0x60 PUSH1 0x0 DUP1 ADDRESS PUSH20 0xFFFFFFFFFFFFFFFFFFFFFFFFFFFFFFFFFFFFFFFF AND DUP5 PUSH1 0x40 MLOAD PUSH2 0x8A SWAP2 SWAP1 PUSH2 0x39C JUMP JUMPDEST PUSH1 0x0 PUSH1 0x40 MLOAD DUP1 DUP4 SUB DUP2 DUP6 GAS STATICCALL SWAP2 POP POP RETURNDATASIZE DUP1 PUSH1 0x0 DUP2 EQ PUSH2 0xC5 JUMPI PUSH1 0x40 MLOAD SWAP2 POP PUSH1 0x1F NOT PUSH1 0x3F RETURNDATASIZE ADD AND DUP3 ADD PUSH1 0x40 MSTORE RETURNDATASIZE DUP3 MSTORE RETURNDATASIZE PUSH1 0x0 PUSH1 0x20 DUP5 ADD RETURNDATACOPY PUSH2 0xCA JUMP JUMPDEST PUSH1 0x60 SWAP2 POP JUMPDEST POP SWAP2 POP SWAP2 POP DUP2 ISZERO PUSH2 0xDF JUMPI DUP1 SWAP3 POP POP POP PUSH2 0xE7 JUMP JUMPDEST DUP1 MLOAD PUSH1 0x20 DUP3 ADD REVERT JUMPDEST SWAP3 SWAP2 POP POP JUMP JUMPDEST PUSH1 0x0 PUSH1 0x40 MLOAD SWAP1 POP SWAP1 JUMP JUMPDEST PUSH1 0x0 DUP1 REVERT JUMPDEST PUSH1 0x0 DUP1 REVERT JUMPDEST PUSH1 0x0 DUP1 REVERT JUMPDEST PUSH1 0x0 DUP1 REVERT JUMPDEST PUSH1 0x0 PUSH1 0x1F NOT PUSH1 0x1F DUP4 ADD AND SWAP1 POP SWAP2 SWAP1 POP JUMP JUMPDEST PUSH32 0x4E487B7100000000000000000000000000000000000000000000000000000000 PUSH1 0x0 MSTORE PUSH1 0x41 PUSH1 0x4 MSTORE PUSH1 0x24 PUSH1 0x0 REVERT JUMPDEST PUSH2 0x154 DUP3 PUSH2 0x10B JUMP JUMPDEST DUP2 ADD DUP2 DUP2 LT PUSH8 0xFFFFFFFFFFFFFFFF DUP3 GT OR ISZERO PUSH2 0x173 JUMPI PUSH2 0x172 PUSH2 0x11C JUMP JUMPDEST JUMPDEST DUP1 PUSH1 0x40 MSTORE POP POP POP JUMP JUMPDEST PUSH1 0x0 PUSH2 0x186 PUSH2 0xED JUMP JUMPDEST SWAP1 POP PUSH2 0x192 DUP3 DUP3 PUSH2 0x14B JUMP JUMPDEST SWAP2 SWAP1 POP JUMP JUMPDEST PUSH1 0x0 PUSH8 0xFFFFFFFFFFFFFFFF DUP3 GT ISZERO PUSH2 0x1B2 JUMPI PUSH2 0x1B1 PUSH2 0x11C JUMP JUMPDEST JUMPDEST PUSH2 0x1BB DUP3 PUSH2 0x10B JUMP JUMPDEST SWAP1 POP PUSH1 0x20 DUP2 ADD SWAP1 POP SWAP2 SWAP1 POP JUMP JUMPDEST DUP3 DUP2 DUP4 CALLDATACOPY PUSH1 0x0 DUP4 DUP4 ADD MSTORE POP POP POP JUMP JUMPDEST PUSH1 0x0 PUSH2 0x1EA PUSH2 0x1E5 DUP5 PUSH2 0x197 JUMP JUMPDEST PUSH2 0x17C JUMP JUMPDEST SWAP1 POP DUP3 DUP2 MSTORE PUSH1 0x20 DUP2 ADD DUP5 DUP5 DUP5 ADD GT ISZERO PUSH2 0x206 JUMPI PUSH2 0x205 PUSH2 0x106 JUMP JUMPDEST JUMPDEST PUSH2 0x211 DUP5 DUP3 DUP6 PUSH2 0x1C8 JUMP JUMPDEST POP SWAP4 SWAP3 POP POP POP JUMP JUMPDEST PUSH1 0x0 DUP3 PUSH1 0x1F DUP4 ADD SLT PUSH2 0x22E JUMPI PUSH2 0x22D PUSH2 0x101 JUMP JUMPDEST JUMPDEST DUP2 CALLDATALOAD PUSH2 0x23E DUP5 DUP3 PUSH1 0x20 DUP7 ADD PUSH2 0x1D7 JUMP JUMPDEST SWAP2 POP POP SWAP3 SWAP2 POP POP JUMP JUMPDEST PUSH1 0x0 DUP1 PUSH1 0x40 DUP4 DUP6 SUB SLT ISZERO PUSH2 0x25E JUMPI PUSH2 0x25D PUSH2 0xF7 JUMP JUMPDEST JUMPDEST PUSH1 0x0 DUP4 ADD CALLDATALOAD PUSH8 0xFFFFFFFFFFFFFFFF DUP2 GT ISZERO PUSH2 0x27C JUMPI PUSH2 0x27B PUSH2 0xFC JUMP JUMPDEST JUMPDEST PUSH2 0x288 DUP6 DUP3 DUP7 ADD PUSH2 0x219 JUMP JUMPDEST SWAP3 POP POP PUSH1 0x20 DUP4 ADD CALLDATALOAD PUSH8 0xFFFFFFFFFFFFFFFF DUP2 GT ISZERO PUSH2 0x2A9 JUMPI PUSH2 0x2A8 PUSH2 0xFC JUMP JUMPDEST JUMPDEST PUSH2 0x2B5 DUP6 DUP3 DUP7 ADD PUSH2 0x219 JUMP JUMPDEST SWAP2 POP POP SWAP3 POP SWAP3 SWAP1 POP JUMP JUMPDEST PUSH1 0x0 DUP2 MLOAD SWAP1 POP SWAP2 SWAP1 POP JUMP JUMPDEST PUSH1 0x0 DUP3 DUP3 MSTORE PUSH1 0x20 DUP3 ADD SWAP1 POP SWAP3 SWAP2 POP POP JUMP JUMPDEST PUSH1 0x0 JUMPDEST DUP4 DUP2 LT ISZERO PUSH2 0x2F9 JUMPI DUP1 DUP3 ADD MLOAD DUP2 DUP5 ADD MSTORE PUSH1 0x20 DUP2 ADD SWAP1 POP PUSH2 0x2DE JUMP JUMPDEST PUSH1 0x0 DUP5 DUP5 ADD MSTORE POP POP POP POP JUMP JUMPDEST PUSH1 0x0 PUSH2 0x310 DUP3 PUSH2 0x2BF JUMP JUMPDEST PUSH2 0x31A DUP2 DUP6 PUSH2 0x2CA JUMP JUMPDEST SWAP4 POP PUSH2 0x32A DUP2 DUP6 PUSH1 0x20 DUP7 ADD PUSH2 0x2DB JUMP JUMPDEST PUSH2 0x333 DUP2 PUSH2 0x10B JUMP JUMPDEST DUP5 ADD SWAP2 POP POP SWAP3 SWAP2 POP POP JUMP JUMPDEST PUSH1 0x0 PUSH1 0x20 DUP3 ADD SWAP1 POP DUP2 DUP2 SUB PUSH1 0x0 DUP4 ADD MSTORE PUSH2 0x358 DUP2 DUP5 PUSH2 0x305 JUMP JUMPDEST SWAP1 POP SWAP3 SWAP2 POP POP JUMP JUMPDEST PUSH1 0x0 DUP2 SWAP1 POP SWAP3 SWAP2 POP POP JUMP JUMPDEST PUSH1 0x0 PUSH2 0x376 DUP3 PUSH2 0x2BF JUMP JUMPDEST PUSH2 0x380 DUP2 DUP6 PUSH2 0x360 JUMP JUMPDEST SWAP4 POP PUSH2 0x390 DUP2 DUP6 PUSH1 0x20 DUP7 ADD PUSH2 0x2DB JUMP JUMPDEST DUP1 DUP5 ADD SWAP2 POP POP SWAP3 SWAP2 POP POP JUMP JUMPDEST PUSH1 0x0 PUSH2 0x3A8 DUP3 DUP5 PUSH2 0x36B JUMP JUMPDEST SWAP2 POP DUP2 SWAP1 POP SWAP3 SWAP2 POP POP JUMP INVALID LOG2 PUSH5 0x6970667358 0x22 SLT KECCAK256 DUP4 0xDE 0xF9 0xEB 0xD1 CODESIZE CODECOPY DUP11 NUMBER BLOBHASH GASPRICE 0xDE 0xE9 STOP 0xB0 JUMP MCOPY 0xEB DUP10 JUMPI INVALID CALLVALUE SWAP12 DUP10 0xD0 0xB4 SIGNEXTEND 0x4C 0xCD 0xC0 0xFC SWAP16 PUSH5 0x736F6C6343 STOP ADDMOD SHL STOP CALLER "
				},
				"gasEstimates": {
					"creation": {
						"codeDepositCost": "200200",
						"executionCost": "245",
						"totalCost": "200445"
					},
					"external": {
						"resolve(bytes,bytes)": "infinite"
					}
				},
				"methodIdentifiers": {
					"resolve(bytes,bytes)": "9061b923"
				}
			},
			"storageLayout": {
				"storage": [],
				"types": null
			},
			"userdoc": {
				"kind": "user",
				"methods": {},
				"version": 1
			}
		}
	}
}