{
  "_format": "hh-sol-artifact-1",
  "contractName": "UniversalResolver",
  "sourceName": "contracts/utils/UniversalResolver.sol",
  "abi": [
    {
      "inputs": [
        {
          "internalType": "address",
          "name": "_registry",
          "type": "address"
        },
        {
          "internalType": "string[]",
          "name": "_urls",
          "type": "string[]"
        }
      ],
      "stateMutability": "nonpayable",
      "type": "constructor"
    },
    {
      "inputs": [
        {
          "internalType": "address",
          "name": "sender",
          "type": "address"
        },
        {
          "internalType": "string[]",
          "name": "urls",
          "type": "string[]"
        },
        {
          "internalType": "bytes",
          "name": "callData",
          "type": "bytes"
        },
        {
          "internalType": "bytes4",
          "name": "callbackFunction",
          "type": "bytes4"
        },
        {
          "internalType": "bytes",
          "name": "extraData",
          "type": "bytes"
        }
      ],
      "name": "OffchainLookup",
      "type": "error"
    },
    {
      "inputs": [
        {
          "internalType": "bytes",
          "name": "returnData",
          "type": "bytes"
        }
      ],
      "name": "ResolverError",
      "type": "error"
    },
    {
      "inputs": [],
      "name": "ResolverNotContract",
      "type": "error"
    },
    {
      "inputs": [],
      "name": "ResolverNotFound",
      "type": "error"
    },
    {
      "inputs": [],
      "name": "ResolverWildcardNotSupported",
      "type": "error"
    },
    {
      "anonymous": false,
      "inputs": [
        {
          "indexed": true,
          "internalType": "address",
          "name": "previousOwner",
          "type": "address"
        },
        {
          "indexed": true,
          "internalType": "address",
          "name": "newOwner",
          "type": "address"
        }
      ],
      "name": "OwnershipTransferred",
      "type": "event"
    },
    {
      "inputs": [
        {
          "internalType": "bytes",
          "name": "name",
          "type": "bytes"
        },
        {
          "internalType": "bytes",
          "name": "data",
          "type": "bytes"
        },
        {
          "internalType": "string[]",
          "name": "gateways",
          "type": "string[]"
        },
        {
          "internalType": "bytes4",
          "name": "callbackFunction",
          "type": "bytes4"
        },
        {
          "internalType": "bytes",
          "name": "metaData",
          "type": "bytes"
        }
      ],
      "name": "_resolveSingle",
      "outputs": [
        {
          "internalType": "bytes",
          "name": "",
          "type": "bytes"
        },
        {
          "internalType": "address",
          "name": "",
          "type": "address"
        }
      ],
      "stateMutability": "view",
      "type": "function"
    },
    {
      "inputs": [
        {
          "internalType": "uint256",
          "name": "",
          "type": "uint256"
        }
      ],
      "name": "batchGatewayURLs",
      "outputs": [
        {
          "internalType": "string",
          "name": "",
          "type": "string"
        }
      ],
      "stateMutability": "view",
      "type": "function"
    },
    {
      "inputs": [
        {
          "internalType": "bytes",
          "name": "name",
          "type": "bytes"
        }
      ],
      "name": "findResolver",
      "outputs": [
        {
          "internalType": "contract Resolver",
          "name": "",
          "type": "address"
        },
        {
          "internalType": "bytes32",
          "name": "",
          "type": "bytes32"
        },
        {
          "internalType": "uint256",
          "name": "",
          "type": "uint256"
        }
      ],
      "stateMutability": "view",
      "type": "function"
    },
    {
      "inputs": [],
      "name": "owner",
      "outputs": [
        {
          "internalType": "address",
          "name": "",
          "type": "address"
        }
      ],
      "stateMutability": "view",
      "type": "function"
    },
    {
      "inputs": [],
      "name": "registry",
      "outputs": [
        {
          "internalType": "contract ENS",
          "name": "",
          "type": "address"
        }
      ],
      "stateMutability": "view",
      "type": "function"
    },
    {
      "inputs": [],
      "name": "renounceOwnership",
      "outputs": [],
      "stateMutability": "nonpayable",
      "type": "function"
    },
    {
      "inputs": [
        {
          "internalType": "bytes",
          "name": "name",
          "type": "bytes"
        },
        {
          "internalType": "bytes",
          "name": "data",
          "type": "bytes"
        },
        {
          "internalType": "string[]",
          "name": "gateways",
          "type": "string[]"
        }
      ],
      "name": "resolve",
      "outputs": [
        {
          "internalType": "bytes",
          "name": "",
          "type": "bytes"
        },
        {
          "internalType": "address",
          "name": "",
          "type": "address"
        }
      ],
      "stateMutability": "view",
      "type": "function"
    },
    {
      "inputs": [
        {
          "internalType": "bytes",
          "name": "name",
          "type": "bytes"
        },
        {
          "internalType": "bytes[]",
          "name": "data",
          "type": "bytes[]"
        }
      ],
      "name": "resolve",
      "outputs": [
        {
          "components": [
            {
              "internalType": "bool",
              "name": "success",
              "type": "bool"
            },
            {
              "internalType": "bytes",
              "name": "returnData",
              "type": "bytes"
            }
          ],
          "internalType": "struct Result[]",
          "name": "",
          "type": "tuple[]"
        },
        {
          "internalType": "address",
          "name": "",
          "type": "address"
        }
      ],
      "stateMutability": "view",
      "type": "function"
    },
    {
      "inputs": [
        {
          "internalType": "bytes",
          "name": "name",
          "type": "bytes"
        },
        {
          "internalType": "bytes[]",
          "name": "data",
          "type": "bytes[]"
        },
        {
          "internalType": "string[]",
          "name": "gateways",
          "type": "string[]"
        }
      ],
      "name": "resolve",
      "outputs": [
        {
          "components": [
            {
              "internalType": "bool",
              "name": "success",
              "type": "bool"
            },
            {
              "internalType": "bytes",
              "name": "returnData",
              "type": "bytes"
            }
          ],
          "internalType": "struct Result[]",
          "name": "",
          "type": "tuple[]"
        },
        {
          "internalType": "address",
          "name": "",
          "type": "address"
        }
      ],
      "stateMutability": "view",
      "type": "function"
    },
    {
      "inputs": [
        {
          "internalType": "bytes",
          "name": "name",
          "type": "bytes"
        },
        {
          "internalType": "bytes",
          "name": "data",
          "type": "bytes"
        }
      ],
      "name": "resolve",
      "outputs": [
        {
          "internalType": "bytes",
          "name": "",
          "type": "bytes"
        },
        {
          "internalType": "address",
          "name": "",
          "type": "address"
        }
      ],
      "stateMutability": "view",
      "type": "function"
    },
    {
      "inputs": [
        {
          "internalType": "bytes",
          "name": "response",
          "type": "bytes"
        },
        {
          "internalType": "bytes",
          "name": "extraData",
          "type": "bytes"
        }
      ],
      "name": "resolveCallback",
      "outputs": [
        {
          "components": [
            {
              "internalType": "bool",
              "name": "success",
              "type": "bool"
            },
            {
              "internalType": "bytes",
              "name": "returnData",
              "type": "bytes"
            }
          ],
          "internalType": "struct Result[]",
          "name": "",
          "type": "tuple[]"
        },
        {
          "internalType": "address",
          "name": "",
          "type": "address"
        }
      ],
      "stateMutability": "view",
      "type": "function"
    },
    {
      "inputs": [
        {
          "internalType": "bytes",
          "name": "response",
          "type": "bytes"
        },
        {
          "internalType": "bytes",
          "name": "extraData",
          "type": "bytes"
        }
      ],
      "name": "resolveSingleCallback",
      "outputs": [
        {
          "internalType": "bytes",
          "name": "",
          "type": "bytes"
        },
        {
          "internalType": "address",
          "name": "",
          "type": "address"
        }
      ],
      "stateMutability": "view",
      "type": "function"
    },
    {
      "inputs": [
        {
          "internalType": "bytes",
          "name": "reverseName",
          "type": "bytes"
        },
        {
          "internalType": "string[]",
          "name": "gateways",
          "type": "string[]"
        }
      ],
      "name": "reverse",
      "outputs": [
        {
          "internalType": "string",
          "name": "",
          "type": "string"
        },
        {
          "internalType": "address",
          "name": "",
          "type": "address"
        },
        {
          "internalType": "address",
          "name": "",
          "type": "address"
        },
        {
          "internalType": "address",
          "name": "",
          "type": "address"
        }
      ],
      "stateMutability": "view",
      "type": "function"
    },
    {
      "inputs": [
        {
          "internalType": "bytes",
          "name": "reverseName",
          "type": "bytes"
        }
      ],
      "name": "reverse",
      "outputs": [
        {
          "internalType": "string",
          "name": "",
          "type": "string"
        },
        {
          "internalType": "address",
          "name": "",
          "type": "address"
        },
        {
          "internalType": "address",
          "name": "",
          "type": "address"
        },
        {
          "internalType": "address",
          "name": "",
          "type": "address"
        }
      ],
      "stateMutability": "view",
      "type": "function"
    },
    {
      "inputs": [
        {
          "internalType": "bytes",
          "name": "response",
          "type": "bytes"
        },
        {
          "internalType": "bytes",
          "name": "extraData",
          "type": "bytes"
        }
      ],
      "name": "reverseCallback",
      "outputs": [
        {
          "internalType": "string",
          "name": "",
          "type": "string"
        },
        {
          "internalType": "address",
          "name": "",
          "type": "address"
        },
        {
          "internalType": "address",
          "name": "",
          "type": "address"
        },
        {
          "internalType": "address",
          "name": "",
          "type": "address"
        }
      ],
      "stateMutability": "view",
      "type": "function"
    },
    {
      "inputs": [
        {
          "internalType": "string[]",
          "name": "_urls",
          "type": "string[]"
        }
      ],
      "name": "setGatewayURLs",
      "outputs": [],
      "stateMutability": "nonpayable",
      "type": "function"
    },
    {
      "inputs": [
        {
          "internalType": "bytes4",
          "name": "interfaceId",
          "type": "bytes4"
        }
      ],
      "name": "supportsInterface",
      "outputs": [
        {
          "internalType": "bool",
          "name": "",
          "type": "bool"
        }
      ],
      "stateMutability": "view",
      "type": "function"
    },
    {
      "inputs": [
        {
          "internalType": "address",
          "name": "newOwner",
          "type": "address"
        }
      ],
      "name": "transferOwnership",
      "outputs": [],
      "stateMutability": "nonpayable",
      "type": "function"
    }
  ],
  "bytecode": "0x60a06040523480156200001157600080fd5b5060405162003bc338038062003bc38339810160408190526200003491620001da565b6200003f336200006a565b6001600160a01b038216608052805162000061906001906020840190620000ba565b5050506200049c565b600080546001600160a01b038381166001600160a01b0319831681178455604051919092169283917f8be0079c531659141344cd1fd0a4f28419497f9722a3daafe3b4186f6b6457e09190a35050565b82805482825590600052602060002090810192821562000105579160200282015b82811115620001055782518290620000f49082620003d0565b5091602001919060010190620000db565b506200011392915062000117565b5090565b80821115620001135760006200012e828262000138565b5060010162000117565b508054620001469062000341565b6000825580601f1062000157575050565b601f0160209004906000526020600020908101906200017791906200017a565b50565b5b808211156200011357600081556001016200017b565b634e487b7160e01b600052604160045260246000fd5b604051601f8201601f191681016001600160401b0381118282101715620001d257620001d262000191565b604052919050565b6000806040808486031215620001ef57600080fd5b83516001600160a01b03811681146200020757600080fd5b602085810151919450906001600160401b03808211156200022757600080fd5b8187019150601f88818401126200023d57600080fd5b82518281111562000252576200025262000191565b8060051b62000263868201620001a7565b918252848101860191868101908c8411156200027e57600080fd5b87870192505b838310156200032e578251868111156200029e5760008081fd5b8701603f81018e13620002b15760008081fd5b8881015187811115620002c857620002c862000191565b620002db818801601f19168b01620001a7565b8181528f8c838501011115620002f15760008081fd5b60005b8281101562000311578381018d01518282018d01528b01620002f4565b5060009181018b0191909152835250918701919087019062000284565b8099505050505050505050509250929050565b600181811c908216806200035657607f821691505b6020821081036200037757634e487b7160e01b600052602260045260246000fd5b50919050565b601f821115620003cb57600081815260208120601f850160051c81016020861015620003a65750805b601f850160051c820191505b81811015620003c757828155600101620003b2565b5050505b505050565b81516001600160401b03811115620003ec57620003ec62000191565b6200040481620003fd845462000341565b846200037d565b602080601f8311600181146200043c5760008415620004235750858301515b600019600386901b1c1916600185901b178555620003c7565b600085815260208120601f198616915b828110156200046d578886015182559484019460019091019084016200044c565b50858210156200048c5787850151600019600388901b60f8161c191681555b5050505050600190811b01905550565b608051613704620004bf600039600081816101ea01526114fd01526137046000f3fe608060405234801561001057600080fd5b50600436106101365760003560e01c80638e5ea8df116100b2578063b241d0d311610081578063e0a8541211610066578063e0a85412146102ec578063ec11c823146102ff578063f2fde38b1461031257600080fd5b8063b241d0d3146102c6578063b4a85801146102d957600080fd5b80638e5ea8df146102485780639061b9231461025b578063a1cbcbaf1461026e578063a6b16419146102a657600080fd5b8063715018a6116101095780637b103999116100ee5780637b103999146101e55780638da5cb5b146102245780638e25a0f31461023557600080fd5b8063715018a6146101c857806376286c00146101d257600080fd5b806301ffc9a71461013b5780630667cfea14610163578063206c74c9146101845780636dc4fb73146101a5575b600080fd5b61014e61014936600461246b565b610325565b60405190151581526020015b60405180910390f35b61017661017136600461268b565b61035c565b60405161015a929190612769565b610197610192366004612814565b610392565b60405161015a92919061287d565b6101b86101b3366004612906565b610480565b60405161015a9493929190612972565b6101d0610548565b005b6101976101e03660046129ae565b61055c565b61020c7f000000000000000000000000000000000000000000000000000000000000000081565b6040516001600160a01b03909116815260200161015a565b6000546001600160a01b031661020c565b610176610243366004612a0d565b610584565b6101d0610256366004612ad3565b610627565b610176610269366004612b10565b610646565b61028161027c366004612b6f565b61073f565b604080516001600160a01b03909416845260208401929092529082015260600161015a565b6102b96102b4366004612bb1565b610765565b60405161015a9190612bca565b6101b86102d4366004612bdd565b610811565b6101976102e7366004612906565b610903565b6101766102fa366004612906565b610947565b6101b861030d366004612b6f565b6109b9565b6101d0610320366004612c51565b610aac565b60006001600160e01b03198216639061b92360e01b148061035657506301ffc9a760e01b6001600160e01b03198316145b92915050565b606060006103848686868663e0a8541260e01b60405180602001604052806000815250610584565b915091505b94509492505050565b606060006104738585856001805480602002602001604051908101604052809291908181526020016000905b8282101561046a5783829060005260206000200180546103dd90612c6e565b80601f016020809104026020016040519081016040528092919081815260200182805461040990612c6e565b80156104565780601f1061042b57610100808354040283529160200191610456565b820191906000526020600020905b81548152906001019060200180831161043957829003601f168201915b5050505050815260200190600101906103be565b5050505061055c565b915091505b935093915050565b6060600080808080808061049e8c8c8c8c636dc4fb7360e01b610b41565b93509350935093506000846000815181106104bb576104bb612ca8565b602002602001015190506104ce81610ec7565b81511561052057600080838060200190518101906104ec9190612d03565b915091506000836020015180602001905181019061050a9190612d55565b929b50919950975093955061053d945050505050565b61052f81602001518585610f52565b985098509850985050505050505b945094509450949050565b6105506110b3565b61055a600061110d565b565b606060006103848686868663b4a8580160e01b60405180602001604052806000815250611175565b6040805160018082528183019092526060916000918291816020015b60608152602001906001900390816105a057905050905086816000815181106105cb576105cb612ca8565b60200260200101819052506000806105e78b8b858b8b8b611175565b9150915060008260008151811061060057610600612ca8565b6020026020010151905061061381610ec7565b602001519b909a5098505050505050505050565b61062f6110b3565b8051610642906001906020840190612398565b5050565b606060006104738585856001805480602002602001604051908101604052809291908181526020016000905b8282101561071e57838290600052602060002001805461069190612c6e565b80601f01602080910402602001604051908101604052809291908181526020018280546106bd90612c6e565b801561070a5780601f106106df5761010080835404028352916020019161070a565b820191906000526020600020905b8154815290600101906020018083116106ed57829003601f168201915b505050505081526020019060010190610672565b5050505063e0a8541260e01b60405180602001604052806000815250610584565b600080600080600080610754888860006112f6565b919750955093505050509250925092565b6001818154811061077557600080fd5b90600052602060002001600091509050805461079090612c6e565b80601f01602080910402602001604051908101604052809291908181526020018280546107bc90612c6e565b80156108095780601f106107de57610100808354040283529160200191610809565b820191906000526020600020905b8154815290600101906020018083116107ec57829003601f168201915b505050505081565b606060008060008061085d600089898080601f01602080910402602001604051908101604052809392919081815260200183838082843760009201919091525092939250506115a49050565b60405160240161086f91815260200190565b60408051601f19818403018152918152602080830180516001600160e01b03167f691f3431000000000000000000000000000000000000000000000000000000001790528151908101909152600080825291925081906108df908b908b9086908c90636dc4fb7360e01b90610584565b915091506108ee82828a610f52565b96509650965096505050505b93509350935093565b606060008080610936888888887fb4a8580100000000000000000000000000000000000000000000000000000000610b41565b50919a909950975050505050505050565b60606000808061097a888888887fe0a8541200000000000000000000000000000000000000000000000000000000610b41565b50509150915060008260008151811061099557610995612ca8565b602002602001015190506109a881610ec7565b602001519890975095505050505050565b60606000806000610a9c86866001805480602002602001604051908101604052809291908181526020016000905b82821015610a93578382906000526020600020018054610a0690612c6e565b80601f0160208091040260200160405190810160405280929190818152602001828054610a3290612c6e565b8015610a7f5780601f10610a5457610100808354040283529160200191610a7f565b820191906000526020600020905b815481529060010190602001808311610a6257829003601f168201915b5050505050815260200190600101906109e7565b50505050610811565b9299919850965090945092505050565b610ab46110b3565b6001600160a01b038116610b355760405162461bcd60e51b815260206004820152602660248201527f4f776e61626c653a206e6577206f776e657220697320746865207a65726f206160448201527f646472657373000000000000000000000000000000000000000000000000000060648201526084015b60405180910390fd5b610b3e8161110d565b50565b60606000606080610ba560405180610100016040528060608152602001606081526020016060815260200160006001600160e01b031916815260200160001515815260200160006001600160a01b0316815260200160608152602001606081525090565b6001600160e01b031986166060820152600080610bc48b8d018d612d80565b90925090506060610bd78a8c018c612e38565b60c089019190915260408801919091526001600160a01b0390911660a08701529015156080860152805183519192501015610c1157600080fd5b805167ffffffffffffffff811115610c2b57610c2b6124d1565b604051908082528060200260200182016040528015610c5e57816020015b6060815260200190600190039081610c495790505b506020850152805167ffffffffffffffff811115610c7e57610c7e6124d1565b604051908082528060200260200182016040528015610ca7578160200160208202803683370190505b5060e08501526000805b8251811015610e95578251600090849083908110610cd157610cd1612ca8565b6020026020010151600001516001600160e01b03191603610d3057828181518110610cfe57610cfe612ca8565b60200260200101516020015186602001518281518110610d2057610d20612ca8565b6020026020010181905250610e83565b848281518110610d4257610d42612ca8565b602002602001015115610db95760018660e001518281518110610d6757610d67612ca8565b602002602001019015159081151581525050838281518110610d8b57610d8b612ca8565b602002602001015186602001518281518110610da957610da9612ca8565b6020026020010181905250610e75565b828181518110610dcb57610dcb612ca8565b602002602001015160000151848381518110610de957610de9612ca8565b6020026020010151848381518110610e0357610e03612ca8565b602002602001015160200151604051602401610e20929190612fbc565b604051602081830303815290604052906001600160e01b0319166020820180516001600160e01b03838183161783525050505086602001518281518110610e6957610e69612ca8565b60200260200101819052505b610e80826001613000565b91505b80610e8d81613013565b915050610cb1565b50610e9f85611663565b8560a0015186604001518760c001519850985098509850505050505095509550955095915050565b8051610b3e5760208101517fca7a4e750000000000000000000000000000000000000000000000000000000090610efd9061302c565b6001600160e01b03191603610f1a57602080820151805190918201fd5b80602001516040517f95c0c752000000000000000000000000000000000000000000000000000000008152600401610b2c9190612bca565b606060008060008087806020019051810190610f6e9190613064565b9050600080610f7c83611a51565b91509150600081604051602401610f9591815260200190565b60408051601f19818403018152918152602080830180516001600160e01b03167f3b3b57de000000000000000000000000000000000000000000000000000000001790529051919250600091610fef9187918e9101612769565b6040516020818303038152906040529050600080306001600160a01b0316638e25a0f387868f636dc4fb7360e01b886040518663ffffffff1660e01b815260040161103e9594939291906130ee565b600060405180830381865afa15801561105b573d6000803e3d6000fd5b505050506040513d6000823e601f3d908101601f191682016040526110839190810190612d03565b9150915060008280602001905181019061109d9190612d55565b979f979e50909b50959950505050505050505050565b6000546001600160a01b0316331461055a5760405162461bcd60e51b815260206004820181905260248201527f4f776e61626c653a2063616c6c6572206973206e6f7420746865206f776e65726044820152606401610b2c565b600080546001600160a01b038381167fffffffffffffffffffffffff0000000000000000000000000000000000000000831681178455604051919092169283917f8be0079c531659141344cd1fd0a4f28419497f9722a3daafe3b4186f6b6457e09190a35050565b606060008060006111868a8a61073f565b919450849350909150506001600160a01b0382166111d0576040517f7199966d00000000000000000000000000000000000000000000000000000000815260040160405180910390fd5b6001600160a01b0383163b611211576040517f4981ac0500000000000000000000000000000000000000000000000000000000815260040160405180910390fd5b604080516101206020601f8d01819004028201810190925261010081018b8152831515926112e6929182918f908f9081908501838280828437600092019190915250505090825250602081018c9052604081018b90526001600160e01b03198a16606082015283151560808201526001600160a01b03871660a082015260c081018990528b5160e09091019067ffffffffffffffff8111156112b5576112b56124d1565b6040519080825280602002602001820160405280156112de578160200160208202803683370190505b509052611663565b9450505050965096945050505050565b60008060008086868681811061130e5761130e612ca8565b919091013560f81c915050600081900361133257506000925082915083905061159b565b600061133e8287613000565b611349906001613000565b9050600082604214801561138f57508888611365896001613000565b81811061137457611374612ca8565b9050013560f81c60f81b6001600160f81b031916605b60f81b145b80156113cd575088886113a3600185613157565b8181106113b2576113b2612ca8565b9050013560f81c60f81b6001600160f81b031916605d60f81b145b156114455761143d600060408b8b6113e68c6002613000565b906113f2600189613157565b926113ff9392919061316a565b8080601f016020809104026020016040519081016040528093929190818152602001838380828437600092019190915250929493925050611c7a9050565b509050611477565b8888611452896001613000565b61145e9285929061316a565b60405161146c929190613194565b604051809103902090505b60008060006114878c8c876112f6565b925092509250600082856040516020016114ab929190918252602082015260400190565b60408051601f198184030181529082905280516020909101207f0178b8bf0000000000000000000000000000000000000000000000000000000082526004820181905291506000906001600160a01b037f00000000000000000000000000000000000000000000000000000000000000001690630178b8bf90602401602060405180830381865afa158015611544573d6000803e3d6000fd5b505050506040513d601f19601f820116820180604052508101906115689190612d55565b90506001600160a01b0381161561158c579950975089965061159b95505050505050565b50929850919650909450505050505b93509350939050565b60008060006115b38585611cd7565b90925090508161162557600185516115cb9190613157565b84146116195760405162461bcd60e51b815260206004820152601d60248201527f6e616d65686173683a204a756e6b20617420656e64206f66206e616d650000006044820152606401610b2c565b50600091506103569050565b61162f85826115a4565b6040805160208101929092528101839052606001604051602081830303815290604052805190602001209250505092915050565b6020810151516060906000808267ffffffffffffffff811115611688576116886124d1565b6040519080825280602002602001820160405280156116e657816020015b6116d3604051806060016040528060006001600160a01b0316815260200160608152602001606081525090565b8152602001906001900390816116a65790505b50905060008367ffffffffffffffff811115611704576117046124d1565b60405190808252806020026020018201604052801561174a57816020015b6040805180820190915260008152606060208201528152602001906001900390816117225790505b5090508367ffffffffffffffff811115611766576117666124d1565b6040519080825280602002602001820160405280156117ac57816020015b6040805180820190915260008152606060208201528152602001906001900390816117845790505b50945060006117ba87611d8e565b905060005b85811015611990576000886020015182815181106117df576117df612ca8565b6020026020010151905060008960e00151838151811061180157611801612ca8565b60200260200101519050801561184d5760405180604001604052806000151581526020018381525089848151811061183b5761183b612ca8565b6020026020010181905250505061197e565b60006118638b60000151848d60a0015188611e25565b80945081925050506000806000806118808f60a001518887611ead565b935093509350935083156118f657828060200190518101906118a29190613224565b8b8d815181106118b4576118b4612ca8565b6020026020010181905250818a89815181106118d2576118d2612ca8565b60209081029190910101526118e860018d613000565b9b505050505050505061197e565b808015611904575088602001515b15611920578280602001905181019061191d9190613064565b92505b60405180604001604052808215158152602001848152508e898151811061194957611949612ca8565b6020026020010181905250868a898151811061196757611967612ca8565b602002602001015160200181905250505050505050505b8061198881613013565b9150506117bf565b50836000036119a3575050505050919050565b83835230876040015163a780bab660e01b856040516024016119c5919061331f565b604051602081830303815290604052906001600160e01b0319166020820180516001600160e01b03838183161783525050505089606001518a608001518b60a001518c604001518d60c0015189604051602001611a26959493929190613381565b60408051601f1981840301815290829052630556f18360e41b8252610b2c959493929160040161343e565b805160609060009081908490611a68816002613000565b67ffffffffffffffff811115611a8057611a806124d1565b6040519080825280601f01601f191660200182016040528015611aaa576020820181803683370190505b50945060009350808403611aef57600060f81b85600081518110611ad057611ad0612ca8565b60200101906001600160f81b031916908160001a905350505050915091565b60001981015b828181518110611b0757611b07612ca8565b01602001517fff00000000000000000000000000000000000000000000000000000000000000167f2e0000000000000000000000000000000000000000000000000000000000000003611bc9578360f81b868260010181518110611b6d57611b6d612ca8565b60200101906001600160f81b031916908160001a90535084611b96846001840160ff8816612065565b60408051602081019390935282015260600160405160208183030381529060405280519060200120945060009350611c19565b600184019350828181518110611be157611be1612ca8565b602001015160f81c60f81b868260010181518110611c0157611c01612ca8565b60200101906001600160f81b031916908160001a9053505b8015611c285760001901611af5565b5083611c3983600060ff8716612065565b6040805160208101939093528201526060016040516020818303038152906040528051906020012093508260f81b85600081518110611ad057611ad0612ca8565b6000806040611c898585613157565b1115611c9457600080fd5b600080611ca2878787612089565b9150915080611cba5750600092508291506104789050565b50602001516004858503604003021c915060019050935093915050565b60008083518310611d2a5760405162461bcd60e51b815260206004820152601e60248201527f726561644c6162656c3a20496e646578206f7574206f6620626f756e647300006044820152606401610b2c565b6000848481518110611d3e57611d3e612ca8565b016020015160f81c90508015611d6a57611d6385611d5d866001613000565b83612065565b9250611d6f565b600092505b611d798185613000565b611d84906001613000565b9150509250929050565b604080518082019091526000808252602082015281515160a0830151901590600090611dc190639061b92360e01b612217565b905083608001518015611dd2575080155b15611e09576040517f82c2c72800000000000000000000000000000000000000000000000000000000815260040160405180910390fd5b6040805180820190915291151582521515602082015292915050565b600060608260000151611ea157826020015115611e855760018686604051602401611e51929190612fbc565b60408051601f198184030181529190526020810180516001600160e01b0316639061b92360e01b1790529092509050610389565b611e9784611e928761302c565b612217565b8591509150610389565b50600195939450505050565b604080518082019091526000808252606060208301819052909160008415611ee057611ed9878761229c565b9050611ef0565b611eed878761c3506122b0565b90505b3d8115611f14576000611f04600083612343565b9095509350600191506108fa9050565b6004811061205b576000611f2a60006004612343565b90506000611f426004611f3d8186613157565b612343565b9050630556f18360e41b611f558361302c565b6001600160e01b0319160361202357600080600080600085806020019051810190611f809190613472565b945094509450945094508e6001600160a01b0316856001600160a01b031603612019576040518060600160405280866001600160a01b0316815260200185815260200184815250604051602001611fd79190613522565b60408051601f198184030181528282019091526001600160e01b03199093168152602081019190915260019b509099509750600096506108fa95505050505050565b5050505050612058565b8181604051602001612036929190613535565b60408051601f198184030181529190526000975095508693506108fa92505050565b50505b5093509350935093565b82516000906120748385613000565b111561207f57600080fd5b5091016020012090565b60606000806120988585613157565b90506120a560028261357a565b6001036120f45760405162461bcd60e51b815260206004820152601560248201527f496e76616c696420737472696e67206c656e67746800000000000000000000006044820152606401610b2c565b6120ff60028261358e565b67ffffffffffffffff811115612117576121176124d1565b6040519080825280601f01601f191660200182016040528015612141576020820181803683370190505b50925060019150855184111561215657600080fd5b6121a7565b6000603a8210602f831116156121735750602f190190565b6047821060408311161561218957506036190190565b6067821060608311161561219f57506056190190565b5060ff919050565b60208601855b8581101561220c576121c48183015160001a61215b565b6121d66001830184015160001a61215b565b60ff811460ff831417156121ef5760009550505061220c565b60049190911b1780600289840304870160200153506002016121ad565b505050935093915050565b6040516301ffc9a760e01b81526001600160e01b0319821660048201526000906001600160a01b038416906301ffc9a79061c350906024016020604051808303818786fa93505050508015612289575060408051601f3d908101601f19168201909252612286918101906135a2565b60015b61229557506000610356565b9050610356565b60006122a983835a6122b0565b9392505050565b60006001600160a01b0384163b61232f5760405162461bcd60e51b815260206004820152602e60248201527f4c6f774c6576656c43616c6c5574696c733a207374617469632063616c6c207460448201527f6f206e6f6e2d636f6e74726163740000000000000000000000000000000000006064820152608401610b2c565b6000808451602086018786fa949350505050565b60608167ffffffffffffffff81111561235e5761235e6124d1565b6040519080825280601f01601f191660200182016040528015612388576020820181803683370190505b5090508183602083013e92915050565b8280548282559060005260206000209081019282156123de579160200282015b828111156123de57825182906123ce908261360e565b50916020019190600101906123b8565b506123ea9291506123ee565b5090565b808211156123ea576000612402828261240b565b506001016123ee565b50805461241790612c6e565b6000825580601f10612427575050565b601f016020900490600052602060002090810190610b3e91905b808211156123ea5760008155600101612441565b6001600160e01b031981168114610b3e57600080fd5b60006020828403121561247d57600080fd5b81356122a981612455565b60008083601f84011261249a57600080fd5b50813567ffffffffffffffff8111156124b257600080fd5b6020830191508360208285010111156124ca57600080fd5b9250929050565b634e487b7160e01b600052604160045260246000fd5b6040805190810167ffffffffffffffff8111828210171561250a5761250a6124d1565b60405290565b604051601f8201601f1916810167ffffffffffffffff81118282101715612539576125396124d1565b604052919050565b600067ffffffffffffffff82111561255b5761255b6124d1565b50601f01601f191660200190565b600061257c61257784612541565b612510565b905082815283838301111561259057600080fd5b828260208301376000602084830101529392505050565b600082601f8301126125b857600080fd5b6122a983833560208501612569565b600067ffffffffffffffff8211156125e1576125e16124d1565b5060051b60200190565b600082601f8301126125fc57600080fd5b8135602061260c612577836125c7565b82815260059290921b8401810191818101908684111561262b57600080fd5b8286015b8481101561268057803567ffffffffffffffff81111561264f5760008081fd5b8701603f810189136126615760008081fd5b612672898683013560408401612569565b84525091830191830161262f565b509695505050505050565b600080600080606085870312156126a157600080fd5b843567ffffffffffffffff808211156126b957600080fd5b6126c588838901612488565b909650945060208701359150808211156126de57600080fd5b6126ea888389016125a7565b9350604087013591508082111561270057600080fd5b5061270d878288016125eb565b91505092959194509250565b60005b8381101561273457818101518382015260200161271c565b50506000910152565b60008151808452612755816020860160208601612719565b601f01601f19169290920160200192915050565b60408152600061277c604083018561273d565b90506001600160a01b03831660208301529392505050565b600082601f8301126127a557600080fd5b813560206127b5612577836125c7565b82815260059290921b840181019181810190868411156127d457600080fd5b8286015b8481101561268057803567ffffffffffffffff8111156127f85760008081fd5b6128068986838b01016125a7565b8452509183019183016127d8565b60008060006040848603121561282957600080fd5b833567ffffffffffffffff8082111561284157600080fd5b61284d87838801612488565b9095509350602086013591508082111561286657600080fd5b5061287386828701612794565b9150509250925092565b6000604080830181845280865180835260608601915060608160051b8701019250602080890160005b838110156128e757888603605f1901855281518051151587528301518387018890526128d48888018261273d565b96505093820193908201906001016128a6565b50508395506001600160a01b0388168188015250505050509392505050565b6000806000806040858703121561291c57600080fd5b843567ffffffffffffffff8082111561293457600080fd5b61294088838901612488565b9096509450602087013591508082111561295957600080fd5b5061296687828801612488565b95989497509550505050565b608081526000612985608083018761273d565b6001600160a01b0395861660208401529385166040830152509216606090920191909152919050565b600080600080606085870312156129c457600080fd5b843567ffffffffffffffff808211156129dc57600080fd5b6129e888838901612488565b90965094506020870135915080821115612a0157600080fd5b6126ea88838901612794565b60008060008060008060a08789031215612a2657600080fd5b863567ffffffffffffffff80821115612a3e57600080fd5b612a4a8a838b01612488565b90985096506020890135915080821115612a6357600080fd5b612a6f8a838b016125a7565b95506040890135915080821115612a8557600080fd5b612a918a838b016125eb565b945060608901359150612aa382612455565b90925060808801359080821115612ab957600080fd5b50612ac689828a016125a7565b9150509295509295509295565b600060208284031215612ae557600080fd5b813567ffffffffffffffff811115612afc57600080fd5b612b08848285016125eb565b949350505050565b600080600060408486031215612b2557600080fd5b833567ffffffffffffffff80821115612b3d57600080fd5b612b4987838801612488565b90955093506020860135915080821115612b6257600080fd5b50612873868287016125a7565b60008060208385031215612b8257600080fd5b823567ffffffffffffffff811115612b9957600080fd5b612ba585828601612488565b90969095509350505050565b600060208284031215612bc357600080fd5b5035919050565b6020815260006122a9602083018461273d565b600080600060408486031215612bf257600080fd5b833567ffffffffffffffff80821115612c0a57600080fd5b612c1687838801612488565b90955093506020860135915080821115612c2f57600080fd5b50612873868287016125eb565b6001600160a01b0381168114610b3e57600080fd5b600060208284031215612c6357600080fd5b81356122a981612c3c565b600181811c90821680612c8257607f821691505b602082108103612ca257634e487b7160e01b600052602260045260246000fd5b50919050565b634e487b7160e01b600052603260045260246000fd5b600082601f830112612ccf57600080fd5b8151612cdd61257782612541565b818152846020838601011115612cf257600080fd5b612b08826020830160208701612719565b60008060408385031215612d1657600080fd5b825167ffffffffffffffff811115612d2d57600080fd5b612d3985828601612cbe565b9250506020830151612d4a81612c3c565b809150509250929050565b600060208284031215612d6757600080fd5b81516122a981612c3c565b8015158114610b3e57600080fd5b60008060408385031215612d9357600080fd5b823567ffffffffffffffff80821115612dab57600080fd5b818501915085601f830112612dbf57600080fd5b81356020612dcf612577836125c7565b82815260059290921b84018101918181019089841115612dee57600080fd5b948201945b83861015612e15578535612e0681612d72565b82529482019490820190612df3565b96505086013592505080821115612e2b57600080fd5b50611d8485828601612794565b600080600080600060a08688031215612e5057600080fd5b612e5a8635612d72565b85359450612e6b6020870135612c3c565b6020860135935067ffffffffffffffff8060408801351115612e8c57600080fd5b612e9c88604089013589016125eb565b93508060608801351115612eaf57600080fd5b612ebf88606089013589016125a7565b92508060808801351115612ed257600080fd5b6080870135870188601f820112612ee857600080fd5b612ef561257782356125c7565b81358082526020808301929160051b8401018b1015612f1357600080fd5b602083015b6020843560051b850101811015612faa578481351115612f3757600080fd5b803584016040818e03601f19011215612f4f57600080fd5b612f576124e7565b612f646020830135612455565b602082013581528660408301351115612f7c57600080fd5b612f8f8e602060408501358501016125a7565b60208201528085525050602083019250602081019050612f18565b50809450505050509295509295909350565b604081526000612fcf604083018561273d565b8281036020840152612fe1818561273d565b95945050505050565b634e487b7160e01b600052601160045260246000fd5b8082018082111561035657610356612fea565b60006001820161302557613025612fea565b5060010190565b6000815160208301516001600160e01b03198082169350600483101561305c5780818460040360031b1b83161693505b505050919050565b60006020828403121561307657600080fd5b815167ffffffffffffffff81111561308d57600080fd5b612b0884828501612cbe565b600081518084526020808501808196508360051b8101915082860160005b858110156130e15782840389526130cf84835161273d565b988501989350908401906001016130b7565b5091979650505050505050565b60a08152600061310160a083018861273d565b8281036020840152613113818861273d565b905082810360408401526131278187613099565b90506001600160e01b031985166060840152828103608084015261314b818561273d565b98975050505050505050565b8181038181111561035657610356612fea565b6000808585111561317a57600080fd5b8386111561318757600080fd5b5050820193919092039150565b8183823760009101908152919050565b600082601f8301126131b557600080fd5b815160206131c5612577836125c7565b82815260059290921b840181019181810190868411156131e457600080fd5b8286015b8481101561268057805167ffffffffffffffff8111156132085760008081fd5b6132168986838b0101612cbe565b8452509183019183016131e8565b60006020828403121561323657600080fd5b815167ffffffffffffffff8082111561324e57600080fd5b908301906060828603121561326257600080fd5b60405160608101818110838211171561327d5761327d6124d1565b604052825161328b81612c3c565b815260208301518281111561329f57600080fd5b6132ab878286016131a4565b6020830152506040830151828111156132c357600080fd5b6132cf87828601612cbe565b60408301525095945050505050565b6001600160a01b03815116825260006020820151606060208501526133066060850182613099565b905060408301518482036040860152612fe1828261273d565b6000602080830181845280855180835260408601915060408160051b870101925083870160005b8281101561337457603f198886030184526133628583516132de565b94509285019290850190600101613346565b5092979650505050505050565b8515158152600060206001600160a01b03871681840152604060a0818501526133ad60a0850188613099565b84810360608601526133bf818861273d565b905084810360808601528086518083528483019150848160051b84010185890160005b8381101561342b57858303601f19018552815180516001600160e01b03191684528801518884018890526134188885018261273d565b95890195935050908701906001016133e2565b50909d9c50505050505050505050505050565b6001600160a01b038616815260a06020820152600061346060a0830187613099565b8281036040840152613127818761273d565b600080600080600060a0868803121561348a57600080fd5b855161349581612c3c565b602087015190955067ffffffffffffffff808211156134b357600080fd5b6134bf89838a016131a4565b955060408801519150808211156134d557600080fd5b6134e189838a01612cbe565b9450606088015191506134f382612455565b60808801519193508082111561350857600080fd5b5061351588828901612cbe565b9150509295509295909350565b6020815260006122a960208301846132de565b60008351613547818460208801612719565b83519083019061355b818360208801612719565b01949350505050565b634e487b7160e01b600052601260045260246000fd5b60008261358957613589613564565b500690565b60008261359d5761359d613564565b500490565b6000602082840312156135b457600080fd5b81516122a981612d72565b601f82111561360957600081815260208120601f850160051c810160208610156135e65750805b601f850160051c820191505b81811015613605578281556001016135f2565b5050505b505050565b815167ffffffffffffffff811115613628576136286124d1565b61363c816136368454612c6e565b846135bf565b602080601f83116001811461367157600084156136595750858301515b600019600386901b1c1916600185901b178555613605565b600085815260208120601f198616915b828110156136a057888601518255948401946001909101908401613681565b50858210156136be5787850151600019600388901b60f8161c191681555b5050505050600190811b0190555056fea2646970667358221220efed60767ddd542cd566878449437a2bdfd5578f7f5b2504144e7829e455b19764736f6c63430008110033",
  "linkReferences": {},
  "deployedLinkReferences": {}
}