{
	"data": {
		"bytecode": {
			"linkReferences": {},
			"object": "6101006040523480156200001257600080fd5b506040516200366f3803806200366f8339818101604052810190620000389190620002e5565b8473ffffffffffffffffffffffffffffffffffffffff1660c08173ffffffffffffffffffffffffffffffffffffffff16815250508373ffffffffffffffffffffffffffffffffffffffff1660e08173ffffffffffffffffffffffffffffffffffffffff16815250508273ffffffffffffffffffffffffffffffffffffffff1660a08173ffffffffffffffffffffffffffffffffffffffff1681525050816000806101000a81548173ffffffffffffffffffffffffffffffffffffffff021916908373ffffffffffffffffffffffffffffffffffffffff1602179055507f9176b7f47e4504df5e5516c99d90d82ac7cbd49cc77e7f22ba2ac2f2e3a3eba860008054906101000a900473ffffffffffffffffffffffffffffffffffffffff166040516200016591906200037e565b60405180910390a18073ffffffffffffffffffffffffffffffffffffffff1660808173ffffffffffffffffffffffffffffffffffffffff168152505050505050506200039b565b600080fd5b600073ffffffffffffffffffffffffffffffffffffffff82169050919050565b6000620001de82620001b1565b9050919050565b620001f081620001d1565b8114620001fc57600080fd5b50565b6000815190506200021081620001e5565b92915050565b60006200022382620001d1565b9050919050565b620002358162000216565b81146200024157600080fd5b50565b60008151905062000255816200022a565b92915050565b60006200026882620001d1565b9050919050565b6200027a816200025b565b81146200028657600080fd5b50565b6000815190506200029a816200026f565b92915050565b6000620002ad82620001d1565b9050919050565b620002bf81620002a0565b8114620002cb57600080fd5b50565b600081519050620002df81620002b4565b92915050565b600080600080600060a08688031215620003045762000303620001ac565b5b60006200031488828901620001ff565b95505060206200032788828901620001ff565b94505060406200033a8882890162000244565b93505060606200034d8882890162000289565b92505060806200036088828901620002ce565b9150509295509295909350565b6200037881620001d1565b82525050565b60006020820190506200039560008301846200036d565b92915050565b60805160a05160c05160e05161324d62000422600039600081816102fc01528181610f75015261102a01526000818161099e0152610dcb01526000818161097a01526109ca0152600081816103a70152818161057c0152818161079a0152818161086601528181610cf901528181610e2c01528181610f380152610feb015261324d6000f3fe608060405234801561001057600080fd5b50600436106100a95760003560e01c806329d566301161007157806329d566301461016457806330349ebe146101805780633f15457f1461019e5780636f951221146101bc5780637dc0d1d0146101ec578063ab14ec591461020a576100a9565b806301ffc9a7146100ae57806304f3bcec146100de57806306963218146100fc5780631ecfc4111461011857806325916d4114610134575b600080fd5b6100c860048036038101906100c391906120df565b610228565b6040516100d59190612127565b60405180910390f35b6100e66102fa565b6040516100f39190612183565b60405180910390f35b61011660048036038101906101119190612488565b61031e565b005b610132600480360381019061012d9190612565565b610578565b005b61014e600480360381019061014991906125c8565b610760565b60405161015b9190612614565b60405180910390f35b61017e6004803603810190610179919061262f565b610783565b005b610188610840565b6040516101959190612706565b60405180910390f35b6101a6610864565b6040516101b39190612742565b60405180910390f35b6101d660048036038101906101d1919061275d565b610888565b6040516101e391906127b5565b60405180910390f35b6101f4610978565b60405161020191906127f1565b60405180910390f35b61021261099c565b60405161021f9190612183565b60405180910390f35b60007f01ffc9a7000000000000000000000000000000000000000000000000000000007bffffffffffffffffffffffffffffffffffffffffffffffffffffffff1916827bffffffffffffffffffffffffffffffffffffffffffffffffffffffff191614806102f357507f2f435428000000000000000000000000000000000000000000000000000000007bffffffffffffffffffffffffffffffffffffffffffffffffffffffff1916827bffffffffffffffffffffffffffffffffffffffffffffffffffffffff1916145b9050919050565b7f000000000000000000000000000000000000000000000000000000000000000081565b600080600061032d87876109c0565b9250925092508073ffffffffffffffffffffffffffffffffffffffff163373ffffffffffffffffffffffffffffffffffffffff16146103a55733816040517fe03f602400000000000000000000000000000000000000000000000000000000815260040161039c92919061280c565b60405180910390fd5b7f000000000000000000000000000000000000000000000000000000000000000073ffffffffffffffffffffffffffffffffffffffff16635ef2c7f08484848960006040518663ffffffff1660e01b8152600401610407959493929190612884565b600060405180830381600087803b15801561042157600080fd5b505af1158015610435573d6000803e3d6000fd5b50505050600073ffffffffffffffffffffffffffffffffffffffff168473ffffffffffffffffffffffffffffffffffffffff161461056f57600073ffffffffffffffffffffffffffffffffffffffff168573ffffffffffffffffffffffffffffffffffffffff16036104d3576040517ff1613c4c00000000000000000000000000000000000000000000000000000000815260040160405180910390fd5b600083836040516020016104e89291906128f8565b6040516020818303038152906040528051906020012090508573ffffffffffffffffffffffffffffffffffffffff1663d5fa2b0082876040518363ffffffff1660e01b815260040161053b929190612924565b600060405180830381600087803b15801561055557600080fd5b505af1158015610569573d6000803e3d6000fd5b50505050505b50505050505050565b60007f000000000000000000000000000000000000000000000000000000000000000073ffffffffffffffffffffffffffffffffffffffff166302571be36000801b6040518263ffffffff1660e01b81526004016105d691906127b5565b602060405180830381865afa1580156105f3573d6000803e3d6000fd5b505050506040513d601f19601f820116820180604052508101906106179190612962565b905060008173ffffffffffffffffffffffffffffffffffffffff16638da5cb5b6040518163ffffffff1660e01b8152600401602060405180830381865afa158015610666573d6000803e3d6000fd5b505050506040513d601f19601f8201168201806040525081019061068a9190612962565b90508073ffffffffffffffffffffffffffffffffffffffff163373ffffffffffffffffffffffffffffffffffffffff16146106c457600080fd5b826000806101000a81548173ffffffffffffffffffffffffffffffffffffffff021916908373ffffffffffffffffffffffffffffffffffffffff1602179055507f9176b7f47e4504df5e5516c99d90d82ac7cbd49cc77e7f22ba2ac2f2e3a3eba860008054906101000a900473ffffffffffffffffffffffffffffffffffffffff166040516107539190612183565b60405180910390a1505050565b60016020528060005260406000206000915054906101000a900463ffffffff1681565b600080600061079285856109c0565b9250925092507f000000000000000000000000000000000000000000000000000000000000000073ffffffffffffffffffffffffffffffffffffffff166306ab59238484846040518463ffffffff1660e01b81526004016107f59392919061298f565b6020604051808303816000875af1158015610814573d6000803e3d6000fd5b505050506040513d601f19601f8201168201806040525081019061083891906129db565b505050505050565b60008054906101000a900473ffffffffffffffffffffffffffffffffffffffff1681565b7f000000000000000000000000000000000000000000000000000000000000000081565b60008060009054906101000a900473ffffffffffffffffffffffffffffffffffffffff1673ffffffffffffffffffffffffffffffffffffffff16634f89059e836040518263ffffffff1660e01b81526004016108e49190612a87565b602060405180830381865afa158015610901573d6000803e3d6000fd5b505050506040513d601f19601f820116820180604052508101906109259190612ad5565b61096657816040517f396e24b800000000000000000000000000000000000000000000000000000000815260040161095d9190612a87565b60405180910390fd5b610971826000610c51565b9050919050565b7f000000000000000000000000000000000000000000000000000000000000000081565b7f000000000000000000000000000000000000000000000000000000000000000081565b60008060008060007f000000000000000000000000000000000000000000000000000000000000000073ffffffffffffffffffffffffffffffffffffffff1663bdf95fef876040518263ffffffff1660e01b8152600401610a219190612c52565b600060405180830381865afa158015610a3e573d6000803e3d6000fd5b505050506040513d6000823e3d601f19601f82011682018060405250810190610a679190612d10565b915091506000610a8160008961111490919063ffffffff16565b60ff169050610a9c6001828a61113f9092919063ffffffff16565b94506000610ad9600183610ab09190612da5565b6001848c51610abf9190612dd9565b610ac99190612dd9565b8b61116b9092919063ffffffff16565b9050610ae481610888565b965060008787604051602001610afb9291906128f8565b604051602081830303815290604052805190602001209050610b40846001600084815260200190815260200160002060009054906101000a900463ffffffff16611200565b610b76576040517f2dd6a7af00000000000000000000000000000000000000000000000000000000815260040160405180910390fd5b836001600083815260200190815260200160002060006101000a81548163ffffffff021916908363ffffffff1602179055506000610bb48b87611213565b809250819850505080610bf3576040517f6260f6f800000000000000000000000000000000000000000000000000000000815260040160405180910390fd5b8673ffffffffffffffffffffffffffffffffffffffff16827f87db02a0e483e2818060eddcbb3488ce44e35aff49a70d92c2aa6c8046cf01e28d88604051610c3c929190612e0d565b60405180910390a35050505050509250925092565b600080610c67838561111490919063ffffffff16565b60ff16905060008103610c80576000801b91505061110e565b6000610ca38560018487610c949190612da5565b610c9e9190612da5565b610c51565b90506000610cc8600186610cb79190612da5565b848861113f9092919063ffffffff16565b90508181604051602001610cdd9291906128f8565b60405160208183030381529060405280519060200120935060007f000000000000000000000000000000000000000000000000000000000000000073ffffffffffffffffffffffffffffffffffffffff166302571be3866040518263ffffffff1660e01b8152600401610d5091906127b5565b602060405180830381865afa158015610d6d573d6000803e3d6000fd5b505050506040513d601f19601f82011682018060405250810190610d919190612962565b9050600073ffffffffffffffffffffffffffffffffffffffff168173ffffffffffffffffffffffffffffffffffffffff161480610e1957507f000000000000000000000000000000000000000000000000000000000000000073ffffffffffffffffffffffffffffffffffffffff168173ffffffffffffffffffffffffffffffffffffffff16145b156110a3576000801b8303610fe95760007f000000000000000000000000000000000000000000000000000000000000000073ffffffffffffffffffffffffffffffffffffffff166302571be36000801b6040518263ffffffff1660e01b8152600401610e8691906127b5565b602060405180830381865afa158015610ea3573d6000803e3d6000fd5b505050506040513d601f19601f82011682018060405250810190610ec79190612962565b90508073ffffffffffffffffffffffffffffffffffffffff16638cb8ecec84306040518363ffffffff1660e01b8152600401610f04929190612924565b600060405180830381600087803b158015610f1e57600080fd5b505af1158015610f32573d6000803e3d6000fd5b505050507f000000000000000000000000000000000000000000000000000000000000000073ffffffffffffffffffffffffffffffffffffffff16631896f70a877f00000000000000000000000000000000000000000000000000000000000000006040518363ffffffff1660e01b8152600401610fb1929190612924565b600060405180830381600087803b158015610fcb57600080fd5b505af1158015610fdf573d6000803e3d6000fd5b505050505061109e565b7f000000000000000000000000000000000000000000000000000000000000000073ffffffffffffffffffffffffffffffffffffffff16635ef2c7f08484307f000000000000000000000000000000000000000000000000000000000000000060006040518663ffffffff1660e01b815260040161106b959493929190612884565b600060405180830381600087803b15801561108557600080fd5b505af1158015611099573d6000803e3d6000fd5b505050505b611109565b3073ffffffffffffffffffffffffffffffffffffffff168173ffffffffffffffffffffffffffffffffffffffff1614611108576040517ff1613c4c00000000000000000000000000000000000000000000000000000000815260040160405180910390fd5b5b505050505b92915050565b600082828151811061112957611128612e3d565b5b602001015160f81c60f81b60f81c905092915050565b60008351828461114f9190612da5565b111561115a57600080fd5b818360208601012090509392505050565b60608351828461117b9190612da5565b111561118657600080fd5b60008267ffffffffffffffff8111156111a2576111a16121b9565b5b6040519080825280601f01601f1916602001820160405280156111d45781602001600182028036833780820191505090505b50905060008060208301915085602088010190506111f382828761133e565b8293505050509392505050565b60008082840360030b1215905092915050565b60008061121e61200e565b61123e6005865161122f9190612da5565b826113a290919063ffffffff16565b506112876040518060400160405280600581526020017f045f656e730000000000000000000000000000000000000000000000000000008152508261141b90919063ffffffff16565b5061129b858261141b90919063ffffffff16565b5060006112b260008661143790919063ffffffff16565b90505b6112be81611461565b61132d5760006112e383600001516112d584611477565b6114ae90919063ffffffff16565b0361131f576000806112fe878460a001518560c00151611660565b8093508192505050811561131c578060019550955050505050611337565b50505b611328816116e6565b6112b5565b5060008092509250505b9250929050565b5b6020811061137d57815183526020836113589190612da5565b92506020826113679190612da5565b91506020816113769190612dd9565b905061133f565b60006001826020036101000a0390508019835116818551168181178652505050505050565b6113aa61200e565b60006020836113b99190612e9b565b146113e5576020826113cb9190612e9b565b60206113d79190612dd9565b826113e29190612da5565b91505b81836020018181525050604051808452600081528281016020018181101561140c57600080fd5b80604052505082905092915050565b61142361200e565b61142f8383845161182c565b905092915050565b61143f612028565b828160000181905250818160c001818152505061145b816116e6565b92915050565b6000816000015151826020015110159050919050565b60606114a782602001516114938460000151856020015161190f565b846000015161116b9092919063ffffffff16565b9050919050565b60006114c3828461198b90919063ffffffff16565b156114d1576000905061165a565b60008060008060006114e48860006119b2565b905060006114f38860006119b2565b90505b808211156115205785935061150b8987611a33565b9550818061151890612ecc565b9250506114f6565b5b8181111561154b578492506115368886611a33565b9450808061154390612ecc565b915050611521565b5b600082118015611570575061156e8689878c611a6a909392919063ffffffff16565b155b156115a7578593506115828987611a33565b95508492506115918886611a33565b94506001826115a09190612dd9565b915061154c565b600086036115dd577fffffffffffffffffffffffffffffffffffffffffffffffffffffffffffffffff965050505050505061165a565b600085036115f4576001965050505050505061165a565b6116516001856116049190612da5565b611617868c61111490919063ffffffff16565b60ff168a6001876116289190612da5565b61163b888e61111490919063ffffffff16565b60ff168e611aa59095949392919063ffffffff16565b96505050505050505b92915050565b6000805b828410156116d6576000611681858761111490919063ffffffff16565b60ff1690506001856116939190612da5565b94506000806116a3888885611ca3565b809350819250505081156116c057806001945094505050506116de565b82876116cc9190612da5565b9650505050611664565b600080915091505b935093915050565b8060c00151816020018181525050806000015151816020015110156118295760006117198260000151836020015161190f565b82602001516117289190612da5565b9050611741818360000151611d0e90919063ffffffff16565b826040019061ffff16908161ffff16815250506002816117619190612da5565b905061177a818360000151611d0e90919063ffffffff16565b826060019061ffff16908161ffff168152505060028161179a9190612da5565b90506117b3818360000151611d3d90919063ffffffff16565b826080019063ffffffff16908163ffffffff16815250506004816117d79190612da5565b905060006117f2828460000151611d0e90919063ffffffff16565b61ffff1690506002826118059190612da5565b9150818360a0018181525050808261181d9190612da5565b8360c001818152505050505b50565b61183461200e565b825182111561184257600080fd5b600084600001515190506000838261185a9190612da5565b9050856020015181111561187f5761187e866002836118799190612ef5565b611d6e565b5b6000808751805185602083010193508085111561189a578482525b60208901925050505b602086106118e157805182526020826118bc9190612da5565b91506020816118cb9190612da5565b90506020866118da9190612dd9565b95506118a3565b60006001876020036101000a0390508019825116818451168181178552505050879450505050509392505050565b6000808290505b600115611976578351811061192e5761192d612f37565b5b6000611943828661111490919063ffffffff16565b60ff1690506001816119559190612da5565b826119609190612da5565b9150600081036119705750611976565b50611916565b82816119829190612dd9565b91505092915050565b6000815183511480156119aa57506119a98360008460008751611d92565b5b905092915050565b600080600090505b600115611a2957835183106119d2576119d1612f37565b5b60006119e7848661111490919063ffffffff16565b60ff1690506001816119f99190612da5565b84611a049190612da5565b935060008103611a145750611a29565b600182611a219190612da5565b9150506119ba565b8091505092915050565b6000611a48828461111490919063ffffffff16565b60ff16600183611a589190612da5565b611a629190612da5565b905092915050565b6000611a838383848651611a7e9190612dd9565b61113f565b611a9a8686878951611a959190612dd9565b61113f565b149050949350505050565b600086518587611ab59190612da5565b1115611b06578486611ac79190612da5565b87516040517f8a3c1cfb000000000000000000000000000000000000000000000000000000008152600401611afd929190612f75565b60405180910390fd5b83518284611b149190612da5565b1115611b65578183611b269190612da5565b84516040517f8a3c1cfb000000000000000000000000000000000000000000000000000000008152600401611b5c929190612f75565b60405180910390fd5b600085905085831015611b76578290505b600080602089018a019150602086018701905060005b83811015611c86576000808451915083519050808214611c5257600060208488611bb69190612dd9565b10611be3577fffffffffffffffffffffffffffffffffffffffffffffffffffffffffffffffff9050611c23565b600187602086611bf39190612da5565b611bfd9190612dd9565b6008611c099190612ef5565b6002611c1591906130d1565b611c1f9190612dd9565b1990505b6000818316828516611c359190613126565b905060008114611c4f578098505050505050505050611c99565b50505b602085611c5f9190612da5565b9450602084611c6e9190612da5565b93505050602081611c7f9190612da5565b9050611b8c565b508488611c939190613126565b93505050505b9695505050505050565b60008063613d3078611cbe8587611d3d90919063ffffffff16565b63ffffffff1614611cd55760008091509150611d06565b611d01600485611ce59190612da5565b8486611cf19190612da5565b87611db69092919063ffffffff16565b915091505b935093915050565b60008251600283611d1f9190612da5565b1115611d2a57600080fd5b61ffff8260028501015116905092915050565b60008251600483611d4e9190612da5565b1115611d5957600080fd5b63ffffffff8260048501015116905092915050565b600082600001519050611d8183836113a2565b50611d8c838261141b565b50505050565b6000611d9f84848461113f565b611daa87878561113f565b14905095945050505050565b60008060288484611dc79190612dd9565b1015611dd95760008091509150611df7565b600080611de7878787611dff565b915091508160001c819350935050505b935093915050565b60008060408484611e109190612dd9565b1115611e1b57600080fd5b600080611e29878787611e69565b9150915080611e43576000801b6000935093505050611e61565b600060208301518787036040036004021c9050806001945094505050505b935093915050565b60606000808484611e7a9190612dd9565b90506001600282611e8b9190612e9b565b03611ecb576040517f08c379a0000000000000000000000000000000000000000000000000000000008152600401611ec2906131c6565b60405180910390fd5b600281611ed891906131e6565b67ffffffffffffffff811115611ef157611ef06121b9565b5b6040519080825280601f01601f191660200182016040528015611f235781602001600182028036833780820191505090505b509250600191508551841115611f3857600080fd5b611f9a565b6000603a8210602f83111615611f5857603082039050611f95565b60478210604083111615611f7457600a60418303019050611f95565b60678210606083111615611f9057600a60618303019050611f95565b60ff90505b919050565b60208601855b8581101561200357611fb78183015160001a611f3d565b611fc96001830184015160001a611f3d565b60ff811460ff83141715611fe257600095505050612003565b808260041b178060028b86030460208a010153505050600281019050611fa0565b505050935093915050565b604051806040016040528060608152602001600081525090565b6040518060e001604052806060815260200160008152602001600061ffff168152602001600061ffff168152602001600063ffffffff16815260200160008152602001600081525090565b6000604051905090565b600080fd5b600080fd5b60007fffffffff0000000000000000000000000000000000000000000000000000000082169050919050565b6120bc81612087565b81146120c757600080fd5b50565b6000813590506120d9816120b3565b92915050565b6000602082840312156120f5576120f461207d565b5b6000612103848285016120ca565b91505092915050565b60008115159050919050565b6121218161210c565b82525050565b600060208201905061213c6000830184612118565b92915050565b600073ffffffffffffffffffffffffffffffffffffffff82169050919050565b600061216d82612142565b9050919050565b61217d81612162565b82525050565b60006020820190506121986000830184612174565b92915050565b600080fd5b600080fd5b6000601f19601f8301169050919050565b7f4e487b7100000000000000000000000000000000000000000000000000000000600052604160045260246000fd5b6121f1826121a8565b810181811067ffffffffffffffff821117156122105761220f6121b9565b5b80604052505050565b6000612223612073565b905061222f82826121e8565b919050565b600067ffffffffffffffff82111561224f5761224e6121b9565b5b612258826121a8565b9050602081019050919050565b82818337600083830152505050565b600061228761228284612234565b612219565b9050828152602081018484840111156122a3576122a26121a3565b5b6122ae848285612265565b509392505050565b600082601f8301126122cb576122ca61219e565b5b81356122db848260208601612274565b91505092915050565b600067ffffffffffffffff8211156122ff576122fe6121b9565b5b602082029050602081019050919050565b600080fd5b600080fd5b600080fd5b60006040828403121561233557612334612315565b5b61233f6040612219565b9050600082013567ffffffffffffffff81111561235f5761235e61231a565b5b61236b848285016122b6565b600083015250602082013567ffffffffffffffff81111561238f5761238e61231a565b5b61239b848285016122b6565b60208301525092915050565b60006123ba6123b5846122e4565b612219565b905080838252602082019050602084028301858111156123dd576123dc612310565b5b835b8181101561242457803567ffffffffffffffff8111156124025761240161219e565b5b80860161240f898261231f565b855260208501945050506020810190506123df565b5050509392505050565b600082601f8301126124435761244261219e565b5b81356124538482602086016123a7565b91505092915050565b61246581612162565b811461247057600080fd5b50565b6000813590506124828161245c565b92915050565b600080600080608085870312156124a2576124a161207d565b5b600085013567ffffffffffffffff8111156124c0576124bf612082565b5b6124cc878288016122b6565b945050602085013567ffffffffffffffff8111156124ed576124ec612082565b5b6124f98782880161242e565b935050604061250a87828801612473565b925050606061251b87828801612473565b91505092959194509250565b600061253282612162565b9050919050565b61254281612527565b811461254d57600080fd5b50565b60008135905061255f81612539565b92915050565b60006020828403121561257b5761257a61207d565b5b600061258984828501612550565b91505092915050565b6000819050919050565b6125a581612592565b81146125b057600080fd5b50565b6000813590506125c28161259c565b92915050565b6000602082840312156125de576125dd61207d565b5b60006125ec848285016125b3565b91505092915050565b600063ffffffff82169050919050565b61260e816125f5565b82525050565b60006020820190506126296000830184612605565b92915050565b600080604083850312156126465761264561207d565b5b600083013567ffffffffffffffff81111561266457612663612082565b5b612670858286016122b6565b925050602083013567ffffffffffffffff81111561269157612690612082565b5b61269d8582860161242e565b9150509250929050565b6000819050919050565b60006126cc6126c76126c284612142565b6126a7565b612142565b9050919050565b60006126de826126b1565b9050919050565b60006126f0826126d3565b9050919050565b612700816126e5565b82525050565b600060208201905061271b60008301846126f7565b92915050565b600061272c826126d3565b9050919050565b61273c81612721565b82525050565b60006020820190506127576000830184612733565b92915050565b6000602082840312156127735761277261207d565b5b600082013567ffffffffffffffff81111561279157612790612082565b5b61279d848285016122b6565b91505092915050565b6127af81612592565b82525050565b60006020820190506127ca60008301846127a6565b92915050565b60006127db826126d3565b9050919050565b6127eb816127d0565b82525050565b600060208201905061280660008301846127e2565b92915050565b60006040820190506128216000830185612174565b61282e6020830184612174565b9392505050565b6000819050919050565b600067ffffffffffffffff82169050919050565b600061286e61286961286484612835565b6126a7565b61283f565b9050919050565b61287e81612853565b82525050565b600060a08201905061289960008301886127a6565b6128a660208301876127a6565b6128b36040830186612174565b6128c06060830185612174565b6128cd6080830184612875565b9695505050505050565b6000819050919050565b6128f26128ed82612592565b6128d7565b82525050565b600061290482856128e1565b60208201915061291482846128e1565b6020820191508190509392505050565b600060408201905061293960008301856127a6565b6129466020830184612174565b9392505050565b60008151905061295c8161245c565b92915050565b6000602082840312156129785761297761207d565b5b60006129868482850161294d565b91505092915050565b60006060820190506129a460008301866127a6565b6129b160208301856127a6565b6129be6040830184612174565b949350505050565b6000815190506129d58161259c565b92915050565b6000602082840312156129f1576129f061207d565b5b60006129ff848285016129c6565b91505092915050565b600081519050919050565b600082825260208201905092915050565b60005b83811015612a42578082015181840152602081019050612a27565b60008484015250505050565b6000612a5982612a08565b612a638185612a13565b9350612a73818560208601612a24565b612a7c816121a8565b840191505092915050565b60006020820190508181036000830152612aa18184612a4e565b905092915050565b612ab28161210c565b8114612abd57600080fd5b50565b600081519050612acf81612aa9565b92915050565b600060208284031215612aeb57612aea61207d565b5b6000612af984828501612ac0565b91505092915050565b600081519050919050565b600082825260208201905092915050565b6000819050602082019050919050565b600082825260208201905092915050565b6000612b4a82612a08565b612b548185612b2e565b9350612b64818560208601612a24565b612b6d816121a8565b840191505092915050565b60006040830160008301518482036000860152612b958282612b3f565b91505060208301518482036020860152612baf8282612b3f565b9150508091505092915050565b6000612bc88383612b78565b905092915050565b6000602082019050919050565b6000612be882612b02565b612bf28185612b0d565b935083602082028501612c0485612b1e565b8060005b85811015612c405784840389528151612c218582612bbc565b9450612c2c83612bd0565b925060208a01995050600181019050612c08565b50829750879550505050505092915050565b60006020820190508181036000830152612c6c8184612bdd565b905092915050565b6000612c87612c8284612234565b612219565b905082815260208101848484011115612ca357612ca26121a3565b5b612cae848285612a24565b509392505050565b600082601f830112612ccb57612cca61219e565b5b8151612cdb848260208601612c74565b91505092915050565b612ced816125f5565b8114612cf857600080fd5b50565b600081519050612d0a81612ce4565b92915050565b60008060408385031215612d2757612d2661207d565b5b600083015167ffffffffffffffff811115612d4557612d44612082565b5b612d5185828601612cb6565b9250506020612d6285828601612cfb565b9150509250929050565b6000819050919050565b7f4e487b7100000000000000000000000000000000000000000000000000000000600052601160045260246000fd5b6000612db082612d6c565b9150612dbb83612d6c565b9250828201905080821115612dd357612dd2612d76565b5b92915050565b6000612de482612d6c565b9150612def83612d6c565b9250828203905081811115612e0757612e06612d76565b5b92915050565b60006040820190508181036000830152612e278185612a4e565b9050612e366020830184612605565b9392505050565b7f4e487b7100000000000000000000000000000000000000000000000000000000600052603260045260246000fd5b7f4e487b7100000000000000000000000000000000000000000000000000000000600052601260045260246000fd5b6000612ea682612d6c565b9150612eb183612d6c565b925082612ec157612ec0612e6c565b5b828206905092915050565b6000612ed782612d6c565b915060008203612eea57612ee9612d76565b5b600182039050919050565b6000612f0082612d6c565b9150612f0b83612d6c565b9250828202612f1981612d6c565b91508282048414831517612f3057612f2f612d76565b5b5092915050565b7f4e487b7100000000000000000000000000000000000000000000000000000000600052600160045260246000fd5b612f6f81612d6c565b82525050565b6000604082019050612f8a6000830185612f66565b612f976020830184612f66565b9392505050565b60008160011c9050919050565b6000808291508390505b6001851115612ff557808604811115612fd157612fd0612d76565b5b6001851615612fe05780820291505b8081029050612fee85612f9e565b9450612fb5565b94509492505050565b60008261300e57600190506130ca565b8161301c57600090506130ca565b8160018114613032576002811461303c5761306b565b60019150506130ca565b60ff84111561304e5761304d612d76565b5b8360020a91508482111561306557613064612d76565b5b506130ca565b5060208310610133831016604e8410600b84101617156130a05782820a90508381111561309b5761309a612d76565b5b6130ca565b6130ad8484846001612fab565b925090508184048111156130c4576130c3612d76565b5b81810290505b9392505050565b60006130dc82612d6c565b91506130e783612d6c565b92506131147fffffffffffffffffffffffffffffffffffffffffffffffffffffffffffffffff8484612ffe565b905092915050565b6000819050919050565b60006131318261311c565b915061313c8361311c565b925082820390508181126000841216828213600085121516171561316357613162612d76565b5b92915050565b600082825260208201905092915050565b7f496e76616c696420737472696e67206c656e6774680000000000000000000000600082015250565b60006131b0601583613169565b91506131bb8261317a565b602082019050919050565b600060208201905081810360008301526131df816131a3565b9050919050565b60006131f182612d6c565b91506131fc83612d6c565b92508261320c5761320b612e6c565b5b82820490509291505056fea26469706673582212208180890e195a5b151b6be3906ecee3bbf0af4d5f78229ff0448d9a3c1b24eb5c64736f6c63430008140033",
			"opcodes": "PUSH2 0x100 PUSH1 0x40 MSTORE CALLVALUE DUP1 ISZERO PUSH3 0x12 JUMPI PUSH1 0x0 DUP1 REVERT JUMPDEST POP PUSH1 0x40 MLOAD PUSH3 0x366F CODESIZE SUB DUP1 PUSH3 0x366F DUP4 CODECOPY DUP2 DUP2 ADD PUSH1 0x40 MSTORE DUP2 ADD SWAP1 PUSH3 0x38 SWAP2 SWAP1 PUSH3 0x2E5 JUMP JUMPDEST DUP5 PUSH20 0xFFFFFFFFFFFFFFFFFFFFFFFFFFFFFFFFFFFFFFFF AND PUSH1 0xC0 DUP2 PUSH20 0xFFFFFFFFFFFFFFFFFFFFFFFFFFFFFFFFFFFFFFFF AND DUP2 MSTORE POP POP DUP4 PUSH20 0xFFFFFFFFFFFFFFFFFFFFFFFFFFFFFFFFFFFFFFFF AND PUSH1 0xE0 DUP2 PUSH20 0xFFFFFFFFFFFFFFFFFFFFFFFFFFFFFFFFFFFFFFFF AND DUP2 MSTORE POP POP DUP3 PUSH20 0xFFFFFFFFFFFFFFFFFFFFFFFFFFFFFFFFFFFFFFFF AND PUSH1 0xA0 DUP2 PUSH20 0xFFFFFFFFFFFFFFFFFFFFFFFFFFFFFFFFFFFFFFFF AND DUP2 MSTORE POP POP DUP2 PUSH1 0x0 DUP1 PUSH2 0x100 EXP DUP2 SLOAD DUP2 PUSH20 0xFFFFFFFFFFFFFFFFFFFFFFFFFFFFFFFFFFFFFFFF MUL NOT AND SWAP1 DUP4 PUSH20 0xFFFFFFFFFFFFFFFFFFFFFFFFFFFFFFFFFFFFFFFF AND MUL OR SWAP1 SSTORE POP PUSH32 0x9176B7F47E4504DF5E5516C99D90D82AC7CBD49CC77E7F22BA2AC2F2E3A3EBA8 PUSH1 0x0 DUP1 SLOAD SWAP1 PUSH2 0x100 EXP SWAP1 DIV PUSH20 0xFFFFFFFFFFFFFFFFFFFFFFFFFFFFFFFFFFFFFFFF AND PUSH1 0x40 MLOAD PUSH3 0x165 SWAP2 SWAP1 PUSH3 0x37E JUMP JUMPDEST PUSH1 0x40 MLOAD DUP1 SWAP2 SUB SWAP1 LOG1 DUP1 PUSH20 0xFFFFFFFFFFFFFFFFFFFFFFFFFFFFFFFFFFFFFFFF AND PUSH1 0x80 DUP2 PUSH20 0xFFFFFFFFFFFFFFFFFFFFFFFFFFFFFFFFFFFFFFFF AND DUP2 MSTORE POP POP POP POP POP POP POP PUSH3 0x39B JUMP JUMPDEST PUSH1 0x0 DUP1 REVERT JUMPDEST PUSH1 0x0 PUSH20 0xFFFFFFFFFFFFFFFFFFFFFFFFFFFFFFFFFFFFFFFF DUP3 AND SWAP1 POP SWAP2 SWAP1 POP JUMP JUMPDEST PUSH1 0x0 PUSH3 0x1DE DUP3 PUSH3 0x1B1 JUMP JUMPDEST SWAP1 POP SWAP2 SWAP1 POP JUMP JUMPDEST PUSH3 0x1F0 DUP2 PUSH3 0x1D1 JUMP JUMPDEST DUP2 EQ PUSH3 0x1FC JUMPI PUSH1 0x0 DUP1 REVERT JUMPDEST POP JUMP JUMPDEST PUSH1 0x0 DUP2 MLOAD SWAP1 POP PUSH3 0x210 DUP2 PUSH3 0x1E5 JUMP JUMPDEST SWAP3 SWAP2 POP POP JUMP JUMPDEST PUSH1 0x0 PUSH3 0x223 DUP3 PUSH3 0x1D1 JUMP JUMPDEST SWAP1 POP SWAP2 SWAP1 POP JUMP JUMPDEST PUSH3 0x235 DUP2 PUSH3 0x216 JUMP JUMPDEST DUP2 EQ PUSH3 0x241 JUMPI PUSH1 0x0 DUP1 REVERT JUMPDEST POP JUMP JUMPDEST PUSH1 0x0 DUP2 MLOAD SWAP1 POP PUSH3 0x255 DUP2 PUSH3 0x22A JUMP JUMPDEST SWAP3 SWAP2 POP POP JUMP JUMPDEST PUSH1 0x0 PUSH3 0x268 DUP3 PUSH3 0x1D1 JUMP JUMPDEST SWAP1 POP SWAP2 SWAP1 POP JUMP JUMPDEST PUSH3 0x27A DUP2 PUSH3 0x25B JUMP JUMPDEST DUP2 EQ PUSH3 0x286 JUMPI PUSH1 0x0 DUP1 REVERT JUMPDEST POP JUMP JUMPDEST PUSH1 0x0 DUP2 MLOAD SWAP1 POP PUSH3 0x29A DUP2 PUSH3 0x26F JUMP JUMPDEST SWAP3 SWAP2 POP POP JUMP JUMPDEST PUSH1 0x0 PUSH3 0x2AD DUP3 PUSH3 0x1D1 JUMP JUMPDEST SWAP1 POP SWAP2 SWAP1 POP JUMP JUMPDEST PUSH3 0x2BF DUP2 PUSH3 0x2A0 JUMP JUMPDEST DUP2 EQ PUSH3 0x2CB JUMPI PUSH1 0x0 DUP1 REVERT JUMPDEST POP JUMP JUMPDEST PUSH1 0x0 DUP2 MLOAD SWAP1 POP PUSH3 0x2DF DUP2 PUSH3 0x2B4 JUMP JUMPDEST SWAP3 SWAP2 POP POP JUMP JUMPDEST PUSH1 0x0 DUP1 PUSH1 0x0 DUP1 PUSH1 0x0 PUSH1 0xA0 DUP7 DUP9 SUB SLT ISZERO PUSH3 0x304 JUMPI PUSH3 0x303 PUSH3 0x1AC JUMP JUMPDEST JUMPDEST PUSH1 0x0 PUSH3 0x314 DUP9 DUP3 DUP10 ADD PUSH3 0x1FF JUMP JUMPDEST SWAP6 POP POP PUSH1 0x20 PUSH3 0x327 DUP9 DUP3 DUP10 ADD PUSH3 0x1FF JUMP JUMPDEST SWAP5 POP POP PUSH1 0x40 PUSH3 0x33A DUP9 DUP3 DUP10 ADD PUSH3 0x244 JUMP JUMPDEST SWAP4 POP POP PUSH1 0x60 PUSH3 0x34D DUP9 DUP3 DUP10 ADD PUSH3 0x289 JUMP JUMPDEST SWAP3 POP POP PUSH1 0x80 PUSH3 0x360 DUP9 DUP3 DUP10 ADD PUSH3 0x2CE JUMP JUMPDEST SWAP2 POP POP SWAP3 SWAP6 POP SWAP3 SWAP6 SWAP1 SWAP4 POP JUMP JUMPDEST PUSH3 0x378 DUP2 PUSH3 0x1D1 JUMP JUMPDEST DUP3 MSTORE POP POP JUMP JUMPDEST PUSH1 0x0 PUSH1 0x20 DUP3 ADD SWAP1 POP PUSH3 0x395 PUSH1 0x0 DUP4 ADD DUP5 PUSH3 0x36D JUMP JUMPDEST SWAP3 SWAP2 POP POP JUMP JUMPDEST PUSH1 0x80 MLOAD PUSH1 0xA0 MLOAD PUSH1 0xC0 MLOAD PUSH1 0xE0 MLOAD PUSH2 0x324D PUSH3 0x422 PUSH1 0x0 CODECOPY PUSH1 0x0 DUP2 DUP2 PUSH2 0x2FC ADD MSTORE DUP2 DUP2 PUSH2 0xF75 ADD MSTORE PUSH2 0x102A ADD MSTORE PUSH1 0x0 DUP2 DUP2 PUSH2 0x99E ADD MSTORE PUSH2 0xDCB ADD MSTORE PUSH1 0x0 DUP2 DUP2 PUSH2 0x97A ADD MSTORE PUSH2 0x9CA ADD MSTORE PUSH1 0x0 DUP2 DUP2 PUSH2 0x3A7 ADD MSTORE DUP2 DUP2 PUSH2 0x57C ADD MSTORE DUP2 DUP2 PUSH2 0x79A ADD MSTORE DUP2 DUP2 PUSH2 0x866 ADD MSTORE DUP2 DUP2 PUSH2 0xCF9 ADD MSTORE DUP2 DUP2 PUSH2 0xE2C ADD MSTORE DUP2 DUP2 PUSH2 0xF38 ADD MSTORE PUSH2 0xFEB ADD MSTORE PUSH2 0x324D PUSH1 0x0 RETURN INVALID PUSH1 0x80 PUSH1 0x40 MSTORE CALLVALUE DUP1 ISZERO PUSH2 0x10 JUMPI PUSH1 0x0 DUP1 REVERT JUMPDEST POP PUSH1 0x4 CALLDATASIZE LT PUSH2 0xA9 JUMPI PUSH1 0x0 CALLDATALOAD PUSH1 0xE0 SHR DUP1 PUSH4 0x29D56630 GT PUSH2 0x71 JUMPI DUP1 PUSH4 0x29D56630 EQ PUSH2 0x164 JUMPI DUP1 PUSH4 0x30349EBE EQ PUSH2 0x180 JUMPI DUP1 PUSH4 0x3F15457F EQ PUSH2 0x19E JUMPI DUP1 PUSH4 0x6F951221 EQ PUSH2 0x1BC JUMPI DUP1 PUSH4 0x7DC0D1D0 EQ PUSH2 0x1EC JUMPI DUP1 PUSH4 0xAB14EC59 EQ PUSH2 0x20A JUMPI PUSH2 0xA9 JUMP JUMPDEST DUP1 PUSH4 0x1FFC9A7 EQ PUSH2 0xAE JUMPI DUP1 PUSH4 0x4F3BCEC EQ PUSH2 0xDE JUMPI DUP1 PUSH4 0x6963218 EQ PUSH2 0xFC JUMPI DUP1 PUSH4 0x1ECFC411 EQ PUSH2 0x118 JUMPI DUP1 PUSH4 0x25916D41 EQ PUSH2 0x134 JUMPI JUMPDEST PUSH1 0x0 DUP1 REVERT JUMPDEST PUSH2 0xC8 PUSH1 0x4 DUP1 CALLDATASIZE SUB DUP2 ADD SWAP1 PUSH2 0xC3 SWAP2 SWAP1 PUSH2 0x20DF JUMP JUMPDEST PUSH2 0x228 JUMP JUMPDEST PUSH1 0x40 MLOAD PUSH2 0xD5 SWAP2 SWAP1 PUSH2 0x2127 JUMP JUMPDEST PUSH1 0x40 MLOAD DUP1 SWAP2 SUB SWAP1 RETURN JUMPDEST PUSH2 0xE6 PUSH2 0x2FA JUMP JUMPDEST PUSH1 0x40 MLOAD PUSH2 0xF3 SWAP2 SWAP1 PUSH2 0x2183 JUMP JUMPDEST PUSH1 0x40 MLOAD DUP1 SWAP2 SUB SWAP1 RETURN JUMPDEST PUSH2 0x116 PUSH1 0x4 DUP1 CALLDATASIZE SUB DUP2 ADD SWAP1 PUSH2 0x111 SWAP2 SWAP1 PUSH2 0x2488 JUMP JUMPDEST PUSH2 0x31E JUMP JUMPDEST STOP JUMPDEST PUSH2 0x132 PUSH1 0x4 DUP1 CALLDATASIZE SUB DUP2 ADD SWAP1 PUSH2 0x12D SWAP2 SWAP1 PUSH2 0x2565 JUMP JUMPDEST PUSH2 0x578 JUMP JUMPDEST STOP JUMPDEST PUSH2 0x14E PUSH1 0x4 DUP1 CALLDATASIZE SUB DUP2 ADD SWAP1 PUSH2 0x149 SWAP2 SWAP1 PUSH2 0x25C8 JUMP JUMPDEST PUSH2 0x760 JUMP JUMPDEST PUSH1 0x40 MLOAD PUSH2 0x15B SWAP2 SWAP1 PUSH2 0x2614 JUMP JUMPDEST PUSH1 0x40 MLOAD DUP1 SWAP2 SUB SWAP1 RETURN JUMPDEST PUSH2 0x17E PUSH1 0x4 DUP1 CALLDATASIZE SUB DUP2 ADD SWAP1 PUSH2 0x179 SWAP2 SWAP1 PUSH2 0x262F JUMP JUMPDEST PUSH2 0x783 JUMP JUMPDEST STOP JUMPDEST PUSH2 0x188 PUSH2 0x840 JUMP JUMPDEST PUSH1 0x40 MLOAD PUSH2 0x195 SWAP2 SWAP1 PUSH2 0x2706 JUMP JUMPDEST PUSH1 0x40 MLOAD DUP1 SWAP2 SUB SWAP1 RETURN JUMPDEST PUSH2 0x1A6 PUSH2 0x864 JUMP JUMPDEST PUSH1 0x40 MLOAD PUSH2 0x1B3 SWAP2 SWAP1 PUSH2 0x2742 JUMP JUMPDEST PUSH1 0x40 MLOAD DUP1 SWAP2 SUB SWAP1 RETURN JUMPDEST PUSH2 0x1D6 PUSH1 0x4 DUP1 CALLDATASIZE SUB DUP2 ADD SWAP1 PUSH2 0x1D1 SWAP2 SWAP1 PUSH2 0x275D JUMP JUMPDEST PUSH2 0x888 JUMP JUMPDEST PUSH1 0x40 MLOAD PUSH2 0x1E3 SWAP2 SWAP1 PUSH2 0x27B5 JUMP JUMPDEST PUSH1 0x40 MLOAD DUP1 SWAP2 SUB SWAP1 RETURN JUMPDEST PUSH2 0x1F4 PUSH2 0x978 JUMP JUMPDEST PUSH1 0x40 MLOAD PUSH2 0x201 SWAP2 SWAP1 PUSH2 0x27F1 JUMP JUMPDEST PUSH1 0x40 MLOAD DUP1 SWAP2 SUB SWAP1 RETURN JUMPDEST PUSH2 0x212 PUSH2 0x99C JUMP JUMPDEST PUSH1 0x40 MLOAD PUSH2 0x21F SWAP2 SWAP1 PUSH2 0x2183 JUMP JUMPDEST PUSH1 0x40 MLOAD DUP1 SWAP2 SUB SWAP1 RETURN JUMPDEST PUSH1 0x0 PUSH32 0x1FFC9A700000000000000000000000000000000000000000000000000000000 PUSH28 0xFFFFFFFFFFFFFFFFFFFFFFFFFFFFFFFFFFFFFFFFFFFFFFFFFFFFFFFF NOT AND DUP3 PUSH28 0xFFFFFFFFFFFFFFFFFFFFFFFFFFFFFFFFFFFFFFFFFFFFFFFFFFFFFFFF NOT AND EQ DUP1 PUSH2 0x2F3 JUMPI POP PUSH32 0x2F43542800000000000000000000000000000000000000000000000000000000 PUSH28 0xFFFFFFFFFFFFFFFFFFFFFFFFFFFFFFFFFFFFFFFFFFFFFFFFFFFFFFFF NOT AND DUP3 PUSH28 0xFFFFFFFFFFFFFFFFFFFFFFFFFFFFFFFFFFFFFFFFFFFFFFFFFFFFFFFF NOT AND EQ JUMPDEST SWAP1 POP SWAP2 SWAP1 POP JUMP JUMPDEST PUSH32 0x0 DUP2 JUMP JUMPDEST PUSH1 0x0 DUP1 PUSH1 0x0 PUSH2 0x32D DUP8 DUP8 PUSH2 0x9C0 JUMP JUMPDEST SWAP3 POP SWAP3 POP SWAP3 POP DUP1 PUSH20 0xFFFFFFFFFFFFFFFFFFFFFFFFFFFFFFFFFFFFFFFF AND CALLER PUSH20 0xFFFFFFFFFFFFFFFFFFFFFFFFFFFFFFFFFFFFFFFF AND EQ PUSH2 0x3A5 JUMPI CALLER DUP2 PUSH1 0x40 MLOAD PUSH32 0xE03F602400000000000000000000000000000000000000000000000000000000 DUP2 MSTORE PUSH1 0x4 ADD PUSH2 0x39C SWAP3 SWAP2 SWAP1 PUSH2 0x280C JUMP JUMPDEST PUSH1 0x40 MLOAD DUP1 SWAP2 SUB SWAP1 REVERT JUMPDEST PUSH32 0x0 PUSH20 0xFFFFFFFFFFFFFFFFFFFFFFFFFFFFFFFFFFFFFFFF AND PUSH4 0x5EF2C7F0 DUP5 DUP5 DUP5 DUP10 PUSH1 0x0 PUSH1 0x40 MLOAD DUP7 PUSH4 0xFFFFFFFF AND PUSH1 0xE0 SHL DUP2 MSTORE PUSH1 0x4 ADD PUSH2 0x407 SWAP6 SWAP5 SWAP4 SWAP3 SWAP2 SWAP1 PUSH2 0x2884 JUMP JUMPDEST PUSH1 0x0 PUSH1 0x40 MLOAD DUP1 DUP4 SUB DUP2 PUSH1 0x0 DUP8 DUP1 EXTCODESIZE ISZERO DUP1 ISZERO PUSH2 0x421 JUMPI PUSH1 0x0 DUP1 REVERT JUMPDEST POP GAS CALL ISZERO DUP1 ISZERO PUSH2 0x435 JUMPI RETURNDATASIZE PUSH1 0x0 DUP1 RETURNDATACOPY RETURNDATASIZE PUSH1 0x0 REVERT JUMPDEST POP POP POP POP PUSH1 0x0 PUSH20 0xFFFFFFFFFFFFFFFFFFFFFFFFFFFFFFFFFFFFFFFF AND DUP5 PUSH20 0xFFFFFFFFFFFFFFFFFFFFFFFFFFFFFFFFFFFFFFFF AND EQ PUSH2 0x56F JUMPI PUSH1 0x0 PUSH20 0xFFFFFFFFFFFFFFFFFFFFFFFFFFFFFFFFFFFFFFFF AND DUP6 PUSH20 0xFFFFFFFFFFFFFFFFFFFFFFFFFFFFFFFFFFFFFFFF AND SUB PUSH2 0x4D3 JUMPI PUSH1 0x40 MLOAD PUSH32 0xF1613C4C00000000000000000000000000000000000000000000000000000000 DUP2 MSTORE PUSH1 0x4 ADD PUSH1 0x40 MLOAD DUP1 SWAP2 SUB SWAP1 REVERT JUMPDEST PUSH1 0x0 DUP4 DUP4 PUSH1 0x40 MLOAD PUSH1 0x20 ADD PUSH2 0x4E8 SWAP3 SWAP2 SWAP1 PUSH2 0x28F8 JUMP JUMPDEST PUSH1 0x40 MLOAD PUSH1 0x20 DUP2 DUP4 SUB SUB DUP2 MSTORE SWAP1 PUSH1 0x40 MSTORE DUP1 MLOAD SWAP1 PUSH1 0x20 ADD KECCAK256 SWAP1 POP DUP6 PUSH20 0xFFFFFFFFFFFFFFFFFFFFFFFFFFFFFFFFFFFFFFFF AND PUSH4 0xD5FA2B00 DUP3 DUP8 PUSH1 0x40 MLOAD DUP4 PUSH4 0xFFFFFFFF AND PUSH1 0xE0 SHL DUP2 MSTORE PUSH1 0x4 ADD PUSH2 0x53B SWAP3 SWAP2 SWAP1 PUSH2 0x2924 JUMP JUMPDEST PUSH1 0x0 PUSH1 0x40 MLOAD DUP1 DUP4 SUB DUP2 PUSH1 0x0 DUP8 DUP1 EXTCODESIZE ISZERO DUP1 ISZERO PUSH2 0x555 JUMPI PUSH1 0x0 DUP1 REVERT JUMPDEST POP GAS CALL ISZERO DUP1 ISZERO PUSH2 0x569 JUMPI RETURNDATASIZE PUSH1 0x0 DUP1 RETURNDATACOPY RETURNDATASIZE PUSH1 0x0 REVERT JUMPDEST POP POP POP POP POP JUMPDEST POP POP POP POP POP POP POP JUMP JUMPDEST PUSH1 0x0 PUSH32 0x0 PUSH20 0xFFFFFFFFFFFFFFFFFFFFFFFFFFFFFFFFFFFFFFFF AND PUSH4 0x2571BE3 PUSH1 0x0 DUP1 SHL PUSH1 0x40 MLOAD DUP3 PUSH4 0xFFFFFFFF AND PUSH1 0xE0 SHL DUP2 MSTORE PUSH1 0x4 ADD PUSH2 0x5D6 SWAP2 SWAP1 PUSH2 0x27B5 JUMP JUMPDEST PUSH1 0x20 PUSH1 0x40 MLOAD DUP1 DUP4 SUB DUP2 DUP7 GAS STATICCALL ISZERO DUP1 ISZERO PUSH2 0x5F3 JUMPI RETURNDATASIZE PUSH1 0x0 DUP1 RETURNDATACOPY RETURNDATASIZE PUSH1 0x0 REVERT JUMPDEST POP POP POP POP PUSH1 0x40 MLOAD RETURNDATASIZE PUSH1 0x1F NOT PUSH1 0x1F DUP3 ADD AND DUP3 ADD DUP1 PUSH1 0x40 MSTORE POP DUP2 ADD SWAP1 PUSH2 0x617 SWAP2 SWAP1 PUSH2 0x2962 JUMP JUMPDEST SWAP1 POP PUSH1 0x0 DUP2 PUSH20 0xFFFFFFFFFFFFFFFFFFFFFFFFFFFFFFFFFFFFFFFF AND PUSH4 0x8DA5CB5B PUSH1 0x40 MLOAD DUP2 PUSH4 0xFFFFFFFF AND PUSH1 0xE0 SHL DUP2 MSTORE PUSH1 0x4 ADD PUSH1 0x20 PUSH1 0x40 MLOAD DUP1 DUP4 SUB DUP2 DUP7 GAS STATICCALL ISZERO DUP1 ISZERO PUSH2 0x666 JUMPI RETURNDATASIZE PUSH1 0x0 DUP1 RETURNDATACOPY RETURNDATASIZE PUSH1 0x0 REVERT JUMPDEST POP POP POP POP PUSH1 0x40 MLOAD RETURNDATASIZE PUSH1 0x1F NOT PUSH1 0x1F DUP3 ADD AND DUP3 ADD DUP1 PUSH1 0x40 MSTORE POP DUP2 ADD SWAP1 PUSH2 0x68A SWAP2 SWAP1 PUSH2 0x2962 JUMP JUMPDEST SWAP1 POP DUP1 PUSH20 0xFFFFFFFFFFFFFFFFFFFFFFFFFFFFFFFFFFFFFFFF AND CALLER PUSH20 0xFFFFFFFFFFFFFFFFFFFFFFFFFFFFFFFFFFFFFFFF AND EQ PUSH2 0x6C4 JUMPI PUSH1 0x0 DUP1 REVERT JUMPDEST DUP3 PUSH1 0x0 DUP1 PUSH2 0x100 EXP DUP2 SLOAD DUP2 PUSH20 0xFFFFFFFFFFFFFFFFFFFFFFFFFFFFFFFFFFFFFFFF MUL NOT AND SWAP1 DUP4 PUSH20 0xFFFFFFFFFFFFFFFFFFFFFFFFFFFFFFFFFFFFFFFF AND MUL OR SWAP1 SSTORE POP PUSH32 0x9176B7F47E4504DF5E5516C99D90D82AC7CBD49CC77E7F22BA2AC2F2E3A3EBA8 PUSH1 0x0 DUP1 SLOAD SWAP1 PUSH2 0x100 EXP SWAP1 DIV PUSH20 0xFFFFFFFFFFFFFFFFFFFFFFFFFFFFFFFFFFFFFFFF AND PUSH1 0x40 MLOAD PUSH2 0x753 SWAP2 SWAP1 PUSH2 0x2183 JUMP JUMPDEST PUSH1 0x40 MLOAD DUP1 SWAP2 SUB SWAP1 LOG1 POP POP POP JUMP JUMPDEST PUSH1 0x1 PUSH1 0x20 MSTORE DUP1 PUSH1 0x0 MSTORE PUSH1 0x40 PUSH1 0x0 KECCAK256 PUSH1 0x0 SWAP2 POP SLOAD SWAP1 PUSH2 0x100 EXP SWAP1 DIV PUSH4 0xFFFFFFFF AND DUP2 JUMP JUMPDEST PUSH1 0x0 DUP1 PUSH1 0x0 PUSH2 0x792 DUP6 DUP6 PUSH2 0x9C0 JUMP JUMPDEST SWAP3 POP SWAP3 POP SWAP3 POP PUSH32 0x0 PUSH20 0xFFFFFFFFFFFFFFFFFFFFFFFFFFFFFFFFFFFFFFFF AND PUSH4 0x6AB5923 DUP5 DUP5 DUP5 PUSH1 0x40 MLOAD DUP5 PUSH4 0xFFFFFFFF AND PUSH1 0xE0 SHL DUP2 MSTORE PUSH1 0x4 ADD PUSH2 0x7F5 SWAP4 SWAP3 SWAP2 SWAP1 PUSH2 0x298F JUMP JUMPDEST PUSH1 0x20 PUSH1 0x40 MLOAD DUP1 DUP4 SUB DUP2 PUSH1 0x0 DUP8 GAS CALL ISZERO DUP1 ISZERO PUSH2 0x814 JUMPI RETURNDATASIZE PUSH1 0x0 DUP1 RETURNDATACOPY RETURNDATASIZE PUSH1 0x0 REVERT JUMPDEST POP POP POP POP PUSH1 0x40 MLOAD RETURNDATASIZE PUSH1 0x1F NOT PUSH1 0x1F DUP3 ADD AND DUP3 ADD DUP1 PUSH1 0x40 MSTORE POP DUP2 ADD SWAP1 PUSH2 0x838 SWAP2 SWAP1 PUSH2 0x29DB JUMP JUMPDEST POP POP POP POP POP POP JUMP JUMPDEST PUSH1 0x0 DUP1 SLOAD SWAP1 PUSH2 0x100 EXP SWAP1 DIV PUSH20 0xFFFFFFFFFFFFFFFFFFFFFFFFFFFFFFFFFFFFFFFF AND DUP2 JUMP JUMPDEST PUSH32 0x0 DUP2 JUMP JUMPDEST PUSH1 0x0 DUP1 PUSH1 0x0 SWAP1 SLOAD SWAP1 PUSH2 0x100 EXP SWAP1 DIV PUSH20 0xFFFFFFFFFFFFFFFFFFFFFFFFFFFFFFFFFFFFFFFF AND PUSH20 0xFFFFFFFFFFFFFFFFFFFFFFFFFFFFFFFFFFFFFFFF AND PUSH4 0x4F89059E DUP4 PUSH1 0x40 MLOAD DUP3 PUSH4 0xFFFFFFFF AND PUSH1 0xE0 SHL DUP2 MSTORE PUSH1 0x4 ADD PUSH2 0x8E4 SWAP2 SWAP1 PUSH2 0x2A87 JUMP JUMPDEST PUSH1 0x20 PUSH1 0x40 MLOAD DUP1 DUP4 SUB DUP2 DUP7 GAS STATICCALL ISZERO DUP1 ISZERO PUSH2 0x901 JUMPI RETURNDATASIZE PUSH1 0x0 DUP1 RETURNDATACOPY RETURNDATASIZE PUSH1 0x0 REVERT JUMPDEST POP POP POP POP PUSH1 0x40 MLOAD RETURNDATASIZE PUSH1 0x1F NOT PUSH1 0x1F DUP3 ADD AND DUP3 ADD DUP1 PUSH1 0x40 MSTORE POP DUP2 ADD SWAP1 PUSH2 0x925 SWAP2 SWAP1 PUSH2 0x2AD5 JUMP JUMPDEST PUSH2 0x966 JUMPI DUP2 PUSH1 0x40 MLOAD PUSH32 0x396E24B800000000000000000000000000000000000000000000000000000000 DUP2 MSTORE PUSH1 0x4 ADD PUSH2 0x95D SWAP2 SWAP1 PUSH2 0x2A87 JUMP JUMPDEST PUSH1 0x40 MLOAD DUP1 SWAP2 SUB SWAP1 REVERT JUMPDEST PUSH2 0x971 DUP3 PUSH1 0x0 PUSH2 0xC51 JUMP JUMPDEST SWAP1 POP SWAP2 SWAP1 POP JUMP JUMPDEST PUSH32 0x0 DUP2 JUMP JUMPDEST PUSH32 0x0 DUP2 JUMP JUMPDEST PUSH1 0x0 DUP1 PUSH1 0x0 DUP1 PUSH1 0x0 PUSH32 0x0 PUSH20 0xFFFFFFFFFFFFFFFFFFFFFFFFFFFFFFFFFFFFFFFF AND PUSH4 0xBDF95FEF DUP8 PUSH1 0x40 MLOAD DUP3 PUSH4 0xFFFFFFFF AND PUSH1 0xE0 SHL DUP2 MSTORE PUSH1 0x4 ADD PUSH2 0xA21 SWAP2 SWAP1 PUSH2 0x2C52 JUMP JUMPDEST PUSH1 0x0 PUSH1 0x40 MLOAD DUP1 DUP4 SUB DUP2 DUP7 GAS STATICCALL ISZERO DUP1 ISZERO PUSH2 0xA3E JUMPI RETURNDATASIZE PUSH1 0x0 DUP1 RETURNDATACOPY RETURNDATASIZE PUSH1 0x0 REVERT JUMPDEST POP POP POP POP PUSH1 0x40 MLOAD RETURNDATASIZE PUSH1 0x0 DUP3 RETURNDATACOPY RETURNDATASIZE PUSH1 0x1F NOT PUSH1 0x1F DUP3 ADD AND DUP3 ADD DUP1 PUSH1 0x40 MSTORE POP DUP2 ADD SWAP1 PUSH2 0xA67 SWAP2 SWAP1 PUSH2 0x2D10 JUMP JUMPDEST SWAP2 POP SWAP2 POP PUSH1 0x0 PUSH2 0xA81 PUSH1 0x0 DUP10 PUSH2 0x1114 SWAP1 SWAP2 SWAP1 PUSH4 0xFFFFFFFF AND JUMP JUMPDEST PUSH1 0xFF AND SWAP1 POP PUSH2 0xA9C PUSH1 0x1 DUP3 DUP11 PUSH2 0x113F SWAP1 SWAP3 SWAP2 SWAP1 PUSH4 0xFFFFFFFF AND JUMP JUMPDEST SWAP5 POP PUSH1 0x0 PUSH2 0xAD9 PUSH1 0x1 DUP4 PUSH2 0xAB0 SWAP2 SWAP1 PUSH2 0x2DA5 JUMP JUMPDEST PUSH1 0x1 DUP5 DUP13 MLOAD PUSH2 0xABF SWAP2 SWAP1 PUSH2 0x2DD9 JUMP JUMPDEST PUSH2 0xAC9 SWAP2 SWAP1 PUSH2 0x2DD9 JUMP JUMPDEST DUP12 PUSH2 0x116B SWAP1 SWAP3 SWAP2 SWAP1 PUSH4 0xFFFFFFFF AND JUMP JUMPDEST SWAP1 POP PUSH2 0xAE4 DUP2 PUSH2 0x888 JUMP JUMPDEST SWAP7 POP PUSH1 0x0 DUP8 DUP8 PUSH1 0x40 MLOAD PUSH1 0x20 ADD PUSH2 0xAFB SWAP3 SWAP2 SWAP1 PUSH2 0x28F8 JUMP JUMPDEST PUSH1 0x40 MLOAD PUSH1 0x20 DUP2 DUP4 SUB SUB DUP2 MSTORE SWAP1 PUSH1 0x40 MSTORE DUP1 MLOAD SWAP1 PUSH1 0x20 ADD KECCAK256 SWAP1 POP PUSH2 0xB40 DUP5 PUSH1 0x1 PUSH1 0x0 DUP5 DUP2 MSTORE PUSH1 0x20 ADD SWAP1 DUP2 MSTORE PUSH1 0x20 ADD PUSH1 0x0 KECCAK256 PUSH1 0x0 SWAP1 SLOAD SWAP1 PUSH2 0x100 EXP SWAP1 DIV PUSH4 0xFFFFFFFF AND PUSH2 0x1200 JUMP JUMPDEST PUSH2 0xB76 JUMPI PUSH1 0x40 MLOAD PUSH32 0x2DD6A7AF00000000000000000000000000000000000000000000000000000000 DUP2 MSTORE PUSH1 0x4 ADD PUSH1 0x40 MLOAD DUP1 SWAP2 SUB SWAP1 REVERT JUMPDEST DUP4 PUSH1 0x1 PUSH1 0x0 DUP4 DUP2 MSTORE PUSH1 0x20 ADD SWAP1 DUP2 MSTORE PUSH1 0x20 ADD PUSH1 0x0 KECCAK256 PUSH1 0x0 PUSH2 0x100 EXP DUP2 SLOAD DUP2 PUSH4 0xFFFFFFFF MUL NOT AND SWAP1 DUP4 PUSH4 0xFFFFFFFF AND MUL OR SWAP1 SSTORE POP PUSH1 0x0 PUSH2 0xBB4 DUP12 DUP8 PUSH2 0x1213 JUMP JUMPDEST DUP1 SWAP3 POP DUP2 SWAP9 POP POP POP DUP1 PUSH2 0xBF3 JUMPI PUSH1 0x40 MLOAD PUSH32 0x6260F6F800000000000000000000000000000000000000000000000000000000 DUP2 MSTORE PUSH1 0x4 ADD PUSH1 0x40 MLOAD DUP1 SWAP2 SUB SWAP1 REVERT JUMPDEST DUP7 PUSH20 0xFFFFFFFFFFFFFFFFFFFFFFFFFFFFFFFFFFFFFFFF AND DUP3 PUSH32 0x87DB02A0E483E2818060EDDCBB3488CE44E35AFF49A70D92C2AA6C8046CF01E2 DUP14 DUP9 PUSH1 0x40 MLOAD PUSH2 0xC3C SWAP3 SWAP2 SWAP1 PUSH2 0x2E0D JUMP JUMPDEST PUSH1 0x40 MLOAD DUP1 SWAP2 SUB SWAP1 LOG3 POP POP POP POP POP POP SWAP3 POP SWAP3 POP SWAP3 JUMP JUMPDEST PUSH1 0x0 DUP1 PUSH2 0xC67 DUP4 DUP6 PUSH2 0x1114 SWAP1 SWAP2 SWAP1 PUSH4 0xFFFFFFFF AND JUMP JUMPDEST PUSH1 0xFF AND SWAP1 POP PUSH1 0x0 DUP2 SUB PUSH2 0xC80 JUMPI PUSH1 0x0 DUP1 SHL SWAP2 POP POP PUSH2 0x110E JUMP JUMPDEST PUSH1 0x0 PUSH2 0xCA3 DUP6 PUSH1 0x1 DUP5 DUP8 PUSH2 0xC94 SWAP2 SWAP1 PUSH2 0x2DA5 JUMP JUMPDEST PUSH2 0xC9E SWAP2 SWAP1 PUSH2 0x2DA5 JUMP JUMPDEST PUSH2 0xC51 JUMP JUMPDEST SWAP1 POP PUSH1 0x0 PUSH2 0xCC8 PUSH1 0x1 DUP7 PUSH2 0xCB7 SWAP2 SWAP1 PUSH2 0x2DA5 JUMP JUMPDEST DUP5 DUP9 PUSH2 0x113F SWAP1 SWAP3 SWAP2 SWAP1 PUSH4 0xFFFFFFFF AND JUMP JUMPDEST SWAP1 POP DUP2 DUP2 PUSH1 0x40 MLOAD PUSH1 0x20 ADD PUSH2 0xCDD SWAP3 SWAP2 SWAP1 PUSH2 0x28F8 JUMP JUMPDEST PUSH1 0x40 MLOAD PUSH1 0x20 DUP2 DUP4 SUB SUB DUP2 MSTORE SWAP1 PUSH1 0x40 MSTORE DUP1 MLOAD SWAP1 PUSH1 0x20 ADD KECCAK256 SWAP4 POP PUSH1 0x0 PUSH32 0x0 PUSH20 0xFFFFFFFFFFFFFFFFFFFFFFFFFFFFFFFFFFFFFFFF AND PUSH4 0x2571BE3 DUP7 PUSH1 0x40 MLOAD DUP3 PUSH4 0xFFFFFFFF AND PUSH1 0xE0 SHL DUP2 MSTORE PUSH1 0x4 ADD PUSH2 0xD50 SWAP2 SWAP1 PUSH2 0x27B5 JUMP JUMPDEST PUSH1 0x20 PUSH1 0x40 MLOAD DUP1 DUP4 SUB DUP2 DUP7 GAS STATICCALL ISZERO DUP1 ISZERO PUSH2 0xD6D JUMPI RETURNDATASIZE PUSH1 0x0 DUP1 RETURNDATACOPY RETURNDATASIZE PUSH1 0x0 REVERT JUMPDEST POP POP POP POP PUSH1 0x40 MLOAD RETURNDATASIZE PUSH1 0x1F NOT PUSH1 0x1F DUP3 ADD AND DUP3 ADD DUP1 PUSH1 0x40 MSTORE POP DUP2 ADD SWAP1 PUSH2 0xD91 SWAP2 SWAP1 PUSH2 0x2962 JUMP JUMPDEST SWAP1 POP PUSH1 0x0 PUSH20 0xFFFFFFFFFFFFFFFFFFFFFFFFFFFFFFFFFFFFFFFF AND DUP2 PUSH20 0xFFFFFFFFFFFFFFFFFFFFFFFFFFFFFFFFFFFFFFFF AND EQ DUP1 PUSH2 0xE19 JUMPI POP PUSH32 0x0 PUSH20 0xFFFFFFFFFFFFFFFFFFFFFFFFFFFFFFFFFFFFFFFF AND DUP2 PUSH20 0xFFFFFFFFFFFFFFFFFFFFFFFFFFFFFFFFFFFFFFFF AND EQ JUMPDEST ISZERO PUSH2 0x10A3 JUMPI PUSH1 0x0 DUP1 SHL DUP4 SUB PUSH2 0xFE9 JUMPI PUSH1 0x0 PUSH32 0x0 PUSH20 0xFFFFFFFFFFFFFFFFFFFFFFFFFFFFFFFFFFFFFFFF AND PUSH4 0x2571BE3 PUSH1 0x0 DUP1 SHL PUSH1 0x40 MLOAD DUP3 PUSH4 0xFFFFFFFF AND PUSH1 0xE0 SHL DUP2 MSTORE PUSH1 0x4 ADD PUSH2 0xE86 SWAP2 SWAP1 PUSH2 0x27B5 JUMP JUMPDEST PUSH1 0x20 PUSH1 0x40 MLOAD DUP1 DUP4 SUB DUP2 DUP7 GAS STATICCALL ISZERO DUP1 ISZERO PUSH2 0xEA3 JUMPI RETURNDATASIZE PUSH1 0x0 DUP1 RETURNDATACOPY RETURNDATASIZE PUSH1 0x0 REVERT JUMPDEST POP POP POP POP PUSH1 0x40 MLOAD RETURNDATASIZE PUSH1 0x1F NOT PUSH1 0x1F DUP3 ADD AND DUP3 ADD DUP1 PUSH1 0x40 MSTORE POP DUP2 ADD SWAP1 PUSH2 0xEC7 SWAP2 SWAP1 PUSH2 0x2962 JUMP JUMPDEST SWAP1 POP DUP1 PUSH20 0xFFFFFFFFFFFFFFFFFFFFFFFFFFFFFFFFFFFFFFFF AND PUSH4 0x8CB8ECEC DUP5 ADDRESS PUSH1 0x40 MLOAD DUP4 PUSH4 0xFFFFFFFF AND PUSH1 0xE0 SHL DUP2 MSTORE PUSH1 0x4 ADD PUSH2 0xF04 SWAP3 SWAP2 SWAP1 PUSH2 0x2924 JUMP JUMPDEST PUSH1 0x0 PUSH1 0x40 MLOAD DUP1 DUP4 SUB DUP2 PUSH1 0x0 DUP8 DUP1 EXTCODESIZE ISZERO DUP1 ISZERO PUSH2 0xF1E JUMPI PUSH1 0x0 DUP1 REVERT JUMPDEST POP GAS CALL ISZERO DUP1 ISZERO PUSH2 0xF32 JUMPI RETURNDATASIZE PUSH1 0x0 DUP1 RETURNDATACOPY RETURNDATASIZE PUSH1 0x0 REVERT JUMPDEST POP POP POP POP PUSH32 0x0 PUSH20 0xFFFFFFFFFFFFFFFFFFFFFFFFFFFFFFFFFFFFFFFF AND PUSH4 0x1896F70A DUP8 PUSH32 0x0 PUSH1 0x40 MLOAD DUP4 PUSH4 0xFFFFFFFF AND PUSH1 0xE0 SHL DUP2 MSTORE PUSH1 0x4 ADD PUSH2 0xFB1 SWAP3 SWAP2 SWAP1 PUSH2 0x2924 JUMP JUMPDEST PUSH1 0x0 PUSH1 0x40 MLOAD DUP1 DUP4 SUB DUP2 PUSH1 0x0 DUP8 DUP1 EXTCODESIZE ISZERO DUP1 ISZERO PUSH2 0xFCB JUMPI PUSH1 0x0 DUP1 REVERT JUMPDEST POP GAS CALL ISZERO DUP1 ISZERO PUSH2 0xFDF JUMPI RETURNDATASIZE PUSH1 0x0 DUP1 RETURNDATACOPY RETURNDATASIZE PUSH1 0x0 REVERT JUMPDEST POP POP POP POP POP PUSH2 0x109E JUMP JUMPDEST PUSH32 0x0 PUSH20 0xFFFFFFFFFFFFFFFFFFFFFFFFFFFFFFFFFFFFFFFF AND PUSH4 0x5EF2C7F0 DUP5 DUP5 ADDRESS PUSH32 0x0 PUSH1 0x0 PUSH1 0x40 MLOAD DUP7 PUSH4 0xFFFFFFFF AND PUSH1 0xE0 SHL DUP2 MSTORE PUSH1 0x4 ADD PUSH2 0x106B SWAP6 SWAP5 SWAP4 SWAP3 SWAP2 SWAP1 PUSH2 0x2884 JUMP JUMPDEST PUSH1 0x0 PUSH1 0x40 MLOAD DUP1 DUP4 SUB DUP2 PUSH1 0x0 DUP8 DUP1 EXTCODESIZE ISZERO DUP1 ISZERO PUSH2 0x1085 JUMPI PUSH1 0x0 DUP1 REVERT JUMPDEST POP GAS CALL ISZERO DUP1 ISZERO PUSH2 0x1099 JUMPI RETURNDATASIZE PUSH1 0x0 DUP1 RETURNDATACOPY RETURNDATASIZE PUSH1 0x0 REVERT JUMPDEST POP POP POP POP JUMPDEST PUSH2 0x1109 JUMP JUMPDEST ADDRESS PUSH20 0xFFFFFFFFFFFFFFFFFFFFFFFFFFFFFFFFFFFFFFFF AND DUP2 PUSH20 0xFFFFFFFFFFFFFFFFFFFFFFFFFFFFFFFFFFFFFFFF AND EQ PUSH2 0x1108 JUMPI PUSH1 0x40 MLOAD PUSH32 0xF1613C4C00000000000000000000000000000000000000000000000000000000 DUP2 MSTORE PUSH1 0x4 ADD PUSH1 0x40 MLOAD DUP1 SWAP2 SUB SWAP1 REVERT JUMPDEST JUMPDEST POP POP POP POP JUMPDEST SWAP3 SWAP2 POP POP JUMP JUMPDEST PUSH1 0x0 DUP3 DUP3 DUP2 MLOAD DUP2 LT PUSH2 0x1129 JUMPI PUSH2 0x1128 PUSH2 0x2E3D JUMP JUMPDEST JUMPDEST PUSH1 0x20 ADD ADD MLOAD PUSH1 0xF8 SHR PUSH1 0xF8 SHL PUSH1 0xF8 SHR SWAP1 POP SWAP3 SWAP2 POP POP JUMP JUMPDEST PUSH1 0x0 DUP4 MLOAD DUP3 DUP5 PUSH2 0x114F SWAP2 SWAP1 PUSH2 0x2DA5 JUMP JUMPDEST GT ISZERO PUSH2 0x115A JUMPI PUSH1 0x0 DUP1 REVERT JUMPDEST DUP2 DUP4 PUSH1 0x20 DUP7 ADD ADD KECCAK256 SWAP1 POP SWAP4 SWAP3 POP POP POP JUMP JUMPDEST PUSH1 0x60 DUP4 MLOAD DUP3 DUP5 PUSH2 0x117B SWAP2 SWAP1 PUSH2 0x2DA5 JUMP JUMPDEST GT ISZERO PUSH2 0x1186 JUMPI PUSH1 0x0 DUP1 REVERT JUMPDEST PUSH1 0x0 DUP3 PUSH8 0xFFFFFFFFFFFFFFFF DUP2 GT ISZERO PUSH2 0x11A2 JUMPI PUSH2 0x11A1 PUSH2 0x21B9 JUMP JUMPDEST JUMPDEST PUSH1 0x40 MLOAD SWAP1 DUP1 DUP3 MSTORE DUP1 PUSH1 0x1F ADD PUSH1 0x1F NOT AND PUSH1 0x20 ADD DUP3 ADD PUSH1 0x40 MSTORE DUP1 ISZERO PUSH2 0x11D4 JUMPI DUP2 PUSH1 0x20 ADD PUSH1 0x1 DUP3 MUL DUP1 CALLDATASIZE DUP4 CALLDATACOPY DUP1 DUP3 ADD SWAP2 POP POP SWAP1 POP JUMPDEST POP SWAP1 POP PUSH1 0x0 DUP1 PUSH1 0x20 DUP4 ADD SWAP2 POP DUP6 PUSH1 0x20 DUP9 ADD ADD SWAP1 POP PUSH2 0x11F3 DUP3 DUP3 DUP8 PUSH2 0x133E JUMP JUMPDEST DUP3 SWAP4 POP POP POP POP SWAP4 SWAP3 POP POP POP JUMP JUMPDEST PUSH1 0x0 DUP1 DUP3 DUP5 SUB PUSH1 0x3 SIGNEXTEND SLT ISZERO SWAP1 POP SWAP3 SWAP2 POP POP JUMP JUMPDEST PUSH1 0x0 DUP1 PUSH2 0x121E PUSH2 0x200E JUMP JUMPDEST PUSH2 0x123E PUSH1 0x5 DUP7 MLOAD PUSH2 0x122F SWAP2 SWAP1 PUSH2 0x2DA5 JUMP JUMPDEST DUP3 PUSH2 0x13A2 SWAP1 SWAP2 SWAP1 PUSH4 0xFFFFFFFF AND JUMP JUMPDEST POP PUSH2 0x1287 PUSH1 0x40 MLOAD DUP1 PUSH1 0x40 ADD PUSH1 0x40 MSTORE DUP1 PUSH1 0x5 DUP2 MSTORE PUSH1 0x20 ADD PUSH32 0x45F656E73000000000000000000000000000000000000000000000000000000 DUP2 MSTORE POP DUP3 PUSH2 0x141B SWAP1 SWAP2 SWAP1 PUSH4 0xFFFFFFFF AND JUMP JUMPDEST POP PUSH2 0x129B DUP6 DUP3 PUSH2 0x141B SWAP1 SWAP2 SWAP1 PUSH4 0xFFFFFFFF AND JUMP JUMPDEST POP PUSH1 0x0 PUSH2 0x12B2 PUSH1 0x0 DUP7 PUSH2 0x1437 SWAP1 SWAP2 SWAP1 PUSH4 0xFFFFFFFF AND JUMP JUMPDEST SWAP1 POP JUMPDEST PUSH2 0x12BE DUP2 PUSH2 0x1461 JUMP JUMPDEST PUSH2 0x132D JUMPI PUSH1 0x0 PUSH2 0x12E3 DUP4 PUSH1 0x0 ADD MLOAD PUSH2 0x12D5 DUP5 PUSH2 0x1477 JUMP JUMPDEST PUSH2 0x14AE SWAP1 SWAP2 SWAP1 PUSH4 0xFFFFFFFF AND JUMP JUMPDEST SUB PUSH2 0x131F JUMPI PUSH1 0x0 DUP1 PUSH2 0x12FE DUP8 DUP5 PUSH1 0xA0 ADD MLOAD DUP6 PUSH1 0xC0 ADD MLOAD PUSH2 0x1660 JUMP JUMPDEST DUP1 SWAP4 POP DUP2 SWAP3 POP POP POP DUP2 ISZERO PUSH2 0x131C JUMPI DUP1 PUSH1 0x1 SWAP6 POP SWAP6 POP POP POP POP POP PUSH2 0x1337 JUMP JUMPDEST POP POP JUMPDEST PUSH2 0x1328 DUP2 PUSH2 0x16E6 JUMP JUMPDEST PUSH2 0x12B5 JUMP JUMPDEST POP PUSH1 0x0 DUP1 SWAP3 POP SWAP3 POP POP JUMPDEST SWAP3 POP SWAP3 SWAP1 POP JUMP JUMPDEST JUMPDEST PUSH1 0x20 DUP2 LT PUSH2 0x137D JUMPI DUP2 MLOAD DUP4 MSTORE PUSH1 0x20 DUP4 PUSH2 0x1358 SWAP2 SWAP1 PUSH2 0x2DA5 JUMP JUMPDEST SWAP3 POP PUSH1 0x20 DUP3 PUSH2 0x1367 SWAP2 SWAP1 PUSH2 0x2DA5 JUMP JUMPDEST SWAP2 POP PUSH1 0x20 DUP2 PUSH2 0x1376 SWAP2 SWAP1 PUSH2 0x2DD9 JUMP JUMPDEST SWAP1 POP PUSH2 0x133F JUMP JUMPDEST PUSH1 0x0 PUSH1 0x1 DUP3 PUSH1 0x20 SUB PUSH2 0x100 EXP SUB SWAP1 POP DUP1 NOT DUP4 MLOAD AND DUP2 DUP6 MLOAD AND DUP2 DUP2 OR DUP7 MSTORE POP POP POP POP POP POP JUMP JUMPDEST PUSH2 0x13AA PUSH2 0x200E JUMP JUMPDEST PUSH1 0x0 PUSH1 0x20 DUP4 PUSH2 0x13B9 SWAP2 SWAP1 PUSH2 0x2E9B JUMP JUMPDEST EQ PUSH2 0x13E5 JUMPI PUSH1 0x20 DUP3 PUSH2 0x13CB SWAP2 SWAP1 PUSH2 0x2E9B JUMP JUMPDEST PUSH1 0x20 PUSH2 0x13D7 SWAP2 SWAP1 PUSH2 0x2DD9 JUMP JUMPDEST DUP3 PUSH2 0x13E2 SWAP2 SWAP1 PUSH2 0x2DA5 JUMP JUMPDEST SWAP2 POP JUMPDEST DUP2 DUP4 PUSH1 0x20 ADD DUP2 DUP2 MSTORE POP POP PUSH1 0x40 MLOAD DUP1 DUP5 MSTORE PUSH1 0x0 DUP2 MSTORE DUP3 DUP2 ADD PUSH1 0x20 ADD DUP2 DUP2 LT ISZERO PUSH2 0x140C JUMPI PUSH1 0x0 DUP1 REVERT JUMPDEST DUP1 PUSH1 0x40 MSTORE POP POP DUP3 SWAP1 POP SWAP3 SWAP2 POP POP JUMP JUMPDEST PUSH2 0x1423 PUSH2 0x200E JUMP JUMPDEST PUSH2 0x142F DUP4 DUP4 DUP5 MLOAD PUSH2 0x182C JUMP JUMPDEST SWAP1 POP SWAP3 SWAP2 POP POP JUMP JUMPDEST PUSH2 0x143F PUSH2 0x2028 JUMP JUMPDEST DUP3 DUP2 PUSH1 0x0 ADD DUP2 SWAP1 MSTORE POP DUP2 DUP2 PUSH1 0xC0 ADD DUP2 DUP2 MSTORE POP POP PUSH2 0x145B DUP2 PUSH2 0x16E6 JUMP JUMPDEST SWAP3 SWAP2 POP POP JUMP JUMPDEST PUSH1 0x0 DUP2 PUSH1 0x0 ADD MLOAD MLOAD DUP3 PUSH1 0x20 ADD MLOAD LT ISZERO SWAP1 POP SWAP2 SWAP1 POP JUMP JUMPDEST PUSH1 0x60 PUSH2 0x14A7 DUP3 PUSH1 0x20 ADD MLOAD PUSH2 0x1493 DUP5 PUSH1 0x0 ADD MLOAD DUP6 PUSH1 0x20 ADD MLOAD PUSH2 0x190F JUMP JUMPDEST DUP5 PUSH1 0x0 ADD MLOAD PUSH2 0x116B SWAP1 SWAP3 SWAP2 SWAP1 PUSH4 0xFFFFFFFF AND JUMP JUMPDEST SWAP1 POP SWAP2 SWAP1 POP JUMP JUMPDEST PUSH1 0x0 PUSH2 0x14C3 DUP3 DUP5 PUSH2 0x198B SWAP1 SWAP2 SWAP1 PUSH4 0xFFFFFFFF AND JUMP JUMPDEST ISZERO PUSH2 0x14D1 JUMPI PUSH1 0x0 SWAP1 POP PUSH2 0x165A JUMP JUMPDEST PUSH1 0x0 DUP1 PUSH1 0x0 DUP1 PUSH1 0x0 PUSH2 0x14E4 DUP9 PUSH1 0x0 PUSH2 0x19B2 JUMP JUMPDEST SWAP1 POP PUSH1 0x0 PUSH2 0x14F3 DUP9 PUSH1 0x0 PUSH2 0x19B2 JUMP JUMPDEST SWAP1 POP JUMPDEST DUP1 DUP3 GT ISZERO PUSH2 0x1520 JUMPI DUP6 SWAP4 POP PUSH2 0x150B DUP10 DUP8 PUSH2 0x1A33 JUMP JUMPDEST SWAP6 POP DUP2 DUP1 PUSH2 0x1518 SWAP1 PUSH2 0x2ECC JUMP JUMPDEST SWAP3 POP POP PUSH2 0x14F6 JUMP JUMPDEST JUMPDEST DUP2 DUP2 GT ISZERO PUSH2 0x154B JUMPI DUP5 SWAP3 POP PUSH2 0x1536 DUP9 DUP7 PUSH2 0x1A33 JUMP JUMPDEST SWAP5 POP DUP1 DUP1 PUSH2 0x1543 SWAP1 PUSH2 0x2ECC JUMP JUMPDEST SWAP2 POP POP PUSH2 0x1521 JUMP JUMPDEST JUMPDEST PUSH1 0x0 DUP3 GT DUP1 ISZERO PUSH2 0x1570 JUMPI POP PUSH2 0x156E DUP7 DUP10 DUP8 DUP13 PUSH2 0x1A6A SWAP1 SWAP4 SWAP3 SWAP2 SWAP1 PUSH4 0xFFFFFFFF AND JUMP JUMPDEST ISZERO JUMPDEST ISZERO PUSH2 0x15A7 JUMPI DUP6 SWAP4 POP PUSH2 0x1582 DUP10 DUP8 PUSH2 0x1A33 JUMP JUMPDEST SWAP6 POP DUP5 SWAP3 POP PUSH2 0x1591 DUP9 DUP7 PUSH2 0x1A33 JUMP JUMPDEST SWAP5 POP PUSH1 0x1 DUP3 PUSH2 0x15A0 SWAP2 SWAP1 PUSH2 0x2DD9 JUMP JUMPDEST SWAP2 POP PUSH2 0x154C JUMP JUMPDEST PUSH1 0x0 DUP7 SUB PUSH2 0x15DD JUMPI PUSH32 0xFFFFFFFFFFFFFFFFFFFFFFFFFFFFFFFFFFFFFFFFFFFFFFFFFFFFFFFFFFFFFFFF SWAP7 POP POP POP POP POP POP POP PUSH2 0x165A JUMP JUMPDEST PUSH1 0x0 DUP6 SUB PUSH2 0x15F4 JUMPI PUSH1 0x1 SWAP7 POP POP POP POP POP POP POP PUSH2 0x165A JUMP JUMPDEST PUSH2 0x1651 PUSH1 0x1 DUP6 PUSH2 0x1604 SWAP2 SWAP1 PUSH2 0x2DA5 JUMP JUMPDEST PUSH2 0x1617 DUP7 DUP13 PUSH2 0x1114 SWAP1 SWAP2 SWAP1 PUSH4 0xFFFFFFFF AND JUMP JUMPDEST PUSH1 0xFF AND DUP11 PUSH1 0x1 DUP8 PUSH2 0x1628 SWAP2 SWAP1 PUSH2 0x2DA5 JUMP JUMPDEST PUSH2 0x163B DUP9 DUP15 PUSH2 0x1114 SWAP1 SWAP2 SWAP1 PUSH4 0xFFFFFFFF AND JUMP JUMPDEST PUSH1 0xFF AND DUP15 PUSH2 0x1AA5 SWAP1 SWAP6 SWAP5 SWAP4 SWAP3 SWAP2 SWAP1 PUSH4 0xFFFFFFFF AND JUMP JUMPDEST SWAP7 POP POP POP POP POP POP POP JUMPDEST SWAP3 SWAP2 POP POP JUMP JUMPDEST PUSH1 0x0 DUP1 JUMPDEST DUP3 DUP5 LT ISZERO PUSH2 0x16D6 JUMPI PUSH1 0x0 PUSH2 0x1681 DUP6 DUP8 PUSH2 0x1114 SWAP1 SWAP2 SWAP1 PUSH4 0xFFFFFFFF AND JUMP JUMPDEST PUSH1 0xFF AND SWAP1 POP PUSH1 0x1 DUP6 PUSH2 0x1693 SWAP2 SWAP1 PUSH2 0x2DA5 JUMP JUMPDEST SWAP5 POP PUSH1 0x0 DUP1 PUSH2 0x16A3 DUP9 DUP9 DUP6 PUSH2 0x1CA3 JUMP JUMPDEST DUP1 SWAP4 POP DUP2 SWAP3 POP POP POP DUP2 ISZERO PUSH2 0x16C0 JUMPI DUP1 PUSH1 0x1 SWAP5 POP SWAP5 POP POP POP POP PUSH2 0x16DE JUMP JUMPDEST DUP3 DUP8 PUSH2 0x16CC SWAP2 SWAP1 PUSH2 0x2DA5 JUMP JUMPDEST SWAP7 POP POP POP POP PUSH2 0x1664 JUMP JUMPDEST PUSH1 0x0 DUP1 SWAP2 POP SWAP2 POP JUMPDEST SWAP4 POP SWAP4 SWAP2 POP POP JUMP JUMPDEST DUP1 PUSH1 0xC0 ADD MLOAD DUP2 PUSH1 0x20 ADD DUP2 DUP2 MSTORE POP POP DUP1 PUSH1 0x0 ADD MLOAD MLOAD DUP2 PUSH1 0x20 ADD MLOAD LT ISZERO PUSH2 0x1829 JUMPI PUSH1 0x0 PUSH2 0x1719 DUP3 PUSH1 0x0 ADD MLOAD DUP4 PUSH1 0x20 ADD MLOAD PUSH2 0x190F JUMP JUMPDEST DUP3 PUSH1 0x20 ADD MLOAD PUSH2 0x1728 SWAP2 SWAP1 PUSH2 0x2DA5 JUMP JUMPDEST SWAP1 POP PUSH2 0x1741 DUP2 DUP4 PUSH1 0x0 ADD MLOAD PUSH2 0x1D0E SWAP1 SWAP2 SWAP1 PUSH4 0xFFFFFFFF AND JUMP JUMPDEST DUP3 PUSH1 0x40 ADD SWAP1 PUSH2 0xFFFF AND SWAP1 DUP2 PUSH2 0xFFFF AND DUP2 MSTORE POP POP PUSH1 0x2 DUP2 PUSH2 0x1761 SWAP2 SWAP1 PUSH2 0x2DA5 JUMP JUMPDEST SWAP1 POP PUSH2 0x177A DUP2 DUP4 PUSH1 0x0 ADD MLOAD PUSH2 0x1D0E SWAP1 SWAP2 SWAP1 PUSH4 0xFFFFFFFF AND JUMP JUMPDEST DUP3 PUSH1 0x60 ADD SWAP1 PUSH2 0xFFFF AND SWAP1 DUP2 PUSH2 0xFFFF AND DUP2 MSTORE POP POP PUSH1 0x2 DUP2 PUSH2 0x179A SWAP2 SWAP1 PUSH2 0x2DA5 JUMP JUMPDEST SWAP1 POP PUSH2 0x17B3 DUP2 DUP4 PUSH1 0x0 ADD MLOAD PUSH2 0x1D3D SWAP1 SWAP2 SWAP1 PUSH4 0xFFFFFFFF AND JUMP JUMPDEST DUP3 PUSH1 0x80 ADD SWAP1 PUSH4 0xFFFFFFFF AND SWAP1 DUP2 PUSH4 0xFFFFFFFF AND DUP2 MSTORE POP POP PUSH1 0x4 DUP2 PUSH2 0x17D7 SWAP2 SWAP1 PUSH2 0x2DA5 JUMP JUMPDEST SWAP1 POP PUSH1 0x0 PUSH2 0x17F2 DUP3 DUP5 PUSH1 0x0 ADD MLOAD PUSH2 0x1D0E SWAP1 SWAP2 SWAP1 PUSH4 0xFFFFFFFF AND JUMP JUMPDEST PUSH2 0xFFFF AND SWAP1 POP PUSH1 0x2 DUP3 PUSH2 0x1805 SWAP2 SWAP1 PUSH2 0x2DA5 JUMP JUMPDEST SWAP2 POP DUP2 DUP4 PUSH1 0xA0 ADD DUP2 DUP2 MSTORE POP POP DUP1 DUP3 PUSH2 0x181D SWAP2 SWAP1 PUSH2 0x2DA5 JUMP JUMPDEST DUP4 PUSH1 0xC0 ADD DUP2 DUP2 MSTORE POP POP POP POP JUMPDEST POP JUMP JUMPDEST PUSH2 0x1834 PUSH2 0x200E JUMP JUMPDEST DUP3 MLOAD DUP3 GT ISZERO PUSH2 0x1842 JUMPI PUSH1 0x0 DUP1 REVERT JUMPDEST PUSH1 0x0 DUP5 PUSH1 0x0 ADD MLOAD MLOAD SWAP1 POP PUSH1 0x0 DUP4 DUP3 PUSH2 0x185A SWAP2 SWAP1 PUSH2 0x2DA5 JUMP JUMPDEST SWAP1 POP DUP6 PUSH1 0x20 ADD MLOAD DUP2 GT ISZERO PUSH2 0x187F JUMPI PUSH2 0x187E DUP7 PUSH1 0x2 DUP4 PUSH2 0x1879 SWAP2 SWAP1 PUSH2 0x2EF5 JUMP JUMPDEST PUSH2 0x1D6E JUMP JUMPDEST JUMPDEST PUSH1 0x0 DUP1 DUP8 MLOAD DUP1 MLOAD DUP6 PUSH1 0x20 DUP4 ADD ADD SWAP4 POP DUP1 DUP6 GT ISZERO PUSH2 0x189A JUMPI DUP5 DUP3 MSTORE JUMPDEST PUSH1 0x20 DUP10 ADD SWAP3 POP POP POP JUMPDEST PUSH1 0x20 DUP7 LT PUSH2 0x18E1 JUMPI DUP1 MLOAD DUP3 MSTORE PUSH1 0x20 DUP3 PUSH2 0x18BC SWAP2 SWAP1 PUSH2 0x2DA5 JUMP JUMPDEST SWAP2 POP PUSH1 0x20 DUP2 PUSH2 0x18CB SWAP2 SWAP1 PUSH2 0x2DA5 JUMP JUMPDEST SWAP1 POP PUSH1 0x20 DUP7 PUSH2 0x18DA SWAP2 SWAP1 PUSH2 0x2DD9 JUMP JUMPDEST SWAP6 POP PUSH2 0x18A3 JUMP JUMPDEST PUSH1 0x0 PUSH1 0x1 DUP8 PUSH1 0x20 SUB PUSH2 0x100 EXP SUB SWAP1 POP DUP1 NOT DUP3 MLOAD AND DUP2 DUP5 MLOAD AND DUP2 DUP2 OR DUP6 MSTORE POP POP POP DUP8 SWAP5 POP POP POP POP POP SWAP4 SWAP3 POP POP POP JUMP JUMPDEST PUSH1 0x0 DUP1 DUP3 SWAP1 POP JUMPDEST PUSH1 0x1 ISZERO PUSH2 0x1976 JUMPI DUP4 MLOAD DUP2 LT PUSH2 0x192E JUMPI PUSH2 0x192D PUSH2 0x2F37 JUMP JUMPDEST JUMPDEST PUSH1 0x0 PUSH2 0x1943 DUP3 DUP7 PUSH2 0x1114 SWAP1 SWAP2 SWAP1 PUSH4 0xFFFFFFFF AND JUMP JUMPDEST PUSH1 0xFF AND SWAP1 POP PUSH1 0x1 DUP2 PUSH2 0x1955 SWAP2 SWAP1 PUSH2 0x2DA5 JUMP JUMPDEST DUP3 PUSH2 0x1960 SWAP2 SWAP1 PUSH2 0x2DA5 JUMP JUMPDEST SWAP2 POP PUSH1 0x0 DUP2 SUB PUSH2 0x1970 JUMPI POP PUSH2 0x1976 JUMP JUMPDEST POP PUSH2 0x1916 JUMP JUMPDEST DUP3 DUP2 PUSH2 0x1982 SWAP2 SWAP1 PUSH2 0x2DD9 JUMP JUMPDEST SWAP2 POP POP SWAP3 SWAP2 POP POP JUMP JUMPDEST PUSH1 0x0 DUP2 MLOAD DUP4 MLOAD EQ DUP1 ISZERO PUSH2 0x19AA JUMPI POP PUSH2 0x19A9 DUP4 PUSH1 0x0 DUP5 PUSH1 0x0 DUP8 MLOAD PUSH2 0x1D92 JUMP JUMPDEST JUMPDEST SWAP1 POP SWAP3 SWAP2 POP POP JUMP JUMPDEST PUSH1 0x0 DUP1 PUSH1 0x0 SWAP1 POP JUMPDEST PUSH1 0x1 ISZERO PUSH2 0x1A29 JUMPI DUP4 MLOAD DUP4 LT PUSH2 0x19D2 JUMPI PUSH2 0x19D1 PUSH2 0x2F37 JUMP JUMPDEST JUMPDEST PUSH1 0x0 PUSH2 0x19E7 DUP5 DUP7 PUSH2 0x1114 SWAP1 SWAP2 SWAP1 PUSH4 0xFFFFFFFF AND JUMP JUMPDEST PUSH1 0xFF AND SWAP1 POP PUSH1 0x1 DUP2 PUSH2 0x19F9 SWAP2 SWAP1 PUSH2 0x2DA5 JUMP JUMPDEST DUP5 PUSH2 0x1A04 SWAP2 SWAP1 PUSH2 0x2DA5 JUMP JUMPDEST SWAP4 POP PUSH1 0x0 DUP2 SUB PUSH2 0x1A14 JUMPI POP PUSH2 0x1A29 JUMP JUMPDEST PUSH1 0x1 DUP3 PUSH2 0x1A21 SWAP2 SWAP1 PUSH2 0x2DA5 JUMP JUMPDEST SWAP2 POP POP PUSH2 0x19BA JUMP JUMPDEST DUP1 SWAP2 POP POP SWAP3 SWAP2 POP POP JUMP JUMPDEST PUSH1 0x0 PUSH2 0x1A48 DUP3 DUP5 PUSH2 0x1114 SWAP1 SWAP2 SWAP1 PUSH4 0xFFFFFFFF AND JUMP JUMPDEST PUSH1 0xFF AND PUSH1 0x1 DUP4 PUSH2 0x1A58 SWAP2 SWAP1 PUSH2 0x2DA5 JUMP JUMPDEST PUSH2 0x1A62 SWAP2 SWAP1 PUSH2 0x2DA5 JUMP JUMPDEST SWAP1 POP SWAP3 SWAP2 POP POP JUMP JUMPDEST PUSH1 0x0 PUSH2 0x1A83 DUP4 DUP4 DUP5 DUP7 MLOAD PUSH2 0x1A7E SWAP2 SWAP1 PUSH2 0x2DD9 JUMP JUMPDEST PUSH2 0x113F JUMP JUMPDEST PUSH2 0x1A9A DUP7 DUP7 DUP8 DUP10 MLOAD PUSH2 0x1A95 SWAP2 SWAP1 PUSH2 0x2DD9 JUMP JUMPDEST PUSH2 0x113F JUMP JUMPDEST EQ SWAP1 POP SWAP5 SWAP4 POP POP POP POP JUMP JUMPDEST PUSH1 0x0 DUP7 MLOAD DUP6 DUP8 PUSH2 0x1AB5 SWAP2 SWAP1 PUSH2 0x2DA5 JUMP JUMPDEST GT ISZERO PUSH2 0x1B06 JUMPI DUP5 DUP7 PUSH2 0x1AC7 SWAP2 SWAP1 PUSH2 0x2DA5 JUMP JUMPDEST DUP8 MLOAD PUSH1 0x40 MLOAD PUSH32 0x8A3C1CFB00000000000000000000000000000000000000000000000000000000 DUP2 MSTORE PUSH1 0x4 ADD PUSH2 0x1AFD SWAP3 SWAP2 SWAP1 PUSH2 0x2F75 JUMP JUMPDEST PUSH1 0x40 MLOAD DUP1 SWAP2 SUB SWAP1 REVERT JUMPDEST DUP4 MLOAD DUP3 DUP5 PUSH2 0x1B14 SWAP2 SWAP1 PUSH2 0x2DA5 JUMP JUMPDEST GT ISZERO PUSH2 0x1B65 JUMPI DUP2 DUP4 PUSH2 0x1B26 SWAP2 SWAP1 PUSH2 0x2DA5 JUMP JUMPDEST DUP5 MLOAD PUSH1 0x40 MLOAD PUSH32 0x8A3C1CFB00000000000000000000000000000000000000000000000000000000 DUP2 MSTORE PUSH1 0x4 ADD PUSH2 0x1B5C SWAP3 SWAP2 SWAP1 PUSH2 0x2F75 JUMP JUMPDEST PUSH1 0x40 MLOAD DUP1 SWAP2 SUB SWAP1 REVERT JUMPDEST PUSH1 0x0 DUP6 SWAP1 POP DUP6 DUP4 LT ISZERO PUSH2 0x1B76 JUMPI DUP3 SWAP1 POP JUMPDEST PUSH1 0x0 DUP1 PUSH1 0x20 DUP10 ADD DUP11 ADD SWAP2 POP PUSH1 0x20 DUP7 ADD DUP8 ADD SWAP1 POP PUSH1 0x0 JUMPDEST DUP4 DUP2 LT ISZERO PUSH2 0x1C86 JUMPI PUSH1 0x0 DUP1 DUP5 MLOAD SWAP2 POP DUP4 MLOAD SWAP1 POP DUP1 DUP3 EQ PUSH2 0x1C52 JUMPI PUSH1 0x0 PUSH1 0x20 DUP5 DUP9 PUSH2 0x1BB6 SWAP2 SWAP1 PUSH2 0x2DD9 JUMP JUMPDEST LT PUSH2 0x1BE3 JUMPI PUSH32 0xFFFFFFFFFFFFFFFFFFFFFFFFFFFFFFFFFFFFFFFFFFFFFFFFFFFFFFFFFFFFFFFF SWAP1 POP PUSH2 0x1C23 JUMP JUMPDEST PUSH1 0x1 DUP8 PUSH1 0x20 DUP7 PUSH2 0x1BF3 SWAP2 SWAP1 PUSH2 0x2DA5 JUMP JUMPDEST PUSH2 0x1BFD SWAP2 SWAP1 PUSH2 0x2DD9 JUMP JUMPDEST PUSH1 0x8 PUSH2 0x1C09 SWAP2 SWAP1 PUSH2 0x2EF5 JUMP JUMPDEST PUSH1 0x2 PUSH2 0x1C15 SWAP2 SWAP1 PUSH2 0x30D1 JUMP JUMPDEST PUSH2 0x1C1F SWAP2 SWAP1 PUSH2 0x2DD9 JUMP JUMPDEST NOT SWAP1 POP JUMPDEST PUSH1 0x0 DUP2 DUP4 AND DUP3 DUP6 AND PUSH2 0x1C35 SWAP2 SWAP1 PUSH2 0x3126 JUMP JUMPDEST SWAP1 POP PUSH1 0x0 DUP2 EQ PUSH2 0x1C4F JUMPI DUP1 SWAP9 POP POP POP POP POP POP POP POP POP PUSH2 0x1C99 JUMP JUMPDEST POP POP JUMPDEST PUSH1 0x20 DUP6 PUSH2 0x1C5F SWAP2 SWAP1 PUSH2 0x2DA5 JUMP JUMPDEST SWAP5 POP PUSH1 0x20 DUP5 PUSH2 0x1C6E SWAP2 SWAP1 PUSH2 0x2DA5 JUMP JUMPDEST SWAP4 POP POP POP PUSH1 0x20 DUP2 PUSH2 0x1C7F SWAP2 SWAP1 PUSH2 0x2DA5 JUMP JUMPDEST SWAP1 POP PUSH2 0x1B8C JUMP JUMPDEST POP DUP5 DUP9 PUSH2 0x1C93 SWAP2 SWAP1 PUSH2 0x3126 JUMP JUMPDEST SWAP4 POP POP POP POP JUMPDEST SWAP7 SWAP6 POP POP POP POP POP POP JUMP JUMPDEST PUSH1 0x0 DUP1 PUSH4 0x613D3078 PUSH2 0x1CBE DUP6 DUP8 PUSH2 0x1D3D SWAP1 SWAP2 SWAP1 PUSH4 0xFFFFFFFF AND JUMP JUMPDEST PUSH4 0xFFFFFFFF AND EQ PUSH2 0x1CD5 JUMPI PUSH1 0x0 DUP1 SWAP2 POP SWAP2 POP PUSH2 0x1D06 JUMP JUMPDEST PUSH2 0x1D01 PUSH1 0x4 DUP6 PUSH2 0x1CE5 SWAP2 SWAP1 PUSH2 0x2DA5 JUMP JUMPDEST DUP5 DUP7 PUSH2 0x1CF1 SWAP2 SWAP1 PUSH2 0x2DA5 JUMP JUMPDEST DUP8 PUSH2 0x1DB6 SWAP1 SWAP3 SWAP2 SWAP1 PUSH4 0xFFFFFFFF AND JUMP JUMPDEST SWAP2 POP SWAP2 POP JUMPDEST SWAP4 POP SWAP4 SWAP2 POP POP JUMP JUMPDEST PUSH1 0x0 DUP3 MLOAD PUSH1 0x2 DUP4 PUSH2 0x1D1F SWAP2 SWAP1 PUSH2 0x2DA5 JUMP JUMPDEST GT ISZERO PUSH2 0x1D2A JUMPI PUSH1 0x0 DUP1 REVERT JUMPDEST PUSH2 0xFFFF DUP3 PUSH1 0x2 DUP6 ADD ADD MLOAD AND SWAP1 POP SWAP3 SWAP2 POP POP JUMP JUMPDEST PUSH1 0x0 DUP3 MLOAD PUSH1 0x4 DUP4 PUSH2 0x1D4E SWAP2 SWAP1 PUSH2 0x2DA5 JUMP JUMPDEST GT ISZERO PUSH2 0x1D59 JUMPI PUSH1 0x0 DUP1 REVERT JUMPDEST PUSH4 0xFFFFFFFF DUP3 PUSH1 0x4 DUP6 ADD ADD MLOAD AND SWAP1 POP SWAP3 SWAP2 POP POP JUMP JUMPDEST PUSH1 0x0 DUP3 PUSH1 0x0 ADD MLOAD SWAP1 POP PUSH2 0x1D81 DUP4 DUP4 PUSH2 0x13A2 JUMP JUMPDEST POP PUSH2 0x1D8C DUP4 DUP3 PUSH2 0x141B JUMP JUMPDEST POP POP POP POP JUMP JUMPDEST PUSH1 0x0 PUSH2 0x1D9F DUP5 DUP5 DUP5 PUSH2 0x113F JUMP JUMPDEST PUSH2 0x1DAA DUP8 DUP8 DUP6 PUSH2 0x113F JUMP JUMPDEST EQ SWAP1 POP SWAP6 SWAP5 POP POP POP POP POP JUMP JUMPDEST PUSH1 0x0 DUP1 PUSH1 0x28 DUP5 DUP5 PUSH2 0x1DC7 SWAP2 SWAP1 PUSH2 0x2DD9 JUMP JUMPDEST LT ISZERO PUSH2 0x1DD9 JUMPI PUSH1 0x0 DUP1 SWAP2 POP SWAP2 POP PUSH2 0x1DF7 JUMP JUMPDEST PUSH1 0x0 DUP1 PUSH2 0x1DE7 DUP8 DUP8 DUP8 PUSH2 0x1DFF JUMP JUMPDEST SWAP2 POP SWAP2 POP DUP2 PUSH1 0x0 SHR DUP2 SWAP4 POP SWAP4 POP POP POP JUMPDEST SWAP4 POP SWAP4 SWAP2 POP POP JUMP JUMPDEST PUSH1 0x0 DUP1 PUSH1 0x40 DUP5 DUP5 PUSH2 0x1E10 SWAP2 SWAP1 PUSH2 0x2DD9 JUMP JUMPDEST GT ISZERO PUSH2 0x1E1B JUMPI PUSH1 0x0 DUP1 REVERT JUMPDEST PUSH1 0x0 DUP1 PUSH2 0x1E29 DUP8 DUP8 DUP8 PUSH2 0x1E69 JUMP JUMPDEST SWAP2 POP SWAP2 POP DUP1 PUSH2 0x1E43 JUMPI PUSH1 0x0 DUP1 SHL PUSH1 0x0 SWAP4 POP SWAP4 POP POP POP PUSH2 0x1E61 JUMP JUMPDEST PUSH1 0x0 PUSH1 0x20 DUP4 ADD MLOAD DUP8 DUP8 SUB PUSH1 0x40 SUB PUSH1 0x4 MUL SHR SWAP1 POP DUP1 PUSH1 0x1 SWAP5 POP SWAP5 POP POP POP POP JUMPDEST SWAP4 POP SWAP4 SWAP2 POP POP JUMP JUMPDEST PUSH1 0x60 PUSH1 0x0 DUP1 DUP5 DUP5 PUSH2 0x1E7A SWAP2 SWAP1 PUSH2 0x2DD9 JUMP JUMPDEST SWAP1 POP PUSH1 0x1 PUSH1 0x2 DUP3 PUSH2 0x1E8B SWAP2 SWAP1 PUSH2 0x2E9B JUMP JUMPDEST SUB PUSH2 0x1ECB JUMPI PUSH1 0x40 MLOAD PUSH32 0x8C379A000000000000000000000000000000000000000000000000000000000 DUP2 MSTORE PUSH1 0x4 ADD PUSH2 0x1EC2 SWAP1 PUSH2 0x31C6 JUMP JUMPDEST PUSH1 0x40 MLOAD DUP1 SWAP2 SUB SWAP1 REVERT JUMPDEST PUSH1 0x2 DUP2 PUSH2 0x1ED8 SWAP2 SWAP1 PUSH2 0x31E6 JUMP JUMPDEST PUSH8 0xFFFFFFFFFFFFFFFF DUP2 GT ISZERO PUSH2 0x1EF1 JUMPI PUSH2 0x1EF0 PUSH2 0x21B9 JUMP JUMPDEST JUMPDEST PUSH1 0x40 MLOAD SWAP1 DUP1 DUP3 MSTORE DUP1 PUSH1 0x1F ADD PUSH1 0x1F NOT AND PUSH1 0x20 ADD DUP3 ADD PUSH1 0x40 MSTORE DUP1 ISZERO PUSH2 0x1F23 JUMPI DUP2 PUSH1 0x20 ADD PUSH1 0x1 DUP3 MUL DUP1 CALLDATASIZE DUP4 CALLDATACOPY DUP1 DUP3 ADD SWAP2 POP POP SWAP1 POP JUMPDEST POP SWAP3 POP PUSH1 0x1 SWAP2 POP DUP6 MLOAD DUP5 GT ISZERO PUSH2 0x1F38 JUMPI PUSH1 0x0 DUP1 REVERT JUMPDEST PUSH2 0x1F9A JUMP JUMPDEST PUSH1 0x0 PUSH1 0x3A DUP3 LT PUSH1 0x2F DUP4 GT AND ISZERO PUSH2 0x1F58 JUMPI PUSH1 0x30 DUP3 SUB SWAP1 POP PUSH2 0x1F95 JUMP JUMPDEST PUSH1 0x47 DUP3 LT PUSH1 0x40 DUP4 GT AND ISZERO PUSH2 0x1F74 JUMPI PUSH1 0xA PUSH1 0x41 DUP4 SUB ADD SWAP1 POP PUSH2 0x1F95 JUMP JUMPDEST PUSH1 0x67 DUP3 LT PUSH1 0x60 DUP4 GT AND ISZERO PUSH2 0x1F90 JUMPI PUSH1 0xA PUSH1 0x61 DUP4 SUB ADD SWAP1 POP PUSH2 0x1F95 JUMP JUMPDEST PUSH1 0xFF SWAP1 POP JUMPDEST SWAP2 SWAP1 POP JUMP JUMPDEST PUSH1 0x20 DUP7 ADD DUP6 JUMPDEST DUP6 DUP2 LT ISZERO PUSH2 0x2003 JUMPI PUSH2 0x1FB7 DUP2 DUP4 ADD MLOAD PUSH1 0x0 BYTE PUSH2 0x1F3D JUMP JUMPDEST PUSH2 0x1FC9 PUSH1 0x1 DUP4 ADD DUP5 ADD MLOAD PUSH1 0x0 BYTE PUSH2 0x1F3D JUMP JUMPDEST PUSH1 0xFF DUP2 EQ PUSH1 0xFF DUP4 EQ OR ISZERO PUSH2 0x1FE2 JUMPI PUSH1 0x0 SWAP6 POP POP POP PUSH2 0x2003 JUMP JUMPDEST DUP1 DUP3 PUSH1 0x4 SHL OR DUP1 PUSH1 0x2 DUP12 DUP7 SUB DIV PUSH1 0x20 DUP11 ADD ADD MSTORE8 POP POP POP PUSH1 0x2 DUP2 ADD SWAP1 POP PUSH2 0x1FA0 JUMP JUMPDEST POP POP POP SWAP4 POP SWAP4 SWAP2 POP POP JUMP JUMPDEST PUSH1 0x40 MLOAD DUP1 PUSH1 0x40 ADD PUSH1 0x40 MSTORE DUP1 PUSH1 0x60 DUP2 MSTORE PUSH1 0x20 ADD PUSH1 0x0 DUP2 MSTORE POP SWAP1 JUMP JUMPDEST PUSH1 0x40 MLOAD DUP1 PUSH1 0xE0 ADD PUSH1 0x40 MSTORE DUP1 PUSH1 0x60 DUP2 MSTORE PUSH1 0x20 ADD PUSH1 0x0 DUP2 MSTORE PUSH1 0x20 ADD PUSH1 0x0 PUSH2 0xFFFF AND DUP2 MSTORE PUSH1 0x20 ADD PUSH1 0x0 PUSH2 0xFFFF AND DUP2 MSTORE PUSH1 0x20 ADD PUSH1 0x0 PUSH4 0xFFFFFFFF AND DUP2 MSTORE PUSH1 0x20 ADD PUSH1 0x0 DUP2 MSTORE PUSH1 0x20 ADD PUSH1 0x0 DUP2 MSTORE POP SWAP1 JUMP JUMPDEST PUSH1 0x0 PUSH1 0x40 MLOAD SWAP1 POP SWAP1 JUMP JUMPDEST PUSH1 0x0 DUP1 REVERT JUMPDEST PUSH1 0x0 DUP1 REVERT JUMPDEST PUSH1 0x0 PUSH32 0xFFFFFFFF00000000000000000000000000000000000000000000000000000000 DUP3 AND SWAP1 POP SWAP2 SWAP1 POP JUMP JUMPDEST PUSH2 0x20BC DUP2 PUSH2 0x2087 JUMP JUMPDEST DUP2 EQ PUSH2 0x20C7 JUMPI PUSH1 0x0 DUP1 REVERT JUMPDEST POP JUMP JUMPDEST PUSH1 0x0 DUP2 CALLDATALOAD SWAP1 POP PUSH2 0x20D9 DUP2 PUSH2 0x20B3 JUMP JUMPDEST SWAP3 SWAP2 POP POP JUMP JUMPDEST PUSH1 0x0 PUSH1 0x20 DUP3 DUP5 SUB SLT ISZERO PUSH2 0x20F5 JUMPI PUSH2 0x20F4 PUSH2 0x207D JUMP JUMPDEST JUMPDEST PUSH1 0x0 PUSH2 0x2103 DUP5 DUP3 DUP6 ADD PUSH2 0x20CA JUMP JUMPDEST SWAP2 POP POP SWAP3 SWAP2 POP POP JUMP JUMPDEST PUSH1 0x0 DUP2 ISZERO ISZERO SWAP1 POP SWAP2 SWAP1 POP JUMP JUMPDEST PUSH2 0x2121 DUP2 PUSH2 0x210C JUMP JUMPDEST DUP3 MSTORE POP POP JUMP JUMPDEST PUSH1 0x0 PUSH1 0x20 DUP3 ADD SWAP1 POP PUSH2 0x213C PUSH1 0x0 DUP4 ADD DUP5 PUSH2 0x2118 JUMP JUMPDEST SWAP3 SWAP2 POP POP JUMP JUMPDEST PUSH1 0x0 PUSH20 0xFFFFFFFFFFFFFFFFFFFFFFFFFFFFFFFFFFFFFFFF DUP3 AND SWAP1 POP SWAP2 SWAP1 POP JUMP JUMPDEST PUSH1 0x0 PUSH2 0x216D DUP3 PUSH2 0x2142 JUMP JUMPDEST SWAP1 POP SWAP2 SWAP1 POP JUMP JUMPDEST PUSH2 0x217D DUP2 PUSH2 0x2162 JUMP JUMPDEST DUP3 MSTORE POP POP JUMP JUMPDEST PUSH1 0x0 PUSH1 0x20 DUP3 ADD SWAP1 POP PUSH2 0x2198 PUSH1 0x0 DUP4 ADD DUP5 PUSH2 0x2174 JUMP JUMPDEST SWAP3 SWAP2 POP POP JUMP JUMPDEST PUSH1 0x0 DUP1 REVERT JUMPDEST PUSH1 0x0 DUP1 REVERT JUMPDEST PUSH1 0x0 PUSH1 0x1F NOT PUSH1 0x1F DUP4 ADD AND SWAP1 POP SWAP2 SWAP1 POP JUMP JUMPDEST PUSH32 0x4E487B7100000000000000000000000000000000000000000000000000000000 PUSH1 0x0 MSTORE PUSH1 0x41 PUSH1 0x4 MSTORE PUSH1 0x24 PUSH1 0x0 REVERT JUMPDEST PUSH2 0x21F1 DUP3 PUSH2 0x21A8 JUMP JUMPDEST DUP2 ADD DUP2 DUP2 LT PUSH8 0xFFFFFFFFFFFFFFFF DUP3 GT OR ISZERO PUSH2 0x2210 JUMPI PUSH2 0x220F PUSH2 0x21B9 JUMP JUMPDEST JUMPDEST DUP1 PUSH1 0x40 MSTORE POP POP POP JUMP JUMPDEST PUSH1 0x0 PUSH2 0x2223 PUSH2 0x2073 JUMP JUMPDEST SWAP1 POP PUSH2 0x222F DUP3 DUP3 PUSH2 0x21E8 JUMP JUMPDEST SWAP2 SWAP1 POP JUMP JUMPDEST PUSH1 0x0 PUSH8 0xFFFFFFFFFFFFFFFF DUP3 GT ISZERO PUSH2 0x224F JUMPI PUSH2 0x224E PUSH2 0x21B9 JUMP JUMPDEST JUMPDEST PUSH2 0x2258 DUP3 PUSH2 0x21A8 JUMP JUMPDEST SWAP1 POP PUSH1 0x20 DUP2 ADD SWAP1 POP SWAP2 SWAP1 POP JUMP JUMPDEST DUP3 DUP2 DUP4 CALLDATACOPY PUSH1 0x0 DUP4 DUP4 ADD MSTORE POP POP POP JUMP JUMPDEST PUSH1 0x0 PUSH2 0x2287 PUSH2 0x2282 DUP5 PUSH2 0x2234 JUMP JUMPDEST PUSH2 0x2219 JUMP JUMPDEST SWAP1 POP DUP3 DUP2 MSTORE PUSH1 0x20 DUP2 ADD DUP5 DUP5 DUP5 ADD GT ISZERO PUSH2 0x22A3 JUMPI PUSH2 0x22A2 PUSH2 0x21A3 JUMP JUMPDEST JUMPDEST PUSH2 0x22AE DUP5 DUP3 DUP6 PUSH2 0x2265 JUMP JUMPDEST POP SWAP4 SWAP3 POP POP POP JUMP JUMPDEST PUSH1 0x0 DUP3 PUSH1 0x1F DUP4 ADD SLT PUSH2 0x22CB JUMPI PUSH2 0x22CA PUSH2 0x219E JUMP JUMPDEST JUMPDEST DUP2 CALLDATALOAD PUSH2 0x22DB DUP5 DUP3 PUSH1 0x20 DUP7 ADD PUSH2 0x2274 JUMP JUMPDEST SWAP2 POP POP SWAP3 SWAP2 POP POP JUMP JUMPDEST PUSH1 0x0 PUSH8 0xFFFFFFFFFFFFFFFF DUP3 GT ISZERO PUSH2 0x22FF JUMPI PUSH2 0x22FE PUSH2 0x21B9 JUMP JUMPDEST JUMPDEST PUSH1 0x20 DUP3 MUL SWAP1 POP PUSH1 0x20 DUP2 ADD SWAP1 POP SWAP2 SWAP1 POP JUMP JUMPDEST PUSH1 0x0 DUP1 REVERT JUMPDEST PUSH1 0x0 DUP1 REVERT JUMPDEST PUSH1 0x0 DUP1 REVERT JUMPDEST PUSH1 0x0 PUSH1 0x40 DUP3 DUP5 SUB SLT ISZERO PUSH2 0x2335 JUMPI PUSH2 0x2334 PUSH2 0x2315 JUMP JUMPDEST JUMPDEST PUSH2 0x233F PUSH1 0x40 PUSH2 0x2219 JUMP JUMPDEST SWAP1 POP PUSH1 0x0 DUP3 ADD CALLDATALOAD PUSH8 0xFFFFFFFFFFFFFFFF DUP2 GT ISZERO PUSH2 0x235F JUMPI PUSH2 0x235E PUSH2 0x231A JUMP JUMPDEST JUMPDEST PUSH2 0x236B DUP5 DUP3 DUP6 ADD PUSH2 0x22B6 JUMP JUMPDEST PUSH1 0x0 DUP4 ADD MSTORE POP PUSH1 0x20 DUP3 ADD CALLDATALOAD PUSH8 0xFFFFFFFFFFFFFFFF DUP2 GT ISZERO PUSH2 0x238F JUMPI PUSH2 0x238E PUSH2 0x231A JUMP JUMPDEST JUMPDEST PUSH2 0x239B DUP5 DUP3 DUP6 ADD PUSH2 0x22B6 JUMP JUMPDEST PUSH1 0x20 DUP4 ADD MSTORE POP SWAP3 SWAP2 POP POP JUMP JUMPDEST PUSH1 0x0 PUSH2 0x23BA PUSH2 0x23B5 DUP5 PUSH2 0x22E4 JUMP JUMPDEST PUSH2 0x2219 JUMP JUMPDEST SWAP1 POP DUP1 DUP4 DUP3 MSTORE PUSH1 0x20 DUP3 ADD SWAP1 POP PUSH1 0x20 DUP5 MUL DUP4 ADD DUP6 DUP2 GT ISZERO PUSH2 0x23DD JUMPI PUSH2 0x23DC PUSH2 0x2310 JUMP JUMPDEST JUMPDEST DUP4 JUMPDEST DUP2 DUP2 LT ISZERO PUSH2 0x2424 JUMPI DUP1 CALLDATALOAD PUSH8 0xFFFFFFFFFFFFFFFF DUP2 GT ISZERO PUSH2 0x2402 JUMPI PUSH2 0x2401 PUSH2 0x219E JUMP JUMPDEST JUMPDEST DUP1 DUP7 ADD PUSH2 0x240F DUP10 DUP3 PUSH2 0x231F JUMP JUMPDEST DUP6 MSTORE PUSH1 0x20 DUP6 ADD SWAP5 POP POP POP PUSH1 0x20 DUP2 ADD SWAP1 POP PUSH2 0x23DF JUMP JUMPDEST POP POP POP SWAP4 SWAP3 POP POP POP JUMP JUMPDEST PUSH1 0x0 DUP3 PUSH1 0x1F DUP4 ADD SLT PUSH2 0x2443 JUMPI PUSH2 0x2442 PUSH2 0x219E JUMP JUMPDEST JUMPDEST DUP2 CALLDATALOAD PUSH2 0x2453 DUP5 DUP3 PUSH1 0x20 DUP7 ADD PUSH2 0x23A7 JUMP JUMPDEST SWAP2 POP POP SWAP3 SWAP2 POP POP JUMP JUMPDEST PUSH2 0x2465 DUP2 PUSH2 0x2162 JUMP JUMPDEST DUP2 EQ PUSH2 0x2470 JUMPI PUSH1 0x0 DUP1 REVERT JUMPDEST POP JUMP JUMPDEST PUSH1 0x0 DUP2 CALLDATALOAD SWAP1 POP PUSH2 0x2482 DUP2 PUSH2 0x245C JUMP JUMPDEST SWAP3 SWAP2 POP POP JUMP JUMPDEST PUSH1 0x0 DUP1 PUSH1 0x0 DUP1 PUSH1 0x80 DUP6 DUP8 SUB SLT ISZERO PUSH2 0x24A2 JUMPI PUSH2 0x24A1 PUSH2 0x207D JUMP JUMPDEST JUMPDEST PUSH1 0x0 DUP6 ADD CALLDATALOAD PUSH8 0xFFFFFFFFFFFFFFFF DUP2 GT ISZERO PUSH2 0x24C0 JUMPI PUSH2 0x24BF PUSH2 0x2082 JUMP JUMPDEST JUMPDEST PUSH2 0x24CC DUP8 DUP3 DUP9 ADD PUSH2 0x22B6 JUMP JUMPDEST SWAP5 POP POP PUSH1 0x20 DUP6 ADD CALLDATALOAD PUSH8 0xFFFFFFFFFFFFFFFF DUP2 GT ISZERO PUSH2 0x24ED JUMPI PUSH2 0x24EC PUSH2 0x2082 JUMP JUMPDEST JUMPDEST PUSH2 0x24F9 DUP8 DUP3 DUP9 ADD PUSH2 0x242E JUMP JUMPDEST SWAP4 POP POP PUSH1 0x40 PUSH2 0x250A DUP8 DUP3 DUP9 ADD PUSH2 0x2473 JUMP JUMPDEST SWAP3 POP POP PUSH1 0x60 PUSH2 0x251B DUP8 DUP3 DUP9 ADD PUSH2 0x2473 JUMP JUMPDEST SWAP2 POP POP SWAP3 SWAP6 SWAP2 SWAP5 POP SWAP3 POP JUMP JUMPDEST PUSH1 0x0 PUSH2 0x2532 DUP3 PUSH2 0x2162 JUMP JUMPDEST SWAP1 POP SWAP2 SWAP1 POP JUMP JUMPDEST PUSH2 0x2542 DUP2 PUSH2 0x2527 JUMP JUMPDEST DUP2 EQ PUSH2 0x254D JUMPI PUSH1 0x0 DUP1 REVERT JUMPDEST POP JUMP JUMPDEST PUSH1 0x0 DUP2 CALLDATALOAD SWAP1 POP PUSH2 0x255F DUP2 PUSH2 0x2539 JUMP JUMPDEST SWAP3 SWAP2 POP POP JUMP JUMPDEST PUSH1 0x0 PUSH1 0x20 DUP3 DUP5 SUB SLT ISZERO PUSH2 0x257B JUMPI PUSH2 0x257A PUSH2 0x207D JUMP JUMPDEST JUMPDEST PUSH1 0x0 PUSH2 0x2589 DUP5 DUP3 DUP6 ADD PUSH2 0x2550 JUMP JUMPDEST SWAP2 POP POP SWAP3 SWAP2 POP POP JUMP JUMPDEST PUSH1 0x0 DUP2 SWAP1 POP SWAP2 SWAP1 POP JUMP JUMPDEST PUSH2 0x25A5 DUP2 PUSH2 0x2592 JUMP JUMPDEST DUP2 EQ PUSH2 0x25B0 JUMPI PUSH1 0x0 DUP1 REVERT JUMPDEST POP JUMP JUMPDEST PUSH1 0x0 DUP2 CALLDATALOAD SWAP1 POP PUSH2 0x25C2 DUP2 PUSH2 0x259C JUMP JUMPDEST SWAP3 SWAP2 POP POP JUMP JUMPDEST PUSH1 0x0 PUSH1 0x20 DUP3 DUP5 SUB SLT ISZERO PUSH2 0x25DE JUMPI PUSH2 0x25DD PUSH2 0x207D JUMP JUMPDEST JUMPDEST PUSH1 0x0 PUSH2 0x25EC DUP5 DUP3 DUP6 ADD PUSH2 0x25B3 JUMP JUMPDEST SWAP2 POP POP SWAP3 SWAP2 POP POP JUMP JUMPDEST PUSH1 0x0 PUSH4 0xFFFFFFFF DUP3 AND SWAP1 POP SWAP2 SWAP1 POP JUMP JUMPDEST PUSH2 0x260E DUP2 PUSH2 0x25F5 JUMP JUMPDEST DUP3 MSTORE POP POP JUMP JUMPDEST PUSH1 0x0 PUSH1 0x20 DUP3 ADD SWAP1 POP PUSH2 0x2629 PUSH1 0x0 DUP4 ADD DUP5 PUSH2 0x2605 JUMP JUMPDEST SWAP3 SWAP2 POP POP JUMP JUMPDEST PUSH1 0x0 DUP1 PUSH1 0x40 DUP4 DUP6 SUB SLT ISZERO PUSH2 0x2646 JUMPI PUSH2 0x2645 PUSH2 0x207D JUMP JUMPDEST JUMPDEST PUSH1 0x0 DUP4 ADD CALLDATALOAD PUSH8 0xFFFFFFFFFFFFFFFF DUP2 GT ISZERO PUSH2 0x2664 JUMPI PUSH2 0x2663 PUSH2 0x2082 JUMP JUMPDEST JUMPDEST PUSH2 0x2670 DUP6 DUP3 DUP7 ADD PUSH2 0x22B6 JUMP JUMPDEST SWAP3 POP POP PUSH1 0x20 DUP4 ADD CALLDATALOAD PUSH8 0xFFFFFFFFFFFFFFFF DUP2 GT ISZERO PUSH2 0x2691 JUMPI PUSH2 0x2690 PUSH2 0x2082 JUMP JUMPDEST JUMPDEST PUSH2 0x269D DUP6 DUP3 DUP7 ADD PUSH2 0x242E JUMP JUMPDEST SWAP2 POP POP SWAP3 POP SWAP3 SWAP1 POP JUMP JUMPDEST PUSH1 0x0 DUP2 SWAP1 POP SWAP2 SWAP1 POP JUMP JUMPDEST PUSH1 0x0 PUSH2 0x26CC PUSH2 0x26C7 PUSH2 0x26C2 DUP5 PUSH2 0x2142 JUMP JUMPDEST PUSH2 0x26A7 JUMP JUMPDEST PUSH2 0x2142 JUMP JUMPDEST SWAP1 POP SWAP2 SWAP1 POP JUMP JUMPDEST PUSH1 0x0 PUSH2 0x26DE DUP3 PUSH2 0x26B1 JUMP JUMPDEST SWAP1 POP SWAP2 SWAP1 POP JUMP JUMPDEST PUSH1 0x0 PUSH2 0x26F0 DUP3 PUSH2 0x26D3 JUMP JUMPDEST SWAP1 POP SWAP2 SWAP1 POP JUMP JUMPDEST PUSH2 0x2700 DUP2 PUSH2 0x26E5 JUMP JUMPDEST DUP3 MSTORE POP POP JUMP JUMPDEST PUSH1 0x0 PUSH1 0x20 DUP3 ADD SWAP1 POP PUSH2 0x271B PUSH1 0x0 DUP4 ADD DUP5 PUSH2 0x26F7 JUMP JUMPDEST SWAP3 SWAP2 POP POP JUMP JUMPDEST PUSH1 0x0 PUSH2 0x272C DUP3 PUSH2 0x26D3 JUMP JUMPDEST SWAP1 POP SWAP2 SWAP1 POP JUMP JUMPDEST PUSH2 0x273C DUP2 PUSH2 0x2721 JUMP JUMPDEST DUP3 MSTORE POP POP JUMP JUMPDEST PUSH1 0x0 PUSH1 0x20 DUP3 ADD SWAP1 POP PUSH2 0x2757 PUSH1 0x0 DUP4 ADD DUP5 PUSH2 0x2733 JUMP JUMPDEST SWAP3 SWAP2 POP POP JUMP JUMPDEST PUSH1 0x0 PUSH1 0x20 DUP3 DUP5 SUB SLT ISZERO PUSH2 0x2773 JUMPI PUSH2 0x2772 PUSH2 0x207D JUMP JUMPDEST JUMPDEST PUSH1 0x0 DUP3 ADD CALLDATALOAD PUSH8 0xFFFFFFFFFFFFFFFF DUP2 GT ISZERO PUSH2 0x2791 JUMPI PUSH2 0x2790 PUSH2 0x2082 JUMP JUMPDEST JUMPDEST PUSH2 0x279D DUP5 DUP3 DUP6 ADD PUSH2 0x22B6 JUMP JUMPDEST SWAP2 POP POP SWAP3 SWAP2 POP POP JUMP JUMPDEST PUSH2 0x27AF DUP2 PUSH2 0x2592 JUMP JUMPDEST DUP3 MSTORE POP POP JUMP JUMPDEST PUSH1 0x0 PUSH1 0x20 DUP3 ADD SWAP1 POP PUSH2 0x27CA PUSH1 0x0 DUP4 ADD DUP5 PUSH2 0x27A6 JUMP JUMPDEST SWAP3 SWAP2 POP POP JUMP JUMPDEST PUSH1 0x0 PUSH2 0x27DB DUP3 PUSH2 0x26D3 JUMP JUMPDEST SWAP1 POP SWAP2 SWAP1 POP JUMP JUMPDEST PUSH2 0x27EB DUP2 PUSH2 0x27D0 JUMP JUMPDEST DUP3 MSTORE POP POP JUMP JUMPDEST PUSH1 0x0 PUSH1 0x20 DUP3 ADD SWAP1 POP PUSH2 0x2806 PUSH1 0x0 DUP4 ADD DUP5 PUSH2 0x27E2 JUMP JUMPDEST SWAP3 SWAP2 POP POP JUMP JUMPDEST PUSH1 0x0 PUSH1 0x40 DUP3 ADD SWAP1 POP PUSH2 0x2821 PUSH1 0x0 DUP4 ADD DUP6 PUSH2 0x2174 JUMP JUMPDEST PUSH2 0x282E PUSH1 0x20 DUP4 ADD DUP5 PUSH2 0x2174 JUMP JUMPDEST SWAP4 SWAP3 POP POP POP JUMP JUMPDEST PUSH1 0x0 DUP2 SWAP1 POP SWAP2 SWAP1 POP JUMP JUMPDEST PUSH1 0x0 PUSH8 0xFFFFFFFFFFFFFFFF DUP3 AND SWAP1 POP SWAP2 SWAP1 POP JUMP JUMPDEST PUSH1 0x0 PUSH2 0x286E PUSH2 0x2869 PUSH2 0x2864 DUP5 PUSH2 0x2835 JUMP JUMPDEST PUSH2 0x26A7 JUMP JUMPDEST PUSH2 0x283F JUMP JUMPDEST SWAP1 POP SWAP2 SWAP1 POP JUMP JUMPDEST PUSH2 0x287E DUP2 PUSH2 0x2853 JUMP JUMPDEST DUP3 MSTORE POP POP JUMP JUMPDEST PUSH1 0x0 PUSH1 0xA0 DUP3 ADD SWAP1 POP PUSH2 0x2899 PUSH1 0x0 DUP4 ADD DUP9 PUSH2 0x27A6 JUMP JUMPDEST PUSH2 0x28A6 PUSH1 0x20 DUP4 ADD DUP8 PUSH2 0x27A6 JUMP JUMPDEST PUSH2 0x28B3 PUSH1 0x40 DUP4 ADD DUP7 PUSH2 0x2174 JUMP JUMPDEST PUSH2 0x28C0 PUSH1 0x60 DUP4 ADD DUP6 PUSH2 0x2174 JUMP JUMPDEST PUSH2 0x28CD PUSH1 0x80 DUP4 ADD DUP5 PUSH2 0x2875 JUMP JUMPDEST SWAP7 SWAP6 POP POP POP POP POP POP JUMP JUMPDEST PUSH1 0x0 DUP2 SWAP1 POP SWAP2 SWAP1 POP JUMP JUMPDEST PUSH2 0x28F2 PUSH2 0x28ED DUP3 PUSH2 0x2592 JUMP JUMPDEST PUSH2 0x28D7 JUMP JUMPDEST DUP3 MSTORE POP POP JUMP JUMPDEST PUSH1 0x0 PUSH2 0x2904 DUP3 DUP6 PUSH2 0x28E1 JUMP JUMPDEST PUSH1 0x20 DUP3 ADD SWAP2 POP PUSH2 0x2914 DUP3 DUP5 PUSH2 0x28E1 JUMP JUMPDEST PUSH1 0x20 DUP3 ADD SWAP2 POP DUP2 SWAP1 POP SWAP4 SWAP3 POP POP POP JUMP JUMPDEST PUSH1 0x0 PUSH1 0x40 DUP3 ADD SWAP1 POP PUSH2 0x2939 PUSH1 0x0 DUP4 ADD DUP6 PUSH2 0x27A6 JUMP JUMPDEST PUSH2 0x2946 PUSH1 0x20 DUP4 ADD DUP5 PUSH2 0x2174 JUMP JUMPDEST SWAP4 SWAP3 POP POP POP JUMP JUMPDEST PUSH1 0x0 DUP2 MLOAD SWAP1 POP PUSH2 0x295C DUP2 PUSH2 0x245C JUMP JUMPDEST SWAP3 SWAP2 POP POP JUMP JUMPDEST PUSH1 0x0 PUSH1 0x20 DUP3 DUP5 SUB SLT ISZERO PUSH2 0x2978 JUMPI PUSH2 0x2977 PUSH2 0x207D JUMP JUMPDEST JUMPDEST PUSH1 0x0 PUSH2 0x2986 DUP5 DUP3 DUP6 ADD PUSH2 0x294D JUMP JUMPDEST SWAP2 POP POP SWAP3 SWAP2 POP POP JUMP JUMPDEST PUSH1 0x0 PUSH1 0x60 DUP3 ADD SWAP1 POP PUSH2 0x29A4 PUSH1 0x0 DUP4 ADD DUP7 PUSH2 0x27A6 JUMP JUMPDEST PUSH2 0x29B1 PUSH1 0x20 DUP4 ADD DUP6 PUSH2 0x27A6 JUMP JUMPDEST PUSH2 0x29BE PUSH1 0x40 DUP4 ADD DUP5 PUSH2 0x2174 JUMP JUMPDEST SWAP5 SWAP4 POP POP POP POP JUMP JUMPDEST PUSH1 0x0 DUP2 MLOAD SWAP1 POP PUSH2 0x29D5 DUP2 PUSH2 0x259C JUMP JUMPDEST SWAP3 SWAP2 POP POP JUMP JUMPDEST PUSH1 0x0 PUSH1 0x20 DUP3 DUP5 SUB SLT ISZERO PUSH2 0x29F1 JUMPI PUSH2 0x29F0 PUSH2 0x207D JUMP JUMPDEST JUMPDEST PUSH1 0x0 PUSH2 0x29FF DUP5 DUP3 DUP6 ADD PUSH2 0x29C6 JUMP JUMPDEST SWAP2 POP POP SWAP3 SWAP2 POP POP JUMP JUMPDEST PUSH1 0x0 DUP2 MLOAD SWAP1 POP SWAP2 SWAP1 POP JUMP JUMPDEST PUSH1 0x0 DUP3 DUP3 MSTORE PUSH1 0x20 DUP3 ADD SWAP1 POP SWAP3 SWAP2 POP POP JUMP JUMPDEST PUSH1 0x0 JUMPDEST DUP4 DUP2 LT ISZERO PUSH2 0x2A42 JUMPI DUP1 DUP3 ADD MLOAD DUP2 DUP5 ADD MSTORE PUSH1 0x20 DUP2 ADD SWAP1 POP PUSH2 0x2A27 JUMP JUMPDEST PUSH1 0x0 DUP5 DUP5 ADD MSTORE POP POP POP POP JUMP JUMPDEST PUSH1 0x0 PUSH2 0x2A59 DUP3 PUSH2 0x2A08 JUMP JUMPDEST PUSH2 0x2A63 DUP2 DUP6 PUSH2 0x2A13 JUMP JUMPDEST SWAP4 POP PUSH2 0x2A73 DUP2 DUP6 PUSH1 0x20 DUP7 ADD PUSH2 0x2A24 JUMP JUMPDEST PUSH2 0x2A7C DUP2 PUSH2 0x21A8 JUMP JUMPDEST DUP5 ADD SWAP2 POP POP SWAP3 SWAP2 POP POP JUMP JUMPDEST PUSH1 0x0 PUSH1 0x20 DUP3 ADD SWAP1 POP DUP2 DUP2 SUB PUSH1 0x0 DUP4 ADD MSTORE PUSH2 0x2AA1 DUP2 DUP5 PUSH2 0x2A4E JUMP JUMPDEST SWAP1 POP SWAP3 SWAP2 POP POP JUMP JUMPDEST PUSH2 0x2AB2 DUP2 PUSH2 0x210C JUMP JUMPDEST DUP2 EQ PUSH2 0x2ABD JUMPI PUSH1 0x0 DUP1 REVERT JUMPDEST POP JUMP JUMPDEST PUSH1 0x0 DUP2 MLOAD SWAP1 POP PUSH2 0x2ACF DUP2 PUSH2 0x2AA9 JUMP JUMPDEST SWAP3 SWAP2 POP POP JUMP JUMPDEST PUSH1 0x0 PUSH1 0x20 DUP3 DUP5 SUB SLT ISZERO PUSH2 0x2AEB JUMPI PUSH2 0x2AEA PUSH2 0x207D JUMP JUMPDEST JUMPDEST PUSH1 0x0 PUSH2 0x2AF9 DUP5 DUP3 DUP6 ADD PUSH2 0x2AC0 JUMP JUMPDEST SWAP2 POP POP SWAP3 SWAP2 POP POP JUMP JUMPDEST PUSH1 0x0 DUP2 MLOAD SWAP1 POP SWAP2 SWAP1 POP JUMP JUMPDEST PUSH1 0x0 DUP3 DUP3 MSTORE PUSH1 0x20 DUP3 ADD SWAP1 POP SWAP3 SWAP2 POP POP JUMP JUMPDEST PUSH1 0x0 DUP2 SWAP1 POP PUSH1 0x20 DUP3 ADD SWAP1 POP SWAP2 SWAP1 POP JUMP JUMPDEST PUSH1 0x0 DUP3 DUP3 MSTORE PUSH1 0x20 DUP3 ADD SWAP1 POP SWAP3 SWAP2 POP POP JUMP JUMPDEST PUSH1 0x0 PUSH2 0x2B4A DUP3 PUSH2 0x2A08 JUMP JUMPDEST PUSH2 0x2B54 DUP2 DUP6 PUSH2 0x2B2E JUMP JUMPDEST SWAP4 POP PUSH2 0x2B64 DUP2 DUP6 PUSH1 0x20 DUP7 ADD PUSH2 0x2A24 JUMP JUMPDEST PUSH2 0x2B6D DUP2 PUSH2 0x21A8 JUMP JUMPDEST DUP5 ADD SWAP2 POP POP SWAP3 SWAP2 POP POP JUMP JUMPDEST PUSH1 0x0 PUSH1 0x40 DUP4 ADD PUSH1 0x0 DUP4 ADD MLOAD DUP5 DUP3 SUB PUSH1 0x0 DUP7 ADD MSTORE PUSH2 0x2B95 DUP3 DUP3 PUSH2 0x2B3F JUMP JUMPDEST SWAP2 POP POP PUSH1 0x20 DUP4 ADD MLOAD DUP5 DUP3 SUB PUSH1 0x20 DUP7 ADD MSTORE PUSH2 0x2BAF DUP3 DUP3 PUSH2 0x2B3F JUMP JUMPDEST SWAP2 POP POP DUP1 SWAP2 POP POP SWAP3 SWAP2 POP POP JUMP JUMPDEST PUSH1 0x0 PUSH2 0x2BC8 DUP4 DUP4 PUSH2 0x2B78 JUMP JUMPDEST SWAP1 POP SWAP3 SWAP2 POP POP JUMP JUMPDEST PUSH1 0x0 PUSH1 0x20 DUP3 ADD SWAP1 POP SWAP2 SWAP1 POP JUMP JUMPDEST PUSH1 0x0 PUSH2 0x2BE8 DUP3 PUSH2 0x2B02 JUMP JUMPDEST PUSH2 0x2BF2 DUP2 DUP6 PUSH2 0x2B0D JUMP JUMPDEST SWAP4 POP DUP4 PUSH1 0x20 DUP3 MUL DUP6 ADD PUSH2 0x2C04 DUP6 PUSH2 0x2B1E JUMP JUMPDEST DUP1 PUSH1 0x0 JUMPDEST DUP6 DUP2 LT ISZERO PUSH2 0x2C40 JUMPI DUP5 DUP5 SUB DUP10 MSTORE DUP2 MLOAD PUSH2 0x2C21 DUP6 DUP3 PUSH2 0x2BBC JUMP JUMPDEST SWAP5 POP PUSH2 0x2C2C DUP4 PUSH2 0x2BD0 JUMP JUMPDEST SWAP3 POP PUSH1 0x20 DUP11 ADD SWAP10 POP POP PUSH1 0x1 DUP2 ADD SWAP1 POP PUSH2 0x2C08 JUMP JUMPDEST POP DUP3 SWAP8 POP DUP8 SWAP6 POP POP POP POP POP POP SWAP3 SWAP2 POP POP JUMP JUMPDEST PUSH1 0x0 PUSH1 0x20 DUP3 ADD SWAP1 POP DUP2 DUP2 SUB PUSH1 0x0 DUP4 ADD MSTORE PUSH2 0x2C6C DUP2 DUP5 PUSH2 0x2BDD JUMP JUMPDEST SWAP1 POP SWAP3 SWAP2 POP POP JUMP JUMPDEST PUSH1 0x0 PUSH2 0x2C87 PUSH2 0x2C82 DUP5 PUSH2 0x2234 JUMP JUMPDEST PUSH2 0x2219 JUMP JUMPDEST SWAP1 POP DUP3 DUP2 MSTORE PUSH1 0x20 DUP2 ADD DUP5 DUP5 DUP5 ADD GT ISZERO PUSH2 0x2CA3 JUMPI PUSH2 0x2CA2 PUSH2 0x21A3 JUMP JUMPDEST JUMPDEST PUSH2 0x2CAE DUP5 DUP3 DUP6 PUSH2 0x2A24 JUMP JUMPDEST POP SWAP4 SWAP3 POP POP POP JUMP JUMPDEST PUSH1 0x0 DUP3 PUSH1 0x1F DUP4 ADD SLT PUSH2 0x2CCB JUMPI PUSH2 0x2CCA PUSH2 0x219E JUMP JUMPDEST JUMPDEST DUP2 MLOAD PUSH2 0x2CDB DUP5 DUP3 PUSH1 0x20 DUP7 ADD PUSH2 0x2C74 JUMP JUMPDEST SWAP2 POP POP SWAP3 SWAP2 POP POP JUMP JUMPDEST PUSH2 0x2CED DUP2 PUSH2 0x25F5 JUMP JUMPDEST DUP2 EQ PUSH2 0x2CF8 JUMPI PUSH1 0x0 DUP1 REVERT JUMPDEST POP JUMP JUMPDEST PUSH1 0x0 DUP2 MLOAD SWAP1 POP PUSH2 0x2D0A DUP2 PUSH2 0x2CE4 JUMP JUMPDEST SWAP3 SWAP2 POP POP JUMP JUMPDEST PUSH1 0x0 DUP1 PUSH1 0x40 DUP4 DUP6 SUB SLT ISZERO PUSH2 0x2D27 JUMPI PUSH2 0x2D26 PUSH2 0x207D JUMP JUMPDEST JUMPDEST PUSH1 0x0 DUP4 ADD MLOAD PUSH8 0xFFFFFFFFFFFFFFFF DUP2 GT ISZERO PUSH2 0x2D45 JUMPI PUSH2 0x2D44 PUSH2 0x2082 JUMP JUMPDEST JUMPDEST PUSH2 0x2D51 DUP6 DUP3 DUP7 ADD PUSH2 0x2CB6 JUMP JUMPDEST SWAP3 POP POP PUSH1 0x20 PUSH2 0x2D62 DUP6 DUP3 DUP7 ADD PUSH2 0x2CFB JUMP JUMPDEST SWAP2 POP POP SWAP3 POP SWAP3 SWAP1 POP JUMP JUMPDEST PUSH1 0x0 DUP2 SWAP1 POP SWAP2 SWAP1 POP JUMP JUMPDEST PUSH32 0x4E487B7100000000000000000000000000000000000000000000000000000000 PUSH1 0x0 MSTORE PUSH1 0x11 PUSH1 0x4 MSTORE PUSH1 0x24 PUSH1 0x0 REVERT JUMPDEST PUSH1 0x0 PUSH2 0x2DB0 DUP3 PUSH2 0x2D6C JUMP JUMPDEST SWAP2 POP PUSH2 0x2DBB DUP4 PUSH2 0x2D6C JUMP JUMPDEST SWAP3 POP DUP3 DUP3 ADD SWAP1 POP DUP1 DUP3 GT ISZERO PUSH2 0x2DD3 JUMPI PUSH2 0x2DD2 PUSH2 0x2D76 JUMP JUMPDEST JUMPDEST SWAP3 SWAP2 POP POP JUMP JUMPDEST PUSH1 0x0 PUSH2 0x2DE4 DUP3 PUSH2 0x2D6C JUMP JUMPDEST SWAP2 POP PUSH2 0x2DEF DUP4 PUSH2 0x2D6C JUMP JUMPDEST SWAP3 POP DUP3 DUP3 SUB SWAP1 POP DUP2 DUP2 GT ISZERO PUSH2 0x2E07 JUMPI PUSH2 0x2E06 PUSH2 0x2D76 JUMP JUMPDEST JUMPDEST SWAP3 SWAP2 POP POP JUMP JUMPDEST PUSH1 0x0 PUSH1 0x40 DUP3 ADD SWAP1 POP DUP2 DUP2 SUB PUSH1 0x0 DUP4 ADD MSTORE PUSH2 0x2E27 DUP2 DUP6 PUSH2 0x2A4E JUMP JUMPDEST SWAP1 POP PUSH2 0x2E36 PUSH1 0x20 DUP4 ADD DUP5 PUSH2 0x2605 JUMP JUMPDEST SWAP4 SWAP3 POP POP POP JUMP JUMPDEST PUSH32 0x4E487B7100000000000000000000000000000000000000000000000000000000 PUSH1 0x0 MSTORE PUSH1 0x32 PUSH1 0x4 MSTORE PUSH1 0x24 PUSH1 0x0 REVERT JUMPDEST PUSH32 0x4E487B7100000000000000000000000000000000000000000000000000000000 PUSH1 0x0 MSTORE PUSH1 0x12 PUSH1 0x4 MSTORE PUSH1 0x24 PUSH1 0x0 REVERT JUMPDEST PUSH1 0x0 PUSH2 0x2EA6 DUP3 PUSH2 0x2D6C JUMP JUMPDEST SWAP2 POP PUSH2 0x2EB1 DUP4 PUSH2 0x2D6C JUMP JUMPDEST SWAP3 POP DUP3 PUSH2 0x2EC1 JUMPI PUSH2 0x2EC0 PUSH2 0x2E6C JUMP JUMPDEST JUMPDEST DUP3 DUP3 MOD SWAP1 POP SWAP3 SWAP2 POP POP JUMP JUMPDEST PUSH1 0x0 PUSH2 0x2ED7 DUP3 PUSH2 0x2D6C JUMP JUMPDEST SWAP2 POP PUSH1 0x0 DUP3 SUB PUSH2 0x2EEA JUMPI PUSH2 0x2EE9 PUSH2 0x2D76 JUMP JUMPDEST JUMPDEST PUSH1 0x1 DUP3 SUB SWAP1 POP SWAP2 SWAP1 POP JUMP JUMPDEST PUSH1 0x0 PUSH2 0x2F00 DUP3 PUSH2 0x2D6C JUMP JUMPDEST SWAP2 POP PUSH2 0x2F0B DUP4 PUSH2 0x2D6C JUMP JUMPDEST SWAP3 POP DUP3 DUP3 MUL PUSH2 0x2F19 DUP2 PUSH2 0x2D6C JUMP JUMPDEST SWAP2 POP DUP3 DUP3 DIV DUP5 EQ DUP4 ISZERO OR PUSH2 0x2F30 JUMPI PUSH2 0x2F2F PUSH2 0x2D76 JUMP JUMPDEST JUMPDEST POP SWAP3 SWAP2 POP POP JUMP JUMPDEST PUSH32 0x4E487B7100000000000000000000000000000000000000000000000000000000 PUSH1 0x0 MSTORE PUSH1 0x1 PUSH1 0x4 MSTORE PUSH1 0x24 PUSH1 0x0 REVERT JUMPDEST PUSH2 0x2F6F DUP2 PUSH2 0x2D6C JUMP JUMPDEST DUP3 MSTORE POP POP JUMP JUMPDEST PUSH1 0x0 PUSH1 0x40 DUP3 ADD SWAP1 POP PUSH2 0x2F8A PUSH1 0x0 DUP4 ADD DUP6 PUSH2 0x2F66 JUMP JUMPDEST PUSH2 0x2F97 PUSH1 0x20 DUP4 ADD DUP5 PUSH2 0x2F66 JUMP JUMPDEST SWAP4 SWAP3 POP POP POP JUMP JUMPDEST PUSH1 0x0 DUP2 PUSH1 0x1 SHR SWAP1 POP SWAP2 SWAP1 POP JUMP JUMPDEST PUSH1 0x0 DUP1 DUP3 SWAP2 POP DUP4 SWAP1 POP JUMPDEST PUSH1 0x1 DUP6 GT ISZERO PUSH2 0x2FF5 JUMPI DUP1 DUP7 DIV DUP2 GT ISZERO PUSH2 0x2FD1 JUMPI PUSH2 0x2FD0 PUSH2 0x2D76 JUMP JUMPDEST JUMPDEST PUSH1 0x1 DUP6 AND ISZERO PUSH2 0x2FE0 JUMPI DUP1 DUP3 MUL SWAP2 POP JUMPDEST DUP1 DUP2 MUL SWAP1 POP PUSH2 0x2FEE DUP6 PUSH2 0x2F9E JUMP JUMPDEST SWAP5 POP PUSH2 0x2FB5 JUMP JUMPDEST SWAP5 POP SWAP5 SWAP3 POP POP POP JUMP JUMPDEST PUSH1 0x0 DUP3 PUSH2 0x300E JUMPI PUSH1 0x1 SWAP1 POP PUSH2 0x30CA JUMP JUMPDEST DUP2 PUSH2 0x301C JUMPI PUSH1 0x0 SWAP1 POP PUSH2 0x30CA JUMP JUMPDEST DUP2 PUSH1 0x1 DUP2 EQ PUSH2 0x3032 JUMPI PUSH1 0x2 DUP2 EQ PUSH2 0x303C JUMPI PUSH2 0x306B JUMP JUMPDEST PUSH1 0x1 SWAP2 POP POP PUSH2 0x30CA JUMP JUMPDEST PUSH1 0xFF DUP5 GT ISZERO PUSH2 0x304E JUMPI PUSH2 0x304D PUSH2 0x2D76 JUMP JUMPDEST JUMPDEST DUP4 PUSH1 0x2 EXP SWAP2 POP DUP5 DUP3 GT ISZERO PUSH2 0x3065 JUMPI PUSH2 0x3064 PUSH2 0x2D76 JUMP JUMPDEST JUMPDEST POP PUSH2 0x30CA JUMP JUMPDEST POP PUSH1 0x20 DUP4 LT PUSH2 0x133 DUP4 LT AND PUSH1 0x4E DUP5 LT PUSH1 0xB DUP5 LT AND OR ISZERO PUSH2 0x30A0 JUMPI DUP3 DUP3 EXP SWAP1 POP DUP4 DUP2 GT ISZERO PUSH2 0x309B JUMPI PUSH2 0x309A PUSH2 0x2D76 JUMP JUMPDEST JUMPDEST PUSH2 0x30CA JUMP JUMPDEST PUSH2 0x30AD DUP5 DUP5 DUP5 PUSH1 0x1 PUSH2 0x2FAB JUMP JUMPDEST SWAP3 POP SWAP1 POP DUP2 DUP5 DIV DUP2 GT ISZERO PUSH2 0x30C4 JUMPI PUSH2 0x30C3 PUSH2 0x2D76 JUMP JUMPDEST JUMPDEST DUP2 DUP2 MUL SWAP1 POP JUMPDEST SWAP4 SWAP3 POP POP POP JUMP JUMPDEST PUSH1 0x0 PUSH2 0x30DC DUP3 PUSH2 0x2D6C JUMP JUMPDEST SWAP2 POP PUSH2 0x30E7 DUP4 PUSH2 0x2D6C JUMP JUMPDEST SWAP3 POP PUSH2 0x3114 PUSH32 0xFFFFFFFFFFFFFFFFFFFFFFFFFFFFFFFFFFFFFFFFFFFFFFFFFFFFFFFFFFFFFFFF DUP5 DUP5 PUSH2 0x2FFE JUMP JUMPDEST SWAP1 POP SWAP3 SWAP2 POP POP JUMP JUMPDEST PUSH1 0x0 DUP2 SWAP1 POP SWAP2 SWAP1 POP JUMP JUMPDEST PUSH1 0x0 PUSH2 0x3131 DUP3 PUSH2 0x311C JUMP JUMPDEST SWAP2 POP PUSH2 0x313C DUP4 PUSH2 0x311C JUMP JUMPDEST SWAP3 POP DUP3 DUP3 SUB SWAP1 POP DUP2 DUP2 SLT PUSH1 0x0 DUP5 SLT AND DUP3 DUP3 SGT PUSH1 0x0 DUP6 SLT ISZERO AND OR ISZERO PUSH2 0x3163 JUMPI PUSH2 0x3162 PUSH2 0x2D76 JUMP JUMPDEST JUMPDEST SWAP3 SWAP2 POP POP JUMP JUMPDEST PUSH1 0x0 DUP3 DUP3 MSTORE PUSH1 0x20 DUP3 ADD SWAP1 POP SWAP3 SWAP2 POP POP JUMP JUMPDEST PUSH32 0x496E76616C696420737472696E67206C656E6774680000000000000000000000 PUSH1 0x0 DUP3 ADD MSTORE POP JUMP JUMPDEST PUSH1 0x0 PUSH2 0x31B0 PUSH1 0x15 DUP4 PUSH2 0x3169 JUMP JUMPDEST SWAP2 POP PUSH2 0x31BB DUP3 PUSH2 0x317A JUMP JUMPDEST PUSH1 0x20 DUP3 ADD SWAP1 POP SWAP2 SWAP1 POP JUMP JUMPDEST PUSH1 0x0 PUSH1 0x20 DUP3 ADD SWAP1 POP DUP2 DUP2 SUB PUSH1 0x0 DUP4 ADD MSTORE PUSH2 0x31DF DUP2 PUSH2 0x31A3 JUMP JUMPDEST SWAP1 POP SWAP2 SWAP1 POP JUMP JUMPDEST PUSH1 0x0 PUSH2 0x31F1 DUP3 PUSH2 0x2D6C JUMP JUMPDEST SWAP2 POP PUSH2 0x31FC DUP4 PUSH2 0x2D6C JUMP JUMPDEST SWAP3 POP DUP3 PUSH2 0x320C JUMPI PUSH2 0x320B PUSH2 0x2E6C JUMP JUMPDEST JUMPDEST DUP3 DUP3 DIV SWAP1 POP SWAP3 SWAP2 POP POP JUMP INVALID LOG2 PUSH5 0x6970667358 0x22 SLT KECCAK256 DUP2 DUP1 DUP10 0xE NOT GAS JUMPDEST ISZERO SHL PUSH12 0xE3906ECEE3BBF0AF4D5F7822 SWAP16 CREATE PREVRANDAO DUP14 SWAP11 EXTCODECOPY SHL 0x24 0xEB 0x5C PUSH5 0x736F6C6343 STOP ADDMOD EQ STOP CALLER "
		},
		"gasEstimates": {
			"creation": {
				"codeDepositCost": "2575400",
				"executionCost": "infinite",
				"totalCost": "infinite"
			},
			"external": {
				"enableNode(bytes)": "infinite",
				"ens()": "infinite",
				"inceptions(bytes32)": "2885",
				"oracle()": "infinite",
				"previousRegistrar()": "infinite",
				"proveAndClaim(bytes,(bytes,bytes)[])": "infinite",
				"proveAndClaimWithResolver(bytes,(bytes,bytes)[],address,address)": "infinite",
				"resolver()": "infinite",
				"setPublicSuffixList(address)": "infinite",
				"suffixes()": "infinite",
				"supportsInterface(bytes4)": "685"
			},
			"internal": {
				"_claim(bytes memory,struct DNSSEC.RRSetWithSignature memory[] memory)": "infinite",
				"_enableNode(bytes memory,uint256)": "infinite"
			}
		},
		"methodIdentifiers": {
			"enableNode(bytes)": "6f951221",
			"ens()": "3f15457f",
			"inceptions(bytes32)": "25916d41",
			"oracle()": "7dc0d1d0",
			"previousRegistrar()": "ab14ec59",
			"proveAndClaim(bytes,(bytes,bytes)[])": "29d56630",
			"proveAndClaimWithResolver(bytes,(bytes,bytes)[],address,address)": "06963218",
			"resolver()": "04f3bcec",
			"setPublicSuffixList(address)": "1ecfc411",
			"suffixes()": "30349ebe",
			"supportsInterface(bytes4)": "01ffc9a7"
		}
	},
	"abi": [
		{
			"inputs": [
				{
					"internalType": "address",
					"name": "_previousRegistrar",
					"type": "address"
				},
				{
					"internalType": "address",
					"name": "_resolver",
					"type": "address"
				},
				{
					"internalType": "contract DNSSEC",
					"name": "_dnssec",
					"type": "address"
				},
				{
					"internalType": "contract PublicSuffixList",
					"name": "_suffixes",
					"type": "address"
				},
				{
					"internalType": "contract ENS",
					"name": "_ens",
					"type": "address"
				}
			],
			"stateMutability": "nonpayable",
			"type": "constructor"
		},
		{
			"inputs": [
				{
					"internalType": "bytes",
					"name": "name",
					"type": "bytes"
				}
			],
			"name": "InvalidPublicSuffix",
			"type": "error"
		},
		{
			"inputs": [],
			"name": "NoOwnerRecordFound",
			"type": "error"
		},
		{
			"inputs": [
				{
					"internalType": "uint256",
					"name": "offset",
					"type": "uint256"
				},
				{
					"internalType": "uint256",
					"name": "length",
					"type": "uint256"
				}
			],
			"name": "OffsetOutOfBoundsError",
			"type": "error"
		},
		{
			"inputs": [
				{
					"internalType": "address",
					"name": "caller",
					"type": "address"
				},
				{
					"internalType": "address",
					"name": "owner",
					"type": "address"
				}
			],
			"name": "PermissionDenied",
			"type": "error"
		},
		{
			"inputs": [],
			"name": "PreconditionNotMet",
			"type": "error"
		},
		{
			"inputs": [],
			"name": "StaleProof",
			"type": "error"
		},
		{
			"anonymous": false,
			"inputs": [
				{
					"indexed": true,
					"internalType": "bytes32",
					"name": "node",
					"type": "bytes32"
				},
				{
					"indexed": true,
					"internalType": "address",
					"name": "owner",
					"type": "address"
				},
				{
					"indexed": false,
					"internalType": "bytes",
					"name": "dnsname",
					"type": "bytes"
				},
				{
					"indexed": false,
					"internalType": "uint32",
					"name": "inception",
					"type": "uint32"
				}
			],
			"name": "Claim",
			"type": "event"
		},
		{
			"anonymous": false,
			"inputs": [
				{
					"indexed": false,
					"internalType": "address",
					"name": "suffixes",
					"type": "address"
				}
			],
			"name": "NewPublicSuffixList",
			"type": "event"
		},
		{
			"inputs": [
				{
					"internalType": "bytes",
					"name": "domain",
					"type": "bytes"
				}
			],
			"name": "enableNode",
			"outputs": [
				{
					"internalType": "bytes32",
					"name": "node",
					"type": "bytes32"
				}
			],
			"stateMutability": "nonpayable",
			"type": "function"
		},
		{
			"inputs": [],
			"name": "ens",
			"outputs": [
				{
					"internalType": "contract ENS",
					"name": "",
					"type": "address"
				}
			],
			"stateMutability": "view",
			"type": "function"
		},
		{
			"inputs": [
				{
					"internalType": "bytes32",
					"name": "",
					"type": "bytes32"
				}
			],
			"name": "inceptions",
			"outputs": [
				{
					"internalType": "uint32",
					"name": "",
					"type": "uint32"
				}
			],
			"stateMutability": "view",
			"type": "function"
		},
		{
			"inputs": [],
			"name": "oracle",
			"outputs": [
				{
					"internalType": "contract DNSSEC",
					"name": "",
					"type": "address"
				}
			],
			"stateMutability": "view",
			"type": "function"
		},
		{
			"inputs": [],
			"name": "previousRegistrar",
			"outputs": [
				{
					"internalType": "address",
					"name": "",
					"type": "address"
				}
			],
			"stateMutability": "view",
			"type": "function"
		},
		{
			"inputs": [
				{
					"internalType": "bytes",
					"name": "name",
					"type": "bytes"
				},
				{
					"components": [
						{
							"internalType": "bytes",
							"name": "rrset",
							"type": "bytes"
						},
						{
							"internalType": "bytes",
							"name": "sig",
							"type": "bytes"
						}
					],
					"internalType": "struct DNSSEC.RRSetWithSignature[]",
					"name": "input",
					"type": "tuple[]"
				}
			],
			"name": "proveAndClaim",
			"outputs": [],
			"stateMutability": "nonpayable",
			"type": "function"
		},
		{
			"inputs": [
				{
					"internalType": "bytes",
					"name": "name",
					"type": "bytes"
				},
				{
					"components": [
						{
							"internalType": "bytes",
							"name": "rrset",
							"type": "bytes"
						},
						{
							"internalType": "bytes",
							"name": "sig",
							"type": "bytes"
						}
					],
					"internalType": "struct DNSSEC.RRSetWithSignature[]",
					"name": "input",
					"type": "tuple[]"
				},
				{
					"internalType": "address",
					"name": "resolver",
					"type": "address"
				},
				{
					"internalType": "address",
					"name": "addr",
					"type": "address"
				}
			],
			"name": "proveAndClaimWithResolver",
			"outputs": [],
			"stateMutability": "nonpayable",
			"type": "function"
		},
		{
			"inputs": [],
			"name": "resolver",
			"outputs": [
				{
					"internalType": "address",
					"name": "",
					"type": "address"
				}
			],
			"stateMutability": "view",
			"type": "function"
		},
		{
			"inputs": [
				{
					"internalType": "contract PublicSuffixList",
					"name": "_suffixes",
					"type": "address"
				}
			],
			"name": "setPublicSuffixList",
			"outputs": [],
			"stateMutability": "nonpayable",
			"type": "function"
		},
		{
			"inputs": [],
			"name": "suffixes",
			"outputs": [
				{
					"internalType": "contract PublicSuffixList",
					"name": "",
					"type": "address"
				}
			],
			"stateMutability": "view",
			"type": "function"
		},
		{
			"inputs": [
				{
					"internalType": "bytes4",
					"name": "interfaceID",
					"type": "bytes4"
				}
			],
			"name": "supportsInterface",
			"outputs": [
				{
					"internalType": "bool",
					"name": "",
					"type": "bool"
				}
			],
			"stateMutability": "pure",
			"type": "function"
		}
	]
}