{
	"package/contracts/test/TestRRUtils.sol": {
		"TestRRUtils": {
			"abi": [
				{
					"inputs": [
						{
							"internalType": "uint256",
							"name": "offset",
							"type": "uint256"
						},
						{
							"internalType": "uint256",
							"name": "length",
							"type": "uint256"
						}
					],
					"name": "OffsetOutOfBoundsError",
					"type": "error"
				},
				{
					"inputs": [],
					"name": "testCompareNames",
					"outputs": [],
					"stateMutability": "pure",
					"type": "function"
				},
				{
					"inputs": [],
					"name": "testIterateRRs",
					"outputs": [],
					"stateMutability": "pure",
					"type": "function"
				},
				{
					"inputs": [],
					"name": "testKeyTag",
					"outputs": [],
					"stateMutability": "view",
					"type": "function"
				},
				{
					"inputs": [],
					"name": "testLabelCount",
					"outputs": [],
					"stateMutability": "pure",
					"type": "function"
				},
				{
					"inputs": [],
					"name": "testNameLength",
					"outputs": [],
					"stateMutability": "pure",
					"type": "function"
				},
				{
					"inputs": [],
					"name": "testSerialNumberGt",
					"outputs": [],
					"stateMutability": "pure",
					"type": "function"
				}
			],
			"devdoc": {
				"kind": "dev",
				"methods": {},
				"version": 1
			},
			"evm": {
				"assembly": "    /* \"package/contracts/test/TestRRUtils.sol\":125:6792  contract TestRRUtils {... */\n  mstore(0x40, 0x80)\n  callvalue\n  dup1\n  iszero\n  tag_1\n  jumpi\n  0x00\n  dup1\n  revert\ntag_1:\n  pop\n  dataSize(sub_0)\n  dup1\n  dataOffset(sub_0)\n  0x00\n  codecopy\n  0x00\n  return\nstop\n\nsub_0: assembly {\n        /* \"package/contracts/test/TestRRUtils.sol\":125:6792  contract TestRRUtils {... */\n      mstore(0x40, 0x80)\n      callvalue\n      dup1\n      iszero\n      tag_1\n      jumpi\n      0x00\n      dup1\n      revert\n    tag_1:\n      pop\n      jumpi(tag_2, lt(calldatasize, 0x04))\n      shr(0xe0, calldataload(0x00))\n      dup1\n      0x0250cf9a\n      eq\n      tag_3\n      jumpi\n      dup1\n      0x706fc4de\n      eq\n      tag_4\n      jumpi\n      dup1\n      0x976e62ac\n      eq\n      tag_5\n      jumpi\n      dup1\n      0x9e4a090d\n      eq\n      tag_6\n      jumpi\n      dup1\n      0xbb73daed\n      eq\n      tag_7\n      jumpi\n      dup1\n      0xcc60617b\n      eq\n      tag_8\n      jumpi\n    tag_2:\n      0x00\n      dup1\n      revert\n        /* \"package/contracts/test/TestRRUtils.sol\":424:681  function testNameLength() public pure {... */\n    tag_3:\n      tag_9\n      tag_10\n      jump\t// in\n    tag_9:\n      stop\n        /* \"package/contracts/test/TestRRUtils.sol\":1048:1896  function testIterateRRs() public pure {... */\n    tag_4:\n      tag_11\n      tag_12\n      jump\t// in\n    tag_11:\n      stop\n        /* \"package/contracts/test/TestRRUtils.sol\":1972:4346  function testCompareNames() public pure {... */\n    tag_5:\n      tag_13\n      tag_14\n      jump\t// in\n    tag_13:\n      stop\n        /* \"package/contracts/test/TestRRUtils.sol\":4350:4801  function testSerialNumberGt() public pure {... */\n    tag_6:\n      tag_15\n      tag_16\n      jump\t// in\n    tag_15:\n      stop\n        /* \"package/contracts/test/TestRRUtils.sol\":4805:6790  function testKeyTag() public view {... */\n    tag_7:\n      tag_17\n      tag_18\n      jump\t// in\n    tag_17:\n      stop\n        /* \"package/contracts/test/TestRRUtils.sol\":685:1044  function testLabelCount() public pure {... */\n    tag_8:\n      tag_19\n      tag_20\n      jump\t// in\n    tag_19:\n      stop\n        /* \"package/contracts/test/TestRRUtils.sol\":424:681  function testNameLength() public pure {... */\n    tag_10:\n        /* \"package/contracts/test/TestRRUtils.sol\":501:502  1 */\n      0x01\n        /* \"package/contracts/test/TestRRUtils.sol\":476:497  hex\"00\".nameLength(0) */\n      tag_22\n        /* \"package/contracts/test/TestRRUtils.sol\":495:496  0 */\n      0x00\n        /* \"package/contracts/test/TestRRUtils.sol\":476:494  hex\"00\".nameLength */\n      mload(0x40)\n      dup1\n      0x40\n      add\n      0x40\n      mstore\n      dup1\n      0x01\n      dup2\n      mstore\n      0x20\n      add\n      0x00\n      dup2\n      mstore\n      pop\n      tag_23\n      swap1\n        /* \"package/contracts/test/TestRRUtils.sol\":476:497  hex\"00\".nameLength(0) */\n      swap2\n      swap1\n      0xffffffff\n      and\n      jump\t// in\n    tag_22:\n        /* \"package/contracts/test/TestRRUtils.sol\":476:502  hex\"00\".nameLength(0) == 1 */\n      eq\n        /* \"package/contracts/test/TestRRUtils.sol\":468:527  require(hex\"00\".nameLength(0) == 1, \"nameLength('.') == 1\") */\n      tag_24\n      jumpi\n      mload(0x40)\n      0x08c379a000000000000000000000000000000000000000000000000000000000\n      dup2\n      mstore\n      0x04\n      add\n      tag_25\n      swap1\n      tag_26\n      jump\t// in\n    tag_25:\n      mload(0x40)\n      dup1\n      swap2\n      sub\n      swap1\n      revert\n    tag_24:\n        /* \"package/contracts/test/TestRRUtils.sol\":574:575  1 */\n      0x01\n        /* \"package/contracts/test/TestRRUtils.sol\":541:570  hex\"0361626300\".nameLength(4) */\n      tag_27\n        /* \"package/contracts/test/TestRRUtils.sol\":568:569  4 */\n      0x04\n        /* \"package/contracts/test/TestRRUtils.sol\":541:567  hex\"0361626300\".nameLength */\n      mload(0x40)\n      dup1\n      0x40\n      add\n      0x40\n      mstore\n      dup1\n      0x05\n      dup2\n      mstore\n      0x20\n      add\n      0x0361626300000000000000000000000000000000000000000000000000000000\n      dup2\n      mstore\n      pop\n      tag_23\n      swap1\n        /* \"package/contracts/test/TestRRUtils.sol\":541:570  hex\"0361626300\".nameLength(4) */\n      swap2\n      swap1\n      0xffffffff\n      and\n      jump\t// in\n    tag_27:\n        /* \"package/contracts/test/TestRRUtils.sol\":541:575  hex\"0361626300\".nameLength(4) == 1 */\n      eq\n        /* \"package/contracts/test/TestRRUtils.sol\":533:600  require(hex\"0361626300\".nameLength(4) == 1, \"nameLength('.') == 1\") */\n      tag_28\n      jumpi\n      mload(0x40)\n      0x08c379a000000000000000000000000000000000000000000000000000000000\n      dup2\n      mstore\n      0x04\n      add\n      tag_29\n      swap1\n      tag_26\n      jump\t// in\n    tag_29:\n      mload(0x40)\n      dup1\n      swap2\n      sub\n      swap1\n      revert\n    tag_28:\n        /* \"package/contracts/test/TestRRUtils.sol\":647:648  5 */\n      0x05\n        /* \"package/contracts/test/TestRRUtils.sol\":614:643  hex\"0361626300\".nameLength(0) */\n      tag_30\n        /* \"package/contracts/test/TestRRUtils.sol\":641:642  0 */\n      0x00\n        /* \"package/contracts/test/TestRRUtils.sol\":614:640  hex\"0361626300\".nameLength */\n      mload(0x40)\n      dup1\n      0x40\n      add\n      0x40\n      mstore\n      dup1\n      0x05\n      dup2\n      mstore\n      0x20\n      add\n      0x0361626300000000000000000000000000000000000000000000000000000000\n      dup2\n      mstore\n      pop\n      tag_23\n      swap1\n        /* \"package/contracts/test/TestRRUtils.sol\":614:643  hex\"0361626300\".nameLength(0) */\n      swap2\n      swap1\n      0xffffffff\n      and\n      jump\t// in\n    tag_30:\n        /* \"package/contracts/test/TestRRUtils.sol\":614:648  hex\"0361626300\".nameLength(0) == 5 */\n      eq\n        /* \"package/contracts/test/TestRRUtils.sol\":606:676  require(hex\"0361626300\".nameLength(0) == 5, \"nameLength('abc.') == 5\") */\n      tag_31\n      jumpi\n      mload(0x40)\n      0x08c379a000000000000000000000000000000000000000000000000000000000\n      dup2\n      mstore\n      0x04\n      add\n      tag_32\n      swap1\n      tag_33\n      jump\t// in\n    tag_32:\n      mload(0x40)\n      dup1\n      swap2\n      sub\n      swap1\n      revert\n    tag_31:\n        /* \"package/contracts/test/TestRRUtils.sol\":424:681  function testNameLength() public pure {... */\n      jump\t// out\n        /* \"package/contracts/test/TestRRUtils.sol\":1048:1896  function testIterateRRs() public pure {... */\n    tag_12:\n        /* \"package/contracts/test/TestRRUtils.sol\":1156:1172  bytes memory rrs */\n      0x00\n        /* \"package/contracts/test/TestRRUtils.sol\":1156:1252  bytes memory rrs = hex\"0161000001000100000e1000047400000101620161000001000100000e100004c0a80101\" */\n      mload(0x40)\n      dup1\n      0x60\n      add\n      0x40\n      mstore\n      dup1\n      0x24\n      dup2\n      mstore\n      0x20\n      add\n      data_7874deaf77e6515b6984466873912a5efb4e4361c374564c916b56f1d2093fef\n      0x24\n      swap2\n      codecopy\n      swap1\n      pop\n        /* \"package/contracts/test/TestRRUtils.sol\":1258:1279  bytes[2] memory names */\n      0x00\n        /* \"package/contracts/test/TestRRUtils.sol\":1258:1326  bytes[2] memory names = [bytes(hex\"016100\"), bytes(hex\"0162016100\")] */\n      mload(0x40)\n      dup1\n      0x40\n      add\n      0x40\n      mstore\n      dup1\n        /* \"package/contracts/test/TestRRUtils.sol\":1283:1301  bytes(hex\"016100\") */\n      mload(0x40)\n      dup1\n      0x40\n      add\n      0x40\n      mstore\n      dup1\n      0x03\n      dup2\n      mstore\n      0x20\n      add\n      0x0161000000000000000000000000000000000000000000000000000000000000\n      dup2\n      mstore\n      pop\n        /* \"package/contracts/test/TestRRUtils.sol\":1258:1326  bytes[2] memory names = [bytes(hex\"016100\"), bytes(hex\"0162016100\")] */\n      dup2\n      mstore\n      0x20\n      add\n        /* \"package/contracts/test/TestRRUtils.sol\":1303:1325  bytes(hex\"0162016100\") */\n      mload(0x40)\n      dup1\n      0x40\n      add\n      0x40\n      mstore\n      dup1\n      0x05\n      dup2\n      mstore\n      0x20\n      add\n      0x0162016100000000000000000000000000000000000000000000000000000000\n      dup2\n      mstore\n      pop\n        /* \"package/contracts/test/TestRRUtils.sol\":1258:1326  bytes[2] memory names = [bytes(hex\"016100\"), bytes(hex\"0162016100\")] */\n      dup2\n      mstore\n      pop\n      swap1\n      pop\n        /* \"package/contracts/test/TestRRUtils.sol\":1332:1354  bytes[2] memory rdatas */\n      0x00\n        /* \"package/contracts/test/TestRRUtils.sol\":1332:1401  bytes[2] memory rdatas = [bytes(hex\"74000001\"), bytes(hex\"c0a80101\")] */\n      mload(0x40)\n      dup1\n      0x40\n      add\n      0x40\n      mstore\n      dup1\n        /* \"package/contracts/test/TestRRUtils.sol\":1358:1378  bytes(hex\"74000001\") */\n      mload(0x40)\n      dup1\n      0x40\n      add\n      0x40\n      mstore\n      dup1\n      0x04\n      dup2\n      mstore\n      0x20\n      add\n      0x7400000100000000000000000000000000000000000000000000000000000000\n      dup2\n      mstore\n      pop\n        /* \"package/contracts/test/TestRRUtils.sol\":1332:1401  bytes[2] memory rdatas = [bytes(hex\"74000001\"), bytes(hex\"c0a80101\")] */\n      dup2\n      mstore\n      0x20\n      add\n        /* \"package/contracts/test/TestRRUtils.sol\":1380:1400  bytes(hex\"c0a80101\") */\n      mload(0x40)\n      dup1\n      0x40\n      add\n      0x40\n      mstore\n      dup1\n      0x04\n      dup2\n      mstore\n      0x20\n      add\n      0xc0a8010100000000000000000000000000000000000000000000000000000000\n      dup2\n      mstore\n      pop\n        /* \"package/contracts/test/TestRRUtils.sol\":1332:1401  bytes[2] memory rdatas = [bytes(hex\"74000001\"), bytes(hex\"c0a80101\")] */\n      dup2\n      mstore\n      pop\n      swap1\n      pop\n        /* \"package/contracts/test/TestRRUtils.sol\":1407:1413  uint i */\n      0x00\n        /* \"package/contracts/test/TestRRUtils.sol\":1428:1458  RRUtils.RRIterator memory iter */\n      dup1\n        /* \"package/contracts/test/TestRRUtils.sol\":1461:1478  rrs.iterateRRs(0) */\n      tag_38\n        /* \"package/contracts/test/TestRRUtils.sol\":1476:1477  0 */\n      0x00\n        /* \"package/contracts/test/TestRRUtils.sol\":1461:1464  rrs */\n      dup7\n        /* \"package/contracts/test/TestRRUtils.sol\":1461:1475  rrs.iterateRRs */\n      tag_39\n      swap1\n        /* \"package/contracts/test/TestRRUtils.sol\":1461:1478  rrs.iterateRRs(0) */\n      swap2\n      swap1\n      0xffffffff\n      and\n      jump\t// in\n    tag_38:\n        /* \"package/contracts/test/TestRRUtils.sol\":1428:1478  RRUtils.RRIterator memory iter = rrs.iterateRRs(0) */\n      swap1\n      pop\n        /* \"package/contracts/test/TestRRUtils.sol\":1423:1849  for (RRUtils.RRIterator memory iter = rrs.iterateRRs(0); !iter.done(); iter.next()) {... */\n    tag_35:\n        /* \"package/contracts/test/TestRRUtils.sol\":1481:1492  iter.done() */\n      tag_40\n        /* \"package/contracts/test/TestRRUtils.sol\":1481:1485  iter */\n      dup2\n        /* \"package/contracts/test/TestRRUtils.sol\":1481:1490  iter.done */\n      tag_41\n        /* \"package/contracts/test/TestRRUtils.sol\":1481:1492  iter.done() */\n      jump\t// in\n    tag_40:\n        /* \"package/contracts/test/TestRRUtils.sol\":1423:1849  for (RRUtils.RRIterator memory iter = rrs.iterateRRs(0); !iter.done(); iter.next()) {... */\n      tag_36\n      jumpi\n        /* \"package/contracts/test/TestRRUtils.sol\":1545:1546  1 */\n      0x01\n        /* \"package/contracts/test/TestRRUtils.sol\":1528:1532  iter */\n      dup2\n        /* \"package/contracts/test/TestRRUtils.sol\":1528:1540  iter.dnstype */\n      0x40\n      add\n      mload\n        /* \"package/contracts/test/TestRRUtils.sol\":1523:1541  uint(iter.dnstype) */\n      0xffff\n      and\n        /* \"package/contracts/test/TestRRUtils.sol\":1523:1546  uint(iter.dnstype) == 1 */\n      eq\n        /* \"package/contracts/test/TestRRUtils.sol\":1515:1563  require(uint(iter.dnstype) == 1, \"Type matches\") */\n      tag_42\n      jumpi\n      mload(0x40)\n      0x08c379a000000000000000000000000000000000000000000000000000000000\n      dup2\n      mstore\n      0x04\n      add\n      tag_43\n      swap1\n      tag_44\n      jump\t// in\n    tag_43:\n      mload(0x40)\n      dup1\n      swap2\n      sub\n      swap1\n      revert\n    tag_42:\n        /* \"package/contracts/test/TestRRUtils.sol\":1599:1600  1 */\n      0x01\n        /* \"package/contracts/test/TestRRUtils.sol\":1584:1588  iter */\n      dup2\n        /* \"package/contracts/test/TestRRUtils.sol\":1584:1594  iter.class */\n      0x60\n      add\n      mload\n        /* \"package/contracts/test/TestRRUtils.sol\":1579:1595  uint(iter.class) */\n      0xffff\n      and\n        /* \"package/contracts/test/TestRRUtils.sol\":1579:1600  uint(iter.class) == 1 */\n      eq\n        /* \"package/contracts/test/TestRRUtils.sol\":1571:1618  require(uint(iter.class) == 1, \"Class matches\") */\n      tag_45\n      jumpi\n      mload(0x40)\n      0x08c379a000000000000000000000000000000000000000000000000000000000\n      dup2\n      mstore\n      0x04\n      add\n      tag_46\n      swap1\n      tag_47\n      jump\t// in\n    tag_46:\n      mload(0x40)\n      dup1\n      swap2\n      sub\n      swap1\n      revert\n    tag_45:\n        /* \"package/contracts/test/TestRRUtils.sol\":1652:1656  3600 */\n      0x0e10\n        /* \"package/contracts/test/TestRRUtils.sol\":1639:1643  iter */\n      dup2\n        /* \"package/contracts/test/TestRRUtils.sol\":1639:1647  iter.ttl */\n      0x80\n      add\n      mload\n        /* \"package/contracts/test/TestRRUtils.sol\":1634:1648  uint(iter.ttl) */\n      0xffffffff\n      and\n        /* \"package/contracts/test/TestRRUtils.sol\":1634:1656  uint(iter.ttl) == 3600 */\n      eq\n        /* \"package/contracts/test/TestRRUtils.sol\":1626:1672  require(uint(iter.ttl) == 3600, \"TTL matches\") */\n      tag_48\n      jumpi\n      mload(0x40)\n      0x08c379a000000000000000000000000000000000000000000000000000000000\n      dup2\n      mstore\n      0x04\n      add\n      tag_49\n      swap1\n      tag_50\n      jump\t// in\n    tag_49:\n      mload(0x40)\n      dup1\n      swap2\n      sub\n      swap1\n      revert\n    tag_48:\n        /* \"package/contracts/test/TestRRUtils.sol\":1724:1729  names */\n      dup4\n        /* \"package/contracts/test/TestRRUtils.sol\":1730:1731  i */\n      dup3\n        /* \"package/contracts/test/TestRRUtils.sol\":1724:1732  names[i] */\n      0x02\n      dup2\n      lt\n      tag_51\n      jumpi\n      tag_52\n      tag_53\n      jump\t// in\n    tag_52:\n    tag_51:\n      0x20\n      mul\n      add\n      mload\n        /* \"package/contracts/test/TestRRUtils.sol\":1714:1733  keccak256(names[i]) */\n      dup1\n      mload\n      swap1\n      0x20\n      add\n      keccak256\n        /* \"package/contracts/test/TestRRUtils.sol\":1698:1709  iter.name() */\n      tag_54\n        /* \"package/contracts/test/TestRRUtils.sol\":1698:1702  iter */\n      dup3\n        /* \"package/contracts/test/TestRRUtils.sol\":1698:1707  iter.name */\n      tag_55\n        /* \"package/contracts/test/TestRRUtils.sol\":1698:1709  iter.name() */\n      jump\t// in\n    tag_54:\n        /* \"package/contracts/test/TestRRUtils.sol\":1688:1710  keccak256(iter.name()) */\n      dup1\n      mload\n      swap1\n      0x20\n      add\n      keccak256\n        /* \"package/contracts/test/TestRRUtils.sol\":1688:1733  keccak256(iter.name()) == keccak256(names[i]) */\n      eq\n        /* \"package/contracts/test/TestRRUtils.sol\":1680:1750  require(keccak256(iter.name()) == keccak256(names[i]), \"Name matches\") */\n      tag_56\n      jumpi\n      mload(0x40)\n      0x08c379a000000000000000000000000000000000000000000000000000000000\n      dup2\n      mstore\n      0x04\n      add\n      tag_57\n      swap1\n      tag_58\n      jump\t// in\n    tag_57:\n      mload(0x40)\n      dup1\n      swap2\n      sub\n      swap1\n      revert\n    tag_56:\n        /* \"package/contracts/test/TestRRUtils.sol\":1803:1809  rdatas */\n      dup3\n        /* \"package/contracts/test/TestRRUtils.sol\":1810:1811  i */\n      dup3\n        /* \"package/contracts/test/TestRRUtils.sol\":1803:1812  rdatas[i] */\n      0x02\n      dup2\n      lt\n      tag_59\n      jumpi\n      tag_60\n      tag_53\n      jump\t// in\n    tag_60:\n    tag_59:\n      0x20\n      mul\n      add\n      mload\n        /* \"package/contracts/test/TestRRUtils.sol\":1793:1813  keccak256(rdatas[i]) */\n      dup1\n      mload\n      swap1\n      0x20\n      add\n      keccak256\n        /* \"package/contracts/test/TestRRUtils.sol\":1776:1788  iter.rdata() */\n      tag_61\n        /* \"package/contracts/test/TestRRUtils.sol\":1776:1780  iter */\n      dup3\n        /* \"package/contracts/test/TestRRUtils.sol\":1776:1786  iter.rdata */\n      tag_62\n        /* \"package/contracts/test/TestRRUtils.sol\":1776:1788  iter.rdata() */\n      jump\t// in\n    tag_61:\n        /* \"package/contracts/test/TestRRUtils.sol\":1766:1789  keccak256(iter.rdata()) */\n      dup1\n      mload\n      swap1\n      0x20\n      add\n      keccak256\n        /* \"package/contracts/test/TestRRUtils.sol\":1766:1813  keccak256(iter.rdata()) == keccak256(rdatas[i]) */\n      eq\n        /* \"package/contracts/test/TestRRUtils.sol\":1758:1831  require(keccak256(iter.rdata()) == keccak256(rdatas[i]), \"Rdata matches\") */\n      tag_63\n      jumpi\n      mload(0x40)\n      0x08c379a000000000000000000000000000000000000000000000000000000000\n      dup2\n      mstore\n      0x04\n      add\n      tag_64\n      swap1\n      tag_65\n      jump\t// in\n    tag_64:\n      mload(0x40)\n      dup1\n      swap2\n      sub\n      swap1\n      revert\n    tag_63:\n        /* \"package/contracts/test/TestRRUtils.sol\":1839:1842  i++ */\n      dup2\n      dup1\n      tag_66\n      swap1\n      tag_67\n      jump\t// in\n    tag_66:\n      swap3\n      pop\n      pop\n        /* \"package/contracts/test/TestRRUtils.sol\":1494:1505  iter.next() */\n      tag_68\n        /* \"package/contracts/test/TestRRUtils.sol\":1494:1498  iter */\n      dup2\n        /* \"package/contracts/test/TestRRUtils.sol\":1494:1503  iter.next */\n      tag_69\n        /* \"package/contracts/test/TestRRUtils.sol\":1494:1505  iter.next() */\n      jump\t// in\n    tag_68:\n        /* \"package/contracts/test/TestRRUtils.sol\":1423:1849  for (RRUtils.RRIterator memory iter = rrs.iterateRRs(0); !iter.done(); iter.next()) {... */\n      jump(tag_35)\n    tag_36:\n      pop\n        /* \"package/contracts/test/TestRRUtils.sol\":1867:1868  2 */\n      0x02\n        /* \"package/contracts/test/TestRRUtils.sol\":1862:1863  i */\n      dup2\n        /* \"package/contracts/test/TestRRUtils.sol\":1862:1868  i == 2 */\n      eq\n        /* \"package/contracts/test/TestRRUtils.sol\":1854:1891  require(i == 2, \"Expected 2 records\") */\n      tag_70\n      jumpi\n      mload(0x40)\n      0x08c379a000000000000000000000000000000000000000000000000000000000\n      dup2\n      mstore\n      0x04\n      add\n      tag_71\n      swap1\n      tag_72\n      jump\t// in\n    tag_71:\n      mload(0x40)\n      dup1\n      swap2\n      sub\n      swap1\n      revert\n    tag_70:\n        /* \"package/contracts/test/TestRRUtils.sol\":1086:1896  {... */\n      pop\n      pop\n      pop\n      pop\n        /* \"package/contracts/test/TestRRUtils.sol\":1048:1896  function testIterateRRs() public pure {... */\n      jump\t// out\n        /* \"package/contracts/test/TestRRUtils.sol\":1972:4346  function testCompareNames() public pure {... */\n    tag_14:\n        /* \"package/contracts/test/TestRRUtils.sol\":2018:2040  bytes memory bthLabXyz */\n      0x00\n        /* \"package/contracts/test/TestRRUtils.sol\":2018:2072  bytes memory bthLabXyz = hex\"066274686c61620378797a00\" */\n      mload(0x40)\n      dup1\n      0x40\n      add\n      0x40\n      mstore\n      dup1\n      0x0c\n      dup2\n      mstore\n      0x20\n      add\n      0x066274686c61620378797a000000000000000000000000000000000000000000\n      dup2\n      mstore\n      pop\n      swap1\n      pop\n        /* \"package/contracts/test/TestRRUtils.sol\":2078:2100  bytes memory ethLabXyz */\n      0x00\n        /* \"package/contracts/test/TestRRUtils.sol\":2078:2132  bytes memory ethLabXyz = hex\"066574686c61620378797a00\" */\n      mload(0x40)\n      dup1\n      0x40\n      add\n      0x40\n      mstore\n      dup1\n      0x0c\n      dup2\n      mstore\n      0x20\n      add\n      0x066574686c61620378797a000000000000000000000000000000000000000000\n      dup2\n      mstore\n      pop\n      swap1\n      pop\n        /* \"package/contracts/test/TestRRUtils.sol\":2138:2154  bytes memory xyz */\n      0x00\n        /* \"package/contracts/test/TestRRUtils.sol\":2138:2172  bytes memory xyz = hex\"0378797a00\" */\n      mload(0x40)\n      dup1\n      0x40\n      add\n      0x40\n      mstore\n      dup1\n      0x05\n      dup2\n      mstore\n      0x20\n      add\n      0x0378797a00000000000000000000000000000000000000000000000000000000\n      dup2\n      mstore\n      pop\n      swap1\n      pop\n        /* \"package/contracts/test/TestRRUtils.sol\":2178:2196  bytes memory a_b_c */\n      0x00\n        /* \"package/contracts/test/TestRRUtils.sol\":2178:2218  bytes memory a_b_c = hex\"01610162016300\" */\n      mload(0x40)\n      dup1\n      0x40\n      add\n      0x40\n      mstore\n      dup1\n      0x07\n      dup2\n      mstore\n      0x20\n      add\n      0x0161016201630000000000000000000000000000000000000000000000000000\n      dup2\n      mstore\n      pop\n      swap1\n      pop\n        /* \"package/contracts/test/TestRRUtils.sol\":2224:2242  bytes memory b_b_c */\n      0x00\n        /* \"package/contracts/test/TestRRUtils.sol\":2224:2264  bytes memory b_b_c = hex\"01620162016300\" */\n      mload(0x40)\n      dup1\n      0x40\n      add\n      0x40\n      mstore\n      dup1\n      0x07\n      dup2\n      mstore\n      0x20\n      add\n      0x0162016201630000000000000000000000000000000000000000000000000000\n      dup2\n      mstore\n      pop\n      swap1\n      pop\n        /* \"package/contracts/test/TestRRUtils.sol\":2270:2284  bytes memory c */\n      0x00\n        /* \"package/contracts/test/TestRRUtils.sol\":2270:2298  bytes memory c = hex\"016300\" */\n      mload(0x40)\n      dup1\n      0x40\n      add\n      0x40\n      mstore\n      dup1\n      0x03\n      dup2\n      mstore\n      0x20\n      add\n      0x0163000000000000000000000000000000000000000000000000000000000000\n      dup2\n      mstore\n      pop\n      swap1\n      pop\n        /* \"package/contracts/test/TestRRUtils.sol\":2304:2318  bytes memory d */\n      0x00\n        /* \"package/contracts/test/TestRRUtils.sol\":2304:2332  bytes memory d = hex\"016400\" */\n      mload(0x40)\n      dup1\n      0x40\n      add\n      0x40\n      mstore\n      dup1\n      0x03\n      dup2\n      mstore\n      0x20\n      add\n      0x0164000000000000000000000000000000000000000000000000000000000000\n      dup2\n      mstore\n      pop\n      swap1\n      pop\n        /* \"package/contracts/test/TestRRUtils.sol\":2338:2356  bytes memory a_d_c */\n      0x00\n        /* \"package/contracts/test/TestRRUtils.sol\":2338:2378  bytes memory a_d_c = hex\"01610164016300\" */\n      mload(0x40)\n      dup1\n      0x40\n      add\n      0x40\n      mstore\n      dup1\n      0x07\n      dup2\n      mstore\n      0x20\n      add\n      0x0161016401630000000000000000000000000000000000000000000000000000\n      dup2\n      mstore\n      pop\n      swap1\n      pop\n        /* \"package/contracts/test/TestRRUtils.sol\":2384:2402  bytes memory b_a_c */\n      0x00\n        /* \"package/contracts/test/TestRRUtils.sol\":2384:2424  bytes memory b_a_c = hex\"01620161016300\" */\n      mload(0x40)\n      dup1\n      0x40\n      add\n      0x40\n      mstore\n      dup1\n      0x07\n      dup2\n      mstore\n      0x20\n      add\n      0x0162016101630000000000000000000000000000000000000000000000000000\n      dup2\n      mstore\n      pop\n      swap1\n      pop\n        /* \"package/contracts/test/TestRRUtils.sol\":2430:2449  bytes memory ab_c_d */\n      0x00\n        /* \"package/contracts/test/TestRRUtils.sol\":2430:2473  bytes memory ab_c_d = hex\"0261620163016400\" */\n      mload(0x40)\n      dup1\n      0x40\n      add\n      0x40\n      mstore\n      dup1\n      0x08\n      dup2\n      mstore\n      0x20\n      add\n      0x0261620163016400000000000000000000000000000000000000000000000000\n      dup2\n      mstore\n      pop\n      swap1\n      pop\n        /* \"package/contracts/test/TestRRUtils.sol\":2479:2497  bytes memory a_c_d */\n      0x00\n        /* \"package/contracts/test/TestRRUtils.sol\":2479:2519  bytes memory a_c_d = hex\"01610163016400\" */\n      mload(0x40)\n      dup1\n      0x40\n      add\n      0x40\n      mstore\n      dup1\n      0x07\n      dup2\n      mstore\n      0x20\n      add\n      0x0161016301640000000000000000000000000000000000000000000000000000\n      dup2\n      mstore\n      pop\n      swap1\n      pop\n        /* \"package/contracts/test/TestRRUtils.sol\":2525:2557  bytes... */\n      0x00\n        /* \"package/contracts/test/TestRRUtils.sol\":2525:2745  bytes... */\n      mload(0x40)\n      dup1\n      0x80\n      add\n      0x40\n      mstore\n      dup1\n      0x5a\n      dup2\n      mstore\n      0x20\n      add\n      data_fcc6f36122078655b172d91213dbc1dc00a95fa513024ed118f5297b9210d932\n      0x5a\n      swap2\n      codecopy\n      swap1\n      pop\n        /* \"package/contracts/test/TestRRUtils.sol\":2751:2783  bytes... */\n      0x00\n        /* \"package/contracts/test/TestRRUtils.sol\":2751:2969  bytes... */\n      mload(0x40)\n      dup1\n      0x80\n      add\n      0x40\n      mstore\n      dup1\n      0x59\n      dup2\n      mstore\n      0x20\n      add\n      data_d2de1156772674a7a42cfad681d320a615b4afbe2aedd44999f24e5a9f3e3b59\n      0x59\n      swap2\n      codecopy\n      swap1\n      pop\n        /* \"package/contracts/test/TestRRUtils.sol\":3032:3033  0 */\n      0x00\n        /* \"package/contracts/test/TestRRUtils.sol\":2984:3029  hex\"0301616100\".compareNames(hex\"0302616200\") */\n      tag_74\n      mload(0x40)\n      dup1\n      0x40\n      add\n      0x40\n      mstore\n      dup1\n      0x05\n      dup2\n      mstore\n      0x20\n      add\n      0x0302616200000000000000000000000000000000000000000000000000000000\n      dup2\n      mstore\n      pop\n        /* \"package/contracts/test/TestRRUtils.sol\":2984:3012  hex\"0301616100\".compareNames */\n      mload(0x40)\n      dup1\n      0x40\n      add\n      0x40\n      mstore\n      dup1\n      0x05\n      dup2\n      mstore\n      0x20\n      add\n      0x0301616100000000000000000000000000000000000000000000000000000000\n      dup2\n      mstore\n      pop\n      tag_75\n      swap1\n        /* \"package/contracts/test/TestRRUtils.sol\":2984:3029  hex\"0301616100\".compareNames(hex\"0302616200\") */\n      swap2\n      swap1\n      0xffffffff\n      and\n      jump\t// in\n    tag_74:\n        /* \"package/contracts/test/TestRRUtils.sol\":2984:3033  hex\"0301616100\".compareNames(hex\"0302616200\") < 0 */\n      slt\n        /* \"package/contracts/test/TestRRUtils.sol\":2976:3073  require(hex\"0301616100\".compareNames(hex\"0302616200\") < 0, \"label lengths are correctly checked\") */\n      tag_76\n      jumpi\n      mload(0x40)\n      0x08c379a000000000000000000000000000000000000000000000000000000000\n      dup2\n      mstore\n      0x04\n      add\n      tag_77\n      swap1\n      tag_78\n      jump\t// in\n    tag_77:\n      mload(0x40)\n      dup1\n      swap2\n      sub\n      swap1\n      revert\n    tag_76:\n        /* \"package/contracts/test/TestRRUtils.sol\":3111:3112  0 */\n      0x00\n        /* \"package/contracts/test/TestRRUtils.sol\":3087:3108  a_b_c.compareNames(c) */\n      tag_79\n        /* \"package/contracts/test/TestRRUtils.sol\":3106:3107  c */\n      dup10\n        /* \"package/contracts/test/TestRRUtils.sol\":3087:3092  a_b_c */\n      dup13\n        /* \"package/contracts/test/TestRRUtils.sol\":3087:3105  a_b_c.compareNames */\n      tag_75\n      swap1\n        /* \"package/contracts/test/TestRRUtils.sol\":3087:3108  a_b_c.compareNames(c) */\n      swap2\n      swap1\n      0xffffffff\n      and\n      jump\t// in\n    tag_79:\n        /* \"package/contracts/test/TestRRUtils.sol\":3087:3112  a_b_c.compareNames(c) > 0 */\n      sgt\n        /* \"package/contracts/test/TestRRUtils.sol\":3079:3181  require(a_b_c.compareNames(c) > 0, \"one name has a difference of >1 label to with the same root name\") */\n      tag_80\n      jumpi\n      mload(0x40)\n      0x08c379a000000000000000000000000000000000000000000000000000000000\n      dup2\n      mstore\n      0x04\n      add\n      tag_81\n      swap1\n      tag_82\n      jump\t// in\n    tag_81:\n      mload(0x40)\n      dup1\n      swap2\n      sub\n      swap1\n      revert\n    tag_80:\n        /* \"package/contracts/test/TestRRUtils.sol\":3219:3220  0 */\n      0x00\n        /* \"package/contracts/test/TestRRUtils.sol\":3195:3216  a_b_c.compareNames(d) */\n      tag_83\n        /* \"package/contracts/test/TestRRUtils.sol\":3214:3215  d */\n      dup9\n        /* \"package/contracts/test/TestRRUtils.sol\":3195:3200  a_b_c */\n      dup13\n        /* \"package/contracts/test/TestRRUtils.sol\":3195:3213  a_b_c.compareNames */\n      tag_75\n      swap1\n        /* \"package/contracts/test/TestRRUtils.sol\":3195:3216  a_b_c.compareNames(d) */\n      swap2\n      swap1\n      0xffffffff\n      and\n      jump\t// in\n    tag_83:\n        /* \"package/contracts/test/TestRRUtils.sol\":3195:3220  a_b_c.compareNames(d) < 0 */\n      slt\n        /* \"package/contracts/test/TestRRUtils.sol\":3187:3290  require(a_b_c.compareNames(d) < 0, \"one name has a difference of >1 label to with different root name\") */\n      tag_84\n      jumpi\n      mload(0x40)\n      0x08c379a000000000000000000000000000000000000000000000000000000000\n      dup2\n      mstore\n      0x04\n      add\n      tag_85\n      swap1\n      tag_86\n      jump\t// in\n    tag_85:\n      mload(0x40)\n      dup1\n      swap2\n      sub\n      swap1\n      revert\n    tag_84:\n        /* \"package/contracts/test/TestRRUtils.sol\":3332:3333  0 */\n      0x00\n        /* \"package/contracts/test/TestRRUtils.sol\":3304:3329  a_b_c.compareNames(a_d_c) */\n      tag_87\n        /* \"package/contracts/test/TestRRUtils.sol\":3323:3328  a_d_c */\n      dup8\n        /* \"package/contracts/test/TestRRUtils.sol\":3304:3309  a_b_c */\n      dup13\n        /* \"package/contracts/test/TestRRUtils.sol\":3304:3322  a_b_c.compareNames */\n      tag_75\n      swap1\n        /* \"package/contracts/test/TestRRUtils.sol\":3304:3329  a_b_c.compareNames(a_d_c) */\n      swap2\n      swap1\n      0xffffffff\n      and\n      jump\t// in\n    tag_87:\n        /* \"package/contracts/test/TestRRUtils.sol\":3304:3333  a_b_c.compareNames(a_d_c) < 0 */\n      slt\n        /* \"package/contracts/test/TestRRUtils.sol\":3296:3399  require(a_b_c.compareNames(a_d_c) < 0, \"two names start the same but have differences in later labels\") */\n      tag_88\n      jumpi\n      mload(0x40)\n      0x08c379a000000000000000000000000000000000000000000000000000000000\n      dup2\n      mstore\n      0x04\n      add\n      tag_89\n      swap1\n      tag_90\n      jump\t// in\n    tag_89:\n      mload(0x40)\n      dup1\n      swap2\n      sub\n      swap1\n      revert\n    tag_88:\n        /* \"package/contracts/test/TestRRUtils.sol\":3441:3442  0 */\n      0x00\n        /* \"package/contracts/test/TestRRUtils.sol\":3413:3438  a_b_c.compareNames(b_a_c) */\n      tag_91\n        /* \"package/contracts/test/TestRRUtils.sol\":3432:3437  b_a_c */\n      dup7\n        /* \"package/contracts/test/TestRRUtils.sol\":3413:3418  a_b_c */\n      dup13\n        /* \"package/contracts/test/TestRRUtils.sol\":3413:3431  a_b_c.compareNames */\n      tag_75\n      swap1\n        /* \"package/contracts/test/TestRRUtils.sol\":3413:3438  a_b_c.compareNames(b_a_c) */\n      swap2\n      swap1\n      0xffffffff\n      and\n      jump\t// in\n    tag_91:\n        /* \"package/contracts/test/TestRRUtils.sol\":3413:3442  a_b_c.compareNames(b_a_c) > 0 */\n      sgt\n        /* \"package/contracts/test/TestRRUtils.sol\":3405:3509  require(a_b_c.compareNames(b_a_c) > 0, \"the first label sorts later, but the first label sorts earlier\") */\n      tag_92\n      jumpi\n      mload(0x40)\n      0x08c379a000000000000000000000000000000000000000000000000000000000\n      dup2\n      mstore\n      0x04\n      add\n      tag_93\n      swap1\n      tag_94\n      jump\t// in\n    tag_93:\n      mload(0x40)\n      dup1\n      swap2\n      sub\n      swap1\n      revert\n    tag_92:\n        /* \"package/contracts/test/TestRRUtils.sol\":3559:3560  0 */\n      0x00\n        /* \"package/contracts/test/TestRRUtils.sol\":3530:3556  ab_c_d.compareNames(a_c_d) */\n      tag_95\n        /* \"package/contracts/test/TestRRUtils.sol\":3550:3555  a_c_d */\n      dup5\n        /* \"package/contracts/test/TestRRUtils.sol\":3530:3536  ab_c_d */\n      dup7\n        /* \"package/contracts/test/TestRRUtils.sol\":3530:3549  ab_c_d.compareNames */\n      tag_75\n      swap1\n        /* \"package/contracts/test/TestRRUtils.sol\":3530:3556  ab_c_d.compareNames(a_c_d) */\n      swap2\n      swap1\n      0xffffffff\n      and\n      jump\t// in\n    tag_95:\n        /* \"package/contracts/test/TestRRUtils.sol\":3530:3560  ab_c_d.compareNames(a_c_d) > 0 */\n      sgt\n        /* \"package/contracts/test/TestRRUtils.sol\":3515:3658  require(... */\n      tag_96\n      jumpi\n      mload(0x40)\n      0x08c379a000000000000000000000000000000000000000000000000000000000\n      dup2\n      mstore\n      0x04\n      add\n      tag_97\n      swap1\n      tag_98\n      jump\t// in\n    tag_97:\n      mload(0x40)\n      dup1\n      swap2\n      sub\n      swap1\n      revert\n    tag_96:\n        /* \"package/contracts/test/TestRRUtils.sol\":3707:3708  0 */\n      0x00\n        /* \"package/contracts/test/TestRRUtils.sol\":3679:3704  a_b_c.compareNames(b_b_c) */\n      tag_99\n        /* \"package/contracts/test/TestRRUtils.sol\":3698:3703  b_b_c */\n      dup11\n        /* \"package/contracts/test/TestRRUtils.sol\":3679:3684  a_b_c */\n      dup13\n        /* \"package/contracts/test/TestRRUtils.sol\":3679:3697  a_b_c.compareNames */\n      tag_75\n      swap1\n        /* \"package/contracts/test/TestRRUtils.sol\":3679:3704  a_b_c.compareNames(b_b_c) */\n      swap2\n      swap1\n      0xffffffff\n      and\n      jump\t// in\n    tag_99:\n        /* \"package/contracts/test/TestRRUtils.sol\":3679:3708  a_b_c.compareNames(b_b_c) < 0 */\n      slt\n        /* \"package/contracts/test/TestRRUtils.sol\":3664:3806  require(... */\n      tag_100\n      jumpi\n      mload(0x40)\n      0x08c379a000000000000000000000000000000000000000000000000000000000\n      dup2\n      mstore\n      0x04\n      add\n      tag_101\n      swap1\n      tag_98\n      jump\t// in\n    tag_101:\n      mload(0x40)\n      dup1\n      swap2\n      sub\n      swap1\n      revert\n    tag_100:\n        /* \"package/contracts/test/TestRRUtils.sol\":3850:3851  0 */\n      0x00\n        /* \"package/contracts/test/TestRRUtils.sol\":3820:3847  xyz.compareNames(ethLabXyz) */\n      tag_102\n        /* \"package/contracts/test/TestRRUtils.sol\":3837:3846  ethLabXyz */\n      dup14\n        /* \"package/contracts/test/TestRRUtils.sol\":3820:3823  xyz */\n      dup14\n        /* \"package/contracts/test/TestRRUtils.sol\":3820:3836  xyz.compareNames */\n      tag_75\n      swap1\n        /* \"package/contracts/test/TestRRUtils.sol\":3820:3847  xyz.compareNames(ethLabXyz) */\n      swap2\n      swap1\n      0xffffffff\n      and\n      jump\t// in\n    tag_102:\n        /* \"package/contracts/test/TestRRUtils.sol\":3820:3851  xyz.compareNames(ethLabXyz) < 0 */\n      slt\n        /* \"package/contracts/test/TestRRUtils.sol\":3812:3883  require(xyz.compareNames(ethLabXyz) < 0, \"xyz comes before ethLab.xyz\") */\n      tag_103\n      jumpi\n      mload(0x40)\n      0x08c379a000000000000000000000000000000000000000000000000000000000\n      dup2\n      mstore\n      0x04\n      add\n      tag_104\n      swap1\n      tag_105\n      jump\t// in\n    tag_104:\n      mload(0x40)\n      dup1\n      swap2\n      sub\n      swap1\n      revert\n    tag_103:\n        /* \"package/contracts/test/TestRRUtils.sol\":3933:3934  0 */\n      0x00\n        /* \"package/contracts/test/TestRRUtils.sol\":3897:3930  bthLabXyz.compareNames(ethLabXyz) */\n      tag_106\n        /* \"package/contracts/test/TestRRUtils.sol\":3920:3929  ethLabXyz */\n      dup14\n        /* \"package/contracts/test/TestRRUtils.sol\":3897:3906  bthLabXyz */\n      dup16\n        /* \"package/contracts/test/TestRRUtils.sol\":3897:3919  bthLabXyz.compareNames */\n      tag_75\n      swap1\n        /* \"package/contracts/test/TestRRUtils.sol\":3897:3930  bthLabXyz.compareNames(ethLabXyz) */\n      swap2\n      swap1\n      0xffffffff\n      and\n      jump\t// in\n    tag_106:\n        /* \"package/contracts/test/TestRRUtils.sol\":3897:3934  bthLabXyz.compareNames(ethLabXyz) < 0 */\n      slt\n        /* \"package/contracts/test/TestRRUtils.sol\":3889:3973  require(bthLabXyz.compareNames(ethLabXyz) < 0, \"bthLab.xyz comes before ethLab.xyz\") */\n      tag_107\n      jumpi\n      mload(0x40)\n      0x08c379a000000000000000000000000000000000000000000000000000000000\n      dup2\n      mstore\n      0x04\n      add\n      tag_108\n      swap1\n      tag_109\n      jump\t// in\n    tag_108:\n      mload(0x40)\n      dup1\n      swap2\n      sub\n      swap1\n      revert\n    tag_107:\n        /* \"package/contracts/test/TestRRUtils.sol\":4024:4025  0 */\n      0x00\n        /* \"package/contracts/test/TestRRUtils.sol\":3987:4020  bthLabXyz.compareNames(bthLabXyz) */\n      tag_110\n        /* \"package/contracts/test/TestRRUtils.sol\":4010:4019  bthLabXyz */\n      dup15\n        /* \"package/contracts/test/TestRRUtils.sol\":3987:3996  bthLabXyz */\n      dup16\n        /* \"package/contracts/test/TestRRUtils.sol\":3987:4009  bthLabXyz.compareNames */\n      tag_75\n      swap1\n        /* \"package/contracts/test/TestRRUtils.sol\":3987:4020  bthLabXyz.compareNames(bthLabXyz) */\n      swap2\n      swap1\n      0xffffffff\n      and\n      jump\t// in\n    tag_110:\n        /* \"package/contracts/test/TestRRUtils.sol\":3987:4025  bthLabXyz.compareNames(bthLabXyz) == 0 */\n      eq\n        /* \"package/contracts/test/TestRRUtils.sol\":3979:4068  require(bthLabXyz.compareNames(bthLabXyz) == 0, \"bthLab.xyz and bthLab.xyz are the same\") */\n      tag_111\n      jumpi\n      mload(0x40)\n      0x08c379a000000000000000000000000000000000000000000000000000000000\n      dup2\n      mstore\n      0x04\n      add\n      tag_112\n      swap1\n      tag_113\n      jump\t// in\n    tag_112:\n      mload(0x40)\n      dup1\n      swap2\n      sub\n      swap1\n      revert\n    tag_111:\n        /* \"package/contracts/test/TestRRUtils.sol\":4118:4119  0 */\n      0x00\n        /* \"package/contracts/test/TestRRUtils.sol\":4082:4115  ethLabXyz.compareNames(bthLabXyz) */\n      tag_114\n        /* \"package/contracts/test/TestRRUtils.sol\":4105:4114  bthLabXyz */\n      dup15\n        /* \"package/contracts/test/TestRRUtils.sol\":4082:4091  ethLabXyz */\n      dup15\n        /* \"package/contracts/test/TestRRUtils.sol\":4082:4104  ethLabXyz.compareNames */\n      tag_75\n      swap1\n        /* \"package/contracts/test/TestRRUtils.sol\":4082:4115  ethLabXyz.compareNames(bthLabXyz) */\n      swap2\n      swap1\n      0xffffffff\n      and\n      jump\t// in\n    tag_114:\n        /* \"package/contracts/test/TestRRUtils.sol\":4082:4119  ethLabXyz.compareNames(bthLabXyz) > 0 */\n      sgt\n        /* \"package/contracts/test/TestRRUtils.sol\":4074:4158  require(ethLabXyz.compareNames(bthLabXyz) > 0, \"ethLab.xyz comes after bethLab.xyz\") */\n      tag_115\n      jumpi\n      mload(0x40)\n      0x08c379a000000000000000000000000000000000000000000000000000000000\n      dup2\n      mstore\n      0x04\n      add\n      tag_116\n      swap1\n      tag_117\n      jump\t// in\n    tag_116:\n      mload(0x40)\n      dup1\n      swap2\n      sub\n      swap1\n      revert\n    tag_115:\n        /* \"package/contracts/test/TestRRUtils.sol\":4202:4203  0 */\n      0x00\n        /* \"package/contracts/test/TestRRUtils.sol\":4172:4199  bthLabXyz.compareNames(xyz) */\n      tag_118\n        /* \"package/contracts/test/TestRRUtils.sol\":4195:4198  xyz */\n      dup13\n        /* \"package/contracts/test/TestRRUtils.sol\":4172:4181  bthLabXyz */\n      dup16\n        /* \"package/contracts/test/TestRRUtils.sol\":4172:4194  bthLabXyz.compareNames */\n      tag_75\n      swap1\n        /* \"package/contracts/test/TestRRUtils.sol\":4172:4199  bthLabXyz.compareNames(xyz) */\n      swap2\n      swap1\n      0xffffffff\n      and\n      jump\t// in\n    tag_118:\n        /* \"package/contracts/test/TestRRUtils.sol\":4172:4203  bthLabXyz.compareNames(xyz) > 0 */\n      sgt\n        /* \"package/contracts/test/TestRRUtils.sol\":4164:4234  require(bthLabXyz.compareNames(xyz) > 0, \"bthLab.xyz comes after xyz\") */\n      tag_119\n      jumpi\n      mload(0x40)\n      0x08c379a000000000000000000000000000000000000000000000000000000000\n      dup2\n      mstore\n      0x04\n      add\n      tag_120\n      swap1\n      tag_121\n      jump\t// in\n    tag_120:\n      mload(0x40)\n      dup1\n      swap2\n      sub\n      swap1\n      revert\n    tag_119:\n        /* \"package/contracts/test/TestRRUtils.sol\":4293:4294  0 */\n      0x00\n        /* \"package/contracts/test/TestRRUtils.sol\":4249:4290  verylong1_eth.compareNames(verylong2_eth) */\n      tag_122\n        /* \"package/contracts/test/TestRRUtils.sol\":4276:4289  verylong2_eth */\n      dup3\n        /* \"package/contracts/test/TestRRUtils.sol\":4249:4262  verylong1_eth */\n      dup5\n        /* \"package/contracts/test/TestRRUtils.sol\":4249:4275  verylong1_eth.compareNames */\n      tag_75\n      swap1\n        /* \"package/contracts/test/TestRRUtils.sol\":4249:4290  verylong1_eth.compareNames(verylong2_eth) */\n      swap2\n      swap1\n      0xffffffff\n      and\n      jump\t// in\n    tag_122:\n        /* \"package/contracts/test/TestRRUtils.sol\":4249:4294  verylong1_eth.compareNames(verylong2_eth) > 0 */\n      sgt\n        /* \"package/contracts/test/TestRRUtils.sol\":4241:4341  require(verylong1_eth.compareNames(verylong2_eth) > 0, \"longa.vlong.eth comes after long.vlong.eth\") */\n      tag_123\n      jumpi\n      mload(0x40)\n      0x08c379a000000000000000000000000000000000000000000000000000000000\n      dup2\n      mstore\n      0x04\n      add\n      tag_124\n      swap1\n      tag_125\n      jump\t// in\n    tag_124:\n      mload(0x40)\n      dup1\n      swap2\n      sub\n      swap1\n      revert\n    tag_123:\n        /* \"package/contracts/test/TestRRUtils.sol\":2012:4346  {... */\n      pop\n      pop\n      pop\n      pop\n      pop\n      pop\n      pop\n      pop\n      pop\n      pop\n      pop\n      pop\n      pop\n        /* \"package/contracts/test/TestRRUtils.sol\":1972:4346  function testCompareNames() public pure {... */\n      jump\t// out\n        /* \"package/contracts/test/TestRRUtils.sol\":4350:4801  function testSerialNumberGt() public pure {... */\n    tag_16:\n        /* \"package/contracts/test/TestRRUtils.sol\":4406:4435  RRUtils.serialNumberGte(1, 0) */\n      tag_127\n        /* \"package/contracts/test/TestRRUtils.sol\":4430:4431  1 */\n      0x01\n        /* \"package/contracts/test/TestRRUtils.sol\":4433:4434  0 */\n      0x00\n        /* \"package/contracts/test/TestRRUtils.sol\":4406:4429  RRUtils.serialNumberGte */\n      tag_128\n        /* \"package/contracts/test/TestRRUtils.sol\":4406:4435  RRUtils.serialNumberGte(1, 0) */\n      jump\t// in\n    tag_127:\n        /* \"package/contracts/test/TestRRUtils.sol\":4398:4446  require(RRUtils.serialNumberGte(1, 0), \"1 >= 0\") */\n      tag_129\n      jumpi\n      mload(0x40)\n      0x08c379a000000000000000000000000000000000000000000000000000000000\n      dup2\n      mstore\n      0x04\n      add\n      tag_130\n      swap1\n      tag_131\n      jump\t// in\n    tag_130:\n      mload(0x40)\n      dup1\n      swap2\n      sub\n      swap1\n      revert\n    tag_129:\n        /* \"package/contracts/test/TestRRUtils.sol\":4461:4490  RRUtils.serialNumberGte(0, 1) */\n      tag_132\n        /* \"package/contracts/test/TestRRUtils.sol\":4485:4486  0 */\n      0x00\n        /* \"package/contracts/test/TestRRUtils.sol\":4488:4489  1 */\n      0x01\n        /* \"package/contracts/test/TestRRUtils.sol\":4461:4484  RRUtils.serialNumberGte */\n      tag_128\n        /* \"package/contracts/test/TestRRUtils.sol\":4461:4490  RRUtils.serialNumberGte(0, 1) */\n      jump\t// in\n    tag_132:\n        /* \"package/contracts/test/TestRRUtils.sol\":4460:4490  !RRUtils.serialNumberGte(0, 1) */\n      iszero\n        /* \"package/contracts/test/TestRRUtils.sol\":4452:4504  require(!RRUtils.serialNumberGte(0, 1), \"!(0 <= 1)\") */\n      tag_133\n      jumpi\n      mload(0x40)\n      0x08c379a000000000000000000000000000000000000000000000000000000000\n      dup2\n      mstore\n      0x04\n      add\n      tag_134\n      swap1\n      tag_135\n      jump\t// in\n    tag_134:\n      mload(0x40)\n      dup1\n      swap2\n      sub\n      swap1\n      revert\n    tag_133:\n        /* \"package/contracts/test/TestRRUtils.sol\":4518:4556  RRUtils.serialNumberGte(0, 0xFFFFFFFF) */\n      tag_136\n        /* \"package/contracts/test/TestRRUtils.sol\":4542:4543  0 */\n      0x00\n        /* \"package/contracts/test/TestRRUtils.sol\":4545:4555  0xFFFFFFFF */\n      0xffffffff\n        /* \"package/contracts/test/TestRRUtils.sol\":4518:4541  RRUtils.serialNumberGte */\n      tag_128\n        /* \"package/contracts/test/TestRRUtils.sol\":4518:4556  RRUtils.serialNumberGte(0, 0xFFFFFFFF) */\n      jump\t// in\n    tag_136:\n        /* \"package/contracts/test/TestRRUtils.sol\":4510:4576  require(RRUtils.serialNumberGte(0, 0xFFFFFFFF), \"0 >= 0xFFFFFFFF\") */\n      tag_137\n      jumpi\n      mload(0x40)\n      0x08c379a000000000000000000000000000000000000000000000000000000000\n      dup2\n      mstore\n      0x04\n      add\n      tag_138\n      swap1\n      tag_139\n      jump\t// in\n    tag_138:\n      mload(0x40)\n      dup1\n      swap2\n      sub\n      swap1\n      revert\n    tag_137:\n        /* \"package/contracts/test/TestRRUtils.sol\":4591:4629  RRUtils.serialNumberGte(0xFFFFFFFF, 0) */\n      tag_140\n        /* \"package/contracts/test/TestRRUtils.sol\":4615:4625  0xFFFFFFFF */\n      0xffffffff\n        /* \"package/contracts/test/TestRRUtils.sol\":4627:4628  0 */\n      0x00\n        /* \"package/contracts/test/TestRRUtils.sol\":4591:4614  RRUtils.serialNumberGte */\n      tag_128\n        /* \"package/contracts/test/TestRRUtils.sol\":4591:4629  RRUtils.serialNumberGte(0xFFFFFFFF, 0) */\n      jump\t// in\n    tag_140:\n        /* \"package/contracts/test/TestRRUtils.sol\":4590:4629  !RRUtils.serialNumberGte(0xFFFFFFFF, 0) */\n      iszero\n        /* \"package/contracts/test/TestRRUtils.sol\":4582:4652  require(!RRUtils.serialNumberGte(0xFFFFFFFF, 0), \"!(0 <= 0xFFFFFFFF)\") */\n      tag_141\n      jumpi\n      mload(0x40)\n      0x08c379a000000000000000000000000000000000000000000000000000000000\n      dup2\n      mstore\n      0x04\n      add\n      tag_142\n      swap1\n      tag_143\n      jump\t// in\n    tag_142:\n      mload(0x40)\n      dup1\n      swap2\n      sub\n      swap1\n      revert\n    tag_141:\n        /* \"package/contracts/test/TestRRUtils.sol\":4666:4713  RRUtils.serialNumberGte(0x11111111, 0xAAAAAAAA) */\n      tag_144\n        /* \"package/contracts/test/TestRRUtils.sol\":4690:4700  0x11111111 */\n      0x11111111\n        /* \"package/contracts/test/TestRRUtils.sol\":4702:4712  0xAAAAAAAA */\n      0xaaaaaaaa\n        /* \"package/contracts/test/TestRRUtils.sol\":4666:4689  RRUtils.serialNumberGte */\n      tag_128\n        /* \"package/contracts/test/TestRRUtils.sol\":4666:4713  RRUtils.serialNumberGte(0x11111111, 0xAAAAAAAA) */\n      jump\t// in\n    tag_144:\n        /* \"package/contracts/test/TestRRUtils.sol\":4658:4742  require(RRUtils.serialNumberGte(0x11111111, 0xAAAAAAAA), \"0x11111111 >= 0xAAAAAAAA\") */\n      tag_145\n      jumpi\n      mload(0x40)\n      0x08c379a000000000000000000000000000000000000000000000000000000000\n      dup2\n      mstore\n      0x04\n      add\n      tag_146\n      swap1\n      tag_147\n      jump\t// in\n    tag_146:\n      mload(0x40)\n      dup1\n      swap2\n      sub\n      swap1\n      revert\n    tag_145:\n        /* \"package/contracts/test/TestRRUtils.sol\":4756:4785  RRUtils.serialNumberGte(1, 1) */\n      tag_148\n        /* \"package/contracts/test/TestRRUtils.sol\":4780:4781  1 */\n      0x01\n        /* \"package/contracts/test/TestRRUtils.sol\":4783:4784  1 */\n      dup1\n        /* \"package/contracts/test/TestRRUtils.sol\":4756:4779  RRUtils.serialNumberGte */\n      tag_128\n        /* \"package/contracts/test/TestRRUtils.sol\":4756:4785  RRUtils.serialNumberGte(1, 1) */\n      jump\t// in\n    tag_148:\n        /* \"package/contracts/test/TestRRUtils.sol\":4748:4796  require(RRUtils.serialNumberGte(1, 1), \"1 >= 1\") */\n      tag_149\n      jumpi\n      mload(0x40)\n      0x08c379a000000000000000000000000000000000000000000000000000000000\n      dup2\n      mstore\n      0x04\n      add\n      tag_150\n      swap1\n      tag_151\n      jump\t// in\n    tag_150:\n      mload(0x40)\n      dup1\n      swap2\n      sub\n      swap1\n      revert\n    tag_149:\n        /* \"package/contracts/test/TestRRUtils.sol\":4350:4801  function testSerialNumberGt() public pure {... */\n      jump\t// out\n        /* \"package/contracts/test/TestRRUtils.sol\":4805:6790  function testKeyTag() public view {... */\n    tag_18:\n        /* \"package/contracts/test/TestRRUtils.sol\":5422:5427  19036 */\n      0x4a5c\n        /* \"package/contracts/test/TestRRUtils.sol\":4860:5418  hex\"0101030803010001a80020a95566ba42e886bb804cda84e47ef56dbd7aec612615552cec906d2116d0ef207028c51554144dfeafe7c7cb8f005dd18234133ac0710a81182ce1fd14ad2283bc83435f9df2f6313251931a176df0da51e54f42e604860dfb359580250f559cc543c4ffd51cbe3de8cfd06719237f9fc47ee729da06835fa452e825e9a18ebc2ecbcf563474652c33cf56a9033bcdf5d973121797ec8089041b6e03a1b72d0a735b984e03687309332324f27c2dba85e9db15e83a0143382e974b0621c18e625ecec907577d9e7bade95241a81ebbe8a901d4d3276e40b114c0a2e6fc38d19c2e6aab02644b2813f575fc21601e0dee49cd9ee96a43103e524d62873d\"... */\n      tag_153\n        /* \"package/contracts/test/TestRRUtils.sol\":4860:5416  hex\"0101030803010001a80020a95566ba42e886bb804cda84e47ef56dbd7aec612615552cec906d2116d0ef207028c51554144dfeafe7c7cb8f005dd18234133ac0710a81182ce1fd14ad2283bc83435f9df2f6313251931a176df0da51e54f42e604860dfb359580250f559cc543c4ffd51cbe3de8cfd06719237f9fc47ee729da06835fa452e825e9a18ebc2ecbcf563474652c33cf56a9033bcdf5d973121797ec8089041b6e03a1b72d0a735b984e03687309332324f27c2dba85e9db15e83a0143382e974b0621c18e625ecec907577d9e7bade95241a81ebbe8a901d4d3276e40b114c0a2e6fc38d19c2e6aab02644b2813f575fc21601e0dee49cd9ee96a43103e524d62873d\"... */\n      mload(0x40)\n      dup1\n      0x0140\n      add\n      0x40\n      mstore\n      dup1\n      0x0108\n      dup2\n      mstore\n      0x20\n      add\n      data_2a6038b82ef6c49cd128e46cc9b57978d0abb0b40d390f18c821daa0e66695ce\n      0x0108\n      swap2\n      codecopy\n      tag_154\n        /* \"package/contracts/test/TestRRUtils.sol\":4860:5418  hex\"0101030803010001a80020a95566ba42e886bb804cda84e47ef56dbd7aec612615552cec906d2116d0ef207028c51554144dfeafe7c7cb8f005dd18234133ac0710a81182ce1fd14ad2283bc83435f9df2f6313251931a176df0da51e54f42e604860dfb359580250f559cc543c4ffd51cbe3de8cfd06719237f9fc47ee729da06835fa452e825e9a18ebc2ecbcf563474652c33cf56a9033bcdf5d973121797ec8089041b6e03a1b72d0a735b984e03687309332324f27c2dba85e9db15e83a0143382e974b0621c18e625ecec907577d9e7bade95241a81ebbe8a901d4d3276e40b114c0a2e6fc38d19c2e6aab02644b2813f575fc21601e0dee49cd9ee96a43103e524d62873d\"... */\n      jump\t// in\n    tag_153:\n        /* \"package/contracts/test/TestRRUtils.sol\":4860:5427  hex\"0101030803010001a80020a95566ba42e886bb804cda84e47ef56dbd7aec612615552cec906d2116d0ef207028c51554144dfeafe7c7cb8f005dd18234133ac0710a81182ce1fd14ad2283bc83435f9df2f6313251931a176df0da51e54f42e604860dfb359580250f559cc543c4ffd51cbe3de8cfd06719237f9fc47ee729da06835fa452e825e9a18ebc2ecbcf563474652c33cf56a9033bcdf5d973121797ec8089041b6e03a1b72d0a735b984e03687309332324f27c2dba85e9db15e83a0143382e974b0621c18e625ecec907577d9e7bade95241a81ebbe8a901d4d3276e40b114c0a2e6fc38d19c2e6aab02644b2813f575fc21601e0dee49cd9ee96a43103e524d62873d\"... */\n      0xffff\n      and\n      eq\n        /* \"package/contracts/test/TestRRUtils.sol\":4845:5457  require(... */\n      tag_155\n      jumpi\n      mload(0x40)\n      0x08c379a000000000000000000000000000000000000000000000000000000000\n      dup2\n      mstore\n      0x04\n      add\n      tag_156\n      swap1\n      tag_157\n      jump\t// in\n    tag_156:\n      mload(0x40)\n      dup1\n      swap2\n      sub\n      swap1\n      revert\n    tag_155:\n        /* \"package/contracts/test/TestRRUtils.sol\":5786:5791  21693 */\n      0x54bd\n        /* \"package/contracts/test/TestRRUtils.sol\":5478:5782  hex\"010003050440000003ba2fa05a75e173bede89eb71831ab14035f2408ad09df4d8dc8f8f72e8f13506feaddf7b04cb14958b82966e3420562302c4002bc4fd088432e160519bb14dae82443850c1423e06085710b5caf070d46b7ba7e481414f6a5fe225fdca984c959091645d0cf1c9a1a313d7e7fb7ba60b967b71a65f8cef2c3768e11b081c8fcf\"... */\n      tag_158\n        /* \"package/contracts/test/TestRRUtils.sol\":5478:5780  hex\"010003050440000003ba2fa05a75e173bede89eb71831ab14035f2408ad09df4d8dc8f8f72e8f13506feaddf7b04cb14958b82966e3420562302c4002bc4fd088432e160519bb14dae82443850c1423e06085710b5caf070d46b7ba7e481414f6a5fe225fdca984c959091645d0cf1c9a1a313d7e7fb7ba60b967b71a65f8cef2c3768e11b081c8fcf\"... */\n      mload(0x40)\n      dup1\n      0xc0\n      add\n      0x40\n      mstore\n      dup1\n      0x89\n      dup2\n      mstore\n      0x20\n      add\n      data_c7a0ab182ed40bafd9bc44e2ddf37a4352f56d00d9c464faefe015a51eefa4b6\n      0x89\n      swap2\n      codecopy\n      tag_154\n        /* \"package/contracts/test/TestRRUtils.sol\":5478:5782  hex\"010003050440000003ba2fa05a75e173bede89eb71831ab14035f2408ad09df4d8dc8f8f72e8f13506feaddf7b04cb14958b82966e3420562302c4002bc4fd088432e160519bb14dae82443850c1423e06085710b5caf070d46b7ba7e481414f6a5fe225fdca984c959091645d0cf1c9a1a313d7e7fb7ba60b967b71a65f8cef2c3768e11b081c8fcf\"... */\n      jump\t// in\n    tag_158:\n        /* \"package/contracts/test/TestRRUtils.sol\":5478:5791  hex\"010003050440000003ba2fa05a75e173bede89eb71831ab14035f2408ad09df4d8dc8f8f72e8f13506feaddf7b04cb14958b82966e3420562302c4002bc4fd088432e160519bb14dae82443850c1423e06085710b5caf070d46b7ba7e481414f6a5fe225fdca984c959091645d0cf1c9a1a313d7e7fb7ba60b967b71a65f8cef2c3768e11b081c8fcf\"... */\n      0xffff\n      and\n      eq\n        /* \"package/contracts/test/TestRRUtils.sol\":5463:5825  require(... */\n      tag_159\n      jumpi\n      mload(0x40)\n      0x08c379a000000000000000000000000000000000000000000000000000000000\n      dup2\n      mstore\n      0x04\n      add\n      tag_160\n      swap1\n      tag_161\n      jump\t// in\n    tag_160:\n      mload(0x40)\n      dup1\n      swap2\n      sub\n      swap1\n      revert\n    tag_159:\n        /* \"package/contracts/test/TestRRUtils.sol\":6152:6157  33630 */\n      0x835e\n        /* \"package/contracts/test/TestRRUtils.sol\":5846:6148  hex\"0100030503010001bfa54c38d909fabb0f937d70d775ba0df4c0badb09707d995249406950407a621c794c68b186b15dbf8f9f9ea231e9f96414ccda4eceb50b17a9ac6c4bd4b95da04849e96ee791578b703bc9ae184fb1794bac792a0787f693a40f19f523ee6dbd3599dbaaa9a50437926ecf6438845d1d49448962524f2a1a7a36b3a0a1eca3\"... */\n      tag_162\n        /* \"package/contracts/test/TestRRUtils.sol\":5846:6146  hex\"0100030503010001bfa54c38d909fabb0f937d70d775ba0df4c0badb09707d995249406950407a621c794c68b186b15dbf8f9f9ea231e9f96414ccda4eceb50b17a9ac6c4bd4b95da04849e96ee791578b703bc9ae184fb1794bac792a0787f693a40f19f523ee6dbd3599dbaaa9a50437926ecf6438845d1d49448962524f2a1a7a36b3a0a1eca3\"... */\n      mload(0x40)\n      dup1\n      0xc0\n      add\n      0x40\n      mstore\n      dup1\n      0x88\n      dup2\n      mstore\n      0x20\n      add\n      data_9af7e7e0768f18374b9fd74711188f6f0b94bad3360e7dfca2c402fe1ab45a65\n      0x88\n      swap2\n      codecopy\n      tag_154\n        /* \"package/contracts/test/TestRRUtils.sol\":5846:6148  hex\"0100030503010001bfa54c38d909fabb0f937d70d775ba0df4c0badb09707d995249406950407a621c794c68b186b15dbf8f9f9ea231e9f96414ccda4eceb50b17a9ac6c4bd4b95da04849e96ee791578b703bc9ae184fb1794bac792a0787f693a40f19f523ee6dbd3599dbaaa9a50437926ecf6438845d1d49448962524f2a1a7a36b3a0a1eca3\"... */\n      jump\t// in\n    tag_162:\n        /* \"package/contracts/test/TestRRUtils.sol\":5846:6157  hex\"0100030503010001bfa54c38d909fabb0f937d70d775ba0df4c0badb09707d995249406950407a621c794c68b186b15dbf8f9f9ea231e9f96414ccda4eceb50b17a9ac6c4bd4b95da04849e96ee791578b703bc9ae184fb1794bac792a0787f693a40f19f523ee6dbd3599dbaaa9a50437926ecf6438845d1d49448962524f2a1a7a36b3a0a1eca3\"... */\n      0xffff\n      and\n      eq\n        /* \"package/contracts/test/TestRRUtils.sol\":5831:6163  require(... */\n      tag_163\n      jumpi\n      0x00\n      dup1\n      revert\n    tag_163:\n        /* \"package/contracts/test/TestRRUtils.sol\":6746:6751  20326 */\n      0x4f66\n        /* \"package/contracts/test/TestRRUtils.sol\":6184:6742  hex\"0101030803010001acffb409bcc939f831f7a1e5ec88f7a59255ec53040be432027390a4ce896d6f9086f3c5e177fbfe118163aaec7af1462c47945944c4e2c026be5e98bbcded25978272e1e3e079c5094d573f0e83c92f02b32d3513b1550b826929c80dd0f92cac966d17769fd5867b647c3f38029abdc48152eb8f207159ecc5d232c7c1537c79f4b7ac28ff11682f21681bf6d6aba555032bf6f9f036beb2aaa5b3778d6eebfba6bf9ea191be4ab0caea759e2f773a1f9029c73ecb8d5735b9321db085f1b8e2d8038fe2941992548cee0d67dd4547e11dd63af9c9fc1c5466fb684cf009d7197c2cf79e792ab501e6a8a1ca519af2cb9b5f6367e94c0d47502451357be1b5\"... */\n      tag_164\n        /* \"package/contracts/test/TestRRUtils.sol\":6184:6740  hex\"0101030803010001acffb409bcc939f831f7a1e5ec88f7a59255ec53040be432027390a4ce896d6f9086f3c5e177fbfe118163aaec7af1462c47945944c4e2c026be5e98bbcded25978272e1e3e079c5094d573f0e83c92f02b32d3513b1550b826929c80dd0f92cac966d17769fd5867b647c3f38029abdc48152eb8f207159ecc5d232c7c1537c79f4b7ac28ff11682f21681bf6d6aba555032bf6f9f036beb2aaa5b3778d6eebfba6bf9ea191be4ab0caea759e2f773a1f9029c73ecb8d5735b9321db085f1b8e2d8038fe2941992548cee0d67dd4547e11dd63af9c9fc1c5466fb684cf009d7197c2cf79e792ab501e6a8a1ca519af2cb9b5f6367e94c0d47502451357be1b5\"... */\n      mload(0x40)\n      dup1\n      0x0140\n      add\n      0x40\n      mstore\n      dup1\n      0x0108\n      dup2\n      mstore\n      0x20\n      add\n      data_2be826a96b15ea9dc899f081cf4dc1d8c2a818c2d43ca0f64e723cc452de14fe\n      0x0108\n      swap2\n      codecopy\n      tag_154\n        /* \"package/contracts/test/TestRRUtils.sol\":6184:6742  hex\"0101030803010001acffb409bcc939f831f7a1e5ec88f7a59255ec53040be432027390a4ce896d6f9086f3c5e177fbfe118163aaec7af1462c47945944c4e2c026be5e98bbcded25978272e1e3e079c5094d573f0e83c92f02b32d3513b1550b826929c80dd0f92cac966d17769fd5867b647c3f38029abdc48152eb8f207159ecc5d232c7c1537c79f4b7ac28ff11682f21681bf6d6aba555032bf6f9f036beb2aaa5b3778d6eebfba6bf9ea191be4ab0caea759e2f773a1f9029c73ecb8d5735b9321db085f1b8e2d8038fe2941992548cee0d67dd4547e11dd63af9c9fc1c5466fb684cf009d7197c2cf79e792ab501e6a8a1ca519af2cb9b5f6367e94c0d47502451357be1b5\"... */\n      jump\t// in\n    tag_164:\n        /* \"package/contracts/test/TestRRUtils.sol\":6184:6751  hex\"0101030803010001acffb409bcc939f831f7a1e5ec88f7a59255ec53040be432027390a4ce896d6f9086f3c5e177fbfe118163aaec7af1462c47945944c4e2c026be5e98bbcded25978272e1e3e079c5094d573f0e83c92f02b32d3513b1550b826929c80dd0f92cac966d17769fd5867b647c3f38029abdc48152eb8f207159ecc5d232c7c1537c79f4b7ac28ff11682f21681bf6d6aba555032bf6f9f036beb2aaa5b3778d6eebfba6bf9ea191be4ab0caea759e2f773a1f9029c73ecb8d5735b9321db085f1b8e2d8038fe2941992548cee0d67dd4547e11dd63af9c9fc1c5466fb684cf009d7197c2cf79e792ab501e6a8a1ca519af2cb9b5f6367e94c0d47502451357be1b5\"... */\n      0xffff\n      and\n      eq\n        /* \"package/contracts/test/TestRRUtils.sol\":6169:6785  require(... */\n      tag_165\n      jumpi\n      mload(0x40)\n      0x08c379a000000000000000000000000000000000000000000000000000000000\n      dup2\n      mstore\n      0x04\n      add\n      tag_166\n      swap1\n      tag_167\n      jump\t// in\n    tag_166:\n      mload(0x40)\n      dup1\n      swap2\n      sub\n      swap1\n      revert\n    tag_165:\n        /* \"package/contracts/test/TestRRUtils.sol\":4805:6790  function testKeyTag() public view {... */\n      jump\t// out\n        /* \"package/contracts/test/TestRRUtils.sol\":685:1044  function testLabelCount() public pure {... */\n    tag_20:\n        /* \"package/contracts/test/TestRRUtils.sol\":762:763  0 */\n      0x00\n        /* \"package/contracts/test/TestRRUtils.sol\":737:758  hex\"00\".labelCount(0) */\n      tag_169\n        /* \"package/contracts/test/TestRRUtils.sol\":756:757  0 */\n      0x00\n        /* \"package/contracts/test/TestRRUtils.sol\":737:755  hex\"00\".labelCount */\n      mload(0x40)\n      dup1\n      0x40\n      add\n      0x40\n      mstore\n      dup1\n      0x01\n      dup2\n      mstore\n      0x20\n      add\n      0x00\n      dup2\n      mstore\n      pop\n      tag_170\n      swap1\n        /* \"package/contracts/test/TestRRUtils.sol\":737:758  hex\"00\".labelCount(0) */\n      swap2\n      swap1\n      0xffffffff\n      and\n      jump\t// in\n    tag_169:\n        /* \"package/contracts/test/TestRRUtils.sol\":737:763  hex\"00\".labelCount(0) == 0 */\n      eq\n        /* \"package/contracts/test/TestRRUtils.sol\":729:788  require(hex\"00\".labelCount(0) == 0, \"labelCount('.') == 0\") */\n      tag_171\n      jumpi\n      mload(0x40)\n      0x08c379a000000000000000000000000000000000000000000000000000000000\n      dup2\n      mstore\n      0x04\n      add\n      tag_172\n      swap1\n      tag_173\n      jump\t// in\n    tag_172:\n      mload(0x40)\n      dup1\n      swap2\n      sub\n      swap1\n      revert\n    tag_171:\n        /* \"package/contracts/test/TestRRUtils.sol\":831:832  1 */\n      0x01\n        /* \"package/contracts/test/TestRRUtils.sol\":802:827  hex\"016100\".labelCount(0) */\n      tag_174\n        /* \"package/contracts/test/TestRRUtils.sol\":825:826  0 */\n      0x00\n        /* \"package/contracts/test/TestRRUtils.sol\":802:824  hex\"016100\".labelCount */\n      mload(0x40)\n      dup1\n      0x40\n      add\n      0x40\n      mstore\n      dup1\n      0x03\n      dup2\n      mstore\n      0x20\n      add\n      0x0161000000000000000000000000000000000000000000000000000000000000\n      dup2\n      mstore\n      pop\n      tag_170\n      swap1\n        /* \"package/contracts/test/TestRRUtils.sol\":802:827  hex\"016100\".labelCount(0) */\n      swap2\n      swap1\n      0xffffffff\n      and\n      jump\t// in\n    tag_174:\n        /* \"package/contracts/test/TestRRUtils.sol\":802:832  hex\"016100\".labelCount(0) == 1 */\n      eq\n        /* \"package/contracts/test/TestRRUtils.sol\":794:858  require(hex\"016100\".labelCount(0) == 1, \"labelCount('a.') == 1\") */\n      tag_175\n      jumpi\n      mload(0x40)\n      0x08c379a000000000000000000000000000000000000000000000000000000000\n      dup2\n      mstore\n      0x04\n      add\n      tag_176\n      swap1\n      tag_177\n      jump\t// in\n    tag_176:\n      mload(0x40)\n      dup1\n      swap2\n      sub\n      swap1\n      revert\n    tag_175:\n        /* \"package/contracts/test/TestRRUtils.sol\":907:908  2 */\n      0x02\n        /* \"package/contracts/test/TestRRUtils.sol\":872:903  hex\"016201610000\".labelCount(0) */\n      tag_178\n        /* \"package/contracts/test/TestRRUtils.sol\":901:902  0 */\n      0x00\n        /* \"package/contracts/test/TestRRUtils.sol\":872:900  hex\"016201610000\".labelCount */\n      mload(0x40)\n      dup1\n      0x40\n      add\n      0x40\n      mstore\n      dup1\n      0x06\n      dup2\n      mstore\n      0x20\n      add\n      0x0162016100000000000000000000000000000000000000000000000000000000\n      dup2\n      mstore\n      pop\n      tag_170\n      swap1\n        /* \"package/contracts/test/TestRRUtils.sol\":872:903  hex\"016201610000\".labelCount(0) */\n      swap2\n      swap1\n      0xffffffff\n      and\n      jump\t// in\n    tag_178:\n        /* \"package/contracts/test/TestRRUtils.sol\":872:908  hex\"016201610000\".labelCount(0) == 2 */\n      eq\n        /* \"package/contracts/test/TestRRUtils.sol\":864:936  require(hex\"016201610000\".labelCount(0) == 2, \"labelCount('b.a.') == 2\") */\n      tag_179\n      jumpi\n      mload(0x40)\n      0x08c379a000000000000000000000000000000000000000000000000000000000\n      dup2\n      mstore\n      0x04\n      add\n      tag_180\n      swap1\n      tag_181\n      jump\t// in\n    tag_180:\n      mload(0x40)\n      dup1\n      swap2\n      sub\n      swap1\n      revert\n    tag_179:\n        /* \"package/contracts/test/TestRRUtils.sol\":1001:1002  1 */\n      0x01\n        /* \"package/contracts/test/TestRRUtils.sol\":950:997  hex\"066574686c61620378797a00\".labelCount(6 + 1) */\n      tag_182\n        /* \"package/contracts/test/TestRRUtils.sol\":991:996  6 + 1 */\n      0x07\n        /* \"package/contracts/test/TestRRUtils.sol\":950:990  hex\"066574686c61620378797a00\".labelCount */\n      mload(0x40)\n      dup1\n      0x40\n      add\n      0x40\n      mstore\n      dup1\n      0x0c\n      dup2\n      mstore\n      0x20\n      add\n      0x066574686c61620378797a000000000000000000000000000000000000000000\n      dup2\n      mstore\n      pop\n      tag_170\n      swap1\n        /* \"package/contracts/test/TestRRUtils.sol\":950:997  hex\"066574686c61620378797a00\".labelCount(6 + 1) */\n      swap2\n      swap1\n      0xffffffff\n      and\n      jump\t// in\n    tag_182:\n        /* \"package/contracts/test/TestRRUtils.sol\":950:1002  hex\"066574686c61620378797a00\".labelCount(6 + 1) == 1 */\n      eq\n        /* \"package/contracts/test/TestRRUtils.sol\":942:1039  require(hex\"066574686c61620378797a00\".labelCount(6 + 1) == 1, \"nameLength('(bthlab).xyz.') == 6\") */\n      tag_183\n      jumpi\n      mload(0x40)\n      0x08c379a000000000000000000000000000000000000000000000000000000000\n      dup2\n      mstore\n      0x04\n      add\n      tag_184\n      swap1\n      tag_185\n      jump\t// in\n    tag_184:\n      mload(0x40)\n      dup1\n      swap2\n      sub\n      swap1\n      revert\n    tag_183:\n        /* \"package/contracts/test/TestRRUtils.sol\":685:1044  function testLabelCount() public pure {... */\n      jump\t// out\n        /* \"package/contracts/dnssec-oracle/RRUtils.sol\":561:885  function nameLength(bytes memory self, uint256 offset) internal pure returns (uint256) {... */\n    tag_23:\n        /* \"package/contracts/dnssec-oracle/RRUtils.sol\":639:646  uint256 */\n      0x00\n        /* \"package/contracts/dnssec-oracle/RRUtils.sol\":654:665  uint256 idx */\n      dup1\n        /* \"package/contracts/dnssec-oracle/RRUtils.sol\":668:674  offset */\n      dup3\n        /* \"package/contracts/dnssec-oracle/RRUtils.sol\":654:674  uint256 idx = offset */\n      swap1\n      pop\n        /* \"package/contracts/dnssec-oracle/RRUtils.sol\":680:856  while (true) {... */\n    tag_187:\n        /* \"package/contracts/dnssec-oracle/RRUtils.sol\":687:691  true */\n      0x01\n        /* \"package/contracts/dnssec-oracle/RRUtils.sol\":680:856  while (true) {... */\n      iszero\n      tag_188\n      jumpi\n        /* \"package/contracts/dnssec-oracle/RRUtils.sol\":714:718  self */\n      dup4\n        /* \"package/contracts/dnssec-oracle/RRUtils.sol\":714:725  self.length */\n      mload\n        /* \"package/contracts/dnssec-oracle/RRUtils.sol\":708:711  idx */\n      dup2\n        /* \"package/contracts/dnssec-oracle/RRUtils.sol\":708:725  idx < self.length */\n      lt\n        /* \"package/contracts/dnssec-oracle/RRUtils.sol\":701:726  assert(idx < self.length) */\n      tag_189\n      jumpi\n      tag_190\n      tag_191\n      jump\t// in\n    tag_190:\n    tag_189:\n        /* \"package/contracts/dnssec-oracle/RRUtils.sol\":734:750  uint256 labelLen */\n      0x00\n        /* \"package/contracts/dnssec-oracle/RRUtils.sol\":753:772  self.readUint8(idx) */\n      tag_192\n        /* \"package/contracts/dnssec-oracle/RRUtils.sol\":768:771  idx */\n      dup3\n        /* \"package/contracts/dnssec-oracle/RRUtils.sol\":753:757  self */\n      dup7\n        /* \"package/contracts/dnssec-oracle/RRUtils.sol\":753:767  self.readUint8 */\n      tag_193\n      swap1\n        /* \"package/contracts/dnssec-oracle/RRUtils.sol\":753:772  self.readUint8(idx) */\n      swap2\n      swap1\n      0xffffffff\n      and\n      jump\t// in\n    tag_192:\n        /* \"package/contracts/dnssec-oracle/RRUtils.sol\":734:772  uint256 labelLen = self.readUint8(idx) */\n      0xff\n      and\n      swap1\n      pop\n        /* \"package/contracts/dnssec-oracle/RRUtils.sol\":798:799  1 */\n      0x01\n        /* \"package/contracts/dnssec-oracle/RRUtils.sol\":787:795  labelLen */\n      dup2\n        /* \"package/contracts/dnssec-oracle/RRUtils.sol\":787:799  labelLen + 1 */\n      tag_194\n      swap2\n      swap1\n      tag_195\n      jump\t// in\n    tag_194:\n        /* \"package/contracts/dnssec-oracle/RRUtils.sol\":780:799  idx += labelLen + 1 */\n      dup3\n      tag_196\n      swap2\n      swap1\n      tag_195\n      jump\t// in\n    tag_196:\n      swap2\n      pop\n        /* \"package/contracts/dnssec-oracle/RRUtils.sol\":823:824  0 */\n      0x00\n        /* \"package/contracts/dnssec-oracle/RRUtils.sol\":811:819  labelLen */\n      dup2\n        /* \"package/contracts/dnssec-oracle/RRUtils.sol\":811:824  labelLen == 0 */\n      sub\n        /* \"package/contracts/dnssec-oracle/RRUtils.sol\":807:850  if (labelLen == 0) {... */\n      tag_197\n      jumpi\n        /* \"package/contracts/dnssec-oracle/RRUtils.sol\":836:841  break */\n      pop\n      jump(tag_188)\n        /* \"package/contracts/dnssec-oracle/RRUtils.sol\":807:850  if (labelLen == 0) {... */\n    tag_197:\n        /* \"package/contracts/dnssec-oracle/RRUtils.sol\":693:856  {... */\n      pop\n        /* \"package/contracts/dnssec-oracle/RRUtils.sol\":680:856  while (true) {... */\n      jump(tag_187)\n    tag_188:\n        /* \"package/contracts/dnssec-oracle/RRUtils.sol\":874:880  offset */\n      dup3\n        /* \"package/contracts/dnssec-oracle/RRUtils.sol\":868:871  idx */\n      dup2\n        /* \"package/contracts/dnssec-oracle/RRUtils.sol\":868:880  idx - offset */\n      tag_198\n      swap2\n      swap1\n      tag_199\n      jump\t// in\n    tag_198:\n        /* \"package/contracts/dnssec-oracle/RRUtils.sol\":861:880  return idx - offset */\n      swap2\n      pop\n      pop\n        /* \"package/contracts/dnssec-oracle/RRUtils.sol\":561:885  function nameLength(bytes memory self, uint256 offset) internal pure returns (uint256) {... */\n      swap3\n      swap2\n      pop\n      pop\n      jump\t// out\n        /* \"package/contracts/dnssec-oracle/RRUtils.sol\":3645:3816  function iterateRRs(bytes memory self, uint256 offset) internal pure returns (RRIterator memory ret) {... */\n    tag_39:\n        /* \"package/contracts/dnssec-oracle/RRUtils.sol\":3723:3744  RRIterator memory ret */\n      tag_200\n      tag_201\n      jump\t// in\n    tag_200:\n        /* \"package/contracts/dnssec-oracle/RRUtils.sol\":3763:3767  self */\n      dup3\n        /* \"package/contracts/dnssec-oracle/RRUtils.sol\":3752:3755  ret */\n      dup2\n        /* \"package/contracts/dnssec-oracle/RRUtils.sol\":3752:3760  ret.data */\n      0x00\n      add\n        /* \"package/contracts/dnssec-oracle/RRUtils.sol\":3752:3767  ret.data = self */\n      dup2\n      swap1\n      mstore\n      pop\n        /* \"package/contracts/dnssec-oracle/RRUtils.sol\":3790:3796  offset */\n      dup2\n        /* \"package/contracts/dnssec-oracle/RRUtils.sol\":3773:3776  ret */\n      dup2\n        /* \"package/contracts/dnssec-oracle/RRUtils.sol\":3773:3787  ret.nextOffset */\n      0xc0\n      add\n        /* \"package/contracts/dnssec-oracle/RRUtils.sol\":3773:3796  ret.nextOffset = offset */\n      dup2\n      dup2\n      mstore\n      pop\n      pop\n        /* \"package/contracts/dnssec-oracle/RRUtils.sol\":3802:3811  next(ret) */\n      tag_203\n        /* \"package/contracts/dnssec-oracle/RRUtils.sol\":3807:3810  ret */\n      dup2\n        /* \"package/contracts/dnssec-oracle/RRUtils.sol\":3802:3806  next */\n      tag_69\n        /* \"package/contracts/dnssec-oracle/RRUtils.sol\":3802:3811  next(ret) */\n      jump\t// in\n    tag_203:\n        /* \"package/contracts/dnssec-oracle/RRUtils.sol\":3645:3816  function iterateRRs(bytes memory self, uint256 offset) internal pure returns (RRIterator memory ret) {... */\n      swap3\n      swap2\n      pop\n      pop\n      jump\t// out\n        /* \"package/contracts/dnssec-oracle/RRUtils.sol\":3979:4095  function done(RRIterator memory iter) internal pure returns (bool) {... */\n    tag_41:\n        /* \"package/contracts/dnssec-oracle/RRUtils.sol\":4040:4044  bool */\n      0x00\n        /* \"package/contracts/dnssec-oracle/RRUtils.sol\":4074:4078  iter */\n      dup2\n        /* \"package/contracts/dnssec-oracle/RRUtils.sol\":4074:4083  iter.data */\n      0x00\n      add\n      mload\n        /* \"package/contracts/dnssec-oracle/RRUtils.sol\":4074:4090  iter.data.length */\n      mload\n        /* \"package/contracts/dnssec-oracle/RRUtils.sol\":4059:4063  iter */\n      dup3\n        /* \"package/contracts/dnssec-oracle/RRUtils.sol\":4059:4070  iter.offset */\n      0x20\n      add\n      mload\n        /* \"package/contracts/dnssec-oracle/RRUtils.sol\":4059:4090  iter.offset >= iter.data.length */\n      lt\n      iszero\n        /* \"package/contracts/dnssec-oracle/RRUtils.sol\":4052:4090  return iter.offset >= iter.data.length */\n      swap1\n      pop\n        /* \"package/contracts/dnssec-oracle/RRUtils.sol\":3979:4095  function done(RRIterator memory iter) internal pure returns (bool) {... */\n      swap2\n      swap1\n      pop\n      jump\t// out\n        /* \"package/contracts/dnssec-oracle/RRUtils.sol\":4991:5152  function name(RRIterator memory iter) internal pure returns (bytes memory) {... */\n    tag_55:\n        /* \"package/contracts/dnssec-oracle/RRUtils.sol\":5052:5064  bytes memory */\n      0x60\n        /* \"package/contracts/dnssec-oracle/RRUtils.sol\":5079:5147  iter.data.substring(iter.offset, nameLength(iter.data, iter.offset)) */\n      tag_206\n        /* \"package/contracts/dnssec-oracle/RRUtils.sol\":5099:5103  iter */\n      dup3\n        /* \"package/contracts/dnssec-oracle/RRUtils.sol\":5099:5110  iter.offset */\n      0x20\n      add\n      mload\n        /* \"package/contracts/dnssec-oracle/RRUtils.sol\":5112:5146  nameLength(iter.data, iter.offset) */\n      tag_207\n        /* \"package/contracts/dnssec-oracle/RRUtils.sol\":5123:5127  iter */\n      dup5\n        /* \"package/contracts/dnssec-oracle/RRUtils.sol\":5123:5132  iter.data */\n      0x00\n      add\n      mload\n        /* \"package/contracts/dnssec-oracle/RRUtils.sol\":5134:5138  iter */\n      dup6\n        /* \"package/contracts/dnssec-oracle/RRUtils.sol\":5134:5145  iter.offset */\n      0x20\n      add\n      mload\n        /* \"package/contracts/dnssec-oracle/RRUtils.sol\":5112:5122  nameLength */\n      tag_23\n        /* \"package/contracts/dnssec-oracle/RRUtils.sol\":5112:5146  nameLength(iter.data, iter.offset) */\n      jump\t// in\n    tag_207:\n        /* \"package/contracts/dnssec-oracle/RRUtils.sol\":5079:5083  iter */\n      dup5\n        /* \"package/contracts/dnssec-oracle/RRUtils.sol\":5079:5088  iter.data */\n      0x00\n      add\n      mload\n        /* \"package/contracts/dnssec-oracle/RRUtils.sol\":5079:5098  iter.data.substring */\n      tag_208\n      swap1\n        /* \"package/contracts/dnssec-oracle/RRUtils.sol\":5079:5147  iter.data.substring(iter.offset, nameLength(iter.data, iter.offset)) */\n      swap3\n      swap2\n      swap1\n      0xffffffff\n      and\n      jump\t// in\n    tag_206:\n        /* \"package/contracts/dnssec-oracle/RRUtils.sol\":5072:5147  return iter.data.substring(iter.offset, nameLength(iter.data, iter.offset)) */\n      swap1\n      pop\n        /* \"package/contracts/dnssec-oracle/RRUtils.sol\":4991:5152  function name(RRIterator memory iter) internal pure returns (bytes memory) {... */\n      swap2\n      swap1\n      pop\n      jump\t// out\n        /* \"package/contracts/dnssec-oracle/RRUtils.sol\":5317:5484  function rdata(RRIterator memory iter) internal pure returns (bytes memory) {... */\n    tag_62:\n        /* \"package/contracts/dnssec-oracle/RRUtils.sol\":5379:5391  bytes memory */\n      0x60\n        /* \"package/contracts/dnssec-oracle/RRUtils.sol\":5406:5479  iter.data.substring(iter.rdataOffset, iter.nextOffset - iter.rdataOffset) */\n      tag_210\n        /* \"package/contracts/dnssec-oracle/RRUtils.sol\":5426:5430  iter */\n      dup3\n        /* \"package/contracts/dnssec-oracle/RRUtils.sol\":5426:5442  iter.rdataOffset */\n      0xa0\n      add\n      mload\n        /* \"package/contracts/dnssec-oracle/RRUtils.sol\":5462:5466  iter */\n      dup4\n        /* \"package/contracts/dnssec-oracle/RRUtils.sol\":5462:5478  iter.rdataOffset */\n      0xa0\n      add\n      mload\n        /* \"package/contracts/dnssec-oracle/RRUtils.sol\":5444:5448  iter */\n      dup5\n        /* \"package/contracts/dnssec-oracle/RRUtils.sol\":5444:5459  iter.nextOffset */\n      0xc0\n      add\n      mload\n        /* \"package/contracts/dnssec-oracle/RRUtils.sol\":5444:5478  iter.nextOffset - iter.rdataOffset */\n      tag_211\n      swap2\n      swap1\n      tag_199\n      jump\t// in\n    tag_211:\n        /* \"package/contracts/dnssec-oracle/RRUtils.sol\":5406:5410  iter */\n      dup5\n        /* \"package/contracts/dnssec-oracle/RRUtils.sol\":5406:5415  iter.data */\n      0x00\n      add\n      mload\n        /* \"package/contracts/dnssec-oracle/RRUtils.sol\":5406:5425  iter.data.substring */\n      tag_208\n      swap1\n        /* \"package/contracts/dnssec-oracle/RRUtils.sol\":5406:5479  iter.data.substring(iter.rdataOffset, iter.nextOffset - iter.rdataOffset) */\n      swap3\n      swap2\n      swap1\n      0xffffffff\n      and\n      jump\t// in\n    tag_210:\n        /* \"package/contracts/dnssec-oracle/RRUtils.sol\":5399:5479  return iter.data.substring(iter.rdataOffset, iter.nextOffset - iter.rdataOffset) */\n      swap1\n      pop\n        /* \"package/contracts/dnssec-oracle/RRUtils.sol\":5317:5484  function rdata(RRIterator memory iter) internal pure returns (bytes memory) {... */\n      swap2\n      swap1\n      pop\n      jump\t// out\n        /* \"package/contracts/dnssec-oracle/RRUtils.sol\":4211:4823  function next(RRIterator memory iter) internal pure {... */\n    tag_69:\n        /* \"package/contracts/dnssec-oracle/RRUtils.sol\":4283:4287  iter */\n      dup1\n        /* \"package/contracts/dnssec-oracle/RRUtils.sol\":4283:4298  iter.nextOffset */\n      0xc0\n      add\n      mload\n        /* \"package/contracts/dnssec-oracle/RRUtils.sol\":4269:4273  iter */\n      dup2\n        /* \"package/contracts/dnssec-oracle/RRUtils.sol\":4269:4280  iter.offset */\n      0x20\n      add\n        /* \"package/contracts/dnssec-oracle/RRUtils.sol\":4269:4298  iter.offset = iter.nextOffset */\n      dup2\n      dup2\n      mstore\n      pop\n      pop\n        /* \"package/contracts/dnssec-oracle/RRUtils.sol\":4323:4327  iter */\n      dup1\n        /* \"package/contracts/dnssec-oracle/RRUtils.sol\":4323:4332  iter.data */\n      0x00\n      add\n      mload\n        /* \"package/contracts/dnssec-oracle/RRUtils.sol\":4323:4339  iter.data.length */\n      mload\n        /* \"package/contracts/dnssec-oracle/RRUtils.sol\":4308:4312  iter */\n      dup2\n        /* \"package/contracts/dnssec-oracle/RRUtils.sol\":4308:4319  iter.offset */\n      0x20\n      add\n      mload\n        /* \"package/contracts/dnssec-oracle/RRUtils.sol\":4308:4339  iter.offset >= iter.data.length */\n      lt\n        /* \"package/contracts/dnssec-oracle/RRUtils.sol\":4304:4362  if (iter.offset >= iter.data.length) {... */\n      iszero\n        /* \"package/contracts/dnssec-oracle/RRUtils.sol\":4349:4356  return; */\n      tag_212\n        /* \"package/contracts/dnssec-oracle/RRUtils.sol\":4304:4362  if (iter.offset >= iter.data.length) {... */\n      jumpi\n        /* \"package/contracts/dnssec-oracle/RRUtils.sol\":4389:4400  uint256 off */\n      0x00\n        /* \"package/contracts/dnssec-oracle/RRUtils.sol\":4417:4451  nameLength(iter.data, iter.offset) */\n      tag_214\n        /* \"package/contracts/dnssec-oracle/RRUtils.sol\":4428:4432  iter */\n      dup3\n        /* \"package/contracts/dnssec-oracle/RRUtils.sol\":4428:4437  iter.data */\n      0x00\n      add\n      mload\n        /* \"package/contracts/dnssec-oracle/RRUtils.sol\":4439:4443  iter */\n      dup4\n        /* \"package/contracts/dnssec-oracle/RRUtils.sol\":4439:4450  iter.offset */\n      0x20\n      add\n      mload\n        /* \"package/contracts/dnssec-oracle/RRUtils.sol\":4417:4427  nameLength */\n      tag_23\n        /* \"package/contracts/dnssec-oracle/RRUtils.sol\":4417:4451  nameLength(iter.data, iter.offset) */\n      jump\t// in\n    tag_214:\n        /* \"package/contracts/dnssec-oracle/RRUtils.sol\":4403:4407  iter */\n      dup3\n        /* \"package/contracts/dnssec-oracle/RRUtils.sol\":4403:4414  iter.offset */\n      0x20\n      add\n      mload\n        /* \"package/contracts/dnssec-oracle/RRUtils.sol\":4403:4451  iter.offset + nameLength(iter.data, iter.offset) */\n      tag_215\n      swap2\n      swap1\n      tag_195\n      jump\t// in\n    tag_215:\n        /* \"package/contracts/dnssec-oracle/RRUtils.sol\":4389:4451  uint256 off = iter.offset + nameLength(iter.data, iter.offset) */\n      swap1\n      pop\n        /* \"package/contracts/dnssec-oracle/RRUtils.sol\":4506:4531  iter.data.readUint16(off) */\n      tag_216\n        /* \"package/contracts/dnssec-oracle/RRUtils.sol\":4527:4530  off */\n      dup2\n        /* \"package/contracts/dnssec-oracle/RRUtils.sol\":4506:4510  iter */\n      dup4\n        /* \"package/contracts/dnssec-oracle/RRUtils.sol\":4506:4515  iter.data */\n      0x00\n      add\n      mload\n        /* \"package/contracts/dnssec-oracle/RRUtils.sol\":4506:4526  iter.data.readUint16 */\n      tag_217\n      swap1\n        /* \"package/contracts/dnssec-oracle/RRUtils.sol\":4506:4531  iter.data.readUint16(off) */\n      swap2\n      swap1\n      0xffffffff\n      and\n      jump\t// in\n    tag_216:\n        /* \"package/contracts/dnssec-oracle/RRUtils.sol\":4491:4495  iter */\n      dup3\n        /* \"package/contracts/dnssec-oracle/RRUtils.sol\":4491:4503  iter.dnstype */\n      0x40\n      add\n        /* \"package/contracts/dnssec-oracle/RRUtils.sol\":4491:4531  iter.dnstype = iter.data.readUint16(off) */\n      swap1\n      0xffff\n      and\n      swap1\n      dup2\n      0xffff\n      and\n      dup2\n      mstore\n      pop\n      pop\n        /* \"package/contracts/dnssec-oracle/RRUtils.sol\":4544:4545  2 */\n      0x02\n        /* \"package/contracts/dnssec-oracle/RRUtils.sol\":4537:4545  off += 2 */\n      dup2\n      tag_218\n      swap2\n      swap1\n      tag_195\n      jump\t// in\n    tag_218:\n      swap1\n      pop\n        /* \"package/contracts/dnssec-oracle/RRUtils.sol\":4564:4589  iter.data.readUint16(off) */\n      tag_219\n        /* \"package/contracts/dnssec-oracle/RRUtils.sol\":4585:4588  off */\n      dup2\n        /* \"package/contracts/dnssec-oracle/RRUtils.sol\":4564:4568  iter */\n      dup4\n        /* \"package/contracts/dnssec-oracle/RRUtils.sol\":4564:4573  iter.data */\n      0x00\n      add\n      mload\n        /* \"package/contracts/dnssec-oracle/RRUtils.sol\":4564:4584  iter.data.readUint16 */\n      tag_217\n      swap1\n        /* \"package/contracts/dnssec-oracle/RRUtils.sol\":4564:4589  iter.data.readUint16(off) */\n      swap2\n      swap1\n      0xffffffff\n      and\n      jump\t// in\n    tag_219:\n        /* \"package/contracts/dnssec-oracle/RRUtils.sol\":4551:4555  iter */\n      dup3\n        /* \"package/contracts/dnssec-oracle/RRUtils.sol\":4551:4561  iter.class */\n      0x60\n      add\n        /* \"package/contracts/dnssec-oracle/RRUtils.sol\":4551:4589  iter.class = iter.data.readUint16(off) */\n      swap1\n      0xffff\n      and\n      swap1\n      dup2\n      0xffff\n      and\n      dup2\n      mstore\n      pop\n      pop\n        /* \"package/contracts/dnssec-oracle/RRUtils.sol\":4602:4603  2 */\n      0x02\n        /* \"package/contracts/dnssec-oracle/RRUtils.sol\":4595:4603  off += 2 */\n      dup2\n      tag_220\n      swap2\n      swap1\n      tag_195\n      jump\t// in\n    tag_220:\n      swap1\n      pop\n        /* \"package/contracts/dnssec-oracle/RRUtils.sol\":4620:4645  iter.data.readUint32(off) */\n      tag_221\n        /* \"package/contracts/dnssec-oracle/RRUtils.sol\":4641:4644  off */\n      dup2\n        /* \"package/contracts/dnssec-oracle/RRUtils.sol\":4620:4624  iter */\n      dup4\n        /* \"package/contracts/dnssec-oracle/RRUtils.sol\":4620:4629  iter.data */\n      0x00\n      add\n      mload\n        /* \"package/contracts/dnssec-oracle/RRUtils.sol\":4620:4640  iter.data.readUint32 */\n      tag_222\n      swap1\n        /* \"package/contracts/dnssec-oracle/RRUtils.sol\":4620:4645  iter.data.readUint32(off) */\n      swap2\n      swap1\n      0xffffffff\n      and\n      jump\t// in\n    tag_221:\n        /* \"package/contracts/dnssec-oracle/RRUtils.sol\":4609:4613  iter */\n      dup3\n        /* \"package/contracts/dnssec-oracle/RRUtils.sol\":4609:4617  iter.ttl */\n      0x80\n      add\n        /* \"package/contracts/dnssec-oracle/RRUtils.sol\":4609:4645  iter.ttl = iter.data.readUint32(off) */\n      swap1\n      0xffffffff\n      and\n      swap1\n      dup2\n      0xffffffff\n      and\n      dup2\n      mstore\n      pop\n      pop\n        /* \"package/contracts/dnssec-oracle/RRUtils.sol\":4658:4659  4 */\n      0x04\n        /* \"package/contracts/dnssec-oracle/RRUtils.sol\":4651:4659  off += 4 */\n      dup2\n      tag_223\n      swap2\n      swap1\n      tag_195\n      jump\t// in\n    tag_223:\n      swap1\n      pop\n        /* \"package/contracts/dnssec-oracle/RRUtils.sol\":4688:4707  uint256 rdataLength */\n      0x00\n        /* \"package/contracts/dnssec-oracle/RRUtils.sol\":4710:4735  iter.data.readUint16(off) */\n      tag_224\n        /* \"package/contracts/dnssec-oracle/RRUtils.sol\":4731:4734  off */\n      dup3\n        /* \"package/contracts/dnssec-oracle/RRUtils.sol\":4710:4714  iter */\n      dup5\n        /* \"package/contracts/dnssec-oracle/RRUtils.sol\":4710:4719  iter.data */\n      0x00\n      add\n      mload\n        /* \"package/contracts/dnssec-oracle/RRUtils.sol\":4710:4730  iter.data.readUint16 */\n      tag_217\n      swap1\n        /* \"package/contracts/dnssec-oracle/RRUtils.sol\":4710:4735  iter.data.readUint16(off) */\n      swap2\n      swap1\n      0xffffffff\n      and\n      jump\t// in\n    tag_224:\n        /* \"package/contracts/dnssec-oracle/RRUtils.sol\":4688:4735  uint256 rdataLength = iter.data.readUint16(off) */\n      0xffff\n      and\n      swap1\n      pop\n        /* \"package/contracts/dnssec-oracle/RRUtils.sol\":4748:4749  2 */\n      0x02\n        /* \"package/contracts/dnssec-oracle/RRUtils.sol\":4741:4749  off += 2 */\n      dup3\n      tag_225\n      swap2\n      swap1\n      tag_195\n      jump\t// in\n    tag_225:\n      swap2\n      pop\n        /* \"package/contracts/dnssec-oracle/RRUtils.sol\":4774:4777  off */\n      dup2\n        /* \"package/contracts/dnssec-oracle/RRUtils.sol\":4755:4759  iter */\n      dup4\n        /* \"package/contracts/dnssec-oracle/RRUtils.sol\":4755:4771  iter.rdataOffset */\n      0xa0\n      add\n        /* \"package/contracts/dnssec-oracle/RRUtils.sol\":4755:4777  iter.rdataOffset = off */\n      dup2\n      dup2\n      mstore\n      pop\n      pop\n        /* \"package/contracts/dnssec-oracle/RRUtils.sol\":4807:4818  rdataLength */\n      dup1\n        /* \"package/contracts/dnssec-oracle/RRUtils.sol\":4801:4804  off */\n      dup3\n        /* \"package/contracts/dnssec-oracle/RRUtils.sol\":4801:4818  off + rdataLength */\n      tag_226\n      swap2\n      swap1\n      tag_195\n      jump\t// in\n    tag_226:\n        /* \"package/contracts/dnssec-oracle/RRUtils.sol\":4783:4787  iter */\n      dup4\n        /* \"package/contracts/dnssec-oracle/RRUtils.sol\":4783:4798  iter.nextOffset */\n      0xc0\n      add\n        /* \"package/contracts/dnssec-oracle/RRUtils.sol\":4783:4818  iter.nextOffset = off + rdataLength */\n      dup2\n      dup2\n      mstore\n      pop\n      pop\n        /* \"package/contracts/dnssec-oracle/RRUtils.sol\":4263:4823  {... */\n      pop\n      pop\n        /* \"package/contracts/dnssec-oracle/RRUtils.sol\":4211:4823  function next(RRIterator memory iter) internal pure {... */\n    tag_212:\n      pop\n      jump\t// out\n        /* \"package/contracts/dnssec-oracle/RRUtils.sol\":7094:8242  function compareNames(bytes memory self, bytes memory other) internal pure returns (int256) {... */\n    tag_75:\n        /* \"package/contracts/dnssec-oracle/RRUtils.sol\":7178:7184  int256 */\n      0x00\n        /* \"package/contracts/dnssec-oracle/RRUtils.sol\":7196:7214  self.equals(other) */\n      tag_228\n        /* \"package/contracts/dnssec-oracle/RRUtils.sol\":7208:7213  other */\n      dup3\n        /* \"package/contracts/dnssec-oracle/RRUtils.sol\":7196:7200  self */\n      dup5\n        /* \"package/contracts/dnssec-oracle/RRUtils.sol\":7196:7207  self.equals */\n      tag_229\n      swap1\n        /* \"package/contracts/dnssec-oracle/RRUtils.sol\":7196:7214  self.equals(other) */\n      swap2\n      swap1\n      0xffffffff\n      and\n      jump\t// in\n    tag_228:\n        /* \"package/contracts/dnssec-oracle/RRUtils.sol\":7192:7239  if (self.equals(other)) {... */\n      iszero\n      tag_230\n      jumpi\n        /* \"package/contracts/dnssec-oracle/RRUtils.sol\":7231:7232  0 */\n      0x00\n        /* \"package/contracts/dnssec-oracle/RRUtils.sol\":7224:7232  return 0 */\n      swap1\n      pop\n      jump(tag_227)\n        /* \"package/contracts/dnssec-oracle/RRUtils.sol\":7192:7239  if (self.equals(other)) {... */\n    tag_230:\n        /* \"package/contracts/dnssec-oracle/RRUtils.sol\":7245:7256  uint256 off */\n      0x00\n        /* \"package/contracts/dnssec-oracle/RRUtils.sol\":7262:7278  uint256 otheroff */\n      dup1\n        /* \"package/contracts/dnssec-oracle/RRUtils.sol\":7284:7299  uint256 prevoff */\n      0x00\n        /* \"package/contracts/dnssec-oracle/RRUtils.sol\":7305:7325  uint256 otherprevoff */\n      dup1\n        /* \"package/contracts/dnssec-oracle/RRUtils.sol\":7331:7345  uint256 counts */\n      0x00\n        /* \"package/contracts/dnssec-oracle/RRUtils.sol\":7348:7367  labelCount(self, 0) */\n      tag_231\n        /* \"package/contracts/dnssec-oracle/RRUtils.sol\":7359:7363  self */\n      dup9\n        /* \"package/contracts/dnssec-oracle/RRUtils.sol\":7365:7366  0 */\n      0x00\n        /* \"package/contracts/dnssec-oracle/RRUtils.sol\":7348:7358  labelCount */\n      tag_170\n        /* \"package/contracts/dnssec-oracle/RRUtils.sol\":7348:7367  labelCount(self, 0) */\n      jump\t// in\n    tag_231:\n        /* \"package/contracts/dnssec-oracle/RRUtils.sol\":7331:7367  uint256 counts = labelCount(self, 0) */\n      swap1\n      pop\n        /* \"package/contracts/dnssec-oracle/RRUtils.sol\":7373:7392  uint256 othercounts */\n      0x00\n        /* \"package/contracts/dnssec-oracle/RRUtils.sol\":7395:7415  labelCount(other, 0) */\n      tag_232\n        /* \"package/contracts/dnssec-oracle/RRUtils.sol\":7406:7411  other */\n      dup9\n        /* \"package/contracts/dnssec-oracle/RRUtils.sol\":7413:7414  0 */\n      0x00\n        /* \"package/contracts/dnssec-oracle/RRUtils.sol\":7395:7405  labelCount */\n      tag_170\n        /* \"package/contracts/dnssec-oracle/RRUtils.sol\":7395:7415  labelCount(other, 0) */\n      jump\t// in\n    tag_232:\n        /* \"package/contracts/dnssec-oracle/RRUtils.sol\":7373:7415  uint256 othercounts = labelCount(other, 0) */\n      swap1\n      pop\n        /* \"package/contracts/dnssec-oracle/RRUtils.sol\":7511:7617  while (counts > othercounts) {... */\n    tag_233:\n        /* \"package/contracts/dnssec-oracle/RRUtils.sol\":7527:7538  othercounts */\n      dup1\n        /* \"package/contracts/dnssec-oracle/RRUtils.sol\":7518:7524  counts */\n      dup3\n        /* \"package/contracts/dnssec-oracle/RRUtils.sol\":7518:7538  counts > othercounts */\n      gt\n        /* \"package/contracts/dnssec-oracle/RRUtils.sol\":7511:7617  while (counts > othercounts) {... */\n      iszero\n      tag_234\n      jumpi\n        /* \"package/contracts/dnssec-oracle/RRUtils.sol\":7558:7561  off */\n      dup6\n        /* \"package/contracts/dnssec-oracle/RRUtils.sol\":7548:7561  prevoff = off */\n      swap4\n      pop\n        /* \"package/contracts/dnssec-oracle/RRUtils.sol\":7575:7594  progress(self, off) */\n      tag_235\n        /* \"package/contracts/dnssec-oracle/RRUtils.sol\":7584:7588  self */\n      dup10\n        /* \"package/contracts/dnssec-oracle/RRUtils.sol\":7590:7593  off */\n      dup8\n        /* \"package/contracts/dnssec-oracle/RRUtils.sol\":7575:7583  progress */\n      tag_236\n        /* \"package/contracts/dnssec-oracle/RRUtils.sol\":7575:7594  progress(self, off) */\n      jump\t// in\n    tag_235:\n        /* \"package/contracts/dnssec-oracle/RRUtils.sol\":7569:7594  off = progress(self, off) */\n      swap6\n      pop\n        /* \"package/contracts/dnssec-oracle/RRUtils.sol\":7602:7610  counts-- */\n      dup2\n      dup1\n      tag_237\n      swap1\n      tag_238\n      jump\t// in\n    tag_237:\n      swap3\n      pop\n      pop\n        /* \"package/contracts/dnssec-oracle/RRUtils.sol\":7511:7617  while (counts > othercounts) {... */\n      jump(tag_233)\n    tag_234:\n        /* \"package/contracts/dnssec-oracle/RRUtils.sol\":7623:7755  while (othercounts > counts) {... */\n    tag_239:\n        /* \"package/contracts/dnssec-oracle/RRUtils.sol\":7644:7650  counts */\n      dup2\n        /* \"package/contracts/dnssec-oracle/RRUtils.sol\":7630:7641  othercounts */\n      dup2\n        /* \"package/contracts/dnssec-oracle/RRUtils.sol\":7630:7650  othercounts > counts */\n      gt\n        /* \"package/contracts/dnssec-oracle/RRUtils.sol\":7623:7755  while (othercounts > counts) {... */\n      iszero\n      tag_240\n      jumpi\n        /* \"package/contracts/dnssec-oracle/RRUtils.sol\":7675:7683  otheroff */\n      dup5\n        /* \"package/contracts/dnssec-oracle/RRUtils.sol\":7660:7683  otherprevoff = otheroff */\n      swap3\n      pop\n        /* \"package/contracts/dnssec-oracle/RRUtils.sol\":7702:7727  progress(other, otheroff) */\n      tag_241\n        /* \"package/contracts/dnssec-oracle/RRUtils.sol\":7711:7716  other */\n      dup9\n        /* \"package/contracts/dnssec-oracle/RRUtils.sol\":7718:7726  otheroff */\n      dup7\n        /* \"package/contracts/dnssec-oracle/RRUtils.sol\":7702:7710  progress */\n      tag_236\n        /* \"package/contracts/dnssec-oracle/RRUtils.sol\":7702:7727  progress(other, otheroff) */\n      jump\t// in\n    tag_241:\n        /* \"package/contracts/dnssec-oracle/RRUtils.sol\":7691:7727  otheroff = progress(other, otheroff) */\n      swap5\n      pop\n        /* \"package/contracts/dnssec-oracle/RRUtils.sol\":7735:7748  othercounts-- */\n      dup1\n      dup1\n      tag_242\n      swap1\n      tag_238\n      jump\t// in\n    tag_242:\n      swap2\n      pop\n      pop\n        /* \"package/contracts/dnssec-oracle/RRUtils.sol\":7623:7755  while (othercounts > counts) {... */\n      jump(tag_239)\n    tag_240:\n        /* \"package/contracts/dnssec-oracle/RRUtils.sol\":7815:8027  while (counts > 0 && !self.equals(off, other, otheroff)) {... */\n    tag_243:\n        /* \"package/contracts/dnssec-oracle/RRUtils.sol\":7831:7832  0 */\n      0x00\n        /* \"package/contracts/dnssec-oracle/RRUtils.sol\":7822:7828  counts */\n      dup3\n        /* \"package/contracts/dnssec-oracle/RRUtils.sol\":7822:7832  counts > 0 */\n      gt\n        /* \"package/contracts/dnssec-oracle/RRUtils.sol\":7822:7870  counts > 0 && !self.equals(off, other, otheroff) */\n      dup1\n      iszero\n      tag_245\n      jumpi\n      pop\n        /* \"package/contracts/dnssec-oracle/RRUtils.sol\":7837:7870  self.equals(off, other, otheroff) */\n      tag_246\n        /* \"package/contracts/dnssec-oracle/RRUtils.sol\":7849:7852  off */\n      dup7\n        /* \"package/contracts/dnssec-oracle/RRUtils.sol\":7854:7859  other */\n      dup10\n        /* \"package/contracts/dnssec-oracle/RRUtils.sol\":7861:7869  otheroff */\n      dup8\n        /* \"package/contracts/dnssec-oracle/RRUtils.sol\":7837:7841  self */\n      dup13\n        /* \"package/contracts/dnssec-oracle/RRUtils.sol\":7837:7848  self.equals */\n      tag_247\n      swap1\n        /* \"package/contracts/dnssec-oracle/RRUtils.sol\":7837:7870  self.equals(off, other, otheroff) */\n      swap4\n      swap3\n      swap2\n      swap1\n      0xffffffff\n      and\n      jump\t// in\n    tag_246:\n        /* \"package/contracts/dnssec-oracle/RRUtils.sol\":7836:7870  !self.equals(off, other, otheroff) */\n      iszero\n        /* \"package/contracts/dnssec-oracle/RRUtils.sol\":7822:7870  counts > 0 && !self.equals(off, other, otheroff) */\n    tag_245:\n        /* \"package/contracts/dnssec-oracle/RRUtils.sol\":7815:8027  while (counts > 0 && !self.equals(off, other, otheroff)) {... */\n      iszero\n      tag_244\n      jumpi\n        /* \"package/contracts/dnssec-oracle/RRUtils.sol\":7890:7893  off */\n      dup6\n        /* \"package/contracts/dnssec-oracle/RRUtils.sol\":7880:7893  prevoff = off */\n      swap4\n      pop\n        /* \"package/contracts/dnssec-oracle/RRUtils.sol\":7907:7926  progress(self, off) */\n      tag_248\n        /* \"package/contracts/dnssec-oracle/RRUtils.sol\":7916:7920  self */\n      dup10\n        /* \"package/contracts/dnssec-oracle/RRUtils.sol\":7922:7925  off */\n      dup8\n        /* \"package/contracts/dnssec-oracle/RRUtils.sol\":7907:7915  progress */\n      tag_236\n        /* \"package/contracts/dnssec-oracle/RRUtils.sol\":7907:7926  progress(self, off) */\n      jump\t// in\n    tag_248:\n        /* \"package/contracts/dnssec-oracle/RRUtils.sol\":7901:7926  off = progress(self, off) */\n      swap6\n      pop\n        /* \"package/contracts/dnssec-oracle/RRUtils.sol\":7949:7957  otheroff */\n      dup5\n        /* \"package/contracts/dnssec-oracle/RRUtils.sol\":7934:7957  otherprevoff = otheroff */\n      swap3\n      pop\n        /* \"package/contracts/dnssec-oracle/RRUtils.sol\":7976:8001  progress(other, otheroff) */\n      tag_249\n        /* \"package/contracts/dnssec-oracle/RRUtils.sol\":7985:7990  other */\n      dup9\n        /* \"package/contracts/dnssec-oracle/RRUtils.sol\":7992:8000  otheroff */\n      dup7\n        /* \"package/contracts/dnssec-oracle/RRUtils.sol\":7976:7984  progress */\n      tag_236\n        /* \"package/contracts/dnssec-oracle/RRUtils.sol\":7976:8001  progress(other, otheroff) */\n      jump\t// in\n    tag_249:\n        /* \"package/contracts/dnssec-oracle/RRUtils.sol\":7965:8001  otheroff = progress(other, otheroff) */\n      swap5\n      pop\n        /* \"package/contracts/dnssec-oracle/RRUtils.sol\":8019:8020  1 */\n      0x01\n        /* \"package/contracts/dnssec-oracle/RRUtils.sol\":8009:8020  counts -= 1 */\n      dup3\n      tag_250\n      swap2\n      swap1\n      tag_199\n      jump\t// in\n    tag_250:\n      swap2\n      pop\n        /* \"package/contracts/dnssec-oracle/RRUtils.sol\":7815:8027  while (counts > 0 && !self.equals(off, other, otheroff)) {... */\n      jump(tag_243)\n    tag_244:\n        /* \"package/contracts/dnssec-oracle/RRUtils.sol\":8044:8045  0 */\n      0x00\n        /* \"package/contracts/dnssec-oracle/RRUtils.sol\":8037:8040  off */\n      dup7\n        /* \"package/contracts/dnssec-oracle/RRUtils.sol\":8037:8045  off == 0 */\n      sub\n        /* \"package/contracts/dnssec-oracle/RRUtils.sol\":8033:8071  if (off == 0) {... */\n      tag_251\n      jumpi\n        /* \"package/contracts/dnssec-oracle/RRUtils.sol\":8062:8064  -1 */\n      0xffffffffffffffffffffffffffffffffffffffffffffffffffffffffffffffff\n        /* \"package/contracts/dnssec-oracle/RRUtils.sol\":8055:8064  return -1 */\n      swap7\n      pop\n      pop\n      pop\n      pop\n      pop\n      pop\n      pop\n      jump(tag_227)\n        /* \"package/contracts/dnssec-oracle/RRUtils.sol\":8033:8071  if (off == 0) {... */\n    tag_251:\n        /* \"package/contracts/dnssec-oracle/RRUtils.sol\":8092:8093  0 */\n      0x00\n        /* \"package/contracts/dnssec-oracle/RRUtils.sol\":8080:8088  otheroff */\n      dup6\n        /* \"package/contracts/dnssec-oracle/RRUtils.sol\":8080:8093  otheroff == 0 */\n      sub\n        /* \"package/contracts/dnssec-oracle/RRUtils.sol\":8076:8118  if (otheroff == 0) {... */\n      tag_252\n      jumpi\n        /* \"package/contracts/dnssec-oracle/RRUtils.sol\":8110:8111  1 */\n      0x01\n        /* \"package/contracts/dnssec-oracle/RRUtils.sol\":8103:8111  return 1 */\n      swap7\n      pop\n      pop\n      pop\n      pop\n      pop\n      pop\n      pop\n      jump(tag_227)\n        /* \"package/contracts/dnssec-oracle/RRUtils.sol\":8076:8118  if (otheroff == 0) {... */\n    tag_252:\n        /* \"package/contracts/dnssec-oracle/RRUtils.sol\":8131:8237  self.compare(prevoff + 1, self.readUint8(prevoff), other, otherprevoff + 1, other.readUint8(otherprevoff)) */\n      tag_253\n        /* \"package/contracts/dnssec-oracle/RRUtils.sol\":8154:8155  1 */\n      0x01\n        /* \"package/contracts/dnssec-oracle/RRUtils.sol\":8144:8151  prevoff */\n      dup6\n        /* \"package/contracts/dnssec-oracle/RRUtils.sol\":8144:8155  prevoff + 1 */\n      tag_254\n      swap2\n      swap1\n      tag_195\n      jump\t// in\n    tag_254:\n        /* \"package/contracts/dnssec-oracle/RRUtils.sol\":8157:8180  self.readUint8(prevoff) */\n      tag_255\n        /* \"package/contracts/dnssec-oracle/RRUtils.sol\":8172:8179  prevoff */\n      dup7\n        /* \"package/contracts/dnssec-oracle/RRUtils.sol\":8157:8161  self */\n      dup13\n        /* \"package/contracts/dnssec-oracle/RRUtils.sol\":8157:8171  self.readUint8 */\n      tag_193\n      swap1\n        /* \"package/contracts/dnssec-oracle/RRUtils.sol\":8157:8180  self.readUint8(prevoff) */\n      swap2\n      swap1\n      0xffffffff\n      and\n      jump\t// in\n    tag_255:\n        /* \"package/contracts/dnssec-oracle/RRUtils.sol\":8131:8237  self.compare(prevoff + 1, self.readUint8(prevoff), other, otherprevoff + 1, other.readUint8(otherprevoff)) */\n      0xff\n      and\n        /* \"package/contracts/dnssec-oracle/RRUtils.sol\":8182:8187  other */\n      dup11\n        /* \"package/contracts/dnssec-oracle/RRUtils.sol\":8204:8205  1 */\n      0x01\n        /* \"package/contracts/dnssec-oracle/RRUtils.sol\":8189:8201  otherprevoff */\n      dup8\n        /* \"package/contracts/dnssec-oracle/RRUtils.sol\":8189:8205  otherprevoff + 1 */\n      tag_256\n      swap2\n      swap1\n      tag_195\n      jump\t// in\n    tag_256:\n        /* \"package/contracts/dnssec-oracle/RRUtils.sol\":8207:8236  other.readUint8(otherprevoff) */\n      tag_257\n        /* \"package/contracts/dnssec-oracle/RRUtils.sol\":8223:8235  otherprevoff */\n      dup9\n        /* \"package/contracts/dnssec-oracle/RRUtils.sol\":8207:8212  other */\n      dup15\n        /* \"package/contracts/dnssec-oracle/RRUtils.sol\":8207:8222  other.readUint8 */\n      tag_193\n      swap1\n        /* \"package/contracts/dnssec-oracle/RRUtils.sol\":8207:8236  other.readUint8(otherprevoff) */\n      swap2\n      swap1\n      0xffffffff\n      and\n      jump\t// in\n    tag_257:\n        /* \"package/contracts/dnssec-oracle/RRUtils.sol\":8131:8237  self.compare(prevoff + 1, self.readUint8(prevoff), other, otherprevoff + 1, other.readUint8(otherprevoff)) */\n      0xff\n      and\n        /* \"package/contracts/dnssec-oracle/RRUtils.sol\":8131:8135  self */\n      dup15\n        /* \"package/contracts/dnssec-oracle/RRUtils.sol\":8131:8143  self.compare */\n      tag_258\n      swap1\n        /* \"package/contracts/dnssec-oracle/RRUtils.sol\":8131:8237  self.compare(prevoff + 1, self.readUint8(prevoff), other, otherprevoff + 1, other.readUint8(otherprevoff)) */\n      swap6\n      swap5\n      swap4\n      swap3\n      swap2\n      swap1\n      0xffffffff\n      and\n      jump\t// in\n    tag_253:\n        /* \"package/contracts/dnssec-oracle/RRUtils.sol\":8124:8237  return self.compare(prevoff + 1, self.readUint8(prevoff), other, otherprevoff + 1, other.readUint8(otherprevoff)) */\n      swap7\n      pop\n      pop\n      pop\n      pop\n      pop\n      pop\n      pop\n        /* \"package/contracts/dnssec-oracle/RRUtils.sol\":7094:8242  function compareNames(bytes memory self, bytes memory other) internal pure returns (int256) {... */\n    tag_227:\n      swap3\n      swap2\n      pop\n      pop\n      jump\t// out\n        /* \"package/contracts/dnssec-oracle/RRUtils.sol\":8330:8474  function serialNumberGte(uint32 i1, uint32 i2) internal pure returns (bool) {... */\n    tag_128:\n        /* \"package/contracts/dnssec-oracle/RRUtils.sol\":8400:8404  bool */\n      0x00\n        /* \"package/contracts/dnssec-oracle/RRUtils.sol\":8462:8463  0 */\n      dup1\n        /* \"package/contracts/dnssec-oracle/RRUtils.sol\":8455:8457  i2 */\n      dup3\n        /* \"package/contracts/dnssec-oracle/RRUtils.sol\":8443:8445  i1 */\n      dup5\n        /* \"package/contracts/dnssec-oracle/RRUtils.sol\":8437:8458  int32(i1) - int32(i2) */\n      sub\n        /* \"package/contracts/dnssec-oracle/RRUtils.sol\":8437:8463  int32(i1) - int32(i2) >= 0 */\n      0x03\n      signextend\n      slt\n      iszero\n        /* \"package/contracts/dnssec-oracle/RRUtils.sol\":8430:8463  return int32(i1) - int32(i2) >= 0 */\n      swap1\n      pop\n        /* \"package/contracts/dnssec-oracle/RRUtils.sol\":8330:8474  function serialNumberGte(uint32 i1, uint32 i2) internal pure returns (bool) {... */\n      swap3\n      swap2\n      pop\n      pop\n      jump\t// out\n        /* \"package/contracts/dnssec-oracle/RRUtils.sol\":8760:12034  function computeKeytag(bytes memory data) internal pure returns (uint16) {... */\n    tag_154:\n        /* \"package/contracts/dnssec-oracle/RRUtils.sol\":8825:8831  uint16 */\n      0x00\n        /* \"package/contracts/dnssec-oracle/RRUtils.sol\":10502:10506  8192 */\n      0x2000\n        /* \"package/contracts/dnssec-oracle/RRUtils.sol\":10487:10491  data */\n      dup3\n        /* \"package/contracts/dnssec-oracle/RRUtils.sol\":10487:10498  data.length */\n      mload\n        /* \"package/contracts/dnssec-oracle/RRUtils.sol\":10487:10506  data.length <= 8192 */\n      gt\n      iszero\n        /* \"package/contracts/dnssec-oracle/RRUtils.sol\":10479:10534  require(data.length <= 8192, \"Long keys not permitted\") */\n      tag_261\n      jumpi\n      mload(0x40)\n      0x08c379a000000000000000000000000000000000000000000000000000000000\n      dup2\n      mstore\n      0x04\n      add\n      tag_262\n      swap1\n      tag_263\n      jump\t// in\n    tag_262:\n      mload(0x40)\n      dup1\n      swap2\n      sub\n      swap1\n      revert\n    tag_261:\n        /* \"package/contracts/dnssec-oracle/RRUtils.sol\":10542:10553  uint256 ac1 */\n      0x00\n        /* \"package/contracts/dnssec-oracle/RRUtils.sol\":10561:10572  uint256 ac2 */\n      dup1\n        /* \"package/contracts/dnssec-oracle/RRUtils.sol\":10585:10594  uint256 i */\n      0x00\n        /* \"package/contracts/dnssec-oracle/RRUtils.sol\":10580:11074  for (uint256 i = 0; i < data.length + 31; i += 32) {... */\n    tag_264:\n        /* \"package/contracts/dnssec-oracle/RRUtils.sol\":10618:10620  31 */\n      0x1f\n        /* \"package/contracts/dnssec-oracle/RRUtils.sol\":10604:10608  data */\n      dup6\n        /* \"package/contracts/dnssec-oracle/RRUtils.sol\":10604:10615  data.length */\n      mload\n        /* \"package/contracts/dnssec-oracle/RRUtils.sol\":10604:10620  data.length + 31 */\n      add\n        /* \"package/contracts/dnssec-oracle/RRUtils.sol\":10600:10601  i */\n      dup2\n        /* \"package/contracts/dnssec-oracle/RRUtils.sol\":10600:10620  i < data.length + 31 */\n      lt\n        /* \"package/contracts/dnssec-oracle/RRUtils.sol\":10580:11074  for (uint256 i = 0; i < data.length + 31; i += 32) {... */\n      iszero\n      tag_265\n      jumpi\n        /* \"package/contracts/dnssec-oracle/RRUtils.sol\":10641:10653  uint256 word */\n      0x00\n        /* \"package/contracts/dnssec-oracle/RRUtils.sol\":10717:10718  i */\n      dup2\n        /* \"package/contracts/dnssec-oracle/RRUtils.sol\":10712:10714  32 */\n      0x20\n        /* \"package/contracts/dnssec-oracle/RRUtils.sol\":10706:10710  data */\n      dup8\n        /* \"package/contracts/dnssec-oracle/RRUtils.sol\":10702:10715  add(data, 32) */\n      add\n        /* \"package/contracts/dnssec-oracle/RRUtils.sol\":10698:10719  add(add(data, 32), i) */\n      add\n        /* \"package/contracts/dnssec-oracle/RRUtils.sol\":10692:10720  mload(add(add(data, 32), i)) */\n      mload\n        /* \"package/contracts/dnssec-oracle/RRUtils.sol\":10684:10720  word := mload(add(add(data, 32), i)) */\n      swap1\n      pop\n        /* \"package/contracts/dnssec-oracle/RRUtils.sol\":10752:10756  data */\n      dup6\n        /* \"package/contracts/dnssec-oracle/RRUtils.sol\":10752:10763  data.length */\n      mload\n        /* \"package/contracts/dnssec-oracle/RRUtils.sol\":10747:10749  32 */\n      0x20\n        /* \"package/contracts/dnssec-oracle/RRUtils.sol\":10743:10744  i */\n      dup4\n        /* \"package/contracts/dnssec-oracle/RRUtils.sol\":10743:10749  i + 32 */\n      add\n        /* \"package/contracts/dnssec-oracle/RRUtils.sol\":10743:10763  i + 32 > data.length */\n      gt\n        /* \"package/contracts/dnssec-oracle/RRUtils.sol\":10739:10877  if (i + 32 > data.length) {... */\n      iszero\n      tag_267\n      jumpi\n        /* \"package/contracts/dnssec-oracle/RRUtils.sol\":10777:10791  uint256 unused */\n      0x00\n        /* \"package/contracts/dnssec-oracle/RRUtils.sol\":10820:10821  8 */\n      0x08\n        /* \"package/contracts/dnssec-oracle/RRUtils.sol\":10815:10816  i */\n      dup4\n        /* \"package/contracts/dnssec-oracle/RRUtils.sol\":10801:10805  data */\n      dup9\n        /* \"package/contracts/dnssec-oracle/RRUtils.sol\":10801:10812  data.length */\n      mload\n        /* \"package/contracts/dnssec-oracle/RRUtils.sol\":10801:10816  data.length - i */\n      sub\n        /* \"package/contracts/dnssec-oracle/RRUtils.sol\":10800:10821  (data.length - i) * 8 */\n      mul\n        /* \"package/contracts/dnssec-oracle/RRUtils.sol\":10794:10797  256 */\n      0x0100\n        /* \"package/contracts/dnssec-oracle/RRUtils.sol\":10794:10821  256 - (data.length - i) * 8 */\n      sub\n        /* \"package/contracts/dnssec-oracle/RRUtils.sol\":10777:10821  uint256 unused = 256 - (data.length - i) * 8 */\n      swap1\n      pop\n        /* \"package/contracts/dnssec-oracle/RRUtils.sol\":10860:10866  unused */\n      dup1\n        /* \"package/contracts/dnssec-oracle/RRUtils.sol\":10849:10855  unused */\n      dup2\n        /* \"package/contracts/dnssec-oracle/RRUtils.sol\":10841:10845  word */\n      dup4\n        /* \"package/contracts/dnssec-oracle/RRUtils.sol\":10841:10855  word >> unused */\n      swap1\n      shr\n        /* \"package/contracts/dnssec-oracle/RRUtils.sol\":10840:10866  (word >> unused) << unused */\n      swap1\n      shl\n        /* \"package/contracts/dnssec-oracle/RRUtils.sol\":10833:10866  word = (word >> unused) << unused */\n      swap2\n      pop\n        /* \"package/contracts/dnssec-oracle/RRUtils.sol\":10765:10877  {... */\n      pop\n        /* \"package/contracts/dnssec-oracle/RRUtils.sol\":10739:10877  if (i + 32 > data.length) {... */\n    tag_267:\n        /* \"package/contracts/dnssec-oracle/RRUtils.sol\":10972:10973  8 */\n      0x08\n        /* \"package/contracts/dnssec-oracle/RRUtils.sol\":10901:10967  0xFF00FF00FF00FF00FF00FF00FF00FF00FF00FF00FF00FF00FF00FF00FF00FF00 */\n      0xff00ff00ff00ff00ff00ff00ff00ff00ff00ff00ff00ff00ff00ff00ff00ff00\n        /* \"package/contracts/dnssec-oracle/RRUtils.sol\":10894:10898  word */\n      dup3\n        /* \"package/contracts/dnssec-oracle/RRUtils.sol\":10894:10967  word & 0xFF00FF00FF00FF00FF00FF00FF00FF00FF00FF00FF00FF00FF00FF00FF00FF00 */\n      and\n        /* \"package/contracts/dnssec-oracle/RRUtils.sol\":10893:10973  (word & 0xFF00FF00FF00FF00FF00FF00FF00FF00FF00FF00FF00FF00FF00FF00FF00FF00) >> 8 */\n      swap1\n      shr\n        /* \"package/contracts/dnssec-oracle/RRUtils.sol\":10886:10973  ac1 += (word & 0xFF00FF00FF00FF00FF00FF00FF00FF00FF00FF00FF00FF00FF00FF00FF00FF00) >> 8 */\n      dup5\n      add\n      swap4\n      pop\n        /* \"package/contracts/dnssec-oracle/RRUtils.sol\":10998:11064  0x00FF00FF00FF00FF00FF00FF00FF00FF00FF00FF00FF00FF00FF00FF00FF00FF */\n      0xff00ff00ff00ff00ff00ff00ff00ff00ff00ff00ff00ff00ff00ff00ff00ff\n        /* \"package/contracts/dnssec-oracle/RRUtils.sol\":10991:10995  word */\n      dup2\n        /* \"package/contracts/dnssec-oracle/RRUtils.sol\":10991:11064  word & 0x00FF00FF00FF00FF00FF00FF00FF00FF00FF00FF00FF00FF00FF00FF00FF00FF */\n      and\n        /* \"package/contracts/dnssec-oracle/RRUtils.sol\":10983:11065  ac2 += (word & 0x00FF00FF00FF00FF00FF00FF00FF00FF00FF00FF00FF00FF00FF00FF00FF00FF) */\n      dup4\n      add\n      swap3\n      pop\n        /* \"package/contracts/dnssec-oracle/RRUtils.sol\":10631:11074  {... */\n      pop\n        /* \"package/contracts/dnssec-oracle/RRUtils.sol\":10627:10629  32 */\n      0x20\n        /* \"package/contracts/dnssec-oracle/RRUtils.sol\":10622:10629  i += 32 */\n      dup2\n      add\n      swap1\n      pop\n        /* \"package/contracts/dnssec-oracle/RRUtils.sol\":10580:11074  for (uint256 i = 0; i < data.length + 31; i += 32) {... */\n      jump(tag_264)\n    tag_265:\n      pop\n        /* \"package/contracts/dnssec-oracle/RRUtils.sol\":11259:11261  16 */\n      0x10\n        /* \"package/contracts/dnssec-oracle/RRUtils.sol\":11188:11254  0xFFFF0000FFFF0000FFFF0000FFFF0000FFFF0000FFFF0000FFFF0000FFFF0000 */\n      0xffff0000ffff0000ffff0000ffff0000ffff0000ffff0000ffff0000ffff0000\n        /* \"package/contracts/dnssec-oracle/RRUtils.sol\":11182:11185  ac1 */\n      dup4\n        /* \"package/contracts/dnssec-oracle/RRUtils.sol\":11182:11254  ac1 & 0xFFFF0000FFFF0000FFFF0000FFFF0000FFFF0000FFFF0000FFFF0000FFFF0000 */\n      and\n        /* \"package/contracts/dnssec-oracle/RRUtils.sol\":11181:11261  (ac1 & 0xFFFF0000FFFF0000FFFF0000FFFF0000FFFF0000FFFF0000FFFF0000FFFF0000) >> 16 */\n      swap1\n      shr\n        /* \"package/contracts/dnssec-oracle/RRUtils.sol\":11102:11168  0x0000FFFF0000FFFF0000FFFF0000FFFF0000FFFF0000FFFF0000FFFF0000FFFF */\n      0xffff0000ffff0000ffff0000ffff0000ffff0000ffff0000ffff0000ffff\n        /* \"package/contracts/dnssec-oracle/RRUtils.sol\":11096:11099  ac1 */\n      dup4\n        /* \"package/contracts/dnssec-oracle/RRUtils.sol\":11096:11168  ac1 & 0x0000FFFF0000FFFF0000FFFF0000FFFF0000FFFF0000FFFF0000FFFF0000FFFF */\n      and\n        /* \"package/contracts/dnssec-oracle/RRUtils.sol\":11095:11262  (ac1 & 0x0000FFFF0000FFFF0000FFFF0000FFFF0000FFFF0000FFFF0000FFFF0000FFFF) +... */\n      add\n        /* \"package/contracts/dnssec-oracle/RRUtils.sol\":11081:11262  ac1 =... */\n      swap2\n      pop\n        /* \"package/contracts/dnssec-oracle/RRUtils.sol\":11448:11450  16 */\n      0x10\n        /* \"package/contracts/dnssec-oracle/RRUtils.sol\":11377:11443  0xFFFF0000FFFF0000FFFF0000FFFF0000FFFF0000FFFF0000FFFF0000FFFF0000 */\n      0xffff0000ffff0000ffff0000ffff0000ffff0000ffff0000ffff0000ffff0000\n        /* \"package/contracts/dnssec-oracle/RRUtils.sol\":11371:11374  ac2 */\n      dup3\n        /* \"package/contracts/dnssec-oracle/RRUtils.sol\":11371:11443  ac2 & 0xFFFF0000FFFF0000FFFF0000FFFF0000FFFF0000FFFF0000FFFF0000FFFF0000 */\n      and\n        /* \"package/contracts/dnssec-oracle/RRUtils.sol\":11370:11450  (ac2 & 0xFFFF0000FFFF0000FFFF0000FFFF0000FFFF0000FFFF0000FFFF0000FFFF0000) >> 16 */\n      swap1\n      shr\n        /* \"package/contracts/dnssec-oracle/RRUtils.sol\":11291:11357  0x0000FFFF0000FFFF0000FFFF0000FFFF0000FFFF0000FFFF0000FFFF0000FFFF */\n      0xffff0000ffff0000ffff0000ffff0000ffff0000ffff0000ffff0000ffff\n        /* \"package/contracts/dnssec-oracle/RRUtils.sol\":11285:11288  ac2 */\n      dup3\n        /* \"package/contracts/dnssec-oracle/RRUtils.sol\":11285:11357  ac2 & 0x0000FFFF0000FFFF0000FFFF0000FFFF0000FFFF0000FFFF0000FFFF0000FFFF */\n      and\n        /* \"package/contracts/dnssec-oracle/RRUtils.sol\":11284:11451  (ac2 & 0x0000FFFF0000FFFF0000FFFF0000FFFF0000FFFF0000FFFF0000FFFF0000FFFF) +... */\n      add\n        /* \"package/contracts/dnssec-oracle/RRUtils.sol\":11270:11451  ac2 =... */\n      swap1\n      pop\n        /* \"package/contracts/dnssec-oracle/RRUtils.sol\":11478:11481  ac2 */\n      dup1\n        /* \"package/contracts/dnssec-oracle/RRUtils.sol\":11473:11474  8 */\n      0x08\n        /* \"package/contracts/dnssec-oracle/RRUtils.sol\":11466:11469  ac1 */\n      dup4\n        /* \"package/contracts/dnssec-oracle/RRUtils.sol\":11466:11474  ac1 << 8 */\n      swap1\n      shl\n        /* \"package/contracts/dnssec-oracle/RRUtils.sol\":11465:11481  (ac1 << 8) + ac2 */\n      add\n        /* \"package/contracts/dnssec-oracle/RRUtils.sol\":11459:11481  ac1 = (ac1 << 8) + ac2 */\n      swap2\n      pop\n        /* \"package/contracts/dnssec-oracle/RRUtils.sol\":11667:11669  32 */\n      0x20\n        /* \"package/contracts/dnssec-oracle/RRUtils.sol\":11596:11662  0xFFFFFFFF00000000FFFFFFFF00000000FFFFFFFF00000000FFFFFFFF00000000 */\n      0xffffffff00000000ffffffff00000000ffffffff00000000ffffffff00000000\n        /* \"package/contracts/dnssec-oracle/RRUtils.sol\":11590:11593  ac1 */\n      dup4\n        /* \"package/contracts/dnssec-oracle/RRUtils.sol\":11590:11662  ac1 & 0xFFFFFFFF00000000FFFFFFFF00000000FFFFFFFF00000000FFFFFFFF00000000 */\n      and\n        /* \"package/contracts/dnssec-oracle/RRUtils.sol\":11589:11669  (ac1 & 0xFFFFFFFF00000000FFFFFFFF00000000FFFFFFFF00000000FFFFFFFF00000000) >> 32 */\n      swap1\n      shr\n        /* \"package/contracts/dnssec-oracle/RRUtils.sol\":11510:11576  0x00000000FFFFFFFF00000000FFFFFFFF00000000FFFFFFFF00000000FFFFFFFF */\n      0xffffffff00000000ffffffff00000000ffffffff00000000ffffffff\n        /* \"package/contracts/dnssec-oracle/RRUtils.sol\":11504:11507  ac1 */\n      dup4\n        /* \"package/contracts/dnssec-oracle/RRUtils.sol\":11504:11576  ac1 & 0x00000000FFFFFFFF00000000FFFFFFFF00000000FFFFFFFF00000000FFFFFFFF */\n      and\n        /* \"package/contracts/dnssec-oracle/RRUtils.sol\":11503:11670  (ac1 & 0x00000000FFFFFFFF00000000FFFFFFFF00000000FFFFFFFF00000000FFFFFFFF) +... */\n      add\n        /* \"package/contracts/dnssec-oracle/RRUtils.sol\":11489:11670  ac1 =... */\n      swap2\n      pop\n        /* \"package/contracts/dnssec-oracle/RRUtils.sol\":11856:11858  64 */\n      0x40\n        /* \"package/contracts/dnssec-oracle/RRUtils.sol\":11785:11851  0xFFFFFFFFFFFFFFFF0000000000000000FFFFFFFFFFFFFFFF0000000000000000 */\n      0xffffffffffffffff0000000000000000ffffffffffffffff0000000000000000\n        /* \"package/contracts/dnssec-oracle/RRUtils.sol\":11779:11782  ac1 */\n      dup4\n        /* \"package/contracts/dnssec-oracle/RRUtils.sol\":11779:11851  ac1 & 0xFFFFFFFFFFFFFFFF0000000000000000FFFFFFFFFFFFFFFF0000000000000000 */\n      and\n        /* \"package/contracts/dnssec-oracle/RRUtils.sol\":11778:11858  (ac1 & 0xFFFFFFFFFFFFFFFF0000000000000000FFFFFFFFFFFFFFFF0000000000000000) >> 64 */\n      swap1\n      shr\n        /* \"package/contracts/dnssec-oracle/RRUtils.sol\":11699:11765  0x0000000000000000FFFFFFFFFFFFFFFF0000000000000000FFFFFFFFFFFFFFFF */\n      0xffffffffffffffff0000000000000000ffffffffffffffff\n        /* \"package/contracts/dnssec-oracle/RRUtils.sol\":11693:11696  ac1 */\n      dup4\n        /* \"package/contracts/dnssec-oracle/RRUtils.sol\":11693:11765  ac1 & 0x0000000000000000FFFFFFFFFFFFFFFF0000000000000000FFFFFFFFFFFFFFFF */\n      and\n        /* \"package/contracts/dnssec-oracle/RRUtils.sol\":11692:11859  (ac1 & 0x0000000000000000FFFFFFFFFFFFFFFF0000000000000000FFFFFFFFFFFFFFFF) +... */\n      add\n        /* \"package/contracts/dnssec-oracle/RRUtils.sol\":11678:11859  ac1 =... */\n      swap2\n      pop\n        /* \"package/contracts/dnssec-oracle/RRUtils.sol\":11958:11961  128 */\n      0x80\n        /* \"package/contracts/dnssec-oracle/RRUtils.sol\":11951:11954  ac1 */\n      dup3\n        /* \"package/contracts/dnssec-oracle/RRUtils.sol\":11951:11961  ac1 >> 128 */\n      swap1\n      shr\n        /* \"package/contracts/dnssec-oracle/RRUtils.sol\":11880:11946  0x00000000000000000000000000000000FFFFFFFFFFFFFFFFFFFFFFFFFFFFFFFF */\n      0xffffffffffffffffffffffffffffffff\n        /* \"package/contracts/dnssec-oracle/RRUtils.sol\":11874:11877  ac1 */\n      dup4\n        /* \"package/contracts/dnssec-oracle/RRUtils.sol\":11874:11946  ac1 & 0x00000000000000000000000000000000FFFFFFFFFFFFFFFFFFFFFFFFFFFFFFFF */\n      and\n        /* \"package/contracts/dnssec-oracle/RRUtils.sol\":11873:11962  (ac1 & 0x00000000000000000000000000000000FFFFFFFFFFFFFFFFFFFFFFFFFFFFFFFF) + (ac1 >> 128) */\n      add\n        /* \"package/contracts/dnssec-oracle/RRUtils.sol\":11867:11962  ac1 = (ac1 & 0x00000000000000000000000000000000FFFFFFFFFFFFFFFFFFFFFFFFFFFFFFFF) + (ac1 >> 128) */\n      swap2\n      pop\n        /* \"package/contracts/dnssec-oracle/RRUtils.sol\":11991:11997  0xFFFF */\n      0xffff\n        /* \"package/contracts/dnssec-oracle/RRUtils.sol\":11985:11987  16 */\n      0x10\n        /* \"package/contracts/dnssec-oracle/RRUtils.sol\":11978:11981  ac1 */\n      dup4\n        /* \"package/contracts/dnssec-oracle/RRUtils.sol\":11978:11987  ac1 >> 16 */\n      swap1\n      shr\n        /* \"package/contracts/dnssec-oracle/RRUtils.sol\":11977:11997  (ac1 >> 16) & 0xFFFF */\n      and\n        /* \"package/contracts/dnssec-oracle/RRUtils.sol\":11970:11997  ac1 += (ac1 >> 16) & 0xFFFF */\n      dup3\n      add\n      swap2\n      pop\n        /* \"package/contracts/dnssec-oracle/RRUtils.sol\":12019:12022  ac1 */\n      dup2\n        /* \"package/contracts/dnssec-oracle/RRUtils.sol\":12005:12023  return uint16(ac1) */\n      swap3\n      pop\n      pop\n      pop\n        /* \"package/contracts/dnssec-oracle/RRUtils.sol\":8760:12034  function computeKeytag(bytes memory data) internal pure returns (uint16) {... */\n      swap2\n      swap1\n      pop\n      jump\t// out\n        /* \"package/contracts/dnssec-oracle/RRUtils.sol\":1555:1896  function labelCount(bytes memory self, uint256 offset) internal pure returns (uint256) {... */\n    tag_170:\n        /* \"package/contracts/dnssec-oracle/RRUtils.sol\":1633:1640  uint256 */\n      0x00\n        /* \"package/contracts/dnssec-oracle/RRUtils.sol\":1648:1661  uint256 count */\n      dup1\n        /* \"package/contracts/dnssec-oracle/RRUtils.sol\":1664:1665  0 */\n      0x00\n        /* \"package/contracts/dnssec-oracle/RRUtils.sol\":1648:1665  uint256 count = 0 */\n      swap1\n      pop\n        /* \"package/contracts/dnssec-oracle/RRUtils.sol\":1671:1874  while (true) {... */\n    tag_269:\n        /* \"package/contracts/dnssec-oracle/RRUtils.sol\":1678:1682  true */\n      0x01\n        /* \"package/contracts/dnssec-oracle/RRUtils.sol\":1671:1874  while (true) {... */\n      iszero\n      tag_270\n      jumpi\n        /* \"package/contracts/dnssec-oracle/RRUtils.sol\":1708:1712  self */\n      dup4\n        /* \"package/contracts/dnssec-oracle/RRUtils.sol\":1708:1719  self.length */\n      mload\n        /* \"package/contracts/dnssec-oracle/RRUtils.sol\":1699:1705  offset */\n      dup4\n        /* \"package/contracts/dnssec-oracle/RRUtils.sol\":1699:1719  offset < self.length */\n      lt\n        /* \"package/contracts/dnssec-oracle/RRUtils.sol\":1692:1720  assert(offset < self.length) */\n      tag_271\n      jumpi\n      tag_272\n      tag_191\n      jump\t// in\n    tag_272:\n    tag_271:\n        /* \"package/contracts/dnssec-oracle/RRUtils.sol\":1728:1744  uint256 labelLen */\n      0x00\n        /* \"package/contracts/dnssec-oracle/RRUtils.sol\":1747:1769  self.readUint8(offset) */\n      tag_273\n        /* \"package/contracts/dnssec-oracle/RRUtils.sol\":1762:1768  offset */\n      dup5\n        /* \"package/contracts/dnssec-oracle/RRUtils.sol\":1747:1751  self */\n      dup7\n        /* \"package/contracts/dnssec-oracle/RRUtils.sol\":1747:1761  self.readUint8 */\n      tag_193\n      swap1\n        /* \"package/contracts/dnssec-oracle/RRUtils.sol\":1747:1769  self.readUint8(offset) */\n      swap2\n      swap1\n      0xffffffff\n      and\n      jump\t// in\n    tag_273:\n        /* \"package/contracts/dnssec-oracle/RRUtils.sol\":1728:1769  uint256 labelLen = self.readUint8(offset) */\n      0xff\n      and\n      swap1\n      pop\n        /* \"package/contracts/dnssec-oracle/RRUtils.sol\":1798:1799  1 */\n      0x01\n        /* \"package/contracts/dnssec-oracle/RRUtils.sol\":1787:1795  labelLen */\n      dup2\n        /* \"package/contracts/dnssec-oracle/RRUtils.sol\":1787:1799  labelLen + 1 */\n      tag_274\n      swap2\n      swap1\n      tag_195\n      jump\t// in\n    tag_274:\n        /* \"package/contracts/dnssec-oracle/RRUtils.sol\":1777:1799  offset += labelLen + 1 */\n      dup5\n      tag_275\n      swap2\n      swap1\n      tag_195\n      jump\t// in\n    tag_275:\n      swap4\n      pop\n        /* \"package/contracts/dnssec-oracle/RRUtils.sol\":1823:1824  0 */\n      0x00\n        /* \"package/contracts/dnssec-oracle/RRUtils.sol\":1811:1819  labelLen */\n      dup2\n        /* \"package/contracts/dnssec-oracle/RRUtils.sol\":1811:1824  labelLen == 0 */\n      sub\n        /* \"package/contracts/dnssec-oracle/RRUtils.sol\":1807:1850  if (labelLen == 0) {... */\n      tag_276\n      jumpi\n        /* \"package/contracts/dnssec-oracle/RRUtils.sol\":1836:1841  break */\n      pop\n      jump(tag_270)\n        /* \"package/contracts/dnssec-oracle/RRUtils.sol\":1807:1850  if (labelLen == 0) {... */\n    tag_276:\n        /* \"package/contracts/dnssec-oracle/RRUtils.sol\":1866:1867  1 */\n      0x01\n        /* \"package/contracts/dnssec-oracle/RRUtils.sol\":1857:1867  count += 1 */\n      dup3\n      tag_277\n      swap2\n      swap1\n      tag_195\n      jump\t// in\n    tag_277:\n      swap2\n      pop\n        /* \"package/contracts/dnssec-oracle/RRUtils.sol\":1684:1874  {... */\n      pop\n        /* \"package/contracts/dnssec-oracle/RRUtils.sol\":1671:1874  while (true) {... */\n      jump(tag_269)\n    tag_270:\n        /* \"package/contracts/dnssec-oracle/RRUtils.sol\":1886:1891  count */\n      dup1\n        /* \"package/contracts/dnssec-oracle/RRUtils.sol\":1879:1891  return count */\n      swap2\n      pop\n      pop\n        /* \"package/contracts/dnssec-oracle/RRUtils.sol\":1555:1896  function labelCount(bytes memory self, uint256 offset) internal pure returns (uint256) {... */\n      swap3\n      swap2\n      pop\n      pop\n      jump\t// out\n        /* \"package/contracts/utils/BytesUtils.sol\":6804:6923  function readUint8(bytes memory self, uint256 idx) internal pure returns (uint8 ret) {... */\n    tag_193:\n        /* \"package/contracts/utils/BytesUtils.sol\":6878:6887  uint8 ret */\n      0x00\n        /* \"package/contracts/utils/BytesUtils.sol\":6908:6912  self */\n      dup3\n        /* \"package/contracts/utils/BytesUtils.sol\":6913:6916  idx */\n      dup3\n        /* \"package/contracts/utils/BytesUtils.sol\":6908:6917  self[idx] */\n      dup2\n      mload\n      dup2\n      lt\n      tag_279\n      jumpi\n      tag_280\n      tag_53\n      jump\t// in\n    tag_280:\n    tag_279:\n      0x20\n      add\n      add\n      mload\n      0xf8\n      shr\n      0xf8\n      shl\n        /* \"package/contracts/utils/BytesUtils.sol\":6902:6918  uint8(self[idx]) */\n      0xf8\n      shr\n        /* \"package/contracts/utils/BytesUtils.sol\":6895:6918  return uint8(self[idx]) */\n      swap1\n      pop\n        /* \"package/contracts/utils/BytesUtils.sol\":6804:6923  function readUint8(bytes memory self, uint256 idx) internal pure returns (uint8 ret) {... */\n      swap3\n      swap2\n      pop\n      pop\n      jump\t// out\n        /* \"package/contracts/utils/BytesUtils.sol\":9971:10331  function substring(bytes memory self, uint256 offset, uint256 len) internal pure returns (bytes memory) {... */\n    tag_208:\n        /* \"package/contracts/utils/BytesUtils.sol\":10061:10073  bytes memory */\n      0x60\n        /* \"package/contracts/utils/BytesUtils.sol\":10105:10109  self */\n      dup4\n        /* \"package/contracts/utils/BytesUtils.sol\":10105:10116  self.length */\n      mload\n        /* \"package/contracts/utils/BytesUtils.sol\":10098:10101  len */\n      dup3\n        /* \"package/contracts/utils/BytesUtils.sol\":10089:10095  offset */\n      dup5\n        /* \"package/contracts/utils/BytesUtils.sol\":10089:10101  offset + len */\n      tag_282\n      swap2\n      swap1\n      tag_195\n      jump\t// in\n    tag_282:\n        /* \"package/contracts/utils/BytesUtils.sol\":10089:10116  offset + len <= self.length */\n      gt\n      iszero\n        /* \"package/contracts/utils/BytesUtils.sol\":10081:10117  require(offset + len <= self.length) */\n      tag_283\n      jumpi\n      0x00\n      dup1\n      revert\n    tag_283:\n        /* \"package/contracts/utils/BytesUtils.sol\":10124:10140  bytes memory ret */\n      0x00\n        /* \"package/contracts/utils/BytesUtils.sol\":10153:10156  len */\n      dup3\n        /* \"package/contracts/utils/BytesUtils.sol\":10143:10157  new bytes(len) */\n      0xffffffffffffffff\n      dup2\n      gt\n      iszero\n      tag_284\n      jumpi\n      tag_285\n      tag_286\n      jump\t// in\n    tag_285:\n    tag_284:\n      mload(0x40)\n      swap1\n      dup1\n      dup3\n      mstore\n      dup1\n      0x1f\n      add\n      not(0x1f)\n      and\n      0x20\n      add\n      dup3\n      add\n      0x40\n      mstore\n      dup1\n      iszero\n      tag_287\n      jumpi\n      dup2\n      0x20\n      add\n      0x01\n      dup3\n      mul\n      dup1\n      calldatasize\n      dup4\n      calldatacopy\n      dup1\n      dup3\n      add\n      swap2\n      pop\n      pop\n      swap1\n      pop\n    tag_287:\n      pop\n        /* \"package/contracts/utils/BytesUtils.sol\":10124:10157  bytes memory ret = new bytes(len) */\n      swap1\n      pop\n        /* \"package/contracts/utils/BytesUtils.sol\":10163:10175  uint256 dest */\n      0x00\n        /* \"package/contracts/utils/BytesUtils.sol\":10181:10192  uint256 src */\n      dup1\n        /* \"package/contracts/utils/BytesUtils.sol\":10233:10235  32 */\n      0x20\n        /* \"package/contracts/utils/BytesUtils.sol\":10228:10231  ret */\n      dup4\n        /* \"package/contracts/utils/BytesUtils.sol\":10224:10236  add(ret, 32) */\n      add\n        /* \"package/contracts/utils/BytesUtils.sol\":10216:10236  dest := add(ret, 32) */\n      swap2\n      pop\n        /* \"package/contracts/utils/BytesUtils.sol\":10269:10275  offset */\n      dup6\n        /* \"package/contracts/utils/BytesUtils.sol\":10264:10266  32 */\n      0x20\n        /* \"package/contracts/utils/BytesUtils.sol\":10258:10262  self */\n      dup9\n        /* \"package/contracts/utils/BytesUtils.sol\":10254:10267  add(self, 32) */\n      add\n        /* \"package/contracts/utils/BytesUtils.sol\":10250:10276  add(add(self, 32), offset) */\n      add\n        /* \"package/contracts/utils/BytesUtils.sol\":10243:10276  src := add(add(self, 32), offset) */\n      swap1\n      pop\n        /* \"package/contracts/utils/BytesUtils.sol\":10287:10309  memcpy(dest, src, len) */\n      tag_288\n        /* \"package/contracts/utils/BytesUtils.sol\":10294:10298  dest */\n      dup3\n        /* \"package/contracts/utils/BytesUtils.sol\":10300:10303  src */\n      dup3\n        /* \"package/contracts/utils/BytesUtils.sol\":10305:10308  len */\n      dup8\n        /* \"package/contracts/utils/BytesUtils.sol\":10287:10293  memcpy */\n      tag_289\n        /* \"package/contracts/utils/BytesUtils.sol\":10287:10309  memcpy(dest, src, len) */\n      jump\t// in\n    tag_288:\n        /* \"package/contracts/utils/BytesUtils.sol\":10323:10326  ret */\n      dup3\n        /* \"package/contracts/utils/BytesUtils.sol\":10316:10326  return ret */\n      swap4\n      pop\n      pop\n      pop\n      pop\n        /* \"package/contracts/utils/BytesUtils.sol\":9971:10331  function substring(bytes memory self, uint256 offset, uint256 len) internal pure returns (bytes memory) {... */\n      swap4\n      swap3\n      pop\n      pop\n      pop\n      jump\t// out\n        /* \"package/contracts/utils/BytesUtils.sol\":7158:7364  function readUint16(bytes memory self, uint256 idx) internal pure returns (uint16 ret) {... */\n    tag_217:\n        /* \"package/contracts/utils/BytesUtils.sol\":7233:7243  uint16 ret */\n      0x00\n        /* \"package/contracts/utils/BytesUtils.sol\":7270:7274  self */\n      dup3\n        /* \"package/contracts/utils/BytesUtils.sol\":7270:7281  self.length */\n      mload\n        /* \"package/contracts/utils/BytesUtils.sol\":7265:7266  2 */\n      0x02\n        /* \"package/contracts/utils/BytesUtils.sol\":7259:7262  idx */\n      dup4\n        /* \"package/contracts/utils/BytesUtils.sol\":7259:7266  idx + 2 */\n      tag_291\n      swap2\n      swap1\n      tag_195\n      jump\t// in\n    tag_291:\n        /* \"package/contracts/utils/BytesUtils.sol\":7259:7281  idx + 2 <= self.length */\n      gt\n      iszero\n        /* \"package/contracts/utils/BytesUtils.sol\":7251:7282  require(idx + 2 <= self.length) */\n      tag_292\n      jumpi\n      0x00\n      dup1\n      revert\n    tag_292:\n        /* \"package/contracts/utils/BytesUtils.sol\":7347:7353  0xFFFF */\n      0xffff\n        /* \"package/contracts/utils/BytesUtils.sol\":7340:7343  idx */\n      dup3\n        /* \"package/contracts/utils/BytesUtils.sol\":7336:7337  2 */\n      0x02\n        /* \"package/contracts/utils/BytesUtils.sol\":7330:7334  self */\n      dup6\n        /* \"package/contracts/utils/BytesUtils.sol\":7326:7338  add(self, 2) */\n      add\n        /* \"package/contracts/utils/BytesUtils.sol\":7322:7344  add(add(self, 2), idx) */\n      add\n        /* \"package/contracts/utils/BytesUtils.sol\":7316:7345  mload(add(add(self, 2), idx)) */\n      mload\n        /* \"package/contracts/utils/BytesUtils.sol\":7312:7354  and(mload(add(add(self, 2), idx)), 0xFFFF) */\n      and\n        /* \"package/contracts/utils/BytesUtils.sol\":7305:7354  ret := and(mload(add(add(self, 2), idx)), 0xFFFF) */\n      swap1\n      pop\n        /* \"package/contracts/utils/BytesUtils.sol\":7158:7364  function readUint16(bytes memory self, uint256 idx) internal pure returns (uint16 ret) {... */\n      swap3\n      swap2\n      pop\n      pop\n      jump\t// out\n        /* \"package/contracts/utils/BytesUtils.sol\":7599:7809  function readUint32(bytes memory self, uint256 idx) internal pure returns (uint32 ret) {... */\n    tag_222:\n        /* \"package/contracts/utils/BytesUtils.sol\":7674:7684  uint32 ret */\n      0x00\n        /* \"package/contracts/utils/BytesUtils.sol\":7711:7715  self */\n      dup3\n        /* \"package/contracts/utils/BytesUtils.sol\":7711:7722  self.length */\n      mload\n        /* \"package/contracts/utils/BytesUtils.sol\":7706:7707  4 */\n      0x04\n        /* \"package/contracts/utils/BytesUtils.sol\":7700:7703  idx */\n      dup4\n        /* \"package/contracts/utils/BytesUtils.sol\":7700:7707  idx + 4 */\n      tag_294\n      swap2\n      swap1\n      tag_195\n      jump\t// in\n    tag_294:\n        /* \"package/contracts/utils/BytesUtils.sol\":7700:7722  idx + 4 <= self.length */\n      gt\n      iszero\n        /* \"package/contracts/utils/BytesUtils.sol\":7692:7723  require(idx + 4 <= self.length) */\n      tag_295\n      jumpi\n      0x00\n      dup1\n      revert\n    tag_295:\n        /* \"package/contracts/utils/BytesUtils.sol\":7788:7798  0xFFFFFFFF */\n      0xffffffff\n        /* \"package/contracts/utils/BytesUtils.sol\":7781:7784  idx */\n      dup3\n        /* \"package/contracts/utils/BytesUtils.sol\":7777:7778  4 */\n      0x04\n        /* \"package/contracts/utils/BytesUtils.sol\":7771:7775  self */\n      dup6\n        /* \"package/contracts/utils/BytesUtils.sol\":7767:7779  add(self, 4) */\n      add\n        /* \"package/contracts/utils/BytesUtils.sol\":7763:7785  add(add(self, 4), idx) */\n      add\n        /* \"package/contracts/utils/BytesUtils.sol\":7757:7786  mload(add(add(self, 4), idx)) */\n      mload\n        /* \"package/contracts/utils/BytesUtils.sol\":7753:7799  and(mload(add(add(self, 4), idx)), 0xFFFFFFFF) */\n      and\n        /* \"package/contracts/utils/BytesUtils.sol\":7746:7799  ret := and(mload(add(add(self, 4), idx)), 0xFFFFFFFF) */\n      swap1\n      pop\n        /* \"package/contracts/utils/BytesUtils.sol\":7599:7809  function readUint32(bytes memory self, uint256 idx) internal pure returns (uint32 ret) {... */\n      swap3\n      swap2\n      pop\n      pop\n      jump\t// out\n        /* \"package/contracts/utils/BytesUtils.sol\":6400:6571  function equals(bytes memory self, bytes memory other) internal pure returns (bool) {... */\n    tag_229:\n        /* \"package/contracts/utils/BytesUtils.sol\":6478:6482  bool */\n      0x00\n        /* \"package/contracts/utils/BytesUtils.sol\":6512:6517  other */\n      dup2\n        /* \"package/contracts/utils/BytesUtils.sol\":6512:6524  other.length */\n      mload\n        /* \"package/contracts/utils/BytesUtils.sol\":6497:6501  self */\n      dup4\n        /* \"package/contracts/utils/BytesUtils.sol\":6497:6508  self.length */\n      mload\n        /* \"package/contracts/utils/BytesUtils.sol\":6497:6524  self.length == other.length */\n      eq\n        /* \"package/contracts/utils/BytesUtils.sol\":6497:6566  self.length == other.length && equals(self, 0, other, 0, self.length) */\n      dup1\n      iszero\n      tag_297\n      jumpi\n      pop\n        /* \"package/contracts/utils/BytesUtils.sol\":6528:6566  equals(self, 0, other, 0, self.length) */\n      tag_298\n        /* \"package/contracts/utils/BytesUtils.sol\":6535:6539  self */\n      dup4\n        /* \"package/contracts/utils/BytesUtils.sol\":6541:6542  0 */\n      0x00\n        /* \"package/contracts/utils/BytesUtils.sol\":6544:6549  other */\n      dup5\n        /* \"package/contracts/utils/BytesUtils.sol\":6551:6552  0 */\n      0x00\n        /* \"package/contracts/utils/BytesUtils.sol\":6554:6558  self */\n      dup8\n        /* \"package/contracts/utils/BytesUtils.sol\":6554:6565  self.length */\n      mload\n        /* \"package/contracts/utils/BytesUtils.sol\":6528:6534  equals */\n      tag_299\n        /* \"package/contracts/utils/BytesUtils.sol\":6528:6566  equals(self, 0, other, 0, self.length) */\n      jump\t// in\n    tag_298:\n        /* \"package/contracts/utils/BytesUtils.sol\":6497:6566  self.length == other.length && equals(self, 0, other, 0, self.length) */\n    tag_297:\n        /* \"package/contracts/utils/BytesUtils.sol\":6490:6566  return self.length == other.length && equals(self, 0, other, 0, self.length) */\n      swap1\n      pop\n        /* \"package/contracts/utils/BytesUtils.sol\":6400:6571  function equals(bytes memory self, bytes memory other) internal pure returns (bool) {... */\n      swap3\n      swap2\n      pop\n      pop\n      jump\t// out\n        /* \"package/contracts/dnssec-oracle/RRUtils.sol\":8478:8607  function progress(bytes memory body, uint256 off) internal pure returns (uint256) {... */\n    tag_236:\n        /* \"package/contracts/dnssec-oracle/RRUtils.sol\":8551:8558  uint256 */\n      0x00\n        /* \"package/contracts/dnssec-oracle/RRUtils.sol\":8583:8602  body.readUint8(off) */\n      tag_301\n        /* \"package/contracts/dnssec-oracle/RRUtils.sol\":8598:8601  off */\n      dup3\n        /* \"package/contracts/dnssec-oracle/RRUtils.sol\":8583:8587  body */\n      dup5\n        /* \"package/contracts/dnssec-oracle/RRUtils.sol\":8583:8597  body.readUint8 */\n      tag_193\n      swap1\n        /* \"package/contracts/dnssec-oracle/RRUtils.sol\":8583:8602  body.readUint8(off) */\n      swap2\n      swap1\n      0xffffffff\n      and\n      jump\t// in\n    tag_301:\n        /* \"package/contracts/dnssec-oracle/RRUtils.sol\":8573:8602  off + 1 + body.readUint8(off) */\n      0xff\n      and\n        /* \"package/contracts/dnssec-oracle/RRUtils.sol\":8579:8580  1 */\n      0x01\n        /* \"package/contracts/dnssec-oracle/RRUtils.sol\":8573:8576  off */\n      dup4\n        /* \"package/contracts/dnssec-oracle/RRUtils.sol\":8573:8580  off + 1 */\n      tag_302\n      swap2\n      swap1\n      tag_195\n      jump\t// in\n    tag_302:\n        /* \"package/contracts/dnssec-oracle/RRUtils.sol\":8573:8602  off + 1 + body.readUint8(off) */\n      tag_303\n      swap2\n      swap1\n      tag_195\n      jump\t// in\n    tag_303:\n        /* \"package/contracts/dnssec-oracle/RRUtils.sol\":8566:8602  return off + 1 + body.readUint8(off) */\n      swap1\n      pop\n        /* \"package/contracts/dnssec-oracle/RRUtils.sol\":8478:8607  function progress(bytes memory body, uint256 off) internal pure returns (uint256) {... */\n      swap3\n      swap2\n      pop\n      pop\n      jump\t// out\n        /* \"package/contracts/utils/BytesUtils.sol\":5359:5618  function equals(... */\n    tag_247:\n        /* \"package/contracts/utils/BytesUtils.sol\":5494:5498  bool */\n      0x00\n        /* \"package/contracts/utils/BytesUtils.sol\":5559:5613  keccak(other, otherOffset, other.length - otherOffset) */\n      tag_305\n        /* \"package/contracts/utils/BytesUtils.sol\":5566:5571  other */\n      dup4\n        /* \"package/contracts/utils/BytesUtils.sol\":5573:5584  otherOffset */\n      dup4\n        /* \"package/contracts/utils/BytesUtils.sol\":5601:5612  otherOffset */\n      dup5\n        /* \"package/contracts/utils/BytesUtils.sol\":5586:5591  other */\n      dup7\n        /* \"package/contracts/utils/BytesUtils.sol\":5586:5598  other.length */\n      mload\n        /* \"package/contracts/utils/BytesUtils.sol\":5586:5612  other.length - otherOffset */\n      tag_306\n      swap2\n      swap1\n      tag_199\n      jump\t// in\n    tag_306:\n        /* \"package/contracts/utils/BytesUtils.sol\":5559:5565  keccak */\n      tag_307\n        /* \"package/contracts/utils/BytesUtils.sol\":5559:5613  keccak(other, otherOffset, other.length - otherOffset) */\n      jump\t// in\n    tag_305:\n        /* \"package/contracts/utils/BytesUtils.sol\":5513:5555  keccak(self, offset, self.length - offset) */\n      tag_308\n        /* \"package/contracts/utils/BytesUtils.sol\":5520:5524  self */\n      dup7\n        /* \"package/contracts/utils/BytesUtils.sol\":5526:5532  offset */\n      dup7\n        /* \"package/contracts/utils/BytesUtils.sol\":5548:5554  offset */\n      dup8\n        /* \"package/contracts/utils/BytesUtils.sol\":5534:5538  self */\n      dup10\n        /* \"package/contracts/utils/BytesUtils.sol\":5534:5545  self.length */\n      mload\n        /* \"package/contracts/utils/BytesUtils.sol\":5534:5554  self.length - offset */\n      tag_309\n      swap2\n      swap1\n      tag_199\n      jump\t// in\n    tag_309:\n        /* \"package/contracts/utils/BytesUtils.sol\":5513:5519  keccak */\n      tag_307\n        /* \"package/contracts/utils/BytesUtils.sol\":5513:5555  keccak(self, offset, self.length - offset) */\n      jump\t// in\n    tag_308:\n        /* \"package/contracts/utils/BytesUtils.sol\":5513:5613  keccak(self, offset, self.length - offset) == keccak(other, otherOffset, other.length - otherOffset) */\n      eq\n        /* \"package/contracts/utils/BytesUtils.sol\":5506:5613  return keccak(self, offset, self.length - offset) == keccak(other, otherOffset, other.length - otherOffset) */\n      swap1\n      pop\n        /* \"package/contracts/utils/BytesUtils.sol\":5359:5618  function equals(... */\n      swap5\n      swap4\n      pop\n      pop\n      pop\n      pop\n      jump\t// out\n        /* \"package/contracts/utils/BytesUtils.sol\":3065:4345  function compare(... */\n    tag_258:\n        /* \"package/contracts/utils/BytesUtils.sol\":3240:3246  int256 */\n      0x00\n        /* \"package/contracts/utils/BytesUtils.sol\":3273:3277  self */\n      dup7\n        /* \"package/contracts/utils/BytesUtils.sol\":3273:3284  self.length */\n      mload\n        /* \"package/contracts/utils/BytesUtils.sol\":3267:3270  len */\n      dup6\n        /* \"package/contracts/utils/BytesUtils.sol\":3258:3264  offset */\n      dup8\n        /* \"package/contracts/utils/BytesUtils.sol\":3258:3270  offset + len */\n      tag_311\n      swap2\n      swap1\n      tag_195\n      jump\t// in\n    tag_311:\n        /* \"package/contracts/utils/BytesUtils.sol\":3258:3284  offset + len > self.length */\n      gt\n        /* \"package/contracts/utils/BytesUtils.sol\":3254:3357  if (offset + len > self.length) {... */\n      iszero\n      tag_312\n      jumpi\n        /* \"package/contracts/utils/BytesUtils.sol\":3333:3336  len */\n      dup5\n        /* \"package/contracts/utils/BytesUtils.sol\":3324:3330  offset */\n      dup7\n        /* \"package/contracts/utils/BytesUtils.sol\":3324:3336  offset + len */\n      tag_313\n      swap2\n      swap1\n      tag_195\n      jump\t// in\n    tag_313:\n        /* \"package/contracts/utils/BytesUtils.sol\":3338:3342  self */\n      dup8\n        /* \"package/contracts/utils/BytesUtils.sol\":3338:3349  self.length */\n      mload\n        /* \"package/contracts/utils/BytesUtils.sol\":3301:3350  OffsetOutOfBoundsError(offset + len, self.length) */\n      mload(0x40)\n      0x8a3c1cfb00000000000000000000000000000000000000000000000000000000\n      dup2\n      mstore\n      0x04\n      add\n      tag_314\n      swap3\n      swap2\n      swap1\n      tag_315\n      jump\t// in\n    tag_314:\n      mload(0x40)\n      dup1\n      swap2\n      sub\n      swap1\n      revert\n        /* \"package/contracts/utils/BytesUtils.sol\":3254:3357  if (offset + len > self.length) {... */\n    tag_312:\n        /* \"package/contracts/utils/BytesUtils.sol\":3391:3396  other */\n      dup4\n        /* \"package/contracts/utils/BytesUtils.sol\":3391:3403  other.length */\n      mload\n        /* \"package/contracts/utils/BytesUtils.sol\":3380:3388  otherlen */\n      dup3\n        /* \"package/contracts/utils/BytesUtils.sol\":3366:3377  otheroffset */\n      dup5\n        /* \"package/contracts/utils/BytesUtils.sol\":3366:3388  otheroffset + otherlen */\n      tag_316\n      swap2\n      swap1\n      tag_195\n      jump\t// in\n    tag_316:\n        /* \"package/contracts/utils/BytesUtils.sol\":3366:3403  otheroffset + otherlen > other.length */\n      gt\n        /* \"package/contracts/utils/BytesUtils.sol\":3362:3487  if (otheroffset + otherlen > other.length) {... */\n      iszero\n      tag_317\n      jumpi\n        /* \"package/contracts/utils/BytesUtils.sol\":3457:3465  otherlen */\n      dup2\n        /* \"package/contracts/utils/BytesUtils.sol\":3443:3454  otheroffset */\n      dup4\n        /* \"package/contracts/utils/BytesUtils.sol\":3443:3465  otheroffset + otherlen */\n      tag_318\n      swap2\n      swap1\n      tag_195\n      jump\t// in\n    tag_318:\n        /* \"package/contracts/utils/BytesUtils.sol\":3467:3472  other */\n      dup5\n        /* \"package/contracts/utils/BytesUtils.sol\":3467:3479  other.length */\n      mload\n        /* \"package/contracts/utils/BytesUtils.sol\":3420:3480  OffsetOutOfBoundsError(otheroffset + otherlen, other.length) */\n      mload(0x40)\n      0x8a3c1cfb00000000000000000000000000000000000000000000000000000000\n      dup2\n      mstore\n      0x04\n      add\n      tag_319\n      swap3\n      swap2\n      swap1\n      tag_315\n      jump\t// in\n    tag_319:\n      mload(0x40)\n      dup1\n      swap2\n      sub\n      swap1\n      revert\n        /* \"package/contracts/utils/BytesUtils.sol\":3362:3487  if (otheroffset + otherlen > other.length) {... */\n    tag_317:\n        /* \"package/contracts/utils/BytesUtils.sol\":3493:3509  uint256 shortest */\n      0x00\n        /* \"package/contracts/utils/BytesUtils.sol\":3512:3515  len */\n      dup6\n        /* \"package/contracts/utils/BytesUtils.sol\":3493:3515  uint256 shortest = len */\n      swap1\n      pop\n        /* \"package/contracts/utils/BytesUtils.sol\":3536:3539  len */\n      dup6\n        /* \"package/contracts/utils/BytesUtils.sol\":3525:3533  otherlen */\n      dup4\n        /* \"package/contracts/utils/BytesUtils.sol\":3525:3539  otherlen < len */\n      lt\n        /* \"package/contracts/utils/BytesUtils.sol\":3521:3560  if (otherlen < len) shortest = otherlen */\n      iszero\n      tag_320\n      jumpi\n        /* \"package/contracts/utils/BytesUtils.sol\":3552:3560  otherlen */\n      dup3\n        /* \"package/contracts/utils/BytesUtils.sol\":3541:3560  shortest = otherlen */\n      swap1\n      pop\n        /* \"package/contracts/utils/BytesUtils.sol\":3521:3560  if (otherlen < len) shortest = otherlen */\n    tag_320:\n        /* \"package/contracts/utils/BytesUtils.sol\":3567:3582  uint256 selfptr */\n      0x00\n        /* \"package/contracts/utils/BytesUtils.sol\":3588:3604  uint256 otherptr */\n      dup1\n        /* \"package/contracts/utils/BytesUtils.sol\":3661:3663  32 */\n      0x20\n        /* \"package/contracts/utils/BytesUtils.sol\":3653:3659  offset */\n      dup10\n        /* \"package/contracts/utils/BytesUtils.sol\":3649:3664  add(offset, 32) */\n      add\n        /* \"package/contracts/utils/BytesUtils.sol\":3643:3647  self */\n      dup11\n        /* \"package/contracts/utils/BytesUtils.sol\":3639:3665  add(self, add(offset, 32)) */\n      add\n        /* \"package/contracts/utils/BytesUtils.sol\":3628:3665  selfptr := add(self, add(offset, 32)) */\n      swap2\n      pop\n        /* \"package/contracts/utils/BytesUtils.sol\":3712:3714  32 */\n      0x20\n        /* \"package/contracts/utils/BytesUtils.sol\":3699:3710  otheroffset */\n      dup7\n        /* \"package/contracts/utils/BytesUtils.sol\":3695:3715  add(otheroffset, 32) */\n      add\n        /* \"package/contracts/utils/BytesUtils.sol\":3688:3693  other */\n      dup8\n        /* \"package/contracts/utils/BytesUtils.sol\":3684:3716  add(other, add(otheroffset, 32)) */\n      add\n        /* \"package/contracts/utils/BytesUtils.sol\":3672:3716  otherptr := add(other, add(otheroffset, 32)) */\n      swap1\n      pop\n        /* \"package/contracts/utils/BytesUtils.sol\":3732:3743  uint256 idx */\n      0x00\n        /* \"package/contracts/utils/BytesUtils.sol\":3727:4297  for (uint256 idx = 0; idx < shortest; idx += 32) {... */\n    tag_321:\n        /* \"package/contracts/utils/BytesUtils.sol\":3755:3763  shortest */\n      dup4\n        /* \"package/contracts/utils/BytesUtils.sol\":3749:3752  idx */\n      dup2\n        /* \"package/contracts/utils/BytesUtils.sol\":3749:3763  idx < shortest */\n      lt\n        /* \"package/contracts/utils/BytesUtils.sol\":3727:4297  for (uint256 idx = 0; idx < shortest; idx += 32) {... */\n      iszero\n      tag_322\n      jumpi\n        /* \"package/contracts/utils/BytesUtils.sol\":3784:3793  uint256 a */\n      0x00\n        /* \"package/contracts/utils/BytesUtils.sol\":3801:3810  uint256 b */\n      dup1\n        /* \"package/contracts/utils/BytesUtils.sol\":3848:3855  selfptr */\n      dup5\n        /* \"package/contracts/utils/BytesUtils.sol\":3842:3856  mload(selfptr) */\n      mload\n        /* \"package/contracts/utils/BytesUtils.sol\":3837:3856  a := mload(selfptr) */\n      swap2\n      pop\n        /* \"package/contracts/utils/BytesUtils.sol\":3876:3884  otherptr */\n      dup4\n        /* \"package/contracts/utils/BytesUtils.sol\":3870:3885  mload(otherptr) */\n      mload\n        /* \"package/contracts/utils/BytesUtils.sol\":3865:3885  b := mload(otherptr) */\n      swap1\n      pop\n        /* \"package/contracts/utils/BytesUtils.sol\":3909:3910  b */\n      dup1\n        /* \"package/contracts/utils/BytesUtils.sol\":3904:3905  a */\n      dup3\n        /* \"package/contracts/utils/BytesUtils.sol\":3904:3910  a != b */\n      eq\n        /* \"package/contracts/utils/BytesUtils.sol\":3900:4248  if (a != b) {... */\n      tag_324\n      jumpi\n        /* \"package/contracts/utils/BytesUtils.sol\":3975:3987  uint256 mask */\n      0x00\n        /* \"package/contracts/utils/BytesUtils.sol\":4019:4021  32 */\n      0x20\n        /* \"package/contracts/utils/BytesUtils.sol\":4012:4015  idx */\n      dup5\n        /* \"package/contracts/utils/BytesUtils.sol\":4001:4009  shortest */\n      dup9\n        /* \"package/contracts/utils/BytesUtils.sol\":4001:4015  shortest - idx */\n      tag_325\n      swap2\n      swap1\n      tag_199\n      jump\t// in\n    tag_325:\n        /* \"package/contracts/utils/BytesUtils.sol\":4001:4021  shortest - idx >= 32 */\n      lt\n        /* \"package/contracts/utils/BytesUtils.sol\":3997:4145  if (shortest - idx >= 32) {... */\n      tag_326\n      jumpi\n        /* \"package/contracts/utils/BytesUtils.sol\":4042:4059  type(uint256).max */\n      0xffffffffffffffffffffffffffffffffffffffffffffffffffffffffffffffff\n        /* \"package/contracts/utils/BytesUtils.sol\":4035:4059  mask = type(uint256).max */\n      swap1\n      pop\n        /* \"package/contracts/utils/BytesUtils.sol\":3997:4145  if (shortest - idx >= 32) {... */\n      jump(tag_327)\n    tag_326:\n        /* \"package/contracts/utils/BytesUtils.sol\":4132:4133  1 */\n      0x01\n        /* \"package/contracts/utils/BytesUtils.sol\":4119:4127  shortest */\n      dup8\n        /* \"package/contracts/utils/BytesUtils.sol\":4114:4116  32 */\n      0x20\n        /* \"package/contracts/utils/BytesUtils.sol\":4108:4111  idx */\n      dup7\n        /* \"package/contracts/utils/BytesUtils.sol\":4108:4116  idx + 32 */\n      tag_328\n      swap2\n      swap1\n      tag_195\n      jump\t// in\n    tag_328:\n        /* \"package/contracts/utils/BytesUtils.sol\":4108:4127  idx + 32 - shortest */\n      tag_329\n      swap2\n      swap1\n      tag_199\n      jump\t// in\n    tag_329:\n        /* \"package/contracts/utils/BytesUtils.sol\":4103:4104  8 */\n      0x08\n        /* \"package/contracts/utils/BytesUtils.sol\":4103:4128  8 * (idx + 32 - shortest) */\n      tag_330\n      swap2\n      swap1\n      tag_331\n      jump\t// in\n    tag_330:\n        /* \"package/contracts/utils/BytesUtils.sol\":4097:4098  2 */\n      0x02\n        /* \"package/contracts/utils/BytesUtils.sol\":4097:4129  2 ** (8 * (idx + 32 - shortest)) */\n      tag_332\n      swap2\n      swap1\n      tag_333\n      jump\t// in\n    tag_332:\n        /* \"package/contracts/utils/BytesUtils.sol\":4097:4133  2 ** (8 * (idx + 32 - shortest)) - 1 */\n      tag_334\n      swap2\n      swap1\n      tag_199\n      jump\t// in\n    tag_334:\n        /* \"package/contracts/utils/BytesUtils.sol\":4095:4134  ~(2 ** (8 * (idx + 32 - shortest)) - 1) */\n      not\n        /* \"package/contracts/utils/BytesUtils.sol\":4088:4134  mask = ~(2 ** (8 * (idx + 32 - shortest)) - 1) */\n      swap1\n      pop\n        /* \"package/contracts/utils/BytesUtils.sol\":3997:4145  if (shortest - idx >= 32) {... */\n    tag_327:\n        /* \"package/contracts/utils/BytesUtils.sol\":4154:4165  int256 diff */\n      0x00\n        /* \"package/contracts/utils/BytesUtils.sol\":4198:4202  mask */\n      dup2\n        /* \"package/contracts/utils/BytesUtils.sol\":4194:4195  b */\n      dup4\n        /* \"package/contracts/utils/BytesUtils.sol\":4194:4202  b & mask */\n      and\n        /* \"package/contracts/utils/BytesUtils.sol\":4179:4183  mask */\n      dup3\n        /* \"package/contracts/utils/BytesUtils.sol\":4175:4176  a */\n      dup6\n        /* \"package/contracts/utils/BytesUtils.sol\":4175:4183  a & mask */\n      and\n        /* \"package/contracts/utils/BytesUtils.sol\":4168:4203  int256(a & mask) - int256(b & mask) */\n      tag_335\n      swap2\n      swap1\n      tag_336\n      jump\t// in\n    tag_335:\n        /* \"package/contracts/utils/BytesUtils.sol\":4154:4203  int256 diff = int256(a & mask) - int256(b & mask) */\n      swap1\n      pop\n        /* \"package/contracts/utils/BytesUtils.sol\":4225:4226  0 */\n      0x00\n        /* \"package/contracts/utils/BytesUtils.sol\":4217:4221  diff */\n      dup2\n        /* \"package/contracts/utils/BytesUtils.sol\":4217:4226  diff != 0 */\n      eq\n        /* \"package/contracts/utils/BytesUtils.sol\":4213:4239  if (diff != 0) return diff */\n      tag_337\n      jumpi\n        /* \"package/contracts/utils/BytesUtils.sol\":4235:4239  diff */\n      dup1\n        /* \"package/contracts/utils/BytesUtils.sol\":4228:4239  return diff */\n      swap9\n      pop\n      pop\n      pop\n      pop\n      pop\n      pop\n      pop\n      pop\n      pop\n      jump(tag_310)\n        /* \"package/contracts/utils/BytesUtils.sol\":4213:4239  if (diff != 0) return diff */\n    tag_337:\n        /* \"package/contracts/utils/BytesUtils.sol\":3912:4248  {... */\n      pop\n      pop\n        /* \"package/contracts/utils/BytesUtils.sol\":3900:4248  if (a != b) {... */\n    tag_324:\n        /* \"package/contracts/utils/BytesUtils.sol\":4266:4268  32 */\n      0x20\n        /* \"package/contracts/utils/BytesUtils.sol\":4255:4268  selfptr += 32 */\n      dup6\n      tag_338\n      swap2\n      swap1\n      tag_195\n      jump\t// in\n    tag_338:\n      swap5\n      pop\n        /* \"package/contracts/utils/BytesUtils.sol\":4288:4290  32 */\n      0x20\n        /* \"package/contracts/utils/BytesUtils.sol\":4276:4290  otherptr += 32 */\n      dup5\n      tag_339\n      swap2\n      swap1\n      tag_195\n      jump\t// in\n    tag_339:\n      swap4\n      pop\n        /* \"package/contracts/utils/BytesUtils.sol\":3776:4297  {... */\n      pop\n      pop\n        /* \"package/contracts/utils/BytesUtils.sol\":3772:3774  32 */\n      0x20\n        /* \"package/contracts/utils/BytesUtils.sol\":3765:3774  idx += 32 */\n      dup2\n      tag_340\n      swap2\n      swap1\n      tag_195\n      jump\t// in\n    tag_340:\n      swap1\n      pop\n        /* \"package/contracts/utils/BytesUtils.sol\":3727:4297  for (uint256 idx = 0; idx < shortest; idx += 32) {... */\n      jump(tag_321)\n    tag_322:\n      pop\n        /* \"package/contracts/utils/BytesUtils.sol\":4331:4339  otherlen */\n      dup5\n        /* \"package/contracts/utils/BytesUtils.sol\":4317:4320  len */\n      dup9\n        /* \"package/contracts/utils/BytesUtils.sol\":4310:4340  int256(len) - int256(otherlen) */\n      tag_341\n      swap2\n      swap1\n      tag_336\n      jump\t// in\n    tag_341:\n        /* \"package/contracts/utils/BytesUtils.sol\":4303:4340  return int256(len) - int256(otherlen) */\n      swap4\n      pop\n      pop\n      pop\n      pop\n        /* \"package/contracts/utils/BytesUtils.sol\":3065:4345  function compare(... */\n    tag_310:\n      swap7\n      swap6\n      pop\n      pop\n      pop\n      pop\n      pop\n      pop\n      jump\t// out\n        /* \"package/contracts/utils/BytesUtils.sol\":9243:9760  function memcpy(uint256 dest, uint256 src, uint256 len) private pure {... */\n    tag_289:\n        /* \"package/contracts/utils/BytesUtils.sol\":9364:9493  for (; len >= 32; len -= 32) {... */\n    tag_343:\n        /* \"package/contracts/utils/BytesUtils.sol\":9378:9380  32 */\n      0x20\n        /* \"package/contracts/utils/BytesUtils.sol\":9371:9374  len */\n      dup2\n        /* \"package/contracts/utils/BytesUtils.sol\":9371:9380  len >= 32 */\n      lt\n        /* \"package/contracts/utils/BytesUtils.sol\":9364:9493  for (; len >= 32; len -= 32) {... */\n      tag_344\n      jumpi\n        /* \"package/contracts/utils/BytesUtils.sol\":9439:9442  src */\n      dup2\n        /* \"package/contracts/utils/BytesUtils.sol\":9433:9443  mload(src) */\n      mload\n        /* \"package/contracts/utils/BytesUtils.sol\":9427:9431  dest */\n      dup4\n        /* \"package/contracts/utils/BytesUtils.sol\":9420:9444  mstore(dest, mload(src)) */\n      mstore\n        /* \"package/contracts/utils/BytesUtils.sol\":9467:9469  32 */\n      0x20\n        /* \"package/contracts/utils/BytesUtils.sol\":9459:9469  dest += 32 */\n      dup4\n      tag_346\n      swap2\n      swap1\n      tag_195\n      jump\t// in\n    tag_346:\n      swap3\n      pop\n        /* \"package/contracts/utils/BytesUtils.sol\":9484:9486  32 */\n      0x20\n        /* \"package/contracts/utils/BytesUtils.sol\":9477:9486  src += 32 */\n      dup3\n      tag_347\n      swap2\n      swap1\n      tag_195\n      jump\t// in\n    tag_347:\n      swap2\n      pop\n        /* \"package/contracts/utils/BytesUtils.sol\":9389:9391  32 */\n      0x20\n        /* \"package/contracts/utils/BytesUtils.sol\":9382:9391  len -= 32 */\n      dup2\n      tag_348\n      swap2\n      swap1\n      tag_199\n      jump\t// in\n    tag_348:\n      swap1\n      pop\n        /* \"package/contracts/utils/BytesUtils.sol\":9364:9493  for (; len >= 32; len -= 32) {... */\n      jump(tag_343)\n    tag_344:\n        /* \"package/contracts/utils/BytesUtils.sol\":9545:9557  uint256 mask */\n      0x00\n        /* \"package/contracts/utils/BytesUtils.sol\":9582:9583  1 */\n      0x01\n        /* \"package/contracts/utils/BytesUtils.sol\":9574:9577  len */\n      dup3\n        /* \"package/contracts/utils/BytesUtils.sol\":9569:9571  32 */\n      0x20\n        /* \"package/contracts/utils/BytesUtils.sol\":9569:9577  32 - len */\n      sub\n        /* \"package/contracts/utils/BytesUtils.sol\":9561:9564  256 */\n      0x0100\n        /* \"package/contracts/utils/BytesUtils.sol\":9561:9578  256 ** (32 - len) */\n      exp\n        /* \"package/contracts/utils/BytesUtils.sol\":9560:9583  (256 ** (32 - len)) - 1 */\n      sub\n        /* \"package/contracts/utils/BytesUtils.sol\":9545:9583  uint256 mask = (256 ** (32 - len)) - 1 */\n      swap1\n      pop\n        /* \"package/contracts/utils/BytesUtils.sol\":9645:9649  mask */\n      dup1\n        /* \"package/contracts/utils/BytesUtils.sol\":9641:9650  not(mask) */\n      not\n        /* \"package/contracts/utils/BytesUtils.sol\":9635:9638  src */\n      dup4\n        /* \"package/contracts/utils/BytesUtils.sol\":9629:9639  mload(src) */\n      mload\n        /* \"package/contracts/utils/BytesUtils.sol\":9625:9651  and(mload(src), not(mask)) */\n      and\n        /* \"package/contracts/utils/BytesUtils.sol\":9693:9697  mask */\n      dup2\n        /* \"package/contracts/utils/BytesUtils.sol\":9686:9690  dest */\n      dup6\n        /* \"package/contracts/utils/BytesUtils.sol\":9680:9691  mload(dest) */\n      mload\n        /* \"package/contracts/utils/BytesUtils.sol\":9676:9698  and(mload(dest), mask) */\n      and\n        /* \"package/contracts/utils/BytesUtils.sol\":9733:9740  srcpart */\n      dup2\n        /* \"package/contracts/utils/BytesUtils.sol\":9723:9731  destpart */\n      dup2\n        /* \"package/contracts/utils/BytesUtils.sol\":9720:9741  or(destpart, srcpart) */\n      or\n        /* \"package/contracts/utils/BytesUtils.sol\":9714:9718  dest */\n      dup7\n        /* \"package/contracts/utils/BytesUtils.sol\":9707:9742  mstore(dest, or(destpart, srcpart)) */\n      mstore\n        /* \"package/contracts/utils/BytesUtils.sol\":9600:9750  {... */\n      pop\n      pop\n      pop\n        /* \"package/contracts/utils/BytesUtils.sol\":9243:9760  function memcpy(uint256 dest, uint256 src, uint256 len) private pure {... */\n      pop\n      pop\n      pop\n      jump\t// out\n        /* \"package/contracts/utils/BytesUtils.sol\":4751:4987  function equals(... */\n    tag_299:\n        /* \"package/contracts/utils/BytesUtils.sol\":4903:4907  bool */\n      0x00\n        /* \"package/contracts/utils/BytesUtils.sol\":4951:4982  keccak(other, otherOffset, len) */\n      tag_350\n        /* \"package/contracts/utils/BytesUtils.sol\":4958:4963  other */\n      dup5\n        /* \"package/contracts/utils/BytesUtils.sol\":4965:4976  otherOffset */\n      dup5\n        /* \"package/contracts/utils/BytesUtils.sol\":4978:4981  len */\n      dup5\n        /* \"package/contracts/utils/BytesUtils.sol\":4951:4957  keccak */\n      tag_307\n        /* \"package/contracts/utils/BytesUtils.sol\":4951:4982  keccak(other, otherOffset, len) */\n      jump\t// in\n    tag_350:\n        /* \"package/contracts/utils/BytesUtils.sol\":4922:4947  keccak(self, offset, len) */\n      tag_351\n        /* \"package/contracts/utils/BytesUtils.sol\":4929:4933  self */\n      dup8\n        /* \"package/contracts/utils/BytesUtils.sol\":4935:4941  offset */\n      dup8\n        /* \"package/contracts/utils/BytesUtils.sol\":4943:4946  len */\n      dup6\n        /* \"package/contracts/utils/BytesUtils.sol\":4922:4928  keccak */\n      tag_307\n        /* \"package/contracts/utils/BytesUtils.sol\":4922:4947  keccak(self, offset, len) */\n      jump\t// in\n    tag_351:\n        /* \"package/contracts/utils/BytesUtils.sol\":4922:4982  keccak(self, offset, len) == keccak(other, otherOffset, len) */\n      eq\n        /* \"package/contracts/utils/BytesUtils.sol\":4915:4982  return keccak(self, offset, len) == keccak(other, otherOffset, len) */\n      swap1\n      pop\n        /* \"package/contracts/utils/BytesUtils.sol\":4751:4987  function equals(... */\n      swap6\n      swap5\n      pop\n      pop\n      pop\n      pop\n      pop\n      jump\t// out\n        /* \"package/contracts/utils/BytesUtils.sol\":391:615  function keccak(bytes memory self, uint256 offset, uint256 len) internal pure returns (bytes32 ret) {... */\n    tag_307:\n        /* \"package/contracts/utils/BytesUtils.sol\":478:489  bytes32 ret */\n      0x00\n        /* \"package/contracts/utils/BytesUtils.sol\":521:525  self */\n      dup4\n        /* \"package/contracts/utils/BytesUtils.sol\":521:532  self.length */\n      mload\n        /* \"package/contracts/utils/BytesUtils.sol\":514:517  len */\n      dup3\n        /* \"package/contracts/utils/BytesUtils.sol\":505:511  offset */\n      dup5\n        /* \"package/contracts/utils/BytesUtils.sol\":505:517  offset + len */\n      tag_353\n      swap2\n      swap1\n      tag_195\n      jump\t// in\n    tag_353:\n        /* \"package/contracts/utils/BytesUtils.sol\":505:532  offset + len <= self.length */\n      gt\n      iszero\n        /* \"package/contracts/utils/BytesUtils.sol\":497:533  require(offset + len <= self.length) */\n      tag_354\n      jumpi\n      0x00\n      dup1\n      revert\n    tag_354:\n        /* \"package/contracts/utils/BytesUtils.sol\":601:604  len */\n      dup2\n        /* \"package/contracts/utils/BytesUtils.sol\":592:598  offset */\n      dup4\n        /* \"package/contracts/utils/BytesUtils.sol\":587:589  32 */\n      0x20\n        /* \"package/contracts/utils/BytesUtils.sol\":581:585  self */\n      dup7\n        /* \"package/contracts/utils/BytesUtils.sol\":577:590  add(self, 32) */\n      add\n        /* \"package/contracts/utils/BytesUtils.sol\":573:599  add(add(self, 32), offset) */\n      add\n        /* \"package/contracts/utils/BytesUtils.sol\":563:605  keccak256(add(add(self, 32), offset), len) */\n      keccak256\n        /* \"package/contracts/utils/BytesUtils.sol\":556:605  ret := keccak256(add(add(self, 32), offset), len) */\n      swap1\n      pop\n        /* \"package/contracts/utils/BytesUtils.sol\":391:615  function keccak(bytes memory self, uint256 offset, uint256 len) internal pure returns (bytes32 ret) {... */\n      swap4\n      swap3\n      pop\n      pop\n      pop\n      jump\t// out\n    tag_201:\n      mload(0x40)\n      dup1\n      0xe0\n      add\n      0x40\n      mstore\n      dup1\n      0x60\n      dup2\n      mstore\n      0x20\n      add\n      0x00\n      dup2\n      mstore\n      0x20\n      add\n      and(0xffff, 0x00)\n      dup2\n      mstore\n      0x20\n      add\n      and(0xffff, 0x00)\n      dup2\n      mstore\n      0x20\n      add\n      and(0xffffffff, 0x00)\n      dup2\n      mstore\n      0x20\n      add\n      0x00\n      dup2\n      mstore\n      0x20\n      add\n      0x00\n      dup2\n      mstore\n      pop\n      swap1\n      jump\t// out\n        /* \"#utility.yul\":7:176   */\n    tag_355:\n        /* \"#utility.yul\":91:102   */\n      0x00\n        /* \"#utility.yul\":125:131   */\n      dup3\n        /* \"#utility.yul\":120:123   */\n      dup3\n        /* \"#utility.yul\":113:132   */\n      mstore\n        /* \"#utility.yul\":165:169   */\n      0x20\n        /* \"#utility.yul\":160:163   */\n      dup3\n        /* \"#utility.yul\":156:170   */\n      add\n        /* \"#utility.yul\":141:170   */\n      swap1\n      pop\n        /* \"#utility.yul\":7:176   */\n      swap3\n      swap2\n      pop\n      pop\n      jump\t// out\n        /* \"#utility.yul\":182:352   */\n    tag_356:\n        /* \"#utility.yul\":322:344   */\n      0x6e616d654c656e67746828272e2729203d3d2031000000000000000000000000\n        /* \"#utility.yul\":318:319   */\n      0x00\n        /* \"#utility.yul\":310:316   */\n      dup3\n        /* \"#utility.yul\":306:320   */\n      add\n        /* \"#utility.yul\":299:345   */\n      mstore\n        /* \"#utility.yul\":182:352   */\n      pop\n      jump\t// out\n        /* \"#utility.yul\":358:724   */\n    tag_357:\n        /* \"#utility.yul\":500:503   */\n      0x00\n        /* \"#utility.yul\":521:588   */\n      tag_435\n        /* \"#utility.yul\":585:587   */\n      0x14\n        /* \"#utility.yul\":580:583   */\n      dup4\n        /* \"#utility.yul\":521:588   */\n      tag_355\n      jump\t// in\n    tag_435:\n        /* \"#utility.yul\":514:588   */\n      swap2\n      pop\n        /* \"#utility.yul\":597:690   */\n      tag_436\n        /* \"#utility.yul\":686:689   */\n      dup3\n        /* \"#utility.yul\":597:690   */\n      tag_356\n      jump\t// in\n    tag_436:\n        /* \"#utility.yul\":715:717   */\n      0x20\n        /* \"#utility.yul\":710:713   */\n      dup3\n        /* \"#utility.yul\":706:718   */\n      add\n        /* \"#utility.yul\":699:718   */\n      swap1\n      pop\n        /* \"#utility.yul\":358:724   */\n      swap2\n      swap1\n      pop\n      jump\t// out\n        /* \"#utility.yul\":730:1149   */\n    tag_26:\n        /* \"#utility.yul\":896:900   */\n      0x00\n        /* \"#utility.yul\":934:936   */\n      0x20\n        /* \"#utility.yul\":923:932   */\n      dup3\n        /* \"#utility.yul\":919:937   */\n      add\n        /* \"#utility.yul\":911:937   */\n      swap1\n      pop\n        /* \"#utility.yul\":983:992   */\n      dup2\n        /* \"#utility.yul\":977:981   */\n      dup2\n        /* \"#utility.yul\":973:993   */\n      sub\n        /* \"#utility.yul\":969:970   */\n      0x00\n        /* \"#utility.yul\":958:967   */\n      dup4\n        /* \"#utility.yul\":954:971   */\n      add\n        /* \"#utility.yul\":947:994   */\n      mstore\n        /* \"#utility.yul\":1011:1142   */\n      tag_438\n        /* \"#utility.yul\":1137:1141   */\n      dup2\n        /* \"#utility.yul\":1011:1142   */\n      tag_357\n      jump\t// in\n    tag_438:\n        /* \"#utility.yul\":1003:1142   */\n      swap1\n      pop\n        /* \"#utility.yul\":730:1149   */\n      swap2\n      swap1\n      pop\n      jump\t// out\n        /* \"#utility.yul\":1155:1328   */\n    tag_358:\n        /* \"#utility.yul\":1295:1320   */\n      0x6e616d654c656e67746828276162632e2729203d3d2035000000000000000000\n        /* \"#utility.yul\":1291:1292   */\n      0x00\n        /* \"#utility.yul\":1283:1289   */\n      dup3\n        /* \"#utility.yul\":1279:1293   */\n      add\n        /* \"#utility.yul\":1272:1321   */\n      mstore\n        /* \"#utility.yul\":1155:1328   */\n      pop\n      jump\t// out\n        /* \"#utility.yul\":1334:1700   */\n    tag_359:\n        /* \"#utility.yul\":1476:1479   */\n      0x00\n        /* \"#utility.yul\":1497:1564   */\n      tag_441\n        /* \"#utility.yul\":1561:1563   */\n      0x17\n        /* \"#utility.yul\":1556:1559   */\n      dup4\n        /* \"#utility.yul\":1497:1564   */\n      tag_355\n      jump\t// in\n    tag_441:\n        /* \"#utility.yul\":1490:1564   */\n      swap2\n      pop\n        /* \"#utility.yul\":1573:1666   */\n      tag_442\n        /* \"#utility.yul\":1662:1665   */\n      dup3\n        /* \"#utility.yul\":1573:1666   */\n      tag_358\n      jump\t// in\n    tag_442:\n        /* \"#utility.yul\":1691:1693   */\n      0x20\n        /* \"#utility.yul\":1686:1689   */\n      dup3\n        /* \"#utility.yul\":1682:1694   */\n      add\n        /* \"#utility.yul\":1675:1694   */\n      swap1\n      pop\n        /* \"#utility.yul\":1334:1700   */\n      swap2\n      swap1\n      pop\n      jump\t// out\n        /* \"#utility.yul\":1706:2125   */\n    tag_33:\n        /* \"#utility.yul\":1872:1876   */\n      0x00\n        /* \"#utility.yul\":1910:1912   */\n      0x20\n        /* \"#utility.yul\":1899:1908   */\n      dup3\n        /* \"#utility.yul\":1895:1913   */\n      add\n        /* \"#utility.yul\":1887:1913   */\n      swap1\n      pop\n        /* \"#utility.yul\":1959:1968   */\n      dup2\n        /* \"#utility.yul\":1953:1957   */\n      dup2\n        /* \"#utility.yul\":1949:1969   */\n      sub\n        /* \"#utility.yul\":1945:1946   */\n      0x00\n        /* \"#utility.yul\":1934:1943   */\n      dup4\n        /* \"#utility.yul\":1930:1947   */\n      add\n        /* \"#utility.yul\":1923:1970   */\n      mstore\n        /* \"#utility.yul\":1987:2118   */\n      tag_444\n        /* \"#utility.yul\":2113:2117   */\n      dup2\n        /* \"#utility.yul\":1987:2118   */\n      tag_359\n      jump\t// in\n    tag_444:\n        /* \"#utility.yul\":1979:2118   */\n      swap1\n      pop\n        /* \"#utility.yul\":1706:2125   */\n      swap2\n      swap1\n      pop\n      jump\t// out\n        /* \"#utility.yul\":2131:2293   */\n    tag_360:\n        /* \"#utility.yul\":2271:2285   */\n      0x54797065206d6174636865730000000000000000000000000000000000000000\n        /* \"#utility.yul\":2267:2268   */\n      0x00\n        /* \"#utility.yul\":2259:2265   */\n      dup3\n        /* \"#utility.yul\":2255:2269   */\n      add\n        /* \"#utility.yul\":2248:2286   */\n      mstore\n        /* \"#utility.yul\":2131:2293   */\n      pop\n      jump\t// out\n        /* \"#utility.yul\":2299:2665   */\n    tag_361:\n        /* \"#utility.yul\":2441:2444   */\n      0x00\n        /* \"#utility.yul\":2462:2529   */\n      tag_447\n        /* \"#utility.yul\":2526:2528   */\n      0x0c\n        /* \"#utility.yul\":2521:2524   */\n      dup4\n        /* \"#utility.yul\":2462:2529   */\n      tag_355\n      jump\t// in\n    tag_447:\n        /* \"#utility.yul\":2455:2529   */\n      swap2\n      pop\n        /* \"#utility.yul\":2538:2631   */\n      tag_448\n        /* \"#utility.yul\":2627:2630   */\n      dup3\n        /* \"#utility.yul\":2538:2631   */\n      tag_360\n      jump\t// in\n    tag_448:\n        /* \"#utility.yul\":2656:2658   */\n      0x20\n        /* \"#utility.yul\":2651:2654   */\n      dup3\n        /* \"#utility.yul\":2647:2659   */\n      add\n        /* \"#utility.yul\":2640:2659   */\n      swap1\n      pop\n        /* \"#utility.yul\":2299:2665   */\n      swap2\n      swap1\n      pop\n      jump\t// out\n        /* \"#utility.yul\":2671:3090   */\n    tag_44:\n        /* \"#utility.yul\":2837:2841   */\n      0x00\n        /* \"#utility.yul\":2875:2877   */\n      0x20\n        /* \"#utility.yul\":2864:2873   */\n      dup3\n        /* \"#utility.yul\":2860:2878   */\n      add\n        /* \"#utility.yul\":2852:2878   */\n      swap1\n      pop\n        /* \"#utility.yul\":2924:2933   */\n      dup2\n        /* \"#utility.yul\":2918:2922   */\n      dup2\n        /* \"#utility.yul\":2914:2934   */\n      sub\n        /* \"#utility.yul\":2910:2911   */\n      0x00\n        /* \"#utility.yul\":2899:2908   */\n      dup4\n        /* \"#utility.yul\":2895:2912   */\n      add\n        /* \"#utility.yul\":2888:2935   */\n      mstore\n        /* \"#utility.yul\":2952:3083   */\n      tag_450\n        /* \"#utility.yul\":3078:3082   */\n      dup2\n        /* \"#utility.yul\":2952:3083   */\n      tag_361\n      jump\t// in\n    tag_450:\n        /* \"#utility.yul\":2944:3083   */\n      swap1\n      pop\n        /* \"#utility.yul\":2671:3090   */\n      swap2\n      swap1\n      pop\n      jump\t// out\n        /* \"#utility.yul\":3096:3259   */\n    tag_362:\n        /* \"#utility.yul\":3236:3251   */\n      0x436c617373206d61746368657300000000000000000000000000000000000000\n        /* \"#utility.yul\":3232:3233   */\n      0x00\n        /* \"#utility.yul\":3224:3230   */\n      dup3\n        /* \"#utility.yul\":3220:3234   */\n      add\n        /* \"#utility.yul\":3213:3252   */\n      mstore\n        /* \"#utility.yul\":3096:3259   */\n      pop\n      jump\t// out\n        /* \"#utility.yul\":3265:3631   */\n    tag_363:\n        /* \"#utility.yul\":3407:3410   */\n      0x00\n        /* \"#utility.yul\":3428:3495   */\n      tag_453\n        /* \"#utility.yul\":3492:3494   */\n      0x0d\n        /* \"#utility.yul\":3487:3490   */\n      dup4\n        /* \"#utility.yul\":3428:3495   */\n      tag_355\n      jump\t// in\n    tag_453:\n        /* \"#utility.yul\":3421:3495   */\n      swap2\n      pop\n        /* \"#utility.yul\":3504:3597   */\n      tag_454\n        /* \"#utility.yul\":3593:3596   */\n      dup3\n        /* \"#utility.yul\":3504:3597   */\n      tag_362\n      jump\t// in\n    tag_454:\n        /* \"#utility.yul\":3622:3624   */\n      0x20\n        /* \"#utility.yul\":3617:3620   */\n      dup3\n        /* \"#utility.yul\":3613:3625   */\n      add\n        /* \"#utility.yul\":3606:3625   */\n      swap1\n      pop\n        /* \"#utility.yul\":3265:3631   */\n      swap2\n      swap1\n      pop\n      jump\t// out\n        /* \"#utility.yul\":3637:4056   */\n    tag_47:\n        /* \"#utility.yul\":3803:3807   */\n      0x00\n        /* \"#utility.yul\":3841:3843   */\n      0x20\n        /* \"#utility.yul\":3830:3839   */\n      dup3\n        /* \"#utility.yul\":3826:3844   */\n      add\n        /* \"#utility.yul\":3818:3844   */\n      swap1\n      pop\n        /* \"#utility.yul\":3890:3899   */\n      dup2\n        /* \"#utility.yul\":3884:3888   */\n      dup2\n        /* \"#utility.yul\":3880:3900   */\n      sub\n        /* \"#utility.yul\":3876:3877   */\n      0x00\n        /* \"#utility.yul\":3865:3874   */\n      dup4\n        /* \"#utility.yul\":3861:3878   */\n      add\n        /* \"#utility.yul\":3854:3901   */\n      mstore\n        /* \"#utility.yul\":3918:4049   */\n      tag_456\n        /* \"#utility.yul\":4044:4048   */\n      dup2\n        /* \"#utility.yul\":3918:4049   */\n      tag_363\n      jump\t// in\n    tag_456:\n        /* \"#utility.yul\":3910:4049   */\n      swap1\n      pop\n        /* \"#utility.yul\":3637:4056   */\n      swap2\n      swap1\n      pop\n      jump\t// out\n        /* \"#utility.yul\":4062:4223   */\n    tag_364:\n        /* \"#utility.yul\":4202:4215   */\n      0x54544c206d617463686573000000000000000000000000000000000000000000\n        /* \"#utility.yul\":4198:4199   */\n      0x00\n        /* \"#utility.yul\":4190:4196   */\n      dup3\n        /* \"#utility.yul\":4186:4200   */\n      add\n        /* \"#utility.yul\":4179:4216   */\n      mstore\n        /* \"#utility.yul\":4062:4223   */\n      pop\n      jump\t// out\n        /* \"#utility.yul\":4229:4595   */\n    tag_365:\n        /* \"#utility.yul\":4371:4374   */\n      0x00\n        /* \"#utility.yul\":4392:4459   */\n      tag_459\n        /* \"#utility.yul\":4456:4458   */\n      0x0b\n        /* \"#utility.yul\":4451:4454   */\n      dup4\n        /* \"#utility.yul\":4392:4459   */\n      tag_355\n      jump\t// in\n    tag_459:\n        /* \"#utility.yul\":4385:4459   */\n      swap2\n      pop\n        /* \"#utility.yul\":4468:4561   */\n      tag_460\n        /* \"#utility.yul\":4557:4560   */\n      dup3\n        /* \"#utility.yul\":4468:4561   */\n      tag_364\n      jump\t// in\n    tag_460:\n        /* \"#utility.yul\":4586:4588   */\n      0x20\n        /* \"#utility.yul\":4581:4584   */\n      dup3\n        /* \"#utility.yul\":4577:4589   */\n      add\n        /* \"#utility.yul\":4570:4589   */\n      swap1\n      pop\n        /* \"#utility.yul\":4229:4595   */\n      swap2\n      swap1\n      pop\n      jump\t// out\n        /* \"#utility.yul\":4601:5020   */\n    tag_50:\n        /* \"#utility.yul\":4767:4771   */\n      0x00\n        /* \"#utility.yul\":4805:4807   */\n      0x20\n        /* \"#utility.yul\":4794:4803   */\n      dup3\n        /* \"#utility.yul\":4790:4808   */\n      add\n        /* \"#utility.yul\":4782:4808   */\n      swap1\n      pop\n        /* \"#utility.yul\":4854:4863   */\n      dup2\n        /* \"#utility.yul\":4848:4852   */\n      dup2\n        /* \"#utility.yul\":4844:4864   */\n      sub\n        /* \"#utility.yul\":4840:4841   */\n      0x00\n        /* \"#utility.yul\":4829:4838   */\n      dup4\n        /* \"#utility.yul\":4825:4842   */\n      add\n        /* \"#utility.yul\":4818:4865   */\n      mstore\n        /* \"#utility.yul\":4882:5013   */\n      tag_462\n        /* \"#utility.yul\":5008:5012   */\n      dup2\n        /* \"#utility.yul\":4882:5013   */\n      tag_365\n      jump\t// in\n    tag_462:\n        /* \"#utility.yul\":4874:5013   */\n      swap1\n      pop\n        /* \"#utility.yul\":4601:5020   */\n      swap2\n      swap1\n      pop\n      jump\t// out\n        /* \"#utility.yul\":5026:5206   */\n    tag_53:\n        /* \"#utility.yul\":5074:5151   */\n      0x4e487b7100000000000000000000000000000000000000000000000000000000\n        /* \"#utility.yul\":5071:5072   */\n      0x00\n        /* \"#utility.yul\":5064:5152   */\n      mstore\n        /* \"#utility.yul\":5171:5175   */\n      0x32\n        /* \"#utility.yul\":5168:5169   */\n      0x04\n        /* \"#utility.yul\":5161:5176   */\n      mstore\n        /* \"#utility.yul\":5195:5199   */\n      0x24\n        /* \"#utility.yul\":5192:5193   */\n      0x00\n        /* \"#utility.yul\":5185:5200   */\n      revert\n        /* \"#utility.yul\":5212:5374   */\n    tag_366:\n        /* \"#utility.yul\":5352:5366   */\n      0x4e616d65206d6174636865730000000000000000000000000000000000000000\n        /* \"#utility.yul\":5348:5349   */\n      0x00\n        /* \"#utility.yul\":5340:5346   */\n      dup3\n        /* \"#utility.yul\":5336:5350   */\n      add\n        /* \"#utility.yul\":5329:5367   */\n      mstore\n        /* \"#utility.yul\":5212:5374   */\n      pop\n      jump\t// out\n        /* \"#utility.yul\":5380:5746   */\n    tag_367:\n        /* \"#utility.yul\":5522:5525   */\n      0x00\n        /* \"#utility.yul\":5543:5610   */\n      tag_466\n        /* \"#utility.yul\":5607:5609   */\n      0x0c\n        /* \"#utility.yul\":5602:5605   */\n      dup4\n        /* \"#utility.yul\":5543:5610   */\n      tag_355\n      jump\t// in\n    tag_466:\n        /* \"#utility.yul\":5536:5610   */\n      swap2\n      pop\n        /* \"#utility.yul\":5619:5712   */\n      tag_467\n        /* \"#utility.yul\":5708:5711   */\n      dup3\n        /* \"#utility.yul\":5619:5712   */\n      tag_366\n      jump\t// in\n    tag_467:\n        /* \"#utility.yul\":5737:5739   */\n      0x20\n        /* \"#utility.yul\":5732:5735   */\n      dup3\n        /* \"#utility.yul\":5728:5740   */\n      add\n        /* \"#utility.yul\":5721:5740   */\n      swap1\n      pop\n        /* \"#utility.yul\":5380:5746   */\n      swap2\n      swap1\n      pop\n      jump\t// out\n        /* \"#utility.yul\":5752:6171   */\n    tag_58:\n        /* \"#utility.yul\":5918:5922   */\n      0x00\n        /* \"#utility.yul\":5956:5958   */\n      0x20\n        /* \"#utility.yul\":5945:5954   */\n      dup3\n        /* \"#utility.yul\":5941:5959   */\n      add\n        /* \"#utility.yul\":5933:5959   */\n      swap1\n      pop\n        /* \"#utility.yul\":6005:6014   */\n      dup2\n        /* \"#utility.yul\":5999:6003   */\n      dup2\n        /* \"#utility.yul\":5995:6015   */\n      sub\n        /* \"#utility.yul\":5991:5992   */\n      0x00\n        /* \"#utility.yul\":5980:5989   */\n      dup4\n        /* \"#utility.yul\":5976:5993   */\n      add\n        /* \"#utility.yul\":5969:6016   */\n      mstore\n        /* \"#utility.yul\":6033:6164   */\n      tag_469\n        /* \"#utility.yul\":6159:6163   */\n      dup2\n        /* \"#utility.yul\":6033:6164   */\n      tag_367\n      jump\t// in\n    tag_469:\n        /* \"#utility.yul\":6025:6164   */\n      swap1\n      pop\n        /* \"#utility.yul\":5752:6171   */\n      swap2\n      swap1\n      pop\n      jump\t// out\n        /* \"#utility.yul\":6177:6340   */\n    tag_368:\n        /* \"#utility.yul\":6317:6332   */\n      0x5264617461206d61746368657300000000000000000000000000000000000000\n        /* \"#utility.yul\":6313:6314   */\n      0x00\n        /* \"#utility.yul\":6305:6311   */\n      dup3\n        /* \"#utility.yul\":6301:6315   */\n      add\n        /* \"#utility.yul\":6294:6333   */\n      mstore\n        /* \"#utility.yul\":6177:6340   */\n      pop\n      jump\t// out\n        /* \"#utility.yul\":6346:6712   */\n    tag_369:\n        /* \"#utility.yul\":6488:6491   */\n      0x00\n        /* \"#utility.yul\":6509:6576   */\n      tag_472\n        /* \"#utility.yul\":6573:6575   */\n      0x0d\n        /* \"#utility.yul\":6568:6571   */\n      dup4\n        /* \"#utility.yul\":6509:6576   */\n      tag_355\n      jump\t// in\n    tag_472:\n        /* \"#utility.yul\":6502:6576   */\n      swap2\n      pop\n        /* \"#utility.yul\":6585:6678   */\n      tag_473\n        /* \"#utility.yul\":6674:6677   */\n      dup3\n        /* \"#utility.yul\":6585:6678   */\n      tag_368\n      jump\t// in\n    tag_473:\n        /* \"#utility.yul\":6703:6705   */\n      0x20\n        /* \"#utility.yul\":6698:6701   */\n      dup3\n        /* \"#utility.yul\":6694:6706   */\n      add\n        /* \"#utility.yul\":6687:6706   */\n      swap1\n      pop\n        /* \"#utility.yul\":6346:6712   */\n      swap2\n      swap1\n      pop\n      jump\t// out\n        /* \"#utility.yul\":6718:7137   */\n    tag_65:\n        /* \"#utility.yul\":6884:6888   */\n      0x00\n        /* \"#utility.yul\":6922:6924   */\n      0x20\n        /* \"#utility.yul\":6911:6920   */\n      dup3\n        /* \"#utility.yul\":6907:6925   */\n      add\n        /* \"#utility.yul\":6899:6925   */\n      swap1\n      pop\n        /* \"#utility.yul\":6971:6980   */\n      dup2\n        /* \"#utility.yul\":6965:6969   */\n      dup2\n        /* \"#utility.yul\":6961:6981   */\n      sub\n        /* \"#utility.yul\":6957:6958   */\n      0x00\n        /* \"#utility.yul\":6946:6955   */\n      dup4\n        /* \"#utility.yul\":6942:6959   */\n      add\n        /* \"#utility.yul\":6935:6982   */\n      mstore\n        /* \"#utility.yul\":6999:7130   */\n      tag_475\n        /* \"#utility.yul\":7125:7129   */\n      dup2\n        /* \"#utility.yul\":6999:7130   */\n      tag_369\n      jump\t// in\n    tag_475:\n        /* \"#utility.yul\":6991:7130   */\n      swap1\n      pop\n        /* \"#utility.yul\":6718:7137   */\n      swap2\n      swap1\n      pop\n      jump\t// out\n        /* \"#utility.yul\":7143:7323   */\n    tag_370:\n        /* \"#utility.yul\":7191:7268   */\n      0x4e487b7100000000000000000000000000000000000000000000000000000000\n        /* \"#utility.yul\":7188:7189   */\n      0x00\n        /* \"#utility.yul\":7181:7269   */\n      mstore\n        /* \"#utility.yul\":7288:7292   */\n      0x11\n        /* \"#utility.yul\":7285:7286   */\n      0x04\n        /* \"#utility.yul\":7278:7293   */\n      mstore\n        /* \"#utility.yul\":7312:7316   */\n      0x24\n        /* \"#utility.yul\":7309:7310   */\n      0x00\n        /* \"#utility.yul\":7302:7317   */\n      revert\n        /* \"#utility.yul\":7329:7406   */\n    tag_371:\n        /* \"#utility.yul\":7366:7373   */\n      0x00\n        /* \"#utility.yul\":7395:7400   */\n      dup2\n        /* \"#utility.yul\":7384:7400   */\n      swap1\n      pop\n        /* \"#utility.yul\":7329:7406   */\n      swap2\n      swap1\n      pop\n      jump\t// out\n        /* \"#utility.yul\":7412:7645   */\n    tag_67:\n        /* \"#utility.yul\":7451:7454   */\n      0x00\n        /* \"#utility.yul\":7474:7498   */\n      tag_479\n        /* \"#utility.yul\":7492:7497   */\n      dup3\n        /* \"#utility.yul\":7474:7498   */\n      tag_371\n      jump\t// in\n    tag_479:\n        /* \"#utility.yul\":7465:7498   */\n      swap2\n      pop\n        /* \"#utility.yul\":7520:7586   */\n      0xffffffffffffffffffffffffffffffffffffffffffffffffffffffffffffffff\n        /* \"#utility.yul\":7513:7518   */\n      dup3\n        /* \"#utility.yul\":7510:7587   */\n      sub\n        /* \"#utility.yul\":7507:7610   */\n      tag_480\n      jumpi\n        /* \"#utility.yul\":7590:7608   */\n      tag_481\n      tag_370\n      jump\t// in\n    tag_481:\n        /* \"#utility.yul\":7507:7610   */\n    tag_480:\n        /* \"#utility.yul\":7637:7638   */\n      0x01\n        /* \"#utility.yul\":7630:7635   */\n      dup3\n        /* \"#utility.yul\":7626:7639   */\n      add\n        /* \"#utility.yul\":7619:7639   */\n      swap1\n      pop\n        /* \"#utility.yul\":7412:7645   */\n      swap2\n      swap1\n      pop\n      jump\t// out\n        /* \"#utility.yul\":7651:7819   */\n    tag_372:\n        /* \"#utility.yul\":7791:7811   */\n      0x45787065637465642032207265636f7264730000000000000000000000000000\n        /* \"#utility.yul\":7787:7788   */\n      0x00\n        /* \"#utility.yul\":7779:7785   */\n      dup3\n        /* \"#utility.yul\":7775:7789   */\n      add\n        /* \"#utility.yul\":7768:7812   */\n      mstore\n        /* \"#utility.yul\":7651:7819   */\n      pop\n      jump\t// out\n        /* \"#utility.yul\":7825:8191   */\n    tag_373:\n        /* \"#utility.yul\":7967:7970   */\n      0x00\n        /* \"#utility.yul\":7988:8055   */\n      tag_484\n        /* \"#utility.yul\":8052:8054   */\n      0x12\n        /* \"#utility.yul\":8047:8050   */\n      dup4\n        /* \"#utility.yul\":7988:8055   */\n      tag_355\n      jump\t// in\n    tag_484:\n        /* \"#utility.yul\":7981:8055   */\n      swap2\n      pop\n        /* \"#utility.yul\":8064:8157   */\n      tag_485\n        /* \"#utility.yul\":8153:8156   */\n      dup3\n        /* \"#utility.yul\":8064:8157   */\n      tag_372\n      jump\t// in\n    tag_485:\n        /* \"#utility.yul\":8182:8184   */\n      0x20\n        /* \"#utility.yul\":8177:8180   */\n      dup3\n        /* \"#utility.yul\":8173:8185   */\n      add\n        /* \"#utility.yul\":8166:8185   */\n      swap1\n      pop\n        /* \"#utility.yul\":7825:8191   */\n      swap2\n      swap1\n      pop\n      jump\t// out\n        /* \"#utility.yul\":8197:8616   */\n    tag_72:\n        /* \"#utility.yul\":8363:8367   */\n      0x00\n        /* \"#utility.yul\":8401:8403   */\n      0x20\n        /* \"#utility.yul\":8390:8399   */\n      dup3\n        /* \"#utility.yul\":8386:8404   */\n      add\n        /* \"#utility.yul\":8378:8404   */\n      swap1\n      pop\n        /* \"#utility.yul\":8450:8459   */\n      dup2\n        /* \"#utility.yul\":8444:8448   */\n      dup2\n        /* \"#utility.yul\":8440:8460   */\n      sub\n        /* \"#utility.yul\":8436:8437   */\n      0x00\n        /* \"#utility.yul\":8425:8434   */\n      dup4\n        /* \"#utility.yul\":8421:8438   */\n      add\n        /* \"#utility.yul\":8414:8461   */\n      mstore\n        /* \"#utility.yul\":8478:8609   */\n      tag_487\n        /* \"#utility.yul\":8604:8608   */\n      dup2\n        /* \"#utility.yul\":8478:8609   */\n      tag_373\n      jump\t// in\n    tag_487:\n        /* \"#utility.yul\":8470:8609   */\n      swap1\n      pop\n        /* \"#utility.yul\":8197:8616   */\n      swap2\n      swap1\n      pop\n      jump\t// out\n        /* \"#utility.yul\":8622:8844   */\n    tag_374:\n        /* \"#utility.yul\":8762:8796   */\n      0x6c6162656c206c656e677468732061726520636f72726563746c792063686563\n        /* \"#utility.yul\":8758:8759   */\n      0x00\n        /* \"#utility.yul\":8750:8756   */\n      dup3\n        /* \"#utility.yul\":8746:8760   */\n      add\n        /* \"#utility.yul\":8739:8797   */\n      mstore\n        /* \"#utility.yul\":8831:8836   */\n      0x6b65640000000000000000000000000000000000000000000000000000000000\n        /* \"#utility.yul\":8826:8828   */\n      0x20\n        /* \"#utility.yul\":8818:8824   */\n      dup3\n        /* \"#utility.yul\":8814:8829   */\n      add\n        /* \"#utility.yul\":8807:8837   */\n      mstore\n        /* \"#utility.yul\":8622:8844   */\n      pop\n      jump\t// out\n        /* \"#utility.yul\":8850:9216   */\n    tag_375:\n        /* \"#utility.yul\":8992:8995   */\n      0x00\n        /* \"#utility.yul\":9013:9080   */\n      tag_490\n        /* \"#utility.yul\":9077:9079   */\n      0x23\n        /* \"#utility.yul\":9072:9075   */\n      dup4\n        /* \"#utility.yul\":9013:9080   */\n      tag_355\n      jump\t// in\n    tag_490:\n        /* \"#utility.yul\":9006:9080   */\n      swap2\n      pop\n        /* \"#utility.yul\":9089:9182   */\n      tag_491\n        /* \"#utility.yul\":9178:9181   */\n      dup3\n        /* \"#utility.yul\":9089:9182   */\n      tag_374\n      jump\t// in\n    tag_491:\n        /* \"#utility.yul\":9207:9209   */\n      0x40\n        /* \"#utility.yul\":9202:9205   */\n      dup3\n        /* \"#utility.yul\":9198:9210   */\n      add\n        /* \"#utility.yul\":9191:9210   */\n      swap1\n      pop\n        /* \"#utility.yul\":8850:9216   */\n      swap2\n      swap1\n      pop\n      jump\t// out\n        /* \"#utility.yul\":9222:9641   */\n    tag_78:\n        /* \"#utility.yul\":9388:9392   */\n      0x00\n        /* \"#utility.yul\":9426:9428   */\n      0x20\n        /* \"#utility.yul\":9415:9424   */\n      dup3\n        /* \"#utility.yul\":9411:9429   */\n      add\n        /* \"#utility.yul\":9403:9429   */\n      swap1\n      pop\n        /* \"#utility.yul\":9475:9484   */\n      dup2\n        /* \"#utility.yul\":9469:9473   */\n      dup2\n        /* \"#utility.yul\":9465:9485   */\n      sub\n        /* \"#utility.yul\":9461:9462   */\n      0x00\n        /* \"#utility.yul\":9450:9459   */\n      dup4\n        /* \"#utility.yul\":9446:9463   */\n      add\n        /* \"#utility.yul\":9439:9486   */\n      mstore\n        /* \"#utility.yul\":9503:9634   */\n      tag_493\n        /* \"#utility.yul\":9629:9633   */\n      dup2\n        /* \"#utility.yul\":9503:9634   */\n      tag_375\n      jump\t// in\n    tag_493:\n        /* \"#utility.yul\":9495:9634   */\n      swap1\n      pop\n        /* \"#utility.yul\":9222:9641   */\n      swap2\n      swap1\n      pop\n      jump\t// out\n        /* \"#utility.yul\":9647:9898   */\n    tag_376:\n        /* \"#utility.yul\":9787:9821   */\n      0x6f6e65206e616d6520686173206120646966666572656e6365206f66203e3120\n        /* \"#utility.yul\":9783:9784   */\n      0x00\n        /* \"#utility.yul\":9775:9781   */\n      dup3\n        /* \"#utility.yul\":9771:9785   */\n      add\n        /* \"#utility.yul\":9764:9822   */\n      mstore\n        /* \"#utility.yul\":9856:9890   */\n      0x6c6162656c20746f2077697468207468652073616d6520726f6f74206e616d65\n        /* \"#utility.yul\":9851:9853   */\n      0x20\n        /* \"#utility.yul\":9843:9849   */\n      dup3\n        /* \"#utility.yul\":9839:9854   */\n      add\n        /* \"#utility.yul\":9832:9891   */\n      mstore\n        /* \"#utility.yul\":9647:9898   */\n      pop\n      jump\t// out\n        /* \"#utility.yul\":9904:10270   */\n    tag_377:\n        /* \"#utility.yul\":10046:10049   */\n      0x00\n        /* \"#utility.yul\":10067:10134   */\n      tag_496\n        /* \"#utility.yul\":10131:10133   */\n      0x40\n        /* \"#utility.yul\":10126:10129   */\n      dup4\n        /* \"#utility.yul\":10067:10134   */\n      tag_355\n      jump\t// in\n    tag_496:\n        /* \"#utility.yul\":10060:10134   */\n      swap2\n      pop\n        /* \"#utility.yul\":10143:10236   */\n      tag_497\n        /* \"#utility.yul\":10232:10235   */\n      dup3\n        /* \"#utility.yul\":10143:10236   */\n      tag_376\n      jump\t// in\n    tag_497:\n        /* \"#utility.yul\":10261:10263   */\n      0x40\n        /* \"#utility.yul\":10256:10259   */\n      dup3\n        /* \"#utility.yul\":10252:10264   */\n      add\n        /* \"#utility.yul\":10245:10264   */\n      swap1\n      pop\n        /* \"#utility.yul\":9904:10270   */\n      swap2\n      swap1\n      pop\n      jump\t// out\n        /* \"#utility.yul\":10276:10695   */\n    tag_82:\n        /* \"#utility.yul\":10442:10446   */\n      0x00\n        /* \"#utility.yul\":10480:10482   */\n      0x20\n        /* \"#utility.yul\":10469:10478   */\n      dup3\n        /* \"#utility.yul\":10465:10483   */\n      add\n        /* \"#utility.yul\":10457:10483   */\n      swap1\n      pop\n        /* \"#utility.yul\":10529:10538   */\n      dup2\n        /* \"#utility.yul\":10523:10527   */\n      dup2\n        /* \"#utility.yul\":10519:10539   */\n      sub\n        /* \"#utility.yul\":10515:10516   */\n      0x00\n        /* \"#utility.yul\":10504:10513   */\n      dup4\n        /* \"#utility.yul\":10500:10517   */\n      add\n        /* \"#utility.yul\":10493:10540   */\n      mstore\n        /* \"#utility.yul\":10557:10688   */\n      tag_499\n        /* \"#utility.yul\":10683:10687   */\n      dup2\n        /* \"#utility.yul\":10557:10688   */\n      tag_377\n      jump\t// in\n    tag_499:\n        /* \"#utility.yul\":10549:10688   */\n      swap1\n      pop\n        /* \"#utility.yul\":10276:10695   */\n      swap2\n      swap1\n      pop\n      jump\t// out\n        /* \"#utility.yul\":10701:10990   */\n    tag_378:\n        /* \"#utility.yul\":10841:10875   */\n      0x6f6e65206e616d6520686173206120646966666572656e6365206f66203e3120\n        /* \"#utility.yul\":10837:10838   */\n      0x00\n        /* \"#utility.yul\":10829:10835   */\n      dup3\n        /* \"#utility.yul\":10825:10839   */\n      add\n        /* \"#utility.yul\":10818:10876   */\n      mstore\n        /* \"#utility.yul\":10910:10944   */\n      0x6c6162656c20746f207769746820646966666572656e7420726f6f74206e616d\n        /* \"#utility.yul\":10905:10907   */\n      0x20\n        /* \"#utility.yul\":10897:10903   */\n      dup3\n        /* \"#utility.yul\":10893:10908   */\n      add\n        /* \"#utility.yul\":10886:10945   */\n      mstore\n        /* \"#utility.yul\":10979:10982   */\n      0x6500000000000000000000000000000000000000000000000000000000000000\n        /* \"#utility.yul\":10974:10976   */\n      0x40\n        /* \"#utility.yul\":10966:10972   */\n      dup3\n        /* \"#utility.yul\":10962:10977   */\n      add\n        /* \"#utility.yul\":10955:10983   */\n      mstore\n        /* \"#utility.yul\":10701:10990   */\n      pop\n      jump\t// out\n        /* \"#utility.yul\":10996:11362   */\n    tag_379:\n        /* \"#utility.yul\":11138:11141   */\n      0x00\n        /* \"#utility.yul\":11159:11226   */\n      tag_502\n        /* \"#utility.yul\":11223:11225   */\n      0x41\n        /* \"#utility.yul\":11218:11221   */\n      dup4\n        /* \"#utility.yul\":11159:11226   */\n      tag_355\n      jump\t// in\n    tag_502:\n        /* \"#utility.yul\":11152:11226   */\n      swap2\n      pop\n        /* \"#utility.yul\":11235:11328   */\n      tag_503\n        /* \"#utility.yul\":11324:11327   */\n      dup3\n        /* \"#utility.yul\":11235:11328   */\n      tag_378\n      jump\t// in\n    tag_503:\n        /* \"#utility.yul\":11353:11355   */\n      0x60\n        /* \"#utility.yul\":11348:11351   */\n      dup3\n        /* \"#utility.yul\":11344:11356   */\n      add\n        /* \"#utility.yul\":11337:11356   */\n      swap1\n      pop\n        /* \"#utility.yul\":10996:11362   */\n      swap2\n      swap1\n      pop\n      jump\t// out\n        /* \"#utility.yul\":11368:11787   */\n    tag_86:\n        /* \"#utility.yul\":11534:11538   */\n      0x00\n        /* \"#utility.yul\":11572:11574   */\n      0x20\n        /* \"#utility.yul\":11561:11570   */\n      dup3\n        /* \"#utility.yul\":11557:11575   */\n      add\n        /* \"#utility.yul\":11549:11575   */\n      swap1\n      pop\n        /* \"#utility.yul\":11621:11630   */\n      dup2\n        /* \"#utility.yul\":11615:11619   */\n      dup2\n        /* \"#utility.yul\":11611:11631   */\n      sub\n        /* \"#utility.yul\":11607:11608   */\n      0x00\n        /* \"#utility.yul\":11596:11605   */\n      dup4\n        /* \"#utility.yul\":11592:11609   */\n      add\n        /* \"#utility.yul\":11585:11632   */\n      mstore\n        /* \"#utility.yul\":11649:11780   */\n      tag_505\n        /* \"#utility.yul\":11775:11779   */\n      dup2\n        /* \"#utility.yul\":11649:11780   */\n      tag_379\n      jump\t// in\n    tag_505:\n        /* \"#utility.yul\":11641:11780   */\n      swap1\n      pop\n        /* \"#utility.yul\":11368:11787   */\n      swap2\n      swap1\n      pop\n      jump\t// out\n        /* \"#utility.yul\":11793:12041   */\n    tag_380:\n        /* \"#utility.yul\":11933:11967   */\n      0x74776f206e616d6573207374617274207468652073616d652062757420686176\n        /* \"#utility.yul\":11929:11930   */\n      0x00\n        /* \"#utility.yul\":11921:11927   */\n      dup3\n        /* \"#utility.yul\":11917:11931   */\n      add\n        /* \"#utility.yul\":11910:11968   */\n      mstore\n        /* \"#utility.yul\":12002:12033   */\n      0x6520646966666572656e63657320696e206c61746572206c6162656c73000000\n        /* \"#utility.yul\":11997:11999   */\n      0x20\n        /* \"#utility.yul\":11989:11995   */\n      dup3\n        /* \"#utility.yul\":11985:12000   */\n      add\n        /* \"#utility.yul\":11978:12034   */\n      mstore\n        /* \"#utility.yul\":11793:12041   */\n      pop\n      jump\t// out\n        /* \"#utility.yul\":12047:12413   */\n    tag_381:\n        /* \"#utility.yul\":12189:12192   */\n      0x00\n        /* \"#utility.yul\":12210:12277   */\n      tag_508\n        /* \"#utility.yul\":12274:12276   */\n      0x3d\n        /* \"#utility.yul\":12269:12272   */\n      dup4\n        /* \"#utility.yul\":12210:12277   */\n      tag_355\n      jump\t// in\n    tag_508:\n        /* \"#utility.yul\":12203:12277   */\n      swap2\n      pop\n        /* \"#utility.yul\":12286:12379   */\n      tag_509\n        /* \"#utility.yul\":12375:12378   */\n      dup3\n        /* \"#utility.yul\":12286:12379   */\n      tag_380\n      jump\t// in\n    tag_509:\n        /* \"#utility.yul\":12404:12406   */\n      0x40\n        /* \"#utility.yul\":12399:12402   */\n      dup3\n        /* \"#utility.yul\":12395:12407   */\n      add\n        /* \"#utility.yul\":12388:12407   */\n      swap1\n      pop\n        /* \"#utility.yul\":12047:12413   */\n      swap2\n      swap1\n      pop\n      jump\t// out\n        /* \"#utility.yul\":12419:12838   */\n    tag_90:\n        /* \"#utility.yul\":12585:12589   */\n      0x00\n        /* \"#utility.yul\":12623:12625   */\n      0x20\n        /* \"#utility.yul\":12612:12621   */\n      dup3\n        /* \"#utility.yul\":12608:12626   */\n      add\n        /* \"#utility.yul\":12600:12626   */\n      swap1\n      pop\n        /* \"#utility.yul\":12672:12681   */\n      dup2\n        /* \"#utility.yul\":12666:12670   */\n      dup2\n        /* \"#utility.yul\":12662:12682   */\n      sub\n        /* \"#utility.yul\":12658:12659   */\n      0x00\n        /* \"#utility.yul\":12647:12656   */\n      dup4\n        /* \"#utility.yul\":12643:12660   */\n      add\n        /* \"#utility.yul\":12636:12683   */\n      mstore\n        /* \"#utility.yul\":12700:12831   */\n      tag_511\n        /* \"#utility.yul\":12826:12830   */\n      dup2\n        /* \"#utility.yul\":12700:12831   */\n      tag_381\n      jump\t// in\n    tag_511:\n        /* \"#utility.yul\":12692:12831   */\n      swap1\n      pop\n        /* \"#utility.yul\":12419:12838   */\n      swap2\n      swap1\n      pop\n      jump\t// out\n        /* \"#utility.yul\":12844:13093   */\n    tag_382:\n        /* \"#utility.yul\":12984:13018   */\n      0x746865206669727374206c6162656c20736f727473206c617465722c20627574\n        /* \"#utility.yul\":12980:12981   */\n      0x00\n        /* \"#utility.yul\":12972:12978   */\n      dup3\n        /* \"#utility.yul\":12968:12982   */\n      add\n        /* \"#utility.yul\":12961:13019   */\n      mstore\n        /* \"#utility.yul\":13053:13085   */\n      0x20746865206669727374206c6162656c20736f727473206561726c6965720000\n        /* \"#utility.yul\":13048:13050   */\n      0x20\n        /* \"#utility.yul\":13040:13046   */\n      dup3\n        /* \"#utility.yul\":13036:13051   */\n      add\n        /* \"#utility.yul\":13029:13086   */\n      mstore\n        /* \"#utility.yul\":12844:13093   */\n      pop\n      jump\t// out\n        /* \"#utility.yul\":13099:13465   */\n    tag_383:\n        /* \"#utility.yul\":13241:13244   */\n      0x00\n        /* \"#utility.yul\":13262:13329   */\n      tag_514\n        /* \"#utility.yul\":13326:13328   */\n      0x3e\n        /* \"#utility.yul\":13321:13324   */\n      dup4\n        /* \"#utility.yul\":13262:13329   */\n      tag_355\n      jump\t// in\n    tag_514:\n        /* \"#utility.yul\":13255:13329   */\n      swap2\n      pop\n        /* \"#utility.yul\":13338:13431   */\n      tag_515\n        /* \"#utility.yul\":13427:13430   */\n      dup3\n        /* \"#utility.yul\":13338:13431   */\n      tag_382\n      jump\t// in\n    tag_515:\n        /* \"#utility.yul\":13456:13458   */\n      0x40\n        /* \"#utility.yul\":13451:13454   */\n      dup3\n        /* \"#utility.yul\":13447:13459   */\n      add\n        /* \"#utility.yul\":13440:13459   */\n      swap1\n      pop\n        /* \"#utility.yul\":13099:13465   */\n      swap2\n      swap1\n      pop\n      jump\t// out\n        /* \"#utility.yul\":13471:13890   */\n    tag_94:\n        /* \"#utility.yul\":13637:13641   */\n      0x00\n        /* \"#utility.yul\":13675:13677   */\n      0x20\n        /* \"#utility.yul\":13664:13673   */\n      dup3\n        /* \"#utility.yul\":13660:13678   */\n      add\n        /* \"#utility.yul\":13652:13678   */\n      swap1\n      pop\n        /* \"#utility.yul\":13724:13733   */\n      dup2\n        /* \"#utility.yul\":13718:13722   */\n      dup2\n        /* \"#utility.yul\":13714:13734   */\n      sub\n        /* \"#utility.yul\":13710:13711   */\n      0x00\n        /* \"#utility.yul\":13699:13708   */\n      dup4\n        /* \"#utility.yul\":13695:13712   */\n      add\n        /* \"#utility.yul\":13688:13735   */\n      mstore\n        /* \"#utility.yul\":13752:13883   */\n      tag_517\n        /* \"#utility.yul\":13878:13882   */\n      dup2\n        /* \"#utility.yul\":13752:13883   */\n      tag_383\n      jump\t// in\n    tag_517:\n        /* \"#utility.yul\":13744:13883   */\n      swap1\n      pop\n        /* \"#utility.yul\":13471:13890   */\n      swap2\n      swap1\n      pop\n      jump\t// out\n        /* \"#utility.yul\":13896:14202   */\n    tag_384:\n        /* \"#utility.yul\":14036:14070   */\n      0x74776f206e616d657320776865726520746865206669727374206c6162656c20\n        /* \"#utility.yul\":14032:14033   */\n      0x00\n        /* \"#utility.yul\":14024:14030   */\n      dup3\n        /* \"#utility.yul\":14020:14034   */\n      add\n        /* \"#utility.yul\":14013:14071   */\n      mstore\n        /* \"#utility.yul\":14105:14139   */\n      0x6f6e206f6e65206973206120707265666978206f662074686520666972737420\n        /* \"#utility.yul\":14100:14102   */\n      0x20\n        /* \"#utility.yul\":14092:14098   */\n      dup3\n        /* \"#utility.yul\":14088:14103   */\n      add\n        /* \"#utility.yul\":14081:14140   */\n      mstore\n        /* \"#utility.yul\":14174:14194   */\n      0x6c6162656c206f6e20746865206f746865720000000000000000000000000000\n        /* \"#utility.yul\":14169:14171   */\n      0x40\n        /* \"#utility.yul\":14161:14167   */\n      dup3\n        /* \"#utility.yul\":14157:14172   */\n      add\n        /* \"#utility.yul\":14150:14195   */\n      mstore\n        /* \"#utility.yul\":13896:14202   */\n      pop\n      jump\t// out\n        /* \"#utility.yul\":14208:14574   */\n    tag_385:\n        /* \"#utility.yul\":14350:14353   */\n      0x00\n        /* \"#utility.yul\":14371:14438   */\n      tag_520\n        /* \"#utility.yul\":14435:14437   */\n      0x52\n        /* \"#utility.yul\":14430:14433   */\n      dup4\n        /* \"#utility.yul\":14371:14438   */\n      tag_355\n      jump\t// in\n    tag_520:\n        /* \"#utility.yul\":14364:14438   */\n      swap2\n      pop\n        /* \"#utility.yul\":14447:14540   */\n      tag_521\n        /* \"#utility.yul\":14536:14539   */\n      dup3\n        /* \"#utility.yul\":14447:14540   */\n      tag_384\n      jump\t// in\n    tag_521:\n        /* \"#utility.yul\":14565:14567   */\n      0x60\n        /* \"#utility.yul\":14560:14563   */\n      dup3\n        /* \"#utility.yul\":14556:14568   */\n      add\n        /* \"#utility.yul\":14549:14568   */\n      swap1\n      pop\n        /* \"#utility.yul\":14208:14574   */\n      swap2\n      swap1\n      pop\n      jump\t// out\n        /* \"#utility.yul\":14580:14999   */\n    tag_98:\n        /* \"#utility.yul\":14746:14750   */\n      0x00\n        /* \"#utility.yul\":14784:14786   */\n      0x20\n        /* \"#utility.yul\":14773:14782   */\n      dup3\n        /* \"#utility.yul\":14769:14787   */\n      add\n        /* \"#utility.yul\":14761:14787   */\n      swap1\n      pop\n        /* \"#utility.yul\":14833:14842   */\n      dup2\n        /* \"#utility.yul\":14827:14831   */\n      dup2\n        /* \"#utility.yul\":14823:14843   */\n      sub\n        /* \"#utility.yul\":14819:14820   */\n      0x00\n        /* \"#utility.yul\":14808:14817   */\n      dup4\n        /* \"#utility.yul\":14804:14821   */\n      add\n        /* \"#utility.yul\":14797:14844   */\n      mstore\n        /* \"#utility.yul\":14861:14992   */\n      tag_523\n        /* \"#utility.yul\":14987:14991   */\n      dup2\n        /* \"#utility.yul\":14861:14992   */\n      tag_385\n      jump\t// in\n    tag_523:\n        /* \"#utility.yul\":14853:14992   */\n      swap1\n      pop\n        /* \"#utility.yul\":14580:14999   */\n      swap2\n      swap1\n      pop\n      jump\t// out\n        /* \"#utility.yul\":15005:15182   */\n    tag_386:\n        /* \"#utility.yul\":15145:15174   */\n      0x78797a20636f6d6573206265666f7265206574684c61622e78797a0000000000\n        /* \"#utility.yul\":15141:15142   */\n      0x00\n        /* \"#utility.yul\":15133:15139   */\n      dup3\n        /* \"#utility.yul\":15129:15143   */\n      add\n        /* \"#utility.yul\":15122:15175   */\n      mstore\n        /* \"#utility.yul\":15005:15182   */\n      pop\n      jump\t// out\n        /* \"#utility.yul\":15188:15554   */\n    tag_387:\n        /* \"#utility.yul\":15330:15333   */\n      0x00\n        /* \"#utility.yul\":15351:15418   */\n      tag_526\n        /* \"#utility.yul\":15415:15417   */\n      0x1b\n        /* \"#utility.yul\":15410:15413   */\n      dup4\n        /* \"#utility.yul\":15351:15418   */\n      tag_355\n      jump\t// in\n    tag_526:\n        /* \"#utility.yul\":15344:15418   */\n      swap2\n      pop\n        /* \"#utility.yul\":15427:15520   */\n      tag_527\n        /* \"#utility.yul\":15516:15519   */\n      dup3\n        /* \"#utility.yul\":15427:15520   */\n      tag_386\n      jump\t// in\n    tag_527:\n        /* \"#utility.yul\":15545:15547   */\n      0x20\n        /* \"#utility.yul\":15540:15543   */\n      dup3\n        /* \"#utility.yul\":15536:15548   */\n      add\n        /* \"#utility.yul\":15529:15548   */\n      swap1\n      pop\n        /* \"#utility.yul\":15188:15554   */\n      swap2\n      swap1\n      pop\n      jump\t// out\n        /* \"#utility.yul\":15560:15979   */\n    tag_105:\n        /* \"#utility.yul\":15726:15730   */\n      0x00\n        /* \"#utility.yul\":15764:15766   */\n      0x20\n        /* \"#utility.yul\":15753:15762   */\n      dup3\n        /* \"#utility.yul\":15749:15767   */\n      add\n        /* \"#utility.yul\":15741:15767   */\n      swap1\n      pop\n        /* \"#utility.yul\":15813:15822   */\n      dup2\n        /* \"#utility.yul\":15807:15811   */\n      dup2\n        /* \"#utility.yul\":15803:15823   */\n      sub\n        /* \"#utility.yul\":15799:15800   */\n      0x00\n        /* \"#utility.yul\":15788:15797   */\n      dup4\n        /* \"#utility.yul\":15784:15801   */\n      add\n        /* \"#utility.yul\":15777:15824   */\n      mstore\n        /* \"#utility.yul\":15841:15972   */\n      tag_529\n        /* \"#utility.yul\":15967:15971   */\n      dup2\n        /* \"#utility.yul\":15841:15972   */\n      tag_387\n      jump\t// in\n    tag_529:\n        /* \"#utility.yul\":15833:15972   */\n      swap1\n      pop\n        /* \"#utility.yul\":15560:15979   */\n      swap2\n      swap1\n      pop\n      jump\t// out\n        /* \"#utility.yul\":15985:16206   */\n    tag_388:\n        /* \"#utility.yul\":16125:16159   */\n      0x6274684c61622e78797a20636f6d6573206265666f7265206574684c61622e78\n        /* \"#utility.yul\":16121:16122   */\n      0x00\n        /* \"#utility.yul\":16113:16119   */\n      dup3\n        /* \"#utility.yul\":16109:16123   */\n      add\n        /* \"#utility.yul\":16102:16160   */\n      mstore\n        /* \"#utility.yul\":16194:16198   */\n      0x797a000000000000000000000000000000000000000000000000000000000000\n        /* \"#utility.yul\":16189:16191   */\n      0x20\n        /* \"#utility.yul\":16181:16187   */\n      dup3\n        /* \"#utility.yul\":16177:16192   */\n      add\n        /* \"#utility.yul\":16170:16199   */\n      mstore\n        /* \"#utility.yul\":15985:16206   */\n      pop\n      jump\t// out\n        /* \"#utility.yul\":16212:16578   */\n    tag_389:\n        /* \"#utility.yul\":16354:16357   */\n      0x00\n        /* \"#utility.yul\":16375:16442   */\n      tag_532\n        /* \"#utility.yul\":16439:16441   */\n      0x22\n        /* \"#utility.yul\":16434:16437   */\n      dup4\n        /* \"#utility.yul\":16375:16442   */\n      tag_355\n      jump\t// in\n    tag_532:\n        /* \"#utility.yul\":16368:16442   */\n      swap2\n      pop\n        /* \"#utility.yul\":16451:16544   */\n      tag_533\n        /* \"#utility.yul\":16540:16543   */\n      dup3\n        /* \"#utility.yul\":16451:16544   */\n      tag_388\n      jump\t// in\n    tag_533:\n        /* \"#utility.yul\":16569:16571   */\n      0x40\n        /* \"#utility.yul\":16564:16567   */\n      dup3\n        /* \"#utility.yul\":16560:16572   */\n      add\n        /* \"#utility.yul\":16553:16572   */\n      swap1\n      pop\n        /* \"#utility.yul\":16212:16578   */\n      swap2\n      swap1\n      pop\n      jump\t// out\n        /* \"#utility.yul\":16584:17003   */\n    tag_109:\n        /* \"#utility.yul\":16750:16754   */\n      0x00\n        /* \"#utility.yul\":16788:16790   */\n      0x20\n        /* \"#utility.yul\":16777:16786   */\n      dup3\n        /* \"#utility.yul\":16773:16791   */\n      add\n        /* \"#utility.yul\":16765:16791   */\n      swap1\n      pop\n        /* \"#utility.yul\":16837:16846   */\n      dup2\n        /* \"#utility.yul\":16831:16835   */\n      dup2\n        /* \"#utility.yul\":16827:16847   */\n      sub\n        /* \"#utility.yul\":16823:16824   */\n      0x00\n        /* \"#utility.yul\":16812:16821   */\n      dup4\n        /* \"#utility.yul\":16808:16825   */\n      add\n        /* \"#utility.yul\":16801:16848   */\n      mstore\n        /* \"#utility.yul\":16865:16996   */\n      tag_535\n        /* \"#utility.yul\":16991:16995   */\n      dup2\n        /* \"#utility.yul\":16865:16996   */\n      tag_389\n      jump\t// in\n    tag_535:\n        /* \"#utility.yul\":16857:16996   */\n      swap1\n      pop\n        /* \"#utility.yul\":16584:17003   */\n      swap2\n      swap1\n      pop\n      jump\t// out\n        /* \"#utility.yul\":17009:17234   */\n    tag_390:\n        /* \"#utility.yul\":17149:17183   */\n      0x6274684c61622e78797a20616e64206274684c61622e78797a20617265207468\n        /* \"#utility.yul\":17145:17146   */\n      0x00\n        /* \"#utility.yul\":17137:17143   */\n      dup3\n        /* \"#utility.yul\":17133:17147   */\n      add\n        /* \"#utility.yul\":17126:17184   */\n      mstore\n        /* \"#utility.yul\":17218:17226   */\n      0x652073616d650000000000000000000000000000000000000000000000000000\n        /* \"#utility.yul\":17213:17215   */\n      0x20\n        /* \"#utility.yul\":17205:17211   */\n      dup3\n        /* \"#utility.yul\":17201:17216   */\n      add\n        /* \"#utility.yul\":17194:17227   */\n      mstore\n        /* \"#utility.yul\":17009:17234   */\n      pop\n      jump\t// out\n        /* \"#utility.yul\":17240:17606   */\n    tag_391:\n        /* \"#utility.yul\":17382:17385   */\n      0x00\n        /* \"#utility.yul\":17403:17470   */\n      tag_538\n        /* \"#utility.yul\":17467:17469   */\n      0x26\n        /* \"#utility.yul\":17462:17465   */\n      dup4\n        /* \"#utility.yul\":17403:17470   */\n      tag_355\n      jump\t// in\n    tag_538:\n        /* \"#utility.yul\":17396:17470   */\n      swap2\n      pop\n        /* \"#utility.yul\":17479:17572   */\n      tag_539\n        /* \"#utility.yul\":17568:17571   */\n      dup3\n        /* \"#utility.yul\":17479:17572   */\n      tag_390\n      jump\t// in\n    tag_539:\n        /* \"#utility.yul\":17597:17599   */\n      0x40\n        /* \"#utility.yul\":17592:17595   */\n      dup3\n        /* \"#utility.yul\":17588:17600   */\n      add\n        /* \"#utility.yul\":17581:17600   */\n      swap1\n      pop\n        /* \"#utility.yul\":17240:17606   */\n      swap2\n      swap1\n      pop\n      jump\t// out\n        /* \"#utility.yul\":17612:18031   */\n    tag_113:\n        /* \"#utility.yul\":17778:17782   */\n      0x00\n        /* \"#utility.yul\":17816:17818   */\n      0x20\n        /* \"#utility.yul\":17805:17814   */\n      dup3\n        /* \"#utility.yul\":17801:17819   */\n      add\n        /* \"#utility.yul\":17793:17819   */\n      swap1\n      pop\n        /* \"#utility.yul\":17865:17874   */\n      dup2\n        /* \"#utility.yul\":17859:17863   */\n      dup2\n        /* \"#utility.yul\":17855:17875   */\n      sub\n        /* \"#utility.yul\":17851:17852   */\n      0x00\n        /* \"#utility.yul\":17840:17849   */\n      dup4\n        /* \"#utility.yul\":17836:17853   */\n      add\n        /* \"#utility.yul\":17829:17876   */\n      mstore\n        /* \"#utility.yul\":17893:18024   */\n      tag_541\n        /* \"#utility.yul\":18019:18023   */\n      dup2\n        /* \"#utility.yul\":17893:18024   */\n      tag_391\n      jump\t// in\n    tag_541:\n        /* \"#utility.yul\":17885:18024   */\n      swap1\n      pop\n        /* \"#utility.yul\":17612:18031   */\n      swap2\n      swap1\n      pop\n      jump\t// out\n        /* \"#utility.yul\":18037:18258   */\n    tag_392:\n        /* \"#utility.yul\":18177:18211   */\n      0x6574684c61622e78797a20636f6d657320616674657220626574684c61622e78\n        /* \"#utility.yul\":18173:18174   */\n      0x00\n        /* \"#utility.yul\":18165:18171   */\n      dup3\n        /* \"#utility.yul\":18161:18175   */\n      add\n        /* \"#utility.yul\":18154:18212   */\n      mstore\n        /* \"#utility.yul\":18246:18250   */\n      0x797a000000000000000000000000000000000000000000000000000000000000\n        /* \"#utility.yul\":18241:18243   */\n      0x20\n        /* \"#utility.yul\":18233:18239   */\n      dup3\n        /* \"#utility.yul\":18229:18244   */\n      add\n        /* \"#utility.yul\":18222:18251   */\n      mstore\n        /* \"#utility.yul\":18037:18258   */\n      pop\n      jump\t// out\n        /* \"#utility.yul\":18264:18630   */\n    tag_393:\n        /* \"#utility.yul\":18406:18409   */\n      0x00\n        /* \"#utility.yul\":18427:18494   */\n      tag_544\n        /* \"#utility.yul\":18491:18493   */\n      0x22\n        /* \"#utility.yul\":18486:18489   */\n      dup4\n        /* \"#utility.yul\":18427:18494   */\n      tag_355\n      jump\t// in\n    tag_544:\n        /* \"#utility.yul\":18420:18494   */\n      swap2\n      pop\n        /* \"#utility.yul\":18503:18596   */\n      tag_545\n        /* \"#utility.yul\":18592:18595   */\n      dup3\n        /* \"#utility.yul\":18503:18596   */\n      tag_392\n      jump\t// in\n    tag_545:\n        /* \"#utility.yul\":18621:18623   */\n      0x40\n        /* \"#utility.yul\":18616:18619   */\n      dup3\n        /* \"#utility.yul\":18612:18624   */\n      add\n        /* \"#utility.yul\":18605:18624   */\n      swap1\n      pop\n        /* \"#utility.yul\":18264:18630   */\n      swap2\n      swap1\n      pop\n      jump\t// out\n        /* \"#utility.yul\":18636:19055   */\n    tag_117:\n        /* \"#utility.yul\":18802:18806   */\n      0x00\n        /* \"#utility.yul\":18840:18842   */\n      0x20\n        /* \"#utility.yul\":18829:18838   */\n      dup3\n        /* \"#utility.yul\":18825:18843   */\n      add\n        /* \"#utility.yul\":18817:18843   */\n      swap1\n      pop\n        /* \"#utility.yul\":18889:18898   */\n      dup2\n        /* \"#utility.yul\":18883:18887   */\n      dup2\n        /* \"#utility.yul\":18879:18899   */\n      sub\n        /* \"#utility.yul\":18875:18876   */\n      0x00\n        /* \"#utility.yul\":18864:18873   */\n      dup4\n        /* \"#utility.yul\":18860:18877   */\n      add\n        /* \"#utility.yul\":18853:18900   */\n      mstore\n        /* \"#utility.yul\":18917:19048   */\n      tag_547\n        /* \"#utility.yul\":19043:19047   */\n      dup2\n        /* \"#utility.yul\":18917:19048   */\n      tag_393\n      jump\t// in\n    tag_547:\n        /* \"#utility.yul\":18909:19048   */\n      swap1\n      pop\n        /* \"#utility.yul\":18636:19055   */\n      swap2\n      swap1\n      pop\n      jump\t// out\n        /* \"#utility.yul\":19061:19237   */\n    tag_394:\n        /* \"#utility.yul\":19201:19229   */\n      0x6274684c61622e78797a20636f6d65732061667465722078797a000000000000\n        /* \"#utility.yul\":19197:19198   */\n      0x00\n        /* \"#utility.yul\":19189:19195   */\n      dup3\n        /* \"#utility.yul\":19185:19199   */\n      add\n        /* \"#utility.yul\":19178:19230   */\n      mstore\n        /* \"#utility.yul\":19061:19237   */\n      pop\n      jump\t// out\n        /* \"#utility.yul\":19243:19609   */\n    tag_395:\n        /* \"#utility.yul\":19385:19388   */\n      0x00\n        /* \"#utility.yul\":19406:19473   */\n      tag_550\n        /* \"#utility.yul\":19470:19472   */\n      0x1a\n        /* \"#utility.yul\":19465:19468   */\n      dup4\n        /* \"#utility.yul\":19406:19473   */\n      tag_355\n      jump\t// in\n    tag_550:\n        /* \"#utility.yul\":19399:19473   */\n      swap2\n      pop\n        /* \"#utility.yul\":19482:19575   */\n      tag_551\n        /* \"#utility.yul\":19571:19574   */\n      dup3\n        /* \"#utility.yul\":19482:19575   */\n      tag_394\n      jump\t// in\n    tag_551:\n        /* \"#utility.yul\":19600:19602   */\n      0x20\n        /* \"#utility.yul\":19595:19598   */\n      dup3\n        /* \"#utility.yul\":19591:19603   */\n      add\n        /* \"#utility.yul\":19584:19603   */\n      swap1\n      pop\n        /* \"#utility.yul\":19243:19609   */\n      swap2\n      swap1\n      pop\n      jump\t// out\n        /* \"#utility.yul\":19615:20034   */\n    tag_121:\n        /* \"#utility.yul\":19781:19785   */\n      0x00\n        /* \"#utility.yul\":19819:19821   */\n      0x20\n        /* \"#utility.yul\":19808:19817   */\n      dup3\n        /* \"#utility.yul\":19804:19822   */\n      add\n        /* \"#utility.yul\":19796:19822   */\n      swap1\n      pop\n        /* \"#utility.yul\":19868:19877   */\n      dup2\n        /* \"#utility.yul\":19862:19866   */\n      dup2\n        /* \"#utility.yul\":19858:19878   */\n      sub\n        /* \"#utility.yul\":19854:19855   */\n      0x00\n        /* \"#utility.yul\":19843:19852   */\n      dup4\n        /* \"#utility.yul\":19839:19856   */\n      add\n        /* \"#utility.yul\":19832:19879   */\n      mstore\n        /* \"#utility.yul\":19896:20027   */\n      tag_553\n        /* \"#utility.yul\":20022:20026   */\n      dup2\n        /* \"#utility.yul\":19896:20027   */\n      tag_395\n      jump\t// in\n    tag_553:\n        /* \"#utility.yul\":19888:20027   */\n      swap1\n      pop\n        /* \"#utility.yul\":19615:20034   */\n      swap2\n      swap1\n      pop\n      jump\t// out\n        /* \"#utility.yul\":20040:20269   */\n    tag_396:\n        /* \"#utility.yul\":20180:20214   */\n      0x6c6f6e67612e766c6f6e672e65746820636f6d6573206166746572206c6f6e67\n        /* \"#utility.yul\":20176:20177   */\n      0x00\n        /* \"#utility.yul\":20168:20174   */\n      dup3\n        /* \"#utility.yul\":20164:20178   */\n      add\n        /* \"#utility.yul\":20157:20215   */\n      mstore\n        /* \"#utility.yul\":20249:20261   */\n      0x2e766c6f6e672e65746800000000000000000000000000000000000000000000\n        /* \"#utility.yul\":20244:20246   */\n      0x20\n        /* \"#utility.yul\":20236:20242   */\n      dup3\n        /* \"#utility.yul\":20232:20247   */\n      add\n        /* \"#utility.yul\":20225:20262   */\n      mstore\n        /* \"#utility.yul\":20040:20269   */\n      pop\n      jump\t// out\n        /* \"#utility.yul\":20275:20641   */\n    tag_397:\n        /* \"#utility.yul\":20417:20420   */\n      0x00\n        /* \"#utility.yul\":20438:20505   */\n      tag_556\n        /* \"#utility.yul\":20502:20504   */\n      0x2a\n        /* \"#utility.yul\":20497:20500   */\n      dup4\n        /* \"#utility.yul\":20438:20505   */\n      tag_355\n      jump\t// in\n    tag_556:\n        /* \"#utility.yul\":20431:20505   */\n      swap2\n      pop\n        /* \"#utility.yul\":20514:20607   */\n      tag_557\n        /* \"#utility.yul\":20603:20606   */\n      dup3\n        /* \"#utility.yul\":20514:20607   */\n      tag_396\n      jump\t// in\n    tag_557:\n        /* \"#utility.yul\":20632:20634   */\n      0x40\n        /* \"#utility.yul\":20627:20630   */\n      dup3\n        /* \"#utility.yul\":20623:20635   */\n      add\n        /* \"#utility.yul\":20616:20635   */\n      swap1\n      pop\n        /* \"#utility.yul\":20275:20641   */\n      swap2\n      swap1\n      pop\n      jump\t// out\n        /* \"#utility.yul\":20647:21066   */\n    tag_125:\n        /* \"#utility.yul\":20813:20817   */\n      0x00\n        /* \"#utility.yul\":20851:20853   */\n      0x20\n        /* \"#utility.yul\":20840:20849   */\n      dup3\n        /* \"#utility.yul\":20836:20854   */\n      add\n        /* \"#utility.yul\":20828:20854   */\n      swap1\n      pop\n        /* \"#utility.yul\":20900:20909   */\n      dup2\n        /* \"#utility.yul\":20894:20898   */\n      dup2\n        /* \"#utility.yul\":20890:20910   */\n      sub\n        /* \"#utility.yul\":20886:20887   */\n      0x00\n        /* \"#utility.yul\":20875:20884   */\n      dup4\n        /* \"#utility.yul\":20871:20888   */\n      add\n        /* \"#utility.yul\":20864:20911   */\n      mstore\n        /* \"#utility.yul\":20928:21059   */\n      tag_559\n        /* \"#utility.yul\":21054:21058   */\n      dup2\n        /* \"#utility.yul\":20928:21059   */\n      tag_397\n      jump\t// in\n    tag_559:\n        /* \"#utility.yul\":20920:21059   */\n      swap1\n      pop\n        /* \"#utility.yul\":20647:21066   */\n      swap2\n      swap1\n      pop\n      jump\t// out\n        /* \"#utility.yul\":21072:21228   */\n    tag_398:\n        /* \"#utility.yul\":21212:21220   */\n      0x31203e3d20300000000000000000000000000000000000000000000000000000\n        /* \"#utility.yul\":21208:21209   */\n      0x00\n        /* \"#utility.yul\":21200:21206   */\n      dup3\n        /* \"#utility.yul\":21196:21210   */\n      add\n        /* \"#utility.yul\":21189:21221   */\n      mstore\n        /* \"#utility.yul\":21072:21228   */\n      pop\n      jump\t// out\n        /* \"#utility.yul\":21234:21599   */\n    tag_399:\n        /* \"#utility.yul\":21376:21379   */\n      0x00\n        /* \"#utility.yul\":21397:21463   */\n      tag_562\n        /* \"#utility.yul\":21461:21462   */\n      0x06\n        /* \"#utility.yul\":21456:21459   */\n      dup4\n        /* \"#utility.yul\":21397:21463   */\n      tag_355\n      jump\t// in\n    tag_562:\n        /* \"#utility.yul\":21390:21463   */\n      swap2\n      pop\n        /* \"#utility.yul\":21472:21565   */\n      tag_563\n        /* \"#utility.yul\":21561:21564   */\n      dup3\n        /* \"#utility.yul\":21472:21565   */\n      tag_398\n      jump\t// in\n    tag_563:\n        /* \"#utility.yul\":21590:21592   */\n      0x20\n        /* \"#utility.yul\":21585:21588   */\n      dup3\n        /* \"#utility.yul\":21581:21593   */\n      add\n        /* \"#utility.yul\":21574:21593   */\n      swap1\n      pop\n        /* \"#utility.yul\":21234:21599   */\n      swap2\n      swap1\n      pop\n      jump\t// out\n        /* \"#utility.yul\":21605:22024   */\n    tag_131:\n        /* \"#utility.yul\":21771:21775   */\n      0x00\n        /* \"#utility.yul\":21809:21811   */\n      0x20\n        /* \"#utility.yul\":21798:21807   */\n      dup3\n        /* \"#utility.yul\":21794:21812   */\n      add\n        /* \"#utility.yul\":21786:21812   */\n      swap1\n      pop\n        /* \"#utility.yul\":21858:21867   */\n      dup2\n        /* \"#utility.yul\":21852:21856   */\n      dup2\n        /* \"#utility.yul\":21848:21868   */\n      sub\n        /* \"#utility.yul\":21844:21845   */\n      0x00\n        /* \"#utility.yul\":21833:21842   */\n      dup4\n        /* \"#utility.yul\":21829:21846   */\n      add\n        /* \"#utility.yul\":21822:21869   */\n      mstore\n        /* \"#utility.yul\":21886:22017   */\n      tag_565\n        /* \"#utility.yul\":22012:22016   */\n      dup2\n        /* \"#utility.yul\":21886:22017   */\n      tag_399\n      jump\t// in\n    tag_565:\n        /* \"#utility.yul\":21878:22017   */\n      swap1\n      pop\n        /* \"#utility.yul\":21605:22024   */\n      swap2\n      swap1\n      pop\n      jump\t// out\n        /* \"#utility.yul\":22030:22189   */\n    tag_400:\n        /* \"#utility.yul\":22170:22181   */\n      0x212830203c3d2031290000000000000000000000000000000000000000000000\n        /* \"#utility.yul\":22166:22167   */\n      0x00\n        /* \"#utility.yul\":22158:22164   */\n      dup3\n        /* \"#utility.yul\":22154:22168   */\n      add\n        /* \"#utility.yul\":22147:22182   */\n      mstore\n        /* \"#utility.yul\":22030:22189   */\n      pop\n      jump\t// out\n        /* \"#utility.yul\":22195:22560   */\n    tag_401:\n        /* \"#utility.yul\":22337:22340   */\n      0x00\n        /* \"#utility.yul\":22358:22424   */\n      tag_568\n        /* \"#utility.yul\":22422:22423   */\n      0x09\n        /* \"#utility.yul\":22417:22420   */\n      dup4\n        /* \"#utility.yul\":22358:22424   */\n      tag_355\n      jump\t// in\n    tag_568:\n        /* \"#utility.yul\":22351:22424   */\n      swap2\n      pop\n        /* \"#utility.yul\":22433:22526   */\n      tag_569\n        /* \"#utility.yul\":22522:22525   */\n      dup3\n        /* \"#utility.yul\":22433:22526   */\n      tag_400\n      jump\t// in\n    tag_569:\n        /* \"#utility.yul\":22551:22553   */\n      0x20\n        /* \"#utility.yul\":22546:22549   */\n      dup3\n        /* \"#utility.yul\":22542:22554   */\n      add\n        /* \"#utility.yul\":22535:22554   */\n      swap1\n      pop\n        /* \"#utility.yul\":22195:22560   */\n      swap2\n      swap1\n      pop\n      jump\t// out\n        /* \"#utility.yul\":22566:22985   */\n    tag_135:\n        /* \"#utility.yul\":22732:22736   */\n      0x00\n        /* \"#utility.yul\":22770:22772   */\n      0x20\n        /* \"#utility.yul\":22759:22768   */\n      dup3\n        /* \"#utility.yul\":22755:22773   */\n      add\n        /* \"#utility.yul\":22747:22773   */\n      swap1\n      pop\n        /* \"#utility.yul\":22819:22828   */\n      dup2\n        /* \"#utility.yul\":22813:22817   */\n      dup2\n        /* \"#utility.yul\":22809:22829   */\n      sub\n        /* \"#utility.yul\":22805:22806   */\n      0x00\n        /* \"#utility.yul\":22794:22803   */\n      dup4\n        /* \"#utility.yul\":22790:22807   */\n      add\n        /* \"#utility.yul\":22783:22830   */\n      mstore\n        /* \"#utility.yul\":22847:22978   */\n      tag_571\n        /* \"#utility.yul\":22973:22977   */\n      dup2\n        /* \"#utility.yul\":22847:22978   */\n      tag_401\n      jump\t// in\n    tag_571:\n        /* \"#utility.yul\":22839:22978   */\n      swap1\n      pop\n        /* \"#utility.yul\":22566:22985   */\n      swap2\n      swap1\n      pop\n      jump\t// out\n        /* \"#utility.yul\":22991:23156   */\n    tag_402:\n        /* \"#utility.yul\":23131:23148   */\n      0x30203e3d20307846464646464646460000000000000000000000000000000000\n        /* \"#utility.yul\":23127:23128   */\n      0x00\n        /* \"#utility.yul\":23119:23125   */\n      dup3\n        /* \"#utility.yul\":23115:23129   */\n      add\n        /* \"#utility.yul\":23108:23149   */\n      mstore\n        /* \"#utility.yul\":22991:23156   */\n      pop\n      jump\t// out\n        /* \"#utility.yul\":23162:23528   */\n    tag_403:\n        /* \"#utility.yul\":23304:23307   */\n      0x00\n        /* \"#utility.yul\":23325:23392   */\n      tag_574\n        /* \"#utility.yul\":23389:23391   */\n      0x0f\n        /* \"#utility.yul\":23384:23387   */\n      dup4\n        /* \"#utility.yul\":23325:23392   */\n      tag_355\n      jump\t// in\n    tag_574:\n        /* \"#utility.yul\":23318:23392   */\n      swap2\n      pop\n        /* \"#utility.yul\":23401:23494   */\n      tag_575\n        /* \"#utility.yul\":23490:23493   */\n      dup3\n        /* \"#utility.yul\":23401:23494   */\n      tag_402\n      jump\t// in\n    tag_575:\n        /* \"#utility.yul\":23519:23521   */\n      0x20\n        /* \"#utility.yul\":23514:23517   */\n      dup3\n        /* \"#utility.yul\":23510:23522   */\n      add\n        /* \"#utility.yul\":23503:23522   */\n      swap1\n      pop\n        /* \"#utility.yul\":23162:23528   */\n      swap2\n      swap1\n      pop\n      jump\t// out\n        /* \"#utility.yul\":23534:23953   */\n    tag_139:\n        /* \"#utility.yul\":23700:23704   */\n      0x00\n        /* \"#utility.yul\":23738:23740   */\n      0x20\n        /* \"#utility.yul\":23727:23736   */\n      dup3\n        /* \"#utility.yul\":23723:23741   */\n      add\n        /* \"#utility.yul\":23715:23741   */\n      swap1\n      pop\n        /* \"#utility.yul\":23787:23796   */\n      dup2\n        /* \"#utility.yul\":23781:23785   */\n      dup2\n        /* \"#utility.yul\":23777:23797   */\n      sub\n        /* \"#utility.yul\":23773:23774   */\n      0x00\n        /* \"#utility.yul\":23762:23771   */\n      dup4\n        /* \"#utility.yul\":23758:23775   */\n      add\n        /* \"#utility.yul\":23751:23798   */\n      mstore\n        /* \"#utility.yul\":23815:23946   */\n      tag_577\n        /* \"#utility.yul\":23941:23945   */\n      dup2\n        /* \"#utility.yul\":23815:23946   */\n      tag_403\n      jump\t// in\n    tag_577:\n        /* \"#utility.yul\":23807:23946   */\n      swap1\n      pop\n        /* \"#utility.yul\":23534:23953   */\n      swap2\n      swap1\n      pop\n      jump\t// out\n        /* \"#utility.yul\":23959:24127   */\n    tag_404:\n        /* \"#utility.yul\":24099:24119   */\n      0x212830203c3d2030784646464646464646290000000000000000000000000000\n        /* \"#utility.yul\":24095:24096   */\n      0x00\n        /* \"#utility.yul\":24087:24093   */\n      dup3\n        /* \"#utility.yul\":24083:24097   */\n      add\n        /* \"#utility.yul\":24076:24120   */\n      mstore\n        /* \"#utility.yul\":23959:24127   */\n      pop\n      jump\t// out\n        /* \"#utility.yul\":24133:24499   */\n    tag_405:\n        /* \"#utility.yul\":24275:24278   */\n      0x00\n        /* \"#utility.yul\":24296:24363   */\n      tag_580\n        /* \"#utility.yul\":24360:24362   */\n      0x12\n        /* \"#utility.yul\":24355:24358   */\n      dup4\n        /* \"#utility.yul\":24296:24363   */\n      tag_355\n      jump\t// in\n    tag_580:\n        /* \"#utility.yul\":24289:24363   */\n      swap2\n      pop\n        /* \"#utility.yul\":24372:24465   */\n      tag_581\n        /* \"#utility.yul\":24461:24464   */\n      dup3\n        /* \"#utility.yul\":24372:24465   */\n      tag_404\n      jump\t// in\n    tag_581:\n        /* \"#utility.yul\":24490:24492   */\n      0x20\n        /* \"#utility.yul\":24485:24488   */\n      dup3\n        /* \"#utility.yul\":24481:24493   */\n      add\n        /* \"#utility.yul\":24474:24493   */\n      swap1\n      pop\n        /* \"#utility.yul\":24133:24499   */\n      swap2\n      swap1\n      pop\n      jump\t// out\n        /* \"#utility.yul\":24505:24924   */\n    tag_143:\n        /* \"#utility.yul\":24671:24675   */\n      0x00\n        /* \"#utility.yul\":24709:24711   */\n      0x20\n        /* \"#utility.yul\":24698:24707   */\n      dup3\n        /* \"#utility.yul\":24694:24712   */\n      add\n        /* \"#utility.yul\":24686:24712   */\n      swap1\n      pop\n        /* \"#utility.yul\":24758:24767   */\n      dup2\n        /* \"#utility.yul\":24752:24756   */\n      dup2\n        /* \"#utility.yul\":24748:24768   */\n      sub\n        /* \"#utility.yul\":24744:24745   */\n      0x00\n        /* \"#utility.yul\":24733:24742   */\n      dup4\n        /* \"#utility.yul\":24729:24746   */\n      add\n        /* \"#utility.yul\":24722:24769   */\n      mstore\n        /* \"#utility.yul\":24786:24917   */\n      tag_583\n        /* \"#utility.yul\":24912:24916   */\n      dup2\n        /* \"#utility.yul\":24786:24917   */\n      tag_405\n      jump\t// in\n    tag_583:\n        /* \"#utility.yul\":24778:24917   */\n      swap1\n      pop\n        /* \"#utility.yul\":24505:24924   */\n      swap2\n      swap1\n      pop\n      jump\t// out\n        /* \"#utility.yul\":24930:25104   */\n    tag_406:\n        /* \"#utility.yul\":25070:25096   */\n      0x30783131313131313131203e3d20307841414141414141410000000000000000\n        /* \"#utility.yul\":25066:25067   */\n      0x00\n        /* \"#utility.yul\":25058:25064   */\n      dup3\n        /* \"#utility.yul\":25054:25068   */\n      add\n        /* \"#utility.yul\":25047:25097   */\n      mstore\n        /* \"#utility.yul\":24930:25104   */\n      pop\n      jump\t// out\n        /* \"#utility.yul\":25110:25476   */\n    tag_407:\n        /* \"#utility.yul\":25252:25255   */\n      0x00\n        /* \"#utility.yul\":25273:25340   */\n      tag_586\n        /* \"#utility.yul\":25337:25339   */\n      0x18\n        /* \"#utility.yul\":25332:25335   */\n      dup4\n        /* \"#utility.yul\":25273:25340   */\n      tag_355\n      jump\t// in\n    tag_586:\n        /* \"#utility.yul\":25266:25340   */\n      swap2\n      pop\n        /* \"#utility.yul\":25349:25442   */\n      tag_587\n        /* \"#utility.yul\":25438:25441   */\n      dup3\n        /* \"#utility.yul\":25349:25442   */\n      tag_406\n      jump\t// in\n    tag_587:\n        /* \"#utility.yul\":25467:25469   */\n      0x20\n        /* \"#utility.yul\":25462:25465   */\n      dup3\n        /* \"#utility.yul\":25458:25470   */\n      add\n        /* \"#utility.yul\":25451:25470   */\n      swap1\n      pop\n        /* \"#utility.yul\":25110:25476   */\n      swap2\n      swap1\n      pop\n      jump\t// out\n        /* \"#utility.yul\":25482:25901   */\n    tag_147:\n        /* \"#utility.yul\":25648:25652   */\n      0x00\n        /* \"#utility.yul\":25686:25688   */\n      0x20\n        /* \"#utility.yul\":25675:25684   */\n      dup3\n        /* \"#utility.yul\":25671:25689   */\n      add\n        /* \"#utility.yul\":25663:25689   */\n      swap1\n      pop\n        /* \"#utility.yul\":25735:25744   */\n      dup2\n        /* \"#utility.yul\":25729:25733   */\n      dup2\n        /* \"#utility.yul\":25725:25745   */\n      sub\n        /* \"#utility.yul\":25721:25722   */\n      0x00\n        /* \"#utility.yul\":25710:25719   */\n      dup4\n        /* \"#utility.yul\":25706:25723   */\n      add\n        /* \"#utility.yul\":25699:25746   */\n      mstore\n        /* \"#utility.yul\":25763:25894   */\n      tag_589\n        /* \"#utility.yul\":25889:25893   */\n      dup2\n        /* \"#utility.yul\":25763:25894   */\n      tag_407\n      jump\t// in\n    tag_589:\n        /* \"#utility.yul\":25755:25894   */\n      swap1\n      pop\n        /* \"#utility.yul\":25482:25901   */\n      swap2\n      swap1\n      pop\n      jump\t// out\n        /* \"#utility.yul\":25907:26063   */\n    tag_408:\n        /* \"#utility.yul\":26047:26055   */\n      0x31203e3d20310000000000000000000000000000000000000000000000000000\n        /* \"#utility.yul\":26043:26044   */\n      0x00\n        /* \"#utility.yul\":26035:26041   */\n      dup3\n        /* \"#utility.yul\":26031:26045   */\n      add\n        /* \"#utility.yul\":26024:26056   */\n      mstore\n        /* \"#utility.yul\":25907:26063   */\n      pop\n      jump\t// out\n        /* \"#utility.yul\":26069:26434   */\n    tag_409:\n        /* \"#utility.yul\":26211:26214   */\n      0x00\n        /* \"#utility.yul\":26232:26298   */\n      tag_592\n        /* \"#utility.yul\":26296:26297   */\n      0x06\n        /* \"#utility.yul\":26291:26294   */\n      dup4\n        /* \"#utility.yul\":26232:26298   */\n      tag_355\n      jump\t// in\n    tag_592:\n        /* \"#utility.yul\":26225:26298   */\n      swap2\n      pop\n        /* \"#utility.yul\":26307:26400   */\n      tag_593\n        /* \"#utility.yul\":26396:26399   */\n      dup3\n        /* \"#utility.yul\":26307:26400   */\n      tag_408\n      jump\t// in\n    tag_593:\n        /* \"#utility.yul\":26425:26427   */\n      0x20\n        /* \"#utility.yul\":26420:26423   */\n      dup3\n        /* \"#utility.yul\":26416:26428   */\n      add\n        /* \"#utility.yul\":26409:26428   */\n      swap1\n      pop\n        /* \"#utility.yul\":26069:26434   */\n      swap2\n      swap1\n      pop\n      jump\t// out\n        /* \"#utility.yul\":26440:26859   */\n    tag_151:\n        /* \"#utility.yul\":26606:26610   */\n      0x00\n        /* \"#utility.yul\":26644:26646   */\n      0x20\n        /* \"#utility.yul\":26633:26642   */\n      dup3\n        /* \"#utility.yul\":26629:26647   */\n      add\n        /* \"#utility.yul\":26621:26647   */\n      swap1\n      pop\n        /* \"#utility.yul\":26693:26702   */\n      dup2\n        /* \"#utility.yul\":26687:26691   */\n      dup2\n        /* \"#utility.yul\":26683:26703   */\n      sub\n        /* \"#utility.yul\":26679:26680   */\n      0x00\n        /* \"#utility.yul\":26668:26677   */\n      dup4\n        /* \"#utility.yul\":26664:26681   */\n      add\n        /* \"#utility.yul\":26657:26704   */\n      mstore\n        /* \"#utility.yul\":26721:26852   */\n      tag_595\n        /* \"#utility.yul\":26847:26851   */\n      dup2\n        /* \"#utility.yul\":26721:26852   */\n      tag_409\n      jump\t// in\n    tag_595:\n        /* \"#utility.yul\":26713:26852   */\n      swap1\n      pop\n        /* \"#utility.yul\":26440:26859   */\n      swap2\n      swap1\n      pop\n      jump\t// out\n        /* \"#utility.yul\":26865:27029   */\n    tag_410:\n        /* \"#utility.yul\":27005:27021   */\n      0x496e76616c6964206b6579746167000000000000000000000000000000000000\n        /* \"#utility.yul\":27001:27002   */\n      0x00\n        /* \"#utility.yul\":26993:26999   */\n      dup3\n        /* \"#utility.yul\":26989:27003   */\n      add\n        /* \"#utility.yul\":26982:27022   */\n      mstore\n        /* \"#utility.yul\":26865:27029   */\n      pop\n      jump\t// out\n        /* \"#utility.yul\":27035:27401   */\n    tag_411:\n        /* \"#utility.yul\":27177:27180   */\n      0x00\n        /* \"#utility.yul\":27198:27265   */\n      tag_598\n        /* \"#utility.yul\":27262:27264   */\n      0x0e\n        /* \"#utility.yul\":27257:27260   */\n      dup4\n        /* \"#utility.yul\":27198:27265   */\n      tag_355\n      jump\t// in\n    tag_598:\n        /* \"#utility.yul\":27191:27265   */\n      swap2\n      pop\n        /* \"#utility.yul\":27274:27367   */\n      tag_599\n        /* \"#utility.yul\":27363:27366   */\n      dup3\n        /* \"#utility.yul\":27274:27367   */\n      tag_410\n      jump\t// in\n    tag_599:\n        /* \"#utility.yul\":27392:27394   */\n      0x20\n        /* \"#utility.yul\":27387:27390   */\n      dup3\n        /* \"#utility.yul\":27383:27395   */\n      add\n        /* \"#utility.yul\":27376:27395   */\n      swap1\n      pop\n        /* \"#utility.yul\":27035:27401   */\n      swap2\n      swap1\n      pop\n      jump\t// out\n        /* \"#utility.yul\":27407:27826   */\n    tag_157:\n        /* \"#utility.yul\":27573:27577   */\n      0x00\n        /* \"#utility.yul\":27611:27613   */\n      0x20\n        /* \"#utility.yul\":27600:27609   */\n      dup3\n        /* \"#utility.yul\":27596:27614   */\n      add\n        /* \"#utility.yul\":27588:27614   */\n      swap1\n      pop\n        /* \"#utility.yul\":27660:27669   */\n      dup2\n        /* \"#utility.yul\":27654:27658   */\n      dup2\n        /* \"#utility.yul\":27650:27670   */\n      sub\n        /* \"#utility.yul\":27646:27647   */\n      0x00\n        /* \"#utility.yul\":27635:27644   */\n      dup4\n        /* \"#utility.yul\":27631:27648   */\n      add\n        /* \"#utility.yul\":27624:27671   */\n      mstore\n        /* \"#utility.yul\":27688:27819   */\n      tag_601\n        /* \"#utility.yul\":27814:27818   */\n      dup2\n        /* \"#utility.yul\":27688:27819   */\n      tag_411\n      jump\t// in\n    tag_601:\n        /* \"#utility.yul\":27680:27819   */\n      swap1\n      pop\n        /* \"#utility.yul\":27407:27826   */\n      swap2\n      swap1\n      pop\n      jump\t// out\n        /* \"#utility.yul\":27832:28000   */\n    tag_412:\n        /* \"#utility.yul\":27972:27992   */\n      0x496e76616c6964206b6579746167202832290000000000000000000000000000\n        /* \"#utility.yul\":27968:27969   */\n      0x00\n        /* \"#utility.yul\":27960:27966   */\n      dup3\n        /* \"#utility.yul\":27956:27970   */\n      add\n        /* \"#utility.yul\":27949:27993   */\n      mstore\n        /* \"#utility.yul\":27832:28000   */\n      pop\n      jump\t// out\n        /* \"#utility.yul\":28006:28372   */\n    tag_413:\n        /* \"#utility.yul\":28148:28151   */\n      0x00\n        /* \"#utility.yul\":28169:28236   */\n      tag_604\n        /* \"#utility.yul\":28233:28235   */\n      0x12\n        /* \"#utility.yul\":28228:28231   */\n      dup4\n        /* \"#utility.yul\":28169:28236   */\n      tag_355\n      jump\t// in\n    tag_604:\n        /* \"#utility.yul\":28162:28236   */\n      swap2\n      pop\n        /* \"#utility.yul\":28245:28338   */\n      tag_605\n        /* \"#utility.yul\":28334:28337   */\n      dup3\n        /* \"#utility.yul\":28245:28338   */\n      tag_412\n      jump\t// in\n    tag_605:\n        /* \"#utility.yul\":28363:28365   */\n      0x20\n        /* \"#utility.yul\":28358:28361   */\n      dup3\n        /* \"#utility.yul\":28354:28366   */\n      add\n        /* \"#utility.yul\":28347:28366   */\n      swap1\n      pop\n        /* \"#utility.yul\":28006:28372   */\n      swap2\n      swap1\n      pop\n      jump\t// out\n        /* \"#utility.yul\":28378:28797   */\n    tag_161:\n        /* \"#utility.yul\":28544:28548   */\n      0x00\n        /* \"#utility.yul\":28582:28584   */\n      0x20\n        /* \"#utility.yul\":28571:28580   */\n      dup3\n        /* \"#utility.yul\":28567:28585   */\n      add\n        /* \"#utility.yul\":28559:28585   */\n      swap1\n      pop\n        /* \"#utility.yul\":28631:28640   */\n      dup2\n        /* \"#utility.yul\":28625:28629   */\n      dup2\n        /* \"#utility.yul\":28621:28641   */\n      sub\n        /* \"#utility.yul\":28617:28618   */\n      0x00\n        /* \"#utility.yul\":28606:28615   */\n      dup4\n        /* \"#utility.yul\":28602:28619   */\n      add\n        /* \"#utility.yul\":28595:28642   */\n      mstore\n        /* \"#utility.yul\":28659:28790   */\n      tag_607\n        /* \"#utility.yul\":28785:28789   */\n      dup2\n        /* \"#utility.yul\":28659:28790   */\n      tag_413\n      jump\t// in\n    tag_607:\n        /* \"#utility.yul\":28651:28790   */\n      swap1\n      pop\n        /* \"#utility.yul\":28378:28797   */\n      swap2\n      swap1\n      pop\n      jump\t// out\n        /* \"#utility.yul\":28803:28971   */\n    tag_414:\n        /* \"#utility.yul\":28943:28963   */\n      0x496e76616c6964206b6579746167202833290000000000000000000000000000\n        /* \"#utility.yul\":28939:28940   */\n      0x00\n        /* \"#utility.yul\":28931:28937   */\n      dup3\n        /* \"#utility.yul\":28927:28941   */\n      add\n        /* \"#utility.yul\":28920:28964   */\n      mstore\n        /* \"#utility.yul\":28803:28971   */\n      pop\n      jump\t// out\n        /* \"#utility.yul\":28977:29343   */\n    tag_415:\n        /* \"#utility.yul\":29119:29122   */\n      0x00\n        /* \"#utility.yul\":29140:29207   */\n      tag_610\n        /* \"#utility.yul\":29204:29206   */\n      0x12\n        /* \"#utility.yul\":29199:29202   */\n      dup4\n        /* \"#utility.yul\":29140:29207   */\n      tag_355\n      jump\t// in\n    tag_610:\n        /* \"#utility.yul\":29133:29207   */\n      swap2\n      pop\n        /* \"#utility.yul\":29216:29309   */\n      tag_611\n        /* \"#utility.yul\":29305:29308   */\n      dup3\n        /* \"#utility.yul\":29216:29309   */\n      tag_414\n      jump\t// in\n    tag_611:\n        /* \"#utility.yul\":29334:29336   */\n      0x20\n        /* \"#utility.yul\":29329:29332   */\n      dup3\n        /* \"#utility.yul\":29325:29337   */\n      add\n        /* \"#utility.yul\":29318:29337   */\n      swap1\n      pop\n        /* \"#utility.yul\":28977:29343   */\n      swap2\n      swap1\n      pop\n      jump\t// out\n        /* \"#utility.yul\":29349:29768   */\n    tag_167:\n        /* \"#utility.yul\":29515:29519   */\n      0x00\n        /* \"#utility.yul\":29553:29555   */\n      0x20\n        /* \"#utility.yul\":29542:29551   */\n      dup3\n        /* \"#utility.yul\":29538:29556   */\n      add\n        /* \"#utility.yul\":29530:29556   */\n      swap1\n      pop\n        /* \"#utility.yul\":29602:29611   */\n      dup2\n        /* \"#utility.yul\":29596:29600   */\n      dup2\n        /* \"#utility.yul\":29592:29612   */\n      sub\n        /* \"#utility.yul\":29588:29589   */\n      0x00\n        /* \"#utility.yul\":29577:29586   */\n      dup4\n        /* \"#utility.yul\":29573:29590   */\n      add\n        /* \"#utility.yul\":29566:29613   */\n      mstore\n        /* \"#utility.yul\":29630:29761   */\n      tag_613\n        /* \"#utility.yul\":29756:29760   */\n      dup2\n        /* \"#utility.yul\":29630:29761   */\n      tag_415\n      jump\t// in\n    tag_613:\n        /* \"#utility.yul\":29622:29761   */\n      swap1\n      pop\n        /* \"#utility.yul\":29349:29768   */\n      swap2\n      swap1\n      pop\n      jump\t// out\n        /* \"#utility.yul\":29774:29944   */\n    tag_416:\n        /* \"#utility.yul\":29914:29936   */\n      0x6c6162656c436f756e7428272e2729203d3d2030000000000000000000000000\n        /* \"#utility.yul\":29910:29911   */\n      0x00\n        /* \"#utility.yul\":29902:29908   */\n      dup3\n        /* \"#utility.yul\":29898:29912   */\n      add\n        /* \"#utility.yul\":29891:29937   */\n      mstore\n        /* \"#utility.yul\":29774:29944   */\n      pop\n      jump\t// out\n        /* \"#utility.yul\":29950:30316   */\n    tag_417:\n        /* \"#utility.yul\":30092:30095   */\n      0x00\n        /* \"#utility.yul\":30113:30180   */\n      tag_616\n        /* \"#utility.yul\":30177:30179   */\n      0x14\n        /* \"#utility.yul\":30172:30175   */\n      dup4\n        /* \"#utility.yul\":30113:30180   */\n      tag_355\n      jump\t// in\n    tag_616:\n        /* \"#utility.yul\":30106:30180   */\n      swap2\n      pop\n        /* \"#utility.yul\":30189:30282   */\n      tag_617\n        /* \"#utility.yul\":30278:30281   */\n      dup3\n        /* \"#utility.yul\":30189:30282   */\n      tag_416\n      jump\t// in\n    tag_617:\n        /* \"#utility.yul\":30307:30309   */\n      0x20\n        /* \"#utility.yul\":30302:30305   */\n      dup3\n        /* \"#utility.yul\":30298:30310   */\n      add\n        /* \"#utility.yul\":30291:30310   */\n      swap1\n      pop\n        /* \"#utility.yul\":29950:30316   */\n      swap2\n      swap1\n      pop\n      jump\t// out\n        /* \"#utility.yul\":30322:30741   */\n    tag_173:\n        /* \"#utility.yul\":30488:30492   */\n      0x00\n        /* \"#utility.yul\":30526:30528   */\n      0x20\n        /* \"#utility.yul\":30515:30524   */\n      dup3\n        /* \"#utility.yul\":30511:30529   */\n      add\n        /* \"#utility.yul\":30503:30529   */\n      swap1\n      pop\n        /* \"#utility.yul\":30575:30584   */\n      dup2\n        /* \"#utility.yul\":30569:30573   */\n      dup2\n        /* \"#utility.yul\":30565:30585   */\n      sub\n        /* \"#utility.yul\":30561:30562   */\n      0x00\n        /* \"#utility.yul\":30550:30559   */\n      dup4\n        /* \"#utility.yul\":30546:30563   */\n      add\n        /* \"#utility.yul\":30539:30586   */\n      mstore\n        /* \"#utility.yul\":30603:30734   */\n      tag_619\n        /* \"#utility.yul\":30729:30733   */\n      dup2\n        /* \"#utility.yul\":30603:30734   */\n      tag_417\n      jump\t// in\n    tag_619:\n        /* \"#utility.yul\":30595:30734   */\n      swap1\n      pop\n        /* \"#utility.yul\":30322:30741   */\n      swap2\n      swap1\n      pop\n      jump\t// out\n        /* \"#utility.yul\":30747:30918   */\n    tag_418:\n        /* \"#utility.yul\":30887:30910   */\n      0x6c6162656c436f756e742827612e2729203d3d20310000000000000000000000\n        /* \"#utility.yul\":30883:30884   */\n      0x00\n        /* \"#utility.yul\":30875:30881   */\n      dup3\n        /* \"#utility.yul\":30871:30885   */\n      add\n        /* \"#utility.yul\":30864:30911   */\n      mstore\n        /* \"#utility.yul\":30747:30918   */\n      pop\n      jump\t// out\n        /* \"#utility.yul\":30924:31290   */\n    tag_419:\n        /* \"#utility.yul\":31066:31069   */\n      0x00\n        /* \"#utility.yul\":31087:31154   */\n      tag_622\n        /* \"#utility.yul\":31151:31153   */\n      0x15\n        /* \"#utility.yul\":31146:31149   */\n      dup4\n        /* \"#utility.yul\":31087:31154   */\n      tag_355\n      jump\t// in\n    tag_622:\n        /* \"#utility.yul\":31080:31154   */\n      swap2\n      pop\n        /* \"#utility.yul\":31163:31256   */\n      tag_623\n        /* \"#utility.yul\":31252:31255   */\n      dup3\n        /* \"#utility.yul\":31163:31256   */\n      tag_418\n      jump\t// in\n    tag_623:\n        /* \"#utility.yul\":31281:31283   */\n      0x20\n        /* \"#utility.yul\":31276:31279   */\n      dup3\n        /* \"#utility.yul\":31272:31284   */\n      add\n        /* \"#utility.yul\":31265:31284   */\n      swap1\n      pop\n        /* \"#utility.yul\":30924:31290   */\n      swap2\n      swap1\n      pop\n      jump\t// out\n        /* \"#utility.yul\":31296:31715   */\n    tag_177:\n        /* \"#utility.yul\":31462:31466   */\n      0x00\n        /* \"#utility.yul\":31500:31502   */\n      0x20\n        /* \"#utility.yul\":31489:31498   */\n      dup3\n        /* \"#utility.yul\":31485:31503   */\n      add\n        /* \"#utility.yul\":31477:31503   */\n      swap1\n      pop\n        /* \"#utility.yul\":31549:31558   */\n      dup2\n        /* \"#utility.yul\":31543:31547   */\n      dup2\n        /* \"#utility.yul\":31539:31559   */\n      sub\n        /* \"#utility.yul\":31535:31536   */\n      0x00\n        /* \"#utility.yul\":31524:31533   */\n      dup4\n        /* \"#utility.yul\":31520:31537   */\n      add\n        /* \"#utility.yul\":31513:31560   */\n      mstore\n        /* \"#utility.yul\":31577:31708   */\n      tag_625\n        /* \"#utility.yul\":31703:31707   */\n      dup2\n        /* \"#utility.yul\":31577:31708   */\n      tag_419\n      jump\t// in\n    tag_625:\n        /* \"#utility.yul\":31569:31708   */\n      swap1\n      pop\n        /* \"#utility.yul\":31296:31715   */\n      swap2\n      swap1\n      pop\n      jump\t// out\n        /* \"#utility.yul\":31721:31894   */\n    tag_420:\n        /* \"#utility.yul\":31861:31886   */\n      0x6c6162656c436f756e742827622e612e2729203d3d2032000000000000000000\n        /* \"#utility.yul\":31857:31858   */\n      0x00\n        /* \"#utility.yul\":31849:31855   */\n      dup3\n        /* \"#utility.yul\":31845:31859   */\n      add\n        /* \"#utility.yul\":31838:31887   */\n      mstore\n        /* \"#utility.yul\":31721:31894   */\n      pop\n      jump\t// out\n        /* \"#utility.yul\":31900:32266   */\n    tag_421:\n        /* \"#utility.yul\":32042:32045   */\n      0x00\n        /* \"#utility.yul\":32063:32130   */\n      tag_628\n        /* \"#utility.yul\":32127:32129   */\n      0x17\n        /* \"#utility.yul\":32122:32125   */\n      dup4\n        /* \"#utility.yul\":32063:32130   */\n      tag_355\n      jump\t// in\n    tag_628:\n        /* \"#utility.yul\":32056:32130   */\n      swap2\n      pop\n        /* \"#utility.yul\":32139:32232   */\n      tag_629\n        /* \"#utility.yul\":32228:32231   */\n      dup3\n        /* \"#utility.yul\":32139:32232   */\n      tag_420\n      jump\t// in\n    tag_629:\n        /* \"#utility.yul\":32257:32259   */\n      0x20\n        /* \"#utility.yul\":32252:32255   */\n      dup3\n        /* \"#utility.yul\":32248:32260   */\n      add\n        /* \"#utility.yul\":32241:32260   */\n      swap1\n      pop\n        /* \"#utility.yul\":31900:32266   */\n      swap2\n      swap1\n      pop\n      jump\t// out\n        /* \"#utility.yul\":32272:32691   */\n    tag_181:\n        /* \"#utility.yul\":32438:32442   */\n      0x00\n        /* \"#utility.yul\":32476:32478   */\n      0x20\n        /* \"#utility.yul\":32465:32474   */\n      dup3\n        /* \"#utility.yul\":32461:32479   */\n      add\n        /* \"#utility.yul\":32453:32479   */\n      swap1\n      pop\n        /* \"#utility.yul\":32525:32534   */\n      dup2\n        /* \"#utility.yul\":32519:32523   */\n      dup2\n        /* \"#utility.yul\":32515:32535   */\n      sub\n        /* \"#utility.yul\":32511:32512   */\n      0x00\n        /* \"#utility.yul\":32500:32509   */\n      dup4\n        /* \"#utility.yul\":32496:32513   */\n      add\n        /* \"#utility.yul\":32489:32536   */\n      mstore\n        /* \"#utility.yul\":32553:32684   */\n      tag_631\n        /* \"#utility.yul\":32679:32683   */\n      dup2\n        /* \"#utility.yul\":32553:32684   */\n      tag_421\n      jump\t// in\n    tag_631:\n        /* \"#utility.yul\":32545:32684   */\n      swap1\n      pop\n        /* \"#utility.yul\":32272:32691   */\n      swap2\n      swap1\n      pop\n      jump\t// out\n        /* \"#utility.yul\":32697:32879   */\n    tag_422:\n        /* \"#utility.yul\":32837:32871   */\n      0x6e616d654c656e6774682827286274686c6162292e78797a2e2729203d3d2036\n        /* \"#utility.yul\":32833:32834   */\n      0x00\n        /* \"#utility.yul\":32825:32831   */\n      dup3\n        /* \"#utility.yul\":32821:32835   */\n      add\n        /* \"#utility.yul\":32814:32872   */\n      mstore\n        /* \"#utility.yul\":32697:32879   */\n      pop\n      jump\t// out\n        /* \"#utility.yul\":32885:33251   */\n    tag_423:\n        /* \"#utility.yul\":33027:33030   */\n      0x00\n        /* \"#utility.yul\":33048:33115   */\n      tag_634\n        /* \"#utility.yul\":33112:33114   */\n      0x20\n        /* \"#utility.yul\":33107:33110   */\n      dup4\n        /* \"#utility.yul\":33048:33115   */\n      tag_355\n      jump\t// in\n    tag_634:\n        /* \"#utility.yul\":33041:33115   */\n      swap2\n      pop\n        /* \"#utility.yul\":33124:33217   */\n      tag_635\n        /* \"#utility.yul\":33213:33216   */\n      dup3\n        /* \"#utility.yul\":33124:33217   */\n      tag_422\n      jump\t// in\n    tag_635:\n        /* \"#utility.yul\":33242:33244   */\n      0x20\n        /* \"#utility.yul\":33237:33240   */\n      dup3\n        /* \"#utility.yul\":33233:33245   */\n      add\n        /* \"#utility.yul\":33226:33245   */\n      swap1\n      pop\n        /* \"#utility.yul\":32885:33251   */\n      swap2\n      swap1\n      pop\n      jump\t// out\n        /* \"#utility.yul\":33257:33676   */\n    tag_185:\n        /* \"#utility.yul\":33423:33427   */\n      0x00\n        /* \"#utility.yul\":33461:33463   */\n      0x20\n        /* \"#utility.yul\":33450:33459   */\n      dup3\n        /* \"#utility.yul\":33446:33464   */\n      add\n        /* \"#utility.yul\":33438:33464   */\n      swap1\n      pop\n        /* \"#utility.yul\":33510:33519   */\n      dup2\n        /* \"#utility.yul\":33504:33508   */\n      dup2\n        /* \"#utility.yul\":33500:33520   */\n      sub\n        /* \"#utility.yul\":33496:33497   */\n      0x00\n        /* \"#utility.yul\":33485:33494   */\n      dup4\n        /* \"#utility.yul\":33481:33498   */\n      add\n        /* \"#utility.yul\":33474:33521   */\n      mstore\n        /* \"#utility.yul\":33538:33669   */\n      tag_637\n        /* \"#utility.yul\":33664:33668   */\n      dup2\n        /* \"#utility.yul\":33538:33669   */\n      tag_423\n      jump\t// in\n    tag_637:\n        /* \"#utility.yul\":33530:33669   */\n      swap1\n      pop\n        /* \"#utility.yul\":33257:33676   */\n      swap2\n      swap1\n      pop\n      jump\t// out\n        /* \"#utility.yul\":33682:33862   */\n    tag_191:\n        /* \"#utility.yul\":33730:33807   */\n      0x4e487b7100000000000000000000000000000000000000000000000000000000\n        /* \"#utility.yul\":33727:33728   */\n      0x00\n        /* \"#utility.yul\":33720:33808   */\n      mstore\n        /* \"#utility.yul\":33827:33831   */\n      0x01\n        /* \"#utility.yul\":33824:33825   */\n      0x04\n        /* \"#utility.yul\":33817:33832   */\n      mstore\n        /* \"#utility.yul\":33851:33855   */\n      0x24\n        /* \"#utility.yul\":33848:33849   */\n      0x00\n        /* \"#utility.yul\":33841:33856   */\n      revert\n        /* \"#utility.yul\":33868:34059   */\n    tag_195:\n        /* \"#utility.yul\":33908:33911   */\n      0x00\n        /* \"#utility.yul\":33927:33947   */\n      tag_640\n        /* \"#utility.yul\":33945:33946   */\n      dup3\n        /* \"#utility.yul\":33927:33947   */\n      tag_371\n      jump\t// in\n    tag_640:\n        /* \"#utility.yul\":33922:33947   */\n      swap2\n      pop\n        /* \"#utility.yul\":33961:33981   */\n      tag_641\n        /* \"#utility.yul\":33979:33980   */\n      dup4\n        /* \"#utility.yul\":33961:33981   */\n      tag_371\n      jump\t// in\n    tag_641:\n        /* \"#utility.yul\":33956:33981   */\n      swap3\n      pop\n        /* \"#utility.yul\":34004:34005   */\n      dup3\n        /* \"#utility.yul\":34001:34002   */\n      dup3\n        /* \"#utility.yul\":33997:34006   */\n      add\n        /* \"#utility.yul\":33990:34006   */\n      swap1\n      pop\n        /* \"#utility.yul\":34025:34028   */\n      dup1\n        /* \"#utility.yul\":34022:34023   */\n      dup3\n        /* \"#utility.yul\":34019:34029   */\n      gt\n        /* \"#utility.yul\":34016:34052   */\n      iszero\n      tag_642\n      jumpi\n        /* \"#utility.yul\":34032:34050   */\n      tag_643\n      tag_370\n      jump\t// in\n    tag_643:\n        /* \"#utility.yul\":34016:34052   */\n    tag_642:\n        /* \"#utility.yul\":33868:34059   */\n      swap3\n      swap2\n      pop\n      pop\n      jump\t// out\n        /* \"#utility.yul\":34065:34259   */\n    tag_199:\n        /* \"#utility.yul\":34105:34109   */\n      0x00\n        /* \"#utility.yul\":34125:34145   */\n      tag_645\n        /* \"#utility.yul\":34143:34144   */\n      dup3\n        /* \"#utility.yul\":34125:34145   */\n      tag_371\n      jump\t// in\n    tag_645:\n        /* \"#utility.yul\":34120:34145   */\n      swap2\n      pop\n        /* \"#utility.yul\":34159:34179   */\n      tag_646\n        /* \"#utility.yul\":34177:34178   */\n      dup4\n        /* \"#utility.yul\":34159:34179   */\n      tag_371\n      jump\t// in\n    tag_646:\n        /* \"#utility.yul\":34154:34179   */\n      swap3\n      pop\n        /* \"#utility.yul\":34203:34204   */\n      dup3\n        /* \"#utility.yul\":34200:34201   */\n      dup3\n        /* \"#utility.yul\":34196:34205   */\n      sub\n        /* \"#utility.yul\":34188:34205   */\n      swap1\n      pop\n        /* \"#utility.yul\":34227:34228   */\n      dup2\n        /* \"#utility.yul\":34221:34225   */\n      dup2\n        /* \"#utility.yul\":34218:34229   */\n      gt\n        /* \"#utility.yul\":34215:34252   */\n      iszero\n      tag_647\n      jumpi\n        /* \"#utility.yul\":34232:34250   */\n      tag_648\n      tag_370\n      jump\t// in\n    tag_648:\n        /* \"#utility.yul\":34215:34252   */\n    tag_647:\n        /* \"#utility.yul\":34065:34259   */\n      swap3\n      swap2\n      pop\n      pop\n      jump\t// out\n        /* \"#utility.yul\":34265:34436   */\n    tag_238:\n        /* \"#utility.yul\":34304:34307   */\n      0x00\n        /* \"#utility.yul\":34327:34351   */\n      tag_650\n        /* \"#utility.yul\":34345:34350   */\n      dup3\n        /* \"#utility.yul\":34327:34351   */\n      tag_371\n      jump\t// in\n    tag_650:\n        /* \"#utility.yul\":34318:34351   */\n      swap2\n      pop\n        /* \"#utility.yul\":34373:34377   */\n      0x00\n        /* \"#utility.yul\":34366:34371   */\n      dup3\n        /* \"#utility.yul\":34363:34378   */\n      sub\n        /* \"#utility.yul\":34360:34401   */\n      tag_651\n      jumpi\n        /* \"#utility.yul\":34381:34399   */\n      tag_652\n      tag_370\n      jump\t// in\n    tag_652:\n        /* \"#utility.yul\":34360:34401   */\n    tag_651:\n        /* \"#utility.yul\":34428:34429   */\n      0x01\n        /* \"#utility.yul\":34421:34426   */\n      dup3\n        /* \"#utility.yul\":34417:34430   */\n      sub\n        /* \"#utility.yul\":34410:34430   */\n      swap1\n      pop\n        /* \"#utility.yul\":34265:34436   */\n      swap2\n      swap1\n      pop\n      jump\t// out\n        /* \"#utility.yul\":34442:34615   */\n    tag_424:\n        /* \"#utility.yul\":34582:34607   */\n      0x4c6f6e67206b657973206e6f74207065726d6974746564000000000000000000\n        /* \"#utility.yul\":34578:34579   */\n      0x00\n        /* \"#utility.yul\":34570:34576   */\n      dup3\n        /* \"#utility.yul\":34566:34580   */\n      add\n        /* \"#utility.yul\":34559:34608   */\n      mstore\n        /* \"#utility.yul\":34442:34615   */\n      pop\n      jump\t// out\n        /* \"#utility.yul\":34621:34987   */\n    tag_425:\n        /* \"#utility.yul\":34763:34766   */\n      0x00\n        /* \"#utility.yul\":34784:34851   */\n      tag_655\n        /* \"#utility.yul\":34848:34850   */\n      0x17\n        /* \"#utility.yul\":34843:34846   */\n      dup4\n        /* \"#utility.yul\":34784:34851   */\n      tag_355\n      jump\t// in\n    tag_655:\n        /* \"#utility.yul\":34777:34851   */\n      swap2\n      pop\n        /* \"#utility.yul\":34860:34953   */\n      tag_656\n        /* \"#utility.yul\":34949:34952   */\n      dup3\n        /* \"#utility.yul\":34860:34953   */\n      tag_424\n      jump\t// in\n    tag_656:\n        /* \"#utility.yul\":34978:34980   */\n      0x20\n        /* \"#utility.yul\":34973:34976   */\n      dup3\n        /* \"#utility.yul\":34969:34981   */\n      add\n        /* \"#utility.yul\":34962:34981   */\n      swap1\n      pop\n        /* \"#utility.yul\":34621:34987   */\n      swap2\n      swap1\n      pop\n      jump\t// out\n        /* \"#utility.yul\":34993:35412   */\n    tag_263:\n        /* \"#utility.yul\":35159:35163   */\n      0x00\n        /* \"#utility.yul\":35197:35199   */\n      0x20\n        /* \"#utility.yul\":35186:35195   */\n      dup3\n        /* \"#utility.yul\":35182:35200   */\n      add\n        /* \"#utility.yul\":35174:35200   */\n      swap1\n      pop\n        /* \"#utility.yul\":35246:35255   */\n      dup2\n        /* \"#utility.yul\":35240:35244   */\n      dup2\n        /* \"#utility.yul\":35236:35256   */\n      sub\n        /* \"#utility.yul\":35232:35233   */\n      0x00\n        /* \"#utility.yul\":35221:35230   */\n      dup4\n        /* \"#utility.yul\":35217:35234   */\n      add\n        /* \"#utility.yul\":35210:35257   */\n      mstore\n        /* \"#utility.yul\":35274:35405   */\n      tag_658\n        /* \"#utility.yul\":35400:35404   */\n      dup2\n        /* \"#utility.yul\":35274:35405   */\n      tag_425\n      jump\t// in\n    tag_658:\n        /* \"#utility.yul\":35266:35405   */\n      swap1\n      pop\n        /* \"#utility.yul\":34993:35412   */\n      swap2\n      swap1\n      pop\n      jump\t// out\n        /* \"#utility.yul\":35418:35598   */\n    tag_286:\n        /* \"#utility.yul\":35466:35543   */\n      0x4e487b7100000000000000000000000000000000000000000000000000000000\n        /* \"#utility.yul\":35463:35464   */\n      0x00\n        /* \"#utility.yul\":35456:35544   */\n      mstore\n        /* \"#utility.yul\":35563:35567   */\n      0x41\n        /* \"#utility.yul\":35560:35561   */\n      0x04\n        /* \"#utility.yul\":35553:35568   */\n      mstore\n        /* \"#utility.yul\":35587:35591   */\n      0x24\n        /* \"#utility.yul\":35584:35585   */\n      0x00\n        /* \"#utility.yul\":35577:35592   */\n      revert\n        /* \"#utility.yul\":35604:35722   */\n    tag_426:\n        /* \"#utility.yul\":35691:35715   */\n      tag_661\n        /* \"#utility.yul\":35709:35714   */\n      dup2\n        /* \"#utility.yul\":35691:35715   */\n      tag_371\n      jump\t// in\n    tag_661:\n        /* \"#utility.yul\":35686:35689   */\n      dup3\n        /* \"#utility.yul\":35679:35716   */\n      mstore\n        /* \"#utility.yul\":35604:35722   */\n      pop\n      pop\n      jump\t// out\n        /* \"#utility.yul\":35728:36060   */\n    tag_315:\n        /* \"#utility.yul\":35849:35853   */\n      0x00\n        /* \"#utility.yul\":35887:35889   */\n      0x40\n        /* \"#utility.yul\":35876:35885   */\n      dup3\n        /* \"#utility.yul\":35872:35890   */\n      add\n        /* \"#utility.yul\":35864:35890   */\n      swap1\n      pop\n        /* \"#utility.yul\":35900:35971   */\n      tag_663\n        /* \"#utility.yul\":35968:35969   */\n      0x00\n        /* \"#utility.yul\":35957:35966   */\n      dup4\n        /* \"#utility.yul\":35953:35970   */\n      add\n        /* \"#utility.yul\":35944:35950   */\n      dup6\n        /* \"#utility.yul\":35900:35971   */\n      tag_426\n      jump\t// in\n    tag_663:\n        /* \"#utility.yul\":35981:36053   */\n      tag_664\n        /* \"#utility.yul\":36049:36051   */\n      0x20\n        /* \"#utility.yul\":36038:36047   */\n      dup4\n        /* \"#utility.yul\":36034:36052   */\n      add\n        /* \"#utility.yul\":36025:36031   */\n      dup5\n        /* \"#utility.yul\":35981:36053   */\n      tag_426\n      jump\t// in\n    tag_664:\n        /* \"#utility.yul\":35728:36060   */\n      swap4\n      swap3\n      pop\n      pop\n      pop\n      jump\t// out\n        /* \"#utility.yul\":36066:36476   */\n    tag_331:\n        /* \"#utility.yul\":36106:36113   */\n      0x00\n        /* \"#utility.yul\":36129:36149   */\n      tag_666\n        /* \"#utility.yul\":36147:36148   */\n      dup3\n        /* \"#utility.yul\":36129:36149   */\n      tag_371\n      jump\t// in\n    tag_666:\n        /* \"#utility.yul\":36124:36149   */\n      swap2\n      pop\n        /* \"#utility.yul\":36163:36183   */\n      tag_667\n        /* \"#utility.yul\":36181:36182   */\n      dup4\n        /* \"#utility.yul\":36163:36183   */\n      tag_371\n      jump\t// in\n    tag_667:\n        /* \"#utility.yul\":36158:36183   */\n      swap3\n      pop\n        /* \"#utility.yul\":36218:36219   */\n      dup3\n        /* \"#utility.yul\":36215:36216   */\n      dup3\n        /* \"#utility.yul\":36211:36220   */\n      mul\n        /* \"#utility.yul\":36240:36270   */\n      tag_668\n        /* \"#utility.yul\":36258:36269   */\n      dup2\n        /* \"#utility.yul\":36240:36270   */\n      tag_371\n      jump\t// in\n    tag_668:\n        /* \"#utility.yul\":36229:36270   */\n      swap2\n      pop\n        /* \"#utility.yul\":36419:36420   */\n      dup3\n        /* \"#utility.yul\":36410:36417   */\n      dup3\n        /* \"#utility.yul\":36406:36421   */\n      div\n        /* \"#utility.yul\":36403:36404   */\n      dup5\n        /* \"#utility.yul\":36400:36422   */\n      eq\n        /* \"#utility.yul\":36380:36381   */\n      dup4\n        /* \"#utility.yul\":36373:36382   */\n      iszero\n        /* \"#utility.yul\":36353:36436   */\n      or\n        /* \"#utility.yul\":36330:36469   */\n      tag_669\n      jumpi\n        /* \"#utility.yul\":36449:36467   */\n      tag_670\n      tag_370\n      jump\t// in\n    tag_670:\n        /* \"#utility.yul\":36330:36469   */\n    tag_669:\n        /* \"#utility.yul\":36114:36476   */\n      pop\n        /* \"#utility.yul\":36066:36476   */\n      swap3\n      swap2\n      pop\n      pop\n      jump\t// out\n        /* \"#utility.yul\":36482:36584   */\n    tag_427:\n        /* \"#utility.yul\":36524:36532   */\n      0x00\n        /* \"#utility.yul\":36571:36576   */\n      dup2\n        /* \"#utility.yul\":36568:36569   */\n      0x01\n        /* \"#utility.yul\":36564:36577   */\n      shr\n        /* \"#utility.yul\":36543:36577   */\n      swap1\n      pop\n        /* \"#utility.yul\":36482:36584   */\n      swap2\n      swap1\n      pop\n      jump\t// out\n        /* \"#utility.yul\":36590:37438   */\n    tag_428:\n        /* \"#utility.yul\":36651:36656   */\n      0x00\n        /* \"#utility.yul\":36658:36662   */\n      dup1\n        /* \"#utility.yul\":36682:36688   */\n      dup3\n        /* \"#utility.yul\":36673:36688   */\n      swap2\n      pop\n        /* \"#utility.yul\":36706:36711   */\n      dup4\n        /* \"#utility.yul\":36697:36711   */\n      swap1\n      pop\n        /* \"#utility.yul\":36720:37432   */\n    tag_673:\n        /* \"#utility.yul\":36741:36742   */\n      0x01\n        /* \"#utility.yul\":36731:36739   */\n      dup6\n        /* \"#utility.yul\":36728:36743   */\n      gt\n        /* \"#utility.yul\":36720:37432   */\n      iszero\n      tag_675\n      jumpi\n        /* \"#utility.yul\":36836:36840   */\n      dup1\n        /* \"#utility.yul\":36831:36834   */\n      dup7\n        /* \"#utility.yul\":36827:36841   */\n      div\n        /* \"#utility.yul\":36821:36825   */\n      dup2\n        /* \"#utility.yul\":36818:36842   */\n      gt\n        /* \"#utility.yul\":36815:36865   */\n      iszero\n      tag_676\n      jumpi\n        /* \"#utility.yul\":36845:36863   */\n      tag_677\n      tag_370\n      jump\t// in\n    tag_677:\n        /* \"#utility.yul\":36815:36865   */\n    tag_676:\n        /* \"#utility.yul\":36895:36896   */\n      0x01\n        /* \"#utility.yul\":36885:36893   */\n      dup6\n        /* \"#utility.yul\":36881:36897   */\n      and\n        /* \"#utility.yul\":36878:37329   */\n      iszero\n      tag_678\n      jumpi\n        /* \"#utility.yul\":37310:37314   */\n      dup1\n        /* \"#utility.yul\":37303:37308   */\n      dup3\n        /* \"#utility.yul\":37299:37315   */\n      mul\n        /* \"#utility.yul\":37290:37315   */\n      swap2\n      pop\n        /* \"#utility.yul\":36878:37329   */\n    tag_678:\n        /* \"#utility.yul\":37360:37364   */\n      dup1\n        /* \"#utility.yul\":37354:37358   */\n      dup2\n        /* \"#utility.yul\":37350:37365   */\n      mul\n        /* \"#utility.yul\":37342:37365   */\n      swap1\n      pop\n        /* \"#utility.yul\":37390:37422   */\n      tag_679\n        /* \"#utility.yul\":37413:37421   */\n      dup6\n        /* \"#utility.yul\":37390:37422   */\n      tag_427\n      jump\t// in\n    tag_679:\n        /* \"#utility.yul\":37378:37422   */\n      swap5\n      pop\n        /* \"#utility.yul\":36720:37432   */\n      jump(tag_673)\n    tag_675:\n        /* \"#utility.yul\":36590:37438   */\n      swap5\n      pop\n      swap5\n      swap3\n      pop\n      pop\n      pop\n      jump\t// out\n        /* \"#utility.yul\":37444:38517   */\n    tag_429:\n        /* \"#utility.yul\":37498:37503   */\n      0x00\n        /* \"#utility.yul\":37689:37697   */\n      dup3\n        /* \"#utility.yul\":37679:37719   */\n      tag_681\n      jumpi\n        /* \"#utility.yul\":37710:37711   */\n      0x01\n        /* \"#utility.yul\":37701:37711   */\n      swap1\n      pop\n        /* \"#utility.yul\":37712:37717   */\n      jump(tag_680)\n        /* \"#utility.yul\":37679:37719   */\n    tag_681:\n        /* \"#utility.yul\":37738:37742   */\n      dup2\n        /* \"#utility.yul\":37728:37764   */\n      tag_682\n      jumpi\n        /* \"#utility.yul\":37755:37756   */\n      0x00\n        /* \"#utility.yul\":37746:37756   */\n      swap1\n      pop\n        /* \"#utility.yul\":37757:37762   */\n      jump(tag_680)\n        /* \"#utility.yul\":37728:37764   */\n    tag_682:\n        /* \"#utility.yul\":37824:37828   */\n      dup2\n        /* \"#utility.yul\":37872:37873   */\n      0x01\n        /* \"#utility.yul\":37867:37894   */\n      dup2\n      eq\n      tag_684\n      jumpi\n        /* \"#utility.yul\":37908:37909   */\n      0x02\n        /* \"#utility.yul\":37903:38094   */\n      dup2\n      eq\n      tag_685\n      jumpi\n        /* \"#utility.yul\":37817:38094   */\n      jump(tag_683)\n        /* \"#utility.yul\":37867:37894   */\n    tag_684:\n        /* \"#utility.yul\":37885:37886   */\n      0x01\n        /* \"#utility.yul\":37876:37886   */\n      swap2\n      pop\n        /* \"#utility.yul\":37887:37892   */\n      pop\n      jump(tag_680)\n        /* \"#utility.yul\":37903:38094   */\n    tag_685:\n        /* \"#utility.yul\":37948:37951   */\n      0xff\n        /* \"#utility.yul\":37938:37946   */\n      dup5\n        /* \"#utility.yul\":37935:37952   */\n      gt\n        /* \"#utility.yul\":37932:37975   */\n      iszero\n      tag_686\n      jumpi\n        /* \"#utility.yul\":37955:37973   */\n      tag_687\n      tag_370\n      jump\t// in\n    tag_687:\n        /* \"#utility.yul\":37932:37975   */\n    tag_686:\n        /* \"#utility.yul\":38004:38012   */\n      dup4\n        /* \"#utility.yul\":38001:38002   */\n      0x02\n        /* \"#utility.yul\":37997:38013   */\n      exp\n        /* \"#utility.yul\":37988:38013   */\n      swap2\n      pop\n        /* \"#utility.yul\":38039:38042   */\n      dup5\n        /* \"#utility.yul\":38032:38037   */\n      dup3\n        /* \"#utility.yul\":38029:38043   */\n      gt\n        /* \"#utility.yul\":38026:38066   */\n      iszero\n      tag_688\n      jumpi\n        /* \"#utility.yul\":38046:38064   */\n      tag_689\n      tag_370\n      jump\t// in\n    tag_689:\n        /* \"#utility.yul\":38026:38066   */\n    tag_688:\n        /* \"#utility.yul\":38079:38084   */\n      pop\n      jump(tag_680)\n        /* \"#utility.yul\":37817:38094   */\n    tag_683:\n      pop\n        /* \"#utility.yul\":38203:38205   */\n      0x20\n        /* \"#utility.yul\":38193:38201   */\n      dup4\n        /* \"#utility.yul\":38190:38206   */\n      lt\n        /* \"#utility.yul\":38184:38187   */\n      0x0133\n        /* \"#utility.yul\":38178:38182   */\n      dup4\n        /* \"#utility.yul\":38175:38188   */\n      lt\n        /* \"#utility.yul\":38171:38207   */\n      and\n        /* \"#utility.yul\":38153:38155   */\n      0x4e\n        /* \"#utility.yul\":38143:38151   */\n      dup5\n        /* \"#utility.yul\":38140:38156   */\n      lt\n        /* \"#utility.yul\":38135:38137   */\n      0x0b\n        /* \"#utility.yul\":38129:38133   */\n      dup5\n        /* \"#utility.yul\":38126:38138   */\n      lt\n        /* \"#utility.yul\":38122:38157   */\n      and\n        /* \"#utility.yul\":38106:38217   */\n      or\n        /* \"#utility.yul\":38103:38349   */\n      iszero\n      tag_690\n      jumpi\n        /* \"#utility.yul\":38259:38267   */\n      dup3\n        /* \"#utility.yul\":38253:38257   */\n      dup3\n        /* \"#utility.yul\":38249:38268   */\n      exp\n        /* \"#utility.yul\":38240:38268   */\n      swap1\n      pop\n        /* \"#utility.yul\":38294:38297   */\n      dup4\n        /* \"#utility.yul\":38287:38292   */\n      dup2\n        /* \"#utility.yul\":38284:38298   */\n      gt\n        /* \"#utility.yul\":38281:38321   */\n      iszero\n      tag_691\n      jumpi\n        /* \"#utility.yul\":38301:38319   */\n      tag_692\n      tag_370\n      jump\t// in\n    tag_692:\n        /* \"#utility.yul\":38281:38321   */\n    tag_691:\n        /* \"#utility.yul\":38334:38339   */\n      jump(tag_680)\n        /* \"#utility.yul\":38103:38349   */\n    tag_690:\n        /* \"#utility.yul\":38374:38416   */\n      tag_693\n        /* \"#utility.yul\":38412:38415   */\n      dup5\n        /* \"#utility.yul\":38402:38410   */\n      dup5\n        /* \"#utility.yul\":38396:38400   */\n      dup5\n        /* \"#utility.yul\":38393:38394   */\n      0x01\n        /* \"#utility.yul\":38374:38416   */\n      tag_428\n      jump\t// in\n    tag_693:\n        /* \"#utility.yul\":38359:38416   */\n      swap3\n      pop\n      swap1\n      pop\n        /* \"#utility.yul\":38448:38452   */\n      dup2\n        /* \"#utility.yul\":38443:38446   */\n      dup5\n        /* \"#utility.yul\":38439:38453   */\n      div\n        /* \"#utility.yul\":38432:38437   */\n      dup2\n        /* \"#utility.yul\":38429:38454   */\n      gt\n        /* \"#utility.yul\":38426:38477   */\n      iszero\n      tag_694\n      jumpi\n        /* \"#utility.yul\":38457:38475   */\n      tag_695\n      tag_370\n      jump\t// in\n    tag_695:\n        /* \"#utility.yul\":38426:38477   */\n    tag_694:\n        /* \"#utility.yul\":38506:38510   */\n      dup2\n        /* \"#utility.yul\":38499:38504   */\n      dup2\n        /* \"#utility.yul\":38495:38511   */\n      mul\n        /* \"#utility.yul\":38486:38511   */\n      swap1\n      pop\n        /* \"#utility.yul\":37444:38517   */\n    tag_680:\n      swap4\n      swap3\n      pop\n      pop\n      pop\n      jump\t// out\n        /* \"#utility.yul\":38523:38808   */\n    tag_333:\n        /* \"#utility.yul\":38583:38588   */\n      0x00\n        /* \"#utility.yul\":38607:38630   */\n      tag_697\n        /* \"#utility.yul\":38625:38629   */\n      dup3\n        /* \"#utility.yul\":38607:38630   */\n      tag_371\n      jump\t// in\n    tag_697:\n        /* \"#utility.yul\":38599:38630   */\n      swap2\n      pop\n        /* \"#utility.yul\":38651:38678   */\n      tag_698\n        /* \"#utility.yul\":38669:38677   */\n      dup4\n        /* \"#utility.yul\":38651:38678   */\n      tag_371\n      jump\t// in\n    tag_698:\n        /* \"#utility.yul\":38639:38678   */\n      swap3\n      pop\n        /* \"#utility.yul\":38697:38801   */\n      tag_699\n        /* \"#utility.yul\":38734:38800   */\n      0xffffffffffffffffffffffffffffffffffffffffffffffffffffffffffffffff\n        /* \"#utility.yul\":38724:38732   */\n      dup5\n        /* \"#utility.yul\":38718:38722   */\n      dup5\n        /* \"#utility.yul\":38697:38801   */\n      tag_429\n      jump\t// in\n    tag_699:\n        /* \"#utility.yul\":38688:38801   */\n      swap1\n      pop\n        /* \"#utility.yul\":38523:38808   */\n      swap3\n      swap2\n      pop\n      pop\n      jump\t// out\n        /* \"#utility.yul\":38814:38890   */\n    tag_430:\n        /* \"#utility.yul\":38850:38857   */\n      0x00\n        /* \"#utility.yul\":38879:38884   */\n      dup2\n        /* \"#utility.yul\":38868:38884   */\n      swap1\n      pop\n        /* \"#utility.yul\":38814:38890   */\n      swap2\n      swap1\n      pop\n      jump\t// out\n        /* \"#utility.yul\":38896:39268   */\n    tag_336:\n        /* \"#utility.yul\":38935:38939   */\n      0x00\n        /* \"#utility.yul\":38955:38974   */\n      tag_702\n        /* \"#utility.yul\":38972:38973   */\n      dup3\n        /* \"#utility.yul\":38955:38974   */\n      tag_430\n      jump\t// in\n    tag_702:\n        /* \"#utility.yul\":38950:38974   */\n      swap2\n      pop\n        /* \"#utility.yul\":38988:39007   */\n      tag_703\n        /* \"#utility.yul\":39005:39006   */\n      dup4\n        /* \"#utility.yul\":38988:39007   */\n      tag_430\n      jump\t// in\n    tag_703:\n        /* \"#utility.yul\":38983:39007   */\n      swap3\n      pop\n        /* \"#utility.yul\":39031:39032   */\n      dup3\n        /* \"#utility.yul\":39028:39029   */\n      dup3\n        /* \"#utility.yul\":39024:39033   */\n      sub\n        /* \"#utility.yul\":39016:39033   */\n      swap1\n      pop\n        /* \"#utility.yul\":39225:39226   */\n      dup2\n        /* \"#utility.yul\":39219:39223   */\n      dup2\n        /* \"#utility.yul\":39215:39227   */\n      slt\n        /* \"#utility.yul\":39211:39212   */\n      0x00\n        /* \"#utility.yul\":39208:39209   */\n      dup5\n        /* \"#utility.yul\":39204:39213   */\n      slt\n        /* \"#utility.yul\":39200:39228   */\n      and\n        /* \"#utility.yul\":39183:39184   */\n      dup3\n        /* \"#utility.yul\":39177:39181   */\n      dup3\n        /* \"#utility.yul\":39173:39185   */\n      sgt\n        /* \"#utility.yul\":39168:39169   */\n      0x00\n        /* \"#utility.yul\":39165:39166   */\n      dup6\n        /* \"#utility.yul\":39161:39170   */\n      slt\n        /* \"#utility.yul\":39154:39171   */\n      iszero\n        /* \"#utility.yul\":39150:39186   */\n      and\n        /* \"#utility.yul\":39134:39238   */\n      or\n        /* \"#utility.yul\":39131:39261   */\n      iszero\n      tag_704\n      jumpi\n        /* \"#utility.yul\":39241:39259   */\n      tag_705\n      tag_370\n      jump\t// in\n    tag_705:\n        /* \"#utility.yul\":39131:39261   */\n    tag_704:\n        /* \"#utility.yul\":38896:39268   */\n      swap3\n      swap2\n      pop\n      pop\n      jump\t// out\n    stop\n    data_2a6038b82ef6c49cd128e46cc9b57978d0abb0b40d390f18c821daa0e66695ce 0101030803010001a80020a95566ba42e886bb804cda84e47ef56dbd7aec612615552cec906d2116d0ef207028c51554144dfeafe7c7cb8f005dd18234133ac0710a81182ce1fd14ad2283bc83435f9df2f6313251931a176df0da51e54f42e604860dfb359580250f559cc543c4ffd51cbe3de8cfd06719237f9fc47ee729da06835fa452e825e9a18ebc2ecbcf563474652c33cf56a9033bcdf5d973121797ec8089041b6e03a1b72d0a735b984e03687309332324f27c2dba85e9db15e83a0143382e974b0621c18e625ecec907577d9e7bade95241a81ebbe8a901d4d3276e40b114c0a2e6fc38d19c2e6aab02644b2813f575fc21601e0dee49cd9ee96a43103e524d62873d\n    data_2be826a96b15ea9dc899f081cf4dc1d8c2a818c2d43ca0f64e723cc452de14fe 0101030803010001acffb409bcc939f831f7a1e5ec88f7a59255ec53040be432027390a4ce896d6f9086f3c5e177fbfe118163aaec7af1462c47945944c4e2c026be5e98bbcded25978272e1e3e079c5094d573f0e83c92f02b32d3513b1550b826929c80dd0f92cac966d17769fd5867b647c3f38029abdc48152eb8f207159ecc5d232c7c1537c79f4b7ac28ff11682f21681bf6d6aba555032bf6f9f036beb2aaa5b3778d6eebfba6bf9ea191be4ab0caea759e2f773a1f9029c73ecb8d5735b9321db085f1b8e2d8038fe2941992548cee0d67dd4547e11dd63af9c9fc1c5466fb684cf009d7197c2cf79e792ab501e6a8a1ca519af2cb9b5f6367e94c0d47502451357be1b5\n    data_7874deaf77e6515b6984466873912a5efb4e4361c374564c916b56f1d2093fef 0161000001000100000e1000047400000101620161000001000100000e100004c0a80101\n    data_9af7e7e0768f18374b9fd74711188f6f0b94bad3360e7dfca2c402fe1ab45a65 0100030503010001bfa54c38d909fabb0f937d70d775ba0df4c0badb09707d995249406950407a621c794c68b186b15dbf8f9f9ea231e9f96414ccda4eceb50b17a9ac6c4bd4b95da04849e96ee791578b703bc9ae184fb1794bac792a0787f693a40f19f523ee6dbd3599dbaaa9a50437926ecf6438845d1d49448962524f2a1a7a36b3a0a1eca3\n    data_c7a0ab182ed40bafd9bc44e2ddf37a4352f56d00d9c464faefe015a51eefa4b6 010003050440000003ba2fa05a75e173bede89eb71831ab14035f2408ad09df4d8dc8f8f72e8f13506feaddf7b04cb14958b82966e3420562302c4002bc4fd088432e160519bb14dae82443850c1423e06085710b5caf070d46b7ba7e481414f6a5fe225fdca984c959091645d0cf1c9a1a313d7e7fb7ba60b967b71a65f8cef2c3768e11b081c8fcf\n    data_d2de1156772674a7a42cfad681d320a615b4afbe2aedd44999f24e5a9f3e3b59 2130313233343536373839303132333435363738393031323334353637383930316131303132333435363738393031323334353637383930313233343536373839303132333435363738393031323334353637380365746800\n    data_fcc6f36122078655b172d91213dbc1dc00a95fa513024ed118f5297b9210d932 223031323334353637383930313233343536373839303132333435363738393031613031303132333435363738393031323334353637383930313233343536373839303132333435363738393031323334353637380365746800\n\n    auxdata: 0xa264697066735822122070479f92b16d8dd1c6054252cbd968452dcb1bf8424f6cf93623e319e26c285964736f6c63430008140033\n}\n",
				"bytecode": {
					"linkReferences": {},
					"object": "608060405234801561001057600080fd5b50613666806100206000396000f3fe608060405234801561001057600080fd5b50600436106100625760003560e01c80630250cf9a14610067578063706fc4de14610071578063976e62ac1461007b5780639e4a090d14610085578063bb73daed1461008f578063cc60617b14610099575b600080fd5b61006f6100a3565b005b610079610227565b005b610083610599565b005b61008d610d1b565b005b610097610eec565b005b6100a161105e565b005b60016100cf6000604051806040016040528060018152602001600081525061126d90919063ffffffff16565b1461010f576040517f08c379a000000000000000000000000000000000000000000000000000000000815260040161010690611e80565b60405180910390fd5b600161015a60046040518060400160405280600581526020017f036162630000000000000000000000000000000000000000000000000000000081525061126d90919063ffffffff16565b1461019a576040517f08c379a000000000000000000000000000000000000000000000000000000000815260040161019190611e80565b60405180910390fd5b60056101e560006040518060400160405280600581526020017f036162630000000000000000000000000000000000000000000000000000000081525061126d90919063ffffffff16565b14610225576040517f08c379a000000000000000000000000000000000000000000000000000000000815260040161021c90611eec565b60405180910390fd5b565b6000604051806060016040528060248152602001613449602491399050600060405180604001604052806040518060400160405280600381526020017f016100000000000000000000000000000000000000000000000000000000000081525081526020016040518060400160405280600581526020017f01620161000000000000000000000000000000000000000000000000000000008152508152509050600060405180604001604052806040518060400160405280600481526020017f740000010000000000000000000000000000000000000000000000000000000081525081526020016040518060400160405280600481526020017fc0a801010000000000000000000000000000000000000000000000000000000081525081525090506000806103616000866112e990919063ffffffff16565b90505b61036d81611313565b61054f576001816040015161ffff16146103bc576040517f08c379a00000000000000000000000000000000000000000000000000000000081526004016103b390611f58565b60405180910390fd5b6001816060015161ffff1614610407576040517f08c379a00000000000000000000000000000000000000000000000000000000081526004016103fe90611fc4565b60405180910390fd5b610e10816080015163ffffffff1614610455576040517f08c379a000000000000000000000000000000000000000000000000000000000815260040161044c90612030565b60405180910390fd5b83826002811061046857610467612050565b5b60200201518051906020012061047d82611329565b80519060200120146104c4576040517f08c379a00000000000000000000000000000000000000000000000000000000081526004016104bb906120cb565b60405180910390fd5b8282600281106104d7576104d6612050565b5b6020020151805190602001206104ec82611360565b8051906020012014610533576040517f08c379a000000000000000000000000000000000000000000000000000000000815260040161052a90612137565b60405180910390fd5b818061053e90612190565b92505061054a81611399565b610364565b5060028114610593576040517f08c379a000000000000000000000000000000000000000000000000000000000815260040161058a90612224565b60405180910390fd5b50505050565b60006040518060400160405280600c81526020017f066274686c61620378797a000000000000000000000000000000000000000000815250905060006040518060400160405280600c81526020017f066574686c61620378797a000000000000000000000000000000000000000000815250905060006040518060400160405280600581526020017f0378797a00000000000000000000000000000000000000000000000000000000815250905060006040518060400160405280600781526020017f0161016201630000000000000000000000000000000000000000000000000000815250905060006040518060400160405280600781526020017f0162016201630000000000000000000000000000000000000000000000000000815250905060006040518060400160405280600381526020017f0163000000000000000000000000000000000000000000000000000000000000815250905060006040518060400160405280600381526020017f0164000000000000000000000000000000000000000000000000000000000000815250905060006040518060400160405280600781526020017f0161016401630000000000000000000000000000000000000000000000000000815250905060006040518060400160405280600781526020017f0162016101630000000000000000000000000000000000000000000000000000815250905060006040518060400160405280600881526020017f0261620163016400000000000000000000000000000000000000000000000000815250905060006040518060400160405280600781526020017f0161016301640000000000000000000000000000000000000000000000000000815250905060006040518060800160405280605a81526020016135d7605a91399050600060405180608001604052806059815260200161357e60599139905060006108d06040518060400160405280600581526020017f03026162000000000000000000000000000000000000000000000000000000008152506040518060400160405280600581526020017f03016161000000000000000000000000000000000000000000000000000000008152506114df90919063ffffffff16565b12610910576040517f08c379a0000000000000000000000000000000000000000000000000000000008152600401610907906122b6565b60405180910390fd5b6000610925898c6114df90919063ffffffff16565b13610965576040517f08c379a000000000000000000000000000000000000000000000000000000000815260040161095c90612348565b60405180910390fd5b600061097a888c6114df90919063ffffffff16565b126109ba576040517f08c379a00000000000000000000000000000000000000000000000000000000081526004016109b190612400565b60405180910390fd5b60006109cf878c6114df90919063ffffffff16565b12610a0f576040517f08c379a0000000000000000000000000000000000000000000000000000000008152600401610a0690612492565b60405180910390fd5b6000610a24868c6114df90919063ffffffff16565b13610a64576040517f08c379a0000000000000000000000000000000000000000000000000000000008152600401610a5b90612524565b60405180910390fd5b6000610a7984866114df90919063ffffffff16565b13610ab9576040517f08c379a0000000000000000000000000000000000000000000000000000000008152600401610ab0906125dc565b60405180910390fd5b6000610ace8a8c6114df90919063ffffffff16565b12610b0e576040517f08c379a0000000000000000000000000000000000000000000000000000000008152600401610b05906125dc565b60405180910390fd5b6000610b238d8d6114df90919063ffffffff16565b12610b63576040517f08c379a0000000000000000000000000000000000000000000000000000000008152600401610b5a90612648565b60405180910390fd5b6000610b788d8f6114df90919063ffffffff16565b12610bb8576040517f08c379a0000000000000000000000000000000000000000000000000000000008152600401610baf906126da565b60405180910390fd5b6000610bcd8e8f6114df90919063ffffffff16565b14610c0d576040517f08c379a0000000000000000000000000000000000000000000000000000000008152600401610c049061276c565b60405180910390fd5b6000610c228e8e6114df90919063ffffffff16565b13610c62576040517f08c379a0000000000000000000000000000000000000000000000000000000008152600401610c59906127fe565b60405180910390fd5b6000610c778c8f6114df90919063ffffffff16565b13610cb7576040517f08c379a0000000000000000000000000000000000000000000000000000000008152600401610cae9061286a565b60405180910390fd5b6000610ccc82846114df90919063ffffffff16565b13610d0c576040517f08c379a0000000000000000000000000000000000000000000000000000000008152600401610d03906128fc565b60405180910390fd5b50505050505050505050505050565b610d2760016000611691565b610d66576040517f08c379a0000000000000000000000000000000000000000000000000000000008152600401610d5d90612968565b60405180910390fd5b610d7260006001611691565b15610db2576040517f08c379a0000000000000000000000000000000000000000000000000000000008152600401610da9906129d4565b60405180910390fd5b610dc1600063ffffffff611691565b610e00576040517f08c379a0000000000000000000000000000000000000000000000000000000008152600401610df790612a40565b60405180910390fd5b610e0f63ffffffff6000611691565b15610e4f576040517f08c379a0000000000000000000000000000000000000000000000000000000008152600401610e4690612aac565b60405180910390fd5b610e61631111111163aaaaaaaa611691565b610ea0576040517f08c379a0000000000000000000000000000000000000000000000000000000008152600401610e9790612b18565b60405180910390fd5b610eab600180611691565b610eea576040517f08c379a0000000000000000000000000000000000000000000000000000000008152600401610ee190612b84565b60405180910390fd5b565b614a5c610f13604051806101400160405280610108815260200161323961010891396116a4565b61ffff1614610f57576040517f08c379a0000000000000000000000000000000000000000000000000000000008152600401610f4e90612bf0565b60405180910390fd5b6154bd610f7b6040518060c00160405280608981526020016134f5608991396116a4565b61ffff1614610fbf576040517f08c379a0000000000000000000000000000000000000000000000000000000008152600401610fb690612c5c565b60405180910390fd5b61835e610fe36040518060c001604052806088815260200161346d608891396116a4565b61ffff1614610ff157600080fd5b614f66611018604051806101400160405280610108815260200161334161010891396116a4565b61ffff161461105c576040517f08c379a000000000000000000000000000000000000000000000000000000000815260040161105390612cc8565b60405180910390fd5b565b600061108a600060405180604001604052806001815260200160008152506118ec90919063ffffffff16565b146110ca576040517f08c379a00000000000000000000000000000000000000000000000000000000081526004016110c190612d34565b60405180910390fd5b600161111560006040518060400160405280600381526020017f01610000000000000000000000000000000000000000000000000000000000008152506118ec90919063ffffffff16565b14611155576040517f08c379a000000000000000000000000000000000000000000000000000000000815260040161114c90612da0565b60405180910390fd5b60026111a060006040518060400160405280600681526020017f01620161000000000000000000000000000000000000000000000000000000008152506118ec90919063ffffffff16565b146111e0576040517f08c379a00000000000000000000000000000000000000000000000000000000081526004016111d790612e0c565b60405180910390fd5b600161122b60076040518060400160405280600c81526020017f066574686c61620378797a0000000000000000000000000000000000000000008152506118ec90919063ffffffff16565b1461126b576040517f08c379a000000000000000000000000000000000000000000000000000000000815260040161126290612e78565b60405180910390fd5b565b6000808290505b6001156112d4578351811061128c5761128b612e98565b5b60006112a1828661196d90919063ffffffff16565b60ff1690506001816112b39190612ec7565b826112be9190612ec7565b9150600081036112ce57506112d4565b50611274565b82816112e09190612efb565b91505092915050565b6112f1611dd8565b828160000181905250818160c001818152505061130d81611399565b92915050565b6000816000015151826020015110159050919050565b606061135982602001516113458460000151856020015161126d565b84600001516119989092919063ffffffff16565b9050919050565b60606113928260a001518360a001518460c0015161137e9190612efb565b84600001516119989092919063ffffffff16565b9050919050565b8060c00151816020018181525050806000015151816020015110156114dc5760006113cc8260000151836020015161126d565b82602001516113db9190612ec7565b90506113f4818360000151611a2d90919063ffffffff16565b826040019061ffff16908161ffff16815250506002816114149190612ec7565b905061142d818360000151611a2d90919063ffffffff16565b826060019061ffff16908161ffff168152505060028161144d9190612ec7565b9050611466818360000151611a5c90919063ffffffff16565b826080019063ffffffff16908163ffffffff168152505060048161148a9190612ec7565b905060006114a5828460000151611a2d90919063ffffffff16565b61ffff1690506002826114b89190612ec7565b9150818360a001818152505080826114d09190612ec7565b8360c001818152505050505b50565b60006114f48284611a8d90919063ffffffff16565b15611502576000905061168b565b60008060008060006115158860006118ec565b905060006115248860006118ec565b90505b808211156115515785935061153c8987611ab4565b9550818061154990612f2f565b925050611527565b5b8181111561157c578492506115678886611ab4565b9450808061157490612f2f565b915050611552565b5b6000821180156115a1575061159f8689878c611aeb909392919063ffffffff16565b155b156115d8578593506115b38987611ab4565b95508492506115c28886611ab4565b94506001826115d19190612efb565b915061157d565b6000860361160e577fffffffffffffffffffffffffffffffffffffffffffffffffffffffffffffffff965050505050505061168b565b60008503611625576001965050505050505061168b565b6116826001856116359190612ec7565b611648868c61196d90919063ffffffff16565b60ff168a6001876116599190612ec7565b61166c888e61196d90919063ffffffff16565b60ff168e611b269095949392919063ffffffff16565b96505050505050505b92915050565b60008082840360030b1215905092915050565b6000612000825111156116ec576040517f08c379a00000000000000000000000000000000000000000000000000000000081526004016116e390612fa4565b60405180910390fd5b60008060005b601f85510181101561178c576000816020870101519050855160208301111561172f57600060088388510302610100039050808183901c901b9150505b60087fff00ff00ff00ff00ff00ff00ff00ff00ff00ff00ff00ff00ff00ff00ff00ff008216901c840193507eff00ff00ff00ff00ff00ff00ff00ff00ff00ff00ff00ff00ff00ff00ff00ff811683019250506020810190506116f2565b5060107fffff0000ffff0000ffff0000ffff0000ffff0000ffff0000ffff0000ffff00008316901c7dffff0000ffff0000ffff0000ffff0000ffff0000ffff0000ffff0000ffff831601915060107fffff0000ffff0000ffff0000ffff0000ffff0000ffff0000ffff0000ffff00008216901c7dffff0000ffff0000ffff0000ffff0000ffff0000ffff0000ffff0000ffff821601905080600883901b01915060207fffffffff00000000ffffffff00000000ffffffff00000000ffffffff000000008316901c7bffffffff00000000ffffffff00000000ffffffff00000000ffffffff831601915060407fffffffffffffffff0000000000000000ffffffffffffffff00000000000000008316901c77ffffffffffffffff0000000000000000ffffffffffffffff8316019150608082901c6fffffffffffffffffffffffffffffffff831601915061ffff601083901c16820191508192505050919050565b600080600090505b600115611963578351831061190c5761190b612e98565b5b6000611921848661196d90919063ffffffff16565b60ff1690506001816119339190612ec7565b8461193e9190612ec7565b93506000810361194e5750611963565b60018261195b9190612ec7565b9150506118f4565b8091505092915050565b600082828151811061198257611981612050565b5b602001015160f81c60f81b60f81c905092915050565b6060835182846119a89190612ec7565b11156119b357600080fd5b60008267ffffffffffffffff8111156119cf576119ce612fc4565b5b6040519080825280601f01601f191660200182016040528015611a015781602001600182028036833780820191505090505b5090506000806020830191508560208801019050611a20828287611d24565b8293505050509392505050565b60008251600283611a3e9190612ec7565b1115611a4957600080fd5b61ffff8260028501015116905092915050565b60008251600483611a6d9190612ec7565b1115611a7857600080fd5b63ffffffff8260048501015116905092915050565b600081518351148015611aac5750611aab8360008460008751611d88565b5b905092915050565b6000611ac9828461196d90919063ffffffff16565b60ff16600183611ad99190612ec7565b611ae39190612ec7565b905092915050565b6000611b048383848651611aff9190612efb565b611dac565b611b1b8686878951611b169190612efb565b611dac565b149050949350505050565b600086518587611b369190612ec7565b1115611b87578486611b489190612ec7565b87516040517f8a3c1cfb000000000000000000000000000000000000000000000000000000008152600401611b7e929190613002565b60405180910390fd5b83518284611b959190612ec7565b1115611be6578183611ba79190612ec7565b84516040517f8a3c1cfb000000000000000000000000000000000000000000000000000000008152600401611bdd929190613002565b60405180910390fd5b600085905085831015611bf7578290505b600080602089018a019150602086018701905060005b83811015611d07576000808451915083519050808214611cd357600060208488611c379190612efb565b10611c64577fffffffffffffffffffffffffffffffffffffffffffffffffffffffffffffffff9050611ca4565b600187602086611c749190612ec7565b611c7e9190612efb565b6008611c8a919061302b565b6002611c9691906131a0565b611ca09190612efb565b1990505b6000818316828516611cb691906131f5565b905060008114611cd0578098505050505050505050611d1a565b50505b602085611ce09190612ec7565b9450602084611cef9190612ec7565b93505050602081611d009190612ec7565b9050611c0d565b508488611d1491906131f5565b93505050505b9695505050505050565b5b60208110611d635781518352602083611d3e9190612ec7565b9250602082611d4d9190612ec7565b9150602081611d5c9190612efb565b9050611d25565b60006001826020036101000a0390508019835116818551168181178652505050505050565b6000611d95848484611dac565b611da0878785611dac565b14905095945050505050565b600083518284611dbc9190612ec7565b1115611dc757600080fd5b818360208601012090509392505050565b6040518060e001604052806060815260200160008152602001600061ffff168152602001600061ffff168152602001600063ffffffff16815260200160008152602001600081525090565b600082825260208201905092915050565b7f6e616d654c656e67746828272e2729203d3d2031000000000000000000000000600082015250565b6000611e6a601483611e23565b9150611e7582611e34565b602082019050919050565b60006020820190508181036000830152611e9981611e5d565b9050919050565b7f6e616d654c656e67746828276162632e2729203d3d2035000000000000000000600082015250565b6000611ed6601783611e23565b9150611ee182611ea0565b602082019050919050565b60006020820190508181036000830152611f0581611ec9565b9050919050565b7f54797065206d6174636865730000000000000000000000000000000000000000600082015250565b6000611f42600c83611e23565b9150611f4d82611f0c565b602082019050919050565b60006020820190508181036000830152611f7181611f35565b9050919050565b7f436c617373206d61746368657300000000000000000000000000000000000000600082015250565b6000611fae600d83611e23565b9150611fb982611f78565b602082019050919050565b60006020820190508181036000830152611fdd81611fa1565b9050919050565b7f54544c206d617463686573000000000000000000000000000000000000000000600082015250565b600061201a600b83611e23565b915061202582611fe4565b602082019050919050565b600060208201905081810360008301526120498161200d565b9050919050565b7f4e487b7100000000000000000000000000000000000000000000000000000000600052603260045260246000fd5b7f4e616d65206d6174636865730000000000000000000000000000000000000000600082015250565b60006120b5600c83611e23565b91506120c08261207f565b602082019050919050565b600060208201905081810360008301526120e4816120a8565b9050919050565b7f5264617461206d61746368657300000000000000000000000000000000000000600082015250565b6000612121600d83611e23565b915061212c826120eb565b602082019050919050565b6000602082019050818103600083015261215081612114565b9050919050565b7f4e487b7100000000000000000000000000000000000000000000000000000000600052601160045260246000fd5b6000819050919050565b600061219b82612186565b91507fffffffffffffffffffffffffffffffffffffffffffffffffffffffffffffffff82036121cd576121cc612157565b5b600182019050919050565b7f45787065637465642032207265636f7264730000000000000000000000000000600082015250565b600061220e601283611e23565b9150612219826121d8565b602082019050919050565b6000602082019050818103600083015261223d81612201565b9050919050565b7f6c6162656c206c656e677468732061726520636f72726563746c79206368656360008201527f6b65640000000000000000000000000000000000000000000000000000000000602082015250565b60006122a0602383611e23565b91506122ab82612244565b604082019050919050565b600060208201905081810360008301526122cf81612293565b9050919050565b7f6f6e65206e616d6520686173206120646966666572656e6365206f66203e312060008201527f6c6162656c20746f2077697468207468652073616d6520726f6f74206e616d65602082015250565b6000612332604083611e23565b915061233d826122d6565b604082019050919050565b6000602082019050818103600083015261236181612325565b9050919050565b7f6f6e65206e616d6520686173206120646966666572656e6365206f66203e312060008201527f6c6162656c20746f207769746820646966666572656e7420726f6f74206e616d60208201527f6500000000000000000000000000000000000000000000000000000000000000604082015250565b60006123ea604183611e23565b91506123f582612368565b606082019050919050565b60006020820190508181036000830152612419816123dd565b9050919050565b7f74776f206e616d6573207374617274207468652073616d65206275742068617660008201527f6520646966666572656e63657320696e206c61746572206c6162656c73000000602082015250565b600061247c603d83611e23565b915061248782612420565b604082019050919050565b600060208201905081810360008301526124ab8161246f565b9050919050565b7f746865206669727374206c6162656c20736f727473206c617465722c2062757460008201527f20746865206669727374206c6162656c20736f727473206561726c6965720000602082015250565b600061250e603e83611e23565b9150612519826124b2565b604082019050919050565b6000602082019050818103600083015261253d81612501565b9050919050565b7f74776f206e616d657320776865726520746865206669727374206c6162656c2060008201527f6f6e206f6e65206973206120707265666978206f66207468652066697273742060208201527f6c6162656c206f6e20746865206f746865720000000000000000000000000000604082015250565b60006125c6605283611e23565b91506125d182612544565b606082019050919050565b600060208201905081810360008301526125f5816125b9565b9050919050565b7f78797a20636f6d6573206265666f7265206574684c61622e78797a0000000000600082015250565b6000612632601b83611e23565b915061263d826125fc565b602082019050919050565b6000602082019050818103600083015261266181612625565b9050919050565b7f6274684c61622e78797a20636f6d6573206265666f7265206574684c61622e7860008201527f797a000000000000000000000000000000000000000000000000000000000000602082015250565b60006126c4602283611e23565b91506126cf82612668565b604082019050919050565b600060208201905081810360008301526126f3816126b7565b9050919050565b7f6274684c61622e78797a20616e64206274684c61622e78797a2061726520746860008201527f652073616d650000000000000000000000000000000000000000000000000000602082015250565b6000612756602683611e23565b9150612761826126fa565b604082019050919050565b6000602082019050818103600083015261278581612749565b9050919050565b7f6574684c61622e78797a20636f6d657320616674657220626574684c61622e7860008201527f797a000000000000000000000000000000000000000000000000000000000000602082015250565b60006127e8602283611e23565b91506127f38261278c565b604082019050919050565b60006020820190508181036000830152612817816127db565b9050919050565b7f6274684c61622e78797a20636f6d65732061667465722078797a000000000000600082015250565b6000612854601a83611e23565b915061285f8261281e565b602082019050919050565b6000602082019050818103600083015261288381612847565b9050919050565b7f6c6f6e67612e766c6f6e672e65746820636f6d6573206166746572206c6f6e6760008201527f2e766c6f6e672e65746800000000000000000000000000000000000000000000602082015250565b60006128e6602a83611e23565b91506128f18261288a565b604082019050919050565b60006020820190508181036000830152612915816128d9565b9050919050565b7f31203e3d20300000000000000000000000000000000000000000000000000000600082015250565b6000612952600683611e23565b915061295d8261291c565b602082019050919050565b6000602082019050818103600083015261298181612945565b9050919050565b7f212830203c3d2031290000000000000000000000000000000000000000000000600082015250565b60006129be600983611e23565b91506129c982612988565b602082019050919050565b600060208201905081810360008301526129ed816129b1565b9050919050565b7f30203e3d20307846464646464646460000000000000000000000000000000000600082015250565b6000612a2a600f83611e23565b9150612a35826129f4565b602082019050919050565b60006020820190508181036000830152612a5981612a1d565b9050919050565b7f212830203c3d2030784646464646464646290000000000000000000000000000600082015250565b6000612a96601283611e23565b9150612aa182612a60565b602082019050919050565b60006020820190508181036000830152612ac581612a89565b9050919050565b7f30783131313131313131203e3d20307841414141414141410000000000000000600082015250565b6000612b02601883611e23565b9150612b0d82612acc565b602082019050919050565b60006020820190508181036000830152612b3181612af5565b9050919050565b7f31203e3d20310000000000000000000000000000000000000000000000000000600082015250565b6000612b6e600683611e23565b9150612b7982612b38565b602082019050919050565b60006020820190508181036000830152612b9d81612b61565b9050919050565b7f496e76616c6964206b6579746167000000000000000000000000000000000000600082015250565b6000612bda600e83611e23565b9150612be582612ba4565b602082019050919050565b60006020820190508181036000830152612c0981612bcd565b9050919050565b7f496e76616c6964206b6579746167202832290000000000000000000000000000600082015250565b6000612c46601283611e23565b9150612c5182612c10565b602082019050919050565b60006020820190508181036000830152612c7581612c39565b9050919050565b7f496e76616c6964206b6579746167202833290000000000000000000000000000600082015250565b6000612cb2601283611e23565b9150612cbd82612c7c565b602082019050919050565b60006020820190508181036000830152612ce181612ca5565b9050919050565b7f6c6162656c436f756e7428272e2729203d3d2030000000000000000000000000600082015250565b6000612d1e601483611e23565b9150612d2982612ce8565b602082019050919050565b60006020820190508181036000830152612d4d81612d11565b9050919050565b7f6c6162656c436f756e742827612e2729203d3d20310000000000000000000000600082015250565b6000612d8a601583611e23565b9150612d9582612d54565b602082019050919050565b60006020820190508181036000830152612db981612d7d565b9050919050565b7f6c6162656c436f756e742827622e612e2729203d3d2032000000000000000000600082015250565b6000612df6601783611e23565b9150612e0182612dc0565b602082019050919050565b60006020820190508181036000830152612e2581612de9565b9050919050565b7f6e616d654c656e6774682827286274686c6162292e78797a2e2729203d3d2036600082015250565b6000612e62602083611e23565b9150612e6d82612e2c565b602082019050919050565b60006020820190508181036000830152612e9181612e55565b9050919050565b7f4e487b7100000000000000000000000000000000000000000000000000000000600052600160045260246000fd5b6000612ed282612186565b9150612edd83612186565b9250828201905080821115612ef557612ef4612157565b5b92915050565b6000612f0682612186565b9150612f1183612186565b9250828203905081811115612f2957612f28612157565b5b92915050565b6000612f3a82612186565b915060008203612f4d57612f4c612157565b5b600182039050919050565b7f4c6f6e67206b657973206e6f74207065726d6974746564000000000000000000600082015250565b6000612f8e601783611e23565b9150612f9982612f58565b602082019050919050565b60006020820190508181036000830152612fbd81612f81565b9050919050565b7f4e487b7100000000000000000000000000000000000000000000000000000000600052604160045260246000fd5b612ffc81612186565b82525050565b60006040820190506130176000830185612ff3565b6130246020830184612ff3565b9392505050565b600061303682612186565b915061304183612186565b925082820261304f81612186565b9150828204841483151761306657613065612157565b5b5092915050565b60008160011c9050919050565b6000808291508390505b60018511156130c4578086048111156130a05761309f612157565b5b60018516156130af5780820291505b80810290506130bd8561306d565b9450613084565b94509492505050565b6000826130dd5760019050613199565b816130eb5760009050613199565b8160018114613101576002811461310b5761313a565b6001915050613199565b60ff84111561311d5761311c612157565b5b8360020a91508482111561313457613133612157565b5b50613199565b5060208310610133831016604e8410600b841016171561316f5782820a90508381111561316a57613169612157565b5b613199565b61317c848484600161307a565b9250905081840481111561319357613192612157565b5b81810290505b9392505050565b60006131ab82612186565b91506131b683612186565b92506131e37fffffffffffffffffffffffffffffffffffffffffffffffffffffffffffffffff84846130cd565b905092915050565b6000819050919050565b6000613200826131eb565b915061320b836131eb565b925082820390508181126000841216828213600085121516171561323257613231612157565b5b9291505056fe0101030803010001a80020a95566ba42e886bb804cda84e47ef56dbd7aec612615552cec906d2116d0ef207028c51554144dfeafe7c7cb8f005dd18234133ac0710a81182ce1fd14ad2283bc83435f9df2f6313251931a176df0da51e54f42e604860dfb359580250f559cc543c4ffd51cbe3de8cfd06719237f9fc47ee729da06835fa452e825e9a18ebc2ecbcf563474652c33cf56a9033bcdf5d973121797ec8089041b6e03a1b72d0a735b984e03687309332324f27c2dba85e9db15e83a0143382e974b0621c18e625ecec907577d9e7bade95241a81ebbe8a901d4d3276e40b114c0a2e6fc38d19c2e6aab02644b2813f575fc21601e0dee49cd9ee96a43103e524d62873d0101030803010001acffb409bcc939f831f7a1e5ec88f7a59255ec53040be432027390a4ce896d6f9086f3c5e177fbfe118163aaec7af1462c47945944c4e2c026be5e98bbcded25978272e1e3e079c5094d573f0e83c92f02b32d3513b1550b826929c80dd0f92cac966d17769fd5867b647c3f38029abdc48152eb8f207159ecc5d232c7c1537c79f4b7ac28ff11682f21681bf6d6aba555032bf6f9f036beb2aaa5b3778d6eebfba6bf9ea191be4ab0caea759e2f773a1f9029c73ecb8d5735b9321db085f1b8e2d8038fe2941992548cee0d67dd4547e11dd63af9c9fc1c5466fb684cf009d7197c2cf79e792ab501e6a8a1ca519af2cb9b5f6367e94c0d47502451357be1b50161000001000100000e1000047400000101620161000001000100000e100004c0a801010100030503010001bfa54c38d909fabb0f937d70d775ba0df4c0badb09707d995249406950407a621c794c68b186b15dbf8f9f9ea231e9f96414ccda4eceb50b17a9ac6c4bd4b95da04849e96ee791578b703bc9ae184fb1794bac792a0787f693a40f19f523ee6dbd3599dbaaa9a50437926ecf6438845d1d49448962524f2a1a7a36b3a0a1eca3010003050440000003ba2fa05a75e173bede89eb71831ab14035f2408ad09df4d8dc8f8f72e8f13506feaddf7b04cb14958b82966e3420562302c4002bc4fd088432e160519bb14dae82443850c1423e06085710b5caf070d46b7ba7e481414f6a5fe225fdca984c959091645d0cf1c9a1a313d7e7fb7ba60b967b71a65f8cef2c3768e11b081c8fcf2130313233343536373839303132333435363738393031323334353637383930316131303132333435363738393031323334353637383930313233343536373839303132333435363738393031323334353637380365746800223031323334353637383930313233343536373839303132333435363738393031613031303132333435363738393031323334353637383930313233343536373839303132333435363738393031323334353637380365746800a264697066735822122070479f92b16d8dd1c6054252cbd968452dcb1bf8424f6cf93623e319e26c285964736f6c63430008140033",
					"opcodes": "PUSH1 0x80 PUSH1 0x40 MSTORE CALLVALUE DUP1 ISZERO PUSH2 0x10 JUMPI PUSH1 0x0 DUP1 REVERT JUMPDEST POP PUSH2 0x3666 DUP1 PUSH2 0x20 PUSH1 0x0 CODECOPY PUSH1 0x0 RETURN INVALID PUSH1 0x80 PUSH1 0x40 MSTORE CALLVALUE DUP1 ISZERO PUSH2 0x10 JUMPI PUSH1 0x0 DUP1 REVERT JUMPDEST POP PUSH1 0x4 CALLDATASIZE LT PUSH2 0x62 JUMPI PUSH1 0x0 CALLDATALOAD PUSH1 0xE0 SHR DUP1 PUSH4 0x250CF9A EQ PUSH2 0x67 JUMPI DUP1 PUSH4 0x706FC4DE EQ PUSH2 0x71 JUMPI DUP1 PUSH4 0x976E62AC EQ PUSH2 0x7B JUMPI DUP1 PUSH4 0x9E4A090D EQ PUSH2 0x85 JUMPI DUP1 PUSH4 0xBB73DAED EQ PUSH2 0x8F JUMPI DUP1 PUSH4 0xCC60617B EQ PUSH2 0x99 JUMPI JUMPDEST PUSH1 0x0 DUP1 REVERT JUMPDEST PUSH2 0x6F PUSH2 0xA3 JUMP JUMPDEST STOP JUMPDEST PUSH2 0x79 PUSH2 0x227 JUMP JUMPDEST STOP JUMPDEST PUSH2 0x83 PUSH2 0x599 JUMP JUMPDEST STOP JUMPDEST PUSH2 0x8D PUSH2 0xD1B JUMP JUMPDEST STOP JUMPDEST PUSH2 0x97 PUSH2 0xEEC JUMP JUMPDEST STOP JUMPDEST PUSH2 0xA1 PUSH2 0x105E JUMP JUMPDEST STOP JUMPDEST PUSH1 0x1 PUSH2 0xCF PUSH1 0x0 PUSH1 0x40 MLOAD DUP1 PUSH1 0x40 ADD PUSH1 0x40 MSTORE DUP1 PUSH1 0x1 DUP2 MSTORE PUSH1 0x20 ADD PUSH1 0x0 DUP2 MSTORE POP PUSH2 0x126D SWAP1 SWAP2 SWAP1 PUSH4 0xFFFFFFFF AND JUMP JUMPDEST EQ PUSH2 0x10F JUMPI PUSH1 0x40 MLOAD PUSH32 0x8C379A000000000000000000000000000000000000000000000000000000000 DUP2 MSTORE PUSH1 0x4 ADD PUSH2 0x106 SWAP1 PUSH2 0x1E80 JUMP JUMPDEST PUSH1 0x40 MLOAD DUP1 SWAP2 SUB SWAP1 REVERT JUMPDEST PUSH1 0x1 PUSH2 0x15A PUSH1 0x4 PUSH1 0x40 MLOAD DUP1 PUSH1 0x40 ADD PUSH1 0x40 MSTORE DUP1 PUSH1 0x5 DUP2 MSTORE PUSH1 0x20 ADD PUSH32 0x361626300000000000000000000000000000000000000000000000000000000 DUP2 MSTORE POP PUSH2 0x126D SWAP1 SWAP2 SWAP1 PUSH4 0xFFFFFFFF AND JUMP JUMPDEST EQ PUSH2 0x19A JUMPI PUSH1 0x40 MLOAD PUSH32 0x8C379A000000000000000000000000000000000000000000000000000000000 DUP2 MSTORE PUSH1 0x4 ADD PUSH2 0x191 SWAP1 PUSH2 0x1E80 JUMP JUMPDEST PUSH1 0x40 MLOAD DUP1 SWAP2 SUB SWAP1 REVERT JUMPDEST PUSH1 0x5 PUSH2 0x1E5 PUSH1 0x0 PUSH1 0x40 MLOAD DUP1 PUSH1 0x40 ADD PUSH1 0x40 MSTORE DUP1 PUSH1 0x5 DUP2 MSTORE PUSH1 0x20 ADD PUSH32 0x361626300000000000000000000000000000000000000000000000000000000 DUP2 MSTORE POP PUSH2 0x126D SWAP1 SWAP2 SWAP1 PUSH4 0xFFFFFFFF AND JUMP JUMPDEST EQ PUSH2 0x225 JUMPI PUSH1 0x40 MLOAD PUSH32 0x8C379A000000000000000000000000000000000000000000000000000000000 DUP2 MSTORE PUSH1 0x4 ADD PUSH2 0x21C SWAP1 PUSH2 0x1EEC JUMP JUMPDEST PUSH1 0x40 MLOAD DUP1 SWAP2 SUB SWAP1 REVERT JUMPDEST JUMP JUMPDEST PUSH1 0x0 PUSH1 0x40 MLOAD DUP1 PUSH1 0x60 ADD PUSH1 0x40 MSTORE DUP1 PUSH1 0x24 DUP2 MSTORE PUSH1 0x20 ADD PUSH2 0x3449 PUSH1 0x24 SWAP2 CODECOPY SWAP1 POP PUSH1 0x0 PUSH1 0x40 MLOAD DUP1 PUSH1 0x40 ADD PUSH1 0x40 MSTORE DUP1 PUSH1 0x40 MLOAD DUP1 PUSH1 0x40 ADD PUSH1 0x40 MSTORE DUP1 PUSH1 0x3 DUP2 MSTORE PUSH1 0x20 ADD PUSH32 0x161000000000000000000000000000000000000000000000000000000000000 DUP2 MSTORE POP DUP2 MSTORE PUSH1 0x20 ADD PUSH1 0x40 MLOAD DUP1 PUSH1 0x40 ADD PUSH1 0x40 MSTORE DUP1 PUSH1 0x5 DUP2 MSTORE PUSH1 0x20 ADD PUSH32 0x162016100000000000000000000000000000000000000000000000000000000 DUP2 MSTORE POP DUP2 MSTORE POP SWAP1 POP PUSH1 0x0 PUSH1 0x40 MLOAD DUP1 PUSH1 0x40 ADD PUSH1 0x40 MSTORE DUP1 PUSH1 0x40 MLOAD DUP1 PUSH1 0x40 ADD PUSH1 0x40 MSTORE DUP1 PUSH1 0x4 DUP2 MSTORE PUSH1 0x20 ADD PUSH32 0x7400000100000000000000000000000000000000000000000000000000000000 DUP2 MSTORE POP DUP2 MSTORE PUSH1 0x20 ADD PUSH1 0x40 MLOAD DUP1 PUSH1 0x40 ADD PUSH1 0x40 MSTORE DUP1 PUSH1 0x4 DUP2 MSTORE PUSH1 0x20 ADD PUSH32 0xC0A8010100000000000000000000000000000000000000000000000000000000 DUP2 MSTORE POP DUP2 MSTORE POP SWAP1 POP PUSH1 0x0 DUP1 PUSH2 0x361 PUSH1 0x0 DUP7 PUSH2 0x12E9 SWAP1 SWAP2 SWAP1 PUSH4 0xFFFFFFFF AND JUMP JUMPDEST SWAP1 POP JUMPDEST PUSH2 0x36D DUP2 PUSH2 0x1313 JUMP JUMPDEST PUSH2 0x54F JUMPI PUSH1 0x1 DUP2 PUSH1 0x40 ADD MLOAD PUSH2 0xFFFF AND EQ PUSH2 0x3BC JUMPI PUSH1 0x40 MLOAD PUSH32 0x8C379A000000000000000000000000000000000000000000000000000000000 DUP2 MSTORE PUSH1 0x4 ADD PUSH2 0x3B3 SWAP1 PUSH2 0x1F58 JUMP JUMPDEST PUSH1 0x40 MLOAD DUP1 SWAP2 SUB SWAP1 REVERT JUMPDEST PUSH1 0x1 DUP2 PUSH1 0x60 ADD MLOAD PUSH2 0xFFFF AND EQ PUSH2 0x407 JUMPI PUSH1 0x40 MLOAD PUSH32 0x8C379A000000000000000000000000000000000000000000000000000000000 DUP2 MSTORE PUSH1 0x4 ADD PUSH2 0x3FE SWAP1 PUSH2 0x1FC4 JUMP JUMPDEST PUSH1 0x40 MLOAD DUP1 SWAP2 SUB SWAP1 REVERT JUMPDEST PUSH2 0xE10 DUP2 PUSH1 0x80 ADD MLOAD PUSH4 0xFFFFFFFF AND EQ PUSH2 0x455 JUMPI PUSH1 0x40 MLOAD PUSH32 0x8C379A000000000000000000000000000000000000000000000000000000000 DUP2 MSTORE PUSH1 0x4 ADD PUSH2 0x44C SWAP1 PUSH2 0x2030 JUMP JUMPDEST PUSH1 0x40 MLOAD DUP1 SWAP2 SUB SWAP1 REVERT JUMPDEST DUP4 DUP3 PUSH1 0x2 DUP2 LT PUSH2 0x468 JUMPI PUSH2 0x467 PUSH2 0x2050 JUMP JUMPDEST JUMPDEST PUSH1 0x20 MUL ADD MLOAD DUP1 MLOAD SWAP1 PUSH1 0x20 ADD KECCAK256 PUSH2 0x47D DUP3 PUSH2 0x1329 JUMP JUMPDEST DUP1 MLOAD SWAP1 PUSH1 0x20 ADD KECCAK256 EQ PUSH2 0x4C4 JUMPI PUSH1 0x40 MLOAD PUSH32 0x8C379A000000000000000000000000000000000000000000000000000000000 DUP2 MSTORE PUSH1 0x4 ADD PUSH2 0x4BB SWAP1 PUSH2 0x20CB JUMP JUMPDEST PUSH1 0x40 MLOAD DUP1 SWAP2 SUB SWAP1 REVERT JUMPDEST DUP3 DUP3 PUSH1 0x2 DUP2 LT PUSH2 0x4D7 JUMPI PUSH2 0x4D6 PUSH2 0x2050 JUMP JUMPDEST JUMPDEST PUSH1 0x20 MUL ADD MLOAD DUP1 MLOAD SWAP1 PUSH1 0x20 ADD KECCAK256 PUSH2 0x4EC DUP3 PUSH2 0x1360 JUMP JUMPDEST DUP1 MLOAD SWAP1 PUSH1 0x20 ADD KECCAK256 EQ PUSH2 0x533 JUMPI PUSH1 0x40 MLOAD PUSH32 0x8C379A000000000000000000000000000000000000000000000000000000000 DUP2 MSTORE PUSH1 0x4 ADD PUSH2 0x52A SWAP1 PUSH2 0x2137 JUMP JUMPDEST PUSH1 0x40 MLOAD DUP1 SWAP2 SUB SWAP1 REVERT JUMPDEST DUP2 DUP1 PUSH2 0x53E SWAP1 PUSH2 0x2190 JUMP JUMPDEST SWAP3 POP POP PUSH2 0x54A DUP2 PUSH2 0x1399 JUMP JUMPDEST PUSH2 0x364 JUMP JUMPDEST POP PUSH1 0x2 DUP2 EQ PUSH2 0x593 JUMPI PUSH1 0x40 MLOAD PUSH32 0x8C379A000000000000000000000000000000000000000000000000000000000 DUP2 MSTORE PUSH1 0x4 ADD PUSH2 0x58A SWAP1 PUSH2 0x2224 JUMP JUMPDEST PUSH1 0x40 MLOAD DUP1 SWAP2 SUB SWAP1 REVERT JUMPDEST POP POP POP POP JUMP JUMPDEST PUSH1 0x0 PUSH1 0x40 MLOAD DUP1 PUSH1 0x40 ADD PUSH1 0x40 MSTORE DUP1 PUSH1 0xC DUP2 MSTORE PUSH1 0x20 ADD PUSH32 0x66274686C61620378797A000000000000000000000000000000000000000000 DUP2 MSTORE POP SWAP1 POP PUSH1 0x0 PUSH1 0x40 MLOAD DUP1 PUSH1 0x40 ADD PUSH1 0x40 MSTORE DUP1 PUSH1 0xC DUP2 MSTORE PUSH1 0x20 ADD PUSH32 0x66574686C61620378797A000000000000000000000000000000000000000000 DUP2 MSTORE POP SWAP1 POP PUSH1 0x0 PUSH1 0x40 MLOAD DUP1 PUSH1 0x40 ADD PUSH1 0x40 MSTORE DUP1 PUSH1 0x5 DUP2 MSTORE PUSH1 0x20 ADD PUSH32 0x378797A00000000000000000000000000000000000000000000000000000000 DUP2 MSTORE POP SWAP1 POP PUSH1 0x0 PUSH1 0x40 MLOAD DUP1 PUSH1 0x40 ADD PUSH1 0x40 MSTORE DUP1 PUSH1 0x7 DUP2 MSTORE PUSH1 0x20 ADD PUSH32 0x161016201630000000000000000000000000000000000000000000000000000 DUP2 MSTORE POP SWAP1 POP PUSH1 0x0 PUSH1 0x40 MLOAD DUP1 PUSH1 0x40 ADD PUSH1 0x40 MSTORE DUP1 PUSH1 0x7 DUP2 MSTORE PUSH1 0x20 ADD PUSH32 0x162016201630000000000000000000000000000000000000000000000000000 DUP2 MSTORE POP SWAP1 POP PUSH1 0x0 PUSH1 0x40 MLOAD DUP1 PUSH1 0x40 ADD PUSH1 0x40 MSTORE DUP1 PUSH1 0x3 DUP2 MSTORE PUSH1 0x20 ADD PUSH32 0x163000000000000000000000000000000000000000000000000000000000000 DUP2 MSTORE POP SWAP1 POP PUSH1 0x0 PUSH1 0x40 MLOAD DUP1 PUSH1 0x40 ADD PUSH1 0x40 MSTORE DUP1 PUSH1 0x3 DUP2 MSTORE PUSH1 0x20 ADD PUSH32 0x164000000000000000000000000000000000000000000000000000000000000 DUP2 MSTORE POP SWAP1 POP PUSH1 0x0 PUSH1 0x40 MLOAD DUP1 PUSH1 0x40 ADD PUSH1 0x40 MSTORE DUP1 PUSH1 0x7 DUP2 MSTORE PUSH1 0x20 ADD PUSH32 0x161016401630000000000000000000000000000000000000000000000000000 DUP2 MSTORE POP SWAP1 POP PUSH1 0x0 PUSH1 0x40 MLOAD DUP1 PUSH1 0x40 ADD PUSH1 0x40 MSTORE DUP1 PUSH1 0x7 DUP2 MSTORE PUSH1 0x20 ADD PUSH32 0x162016101630000000000000000000000000000000000000000000000000000 DUP2 MSTORE POP SWAP1 POP PUSH1 0x0 PUSH1 0x40 MLOAD DUP1 PUSH1 0x40 ADD PUSH1 0x40 MSTORE DUP1 PUSH1 0x8 DUP2 MSTORE PUSH1 0x20 ADD PUSH32 0x261620163016400000000000000000000000000000000000000000000000000 DUP2 MSTORE POP SWAP1 POP PUSH1 0x0 PUSH1 0x40 MLOAD DUP1 PUSH1 0x40 ADD PUSH1 0x40 MSTORE DUP1 PUSH1 0x7 DUP2 MSTORE PUSH1 0x20 ADD PUSH32 0x161016301640000000000000000000000000000000000000000000000000000 DUP2 MSTORE POP SWAP1 POP PUSH1 0x0 PUSH1 0x40 MLOAD DUP1 PUSH1 0x80 ADD PUSH1 0x40 MSTORE DUP1 PUSH1 0x5A DUP2 MSTORE PUSH1 0x20 ADD PUSH2 0x35D7 PUSH1 0x5A SWAP2 CODECOPY SWAP1 POP PUSH1 0x0 PUSH1 0x40 MLOAD DUP1 PUSH1 0x80 ADD PUSH1 0x40 MSTORE DUP1 PUSH1 0x59 DUP2 MSTORE PUSH1 0x20 ADD PUSH2 0x357E PUSH1 0x59 SWAP2 CODECOPY SWAP1 POP PUSH1 0x0 PUSH2 0x8D0 PUSH1 0x40 MLOAD DUP1 PUSH1 0x40 ADD PUSH1 0x40 MSTORE DUP1 PUSH1 0x5 DUP2 MSTORE PUSH1 0x20 ADD PUSH32 0x302616200000000000000000000000000000000000000000000000000000000 DUP2 MSTORE POP PUSH1 0x40 MLOAD DUP1 PUSH1 0x40 ADD PUSH1 0x40 MSTORE DUP1 PUSH1 0x5 DUP2 MSTORE PUSH1 0x20 ADD PUSH32 0x301616100000000000000000000000000000000000000000000000000000000 DUP2 MSTORE POP PUSH2 0x14DF SWAP1 SWAP2 SWAP1 PUSH4 0xFFFFFFFF AND JUMP JUMPDEST SLT PUSH2 0x910 JUMPI PUSH1 0x40 MLOAD PUSH32 0x8C379A000000000000000000000000000000000000000000000000000000000 DUP2 MSTORE PUSH1 0x4 ADD PUSH2 0x907 SWAP1 PUSH2 0x22B6 JUMP JUMPDEST PUSH1 0x40 MLOAD DUP1 SWAP2 SUB SWAP1 REVERT JUMPDEST PUSH1 0x0 PUSH2 0x925 DUP10 DUP13 PUSH2 0x14DF SWAP1 SWAP2 SWAP1 PUSH4 0xFFFFFFFF AND JUMP JUMPDEST SGT PUSH2 0x965 JUMPI PUSH1 0x40 MLOAD PUSH32 0x8C379A000000000000000000000000000000000000000000000000000000000 DUP2 MSTORE PUSH1 0x4 ADD PUSH2 0x95C SWAP1 PUSH2 0x2348 JUMP JUMPDEST PUSH1 0x40 MLOAD DUP1 SWAP2 SUB SWAP1 REVERT JUMPDEST PUSH1 0x0 PUSH2 0x97A DUP9 DUP13 PUSH2 0x14DF SWAP1 SWAP2 SWAP1 PUSH4 0xFFFFFFFF AND JUMP JUMPDEST SLT PUSH2 0x9BA JUMPI PUSH1 0x40 MLOAD PUSH32 0x8C379A000000000000000000000000000000000000000000000000000000000 DUP2 MSTORE PUSH1 0x4 ADD PUSH2 0x9B1 SWAP1 PUSH2 0x2400 JUMP JUMPDEST PUSH1 0x40 MLOAD DUP1 SWAP2 SUB SWAP1 REVERT JUMPDEST PUSH1 0x0 PUSH2 0x9CF DUP8 DUP13 PUSH2 0x14DF SWAP1 SWAP2 SWAP1 PUSH4 0xFFFFFFFF AND JUMP JUMPDEST SLT PUSH2 0xA0F JUMPI PUSH1 0x40 MLOAD PUSH32 0x8C379A000000000000000000000000000000000000000000000000000000000 DUP2 MSTORE PUSH1 0x4 ADD PUSH2 0xA06 SWAP1 PUSH2 0x2492 JUMP JUMPDEST PUSH1 0x40 MLOAD DUP1 SWAP2 SUB SWAP1 REVERT JUMPDEST PUSH1 0x0 PUSH2 0xA24 DUP7 DUP13 PUSH2 0x14DF SWAP1 SWAP2 SWAP1 PUSH4 0xFFFFFFFF AND JUMP JUMPDEST SGT PUSH2 0xA64 JUMPI PUSH1 0x40 MLOAD PUSH32 0x8C379A000000000000000000000000000000000000000000000000000000000 DUP2 MSTORE PUSH1 0x4 ADD PUSH2 0xA5B SWAP1 PUSH2 0x2524 JUMP JUMPDEST PUSH1 0x40 MLOAD DUP1 SWAP2 SUB SWAP1 REVERT JUMPDEST PUSH1 0x0 PUSH2 0xA79 DUP5 DUP7 PUSH2 0x14DF SWAP1 SWAP2 SWAP1 PUSH4 0xFFFFFFFF AND JUMP JUMPDEST SGT PUSH2 0xAB9 JUMPI PUSH1 0x40 MLOAD PUSH32 0x8C379A000000000000000000000000000000000000000000000000000000000 DUP2 MSTORE PUSH1 0x4 ADD PUSH2 0xAB0 SWAP1 PUSH2 0x25DC JUMP JUMPDEST PUSH1 0x40 MLOAD DUP1 SWAP2 SUB SWAP1 REVERT JUMPDEST PUSH1 0x0 PUSH2 0xACE DUP11 DUP13 PUSH2 0x14DF SWAP1 SWAP2 SWAP1 PUSH4 0xFFFFFFFF AND JUMP JUMPDEST SLT PUSH2 0xB0E JUMPI PUSH1 0x40 MLOAD PUSH32 0x8C379A000000000000000000000000000000000000000000000000000000000 DUP2 MSTORE PUSH1 0x4 ADD PUSH2 0xB05 SWAP1 PUSH2 0x25DC JUMP JUMPDEST PUSH1 0x40 MLOAD DUP1 SWAP2 SUB SWAP1 REVERT JUMPDEST PUSH1 0x0 PUSH2 0xB23 DUP14 DUP14 PUSH2 0x14DF SWAP1 SWAP2 SWAP1 PUSH4 0xFFFFFFFF AND JUMP JUMPDEST SLT PUSH2 0xB63 JUMPI PUSH1 0x40 MLOAD PUSH32 0x8C379A000000000000000000000000000000000000000000000000000000000 DUP2 MSTORE PUSH1 0x4 ADD PUSH2 0xB5A SWAP1 PUSH2 0x2648 JUMP JUMPDEST PUSH1 0x40 MLOAD DUP1 SWAP2 SUB SWAP1 REVERT JUMPDEST PUSH1 0x0 PUSH2 0xB78 DUP14 DUP16 PUSH2 0x14DF SWAP1 SWAP2 SWAP1 PUSH4 0xFFFFFFFF AND JUMP JUMPDEST SLT PUSH2 0xBB8 JUMPI PUSH1 0x40 MLOAD PUSH32 0x8C379A000000000000000000000000000000000000000000000000000000000 DUP2 MSTORE PUSH1 0x4 ADD PUSH2 0xBAF SWAP1 PUSH2 0x26DA JUMP JUMPDEST PUSH1 0x40 MLOAD DUP1 SWAP2 SUB SWAP1 REVERT JUMPDEST PUSH1 0x0 PUSH2 0xBCD DUP15 DUP16 PUSH2 0x14DF SWAP1 SWAP2 SWAP1 PUSH4 0xFFFFFFFF AND JUMP JUMPDEST EQ PUSH2 0xC0D JUMPI PUSH1 0x40 MLOAD PUSH32 0x8C379A000000000000000000000000000000000000000000000000000000000 DUP2 MSTORE PUSH1 0x4 ADD PUSH2 0xC04 SWAP1 PUSH2 0x276C JUMP JUMPDEST PUSH1 0x40 MLOAD DUP1 SWAP2 SUB SWAP1 REVERT JUMPDEST PUSH1 0x0 PUSH2 0xC22 DUP15 DUP15 PUSH2 0x14DF SWAP1 SWAP2 SWAP1 PUSH4 0xFFFFFFFF AND JUMP JUMPDEST SGT PUSH2 0xC62 JUMPI PUSH1 0x40 MLOAD PUSH32 0x8C379A000000000000000000000000000000000000000000000000000000000 DUP2 MSTORE PUSH1 0x4 ADD PUSH2 0xC59 SWAP1 PUSH2 0x27FE JUMP JUMPDEST PUSH1 0x40 MLOAD DUP1 SWAP2 SUB SWAP1 REVERT JUMPDEST PUSH1 0x0 PUSH2 0xC77 DUP13 DUP16 PUSH2 0x14DF SWAP1 SWAP2 SWAP1 PUSH4 0xFFFFFFFF AND JUMP JUMPDEST SGT PUSH2 0xCB7 JUMPI PUSH1 0x40 MLOAD PUSH32 0x8C379A000000000000000000000000000000000000000000000000000000000 DUP2 MSTORE PUSH1 0x4 ADD PUSH2 0xCAE SWAP1 PUSH2 0x286A JUMP JUMPDEST PUSH1 0x40 MLOAD DUP1 SWAP2 SUB SWAP1 REVERT JUMPDEST PUSH1 0x0 PUSH2 0xCCC DUP3 DUP5 PUSH2 0x14DF SWAP1 SWAP2 SWAP1 PUSH4 0xFFFFFFFF AND JUMP JUMPDEST SGT PUSH2 0xD0C JUMPI PUSH1 0x40 MLOAD PUSH32 0x8C379A000000000000000000000000000000000000000000000000000000000 DUP2 MSTORE PUSH1 0x4 ADD PUSH2 0xD03 SWAP1 PUSH2 0x28FC JUMP JUMPDEST PUSH1 0x40 MLOAD DUP1 SWAP2 SUB SWAP1 REVERT JUMPDEST POP POP POP POP POP POP POP POP POP POP POP POP POP JUMP JUMPDEST PUSH2 0xD27 PUSH1 0x1 PUSH1 0x0 PUSH2 0x1691 JUMP JUMPDEST PUSH2 0xD66 JUMPI PUSH1 0x40 MLOAD PUSH32 0x8C379A000000000000000000000000000000000000000000000000000000000 DUP2 MSTORE PUSH1 0x4 ADD PUSH2 0xD5D SWAP1 PUSH2 0x2968 JUMP JUMPDEST PUSH1 0x40 MLOAD DUP1 SWAP2 SUB SWAP1 REVERT JUMPDEST PUSH2 0xD72 PUSH1 0x0 PUSH1 0x1 PUSH2 0x1691 JUMP JUMPDEST ISZERO PUSH2 0xDB2 JUMPI PUSH1 0x40 MLOAD PUSH32 0x8C379A000000000000000000000000000000000000000000000000000000000 DUP2 MSTORE PUSH1 0x4 ADD PUSH2 0xDA9 SWAP1 PUSH2 0x29D4 JUMP JUMPDEST PUSH1 0x40 MLOAD DUP1 SWAP2 SUB SWAP1 REVERT JUMPDEST PUSH2 0xDC1 PUSH1 0x0 PUSH4 0xFFFFFFFF PUSH2 0x1691 JUMP JUMPDEST PUSH2 0xE00 JUMPI PUSH1 0x40 MLOAD PUSH32 0x8C379A000000000000000000000000000000000000000000000000000000000 DUP2 MSTORE PUSH1 0x4 ADD PUSH2 0xDF7 SWAP1 PUSH2 0x2A40 JUMP JUMPDEST PUSH1 0x40 MLOAD DUP1 SWAP2 SUB SWAP1 REVERT JUMPDEST PUSH2 0xE0F PUSH4 0xFFFFFFFF PUSH1 0x0 PUSH2 0x1691 JUMP JUMPDEST ISZERO PUSH2 0xE4F JUMPI PUSH1 0x40 MLOAD PUSH32 0x8C379A000000000000000000000000000000000000000000000000000000000 DUP2 MSTORE PUSH1 0x4 ADD PUSH2 0xE46 SWAP1 PUSH2 0x2AAC JUMP JUMPDEST PUSH1 0x40 MLOAD DUP1 SWAP2 SUB SWAP1 REVERT JUMPDEST PUSH2 0xE61 PUSH4 0x11111111 PUSH4 0xAAAAAAAA PUSH2 0x1691 JUMP JUMPDEST PUSH2 0xEA0 JUMPI PUSH1 0x40 MLOAD PUSH32 0x8C379A000000000000000000000000000000000000000000000000000000000 DUP2 MSTORE PUSH1 0x4 ADD PUSH2 0xE97 SWAP1 PUSH2 0x2B18 JUMP JUMPDEST PUSH1 0x40 MLOAD DUP1 SWAP2 SUB SWAP1 REVERT JUMPDEST PUSH2 0xEAB PUSH1 0x1 DUP1 PUSH2 0x1691 JUMP JUMPDEST PUSH2 0xEEA JUMPI PUSH1 0x40 MLOAD PUSH32 0x8C379A000000000000000000000000000000000000000000000000000000000 DUP2 MSTORE PUSH1 0x4 ADD PUSH2 0xEE1 SWAP1 PUSH2 0x2B84 JUMP JUMPDEST PUSH1 0x40 MLOAD DUP1 SWAP2 SUB SWAP1 REVERT JUMPDEST JUMP JUMPDEST PUSH2 0x4A5C PUSH2 0xF13 PUSH1 0x40 MLOAD DUP1 PUSH2 0x140 ADD PUSH1 0x40 MSTORE DUP1 PUSH2 0x108 DUP2 MSTORE PUSH1 0x20 ADD PUSH2 0x3239 PUSH2 0x108 SWAP2 CODECOPY PUSH2 0x16A4 JUMP JUMPDEST PUSH2 0xFFFF AND EQ PUSH2 0xF57 JUMPI PUSH1 0x40 MLOAD PUSH32 0x8C379A000000000000000000000000000000000000000000000000000000000 DUP2 MSTORE PUSH1 0x4 ADD PUSH2 0xF4E SWAP1 PUSH2 0x2BF0 JUMP JUMPDEST PUSH1 0x40 MLOAD DUP1 SWAP2 SUB SWAP1 REVERT JUMPDEST PUSH2 0x54BD PUSH2 0xF7B PUSH1 0x40 MLOAD DUP1 PUSH1 0xC0 ADD PUSH1 0x40 MSTORE DUP1 PUSH1 0x89 DUP2 MSTORE PUSH1 0x20 ADD PUSH2 0x34F5 PUSH1 0x89 SWAP2 CODECOPY PUSH2 0x16A4 JUMP JUMPDEST PUSH2 0xFFFF AND EQ PUSH2 0xFBF JUMPI PUSH1 0x40 MLOAD PUSH32 0x8C379A000000000000000000000000000000000000000000000000000000000 DUP2 MSTORE PUSH1 0x4 ADD PUSH2 0xFB6 SWAP1 PUSH2 0x2C5C JUMP JUMPDEST PUSH1 0x40 MLOAD DUP1 SWAP2 SUB SWAP1 REVERT JUMPDEST PUSH2 0x835E PUSH2 0xFE3 PUSH1 0x40 MLOAD DUP1 PUSH1 0xC0 ADD PUSH1 0x40 MSTORE DUP1 PUSH1 0x88 DUP2 MSTORE PUSH1 0x20 ADD PUSH2 0x346D PUSH1 0x88 SWAP2 CODECOPY PUSH2 0x16A4 JUMP JUMPDEST PUSH2 0xFFFF AND EQ PUSH2 0xFF1 JUMPI PUSH1 0x0 DUP1 REVERT JUMPDEST PUSH2 0x4F66 PUSH2 0x1018 PUSH1 0x40 MLOAD DUP1 PUSH2 0x140 ADD PUSH1 0x40 MSTORE DUP1 PUSH2 0x108 DUP2 MSTORE PUSH1 0x20 ADD PUSH2 0x3341 PUSH2 0x108 SWAP2 CODECOPY PUSH2 0x16A4 JUMP JUMPDEST PUSH2 0xFFFF AND EQ PUSH2 0x105C JUMPI PUSH1 0x40 MLOAD PUSH32 0x8C379A000000000000000000000000000000000000000000000000000000000 DUP2 MSTORE PUSH1 0x4 ADD PUSH2 0x1053 SWAP1 PUSH2 0x2CC8 JUMP JUMPDEST PUSH1 0x40 MLOAD DUP1 SWAP2 SUB SWAP1 REVERT JUMPDEST JUMP JUMPDEST PUSH1 0x0 PUSH2 0x108A PUSH1 0x0 PUSH1 0x40 MLOAD DUP1 PUSH1 0x40 ADD PUSH1 0x40 MSTORE DUP1 PUSH1 0x1 DUP2 MSTORE PUSH1 0x20 ADD PUSH1 0x0 DUP2 MSTORE POP PUSH2 0x18EC SWAP1 SWAP2 SWAP1 PUSH4 0xFFFFFFFF AND JUMP JUMPDEST EQ PUSH2 0x10CA JUMPI PUSH1 0x40 MLOAD PUSH32 0x8C379A000000000000000000000000000000000000000000000000000000000 DUP2 MSTORE PUSH1 0x4 ADD PUSH2 0x10C1 SWAP1 PUSH2 0x2D34 JUMP JUMPDEST PUSH1 0x40 MLOAD DUP1 SWAP2 SUB SWAP1 REVERT JUMPDEST PUSH1 0x1 PUSH2 0x1115 PUSH1 0x0 PUSH1 0x40 MLOAD DUP1 PUSH1 0x40 ADD PUSH1 0x40 MSTORE DUP1 PUSH1 0x3 DUP2 MSTORE PUSH1 0x20 ADD PUSH32 0x161000000000000000000000000000000000000000000000000000000000000 DUP2 MSTORE POP PUSH2 0x18EC SWAP1 SWAP2 SWAP1 PUSH4 0xFFFFFFFF AND JUMP JUMPDEST EQ PUSH2 0x1155 JUMPI PUSH1 0x40 MLOAD PUSH32 0x8C379A000000000000000000000000000000000000000000000000000000000 DUP2 MSTORE PUSH1 0x4 ADD PUSH2 0x114C SWAP1 PUSH2 0x2DA0 JUMP JUMPDEST PUSH1 0x40 MLOAD DUP1 SWAP2 SUB SWAP1 REVERT JUMPDEST PUSH1 0x2 PUSH2 0x11A0 PUSH1 0x0 PUSH1 0x40 MLOAD DUP1 PUSH1 0x40 ADD PUSH1 0x40 MSTORE DUP1 PUSH1 0x6 DUP2 MSTORE PUSH1 0x20 ADD PUSH32 0x162016100000000000000000000000000000000000000000000000000000000 DUP2 MSTORE POP PUSH2 0x18EC SWAP1 SWAP2 SWAP1 PUSH4 0xFFFFFFFF AND JUMP JUMPDEST EQ PUSH2 0x11E0 JUMPI PUSH1 0x40 MLOAD PUSH32 0x8C379A000000000000000000000000000000000000000000000000000000000 DUP2 MSTORE PUSH1 0x4 ADD PUSH2 0x11D7 SWAP1 PUSH2 0x2E0C JUMP JUMPDEST PUSH1 0x40 MLOAD DUP1 SWAP2 SUB SWAP1 REVERT JUMPDEST PUSH1 0x1 PUSH2 0x122B PUSH1 0x7 PUSH1 0x40 MLOAD DUP1 PUSH1 0x40 ADD PUSH1 0x40 MSTORE DUP1 PUSH1 0xC DUP2 MSTORE PUSH1 0x20 ADD PUSH32 0x66574686C61620378797A000000000000000000000000000000000000000000 DUP2 MSTORE POP PUSH2 0x18EC SWAP1 SWAP2 SWAP1 PUSH4 0xFFFFFFFF AND JUMP JUMPDEST EQ PUSH2 0x126B JUMPI PUSH1 0x40 MLOAD PUSH32 0x8C379A000000000000000000000000000000000000000000000000000000000 DUP2 MSTORE PUSH1 0x4 ADD PUSH2 0x1262 SWAP1 PUSH2 0x2E78 JUMP JUMPDEST PUSH1 0x40 MLOAD DUP1 SWAP2 SUB SWAP1 REVERT JUMPDEST JUMP JUMPDEST PUSH1 0x0 DUP1 DUP3 SWAP1 POP JUMPDEST PUSH1 0x1 ISZERO PUSH2 0x12D4 JUMPI DUP4 MLOAD DUP2 LT PUSH2 0x128C JUMPI PUSH2 0x128B PUSH2 0x2E98 JUMP JUMPDEST JUMPDEST PUSH1 0x0 PUSH2 0x12A1 DUP3 DUP7 PUSH2 0x196D SWAP1 SWAP2 SWAP1 PUSH4 0xFFFFFFFF AND JUMP JUMPDEST PUSH1 0xFF AND SWAP1 POP PUSH1 0x1 DUP2 PUSH2 0x12B3 SWAP2 SWAP1 PUSH2 0x2EC7 JUMP JUMPDEST DUP3 PUSH2 0x12BE SWAP2 SWAP1 PUSH2 0x2EC7 JUMP JUMPDEST SWAP2 POP PUSH1 0x0 DUP2 SUB PUSH2 0x12CE JUMPI POP PUSH2 0x12D4 JUMP JUMPDEST POP PUSH2 0x1274 JUMP JUMPDEST DUP3 DUP2 PUSH2 0x12E0 SWAP2 SWAP1 PUSH2 0x2EFB JUMP JUMPDEST SWAP2 POP POP SWAP3 SWAP2 POP POP JUMP JUMPDEST PUSH2 0x12F1 PUSH2 0x1DD8 JUMP JUMPDEST DUP3 DUP2 PUSH1 0x0 ADD DUP2 SWAP1 MSTORE POP DUP2 DUP2 PUSH1 0xC0 ADD DUP2 DUP2 MSTORE POP POP PUSH2 0x130D DUP2 PUSH2 0x1399 JUMP JUMPDEST SWAP3 SWAP2 POP POP JUMP JUMPDEST PUSH1 0x0 DUP2 PUSH1 0x0 ADD MLOAD MLOAD DUP3 PUSH1 0x20 ADD MLOAD LT ISZERO SWAP1 POP SWAP2 SWAP1 POP JUMP JUMPDEST PUSH1 0x60 PUSH2 0x1359 DUP3 PUSH1 0x20 ADD MLOAD PUSH2 0x1345 DUP5 PUSH1 0x0 ADD MLOAD DUP6 PUSH1 0x20 ADD MLOAD PUSH2 0x126D JUMP JUMPDEST DUP5 PUSH1 0x0 ADD MLOAD PUSH2 0x1998 SWAP1 SWAP3 SWAP2 SWAP1 PUSH4 0xFFFFFFFF AND JUMP JUMPDEST SWAP1 POP SWAP2 SWAP1 POP JUMP JUMPDEST PUSH1 0x60 PUSH2 0x1392 DUP3 PUSH1 0xA0 ADD MLOAD DUP4 PUSH1 0xA0 ADD MLOAD DUP5 PUSH1 0xC0 ADD MLOAD PUSH2 0x137E SWAP2 SWAP1 PUSH2 0x2EFB JUMP JUMPDEST DUP5 PUSH1 0x0 ADD MLOAD PUSH2 0x1998 SWAP1 SWAP3 SWAP2 SWAP1 PUSH4 0xFFFFFFFF AND JUMP JUMPDEST SWAP1 POP SWAP2 SWAP1 POP JUMP JUMPDEST DUP1 PUSH1 0xC0 ADD MLOAD DUP2 PUSH1 0x20 ADD DUP2 DUP2 MSTORE POP POP DUP1 PUSH1 0x0 ADD MLOAD MLOAD DUP2 PUSH1 0x20 ADD MLOAD LT ISZERO PUSH2 0x14DC JUMPI PUSH1 0x0 PUSH2 0x13CC DUP3 PUSH1 0x0 ADD MLOAD DUP4 PUSH1 0x20 ADD MLOAD PUSH2 0x126D JUMP JUMPDEST DUP3 PUSH1 0x20 ADD MLOAD PUSH2 0x13DB SWAP2 SWAP1 PUSH2 0x2EC7 JUMP JUMPDEST SWAP1 POP PUSH2 0x13F4 DUP2 DUP4 PUSH1 0x0 ADD MLOAD PUSH2 0x1A2D SWAP1 SWAP2 SWAP1 PUSH4 0xFFFFFFFF AND JUMP JUMPDEST DUP3 PUSH1 0x40 ADD SWAP1 PUSH2 0xFFFF AND SWAP1 DUP2 PUSH2 0xFFFF AND DUP2 MSTORE POP POP PUSH1 0x2 DUP2 PUSH2 0x1414 SWAP2 SWAP1 PUSH2 0x2EC7 JUMP JUMPDEST SWAP1 POP PUSH2 0x142D DUP2 DUP4 PUSH1 0x0 ADD MLOAD PUSH2 0x1A2D SWAP1 SWAP2 SWAP1 PUSH4 0xFFFFFFFF AND JUMP JUMPDEST DUP3 PUSH1 0x60 ADD SWAP1 PUSH2 0xFFFF AND SWAP1 DUP2 PUSH2 0xFFFF AND DUP2 MSTORE POP POP PUSH1 0x2 DUP2 PUSH2 0x144D SWAP2 SWAP1 PUSH2 0x2EC7 JUMP JUMPDEST SWAP1 POP PUSH2 0x1466 DUP2 DUP4 PUSH1 0x0 ADD MLOAD PUSH2 0x1A5C SWAP1 SWAP2 SWAP1 PUSH4 0xFFFFFFFF AND JUMP JUMPDEST DUP3 PUSH1 0x80 ADD SWAP1 PUSH4 0xFFFFFFFF AND SWAP1 DUP2 PUSH4 0xFFFFFFFF AND DUP2 MSTORE POP POP PUSH1 0x4 DUP2 PUSH2 0x148A SWAP2 SWAP1 PUSH2 0x2EC7 JUMP JUMPDEST SWAP1 POP PUSH1 0x0 PUSH2 0x14A5 DUP3 DUP5 PUSH1 0x0 ADD MLOAD PUSH2 0x1A2D SWAP1 SWAP2 SWAP1 PUSH4 0xFFFFFFFF AND JUMP JUMPDEST PUSH2 0xFFFF AND SWAP1 POP PUSH1 0x2 DUP3 PUSH2 0x14B8 SWAP2 SWAP1 PUSH2 0x2EC7 JUMP JUMPDEST SWAP2 POP DUP2 DUP4 PUSH1 0xA0 ADD DUP2 DUP2 MSTORE POP POP DUP1 DUP3 PUSH2 0x14D0 SWAP2 SWAP1 PUSH2 0x2EC7 JUMP JUMPDEST DUP4 PUSH1 0xC0 ADD DUP2 DUP2 MSTORE POP POP POP POP JUMPDEST POP JUMP JUMPDEST PUSH1 0x0 PUSH2 0x14F4 DUP3 DUP5 PUSH2 0x1A8D SWAP1 SWAP2 SWAP1 PUSH4 0xFFFFFFFF AND JUMP JUMPDEST ISZERO PUSH2 0x1502 JUMPI PUSH1 0x0 SWAP1 POP PUSH2 0x168B JUMP JUMPDEST PUSH1 0x0 DUP1 PUSH1 0x0 DUP1 PUSH1 0x0 PUSH2 0x1515 DUP9 PUSH1 0x0 PUSH2 0x18EC JUMP JUMPDEST SWAP1 POP PUSH1 0x0 PUSH2 0x1524 DUP9 PUSH1 0x0 PUSH2 0x18EC JUMP JUMPDEST SWAP1 POP JUMPDEST DUP1 DUP3 GT ISZERO PUSH2 0x1551 JUMPI DUP6 SWAP4 POP PUSH2 0x153C DUP10 DUP8 PUSH2 0x1AB4 JUMP JUMPDEST SWAP6 POP DUP2 DUP1 PUSH2 0x1549 SWAP1 PUSH2 0x2F2F JUMP JUMPDEST SWAP3 POP POP PUSH2 0x1527 JUMP JUMPDEST JUMPDEST DUP2 DUP2 GT ISZERO PUSH2 0x157C JUMPI DUP5 SWAP3 POP PUSH2 0x1567 DUP9 DUP7 PUSH2 0x1AB4 JUMP JUMPDEST SWAP5 POP DUP1 DUP1 PUSH2 0x1574 SWAP1 PUSH2 0x2F2F JUMP JUMPDEST SWAP2 POP POP PUSH2 0x1552 JUMP JUMPDEST JUMPDEST PUSH1 0x0 DUP3 GT DUP1 ISZERO PUSH2 0x15A1 JUMPI POP PUSH2 0x159F DUP7 DUP10 DUP8 DUP13 PUSH2 0x1AEB SWAP1 SWAP4 SWAP3 SWAP2 SWAP1 PUSH4 0xFFFFFFFF AND JUMP JUMPDEST ISZERO JUMPDEST ISZERO PUSH2 0x15D8 JUMPI DUP6 SWAP4 POP PUSH2 0x15B3 DUP10 DUP8 PUSH2 0x1AB4 JUMP JUMPDEST SWAP6 POP DUP5 SWAP3 POP PUSH2 0x15C2 DUP9 DUP7 PUSH2 0x1AB4 JUMP JUMPDEST SWAP5 POP PUSH1 0x1 DUP3 PUSH2 0x15D1 SWAP2 SWAP1 PUSH2 0x2EFB JUMP JUMPDEST SWAP2 POP PUSH2 0x157D JUMP JUMPDEST PUSH1 0x0 DUP7 SUB PUSH2 0x160E JUMPI PUSH32 0xFFFFFFFFFFFFFFFFFFFFFFFFFFFFFFFFFFFFFFFFFFFFFFFFFFFFFFFFFFFFFFFF SWAP7 POP POP POP POP POP POP POP PUSH2 0x168B JUMP JUMPDEST PUSH1 0x0 DUP6 SUB PUSH2 0x1625 JUMPI PUSH1 0x1 SWAP7 POP POP POP POP POP POP POP PUSH2 0x168B JUMP JUMPDEST PUSH2 0x1682 PUSH1 0x1 DUP6 PUSH2 0x1635 SWAP2 SWAP1 PUSH2 0x2EC7 JUMP JUMPDEST PUSH2 0x1648 DUP7 DUP13 PUSH2 0x196D SWAP1 SWAP2 SWAP1 PUSH4 0xFFFFFFFF AND JUMP JUMPDEST PUSH1 0xFF AND DUP11 PUSH1 0x1 DUP8 PUSH2 0x1659 SWAP2 SWAP1 PUSH2 0x2EC7 JUMP JUMPDEST PUSH2 0x166C DUP9 DUP15 PUSH2 0x196D SWAP1 SWAP2 SWAP1 PUSH4 0xFFFFFFFF AND JUMP JUMPDEST PUSH1 0xFF AND DUP15 PUSH2 0x1B26 SWAP1 SWAP6 SWAP5 SWAP4 SWAP3 SWAP2 SWAP1 PUSH4 0xFFFFFFFF AND JUMP JUMPDEST SWAP7 POP POP POP POP POP POP POP JUMPDEST SWAP3 SWAP2 POP POP JUMP JUMPDEST PUSH1 0x0 DUP1 DUP3 DUP5 SUB PUSH1 0x3 SIGNEXTEND SLT ISZERO SWAP1 POP SWAP3 SWAP2 POP POP JUMP JUMPDEST PUSH1 0x0 PUSH2 0x2000 DUP3 MLOAD GT ISZERO PUSH2 0x16EC JUMPI PUSH1 0x40 MLOAD PUSH32 0x8C379A000000000000000000000000000000000000000000000000000000000 DUP2 MSTORE PUSH1 0x4 ADD PUSH2 0x16E3 SWAP1 PUSH2 0x2FA4 JUMP JUMPDEST PUSH1 0x40 MLOAD DUP1 SWAP2 SUB SWAP1 REVERT JUMPDEST PUSH1 0x0 DUP1 PUSH1 0x0 JUMPDEST PUSH1 0x1F DUP6 MLOAD ADD DUP2 LT ISZERO PUSH2 0x178C JUMPI PUSH1 0x0 DUP2 PUSH1 0x20 DUP8 ADD ADD MLOAD SWAP1 POP DUP6 MLOAD PUSH1 0x20 DUP4 ADD GT ISZERO PUSH2 0x172F JUMPI PUSH1 0x0 PUSH1 0x8 DUP4 DUP9 MLOAD SUB MUL PUSH2 0x100 SUB SWAP1 POP DUP1 DUP2 DUP4 SWAP1 SHR SWAP1 SHL SWAP2 POP POP JUMPDEST PUSH1 0x8 PUSH32 0xFF00FF00FF00FF00FF00FF00FF00FF00FF00FF00FF00FF00FF00FF00FF00FF00 DUP3 AND SWAP1 SHR DUP5 ADD SWAP4 POP PUSH31 0xFF00FF00FF00FF00FF00FF00FF00FF00FF00FF00FF00FF00FF00FF00FF00FF DUP2 AND DUP4 ADD SWAP3 POP POP PUSH1 0x20 DUP2 ADD SWAP1 POP PUSH2 0x16F2 JUMP JUMPDEST POP PUSH1 0x10 PUSH32 0xFFFF0000FFFF0000FFFF0000FFFF0000FFFF0000FFFF0000FFFF0000FFFF0000 DUP4 AND SWAP1 SHR PUSH30 0xFFFF0000FFFF0000FFFF0000FFFF0000FFFF0000FFFF0000FFFF0000FFFF DUP4 AND ADD SWAP2 POP PUSH1 0x10 PUSH32 0xFFFF0000FFFF0000FFFF0000FFFF0000FFFF0000FFFF0000FFFF0000FFFF0000 DUP3 AND SWAP1 SHR PUSH30 0xFFFF0000FFFF0000FFFF0000FFFF0000FFFF0000FFFF0000FFFF0000FFFF DUP3 AND ADD SWAP1 POP DUP1 PUSH1 0x8 DUP4 SWAP1 SHL ADD SWAP2 POP PUSH1 0x20 PUSH32 0xFFFFFFFF00000000FFFFFFFF00000000FFFFFFFF00000000FFFFFFFF00000000 DUP4 AND SWAP1 SHR PUSH28 0xFFFFFFFF00000000FFFFFFFF00000000FFFFFFFF00000000FFFFFFFF DUP4 AND ADD SWAP2 POP PUSH1 0x40 PUSH32 0xFFFFFFFFFFFFFFFF0000000000000000FFFFFFFFFFFFFFFF0000000000000000 DUP4 AND SWAP1 SHR PUSH24 0xFFFFFFFFFFFFFFFF0000000000000000FFFFFFFFFFFFFFFF DUP4 AND ADD SWAP2 POP PUSH1 0x80 DUP3 SWAP1 SHR PUSH16 0xFFFFFFFFFFFFFFFFFFFFFFFFFFFFFFFF DUP4 AND ADD SWAP2 POP PUSH2 0xFFFF PUSH1 0x10 DUP4 SWAP1 SHR AND DUP3 ADD SWAP2 POP DUP2 SWAP3 POP POP POP SWAP2 SWAP1 POP JUMP JUMPDEST PUSH1 0x0 DUP1 PUSH1 0x0 SWAP1 POP JUMPDEST PUSH1 0x1 ISZERO PUSH2 0x1963 JUMPI DUP4 MLOAD DUP4 LT PUSH2 0x190C JUMPI PUSH2 0x190B PUSH2 0x2E98 JUMP JUMPDEST JUMPDEST PUSH1 0x0 PUSH2 0x1921 DUP5 DUP7 PUSH2 0x196D SWAP1 SWAP2 SWAP1 PUSH4 0xFFFFFFFF AND JUMP JUMPDEST PUSH1 0xFF AND SWAP1 POP PUSH1 0x1 DUP2 PUSH2 0x1933 SWAP2 SWAP1 PUSH2 0x2EC7 JUMP JUMPDEST DUP5 PUSH2 0x193E SWAP2 SWAP1 PUSH2 0x2EC7 JUMP JUMPDEST SWAP4 POP PUSH1 0x0 DUP2 SUB PUSH2 0x194E JUMPI POP PUSH2 0x1963 JUMP JUMPDEST PUSH1 0x1 DUP3 PUSH2 0x195B SWAP2 SWAP1 PUSH2 0x2EC7 JUMP JUMPDEST SWAP2 POP POP PUSH2 0x18F4 JUMP JUMPDEST DUP1 SWAP2 POP POP SWAP3 SWAP2 POP POP JUMP JUMPDEST PUSH1 0x0 DUP3 DUP3 DUP2 MLOAD DUP2 LT PUSH2 0x1982 JUMPI PUSH2 0x1981 PUSH2 0x2050 JUMP JUMPDEST JUMPDEST PUSH1 0x20 ADD ADD MLOAD PUSH1 0xF8 SHR PUSH1 0xF8 SHL PUSH1 0xF8 SHR SWAP1 POP SWAP3 SWAP2 POP POP JUMP JUMPDEST PUSH1 0x60 DUP4 MLOAD DUP3 DUP5 PUSH2 0x19A8 SWAP2 SWAP1 PUSH2 0x2EC7 JUMP JUMPDEST GT ISZERO PUSH2 0x19B3 JUMPI PUSH1 0x0 DUP1 REVERT JUMPDEST PUSH1 0x0 DUP3 PUSH8 0xFFFFFFFFFFFFFFFF DUP2 GT ISZERO PUSH2 0x19CF JUMPI PUSH2 0x19CE PUSH2 0x2FC4 JUMP JUMPDEST JUMPDEST PUSH1 0x40 MLOAD SWAP1 DUP1 DUP3 MSTORE DUP1 PUSH1 0x1F ADD PUSH1 0x1F NOT AND PUSH1 0x20 ADD DUP3 ADD PUSH1 0x40 MSTORE DUP1 ISZERO PUSH2 0x1A01 JUMPI DUP2 PUSH1 0x20 ADD PUSH1 0x1 DUP3 MUL DUP1 CALLDATASIZE DUP4 CALLDATACOPY DUP1 DUP3 ADD SWAP2 POP POP SWAP1 POP JUMPDEST POP SWAP1 POP PUSH1 0x0 DUP1 PUSH1 0x20 DUP4 ADD SWAP2 POP DUP6 PUSH1 0x20 DUP9 ADD ADD SWAP1 POP PUSH2 0x1A20 DUP3 DUP3 DUP8 PUSH2 0x1D24 JUMP JUMPDEST DUP3 SWAP4 POP POP POP POP SWAP4 SWAP3 POP POP POP JUMP JUMPDEST PUSH1 0x0 DUP3 MLOAD PUSH1 0x2 DUP4 PUSH2 0x1A3E SWAP2 SWAP1 PUSH2 0x2EC7 JUMP JUMPDEST GT ISZERO PUSH2 0x1A49 JUMPI PUSH1 0x0 DUP1 REVERT JUMPDEST PUSH2 0xFFFF DUP3 PUSH1 0x2 DUP6 ADD ADD MLOAD AND SWAP1 POP SWAP3 SWAP2 POP POP JUMP JUMPDEST PUSH1 0x0 DUP3 MLOAD PUSH1 0x4 DUP4 PUSH2 0x1A6D SWAP2 SWAP1 PUSH2 0x2EC7 JUMP JUMPDEST GT ISZERO PUSH2 0x1A78 JUMPI PUSH1 0x0 DUP1 REVERT JUMPDEST PUSH4 0xFFFFFFFF DUP3 PUSH1 0x4 DUP6 ADD ADD MLOAD AND SWAP1 POP SWAP3 SWAP2 POP POP JUMP JUMPDEST PUSH1 0x0 DUP2 MLOAD DUP4 MLOAD EQ DUP1 ISZERO PUSH2 0x1AAC JUMPI POP PUSH2 0x1AAB DUP4 PUSH1 0x0 DUP5 PUSH1 0x0 DUP8 MLOAD PUSH2 0x1D88 JUMP JUMPDEST JUMPDEST SWAP1 POP SWAP3 SWAP2 POP POP JUMP JUMPDEST PUSH1 0x0 PUSH2 0x1AC9 DUP3 DUP5 PUSH2 0x196D SWAP1 SWAP2 SWAP1 PUSH4 0xFFFFFFFF AND JUMP JUMPDEST PUSH1 0xFF AND PUSH1 0x1 DUP4 PUSH2 0x1AD9 SWAP2 SWAP1 PUSH2 0x2EC7 JUMP JUMPDEST PUSH2 0x1AE3 SWAP2 SWAP1 PUSH2 0x2EC7 JUMP JUMPDEST SWAP1 POP SWAP3 SWAP2 POP POP JUMP JUMPDEST PUSH1 0x0 PUSH2 0x1B04 DUP4 DUP4 DUP5 DUP7 MLOAD PUSH2 0x1AFF SWAP2 SWAP1 PUSH2 0x2EFB JUMP JUMPDEST PUSH2 0x1DAC JUMP JUMPDEST PUSH2 0x1B1B DUP7 DUP7 DUP8 DUP10 MLOAD PUSH2 0x1B16 SWAP2 SWAP1 PUSH2 0x2EFB JUMP JUMPDEST PUSH2 0x1DAC JUMP JUMPDEST EQ SWAP1 POP SWAP5 SWAP4 POP POP POP POP JUMP JUMPDEST PUSH1 0x0 DUP7 MLOAD DUP6 DUP8 PUSH2 0x1B36 SWAP2 SWAP1 PUSH2 0x2EC7 JUMP JUMPDEST GT ISZERO PUSH2 0x1B87 JUMPI DUP5 DUP7 PUSH2 0x1B48 SWAP2 SWAP1 PUSH2 0x2EC7 JUMP JUMPDEST DUP8 MLOAD PUSH1 0x40 MLOAD PUSH32 0x8A3C1CFB00000000000000000000000000000000000000000000000000000000 DUP2 MSTORE PUSH1 0x4 ADD PUSH2 0x1B7E SWAP3 SWAP2 SWAP1 PUSH2 0x3002 JUMP JUMPDEST PUSH1 0x40 MLOAD DUP1 SWAP2 SUB SWAP1 REVERT JUMPDEST DUP4 MLOAD DUP3 DUP5 PUSH2 0x1B95 SWAP2 SWAP1 PUSH2 0x2EC7 JUMP JUMPDEST GT ISZERO PUSH2 0x1BE6 JUMPI DUP2 DUP4 PUSH2 0x1BA7 SWAP2 SWAP1 PUSH2 0x2EC7 JUMP JUMPDEST DUP5 MLOAD PUSH1 0x40 MLOAD PUSH32 0x8A3C1CFB00000000000000000000000000000000000000000000000000000000 DUP2 MSTORE PUSH1 0x4 ADD PUSH2 0x1BDD SWAP3 SWAP2 SWAP1 PUSH2 0x3002 JUMP JUMPDEST PUSH1 0x40 MLOAD DUP1 SWAP2 SUB SWAP1 REVERT JUMPDEST PUSH1 0x0 DUP6 SWAP1 POP DUP6 DUP4 LT ISZERO PUSH2 0x1BF7 JUMPI DUP3 SWAP1 POP JUMPDEST PUSH1 0x0 DUP1 PUSH1 0x20 DUP10 ADD DUP11 ADD SWAP2 POP PUSH1 0x20 DUP7 ADD DUP8 ADD SWAP1 POP PUSH1 0x0 JUMPDEST DUP4 DUP2 LT ISZERO PUSH2 0x1D07 JUMPI PUSH1 0x0 DUP1 DUP5 MLOAD SWAP2 POP DUP4 MLOAD SWAP1 POP DUP1 DUP3 EQ PUSH2 0x1CD3 JUMPI PUSH1 0x0 PUSH1 0x20 DUP5 DUP9 PUSH2 0x1C37 SWAP2 SWAP1 PUSH2 0x2EFB JUMP JUMPDEST LT PUSH2 0x1C64 JUMPI PUSH32 0xFFFFFFFFFFFFFFFFFFFFFFFFFFFFFFFFFFFFFFFFFFFFFFFFFFFFFFFFFFFFFFFF SWAP1 POP PUSH2 0x1CA4 JUMP JUMPDEST PUSH1 0x1 DUP8 PUSH1 0x20 DUP7 PUSH2 0x1C74 SWAP2 SWAP1 PUSH2 0x2EC7 JUMP JUMPDEST PUSH2 0x1C7E SWAP2 SWAP1 PUSH2 0x2EFB JUMP JUMPDEST PUSH1 0x8 PUSH2 0x1C8A SWAP2 SWAP1 PUSH2 0x302B JUMP JUMPDEST PUSH1 0x2 PUSH2 0x1C96 SWAP2 SWAP1 PUSH2 0x31A0 JUMP JUMPDEST PUSH2 0x1CA0 SWAP2 SWAP1 PUSH2 0x2EFB JUMP JUMPDEST NOT SWAP1 POP JUMPDEST PUSH1 0x0 DUP2 DUP4 AND DUP3 DUP6 AND PUSH2 0x1CB6 SWAP2 SWAP1 PUSH2 0x31F5 JUMP JUMPDEST SWAP1 POP PUSH1 0x0 DUP2 EQ PUSH2 0x1CD0 JUMPI DUP1 SWAP9 POP POP POP POP POP POP POP POP POP PUSH2 0x1D1A JUMP JUMPDEST POP POP JUMPDEST PUSH1 0x20 DUP6 PUSH2 0x1CE0 SWAP2 SWAP1 PUSH2 0x2EC7 JUMP JUMPDEST SWAP5 POP PUSH1 0x20 DUP5 PUSH2 0x1CEF SWAP2 SWAP1 PUSH2 0x2EC7 JUMP JUMPDEST SWAP4 POP POP POP PUSH1 0x20 DUP2 PUSH2 0x1D00 SWAP2 SWAP1 PUSH2 0x2EC7 JUMP JUMPDEST SWAP1 POP PUSH2 0x1C0D JUMP JUMPDEST POP DUP5 DUP9 PUSH2 0x1D14 SWAP2 SWAP1 PUSH2 0x31F5 JUMP JUMPDEST SWAP4 POP POP POP POP JUMPDEST SWAP7 SWAP6 POP POP POP POP POP POP JUMP JUMPDEST JUMPDEST PUSH1 0x20 DUP2 LT PUSH2 0x1D63 JUMPI DUP2 MLOAD DUP4 MSTORE PUSH1 0x20 DUP4 PUSH2 0x1D3E SWAP2 SWAP1 PUSH2 0x2EC7 JUMP JUMPDEST SWAP3 POP PUSH1 0x20 DUP3 PUSH2 0x1D4D SWAP2 SWAP1 PUSH2 0x2EC7 JUMP JUMPDEST SWAP2 POP PUSH1 0x20 DUP2 PUSH2 0x1D5C SWAP2 SWAP1 PUSH2 0x2EFB JUMP JUMPDEST SWAP1 POP PUSH2 0x1D25 JUMP JUMPDEST PUSH1 0x0 PUSH1 0x1 DUP3 PUSH1 0x20 SUB PUSH2 0x100 EXP SUB SWAP1 POP DUP1 NOT DUP4 MLOAD AND DUP2 DUP6 MLOAD AND DUP2 DUP2 OR DUP7 MSTORE POP POP POP POP POP POP JUMP JUMPDEST PUSH1 0x0 PUSH2 0x1D95 DUP5 DUP5 DUP5 PUSH2 0x1DAC JUMP JUMPDEST PUSH2 0x1DA0 DUP8 DUP8 DUP6 PUSH2 0x1DAC JUMP JUMPDEST EQ SWAP1 POP SWAP6 SWAP5 POP POP POP POP POP JUMP JUMPDEST PUSH1 0x0 DUP4 MLOAD DUP3 DUP5 PUSH2 0x1DBC SWAP2 SWAP1 PUSH2 0x2EC7 JUMP JUMPDEST GT ISZERO PUSH2 0x1DC7 JUMPI PUSH1 0x0 DUP1 REVERT JUMPDEST DUP2 DUP4 PUSH1 0x20 DUP7 ADD ADD KECCAK256 SWAP1 POP SWAP4 SWAP3 POP POP POP JUMP JUMPDEST PUSH1 0x40 MLOAD DUP1 PUSH1 0xE0 ADD PUSH1 0x40 MSTORE DUP1 PUSH1 0x60 DUP2 MSTORE PUSH1 0x20 ADD PUSH1 0x0 DUP2 MSTORE PUSH1 0x20 ADD PUSH1 0x0 PUSH2 0xFFFF AND DUP2 MSTORE PUSH1 0x20 ADD PUSH1 0x0 PUSH2 0xFFFF AND DUP2 MSTORE PUSH1 0x20 ADD PUSH1 0x0 PUSH4 0xFFFFFFFF AND DUP2 MSTORE PUSH1 0x20 ADD PUSH1 0x0 DUP2 MSTORE PUSH1 0x20 ADD PUSH1 0x0 DUP2 MSTORE POP SWAP1 JUMP JUMPDEST PUSH1 0x0 DUP3 DUP3 MSTORE PUSH1 0x20 DUP3 ADD SWAP1 POP SWAP3 SWAP2 POP POP JUMP JUMPDEST PUSH32 0x6E616D654C656E67746828272E2729203D3D2031000000000000000000000000 PUSH1 0x0 DUP3 ADD MSTORE POP JUMP JUMPDEST PUSH1 0x0 PUSH2 0x1E6A PUSH1 0x14 DUP4 PUSH2 0x1E23 JUMP JUMPDEST SWAP2 POP PUSH2 0x1E75 DUP3 PUSH2 0x1E34 JUMP JUMPDEST PUSH1 0x20 DUP3 ADD SWAP1 POP SWAP2 SWAP1 POP JUMP JUMPDEST PUSH1 0x0 PUSH1 0x20 DUP3 ADD SWAP1 POP DUP2 DUP2 SUB PUSH1 0x0 DUP4 ADD MSTORE PUSH2 0x1E99 DUP2 PUSH2 0x1E5D JUMP JUMPDEST SWAP1 POP SWAP2 SWAP1 POP JUMP JUMPDEST PUSH32 0x6E616D654C656E67746828276162632E2729203D3D2035000000000000000000 PUSH1 0x0 DUP3 ADD MSTORE POP JUMP JUMPDEST PUSH1 0x0 PUSH2 0x1ED6 PUSH1 0x17 DUP4 PUSH2 0x1E23 JUMP JUMPDEST SWAP2 POP PUSH2 0x1EE1 DUP3 PUSH2 0x1EA0 JUMP JUMPDEST PUSH1 0x20 DUP3 ADD SWAP1 POP SWAP2 SWAP1 POP JUMP JUMPDEST PUSH1 0x0 PUSH1 0x20 DUP3 ADD SWAP1 POP DUP2 DUP2 SUB PUSH1 0x0 DUP4 ADD MSTORE PUSH2 0x1F05 DUP2 PUSH2 0x1EC9 JUMP JUMPDEST SWAP1 POP SWAP2 SWAP1 POP JUMP JUMPDEST PUSH32 0x54797065206D6174636865730000000000000000000000000000000000000000 PUSH1 0x0 DUP3 ADD MSTORE POP JUMP JUMPDEST PUSH1 0x0 PUSH2 0x1F42 PUSH1 0xC DUP4 PUSH2 0x1E23 JUMP JUMPDEST SWAP2 POP PUSH2 0x1F4D DUP3 PUSH2 0x1F0C JUMP JUMPDEST PUSH1 0x20 DUP3 ADD SWAP1 POP SWAP2 SWAP1 POP JUMP JUMPDEST PUSH1 0x0 PUSH1 0x20 DUP3 ADD SWAP1 POP DUP2 DUP2 SUB PUSH1 0x0 DUP4 ADD MSTORE PUSH2 0x1F71 DUP2 PUSH2 0x1F35 JUMP JUMPDEST SWAP1 POP SWAP2 SWAP1 POP JUMP JUMPDEST PUSH32 0x436C617373206D61746368657300000000000000000000000000000000000000 PUSH1 0x0 DUP3 ADD MSTORE POP JUMP JUMPDEST PUSH1 0x0 PUSH2 0x1FAE PUSH1 0xD DUP4 PUSH2 0x1E23 JUMP JUMPDEST SWAP2 POP PUSH2 0x1FB9 DUP3 PUSH2 0x1F78 JUMP JUMPDEST PUSH1 0x20 DUP3 ADD SWAP1 POP SWAP2 SWAP1 POP JUMP JUMPDEST PUSH1 0x0 PUSH1 0x20 DUP3 ADD SWAP1 POP DUP2 DUP2 SUB PUSH1 0x0 DUP4 ADD MSTORE PUSH2 0x1FDD DUP2 PUSH2 0x1FA1 JUMP JUMPDEST SWAP1 POP SWAP2 SWAP1 POP JUMP JUMPDEST PUSH32 0x54544C206D617463686573000000000000000000000000000000000000000000 PUSH1 0x0 DUP3 ADD MSTORE POP JUMP JUMPDEST PUSH1 0x0 PUSH2 0x201A PUSH1 0xB DUP4 PUSH2 0x1E23 JUMP JUMPDEST SWAP2 POP PUSH2 0x2025 DUP3 PUSH2 0x1FE4 JUMP JUMPDEST PUSH1 0x20 DUP3 ADD SWAP1 POP SWAP2 SWAP1 POP JUMP JUMPDEST PUSH1 0x0 PUSH1 0x20 DUP3 ADD SWAP1 POP DUP2 DUP2 SUB PUSH1 0x0 DUP4 ADD MSTORE PUSH2 0x2049 DUP2 PUSH2 0x200D JUMP JUMPDEST SWAP1 POP SWAP2 SWAP1 POP JUMP JUMPDEST PUSH32 0x4E487B7100000000000000000000000000000000000000000000000000000000 PUSH1 0x0 MSTORE PUSH1 0x32 PUSH1 0x4 MSTORE PUSH1 0x24 PUSH1 0x0 REVERT JUMPDEST PUSH32 0x4E616D65206D6174636865730000000000000000000000000000000000000000 PUSH1 0x0 DUP3 ADD MSTORE POP JUMP JUMPDEST PUSH1 0x0 PUSH2 0x20B5 PUSH1 0xC DUP4 PUSH2 0x1E23 JUMP JUMPDEST SWAP2 POP PUSH2 0x20C0 DUP3 PUSH2 0x207F JUMP JUMPDEST PUSH1 0x20 DUP3 ADD SWAP1 POP SWAP2 SWAP1 POP JUMP JUMPDEST PUSH1 0x0 PUSH1 0x20 DUP3 ADD SWAP1 POP DUP2 DUP2 SUB PUSH1 0x0 DUP4 ADD MSTORE PUSH2 0x20E4 DUP2 PUSH2 0x20A8 JUMP JUMPDEST SWAP1 POP SWAP2 SWAP1 POP JUMP JUMPDEST PUSH32 0x5264617461206D61746368657300000000000000000000000000000000000000 PUSH1 0x0 DUP3 ADD MSTORE POP JUMP JUMPDEST PUSH1 0x0 PUSH2 0x2121 PUSH1 0xD DUP4 PUSH2 0x1E23 JUMP JUMPDEST SWAP2 POP PUSH2 0x212C DUP3 PUSH2 0x20EB JUMP JUMPDEST PUSH1 0x20 DUP3 ADD SWAP1 POP SWAP2 SWAP1 POP JUMP JUMPDEST PUSH1 0x0 PUSH1 0x20 DUP3 ADD SWAP1 POP DUP2 DUP2 SUB PUSH1 0x0 DUP4 ADD MSTORE PUSH2 0x2150 DUP2 PUSH2 0x2114 JUMP JUMPDEST SWAP1 POP SWAP2 SWAP1 POP JUMP JUMPDEST PUSH32 0x4E487B7100000000000000000000000000000000000000000000000000000000 PUSH1 0x0 MSTORE PUSH1 0x11 PUSH1 0x4 MSTORE PUSH1 0x24 PUSH1 0x0 REVERT JUMPDEST PUSH1 0x0 DUP2 SWAP1 POP SWAP2 SWAP1 POP JUMP JUMPDEST PUSH1 0x0 PUSH2 0x219B DUP3 PUSH2 0x2186 JUMP JUMPDEST SWAP2 POP PUSH32 0xFFFFFFFFFFFFFFFFFFFFFFFFFFFFFFFFFFFFFFFFFFFFFFFFFFFFFFFFFFFFFFFF DUP3 SUB PUSH2 0x21CD JUMPI PUSH2 0x21CC PUSH2 0x2157 JUMP JUMPDEST JUMPDEST PUSH1 0x1 DUP3 ADD SWAP1 POP SWAP2 SWAP1 POP JUMP JUMPDEST PUSH32 0x45787065637465642032207265636F7264730000000000000000000000000000 PUSH1 0x0 DUP3 ADD MSTORE POP JUMP JUMPDEST PUSH1 0x0 PUSH2 0x220E PUSH1 0x12 DUP4 PUSH2 0x1E23 JUMP JUMPDEST SWAP2 POP PUSH2 0x2219 DUP3 PUSH2 0x21D8 JUMP JUMPDEST PUSH1 0x20 DUP3 ADD SWAP1 POP SWAP2 SWAP1 POP JUMP JUMPDEST PUSH1 0x0 PUSH1 0x20 DUP3 ADD SWAP1 POP DUP2 DUP2 SUB PUSH1 0x0 DUP4 ADD MSTORE PUSH2 0x223D DUP2 PUSH2 0x2201 JUMP JUMPDEST SWAP1 POP SWAP2 SWAP1 POP JUMP JUMPDEST PUSH32 0x6C6162656C206C656E677468732061726520636F72726563746C792063686563 PUSH1 0x0 DUP3 ADD MSTORE PUSH32 0x6B65640000000000000000000000000000000000000000000000000000000000 PUSH1 0x20 DUP3 ADD MSTORE POP JUMP JUMPDEST PUSH1 0x0 PUSH2 0x22A0 PUSH1 0x23 DUP4 PUSH2 0x1E23 JUMP JUMPDEST SWAP2 POP PUSH2 0x22AB DUP3 PUSH2 0x2244 JUMP JUMPDEST PUSH1 0x40 DUP3 ADD SWAP1 POP SWAP2 SWAP1 POP JUMP JUMPDEST PUSH1 0x0 PUSH1 0x20 DUP3 ADD SWAP1 POP DUP2 DUP2 SUB PUSH1 0x0 DUP4 ADD MSTORE PUSH2 0x22CF DUP2 PUSH2 0x2293 JUMP JUMPDEST SWAP1 POP SWAP2 SWAP1 POP JUMP JUMPDEST PUSH32 0x6F6E65206E616D6520686173206120646966666572656E6365206F66203E3120 PUSH1 0x0 DUP3 ADD MSTORE PUSH32 0x6C6162656C20746F2077697468207468652073616D6520726F6F74206E616D65 PUSH1 0x20 DUP3 ADD MSTORE POP JUMP JUMPDEST PUSH1 0x0 PUSH2 0x2332 PUSH1 0x40 DUP4 PUSH2 0x1E23 JUMP JUMPDEST SWAP2 POP PUSH2 0x233D DUP3 PUSH2 0x22D6 JUMP JUMPDEST PUSH1 0x40 DUP3 ADD SWAP1 POP SWAP2 SWAP1 POP JUMP JUMPDEST PUSH1 0x0 PUSH1 0x20 DUP3 ADD SWAP1 POP DUP2 DUP2 SUB PUSH1 0x0 DUP4 ADD MSTORE PUSH2 0x2361 DUP2 PUSH2 0x2325 JUMP JUMPDEST SWAP1 POP SWAP2 SWAP1 POP JUMP JUMPDEST PUSH32 0x6F6E65206E616D6520686173206120646966666572656E6365206F66203E3120 PUSH1 0x0 DUP3 ADD MSTORE PUSH32 0x6C6162656C20746F207769746820646966666572656E7420726F6F74206E616D PUSH1 0x20 DUP3 ADD MSTORE PUSH32 0x6500000000000000000000000000000000000000000000000000000000000000 PUSH1 0x40 DUP3 ADD MSTORE POP JUMP JUMPDEST PUSH1 0x0 PUSH2 0x23EA PUSH1 0x41 DUP4 PUSH2 0x1E23 JUMP JUMPDEST SWAP2 POP PUSH2 0x23F5 DUP3 PUSH2 0x2368 JUMP JUMPDEST PUSH1 0x60 DUP3 ADD SWAP1 POP SWAP2 SWAP1 POP JUMP JUMPDEST PUSH1 0x0 PUSH1 0x20 DUP3 ADD SWAP1 POP DUP2 DUP2 SUB PUSH1 0x0 DUP4 ADD MSTORE PUSH2 0x2419 DUP2 PUSH2 0x23DD JUMP JUMPDEST SWAP1 POP SWAP2 SWAP1 POP JUMP JUMPDEST PUSH32 0x74776F206E616D6573207374617274207468652073616D652062757420686176 PUSH1 0x0 DUP3 ADD MSTORE PUSH32 0x6520646966666572656E63657320696E206C61746572206C6162656C73000000 PUSH1 0x20 DUP3 ADD MSTORE POP JUMP JUMPDEST PUSH1 0x0 PUSH2 0x247C PUSH1 0x3D DUP4 PUSH2 0x1E23 JUMP JUMPDEST SWAP2 POP PUSH2 0x2487 DUP3 PUSH2 0x2420 JUMP JUMPDEST PUSH1 0x40 DUP3 ADD SWAP1 POP SWAP2 SWAP1 POP JUMP JUMPDEST PUSH1 0x0 PUSH1 0x20 DUP3 ADD SWAP1 POP DUP2 DUP2 SUB PUSH1 0x0 DUP4 ADD MSTORE PUSH2 0x24AB DUP2 PUSH2 0x246F JUMP JUMPDEST SWAP1 POP SWAP2 SWAP1 POP JUMP JUMPDEST PUSH32 0x746865206669727374206C6162656C20736F727473206C617465722C20627574 PUSH1 0x0 DUP3 ADD MSTORE PUSH32 0x20746865206669727374206C6162656C20736F727473206561726C6965720000 PUSH1 0x20 DUP3 ADD MSTORE POP JUMP JUMPDEST PUSH1 0x0 PUSH2 0x250E PUSH1 0x3E DUP4 PUSH2 0x1E23 JUMP JUMPDEST SWAP2 POP PUSH2 0x2519 DUP3 PUSH2 0x24B2 JUMP JUMPDEST PUSH1 0x40 DUP3 ADD SWAP1 POP SWAP2 SWAP1 POP JUMP JUMPDEST PUSH1 0x0 PUSH1 0x20 DUP3 ADD SWAP1 POP DUP2 DUP2 SUB PUSH1 0x0 DUP4 ADD MSTORE PUSH2 0x253D DUP2 PUSH2 0x2501 JUMP JUMPDEST SWAP1 POP SWAP2 SWAP1 POP JUMP JUMPDEST PUSH32 0x74776F206E616D657320776865726520746865206669727374206C6162656C20 PUSH1 0x0 DUP3 ADD MSTORE PUSH32 0x6F6E206F6E65206973206120707265666978206F662074686520666972737420 PUSH1 0x20 DUP3 ADD MSTORE PUSH32 0x6C6162656C206F6E20746865206F746865720000000000000000000000000000 PUSH1 0x40 DUP3 ADD MSTORE POP JUMP JUMPDEST PUSH1 0x0 PUSH2 0x25C6 PUSH1 0x52 DUP4 PUSH2 0x1E23 JUMP JUMPDEST SWAP2 POP PUSH2 0x25D1 DUP3 PUSH2 0x2544 JUMP JUMPDEST PUSH1 0x60 DUP3 ADD SWAP1 POP SWAP2 SWAP1 POP JUMP JUMPDEST PUSH1 0x0 PUSH1 0x20 DUP3 ADD SWAP1 POP DUP2 DUP2 SUB PUSH1 0x0 DUP4 ADD MSTORE PUSH2 0x25F5 DUP2 PUSH2 0x25B9 JUMP JUMPDEST SWAP1 POP SWAP2 SWAP1 POP JUMP JUMPDEST PUSH32 0x78797A20636F6D6573206265666F7265206574684C61622E78797A0000000000 PUSH1 0x0 DUP3 ADD MSTORE POP JUMP JUMPDEST PUSH1 0x0 PUSH2 0x2632 PUSH1 0x1B DUP4 PUSH2 0x1E23 JUMP JUMPDEST SWAP2 POP PUSH2 0x263D DUP3 PUSH2 0x25FC JUMP JUMPDEST PUSH1 0x20 DUP3 ADD SWAP1 POP SWAP2 SWAP1 POP JUMP JUMPDEST PUSH1 0x0 PUSH1 0x20 DUP3 ADD SWAP1 POP DUP2 DUP2 SUB PUSH1 0x0 DUP4 ADD MSTORE PUSH2 0x2661 DUP2 PUSH2 0x2625 JUMP JUMPDEST SWAP1 POP SWAP2 SWAP1 POP JUMP JUMPDEST PUSH32 0x6274684C61622E78797A20636F6D6573206265666F7265206574684C61622E78 PUSH1 0x0 DUP3 ADD MSTORE PUSH32 0x797A000000000000000000000000000000000000000000000000000000000000 PUSH1 0x20 DUP3 ADD MSTORE POP JUMP JUMPDEST PUSH1 0x0 PUSH2 0x26C4 PUSH1 0x22 DUP4 PUSH2 0x1E23 JUMP JUMPDEST SWAP2 POP PUSH2 0x26CF DUP3 PUSH2 0x2668 JUMP JUMPDEST PUSH1 0x40 DUP3 ADD SWAP1 POP SWAP2 SWAP1 POP JUMP JUMPDEST PUSH1 0x0 PUSH1 0x20 DUP3 ADD SWAP1 POP DUP2 DUP2 SUB PUSH1 0x0 DUP4 ADD MSTORE PUSH2 0x26F3 DUP2 PUSH2 0x26B7 JUMP JUMPDEST SWAP1 POP SWAP2 SWAP1 POP JUMP JUMPDEST PUSH32 0x6274684C61622E78797A20616E64206274684C61622E78797A20617265207468 PUSH1 0x0 DUP3 ADD MSTORE PUSH32 0x652073616D650000000000000000000000000000000000000000000000000000 PUSH1 0x20 DUP3 ADD MSTORE POP JUMP JUMPDEST PUSH1 0x0 PUSH2 0x2756 PUSH1 0x26 DUP4 PUSH2 0x1E23 JUMP JUMPDEST SWAP2 POP PUSH2 0x2761 DUP3 PUSH2 0x26FA JUMP JUMPDEST PUSH1 0x40 DUP3 ADD SWAP1 POP SWAP2 SWAP1 POP JUMP JUMPDEST PUSH1 0x0 PUSH1 0x20 DUP3 ADD SWAP1 POP DUP2 DUP2 SUB PUSH1 0x0 DUP4 ADD MSTORE PUSH2 0x2785 DUP2 PUSH2 0x2749 JUMP JUMPDEST SWAP1 POP SWAP2 SWAP1 POP JUMP JUMPDEST PUSH32 0x6574684C61622E78797A20636F6D657320616674657220626574684C61622E78 PUSH1 0x0 DUP3 ADD MSTORE PUSH32 0x797A000000000000000000000000000000000000000000000000000000000000 PUSH1 0x20 DUP3 ADD MSTORE POP JUMP JUMPDEST PUSH1 0x0 PUSH2 0x27E8 PUSH1 0x22 DUP4 PUSH2 0x1E23 JUMP JUMPDEST SWAP2 POP PUSH2 0x27F3 DUP3 PUSH2 0x278C JUMP JUMPDEST PUSH1 0x40 DUP3 ADD SWAP1 POP SWAP2 SWAP1 POP JUMP JUMPDEST PUSH1 0x0 PUSH1 0x20 DUP3 ADD SWAP1 POP DUP2 DUP2 SUB PUSH1 0x0 DUP4 ADD MSTORE PUSH2 0x2817 DUP2 PUSH2 0x27DB JUMP JUMPDEST SWAP1 POP SWAP2 SWAP1 POP JUMP JUMPDEST PUSH32 0x6274684C61622E78797A20636F6D65732061667465722078797A000000000000 PUSH1 0x0 DUP3 ADD MSTORE POP JUMP JUMPDEST PUSH1 0x0 PUSH2 0x2854 PUSH1 0x1A DUP4 PUSH2 0x1E23 JUMP JUMPDEST SWAP2 POP PUSH2 0x285F DUP3 PUSH2 0x281E JUMP JUMPDEST PUSH1 0x20 DUP3 ADD SWAP1 POP SWAP2 SWAP1 POP JUMP JUMPDEST PUSH1 0x0 PUSH1 0x20 DUP3 ADD SWAP1 POP DUP2 DUP2 SUB PUSH1 0x0 DUP4 ADD MSTORE PUSH2 0x2883 DUP2 PUSH2 0x2847 JUMP JUMPDEST SWAP1 POP SWAP2 SWAP1 POP JUMP JUMPDEST PUSH32 0x6C6F6E67612E766C6F6E672E65746820636F6D6573206166746572206C6F6E67 PUSH1 0x0 DUP3 ADD MSTORE PUSH32 0x2E766C6F6E672E65746800000000000000000000000000000000000000000000 PUSH1 0x20 DUP3 ADD MSTORE POP JUMP JUMPDEST PUSH1 0x0 PUSH2 0x28E6 PUSH1 0x2A DUP4 PUSH2 0x1E23 JUMP JUMPDEST SWAP2 POP PUSH2 0x28F1 DUP3 PUSH2 0x288A JUMP JUMPDEST PUSH1 0x40 DUP3 ADD SWAP1 POP SWAP2 SWAP1 POP JUMP JUMPDEST PUSH1 0x0 PUSH1 0x20 DUP3 ADD SWAP1 POP DUP2 DUP2 SUB PUSH1 0x0 DUP4 ADD MSTORE PUSH2 0x2915 DUP2 PUSH2 0x28D9 JUMP JUMPDEST SWAP1 POP SWAP2 SWAP1 POP JUMP JUMPDEST PUSH32 0x31203E3D20300000000000000000000000000000000000000000000000000000 PUSH1 0x0 DUP3 ADD MSTORE POP JUMP JUMPDEST PUSH1 0x0 PUSH2 0x2952 PUSH1 0x6 DUP4 PUSH2 0x1E23 JUMP JUMPDEST SWAP2 POP PUSH2 0x295D DUP3 PUSH2 0x291C JUMP JUMPDEST PUSH1 0x20 DUP3 ADD SWAP1 POP SWAP2 SWAP1 POP JUMP JUMPDEST PUSH1 0x0 PUSH1 0x20 DUP3 ADD SWAP1 POP DUP2 DUP2 SUB PUSH1 0x0 DUP4 ADD MSTORE PUSH2 0x2981 DUP2 PUSH2 0x2945 JUMP JUMPDEST SWAP1 POP SWAP2 SWAP1 POP JUMP JUMPDEST PUSH32 0x212830203C3D2031290000000000000000000000000000000000000000000000 PUSH1 0x0 DUP3 ADD MSTORE POP JUMP JUMPDEST PUSH1 0x0 PUSH2 0x29BE PUSH1 0x9 DUP4 PUSH2 0x1E23 JUMP JUMPDEST SWAP2 POP PUSH2 0x29C9 DUP3 PUSH2 0x2988 JUMP JUMPDEST PUSH1 0x20 DUP3 ADD SWAP1 POP SWAP2 SWAP1 POP JUMP JUMPDEST PUSH1 0x0 PUSH1 0x20 DUP3 ADD SWAP1 POP DUP2 DUP2 SUB PUSH1 0x0 DUP4 ADD MSTORE PUSH2 0x29ED DUP2 PUSH2 0x29B1 JUMP JUMPDEST SWAP1 POP SWAP2 SWAP1 POP JUMP JUMPDEST PUSH32 0x30203E3D20307846464646464646460000000000000000000000000000000000 PUSH1 0x0 DUP3 ADD MSTORE POP JUMP JUMPDEST PUSH1 0x0 PUSH2 0x2A2A PUSH1 0xF DUP4 PUSH2 0x1E23 JUMP JUMPDEST SWAP2 POP PUSH2 0x2A35 DUP3 PUSH2 0x29F4 JUMP JUMPDEST PUSH1 0x20 DUP3 ADD SWAP1 POP SWAP2 SWAP1 POP JUMP JUMPDEST PUSH1 0x0 PUSH1 0x20 DUP3 ADD SWAP1 POP DUP2 DUP2 SUB PUSH1 0x0 DUP4 ADD MSTORE PUSH2 0x2A59 DUP2 PUSH2 0x2A1D JUMP JUMPDEST SWAP1 POP SWAP2 SWAP1 POP JUMP JUMPDEST PUSH32 0x212830203C3D2030784646464646464646290000000000000000000000000000 PUSH1 0x0 DUP3 ADD MSTORE POP JUMP JUMPDEST PUSH1 0x0 PUSH2 0x2A96 PUSH1 0x12 DUP4 PUSH2 0x1E23 JUMP JUMPDEST SWAP2 POP PUSH2 0x2AA1 DUP3 PUSH2 0x2A60 JUMP JUMPDEST PUSH1 0x20 DUP3 ADD SWAP1 POP SWAP2 SWAP1 POP JUMP JUMPDEST PUSH1 0x0 PUSH1 0x20 DUP3 ADD SWAP1 POP DUP2 DUP2 SUB PUSH1 0x0 DUP4 ADD MSTORE PUSH2 0x2AC5 DUP2 PUSH2 0x2A89 JUMP JUMPDEST SWAP1 POP SWAP2 SWAP1 POP JUMP JUMPDEST PUSH32 0x30783131313131313131203E3D20307841414141414141410000000000000000 PUSH1 0x0 DUP3 ADD MSTORE POP JUMP JUMPDEST PUSH1 0x0 PUSH2 0x2B02 PUSH1 0x18 DUP4 PUSH2 0x1E23 JUMP JUMPDEST SWAP2 POP PUSH2 0x2B0D DUP3 PUSH2 0x2ACC JUMP JUMPDEST PUSH1 0x20 DUP3 ADD SWAP1 POP SWAP2 SWAP1 POP JUMP JUMPDEST PUSH1 0x0 PUSH1 0x20 DUP3 ADD SWAP1 POP DUP2 DUP2 SUB PUSH1 0x0 DUP4 ADD MSTORE PUSH2 0x2B31 DUP2 PUSH2 0x2AF5 JUMP JUMPDEST SWAP1 POP SWAP2 SWAP1 POP JUMP JUMPDEST PUSH32 0x31203E3D20310000000000000000000000000000000000000000000000000000 PUSH1 0x0 DUP3 ADD MSTORE POP JUMP JUMPDEST PUSH1 0x0 PUSH2 0x2B6E PUSH1 0x6 DUP4 PUSH2 0x1E23 JUMP JUMPDEST SWAP2 POP PUSH2 0x2B79 DUP3 PUSH2 0x2B38 JUMP JUMPDEST PUSH1 0x20 DUP3 ADD SWAP1 POP SWAP2 SWAP1 POP JUMP JUMPDEST PUSH1 0x0 PUSH1 0x20 DUP3 ADD SWAP1 POP DUP2 DUP2 SUB PUSH1 0x0 DUP4 ADD MSTORE PUSH2 0x2B9D DUP2 PUSH2 0x2B61 JUMP JUMPDEST SWAP1 POP SWAP2 SWAP1 POP JUMP JUMPDEST PUSH32 0x496E76616C6964206B6579746167000000000000000000000000000000000000 PUSH1 0x0 DUP3 ADD MSTORE POP JUMP JUMPDEST PUSH1 0x0 PUSH2 0x2BDA PUSH1 0xE DUP4 PUSH2 0x1E23 JUMP JUMPDEST SWAP2 POP PUSH2 0x2BE5 DUP3 PUSH2 0x2BA4 JUMP JUMPDEST PUSH1 0x20 DUP3 ADD SWAP1 POP SWAP2 SWAP1 POP JUMP JUMPDEST PUSH1 0x0 PUSH1 0x20 DUP3 ADD SWAP1 POP DUP2 DUP2 SUB PUSH1 0x0 DUP4 ADD MSTORE PUSH2 0x2C09 DUP2 PUSH2 0x2BCD JUMP JUMPDEST SWAP1 POP SWAP2 SWAP1 POP JUMP JUMPDEST PUSH32 0x496E76616C6964206B6579746167202832290000000000000000000000000000 PUSH1 0x0 DUP3 ADD MSTORE POP JUMP JUMPDEST PUSH1 0x0 PUSH2 0x2C46 PUSH1 0x12 DUP4 PUSH2 0x1E23 JUMP JUMPDEST SWAP2 POP PUSH2 0x2C51 DUP3 PUSH2 0x2C10 JUMP JUMPDEST PUSH1 0x20 DUP3 ADD SWAP1 POP SWAP2 SWAP1 POP JUMP JUMPDEST PUSH1 0x0 PUSH1 0x20 DUP3 ADD SWAP1 POP DUP2 DUP2 SUB PUSH1 0x0 DUP4 ADD MSTORE PUSH2 0x2C75 DUP2 PUSH2 0x2C39 JUMP JUMPDEST SWAP1 POP SWAP2 SWAP1 POP JUMP JUMPDEST PUSH32 0x496E76616C6964206B6579746167202833290000000000000000000000000000 PUSH1 0x0 DUP3 ADD MSTORE POP JUMP JUMPDEST PUSH1 0x0 PUSH2 0x2CB2 PUSH1 0x12 DUP4 PUSH2 0x1E23 JUMP JUMPDEST SWAP2 POP PUSH2 0x2CBD DUP3 PUSH2 0x2C7C JUMP JUMPDEST PUSH1 0x20 DUP3 ADD SWAP1 POP SWAP2 SWAP1 POP JUMP JUMPDEST PUSH1 0x0 PUSH1 0x20 DUP3 ADD SWAP1 POP DUP2 DUP2 SUB PUSH1 0x0 DUP4 ADD MSTORE PUSH2 0x2CE1 DUP2 PUSH2 0x2CA5 JUMP JUMPDEST SWAP1 POP SWAP2 SWAP1 POP JUMP JUMPDEST PUSH32 0x6C6162656C436F756E7428272E2729203D3D2030000000000000000000000000 PUSH1 0x0 DUP3 ADD MSTORE POP JUMP JUMPDEST PUSH1 0x0 PUSH2 0x2D1E PUSH1 0x14 DUP4 PUSH2 0x1E23 JUMP JUMPDEST SWAP2 POP PUSH2 0x2D29 DUP3 PUSH2 0x2CE8 JUMP JUMPDEST PUSH1 0x20 DUP3 ADD SWAP1 POP SWAP2 SWAP1 POP JUMP JUMPDEST PUSH1 0x0 PUSH1 0x20 DUP3 ADD SWAP1 POP DUP2 DUP2 SUB PUSH1 0x0 DUP4 ADD MSTORE PUSH2 0x2D4D DUP2 PUSH2 0x2D11 JUMP JUMPDEST SWAP1 POP SWAP2 SWAP1 POP JUMP JUMPDEST PUSH32 0x6C6162656C436F756E742827612E2729203D3D20310000000000000000000000 PUSH1 0x0 DUP3 ADD MSTORE POP JUMP JUMPDEST PUSH1 0x0 PUSH2 0x2D8A PUSH1 0x15 DUP4 PUSH2 0x1E23 JUMP JUMPDEST SWAP2 POP PUSH2 0x2D95 DUP3 PUSH2 0x2D54 JUMP JUMPDEST PUSH1 0x20 DUP3 ADD SWAP1 POP SWAP2 SWAP1 POP JUMP JUMPDEST PUSH1 0x0 PUSH1 0x20 DUP3 ADD SWAP1 POP DUP2 DUP2 SUB PUSH1 0x0 DUP4 ADD MSTORE PUSH2 0x2DB9 DUP2 PUSH2 0x2D7D JUMP JUMPDEST SWAP1 POP SWAP2 SWAP1 POP JUMP JUMPDEST PUSH32 0x6C6162656C436F756E742827622E612E2729203D3D2032000000000000000000 PUSH1 0x0 DUP3 ADD MSTORE POP JUMP JUMPDEST PUSH1 0x0 PUSH2 0x2DF6 PUSH1 0x17 DUP4 PUSH2 0x1E23 JUMP JUMPDEST SWAP2 POP PUSH2 0x2E01 DUP3 PUSH2 0x2DC0 JUMP JUMPDEST PUSH1 0x20 DUP3 ADD SWAP1 POP SWAP2 SWAP1 POP JUMP JUMPDEST PUSH1 0x0 PUSH1 0x20 DUP3 ADD SWAP1 POP DUP2 DUP2 SUB PUSH1 0x0 DUP4 ADD MSTORE PUSH2 0x2E25 DUP2 PUSH2 0x2DE9 JUMP JUMPDEST SWAP1 POP SWAP2 SWAP1 POP JUMP JUMPDEST PUSH32 0x6E616D654C656E6774682827286274686C6162292E78797A2E2729203D3D2036 PUSH1 0x0 DUP3 ADD MSTORE POP JUMP JUMPDEST PUSH1 0x0 PUSH2 0x2E62 PUSH1 0x20 DUP4 PUSH2 0x1E23 JUMP JUMPDEST SWAP2 POP PUSH2 0x2E6D DUP3 PUSH2 0x2E2C JUMP JUMPDEST PUSH1 0x20 DUP3 ADD SWAP1 POP SWAP2 SWAP1 POP JUMP JUMPDEST PUSH1 0x0 PUSH1 0x20 DUP3 ADD SWAP1 POP DUP2 DUP2 SUB PUSH1 0x0 DUP4 ADD MSTORE PUSH2 0x2E91 DUP2 PUSH2 0x2E55 JUMP JUMPDEST SWAP1 POP SWAP2 SWAP1 POP JUMP JUMPDEST PUSH32 0x4E487B7100000000000000000000000000000000000000000000000000000000 PUSH1 0x0 MSTORE PUSH1 0x1 PUSH1 0x4 MSTORE PUSH1 0x24 PUSH1 0x0 REVERT JUMPDEST PUSH1 0x0 PUSH2 0x2ED2 DUP3 PUSH2 0x2186 JUMP JUMPDEST SWAP2 POP PUSH2 0x2EDD DUP4 PUSH2 0x2186 JUMP JUMPDEST SWAP3 POP DUP3 DUP3 ADD SWAP1 POP DUP1 DUP3 GT ISZERO PUSH2 0x2EF5 JUMPI PUSH2 0x2EF4 PUSH2 0x2157 JUMP JUMPDEST JUMPDEST SWAP3 SWAP2 POP POP JUMP JUMPDEST PUSH1 0x0 PUSH2 0x2F06 DUP3 PUSH2 0x2186 JUMP JUMPDEST SWAP2 POP PUSH2 0x2F11 DUP4 PUSH2 0x2186 JUMP JUMPDEST SWAP3 POP DUP3 DUP3 SUB SWAP1 POP DUP2 DUP2 GT ISZERO PUSH2 0x2F29 JUMPI PUSH2 0x2F28 PUSH2 0x2157 JUMP JUMPDEST JUMPDEST SWAP3 SWAP2 POP POP JUMP JUMPDEST PUSH1 0x0 PUSH2 0x2F3A DUP3 PUSH2 0x2186 JUMP JUMPDEST SWAP2 POP PUSH1 0x0 DUP3 SUB PUSH2 0x2F4D JUMPI PUSH2 0x2F4C PUSH2 0x2157 JUMP JUMPDEST JUMPDEST PUSH1 0x1 DUP3 SUB SWAP1 POP SWAP2 SWAP1 POP JUMP JUMPDEST PUSH32 0x4C6F6E67206B657973206E6F74207065726D6974746564000000000000000000 PUSH1 0x0 DUP3 ADD MSTORE POP JUMP JUMPDEST PUSH1 0x0 PUSH2 0x2F8E PUSH1 0x17 DUP4 PUSH2 0x1E23 JUMP JUMPDEST SWAP2 POP PUSH2 0x2F99 DUP3 PUSH2 0x2F58 JUMP JUMPDEST PUSH1 0x20 DUP3 ADD SWAP1 POP SWAP2 SWAP1 POP JUMP JUMPDEST PUSH1 0x0 PUSH1 0x20 DUP3 ADD SWAP1 POP DUP2 DUP2 SUB PUSH1 0x0 DUP4 ADD MSTORE PUSH2 0x2FBD DUP2 PUSH2 0x2F81 JUMP JUMPDEST SWAP1 POP SWAP2 SWAP1 POP JUMP JUMPDEST PUSH32 0x4E487B7100000000000000000000000000000000000000000000000000000000 PUSH1 0x0 MSTORE PUSH1 0x41 PUSH1 0x4 MSTORE PUSH1 0x24 PUSH1 0x0 REVERT JUMPDEST PUSH2 0x2FFC DUP2 PUSH2 0x2186 JUMP JUMPDEST DUP3 MSTORE POP POP JUMP JUMPDEST PUSH1 0x0 PUSH1 0x40 DUP3 ADD SWAP1 POP PUSH2 0x3017 PUSH1 0x0 DUP4 ADD DUP6 PUSH2 0x2FF3 JUMP JUMPDEST PUSH2 0x3024 PUSH1 0x20 DUP4 ADD DUP5 PUSH2 0x2FF3 JUMP JUMPDEST SWAP4 SWAP3 POP POP POP JUMP JUMPDEST PUSH1 0x0 PUSH2 0x3036 DUP3 PUSH2 0x2186 JUMP JUMPDEST SWAP2 POP PUSH2 0x3041 DUP4 PUSH2 0x2186 JUMP JUMPDEST SWAP3 POP DUP3 DUP3 MUL PUSH2 0x304F DUP2 PUSH2 0x2186 JUMP JUMPDEST SWAP2 POP DUP3 DUP3 DIV DUP5 EQ DUP4 ISZERO OR PUSH2 0x3066 JUMPI PUSH2 0x3065 PUSH2 0x2157 JUMP JUMPDEST JUMPDEST POP SWAP3 SWAP2 POP POP JUMP JUMPDEST PUSH1 0x0 DUP2 PUSH1 0x1 SHR SWAP1 POP SWAP2 SWAP1 POP JUMP JUMPDEST PUSH1 0x0 DUP1 DUP3 SWAP2 POP DUP4 SWAP1 POP JUMPDEST PUSH1 0x1 DUP6 GT ISZERO PUSH2 0x30C4 JUMPI DUP1 DUP7 DIV DUP2 GT ISZERO PUSH2 0x30A0 JUMPI PUSH2 0x309F PUSH2 0x2157 JUMP JUMPDEST JUMPDEST PUSH1 0x1 DUP6 AND ISZERO PUSH2 0x30AF JUMPI DUP1 DUP3 MUL SWAP2 POP JUMPDEST DUP1 DUP2 MUL SWAP1 POP PUSH2 0x30BD DUP6 PUSH2 0x306D JUMP JUMPDEST SWAP5 POP PUSH2 0x3084 JUMP JUMPDEST SWAP5 POP SWAP5 SWAP3 POP POP POP JUMP JUMPDEST PUSH1 0x0 DUP3 PUSH2 0x30DD JUMPI PUSH1 0x1 SWAP1 POP PUSH2 0x3199 JUMP JUMPDEST DUP2 PUSH2 0x30EB JUMPI PUSH1 0x0 SWAP1 POP PUSH2 0x3199 JUMP JUMPDEST DUP2 PUSH1 0x1 DUP2 EQ PUSH2 0x3101 JUMPI PUSH1 0x2 DUP2 EQ PUSH2 0x310B JUMPI PUSH2 0x313A JUMP JUMPDEST PUSH1 0x1 SWAP2 POP POP PUSH2 0x3199 JUMP JUMPDEST PUSH1 0xFF DUP5 GT ISZERO PUSH2 0x311D JUMPI PUSH2 0x311C PUSH2 0x2157 JUMP JUMPDEST JUMPDEST DUP4 PUSH1 0x2 EXP SWAP2 POP DUP5 DUP3 GT ISZERO PUSH2 0x3134 JUMPI PUSH2 0x3133 PUSH2 0x2157 JUMP JUMPDEST JUMPDEST POP PUSH2 0x3199 JUMP JUMPDEST POP PUSH1 0x20 DUP4 LT PUSH2 0x133 DUP4 LT AND PUSH1 0x4E DUP5 LT PUSH1 0xB DUP5 LT AND OR ISZERO PUSH2 0x316F JUMPI DUP3 DUP3 EXP SWAP1 POP DUP4 DUP2 GT ISZERO PUSH2 0x316A JUMPI PUSH2 0x3169 PUSH2 0x2157 JUMP JUMPDEST JUMPDEST PUSH2 0x3199 JUMP JUMPDEST PUSH2 0x317C DUP5 DUP5 DUP5 PUSH1 0x1 PUSH2 0x307A JUMP JUMPDEST SWAP3 POP SWAP1 POP DUP2 DUP5 DIV DUP2 GT ISZERO PUSH2 0x3193 JUMPI PUSH2 0x3192 PUSH2 0x2157 JUMP JUMPDEST JUMPDEST DUP2 DUP2 MUL SWAP1 POP JUMPDEST SWAP4 SWAP3 POP POP POP JUMP JUMPDEST PUSH1 0x0 PUSH2 0x31AB DUP3 PUSH2 0x2186 JUMP JUMPDEST SWAP2 POP PUSH2 0x31B6 DUP4 PUSH2 0x2186 JUMP JUMPDEST SWAP3 POP PUSH2 0x31E3 PUSH32 0xFFFFFFFFFFFFFFFFFFFFFFFFFFFFFFFFFFFFFFFFFFFFFFFFFFFFFFFFFFFFFFFF DUP5 DUP5 PUSH2 0x30CD JUMP JUMPDEST SWAP1 POP SWAP3 SWAP2 POP POP JUMP JUMPDEST PUSH1 0x0 DUP2 SWAP1 POP SWAP2 SWAP1 POP JUMP JUMPDEST PUSH1 0x0 PUSH2 0x3200 DUP3 PUSH2 0x31EB JUMP JUMPDEST SWAP2 POP PUSH2 0x320B DUP4 PUSH2 0x31EB JUMP JUMPDEST SWAP3 POP DUP3 DUP3 SUB SWAP1 POP DUP2 DUP2 SLT PUSH1 0x0 DUP5 SLT AND DUP3 DUP3 SGT PUSH1 0x0 DUP6 SLT ISZERO AND OR ISZERO PUSH2 0x3232 JUMPI PUSH2 0x3231 PUSH2 0x2157 JUMP JUMPDEST JUMPDEST SWAP3 SWAP2 POP POP JUMP INVALID ADD ADD SUB ADDMOD SUB ADD STOP ADD 0xA8 STOP KECCAK256 0xA9 SSTORE PUSH7 0xBA42E886BB804C 0xDA DUP5 0xE4 PUSH31 0xF56DBD7AEC612615552CEC906D2116D0EF207028C51554144DFEAFE7C7CB8F STOP 0x5D 0xD1 DUP3 CALLVALUE SGT GASPRICE 0xC0 PUSH18 0xA81182CE1FD14AD2283BC83435F9DF2F631 ORIGIN MLOAD SWAP4 BYTE OR PUSH14 0xF0DA51E54F42E604860DFB359580 0x25 0xF SSTORE SWAP13 0xC5 NUMBER 0xC4 SELFDESTRUCT 0xD5 SHR 0xBE RETURNDATASIZE 0xE8 0xCF 0xD0 PUSH8 0x19237F9FC47EE729 0xDA MOD DUP4 PUSH0 LOG4 MSTORE 0xE8 0x25 0xE9 LOG1 DUP15 0xBC 0x2E 0xCB 0xCF JUMP CALLVALUE PUSH21 0x652C33CF56A9033BCDF5D973121797EC8089041B6E SUB LOG1 0xB7 0x2D EXP PUSH20 0x5B984E03687309332324F27C2DBA85E9DB15E83A ADD NUMBER CODESIZE 0x2E SWAP8 0x4B MOD 0x21 0xC1 DUP15 PUSH3 0x5ECEC9 SMOD JUMPI PUSH30 0x9E7BADE95241A81EBBE8A901D4D3276E40B114C0A2E6FC38D19C2E6AAB02 PUSH5 0x4B2813F575 0xFC 0x21 PUSH1 0x1E 0xD 0xEE 0x49 0xCD SWAP15 0xE9 PUSH11 0x43103E524D62873D010103 ADDMOD SUB ADD STOP ADD 0xAC SELFDESTRUCT 0xB4 MULMOD 0xBC 0xC9 CODECOPY 0xF8 BALANCE 0xF7 LOG1 0xE5 0xEC DUP9 0xF7 0xA5 SWAP3 SSTORE 0xEC MSTORE8 DIV SIGNEXTEND 0xE4 ORIGIN MUL PUSH20 0x90A4CE896D6F9086F3C5E177FBFE118163AAEC7A CALL CHAINID 0x2C SELFBALANCE SWAP5 MSIZE PREVRANDAO 0xC4 0xE2 0xC0 0x26 0xBE 0x5E SWAP9 0xBB 0xCD 0xED 0x25 SWAP8 DUP3 PUSH19 0xE1E3E079C5094D573F0E83C92F02B32D3513B1 SSTORE SIGNEXTEND DUP3 PUSH10 0x29C80DD0F92CAC966D17 PUSH23 0x9FD5867B647C3F38029ABDC48152EB8F207159ECC5D232 0xC7 0xC1 MSTORE8 PUSH29 0x79F4B7AC28FF11682F21681BF6D6ABA555032BF6F9F036BEB2AAA5B377 DUP14 PUSH15 0xEBFBA6BF9EA191BE4AB0CAEA759E2F PUSH24 0x3A1F9029C73ECB8D5735B9321DB085F1B8E2D8038FE29419 SWAP3 SLOAD DUP13 0xEE 0xD PUSH8 0xDD4547E11DD63AF9 0xC9 0xFC SHR SLOAD PUSH7 0xFB684CF009D719 PUSH29 0x2CF79E792AB501E6A8A1CA519AF2CB9B5F6367E94C0D47502451357BE1 0xB5 ADD PUSH2 0x0 ADD STOP ADD STOP STOP 0xE LT STOP DIV PUSH21 0x101620161000001000100000E100004C0A801 ADD ADD STOP SUB SDIV SUB ADD STOP ADD 0xBF 0xA5 0x4C CODESIZE 0xD9 MULMOD STATICCALL 0xBB 0xF SWAP4 PUSH30 0x70D775BA0DF4C0BADB09707D995249406950407A621C794C68B186B15DBF DUP16 SWAP16 SWAP15 LOG2 BALANCE 0xE9 0xF9 PUSH5 0x14CCDA4ECE 0xB5 SIGNEXTEND OR 0xA9 0xAC PUSH13 0x4BD4B95DA04849E96EE791578B PUSH17 0x3BC9AE184FB1794BAC792A0787F693A40F NOT CREATE2 0x23 0xEE PUSH14 0xBD3599DBAAA9A50437926ECF6438 DUP5 0x5D SAR 0x49 PREVRANDAO DUP10 PUSH3 0x524F2A BYTE PUSH27 0x36B3A0A1ECA3010003050440000003BA2FA05A75E173BEDE89EB71 DUP4 BYTE 0xB1 BLOCKHASH CALLDATALOAD CALLCODE BLOCKHASH DUP11 0xD0 SWAP14 DELEGATECALL 0xD8 0xDC DUP16 DUP16 PUSH19 0xE8F13506FEADDF7B04CB14958B82966E342056 0x23 MUL 0xC4 STOP 0x2B 0xC4 REVERT ADDMOD DUP5 ORIGIN 0xE1 PUSH1 0x51 SWAP12 0xB1 0x4D 0xAE DUP3 PREVRANDAO CODESIZE POP 0xC1 TIMESTAMP RETURNDATACOPY MOD ADDMOD JUMPI LT 0xB5 0xCA CREATE PUSH17 0xD46B7BA7E481414F6A5FE225FDCA984C95 SWAP1 SWAP2 PUSH5 0x5D0CF1C9A1 LOG3 SGT 0xD7 0xE7 0xFB PUSH28 0xA60B967B71A65F8CEF2C3768E11B081C8FCF21303132333435363738 CODECOPY ADDRESS BALANCE ORIGIN CALLER CALLVALUE CALLDATALOAD CALLDATASIZE CALLDATACOPY CODESIZE CODECOPY ADDRESS BALANCE ORIGIN CALLER CALLVALUE CALLDATALOAD CALLDATASIZE CALLDATACOPY CODESIZE CODECOPY ADDRESS BALANCE PUSH2 0x3130 BALANCE ORIGIN CALLER CALLVALUE CALLDATALOAD CALLDATASIZE CALLDATACOPY CODESIZE CODECOPY ADDRESS BALANCE ORIGIN CALLER CALLVALUE CALLDATALOAD CALLDATASIZE CALLDATACOPY CODESIZE CODECOPY ADDRESS BALANCE ORIGIN CALLER CALLVALUE CALLDATALOAD CALLDATASIZE CALLDATACOPY CODESIZE CODECOPY ADDRESS BALANCE ORIGIN CALLER CALLVALUE CALLDATALOAD CALLDATASIZE CALLDATACOPY CODESIZE CODECOPY ADDRESS BALANCE ORIGIN CALLER CALLVALUE CALLDATALOAD CALLDATASIZE CALLDATACOPY CODESIZE SUB PUSH6 0x746800223031 ORIGIN CALLER CALLVALUE CALLDATALOAD CALLDATASIZE CALLDATACOPY CODESIZE CODECOPY ADDRESS BALANCE ORIGIN CALLER CALLVALUE CALLDATALOAD CALLDATASIZE CALLDATACOPY CODESIZE CODECOPY ADDRESS BALANCE ORIGIN CALLER CALLVALUE CALLDATALOAD CALLDATASIZE CALLDATACOPY CODESIZE CODECOPY ADDRESS BALANCE PUSH2 0x3031 ADDRESS BALANCE ORIGIN CALLER CALLVALUE CALLDATALOAD CALLDATASIZE CALLDATACOPY CODESIZE CODECOPY ADDRESS BALANCE ORIGIN CALLER CALLVALUE CALLDATALOAD CALLDATASIZE CALLDATACOPY CODESIZE CODECOPY ADDRESS BALANCE ORIGIN CALLER CALLVALUE CALLDATALOAD CALLDATASIZE CALLDATACOPY CODESIZE CODECOPY ADDRESS BALANCE ORIGIN CALLER CALLVALUE CALLDATALOAD CALLDATASIZE CALLDATACOPY CODESIZE CODECOPY ADDRESS BALANCE ORIGIN CALLER CALLVALUE CALLDATALOAD CALLDATASIZE CALLDATACOPY CODESIZE SUB PUSH6 0x746800A26469 PUSH17 0x66735822122070479F92B16D8DD1C60542 MSTORE 0xCB 0xD9 PUSH9 0x452DCB1BF8424F6CF9 CALLDATASIZE 0x23 0xE3 NOT 0xE2 PUSH13 0x285964736F6C63430008140033 "
				},
				"gasEstimates": {
					"creation": {
						"codeDepositCost": "2785200",
						"executionCost": "3038",
						"totalCost": "2788238"
					},
					"external": {
						"testCompareNames()": "infinite",
						"testIterateRRs()": "infinite",
						"testKeyTag()": "infinite",
						"testLabelCount()": "infinite",
						"testNameLength()": "infinite",
						"testSerialNumberGt()": "infinite"
					}
				},
				"methodIdentifiers": {
					"testCompareNames()": "976e62ac",
					"testIterateRRs()": "706fc4de",
					"testKeyTag()": "bb73daed",
					"testLabelCount()": "cc60617b",
					"testNameLength()": "0250cf9a",
					"testSerialNumberGt()": "9e4a090d"
				}
			},
			"storageLayout": {
				"storage": [],
				"types": null
			},
			"userdoc": {
				"kind": "user",
				"methods": {},
				"version": 1
			}
		}
	}
}