{
	"package/contracts/test/TestBytesUtils.sol": {
		"TestBytesUtils": {
			"abi": [
				{
					"inputs": [
						{
							"internalType": "uint256",
							"name": "offset",
							"type": "uint256"
						},
						{
							"internalType": "uint256",
							"name": "length",
							"type": "uint256"
						}
					],
					"name": "OffsetOutOfBoundsError",
					"type": "error"
				},
				{
					"inputs": [],
					"name": "testBase32HexDecodeWord",
					"outputs": [],
					"stateMutability": "pure",
					"type": "function"
				},
				{
					"inputs": [],
					"name": "testCompare",
					"outputs": [],
					"stateMutability": "pure",
					"type": "function"
				},
				{
					"inputs": [],
					"name": "testComparePartial",
					"outputs": [],
					"stateMutability": "pure",
					"type": "function"
				},
				{
					"inputs": [],
					"name": "testEquals",
					"outputs": [],
					"stateMutability": "pure",
					"type": "function"
				},
				{
					"inputs": [],
					"name": "testKeccak",
					"outputs": [],
					"stateMutability": "pure",
					"type": "function"
				},
				{
					"inputs": [],
					"name": "testReadBytes20",
					"outputs": [],
					"stateMutability": "pure",
					"type": "function"
				},
				{
					"inputs": [],
					"name": "testReadBytes32",
					"outputs": [],
					"stateMutability": "pure",
					"type": "function"
				},
				{
					"inputs": [],
					"name": "testReadUint16",
					"outputs": [],
					"stateMutability": "pure",
					"type": "function"
				},
				{
					"inputs": [],
					"name": "testReadUint32",
					"outputs": [],
					"stateMutability": "pure",
					"type": "function"
				},
				{
					"inputs": [],
					"name": "testReadUint8",
					"outputs": [],
					"stateMutability": "pure",
					"type": "function"
				},
				{
					"inputs": [],
					"name": "testSubstring",
					"outputs": [],
					"stateMutability": "pure",
					"type": "function"
				}
			],
			"devdoc": {
				"kind": "dev",
				"methods": {},
				"version": 1
			},
			"evm": {
				"assembly": "    /* \"package/contracts/test/TestBytesUtils.sol\":125:5778  contract TestBytesUtils {... */\n  mstore(0x40, 0x80)\n  callvalue\n  dup1\n  iszero\n  tag_1\n  jumpi\n  0x00\n  dup1\n  revert\ntag_1:\n  pop\n  dataSize(sub_0)\n  dup1\n  dataOffset(sub_0)\n  0x00\n  codecopy\n  0x00\n  return\nstop\n\nsub_0: assembly {\n        /* \"package/contracts/test/TestBytesUtils.sol\":125:5778  contract TestBytesUtils {... */\n      mstore(0x40, 0x80)\n      callvalue\n      dup1\n      iszero\n      tag_1\n      jumpi\n      0x00\n      dup1\n      revert\n    tag_1:\n      pop\n      jumpi(tag_2, lt(calldatasize, 0x04))\n      shr(0xe0, calldataload(0x00))\n      dup1\n      0x809a6173\n      gt\n      tag_14\n      jumpi\n      dup1\n      0x809a6173\n      eq\n      tag_8\n      jumpi\n      dup1\n      0x83d31df6\n      eq\n      tag_9\n      jumpi\n      dup1\n      0x878ab4ae\n      eq\n      tag_10\n      jumpi\n      dup1\n      0xc80094b3\n      eq\n      tag_11\n      jumpi\n      dup1\n      0xe77975cf\n      eq\n      tag_12\n      jumpi\n      dup1\n      0xf3cbda46\n      eq\n      tag_13\n      jumpi\n      jump(tag_2)\n    tag_14:\n      dup1\n      0x5aa6f9\n      eq\n      tag_3\n      jumpi\n      dup1\n      0x098e6232\n      eq\n      tag_4\n      jumpi\n      dup1\n      0x1b8e1b81\n      eq\n      tag_5\n      jumpi\n      dup1\n      0x2e72f9a9\n      eq\n      tag_6\n      jumpi\n      dup1\n      0x673dcc73\n      eq\n      tag_7\n      jumpi\n    tag_2:\n      0x00\n      dup1\n      revert\n        /* \"package/contracts/test/TestBytesUtils.sol\":3936:4163  function testReadBytes20() public pure {... */\n    tag_3:\n      tag_15\n      tag_16\n      jump\t// in\n    tag_15:\n      stop\n        /* \"package/contracts/test/TestBytesUtils.sol\":3089:3537  function testSubstring() public pure {... */\n    tag_4:\n      tag_17\n      tag_18\n      jump\t// in\n    tag_17:\n      stop\n        /* \"package/contracts/test/TestBytesUtils.sol\":3817:3932  function testReadUint32() public pure {... */\n    tag_5:\n      tag_19\n      tag_20\n      jump\t// in\n    tag_19:\n      stop\n        /* \"package/contracts/test/TestBytesUtils.sol\":3541:3700  function testReadUint8() public pure {... */\n    tag_6:\n      tag_21\n      tag_22\n      jump\t// in\n    tag_21:\n      stop\n        /* \"package/contracts/test/TestBytesUtils.sol\":180:701  function testKeccak() public pure {... */\n    tag_7:\n      tag_23\n      tag_24\n      jump\t// in\n    tag_23:\n      stop\n        /* \"package/contracts/test/TestBytesUtils.sol\":2200:3085  function testCompare() public pure {... */\n    tag_8:\n      tag_25\n      tag_26\n      jump\t// in\n    tag_25:\n      stop\n        /* \"package/contracts/test/TestBytesUtils.sol\":4399:5776  function testBase32HexDecodeWord() public pure {... */\n    tag_9:\n      tag_27\n      tag_28\n      jump\t// in\n    tag_27:\n      stop\n        /* \"package/contracts/test/TestBytesUtils.sol\":1259:2196  function testComparePartial() public pure {... */\n    tag_10:\n      tag_29\n      tag_30\n      jump\t// in\n    tag_29:\n      stop\n        /* \"package/contracts/test/TestBytesUtils.sol\":705:1255  function testEquals() public pure {... */\n    tag_11:\n      tag_31\n      tag_32\n      jump\t// in\n    tag_31:\n      stop\n        /* \"package/contracts/test/TestBytesUtils.sol\":4167:4395  function testReadBytes32() public pure {... */\n    tag_12:\n      tag_33\n      tag_34\n      jump\t// in\n    tag_33:\n      stop\n        /* \"package/contracts/test/TestBytesUtils.sol\":3704:3813  function testReadUint16() public pure {... */\n    tag_13:\n      tag_35\n      tag_36\n      jump\t// in\n    tag_35:\n      stop\n        /* \"package/contracts/test/TestBytesUtils.sol\":3936:4163  function testReadBytes20() public pure {... */\n    tag_16:\n        /* \"package/contracts/test/TestBytesUtils.sol\":4064:4130  0x62636465666768696a6b6c6d6e6f707172737475000000000000000000000000 */\n      0x62636465666768696a6b6c6d6e6f707172737475000000000000000000000000\n        /* \"package/contracts/test/TestBytesUtils.sol\":4056:4131  bytes32(0x62636465666768696a6b6c6d6e6f707172737475000000000000000000000000) */\n      0x00\n      shl\n        /* \"package/contracts/test/TestBytesUtils.sol\":4004:4043  \"abcdefghijklmnopqrstuv\".readBytes20(1) */\n      tag_38\n        /* \"package/contracts/test/TestBytesUtils.sol\":4041:4042  1 */\n      0x01\n        /* \"package/contracts/test/TestBytesUtils.sol\":4004:4040  \"abcdefghijklmnopqrstuv\".readBytes20 */\n      mload(0x40)\n      dup1\n      0x40\n      add\n      0x40\n      mstore\n      dup1\n      0x16\n      dup2\n      mstore\n      0x20\n      add\n      0x6162636465666768696a6b6c6d6e6f7071727374757600000000000000000000\n      dup2\n      mstore\n      pop\n      tag_39\n      swap1\n        /* \"package/contracts/test/TestBytesUtils.sol\":4004:4043  \"abcdefghijklmnopqrstuv\".readBytes20(1) */\n      swap2\n      swap1\n      0xffffffff\n      and\n      jump\t// in\n    tag_38:\n        /* \"package/contracts/test/TestBytesUtils.sol\":3996:4044  bytes32(\"abcdefghijklmnopqrstuv\".readBytes20(1)) */\n      not(0xffffffffffffffffffffffff)\n      and\n        /* \"package/contracts/test/TestBytesUtils.sol\":3996:4131  bytes32(\"abcdefghijklmnopqrstuv\".readBytes20(1)) ==... */\n      eq\n        /* \"package/contracts/test/TestBytesUtils.sol\":3981:4158  require(... */\n      tag_40\n      jumpi\n      mload(0x40)\n      0x08c379a000000000000000000000000000000000000000000000000000000000\n      dup2\n      mstore\n      0x04\n      add\n      tag_41\n      swap1\n      tag_42\n      jump\t// in\n    tag_41:\n      mload(0x40)\n      dup1\n      swap2\n      sub\n      swap1\n      revert\n    tag_40:\n        /* \"package/contracts/test/TestBytesUtils.sol\":3936:4163  function testReadBytes20() public pure {... */\n      jump\t// out\n        /* \"package/contracts/test/TestBytesUtils.sol\":3089:3537  function testSubstring() public pure {... */\n    tag_18:\n        /* \"package/contracts/test/TestBytesUtils.sol\":3195:3204  bytes(\"\") */\n      mload(0x40)\n      dup1\n      0x20\n      add\n      0x40\n      mstore\n      dup1\n      0x00\n      dup2\n      mstore\n      pop\n        /* \"package/contracts/test/TestBytesUtils.sol\":3185:3205  keccak256(bytes(\"\")) */\n      dup1\n      mload\n      swap1\n      0x20\n      add\n      keccak256\n        /* \"package/contracts/test/TestBytesUtils.sol\":3156:3179  \"hello\".substring(0, 0) */\n      tag_44\n        /* \"package/contracts/test/TestBytesUtils.sol\":3174:3175  0 */\n      0x00\n        /* \"package/contracts/test/TestBytesUtils.sol\":3177:3178  0 */\n      dup1\n        /* \"package/contracts/test/TestBytesUtils.sol\":3156:3173  \"hello\".substring */\n      mload(0x40)\n      dup1\n      0x40\n      add\n      0x40\n      mstore\n      dup1\n      0x05\n      dup2\n      mstore\n      0x20\n      add\n      0x68656c6c6f000000000000000000000000000000000000000000000000000000\n      dup2\n      mstore\n      pop\n      tag_45\n      swap1\n        /* \"package/contracts/test/TestBytesUtils.sol\":3156:3179  \"hello\".substring(0, 0) */\n      swap3\n      swap2\n      swap1\n      0xffffffff\n      and\n      jump\t// in\n    tag_44:\n        /* \"package/contracts/test/TestBytesUtils.sol\":3140:3181  keccak256(bytes(\"hello\".substring(0, 0))) */\n      dup1\n      mload\n      swap1\n      0x20\n      add\n      keccak256\n        /* \"package/contracts/test/TestBytesUtils.sol\":3140:3205  keccak256(bytes(\"hello\".substring(0, 0))) == keccak256(bytes(\"\")) */\n      eq\n        /* \"package/contracts/test/TestBytesUtils.sol\":3132:3222  require(keccak256(bytes(\"hello\".substring(0, 0))) == keccak256(bytes(\"\")), \"Copy 0 bytes\") */\n      tag_46\n      jumpi\n      mload(0x40)\n      0x08c379a000000000000000000000000000000000000000000000000000000000\n      dup2\n      mstore\n      0x04\n      add\n      tag_47\n      swap1\n      tag_48\n      jump\t// in\n    tag_47:\n      mload(0x40)\n      dup1\n      swap2\n      sub\n      swap1\n      revert\n    tag_46:\n        /* \"package/contracts/test/TestBytesUtils.sol\":3291:3304  bytes(\"hell\") */\n      mload(0x40)\n      dup1\n      0x40\n      add\n      0x40\n      mstore\n      dup1\n      0x04\n      dup2\n      mstore\n      0x20\n      add\n      0x68656c6c00000000000000000000000000000000000000000000000000000000\n      dup2\n      mstore\n      pop\n        /* \"package/contracts/test/TestBytesUtils.sol\":3281:3305  keccak256(bytes(\"hell\")) */\n      dup1\n      mload\n      swap1\n      0x20\n      add\n      keccak256\n        /* \"package/contracts/test/TestBytesUtils.sol\":3252:3275  \"hello\".substring(0, 4) */\n      tag_49\n        /* \"package/contracts/test/TestBytesUtils.sol\":3270:3271  0 */\n      0x00\n        /* \"package/contracts/test/TestBytesUtils.sol\":3273:3274  4 */\n      0x04\n        /* \"package/contracts/test/TestBytesUtils.sol\":3252:3269  \"hello\".substring */\n      mload(0x40)\n      dup1\n      0x40\n      add\n      0x40\n      mstore\n      dup1\n      0x05\n      dup2\n      mstore\n      0x20\n      add\n      0x68656c6c6f000000000000000000000000000000000000000000000000000000\n      dup2\n      mstore\n      pop\n      tag_45\n      swap1\n        /* \"package/contracts/test/TestBytesUtils.sol\":3252:3275  \"hello\".substring(0, 4) */\n      swap3\n      swap2\n      swap1\n      0xffffffff\n      and\n      jump\t// in\n    tag_49:\n        /* \"package/contracts/test/TestBytesUtils.sol\":3236:3277  keccak256(bytes(\"hello\".substring(0, 4))) */\n      dup1\n      mload\n      swap1\n      0x20\n      add\n      keccak256\n        /* \"package/contracts/test/TestBytesUtils.sol\":3236:3305  keccak256(bytes(\"hello\".substring(0, 4))) == keccak256(bytes(\"hell\")) */\n      eq\n        /* \"package/contracts/test/TestBytesUtils.sol\":3228:3324  require(keccak256(bytes(\"hello\".substring(0, 4))) == keccak256(bytes(\"hell\")), \"Copy substring\") */\n      tag_50\n      jumpi\n      mload(0x40)\n      0x08c379a000000000000000000000000000000000000000000000000000000000\n      dup2\n      mstore\n      0x04\n      add\n      tag_51\n      swap1\n      tag_52\n      jump\t// in\n    tag_51:\n      mload(0x40)\n      dup1\n      swap2\n      sub\n      swap1\n      revert\n    tag_50:\n        /* \"package/contracts/test/TestBytesUtils.sol\":3393:3406  bytes(\"ello\") */\n      mload(0x40)\n      dup1\n      0x40\n      add\n      0x40\n      mstore\n      dup1\n      0x04\n      dup2\n      mstore\n      0x20\n      add\n      0x656c6c6f00000000000000000000000000000000000000000000000000000000\n      dup2\n      mstore\n      pop\n        /* \"package/contracts/test/TestBytesUtils.sol\":3383:3407  keccak256(bytes(\"ello\")) */\n      dup1\n      mload\n      swap1\n      0x20\n      add\n      keccak256\n        /* \"package/contracts/test/TestBytesUtils.sol\":3354:3377  \"hello\".substring(1, 4) */\n      tag_53\n        /* \"package/contracts/test/TestBytesUtils.sol\":3372:3373  1 */\n      0x01\n        /* \"package/contracts/test/TestBytesUtils.sol\":3375:3376  4 */\n      0x04\n        /* \"package/contracts/test/TestBytesUtils.sol\":3354:3371  \"hello\".substring */\n      mload(0x40)\n      dup1\n      0x40\n      add\n      0x40\n      mstore\n      dup1\n      0x05\n      dup2\n      mstore\n      0x20\n      add\n      0x68656c6c6f000000000000000000000000000000000000000000000000000000\n      dup2\n      mstore\n      pop\n      tag_45\n      swap1\n        /* \"package/contracts/test/TestBytesUtils.sol\":3354:3377  \"hello\".substring(1, 4) */\n      swap3\n      swap2\n      swap1\n      0xffffffff\n      and\n      jump\t// in\n    tag_53:\n        /* \"package/contracts/test/TestBytesUtils.sol\":3338:3379  keccak256(bytes(\"hello\".substring(1, 4))) */\n      dup1\n      mload\n      swap1\n      0x20\n      add\n      keccak256\n        /* \"package/contracts/test/TestBytesUtils.sol\":3338:3407  keccak256(bytes(\"hello\".substring(1, 4))) == keccak256(bytes(\"ello\")) */\n      eq\n        /* \"package/contracts/test/TestBytesUtils.sol\":3330:3426  require(keccak256(bytes(\"hello\".substring(1, 4))) == keccak256(bytes(\"ello\")), \"Copy substring\") */\n      tag_54\n      jumpi\n      mload(0x40)\n      0x08c379a000000000000000000000000000000000000000000000000000000000\n      dup2\n      mstore\n      0x04\n      add\n      tag_55\n      swap1\n      tag_52\n      jump\t// in\n    tag_55:\n      mload(0x40)\n      dup1\n      swap2\n      sub\n      swap1\n      revert\n    tag_54:\n        /* \"package/contracts/test/TestBytesUtils.sol\":3495:3509  bytes(\"hello\") */\n      mload(0x40)\n      dup1\n      0x40\n      add\n      0x40\n      mstore\n      dup1\n      0x05\n      dup2\n      mstore\n      0x20\n      add\n      0x68656c6c6f000000000000000000000000000000000000000000000000000000\n      dup2\n      mstore\n      pop\n        /* \"package/contracts/test/TestBytesUtils.sol\":3485:3510  keccak256(bytes(\"hello\")) */\n      dup1\n      mload\n      swap1\n      0x20\n      add\n      keccak256\n        /* \"package/contracts/test/TestBytesUtils.sol\":3456:3479  \"hello\".substring(0, 5) */\n      tag_56\n        /* \"package/contracts/test/TestBytesUtils.sol\":3474:3475  0 */\n      0x00\n        /* \"package/contracts/test/TestBytesUtils.sol\":3477:3478  5 */\n      0x05\n        /* \"package/contracts/test/TestBytesUtils.sol\":3456:3473  \"hello\".substring */\n      mload(0x40)\n      dup1\n      0x40\n      add\n      0x40\n      mstore\n      dup1\n      0x05\n      dup2\n      mstore\n      0x20\n      add\n      0x68656c6c6f000000000000000000000000000000000000000000000000000000\n      dup2\n      mstore\n      pop\n      tag_45\n      swap1\n        /* \"package/contracts/test/TestBytesUtils.sol\":3456:3479  \"hello\".substring(0, 5) */\n      swap3\n      swap2\n      swap1\n      0xffffffff\n      and\n      jump\t// in\n    tag_56:\n        /* \"package/contracts/test/TestBytesUtils.sol\":3440:3481  keccak256(bytes(\"hello\".substring(0, 5))) */\n      dup1\n      mload\n      swap1\n      0x20\n      add\n      keccak256\n        /* \"package/contracts/test/TestBytesUtils.sol\":3440:3510  keccak256(bytes(\"hello\".substring(0, 5))) == keccak256(bytes(\"hello\")) */\n      eq\n        /* \"package/contracts/test/TestBytesUtils.sol\":3432:3532  require(keccak256(bytes(\"hello\".substring(0, 5))) == keccak256(bytes(\"hello\")), \"Copy whole string\") */\n      tag_57\n      jumpi\n      mload(0x40)\n      0x08c379a000000000000000000000000000000000000000000000000000000000\n      dup2\n      mstore\n      0x04\n      add\n      tag_58\n      swap1\n      tag_59\n      jump\t// in\n    tag_58:\n      mload(0x40)\n      dup1\n      swap2\n      sub\n      swap1\n      revert\n    tag_57:\n        /* \"package/contracts/test/TestBytesUtils.sol\":3089:3537  function testSubstring() public pure {... */\n      jump\t// out\n        /* \"package/contracts/test/TestBytesUtils.sol\":3817:3932  function testReadUint32() public pure {... */\n    tag_20:\n        /* \"package/contracts/test/TestBytesUtils.sol\":3900:3910  0x62636465 */\n      0x62636465\n        /* \"package/contracts/test/TestBytesUtils.sol\":3874:3895  \"abcde\".readUint32(1) */\n      tag_61\n        /* \"package/contracts/test/TestBytesUtils.sol\":3893:3894  1 */\n      0x01\n        /* \"package/contracts/test/TestBytesUtils.sol\":3874:3892  \"abcde\".readUint32 */\n      mload(0x40)\n      dup1\n      0x40\n      add\n      0x40\n      mstore\n      dup1\n      0x05\n      dup2\n      mstore\n      0x20\n      add\n      0x6162636465000000000000000000000000000000000000000000000000000000\n      dup2\n      mstore\n      pop\n      tag_62\n      swap1\n        /* \"package/contracts/test/TestBytesUtils.sol\":3874:3895  \"abcde\".readUint32(1) */\n      swap2\n      swap1\n      0xffffffff\n      and\n      jump\t// in\n    tag_61:\n        /* \"package/contracts/test/TestBytesUtils.sol\":3869:3896  uint(\"abcde\".readUint32(1)) */\n      0xffffffff\n      and\n        /* \"package/contracts/test/TestBytesUtils.sol\":3869:3910  uint(\"abcde\".readUint32(1)) == 0x62636465 */\n      eq\n        /* \"package/contracts/test/TestBytesUtils.sol\":3861:3927  require(uint(\"abcde\".readUint32(1)) == 0x62636465, \"Read uint 32\") */\n      tag_63\n      jumpi\n      mload(0x40)\n      0x08c379a000000000000000000000000000000000000000000000000000000000\n      dup2\n      mstore\n      0x04\n      add\n      tag_64\n      swap1\n      tag_65\n      jump\t// in\n    tag_64:\n      mload(0x40)\n      dup1\n      swap2\n      sub\n      swap1\n      revert\n    tag_63:\n        /* \"package/contracts/test/TestBytesUtils.sol\":3817:3932  function testReadUint32() public pure {... */\n      jump\t// out\n        /* \"package/contracts/test/TestBytesUtils.sol\":3541:3700  function testReadUint8() public pure {... */\n    tag_22:\n        /* \"package/contracts/test/TestBytesUtils.sol\":3618:3622  0x61 */\n      0x61\n        /* \"package/contracts/test/TestBytesUtils.sol\":3597:3613  \"a\".readUint8(0) */\n      tag_67\n        /* \"package/contracts/test/TestBytesUtils.sol\":3611:3612  0 */\n      0x00\n        /* \"package/contracts/test/TestBytesUtils.sol\":3597:3610  \"a\".readUint8 */\n      mload(0x40)\n      dup1\n      0x40\n      add\n      0x40\n      mstore\n      dup1\n      0x01\n      dup2\n      mstore\n      0x20\n      add\n      0x6100000000000000000000000000000000000000000000000000000000000000\n      dup2\n      mstore\n      pop\n      tag_68\n      swap1\n        /* \"package/contracts/test/TestBytesUtils.sol\":3597:3613  \"a\".readUint8(0) */\n      swap2\n      swap1\n      0xffffffff\n      and\n      jump\t// in\n    tag_67:\n        /* \"package/contracts/test/TestBytesUtils.sol\":3592:3614  uint(\"a\".readUint8(0)) */\n      0xff\n      and\n        /* \"package/contracts/test/TestBytesUtils.sol\":3592:3622  uint(\"a\".readUint8(0)) == 0x61 */\n      eq\n        /* \"package/contracts/test/TestBytesUtils.sol\":3584:3636  require(uint(\"a\".readUint8(0)) == 0x61, \"a == 0x61\") */\n      tag_69\n      jumpi\n      mload(0x40)\n      0x08c379a000000000000000000000000000000000000000000000000000000000\n      dup2\n      mstore\n      0x04\n      add\n      tag_70\n      swap1\n      tag_71\n      jump\t// in\n    tag_70:\n      mload(0x40)\n      dup1\n      swap2\n      sub\n      swap1\n      revert\n    tag_69:\n        /* \"package/contracts/test/TestBytesUtils.sol\":3677:3681  0x61 */\n      0x61\n        /* \"package/contracts/test/TestBytesUtils.sol\":3655:3672  \"ba\".readUint8(1) */\n      tag_72\n        /* \"package/contracts/test/TestBytesUtils.sol\":3670:3671  1 */\n      0x01\n        /* \"package/contracts/test/TestBytesUtils.sol\":3655:3669  \"ba\".readUint8 */\n      mload(0x40)\n      dup1\n      0x40\n      add\n      0x40\n      mstore\n      dup1\n      0x02\n      dup2\n      mstore\n      0x20\n      add\n      0x6261000000000000000000000000000000000000000000000000000000000000\n      dup2\n      mstore\n      pop\n      tag_68\n      swap1\n        /* \"package/contracts/test/TestBytesUtils.sol\":3655:3672  \"ba\".readUint8(1) */\n      swap2\n      swap1\n      0xffffffff\n      and\n      jump\t// in\n    tag_72:\n        /* \"package/contracts/test/TestBytesUtils.sol\":3650:3673  uint(\"ba\".readUint8(1)) */\n      0xff\n      and\n        /* \"package/contracts/test/TestBytesUtils.sol\":3650:3681  uint(\"ba\".readUint8(1)) == 0x61 */\n      eq\n        /* \"package/contracts/test/TestBytesUtils.sol\":3642:3695  require(uint(\"ba\".readUint8(1)) == 0x61, \"a == 0x61\") */\n      tag_73\n      jumpi\n      mload(0x40)\n      0x08c379a000000000000000000000000000000000000000000000000000000000\n      dup2\n      mstore\n      0x04\n      add\n      tag_74\n      swap1\n      tag_71\n      jump\t// in\n    tag_74:\n      mload(0x40)\n      dup1\n      swap2\n      sub\n      swap1\n      revert\n    tag_73:\n        /* \"package/contracts/test/TestBytesUtils.sol\":3541:3700  function testReadUint8() public pure {... */\n      jump\t// out\n        /* \"package/contracts/test/TestBytesUtils.sol\":180:701  function testKeccak() public pure {... */\n    tag_24:\n        /* \"package/contracts/test/TestBytesUtils.sol\":262:328  0xc5d2460186f7233c927e7db2dcc703c0e500b653ca82273b7bfad8045d85a470 */\n      0xc5d2460186f7233c927e7db2dcc703c0e500b653ca82273b7bfad8045d85a470\n        /* \"package/contracts/test/TestBytesUtils.sol\":254:329  bytes32(0xc5d2460186f7233c927e7db2dcc703c0e500b653ca82273b7bfad8045d85a470) */\n      0x00\n      shl\n        /* \"package/contracts/test/TestBytesUtils.sol\":235:250  \"\".keccak(0, 0) */\n      tag_76\n        /* \"package/contracts/test/TestBytesUtils.sol\":245:246  0 */\n      0x00\n        /* \"package/contracts/test/TestBytesUtils.sol\":248:249  0 */\n      dup1\n        /* \"package/contracts/test/TestBytesUtils.sol\":235:244  \"\".keccak */\n      mload(0x40)\n      dup1\n      0x20\n      add\n      0x40\n      mstore\n      dup1\n      0x00\n      dup2\n      mstore\n      pop\n      tag_77\n      swap1\n        /* \"package/contracts/test/TestBytesUtils.sol\":235:250  \"\".keccak(0, 0) */\n      swap3\n      swap2\n      swap1\n      0xffffffff\n      and\n      jump\t// in\n    tag_76:\n        /* \"package/contracts/test/TestBytesUtils.sol\":235:329  \"\".keccak(0, 0) == bytes32(0xc5d2460186f7233c927e7db2dcc703c0e500b653ca82273b7bfad8045d85a470) */\n      eq\n        /* \"package/contracts/test/TestBytesUtils.sol\":220:375  require(... */\n      tag_78\n      jumpi\n      mload(0x40)\n      0x08c379a000000000000000000000000000000000000000000000000000000000\n      dup2\n      mstore\n      0x04\n      add\n      tag_79\n      swap1\n      tag_80\n      jump\t// in\n    tag_79:\n      mload(0x40)\n      dup1\n      swap2\n      sub\n      swap1\n      revert\n    tag_78:\n        /* \"package/contracts/test/TestBytesUtils.sol\":426:492  0x41b1a0649752af1b28b3dc29a1556eee781e4a4c3a1f7f53f90fa834de098c4d */\n      0x41b1a0649752af1b28b3dc29a1556eee781e4a4c3a1f7f53f90fa834de098c4d\n        /* \"package/contracts/test/TestBytesUtils.sol\":418:493  bytes32(0x41b1a0649752af1b28b3dc29a1556eee781e4a4c3a1f7f53f90fa834de098c4d) */\n      0x00\n      shl\n        /* \"package/contracts/test/TestBytesUtils.sol\":396:414  \"foo\".keccak(0, 3) */\n      tag_81\n        /* \"package/contracts/test/TestBytesUtils.sol\":409:410  0 */\n      0x00\n        /* \"package/contracts/test/TestBytesUtils.sol\":412:413  3 */\n      0x03\n        /* \"package/contracts/test/TestBytesUtils.sol\":396:408  \"foo\".keccak */\n      mload(0x40)\n      dup1\n      0x40\n      add\n      0x40\n      mstore\n      dup1\n      0x03\n      dup2\n      mstore\n      0x20\n      add\n      0x666f6f0000000000000000000000000000000000000000000000000000000000\n      dup2\n      mstore\n      pop\n      tag_77\n      swap1\n        /* \"package/contracts/test/TestBytesUtils.sol\":396:414  \"foo\".keccak(0, 3) */\n      swap3\n      swap2\n      swap1\n      0xffffffff\n      and\n      jump\t// in\n    tag_81:\n        /* \"package/contracts/test/TestBytesUtils.sol\":396:493  \"foo\".keccak(0, 3) == bytes32(0x41b1a0649752af1b28b3dc29a1556eee781e4a4c3a1f7f53f90fa834de098c4d) */\n      eq\n        /* \"package/contracts/test/TestBytesUtils.sol\":381:532  require(... */\n      tag_82\n      jumpi\n      mload(0x40)\n      0x08c379a000000000000000000000000000000000000000000000000000000000\n      dup2\n      mstore\n      0x04\n      add\n      tag_83\n      swap1\n      tag_84\n      jump\t// in\n    tag_83:\n      mload(0x40)\n      dup1\n      swap2\n      sub\n      swap1\n      revert\n    tag_82:\n        /* \"package/contracts/test/TestBytesUtils.sol\":583:649  0xc5d2460186f7233c927e7db2dcc703c0e500b653ca82273b7bfad8045d85a470 */\n      0xc5d2460186f7233c927e7db2dcc703c0e500b653ca82273b7bfad8045d85a470\n        /* \"package/contracts/test/TestBytesUtils.sol\":575:650  bytes32(0xc5d2460186f7233c927e7db2dcc703c0e500b653ca82273b7bfad8045d85a470) */\n      0x00\n      shl\n        /* \"package/contracts/test/TestBytesUtils.sol\":553:571  \"foo\".keccak(0, 0) */\n      tag_85\n        /* \"package/contracts/test/TestBytesUtils.sol\":566:567  0 */\n      0x00\n        /* \"package/contracts/test/TestBytesUtils.sol\":569:570  0 */\n      dup1\n        /* \"package/contracts/test/TestBytesUtils.sol\":553:565  \"foo\".keccak */\n      mload(0x40)\n      dup1\n      0x40\n      add\n      0x40\n      mstore\n      dup1\n      0x03\n      dup2\n      mstore\n      0x20\n      add\n      0x666f6f0000000000000000000000000000000000000000000000000000000000\n      dup2\n      mstore\n      pop\n      tag_77\n      swap1\n        /* \"package/contracts/test/TestBytesUtils.sol\":553:571  \"foo\".keccak(0, 0) */\n      swap3\n      swap2\n      swap1\n      0xffffffff\n      and\n      jump\t// in\n    tag_85:\n        /* \"package/contracts/test/TestBytesUtils.sol\":553:650  \"foo\".keccak(0, 0) == bytes32(0xc5d2460186f7233c927e7db2dcc703c0e500b653ca82273b7bfad8045d85a470) */\n      eq\n        /* \"package/contracts/test/TestBytesUtils.sol\":538:696  require(... */\n      tag_86\n      jumpi\n      mload(0x40)\n      0x08c379a000000000000000000000000000000000000000000000000000000000\n      dup2\n      mstore\n      0x04\n      add\n      tag_87\n      swap1\n      tag_80\n      jump\t// in\n    tag_87:\n      mload(0x40)\n      dup1\n      swap2\n      sub\n      swap1\n      revert\n    tag_86:\n        /* \"package/contracts/test/TestBytesUtils.sol\":180:701  function testKeccak() public pure {... */\n      jump\t// out\n        /* \"package/contracts/test/TestBytesUtils.sol\":2200:3085  function testCompare() public pure {... */\n    tag_26:\n        /* \"package/contracts/test/TestBytesUtils.sol\":2274:2278  true */\n      0x01\n        /* \"package/contracts/test/TestBytesUtils.sol\":2249:2278  \"a\".compare(\"a\") == 0 == true */\n      iszero\n      iszero\n        /* \"package/contracts/test/TestBytesUtils.sol\":2269:2270  0 */\n      0x00\n        /* \"package/contracts/test/TestBytesUtils.sol\":2249:2265  \"a\".compare(\"a\") */\n      tag_89\n      mload(0x40)\n      dup1\n      0x40\n      add\n      0x40\n      mstore\n      dup1\n      0x01\n      dup2\n      mstore\n      0x20\n      add\n      0x6100000000000000000000000000000000000000000000000000000000000000\n      dup2\n      mstore\n      pop\n        /* \"package/contracts/test/TestBytesUtils.sol\":2249:2260  \"a\".compare */\n      mload(0x40)\n      dup1\n      0x40\n      add\n      0x40\n      mstore\n      dup1\n      0x01\n      dup2\n      mstore\n      0x20\n      add\n      0x6100000000000000000000000000000000000000000000000000000000000000\n      dup2\n      mstore\n      pop\n      tag_90\n      swap1\n        /* \"package/contracts/test/TestBytesUtils.sol\":2249:2265  \"a\".compare(\"a\") */\n      swap2\n      swap1\n      0xffffffff\n      and\n      jump\t// in\n    tag_89:\n        /* \"package/contracts/test/TestBytesUtils.sol\":2249:2270  \"a\".compare(\"a\") == 0 */\n      eq\n        /* \"package/contracts/test/TestBytesUtils.sol\":2249:2278  \"a\".compare(\"a\") == 0 == true */\n      iszero\n      iszero\n      eq\n        /* \"package/contracts/test/TestBytesUtils.sol\":2241:2296  require(\"a\".compare(\"a\") == 0 == true, \"Compare equal\") */\n      tag_91\n      jumpi\n      mload(0x40)\n      0x08c379a000000000000000000000000000000000000000000000000000000000\n      dup2\n      mstore\n      0x04\n      add\n      tag_92\n      swap1\n      tag_93\n      jump\t// in\n    tag_92:\n      mload(0x40)\n      dup1\n      swap2\n      sub\n      swap1\n      revert\n    tag_91:\n        /* \"package/contracts/test/TestBytesUtils.sol\":2334:2338  true */\n      0x01\n        /* \"package/contracts/test/TestBytesUtils.sol\":2310:2338  \"a\".compare(\"b\") < 0 == true */\n      iszero\n      iszero\n        /* \"package/contracts/test/TestBytesUtils.sol\":2329:2330  0 */\n      0x00\n        /* \"package/contracts/test/TestBytesUtils.sol\":2310:2326  \"a\".compare(\"b\") */\n      tag_94\n      mload(0x40)\n      dup1\n      0x40\n      add\n      0x40\n      mstore\n      dup1\n      0x01\n      dup2\n      mstore\n      0x20\n      add\n      0x6200000000000000000000000000000000000000000000000000000000000000\n      dup2\n      mstore\n      pop\n        /* \"package/contracts/test/TestBytesUtils.sol\":2310:2321  \"a\".compare */\n      mload(0x40)\n      dup1\n      0x40\n      add\n      0x40\n      mstore\n      dup1\n      0x01\n      dup2\n      mstore\n      0x20\n      add\n      0x6100000000000000000000000000000000000000000000000000000000000000\n      dup2\n      mstore\n      pop\n      tag_90\n      swap1\n        /* \"package/contracts/test/TestBytesUtils.sol\":2310:2326  \"a\".compare(\"b\") */\n      swap2\n      swap1\n      0xffffffff\n      and\n      jump\t// in\n    tag_94:\n        /* \"package/contracts/test/TestBytesUtils.sol\":2310:2330  \"a\".compare(\"b\") < 0 */\n      slt\n        /* \"package/contracts/test/TestBytesUtils.sol\":2310:2338  \"a\".compare(\"b\") < 0 == true */\n      iszero\n      iszero\n      eq\n        /* \"package/contracts/test/TestBytesUtils.sol\":2302:2383  require(\"a\".compare(\"b\") < 0 == true, \"Compare different value with same length\") */\n      tag_95\n      jumpi\n      mload(0x40)\n      0x08c379a000000000000000000000000000000000000000000000000000000000\n      dup2\n      mstore\n      0x04\n      add\n      tag_96\n      swap1\n      tag_97\n      jump\t// in\n    tag_96:\n      mload(0x40)\n      dup1\n      swap2\n      sub\n      swap1\n      revert\n    tag_95:\n        /* \"package/contracts/test/TestBytesUtils.sol\":2421:2425  true */\n      0x01\n        /* \"package/contracts/test/TestBytesUtils.sol\":2397:2425  \"b\".compare(\"a\") > 0 == true */\n      iszero\n      iszero\n        /* \"package/contracts/test/TestBytesUtils.sol\":2416:2417  0 */\n      0x00\n        /* \"package/contracts/test/TestBytesUtils.sol\":2397:2413  \"b\".compare(\"a\") */\n      tag_98\n      mload(0x40)\n      dup1\n      0x40\n      add\n      0x40\n      mstore\n      dup1\n      0x01\n      dup2\n      mstore\n      0x20\n      add\n      0x6100000000000000000000000000000000000000000000000000000000000000\n      dup2\n      mstore\n      pop\n        /* \"package/contracts/test/TestBytesUtils.sol\":2397:2408  \"b\".compare */\n      mload(0x40)\n      dup1\n      0x40\n      add\n      0x40\n      mstore\n      dup1\n      0x01\n      dup2\n      mstore\n      0x20\n      add\n      0x6200000000000000000000000000000000000000000000000000000000000000\n      dup2\n      mstore\n      pop\n      tag_90\n      swap1\n        /* \"package/contracts/test/TestBytesUtils.sol\":2397:2413  \"b\".compare(\"a\") */\n      swap2\n      swap1\n      0xffffffff\n      and\n      jump\t// in\n    tag_98:\n        /* \"package/contracts/test/TestBytesUtils.sol\":2397:2417  \"b\".compare(\"a\") > 0 */\n      sgt\n        /* \"package/contracts/test/TestBytesUtils.sol\":2397:2425  \"b\".compare(\"a\") > 0 == true */\n      iszero\n      iszero\n      eq\n        /* \"package/contracts/test/TestBytesUtils.sol\":2389:2470  require(\"b\".compare(\"a\") > 0 == true, \"Compare different value with same length\") */\n      tag_99\n      jumpi\n      mload(0x40)\n      0x08c379a000000000000000000000000000000000000000000000000000000000\n      dup2\n      mstore\n      0x04\n      add\n      tag_100\n      swap1\n      tag_97\n      jump\t// in\n    tag_100:\n      mload(0x40)\n      dup1\n      swap2\n      sub\n      swap1\n      revert\n    tag_99:\n        /* \"package/contracts/test/TestBytesUtils.sol\":2510:2514  true */\n      0x01\n        /* \"package/contracts/test/TestBytesUtils.sol\":2484:2514  \"aa\".compare(\"ab\") < 0 == true */\n      iszero\n      iszero\n        /* \"package/contracts/test/TestBytesUtils.sol\":2505:2506  0 */\n      0x00\n        /* \"package/contracts/test/TestBytesUtils.sol\":2484:2502  \"aa\".compare(\"ab\") */\n      tag_101\n      mload(0x40)\n      dup1\n      0x40\n      add\n      0x40\n      mstore\n      dup1\n      0x02\n      dup2\n      mstore\n      0x20\n      add\n      0x6162000000000000000000000000000000000000000000000000000000000000\n      dup2\n      mstore\n      pop\n        /* \"package/contracts/test/TestBytesUtils.sol\":2484:2496  \"aa\".compare */\n      mload(0x40)\n      dup1\n      0x40\n      add\n      0x40\n      mstore\n      dup1\n      0x02\n      dup2\n      mstore\n      0x20\n      add\n      0x6161000000000000000000000000000000000000000000000000000000000000\n      dup2\n      mstore\n      pop\n      tag_90\n      swap1\n        /* \"package/contracts/test/TestBytesUtils.sol\":2484:2502  \"aa\".compare(\"ab\") */\n      swap2\n      swap1\n      0xffffffff\n      and\n      jump\t// in\n    tag_101:\n        /* \"package/contracts/test/TestBytesUtils.sol\":2484:2506  \"aa\".compare(\"ab\") < 0 */\n      slt\n        /* \"package/contracts/test/TestBytesUtils.sol\":2484:2514  \"aa\".compare(\"ab\") < 0 == true */\n      iszero\n      iszero\n      eq\n        /* \"package/contracts/test/TestBytesUtils.sol\":2476:2563  require(\"aa\".compare(\"ab\") < 0 == true, \"Compare different value with multiple length\") */\n      tag_102\n      jumpi\n      mload(0x40)\n      0x08c379a000000000000000000000000000000000000000000000000000000000\n      dup2\n      mstore\n      0x04\n      add\n      tag_103\n      swap1\n      tag_104\n      jump\t// in\n    tag_103:\n      mload(0x40)\n      dup1\n      swap2\n      sub\n      swap1\n      revert\n    tag_102:\n        /* \"package/contracts/test/TestBytesUtils.sol\":2602:2606  true */\n      0x01\n        /* \"package/contracts/test/TestBytesUtils.sol\":2577:2606  \"a\".compare(\"aa\") < 0 == true */\n      iszero\n      iszero\n        /* \"package/contracts/test/TestBytesUtils.sol\":2597:2598  0 */\n      0x00\n        /* \"package/contracts/test/TestBytesUtils.sol\":2577:2594  \"a\".compare(\"aa\") */\n      tag_105\n      mload(0x40)\n      dup1\n      0x40\n      add\n      0x40\n      mstore\n      dup1\n      0x02\n      dup2\n      mstore\n      0x20\n      add\n      0x6161000000000000000000000000000000000000000000000000000000000000\n      dup2\n      mstore\n      pop\n        /* \"package/contracts/test/TestBytesUtils.sol\":2577:2588  \"a\".compare */\n      mload(0x40)\n      dup1\n      0x40\n      add\n      0x40\n      mstore\n      dup1\n      0x01\n      dup2\n      mstore\n      0x20\n      add\n      0x6100000000000000000000000000000000000000000000000000000000000000\n      dup2\n      mstore\n      pop\n      tag_90\n      swap1\n        /* \"package/contracts/test/TestBytesUtils.sol\":2577:2594  \"a\".compare(\"aa\") */\n      swap2\n      swap1\n      0xffffffff\n      and\n      jump\t// in\n    tag_105:\n        /* \"package/contracts/test/TestBytesUtils.sol\":2577:2598  \"a\".compare(\"aa\") < 0 */\n      slt\n        /* \"package/contracts/test/TestBytesUtils.sol\":2577:2606  \"a\".compare(\"aa\") < 0 == true */\n      iszero\n      iszero\n      eq\n        /* \"package/contracts/test/TestBytesUtils.sol\":2569:2656  require(\"a\".compare(\"aa\") < 0 == true, \"Compare different value with different length\") */\n      tag_106\n      jumpi\n      mload(0x40)\n      0x08c379a000000000000000000000000000000000000000000000000000000000\n      dup2\n      mstore\n      0x04\n      add\n      tag_107\n      swap1\n      tag_108\n      jump\t// in\n    tag_107:\n      mload(0x40)\n      dup1\n      swap2\n      sub\n      swap1\n      revert\n    tag_106:\n        /* \"package/contracts/test/TestBytesUtils.sol\":2695:2699  true */\n      0x01\n        /* \"package/contracts/test/TestBytesUtils.sol\":2670:2699  \"aa\".compare(\"a\") > 0 == true */\n      iszero\n      iszero\n        /* \"package/contracts/test/TestBytesUtils.sol\":2690:2691  0 */\n      0x00\n        /* \"package/contracts/test/TestBytesUtils.sol\":2670:2687  \"aa\".compare(\"a\") */\n      tag_109\n      mload(0x40)\n      dup1\n      0x40\n      add\n      0x40\n      mstore\n      dup1\n      0x01\n      dup2\n      mstore\n      0x20\n      add\n      0x6100000000000000000000000000000000000000000000000000000000000000\n      dup2\n      mstore\n      pop\n        /* \"package/contracts/test/TestBytesUtils.sol\":2670:2682  \"aa\".compare */\n      mload(0x40)\n      dup1\n      0x40\n      add\n      0x40\n      mstore\n      dup1\n      0x02\n      dup2\n      mstore\n      0x20\n      add\n      0x6161000000000000000000000000000000000000000000000000000000000000\n      dup2\n      mstore\n      pop\n      tag_90\n      swap1\n        /* \"package/contracts/test/TestBytesUtils.sol\":2670:2687  \"aa\".compare(\"a\") */\n      swap2\n      swap1\n      0xffffffff\n      and\n      jump\t// in\n    tag_109:\n        /* \"package/contracts/test/TestBytesUtils.sol\":2670:2691  \"aa\".compare(\"a\") > 0 */\n      sgt\n        /* \"package/contracts/test/TestBytesUtils.sol\":2670:2699  \"aa\".compare(\"a\") > 0 == true */\n      iszero\n      iszero\n      eq\n        /* \"package/contracts/test/TestBytesUtils.sol\":2662:2749  require(\"aa\".compare(\"a\") > 0 == true, \"Compare different value with different length\") */\n      tag_110\n      jumpi\n      mload(0x40)\n      0x08c379a000000000000000000000000000000000000000000000000000000000\n      dup2\n      mstore\n      0x04\n      add\n      tag_111\n      swap1\n      tag_108\n      jump\t// in\n    tag_111:\n      mload(0x40)\n      dup1\n      swap2\n      sub\n      swap1\n      revert\n    tag_110:\n        /* \"package/contracts/test/TestBytesUtils.sol\":2755:2776  bytes memory longChar */\n      0x00\n        /* \"package/contracts/test/TestBytesUtils.sol\":2755:2815  bytes memory longChar = \"1234567890123456789012345678901234\" */\n      mload(0x40)\n      dup1\n      0x60\n      add\n      0x40\n      mstore\n      dup1\n      0x22\n      dup2\n      mstore\n      0x20\n      add\n      data_7bbc0059a392ec8971d4484557e4297b495362b69eaaf8bb749208e098bcec20\n      0x22\n      swap2\n      codecopy\n      swap1\n      pop\n        /* \"package/contracts/test/TestBytesUtils.sol\":2864:2868  true */\n      0x01\n        /* \"package/contracts/test/TestBytesUtils.sol\":2829:2868  longChar.compare(longChar) == 0 == true */\n      iszero\n      iszero\n        /* \"package/contracts/test/TestBytesUtils.sol\":2859:2860  0 */\n      0x00\n        /* \"package/contracts/test/TestBytesUtils.sol\":2829:2855  longChar.compare(longChar) */\n      tag_112\n        /* \"package/contracts/test/TestBytesUtils.sol\":2846:2854  longChar */\n      dup4\n        /* \"package/contracts/test/TestBytesUtils.sol\":2829:2837  longChar */\n      dup5\n        /* \"package/contracts/test/TestBytesUtils.sol\":2829:2845  longChar.compare */\n      tag_90\n      swap1\n        /* \"package/contracts/test/TestBytesUtils.sol\":2829:2855  longChar.compare(longChar) */\n      swap2\n      swap1\n      0xffffffff\n      and\n      jump\t// in\n    tag_112:\n        /* \"package/contracts/test/TestBytesUtils.sol\":2829:2860  longChar.compare(longChar) == 0 */\n      eq\n        /* \"package/contracts/test/TestBytesUtils.sol\":2829:2868  longChar.compare(longChar) == 0 == true */\n      iszero\n      iszero\n      eq\n        /* \"package/contracts/test/TestBytesUtils.sol\":2821:2905  require(longChar.compare(longChar) == 0 == true, \"Compares more than 32 bytes char\") */\n      tag_113\n      jumpi\n      mload(0x40)\n      0x08c379a000000000000000000000000000000000000000000000000000000000\n      dup2\n      mstore\n      0x04\n      add\n      tag_114\n      swap1\n      tag_115\n      jump\t// in\n    tag_114:\n      mload(0x40)\n      dup1\n      swap2\n      sub\n      swap1\n      revert\n    tag_113:\n        /* \"package/contracts/test/TestBytesUtils.sol\":2911:2937  bytes memory otherLongChar */\n      0x00\n        /* \"package/contracts/test/TestBytesUtils.sol\":2911:2976  bytes memory otherLongChar = \"2234567890123456789012345678901234\" */\n      mload(0x40)\n      dup1\n      0x60\n      add\n      0x40\n      mstore\n      dup1\n      0x22\n      dup2\n      mstore\n      0x20\n      add\n      data_6f15a2d45d0418dfa057ad693315a4cddb0c63f303b9b0b7e9ac6fc26be04652\n      0x22\n      swap2\n      codecopy\n      swap1\n      pop\n        /* \"package/contracts/test/TestBytesUtils.sol\":3029:3033  true */\n      0x01\n        /* \"package/contracts/test/TestBytesUtils.sol\":2990:3033  longChar.compare(otherLongChar) < 0 == true */\n      iszero\n      iszero\n        /* \"package/contracts/test/TestBytesUtils.sol\":3024:3025  0 */\n      0x00\n        /* \"package/contracts/test/TestBytesUtils.sol\":2990:3021  longChar.compare(otherLongChar) */\n      tag_116\n        /* \"package/contracts/test/TestBytesUtils.sol\":3007:3020  otherLongChar */\n      dup4\n        /* \"package/contracts/test/TestBytesUtils.sol\":2990:2998  longChar */\n      dup6\n        /* \"package/contracts/test/TestBytesUtils.sol\":2990:3006  longChar.compare */\n      tag_90\n      swap1\n        /* \"package/contracts/test/TestBytesUtils.sol\":2990:3021  longChar.compare(otherLongChar) */\n      swap2\n      swap1\n      0xffffffff\n      and\n      jump\t// in\n    tag_116:\n        /* \"package/contracts/test/TestBytesUtils.sol\":2990:3025  longChar.compare(otherLongChar) < 0 */\n      slt\n        /* \"package/contracts/test/TestBytesUtils.sol\":2990:3033  longChar.compare(otherLongChar) < 0 == true */\n      iszero\n      iszero\n      eq\n        /* \"package/contracts/test/TestBytesUtils.sol\":2982:3080  require(longChar.compare(otherLongChar) < 0 == true, \"Compare long char with difference at start\") */\n      tag_117\n      jumpi\n      mload(0x40)\n      0x08c379a000000000000000000000000000000000000000000000000000000000\n      dup2\n      mstore\n      0x04\n      add\n      tag_118\n      swap1\n      tag_119\n      jump\t// in\n    tag_118:\n      mload(0x40)\n      dup1\n      swap2\n      sub\n      swap1\n      revert\n    tag_117:\n        /* \"package/contracts/test/TestBytesUtils.sol\":2235:3085  {... */\n      pop\n      pop\n        /* \"package/contracts/test/TestBytesUtils.sol\":2200:3085  function testCompare() public pure {... */\n      jump\t// out\n        /* \"package/contracts/test/TestBytesUtils.sol\":4399:5776  function testBase32HexDecodeWord() public pure {... */\n    tag_28:\n        /* \"package/contracts/test/TestBytesUtils.sol\":4502:4513  bytes1(\"a\") */\n      0x6100000000000000000000000000000000000000000000000000000000000000\n        /* \"package/contracts/test/TestBytesUtils.sol\":4494:4514  bytes32(bytes1(\"a\")) */\n      not(0xffffffffffffffffffffffffffffffffffffffffffffffffffffffffffffff)\n      and\n        /* \"package/contracts/test/TestBytesUtils.sol\":4460:4490  \"C4\".base32HexDecodeWord(0, 2) */\n      tag_121\n        /* \"package/contracts/test/TestBytesUtils.sol\":4485:4486  0 */\n      0x00\n        /* \"package/contracts/test/TestBytesUtils.sol\":4488:4489  2 */\n      0x02\n        /* \"package/contracts/test/TestBytesUtils.sol\":4460:4484  \"C4\".base32HexDecodeWord */\n      mload(0x40)\n      dup1\n      0x40\n      add\n      0x40\n      mstore\n      dup1\n      0x02\n      dup2\n      mstore\n      0x20\n      add\n      0x4334000000000000000000000000000000000000000000000000000000000000\n      dup2\n      mstore\n      pop\n      tag_122\n      swap1\n        /* \"package/contracts/test/TestBytesUtils.sol\":4460:4490  \"C4\".base32HexDecodeWord(0, 2) */\n      swap3\n      swap2\n      swap1\n      0xffffffff\n      and\n      jump\t// in\n    tag_121:\n        /* \"package/contracts/test/TestBytesUtils.sol\":4460:4514  \"C4\".base32HexDecodeWord(0, 2) == bytes32(bytes1(\"a\")) */\n      eq\n        /* \"package/contracts/test/TestBytesUtils.sol\":4452:4529  require(\"C4\".base32HexDecodeWord(0, 2) == bytes32(bytes1(\"a\")), \"Decode 'a'\") */\n      tag_123\n      jumpi\n      mload(0x40)\n      0x08c379a000000000000000000000000000000000000000000000000000000000\n      dup2\n      mstore\n      0x04\n      add\n      tag_124\n      swap1\n      tag_125\n      jump\t// in\n    tag_124:\n      mload(0x40)\n      dup1\n      swap2\n      sub\n      swap1\n      revert\n    tag_123:\n        /* \"package/contracts/test/TestBytesUtils.sol\":4587:4599  bytes2(\"aa\") */\n      0x6161000000000000000000000000000000000000000000000000000000000000\n        /* \"package/contracts/test/TestBytesUtils.sol\":4579:4600  bytes32(bytes2(\"aa\")) */\n      not(0xffffffffffffffffffffffffffffffffffffffffffffffffffffffffffff)\n      and\n        /* \"package/contracts/test/TestBytesUtils.sol\":4543:4575  \"C5GG\".base32HexDecodeWord(0, 4) */\n      tag_126\n        /* \"package/contracts/test/TestBytesUtils.sol\":4570:4571  0 */\n      0x00\n        /* \"package/contracts/test/TestBytesUtils.sol\":4573:4574  4 */\n      0x04\n        /* \"package/contracts/test/TestBytesUtils.sol\":4543:4569  \"C5GG\".base32HexDecodeWord */\n      mload(0x40)\n      dup1\n      0x40\n      add\n      0x40\n      mstore\n      dup1\n      0x04\n      dup2\n      mstore\n      0x20\n      add\n      0x4335474700000000000000000000000000000000000000000000000000000000\n      dup2\n      mstore\n      pop\n      tag_122\n      swap1\n        /* \"package/contracts/test/TestBytesUtils.sol\":4543:4575  \"C5GG\".base32HexDecodeWord(0, 4) */\n      swap3\n      swap2\n      swap1\n      0xffffffff\n      and\n      jump\t// in\n    tag_126:\n        /* \"package/contracts/test/TestBytesUtils.sol\":4543:4600  \"C5GG\".base32HexDecodeWord(0, 4) == bytes32(bytes2(\"aa\")) */\n      eq\n        /* \"package/contracts/test/TestBytesUtils.sol\":4535:4616  require(\"C5GG\".base32HexDecodeWord(0, 4) == bytes32(bytes2(\"aa\")), \"Decode 'aa'\") */\n      tag_127\n      jumpi\n      mload(0x40)\n      0x08c379a000000000000000000000000000000000000000000000000000000000\n      dup2\n      mstore\n      0x04\n      add\n      tag_128\n      swap1\n      tag_129\n      jump\t// in\n    tag_128:\n      mload(0x40)\n      dup1\n      swap2\n      sub\n      swap1\n      revert\n    tag_127:\n        /* \"package/contracts/test/TestBytesUtils.sol\":4675:4688  bytes3(\"aaa\") */\n      0x6161610000000000000000000000000000000000000000000000000000000000\n        /* \"package/contracts/test/TestBytesUtils.sol\":4667:4689  bytes32(bytes3(\"aaa\")) */\n      not(0xffffffffffffffffffffffffffffffffffffffffffffffffffffffffff)\n      and\n        /* \"package/contracts/test/TestBytesUtils.sol\":4630:4663  \"C5GM2\".base32HexDecodeWord(0, 5) */\n      tag_130\n        /* \"package/contracts/test/TestBytesUtils.sol\":4658:4659  0 */\n      0x00\n        /* \"package/contracts/test/TestBytesUtils.sol\":4661:4662  5 */\n      0x05\n        /* \"package/contracts/test/TestBytesUtils.sol\":4630:4657  \"C5GM2\".base32HexDecodeWord */\n      mload(0x40)\n      dup1\n      0x40\n      add\n      0x40\n      mstore\n      dup1\n      0x05\n      dup2\n      mstore\n      0x20\n      add\n      0x4335474d32000000000000000000000000000000000000000000000000000000\n      dup2\n      mstore\n      pop\n      tag_122\n      swap1\n        /* \"package/contracts/test/TestBytesUtils.sol\":4630:4663  \"C5GM2\".base32HexDecodeWord(0, 5) */\n      swap3\n      swap2\n      swap1\n      0xffffffff\n      and\n      jump\t// in\n    tag_130:\n        /* \"package/contracts/test/TestBytesUtils.sol\":4630:4689  \"C5GM2\".base32HexDecodeWord(0, 5) == bytes32(bytes3(\"aaa\")) */\n      eq\n        /* \"package/contracts/test/TestBytesUtils.sol\":4622:4706  require(\"C5GM2\".base32HexDecodeWord(0, 5) == bytes32(bytes3(\"aaa\")), \"Decode 'aaa'\") */\n      tag_131\n      jumpi\n      mload(0x40)\n      0x08c379a000000000000000000000000000000000000000000000000000000000\n      dup2\n      mstore\n      0x04\n      add\n      tag_132\n      swap1\n      tag_133\n      jump\t// in\n    tag_132:\n      mload(0x40)\n      dup1\n      swap2\n      sub\n      swap1\n      revert\n    tag_131:\n        /* \"package/contracts/test/TestBytesUtils.sol\":4767:4781  bytes4(\"aaaa\") */\n      0x6161616100000000000000000000000000000000000000000000000000000000\n        /* \"package/contracts/test/TestBytesUtils.sol\":4759:4782  bytes32(bytes4(\"aaaa\")) */\n      not(0xffffffffffffffffffffffffffffffffffffffffffffffffffffffff)\n      and\n        /* \"package/contracts/test/TestBytesUtils.sol\":4720:4755  \"C5GM2O8\".base32HexDecodeWord(0, 7) */\n      tag_134\n        /* \"package/contracts/test/TestBytesUtils.sol\":4750:4751  0 */\n      0x00\n        /* \"package/contracts/test/TestBytesUtils.sol\":4753:4754  7 */\n      0x07\n        /* \"package/contracts/test/TestBytesUtils.sol\":4720:4749  \"C5GM2O8\".base32HexDecodeWord */\n      mload(0x40)\n      dup1\n      0x40\n      add\n      0x40\n      mstore\n      dup1\n      0x07\n      dup2\n      mstore\n      0x20\n      add\n      0x4335474d324f3800000000000000000000000000000000000000000000000000\n      dup2\n      mstore\n      pop\n      tag_122\n      swap1\n        /* \"package/contracts/test/TestBytesUtils.sol\":4720:4755  \"C5GM2O8\".base32HexDecodeWord(0, 7) */\n      swap3\n      swap2\n      swap1\n      0xffffffff\n      and\n      jump\t// in\n    tag_134:\n        /* \"package/contracts/test/TestBytesUtils.sol\":4720:4782  \"C5GM2O8\".base32HexDecodeWord(0, 7) == bytes32(bytes4(\"aaaa\")) */\n      eq\n        /* \"package/contracts/test/TestBytesUtils.sol\":4712:4800  require(\"C5GM2O8\".base32HexDecodeWord(0, 7) == bytes32(bytes4(\"aaaa\")), \"Decode 'aaaa'\") */\n      tag_135\n      jumpi\n      mload(0x40)\n      0x08c379a000000000000000000000000000000000000000000000000000000000\n      dup2\n      mstore\n      0x04\n      add\n      tag_136\n      swap1\n      tag_137\n      jump\t// in\n    tag_136:\n      mload(0x40)\n      dup1\n      swap2\n      sub\n      swap1\n      revert\n    tag_135:\n        /* \"package/contracts/test/TestBytesUtils.sol\":4862:4877  bytes5(\"aaaaa\") */\n      0x6161616161000000000000000000000000000000000000000000000000000000\n        /* \"package/contracts/test/TestBytesUtils.sol\":4854:4878  bytes32(bytes5(\"aaaaa\")) */\n      not(0xffffffffffffffffffffffffffffffffffffffffffffffffffffff)\n      and\n        /* \"package/contracts/test/TestBytesUtils.sol\":4814:4850  \"C5GM2OB1\".base32HexDecodeWord(0, 8) */\n      tag_138\n        /* \"package/contracts/test/TestBytesUtils.sol\":4845:4846  0 */\n      0x00\n        /* \"package/contracts/test/TestBytesUtils.sol\":4848:4849  8 */\n      0x08\n        /* \"package/contracts/test/TestBytesUtils.sol\":4814:4844  \"C5GM2OB1\".base32HexDecodeWord */\n      mload(0x40)\n      dup1\n      0x40\n      add\n      0x40\n      mstore\n      dup1\n      0x08\n      dup2\n      mstore\n      0x20\n      add\n      0x4335474d324f4231000000000000000000000000000000000000000000000000\n      dup2\n      mstore\n      pop\n      tag_122\n      swap1\n        /* \"package/contracts/test/TestBytesUtils.sol\":4814:4850  \"C5GM2OB1\".base32HexDecodeWord(0, 8) */\n      swap3\n      swap2\n      swap1\n      0xffffffff\n      and\n      jump\t// in\n    tag_138:\n        /* \"package/contracts/test/TestBytesUtils.sol\":4814:4878  \"C5GM2OB1\".base32HexDecodeWord(0, 8) == bytes32(bytes5(\"aaaaa\")) */\n      eq\n        /* \"package/contracts/test/TestBytesUtils.sol\":4806:4897  require(\"C5GM2OB1\".base32HexDecodeWord(0, 8) == bytes32(bytes5(\"aaaaa\")), \"Decode 'aaaaa'\") */\n      tag_139\n      jumpi\n      mload(0x40)\n      0x08c379a000000000000000000000000000000000000000000000000000000000\n      dup2\n      mstore\n      0x04\n      add\n      tag_140\n      swap1\n      tag_141\n      jump\t// in\n    tag_140:\n      mload(0x40)\n      dup1\n      swap2\n      sub\n      swap1\n      revert\n    tag_139:\n        /* \"package/contracts/test/TestBytesUtils.sol\":4959:4974  bytes5(\"aaaaa\") */\n      0x6161616161000000000000000000000000000000000000000000000000000000\n        /* \"package/contracts/test/TestBytesUtils.sol\":4951:4975  bytes32(bytes5(\"aaaaa\")) */\n      not(0xffffffffffffffffffffffffffffffffffffffffffffffffffffff)\n      and\n        /* \"package/contracts/test/TestBytesUtils.sol\":4911:4947  \"c5gm2Ob1\".base32HexDecodeWord(0, 8) */\n      tag_142\n        /* \"package/contracts/test/TestBytesUtils.sol\":4942:4943  0 */\n      0x00\n        /* \"package/contracts/test/TestBytesUtils.sol\":4945:4946  8 */\n      0x08\n        /* \"package/contracts/test/TestBytesUtils.sol\":4911:4941  \"c5gm2Ob1\".base32HexDecodeWord */\n      mload(0x40)\n      dup1\n      0x40\n      add\n      0x40\n      mstore\n      dup1\n      0x08\n      dup2\n      mstore\n      0x20\n      add\n      0x6335676d324f6231000000000000000000000000000000000000000000000000\n      dup2\n      mstore\n      pop\n      tag_122\n      swap1\n        /* \"package/contracts/test/TestBytesUtils.sol\":4911:4947  \"c5gm2Ob1\".base32HexDecodeWord(0, 8) */\n      swap3\n      swap2\n      swap1\n      0xffffffff\n      and\n      jump\t// in\n    tag_142:\n        /* \"package/contracts/test/TestBytesUtils.sol\":4911:4975  \"c5gm2Ob1\".base32HexDecodeWord(0, 8) == bytes32(bytes5(\"aaaaa\")) */\n      eq\n        /* \"package/contracts/test/TestBytesUtils.sol\":4903:5004  require(\"c5gm2Ob1\".base32HexDecodeWord(0, 8) == bytes32(bytes5(\"aaaaa\")), \"Decode 'aaaaa' lowercase\") */\n      tag_143\n      jumpi\n      mload(0x40)\n      0x08c379a000000000000000000000000000000000000000000000000000000000\n      dup2\n      mstore\n      0x04\n      add\n      tag_144\n      swap1\n      tag_145\n      jump\t// in\n    tag_144:\n      mload(0x40)\n      dup1\n      swap2\n      sub\n      swap1\n      revert\n    tag_143:\n        /* \"package/contracts/test/TestBytesUtils.sol\":5116:5153  bytes26(\"abcdefghijklmnopqrstuvwxyz\") */\n      0x6162636465666768696a6b6c6d6e6f707172737475767778797a000000000000\n        /* \"package/contracts/test/TestBytesUtils.sol\":5108:5154  bytes32(bytes26(\"abcdefghijklmnopqrstuvwxyz\")) */\n      not(0xffffffffffff)\n      and\n        /* \"package/contracts/test/TestBytesUtils.sol\":5025:5096  \"C5H66P35CPJMGQBADDM6QRJFE1ON4SRKELR7EU3PF8\".base32HexDecodeWord(0, 42) */\n      tag_146\n        /* \"package/contracts/test/TestBytesUtils.sol\":5090:5091  0 */\n      0x00\n        /* \"package/contracts/test/TestBytesUtils.sol\":5093:5095  42 */\n      0x2a\n        /* \"package/contracts/test/TestBytesUtils.sol\":5025:5089  \"C5H66P35CPJMGQBADDM6QRJFE1ON4SRKELR7EU3PF8\".base32HexDecodeWord */\n      mload(0x40)\n      dup1\n      0x60\n      add\n      0x40\n      mstore\n      dup1\n      0x2a\n      dup2\n      mstore\n      0x20\n      add\n      data_d5b249cb1eecdd5aaa076db77b0d4e5d8c4e13c4e59ba1ed07a07fd94a75d55a\n      0x2a\n      swap2\n      codecopy\n      tag_122\n      swap1\n        /* \"package/contracts/test/TestBytesUtils.sol\":5025:5096  \"C5H66P35CPJMGQBADDM6QRJFE1ON4SRKELR7EU3PF8\".base32HexDecodeWord(0, 42) */\n      swap3\n      swap2\n      swap1\n      0xffffffff\n      and\n      jump\t// in\n    tag_146:\n        /* \"package/contracts/test/TestBytesUtils.sol\":5025:5154  \"C5H66P35CPJMGQBADDM6QRJFE1ON4SRKELR7EU3PF8\".base32HexDecodeWord(0, 42) ==... */\n      eq\n        /* \"package/contracts/test/TestBytesUtils.sol\":5010:5185  require(... */\n      tag_147\n      jumpi\n      mload(0x40)\n      0x08c379a000000000000000000000000000000000000000000000000000000000\n      dup2\n      mstore\n      0x04\n      add\n      tag_148\n      swap1\n      tag_149\n      jump\t// in\n    tag_148:\n      mload(0x40)\n      dup1\n      swap2\n      sub\n      swap1\n      revert\n    tag_147:\n        /* \"package/contracts/test/TestBytesUtils.sol\":5297:5334  bytes26(\"abcdefghijklmnopqrstuvwxyz\") */\n      0x6162636465666768696a6b6c6d6e6f707172737475767778797a000000000000\n        /* \"package/contracts/test/TestBytesUtils.sol\":5289:5335  bytes32(bytes26(\"abcdefghijklmnopqrstuvwxyz\")) */\n      not(0xffffffffffff)\n      and\n        /* \"package/contracts/test/TestBytesUtils.sol\":5206:5277  \"c5h66p35cpjmgqbaddm6qrjfe1on4srkelr7eu3pf8\".base32HexDecodeWord(0, 42) */\n      tag_150\n        /* \"package/contracts/test/TestBytesUtils.sol\":5271:5272  0 */\n      0x00\n        /* \"package/contracts/test/TestBytesUtils.sol\":5274:5276  42 */\n      0x2a\n        /* \"package/contracts/test/TestBytesUtils.sol\":5206:5270  \"c5h66p35cpjmgqbaddm6qrjfe1on4srkelr7eu3pf8\".base32HexDecodeWord */\n      mload(0x40)\n      dup1\n      0x60\n      add\n      0x40\n      mstore\n      dup1\n      0x2a\n      dup2\n      mstore\n      0x20\n      add\n      data_34d1d58192761e6d0e8d002725ad91f448a977fb4651ba0ca9a9b355f56b36b9\n      0x2a\n      swap2\n      codecopy\n      tag_122\n      swap1\n        /* \"package/contracts/test/TestBytesUtils.sol\":5206:5277  \"c5h66p35cpjmgqbaddm6qrjfe1on4srkelr7eu3pf8\".base32HexDecodeWord(0, 42) */\n      swap3\n      swap2\n      swap1\n      0xffffffff\n      and\n      jump\t// in\n    tag_150:\n        /* \"package/contracts/test/TestBytesUtils.sol\":5206:5335  \"c5h66p35cpjmgqbaddm6qrjfe1on4srkelr7eu3pf8\".base32HexDecodeWord(0, 42) ==... */\n      eq\n        /* \"package/contracts/test/TestBytesUtils.sol\":5191:5376  require(... */\n      tag_151\n      jumpi\n      mload(0x40)\n      0x08c379a000000000000000000000000000000000000000000000000000000000\n      dup2\n      mstore\n      0x04\n      add\n      tag_152\n      swap1\n      tag_153\n      jump\t// in\n    tag_152:\n      mload(0x40)\n      dup1\n      swap2\n      sub\n      swap1\n      revert\n    tag_151:\n        /* \"package/contracts/test/TestBytesUtils.sol\":5490:5533  bytes32(\"aaaaaaaaaaaaaaaaaaaaaaaaaaaaaaaa\") */\n      0x6161616161616161616161616161616161616161616161616161616161616161\n        /* \"package/contracts/test/TestBytesUtils.sol\":5397:5478  \"C5GM2OB1C5GM2OB1C5GM2OB1C5GM2OB1C5GM2OB1C5GM2OB1C5GG\".base32HexDecodeWord(0, 52) */\n      tag_154\n        /* \"package/contracts/test/TestBytesUtils.sol\":5472:5473  0 */\n      0x00\n        /* \"package/contracts/test/TestBytesUtils.sol\":5475:5477  52 */\n      0x34\n        /* \"package/contracts/test/TestBytesUtils.sol\":5397:5471  \"C5GM2OB1C5GM2OB1C5GM2OB1C5GM2OB1C5GM2OB1C5GM2OB1C5GG\".base32HexDecodeWord */\n      mload(0x40)\n      dup1\n      0x60\n      add\n      0x40\n      mstore\n      dup1\n      0x34\n      dup2\n      mstore\n      0x20\n      add\n      data_5ebffa5fa64d4dae90899395a7ef54698bee770e38417122e0109c098ec79afe\n      0x34\n      swap2\n      codecopy\n      tag_122\n      swap1\n        /* \"package/contracts/test/TestBytesUtils.sol\":5397:5478  \"C5GM2OB1C5GM2OB1C5GM2OB1C5GM2OB1C5GM2OB1C5GM2OB1C5GG\".base32HexDecodeWord(0, 52) */\n      swap3\n      swap2\n      swap1\n      0xffffffff\n      and\n      jump\t// in\n    tag_154:\n        /* \"package/contracts/test/TestBytesUtils.sol\":5397:5533  \"C5GM2OB1C5GM2OB1C5GM2OB1C5GM2OB1C5GM2OB1C5GM2OB1C5GG\".base32HexDecodeWord(0, 52) ==... */\n      eq\n        /* \"package/contracts/test/TestBytesUtils.sol\":5382:5562  require(... */\n      tag_155\n      jumpi\n      mload(0x40)\n      0x08c379a000000000000000000000000000000000000000000000000000000000\n      dup2\n      mstore\n      0x04\n      add\n      tag_156\n      swap1\n      tag_157\n      jump\t// in\n    tag_156:\n      mload(0x40)\n      dup1\n      swap2\n      sub\n      swap1\n      revert\n    tag_155:\n        /* \"package/contracts/test/TestBytesUtils.sol\":5679:5733  bytes32(hex\"5f3a48d66e3ec18431192611a2a055b01d3b4b5d\") */\n      0x5f3a48d66e3ec18431192611a2a055b01d3b4b5d000000000000000000000000\n        /* \"package/contracts/test/TestBytesUtils.sol\":5583:5667  \" bst4hlje7r0o8c8p4o8q582lm0ejmiqt\\x07matoken\\x03xyz\\x00\".base32HexDecodeWord(1, 32) */\n      tag_158\n        /* \"package/contracts/test/TestBytesUtils.sol\":5661:5662  1 */\n      0x01\n        /* \"package/contracts/test/TestBytesUtils.sol\":5664:5666  32 */\n      0x20\n        /* \"package/contracts/test/TestBytesUtils.sol\":5583:5660  \" bst4hlje7r0o8c8p4o8q582lm0ejmiqt\\x07matoken\\x03xyz\\x00\".base32HexDecodeWord */\n      mload(0x40)\n      dup1\n      0x60\n      add\n      0x40\n      mstore\n      dup1\n      0x2e\n      dup2\n      mstore\n      0x20\n      add\n      data_62d2a17e186e7e56c59b86326e3f4c5ffbaf96ee7a3d2325b826cc6f3cd24c61\n      0x2e\n      swap2\n      codecopy\n      tag_122\n      swap1\n        /* \"package/contracts/test/TestBytesUtils.sol\":5583:5667  \" bst4hlje7r0o8c8p4o8q582lm0ejmiqt\\x07matoken\\x03xyz\\x00\".base32HexDecodeWord(1, 32) */\n      swap3\n      swap2\n      swap1\n      0xffffffff\n      and\n      jump\t// in\n    tag_158:\n        /* \"package/contracts/test/TestBytesUtils.sol\":5583:5733  \" bst4hlje7r0o8c8p4o8q582lm0ejmiqt\\x07matoken\\x03xyz\\x00\".base32HexDecodeWord(1, 32) ==... */\n      eq\n        /* \"package/contracts/test/TestBytesUtils.sol\":5568:5771  require(... */\n      tag_159\n      jumpi\n      mload(0x40)\n      0x08c379a000000000000000000000000000000000000000000000000000000000\n      dup2\n      mstore\n      0x04\n      add\n      tag_160\n      swap1\n      tag_161\n      jump\t// in\n    tag_160:\n      mload(0x40)\n      dup1\n      swap2\n      sub\n      swap1\n      revert\n    tag_159:\n        /* \"package/contracts/test/TestBytesUtils.sol\":4399:5776  function testBase32HexDecodeWord() public pure {... */\n      jump\t// out\n        /* \"package/contracts/test/TestBytesUtils.sol\":1259:2196  function testComparePartial() public pure {... */\n    tag_30:\n        /* \"package/contracts/test/TestBytesUtils.sol\":1357:1361  true */\n      0x01\n        /* \"package/contracts/test/TestBytesUtils.sol\":1315:1361  \"xax\".compare(1, 1, \"xxbxx\", 2, 1) < 0 == true */\n      iszero\n      iszero\n        /* \"package/contracts/test/TestBytesUtils.sol\":1352:1353  0 */\n      0x00\n        /* \"package/contracts/test/TestBytesUtils.sol\":1315:1349  \"xax\".compare(1, 1, \"xxbxx\", 2, 1) */\n      tag_163\n        /* \"package/contracts/test/TestBytesUtils.sol\":1329:1330  1 */\n      0x01\n        /* \"package/contracts/test/TestBytesUtils.sol\":1332:1333  1 */\n      dup1\n        /* \"package/contracts/test/TestBytesUtils.sol\":1315:1349  \"xax\".compare(1, 1, \"xxbxx\", 2, 1) */\n      mload(0x40)\n      dup1\n      0x40\n      add\n      0x40\n      mstore\n      dup1\n      0x05\n      dup2\n      mstore\n      0x20\n      add\n      0x7878627878000000000000000000000000000000000000000000000000000000\n      dup2\n      mstore\n      pop\n        /* \"package/contracts/test/TestBytesUtils.sol\":1344:1345  2 */\n      0x02\n        /* \"package/contracts/test/TestBytesUtils.sol\":1347:1348  1 */\n      0x01\n        /* \"package/contracts/test/TestBytesUtils.sol\":1315:1328  \"xax\".compare */\n      mload(0x40)\n      dup1\n      0x40\n      add\n      0x40\n      mstore\n      dup1\n      0x03\n      dup2\n      mstore\n      0x20\n      add\n      0x7861780000000000000000000000000000000000000000000000000000000000\n      dup2\n      mstore\n      pop\n      tag_164\n      swap1\n        /* \"package/contracts/test/TestBytesUtils.sol\":1315:1349  \"xax\".compare(1, 1, \"xxbxx\", 2, 1) */\n      swap6\n      swap5\n      swap4\n      swap3\n      swap2\n      swap1\n      0xffffffff\n      and\n      jump\t// in\n    tag_163:\n        /* \"package/contracts/test/TestBytesUtils.sol\":1315:1353  \"xax\".compare(1, 1, \"xxbxx\", 2, 1) < 0 */\n      slt\n        /* \"package/contracts/test/TestBytesUtils.sol\":1315:1361  \"xax\".compare(1, 1, \"xxbxx\", 2, 1) < 0 == true */\n      iszero\n      iszero\n      eq\n        /* \"package/contracts/test/TestBytesUtils.sol\":1307:1385  require(\"xax\".compare(1, 1, \"xxbxx\", 2, 1) < 0 == true, \"Compare same length\") */\n      tag_165\n      jumpi\n      mload(0x40)\n      0x08c379a000000000000000000000000000000000000000000000000000000000\n      dup2\n      mstore\n      0x04\n      add\n      tag_166\n      swap1\n      tag_167\n      jump\t// in\n    tag_166:\n      mload(0x40)\n      dup1\n      swap2\n      sub\n      swap1\n      revert\n    tag_165:\n        /* \"package/contracts/test/TestBytesUtils.sol\":1442:1446  true */\n      0x01\n        /* \"package/contracts/test/TestBytesUtils.sol\":1399:1446  \"xax\".compare(1, 1, \"xxabxx\", 2, 2) < 0 == true */\n      iszero\n      iszero\n        /* \"package/contracts/test/TestBytesUtils.sol\":1437:1438  0 */\n      0x00\n        /* \"package/contracts/test/TestBytesUtils.sol\":1399:1434  \"xax\".compare(1, 1, \"xxabxx\", 2, 2) */\n      tag_168\n        /* \"package/contracts/test/TestBytesUtils.sol\":1413:1414  1 */\n      0x01\n        /* \"package/contracts/test/TestBytesUtils.sol\":1416:1417  1 */\n      dup1\n        /* \"package/contracts/test/TestBytesUtils.sol\":1399:1434  \"xax\".compare(1, 1, \"xxabxx\", 2, 2) */\n      mload(0x40)\n      dup1\n      0x40\n      add\n      0x40\n      mstore\n      dup1\n      0x06\n      dup2\n      mstore\n      0x20\n      add\n      0x7878616278780000000000000000000000000000000000000000000000000000\n      dup2\n      mstore\n      pop\n        /* \"package/contracts/test/TestBytesUtils.sol\":1429:1430  2 */\n      0x02\n        /* \"package/contracts/test/TestBytesUtils.sol\":1432:1433  2 */\n      dup1\n        /* \"package/contracts/test/TestBytesUtils.sol\":1399:1412  \"xax\".compare */\n      mload(0x40)\n      dup1\n      0x40\n      add\n      0x40\n      mstore\n      dup1\n      0x03\n      dup2\n      mstore\n      0x20\n      add\n      0x7861780000000000000000000000000000000000000000000000000000000000\n      dup2\n      mstore\n      pop\n      tag_164\n      swap1\n        /* \"package/contracts/test/TestBytesUtils.sol\":1399:1434  \"xax\".compare(1, 1, \"xxabxx\", 2, 2) */\n      swap6\n      swap5\n      swap4\n      swap3\n      swap2\n      swap1\n      0xffffffff\n      and\n      jump\t// in\n    tag_168:\n        /* \"package/contracts/test/TestBytesUtils.sol\":1399:1438  \"xax\".compare(1, 1, \"xxabxx\", 2, 2) < 0 */\n      slt\n        /* \"package/contracts/test/TestBytesUtils.sol\":1399:1446  \"xax\".compare(1, 1, \"xxabxx\", 2, 2) < 0 == true */\n      iszero\n      iszero\n      eq\n        /* \"package/contracts/test/TestBytesUtils.sol\":1391:1475  require(\"xax\".compare(1, 1, \"xxabxx\", 2, 2) < 0 == true, \"Compare different length\") */\n      tag_169\n      jumpi\n      mload(0x40)\n      0x08c379a000000000000000000000000000000000000000000000000000000000\n      dup2\n      mstore\n      0x04\n      add\n      tag_170\n      swap1\n      tag_171\n      jump\t// in\n    tag_170:\n      mload(0x40)\n      dup1\n      swap2\n      sub\n      swap1\n      revert\n    tag_169:\n        /* \"package/contracts/test/TestBytesUtils.sol\":1532:1536  true */\n      0x01\n        /* \"package/contracts/test/TestBytesUtils.sol\":1489:1536  \"xax\".compare(1, 1, \"xxaxx\", 2, 1) == 0 == true */\n      iszero\n      iszero\n        /* \"package/contracts/test/TestBytesUtils.sol\":1527:1528  0 */\n      0x00\n        /* \"package/contracts/test/TestBytesUtils.sol\":1489:1523  \"xax\".compare(1, 1, \"xxaxx\", 2, 1) */\n      tag_172\n        /* \"package/contracts/test/TestBytesUtils.sol\":1503:1504  1 */\n      0x01\n        /* \"package/contracts/test/TestBytesUtils.sol\":1506:1507  1 */\n      dup1\n        /* \"package/contracts/test/TestBytesUtils.sol\":1489:1523  \"xax\".compare(1, 1, \"xxaxx\", 2, 1) */\n      mload(0x40)\n      dup1\n      0x40\n      add\n      0x40\n      mstore\n      dup1\n      0x05\n      dup2\n      mstore\n      0x20\n      add\n      0x7878617878000000000000000000000000000000000000000000000000000000\n      dup2\n      mstore\n      pop\n        /* \"package/contracts/test/TestBytesUtils.sol\":1518:1519  2 */\n      0x02\n        /* \"package/contracts/test/TestBytesUtils.sol\":1521:1522  1 */\n      0x01\n        /* \"package/contracts/test/TestBytesUtils.sol\":1489:1502  \"xax\".compare */\n      mload(0x40)\n      dup1\n      0x40\n      add\n      0x40\n      mstore\n      dup1\n      0x03\n      dup2\n      mstore\n      0x20\n      add\n      0x7861780000000000000000000000000000000000000000000000000000000000\n      dup2\n      mstore\n      pop\n      tag_164\n      swap1\n        /* \"package/contracts/test/TestBytesUtils.sol\":1489:1523  \"xax\".compare(1, 1, \"xxaxx\", 2, 1) */\n      swap6\n      swap5\n      swap4\n      swap3\n      swap2\n      swap1\n      0xffffffff\n      and\n      jump\t// in\n    tag_172:\n        /* \"package/contracts/test/TestBytesUtils.sol\":1489:1528  \"xax\".compare(1, 1, \"xxaxx\", 2, 1) == 0 */\n      eq\n        /* \"package/contracts/test/TestBytesUtils.sol\":1489:1536  \"xax\".compare(1, 1, \"xxaxx\", 2, 1) == 0 == true */\n      iszero\n      iszero\n      eq\n        /* \"package/contracts/test/TestBytesUtils.sol\":1481:1575  require(\"xax\".compare(1, 1, \"xxaxx\", 2, 1) == 0 == true, \"Compare same with different offset\") */\n      tag_173\n      jumpi\n      mload(0x40)\n      0x08c379a000000000000000000000000000000000000000000000000000000000\n      dup2\n      mstore\n      0x04\n      add\n      tag_174\n      swap1\n      tag_175\n      jump\t// in\n    tag_174:\n      mload(0x40)\n      dup1\n      swap2\n      sub\n      swap1\n      revert\n    tag_173:\n        /* \"package/contracts/test/TestBytesUtils.sol\":1701:1705  true */\n      0x01\n        /* \"package/contracts/test/TestBytesUtils.sol\":1596:1705  \"01234567890123450123456789012345ab\".compare(0, 33, \"01234567890123450123456789012345aa\", 0, 33) == 0 == true */\n      iszero\n      iszero\n        /* \"package/contracts/test/TestBytesUtils.sol\":1696:1697  0 */\n      0x00\n        /* \"package/contracts/test/TestBytesUtils.sol\":1596:1692  \"01234567890123450123456789012345ab\".compare(0, 33, \"01234567890123450123456789012345aa\", 0, 33) */\n      tag_176\n        /* \"package/contracts/test/TestBytesUtils.sol\":1641:1642  0 */\n      0x00\n        /* \"package/contracts/test/TestBytesUtils.sol\":1644:1646  33 */\n      0x21\n        /* \"package/contracts/test/TestBytesUtils.sol\":1596:1692  \"01234567890123450123456789012345ab\".compare(0, 33, \"01234567890123450123456789012345aa\", 0, 33) */\n      mload(0x40)\n      dup1\n      0x60\n      add\n      0x40\n      mstore\n      dup1\n      0x22\n      dup2\n      mstore\n      0x20\n      add\n      data_e5ebd035fe149552211855aff3aa7f3c88e80079dc15e37a7006aa14559ecb7f\n      0x22\n      swap2\n      codecopy\n        /* \"package/contracts/test/TestBytesUtils.sol\":1686:1687  0 */\n      0x00\n        /* \"package/contracts/test/TestBytesUtils.sol\":1689:1691  33 */\n      0x21\n        /* \"package/contracts/test/TestBytesUtils.sol\":1596:1640  \"01234567890123450123456789012345ab\".compare */\n      mload(0x40)\n      dup1\n      0x60\n      add\n      0x40\n      mstore\n      dup1\n      0x22\n      dup2\n      mstore\n      0x20\n      add\n      data_a44caaa63f000e9374f36c386ceff0293879a6a3cfdf007f107c36374d8fb4c8\n      0x22\n      swap2\n      codecopy\n      tag_164\n      swap1\n        /* \"package/contracts/test/TestBytesUtils.sol\":1596:1692  \"01234567890123450123456789012345ab\".compare(0, 33, \"01234567890123450123456789012345aa\", 0, 33) */\n      swap6\n      swap5\n      swap4\n      swap3\n      swap2\n      swap1\n      0xffffffff\n      and\n      jump\t// in\n    tag_176:\n        /* \"package/contracts/test/TestBytesUtils.sol\":1596:1697  \"01234567890123450123456789012345ab\".compare(0, 33, \"01234567890123450123456789012345aa\", 0, 33) == 0 */\n      eq\n        /* \"package/contracts/test/TestBytesUtils.sol\":1596:1705  \"01234567890123450123456789012345ab\".compare(0, 33, \"01234567890123450123456789012345aa\", 0, 33) == 0 == true */\n      iszero\n      iszero\n      eq\n        /* \"package/contracts/test/TestBytesUtils.sol\":1581:1806  require(... */\n      tag_177\n      jumpi\n      mload(0x40)\n      0x08c379a000000000000000000000000000000000000000000000000000000000\n      dup2\n      mstore\n      0x04\n      add\n      tag_178\n      swap1\n      tag_179\n      jump\t// in\n    tag_178:\n      mload(0x40)\n      dup1\n      swap2\n      sub\n      swap1\n      revert\n    tag_177:\n        /* \"package/contracts/test/TestBytesUtils.sol\":1931:1935  true */\n      0x01\n        /* \"package/contracts/test/TestBytesUtils.sol\":1827:1935  \"01234567890123450123456789012345ab\".compare(0, 33, \"01234567890123450123456789012345aa\", 0, 34) < 0 == true */\n      iszero\n      iszero\n        /* \"package/contracts/test/TestBytesUtils.sol\":1926:1927  0 */\n      0x00\n        /* \"package/contracts/test/TestBytesUtils.sol\":1827:1923  \"01234567890123450123456789012345ab\".compare(0, 33, \"01234567890123450123456789012345aa\", 0, 34) */\n      tag_180\n        /* \"package/contracts/test/TestBytesUtils.sol\":1872:1873  0 */\n      0x00\n        /* \"package/contracts/test/TestBytesUtils.sol\":1875:1877  33 */\n      0x21\n        /* \"package/contracts/test/TestBytesUtils.sol\":1827:1923  \"01234567890123450123456789012345ab\".compare(0, 33, \"01234567890123450123456789012345aa\", 0, 34) */\n      mload(0x40)\n      dup1\n      0x60\n      add\n      0x40\n      mstore\n      dup1\n      0x22\n      dup2\n      mstore\n      0x20\n      add\n      data_e5ebd035fe149552211855aff3aa7f3c88e80079dc15e37a7006aa14559ecb7f\n      0x22\n      swap2\n      codecopy\n        /* \"package/contracts/test/TestBytesUtils.sol\":1917:1918  0 */\n      0x00\n        /* \"package/contracts/test/TestBytesUtils.sol\":1920:1922  34 */\n      0x22\n        /* \"package/contracts/test/TestBytesUtils.sol\":1827:1871  \"01234567890123450123456789012345ab\".compare */\n      mload(0x40)\n      dup1\n      0x60\n      add\n      0x40\n      mstore\n      dup1\n      0x22\n      dup2\n      mstore\n      0x20\n      add\n      data_a44caaa63f000e9374f36c386ceff0293879a6a3cfdf007f107c36374d8fb4c8\n      0x22\n      swap2\n      codecopy\n      tag_164\n      swap1\n        /* \"package/contracts/test/TestBytesUtils.sol\":1827:1923  \"01234567890123450123456789012345ab\".compare(0, 33, \"01234567890123450123456789012345aa\", 0, 34) */\n      swap6\n      swap5\n      swap4\n      swap3\n      swap2\n      swap1\n      0xffffffff\n      and\n      jump\t// in\n    tag_180:\n        /* \"package/contracts/test/TestBytesUtils.sol\":1827:1927  \"01234567890123450123456789012345ab\".compare(0, 33, \"01234567890123450123456789012345aa\", 0, 34) < 0 */\n      slt\n        /* \"package/contracts/test/TestBytesUtils.sol\":1827:1935  \"01234567890123450123456789012345ab\".compare(0, 33, \"01234567890123450123456789012345aa\", 0, 34) < 0 == true */\n      iszero\n      iszero\n      eq\n        /* \"package/contracts/test/TestBytesUtils.sol\":1812:2008  require(... */\n      tag_181\n      jumpi\n      mload(0x40)\n      0x08c379a000000000000000000000000000000000000000000000000000000000\n      dup2\n      mstore\n      0x04\n      add\n      tag_182\n      swap1\n      tag_183\n      jump\t// in\n    tag_182:\n      mload(0x40)\n      dup1\n      swap2\n      sub\n      swap1\n      revert\n    tag_181:\n        /* \"package/contracts/test/TestBytesUtils.sol\":2129:2133  true */\n      0x01\n        /* \"package/contracts/test/TestBytesUtils.sol\":2029:2133  \"0123456789012345012345678901234a\".compare(0, 32, \"0123456789012345012345678901234b\", 0, 32) < 0 == true */\n      iszero\n      iszero\n        /* \"package/contracts/test/TestBytesUtils.sol\":2124:2125  0 */\n      0x00\n        /* \"package/contracts/test/TestBytesUtils.sol\":2029:2121  \"0123456789012345012345678901234a\".compare(0, 32, \"0123456789012345012345678901234b\", 0, 32) */\n      tag_184\n        /* \"package/contracts/test/TestBytesUtils.sol\":2072:2073  0 */\n      0x00\n        /* \"package/contracts/test/TestBytesUtils.sol\":2075:2077  32 */\n      0x20\n        /* \"package/contracts/test/TestBytesUtils.sol\":2029:2121  \"0123456789012345012345678901234a\".compare(0, 32, \"0123456789012345012345678901234b\", 0, 32) */\n      mload(0x40)\n      dup1\n      0x40\n      add\n      0x40\n      mstore\n      dup1\n      0x20\n      dup2\n      mstore\n      0x20\n      add\n      0x3031323334353637383930313233343530313233343536373839303132333462\n      dup2\n      mstore\n      pop\n        /* \"package/contracts/test/TestBytesUtils.sol\":2115:2116  0 */\n      0x00\n        /* \"package/contracts/test/TestBytesUtils.sol\":2118:2120  32 */\n      0x20\n        /* \"package/contracts/test/TestBytesUtils.sol\":2029:2071  \"0123456789012345012345678901234a\".compare */\n      mload(0x40)\n      dup1\n      0x40\n      add\n      0x40\n      mstore\n      dup1\n      0x20\n      dup2\n      mstore\n      0x20\n      add\n      0x3031323334353637383930313233343530313233343536373839303132333461\n      dup2\n      mstore\n      pop\n      tag_164\n      swap1\n        /* \"package/contracts/test/TestBytesUtils.sol\":2029:2121  \"0123456789012345012345678901234a\".compare(0, 32, \"0123456789012345012345678901234b\", 0, 32) */\n      swap6\n      swap5\n      swap4\n      swap3\n      swap2\n      swap1\n      0xffffffff\n      and\n      jump\t// in\n    tag_184:\n        /* \"package/contracts/test/TestBytesUtils.sol\":2029:2125  \"0123456789012345012345678901234a\".compare(0, 32, \"0123456789012345012345678901234b\", 0, 32) < 0 */\n      slt\n        /* \"package/contracts/test/TestBytesUtils.sol\":2029:2133  \"0123456789012345012345678901234a\".compare(0, 32, \"0123456789012345012345678901234b\", 0, 32) < 0 == true */\n      iszero\n      iszero\n      eq\n        /* \"package/contracts/test/TestBytesUtils.sol\":2014:2191  require(... */\n      tag_185\n      jumpi\n      mload(0x40)\n      0x08c379a000000000000000000000000000000000000000000000000000000000\n      dup2\n      mstore\n      0x04\n      add\n      tag_186\n      swap1\n      tag_187\n      jump\t// in\n    tag_186:\n      mload(0x40)\n      dup1\n      swap2\n      sub\n      swap1\n      revert\n    tag_185:\n        /* \"package/contracts/test/TestBytesUtils.sol\":1259:2196  function testComparePartial() public pure {... */\n      jump\t// out\n        /* \"package/contracts/test/TestBytesUtils.sol\":705:1255  function testEquals() public pure {... */\n    tag_32:\n        /* \"package/contracts/test/TestBytesUtils.sol\":780:784  true */\n      0x01\n        /* \"package/contracts/test/TestBytesUtils.sol\":753:784  \"hello\".equals(\"hello\") == true */\n      iszero\n      iszero\n        /* \"package/contracts/test/TestBytesUtils.sol\":753:776  \"hello\".equals(\"hello\") */\n      tag_189\n      mload(0x40)\n      dup1\n      0x40\n      add\n      0x40\n      mstore\n      dup1\n      0x05\n      dup2\n      mstore\n      0x20\n      add\n      0x68656c6c6f000000000000000000000000000000000000000000000000000000\n      dup2\n      mstore\n      pop\n        /* \"package/contracts/test/TestBytesUtils.sol\":753:767  \"hello\".equals */\n      mload(0x40)\n      dup1\n      0x40\n      add\n      0x40\n      mstore\n      dup1\n      0x05\n      dup2\n      mstore\n      0x20\n      add\n      0x68656c6c6f000000000000000000000000000000000000000000000000000000\n      dup2\n      mstore\n      pop\n      tag_190\n      swap1\n        /* \"package/contracts/test/TestBytesUtils.sol\":753:776  \"hello\".equals(\"hello\") */\n      swap2\n      swap1\n      0xffffffff\n      and\n      jump\t// in\n    tag_189:\n        /* \"package/contracts/test/TestBytesUtils.sol\":753:784  \"hello\".equals(\"hello\") == true */\n      iszero\n      iszero\n      eq\n        /* \"package/contracts/test/TestBytesUtils.sol\":745:804  require(\"hello\".equals(\"hello\") == true, \"String equality\") */\n      tag_191\n      jumpi\n      mload(0x40)\n      0x08c379a000000000000000000000000000000000000000000000000000000000\n      dup2\n      mstore\n      0x04\n      add\n      tag_192\n      swap1\n      tag_193\n      jump\t// in\n    tag_192:\n      mload(0x40)\n      dup1\n      swap2\n      sub\n      swap1\n      revert\n    tag_191:\n        /* \"package/contracts/test/TestBytesUtils.sol\":847:852  false */\n      0x00\n        /* \"package/contracts/test/TestBytesUtils.sol\":818:852  \"hello\".equals(\"goodbye\") == false */\n      iszero\n      iszero\n        /* \"package/contracts/test/TestBytesUtils.sol\":818:843  \"hello\".equals(\"goodbye\") */\n      tag_194\n      mload(0x40)\n      dup1\n      0x40\n      add\n      0x40\n      mstore\n      dup1\n      0x07\n      dup2\n      mstore\n      0x20\n      add\n      0x676f6f6462796500000000000000000000000000000000000000000000000000\n      dup2\n      mstore\n      pop\n        /* \"package/contracts/test/TestBytesUtils.sol\":818:832  \"hello\".equals */\n      mload(0x40)\n      dup1\n      0x40\n      add\n      0x40\n      mstore\n      dup1\n      0x05\n      dup2\n      mstore\n      0x20\n      add\n      0x68656c6c6f000000000000000000000000000000000000000000000000000000\n      dup2\n      mstore\n      pop\n      tag_190\n      swap1\n        /* \"package/contracts/test/TestBytesUtils.sol\":818:843  \"hello\".equals(\"goodbye\") */\n      swap2\n      swap1\n      0xffffffff\n      and\n      jump\t// in\n    tag_194:\n        /* \"package/contracts/test/TestBytesUtils.sol\":818:852  \"hello\".equals(\"goodbye\") == false */\n      iszero\n      iszero\n      eq\n        /* \"package/contracts/test/TestBytesUtils.sol\":810:874  require(\"hello\".equals(\"goodbye\") == false, \"String inequality\") */\n      tag_195\n      jumpi\n      mload(0x40)\n      0x08c379a000000000000000000000000000000000000000000000000000000000\n      dup2\n      mstore\n      0x04\n      add\n      tag_196\n      swap1\n      tag_197\n      jump\t// in\n    tag_196:\n      mload(0x40)\n      dup1\n      swap2\n      sub\n      swap1\n      revert\n    tag_195:\n        /* \"package/contracts/test/TestBytesUtils.sol\":917:921  true */\n      0x01\n        /* \"package/contracts/test/TestBytesUtils.sol\":888:921  \"hello\".equals(1, \"ello\") == true */\n      iszero\n      iszero\n        /* \"package/contracts/test/TestBytesUtils.sol\":888:913  \"hello\".equals(1, \"ello\") */\n      tag_198\n        /* \"package/contracts/test/TestBytesUtils.sol\":903:904  1 */\n      0x01\n        /* \"package/contracts/test/TestBytesUtils.sol\":888:913  \"hello\".equals(1, \"ello\") */\n      mload(0x40)\n      dup1\n      0x40\n      add\n      0x40\n      mstore\n      dup1\n      0x04\n      dup2\n      mstore\n      0x20\n      add\n      0x656c6c6f00000000000000000000000000000000000000000000000000000000\n      dup2\n      mstore\n      pop\n        /* \"package/contracts/test/TestBytesUtils.sol\":888:902  \"hello\".equals */\n      mload(0x40)\n      dup1\n      0x40\n      add\n      0x40\n      mstore\n      dup1\n      0x05\n      dup2\n      mstore\n      0x20\n      add\n      0x68656c6c6f000000000000000000000000000000000000000000000000000000\n      dup2\n      mstore\n      pop\n      tag_199\n      swap1\n        /* \"package/contracts/test/TestBytesUtils.sol\":888:913  \"hello\".equals(1, \"ello\") */\n      swap3\n      swap2\n      swap1\n      0xffffffff\n      and\n      jump\t// in\n    tag_198:\n        /* \"package/contracts/test/TestBytesUtils.sol\":888:921  \"hello\".equals(1, \"ello\") == true */\n      iszero\n      iszero\n      eq\n        /* \"package/contracts/test/TestBytesUtils.sol\":880:954  require(\"hello\".equals(1, \"ello\") == true, \"Substring to string equality\") */\n      tag_200\n      jumpi\n      mload(0x40)\n      0x08c379a000000000000000000000000000000000000000000000000000000000\n      dup2\n      mstore\n      0x04\n      add\n      tag_201\n      swap1\n      tag_202\n      jump\t// in\n    tag_201:\n      mload(0x40)\n      dup1\n      swap2\n      sub\n      swap1\n      revert\n    tag_200:\n        /* \"package/contracts/test/TestBytesUtils.sol\":1004:1008  true */\n      0x01\n        /* \"package/contracts/test/TestBytesUtils.sol\":968:1008  \"hello\".equals(1, \"jello\", 1, 4) == true */\n      iszero\n      iszero\n        /* \"package/contracts/test/TestBytesUtils.sol\":968:1000  \"hello\".equals(1, \"jello\", 1, 4) */\n      tag_203\n        /* \"package/contracts/test/TestBytesUtils.sol\":983:984  1 */\n      0x01\n        /* \"package/contracts/test/TestBytesUtils.sol\":968:1000  \"hello\".equals(1, \"jello\", 1, 4) */\n      mload(0x40)\n      dup1\n      0x40\n      add\n      0x40\n      mstore\n      dup1\n      0x05\n      dup2\n      mstore\n      0x20\n      add\n      0x6a656c6c6f000000000000000000000000000000000000000000000000000000\n      dup2\n      mstore\n      pop\n        /* \"package/contracts/test/TestBytesUtils.sol\":995:996  1 */\n      0x01\n        /* \"package/contracts/test/TestBytesUtils.sol\":998:999  4 */\n      0x04\n        /* \"package/contracts/test/TestBytesUtils.sol\":968:982  \"hello\".equals */\n      mload(0x40)\n      dup1\n      0x40\n      add\n      0x40\n      mstore\n      dup1\n      0x05\n      dup2\n      mstore\n      0x20\n      add\n      0x68656c6c6f000000000000000000000000000000000000000000000000000000\n      dup2\n      mstore\n      pop\n      tag_204\n      swap1\n        /* \"package/contracts/test/TestBytesUtils.sol\":968:1000  \"hello\".equals(1, \"jello\", 1, 4) */\n      swap5\n      swap4\n      swap3\n      swap2\n      swap1\n      0xffffffff\n      and\n      jump\t// in\n    tag_203:\n        /* \"package/contracts/test/TestBytesUtils.sol\":968:1008  \"hello\".equals(1, \"jello\", 1, 4) == true */\n      iszero\n      iszero\n      eq\n        /* \"package/contracts/test/TestBytesUtils.sol\":960:1044  require(\"hello\".equals(1, \"jello\", 1, 4) == true, \"Substring to substring equality\") */\n      tag_205\n      jumpi\n      mload(0x40)\n      0x08c379a000000000000000000000000000000000000000000000000000000000\n      dup2\n      mstore\n      0x04\n      add\n      tag_206\n      swap1\n      tag_207\n      jump\t// in\n    tag_206:\n      mload(0x40)\n      dup1\n      swap2\n      sub\n      swap1\n      revert\n    tag_205:\n        /* \"package/contracts/test/TestBytesUtils.sol\":1095:1099  true */\n      0x01\n        /* \"package/contracts/test/TestBytesUtils.sol\":1058:1099  \"zhello\".equals(1, \"abchello\", 3) == true */\n      iszero\n      iszero\n        /* \"package/contracts/test/TestBytesUtils.sol\":1058:1091  \"zhello\".equals(1, \"abchello\", 3) */\n      tag_208\n        /* \"package/contracts/test/TestBytesUtils.sol\":1074:1075  1 */\n      0x01\n        /* \"package/contracts/test/TestBytesUtils.sol\":1058:1091  \"zhello\".equals(1, \"abchello\", 3) */\n      mload(0x40)\n      dup1\n      0x40\n      add\n      0x40\n      mstore\n      dup1\n      0x08\n      dup2\n      mstore\n      0x20\n      add\n      0x61626368656c6c6f000000000000000000000000000000000000000000000000\n      dup2\n      mstore\n      pop\n        /* \"package/contracts/test/TestBytesUtils.sol\":1089:1090  3 */\n      0x03\n        /* \"package/contracts/test/TestBytesUtils.sol\":1058:1073  \"zhello\".equals */\n      mload(0x40)\n      dup1\n      0x40\n      add\n      0x40\n      mstore\n      dup1\n      0x06\n      dup2\n      mstore\n      0x20\n      add\n      0x7a68656c6c6f0000000000000000000000000000000000000000000000000000\n      dup2\n      mstore\n      pop\n      tag_209\n      swap1\n        /* \"package/contracts/test/TestBytesUtils.sol\":1058:1091  \"zhello\".equals(1, \"abchello\", 3) */\n      swap4\n      swap3\n      swap2\n      swap1\n      0xffffffff\n      and\n      jump\t// in\n    tag_208:\n        /* \"package/contracts/test/TestBytesUtils.sol\":1058:1099  \"zhello\".equals(1, \"abchello\", 3) == true */\n      iszero\n      iszero\n      eq\n        /* \"package/contracts/test/TestBytesUtils.sol\":1050:1148  require(\"zhello\".equals(1, \"abchello\", 3) == true, \"Compare different value with multiple length\") */\n      tag_210\n      jumpi\n      mload(0x40)\n      0x08c379a000000000000000000000000000000000000000000000000000000000\n      dup2\n      mstore\n      0x04\n      add\n      tag_211\n      swap1\n      tag_104\n      jump\t// in\n    tag_211:\n      mload(0x40)\n      dup1\n      swap2\n      sub\n      swap1\n      revert\n    tag_210:\n        /* \"package/contracts/test/TestBytesUtils.sol\":1202:1207  false */\n      0x00\n        /* \"package/contracts/test/TestBytesUtils.sol\":1162:1207  \"0x0102030000\".equals(0, \"0x010203\") == false */\n      iszero\n      iszero\n        /* \"package/contracts/test/TestBytesUtils.sol\":1162:1198  \"0x0102030000\".equals(0, \"0x010203\") */\n      tag_212\n        /* \"package/contracts/test/TestBytesUtils.sol\":1184:1185  0 */\n      0x00\n        /* \"package/contracts/test/TestBytesUtils.sol\":1162:1198  \"0x0102030000\".equals(0, \"0x010203\") */\n      mload(0x40)\n      dup1\n      0x40\n      add\n      0x40\n      mstore\n      dup1\n      0x08\n      dup2\n      mstore\n      0x20\n      add\n      0x3078303130323033000000000000000000000000000000000000000000000000\n      dup2\n      mstore\n      pop\n        /* \"package/contracts/test/TestBytesUtils.sol\":1162:1183  \"0x0102030000\".equals */\n      mload(0x40)\n      dup1\n      0x40\n      add\n      0x40\n      mstore\n      dup1\n      0x0c\n      dup2\n      mstore\n      0x20\n      add\n      0x3078303130323033303030300000000000000000000000000000000000000000\n      dup2\n      mstore\n      pop\n      tag_199\n      swap1\n        /* \"package/contracts/test/TestBytesUtils.sol\":1162:1198  \"0x0102030000\".equals(0, \"0x010203\") */\n      swap3\n      swap2\n      swap1\n      0xffffffff\n      and\n      jump\t// in\n    tag_212:\n        /* \"package/contracts/test/TestBytesUtils.sol\":1162:1207  \"0x0102030000\".equals(0, \"0x010203\") == false */\n      iszero\n      iszero\n      eq\n        /* \"package/contracts/test/TestBytesUtils.sol\":1154:1250  require(\"0x0102030000\".equals(0, \"0x010203\") == false, \"Compare with offset and trailing bytes\") */\n      tag_213\n      jumpi\n      mload(0x40)\n      0x08c379a000000000000000000000000000000000000000000000000000000000\n      dup2\n      mstore\n      0x04\n      add\n      tag_214\n      swap1\n      tag_215\n      jump\t// in\n    tag_214:\n      mload(0x40)\n      dup1\n      swap2\n      sub\n      swap1\n      revert\n    tag_213:\n        /* \"package/contracts/test/TestBytesUtils.sol\":705:1255  function testEquals() public pure {... */\n      jump\t// out\n        /* \"package/contracts/test/TestBytesUtils.sol\":4167:4395  function testReadBytes32() public pure {... */\n    tag_34:\n        /* \"package/contracts/test/TestBytesUtils.sol\":4296:4362  0x3031323334353637383961626364656630313233343536373839616263646566 */\n      0x3031323334353637383961626364656630313233343536373839616263646566\n        /* \"package/contracts/test/TestBytesUtils.sol\":4288:4363  bytes32(0x3031323334353637383961626364656630313233343536373839616263646566) */\n      0x00\n      shl\n        /* \"package/contracts/test/TestBytesUtils.sol\":4227:4276  \"0123456789abcdef0123456789abcdef\".readBytes32(0) */\n      tag_217\n        /* \"package/contracts/test/TestBytesUtils.sol\":4274:4275  0 */\n      0x00\n        /* \"package/contracts/test/TestBytesUtils.sol\":4227:4273  \"0123456789abcdef0123456789abcdef\".readBytes32 */\n      mload(0x40)\n      dup1\n      0x40\n      add\n      0x40\n      mstore\n      dup1\n      0x20\n      dup2\n      mstore\n      0x20\n      add\n      0x3031323334353637383961626364656630313233343536373839616263646566\n      dup2\n      mstore\n      pop\n      tag_218\n      swap1\n        /* \"package/contracts/test/TestBytesUtils.sol\":4227:4276  \"0123456789abcdef0123456789abcdef\".readBytes32(0) */\n      swap2\n      swap1\n      0xffffffff\n      and\n      jump\t// in\n    tag_217:\n        /* \"package/contracts/test/TestBytesUtils.sol\":4227:4363  \"0123456789abcdef0123456789abcdef\".readBytes32(0) ==... */\n      eq\n        /* \"package/contracts/test/TestBytesUtils.sol\":4212:4390  require(... */\n      tag_219\n      jumpi\n      mload(0x40)\n      0x08c379a000000000000000000000000000000000000000000000000000000000\n      dup2\n      mstore\n      0x04\n      add\n      tag_220\n      swap1\n      tag_221\n      jump\t// in\n    tag_220:\n      mload(0x40)\n      dup1\n      swap2\n      sub\n      swap1\n      revert\n    tag_219:\n        /* \"package/contracts/test/TestBytesUtils.sol\":4167:4395  function testReadBytes32() public pure {... */\n      jump\t// out\n        /* \"package/contracts/test/TestBytesUtils.sol\":3704:3813  function testReadUint16() public pure {... */\n    tag_36:\n        /* \"package/contracts/test/TestBytesUtils.sol\":3785:3791  0x6263 */\n      0x6263\n        /* \"package/contracts/test/TestBytesUtils.sol\":3761:3780  \"abc\".readUint16(1) */\n      tag_223\n        /* \"package/contracts/test/TestBytesUtils.sol\":3778:3779  1 */\n      0x01\n        /* \"package/contracts/test/TestBytesUtils.sol\":3761:3777  \"abc\".readUint16 */\n      mload(0x40)\n      dup1\n      0x40\n      add\n      0x40\n      mstore\n      dup1\n      0x03\n      dup2\n      mstore\n      0x20\n      add\n      0x6162630000000000000000000000000000000000000000000000000000000000\n      dup2\n      mstore\n      pop\n      tag_224\n      swap1\n        /* \"package/contracts/test/TestBytesUtils.sol\":3761:3780  \"abc\".readUint16(1) */\n      swap2\n      swap1\n      0xffffffff\n      and\n      jump\t// in\n    tag_223:\n        /* \"package/contracts/test/TestBytesUtils.sol\":3756:3781  uint(\"abc\".readUint16(1)) */\n      0xffff\n      and\n        /* \"package/contracts/test/TestBytesUtils.sol\":3756:3791  uint(\"abc\".readUint16(1)) == 0x6263 */\n      eq\n        /* \"package/contracts/test/TestBytesUtils.sol\":3748:3808  require(uint(\"abc\".readUint16(1)) == 0x6263, \"Read uint 16\") */\n      tag_225\n      jumpi\n      mload(0x40)\n      0x08c379a000000000000000000000000000000000000000000000000000000000\n      dup2\n      mstore\n      0x04\n      add\n      tag_226\n      swap1\n      tag_227\n      jump\t// in\n    tag_226:\n      mload(0x40)\n      dup1\n      swap2\n      sub\n      swap1\n      revert\n    tag_225:\n        /* \"package/contracts/test/TestBytesUtils.sol\":3704:3813  function testReadUint16() public pure {... */\n      jump\t// out\n        /* \"package/contracts/utils/BytesUtils.sol\":8424:8694  function readBytes20(bytes memory self, uint256 idx) internal pure returns (bytes20 ret) {... */\n    tag_39:\n        /* \"package/contracts/utils/BytesUtils.sol\":8500:8511  bytes20 ret */\n      0x00\n        /* \"package/contracts/utils/BytesUtils.sol\":8539:8543  self */\n      dup3\n        /* \"package/contracts/utils/BytesUtils.sol\":8539:8550  self.length */\n      mload\n        /* \"package/contracts/utils/BytesUtils.sol\":8533:8535  20 */\n      0x14\n        /* \"package/contracts/utils/BytesUtils.sol\":8527:8530  idx */\n      dup4\n        /* \"package/contracts/utils/BytesUtils.sol\":8527:8535  idx + 20 */\n      tag_229\n      swap2\n      swap1\n      tag_230\n      jump\t// in\n    tag_229:\n        /* \"package/contracts/utils/BytesUtils.sol\":8527:8550  idx + 20 <= self.length */\n      gt\n      iszero\n        /* \"package/contracts/utils/BytesUtils.sol\":8519:8551  require(idx + 20 <= self.length) */\n      tag_231\n      jumpi\n      0x00\n      dup1\n      revert\n    tag_231:\n        /* \"package/contracts/utils/BytesUtils.sol\":8617:8683  0xFFFFFFFFFFFFFFFFFFFFFFFFFFFFFFFFFFFFFFFF000000000000000000000000 */\n      0xffffffffffffffffffffffffffffffffffffffff000000000000000000000000\n        /* \"package/contracts/utils/BytesUtils.sol\":8610:8613  idx */\n      dup3\n        /* \"package/contracts/utils/BytesUtils.sol\":8605:8607  32 */\n      0x20\n        /* \"package/contracts/utils/BytesUtils.sol\":8599:8603  self */\n      dup6\n        /* \"package/contracts/utils/BytesUtils.sol\":8595:8608  add(self, 32) */\n      add\n        /* \"package/contracts/utils/BytesUtils.sol\":8591:8614  add(add(self, 32), idx) */\n      add\n        /* \"package/contracts/utils/BytesUtils.sol\":8585:8615  mload(add(add(self, 32), idx)) */\n      mload\n        /* \"package/contracts/utils/BytesUtils.sol\":8581:8684  and(mload(add(add(self, 32), idx)), 0xFFFFFFFFFFFFFFFFFFFFFFFFFFFFFFFFFFFFFFFF000000000000000000000000) */\n      and\n        /* \"package/contracts/utils/BytesUtils.sol\":8574:8684  ret := and(mload(add(add(self, 32), idx)), 0xFFFFFFFFFFFFFFFFFFFFFFFFFFFFFFFFFFFFFFFF000000000000000000000000) */\n      swap1\n      pop\n        /* \"package/contracts/utils/BytesUtils.sol\":8424:8694  function readBytes20(bytes memory self, uint256 idx) internal pure returns (bytes20 ret) {... */\n      swap3\n      swap2\n      pop\n      pop\n      jump\t// out\n        /* \"package/contracts/utils/BytesUtils.sol\":9971:10331  function substring(bytes memory self, uint256 offset, uint256 len) internal pure returns (bytes memory) {... */\n    tag_45:\n        /* \"package/contracts/utils/BytesUtils.sol\":10061:10073  bytes memory */\n      0x60\n        /* \"package/contracts/utils/BytesUtils.sol\":10105:10109  self */\n      dup4\n        /* \"package/contracts/utils/BytesUtils.sol\":10105:10116  self.length */\n      mload\n        /* \"package/contracts/utils/BytesUtils.sol\":10098:10101  len */\n      dup3\n        /* \"package/contracts/utils/BytesUtils.sol\":10089:10095  offset */\n      dup5\n        /* \"package/contracts/utils/BytesUtils.sol\":10089:10101  offset + len */\n      tag_233\n      swap2\n      swap1\n      tag_230\n      jump\t// in\n    tag_233:\n        /* \"package/contracts/utils/BytesUtils.sol\":10089:10116  offset + len <= self.length */\n      gt\n      iszero\n        /* \"package/contracts/utils/BytesUtils.sol\":10081:10117  require(offset + len <= self.length) */\n      tag_234\n      jumpi\n      0x00\n      dup1\n      revert\n    tag_234:\n        /* \"package/contracts/utils/BytesUtils.sol\":10124:10140  bytes memory ret */\n      0x00\n        /* \"package/contracts/utils/BytesUtils.sol\":10153:10156  len */\n      dup3\n        /* \"package/contracts/utils/BytesUtils.sol\":10143:10157  new bytes(len) */\n      0xffffffffffffffff\n      dup2\n      gt\n      iszero\n      tag_235\n      jumpi\n      tag_236\n      tag_237\n      jump\t// in\n    tag_236:\n    tag_235:\n      mload(0x40)\n      swap1\n      dup1\n      dup3\n      mstore\n      dup1\n      0x1f\n      add\n      not(0x1f)\n      and\n      0x20\n      add\n      dup3\n      add\n      0x40\n      mstore\n      dup1\n      iszero\n      tag_238\n      jumpi\n      dup2\n      0x20\n      add\n      0x01\n      dup3\n      mul\n      dup1\n      calldatasize\n      dup4\n      calldatacopy\n      dup1\n      dup3\n      add\n      swap2\n      pop\n      pop\n      swap1\n      pop\n    tag_238:\n      pop\n        /* \"package/contracts/utils/BytesUtils.sol\":10124:10157  bytes memory ret = new bytes(len) */\n      swap1\n      pop\n        /* \"package/contracts/utils/BytesUtils.sol\":10163:10175  uint256 dest */\n      0x00\n        /* \"package/contracts/utils/BytesUtils.sol\":10181:10192  uint256 src */\n      dup1\n        /* \"package/contracts/utils/BytesUtils.sol\":10233:10235  32 */\n      0x20\n        /* \"package/contracts/utils/BytesUtils.sol\":10228:10231  ret */\n      dup4\n        /* \"package/contracts/utils/BytesUtils.sol\":10224:10236  add(ret, 32) */\n      add\n        /* \"package/contracts/utils/BytesUtils.sol\":10216:10236  dest := add(ret, 32) */\n      swap2\n      pop\n        /* \"package/contracts/utils/BytesUtils.sol\":10269:10275  offset */\n      dup6\n        /* \"package/contracts/utils/BytesUtils.sol\":10264:10266  32 */\n      0x20\n        /* \"package/contracts/utils/BytesUtils.sol\":10258:10262  self */\n      dup9\n        /* \"package/contracts/utils/BytesUtils.sol\":10254:10267  add(self, 32) */\n      add\n        /* \"package/contracts/utils/BytesUtils.sol\":10250:10276  add(add(self, 32), offset) */\n      add\n        /* \"package/contracts/utils/BytesUtils.sol\":10243:10276  src := add(add(self, 32), offset) */\n      swap1\n      pop\n        /* \"package/contracts/utils/BytesUtils.sol\":10287:10309  memcpy(dest, src, len) */\n      tag_239\n        /* \"package/contracts/utils/BytesUtils.sol\":10294:10298  dest */\n      dup3\n        /* \"package/contracts/utils/BytesUtils.sol\":10300:10303  src */\n      dup3\n        /* \"package/contracts/utils/BytesUtils.sol\":10305:10308  len */\n      dup8\n        /* \"package/contracts/utils/BytesUtils.sol\":10287:10293  memcpy */\n      tag_240\n        /* \"package/contracts/utils/BytesUtils.sol\":10287:10309  memcpy(dest, src, len) */\n      jump\t// in\n    tag_239:\n        /* \"package/contracts/utils/BytesUtils.sol\":10323:10326  ret */\n      dup3\n        /* \"package/contracts/utils/BytesUtils.sol\":10316:10326  return ret */\n      swap4\n      pop\n      pop\n      pop\n      pop\n        /* \"package/contracts/utils/BytesUtils.sol\":9971:10331  function substring(bytes memory self, uint256 offset, uint256 len) internal pure returns (bytes memory) {... */\n      swap4\n      swap3\n      pop\n      pop\n      pop\n      jump\t// out\n        /* \"package/contracts/utils/BytesUtils.sol\":7599:7809  function readUint32(bytes memory self, uint256 idx) internal pure returns (uint32 ret) {... */\n    tag_62:\n        /* \"package/contracts/utils/BytesUtils.sol\":7674:7684  uint32 ret */\n      0x00\n        /* \"package/contracts/utils/BytesUtils.sol\":7711:7715  self */\n      dup3\n        /* \"package/contracts/utils/BytesUtils.sol\":7711:7722  self.length */\n      mload\n        /* \"package/contracts/utils/BytesUtils.sol\":7706:7707  4 */\n      0x04\n        /* \"package/contracts/utils/BytesUtils.sol\":7700:7703  idx */\n      dup4\n        /* \"package/contracts/utils/BytesUtils.sol\":7700:7707  idx + 4 */\n      tag_242\n      swap2\n      swap1\n      tag_230\n      jump\t// in\n    tag_242:\n        /* \"package/contracts/utils/BytesUtils.sol\":7700:7722  idx + 4 <= self.length */\n      gt\n      iszero\n        /* \"package/contracts/utils/BytesUtils.sol\":7692:7723  require(idx + 4 <= self.length) */\n      tag_243\n      jumpi\n      0x00\n      dup1\n      revert\n    tag_243:\n        /* \"package/contracts/utils/BytesUtils.sol\":7788:7798  0xFFFFFFFF */\n      0xffffffff\n        /* \"package/contracts/utils/BytesUtils.sol\":7781:7784  idx */\n      dup3\n        /* \"package/contracts/utils/BytesUtils.sol\":7777:7778  4 */\n      0x04\n        /* \"package/contracts/utils/BytesUtils.sol\":7771:7775  self */\n      dup6\n        /* \"package/contracts/utils/BytesUtils.sol\":7767:7779  add(self, 4) */\n      add\n        /* \"package/contracts/utils/BytesUtils.sol\":7763:7785  add(add(self, 4), idx) */\n      add\n        /* \"package/contracts/utils/BytesUtils.sol\":7757:7786  mload(add(add(self, 4), idx)) */\n      mload\n        /* \"package/contracts/utils/BytesUtils.sol\":7753:7799  and(mload(add(add(self, 4), idx)), 0xFFFFFFFF) */\n      and\n        /* \"package/contracts/utils/BytesUtils.sol\":7746:7799  ret := and(mload(add(add(self, 4), idx)), 0xFFFFFFFF) */\n      swap1\n      pop\n        /* \"package/contracts/utils/BytesUtils.sol\":7599:7809  function readUint32(bytes memory self, uint256 idx) internal pure returns (uint32 ret) {... */\n      swap3\n      swap2\n      pop\n      pop\n      jump\t// out\n        /* \"package/contracts/utils/BytesUtils.sol\":6804:6923  function readUint8(bytes memory self, uint256 idx) internal pure returns (uint8 ret) {... */\n    tag_68:\n        /* \"package/contracts/utils/BytesUtils.sol\":6878:6887  uint8 ret */\n      0x00\n        /* \"package/contracts/utils/BytesUtils.sol\":6908:6912  self */\n      dup3\n        /* \"package/contracts/utils/BytesUtils.sol\":6913:6916  idx */\n      dup3\n        /* \"package/contracts/utils/BytesUtils.sol\":6908:6917  self[idx] */\n      dup2\n      mload\n      dup2\n      lt\n      tag_245\n      jumpi\n      tag_246\n      tag_247\n      jump\t// in\n    tag_246:\n    tag_245:\n      0x20\n      add\n      add\n      mload\n      0xf8\n      shr\n      0xf8\n      shl\n        /* \"package/contracts/utils/BytesUtils.sol\":6902:6918  uint8(self[idx]) */\n      0xf8\n      shr\n        /* \"package/contracts/utils/BytesUtils.sol\":6895:6918  return uint8(self[idx]) */\n      swap1\n      pop\n        /* \"package/contracts/utils/BytesUtils.sol\":6804:6923  function readUint8(bytes memory self, uint256 idx) internal pure returns (uint8 ret) {... */\n      swap3\n      swap2\n      pop\n      pop\n      jump\t// out\n        /* \"package/contracts/utils/BytesUtils.sol\":391:615  function keccak(bytes memory self, uint256 offset, uint256 len) internal pure returns (bytes32 ret) {... */\n    tag_77:\n        /* \"package/contracts/utils/BytesUtils.sol\":478:489  bytes32 ret */\n      0x00\n        /* \"package/contracts/utils/BytesUtils.sol\":521:525  self */\n      dup4\n        /* \"package/contracts/utils/BytesUtils.sol\":521:532  self.length */\n      mload\n        /* \"package/contracts/utils/BytesUtils.sol\":514:517  len */\n      dup3\n        /* \"package/contracts/utils/BytesUtils.sol\":505:511  offset */\n      dup5\n        /* \"package/contracts/utils/BytesUtils.sol\":505:517  offset + len */\n      tag_249\n      swap2\n      swap1\n      tag_230\n      jump\t// in\n    tag_249:\n        /* \"package/contracts/utils/BytesUtils.sol\":505:532  offset + len <= self.length */\n      gt\n      iszero\n        /* \"package/contracts/utils/BytesUtils.sol\":497:533  require(offset + len <= self.length) */\n      tag_250\n      jumpi\n      0x00\n      dup1\n      revert\n    tag_250:\n        /* \"package/contracts/utils/BytesUtils.sol\":601:604  len */\n      dup2\n        /* \"package/contracts/utils/BytesUtils.sol\":592:598  offset */\n      dup4\n        /* \"package/contracts/utils/BytesUtils.sol\":587:589  32 */\n      0x20\n        /* \"package/contracts/utils/BytesUtils.sol\":581:585  self */\n      dup7\n        /* \"package/contracts/utils/BytesUtils.sol\":577:590  add(self, 32) */\n      add\n        /* \"package/contracts/utils/BytesUtils.sol\":573:599  add(add(self, 32), offset) */\n      add\n        /* \"package/contracts/utils/BytesUtils.sol\":563:605  keccak256(add(add(self, 32), offset), len) */\n      keccak256\n        /* \"package/contracts/utils/BytesUtils.sol\":556:605  ret := keccak256(add(add(self, 32), offset), len) */\n      swap1\n      pop\n        /* \"package/contracts/utils/BytesUtils.sol\":391:615  function keccak(bytes memory self, uint256 offset, uint256 len) internal pure returns (bytes32 ret) {... */\n      swap4\n      swap3\n      pop\n      pop\n      pop\n      jump\t// out\n        /* \"package/contracts/utils/BytesUtils.sol\":2310:2468  function compare(bytes memory self, bytes memory other) internal pure returns (int256) {... */\n    tag_90:\n        /* \"package/contracts/utils/BytesUtils.sol\":2389:2395  int256 */\n      0x00\n        /* \"package/contracts/utils/BytesUtils.sol\":2410:2463  compare(self, 0, self.length, other, 0, other.length) */\n      tag_252\n        /* \"package/contracts/utils/BytesUtils.sol\":2418:2422  self */\n      dup4\n        /* \"package/contracts/utils/BytesUtils.sol\":2424:2425  0 */\n      0x00\n        /* \"package/contracts/utils/BytesUtils.sol\":2427:2431  self */\n      dup6\n        /* \"package/contracts/utils/BytesUtils.sol\":2427:2438  self.length */\n      mload\n        /* \"package/contracts/utils/BytesUtils.sol\":2440:2445  other */\n      dup6\n        /* \"package/contracts/utils/BytesUtils.sol\":2447:2448  0 */\n      0x00\n        /* \"package/contracts/utils/BytesUtils.sol\":2450:2455  other */\n      dup8\n        /* \"package/contracts/utils/BytesUtils.sol\":2450:2462  other.length */\n      mload\n        /* \"package/contracts/utils/BytesUtils.sol\":2410:2417  compare */\n      tag_164\n        /* \"package/contracts/utils/BytesUtils.sol\":2410:2463  compare(self, 0, self.length, other, 0, other.length) */\n      jump\t// in\n    tag_252:\n        /* \"package/contracts/utils/BytesUtils.sol\":2403:2463  return compare(self, 0, self.length, other, 0, other.length) */\n      swap1\n      pop\n        /* \"package/contracts/utils/BytesUtils.sol\":2310:2468  function compare(bytes memory self, bytes memory other) internal pure returns (int256) {... */\n      swap3\n      swap2\n      pop\n      pop\n      jump\t// out\n        /* \"package/contracts/utils/BytesUtils.sol\":10903:12129  function base32HexDecodeWord(bytes memory self, uint256 off, uint256 len) internal pure returns (bytes32) {... */\n    tag_122:\n        /* \"package/contracts/utils/BytesUtils.sol\":11000:11007  bytes32 */\n      0x00\n        /* \"package/contracts/utils/BytesUtils.sol\":11030:11032  52 */\n      0x34\n        /* \"package/contracts/utils/BytesUtils.sol\":11023:11026  len */\n      dup3\n        /* \"package/contracts/utils/BytesUtils.sol\":11023:11032  len <= 52 */\n      gt\n      iszero\n        /* \"package/contracts/utils/BytesUtils.sol\":11015:11033  require(len <= 52) */\n      tag_254\n      jumpi\n      0x00\n      dup1\n      revert\n    tag_254:\n        /* \"package/contracts/utils/BytesUtils.sol\":11040:11051  uint256 ret */\n      0x00\n        /* \"package/contracts/utils/BytesUtils.sol\":11061:11074  uint8 decoded */\n      dup1\n        /* \"package/contracts/utils/BytesUtils.sol\":11085:11094  uint256 i */\n      dup1\n        /* \"package/contracts/utils/BytesUtils.sol\":11097:11098  0 */\n      0x00\n        /* \"package/contracts/utils/BytesUtils.sol\":11085:11098  uint256 i = 0 */\n      swap1\n      pop\n        /* \"package/contracts/utils/BytesUtils.sol\":11080:11384  for (uint256 i = 0; i < len; i++) {... */\n    tag_255:\n        /* \"package/contracts/utils/BytesUtils.sol\":11104:11107  len */\n      dup5\n        /* \"package/contracts/utils/BytesUtils.sol\":11100:11101  i */\n      dup2\n        /* \"package/contracts/utils/BytesUtils.sol\":11100:11107  i < len */\n      lt\n        /* \"package/contracts/utils/BytesUtils.sol\":11080:11384  for (uint256 i = 0; i < len; i++) {... */\n      iszero\n      tag_256\n      jumpi\n        /* \"package/contracts/utils/BytesUtils.sol\":11122:11133  bytes1 char */\n      0x00\n        /* \"package/contracts/utils/BytesUtils.sol\":11136:11140  self */\n      dup8\n        /* \"package/contracts/utils/BytesUtils.sol\":11147:11148  i */\n      dup3\n        /* \"package/contracts/utils/BytesUtils.sol\":11141:11144  off */\n      dup9\n        /* \"package/contracts/utils/BytesUtils.sol\":11141:11148  off + i */\n      tag_258\n      swap2\n      swap1\n      tag_230\n      jump\t// in\n    tag_258:\n        /* \"package/contracts/utils/BytesUtils.sol\":11136:11149  self[off + i] */\n      dup2\n      mload\n      dup2\n      lt\n      tag_259\n      jumpi\n      tag_260\n      tag_247\n      jump\t// in\n    tag_260:\n    tag_259:\n      0x20\n      add\n      add\n      mload\n      0xf8\n      shr\n      0xf8\n      shl\n        /* \"package/contracts/utils/BytesUtils.sol\":11122:11149  bytes1 char = self[off + i] */\n      swap1\n      pop\n        /* \"package/contracts/utils/BytesUtils.sol\":11173:11177  0x30 */\n      0x30\n        /* \"package/contracts/utils/BytesUtils.sol\":11165:11177  char >= 0x30 */\n      0xf8\n      shl\n        /* \"package/contracts/utils/BytesUtils.sol\":11165:11169  char */\n      dup2\n        /* \"package/contracts/utils/BytesUtils.sol\":11165:11177  char >= 0x30 */\n      not(0xffffffffffffffffffffffffffffffffffffffffffffffffffffffffffffff)\n      and\n      lt\n      iszero\n        /* \"package/contracts/utils/BytesUtils.sol\":11165:11193  char >= 0x30 && char <= 0x7A */\n      dup1\n      iszero\n      tag_261\n      jumpi\n      pop\n        /* \"package/contracts/utils/BytesUtils.sol\":11189:11193  0x7A */\n      0x7a\n        /* \"package/contracts/utils/BytesUtils.sol\":11181:11193  char <= 0x7A */\n      0xf8\n      shl\n        /* \"package/contracts/utils/BytesUtils.sol\":11181:11185  char */\n      dup2\n        /* \"package/contracts/utils/BytesUtils.sol\":11181:11193  char <= 0x7A */\n      not(0xffffffffffffffffffffffffffffffffffffffffffffffffffffffffffffff)\n      and\n      gt\n      iszero\n        /* \"package/contracts/utils/BytesUtils.sol\":11165:11193  char >= 0x30 && char <= 0x7A */\n    tag_261:\n        /* \"package/contracts/utils/BytesUtils.sol\":11157:11194  require(char >= 0x30 && char <= 0x7A) */\n      tag_262\n      jumpi\n      0x00\n      dup1\n      revert\n    tag_262:\n        /* \"package/contracts/utils/BytesUtils.sol\":11218:11232  base32HexTable */\n      mload(0x40)\n      dup1\n      0x80\n      add\n      0x40\n      mstore\n      dup1\n      0x47\n      dup2\n      mstore\n      0x20\n      add\n      data_9e82410dbf01e63aa72c1e18aee3deb28d15751fdce22e55714ad62f7fde606a\n      0x47\n      swap2\n      codecopy\n        /* \"package/contracts/utils/BytesUtils.sol\":11256:11260  0x30 */\n      0x30\n        /* \"package/contracts/utils/BytesUtils.sol\":11247:11251  char */\n      dup3\n        /* \"package/contracts/utils/BytesUtils.sol\":11241:11252  uint8(char) */\n      0xf8\n      shr\n        /* \"package/contracts/utils/BytesUtils.sol\":11233:11253  uint256(uint8(char)) */\n      0xff\n      and\n        /* \"package/contracts/utils/BytesUtils.sol\":11233:11260  uint256(uint8(char)) - 0x30 */\n      tag_263\n      swap2\n      swap1\n      tag_264\n      jump\t// in\n    tag_263:\n        /* \"package/contracts/utils/BytesUtils.sol\":11218:11261  base32HexTable[uint256(uint8(char)) - 0x30] */\n      dup2\n      mload\n      dup2\n      lt\n      tag_265\n      jumpi\n      tag_266\n      tag_247\n      jump\t// in\n    tag_266:\n    tag_265:\n      0x20\n      add\n      add\n      mload\n      0xf8\n      shr\n      0xf8\n      shl\n        /* \"package/contracts/utils/BytesUtils.sol\":11212:11262  uint8(base32HexTable[uint256(uint8(char)) - 0x30]) */\n      0xf8\n      shr\n        /* \"package/contracts/utils/BytesUtils.sol\":11202:11262  decoded = uint8(base32HexTable[uint256(uint8(char)) - 0x30]) */\n      swap3\n      pop\n        /* \"package/contracts/utils/BytesUtils.sol\":11289:11293  0x20 */\n      0x20\n        /* \"package/contracts/utils/BytesUtils.sol\":11278:11285  decoded */\n      dup4\n        /* \"package/contracts/utils/BytesUtils.sol\":11278:11293  decoded <= 0x20 */\n      0xff\n      and\n      gt\n      iszero\n        /* \"package/contracts/utils/BytesUtils.sol\":11270:11294  require(decoded <= 0x20) */\n      tag_267\n      jumpi\n      0x00\n      dup1\n      revert\n    tag_267:\n        /* \"package/contracts/utils/BytesUtils.sol\":11317:11318  1 */\n      0x01\n        /* \"package/contracts/utils/BytesUtils.sol\":11311:11314  len */\n      dup7\n        /* \"package/contracts/utils/BytesUtils.sol\":11311:11318  len - 1 */\n      tag_268\n      swap2\n      swap1\n      tag_264\n      jump\t// in\n    tag_268:\n        /* \"package/contracts/utils/BytesUtils.sol\":11306:11307  i */\n      dup3\n        /* \"package/contracts/utils/BytesUtils.sol\":11306:11318  i == len - 1 */\n      sub\n        /* \"package/contracts/utils/BytesUtils.sol\":11302:11344  if (i == len - 1) {... */\n      tag_269\n      jumpi\n        /* \"package/contracts/utils/BytesUtils.sol\":11330:11335  break */\n      pop\n      jump(tag_256)\n        /* \"package/contracts/utils/BytesUtils.sol\":11302:11344  if (i == len - 1) {... */\n    tag_269:\n        /* \"package/contracts/utils/BytesUtils.sol\":11370:11377  decoded */\n      dup3\n        /* \"package/contracts/utils/BytesUtils.sol\":11357:11377  (ret << 5) | decoded */\n      0xff\n      and\n        /* \"package/contracts/utils/BytesUtils.sol\":11365:11366  5 */\n      0x05\n        /* \"package/contracts/utils/BytesUtils.sol\":11358:11361  ret */\n      dup6\n        /* \"package/contracts/utils/BytesUtils.sol\":11358:11366  ret << 5 */\n      swap1\n      shl\n        /* \"package/contracts/utils/BytesUtils.sol\":11357:11377  (ret << 5) | decoded */\n      or\n        /* \"package/contracts/utils/BytesUtils.sol\":11351:11377  ret = (ret << 5) | decoded */\n      swap4\n      pop\n        /* \"package/contracts/utils/BytesUtils.sol\":11114:11384  {... */\n      pop\n        /* \"package/contracts/utils/BytesUtils.sol\":11109:11112  i++ */\n      dup1\n      dup1\n      tag_270\n      swap1\n      tag_271\n      jump\t// in\n    tag_270:\n      swap2\n      pop\n      pop\n        /* \"package/contracts/utils/BytesUtils.sol\":11080:11384  for (uint256 i = 0; i < len; i++) {... */\n      jump(tag_255)\n    tag_256:\n      pop\n        /* \"package/contracts/utils/BytesUtils.sol\":11390:11404  uint256 bitlen */\n      0x00\n        /* \"package/contracts/utils/BytesUtils.sol\":11413:11414  5 */\n      0x05\n        /* \"package/contracts/utils/BytesUtils.sol\":11407:11410  len */\n      dup6\n        /* \"package/contracts/utils/BytesUtils.sol\":11407:11414  len * 5 */\n      tag_272\n      swap2\n      swap1\n      tag_273\n      jump\t// in\n    tag_272:\n        /* \"package/contracts/utils/BytesUtils.sol\":11390:11414  uint256 bitlen = len * 5 */\n      swap1\n      pop\n        /* \"package/contracts/utils/BytesUtils.sol\":11435:11436  0 */\n      0x00\n        /* \"package/contracts/utils/BytesUtils.sol\":11430:11431  8 */\n      0x08\n        /* \"package/contracts/utils/BytesUtils.sol\":11424:11427  len */\n      dup7\n        /* \"package/contracts/utils/BytesUtils.sol\":11424:11431  len % 8 */\n      tag_274\n      swap2\n      swap1\n      tag_275\n      jump\t// in\n    tag_274:\n        /* \"package/contracts/utils/BytesUtils.sol\":11424:11436  len % 8 == 0 */\n      sub\n        /* \"package/contracts/utils/BytesUtils.sol\":11420:12081  if (len % 8 == 0) {... */\n      tag_276\n      jumpi\n        /* \"package/contracts/utils/BytesUtils.sol\":11511:11518  decoded */\n      dup2\n        /* \"package/contracts/utils/BytesUtils.sol\":11498:11518  (ret << 5) | decoded */\n      0xff\n      and\n        /* \"package/contracts/utils/BytesUtils.sol\":11506:11507  5 */\n      0x05\n        /* \"package/contracts/utils/BytesUtils.sol\":11499:11502  ret */\n      dup5\n        /* \"package/contracts/utils/BytesUtils.sol\":11499:11507  ret << 5 */\n      swap1\n      shl\n        /* \"package/contracts/utils/BytesUtils.sol\":11498:11518  (ret << 5) | decoded */\n      or\n        /* \"package/contracts/utils/BytesUtils.sol\":11492:11518  ret = (ret << 5) | decoded */\n      swap3\n      pop\n        /* \"package/contracts/utils/BytesUtils.sol\":11420:12081  if (len % 8 == 0) {... */\n      jump(tag_277)\n    tag_276:\n        /* \"package/contracts/utils/BytesUtils.sol\":11546:11547  2 */\n      0x02\n        /* \"package/contracts/utils/BytesUtils.sol\":11541:11542  8 */\n      0x08\n        /* \"package/contracts/utils/BytesUtils.sol\":11535:11538  len */\n      dup7\n        /* \"package/contracts/utils/BytesUtils.sol\":11535:11542  len % 8 */\n      tag_278\n      swap2\n      swap1\n      tag_275\n      jump\t// in\n    tag_278:\n        /* \"package/contracts/utils/BytesUtils.sol\":11535:11547  len % 8 == 2 */\n      sub\n        /* \"package/contracts/utils/BytesUtils.sol\":11531:12081  if (len % 8 == 2) {... */\n      tag_279\n      jumpi\n        /* \"package/contracts/utils/BytesUtils.sol\":11627:11628  2 */\n      0x02\n        /* \"package/contracts/utils/BytesUtils.sol\":11616:11623  decoded */\n      dup3\n        /* \"package/contracts/utils/BytesUtils.sol\":11616:11628  decoded >> 2 */\n      0xff\n      and\n      swap1\n      shr\n        /* \"package/contracts/utils/BytesUtils.sol\":11602:11629  (ret << 3) | (decoded >> 2) */\n      0xff\n      and\n        /* \"package/contracts/utils/BytesUtils.sol\":11610:11611  3 */\n      0x03\n        /* \"package/contracts/utils/BytesUtils.sol\":11603:11606  ret */\n      dup5\n        /* \"package/contracts/utils/BytesUtils.sol\":11603:11611  ret << 3 */\n      swap1\n      shl\n        /* \"package/contracts/utils/BytesUtils.sol\":11602:11629  (ret << 3) | (decoded >> 2) */\n      or\n        /* \"package/contracts/utils/BytesUtils.sol\":11596:11629  ret = (ret << 3) | (decoded >> 2) */\n      swap3\n      pop\n        /* \"package/contracts/utils/BytesUtils.sol\":11647:11648  2 */\n      0x02\n        /* \"package/contracts/utils/BytesUtils.sol\":11637:11648  bitlen -= 2 */\n      dup2\n      tag_280\n      swap2\n      swap1\n      tag_264\n      jump\t// in\n    tag_280:\n      swap1\n      pop\n        /* \"package/contracts/utils/BytesUtils.sol\":11531:12081  if (len % 8 == 2) {... */\n      jump(tag_281)\n    tag_279:\n        /* \"package/contracts/utils/BytesUtils.sol\":11676:11677  4 */\n      0x04\n        /* \"package/contracts/utils/BytesUtils.sol\":11671:11672  8 */\n      0x08\n        /* \"package/contracts/utils/BytesUtils.sol\":11665:11668  len */\n      dup7\n        /* \"package/contracts/utils/BytesUtils.sol\":11665:11672  len % 8 */\n      tag_282\n      swap2\n      swap1\n      tag_275\n      jump\t// in\n    tag_282:\n        /* \"package/contracts/utils/BytesUtils.sol\":11665:11677  len % 8 == 4 */\n      sub\n        /* \"package/contracts/utils/BytesUtils.sol\":11661:12081  if (len % 8 == 4) {... */\n      tag_283\n      jumpi\n        /* \"package/contracts/utils/BytesUtils.sol\":11759:11760  4 */\n      0x04\n        /* \"package/contracts/utils/BytesUtils.sol\":11748:11755  decoded */\n      dup3\n        /* \"package/contracts/utils/BytesUtils.sol\":11748:11760  decoded >> 4 */\n      0xff\n      and\n      swap1\n      shr\n        /* \"package/contracts/utils/BytesUtils.sol\":11734:11761  (ret << 1) | (decoded >> 4) */\n      0xff\n      and\n        /* \"package/contracts/utils/BytesUtils.sol\":11742:11743  1 */\n      0x01\n        /* \"package/contracts/utils/BytesUtils.sol\":11735:11738  ret */\n      dup5\n        /* \"package/contracts/utils/BytesUtils.sol\":11735:11743  ret << 1 */\n      swap1\n      shl\n        /* \"package/contracts/utils/BytesUtils.sol\":11734:11761  (ret << 1) | (decoded >> 4) */\n      or\n        /* \"package/contracts/utils/BytesUtils.sol\":11728:11761  ret = (ret << 1) | (decoded >> 4) */\n      swap3\n      pop\n        /* \"package/contracts/utils/BytesUtils.sol\":11779:11780  4 */\n      0x04\n        /* \"package/contracts/utils/BytesUtils.sol\":11769:11780  bitlen -= 4 */\n      dup2\n      tag_284\n      swap2\n      swap1\n      tag_264\n      jump\t// in\n    tag_284:\n      swap1\n      pop\n        /* \"package/contracts/utils/BytesUtils.sol\":11661:12081  if (len % 8 == 4) {... */\n      jump(tag_285)\n    tag_283:\n        /* \"package/contracts/utils/BytesUtils.sol\":11808:11809  5 */\n      0x05\n        /* \"package/contracts/utils/BytesUtils.sol\":11803:11804  8 */\n      0x08\n        /* \"package/contracts/utils/BytesUtils.sol\":11797:11800  len */\n      dup7\n        /* \"package/contracts/utils/BytesUtils.sol\":11797:11804  len % 8 */\n      tag_286\n      swap2\n      swap1\n      tag_275\n      jump\t// in\n    tag_286:\n        /* \"package/contracts/utils/BytesUtils.sol\":11797:11809  len % 8 == 5 */\n      sub\n        /* \"package/contracts/utils/BytesUtils.sol\":11793:12081  if (len % 8 == 5) {... */\n      tag_287\n      jumpi\n        /* \"package/contracts/utils/BytesUtils.sol\":11891:11892  1 */\n      0x01\n        /* \"package/contracts/utils/BytesUtils.sol\":11880:11887  decoded */\n      dup3\n        /* \"package/contracts/utils/BytesUtils.sol\":11880:11892  decoded >> 1 */\n      0xff\n      and\n      swap1\n      shr\n        /* \"package/contracts/utils/BytesUtils.sol\":11866:11893  (ret << 4) | (decoded >> 1) */\n      0xff\n      and\n        /* \"package/contracts/utils/BytesUtils.sol\":11874:11875  4 */\n      0x04\n        /* \"package/contracts/utils/BytesUtils.sol\":11867:11870  ret */\n      dup5\n        /* \"package/contracts/utils/BytesUtils.sol\":11867:11875  ret << 4 */\n      swap1\n      shl\n        /* \"package/contracts/utils/BytesUtils.sol\":11866:11893  (ret << 4) | (decoded >> 1) */\n      or\n        /* \"package/contracts/utils/BytesUtils.sol\":11860:11893  ret = (ret << 4) | (decoded >> 1) */\n      swap3\n      pop\n        /* \"package/contracts/utils/BytesUtils.sol\":11911:11912  1 */\n      0x01\n        /* \"package/contracts/utils/BytesUtils.sol\":11901:11912  bitlen -= 1 */\n      dup2\n      tag_288\n      swap2\n      swap1\n      tag_264\n      jump\t// in\n    tag_288:\n      swap1\n      pop\n        /* \"package/contracts/utils/BytesUtils.sol\":11793:12081  if (len % 8 == 5) {... */\n      jump(tag_289)\n    tag_287:\n        /* \"package/contracts/utils/BytesUtils.sol\":11940:11941  7 */\n      0x07\n        /* \"package/contracts/utils/BytesUtils.sol\":11935:11936  8 */\n      0x08\n        /* \"package/contracts/utils/BytesUtils.sol\":11929:11932  len */\n      dup7\n        /* \"package/contracts/utils/BytesUtils.sol\":11929:11936  len % 8 */\n      tag_290\n      swap2\n      swap1\n      tag_275\n      jump\t// in\n    tag_290:\n        /* \"package/contracts/utils/BytesUtils.sol\":11929:11941  len % 8 == 7 */\n      sub\n        /* \"package/contracts/utils/BytesUtils.sol\":11925:12081  if (len % 8 == 7) {... */\n      tag_291\n      jumpi\n        /* \"package/contracts/utils/BytesUtils.sol\":12024:12025  3 */\n      0x03\n        /* \"package/contracts/utils/BytesUtils.sol\":12013:12020  decoded */\n      dup3\n        /* \"package/contracts/utils/BytesUtils.sol\":12013:12025  decoded >> 3 */\n      0xff\n      and\n      swap1\n      shr\n        /* \"package/contracts/utils/BytesUtils.sol\":11999:12026  (ret << 2) | (decoded >> 3) */\n      0xff\n      and\n        /* \"package/contracts/utils/BytesUtils.sol\":12007:12008  2 */\n      0x02\n        /* \"package/contracts/utils/BytesUtils.sol\":12000:12003  ret */\n      dup5\n        /* \"package/contracts/utils/BytesUtils.sol\":12000:12008  ret << 2 */\n      swap1\n      shl\n        /* \"package/contracts/utils/BytesUtils.sol\":11999:12026  (ret << 2) | (decoded >> 3) */\n      or\n        /* \"package/contracts/utils/BytesUtils.sol\":11993:12026  ret = (ret << 2) | (decoded >> 3) */\n      swap3\n      pop\n        /* \"package/contracts/utils/BytesUtils.sol\":12044:12045  3 */\n      0x03\n        /* \"package/contracts/utils/BytesUtils.sol\":12034:12045  bitlen -= 3 */\n      dup2\n      tag_292\n      swap2\n      swap1\n      tag_264\n      jump\t// in\n    tag_292:\n      swap1\n      pop\n        /* \"package/contracts/utils/BytesUtils.sol\":11925:12081  if (len % 8 == 7) {... */\n      jump(tag_293)\n    tag_291:\n        /* \"package/contracts/utils/BytesUtils.sol\":12066:12074  revert() */\n      0x00\n      dup1\n      revert\n        /* \"package/contracts/utils/BytesUtils.sol\":11925:12081  if (len % 8 == 7) {... */\n    tag_293:\n        /* \"package/contracts/utils/BytesUtils.sol\":11793:12081  if (len % 8 == 5) {... */\n    tag_289:\n        /* \"package/contracts/utils/BytesUtils.sol\":11661:12081  if (len % 8 == 4) {... */\n    tag_285:\n        /* \"package/contracts/utils/BytesUtils.sol\":11531:12081  if (len % 8 == 2) {... */\n    tag_281:\n        /* \"package/contracts/utils/BytesUtils.sol\":11420:12081  if (len % 8 == 0) {... */\n    tag_277:\n        /* \"package/contracts/utils/BytesUtils.sol\":12116:12122  bitlen */\n      dup1\n        /* \"package/contracts/utils/BytesUtils.sol\":12110:12113  256 */\n      0x0100\n        /* \"package/contracts/utils/BytesUtils.sol\":12110:12122  256 - bitlen */\n      tag_294\n      swap2\n      swap1\n      tag_264\n      jump\t// in\n    tag_294:\n        /* \"package/contracts/utils/BytesUtils.sol\":12102:12105  ret */\n      dup4\n        /* \"package/contracts/utils/BytesUtils.sol\":12102:12123  ret << (256 - bitlen) */\n      swap1\n      shl\n        /* \"package/contracts/utils/BytesUtils.sol\":12094:12124  bytes32(ret << (256 - bitlen)) */\n      0x00\n      shl\n        /* \"package/contracts/utils/BytesUtils.sol\":12087:12124  return bytes32(ret << (256 - bitlen)) */\n      swap4\n      pop\n      pop\n      pop\n      pop\n        /* \"package/contracts/utils/BytesUtils.sol\":10903:12129  function base32HexDecodeWord(bytes memory self, uint256 off, uint256 len) internal pure returns (bytes32) {... */\n      swap4\n      swap3\n      pop\n      pop\n      pop\n      jump\t// out\n        /* \"package/contracts/utils/BytesUtils.sol\":3065:4345  function compare(... */\n    tag_164:\n        /* \"package/contracts/utils/BytesUtils.sol\":3240:3246  int256 */\n      0x00\n        /* \"package/contracts/utils/BytesUtils.sol\":3273:3277  self */\n      dup7\n        /* \"package/contracts/utils/BytesUtils.sol\":3273:3284  self.length */\n      mload\n        /* \"package/contracts/utils/BytesUtils.sol\":3267:3270  len */\n      dup6\n        /* \"package/contracts/utils/BytesUtils.sol\":3258:3264  offset */\n      dup8\n        /* \"package/contracts/utils/BytesUtils.sol\":3258:3270  offset + len */\n      tag_296\n      swap2\n      swap1\n      tag_230\n      jump\t// in\n    tag_296:\n        /* \"package/contracts/utils/BytesUtils.sol\":3258:3284  offset + len > self.length */\n      gt\n        /* \"package/contracts/utils/BytesUtils.sol\":3254:3357  if (offset + len > self.length) {... */\n      iszero\n      tag_297\n      jumpi\n        /* \"package/contracts/utils/BytesUtils.sol\":3333:3336  len */\n      dup5\n        /* \"package/contracts/utils/BytesUtils.sol\":3324:3330  offset */\n      dup7\n        /* \"package/contracts/utils/BytesUtils.sol\":3324:3336  offset + len */\n      tag_298\n      swap2\n      swap1\n      tag_230\n      jump\t// in\n    tag_298:\n        /* \"package/contracts/utils/BytesUtils.sol\":3338:3342  self */\n      dup8\n        /* \"package/contracts/utils/BytesUtils.sol\":3338:3349  self.length */\n      mload\n        /* \"package/contracts/utils/BytesUtils.sol\":3301:3350  OffsetOutOfBoundsError(offset + len, self.length) */\n      mload(0x40)\n      0x8a3c1cfb00000000000000000000000000000000000000000000000000000000\n      dup2\n      mstore\n      0x04\n      add\n      tag_299\n      swap3\n      swap2\n      swap1\n      tag_300\n      jump\t// in\n    tag_299:\n      mload(0x40)\n      dup1\n      swap2\n      sub\n      swap1\n      revert\n        /* \"package/contracts/utils/BytesUtils.sol\":3254:3357  if (offset + len > self.length) {... */\n    tag_297:\n        /* \"package/contracts/utils/BytesUtils.sol\":3391:3396  other */\n      dup4\n        /* \"package/contracts/utils/BytesUtils.sol\":3391:3403  other.length */\n      mload\n        /* \"package/contracts/utils/BytesUtils.sol\":3380:3388  otherlen */\n      dup3\n        /* \"package/contracts/utils/BytesUtils.sol\":3366:3377  otheroffset */\n      dup5\n        /* \"package/contracts/utils/BytesUtils.sol\":3366:3388  otheroffset + otherlen */\n      tag_301\n      swap2\n      swap1\n      tag_230\n      jump\t// in\n    tag_301:\n        /* \"package/contracts/utils/BytesUtils.sol\":3366:3403  otheroffset + otherlen > other.length */\n      gt\n        /* \"package/contracts/utils/BytesUtils.sol\":3362:3487  if (otheroffset + otherlen > other.length) {... */\n      iszero\n      tag_302\n      jumpi\n        /* \"package/contracts/utils/BytesUtils.sol\":3457:3465  otherlen */\n      dup2\n        /* \"package/contracts/utils/BytesUtils.sol\":3443:3454  otheroffset */\n      dup4\n        /* \"package/contracts/utils/BytesUtils.sol\":3443:3465  otheroffset + otherlen */\n      tag_303\n      swap2\n      swap1\n      tag_230\n      jump\t// in\n    tag_303:\n        /* \"package/contracts/utils/BytesUtils.sol\":3467:3472  other */\n      dup5\n        /* \"package/contracts/utils/BytesUtils.sol\":3467:3479  other.length */\n      mload\n        /* \"package/contracts/utils/BytesUtils.sol\":3420:3480  OffsetOutOfBoundsError(otheroffset + otherlen, other.length) */\n      mload(0x40)\n      0x8a3c1cfb00000000000000000000000000000000000000000000000000000000\n      dup2\n      mstore\n      0x04\n      add\n      tag_304\n      swap3\n      swap2\n      swap1\n      tag_300\n      jump\t// in\n    tag_304:\n      mload(0x40)\n      dup1\n      swap2\n      sub\n      swap1\n      revert\n        /* \"package/contracts/utils/BytesUtils.sol\":3362:3487  if (otheroffset + otherlen > other.length) {... */\n    tag_302:\n        /* \"package/contracts/utils/BytesUtils.sol\":3493:3509  uint256 shortest */\n      0x00\n        /* \"package/contracts/utils/BytesUtils.sol\":3512:3515  len */\n      dup6\n        /* \"package/contracts/utils/BytesUtils.sol\":3493:3515  uint256 shortest = len */\n      swap1\n      pop\n        /* \"package/contracts/utils/BytesUtils.sol\":3536:3539  len */\n      dup6\n        /* \"package/contracts/utils/BytesUtils.sol\":3525:3533  otherlen */\n      dup4\n        /* \"package/contracts/utils/BytesUtils.sol\":3525:3539  otherlen < len */\n      lt\n        /* \"package/contracts/utils/BytesUtils.sol\":3521:3560  if (otherlen < len) shortest = otherlen */\n      iszero\n      tag_305\n      jumpi\n        /* \"package/contracts/utils/BytesUtils.sol\":3552:3560  otherlen */\n      dup3\n        /* \"package/contracts/utils/BytesUtils.sol\":3541:3560  shortest = otherlen */\n      swap1\n      pop\n        /* \"package/contracts/utils/BytesUtils.sol\":3521:3560  if (otherlen < len) shortest = otherlen */\n    tag_305:\n        /* \"package/contracts/utils/BytesUtils.sol\":3567:3582  uint256 selfptr */\n      0x00\n        /* \"package/contracts/utils/BytesUtils.sol\":3588:3604  uint256 otherptr */\n      dup1\n        /* \"package/contracts/utils/BytesUtils.sol\":3661:3663  32 */\n      0x20\n        /* \"package/contracts/utils/BytesUtils.sol\":3653:3659  offset */\n      dup10\n        /* \"package/contracts/utils/BytesUtils.sol\":3649:3664  add(offset, 32) */\n      add\n        /* \"package/contracts/utils/BytesUtils.sol\":3643:3647  self */\n      dup11\n        /* \"package/contracts/utils/BytesUtils.sol\":3639:3665  add(self, add(offset, 32)) */\n      add\n        /* \"package/contracts/utils/BytesUtils.sol\":3628:3665  selfptr := add(self, add(offset, 32)) */\n      swap2\n      pop\n        /* \"package/contracts/utils/BytesUtils.sol\":3712:3714  32 */\n      0x20\n        /* \"package/contracts/utils/BytesUtils.sol\":3699:3710  otheroffset */\n      dup7\n        /* \"package/contracts/utils/BytesUtils.sol\":3695:3715  add(otheroffset, 32) */\n      add\n        /* \"package/contracts/utils/BytesUtils.sol\":3688:3693  other */\n      dup8\n        /* \"package/contracts/utils/BytesUtils.sol\":3684:3716  add(other, add(otheroffset, 32)) */\n      add\n        /* \"package/contracts/utils/BytesUtils.sol\":3672:3716  otherptr := add(other, add(otheroffset, 32)) */\n      swap1\n      pop\n        /* \"package/contracts/utils/BytesUtils.sol\":3732:3743  uint256 idx */\n      0x00\n        /* \"package/contracts/utils/BytesUtils.sol\":3727:4297  for (uint256 idx = 0; idx < shortest; idx += 32) {... */\n    tag_306:\n        /* \"package/contracts/utils/BytesUtils.sol\":3755:3763  shortest */\n      dup4\n        /* \"package/contracts/utils/BytesUtils.sol\":3749:3752  idx */\n      dup2\n        /* \"package/contracts/utils/BytesUtils.sol\":3749:3763  idx < shortest */\n      lt\n        /* \"package/contracts/utils/BytesUtils.sol\":3727:4297  for (uint256 idx = 0; idx < shortest; idx += 32) {... */\n      iszero\n      tag_307\n      jumpi\n        /* \"package/contracts/utils/BytesUtils.sol\":3784:3793  uint256 a */\n      0x00\n        /* \"package/contracts/utils/BytesUtils.sol\":3801:3810  uint256 b */\n      dup1\n        /* \"package/contracts/utils/BytesUtils.sol\":3848:3855  selfptr */\n      dup5\n        /* \"package/contracts/utils/BytesUtils.sol\":3842:3856  mload(selfptr) */\n      mload\n        /* \"package/contracts/utils/BytesUtils.sol\":3837:3856  a := mload(selfptr) */\n      swap2\n      pop\n        /* \"package/contracts/utils/BytesUtils.sol\":3876:3884  otherptr */\n      dup4\n        /* \"package/contracts/utils/BytesUtils.sol\":3870:3885  mload(otherptr) */\n      mload\n        /* \"package/contracts/utils/BytesUtils.sol\":3865:3885  b := mload(otherptr) */\n      swap1\n      pop\n        /* \"package/contracts/utils/BytesUtils.sol\":3909:3910  b */\n      dup1\n        /* \"package/contracts/utils/BytesUtils.sol\":3904:3905  a */\n      dup3\n        /* \"package/contracts/utils/BytesUtils.sol\":3904:3910  a != b */\n      eq\n        /* \"package/contracts/utils/BytesUtils.sol\":3900:4248  if (a != b) {... */\n      tag_309\n      jumpi\n        /* \"package/contracts/utils/BytesUtils.sol\":3975:3987  uint256 mask */\n      0x00\n        /* \"package/contracts/utils/BytesUtils.sol\":4019:4021  32 */\n      0x20\n        /* \"package/contracts/utils/BytesUtils.sol\":4012:4015  idx */\n      dup5\n        /* \"package/contracts/utils/BytesUtils.sol\":4001:4009  shortest */\n      dup9\n        /* \"package/contracts/utils/BytesUtils.sol\":4001:4015  shortest - idx */\n      tag_310\n      swap2\n      swap1\n      tag_264\n      jump\t// in\n    tag_310:\n        /* \"package/contracts/utils/BytesUtils.sol\":4001:4021  shortest - idx >= 32 */\n      lt\n        /* \"package/contracts/utils/BytesUtils.sol\":3997:4145  if (shortest - idx >= 32) {... */\n      tag_311\n      jumpi\n        /* \"package/contracts/utils/BytesUtils.sol\":4042:4059  type(uint256).max */\n      0xffffffffffffffffffffffffffffffffffffffffffffffffffffffffffffffff\n        /* \"package/contracts/utils/BytesUtils.sol\":4035:4059  mask = type(uint256).max */\n      swap1\n      pop\n        /* \"package/contracts/utils/BytesUtils.sol\":3997:4145  if (shortest - idx >= 32) {... */\n      jump(tag_312)\n    tag_311:\n        /* \"package/contracts/utils/BytesUtils.sol\":4132:4133  1 */\n      0x01\n        /* \"package/contracts/utils/BytesUtils.sol\":4119:4127  shortest */\n      dup8\n        /* \"package/contracts/utils/BytesUtils.sol\":4114:4116  32 */\n      0x20\n        /* \"package/contracts/utils/BytesUtils.sol\":4108:4111  idx */\n      dup7\n        /* \"package/contracts/utils/BytesUtils.sol\":4108:4116  idx + 32 */\n      tag_313\n      swap2\n      swap1\n      tag_230\n      jump\t// in\n    tag_313:\n        /* \"package/contracts/utils/BytesUtils.sol\":4108:4127  idx + 32 - shortest */\n      tag_314\n      swap2\n      swap1\n      tag_264\n      jump\t// in\n    tag_314:\n        /* \"package/contracts/utils/BytesUtils.sol\":4103:4104  8 */\n      0x08\n        /* \"package/contracts/utils/BytesUtils.sol\":4103:4128  8 * (idx + 32 - shortest) */\n      tag_315\n      swap2\n      swap1\n      tag_273\n      jump\t// in\n    tag_315:\n        /* \"package/contracts/utils/BytesUtils.sol\":4097:4098  2 */\n      0x02\n        /* \"package/contracts/utils/BytesUtils.sol\":4097:4129  2 ** (8 * (idx + 32 - shortest)) */\n      tag_316\n      swap2\n      swap1\n      tag_317\n      jump\t// in\n    tag_316:\n        /* \"package/contracts/utils/BytesUtils.sol\":4097:4133  2 ** (8 * (idx + 32 - shortest)) - 1 */\n      tag_318\n      swap2\n      swap1\n      tag_264\n      jump\t// in\n    tag_318:\n        /* \"package/contracts/utils/BytesUtils.sol\":4095:4134  ~(2 ** (8 * (idx + 32 - shortest)) - 1) */\n      not\n        /* \"package/contracts/utils/BytesUtils.sol\":4088:4134  mask = ~(2 ** (8 * (idx + 32 - shortest)) - 1) */\n      swap1\n      pop\n        /* \"package/contracts/utils/BytesUtils.sol\":3997:4145  if (shortest - idx >= 32) {... */\n    tag_312:\n        /* \"package/contracts/utils/BytesUtils.sol\":4154:4165  int256 diff */\n      0x00\n        /* \"package/contracts/utils/BytesUtils.sol\":4198:4202  mask */\n      dup2\n        /* \"package/contracts/utils/BytesUtils.sol\":4194:4195  b */\n      dup4\n        /* \"package/contracts/utils/BytesUtils.sol\":4194:4202  b & mask */\n      and\n        /* \"package/contracts/utils/BytesUtils.sol\":4179:4183  mask */\n      dup3\n        /* \"package/contracts/utils/BytesUtils.sol\":4175:4176  a */\n      dup6\n        /* \"package/contracts/utils/BytesUtils.sol\":4175:4183  a & mask */\n      and\n        /* \"package/contracts/utils/BytesUtils.sol\":4168:4203  int256(a & mask) - int256(b & mask) */\n      tag_319\n      swap2\n      swap1\n      tag_320\n      jump\t// in\n    tag_319:\n        /* \"package/contracts/utils/BytesUtils.sol\":4154:4203  int256 diff = int256(a & mask) - int256(b & mask) */\n      swap1\n      pop\n        /* \"package/contracts/utils/BytesUtils.sol\":4225:4226  0 */\n      0x00\n        /* \"package/contracts/utils/BytesUtils.sol\":4217:4221  diff */\n      dup2\n        /* \"package/contracts/utils/BytesUtils.sol\":4217:4226  diff != 0 */\n      eq\n        /* \"package/contracts/utils/BytesUtils.sol\":4213:4239  if (diff != 0) return diff */\n      tag_321\n      jumpi\n        /* \"package/contracts/utils/BytesUtils.sol\":4235:4239  diff */\n      dup1\n        /* \"package/contracts/utils/BytesUtils.sol\":4228:4239  return diff */\n      swap9\n      pop\n      pop\n      pop\n      pop\n      pop\n      pop\n      pop\n      pop\n      pop\n      jump(tag_295)\n        /* \"package/contracts/utils/BytesUtils.sol\":4213:4239  if (diff != 0) return diff */\n    tag_321:\n        /* \"package/contracts/utils/BytesUtils.sol\":3912:4248  {... */\n      pop\n      pop\n        /* \"package/contracts/utils/BytesUtils.sol\":3900:4248  if (a != b) {... */\n    tag_309:\n        /* \"package/contracts/utils/BytesUtils.sol\":4266:4268  32 */\n      0x20\n        /* \"package/contracts/utils/BytesUtils.sol\":4255:4268  selfptr += 32 */\n      dup6\n      tag_322\n      swap2\n      swap1\n      tag_230\n      jump\t// in\n    tag_322:\n      swap5\n      pop\n        /* \"package/contracts/utils/BytesUtils.sol\":4288:4290  32 */\n      0x20\n        /* \"package/contracts/utils/BytesUtils.sol\":4276:4290  otherptr += 32 */\n      dup5\n      tag_323\n      swap2\n      swap1\n      tag_230\n      jump\t// in\n    tag_323:\n      swap4\n      pop\n        /* \"package/contracts/utils/BytesUtils.sol\":3776:4297  {... */\n      pop\n      pop\n        /* \"package/contracts/utils/BytesUtils.sol\":3772:3774  32 */\n      0x20\n        /* \"package/contracts/utils/BytesUtils.sol\":3765:3774  idx += 32 */\n      dup2\n      tag_324\n      swap2\n      swap1\n      tag_230\n      jump\t// in\n    tag_324:\n      swap1\n      pop\n        /* \"package/contracts/utils/BytesUtils.sol\":3727:4297  for (uint256 idx = 0; idx < shortest; idx += 32) {... */\n      jump(tag_306)\n    tag_307:\n      pop\n        /* \"package/contracts/utils/BytesUtils.sol\":4331:4339  otherlen */\n      dup5\n        /* \"package/contracts/utils/BytesUtils.sol\":4317:4320  len */\n      dup9\n        /* \"package/contracts/utils/BytesUtils.sol\":4310:4340  int256(len) - int256(otherlen) */\n      tag_325\n      swap2\n      swap1\n      tag_320\n      jump\t// in\n    tag_325:\n        /* \"package/contracts/utils/BytesUtils.sol\":4303:4340  return int256(len) - int256(otherlen) */\n      swap4\n      pop\n      pop\n      pop\n      pop\n        /* \"package/contracts/utils/BytesUtils.sol\":3065:4345  function compare(... */\n    tag_295:\n      swap7\n      swap6\n      pop\n      pop\n      pop\n      pop\n      pop\n      pop\n      jump\t// out\n        /* \"package/contracts/utils/BytesUtils.sol\":6400:6571  function equals(bytes memory self, bytes memory other) internal pure returns (bool) {... */\n    tag_190:\n        /* \"package/contracts/utils/BytesUtils.sol\":6478:6482  bool */\n      0x00\n        /* \"package/contracts/utils/BytesUtils.sol\":6512:6517  other */\n      dup2\n        /* \"package/contracts/utils/BytesUtils.sol\":6512:6524  other.length */\n      mload\n        /* \"package/contracts/utils/BytesUtils.sol\":6497:6501  self */\n      dup4\n        /* \"package/contracts/utils/BytesUtils.sol\":6497:6508  self.length */\n      mload\n        /* \"package/contracts/utils/BytesUtils.sol\":6497:6524  self.length == other.length */\n      eq\n        /* \"package/contracts/utils/BytesUtils.sol\":6497:6566  self.length == other.length && equals(self, 0, other, 0, self.length) */\n      dup1\n      iszero\n      tag_327\n      jumpi\n      pop\n        /* \"package/contracts/utils/BytesUtils.sol\":6528:6566  equals(self, 0, other, 0, self.length) */\n      tag_328\n        /* \"package/contracts/utils/BytesUtils.sol\":6535:6539  self */\n      dup4\n        /* \"package/contracts/utils/BytesUtils.sol\":6541:6542  0 */\n      0x00\n        /* \"package/contracts/utils/BytesUtils.sol\":6544:6549  other */\n      dup5\n        /* \"package/contracts/utils/BytesUtils.sol\":6551:6552  0 */\n      0x00\n        /* \"package/contracts/utils/BytesUtils.sol\":6554:6558  self */\n      dup8\n        /* \"package/contracts/utils/BytesUtils.sol\":6554:6565  self.length */\n      mload\n        /* \"package/contracts/utils/BytesUtils.sol\":6528:6534  equals */\n      tag_204\n        /* \"package/contracts/utils/BytesUtils.sol\":6528:6566  equals(self, 0, other, 0, self.length) */\n      jump\t// in\n    tag_328:\n        /* \"package/contracts/utils/BytesUtils.sol\":6497:6566  self.length == other.length && equals(self, 0, other, 0, self.length) */\n    tag_327:\n        /* \"package/contracts/utils/BytesUtils.sol\":6490:6566  return self.length == other.length && equals(self, 0, other, 0, self.length) */\n      swap1\n      pop\n        /* \"package/contracts/utils/BytesUtils.sol\":6400:6571  function equals(bytes memory self, bytes memory other) internal pure returns (bool) {... */\n      swap3\n      swap2\n      pop\n      pop\n      jump\t// out\n        /* \"package/contracts/utils/BytesUtils.sol\":5959:6161  function equals(bytes memory self, uint256 offset, bytes memory other) internal pure returns (bool) {... */\n    tag_199:\n        /* \"package/contracts/utils/BytesUtils.sol\":6053:6057  bool */\n      0x00\n        /* \"package/contracts/utils/BytesUtils.sol\":6096:6101  other */\n      dup2\n        /* \"package/contracts/utils/BytesUtils.sol\":6096:6108  other.length */\n      mload\n        /* \"package/contracts/utils/BytesUtils.sol\":6087:6093  offset */\n      dup4\n        /* \"package/contracts/utils/BytesUtils.sol\":6087:6108  offset + other.length */\n      tag_330\n      swap2\n      swap1\n      tag_230\n      jump\t// in\n    tag_330:\n        /* \"package/contracts/utils/BytesUtils.sol\":6072:6076  self */\n      dup5\n        /* \"package/contracts/utils/BytesUtils.sol\":6072:6083  self.length */\n      mload\n        /* \"package/contracts/utils/BytesUtils.sol\":6072:6108  self.length == offset + other.length */\n      eq\n        /* \"package/contracts/utils/BytesUtils.sol\":6072:6156  self.length == offset + other.length && equals(self, offset, other, 0, other.length) */\n      dup1\n      iszero\n      tag_331\n      jumpi\n      pop\n        /* \"package/contracts/utils/BytesUtils.sol\":6112:6156  equals(self, offset, other, 0, other.length) */\n      tag_332\n        /* \"package/contracts/utils/BytesUtils.sol\":6119:6123  self */\n      dup5\n        /* \"package/contracts/utils/BytesUtils.sol\":6125:6131  offset */\n      dup5\n        /* \"package/contracts/utils/BytesUtils.sol\":6133:6138  other */\n      dup5\n        /* \"package/contracts/utils/BytesUtils.sol\":6140:6141  0 */\n      0x00\n        /* \"package/contracts/utils/BytesUtils.sol\":6143:6148  other */\n      dup7\n        /* \"package/contracts/utils/BytesUtils.sol\":6143:6155  other.length */\n      mload\n        /* \"package/contracts/utils/BytesUtils.sol\":6112:6118  equals */\n      tag_204\n        /* \"package/contracts/utils/BytesUtils.sol\":6112:6156  equals(self, offset, other, 0, other.length) */\n      jump\t// in\n    tag_332:\n        /* \"package/contracts/utils/BytesUtils.sol\":6072:6156  self.length == offset + other.length && equals(self, offset, other, 0, other.length) */\n    tag_331:\n        /* \"package/contracts/utils/BytesUtils.sol\":6065:6156  return self.length == offset + other.length && equals(self, offset, other, 0, other.length) */\n      swap1\n      pop\n        /* \"package/contracts/utils/BytesUtils.sol\":5959:6161  function equals(bytes memory self, uint256 offset, bytes memory other) internal pure returns (bool) {... */\n      swap4\n      swap3\n      pop\n      pop\n      pop\n      jump\t// out\n        /* \"package/contracts/utils/BytesUtils.sol\":4751:4987  function equals(... */\n    tag_204:\n        /* \"package/contracts/utils/BytesUtils.sol\":4903:4907  bool */\n      0x00\n        /* \"package/contracts/utils/BytesUtils.sol\":4951:4982  keccak(other, otherOffset, len) */\n      tag_334\n        /* \"package/contracts/utils/BytesUtils.sol\":4958:4963  other */\n      dup5\n        /* \"package/contracts/utils/BytesUtils.sol\":4965:4976  otherOffset */\n      dup5\n        /* \"package/contracts/utils/BytesUtils.sol\":4978:4981  len */\n      dup5\n        /* \"package/contracts/utils/BytesUtils.sol\":4951:4957  keccak */\n      tag_77\n        /* \"package/contracts/utils/BytesUtils.sol\":4951:4982  keccak(other, otherOffset, len) */\n      jump\t// in\n    tag_334:\n        /* \"package/contracts/utils/BytesUtils.sol\":4922:4947  keccak(self, offset, len) */\n      tag_335\n        /* \"package/contracts/utils/BytesUtils.sol\":4929:4933  self */\n      dup8\n        /* \"package/contracts/utils/BytesUtils.sol\":4935:4941  offset */\n      dup8\n        /* \"package/contracts/utils/BytesUtils.sol\":4943:4946  len */\n      dup6\n        /* \"package/contracts/utils/BytesUtils.sol\":4922:4928  keccak */\n      tag_77\n        /* \"package/contracts/utils/BytesUtils.sol\":4922:4947  keccak(self, offset, len) */\n      jump\t// in\n    tag_335:\n        /* \"package/contracts/utils/BytesUtils.sol\":4922:4982  keccak(self, offset, len) == keccak(other, otherOffset, len) */\n      eq\n        /* \"package/contracts/utils/BytesUtils.sol\":4915:4982  return keccak(self, offset, len) == keccak(other, otherOffset, len) */\n      swap1\n      pop\n        /* \"package/contracts/utils/BytesUtils.sol\":4751:4987  function equals(... */\n      swap6\n      swap5\n      pop\n      pop\n      pop\n      pop\n      pop\n      jump\t// out\n        /* \"package/contracts/utils/BytesUtils.sol\":5359:5618  function equals(... */\n    tag_209:\n        /* \"package/contracts/utils/BytesUtils.sol\":5494:5498  bool */\n      0x00\n        /* \"package/contracts/utils/BytesUtils.sol\":5559:5613  keccak(other, otherOffset, other.length - otherOffset) */\n      tag_337\n        /* \"package/contracts/utils/BytesUtils.sol\":5566:5571  other */\n      dup4\n        /* \"package/contracts/utils/BytesUtils.sol\":5573:5584  otherOffset */\n      dup4\n        /* \"package/contracts/utils/BytesUtils.sol\":5601:5612  otherOffset */\n      dup5\n        /* \"package/contracts/utils/BytesUtils.sol\":5586:5591  other */\n      dup7\n        /* \"package/contracts/utils/BytesUtils.sol\":5586:5598  other.length */\n      mload\n        /* \"package/contracts/utils/BytesUtils.sol\":5586:5612  other.length - otherOffset */\n      tag_338\n      swap2\n      swap1\n      tag_264\n      jump\t// in\n    tag_338:\n        /* \"package/contracts/utils/BytesUtils.sol\":5559:5565  keccak */\n      tag_77\n        /* \"package/contracts/utils/BytesUtils.sol\":5559:5613  keccak(other, otherOffset, other.length - otherOffset) */\n      jump\t// in\n    tag_337:\n        /* \"package/contracts/utils/BytesUtils.sol\":5513:5555  keccak(self, offset, self.length - offset) */\n      tag_339\n        /* \"package/contracts/utils/BytesUtils.sol\":5520:5524  self */\n      dup7\n        /* \"package/contracts/utils/BytesUtils.sol\":5526:5532  offset */\n      dup7\n        /* \"package/contracts/utils/BytesUtils.sol\":5548:5554  offset */\n      dup8\n        /* \"package/contracts/utils/BytesUtils.sol\":5534:5538  self */\n      dup10\n        /* \"package/contracts/utils/BytesUtils.sol\":5534:5545  self.length */\n      mload\n        /* \"package/contracts/utils/BytesUtils.sol\":5534:5554  self.length - offset */\n      tag_340\n      swap2\n      swap1\n      tag_264\n      jump\t// in\n    tag_340:\n        /* \"package/contracts/utils/BytesUtils.sol\":5513:5519  keccak */\n      tag_77\n        /* \"package/contracts/utils/BytesUtils.sol\":5513:5555  keccak(self, offset, self.length - offset) */\n      jump\t// in\n    tag_339:\n        /* \"package/contracts/utils/BytesUtils.sol\":5513:5613  keccak(self, offset, self.length - offset) == keccak(other, otherOffset, other.length - otherOffset) */\n      eq\n        /* \"package/contracts/utils/BytesUtils.sol\":5506:5613  return keccak(self, offset, self.length - offset) == keccak(other, otherOffset, other.length - otherOffset) */\n      swap1\n      pop\n        /* \"package/contracts/utils/BytesUtils.sol\":5359:5618  function equals(... */\n      swap5\n      swap4\n      pop\n      pop\n      pop\n      pop\n      jump\t// out\n        /* \"package/contracts/utils/BytesUtils.sol\":8018:8215  function readBytes32(bytes memory self, uint256 idx) internal pure returns (bytes32 ret) {... */\n    tag_218:\n        /* \"package/contracts/utils/BytesUtils.sol\":8094:8105  bytes32 ret */\n      0x00\n        /* \"package/contracts/utils/BytesUtils.sol\":8133:8137  self */\n      dup3\n        /* \"package/contracts/utils/BytesUtils.sol\":8133:8144  self.length */\n      mload\n        /* \"package/contracts/utils/BytesUtils.sol\":8127:8129  32 */\n      0x20\n        /* \"package/contracts/utils/BytesUtils.sol\":8121:8124  idx */\n      dup4\n        /* \"package/contracts/utils/BytesUtils.sol\":8121:8129  idx + 32 */\n      tag_342\n      swap2\n      swap1\n      tag_230\n      jump\t// in\n    tag_342:\n        /* \"package/contracts/utils/BytesUtils.sol\":8121:8144  idx + 32 <= self.length */\n      gt\n      iszero\n        /* \"package/contracts/utils/BytesUtils.sol\":8113:8145  require(idx + 32 <= self.length) */\n      tag_343\n      jumpi\n      0x00\n      dup1\n      revert\n    tag_343:\n        /* \"package/contracts/utils/BytesUtils.sol\":8200:8203  idx */\n      dup2\n        /* \"package/contracts/utils/BytesUtils.sol\":8195:8197  32 */\n      0x20\n        /* \"package/contracts/utils/BytesUtils.sol\":8189:8193  self */\n      dup5\n        /* \"package/contracts/utils/BytesUtils.sol\":8185:8198  add(self, 32) */\n      add\n        /* \"package/contracts/utils/BytesUtils.sol\":8181:8204  add(add(self, 32), idx) */\n      add\n        /* \"package/contracts/utils/BytesUtils.sol\":8175:8205  mload(add(add(self, 32), idx)) */\n      mload\n        /* \"package/contracts/utils/BytesUtils.sol\":8168:8205  ret := mload(add(add(self, 32), idx)) */\n      swap1\n      pop\n        /* \"package/contracts/utils/BytesUtils.sol\":8018:8215  function readBytes32(bytes memory self, uint256 idx) internal pure returns (bytes32 ret) {... */\n      swap3\n      swap2\n      pop\n      pop\n      jump\t// out\n        /* \"package/contracts/utils/BytesUtils.sol\":7158:7364  function readUint16(bytes memory self, uint256 idx) internal pure returns (uint16 ret) {... */\n    tag_224:\n        /* \"package/contracts/utils/BytesUtils.sol\":7233:7243  uint16 ret */\n      0x00\n        /* \"package/contracts/utils/BytesUtils.sol\":7270:7274  self */\n      dup3\n        /* \"package/contracts/utils/BytesUtils.sol\":7270:7281  self.length */\n      mload\n        /* \"package/contracts/utils/BytesUtils.sol\":7265:7266  2 */\n      0x02\n        /* \"package/contracts/utils/BytesUtils.sol\":7259:7262  idx */\n      dup4\n        /* \"package/contracts/utils/BytesUtils.sol\":7259:7266  idx + 2 */\n      tag_345\n      swap2\n      swap1\n      tag_230\n      jump\t// in\n    tag_345:\n        /* \"package/contracts/utils/BytesUtils.sol\":7259:7281  idx + 2 <= self.length */\n      gt\n      iszero\n        /* \"package/contracts/utils/BytesUtils.sol\":7251:7282  require(idx + 2 <= self.length) */\n      tag_346\n      jumpi\n      0x00\n      dup1\n      revert\n    tag_346:\n        /* \"package/contracts/utils/BytesUtils.sol\":7347:7353  0xFFFF */\n      0xffff\n        /* \"package/contracts/utils/BytesUtils.sol\":7340:7343  idx */\n      dup3\n        /* \"package/contracts/utils/BytesUtils.sol\":7336:7337  2 */\n      0x02\n        /* \"package/contracts/utils/BytesUtils.sol\":7330:7334  self */\n      dup6\n        /* \"package/contracts/utils/BytesUtils.sol\":7326:7338  add(self, 2) */\n      add\n        /* \"package/contracts/utils/BytesUtils.sol\":7322:7344  add(add(self, 2), idx) */\n      add\n        /* \"package/contracts/utils/BytesUtils.sol\":7316:7345  mload(add(add(self, 2), idx)) */\n      mload\n        /* \"package/contracts/utils/BytesUtils.sol\":7312:7354  and(mload(add(add(self, 2), idx)), 0xFFFF) */\n      and\n        /* \"package/contracts/utils/BytesUtils.sol\":7305:7354  ret := and(mload(add(add(self, 2), idx)), 0xFFFF) */\n      swap1\n      pop\n        /* \"package/contracts/utils/BytesUtils.sol\":7158:7364  function readUint16(bytes memory self, uint256 idx) internal pure returns (uint16 ret) {... */\n      swap3\n      swap2\n      pop\n      pop\n      jump\t// out\n        /* \"package/contracts/utils/BytesUtils.sol\":9243:9760  function memcpy(uint256 dest, uint256 src, uint256 len) private pure {... */\n    tag_240:\n        /* \"package/contracts/utils/BytesUtils.sol\":9364:9493  for (; len >= 32; len -= 32) {... */\n    tag_348:\n        /* \"package/contracts/utils/BytesUtils.sol\":9378:9380  32 */\n      0x20\n        /* \"package/contracts/utils/BytesUtils.sol\":9371:9374  len */\n      dup2\n        /* \"package/contracts/utils/BytesUtils.sol\":9371:9380  len >= 32 */\n      lt\n        /* \"package/contracts/utils/BytesUtils.sol\":9364:9493  for (; len >= 32; len -= 32) {... */\n      tag_349\n      jumpi\n        /* \"package/contracts/utils/BytesUtils.sol\":9439:9442  src */\n      dup2\n        /* \"package/contracts/utils/BytesUtils.sol\":9433:9443  mload(src) */\n      mload\n        /* \"package/contracts/utils/BytesUtils.sol\":9427:9431  dest */\n      dup4\n        /* \"package/contracts/utils/BytesUtils.sol\":9420:9444  mstore(dest, mload(src)) */\n      mstore\n        /* \"package/contracts/utils/BytesUtils.sol\":9467:9469  32 */\n      0x20\n        /* \"package/contracts/utils/BytesUtils.sol\":9459:9469  dest += 32 */\n      dup4\n      tag_351\n      swap2\n      swap1\n      tag_230\n      jump\t// in\n    tag_351:\n      swap3\n      pop\n        /* \"package/contracts/utils/BytesUtils.sol\":9484:9486  32 */\n      0x20\n        /* \"package/contracts/utils/BytesUtils.sol\":9477:9486  src += 32 */\n      dup3\n      tag_352\n      swap2\n      swap1\n      tag_230\n      jump\t// in\n    tag_352:\n      swap2\n      pop\n        /* \"package/contracts/utils/BytesUtils.sol\":9389:9391  32 */\n      0x20\n        /* \"package/contracts/utils/BytesUtils.sol\":9382:9391  len -= 32 */\n      dup2\n      tag_353\n      swap2\n      swap1\n      tag_264\n      jump\t// in\n    tag_353:\n      swap1\n      pop\n        /* \"package/contracts/utils/BytesUtils.sol\":9364:9493  for (; len >= 32; len -= 32) {... */\n      jump(tag_348)\n    tag_349:\n        /* \"package/contracts/utils/BytesUtils.sol\":9545:9557  uint256 mask */\n      0x00\n        /* \"package/contracts/utils/BytesUtils.sol\":9582:9583  1 */\n      0x01\n        /* \"package/contracts/utils/BytesUtils.sol\":9574:9577  len */\n      dup3\n        /* \"package/contracts/utils/BytesUtils.sol\":9569:9571  32 */\n      0x20\n        /* \"package/contracts/utils/BytesUtils.sol\":9569:9577  32 - len */\n      sub\n        /* \"package/contracts/utils/BytesUtils.sol\":9561:9564  256 */\n      0x0100\n        /* \"package/contracts/utils/BytesUtils.sol\":9561:9578  256 ** (32 - len) */\n      exp\n        /* \"package/contracts/utils/BytesUtils.sol\":9560:9583  (256 ** (32 - len)) - 1 */\n      sub\n        /* \"package/contracts/utils/BytesUtils.sol\":9545:9583  uint256 mask = (256 ** (32 - len)) - 1 */\n      swap1\n      pop\n        /* \"package/contracts/utils/BytesUtils.sol\":9645:9649  mask */\n      dup1\n        /* \"package/contracts/utils/BytesUtils.sol\":9641:9650  not(mask) */\n      not\n        /* \"package/contracts/utils/BytesUtils.sol\":9635:9638  src */\n      dup4\n        /* \"package/contracts/utils/BytesUtils.sol\":9629:9639  mload(src) */\n      mload\n        /* \"package/contracts/utils/BytesUtils.sol\":9625:9651  and(mload(src), not(mask)) */\n      and\n        /* \"package/contracts/utils/BytesUtils.sol\":9693:9697  mask */\n      dup2\n        /* \"package/contracts/utils/BytesUtils.sol\":9686:9690  dest */\n      dup6\n        /* \"package/contracts/utils/BytesUtils.sol\":9680:9691  mload(dest) */\n      mload\n        /* \"package/contracts/utils/BytesUtils.sol\":9676:9698  and(mload(dest), mask) */\n      and\n        /* \"package/contracts/utils/BytesUtils.sol\":9733:9740  srcpart */\n      dup2\n        /* \"package/contracts/utils/BytesUtils.sol\":9723:9731  destpart */\n      dup2\n        /* \"package/contracts/utils/BytesUtils.sol\":9720:9741  or(destpart, srcpart) */\n      or\n        /* \"package/contracts/utils/BytesUtils.sol\":9714:9718  dest */\n      dup7\n        /* \"package/contracts/utils/BytesUtils.sol\":9707:9742  mstore(dest, or(destpart, srcpart)) */\n      mstore\n        /* \"package/contracts/utils/BytesUtils.sol\":9600:9750  {... */\n      pop\n      pop\n      pop\n        /* \"package/contracts/utils/BytesUtils.sol\":9243:9760  function memcpy(uint256 dest, uint256 src, uint256 len) private pure {... */\n      pop\n      pop\n      pop\n      jump\t// out\n        /* \"#utility.yul\":7:176   */\n    tag_354:\n        /* \"#utility.yul\":91:102   */\n      0x00\n        /* \"#utility.yul\":125:131   */\n      dup3\n        /* \"#utility.yul\":120:123   */\n      dup3\n        /* \"#utility.yul\":113:132   */\n      mstore\n        /* \"#utility.yul\":165:169   */\n      0x20\n        /* \"#utility.yul\":160:163   */\n      dup3\n        /* \"#utility.yul\":156:170   */\n      add\n        /* \"#utility.yul\":141:170   */\n      swap1\n      pop\n        /* \"#utility.yul\":7:176   */\n      swap3\n      swap2\n      pop\n      pop\n      jump\t// out\n        /* \"#utility.yul\":182:343   */\n    tag_355:\n        /* \"#utility.yul\":322:335   */\n      0x7265616442797465733230000000000000000000000000000000000000000000\n        /* \"#utility.yul\":318:319   */\n      0x00\n        /* \"#utility.yul\":310:316   */\n      dup3\n        /* \"#utility.yul\":306:320   */\n      add\n        /* \"#utility.yul\":299:336   */\n      mstore\n        /* \"#utility.yul\":182:343   */\n      pop\n      jump\t// out\n        /* \"#utility.yul\":349:715   */\n    tag_356:\n        /* \"#utility.yul\":491:494   */\n      0x00\n        /* \"#utility.yul\":512:579   */\n      tag_441\n        /* \"#utility.yul\":576:578   */\n      0x0b\n        /* \"#utility.yul\":571:574   */\n      dup4\n        /* \"#utility.yul\":512:579   */\n      tag_354\n      jump\t// in\n    tag_441:\n        /* \"#utility.yul\":505:579   */\n      swap2\n      pop\n        /* \"#utility.yul\":588:681   */\n      tag_442\n        /* \"#utility.yul\":677:680   */\n      dup3\n        /* \"#utility.yul\":588:681   */\n      tag_355\n      jump\t// in\n    tag_442:\n        /* \"#utility.yul\":706:708   */\n      0x20\n        /* \"#utility.yul\":701:704   */\n      dup3\n        /* \"#utility.yul\":697:709   */\n      add\n        /* \"#utility.yul\":690:709   */\n      swap1\n      pop\n        /* \"#utility.yul\":349:715   */\n      swap2\n      swap1\n      pop\n      jump\t// out\n        /* \"#utility.yul\":721:1140   */\n    tag_42:\n        /* \"#utility.yul\":887:891   */\n      0x00\n        /* \"#utility.yul\":925:927   */\n      0x20\n        /* \"#utility.yul\":914:923   */\n      dup3\n        /* \"#utility.yul\":910:928   */\n      add\n        /* \"#utility.yul\":902:928   */\n      swap1\n      pop\n        /* \"#utility.yul\":974:983   */\n      dup2\n        /* \"#utility.yul\":968:972   */\n      dup2\n        /* \"#utility.yul\":964:984   */\n      sub\n        /* \"#utility.yul\":960:961   */\n      0x00\n        /* \"#utility.yul\":949:958   */\n      dup4\n        /* \"#utility.yul\":945:962   */\n      add\n        /* \"#utility.yul\":938:985   */\n      mstore\n        /* \"#utility.yul\":1002:1133   */\n      tag_444\n        /* \"#utility.yul\":1128:1132   */\n      dup2\n        /* \"#utility.yul\":1002:1133   */\n      tag_356\n      jump\t// in\n    tag_444:\n        /* \"#utility.yul\":994:1133   */\n      swap1\n      pop\n        /* \"#utility.yul\":721:1140   */\n      swap2\n      swap1\n      pop\n      jump\t// out\n        /* \"#utility.yul\":1146:1308   */\n    tag_357:\n        /* \"#utility.yul\":1286:1300   */\n      0x436f707920302062797465730000000000000000000000000000000000000000\n        /* \"#utility.yul\":1282:1283   */\n      0x00\n        /* \"#utility.yul\":1274:1280   */\n      dup3\n        /* \"#utility.yul\":1270:1284   */\n      add\n        /* \"#utility.yul\":1263:1301   */\n      mstore\n        /* \"#utility.yul\":1146:1308   */\n      pop\n      jump\t// out\n        /* \"#utility.yul\":1314:1680   */\n    tag_358:\n        /* \"#utility.yul\":1456:1459   */\n      0x00\n        /* \"#utility.yul\":1477:1544   */\n      tag_447\n        /* \"#utility.yul\":1541:1543   */\n      0x0c\n        /* \"#utility.yul\":1536:1539   */\n      dup4\n        /* \"#utility.yul\":1477:1544   */\n      tag_354\n      jump\t// in\n    tag_447:\n        /* \"#utility.yul\":1470:1544   */\n      swap2\n      pop\n        /* \"#utility.yul\":1553:1646   */\n      tag_448\n        /* \"#utility.yul\":1642:1645   */\n      dup3\n        /* \"#utility.yul\":1553:1646   */\n      tag_357\n      jump\t// in\n    tag_448:\n        /* \"#utility.yul\":1671:1673   */\n      0x20\n        /* \"#utility.yul\":1666:1669   */\n      dup3\n        /* \"#utility.yul\":1662:1674   */\n      add\n        /* \"#utility.yul\":1655:1674   */\n      swap1\n      pop\n        /* \"#utility.yul\":1314:1680   */\n      swap2\n      swap1\n      pop\n      jump\t// out\n        /* \"#utility.yul\":1686:2105   */\n    tag_48:\n        /* \"#utility.yul\":1852:1856   */\n      0x00\n        /* \"#utility.yul\":1890:1892   */\n      0x20\n        /* \"#utility.yul\":1879:1888   */\n      dup3\n        /* \"#utility.yul\":1875:1893   */\n      add\n        /* \"#utility.yul\":1867:1893   */\n      swap1\n      pop\n        /* \"#utility.yul\":1939:1948   */\n      dup2\n        /* \"#utility.yul\":1933:1937   */\n      dup2\n        /* \"#utility.yul\":1929:1949   */\n      sub\n        /* \"#utility.yul\":1925:1926   */\n      0x00\n        /* \"#utility.yul\":1914:1923   */\n      dup4\n        /* \"#utility.yul\":1910:1927   */\n      add\n        /* \"#utility.yul\":1903:1950   */\n      mstore\n        /* \"#utility.yul\":1967:2098   */\n      tag_450\n        /* \"#utility.yul\":2093:2097   */\n      dup2\n        /* \"#utility.yul\":1967:2098   */\n      tag_358\n      jump\t// in\n    tag_450:\n        /* \"#utility.yul\":1959:2098   */\n      swap1\n      pop\n        /* \"#utility.yul\":1686:2105   */\n      swap2\n      swap1\n      pop\n      jump\t// out\n        /* \"#utility.yul\":2111:2275   */\n    tag_359:\n        /* \"#utility.yul\":2251:2267   */\n      0x436f707920737562737472696e67000000000000000000000000000000000000\n        /* \"#utility.yul\":2247:2248   */\n      0x00\n        /* \"#utility.yul\":2239:2245   */\n      dup3\n        /* \"#utility.yul\":2235:2249   */\n      add\n        /* \"#utility.yul\":2228:2268   */\n      mstore\n        /* \"#utility.yul\":2111:2275   */\n      pop\n      jump\t// out\n        /* \"#utility.yul\":2281:2647   */\n    tag_360:\n        /* \"#utility.yul\":2423:2426   */\n      0x00\n        /* \"#utility.yul\":2444:2511   */\n      tag_453\n        /* \"#utility.yul\":2508:2510   */\n      0x0e\n        /* \"#utility.yul\":2503:2506   */\n      dup4\n        /* \"#utility.yul\":2444:2511   */\n      tag_354\n      jump\t// in\n    tag_453:\n        /* \"#utility.yul\":2437:2511   */\n      swap2\n      pop\n        /* \"#utility.yul\":2520:2613   */\n      tag_454\n        /* \"#utility.yul\":2609:2612   */\n      dup3\n        /* \"#utility.yul\":2520:2613   */\n      tag_359\n      jump\t// in\n    tag_454:\n        /* \"#utility.yul\":2638:2640   */\n      0x20\n        /* \"#utility.yul\":2633:2636   */\n      dup3\n        /* \"#utility.yul\":2629:2641   */\n      add\n        /* \"#utility.yul\":2622:2641   */\n      swap1\n      pop\n        /* \"#utility.yul\":2281:2647   */\n      swap2\n      swap1\n      pop\n      jump\t// out\n        /* \"#utility.yul\":2653:3072   */\n    tag_52:\n        /* \"#utility.yul\":2819:2823   */\n      0x00\n        /* \"#utility.yul\":2857:2859   */\n      0x20\n        /* \"#utility.yul\":2846:2855   */\n      dup3\n        /* \"#utility.yul\":2842:2860   */\n      add\n        /* \"#utility.yul\":2834:2860   */\n      swap1\n      pop\n        /* \"#utility.yul\":2906:2915   */\n      dup2\n        /* \"#utility.yul\":2900:2904   */\n      dup2\n        /* \"#utility.yul\":2896:2916   */\n      sub\n        /* \"#utility.yul\":2892:2893   */\n      0x00\n        /* \"#utility.yul\":2881:2890   */\n      dup4\n        /* \"#utility.yul\":2877:2894   */\n      add\n        /* \"#utility.yul\":2870:2917   */\n      mstore\n        /* \"#utility.yul\":2934:3065   */\n      tag_456\n        /* \"#utility.yul\":3060:3064   */\n      dup2\n        /* \"#utility.yul\":2934:3065   */\n      tag_360\n      jump\t// in\n    tag_456:\n        /* \"#utility.yul\":2926:3065   */\n      swap1\n      pop\n        /* \"#utility.yul\":2653:3072   */\n      swap2\n      swap1\n      pop\n      jump\t// out\n        /* \"#utility.yul\":3078:3245   */\n    tag_361:\n        /* \"#utility.yul\":3218:3237   */\n      0x436f70792077686f6c6520737472696e67000000000000000000000000000000\n        /* \"#utility.yul\":3214:3215   */\n      0x00\n        /* \"#utility.yul\":3206:3212   */\n      dup3\n        /* \"#utility.yul\":3202:3216   */\n      add\n        /* \"#utility.yul\":3195:3238   */\n      mstore\n        /* \"#utility.yul\":3078:3245   */\n      pop\n      jump\t// out\n        /* \"#utility.yul\":3251:3617   */\n    tag_362:\n        /* \"#utility.yul\":3393:3396   */\n      0x00\n        /* \"#utility.yul\":3414:3481   */\n      tag_459\n        /* \"#utility.yul\":3478:3480   */\n      0x11\n        /* \"#utility.yul\":3473:3476   */\n      dup4\n        /* \"#utility.yul\":3414:3481   */\n      tag_354\n      jump\t// in\n    tag_459:\n        /* \"#utility.yul\":3407:3481   */\n      swap2\n      pop\n        /* \"#utility.yul\":3490:3583   */\n      tag_460\n        /* \"#utility.yul\":3579:3582   */\n      dup3\n        /* \"#utility.yul\":3490:3583   */\n      tag_361\n      jump\t// in\n    tag_460:\n        /* \"#utility.yul\":3608:3610   */\n      0x20\n        /* \"#utility.yul\":3603:3606   */\n      dup3\n        /* \"#utility.yul\":3599:3611   */\n      add\n        /* \"#utility.yul\":3592:3611   */\n      swap1\n      pop\n        /* \"#utility.yul\":3251:3617   */\n      swap2\n      swap1\n      pop\n      jump\t// out\n        /* \"#utility.yul\":3623:4042   */\n    tag_59:\n        /* \"#utility.yul\":3789:3793   */\n      0x00\n        /* \"#utility.yul\":3827:3829   */\n      0x20\n        /* \"#utility.yul\":3816:3825   */\n      dup3\n        /* \"#utility.yul\":3812:3830   */\n      add\n        /* \"#utility.yul\":3804:3830   */\n      swap1\n      pop\n        /* \"#utility.yul\":3876:3885   */\n      dup2\n        /* \"#utility.yul\":3870:3874   */\n      dup2\n        /* \"#utility.yul\":3866:3886   */\n      sub\n        /* \"#utility.yul\":3862:3863   */\n      0x00\n        /* \"#utility.yul\":3851:3860   */\n      dup4\n        /* \"#utility.yul\":3847:3864   */\n      add\n        /* \"#utility.yul\":3840:3887   */\n      mstore\n        /* \"#utility.yul\":3904:4035   */\n      tag_462\n        /* \"#utility.yul\":4030:4034   */\n      dup2\n        /* \"#utility.yul\":3904:4035   */\n      tag_362\n      jump\t// in\n    tag_462:\n        /* \"#utility.yul\":3896:4035   */\n      swap1\n      pop\n        /* \"#utility.yul\":3623:4042   */\n      swap2\n      swap1\n      pop\n      jump\t// out\n        /* \"#utility.yul\":4048:4210   */\n    tag_363:\n        /* \"#utility.yul\":4188:4202   */\n      0x526561642075696e742033320000000000000000000000000000000000000000\n        /* \"#utility.yul\":4184:4185   */\n      0x00\n        /* \"#utility.yul\":4176:4182   */\n      dup3\n        /* \"#utility.yul\":4172:4186   */\n      add\n        /* \"#utility.yul\":4165:4203   */\n      mstore\n        /* \"#utility.yul\":4048:4210   */\n      pop\n      jump\t// out\n        /* \"#utility.yul\":4216:4582   */\n    tag_364:\n        /* \"#utility.yul\":4358:4361   */\n      0x00\n        /* \"#utility.yul\":4379:4446   */\n      tag_465\n        /* \"#utility.yul\":4443:4445   */\n      0x0c\n        /* \"#utility.yul\":4438:4441   */\n      dup4\n        /* \"#utility.yul\":4379:4446   */\n      tag_354\n      jump\t// in\n    tag_465:\n        /* \"#utility.yul\":4372:4446   */\n      swap2\n      pop\n        /* \"#utility.yul\":4455:4548   */\n      tag_466\n        /* \"#utility.yul\":4544:4547   */\n      dup3\n        /* \"#utility.yul\":4455:4548   */\n      tag_363\n      jump\t// in\n    tag_466:\n        /* \"#utility.yul\":4573:4575   */\n      0x20\n        /* \"#utility.yul\":4568:4571   */\n      dup3\n        /* \"#utility.yul\":4564:4576   */\n      add\n        /* \"#utility.yul\":4557:4576   */\n      swap1\n      pop\n        /* \"#utility.yul\":4216:4582   */\n      swap2\n      swap1\n      pop\n      jump\t// out\n        /* \"#utility.yul\":4588:5007   */\n    tag_65:\n        /* \"#utility.yul\":4754:4758   */\n      0x00\n        /* \"#utility.yul\":4792:4794   */\n      0x20\n        /* \"#utility.yul\":4781:4790   */\n      dup3\n        /* \"#utility.yul\":4777:4795   */\n      add\n        /* \"#utility.yul\":4769:4795   */\n      swap1\n      pop\n        /* \"#utility.yul\":4841:4850   */\n      dup2\n        /* \"#utility.yul\":4835:4839   */\n      dup2\n        /* \"#utility.yul\":4831:4851   */\n      sub\n        /* \"#utility.yul\":4827:4828   */\n      0x00\n        /* \"#utility.yul\":4816:4825   */\n      dup4\n        /* \"#utility.yul\":4812:4829   */\n      add\n        /* \"#utility.yul\":4805:4852   */\n      mstore\n        /* \"#utility.yul\":4869:5000   */\n      tag_468\n        /* \"#utility.yul\":4995:4999   */\n      dup2\n        /* \"#utility.yul\":4869:5000   */\n      tag_364\n      jump\t// in\n    tag_468:\n        /* \"#utility.yul\":4861:5000   */\n      swap1\n      pop\n        /* \"#utility.yul\":4588:5007   */\n      swap2\n      swap1\n      pop\n      jump\t// out\n        /* \"#utility.yul\":5013:5172   */\n    tag_365:\n        /* \"#utility.yul\":5153:5164   */\n      0x61203d3d20307836310000000000000000000000000000000000000000000000\n        /* \"#utility.yul\":5149:5150   */\n      0x00\n        /* \"#utility.yul\":5141:5147   */\n      dup3\n        /* \"#utility.yul\":5137:5151   */\n      add\n        /* \"#utility.yul\":5130:5165   */\n      mstore\n        /* \"#utility.yul\":5013:5172   */\n      pop\n      jump\t// out\n        /* \"#utility.yul\":5178:5543   */\n    tag_366:\n        /* \"#utility.yul\":5320:5323   */\n      0x00\n        /* \"#utility.yul\":5341:5407   */\n      tag_471\n        /* \"#utility.yul\":5405:5406   */\n      0x09\n        /* \"#utility.yul\":5400:5403   */\n      dup4\n        /* \"#utility.yul\":5341:5407   */\n      tag_354\n      jump\t// in\n    tag_471:\n        /* \"#utility.yul\":5334:5407   */\n      swap2\n      pop\n        /* \"#utility.yul\":5416:5509   */\n      tag_472\n        /* \"#utility.yul\":5505:5508   */\n      dup3\n        /* \"#utility.yul\":5416:5509   */\n      tag_365\n      jump\t// in\n    tag_472:\n        /* \"#utility.yul\":5534:5536   */\n      0x20\n        /* \"#utility.yul\":5529:5532   */\n      dup3\n        /* \"#utility.yul\":5525:5537   */\n      add\n        /* \"#utility.yul\":5518:5537   */\n      swap1\n      pop\n        /* \"#utility.yul\":5178:5543   */\n      swap2\n      swap1\n      pop\n      jump\t// out\n        /* \"#utility.yul\":5549:5968   */\n    tag_71:\n        /* \"#utility.yul\":5715:5719   */\n      0x00\n        /* \"#utility.yul\":5753:5755   */\n      0x20\n        /* \"#utility.yul\":5742:5751   */\n      dup3\n        /* \"#utility.yul\":5738:5756   */\n      add\n        /* \"#utility.yul\":5730:5756   */\n      swap1\n      pop\n        /* \"#utility.yul\":5802:5811   */\n      dup2\n        /* \"#utility.yul\":5796:5800   */\n      dup2\n        /* \"#utility.yul\":5792:5812   */\n      sub\n        /* \"#utility.yul\":5788:5789   */\n      0x00\n        /* \"#utility.yul\":5777:5786   */\n      dup4\n        /* \"#utility.yul\":5773:5790   */\n      add\n        /* \"#utility.yul\":5766:5813   */\n      mstore\n        /* \"#utility.yul\":5830:5961   */\n      tag_474\n        /* \"#utility.yul\":5956:5960   */\n      dup2\n        /* \"#utility.yul\":5830:5961   */\n      tag_366\n      jump\t// in\n    tag_474:\n        /* \"#utility.yul\":5822:5961   */\n      swap1\n      pop\n        /* \"#utility.yul\":5549:5968   */\n      swap2\n      swap1\n      pop\n      jump\t// out\n        /* \"#utility.yul\":5974:6154   */\n    tag_367:\n        /* \"#utility.yul\":6114:6146   */\n      0x496e636f72726563742068617368206f6620656d70747920737472696e670000\n        /* \"#utility.yul\":6110:6111   */\n      0x00\n        /* \"#utility.yul\":6102:6108   */\n      dup3\n        /* \"#utility.yul\":6098:6112   */\n      add\n        /* \"#utility.yul\":6091:6147   */\n      mstore\n        /* \"#utility.yul\":5974:6154   */\n      pop\n      jump\t// out\n        /* \"#utility.yul\":6160:6526   */\n    tag_368:\n        /* \"#utility.yul\":6302:6305   */\n      0x00\n        /* \"#utility.yul\":6323:6390   */\n      tag_477\n        /* \"#utility.yul\":6387:6389   */\n      0x1e\n        /* \"#utility.yul\":6382:6385   */\n      dup4\n        /* \"#utility.yul\":6323:6390   */\n      tag_354\n      jump\t// in\n    tag_477:\n        /* \"#utility.yul\":6316:6390   */\n      swap2\n      pop\n        /* \"#utility.yul\":6399:6492   */\n      tag_478\n        /* \"#utility.yul\":6488:6491   */\n      dup3\n        /* \"#utility.yul\":6399:6492   */\n      tag_367\n      jump\t// in\n    tag_478:\n        /* \"#utility.yul\":6517:6519   */\n      0x20\n        /* \"#utility.yul\":6512:6515   */\n      dup3\n        /* \"#utility.yul\":6508:6520   */\n      add\n        /* \"#utility.yul\":6501:6520   */\n      swap1\n      pop\n        /* \"#utility.yul\":6160:6526   */\n      swap2\n      swap1\n      pop\n      jump\t// out\n        /* \"#utility.yul\":6532:6951   */\n    tag_80:\n        /* \"#utility.yul\":6698:6702   */\n      0x00\n        /* \"#utility.yul\":6736:6738   */\n      0x20\n        /* \"#utility.yul\":6725:6734   */\n      dup3\n        /* \"#utility.yul\":6721:6739   */\n      add\n        /* \"#utility.yul\":6713:6739   */\n      swap1\n      pop\n        /* \"#utility.yul\":6785:6794   */\n      dup2\n        /* \"#utility.yul\":6779:6783   */\n      dup2\n        /* \"#utility.yul\":6775:6795   */\n      sub\n        /* \"#utility.yul\":6771:6772   */\n      0x00\n        /* \"#utility.yul\":6760:6769   */\n      dup4\n        /* \"#utility.yul\":6756:6773   */\n      add\n        /* \"#utility.yul\":6749:6796   */\n      mstore\n        /* \"#utility.yul\":6813:6944   */\n      tag_480\n        /* \"#utility.yul\":6939:6943   */\n      dup2\n        /* \"#utility.yul\":6813:6944   */\n      tag_368\n      jump\t// in\n    tag_480:\n        /* \"#utility.yul\":6805:6944   */\n      swap1\n      pop\n        /* \"#utility.yul\":6532:6951   */\n      swap2\n      swap1\n      pop\n      jump\t// out\n        /* \"#utility.yul\":6957:7130   */\n    tag_369:\n        /* \"#utility.yul\":7097:7122   */\n      0x496e636f72726563742068617368206f662027666f6f27000000000000000000\n        /* \"#utility.yul\":7093:7094   */\n      0x00\n        /* \"#utility.yul\":7085:7091   */\n      dup3\n        /* \"#utility.yul\":7081:7095   */\n      add\n        /* \"#utility.yul\":7074:7123   */\n      mstore\n        /* \"#utility.yul\":6957:7130   */\n      pop\n      jump\t// out\n        /* \"#utility.yul\":7136:7502   */\n    tag_370:\n        /* \"#utility.yul\":7278:7281   */\n      0x00\n        /* \"#utility.yul\":7299:7366   */\n      tag_483\n        /* \"#utility.yul\":7363:7365   */\n      0x17\n        /* \"#utility.yul\":7358:7361   */\n      dup4\n        /* \"#utility.yul\":7299:7366   */\n      tag_354\n      jump\t// in\n    tag_483:\n        /* \"#utility.yul\":7292:7366   */\n      swap2\n      pop\n        /* \"#utility.yul\":7375:7468   */\n      tag_484\n        /* \"#utility.yul\":7464:7467   */\n      dup3\n        /* \"#utility.yul\":7375:7468   */\n      tag_369\n      jump\t// in\n    tag_484:\n        /* \"#utility.yul\":7493:7495   */\n      0x20\n        /* \"#utility.yul\":7488:7491   */\n      dup3\n        /* \"#utility.yul\":7484:7496   */\n      add\n        /* \"#utility.yul\":7477:7496   */\n      swap1\n      pop\n        /* \"#utility.yul\":7136:7502   */\n      swap2\n      swap1\n      pop\n      jump\t// out\n        /* \"#utility.yul\":7508:7927   */\n    tag_84:\n        /* \"#utility.yul\":7674:7678   */\n      0x00\n        /* \"#utility.yul\":7712:7714   */\n      0x20\n        /* \"#utility.yul\":7701:7710   */\n      dup3\n        /* \"#utility.yul\":7697:7715   */\n      add\n        /* \"#utility.yul\":7689:7715   */\n      swap1\n      pop\n        /* \"#utility.yul\":7761:7770   */\n      dup2\n        /* \"#utility.yul\":7755:7759   */\n      dup2\n        /* \"#utility.yul\":7751:7771   */\n      sub\n        /* \"#utility.yul\":7747:7748   */\n      0x00\n        /* \"#utility.yul\":7736:7745   */\n      dup4\n        /* \"#utility.yul\":7732:7749   */\n      add\n        /* \"#utility.yul\":7725:7772   */\n      mstore\n        /* \"#utility.yul\":7789:7920   */\n      tag_486\n        /* \"#utility.yul\":7915:7919   */\n      dup2\n        /* \"#utility.yul\":7789:7920   */\n      tag_370\n      jump\t// in\n    tag_486:\n        /* \"#utility.yul\":7781:7920   */\n      swap1\n      pop\n        /* \"#utility.yul\":7508:7927   */\n      swap2\n      swap1\n      pop\n      jump\t// out\n        /* \"#utility.yul\":7933:8096   */\n    tag_371:\n        /* \"#utility.yul\":8073:8088   */\n      0x436f6d7061726520657175616c00000000000000000000000000000000000000\n        /* \"#utility.yul\":8069:8070   */\n      0x00\n        /* \"#utility.yul\":8061:8067   */\n      dup3\n        /* \"#utility.yul\":8057:8071   */\n      add\n        /* \"#utility.yul\":8050:8089   */\n      mstore\n        /* \"#utility.yul\":7933:8096   */\n      pop\n      jump\t// out\n        /* \"#utility.yul\":8102:8468   */\n    tag_372:\n        /* \"#utility.yul\":8244:8247   */\n      0x00\n        /* \"#utility.yul\":8265:8332   */\n      tag_489\n        /* \"#utility.yul\":8329:8331   */\n      0x0d\n        /* \"#utility.yul\":8324:8327   */\n      dup4\n        /* \"#utility.yul\":8265:8332   */\n      tag_354\n      jump\t// in\n    tag_489:\n        /* \"#utility.yul\":8258:8332   */\n      swap2\n      pop\n        /* \"#utility.yul\":8341:8434   */\n      tag_490\n        /* \"#utility.yul\":8430:8433   */\n      dup3\n        /* \"#utility.yul\":8341:8434   */\n      tag_371\n      jump\t// in\n    tag_490:\n        /* \"#utility.yul\":8459:8461   */\n      0x20\n        /* \"#utility.yul\":8454:8457   */\n      dup3\n        /* \"#utility.yul\":8450:8462   */\n      add\n        /* \"#utility.yul\":8443:8462   */\n      swap1\n      pop\n        /* \"#utility.yul\":8102:8468   */\n      swap2\n      swap1\n      pop\n      jump\t// out\n        /* \"#utility.yul\":8474:8893   */\n    tag_93:\n        /* \"#utility.yul\":8640:8644   */\n      0x00\n        /* \"#utility.yul\":8678:8680   */\n      0x20\n        /* \"#utility.yul\":8667:8676   */\n      dup3\n        /* \"#utility.yul\":8663:8681   */\n      add\n        /* \"#utility.yul\":8655:8681   */\n      swap1\n      pop\n        /* \"#utility.yul\":8727:8736   */\n      dup2\n        /* \"#utility.yul\":8721:8725   */\n      dup2\n        /* \"#utility.yul\":8717:8737   */\n      sub\n        /* \"#utility.yul\":8713:8714   */\n      0x00\n        /* \"#utility.yul\":8702:8711   */\n      dup4\n        /* \"#utility.yul\":8698:8715   */\n      add\n        /* \"#utility.yul\":8691:8738   */\n      mstore\n        /* \"#utility.yul\":8755:8886   */\n      tag_492\n        /* \"#utility.yul\":8881:8885   */\n      dup2\n        /* \"#utility.yul\":8755:8886   */\n      tag_372\n      jump\t// in\n    tag_492:\n        /* \"#utility.yul\":8747:8886   */\n      swap1\n      pop\n        /* \"#utility.yul\":8474:8893   */\n      swap2\n      swap1\n      pop\n      jump\t// out\n        /* \"#utility.yul\":8899:9126   */\n    tag_373:\n        /* \"#utility.yul\":9039:9073   */\n      0x436f6d7061726520646966666572656e742076616c756520776974682073616d\n        /* \"#utility.yul\":9035:9036   */\n      0x00\n        /* \"#utility.yul\":9027:9033   */\n      dup3\n        /* \"#utility.yul\":9023:9037   */\n      add\n        /* \"#utility.yul\":9016:9074   */\n      mstore\n        /* \"#utility.yul\":9108:9118   */\n      0x65206c656e677468000000000000000000000000000000000000000000000000\n        /* \"#utility.yul\":9103:9105   */\n      0x20\n        /* \"#utility.yul\":9095:9101   */\n      dup3\n        /* \"#utility.yul\":9091:9106   */\n      add\n        /* \"#utility.yul\":9084:9119   */\n      mstore\n        /* \"#utility.yul\":8899:9126   */\n      pop\n      jump\t// out\n        /* \"#utility.yul\":9132:9498   */\n    tag_374:\n        /* \"#utility.yul\":9274:9277   */\n      0x00\n        /* \"#utility.yul\":9295:9362   */\n      tag_495\n        /* \"#utility.yul\":9359:9361   */\n      0x28\n        /* \"#utility.yul\":9354:9357   */\n      dup4\n        /* \"#utility.yul\":9295:9362   */\n      tag_354\n      jump\t// in\n    tag_495:\n        /* \"#utility.yul\":9288:9362   */\n      swap2\n      pop\n        /* \"#utility.yul\":9371:9464   */\n      tag_496\n        /* \"#utility.yul\":9460:9463   */\n      dup3\n        /* \"#utility.yul\":9371:9464   */\n      tag_373\n      jump\t// in\n    tag_496:\n        /* \"#utility.yul\":9489:9491   */\n      0x40\n        /* \"#utility.yul\":9484:9487   */\n      dup3\n        /* \"#utility.yul\":9480:9492   */\n      add\n        /* \"#utility.yul\":9473:9492   */\n      swap1\n      pop\n        /* \"#utility.yul\":9132:9498   */\n      swap2\n      swap1\n      pop\n      jump\t// out\n        /* \"#utility.yul\":9504:9923   */\n    tag_97:\n        /* \"#utility.yul\":9670:9674   */\n      0x00\n        /* \"#utility.yul\":9708:9710   */\n      0x20\n        /* \"#utility.yul\":9697:9706   */\n      dup3\n        /* \"#utility.yul\":9693:9711   */\n      add\n        /* \"#utility.yul\":9685:9711   */\n      swap1\n      pop\n        /* \"#utility.yul\":9757:9766   */\n      dup2\n        /* \"#utility.yul\":9751:9755   */\n      dup2\n        /* \"#utility.yul\":9747:9767   */\n      sub\n        /* \"#utility.yul\":9743:9744   */\n      0x00\n        /* \"#utility.yul\":9732:9741   */\n      dup4\n        /* \"#utility.yul\":9728:9745   */\n      add\n        /* \"#utility.yul\":9721:9768   */\n      mstore\n        /* \"#utility.yul\":9785:9916   */\n      tag_498\n        /* \"#utility.yul\":9911:9915   */\n      dup2\n        /* \"#utility.yul\":9785:9916   */\n      tag_374\n      jump\t// in\n    tag_498:\n        /* \"#utility.yul\":9777:9916   */\n      swap1\n      pop\n        /* \"#utility.yul\":9504:9923   */\n      swap2\n      swap1\n      pop\n      jump\t// out\n        /* \"#utility.yul\":9929:10160   */\n    tag_375:\n        /* \"#utility.yul\":10069:10103   */\n      0x436f6d7061726520646966666572656e742076616c75652077697468206d756c\n        /* \"#utility.yul\":10065:10066   */\n      0x00\n        /* \"#utility.yul\":10057:10063   */\n      dup3\n        /* \"#utility.yul\":10053:10067   */\n      add\n        /* \"#utility.yul\":10046:10104   */\n      mstore\n        /* \"#utility.yul\":10138:10152   */\n      0x7469706c65206c656e6774680000000000000000000000000000000000000000\n        /* \"#utility.yul\":10133:10135   */\n      0x20\n        /* \"#utility.yul\":10125:10131   */\n      dup3\n        /* \"#utility.yul\":10121:10136   */\n      add\n        /* \"#utility.yul\":10114:10153   */\n      mstore\n        /* \"#utility.yul\":9929:10160   */\n      pop\n      jump\t// out\n        /* \"#utility.yul\":10166:10532   */\n    tag_376:\n        /* \"#utility.yul\":10308:10311   */\n      0x00\n        /* \"#utility.yul\":10329:10396   */\n      tag_501\n        /* \"#utility.yul\":10393:10395   */\n      0x2c\n        /* \"#utility.yul\":10388:10391   */\n      dup4\n        /* \"#utility.yul\":10329:10396   */\n      tag_354\n      jump\t// in\n    tag_501:\n        /* \"#utility.yul\":10322:10396   */\n      swap2\n      pop\n        /* \"#utility.yul\":10405:10498   */\n      tag_502\n        /* \"#utility.yul\":10494:10497   */\n      dup3\n        /* \"#utility.yul\":10405:10498   */\n      tag_375\n      jump\t// in\n    tag_502:\n        /* \"#utility.yul\":10523:10525   */\n      0x40\n        /* \"#utility.yul\":10518:10521   */\n      dup3\n        /* \"#utility.yul\":10514:10526   */\n      add\n        /* \"#utility.yul\":10507:10526   */\n      swap1\n      pop\n        /* \"#utility.yul\":10166:10532   */\n      swap2\n      swap1\n      pop\n      jump\t// out\n        /* \"#utility.yul\":10538:10957   */\n    tag_104:\n        /* \"#utility.yul\":10704:10708   */\n      0x00\n        /* \"#utility.yul\":10742:10744   */\n      0x20\n        /* \"#utility.yul\":10731:10740   */\n      dup3\n        /* \"#utility.yul\":10727:10745   */\n      add\n        /* \"#utility.yul\":10719:10745   */\n      swap1\n      pop\n        /* \"#utility.yul\":10791:10800   */\n      dup2\n        /* \"#utility.yul\":10785:10789   */\n      dup2\n        /* \"#utility.yul\":10781:10801   */\n      sub\n        /* \"#utility.yul\":10777:10778   */\n      0x00\n        /* \"#utility.yul\":10766:10775   */\n      dup4\n        /* \"#utility.yul\":10762:10779   */\n      add\n        /* \"#utility.yul\":10755:10802   */\n      mstore\n        /* \"#utility.yul\":10819:10950   */\n      tag_504\n        /* \"#utility.yul\":10945:10949   */\n      dup2\n        /* \"#utility.yul\":10819:10950   */\n      tag_376\n      jump\t// in\n    tag_504:\n        /* \"#utility.yul\":10811:10950   */\n      swap1\n      pop\n        /* \"#utility.yul\":10538:10957   */\n      swap2\n      swap1\n      pop\n      jump\t// out\n        /* \"#utility.yul\":10963:11195   */\n    tag_377:\n        /* \"#utility.yul\":11103:11137   */\n      0x436f6d7061726520646966666572656e742076616c7565207769746820646966\n        /* \"#utility.yul\":11099:11100   */\n      0x00\n        /* \"#utility.yul\":11091:11097   */\n      dup3\n        /* \"#utility.yul\":11087:11101   */\n      add\n        /* \"#utility.yul\":11080:11138   */\n      mstore\n        /* \"#utility.yul\":11172:11187   */\n      0x666572656e74206c656e67746800000000000000000000000000000000000000\n        /* \"#utility.yul\":11167:11169   */\n      0x20\n        /* \"#utility.yul\":11159:11165   */\n      dup3\n        /* \"#utility.yul\":11155:11170   */\n      add\n        /* \"#utility.yul\":11148:11188   */\n      mstore\n        /* \"#utility.yul\":10963:11195   */\n      pop\n      jump\t// out\n        /* \"#utility.yul\":11201:11567   */\n    tag_378:\n        /* \"#utility.yul\":11343:11346   */\n      0x00\n        /* \"#utility.yul\":11364:11431   */\n      tag_507\n        /* \"#utility.yul\":11428:11430   */\n      0x2d\n        /* \"#utility.yul\":11423:11426   */\n      dup4\n        /* \"#utility.yul\":11364:11431   */\n      tag_354\n      jump\t// in\n    tag_507:\n        /* \"#utility.yul\":11357:11431   */\n      swap2\n      pop\n        /* \"#utility.yul\":11440:11533   */\n      tag_508\n        /* \"#utility.yul\":11529:11532   */\n      dup3\n        /* \"#utility.yul\":11440:11533   */\n      tag_377\n      jump\t// in\n    tag_508:\n        /* \"#utility.yul\":11558:11560   */\n      0x40\n        /* \"#utility.yul\":11553:11556   */\n      dup3\n        /* \"#utility.yul\":11549:11561   */\n      add\n        /* \"#utility.yul\":11542:11561   */\n      swap1\n      pop\n        /* \"#utility.yul\":11201:11567   */\n      swap2\n      swap1\n      pop\n      jump\t// out\n        /* \"#utility.yul\":11573:11992   */\n    tag_108:\n        /* \"#utility.yul\":11739:11743   */\n      0x00\n        /* \"#utility.yul\":11777:11779   */\n      0x20\n        /* \"#utility.yul\":11766:11775   */\n      dup3\n        /* \"#utility.yul\":11762:11780   */\n      add\n        /* \"#utility.yul\":11754:11780   */\n      swap1\n      pop\n        /* \"#utility.yul\":11826:11835   */\n      dup2\n        /* \"#utility.yul\":11820:11824   */\n      dup2\n        /* \"#utility.yul\":11816:11836   */\n      sub\n        /* \"#utility.yul\":11812:11813   */\n      0x00\n        /* \"#utility.yul\":11801:11810   */\n      dup4\n        /* \"#utility.yul\":11797:11814   */\n      add\n        /* \"#utility.yul\":11790:11837   */\n      mstore\n        /* \"#utility.yul\":11854:11985   */\n      tag_510\n        /* \"#utility.yul\":11980:11984   */\n      dup2\n        /* \"#utility.yul\":11854:11985   */\n      tag_378\n      jump\t// in\n    tag_510:\n        /* \"#utility.yul\":11846:11985   */\n      swap1\n      pop\n        /* \"#utility.yul\":11573:11992   */\n      swap2\n      swap1\n      pop\n      jump\t// out\n        /* \"#utility.yul\":11998:12180   */\n    tag_379:\n        /* \"#utility.yul\":12138:12172   */\n      0x436f6d7061726573206d6f7265207468616e2033322062797465732063686172\n        /* \"#utility.yul\":12134:12135   */\n      0x00\n        /* \"#utility.yul\":12126:12132   */\n      dup3\n        /* \"#utility.yul\":12122:12136   */\n      add\n        /* \"#utility.yul\":12115:12173   */\n      mstore\n        /* \"#utility.yul\":11998:12180   */\n      pop\n      jump\t// out\n        /* \"#utility.yul\":12186:12552   */\n    tag_380:\n        /* \"#utility.yul\":12328:12331   */\n      0x00\n        /* \"#utility.yul\":12349:12416   */\n      tag_513\n        /* \"#utility.yul\":12413:12415   */\n      0x20\n        /* \"#utility.yul\":12408:12411   */\n      dup4\n        /* \"#utility.yul\":12349:12416   */\n      tag_354\n      jump\t// in\n    tag_513:\n        /* \"#utility.yul\":12342:12416   */\n      swap2\n      pop\n        /* \"#utility.yul\":12425:12518   */\n      tag_514\n        /* \"#utility.yul\":12514:12517   */\n      dup3\n        /* \"#utility.yul\":12425:12518   */\n      tag_379\n      jump\t// in\n    tag_514:\n        /* \"#utility.yul\":12543:12545   */\n      0x20\n        /* \"#utility.yul\":12538:12541   */\n      dup3\n        /* \"#utility.yul\":12534:12546   */\n      add\n        /* \"#utility.yul\":12527:12546   */\n      swap1\n      pop\n        /* \"#utility.yul\":12186:12552   */\n      swap2\n      swap1\n      pop\n      jump\t// out\n        /* \"#utility.yul\":12558:12977   */\n    tag_115:\n        /* \"#utility.yul\":12724:12728   */\n      0x00\n        /* \"#utility.yul\":12762:12764   */\n      0x20\n        /* \"#utility.yul\":12751:12760   */\n      dup3\n        /* \"#utility.yul\":12747:12765   */\n      add\n        /* \"#utility.yul\":12739:12765   */\n      swap1\n      pop\n        /* \"#utility.yul\":12811:12820   */\n      dup2\n        /* \"#utility.yul\":12805:12809   */\n      dup2\n        /* \"#utility.yul\":12801:12821   */\n      sub\n        /* \"#utility.yul\":12797:12798   */\n      0x00\n        /* \"#utility.yul\":12786:12795   */\n      dup4\n        /* \"#utility.yul\":12782:12799   */\n      add\n        /* \"#utility.yul\":12775:12822   */\n      mstore\n        /* \"#utility.yul\":12839:12970   */\n      tag_516\n        /* \"#utility.yul\":12965:12969   */\n      dup2\n        /* \"#utility.yul\":12839:12970   */\n      tag_380\n      jump\t// in\n    tag_516:\n        /* \"#utility.yul\":12831:12970   */\n      swap1\n      pop\n        /* \"#utility.yul\":12558:12977   */\n      swap2\n      swap1\n      pop\n      jump\t// out\n        /* \"#utility.yul\":12983:13212   */\n    tag_381:\n        /* \"#utility.yul\":13123:13157   */\n      0x436f6d70617265206c6f6e672063686172207769746820646966666572656e63\n        /* \"#utility.yul\":13119:13120   */\n      0x00\n        /* \"#utility.yul\":13111:13117   */\n      dup3\n        /* \"#utility.yul\":13107:13121   */\n      add\n        /* \"#utility.yul\":13100:13158   */\n      mstore\n        /* \"#utility.yul\":13192:13204   */\n      0x6520617420737461727400000000000000000000000000000000000000000000\n        /* \"#utility.yul\":13187:13189   */\n      0x20\n        /* \"#utility.yul\":13179:13185   */\n      dup3\n        /* \"#utility.yul\":13175:13190   */\n      add\n        /* \"#utility.yul\":13168:13205   */\n      mstore\n        /* \"#utility.yul\":12983:13212   */\n      pop\n      jump\t// out\n        /* \"#utility.yul\":13218:13584   */\n    tag_382:\n        /* \"#utility.yul\":13360:13363   */\n      0x00\n        /* \"#utility.yul\":13381:13448   */\n      tag_519\n        /* \"#utility.yul\":13445:13447   */\n      0x2a\n        /* \"#utility.yul\":13440:13443   */\n      dup4\n        /* \"#utility.yul\":13381:13448   */\n      tag_354\n      jump\t// in\n    tag_519:\n        /* \"#utility.yul\":13374:13448   */\n      swap2\n      pop\n        /* \"#utility.yul\":13457:13550   */\n      tag_520\n        /* \"#utility.yul\":13546:13549   */\n      dup3\n        /* \"#utility.yul\":13457:13550   */\n      tag_381\n      jump\t// in\n    tag_520:\n        /* \"#utility.yul\":13575:13577   */\n      0x40\n        /* \"#utility.yul\":13570:13573   */\n      dup3\n        /* \"#utility.yul\":13566:13578   */\n      add\n        /* \"#utility.yul\":13559:13578   */\n      swap1\n      pop\n        /* \"#utility.yul\":13218:13584   */\n      swap2\n      swap1\n      pop\n      jump\t// out\n        /* \"#utility.yul\":13590:14009   */\n    tag_119:\n        /* \"#utility.yul\":13756:13760   */\n      0x00\n        /* \"#utility.yul\":13794:13796   */\n      0x20\n        /* \"#utility.yul\":13783:13792   */\n      dup3\n        /* \"#utility.yul\":13779:13797   */\n      add\n        /* \"#utility.yul\":13771:13797   */\n      swap1\n      pop\n        /* \"#utility.yul\":13843:13852   */\n      dup2\n        /* \"#utility.yul\":13837:13841   */\n      dup2\n        /* \"#utility.yul\":13833:13853   */\n      sub\n        /* \"#utility.yul\":13829:13830   */\n      0x00\n        /* \"#utility.yul\":13818:13827   */\n      dup4\n        /* \"#utility.yul\":13814:13831   */\n      add\n        /* \"#utility.yul\":13807:13854   */\n      mstore\n        /* \"#utility.yul\":13871:14002   */\n      tag_522\n        /* \"#utility.yul\":13997:14001   */\n      dup2\n        /* \"#utility.yul\":13871:14002   */\n      tag_382\n      jump\t// in\n    tag_522:\n        /* \"#utility.yul\":13863:14002   */\n      swap1\n      pop\n        /* \"#utility.yul\":13590:14009   */\n      swap2\n      swap1\n      pop\n      jump\t// out\n        /* \"#utility.yul\":14015:14175   */\n    tag_383:\n        /* \"#utility.yul\":14155:14167   */\n      0x4465636f64652027612700000000000000000000000000000000000000000000\n        /* \"#utility.yul\":14151:14152   */\n      0x00\n        /* \"#utility.yul\":14143:14149   */\n      dup3\n        /* \"#utility.yul\":14139:14153   */\n      add\n        /* \"#utility.yul\":14132:14168   */\n      mstore\n        /* \"#utility.yul\":14015:14175   */\n      pop\n      jump\t// out\n        /* \"#utility.yul\":14181:14547   */\n    tag_384:\n        /* \"#utility.yul\":14323:14326   */\n      0x00\n        /* \"#utility.yul\":14344:14411   */\n      tag_525\n        /* \"#utility.yul\":14408:14410   */\n      0x0a\n        /* \"#utility.yul\":14403:14406   */\n      dup4\n        /* \"#utility.yul\":14344:14411   */\n      tag_354\n      jump\t// in\n    tag_525:\n        /* \"#utility.yul\":14337:14411   */\n      swap2\n      pop\n        /* \"#utility.yul\":14420:14513   */\n      tag_526\n        /* \"#utility.yul\":14509:14512   */\n      dup3\n        /* \"#utility.yul\":14420:14513   */\n      tag_383\n      jump\t// in\n    tag_526:\n        /* \"#utility.yul\":14538:14540   */\n      0x20\n        /* \"#utility.yul\":14533:14536   */\n      dup3\n        /* \"#utility.yul\":14529:14541   */\n      add\n        /* \"#utility.yul\":14522:14541   */\n      swap1\n      pop\n        /* \"#utility.yul\":14181:14547   */\n      swap2\n      swap1\n      pop\n      jump\t// out\n        /* \"#utility.yul\":14553:14972   */\n    tag_125:\n        /* \"#utility.yul\":14719:14723   */\n      0x00\n        /* \"#utility.yul\":14757:14759   */\n      0x20\n        /* \"#utility.yul\":14746:14755   */\n      dup3\n        /* \"#utility.yul\":14742:14760   */\n      add\n        /* \"#utility.yul\":14734:14760   */\n      swap1\n      pop\n        /* \"#utility.yul\":14806:14815   */\n      dup2\n        /* \"#utility.yul\":14800:14804   */\n      dup2\n        /* \"#utility.yul\":14796:14816   */\n      sub\n        /* \"#utility.yul\":14792:14793   */\n      0x00\n        /* \"#utility.yul\":14781:14790   */\n      dup4\n        /* \"#utility.yul\":14777:14794   */\n      add\n        /* \"#utility.yul\":14770:14817   */\n      mstore\n        /* \"#utility.yul\":14834:14965   */\n      tag_528\n        /* \"#utility.yul\":14960:14964   */\n      dup2\n        /* \"#utility.yul\":14834:14965   */\n      tag_384\n      jump\t// in\n    tag_528:\n        /* \"#utility.yul\":14826:14965   */\n      swap1\n      pop\n        /* \"#utility.yul\":14553:14972   */\n      swap2\n      swap1\n      pop\n      jump\t// out\n        /* \"#utility.yul\":14978:15139   */\n    tag_385:\n        /* \"#utility.yul\":15118:15131   */\n      0x4465636f64652027616127000000000000000000000000000000000000000000\n        /* \"#utility.yul\":15114:15115   */\n      0x00\n        /* \"#utility.yul\":15106:15112   */\n      dup3\n        /* \"#utility.yul\":15102:15116   */\n      add\n        /* \"#utility.yul\":15095:15132   */\n      mstore\n        /* \"#utility.yul\":14978:15139   */\n      pop\n      jump\t// out\n        /* \"#utility.yul\":15145:15511   */\n    tag_386:\n        /* \"#utility.yul\":15287:15290   */\n      0x00\n        /* \"#utility.yul\":15308:15375   */\n      tag_531\n        /* \"#utility.yul\":15372:15374   */\n      0x0b\n        /* \"#utility.yul\":15367:15370   */\n      dup4\n        /* \"#utility.yul\":15308:15375   */\n      tag_354\n      jump\t// in\n    tag_531:\n        /* \"#utility.yul\":15301:15375   */\n      swap2\n      pop\n        /* \"#utility.yul\":15384:15477   */\n      tag_532\n        /* \"#utility.yul\":15473:15476   */\n      dup3\n        /* \"#utility.yul\":15384:15477   */\n      tag_385\n      jump\t// in\n    tag_532:\n        /* \"#utility.yul\":15502:15504   */\n      0x20\n        /* \"#utility.yul\":15497:15500   */\n      dup3\n        /* \"#utility.yul\":15493:15505   */\n      add\n        /* \"#utility.yul\":15486:15505   */\n      swap1\n      pop\n        /* \"#utility.yul\":15145:15511   */\n      swap2\n      swap1\n      pop\n      jump\t// out\n        /* \"#utility.yul\":15517:15936   */\n    tag_129:\n        /* \"#utility.yul\":15683:15687   */\n      0x00\n        /* \"#utility.yul\":15721:15723   */\n      0x20\n        /* \"#utility.yul\":15710:15719   */\n      dup3\n        /* \"#utility.yul\":15706:15724   */\n      add\n        /* \"#utility.yul\":15698:15724   */\n      swap1\n      pop\n        /* \"#utility.yul\":15770:15779   */\n      dup2\n        /* \"#utility.yul\":15764:15768   */\n      dup2\n        /* \"#utility.yul\":15760:15780   */\n      sub\n        /* \"#utility.yul\":15756:15757   */\n      0x00\n        /* \"#utility.yul\":15745:15754   */\n      dup4\n        /* \"#utility.yul\":15741:15758   */\n      add\n        /* \"#utility.yul\":15734:15781   */\n      mstore\n        /* \"#utility.yul\":15798:15929   */\n      tag_534\n        /* \"#utility.yul\":15924:15928   */\n      dup2\n        /* \"#utility.yul\":15798:15929   */\n      tag_386\n      jump\t// in\n    tag_534:\n        /* \"#utility.yul\":15790:15929   */\n      swap1\n      pop\n        /* \"#utility.yul\":15517:15936   */\n      swap2\n      swap1\n      pop\n      jump\t// out\n        /* \"#utility.yul\":15942:16104   */\n    tag_387:\n        /* \"#utility.yul\":16082:16096   */\n      0x4465636f64652027616161270000000000000000000000000000000000000000\n        /* \"#utility.yul\":16078:16079   */\n      0x00\n        /* \"#utility.yul\":16070:16076   */\n      dup3\n        /* \"#utility.yul\":16066:16080   */\n      add\n        /* \"#utility.yul\":16059:16097   */\n      mstore\n        /* \"#utility.yul\":15942:16104   */\n      pop\n      jump\t// out\n        /* \"#utility.yul\":16110:16476   */\n    tag_388:\n        /* \"#utility.yul\":16252:16255   */\n      0x00\n        /* \"#utility.yul\":16273:16340   */\n      tag_537\n        /* \"#utility.yul\":16337:16339   */\n      0x0c\n        /* \"#utility.yul\":16332:16335   */\n      dup4\n        /* \"#utility.yul\":16273:16340   */\n      tag_354\n      jump\t// in\n    tag_537:\n        /* \"#utility.yul\":16266:16340   */\n      swap2\n      pop\n        /* \"#utility.yul\":16349:16442   */\n      tag_538\n        /* \"#utility.yul\":16438:16441   */\n      dup3\n        /* \"#utility.yul\":16349:16442   */\n      tag_387\n      jump\t// in\n    tag_538:\n        /* \"#utility.yul\":16467:16469   */\n      0x20\n        /* \"#utility.yul\":16462:16465   */\n      dup3\n        /* \"#utility.yul\":16458:16470   */\n      add\n        /* \"#utility.yul\":16451:16470   */\n      swap1\n      pop\n        /* \"#utility.yul\":16110:16476   */\n      swap2\n      swap1\n      pop\n      jump\t// out\n        /* \"#utility.yul\":16482:16901   */\n    tag_133:\n        /* \"#utility.yul\":16648:16652   */\n      0x00\n        /* \"#utility.yul\":16686:16688   */\n      0x20\n        /* \"#utility.yul\":16675:16684   */\n      dup3\n        /* \"#utility.yul\":16671:16689   */\n      add\n        /* \"#utility.yul\":16663:16689   */\n      swap1\n      pop\n        /* \"#utility.yul\":16735:16744   */\n      dup2\n        /* \"#utility.yul\":16729:16733   */\n      dup2\n        /* \"#utility.yul\":16725:16745   */\n      sub\n        /* \"#utility.yul\":16721:16722   */\n      0x00\n        /* \"#utility.yul\":16710:16719   */\n      dup4\n        /* \"#utility.yul\":16706:16723   */\n      add\n        /* \"#utility.yul\":16699:16746   */\n      mstore\n        /* \"#utility.yul\":16763:16894   */\n      tag_540\n        /* \"#utility.yul\":16889:16893   */\n      dup2\n        /* \"#utility.yul\":16763:16894   */\n      tag_388\n      jump\t// in\n    tag_540:\n        /* \"#utility.yul\":16755:16894   */\n      swap1\n      pop\n        /* \"#utility.yul\":16482:16901   */\n      swap2\n      swap1\n      pop\n      jump\t// out\n        /* \"#utility.yul\":16907:17070   */\n    tag_389:\n        /* \"#utility.yul\":17047:17062   */\n      0x4465636f64652027616161612700000000000000000000000000000000000000\n        /* \"#utility.yul\":17043:17044   */\n      0x00\n        /* \"#utility.yul\":17035:17041   */\n      dup3\n        /* \"#utility.yul\":17031:17045   */\n      add\n        /* \"#utility.yul\":17024:17063   */\n      mstore\n        /* \"#utility.yul\":16907:17070   */\n      pop\n      jump\t// out\n        /* \"#utility.yul\":17076:17442   */\n    tag_390:\n        /* \"#utility.yul\":17218:17221   */\n      0x00\n        /* \"#utility.yul\":17239:17306   */\n      tag_543\n        /* \"#utility.yul\":17303:17305   */\n      0x0d\n        /* \"#utility.yul\":17298:17301   */\n      dup4\n        /* \"#utility.yul\":17239:17306   */\n      tag_354\n      jump\t// in\n    tag_543:\n        /* \"#utility.yul\":17232:17306   */\n      swap2\n      pop\n        /* \"#utility.yul\":17315:17408   */\n      tag_544\n        /* \"#utility.yul\":17404:17407   */\n      dup3\n        /* \"#utility.yul\":17315:17408   */\n      tag_389\n      jump\t// in\n    tag_544:\n        /* \"#utility.yul\":17433:17435   */\n      0x20\n        /* \"#utility.yul\":17428:17431   */\n      dup3\n        /* \"#utility.yul\":17424:17436   */\n      add\n        /* \"#utility.yul\":17417:17436   */\n      swap1\n      pop\n        /* \"#utility.yul\":17076:17442   */\n      swap2\n      swap1\n      pop\n      jump\t// out\n        /* \"#utility.yul\":17448:17867   */\n    tag_137:\n        /* \"#utility.yul\":17614:17618   */\n      0x00\n        /* \"#utility.yul\":17652:17654   */\n      0x20\n        /* \"#utility.yul\":17641:17650   */\n      dup3\n        /* \"#utility.yul\":17637:17655   */\n      add\n        /* \"#utility.yul\":17629:17655   */\n      swap1\n      pop\n        /* \"#utility.yul\":17701:17710   */\n      dup2\n        /* \"#utility.yul\":17695:17699   */\n      dup2\n        /* \"#utility.yul\":17691:17711   */\n      sub\n        /* \"#utility.yul\":17687:17688   */\n      0x00\n        /* \"#utility.yul\":17676:17685   */\n      dup4\n        /* \"#utility.yul\":17672:17689   */\n      add\n        /* \"#utility.yul\":17665:17712   */\n      mstore\n        /* \"#utility.yul\":17729:17860   */\n      tag_546\n        /* \"#utility.yul\":17855:17859   */\n      dup2\n        /* \"#utility.yul\":17729:17860   */\n      tag_390\n      jump\t// in\n    tag_546:\n        /* \"#utility.yul\":17721:17860   */\n      swap1\n      pop\n        /* \"#utility.yul\":17448:17867   */\n      swap2\n      swap1\n      pop\n      jump\t// out\n        /* \"#utility.yul\":17873:18037   */\n    tag_391:\n        /* \"#utility.yul\":18013:18029   */\n      0x4465636f64652027616161616127000000000000000000000000000000000000\n        /* \"#utility.yul\":18009:18010   */\n      0x00\n        /* \"#utility.yul\":18001:18007   */\n      dup3\n        /* \"#utility.yul\":17997:18011   */\n      add\n        /* \"#utility.yul\":17990:18030   */\n      mstore\n        /* \"#utility.yul\":17873:18037   */\n      pop\n      jump\t// out\n        /* \"#utility.yul\":18043:18409   */\n    tag_392:\n        /* \"#utility.yul\":18185:18188   */\n      0x00\n        /* \"#utility.yul\":18206:18273   */\n      tag_549\n        /* \"#utility.yul\":18270:18272   */\n      0x0e\n        /* \"#utility.yul\":18265:18268   */\n      dup4\n        /* \"#utility.yul\":18206:18273   */\n      tag_354\n      jump\t// in\n    tag_549:\n        /* \"#utility.yul\":18199:18273   */\n      swap2\n      pop\n        /* \"#utility.yul\":18282:18375   */\n      tag_550\n        /* \"#utility.yul\":18371:18374   */\n      dup3\n        /* \"#utility.yul\":18282:18375   */\n      tag_391\n      jump\t// in\n    tag_550:\n        /* \"#utility.yul\":18400:18402   */\n      0x20\n        /* \"#utility.yul\":18395:18398   */\n      dup3\n        /* \"#utility.yul\":18391:18403   */\n      add\n        /* \"#utility.yul\":18384:18403   */\n      swap1\n      pop\n        /* \"#utility.yul\":18043:18409   */\n      swap2\n      swap1\n      pop\n      jump\t// out\n        /* \"#utility.yul\":18415:18834   */\n    tag_141:\n        /* \"#utility.yul\":18581:18585   */\n      0x00\n        /* \"#utility.yul\":18619:18621   */\n      0x20\n        /* \"#utility.yul\":18608:18617   */\n      dup3\n        /* \"#utility.yul\":18604:18622   */\n      add\n        /* \"#utility.yul\":18596:18622   */\n      swap1\n      pop\n        /* \"#utility.yul\":18668:18677   */\n      dup2\n        /* \"#utility.yul\":18662:18666   */\n      dup2\n        /* \"#utility.yul\":18658:18678   */\n      sub\n        /* \"#utility.yul\":18654:18655   */\n      0x00\n        /* \"#utility.yul\":18643:18652   */\n      dup4\n        /* \"#utility.yul\":18639:18656   */\n      add\n        /* \"#utility.yul\":18632:18679   */\n      mstore\n        /* \"#utility.yul\":18696:18827   */\n      tag_552\n        /* \"#utility.yul\":18822:18826   */\n      dup2\n        /* \"#utility.yul\":18696:18827   */\n      tag_392\n      jump\t// in\n    tag_552:\n        /* \"#utility.yul\":18688:18827   */\n      swap1\n      pop\n        /* \"#utility.yul\":18415:18834   */\n      swap2\n      swap1\n      pop\n      jump\t// out\n        /* \"#utility.yul\":18840:19014   */\n    tag_393:\n        /* \"#utility.yul\":18980:19006   */\n      0x4465636f64652027616161616127206c6f776572636173650000000000000000\n        /* \"#utility.yul\":18976:18977   */\n      0x00\n        /* \"#utility.yul\":18968:18974   */\n      dup3\n        /* \"#utility.yul\":18964:18978   */\n      add\n        /* \"#utility.yul\":18957:19007   */\n      mstore\n        /* \"#utility.yul\":18840:19014   */\n      pop\n      jump\t// out\n        /* \"#utility.yul\":19020:19386   */\n    tag_394:\n        /* \"#utility.yul\":19162:19165   */\n      0x00\n        /* \"#utility.yul\":19183:19250   */\n      tag_555\n        /* \"#utility.yul\":19247:19249   */\n      0x18\n        /* \"#utility.yul\":19242:19245   */\n      dup4\n        /* \"#utility.yul\":19183:19250   */\n      tag_354\n      jump\t// in\n    tag_555:\n        /* \"#utility.yul\":19176:19250   */\n      swap2\n      pop\n        /* \"#utility.yul\":19259:19352   */\n      tag_556\n        /* \"#utility.yul\":19348:19351   */\n      dup3\n        /* \"#utility.yul\":19259:19352   */\n      tag_393\n      jump\t// in\n    tag_556:\n        /* \"#utility.yul\":19377:19379   */\n      0x20\n        /* \"#utility.yul\":19372:19375   */\n      dup3\n        /* \"#utility.yul\":19368:19380   */\n      add\n        /* \"#utility.yul\":19361:19380   */\n      swap1\n      pop\n        /* \"#utility.yul\":19020:19386   */\n      swap2\n      swap1\n      pop\n      jump\t// out\n        /* \"#utility.yul\":19392:19811   */\n    tag_145:\n        /* \"#utility.yul\":19558:19562   */\n      0x00\n        /* \"#utility.yul\":19596:19598   */\n      0x20\n        /* \"#utility.yul\":19585:19594   */\n      dup3\n        /* \"#utility.yul\":19581:19599   */\n      add\n        /* \"#utility.yul\":19573:19599   */\n      swap1\n      pop\n        /* \"#utility.yul\":19645:19654   */\n      dup2\n        /* \"#utility.yul\":19639:19643   */\n      dup2\n        /* \"#utility.yul\":19635:19655   */\n      sub\n        /* \"#utility.yul\":19631:19632   */\n      0x00\n        /* \"#utility.yul\":19620:19629   */\n      dup4\n        /* \"#utility.yul\":19616:19633   */\n      add\n        /* \"#utility.yul\":19609:19656   */\n      mstore\n        /* \"#utility.yul\":19673:19804   */\n      tag_558\n        /* \"#utility.yul\":19799:19803   */\n      dup2\n        /* \"#utility.yul\":19673:19804   */\n      tag_394\n      jump\t// in\n    tag_558:\n        /* \"#utility.yul\":19665:19804   */\n      swap1\n      pop\n        /* \"#utility.yul\":19392:19811   */\n      swap2\n      swap1\n      pop\n      jump\t// out\n        /* \"#utility.yul\":19817:19982   */\n    tag_395:\n        /* \"#utility.yul\":19957:19974   */\n      0x4465636f646520616c7068616265740000000000000000000000000000000000\n        /* \"#utility.yul\":19953:19954   */\n      0x00\n        /* \"#utility.yul\":19945:19951   */\n      dup3\n        /* \"#utility.yul\":19941:19955   */\n      add\n        /* \"#utility.yul\":19934:19975   */\n      mstore\n        /* \"#utility.yul\":19817:19982   */\n      pop\n      jump\t// out\n        /* \"#utility.yul\":19988:20354   */\n    tag_396:\n        /* \"#utility.yul\":20130:20133   */\n      0x00\n        /* \"#utility.yul\":20151:20218   */\n      tag_561\n        /* \"#utility.yul\":20215:20217   */\n      0x0f\n        /* \"#utility.yul\":20210:20213   */\n      dup4\n        /* \"#utility.yul\":20151:20218   */\n      tag_354\n      jump\t// in\n    tag_561:\n        /* \"#utility.yul\":20144:20218   */\n      swap2\n      pop\n        /* \"#utility.yul\":20227:20320   */\n      tag_562\n        /* \"#utility.yul\":20316:20319   */\n      dup3\n        /* \"#utility.yul\":20227:20320   */\n      tag_395\n      jump\t// in\n    tag_562:\n        /* \"#utility.yul\":20345:20347   */\n      0x20\n        /* \"#utility.yul\":20340:20343   */\n      dup3\n        /* \"#utility.yul\":20336:20348   */\n      add\n        /* \"#utility.yul\":20329:20348   */\n      swap1\n      pop\n        /* \"#utility.yul\":19988:20354   */\n      swap2\n      swap1\n      pop\n      jump\t// out\n        /* \"#utility.yul\":20360:20779   */\n    tag_149:\n        /* \"#utility.yul\":20526:20530   */\n      0x00\n        /* \"#utility.yul\":20564:20566   */\n      0x20\n        /* \"#utility.yul\":20553:20562   */\n      dup3\n        /* \"#utility.yul\":20549:20567   */\n      add\n        /* \"#utility.yul\":20541:20567   */\n      swap1\n      pop\n        /* \"#utility.yul\":20613:20622   */\n      dup2\n        /* \"#utility.yul\":20607:20611   */\n      dup2\n        /* \"#utility.yul\":20603:20623   */\n      sub\n        /* \"#utility.yul\":20599:20600   */\n      0x00\n        /* \"#utility.yul\":20588:20597   */\n      dup4\n        /* \"#utility.yul\":20584:20601   */\n      add\n        /* \"#utility.yul\":20577:20624   */\n      mstore\n        /* \"#utility.yul\":20641:20772   */\n      tag_564\n        /* \"#utility.yul\":20767:20771   */\n      dup2\n        /* \"#utility.yul\":20641:20772   */\n      tag_396\n      jump\t// in\n    tag_564:\n        /* \"#utility.yul\":20633:20772   */\n      swap1\n      pop\n        /* \"#utility.yul\":20360:20779   */\n      swap2\n      swap1\n      pop\n      jump\t// out\n        /* \"#utility.yul\":20785:20960   */\n    tag_397:\n        /* \"#utility.yul\":20925:20952   */\n      0x4465636f646520616c706861626574206c6f7765726361736500000000000000\n        /* \"#utility.yul\":20921:20922   */\n      0x00\n        /* \"#utility.yul\":20913:20919   */\n      dup3\n        /* \"#utility.yul\":20909:20923   */\n      add\n        /* \"#utility.yul\":20902:20953   */\n      mstore\n        /* \"#utility.yul\":20785:20960   */\n      pop\n      jump\t// out\n        /* \"#utility.yul\":20966:21332   */\n    tag_398:\n        /* \"#utility.yul\":21108:21111   */\n      0x00\n        /* \"#utility.yul\":21129:21196   */\n      tag_567\n        /* \"#utility.yul\":21193:21195   */\n      0x19\n        /* \"#utility.yul\":21188:21191   */\n      dup4\n        /* \"#utility.yul\":21129:21196   */\n      tag_354\n      jump\t// in\n    tag_567:\n        /* \"#utility.yul\":21122:21196   */\n      swap2\n      pop\n        /* \"#utility.yul\":21205:21298   */\n      tag_568\n        /* \"#utility.yul\":21294:21297   */\n      dup3\n        /* \"#utility.yul\":21205:21298   */\n      tag_397\n      jump\t// in\n    tag_568:\n        /* \"#utility.yul\":21323:21325   */\n      0x20\n        /* \"#utility.yul\":21318:21321   */\n      dup3\n        /* \"#utility.yul\":21314:21326   */\n      add\n        /* \"#utility.yul\":21307:21326   */\n      swap1\n      pop\n        /* \"#utility.yul\":20966:21332   */\n      swap2\n      swap1\n      pop\n      jump\t// out\n        /* \"#utility.yul\":21338:21757   */\n    tag_153:\n        /* \"#utility.yul\":21504:21508   */\n      0x00\n        /* \"#utility.yul\":21542:21544   */\n      0x20\n        /* \"#utility.yul\":21531:21540   */\n      dup3\n        /* \"#utility.yul\":21527:21545   */\n      add\n        /* \"#utility.yul\":21519:21545   */\n      swap1\n      pop\n        /* \"#utility.yul\":21591:21600   */\n      dup2\n        /* \"#utility.yul\":21585:21589   */\n      dup2\n        /* \"#utility.yul\":21581:21601   */\n      sub\n        /* \"#utility.yul\":21577:21578   */\n      0x00\n        /* \"#utility.yul\":21566:21575   */\n      dup4\n        /* \"#utility.yul\":21562:21579   */\n      add\n        /* \"#utility.yul\":21555:21602   */\n      mstore\n        /* \"#utility.yul\":21619:21750   */\n      tag_570\n        /* \"#utility.yul\":21745:21749   */\n      dup2\n        /* \"#utility.yul\":21619:21750   */\n      tag_398\n      jump\t// in\n    tag_570:\n        /* \"#utility.yul\":21611:21750   */\n      swap1\n      pop\n        /* \"#utility.yul\":21338:21757   */\n      swap2\n      swap1\n      pop\n      jump\t// out\n        /* \"#utility.yul\":21763:21926   */\n    tag_399:\n        /* \"#utility.yul\":21903:21918   */\n      0x4465636f64652033322a27612700000000000000000000000000000000000000\n        /* \"#utility.yul\":21899:21900   */\n      0x00\n        /* \"#utility.yul\":21891:21897   */\n      dup3\n        /* \"#utility.yul\":21887:21901   */\n      add\n        /* \"#utility.yul\":21880:21919   */\n      mstore\n        /* \"#utility.yul\":21763:21926   */\n      pop\n      jump\t// out\n        /* \"#utility.yul\":21932:22298   */\n    tag_400:\n        /* \"#utility.yul\":22074:22077   */\n      0x00\n        /* \"#utility.yul\":22095:22162   */\n      tag_573\n        /* \"#utility.yul\":22159:22161   */\n      0x0d\n        /* \"#utility.yul\":22154:22157   */\n      dup4\n        /* \"#utility.yul\":22095:22162   */\n      tag_354\n      jump\t// in\n    tag_573:\n        /* \"#utility.yul\":22088:22162   */\n      swap2\n      pop\n        /* \"#utility.yul\":22171:22264   */\n      tag_574\n        /* \"#utility.yul\":22260:22263   */\n      dup3\n        /* \"#utility.yul\":22171:22264   */\n      tag_399\n      jump\t// in\n    tag_574:\n        /* \"#utility.yul\":22289:22291   */\n      0x20\n        /* \"#utility.yul\":22284:22287   */\n      dup3\n        /* \"#utility.yul\":22280:22292   */\n      add\n        /* \"#utility.yul\":22273:22292   */\n      swap1\n      pop\n        /* \"#utility.yul\":21932:22298   */\n      swap2\n      swap1\n      pop\n      jump\t// out\n        /* \"#utility.yul\":22304:22723   */\n    tag_157:\n        /* \"#utility.yul\":22470:22474   */\n      0x00\n        /* \"#utility.yul\":22508:22510   */\n      0x20\n        /* \"#utility.yul\":22497:22506   */\n      dup3\n        /* \"#utility.yul\":22493:22511   */\n      add\n        /* \"#utility.yul\":22485:22511   */\n      swap1\n      pop\n        /* \"#utility.yul\":22557:22566   */\n      dup2\n        /* \"#utility.yul\":22551:22555   */\n      dup2\n        /* \"#utility.yul\":22547:22567   */\n      sub\n        /* \"#utility.yul\":22543:22544   */\n      0x00\n        /* \"#utility.yul\":22532:22541   */\n      dup4\n        /* \"#utility.yul\":22528:22545   */\n      add\n        /* \"#utility.yul\":22521:22568   */\n      mstore\n        /* \"#utility.yul\":22585:22716   */\n      tag_576\n        /* \"#utility.yul\":22711:22715   */\n      dup2\n        /* \"#utility.yul\":22585:22716   */\n      tag_400\n      jump\t// in\n    tag_576:\n        /* \"#utility.yul\":22577:22716   */\n      swap1\n      pop\n        /* \"#utility.yul\":22304:22723   */\n      swap2\n      swap1\n      pop\n      jump\t// out\n        /* \"#utility.yul\":22729:22901   */\n    tag_401:\n        /* \"#utility.yul\":22869:22893   */\n      0x4465636f6465207265616c206279746573333268657800000000000000000000\n        /* \"#utility.yul\":22865:22866   */\n      0x00\n        /* \"#utility.yul\":22857:22863   */\n      dup3\n        /* \"#utility.yul\":22853:22867   */\n      add\n        /* \"#utility.yul\":22846:22894   */\n      mstore\n        /* \"#utility.yul\":22729:22901   */\n      pop\n      jump\t// out\n        /* \"#utility.yul\":22907:23273   */\n    tag_402:\n        /* \"#utility.yul\":23049:23052   */\n      0x00\n        /* \"#utility.yul\":23070:23137   */\n      tag_579\n        /* \"#utility.yul\":23134:23136   */\n      0x16\n        /* \"#utility.yul\":23129:23132   */\n      dup4\n        /* \"#utility.yul\":23070:23137   */\n      tag_354\n      jump\t// in\n    tag_579:\n        /* \"#utility.yul\":23063:23137   */\n      swap2\n      pop\n        /* \"#utility.yul\":23146:23239   */\n      tag_580\n        /* \"#utility.yul\":23235:23238   */\n      dup3\n        /* \"#utility.yul\":23146:23239   */\n      tag_401\n      jump\t// in\n    tag_580:\n        /* \"#utility.yul\":23264:23266   */\n      0x20\n        /* \"#utility.yul\":23259:23262   */\n      dup3\n        /* \"#utility.yul\":23255:23267   */\n      add\n        /* \"#utility.yul\":23248:23267   */\n      swap1\n      pop\n        /* \"#utility.yul\":22907:23273   */\n      swap2\n      swap1\n      pop\n      jump\t// out\n        /* \"#utility.yul\":23279:23698   */\n    tag_161:\n        /* \"#utility.yul\":23445:23449   */\n      0x00\n        /* \"#utility.yul\":23483:23485   */\n      0x20\n        /* \"#utility.yul\":23472:23481   */\n      dup3\n        /* \"#utility.yul\":23468:23486   */\n      add\n        /* \"#utility.yul\":23460:23486   */\n      swap1\n      pop\n        /* \"#utility.yul\":23532:23541   */\n      dup2\n        /* \"#utility.yul\":23526:23530   */\n      dup2\n        /* \"#utility.yul\":23522:23542   */\n      sub\n        /* \"#utility.yul\":23518:23519   */\n      0x00\n        /* \"#utility.yul\":23507:23516   */\n      dup4\n        /* \"#utility.yul\":23503:23520   */\n      add\n        /* \"#utility.yul\":23496:23543   */\n      mstore\n        /* \"#utility.yul\":23560:23691   */\n      tag_582\n        /* \"#utility.yul\":23686:23690   */\n      dup2\n        /* \"#utility.yul\":23560:23691   */\n      tag_402\n      jump\t// in\n    tag_582:\n        /* \"#utility.yul\":23552:23691   */\n      swap1\n      pop\n        /* \"#utility.yul\":23279:23698   */\n      swap2\n      swap1\n      pop\n      jump\t// out\n        /* \"#utility.yul\":23704:23873   */\n    tag_403:\n        /* \"#utility.yul\":23844:23865   */\n      0x436f6d706172652073616d65206c656e67746800000000000000000000000000\n        /* \"#utility.yul\":23840:23841   */\n      0x00\n        /* \"#utility.yul\":23832:23838   */\n      dup3\n        /* \"#utility.yul\":23828:23842   */\n      add\n        /* \"#utility.yul\":23821:23866   */\n      mstore\n        /* \"#utility.yul\":23704:23873   */\n      pop\n      jump\t// out\n        /* \"#utility.yul\":23879:24245   */\n    tag_404:\n        /* \"#utility.yul\":24021:24024   */\n      0x00\n        /* \"#utility.yul\":24042:24109   */\n      tag_585\n        /* \"#utility.yul\":24106:24108   */\n      0x13\n        /* \"#utility.yul\":24101:24104   */\n      dup4\n        /* \"#utility.yul\":24042:24109   */\n      tag_354\n      jump\t// in\n    tag_585:\n        /* \"#utility.yul\":24035:24109   */\n      swap2\n      pop\n        /* \"#utility.yul\":24118:24211   */\n      tag_586\n        /* \"#utility.yul\":24207:24210   */\n      dup3\n        /* \"#utility.yul\":24118:24211   */\n      tag_403\n      jump\t// in\n    tag_586:\n        /* \"#utility.yul\":24236:24238   */\n      0x20\n        /* \"#utility.yul\":24231:24234   */\n      dup3\n        /* \"#utility.yul\":24227:24239   */\n      add\n        /* \"#utility.yul\":24220:24239   */\n      swap1\n      pop\n        /* \"#utility.yul\":23879:24245   */\n      swap2\n      swap1\n      pop\n      jump\t// out\n        /* \"#utility.yul\":24251:24670   */\n    tag_167:\n        /* \"#utility.yul\":24417:24421   */\n      0x00\n        /* \"#utility.yul\":24455:24457   */\n      0x20\n        /* \"#utility.yul\":24444:24453   */\n      dup3\n        /* \"#utility.yul\":24440:24458   */\n      add\n        /* \"#utility.yul\":24432:24458   */\n      swap1\n      pop\n        /* \"#utility.yul\":24504:24513   */\n      dup2\n        /* \"#utility.yul\":24498:24502   */\n      dup2\n        /* \"#utility.yul\":24494:24514   */\n      sub\n        /* \"#utility.yul\":24490:24491   */\n      0x00\n        /* \"#utility.yul\":24479:24488   */\n      dup4\n        /* \"#utility.yul\":24475:24492   */\n      add\n        /* \"#utility.yul\":24468:24515   */\n      mstore\n        /* \"#utility.yul\":24532:24663   */\n      tag_588\n        /* \"#utility.yul\":24658:24662   */\n      dup2\n        /* \"#utility.yul\":24532:24663   */\n      tag_404\n      jump\t// in\n    tag_588:\n        /* \"#utility.yul\":24524:24663   */\n      swap1\n      pop\n        /* \"#utility.yul\":24251:24670   */\n      swap2\n      swap1\n      pop\n      jump\t// out\n        /* \"#utility.yul\":24676:24850   */\n    tag_405:\n        /* \"#utility.yul\":24816:24842   */\n      0x436f6d7061726520646966666572656e74206c656e6774680000000000000000\n        /* \"#utility.yul\":24812:24813   */\n      0x00\n        /* \"#utility.yul\":24804:24810   */\n      dup3\n        /* \"#utility.yul\":24800:24814   */\n      add\n        /* \"#utility.yul\":24793:24843   */\n      mstore\n        /* \"#utility.yul\":24676:24850   */\n      pop\n      jump\t// out\n        /* \"#utility.yul\":24856:25222   */\n    tag_406:\n        /* \"#utility.yul\":24998:25001   */\n      0x00\n        /* \"#utility.yul\":25019:25086   */\n      tag_591\n        /* \"#utility.yul\":25083:25085   */\n      0x18\n        /* \"#utility.yul\":25078:25081   */\n      dup4\n        /* \"#utility.yul\":25019:25086   */\n      tag_354\n      jump\t// in\n    tag_591:\n        /* \"#utility.yul\":25012:25086   */\n      swap2\n      pop\n        /* \"#utility.yul\":25095:25188   */\n      tag_592\n        /* \"#utility.yul\":25184:25187   */\n      dup3\n        /* \"#utility.yul\":25095:25188   */\n      tag_405\n      jump\t// in\n    tag_592:\n        /* \"#utility.yul\":25213:25215   */\n      0x20\n        /* \"#utility.yul\":25208:25211   */\n      dup3\n        /* \"#utility.yul\":25204:25216   */\n      add\n        /* \"#utility.yul\":25197:25216   */\n      swap1\n      pop\n        /* \"#utility.yul\":24856:25222   */\n      swap2\n      swap1\n      pop\n      jump\t// out\n        /* \"#utility.yul\":25228:25647   */\n    tag_171:\n        /* \"#utility.yul\":25394:25398   */\n      0x00\n        /* \"#utility.yul\":25432:25434   */\n      0x20\n        /* \"#utility.yul\":25421:25430   */\n      dup3\n        /* \"#utility.yul\":25417:25435   */\n      add\n        /* \"#utility.yul\":25409:25435   */\n      swap1\n      pop\n        /* \"#utility.yul\":25481:25490   */\n      dup2\n        /* \"#utility.yul\":25475:25479   */\n      dup2\n        /* \"#utility.yul\":25471:25491   */\n      sub\n        /* \"#utility.yul\":25467:25468   */\n      0x00\n        /* \"#utility.yul\":25456:25465   */\n      dup4\n        /* \"#utility.yul\":25452:25469   */\n      add\n        /* \"#utility.yul\":25445:25492   */\n      mstore\n        /* \"#utility.yul\":25509:25640   */\n      tag_594\n        /* \"#utility.yul\":25635:25639   */\n      dup2\n        /* \"#utility.yul\":25509:25640   */\n      tag_406\n      jump\t// in\n    tag_594:\n        /* \"#utility.yul\":25501:25640   */\n      swap1\n      pop\n        /* \"#utility.yul\":25228:25647   */\n      swap2\n      swap1\n      pop\n      jump\t// out\n        /* \"#utility.yul\":25653:25874   */\n    tag_407:\n        /* \"#utility.yul\":25793:25827   */\n      0x436f6d706172652073616d65207769746820646966666572656e74206f666673\n        /* \"#utility.yul\":25789:25790   */\n      0x00\n        /* \"#utility.yul\":25781:25787   */\n      dup3\n        /* \"#utility.yul\":25777:25791   */\n      add\n        /* \"#utility.yul\":25770:25828   */\n      mstore\n        /* \"#utility.yul\":25862:25866   */\n      0x6574000000000000000000000000000000000000000000000000000000000000\n        /* \"#utility.yul\":25857:25859   */\n      0x20\n        /* \"#utility.yul\":25849:25855   */\n      dup3\n        /* \"#utility.yul\":25845:25860   */\n      add\n        /* \"#utility.yul\":25838:25867   */\n      mstore\n        /* \"#utility.yul\":25653:25874   */\n      pop\n      jump\t// out\n        /* \"#utility.yul\":25880:26246   */\n    tag_408:\n        /* \"#utility.yul\":26022:26025   */\n      0x00\n        /* \"#utility.yul\":26043:26110   */\n      tag_597\n        /* \"#utility.yul\":26107:26109   */\n      0x22\n        /* \"#utility.yul\":26102:26105   */\n      dup4\n        /* \"#utility.yul\":26043:26110   */\n      tag_354\n      jump\t// in\n    tag_597:\n        /* \"#utility.yul\":26036:26110   */\n      swap2\n      pop\n        /* \"#utility.yul\":26119:26212   */\n      tag_598\n        /* \"#utility.yul\":26208:26211   */\n      dup3\n        /* \"#utility.yul\":26119:26212   */\n      tag_407\n      jump\t// in\n    tag_598:\n        /* \"#utility.yul\":26237:26239   */\n      0x40\n        /* \"#utility.yul\":26232:26235   */\n      dup3\n        /* \"#utility.yul\":26228:26240   */\n      add\n        /* \"#utility.yul\":26221:26240   */\n      swap1\n      pop\n        /* \"#utility.yul\":25880:26246   */\n      swap2\n      swap1\n      pop\n      jump\t// out\n        /* \"#utility.yul\":26252:26671   */\n    tag_175:\n        /* \"#utility.yul\":26418:26422   */\n      0x00\n        /* \"#utility.yul\":26456:26458   */\n      0x20\n        /* \"#utility.yul\":26445:26454   */\n      dup3\n        /* \"#utility.yul\":26441:26459   */\n      add\n        /* \"#utility.yul\":26433:26459   */\n      swap1\n      pop\n        /* \"#utility.yul\":26505:26514   */\n      dup2\n        /* \"#utility.yul\":26499:26503   */\n      dup2\n        /* \"#utility.yul\":26495:26515   */\n      sub\n        /* \"#utility.yul\":26491:26492   */\n      0x00\n        /* \"#utility.yul\":26480:26489   */\n      dup4\n        /* \"#utility.yul\":26476:26493   */\n      add\n        /* \"#utility.yul\":26469:26516   */\n      mstore\n        /* \"#utility.yul\":26533:26664   */\n      tag_600\n        /* \"#utility.yul\":26659:26663   */\n      dup2\n        /* \"#utility.yul\":26533:26664   */\n      tag_408\n      jump\t// in\n    tag_600:\n        /* \"#utility.yul\":26525:26664   */\n      swap1\n      pop\n        /* \"#utility.yul\":26252:26671   */\n      swap2\n      swap1\n      pop\n      jump\t// out\n        /* \"#utility.yul\":26677:26986   */\n    tag_409:\n        /* \"#utility.yul\":26817:26851   */\n      0x436f6d7061726520646966666572656e74206c6f6e6720737472696e67732073\n        /* \"#utility.yul\":26813:26814   */\n      0x00\n        /* \"#utility.yul\":26805:26811   */\n      dup3\n        /* \"#utility.yul\":26801:26815   */\n      add\n        /* \"#utility.yul\":26794:26852   */\n      mstore\n        /* \"#utility.yul\":26886:26920   */\n      0x616d65206c656e67746820736d616c6c6572207061727469616c206c656e6774\n        /* \"#utility.yul\":26881:26883   */\n      0x20\n        /* \"#utility.yul\":26873:26879   */\n      dup3\n        /* \"#utility.yul\":26869:26884   */\n      add\n        /* \"#utility.yul\":26862:26921   */\n      mstore\n        /* \"#utility.yul\":26955:26978   */\n      0x68207768696368206d75737420626520657175616c0000000000000000000000\n        /* \"#utility.yul\":26950:26952   */\n      0x40\n        /* \"#utility.yul\":26942:26948   */\n      dup3\n        /* \"#utility.yul\":26938:26953   */\n      add\n        /* \"#utility.yul\":26931:26979   */\n      mstore\n        /* \"#utility.yul\":26677:26986   */\n      pop\n      jump\t// out\n        /* \"#utility.yul\":26992:27358   */\n    tag_410:\n        /* \"#utility.yul\":27134:27137   */\n      0x00\n        /* \"#utility.yul\":27155:27222   */\n      tag_603\n        /* \"#utility.yul\":27219:27221   */\n      0x55\n        /* \"#utility.yul\":27214:27217   */\n      dup4\n        /* \"#utility.yul\":27155:27222   */\n      tag_354\n      jump\t// in\n    tag_603:\n        /* \"#utility.yul\":27148:27222   */\n      swap2\n      pop\n        /* \"#utility.yul\":27231:27324   */\n      tag_604\n        /* \"#utility.yul\":27320:27323   */\n      dup3\n        /* \"#utility.yul\":27231:27324   */\n      tag_409\n      jump\t// in\n    tag_604:\n        /* \"#utility.yul\":27349:27351   */\n      0x60\n        /* \"#utility.yul\":27344:27347   */\n      dup3\n        /* \"#utility.yul\":27340:27352   */\n      add\n        /* \"#utility.yul\":27333:27352   */\n      swap1\n      pop\n        /* \"#utility.yul\":26992:27358   */\n      swap2\n      swap1\n      pop\n      jump\t// out\n        /* \"#utility.yul\":27364:27783   */\n    tag_179:\n        /* \"#utility.yul\":27530:27534   */\n      0x00\n        /* \"#utility.yul\":27568:27570   */\n      0x20\n        /* \"#utility.yul\":27557:27566   */\n      dup3\n        /* \"#utility.yul\":27553:27571   */\n      add\n        /* \"#utility.yul\":27545:27571   */\n      swap1\n      pop\n        /* \"#utility.yul\":27617:27626   */\n      dup2\n        /* \"#utility.yul\":27611:27615   */\n      dup2\n        /* \"#utility.yul\":27607:27627   */\n      sub\n        /* \"#utility.yul\":27603:27604   */\n      0x00\n        /* \"#utility.yul\":27592:27601   */\n      dup4\n        /* \"#utility.yul\":27588:27605   */\n      add\n        /* \"#utility.yul\":27581:27628   */\n      mstore\n        /* \"#utility.yul\":27645:27776   */\n      tag_606\n        /* \"#utility.yul\":27771:27775   */\n      dup2\n        /* \"#utility.yul\":27645:27776   */\n      tag_410\n      jump\t// in\n    tag_606:\n        /* \"#utility.yul\":27637:27776   */\n      swap1\n      pop\n        /* \"#utility.yul\":27364:27783   */\n      swap2\n      swap1\n      pop\n      jump\t// out\n        /* \"#utility.yul\":27789:28033   */\n    tag_411:\n        /* \"#utility.yul\":27929:27963   */\n      0x436f6d70617265206c6f6e6720737472696e67732073616d65206c656e677468\n        /* \"#utility.yul\":27925:27926   */\n      0x00\n        /* \"#utility.yul\":27917:27923   */\n      dup3\n        /* \"#utility.yul\":27913:27927   */\n      add\n        /* \"#utility.yul\":27906:27964   */\n      mstore\n        /* \"#utility.yul\":27998:28025   */\n      0x20646966666572656e74207061727469616c206c656e67746800000000000000\n        /* \"#utility.yul\":27993:27995   */\n      0x20\n        /* \"#utility.yul\":27985:27991   */\n      dup3\n        /* \"#utility.yul\":27981:27996   */\n      add\n        /* \"#utility.yul\":27974:28026   */\n      mstore\n        /* \"#utility.yul\":27789:28033   */\n      pop\n      jump\t// out\n        /* \"#utility.yul\":28039:28405   */\n    tag_412:\n        /* \"#utility.yul\":28181:28184   */\n      0x00\n        /* \"#utility.yul\":28202:28269   */\n      tag_609\n        /* \"#utility.yul\":28266:28268   */\n      0x39\n        /* \"#utility.yul\":28261:28264   */\n      dup4\n        /* \"#utility.yul\":28202:28269   */\n      tag_354\n      jump\t// in\n    tag_609:\n        /* \"#utility.yul\":28195:28269   */\n      swap2\n      pop\n        /* \"#utility.yul\":28278:28371   */\n      tag_610\n        /* \"#utility.yul\":28367:28370   */\n      dup3\n        /* \"#utility.yul\":28278:28371   */\n      tag_411\n      jump\t// in\n    tag_610:\n        /* \"#utility.yul\":28396:28398   */\n      0x40\n        /* \"#utility.yul\":28391:28394   */\n      dup3\n        /* \"#utility.yul\":28387:28399   */\n      add\n        /* \"#utility.yul\":28380:28399   */\n      swap1\n      pop\n        /* \"#utility.yul\":28039:28405   */\n      swap2\n      swap1\n      pop\n      jump\t// out\n        /* \"#utility.yul\":28411:28830   */\n    tag_183:\n        /* \"#utility.yul\":28577:28581   */\n      0x00\n        /* \"#utility.yul\":28615:28617   */\n      0x20\n        /* \"#utility.yul\":28604:28613   */\n      dup3\n        /* \"#utility.yul\":28600:28618   */\n      add\n        /* \"#utility.yul\":28592:28618   */\n      swap1\n      pop\n        /* \"#utility.yul\":28664:28673   */\n      dup2\n        /* \"#utility.yul\":28658:28662   */\n      dup2\n        /* \"#utility.yul\":28654:28674   */\n      sub\n        /* \"#utility.yul\":28650:28651   */\n      0x00\n        /* \"#utility.yul\":28639:28648   */\n      dup4\n        /* \"#utility.yul\":28635:28652   */\n      add\n        /* \"#utility.yul\":28628:28675   */\n      mstore\n        /* \"#utility.yul\":28692:28823   */\n      tag_612\n        /* \"#utility.yul\":28818:28822   */\n      dup2\n        /* \"#utility.yul\":28692:28823   */\n      tag_412\n      jump\t// in\n    tag_612:\n        /* \"#utility.yul\":28684:28823   */\n      swap1\n      pop\n        /* \"#utility.yul\":28411:28830   */\n      swap2\n      swap1\n      pop\n      jump\t// out\n        /* \"#utility.yul\":28836:29065   */\n    tag_413:\n        /* \"#utility.yul\":28976:29010   */\n      0x436f6d7061726520737472696e67732065786163746c79203332206368617261\n        /* \"#utility.yul\":28972:28973   */\n      0x00\n        /* \"#utility.yul\":28964:28970   */\n      dup3\n        /* \"#utility.yul\":28960:28974   */\n      add\n        /* \"#utility.yul\":28953:29011   */\n      mstore\n        /* \"#utility.yul\":29045:29057   */\n      0x6374657273206c6f6e6700000000000000000000000000000000000000000000\n        /* \"#utility.yul\":29040:29042   */\n      0x20\n        /* \"#utility.yul\":29032:29038   */\n      dup3\n        /* \"#utility.yul\":29028:29043   */\n      add\n        /* \"#utility.yul\":29021:29058   */\n      mstore\n        /* \"#utility.yul\":28836:29065   */\n      pop\n      jump\t// out\n        /* \"#utility.yul\":29071:29437   */\n    tag_414:\n        /* \"#utility.yul\":29213:29216   */\n      0x00\n        /* \"#utility.yul\":29234:29301   */\n      tag_615\n        /* \"#utility.yul\":29298:29300   */\n      0x2a\n        /* \"#utility.yul\":29293:29296   */\n      dup4\n        /* \"#utility.yul\":29234:29301   */\n      tag_354\n      jump\t// in\n    tag_615:\n        /* \"#utility.yul\":29227:29301   */\n      swap2\n      pop\n        /* \"#utility.yul\":29310:29403   */\n      tag_616\n        /* \"#utility.yul\":29399:29402   */\n      dup3\n        /* \"#utility.yul\":29310:29403   */\n      tag_413\n      jump\t// in\n    tag_616:\n        /* \"#utility.yul\":29428:29430   */\n      0x40\n        /* \"#utility.yul\":29423:29426   */\n      dup3\n        /* \"#utility.yul\":29419:29431   */\n      add\n        /* \"#utility.yul\":29412:29431   */\n      swap1\n      pop\n        /* \"#utility.yul\":29071:29437   */\n      swap2\n      swap1\n      pop\n      jump\t// out\n        /* \"#utility.yul\":29443:29862   */\n    tag_187:\n        /* \"#utility.yul\":29609:29613   */\n      0x00\n        /* \"#utility.yul\":29647:29649   */\n      0x20\n        /* \"#utility.yul\":29636:29645   */\n      dup3\n        /* \"#utility.yul\":29632:29650   */\n      add\n        /* \"#utility.yul\":29624:29650   */\n      swap1\n      pop\n        /* \"#utility.yul\":29696:29705   */\n      dup2\n        /* \"#utility.yul\":29690:29694   */\n      dup2\n        /* \"#utility.yul\":29686:29706   */\n      sub\n        /* \"#utility.yul\":29682:29683   */\n      0x00\n        /* \"#utility.yul\":29671:29680   */\n      dup4\n        /* \"#utility.yul\":29667:29684   */\n      add\n        /* \"#utility.yul\":29660:29707   */\n      mstore\n        /* \"#utility.yul\":29724:29855   */\n      tag_618\n        /* \"#utility.yul\":29850:29854   */\n      dup2\n        /* \"#utility.yul\":29724:29855   */\n      tag_414\n      jump\t// in\n    tag_618:\n        /* \"#utility.yul\":29716:29855   */\n      swap1\n      pop\n        /* \"#utility.yul\":29443:29862   */\n      swap2\n      swap1\n      pop\n      jump\t// out\n        /* \"#utility.yul\":29868:30033   */\n    tag_415:\n        /* \"#utility.yul\":30008:30025   */\n      0x537472696e6720657175616c6974790000000000000000000000000000000000\n        /* \"#utility.yul\":30004:30005   */\n      0x00\n        /* \"#utility.yul\":29996:30002   */\n      dup3\n        /* \"#utility.yul\":29992:30006   */\n      add\n        /* \"#utility.yul\":29985:30026   */\n      mstore\n        /* \"#utility.yul\":29868:30033   */\n      pop\n      jump\t// out\n        /* \"#utility.yul\":30039:30405   */\n    tag_416:\n        /* \"#utility.yul\":30181:30184   */\n      0x00\n        /* \"#utility.yul\":30202:30269   */\n      tag_621\n        /* \"#utility.yul\":30266:30268   */\n      0x0f\n        /* \"#utility.yul\":30261:30264   */\n      dup4\n        /* \"#utility.yul\":30202:30269   */\n      tag_354\n      jump\t// in\n    tag_621:\n        /* \"#utility.yul\":30195:30269   */\n      swap2\n      pop\n        /* \"#utility.yul\":30278:30371   */\n      tag_622\n        /* \"#utility.yul\":30367:30370   */\n      dup3\n        /* \"#utility.yul\":30278:30371   */\n      tag_415\n      jump\t// in\n    tag_622:\n        /* \"#utility.yul\":30396:30398   */\n      0x20\n        /* \"#utility.yul\":30391:30394   */\n      dup3\n        /* \"#utility.yul\":30387:30399   */\n      add\n        /* \"#utility.yul\":30380:30399   */\n      swap1\n      pop\n        /* \"#utility.yul\":30039:30405   */\n      swap2\n      swap1\n      pop\n      jump\t// out\n        /* \"#utility.yul\":30411:30830   */\n    tag_193:\n        /* \"#utility.yul\":30577:30581   */\n      0x00\n        /* \"#utility.yul\":30615:30617   */\n      0x20\n        /* \"#utility.yul\":30604:30613   */\n      dup3\n        /* \"#utility.yul\":30600:30618   */\n      add\n        /* \"#utility.yul\":30592:30618   */\n      swap1\n      pop\n        /* \"#utility.yul\":30664:30673   */\n      dup2\n        /* \"#utility.yul\":30658:30662   */\n      dup2\n        /* \"#utility.yul\":30654:30674   */\n      sub\n        /* \"#utility.yul\":30650:30651   */\n      0x00\n        /* \"#utility.yul\":30639:30648   */\n      dup4\n        /* \"#utility.yul\":30635:30652   */\n      add\n        /* \"#utility.yul\":30628:30675   */\n      mstore\n        /* \"#utility.yul\":30692:30823   */\n      tag_624\n        /* \"#utility.yul\":30818:30822   */\n      dup2\n        /* \"#utility.yul\":30692:30823   */\n      tag_416\n      jump\t// in\n    tag_624:\n        /* \"#utility.yul\":30684:30823   */\n      swap1\n      pop\n        /* \"#utility.yul\":30411:30830   */\n      swap2\n      swap1\n      pop\n      jump\t// out\n        /* \"#utility.yul\":30836:31003   */\n    tag_417:\n        /* \"#utility.yul\":30976:30995   */\n      0x537472696e6720696e657175616c697479000000000000000000000000000000\n        /* \"#utility.yul\":30972:30973   */\n      0x00\n        /* \"#utility.yul\":30964:30970   */\n      dup3\n        /* \"#utility.yul\":30960:30974   */\n      add\n        /* \"#utility.yul\":30953:30996   */\n      mstore\n        /* \"#utility.yul\":30836:31003   */\n      pop\n      jump\t// out\n        /* \"#utility.yul\":31009:31375   */\n    tag_418:\n        /* \"#utility.yul\":31151:31154   */\n      0x00\n        /* \"#utility.yul\":31172:31239   */\n      tag_627\n        /* \"#utility.yul\":31236:31238   */\n      0x11\n        /* \"#utility.yul\":31231:31234   */\n      dup4\n        /* \"#utility.yul\":31172:31239   */\n      tag_354\n      jump\t// in\n    tag_627:\n        /* \"#utility.yul\":31165:31239   */\n      swap2\n      pop\n        /* \"#utility.yul\":31248:31341   */\n      tag_628\n        /* \"#utility.yul\":31337:31340   */\n      dup3\n        /* \"#utility.yul\":31248:31341   */\n      tag_417\n      jump\t// in\n    tag_628:\n        /* \"#utility.yul\":31366:31368   */\n      0x20\n        /* \"#utility.yul\":31361:31364   */\n      dup3\n        /* \"#utility.yul\":31357:31369   */\n      add\n        /* \"#utility.yul\":31350:31369   */\n      swap1\n      pop\n        /* \"#utility.yul\":31009:31375   */\n      swap2\n      swap1\n      pop\n      jump\t// out\n        /* \"#utility.yul\":31381:31800   */\n    tag_197:\n        /* \"#utility.yul\":31547:31551   */\n      0x00\n        /* \"#utility.yul\":31585:31587   */\n      0x20\n        /* \"#utility.yul\":31574:31583   */\n      dup3\n        /* \"#utility.yul\":31570:31588   */\n      add\n        /* \"#utility.yul\":31562:31588   */\n      swap1\n      pop\n        /* \"#utility.yul\":31634:31643   */\n      dup2\n        /* \"#utility.yul\":31628:31632   */\n      dup2\n        /* \"#utility.yul\":31624:31644   */\n      sub\n        /* \"#utility.yul\":31620:31621   */\n      0x00\n        /* \"#utility.yul\":31609:31618   */\n      dup4\n        /* \"#utility.yul\":31605:31622   */\n      add\n        /* \"#utility.yul\":31598:31645   */\n      mstore\n        /* \"#utility.yul\":31662:31793   */\n      tag_630\n        /* \"#utility.yul\":31788:31792   */\n      dup2\n        /* \"#utility.yul\":31662:31793   */\n      tag_418\n      jump\t// in\n    tag_630:\n        /* \"#utility.yul\":31654:31793   */\n      swap1\n      pop\n        /* \"#utility.yul\":31381:31800   */\n      swap2\n      swap1\n      pop\n      jump\t// out\n        /* \"#utility.yul\":31806:31984   */\n    tag_419:\n        /* \"#utility.yul\":31946:31976   */\n      0x537562737472696e6720746f20737472696e6720657175616c69747900000000\n        /* \"#utility.yul\":31942:31943   */\n      0x00\n        /* \"#utility.yul\":31934:31940   */\n      dup3\n        /* \"#utility.yul\":31930:31944   */\n      add\n        /* \"#utility.yul\":31923:31977   */\n      mstore\n        /* \"#utility.yul\":31806:31984   */\n      pop\n      jump\t// out\n        /* \"#utility.yul\":31990:32356   */\n    tag_420:\n        /* \"#utility.yul\":32132:32135   */\n      0x00\n        /* \"#utility.yul\":32153:32220   */\n      tag_633\n        /* \"#utility.yul\":32217:32219   */\n      0x1c\n        /* \"#utility.yul\":32212:32215   */\n      dup4\n        /* \"#utility.yul\":32153:32220   */\n      tag_354\n      jump\t// in\n    tag_633:\n        /* \"#utility.yul\":32146:32220   */\n      swap2\n      pop\n        /* \"#utility.yul\":32229:32322   */\n      tag_634\n        /* \"#utility.yul\":32318:32321   */\n      dup3\n        /* \"#utility.yul\":32229:32322   */\n      tag_419\n      jump\t// in\n    tag_634:\n        /* \"#utility.yul\":32347:32349   */\n      0x20\n        /* \"#utility.yul\":32342:32345   */\n      dup3\n        /* \"#utility.yul\":32338:32350   */\n      add\n        /* \"#utility.yul\":32331:32350   */\n      swap1\n      pop\n        /* \"#utility.yul\":31990:32356   */\n      swap2\n      swap1\n      pop\n      jump\t// out\n        /* \"#utility.yul\":32362:32781   */\n    tag_202:\n        /* \"#utility.yul\":32528:32532   */\n      0x00\n        /* \"#utility.yul\":32566:32568   */\n      0x20\n        /* \"#utility.yul\":32555:32564   */\n      dup3\n        /* \"#utility.yul\":32551:32569   */\n      add\n        /* \"#utility.yul\":32543:32569   */\n      swap1\n      pop\n        /* \"#utility.yul\":32615:32624   */\n      dup2\n        /* \"#utility.yul\":32609:32613   */\n      dup2\n        /* \"#utility.yul\":32605:32625   */\n      sub\n        /* \"#utility.yul\":32601:32602   */\n      0x00\n        /* \"#utility.yul\":32590:32599   */\n      dup4\n        /* \"#utility.yul\":32586:32603   */\n      add\n        /* \"#utility.yul\":32579:32626   */\n      mstore\n        /* \"#utility.yul\":32643:32774   */\n      tag_636\n        /* \"#utility.yul\":32769:32773   */\n      dup2\n        /* \"#utility.yul\":32643:32774   */\n      tag_420\n      jump\t// in\n    tag_636:\n        /* \"#utility.yul\":32635:32774   */\n      swap1\n      pop\n        /* \"#utility.yul\":32362:32781   */\n      swap2\n      swap1\n      pop\n      jump\t// out\n        /* \"#utility.yul\":32787:32968   */\n    tag_421:\n        /* \"#utility.yul\":32927:32960   */\n      0x537562737472696e6720746f20737562737472696e6720657175616c69747900\n        /* \"#utility.yul\":32923:32924   */\n      0x00\n        /* \"#utility.yul\":32915:32921   */\n      dup3\n        /* \"#utility.yul\":32911:32925   */\n      add\n        /* \"#utility.yul\":32904:32961   */\n      mstore\n        /* \"#utility.yul\":32787:32968   */\n      pop\n      jump\t// out\n        /* \"#utility.yul\":32974:33340   */\n    tag_422:\n        /* \"#utility.yul\":33116:33119   */\n      0x00\n        /* \"#utility.yul\":33137:33204   */\n      tag_639\n        /* \"#utility.yul\":33201:33203   */\n      0x1f\n        /* \"#utility.yul\":33196:33199   */\n      dup4\n        /* \"#utility.yul\":33137:33204   */\n      tag_354\n      jump\t// in\n    tag_639:\n        /* \"#utility.yul\":33130:33204   */\n      swap2\n      pop\n        /* \"#utility.yul\":33213:33306   */\n      tag_640\n        /* \"#utility.yul\":33302:33305   */\n      dup3\n        /* \"#utility.yul\":33213:33306   */\n      tag_421\n      jump\t// in\n    tag_640:\n        /* \"#utility.yul\":33331:33333   */\n      0x20\n        /* \"#utility.yul\":33326:33329   */\n      dup3\n        /* \"#utility.yul\":33322:33334   */\n      add\n        /* \"#utility.yul\":33315:33334   */\n      swap1\n      pop\n        /* \"#utility.yul\":32974:33340   */\n      swap2\n      swap1\n      pop\n      jump\t// out\n        /* \"#utility.yul\":33346:33765   */\n    tag_207:\n        /* \"#utility.yul\":33512:33516   */\n      0x00\n        /* \"#utility.yul\":33550:33552   */\n      0x20\n        /* \"#utility.yul\":33539:33548   */\n      dup3\n        /* \"#utility.yul\":33535:33553   */\n      add\n        /* \"#utility.yul\":33527:33553   */\n      swap1\n      pop\n        /* \"#utility.yul\":33599:33608   */\n      dup2\n        /* \"#utility.yul\":33593:33597   */\n      dup2\n        /* \"#utility.yul\":33589:33609   */\n      sub\n        /* \"#utility.yul\":33585:33586   */\n      0x00\n        /* \"#utility.yul\":33574:33583   */\n      dup4\n        /* \"#utility.yul\":33570:33587   */\n      add\n        /* \"#utility.yul\":33563:33610   */\n      mstore\n        /* \"#utility.yul\":33627:33758   */\n      tag_642\n        /* \"#utility.yul\":33753:33757   */\n      dup2\n        /* \"#utility.yul\":33627:33758   */\n      tag_422\n      jump\t// in\n    tag_642:\n        /* \"#utility.yul\":33619:33758   */\n      swap1\n      pop\n        /* \"#utility.yul\":33346:33765   */\n      swap2\n      swap1\n      pop\n      jump\t// out\n        /* \"#utility.yul\":33771:33996   */\n    tag_423:\n        /* \"#utility.yul\":33911:33945   */\n      0x436f6d706172652077697468206f666673657420616e6420747261696c696e67\n        /* \"#utility.yul\":33907:33908   */\n      0x00\n        /* \"#utility.yul\":33899:33905   */\n      dup3\n        /* \"#utility.yul\":33895:33909   */\n      add\n        /* \"#utility.yul\":33888:33946   */\n      mstore\n        /* \"#utility.yul\":33980:33988   */\n      0x2062797465730000000000000000000000000000000000000000000000000000\n        /* \"#utility.yul\":33975:33977   */\n      0x20\n        /* \"#utility.yul\":33967:33973   */\n      dup3\n        /* \"#utility.yul\":33963:33978   */\n      add\n        /* \"#utility.yul\":33956:33989   */\n      mstore\n        /* \"#utility.yul\":33771:33996   */\n      pop\n      jump\t// out\n        /* \"#utility.yul\":34002:34368   */\n    tag_424:\n        /* \"#utility.yul\":34144:34147   */\n      0x00\n        /* \"#utility.yul\":34165:34232   */\n      tag_645\n        /* \"#utility.yul\":34229:34231   */\n      0x26\n        /* \"#utility.yul\":34224:34227   */\n      dup4\n        /* \"#utility.yul\":34165:34232   */\n      tag_354\n      jump\t// in\n    tag_645:\n        /* \"#utility.yul\":34158:34232   */\n      swap2\n      pop\n        /* \"#utility.yul\":34241:34334   */\n      tag_646\n        /* \"#utility.yul\":34330:34333   */\n      dup3\n        /* \"#utility.yul\":34241:34334   */\n      tag_423\n      jump\t// in\n    tag_646:\n        /* \"#utility.yul\":34359:34361   */\n      0x40\n        /* \"#utility.yul\":34354:34357   */\n      dup3\n        /* \"#utility.yul\":34350:34362   */\n      add\n        /* \"#utility.yul\":34343:34362   */\n      swap1\n      pop\n        /* \"#utility.yul\":34002:34368   */\n      swap2\n      swap1\n      pop\n      jump\t// out\n        /* \"#utility.yul\":34374:34793   */\n    tag_215:\n        /* \"#utility.yul\":34540:34544   */\n      0x00\n        /* \"#utility.yul\":34578:34580   */\n      0x20\n        /* \"#utility.yul\":34567:34576   */\n      dup3\n        /* \"#utility.yul\":34563:34581   */\n      add\n        /* \"#utility.yul\":34555:34581   */\n      swap1\n      pop\n        /* \"#utility.yul\":34627:34636   */\n      dup2\n        /* \"#utility.yul\":34621:34625   */\n      dup2\n        /* \"#utility.yul\":34617:34637   */\n      sub\n        /* \"#utility.yul\":34613:34614   */\n      0x00\n        /* \"#utility.yul\":34602:34611   */\n      dup4\n        /* \"#utility.yul\":34598:34615   */\n      add\n        /* \"#utility.yul\":34591:34638   */\n      mstore\n        /* \"#utility.yul\":34655:34786   */\n      tag_648\n        /* \"#utility.yul\":34781:34785   */\n      dup2\n        /* \"#utility.yul\":34655:34786   */\n      tag_424\n      jump\t// in\n    tag_648:\n        /* \"#utility.yul\":34647:34786   */\n      swap1\n      pop\n        /* \"#utility.yul\":34374:34793   */\n      swap2\n      swap1\n      pop\n      jump\t// out\n        /* \"#utility.yul\":34799:34960   */\n    tag_425:\n        /* \"#utility.yul\":34939:34952   */\n      0x7265616442797465733332000000000000000000000000000000000000000000\n        /* \"#utility.yul\":34935:34936   */\n      0x00\n        /* \"#utility.yul\":34927:34933   */\n      dup3\n        /* \"#utility.yul\":34923:34937   */\n      add\n        /* \"#utility.yul\":34916:34953   */\n      mstore\n        /* \"#utility.yul\":34799:34960   */\n      pop\n      jump\t// out\n        /* \"#utility.yul\":34966:35332   */\n    tag_426:\n        /* \"#utility.yul\":35108:35111   */\n      0x00\n        /* \"#utility.yul\":35129:35196   */\n      tag_651\n        /* \"#utility.yul\":35193:35195   */\n      0x0b\n        /* \"#utility.yul\":35188:35191   */\n      dup4\n        /* \"#utility.yul\":35129:35196   */\n      tag_354\n      jump\t// in\n    tag_651:\n        /* \"#utility.yul\":35122:35196   */\n      swap2\n      pop\n        /* \"#utility.yul\":35205:35298   */\n      tag_652\n        /* \"#utility.yul\":35294:35297   */\n      dup3\n        /* \"#utility.yul\":35205:35298   */\n      tag_425\n      jump\t// in\n    tag_652:\n        /* \"#utility.yul\":35323:35325   */\n      0x20\n        /* \"#utility.yul\":35318:35321   */\n      dup3\n        /* \"#utility.yul\":35314:35326   */\n      add\n        /* \"#utility.yul\":35307:35326   */\n      swap1\n      pop\n        /* \"#utility.yul\":34966:35332   */\n      swap2\n      swap1\n      pop\n      jump\t// out\n        /* \"#utility.yul\":35338:35757   */\n    tag_221:\n        /* \"#utility.yul\":35504:35508   */\n      0x00\n        /* \"#utility.yul\":35542:35544   */\n      0x20\n        /* \"#utility.yul\":35531:35540   */\n      dup3\n        /* \"#utility.yul\":35527:35545   */\n      add\n        /* \"#utility.yul\":35519:35545   */\n      swap1\n      pop\n        /* \"#utility.yul\":35591:35600   */\n      dup2\n        /* \"#utility.yul\":35585:35589   */\n      dup2\n        /* \"#utility.yul\":35581:35601   */\n      sub\n        /* \"#utility.yul\":35577:35578   */\n      0x00\n        /* \"#utility.yul\":35566:35575   */\n      dup4\n        /* \"#utility.yul\":35562:35579   */\n      add\n        /* \"#utility.yul\":35555:35602   */\n      mstore\n        /* \"#utility.yul\":35619:35750   */\n      tag_654\n        /* \"#utility.yul\":35745:35749   */\n      dup2\n        /* \"#utility.yul\":35619:35750   */\n      tag_426\n      jump\t// in\n    tag_654:\n        /* \"#utility.yul\":35611:35750   */\n      swap1\n      pop\n        /* \"#utility.yul\":35338:35757   */\n      swap2\n      swap1\n      pop\n      jump\t// out\n        /* \"#utility.yul\":35763:35925   */\n    tag_427:\n        /* \"#utility.yul\":35903:35917   */\n      0x526561642075696e742031360000000000000000000000000000000000000000\n        /* \"#utility.yul\":35899:35900   */\n      0x00\n        /* \"#utility.yul\":35891:35897   */\n      dup3\n        /* \"#utility.yul\":35887:35901   */\n      add\n        /* \"#utility.yul\":35880:35918   */\n      mstore\n        /* \"#utility.yul\":35763:35925   */\n      pop\n      jump\t// out\n        /* \"#utility.yul\":35931:36297   */\n    tag_428:\n        /* \"#utility.yul\":36073:36076   */\n      0x00\n        /* \"#utility.yul\":36094:36161   */\n      tag_657\n        /* \"#utility.yul\":36158:36160   */\n      0x0c\n        /* \"#utility.yul\":36153:36156   */\n      dup4\n        /* \"#utility.yul\":36094:36161   */\n      tag_354\n      jump\t// in\n    tag_657:\n        /* \"#utility.yul\":36087:36161   */\n      swap2\n      pop\n        /* \"#utility.yul\":36170:36263   */\n      tag_658\n        /* \"#utility.yul\":36259:36262   */\n      dup3\n        /* \"#utility.yul\":36170:36263   */\n      tag_427\n      jump\t// in\n    tag_658:\n        /* \"#utility.yul\":36288:36290   */\n      0x20\n        /* \"#utility.yul\":36283:36286   */\n      dup3\n        /* \"#utility.yul\":36279:36291   */\n      add\n        /* \"#utility.yul\":36272:36291   */\n      swap1\n      pop\n        /* \"#utility.yul\":35931:36297   */\n      swap2\n      swap1\n      pop\n      jump\t// out\n        /* \"#utility.yul\":36303:36722   */\n    tag_227:\n        /* \"#utility.yul\":36469:36473   */\n      0x00\n        /* \"#utility.yul\":36507:36509   */\n      0x20\n        /* \"#utility.yul\":36496:36505   */\n      dup3\n        /* \"#utility.yul\":36492:36510   */\n      add\n        /* \"#utility.yul\":36484:36510   */\n      swap1\n      pop\n        /* \"#utility.yul\":36556:36565   */\n      dup2\n        /* \"#utility.yul\":36550:36554   */\n      dup2\n        /* \"#utility.yul\":36546:36566   */\n      sub\n        /* \"#utility.yul\":36542:36543   */\n      0x00\n        /* \"#utility.yul\":36531:36540   */\n      dup4\n        /* \"#utility.yul\":36527:36544   */\n      add\n        /* \"#utility.yul\":36520:36567   */\n      mstore\n        /* \"#utility.yul\":36584:36715   */\n      tag_660\n        /* \"#utility.yul\":36710:36714   */\n      dup2\n        /* \"#utility.yul\":36584:36715   */\n      tag_428\n      jump\t// in\n    tag_660:\n        /* \"#utility.yul\":36576:36715   */\n      swap1\n      pop\n        /* \"#utility.yul\":36303:36722   */\n      swap2\n      swap1\n      pop\n      jump\t// out\n        /* \"#utility.yul\":36728:36805   */\n    tag_429:\n        /* \"#utility.yul\":36765:36772   */\n      0x00\n        /* \"#utility.yul\":36794:36799   */\n      dup2\n        /* \"#utility.yul\":36783:36799   */\n      swap1\n      pop\n        /* \"#utility.yul\":36728:36805   */\n      swap2\n      swap1\n      pop\n      jump\t// out\n        /* \"#utility.yul\":36811:36991   */\n    tag_430:\n        /* \"#utility.yul\":36859:36936   */\n      0x4e487b7100000000000000000000000000000000000000000000000000000000\n        /* \"#utility.yul\":36856:36857   */\n      0x00\n        /* \"#utility.yul\":36849:36937   */\n      mstore\n        /* \"#utility.yul\":36956:36960   */\n      0x11\n        /* \"#utility.yul\":36953:36954   */\n      0x04\n        /* \"#utility.yul\":36946:36961   */\n      mstore\n        /* \"#utility.yul\":36980:36984   */\n      0x24\n        /* \"#utility.yul\":36977:36978   */\n      0x00\n        /* \"#utility.yul\":36970:36985   */\n      revert\n        /* \"#utility.yul\":36997:37188   */\n    tag_230:\n        /* \"#utility.yul\":37037:37040   */\n      0x00\n        /* \"#utility.yul\":37056:37076   */\n      tag_664\n        /* \"#utility.yul\":37074:37075   */\n      dup3\n        /* \"#utility.yul\":37056:37076   */\n      tag_429\n      jump\t// in\n    tag_664:\n        /* \"#utility.yul\":37051:37076   */\n      swap2\n      pop\n        /* \"#utility.yul\":37090:37110   */\n      tag_665\n        /* \"#utility.yul\":37108:37109   */\n      dup4\n        /* \"#utility.yul\":37090:37110   */\n      tag_429\n      jump\t// in\n    tag_665:\n        /* \"#utility.yul\":37085:37110   */\n      swap3\n      pop\n        /* \"#utility.yul\":37133:37134   */\n      dup3\n        /* \"#utility.yul\":37130:37131   */\n      dup3\n        /* \"#utility.yul\":37126:37135   */\n      add\n        /* \"#utility.yul\":37119:37135   */\n      swap1\n      pop\n        /* \"#utility.yul\":37154:37157   */\n      dup1\n        /* \"#utility.yul\":37151:37152   */\n      dup3\n        /* \"#utility.yul\":37148:37158   */\n      gt\n        /* \"#utility.yul\":37145:37181   */\n      iszero\n      tag_666\n      jumpi\n        /* \"#utility.yul\":37161:37179   */\n      tag_667\n      tag_430\n      jump\t// in\n    tag_667:\n        /* \"#utility.yul\":37145:37181   */\n    tag_666:\n        /* \"#utility.yul\":36997:37188   */\n      swap3\n      swap2\n      pop\n      pop\n      jump\t// out\n        /* \"#utility.yul\":37194:37374   */\n    tag_237:\n        /* \"#utility.yul\":37242:37319   */\n      0x4e487b7100000000000000000000000000000000000000000000000000000000\n        /* \"#utility.yul\":37239:37240   */\n      0x00\n        /* \"#utility.yul\":37232:37320   */\n      mstore\n        /* \"#utility.yul\":37339:37343   */\n      0x41\n        /* \"#utility.yul\":37336:37337   */\n      0x04\n        /* \"#utility.yul\":37329:37344   */\n      mstore\n        /* \"#utility.yul\":37363:37367   */\n      0x24\n        /* \"#utility.yul\":37360:37361   */\n      0x00\n        /* \"#utility.yul\":37353:37368   */\n      revert\n        /* \"#utility.yul\":37380:37560   */\n    tag_247:\n        /* \"#utility.yul\":37428:37505   */\n      0x4e487b7100000000000000000000000000000000000000000000000000000000\n        /* \"#utility.yul\":37425:37426   */\n      0x00\n        /* \"#utility.yul\":37418:37506   */\n      mstore\n        /* \"#utility.yul\":37525:37529   */\n      0x32\n        /* \"#utility.yul\":37522:37523   */\n      0x04\n        /* \"#utility.yul\":37515:37530   */\n      mstore\n        /* \"#utility.yul\":37549:37553   */\n      0x24\n        /* \"#utility.yul\":37546:37547   */\n      0x00\n        /* \"#utility.yul\":37539:37554   */\n      revert\n        /* \"#utility.yul\":37566:37760   */\n    tag_264:\n        /* \"#utility.yul\":37606:37610   */\n      0x00\n        /* \"#utility.yul\":37626:37646   */\n      tag_671\n        /* \"#utility.yul\":37644:37645   */\n      dup3\n        /* \"#utility.yul\":37626:37646   */\n      tag_429\n      jump\t// in\n    tag_671:\n        /* \"#utility.yul\":37621:37646   */\n      swap2\n      pop\n        /* \"#utility.yul\":37660:37680   */\n      tag_672\n        /* \"#utility.yul\":37678:37679   */\n      dup4\n        /* \"#utility.yul\":37660:37680   */\n      tag_429\n      jump\t// in\n    tag_672:\n        /* \"#utility.yul\":37655:37680   */\n      swap3\n      pop\n        /* \"#utility.yul\":37704:37705   */\n      dup3\n        /* \"#utility.yul\":37701:37702   */\n      dup3\n        /* \"#utility.yul\":37697:37706   */\n      sub\n        /* \"#utility.yul\":37689:37706   */\n      swap1\n      pop\n        /* \"#utility.yul\":37728:37729   */\n      dup2\n        /* \"#utility.yul\":37722:37726   */\n      dup2\n        /* \"#utility.yul\":37719:37730   */\n      gt\n        /* \"#utility.yul\":37716:37753   */\n      iszero\n      tag_673\n      jumpi\n        /* \"#utility.yul\":37733:37751   */\n      tag_674\n      tag_430\n      jump\t// in\n    tag_674:\n        /* \"#utility.yul\":37716:37753   */\n    tag_673:\n        /* \"#utility.yul\":37566:37760   */\n      swap3\n      swap2\n      pop\n      pop\n      jump\t// out\n        /* \"#utility.yul\":37766:37999   */\n    tag_271:\n        /* \"#utility.yul\":37805:37808   */\n      0x00\n        /* \"#utility.yul\":37828:37852   */\n      tag_676\n        /* \"#utility.yul\":37846:37851   */\n      dup3\n        /* \"#utility.yul\":37828:37852   */\n      tag_429\n      jump\t// in\n    tag_676:\n        /* \"#utility.yul\":37819:37852   */\n      swap2\n      pop\n        /* \"#utility.yul\":37874:37940   */\n      0xffffffffffffffffffffffffffffffffffffffffffffffffffffffffffffffff\n        /* \"#utility.yul\":37867:37872   */\n      dup3\n        /* \"#utility.yul\":37864:37941   */\n      sub\n        /* \"#utility.yul\":37861:37964   */\n      tag_677\n      jumpi\n        /* \"#utility.yul\":37944:37962   */\n      tag_678\n      tag_430\n      jump\t// in\n    tag_678:\n        /* \"#utility.yul\":37861:37964   */\n    tag_677:\n        /* \"#utility.yul\":37991:37992   */\n      0x01\n        /* \"#utility.yul\":37984:37989   */\n      dup3\n        /* \"#utility.yul\":37980:37993   */\n      add\n        /* \"#utility.yul\":37973:37993   */\n      swap1\n      pop\n        /* \"#utility.yul\":37766:37999   */\n      swap2\n      swap1\n      pop\n      jump\t// out\n        /* \"#utility.yul\":38005:38415   */\n    tag_273:\n        /* \"#utility.yul\":38045:38052   */\n      0x00\n        /* \"#utility.yul\":38068:38088   */\n      tag_680\n        /* \"#utility.yul\":38086:38087   */\n      dup3\n        /* \"#utility.yul\":38068:38088   */\n      tag_429\n      jump\t// in\n    tag_680:\n        /* \"#utility.yul\":38063:38088   */\n      swap2\n      pop\n        /* \"#utility.yul\":38102:38122   */\n      tag_681\n        /* \"#utility.yul\":38120:38121   */\n      dup4\n        /* \"#utility.yul\":38102:38122   */\n      tag_429\n      jump\t// in\n    tag_681:\n        /* \"#utility.yul\":38097:38122   */\n      swap3\n      pop\n        /* \"#utility.yul\":38157:38158   */\n      dup3\n        /* \"#utility.yul\":38154:38155   */\n      dup3\n        /* \"#utility.yul\":38150:38159   */\n      mul\n        /* \"#utility.yul\":38179:38209   */\n      tag_682\n        /* \"#utility.yul\":38197:38208   */\n      dup2\n        /* \"#utility.yul\":38179:38209   */\n      tag_429\n      jump\t// in\n    tag_682:\n        /* \"#utility.yul\":38168:38209   */\n      swap2\n      pop\n        /* \"#utility.yul\":38358:38359   */\n      dup3\n        /* \"#utility.yul\":38349:38356   */\n      dup3\n        /* \"#utility.yul\":38345:38360   */\n      div\n        /* \"#utility.yul\":38342:38343   */\n      dup5\n        /* \"#utility.yul\":38339:38361   */\n      eq\n        /* \"#utility.yul\":38319:38320   */\n      dup4\n        /* \"#utility.yul\":38312:38321   */\n      iszero\n        /* \"#utility.yul\":38292:38375   */\n      or\n        /* \"#utility.yul\":38269:38408   */\n      tag_683\n      jumpi\n        /* \"#utility.yul\":38388:38406   */\n      tag_684\n      tag_430\n      jump\t// in\n    tag_684:\n        /* \"#utility.yul\":38269:38408   */\n    tag_683:\n        /* \"#utility.yul\":38053:38415   */\n      pop\n        /* \"#utility.yul\":38005:38415   */\n      swap3\n      swap2\n      pop\n      pop\n      jump\t// out\n        /* \"#utility.yul\":38421:38601   */\n    tag_431:\n        /* \"#utility.yul\":38469:38546   */\n      0x4e487b7100000000000000000000000000000000000000000000000000000000\n        /* \"#utility.yul\":38466:38467   */\n      0x00\n        /* \"#utility.yul\":38459:38547   */\n      mstore\n        /* \"#utility.yul\":38566:38570   */\n      0x12\n        /* \"#utility.yul\":38563:38564   */\n      0x04\n        /* \"#utility.yul\":38556:38571   */\n      mstore\n        /* \"#utility.yul\":38590:38594   */\n      0x24\n        /* \"#utility.yul\":38587:38588   */\n      0x00\n        /* \"#utility.yul\":38580:38595   */\n      revert\n        /* \"#utility.yul\":38607:38783   */\n    tag_275:\n        /* \"#utility.yul\":38639:38640   */\n      0x00\n        /* \"#utility.yul\":38656:38676   */\n      tag_687\n        /* \"#utility.yul\":38674:38675   */\n      dup3\n        /* \"#utility.yul\":38656:38676   */\n      tag_429\n      jump\t// in\n    tag_687:\n        /* \"#utility.yul\":38651:38676   */\n      swap2\n      pop\n        /* \"#utility.yul\":38690:38710   */\n      tag_688\n        /* \"#utility.yul\":38708:38709   */\n      dup4\n        /* \"#utility.yul\":38690:38710   */\n      tag_429\n      jump\t// in\n    tag_688:\n        /* \"#utility.yul\":38685:38710   */\n      swap3\n      pop\n        /* \"#utility.yul\":38729:38730   */\n      dup3\n        /* \"#utility.yul\":38719:38754   */\n      tag_689\n      jumpi\n        /* \"#utility.yul\":38734:38752   */\n      tag_690\n      tag_431\n      jump\t// in\n    tag_690:\n        /* \"#utility.yul\":38719:38754   */\n    tag_689:\n        /* \"#utility.yul\":38775:38776   */\n      dup3\n        /* \"#utility.yul\":38772:38773   */\n      dup3\n        /* \"#utility.yul\":38768:38777   */\n      mod\n        /* \"#utility.yul\":38763:38777   */\n      swap1\n      pop\n        /* \"#utility.yul\":38607:38783   */\n      swap3\n      swap2\n      pop\n      pop\n      jump\t// out\n        /* \"#utility.yul\":38789:38907   */\n    tag_432:\n        /* \"#utility.yul\":38876:38900   */\n      tag_692\n        /* \"#utility.yul\":38894:38899   */\n      dup2\n        /* \"#utility.yul\":38876:38900   */\n      tag_429\n      jump\t// in\n    tag_692:\n        /* \"#utility.yul\":38871:38874   */\n      dup3\n        /* \"#utility.yul\":38864:38901   */\n      mstore\n        /* \"#utility.yul\":38789:38907   */\n      pop\n      pop\n      jump\t// out\n        /* \"#utility.yul\":38913:39245   */\n    tag_300:\n        /* \"#utility.yul\":39034:39038   */\n      0x00\n        /* \"#utility.yul\":39072:39074   */\n      0x40\n        /* \"#utility.yul\":39061:39070   */\n      dup3\n        /* \"#utility.yul\":39057:39075   */\n      add\n        /* \"#utility.yul\":39049:39075   */\n      swap1\n      pop\n        /* \"#utility.yul\":39085:39156   */\n      tag_694\n        /* \"#utility.yul\":39153:39154   */\n      0x00\n        /* \"#utility.yul\":39142:39151   */\n      dup4\n        /* \"#utility.yul\":39138:39155   */\n      add\n        /* \"#utility.yul\":39129:39135   */\n      dup6\n        /* \"#utility.yul\":39085:39156   */\n      tag_432\n      jump\t// in\n    tag_694:\n        /* \"#utility.yul\":39166:39238   */\n      tag_695\n        /* \"#utility.yul\":39234:39236   */\n      0x20\n        /* \"#utility.yul\":39223:39232   */\n      dup4\n        /* \"#utility.yul\":39219:39237   */\n      add\n        /* \"#utility.yul\":39210:39216   */\n      dup5\n        /* \"#utility.yul\":39166:39238   */\n      tag_432\n      jump\t// in\n    tag_695:\n        /* \"#utility.yul\":38913:39245   */\n      swap4\n      swap3\n      pop\n      pop\n      pop\n      jump\t// out\n        /* \"#utility.yul\":39251:39353   */\n    tag_433:\n        /* \"#utility.yul\":39293:39301   */\n      0x00\n        /* \"#utility.yul\":39340:39345   */\n      dup2\n        /* \"#utility.yul\":39337:39338   */\n      0x01\n        /* \"#utility.yul\":39333:39346   */\n      shr\n        /* \"#utility.yul\":39312:39346   */\n      swap1\n      pop\n        /* \"#utility.yul\":39251:39353   */\n      swap2\n      swap1\n      pop\n      jump\t// out\n        /* \"#utility.yul\":39359:40207   */\n    tag_434:\n        /* \"#utility.yul\":39420:39425   */\n      0x00\n        /* \"#utility.yul\":39427:39431   */\n      dup1\n        /* \"#utility.yul\":39451:39457   */\n      dup3\n        /* \"#utility.yul\":39442:39457   */\n      swap2\n      pop\n        /* \"#utility.yul\":39475:39480   */\n      dup4\n        /* \"#utility.yul\":39466:39480   */\n      swap1\n      pop\n        /* \"#utility.yul\":39489:40201   */\n    tag_698:\n        /* \"#utility.yul\":39510:39511   */\n      0x01\n        /* \"#utility.yul\":39500:39508   */\n      dup6\n        /* \"#utility.yul\":39497:39512   */\n      gt\n        /* \"#utility.yul\":39489:40201   */\n      iszero\n      tag_700\n      jumpi\n        /* \"#utility.yul\":39605:39609   */\n      dup1\n        /* \"#utility.yul\":39600:39603   */\n      dup7\n        /* \"#utility.yul\":39596:39610   */\n      div\n        /* \"#utility.yul\":39590:39594   */\n      dup2\n        /* \"#utility.yul\":39587:39611   */\n      gt\n        /* \"#utility.yul\":39584:39634   */\n      iszero\n      tag_701\n      jumpi\n        /* \"#utility.yul\":39614:39632   */\n      tag_702\n      tag_430\n      jump\t// in\n    tag_702:\n        /* \"#utility.yul\":39584:39634   */\n    tag_701:\n        /* \"#utility.yul\":39664:39665   */\n      0x01\n        /* \"#utility.yul\":39654:39662   */\n      dup6\n        /* \"#utility.yul\":39650:39666   */\n      and\n        /* \"#utility.yul\":39647:40098   */\n      iszero\n      tag_703\n      jumpi\n        /* \"#utility.yul\":40079:40083   */\n      dup1\n        /* \"#utility.yul\":40072:40077   */\n      dup3\n        /* \"#utility.yul\":40068:40084   */\n      mul\n        /* \"#utility.yul\":40059:40084   */\n      swap2\n      pop\n        /* \"#utility.yul\":39647:40098   */\n    tag_703:\n        /* \"#utility.yul\":40129:40133   */\n      dup1\n        /* \"#utility.yul\":40123:40127   */\n      dup2\n        /* \"#utility.yul\":40119:40134   */\n      mul\n        /* \"#utility.yul\":40111:40134   */\n      swap1\n      pop\n        /* \"#utility.yul\":40159:40191   */\n      tag_704\n        /* \"#utility.yul\":40182:40190   */\n      dup6\n        /* \"#utility.yul\":40159:40191   */\n      tag_433\n      jump\t// in\n    tag_704:\n        /* \"#utility.yul\":40147:40191   */\n      swap5\n      pop\n        /* \"#utility.yul\":39489:40201   */\n      jump(tag_698)\n    tag_700:\n        /* \"#utility.yul\":39359:40207   */\n      swap5\n      pop\n      swap5\n      swap3\n      pop\n      pop\n      pop\n      jump\t// out\n        /* \"#utility.yul\":40213:41286   */\n    tag_435:\n        /* \"#utility.yul\":40267:40272   */\n      0x00\n        /* \"#utility.yul\":40458:40466   */\n      dup3\n        /* \"#utility.yul\":40448:40488   */\n      tag_706\n      jumpi\n        /* \"#utility.yul\":40479:40480   */\n      0x01\n        /* \"#utility.yul\":40470:40480   */\n      swap1\n      pop\n        /* \"#utility.yul\":40481:40486   */\n      jump(tag_705)\n        /* \"#utility.yul\":40448:40488   */\n    tag_706:\n        /* \"#utility.yul\":40507:40511   */\n      dup2\n        /* \"#utility.yul\":40497:40533   */\n      tag_707\n      jumpi\n        /* \"#utility.yul\":40524:40525   */\n      0x00\n        /* \"#utility.yul\":40515:40525   */\n      swap1\n      pop\n        /* \"#utility.yul\":40526:40531   */\n      jump(tag_705)\n        /* \"#utility.yul\":40497:40533   */\n    tag_707:\n        /* \"#utility.yul\":40593:40597   */\n      dup2\n        /* \"#utility.yul\":40641:40642   */\n      0x01\n        /* \"#utility.yul\":40636:40663   */\n      dup2\n      eq\n      tag_709\n      jumpi\n        /* \"#utility.yul\":40677:40678   */\n      0x02\n        /* \"#utility.yul\":40672:40863   */\n      dup2\n      eq\n      tag_710\n      jumpi\n        /* \"#utility.yul\":40586:40863   */\n      jump(tag_708)\n        /* \"#utility.yul\":40636:40663   */\n    tag_709:\n        /* \"#utility.yul\":40654:40655   */\n      0x01\n        /* \"#utility.yul\":40645:40655   */\n      swap2\n      pop\n        /* \"#utility.yul\":40656:40661   */\n      pop\n      jump(tag_705)\n        /* \"#utility.yul\":40672:40863   */\n    tag_710:\n        /* \"#utility.yul\":40717:40720   */\n      0xff\n        /* \"#utility.yul\":40707:40715   */\n      dup5\n        /* \"#utility.yul\":40704:40721   */\n      gt\n        /* \"#utility.yul\":40701:40744   */\n      iszero\n      tag_711\n      jumpi\n        /* \"#utility.yul\":40724:40742   */\n      tag_712\n      tag_430\n      jump\t// in\n    tag_712:\n        /* \"#utility.yul\":40701:40744   */\n    tag_711:\n        /* \"#utility.yul\":40773:40781   */\n      dup4\n        /* \"#utility.yul\":40770:40771   */\n      0x02\n        /* \"#utility.yul\":40766:40782   */\n      exp\n        /* \"#utility.yul\":40757:40782   */\n      swap2\n      pop\n        /* \"#utility.yul\":40808:40811   */\n      dup5\n        /* \"#utility.yul\":40801:40806   */\n      dup3\n        /* \"#utility.yul\":40798:40812   */\n      gt\n        /* \"#utility.yul\":40795:40835   */\n      iszero\n      tag_713\n      jumpi\n        /* \"#utility.yul\":40815:40833   */\n      tag_714\n      tag_430\n      jump\t// in\n    tag_714:\n        /* \"#utility.yul\":40795:40835   */\n    tag_713:\n        /* \"#utility.yul\":40848:40853   */\n      pop\n      jump(tag_705)\n        /* \"#utility.yul\":40586:40863   */\n    tag_708:\n      pop\n        /* \"#utility.yul\":40972:40974   */\n      0x20\n        /* \"#utility.yul\":40962:40970   */\n      dup4\n        /* \"#utility.yul\":40959:40975   */\n      lt\n        /* \"#utility.yul\":40953:40956   */\n      0x0133\n        /* \"#utility.yul\":40947:40951   */\n      dup4\n        /* \"#utility.yul\":40944:40957   */\n      lt\n        /* \"#utility.yul\":40940:40976   */\n      and\n        /* \"#utility.yul\":40922:40924   */\n      0x4e\n        /* \"#utility.yul\":40912:40920   */\n      dup5\n        /* \"#utility.yul\":40909:40925   */\n      lt\n        /* \"#utility.yul\":40904:40906   */\n      0x0b\n        /* \"#utility.yul\":40898:40902   */\n      dup5\n        /* \"#utility.yul\":40895:40907   */\n      lt\n        /* \"#utility.yul\":40891:40926   */\n      and\n        /* \"#utility.yul\":40875:40986   */\n      or\n        /* \"#utility.yul\":40872:41118   */\n      iszero\n      tag_715\n      jumpi\n        /* \"#utility.yul\":41028:41036   */\n      dup3\n        /* \"#utility.yul\":41022:41026   */\n      dup3\n        /* \"#utility.yul\":41018:41037   */\n      exp\n        /* \"#utility.yul\":41009:41037   */\n      swap1\n      pop\n        /* \"#utility.yul\":41063:41066   */\n      dup4\n        /* \"#utility.yul\":41056:41061   */\n      dup2\n        /* \"#utility.yul\":41053:41067   */\n      gt\n        /* \"#utility.yul\":41050:41090   */\n      iszero\n      tag_716\n      jumpi\n        /* \"#utility.yul\":41070:41088   */\n      tag_717\n      tag_430\n      jump\t// in\n    tag_717:\n        /* \"#utility.yul\":41050:41090   */\n    tag_716:\n        /* \"#utility.yul\":41103:41108   */\n      jump(tag_705)\n        /* \"#utility.yul\":40872:41118   */\n    tag_715:\n        /* \"#utility.yul\":41143:41185   */\n      tag_718\n        /* \"#utility.yul\":41181:41184   */\n      dup5\n        /* \"#utility.yul\":41171:41179   */\n      dup5\n        /* \"#utility.yul\":41165:41169   */\n      dup5\n        /* \"#utility.yul\":41162:41163   */\n      0x01\n        /* \"#utility.yul\":41143:41185   */\n      tag_434\n      jump\t// in\n    tag_718:\n        /* \"#utility.yul\":41128:41185   */\n      swap3\n      pop\n      swap1\n      pop\n        /* \"#utility.yul\":41217:41221   */\n      dup2\n        /* \"#utility.yul\":41212:41215   */\n      dup5\n        /* \"#utility.yul\":41208:41222   */\n      div\n        /* \"#utility.yul\":41201:41206   */\n      dup2\n        /* \"#utility.yul\":41198:41223   */\n      gt\n        /* \"#utility.yul\":41195:41246   */\n      iszero\n      tag_719\n      jumpi\n        /* \"#utility.yul\":41226:41244   */\n      tag_720\n      tag_430\n      jump\t// in\n    tag_720:\n        /* \"#utility.yul\":41195:41246   */\n    tag_719:\n        /* \"#utility.yul\":41275:41279   */\n      dup2\n        /* \"#utility.yul\":41268:41273   */\n      dup2\n        /* \"#utility.yul\":41264:41280   */\n      mul\n        /* \"#utility.yul\":41255:41280   */\n      swap1\n      pop\n        /* \"#utility.yul\":40213:41286   */\n    tag_705:\n      swap4\n      swap3\n      pop\n      pop\n      pop\n      jump\t// out\n        /* \"#utility.yul\":41292:41577   */\n    tag_317:\n        /* \"#utility.yul\":41352:41357   */\n      0x00\n        /* \"#utility.yul\":41376:41399   */\n      tag_722\n        /* \"#utility.yul\":41394:41398   */\n      dup3\n        /* \"#utility.yul\":41376:41399   */\n      tag_429\n      jump\t// in\n    tag_722:\n        /* \"#utility.yul\":41368:41399   */\n      swap2\n      pop\n        /* \"#utility.yul\":41420:41447   */\n      tag_723\n        /* \"#utility.yul\":41438:41446   */\n      dup4\n        /* \"#utility.yul\":41420:41447   */\n      tag_429\n      jump\t// in\n    tag_723:\n        /* \"#utility.yul\":41408:41447   */\n      swap3\n      pop\n        /* \"#utility.yul\":41466:41570   */\n      tag_724\n        /* \"#utility.yul\":41503:41569   */\n      0xffffffffffffffffffffffffffffffffffffffffffffffffffffffffffffffff\n        /* \"#utility.yul\":41493:41501   */\n      dup5\n        /* \"#utility.yul\":41487:41491   */\n      dup5\n        /* \"#utility.yul\":41466:41570   */\n      tag_435\n      jump\t// in\n    tag_724:\n        /* \"#utility.yul\":41457:41570   */\n      swap1\n      pop\n        /* \"#utility.yul\":41292:41577   */\n      swap3\n      swap2\n      pop\n      pop\n      jump\t// out\n        /* \"#utility.yul\":41583:41659   */\n    tag_436:\n        /* \"#utility.yul\":41619:41626   */\n      0x00\n        /* \"#utility.yul\":41648:41653   */\n      dup2\n        /* \"#utility.yul\":41637:41653   */\n      swap1\n      pop\n        /* \"#utility.yul\":41583:41659   */\n      swap2\n      swap1\n      pop\n      jump\t// out\n        /* \"#utility.yul\":41665:42037   */\n    tag_320:\n        /* \"#utility.yul\":41704:41708   */\n      0x00\n        /* \"#utility.yul\":41724:41743   */\n      tag_727\n        /* \"#utility.yul\":41741:41742   */\n      dup3\n        /* \"#utility.yul\":41724:41743   */\n      tag_436\n      jump\t// in\n    tag_727:\n        /* \"#utility.yul\":41719:41743   */\n      swap2\n      pop\n        /* \"#utility.yul\":41757:41776   */\n      tag_728\n        /* \"#utility.yul\":41774:41775   */\n      dup4\n        /* \"#utility.yul\":41757:41776   */\n      tag_436\n      jump\t// in\n    tag_728:\n        /* \"#utility.yul\":41752:41776   */\n      swap3\n      pop\n        /* \"#utility.yul\":41800:41801   */\n      dup3\n        /* \"#utility.yul\":41797:41798   */\n      dup3\n        /* \"#utility.yul\":41793:41802   */\n      sub\n        /* \"#utility.yul\":41785:41802   */\n      swap1\n      pop\n        /* \"#utility.yul\":41994:41995   */\n      dup2\n        /* \"#utility.yul\":41988:41992   */\n      dup2\n        /* \"#utility.yul\":41984:41996   */\n      slt\n        /* \"#utility.yul\":41980:41981   */\n      0x00\n        /* \"#utility.yul\":41977:41978   */\n      dup5\n        /* \"#utility.yul\":41973:41982   */\n      slt\n        /* \"#utility.yul\":41969:41997   */\n      and\n        /* \"#utility.yul\":41952:41953   */\n      dup3\n        /* \"#utility.yul\":41946:41950   */\n      dup3\n        /* \"#utility.yul\":41942:41954   */\n      sgt\n        /* \"#utility.yul\":41937:41938   */\n      0x00\n        /* \"#utility.yul\":41934:41935   */\n      dup6\n        /* \"#utility.yul\":41930:41939   */\n      slt\n        /* \"#utility.yul\":41923:41940   */\n      iszero\n        /* \"#utility.yul\":41919:41955   */\n      and\n        /* \"#utility.yul\":41903:42007   */\n      or\n        /* \"#utility.yul\":41900:42030   */\n      iszero\n      tag_729\n      jumpi\n        /* \"#utility.yul\":42010:42028   */\n      tag_730\n      tag_430\n      jump\t// in\n    tag_730:\n        /* \"#utility.yul\":41900:42030   */\n    tag_729:\n        /* \"#utility.yul\":41665:42037   */\n      swap3\n      swap2\n      pop\n      pop\n      jump\t// out\n    stop\n    data_34d1d58192761e6d0e8d002725ad91f448a977fb4651ba0ca9a9b355f56b36b9 633568363670333563706a6d6771626164646d3671726a6665316f6e3473726b656c7237657533706638\n    data_5ebffa5fa64d4dae90899395a7ef54698bee770e38417122e0109c098ec79afe 4335474d324f42314335474d324f42314335474d324f42314335474d324f42314335474d324f42314335474d324f423143354747\n    data_62d2a17e186e7e56c59b86326e3f4c5ffbaf96ee7a3d2325b826cc6f3cd24c61 2062737434686c6a653772306f38633870346f38713538326c6d30656a6d697174076d61746f6b656e0378797a00\n    data_6f15a2d45d0418dfa057ad693315a4cddb0c63f303b9b0b7e9ac6fc26be04652 32323334353637383930313233343536373839303132333435363738393031323334\n    data_7bbc0059a392ec8971d4484557e4297b495362b69eaaf8bb749208e098bcec20 31323334353637383930313233343536373839303132333435363738393031323334\n    data_9e82410dbf01e63aa72c1e18aee3deb28d15751fdce22e55714ad62f7fde606a 00010203040506070809ffffffffffffff0a0b0c0d0e0f101112131415161718191a1b1c1d1e1fffffffffffffffffffff0a0b0c0d0e0f101112131415161718191a1b1c1d1e1f\n    data_a44caaa63f000e9374f36c386ceff0293879a6a3cfdf007f107c36374d8fb4c8 30313233343536373839303132333435303132333435363738393031323334356162\n    data_d5b249cb1eecdd5aaa076db77b0d4e5d8c4e13c4e59ba1ed07a07fd94a75d55a 433548363650333543504a4d4751424144444d3651524a4645314f4e3453524b454c5237455533504638\n    data_e5ebd035fe149552211855aff3aa7f3c88e80079dc15e37a7006aa14559ecb7f 30313233343536373839303132333435303132333435363738393031323334356161\n\n    auxdata: 0xa264697066735822122022135d1fc7fcd2d735fa383dbea633b07b2c76442dd0639e257023d7576149a564736f6c63430008140033\n}\n",
				"bytecode": {
					"linkReferences": {},
					"object": "608060405234801561001057600080fd5b50613e0c806100206000396000f3fe608060405234801561001057600080fd5b50600436106100a85760003560e01c8063809a617311610071578063809a6173146100df57806383d31df6146100e9578063878ab4ae146100f3578063c80094b3146100fd578063e77975cf14610107578063f3cbda4614610111576100a8565b80625aa6f9146100ad578063098e6232146100b75780631b8e1b81146100c15780632e72f9a9146100cb578063673dcc73146100d5575b600080fd5b6100b561011b565b005b6100bf6101d9565b005b6100c96104f4565b005b6100d361058a565b005b6100dd6106a8565b005b6100e7610892565b005b6100f1610e2c565b005b6100fb61154c565b005b6101056119c2565b005b61010f611e6b565b005b610119611f1a565b005b7f62636465666768696a6b6c6d6e6f70717273747500000000000000000000000060001b61018860016040518060400160405280601681526020017f6162636465666768696a6b6c6d6e6f7071727374757600000000000000000000815250611fac90919063ffffffff16565b6bffffffffffffffffffffffff1916146101d7576040517f08c379a00000000000000000000000000000000000000000000000000000000081526004016101ce90612799565b60405180910390fd5b565b604051806020016040528060008152508051906020012061023b6000806040518060400160405280600581526020017f68656c6c6f000000000000000000000000000000000000000000000000000000815250611ff99092919063ffffffff16565b8051906020012014610282576040517f08c379a000000000000000000000000000000000000000000000000000000000815260040161027990612805565b60405180910390fd5b6040518060400160405280600481526020017f68656c6c000000000000000000000000000000000000000000000000000000008152508051906020012061030b600060046040518060400160405280600581526020017f68656c6c6f000000000000000000000000000000000000000000000000000000815250611ff99092919063ffffffff16565b8051906020012014610352576040517f08c379a000000000000000000000000000000000000000000000000000000000815260040161034990612871565b60405180910390fd5b6040518060400160405280600481526020017f656c6c6f00000000000000000000000000000000000000000000000000000000815250805190602001206103db600160046040518060400160405280600581526020017f68656c6c6f000000000000000000000000000000000000000000000000000000815250611ff99092919063ffffffff16565b8051906020012014610422576040517f08c379a000000000000000000000000000000000000000000000000000000000815260040161041990612871565b60405180910390fd5b6040518060400160405280600581526020017f68656c6c6f000000000000000000000000000000000000000000000000000000815250805190602001206104ab600060056040518060400160405280600581526020017f68656c6c6f000000000000000000000000000000000000000000000000000000815250611ff99092919063ffffffff16565b80519060200120146104f2576040517f08c379a00000000000000000000000000000000000000000000000000000000081526004016104e9906128dd565b60405180910390fd5b565b636263646561054260016040518060400160405280600581526020017f616263646500000000000000000000000000000000000000000000000000000081525061208e90919063ffffffff16565b63ffffffff1614610588576040517f08c379a000000000000000000000000000000000000000000000000000000000815260040161057f90612949565b60405180910390fd5b565b60616105d560006040518060400160405280600181526020017f61000000000000000000000000000000000000000000000000000000000000008152506120bf90919063ffffffff16565b60ff1614610618576040517f08c379a000000000000000000000000000000000000000000000000000000000815260040161060f906129b5565b60405180910390fd5b606161066360016040518060400160405280600281526020017f62610000000000000000000000000000000000000000000000000000000000008152506120bf90919063ffffffff16565b60ff16146106a6576040517f08c379a000000000000000000000000000000000000000000000000000000000815260040161069d906129b5565b60405180910390fd5b565b7fc5d2460186f7233c927e7db2dcc703c0e500b653ca82273b7bfad8045d85a47060001b6106f1600080604051806020016040528060008152506120ea9092919063ffffffff16565b14610731576040517f08c379a000000000000000000000000000000000000000000000000000000000815260040161072890612a21565b60405180910390fd5b7f41b1a0649752af1b28b3dc29a1556eee781e4a4c3a1f7f53f90fa834de098c4d60001b6107a1600060036040518060400160405280600381526020017f666f6f00000000000000000000000000000000000000000000000000000000008152506120ea9092919063ffffffff16565b146107e1576040517f08c379a00000000000000000000000000000000000000000000000000000000081526004016107d890612a8d565b60405180910390fd5b7fc5d2460186f7233c927e7db2dcc703c0e500b653ca82273b7bfad8045d85a47060001b6108506000806040518060400160405280600381526020017f666f6f00000000000000000000000000000000000000000000000000000000008152506120ea9092919063ffffffff16565b14610890576040517f08c379a000000000000000000000000000000000000000000000000000000000815260040161088790612a21565b60405180910390fd5b565b6001151560006109156040518060400160405280600181526020017f61000000000000000000000000000000000000000000000000000000000000008152506040518060400160405280600181526020017f610000000000000000000000000000000000000000000000000000000000000081525061211690919063ffffffff16565b14151514610958576040517f08c379a000000000000000000000000000000000000000000000000000000000815260040161094f90612af9565b60405180910390fd5b6001151560006109db6040518060400160405280600181526020017f62000000000000000000000000000000000000000000000000000000000000008152506040518060400160405280600181526020017f610000000000000000000000000000000000000000000000000000000000000081525061211690919063ffffffff16565b12151514610a1e576040517f08c379a0000000000000000000000000000000000000000000000000000000008152600401610a1590612b8b565b60405180910390fd5b600115156000610aa16040518060400160405280600181526020017f61000000000000000000000000000000000000000000000000000000000000008152506040518060400160405280600181526020017f620000000000000000000000000000000000000000000000000000000000000081525061211690919063ffffffff16565b13151514610ae4576040517f08c379a0000000000000000000000000000000000000000000000000000000008152600401610adb90612b8b565b60405180910390fd5b600115156000610b676040518060400160405280600281526020017f61620000000000000000000000000000000000000000000000000000000000008152506040518060400160405280600281526020017f616100000000000000000000000000000000000000000000000000000000000081525061211690919063ffffffff16565b12151514610baa576040517f08c379a0000000000000000000000000000000000000000000000000000000008152600401610ba190612c1d565b60405180910390fd5b600115156000610c2d6040518060400160405280600281526020017f61610000000000000000000000000000000000000000000000000000000000008152506040518060400160405280600181526020017f610000000000000000000000000000000000000000000000000000000000000081525061211690919063ffffffff16565b12151514610c70576040517f08c379a0000000000000000000000000000000000000000000000000000000008152600401610c6790612caf565b60405180910390fd5b600115156000610cf36040518060400160405280600181526020017f61000000000000000000000000000000000000000000000000000000000000008152506040518060400160405280600281526020017f616100000000000000000000000000000000000000000000000000000000000081525061211690919063ffffffff16565b13151514610d36576040517f08c379a0000000000000000000000000000000000000000000000000000000008152600401610d2d90612caf565b60405180910390fd5b6000604051806060016040528060228152602001613d00602291399050600115156000610d6c838461211690919063ffffffff16565b14151514610daf576040517f08c379a0000000000000000000000000000000000000000000000000000000008152600401610da690612d1b565b60405180910390fd5b6000604051806060016040528060228152602001613cde602291399050600115156000610de5838561211690919063ffffffff16565b12151514610e28576040517f08c379a0000000000000000000000000000000000000000000000000000000008152600401610e1f90612dad565b60405180910390fd5b5050565b7f61000000000000000000000000000000000000000000000000000000000000007effffffffffffffffffffffffffffffffffffffffffffffffffffffffffffff1916610ebb600060026040518060400160405280600281526020017f43340000000000000000000000000000000000000000000000000000000000008152506121329092919063ffffffff16565b14610efb576040517f08c379a0000000000000000000000000000000000000000000000000000000008152600401610ef290612e19565b60405180910390fd5b7f61610000000000000000000000000000000000000000000000000000000000007dffffffffffffffffffffffffffffffffffffffffffffffffffffffffffff1916610f89600060046040518060400160405280600481526020017f43354747000000000000000000000000000000000000000000000000000000008152506121329092919063ffffffff16565b14610fc9576040517f08c379a0000000000000000000000000000000000000000000000000000000008152600401610fc090612e85565b60405180910390fd5b7f61616100000000000000000000000000000000000000000000000000000000007cffffffffffffffffffffffffffffffffffffffffffffffffffffffffff1916611056600060056040518060400160405280600581526020017f4335474d320000000000000000000000000000000000000000000000000000008152506121329092919063ffffffff16565b14611096576040517f08c379a000000000000000000000000000000000000000000000000000000000815260040161108d90612ef1565b60405180910390fd5b7f61616161000000000000000000000000000000000000000000000000000000007bffffffffffffffffffffffffffffffffffffffffffffffffffffffff1916611122600060076040518060400160405280600781526020017f4335474d324f38000000000000000000000000000000000000000000000000008152506121329092919063ffffffff16565b14611162576040517f08c379a000000000000000000000000000000000000000000000000000000000815260040161115990612f5d565b60405180910390fd5b7f61616161610000000000000000000000000000000000000000000000000000007affffffffffffffffffffffffffffffffffffffffffffffffffffff19166111ed600060086040518060400160405280600881526020017f4335474d324f42310000000000000000000000000000000000000000000000008152506121329092919063ffffffff16565b1461122d576040517f08c379a000000000000000000000000000000000000000000000000000000000815260040161122490612fc9565b60405180910390fd5b7f61616161610000000000000000000000000000000000000000000000000000007affffffffffffffffffffffffffffffffffffffffffffffffffffff19166112b8600060086040518060400160405280600881526020017f6335676d324f62310000000000000000000000000000000000000000000000008152506121329092919063ffffffff16565b146112f8576040517f08c379a00000000000000000000000000000000000000000000000000000000081526004016112ef90613035565b60405180910390fd5b7f6162636465666768696a6b6c6d6e6f707172737475767778797a00000000000065ffffffffffff19166113516000602a6040518060600160405280602a8152602001613d8b602a91396121329092919063ffffffff16565b14611391576040517f08c379a0000000000000000000000000000000000000000000000000000000008152600401611388906130a1565b60405180910390fd5b7f6162636465666768696a6b6c6d6e6f707172737475767778797a00000000000065ffffffffffff19166113ea6000602a6040518060600160405280602a8152602001613c52602a91396121329092919063ffffffff16565b1461142a576040517f08c379a00000000000000000000000000000000000000000000000000000000081526004016114219061310d565b60405180910390fd5b7f616161616161616161616161616161616161616161616161616161616161616161147a60006034604051806060016040528060348152602001613c7c603491396121329092919063ffffffff16565b146114ba576040517f08c379a00000000000000000000000000000000000000000000000000000000081526004016114b190613179565b60405180910390fd5b7f5f3a48d66e3ec18431192611a2a055b01d3b4b5d00000000000000000000000061150a600160206040518060600160405280602e8152602001613cb0602e91396121329092919063ffffffff16565b1461154a576040517f08c379a0000000000000000000000000000000000000000000000000000000008152600401611541906131e5565b60405180910390fd5b565b6001151560006115da6001806040518060400160405280600581526020017f7878627878000000000000000000000000000000000000000000000000000000815250600260016040518060400160405280600381526020017f78617800000000000000000000000000000000000000000000000000000000008152506123c89095949392919063ffffffff16565b1215151461161d576040517f08c379a000000000000000000000000000000000000000000000000000000000815260040161161490613251565b60405180910390fd5b6001151560006116aa6001806040518060400160405280600681526020017f78786162787800000000000000000000000000000000000000000000000000008152506002806040518060400160405280600381526020017f78617800000000000000000000000000000000000000000000000000000000008152506123c89095949392919063ffffffff16565b121515146116ed576040517f08c379a00000000000000000000000000000000000000000000000000000000081526004016116e4906132bd565b60405180910390fd5b60011515600061177b6001806040518060400160405280600581526020017f7878617878000000000000000000000000000000000000000000000000000000815250600260016040518060400160405280600381526020017f78617800000000000000000000000000000000000000000000000000000000008152506123c89095949392919063ffffffff16565b141515146117be576040517f08c379a00000000000000000000000000000000000000000000000000000000081526004016117b59061334f565b60405180910390fd5b60011515600061181360006021604051806060016040528060228152602001613db56022913960006021604051806060016040528060228152602001613d69602291396123c89095949392919063ffffffff16565b14151514611856576040517f08c379a000000000000000000000000000000000000000000000000000000000815260040161184d90613407565b60405180910390fd5b6001151560006118ab60006021604051806060016040528060228152602001613db56022913960006022604051806060016040528060228152602001613d69602291396123c89095949392919063ffffffff16565b121515146118ee576040517f08c379a00000000000000000000000000000000000000000000000000000000081526004016118e590613499565b60405180910390fd5b60011515600061197d600060206040518060400160405280602081526020017f3031323334353637383930313233343530313233343536373839303132333462815250600060206040518060400160405280602081526020017f30313233343536373839303132333435303132333435363738393031323334618152506123c89095949392919063ffffffff16565b121515146119c0576040517f08c379a00000000000000000000000000000000000000000000000000000000081526004016119b79061352b565b60405180910390fd5b565b60011515611a436040518060400160405280600581526020017f68656c6c6f0000000000000000000000000000000000000000000000000000008152506040518060400160405280600581526020017f68656c6c6f0000000000000000000000000000000000000000000000000000008152506125c690919063ffffffff16565b151514611a85576040517f08c379a0000000000000000000000000000000000000000000000000000000008152600401611a7c90613597565b60405180910390fd5b60001515611b066040518060400160405280600781526020017f676f6f64627965000000000000000000000000000000000000000000000000008152506040518060400160405280600581526020017f68656c6c6f0000000000000000000000000000000000000000000000000000008152506125c690919063ffffffff16565b151514611b48576040517f08c379a0000000000000000000000000000000000000000000000000000000008152600401611b3f90613603565b60405180910390fd5b60011515611bcc60016040518060400160405280600481526020017f656c6c6f000000000000000000000000000000000000000000000000000000008152506040518060400160405280600581526020017f68656c6c6f0000000000000000000000000000000000000000000000000000008152506125ed9092919063ffffffff16565b151514611c0e576040517f08c379a0000000000000000000000000000000000000000000000000000000008152600401611c059061366f565b60405180910390fd5b60011515611c9860016040518060400160405280600581526020017f6a656c6c6f000000000000000000000000000000000000000000000000000000815250600160046040518060400160405280600581526020017f68656c6c6f00000000000000000000000000000000000000000000000000000081525061261f90949392919063ffffffff16565b151514611cda576040517f08c379a0000000000000000000000000000000000000000000000000000000008152600401611cd1906136db565b60405180910390fd5b60011515611d6160016040518060400160405280600881526020017f61626368656c6c6f00000000000000000000000000000000000000000000000081525060036040518060400160405280600681526020017f7a68656c6c6f0000000000000000000000000000000000000000000000000000815250612643909392919063ffffffff16565b151514611da3576040517f08c379a0000000000000000000000000000000000000000000000000000000008152600401611d9a90612c1d565b60405180910390fd5b60001515611e2760006040518060400160405280600881526020017f30783031303230330000000000000000000000000000000000000000000000008152506040518060400160405280600c81526020017f30783031303230333030303000000000000000000000000000000000000000008152506125ed9092919063ffffffff16565b151514611e69576040517f08c379a0000000000000000000000000000000000000000000000000000000008152600401611e609061376d565b60405180910390fd5b565b7f303132333435363738396162636465663031323334353637383961626364656660001b611ed860006040518060400160405280602081526020017f303132333435363738396162636465663031323334353637383961626364656681525061267e90919063ffffffff16565b14611f18576040517f08c379a0000000000000000000000000000000000000000000000000000000008152600401611f0f906137d9565b60405180910390fd5b565b616263611f6660016040518060400160405280600381526020017f61626300000000000000000000000000000000000000000000000000000000008152506126a990919063ffffffff16565b61ffff1614611faa576040517f08c379a0000000000000000000000000000000000000000000000000000000008152600401611fa190613845565b60405180910390fd5b565b60008251601483611fbd919061389e565b1115611fc857600080fd5b7fffffffffffffffffffffffffffffffffffffffff0000000000000000000000008260208501015116905092915050565b606083518284612009919061389e565b111561201457600080fd5b60008267ffffffffffffffff8111156120305761202f6138d2565b5b6040519080825280601f01601f1916602001820160405280156120625781602001600182028036833780820191505090505b50905060008060208301915085602088010190506120818282876126d8565b8293505050509392505050565b6000825160048361209f919061389e565b11156120aa57600080fd5b63ffffffff8260048501015116905092915050565b60008282815181106120d4576120d3613901565b5b602001015160f81c60f81b60f81c905092915050565b6000835182846120fa919061389e565b111561210557600080fd5b818360208601012090509392505050565b600061212a836000855185600087516123c8565b905092915050565b6000603482111561214257600080fd5b60008080600090505b8481101561227c576000878288612162919061389e565b8151811061217357612172613901565b5b602001015160f81c60f81b9050603060f81b817effffffffffffffffffffffffffffffffffffffffffffffffffffffffffffff1916101580156121dc5750607a60f81b817effffffffffffffffffffffffffffffffffffffffffffffffffffffffffffff191611155b6121e557600080fd5b604051806080016040528060478152602001613d226047913960308260f81c60ff166122119190613930565b8151811061222257612221613901565b5b602001015160f81c60f81b60f81c925060208360ff16111561224357600080fd5b6001866122509190613930565b820361225c575061227c565b8260ff16600585901b17935050808061227490613964565b91505061214b565b50600060058561228c91906139ac565b9050600060088661229d9190613a1d565b036122b3578160ff16600584901b1792506123a8565b60026008866122c29190613a1d565b036122ee5760028260ff16901c60ff16600384901b1792506002816122e79190613930565b90506123a7565b60046008866122fd9190613a1d565b036123295760048260ff16901c60ff16600184901b1792506004816123229190613930565b90506123a6565b60056008866123389190613a1d565b036123645760018260ff16901c60ff16600484901b17925060018161235d9190613930565b90506123a5565b60076008866123739190613a1d565b0361239f5760038260ff16901c60ff16600284901b1792506003816123989190613930565b90506123a4565b600080fd5b5b5b5b5b806101006123b69190613930565b83901b60001b93505050509392505050565b6000865185876123d8919061389e565b11156124295784866123ea919061389e565b87516040517f8a3c1cfb000000000000000000000000000000000000000000000000000000008152600401612420929190613a5d565b60405180910390fd5b83518284612437919061389e565b1115612488578183612449919061389e565b84516040517f8a3c1cfb00000000000000000000000000000000000000000000000000000000815260040161247f929190613a5d565b60405180910390fd5b600085905085831015612499578290505b600080602089018a019150602086018701905060005b838110156125a9576000808451915083519050808214612575576000602084886124d99190613930565b10612506577fffffffffffffffffffffffffffffffffffffffffffffffffffffffffffffffff9050612546565b600187602086612516919061389e565b6125209190613930565b600861252c91906139ac565b60026125389190613bb9565b6125429190613930565b1990505b60008183168285166125589190613c0e565b9050600081146125725780985050505050505050506125bc565b50505b602085612582919061389e565b9450602084612591919061389e565b935050506020816125a2919061389e565b90506124af565b5084886125b69190613c0e565b93505050505b9695505050505050565b6000815183511480156125e557506125e4836000846000875161261f565b5b905092915050565b60008151836125fc919061389e565b845114801561261657506126158484846000865161261f565b5b90509392505050565b600061262c8484846120ea565b6126378787856120ea565b14905095945050505050565b600061265c83838486516126579190613930565b6120ea565b612673868687895161266e9190613930565b6120ea565b149050949350505050565b6000825160208361268f919061389e565b111561269a57600080fd5b81602084010151905092915050565b600082516002836126ba919061389e565b11156126c557600080fd5b61ffff8260028501015116905092915050565b5b6020811061271757815183526020836126f2919061389e565b9250602082612701919061389e565b91506020816127109190613930565b90506126d9565b60006001826020036101000a0390508019835116818551168181178652505050505050565b600082825260208201905092915050565b7f7265616442797465733230000000000000000000000000000000000000000000600082015250565b6000612783600b8361273c565b915061278e8261274d565b602082019050919050565b600060208201905081810360008301526127b281612776565b9050919050565b7f436f707920302062797465730000000000000000000000000000000000000000600082015250565b60006127ef600c8361273c565b91506127fa826127b9565b602082019050919050565b6000602082019050818103600083015261281e816127e2565b9050919050565b7f436f707920737562737472696e67000000000000000000000000000000000000600082015250565b600061285b600e8361273c565b915061286682612825565b602082019050919050565b6000602082019050818103600083015261288a8161284e565b9050919050565b7f436f70792077686f6c6520737472696e67000000000000000000000000000000600082015250565b60006128c760118361273c565b91506128d282612891565b602082019050919050565b600060208201905081810360008301526128f6816128ba565b9050919050565b7f526561642075696e742033320000000000000000000000000000000000000000600082015250565b6000612933600c8361273c565b915061293e826128fd565b602082019050919050565b6000602082019050818103600083015261296281612926565b9050919050565b7f61203d3d20307836310000000000000000000000000000000000000000000000600082015250565b600061299f60098361273c565b91506129aa82612969565b602082019050919050565b600060208201905081810360008301526129ce81612992565b9050919050565b7f496e636f72726563742068617368206f6620656d70747920737472696e670000600082015250565b6000612a0b601e8361273c565b9150612a16826129d5565b602082019050919050565b60006020820190508181036000830152612a3a816129fe565b9050919050565b7f496e636f72726563742068617368206f662027666f6f27000000000000000000600082015250565b6000612a7760178361273c565b9150612a8282612a41565b602082019050919050565b60006020820190508181036000830152612aa681612a6a565b9050919050565b7f436f6d7061726520657175616c00000000000000000000000000000000000000600082015250565b6000612ae3600d8361273c565b9150612aee82612aad565b602082019050919050565b60006020820190508181036000830152612b1281612ad6565b9050919050565b7f436f6d7061726520646966666572656e742076616c756520776974682073616d60008201527f65206c656e677468000000000000000000000000000000000000000000000000602082015250565b6000612b7560288361273c565b9150612b8082612b19565b604082019050919050565b60006020820190508181036000830152612ba481612b68565b9050919050565b7f436f6d7061726520646966666572656e742076616c75652077697468206d756c60008201527f7469706c65206c656e6774680000000000000000000000000000000000000000602082015250565b6000612c07602c8361273c565b9150612c1282612bab565b604082019050919050565b60006020820190508181036000830152612c3681612bfa565b9050919050565b7f436f6d7061726520646966666572656e742076616c756520776974682064696660008201527f666572656e74206c656e67746800000000000000000000000000000000000000602082015250565b6000612c99602d8361273c565b9150612ca482612c3d565b604082019050919050565b60006020820190508181036000830152612cc881612c8c565b9050919050565b7f436f6d7061726573206d6f7265207468616e2033322062797465732063686172600082015250565b6000612d0560208361273c565b9150612d1082612ccf565b602082019050919050565b60006020820190508181036000830152612d3481612cf8565b9050919050565b7f436f6d70617265206c6f6e672063686172207769746820646966666572656e6360008201527f6520617420737461727400000000000000000000000000000000000000000000602082015250565b6000612d97602a8361273c565b9150612da282612d3b565b604082019050919050565b60006020820190508181036000830152612dc681612d8a565b9050919050565b7f4465636f64652027612700000000000000000000000000000000000000000000600082015250565b6000612e03600a8361273c565b9150612e0e82612dcd565b602082019050919050565b60006020820190508181036000830152612e3281612df6565b9050919050565b7f4465636f64652027616127000000000000000000000000000000000000000000600082015250565b6000612e6f600b8361273c565b9150612e7a82612e39565b602082019050919050565b60006020820190508181036000830152612e9e81612e62565b9050919050565b7f4465636f64652027616161270000000000000000000000000000000000000000600082015250565b6000612edb600c8361273c565b9150612ee682612ea5565b602082019050919050565b60006020820190508181036000830152612f0a81612ece565b9050919050565b7f4465636f64652027616161612700000000000000000000000000000000000000600082015250565b6000612f47600d8361273c565b9150612f5282612f11565b602082019050919050565b60006020820190508181036000830152612f7681612f3a565b9050919050565b7f4465636f64652027616161616127000000000000000000000000000000000000600082015250565b6000612fb3600e8361273c565b9150612fbe82612f7d565b602082019050919050565b60006020820190508181036000830152612fe281612fa6565b9050919050565b7f4465636f64652027616161616127206c6f776572636173650000000000000000600082015250565b600061301f60188361273c565b915061302a82612fe9565b602082019050919050565b6000602082019050818103600083015261304e81613012565b9050919050565b7f4465636f646520616c7068616265740000000000000000000000000000000000600082015250565b600061308b600f8361273c565b915061309682613055565b602082019050919050565b600060208201905081810360008301526130ba8161307e565b9050919050565b7f4465636f646520616c706861626574206c6f7765726361736500000000000000600082015250565b60006130f760198361273c565b9150613102826130c1565b602082019050919050565b60006020820190508181036000830152613126816130ea565b9050919050565b7f4465636f64652033322a27612700000000000000000000000000000000000000600082015250565b6000613163600d8361273c565b915061316e8261312d565b602082019050919050565b6000602082019050818103600083015261319281613156565b9050919050565b7f4465636f6465207265616c206279746573333268657800000000000000000000600082015250565b60006131cf60168361273c565b91506131da82613199565b602082019050919050565b600060208201905081810360008301526131fe816131c2565b9050919050565b7f436f6d706172652073616d65206c656e67746800000000000000000000000000600082015250565b600061323b60138361273c565b915061324682613205565b602082019050919050565b6000602082019050818103600083015261326a8161322e565b9050919050565b7f436f6d7061726520646966666572656e74206c656e6774680000000000000000600082015250565b60006132a760188361273c565b91506132b282613271565b602082019050919050565b600060208201905081810360008301526132d68161329a565b9050919050565b7f436f6d706172652073616d65207769746820646966666572656e74206f66667360008201527f6574000000000000000000000000000000000000000000000000000000000000602082015250565b600061333960228361273c565b9150613344826132dd565b604082019050919050565b600060208201905081810360008301526133688161332c565b9050919050565b7f436f6d7061726520646966666572656e74206c6f6e6720737472696e6773207360008201527f616d65206c656e67746820736d616c6c6572207061727469616c206c656e677460208201527f68207768696368206d75737420626520657175616c0000000000000000000000604082015250565b60006133f160558361273c565b91506133fc8261336f565b606082019050919050565b60006020820190508181036000830152613420816133e4565b9050919050565b7f436f6d70617265206c6f6e6720737472696e67732073616d65206c656e67746860008201527f20646966666572656e74207061727469616c206c656e67746800000000000000602082015250565b600061348360398361273c565b915061348e82613427565b604082019050919050565b600060208201905081810360008301526134b281613476565b9050919050565b7f436f6d7061726520737472696e67732065786163746c7920333220636861726160008201527f6374657273206c6f6e6700000000000000000000000000000000000000000000602082015250565b6000613515602a8361273c565b9150613520826134b9565b604082019050919050565b6000602082019050818103600083015261354481613508565b9050919050565b7f537472696e6720657175616c6974790000000000000000000000000000000000600082015250565b6000613581600f8361273c565b915061358c8261354b565b602082019050919050565b600060208201905081810360008301526135b081613574565b9050919050565b7f537472696e6720696e657175616c697479000000000000000000000000000000600082015250565b60006135ed60118361273c565b91506135f8826135b7565b602082019050919050565b6000602082019050818103600083015261361c816135e0565b9050919050565b7f537562737472696e6720746f20737472696e6720657175616c69747900000000600082015250565b6000613659601c8361273c565b915061366482613623565b602082019050919050565b600060208201905081810360008301526136888161364c565b9050919050565b7f537562737472696e6720746f20737562737472696e6720657175616c69747900600082015250565b60006136c5601f8361273c565b91506136d08261368f565b602082019050919050565b600060208201905081810360008301526136f4816136b8565b9050919050565b7f436f6d706172652077697468206f666673657420616e6420747261696c696e6760008201527f2062797465730000000000000000000000000000000000000000000000000000602082015250565b600061375760268361273c565b9150613762826136fb565b604082019050919050565b600060208201905081810360008301526137868161374a565b9050919050565b7f7265616442797465733332000000000000000000000000000000000000000000600082015250565b60006137c3600b8361273c565b91506137ce8261378d565b602082019050919050565b600060208201905081810360008301526137f2816137b6565b9050919050565b7f526561642075696e742031360000000000000000000000000000000000000000600082015250565b600061382f600c8361273c565b915061383a826137f9565b602082019050919050565b6000602082019050818103600083015261385e81613822565b9050919050565b6000819050919050565b7f4e487b7100000000000000000000000000000000000000000000000000000000600052601160045260246000fd5b60006138a982613865565b91506138b483613865565b92508282019050808211156138cc576138cb61386f565b5b92915050565b7f4e487b7100000000000000000000000000000000000000000000000000000000600052604160045260246000fd5b7f4e487b7100000000000000000000000000000000000000000000000000000000600052603260045260246000fd5b600061393b82613865565b915061394683613865565b925082820390508181111561395e5761395d61386f565b5b92915050565b600061396f82613865565b91507fffffffffffffffffffffffffffffffffffffffffffffffffffffffffffffffff82036139a1576139a061386f565b5b600182019050919050565b60006139b782613865565b91506139c283613865565b92508282026139d081613865565b915082820484148315176139e7576139e661386f565b5b5092915050565b7f4e487b7100000000000000000000000000000000000000000000000000000000600052601260045260246000fd5b6000613a2882613865565b9150613a3383613865565b925082613a4357613a426139ee565b5b828206905092915050565b613a5781613865565b82525050565b6000604082019050613a726000830185613a4e565b613a7f6020830184613a4e565b9392505050565b60008160011c9050919050565b6000808291508390505b6001851115613add57808604811115613ab957613ab861386f565b5b6001851615613ac85780820291505b8081029050613ad685613a86565b9450613a9d565b94509492505050565b600082613af65760019050613bb2565b81613b045760009050613bb2565b8160018114613b1a5760028114613b2457613b53565b6001915050613bb2565b60ff841115613b3657613b3561386f565b5b8360020a915084821115613b4d57613b4c61386f565b5b50613bb2565b5060208310610133831016604e8410600b8410161715613b885782820a905083811115613b8357613b8261386f565b5b613bb2565b613b958484846001613a93565b92509050818404811115613bac57613bab61386f565b5b81810290505b9392505050565b6000613bc482613865565b9150613bcf83613865565b9250613bfc7fffffffffffffffffffffffffffffffffffffffffffffffffffffffffffffffff8484613ae6565b905092915050565b6000819050919050565b6000613c1982613c04565b9150613c2483613c04565b9250828203905081811260008412168282136000851215161715613c4b57613c4a61386f565b5b9291505056fe633568363670333563706a6d6771626164646d3671726a6665316f6e3473726b656c72376575337066384335474d324f42314335474d324f42314335474d324f42314335474d324f42314335474d324f42314335474d324f4231433547472062737434686c6a653772306f38633870346f38713538326c6d30656a6d697174076d61746f6b656e0378797a00323233343536373839303132333435363738393031323334353637383930313233343132333435363738393031323334353637383930313233343536373839303132333400010203040506070809ffffffffffffff0a0b0c0d0e0f101112131415161718191a1b1c1d1e1fffffffffffffffffffff0a0b0c0d0e0f101112131415161718191a1b1c1d1e1f30313233343536373839303132333435303132333435363738393031323334356162433548363650333543504a4d4751424144444d3651524a4645314f4e3453524b454c523745553350463830313233343536373839303132333435303132333435363738393031323334356161a264697066735822122022135d1fc7fcd2d735fa383dbea633b07b2c76442dd0639e257023d7576149a564736f6c63430008140033",
					"opcodes": "PUSH1 0x80 PUSH1 0x40 MSTORE CALLVALUE DUP1 ISZERO PUSH2 0x10 JUMPI PUSH1 0x0 DUP1 REVERT JUMPDEST POP PUSH2 0x3E0C DUP1 PUSH2 0x20 PUSH1 0x0 CODECOPY PUSH1 0x0 RETURN INVALID PUSH1 0x80 PUSH1 0x40 MSTORE CALLVALUE DUP1 ISZERO PUSH2 0x10 JUMPI PUSH1 0x0 DUP1 REVERT JUMPDEST POP PUSH1 0x4 CALLDATASIZE LT PUSH2 0xA8 JUMPI PUSH1 0x0 CALLDATALOAD PUSH1 0xE0 SHR DUP1 PUSH4 0x809A6173 GT PUSH2 0x71 JUMPI DUP1 PUSH4 0x809A6173 EQ PUSH2 0xDF JUMPI DUP1 PUSH4 0x83D31DF6 EQ PUSH2 0xE9 JUMPI DUP1 PUSH4 0x878AB4AE EQ PUSH2 0xF3 JUMPI DUP1 PUSH4 0xC80094B3 EQ PUSH2 0xFD JUMPI DUP1 PUSH4 0xE77975CF EQ PUSH2 0x107 JUMPI DUP1 PUSH4 0xF3CBDA46 EQ PUSH2 0x111 JUMPI PUSH2 0xA8 JUMP JUMPDEST DUP1 PUSH3 0x5AA6F9 EQ PUSH2 0xAD JUMPI DUP1 PUSH4 0x98E6232 EQ PUSH2 0xB7 JUMPI DUP1 PUSH4 0x1B8E1B81 EQ PUSH2 0xC1 JUMPI DUP1 PUSH4 0x2E72F9A9 EQ PUSH2 0xCB JUMPI DUP1 PUSH4 0x673DCC73 EQ PUSH2 0xD5 JUMPI JUMPDEST PUSH1 0x0 DUP1 REVERT JUMPDEST PUSH2 0xB5 PUSH2 0x11B JUMP JUMPDEST STOP JUMPDEST PUSH2 0xBF PUSH2 0x1D9 JUMP JUMPDEST STOP JUMPDEST PUSH2 0xC9 PUSH2 0x4F4 JUMP JUMPDEST STOP JUMPDEST PUSH2 0xD3 PUSH2 0x58A JUMP JUMPDEST STOP JUMPDEST PUSH2 0xDD PUSH2 0x6A8 JUMP JUMPDEST STOP JUMPDEST PUSH2 0xE7 PUSH2 0x892 JUMP JUMPDEST STOP JUMPDEST PUSH2 0xF1 PUSH2 0xE2C JUMP JUMPDEST STOP JUMPDEST PUSH2 0xFB PUSH2 0x154C JUMP JUMPDEST STOP JUMPDEST PUSH2 0x105 PUSH2 0x19C2 JUMP JUMPDEST STOP JUMPDEST PUSH2 0x10F PUSH2 0x1E6B JUMP JUMPDEST STOP JUMPDEST PUSH2 0x119 PUSH2 0x1F1A JUMP JUMPDEST STOP JUMPDEST PUSH32 0x62636465666768696A6B6C6D6E6F707172737475000000000000000000000000 PUSH1 0x0 SHL PUSH2 0x188 PUSH1 0x1 PUSH1 0x40 MLOAD DUP1 PUSH1 0x40 ADD PUSH1 0x40 MSTORE DUP1 PUSH1 0x16 DUP2 MSTORE PUSH1 0x20 ADD PUSH32 0x6162636465666768696A6B6C6D6E6F7071727374757600000000000000000000 DUP2 MSTORE POP PUSH2 0x1FAC SWAP1 SWAP2 SWAP1 PUSH4 0xFFFFFFFF AND JUMP JUMPDEST PUSH12 0xFFFFFFFFFFFFFFFFFFFFFFFF NOT AND EQ PUSH2 0x1D7 JUMPI PUSH1 0x40 MLOAD PUSH32 0x8C379A000000000000000000000000000000000000000000000000000000000 DUP2 MSTORE PUSH1 0x4 ADD PUSH2 0x1CE SWAP1 PUSH2 0x2799 JUMP JUMPDEST PUSH1 0x40 MLOAD DUP1 SWAP2 SUB SWAP1 REVERT JUMPDEST JUMP JUMPDEST PUSH1 0x40 MLOAD DUP1 PUSH1 0x20 ADD PUSH1 0x40 MSTORE DUP1 PUSH1 0x0 DUP2 MSTORE POP DUP1 MLOAD SWAP1 PUSH1 0x20 ADD KECCAK256 PUSH2 0x23B PUSH1 0x0 DUP1 PUSH1 0x40 MLOAD DUP1 PUSH1 0x40 ADD PUSH1 0x40 MSTORE DUP1 PUSH1 0x5 DUP2 MSTORE PUSH1 0x20 ADD PUSH32 0x68656C6C6F000000000000000000000000000000000000000000000000000000 DUP2 MSTORE POP PUSH2 0x1FF9 SWAP1 SWAP3 SWAP2 SWAP1 PUSH4 0xFFFFFFFF AND JUMP JUMPDEST DUP1 MLOAD SWAP1 PUSH1 0x20 ADD KECCAK256 EQ PUSH2 0x282 JUMPI PUSH1 0x40 MLOAD PUSH32 0x8C379A000000000000000000000000000000000000000000000000000000000 DUP2 MSTORE PUSH1 0x4 ADD PUSH2 0x279 SWAP1 PUSH2 0x2805 JUMP JUMPDEST PUSH1 0x40 MLOAD DUP1 SWAP2 SUB SWAP1 REVERT JUMPDEST PUSH1 0x40 MLOAD DUP1 PUSH1 0x40 ADD PUSH1 0x40 MSTORE DUP1 PUSH1 0x4 DUP2 MSTORE PUSH1 0x20 ADD PUSH32 0x68656C6C00000000000000000000000000000000000000000000000000000000 DUP2 MSTORE POP DUP1 MLOAD SWAP1 PUSH1 0x20 ADD KECCAK256 PUSH2 0x30B PUSH1 0x0 PUSH1 0x4 PUSH1 0x40 MLOAD DUP1 PUSH1 0x40 ADD PUSH1 0x40 MSTORE DUP1 PUSH1 0x5 DUP2 MSTORE PUSH1 0x20 ADD PUSH32 0x68656C6C6F000000000000000000000000000000000000000000000000000000 DUP2 MSTORE POP PUSH2 0x1FF9 SWAP1 SWAP3 SWAP2 SWAP1 PUSH4 0xFFFFFFFF AND JUMP JUMPDEST DUP1 MLOAD SWAP1 PUSH1 0x20 ADD KECCAK256 EQ PUSH2 0x352 JUMPI PUSH1 0x40 MLOAD PUSH32 0x8C379A000000000000000000000000000000000000000000000000000000000 DUP2 MSTORE PUSH1 0x4 ADD PUSH2 0x349 SWAP1 PUSH2 0x2871 JUMP JUMPDEST PUSH1 0x40 MLOAD DUP1 SWAP2 SUB SWAP1 REVERT JUMPDEST PUSH1 0x40 MLOAD DUP1 PUSH1 0x40 ADD PUSH1 0x40 MSTORE DUP1 PUSH1 0x4 DUP2 MSTORE PUSH1 0x20 ADD PUSH32 0x656C6C6F00000000000000000000000000000000000000000000000000000000 DUP2 MSTORE POP DUP1 MLOAD SWAP1 PUSH1 0x20 ADD KECCAK256 PUSH2 0x3DB PUSH1 0x1 PUSH1 0x4 PUSH1 0x40 MLOAD DUP1 PUSH1 0x40 ADD PUSH1 0x40 MSTORE DUP1 PUSH1 0x5 DUP2 MSTORE PUSH1 0x20 ADD PUSH32 0x68656C6C6F000000000000000000000000000000000000000000000000000000 DUP2 MSTORE POP PUSH2 0x1FF9 SWAP1 SWAP3 SWAP2 SWAP1 PUSH4 0xFFFFFFFF AND JUMP JUMPDEST DUP1 MLOAD SWAP1 PUSH1 0x20 ADD KECCAK256 EQ PUSH2 0x422 JUMPI PUSH1 0x40 MLOAD PUSH32 0x8C379A000000000000000000000000000000000000000000000000000000000 DUP2 MSTORE PUSH1 0x4 ADD PUSH2 0x419 SWAP1 PUSH2 0x2871 JUMP JUMPDEST PUSH1 0x40 MLOAD DUP1 SWAP2 SUB SWAP1 REVERT JUMPDEST PUSH1 0x40 MLOAD DUP1 PUSH1 0x40 ADD PUSH1 0x40 MSTORE DUP1 PUSH1 0x5 DUP2 MSTORE PUSH1 0x20 ADD PUSH32 0x68656C6C6F000000000000000000000000000000000000000000000000000000 DUP2 MSTORE POP DUP1 MLOAD SWAP1 PUSH1 0x20 ADD KECCAK256 PUSH2 0x4AB PUSH1 0x0 PUSH1 0x5 PUSH1 0x40 MLOAD DUP1 PUSH1 0x40 ADD PUSH1 0x40 MSTORE DUP1 PUSH1 0x5 DUP2 MSTORE PUSH1 0x20 ADD PUSH32 0x68656C6C6F000000000000000000000000000000000000000000000000000000 DUP2 MSTORE POP PUSH2 0x1FF9 SWAP1 SWAP3 SWAP2 SWAP1 PUSH4 0xFFFFFFFF AND JUMP JUMPDEST DUP1 MLOAD SWAP1 PUSH1 0x20 ADD KECCAK256 EQ PUSH2 0x4F2 JUMPI PUSH1 0x40 MLOAD PUSH32 0x8C379A000000000000000000000000000000000000000000000000000000000 DUP2 MSTORE PUSH1 0x4 ADD PUSH2 0x4E9 SWAP1 PUSH2 0x28DD JUMP JUMPDEST PUSH1 0x40 MLOAD DUP1 SWAP2 SUB SWAP1 REVERT JUMPDEST JUMP JUMPDEST PUSH4 0x62636465 PUSH2 0x542 PUSH1 0x1 PUSH1 0x40 MLOAD DUP1 PUSH1 0x40 ADD PUSH1 0x40 MSTORE DUP1 PUSH1 0x5 DUP2 MSTORE PUSH1 0x20 ADD PUSH32 0x6162636465000000000000000000000000000000000000000000000000000000 DUP2 MSTORE POP PUSH2 0x208E SWAP1 SWAP2 SWAP1 PUSH4 0xFFFFFFFF AND JUMP JUMPDEST PUSH4 0xFFFFFFFF AND EQ PUSH2 0x588 JUMPI PUSH1 0x40 MLOAD PUSH32 0x8C379A000000000000000000000000000000000000000000000000000000000 DUP2 MSTORE PUSH1 0x4 ADD PUSH2 0x57F SWAP1 PUSH2 0x2949 JUMP JUMPDEST PUSH1 0x40 MLOAD DUP1 SWAP2 SUB SWAP1 REVERT JUMPDEST JUMP JUMPDEST PUSH1 0x61 PUSH2 0x5D5 PUSH1 0x0 PUSH1 0x40 MLOAD DUP1 PUSH1 0x40 ADD PUSH1 0x40 MSTORE DUP1 PUSH1 0x1 DUP2 MSTORE PUSH1 0x20 ADD PUSH32 0x6100000000000000000000000000000000000000000000000000000000000000 DUP2 MSTORE POP PUSH2 0x20BF SWAP1 SWAP2 SWAP1 PUSH4 0xFFFFFFFF AND JUMP JUMPDEST PUSH1 0xFF AND EQ PUSH2 0x618 JUMPI PUSH1 0x40 MLOAD PUSH32 0x8C379A000000000000000000000000000000000000000000000000000000000 DUP2 MSTORE PUSH1 0x4 ADD PUSH2 0x60F SWAP1 PUSH2 0x29B5 JUMP JUMPDEST PUSH1 0x40 MLOAD DUP1 SWAP2 SUB SWAP1 REVERT JUMPDEST PUSH1 0x61 PUSH2 0x663 PUSH1 0x1 PUSH1 0x40 MLOAD DUP1 PUSH1 0x40 ADD PUSH1 0x40 MSTORE DUP1 PUSH1 0x2 DUP2 MSTORE PUSH1 0x20 ADD PUSH32 0x6261000000000000000000000000000000000000000000000000000000000000 DUP2 MSTORE POP PUSH2 0x20BF SWAP1 SWAP2 SWAP1 PUSH4 0xFFFFFFFF AND JUMP JUMPDEST PUSH1 0xFF AND EQ PUSH2 0x6A6 JUMPI PUSH1 0x40 MLOAD PUSH32 0x8C379A000000000000000000000000000000000000000000000000000000000 DUP2 MSTORE PUSH1 0x4 ADD PUSH2 0x69D SWAP1 PUSH2 0x29B5 JUMP JUMPDEST PUSH1 0x40 MLOAD DUP1 SWAP2 SUB SWAP1 REVERT JUMPDEST JUMP JUMPDEST PUSH32 0xC5D2460186F7233C927E7DB2DCC703C0E500B653CA82273B7BFAD8045D85A470 PUSH1 0x0 SHL PUSH2 0x6F1 PUSH1 0x0 DUP1 PUSH1 0x40 MLOAD DUP1 PUSH1 0x20 ADD PUSH1 0x40 MSTORE DUP1 PUSH1 0x0 DUP2 MSTORE POP PUSH2 0x20EA SWAP1 SWAP3 SWAP2 SWAP1 PUSH4 0xFFFFFFFF AND JUMP JUMPDEST EQ PUSH2 0x731 JUMPI PUSH1 0x40 MLOAD PUSH32 0x8C379A000000000000000000000000000000000000000000000000000000000 DUP2 MSTORE PUSH1 0x4 ADD PUSH2 0x728 SWAP1 PUSH2 0x2A21 JUMP JUMPDEST PUSH1 0x40 MLOAD DUP1 SWAP2 SUB SWAP1 REVERT JUMPDEST PUSH32 0x41B1A0649752AF1B28B3DC29A1556EEE781E4A4C3A1F7F53F90FA834DE098C4D PUSH1 0x0 SHL PUSH2 0x7A1 PUSH1 0x0 PUSH1 0x3 PUSH1 0x40 MLOAD DUP1 PUSH1 0x40 ADD PUSH1 0x40 MSTORE DUP1 PUSH1 0x3 DUP2 MSTORE PUSH1 0x20 ADD PUSH32 0x666F6F0000000000000000000000000000000000000000000000000000000000 DUP2 MSTORE POP PUSH2 0x20EA SWAP1 SWAP3 SWAP2 SWAP1 PUSH4 0xFFFFFFFF AND JUMP JUMPDEST EQ PUSH2 0x7E1 JUMPI PUSH1 0x40 MLOAD PUSH32 0x8C379A000000000000000000000000000000000000000000000000000000000 DUP2 MSTORE PUSH1 0x4 ADD PUSH2 0x7D8 SWAP1 PUSH2 0x2A8D JUMP JUMPDEST PUSH1 0x40 MLOAD DUP1 SWAP2 SUB SWAP1 REVERT JUMPDEST PUSH32 0xC5D2460186F7233C927E7DB2DCC703C0E500B653CA82273B7BFAD8045D85A470 PUSH1 0x0 SHL PUSH2 0x850 PUSH1 0x0 DUP1 PUSH1 0x40 MLOAD DUP1 PUSH1 0x40 ADD PUSH1 0x40 MSTORE DUP1 PUSH1 0x3 DUP2 MSTORE PUSH1 0x20 ADD PUSH32 0x666F6F0000000000000000000000000000000000000000000000000000000000 DUP2 MSTORE POP PUSH2 0x20EA SWAP1 SWAP3 SWAP2 SWAP1 PUSH4 0xFFFFFFFF AND JUMP JUMPDEST EQ PUSH2 0x890 JUMPI PUSH1 0x40 MLOAD PUSH32 0x8C379A000000000000000000000000000000000000000000000000000000000 DUP2 MSTORE PUSH1 0x4 ADD PUSH2 0x887 SWAP1 PUSH2 0x2A21 JUMP JUMPDEST PUSH1 0x40 MLOAD DUP1 SWAP2 SUB SWAP1 REVERT JUMPDEST JUMP JUMPDEST PUSH1 0x1 ISZERO ISZERO PUSH1 0x0 PUSH2 0x915 PUSH1 0x40 MLOAD DUP1 PUSH1 0x40 ADD PUSH1 0x40 MSTORE DUP1 PUSH1 0x1 DUP2 MSTORE PUSH1 0x20 ADD PUSH32 0x6100000000000000000000000000000000000000000000000000000000000000 DUP2 MSTORE POP PUSH1 0x40 MLOAD DUP1 PUSH1 0x40 ADD PUSH1 0x40 MSTORE DUP1 PUSH1 0x1 DUP2 MSTORE PUSH1 0x20 ADD PUSH32 0x6100000000000000000000000000000000000000000000000000000000000000 DUP2 MSTORE POP PUSH2 0x2116 SWAP1 SWAP2 SWAP1 PUSH4 0xFFFFFFFF AND JUMP JUMPDEST EQ ISZERO ISZERO EQ PUSH2 0x958 JUMPI PUSH1 0x40 MLOAD PUSH32 0x8C379A000000000000000000000000000000000000000000000000000000000 DUP2 MSTORE PUSH1 0x4 ADD PUSH2 0x94F SWAP1 PUSH2 0x2AF9 JUMP JUMPDEST PUSH1 0x40 MLOAD DUP1 SWAP2 SUB SWAP1 REVERT JUMPDEST PUSH1 0x1 ISZERO ISZERO PUSH1 0x0 PUSH2 0x9DB PUSH1 0x40 MLOAD DUP1 PUSH1 0x40 ADD PUSH1 0x40 MSTORE DUP1 PUSH1 0x1 DUP2 MSTORE PUSH1 0x20 ADD PUSH32 0x6200000000000000000000000000000000000000000000000000000000000000 DUP2 MSTORE POP PUSH1 0x40 MLOAD DUP1 PUSH1 0x40 ADD PUSH1 0x40 MSTORE DUP1 PUSH1 0x1 DUP2 MSTORE PUSH1 0x20 ADD PUSH32 0x6100000000000000000000000000000000000000000000000000000000000000 DUP2 MSTORE POP PUSH2 0x2116 SWAP1 SWAP2 SWAP1 PUSH4 0xFFFFFFFF AND JUMP JUMPDEST SLT ISZERO ISZERO EQ PUSH2 0xA1E JUMPI PUSH1 0x40 MLOAD PUSH32 0x8C379A000000000000000000000000000000000000000000000000000000000 DUP2 MSTORE PUSH1 0x4 ADD PUSH2 0xA15 SWAP1 PUSH2 0x2B8B JUMP JUMPDEST PUSH1 0x40 MLOAD DUP1 SWAP2 SUB SWAP1 REVERT JUMPDEST PUSH1 0x1 ISZERO ISZERO PUSH1 0x0 PUSH2 0xAA1 PUSH1 0x40 MLOAD DUP1 PUSH1 0x40 ADD PUSH1 0x40 MSTORE DUP1 PUSH1 0x1 DUP2 MSTORE PUSH1 0x20 ADD PUSH32 0x6100000000000000000000000000000000000000000000000000000000000000 DUP2 MSTORE POP PUSH1 0x40 MLOAD DUP1 PUSH1 0x40 ADD PUSH1 0x40 MSTORE DUP1 PUSH1 0x1 DUP2 MSTORE PUSH1 0x20 ADD PUSH32 0x6200000000000000000000000000000000000000000000000000000000000000 DUP2 MSTORE POP PUSH2 0x2116 SWAP1 SWAP2 SWAP1 PUSH4 0xFFFFFFFF AND JUMP JUMPDEST SGT ISZERO ISZERO EQ PUSH2 0xAE4 JUMPI PUSH1 0x40 MLOAD PUSH32 0x8C379A000000000000000000000000000000000000000000000000000000000 DUP2 MSTORE PUSH1 0x4 ADD PUSH2 0xADB SWAP1 PUSH2 0x2B8B JUMP JUMPDEST PUSH1 0x40 MLOAD DUP1 SWAP2 SUB SWAP1 REVERT JUMPDEST PUSH1 0x1 ISZERO ISZERO PUSH1 0x0 PUSH2 0xB67 PUSH1 0x40 MLOAD DUP1 PUSH1 0x40 ADD PUSH1 0x40 MSTORE DUP1 PUSH1 0x2 DUP2 MSTORE PUSH1 0x20 ADD PUSH32 0x6162000000000000000000000000000000000000000000000000000000000000 DUP2 MSTORE POP PUSH1 0x40 MLOAD DUP1 PUSH1 0x40 ADD PUSH1 0x40 MSTORE DUP1 PUSH1 0x2 DUP2 MSTORE PUSH1 0x20 ADD PUSH32 0x6161000000000000000000000000000000000000000000000000000000000000 DUP2 MSTORE POP PUSH2 0x2116 SWAP1 SWAP2 SWAP1 PUSH4 0xFFFFFFFF AND JUMP JUMPDEST SLT ISZERO ISZERO EQ PUSH2 0xBAA JUMPI PUSH1 0x40 MLOAD PUSH32 0x8C379A000000000000000000000000000000000000000000000000000000000 DUP2 MSTORE PUSH1 0x4 ADD PUSH2 0xBA1 SWAP1 PUSH2 0x2C1D JUMP JUMPDEST PUSH1 0x40 MLOAD DUP1 SWAP2 SUB SWAP1 REVERT JUMPDEST PUSH1 0x1 ISZERO ISZERO PUSH1 0x0 PUSH2 0xC2D PUSH1 0x40 MLOAD DUP1 PUSH1 0x40 ADD PUSH1 0x40 MSTORE DUP1 PUSH1 0x2 DUP2 MSTORE PUSH1 0x20 ADD PUSH32 0x6161000000000000000000000000000000000000000000000000000000000000 DUP2 MSTORE POP PUSH1 0x40 MLOAD DUP1 PUSH1 0x40 ADD PUSH1 0x40 MSTORE DUP1 PUSH1 0x1 DUP2 MSTORE PUSH1 0x20 ADD PUSH32 0x6100000000000000000000000000000000000000000000000000000000000000 DUP2 MSTORE POP PUSH2 0x2116 SWAP1 SWAP2 SWAP1 PUSH4 0xFFFFFFFF AND JUMP JUMPDEST SLT ISZERO ISZERO EQ PUSH2 0xC70 JUMPI PUSH1 0x40 MLOAD PUSH32 0x8C379A000000000000000000000000000000000000000000000000000000000 DUP2 MSTORE PUSH1 0x4 ADD PUSH2 0xC67 SWAP1 PUSH2 0x2CAF JUMP JUMPDEST PUSH1 0x40 MLOAD DUP1 SWAP2 SUB SWAP1 REVERT JUMPDEST PUSH1 0x1 ISZERO ISZERO PUSH1 0x0 PUSH2 0xCF3 PUSH1 0x40 MLOAD DUP1 PUSH1 0x40 ADD PUSH1 0x40 MSTORE DUP1 PUSH1 0x1 DUP2 MSTORE PUSH1 0x20 ADD PUSH32 0x6100000000000000000000000000000000000000000000000000000000000000 DUP2 MSTORE POP PUSH1 0x40 MLOAD DUP1 PUSH1 0x40 ADD PUSH1 0x40 MSTORE DUP1 PUSH1 0x2 DUP2 MSTORE PUSH1 0x20 ADD PUSH32 0x6161000000000000000000000000000000000000000000000000000000000000 DUP2 MSTORE POP PUSH2 0x2116 SWAP1 SWAP2 SWAP1 PUSH4 0xFFFFFFFF AND JUMP JUMPDEST SGT ISZERO ISZERO EQ PUSH2 0xD36 JUMPI PUSH1 0x40 MLOAD PUSH32 0x8C379A000000000000000000000000000000000000000000000000000000000 DUP2 MSTORE PUSH1 0x4 ADD PUSH2 0xD2D SWAP1 PUSH2 0x2CAF JUMP JUMPDEST PUSH1 0x40 MLOAD DUP1 SWAP2 SUB SWAP1 REVERT JUMPDEST PUSH1 0x0 PUSH1 0x40 MLOAD DUP1 PUSH1 0x60 ADD PUSH1 0x40 MSTORE DUP1 PUSH1 0x22 DUP2 MSTORE PUSH1 0x20 ADD PUSH2 0x3D00 PUSH1 0x22 SWAP2 CODECOPY SWAP1 POP PUSH1 0x1 ISZERO ISZERO PUSH1 0x0 PUSH2 0xD6C DUP4 DUP5 PUSH2 0x2116 SWAP1 SWAP2 SWAP1 PUSH4 0xFFFFFFFF AND JUMP JUMPDEST EQ ISZERO ISZERO EQ PUSH2 0xDAF JUMPI PUSH1 0x40 MLOAD PUSH32 0x8C379A000000000000000000000000000000000000000000000000000000000 DUP2 MSTORE PUSH1 0x4 ADD PUSH2 0xDA6 SWAP1 PUSH2 0x2D1B JUMP JUMPDEST PUSH1 0x40 MLOAD DUP1 SWAP2 SUB SWAP1 REVERT JUMPDEST PUSH1 0x0 PUSH1 0x40 MLOAD DUP1 PUSH1 0x60 ADD PUSH1 0x40 MSTORE DUP1 PUSH1 0x22 DUP2 MSTORE PUSH1 0x20 ADD PUSH2 0x3CDE PUSH1 0x22 SWAP2 CODECOPY SWAP1 POP PUSH1 0x1 ISZERO ISZERO PUSH1 0x0 PUSH2 0xDE5 DUP4 DUP6 PUSH2 0x2116 SWAP1 SWAP2 SWAP1 PUSH4 0xFFFFFFFF AND JUMP JUMPDEST SLT ISZERO ISZERO EQ PUSH2 0xE28 JUMPI PUSH1 0x40 MLOAD PUSH32 0x8C379A000000000000000000000000000000000000000000000000000000000 DUP2 MSTORE PUSH1 0x4 ADD PUSH2 0xE1F SWAP1 PUSH2 0x2DAD JUMP JUMPDEST PUSH1 0x40 MLOAD DUP1 SWAP2 SUB SWAP1 REVERT JUMPDEST POP POP JUMP JUMPDEST PUSH32 0x6100000000000000000000000000000000000000000000000000000000000000 PUSH31 0xFFFFFFFFFFFFFFFFFFFFFFFFFFFFFFFFFFFFFFFFFFFFFFFFFFFFFFFFFFFFFF NOT AND PUSH2 0xEBB PUSH1 0x0 PUSH1 0x2 PUSH1 0x40 MLOAD DUP1 PUSH1 0x40 ADD PUSH1 0x40 MSTORE DUP1 PUSH1 0x2 DUP2 MSTORE PUSH1 0x20 ADD PUSH32 0x4334000000000000000000000000000000000000000000000000000000000000 DUP2 MSTORE POP PUSH2 0x2132 SWAP1 SWAP3 SWAP2 SWAP1 PUSH4 0xFFFFFFFF AND JUMP JUMPDEST EQ PUSH2 0xEFB JUMPI PUSH1 0x40 MLOAD PUSH32 0x8C379A000000000000000000000000000000000000000000000000000000000 DUP2 MSTORE PUSH1 0x4 ADD PUSH2 0xEF2 SWAP1 PUSH2 0x2E19 JUMP JUMPDEST PUSH1 0x40 MLOAD DUP1 SWAP2 SUB SWAP1 REVERT JUMPDEST PUSH32 0x6161000000000000000000000000000000000000000000000000000000000000 PUSH30 0xFFFFFFFFFFFFFFFFFFFFFFFFFFFFFFFFFFFFFFFFFFFFFFFFFFFFFFFFFFFF NOT AND PUSH2 0xF89 PUSH1 0x0 PUSH1 0x4 PUSH1 0x40 MLOAD DUP1 PUSH1 0x40 ADD PUSH1 0x40 MSTORE DUP1 PUSH1 0x4 DUP2 MSTORE PUSH1 0x20 ADD PUSH32 0x4335474700000000000000000000000000000000000000000000000000000000 DUP2 MSTORE POP PUSH2 0x2132 SWAP1 SWAP3 SWAP2 SWAP1 PUSH4 0xFFFFFFFF AND JUMP JUMPDEST EQ PUSH2 0xFC9 JUMPI PUSH1 0x40 MLOAD PUSH32 0x8C379A000000000000000000000000000000000000000000000000000000000 DUP2 MSTORE PUSH1 0x4 ADD PUSH2 0xFC0 SWAP1 PUSH2 0x2E85 JUMP JUMPDEST PUSH1 0x40 MLOAD DUP1 SWAP2 SUB SWAP1 REVERT JUMPDEST PUSH32 0x6161610000000000000000000000000000000000000000000000000000000000 PUSH29 0xFFFFFFFFFFFFFFFFFFFFFFFFFFFFFFFFFFFFFFFFFFFFFFFFFFFFFFFFFF NOT AND PUSH2 0x1056 PUSH1 0x0 PUSH1 0x5 PUSH1 0x40 MLOAD DUP1 PUSH1 0x40 ADD PUSH1 0x40 MSTORE DUP1 PUSH1 0x5 DUP2 MSTORE PUSH1 0x20 ADD PUSH32 0x4335474D32000000000000000000000000000000000000000000000000000000 DUP2 MSTORE POP PUSH2 0x2132 SWAP1 SWAP3 SWAP2 SWAP1 PUSH4 0xFFFFFFFF AND JUMP JUMPDEST EQ PUSH2 0x1096 JUMPI PUSH1 0x40 MLOAD PUSH32 0x8C379A000000000000000000000000000000000000000000000000000000000 DUP2 MSTORE PUSH1 0x4 ADD PUSH2 0x108D SWAP1 PUSH2 0x2EF1 JUMP JUMPDEST PUSH1 0x40 MLOAD DUP1 SWAP2 SUB SWAP1 REVERT JUMPDEST PUSH32 0x6161616100000000000000000000000000000000000000000000000000000000 PUSH28 0xFFFFFFFFFFFFFFFFFFFFFFFFFFFFFFFFFFFFFFFFFFFFFFFFFFFFFFFF NOT AND PUSH2 0x1122 PUSH1 0x0 PUSH1 0x7 PUSH1 0x40 MLOAD DUP1 PUSH1 0x40 ADD PUSH1 0x40 MSTORE DUP1 PUSH1 0x7 DUP2 MSTORE PUSH1 0x20 ADD PUSH32 0x4335474D324F3800000000000000000000000000000000000000000000000000 DUP2 MSTORE POP PUSH2 0x2132 SWAP1 SWAP3 SWAP2 SWAP1 PUSH4 0xFFFFFFFF AND JUMP JUMPDEST EQ PUSH2 0x1162 JUMPI PUSH1 0x40 MLOAD PUSH32 0x8C379A000000000000000000000000000000000000000000000000000000000 DUP2 MSTORE PUSH1 0x4 ADD PUSH2 0x1159 SWAP1 PUSH2 0x2F5D JUMP JUMPDEST PUSH1 0x40 MLOAD DUP1 SWAP2 SUB SWAP1 REVERT JUMPDEST PUSH32 0x6161616161000000000000000000000000000000000000000000000000000000 PUSH27 0xFFFFFFFFFFFFFFFFFFFFFFFFFFFFFFFFFFFFFFFFFFFFFFFFFFFFFF NOT AND PUSH2 0x11ED PUSH1 0x0 PUSH1 0x8 PUSH1 0x40 MLOAD DUP1 PUSH1 0x40 ADD PUSH1 0x40 MSTORE DUP1 PUSH1 0x8 DUP2 MSTORE PUSH1 0x20 ADD PUSH32 0x4335474D324F4231000000000000000000000000000000000000000000000000 DUP2 MSTORE POP PUSH2 0x2132 SWAP1 SWAP3 SWAP2 SWAP1 PUSH4 0xFFFFFFFF AND JUMP JUMPDEST EQ PUSH2 0x122D JUMPI PUSH1 0x40 MLOAD PUSH32 0x8C379A000000000000000000000000000000000000000000000000000000000 DUP2 MSTORE PUSH1 0x4 ADD PUSH2 0x1224 SWAP1 PUSH2 0x2FC9 JUMP JUMPDEST PUSH1 0x40 MLOAD DUP1 SWAP2 SUB SWAP1 REVERT JUMPDEST PUSH32 0x6161616161000000000000000000000000000000000000000000000000000000 PUSH27 0xFFFFFFFFFFFFFFFFFFFFFFFFFFFFFFFFFFFFFFFFFFFFFFFFFFFFFF NOT AND PUSH2 0x12B8 PUSH1 0x0 PUSH1 0x8 PUSH1 0x40 MLOAD DUP1 PUSH1 0x40 ADD PUSH1 0x40 MSTORE DUP1 PUSH1 0x8 DUP2 MSTORE PUSH1 0x20 ADD PUSH32 0x6335676D324F6231000000000000000000000000000000000000000000000000 DUP2 MSTORE POP PUSH2 0x2132 SWAP1 SWAP3 SWAP2 SWAP1 PUSH4 0xFFFFFFFF AND JUMP JUMPDEST EQ PUSH2 0x12F8 JUMPI PUSH1 0x40 MLOAD PUSH32 0x8C379A000000000000000000000000000000000000000000000000000000000 DUP2 MSTORE PUSH1 0x4 ADD PUSH2 0x12EF SWAP1 PUSH2 0x3035 JUMP JUMPDEST PUSH1 0x40 MLOAD DUP1 SWAP2 SUB SWAP1 REVERT JUMPDEST PUSH32 0x6162636465666768696A6B6C6D6E6F707172737475767778797A000000000000 PUSH6 0xFFFFFFFFFFFF NOT AND PUSH2 0x1351 PUSH1 0x0 PUSH1 0x2A PUSH1 0x40 MLOAD DUP1 PUSH1 0x60 ADD PUSH1 0x40 MSTORE DUP1 PUSH1 0x2A DUP2 MSTORE PUSH1 0x20 ADD PUSH2 0x3D8B PUSH1 0x2A SWAP2 CODECOPY PUSH2 0x2132 SWAP1 SWAP3 SWAP2 SWAP1 PUSH4 0xFFFFFFFF AND JUMP JUMPDEST EQ PUSH2 0x1391 JUMPI PUSH1 0x40 MLOAD PUSH32 0x8C379A000000000000000000000000000000000000000000000000000000000 DUP2 MSTORE PUSH1 0x4 ADD PUSH2 0x1388 SWAP1 PUSH2 0x30A1 JUMP JUMPDEST PUSH1 0x40 MLOAD DUP1 SWAP2 SUB SWAP1 REVERT JUMPDEST PUSH32 0x6162636465666768696A6B6C6D6E6F707172737475767778797A000000000000 PUSH6 0xFFFFFFFFFFFF NOT AND PUSH2 0x13EA PUSH1 0x0 PUSH1 0x2A PUSH1 0x40 MLOAD DUP1 PUSH1 0x60 ADD PUSH1 0x40 MSTORE DUP1 PUSH1 0x2A DUP2 MSTORE PUSH1 0x20 ADD PUSH2 0x3C52 PUSH1 0x2A SWAP2 CODECOPY PUSH2 0x2132 SWAP1 SWAP3 SWAP2 SWAP1 PUSH4 0xFFFFFFFF AND JUMP JUMPDEST EQ PUSH2 0x142A JUMPI PUSH1 0x40 MLOAD PUSH32 0x8C379A000000000000000000000000000000000000000000000000000000000 DUP2 MSTORE PUSH1 0x4 ADD PUSH2 0x1421 SWAP1 PUSH2 0x310D JUMP JUMPDEST PUSH1 0x40 MLOAD DUP1 SWAP2 SUB SWAP1 REVERT JUMPDEST PUSH32 0x6161616161616161616161616161616161616161616161616161616161616161 PUSH2 0x147A PUSH1 0x0 PUSH1 0x34 PUSH1 0x40 MLOAD DUP1 PUSH1 0x60 ADD PUSH1 0x40 MSTORE DUP1 PUSH1 0x34 DUP2 MSTORE PUSH1 0x20 ADD PUSH2 0x3C7C PUSH1 0x34 SWAP2 CODECOPY PUSH2 0x2132 SWAP1 SWAP3 SWAP2 SWAP1 PUSH4 0xFFFFFFFF AND JUMP JUMPDEST EQ PUSH2 0x14BA JUMPI PUSH1 0x40 MLOAD PUSH32 0x8C379A000000000000000000000000000000000000000000000000000000000 DUP2 MSTORE PUSH1 0x4 ADD PUSH2 0x14B1 SWAP1 PUSH2 0x3179 JUMP JUMPDEST PUSH1 0x40 MLOAD DUP1 SWAP2 SUB SWAP1 REVERT JUMPDEST PUSH32 0x5F3A48D66E3EC18431192611A2A055B01D3B4B5D000000000000000000000000 PUSH2 0x150A PUSH1 0x1 PUSH1 0x20 PUSH1 0x40 MLOAD DUP1 PUSH1 0x60 ADD PUSH1 0x40 MSTORE DUP1 PUSH1 0x2E DUP2 MSTORE PUSH1 0x20 ADD PUSH2 0x3CB0 PUSH1 0x2E SWAP2 CODECOPY PUSH2 0x2132 SWAP1 SWAP3 SWAP2 SWAP1 PUSH4 0xFFFFFFFF AND JUMP JUMPDEST EQ PUSH2 0x154A JUMPI PUSH1 0x40 MLOAD PUSH32 0x8C379A000000000000000000000000000000000000000000000000000000000 DUP2 MSTORE PUSH1 0x4 ADD PUSH2 0x1541 SWAP1 PUSH2 0x31E5 JUMP JUMPDEST PUSH1 0x40 MLOAD DUP1 SWAP2 SUB SWAP1 REVERT JUMPDEST JUMP JUMPDEST PUSH1 0x1 ISZERO ISZERO PUSH1 0x0 PUSH2 0x15DA PUSH1 0x1 DUP1 PUSH1 0x40 MLOAD DUP1 PUSH1 0x40 ADD PUSH1 0x40 MSTORE DUP1 PUSH1 0x5 DUP2 MSTORE PUSH1 0x20 ADD PUSH32 0x7878627878000000000000000000000000000000000000000000000000000000 DUP2 MSTORE POP PUSH1 0x2 PUSH1 0x1 PUSH1 0x40 MLOAD DUP1 PUSH1 0x40 ADD PUSH1 0x40 MSTORE DUP1 PUSH1 0x3 DUP2 MSTORE PUSH1 0x20 ADD PUSH32 0x7861780000000000000000000000000000000000000000000000000000000000 DUP2 MSTORE POP PUSH2 0x23C8 SWAP1 SWAP6 SWAP5 SWAP4 SWAP3 SWAP2 SWAP1 PUSH4 0xFFFFFFFF AND JUMP JUMPDEST SLT ISZERO ISZERO EQ PUSH2 0x161D JUMPI PUSH1 0x40 MLOAD PUSH32 0x8C379A000000000000000000000000000000000000000000000000000000000 DUP2 MSTORE PUSH1 0x4 ADD PUSH2 0x1614 SWAP1 PUSH2 0x3251 JUMP JUMPDEST PUSH1 0x40 MLOAD DUP1 SWAP2 SUB SWAP1 REVERT JUMPDEST PUSH1 0x1 ISZERO ISZERO PUSH1 0x0 PUSH2 0x16AA PUSH1 0x1 DUP1 PUSH1 0x40 MLOAD DUP1 PUSH1 0x40 ADD PUSH1 0x40 MSTORE DUP1 PUSH1 0x6 DUP2 MSTORE PUSH1 0x20 ADD PUSH32 0x7878616278780000000000000000000000000000000000000000000000000000 DUP2 MSTORE POP PUSH1 0x2 DUP1 PUSH1 0x40 MLOAD DUP1 PUSH1 0x40 ADD PUSH1 0x40 MSTORE DUP1 PUSH1 0x3 DUP2 MSTORE PUSH1 0x20 ADD PUSH32 0x7861780000000000000000000000000000000000000000000000000000000000 DUP2 MSTORE POP PUSH2 0x23C8 SWAP1 SWAP6 SWAP5 SWAP4 SWAP3 SWAP2 SWAP1 PUSH4 0xFFFFFFFF AND JUMP JUMPDEST SLT ISZERO ISZERO EQ PUSH2 0x16ED JUMPI PUSH1 0x40 MLOAD PUSH32 0x8C379A000000000000000000000000000000000000000000000000000000000 DUP2 MSTORE PUSH1 0x4 ADD PUSH2 0x16E4 SWAP1 PUSH2 0x32BD JUMP JUMPDEST PUSH1 0x40 MLOAD DUP1 SWAP2 SUB SWAP1 REVERT JUMPDEST PUSH1 0x1 ISZERO ISZERO PUSH1 0x0 PUSH2 0x177B PUSH1 0x1 DUP1 PUSH1 0x40 MLOAD DUP1 PUSH1 0x40 ADD PUSH1 0x40 MSTORE DUP1 PUSH1 0x5 DUP2 MSTORE PUSH1 0x20 ADD PUSH32 0x7878617878000000000000000000000000000000000000000000000000000000 DUP2 MSTORE POP PUSH1 0x2 PUSH1 0x1 PUSH1 0x40 MLOAD DUP1 PUSH1 0x40 ADD PUSH1 0x40 MSTORE DUP1 PUSH1 0x3 DUP2 MSTORE PUSH1 0x20 ADD PUSH32 0x7861780000000000000000000000000000000000000000000000000000000000 DUP2 MSTORE POP PUSH2 0x23C8 SWAP1 SWAP6 SWAP5 SWAP4 SWAP3 SWAP2 SWAP1 PUSH4 0xFFFFFFFF AND JUMP JUMPDEST EQ ISZERO ISZERO EQ PUSH2 0x17BE JUMPI PUSH1 0x40 MLOAD PUSH32 0x8C379A000000000000000000000000000000000000000000000000000000000 DUP2 MSTORE PUSH1 0x4 ADD PUSH2 0x17B5 SWAP1 PUSH2 0x334F JUMP JUMPDEST PUSH1 0x40 MLOAD DUP1 SWAP2 SUB SWAP1 REVERT JUMPDEST PUSH1 0x1 ISZERO ISZERO PUSH1 0x0 PUSH2 0x1813 PUSH1 0x0 PUSH1 0x21 PUSH1 0x40 MLOAD DUP1 PUSH1 0x60 ADD PUSH1 0x40 MSTORE DUP1 PUSH1 0x22 DUP2 MSTORE PUSH1 0x20 ADD PUSH2 0x3DB5 PUSH1 0x22 SWAP2 CODECOPY PUSH1 0x0 PUSH1 0x21 PUSH1 0x40 MLOAD DUP1 PUSH1 0x60 ADD PUSH1 0x40 MSTORE DUP1 PUSH1 0x22 DUP2 MSTORE PUSH1 0x20 ADD PUSH2 0x3D69 PUSH1 0x22 SWAP2 CODECOPY PUSH2 0x23C8 SWAP1 SWAP6 SWAP5 SWAP4 SWAP3 SWAP2 SWAP1 PUSH4 0xFFFFFFFF AND JUMP JUMPDEST EQ ISZERO ISZERO EQ PUSH2 0x1856 JUMPI PUSH1 0x40 MLOAD PUSH32 0x8C379A000000000000000000000000000000000000000000000000000000000 DUP2 MSTORE PUSH1 0x4 ADD PUSH2 0x184D SWAP1 PUSH2 0x3407 JUMP JUMPDEST PUSH1 0x40 MLOAD DUP1 SWAP2 SUB SWAP1 REVERT JUMPDEST PUSH1 0x1 ISZERO ISZERO PUSH1 0x0 PUSH2 0x18AB PUSH1 0x0 PUSH1 0x21 PUSH1 0x40 MLOAD DUP1 PUSH1 0x60 ADD PUSH1 0x40 MSTORE DUP1 PUSH1 0x22 DUP2 MSTORE PUSH1 0x20 ADD PUSH2 0x3DB5 PUSH1 0x22 SWAP2 CODECOPY PUSH1 0x0 PUSH1 0x22 PUSH1 0x40 MLOAD DUP1 PUSH1 0x60 ADD PUSH1 0x40 MSTORE DUP1 PUSH1 0x22 DUP2 MSTORE PUSH1 0x20 ADD PUSH2 0x3D69 PUSH1 0x22 SWAP2 CODECOPY PUSH2 0x23C8 SWAP1 SWAP6 SWAP5 SWAP4 SWAP3 SWAP2 SWAP1 PUSH4 0xFFFFFFFF AND JUMP JUMPDEST SLT ISZERO ISZERO EQ PUSH2 0x18EE JUMPI PUSH1 0x40 MLOAD PUSH32 0x8C379A000000000000000000000000000000000000000000000000000000000 DUP2 MSTORE PUSH1 0x4 ADD PUSH2 0x18E5 SWAP1 PUSH2 0x3499 JUMP JUMPDEST PUSH1 0x40 MLOAD DUP1 SWAP2 SUB SWAP1 REVERT JUMPDEST PUSH1 0x1 ISZERO ISZERO PUSH1 0x0 PUSH2 0x197D PUSH1 0x0 PUSH1 0x20 PUSH1 0x40 MLOAD DUP1 PUSH1 0x40 ADD PUSH1 0x40 MSTORE DUP1 PUSH1 0x20 DUP2 MSTORE PUSH1 0x20 ADD PUSH32 0x3031323334353637383930313233343530313233343536373839303132333462 DUP2 MSTORE POP PUSH1 0x0 PUSH1 0x20 PUSH1 0x40 MLOAD DUP1 PUSH1 0x40 ADD PUSH1 0x40 MSTORE DUP1 PUSH1 0x20 DUP2 MSTORE PUSH1 0x20 ADD PUSH32 0x3031323334353637383930313233343530313233343536373839303132333461 DUP2 MSTORE POP PUSH2 0x23C8 SWAP1 SWAP6 SWAP5 SWAP4 SWAP3 SWAP2 SWAP1 PUSH4 0xFFFFFFFF AND JUMP JUMPDEST SLT ISZERO ISZERO EQ PUSH2 0x19C0 JUMPI PUSH1 0x40 MLOAD PUSH32 0x8C379A000000000000000000000000000000000000000000000000000000000 DUP2 MSTORE PUSH1 0x4 ADD PUSH2 0x19B7 SWAP1 PUSH2 0x352B JUMP JUMPDEST PUSH1 0x40 MLOAD DUP1 SWAP2 SUB SWAP1 REVERT JUMPDEST JUMP JUMPDEST PUSH1 0x1 ISZERO ISZERO PUSH2 0x1A43 PUSH1 0x40 MLOAD DUP1 PUSH1 0x40 ADD PUSH1 0x40 MSTORE DUP1 PUSH1 0x5 DUP2 MSTORE PUSH1 0x20 ADD PUSH32 0x68656C6C6F000000000000000000000000000000000000000000000000000000 DUP2 MSTORE POP PUSH1 0x40 MLOAD DUP1 PUSH1 0x40 ADD PUSH1 0x40 MSTORE DUP1 PUSH1 0x5 DUP2 MSTORE PUSH1 0x20 ADD PUSH32 0x68656C6C6F000000000000000000000000000000000000000000000000000000 DUP2 MSTORE POP PUSH2 0x25C6 SWAP1 SWAP2 SWAP1 PUSH4 0xFFFFFFFF AND JUMP JUMPDEST ISZERO ISZERO EQ PUSH2 0x1A85 JUMPI PUSH1 0x40 MLOAD PUSH32 0x8C379A000000000000000000000000000000000000000000000000000000000 DUP2 MSTORE PUSH1 0x4 ADD PUSH2 0x1A7C SWAP1 PUSH2 0x3597 JUMP JUMPDEST PUSH1 0x40 MLOAD DUP1 SWAP2 SUB SWAP1 REVERT JUMPDEST PUSH1 0x0 ISZERO ISZERO PUSH2 0x1B06 PUSH1 0x40 MLOAD DUP1 PUSH1 0x40 ADD PUSH1 0x40 MSTORE DUP1 PUSH1 0x7 DUP2 MSTORE PUSH1 0x20 ADD PUSH32 0x676F6F6462796500000000000000000000000000000000000000000000000000 DUP2 MSTORE POP PUSH1 0x40 MLOAD DUP1 PUSH1 0x40 ADD PUSH1 0x40 MSTORE DUP1 PUSH1 0x5 DUP2 MSTORE PUSH1 0x20 ADD PUSH32 0x68656C6C6F000000000000000000000000000000000000000000000000000000 DUP2 MSTORE POP PUSH2 0x25C6 SWAP1 SWAP2 SWAP1 PUSH4 0xFFFFFFFF AND JUMP JUMPDEST ISZERO ISZERO EQ PUSH2 0x1B48 JUMPI PUSH1 0x40 MLOAD PUSH32 0x8C379A000000000000000000000000000000000000000000000000000000000 DUP2 MSTORE PUSH1 0x4 ADD PUSH2 0x1B3F SWAP1 PUSH2 0x3603 JUMP JUMPDEST PUSH1 0x40 MLOAD DUP1 SWAP2 SUB SWAP1 REVERT JUMPDEST PUSH1 0x1 ISZERO ISZERO PUSH2 0x1BCC PUSH1 0x1 PUSH1 0x40 MLOAD DUP1 PUSH1 0x40 ADD PUSH1 0x40 MSTORE DUP1 PUSH1 0x4 DUP2 MSTORE PUSH1 0x20 ADD PUSH32 0x656C6C6F00000000000000000000000000000000000000000000000000000000 DUP2 MSTORE POP PUSH1 0x40 MLOAD DUP1 PUSH1 0x40 ADD PUSH1 0x40 MSTORE DUP1 PUSH1 0x5 DUP2 MSTORE PUSH1 0x20 ADD PUSH32 0x68656C6C6F000000000000000000000000000000000000000000000000000000 DUP2 MSTORE POP PUSH2 0x25ED SWAP1 SWAP3 SWAP2 SWAP1 PUSH4 0xFFFFFFFF AND JUMP JUMPDEST ISZERO ISZERO EQ PUSH2 0x1C0E JUMPI PUSH1 0x40 MLOAD PUSH32 0x8C379A000000000000000000000000000000000000000000000000000000000 DUP2 MSTORE PUSH1 0x4 ADD PUSH2 0x1C05 SWAP1 PUSH2 0x366F JUMP JUMPDEST PUSH1 0x40 MLOAD DUP1 SWAP2 SUB SWAP1 REVERT JUMPDEST PUSH1 0x1 ISZERO ISZERO PUSH2 0x1C98 PUSH1 0x1 PUSH1 0x40 MLOAD DUP1 PUSH1 0x40 ADD PUSH1 0x40 MSTORE DUP1 PUSH1 0x5 DUP2 MSTORE PUSH1 0x20 ADD PUSH32 0x6A656C6C6F000000000000000000000000000000000000000000000000000000 DUP2 MSTORE POP PUSH1 0x1 PUSH1 0x4 PUSH1 0x40 MLOAD DUP1 PUSH1 0x40 ADD PUSH1 0x40 MSTORE DUP1 PUSH1 0x5 DUP2 MSTORE PUSH1 0x20 ADD PUSH32 0x68656C6C6F000000000000000000000000000000000000000000000000000000 DUP2 MSTORE POP PUSH2 0x261F SWAP1 SWAP5 SWAP4 SWAP3 SWAP2 SWAP1 PUSH4 0xFFFFFFFF AND JUMP JUMPDEST ISZERO ISZERO EQ PUSH2 0x1CDA JUMPI PUSH1 0x40 MLOAD PUSH32 0x8C379A000000000000000000000000000000000000000000000000000000000 DUP2 MSTORE PUSH1 0x4 ADD PUSH2 0x1CD1 SWAP1 PUSH2 0x36DB JUMP JUMPDEST PUSH1 0x40 MLOAD DUP1 SWAP2 SUB SWAP1 REVERT JUMPDEST PUSH1 0x1 ISZERO ISZERO PUSH2 0x1D61 PUSH1 0x1 PUSH1 0x40 MLOAD DUP1 PUSH1 0x40 ADD PUSH1 0x40 MSTORE DUP1 PUSH1 0x8 DUP2 MSTORE PUSH1 0x20 ADD PUSH32 0x61626368656C6C6F000000000000000000000000000000000000000000000000 DUP2 MSTORE POP PUSH1 0x3 PUSH1 0x40 MLOAD DUP1 PUSH1 0x40 ADD PUSH1 0x40 MSTORE DUP1 PUSH1 0x6 DUP2 MSTORE PUSH1 0x20 ADD PUSH32 0x7A68656C6C6F0000000000000000000000000000000000000000000000000000 DUP2 MSTORE POP PUSH2 0x2643 SWAP1 SWAP4 SWAP3 SWAP2 SWAP1 PUSH4 0xFFFFFFFF AND JUMP JUMPDEST ISZERO ISZERO EQ PUSH2 0x1DA3 JUMPI PUSH1 0x40 MLOAD PUSH32 0x8C379A000000000000000000000000000000000000000000000000000000000 DUP2 MSTORE PUSH1 0x4 ADD PUSH2 0x1D9A SWAP1 PUSH2 0x2C1D JUMP JUMPDEST PUSH1 0x40 MLOAD DUP1 SWAP2 SUB SWAP1 REVERT JUMPDEST PUSH1 0x0 ISZERO ISZERO PUSH2 0x1E27 PUSH1 0x0 PUSH1 0x40 MLOAD DUP1 PUSH1 0x40 ADD PUSH1 0x40 MSTORE DUP1 PUSH1 0x8 DUP2 MSTORE PUSH1 0x20 ADD PUSH32 0x3078303130323033000000000000000000000000000000000000000000000000 DUP2 MSTORE POP PUSH1 0x40 MLOAD DUP1 PUSH1 0x40 ADD PUSH1 0x40 MSTORE DUP1 PUSH1 0xC DUP2 MSTORE PUSH1 0x20 ADD PUSH32 0x3078303130323033303030300000000000000000000000000000000000000000 DUP2 MSTORE POP PUSH2 0x25ED SWAP1 SWAP3 SWAP2 SWAP1 PUSH4 0xFFFFFFFF AND JUMP JUMPDEST ISZERO ISZERO EQ PUSH2 0x1E69 JUMPI PUSH1 0x40 MLOAD PUSH32 0x8C379A000000000000000000000000000000000000000000000000000000000 DUP2 MSTORE PUSH1 0x4 ADD PUSH2 0x1E60 SWAP1 PUSH2 0x376D JUMP JUMPDEST PUSH1 0x40 MLOAD DUP1 SWAP2 SUB SWAP1 REVERT JUMPDEST JUMP JUMPDEST PUSH32 0x3031323334353637383961626364656630313233343536373839616263646566 PUSH1 0x0 SHL PUSH2 0x1ED8 PUSH1 0x0 PUSH1 0x40 MLOAD DUP1 PUSH1 0x40 ADD PUSH1 0x40 MSTORE DUP1 PUSH1 0x20 DUP2 MSTORE PUSH1 0x20 ADD PUSH32 0x3031323334353637383961626364656630313233343536373839616263646566 DUP2 MSTORE POP PUSH2 0x267E SWAP1 SWAP2 SWAP1 PUSH4 0xFFFFFFFF AND JUMP JUMPDEST EQ PUSH2 0x1F18 JUMPI PUSH1 0x40 MLOAD PUSH32 0x8C379A000000000000000000000000000000000000000000000000000000000 DUP2 MSTORE PUSH1 0x4 ADD PUSH2 0x1F0F SWAP1 PUSH2 0x37D9 JUMP JUMPDEST PUSH1 0x40 MLOAD DUP1 SWAP2 SUB SWAP1 REVERT JUMPDEST JUMP JUMPDEST PUSH2 0x6263 PUSH2 0x1F66 PUSH1 0x1 PUSH1 0x40 MLOAD DUP1 PUSH1 0x40 ADD PUSH1 0x40 MSTORE DUP1 PUSH1 0x3 DUP2 MSTORE PUSH1 0x20 ADD PUSH32 0x6162630000000000000000000000000000000000000000000000000000000000 DUP2 MSTORE POP PUSH2 0x26A9 SWAP1 SWAP2 SWAP1 PUSH4 0xFFFFFFFF AND JUMP JUMPDEST PUSH2 0xFFFF AND EQ PUSH2 0x1FAA JUMPI PUSH1 0x40 MLOAD PUSH32 0x8C379A000000000000000000000000000000000000000000000000000000000 DUP2 MSTORE PUSH1 0x4 ADD PUSH2 0x1FA1 SWAP1 PUSH2 0x3845 JUMP JUMPDEST PUSH1 0x40 MLOAD DUP1 SWAP2 SUB SWAP1 REVERT JUMPDEST JUMP JUMPDEST PUSH1 0x0 DUP3 MLOAD PUSH1 0x14 DUP4 PUSH2 0x1FBD SWAP2 SWAP1 PUSH2 0x389E JUMP JUMPDEST GT ISZERO PUSH2 0x1FC8 JUMPI PUSH1 0x0 DUP1 REVERT JUMPDEST PUSH32 0xFFFFFFFFFFFFFFFFFFFFFFFFFFFFFFFFFFFFFFFF000000000000000000000000 DUP3 PUSH1 0x20 DUP6 ADD ADD MLOAD AND SWAP1 POP SWAP3 SWAP2 POP POP JUMP JUMPDEST PUSH1 0x60 DUP4 MLOAD DUP3 DUP5 PUSH2 0x2009 SWAP2 SWAP1 PUSH2 0x389E JUMP JUMPDEST GT ISZERO PUSH2 0x2014 JUMPI PUSH1 0x0 DUP1 REVERT JUMPDEST PUSH1 0x0 DUP3 PUSH8 0xFFFFFFFFFFFFFFFF DUP2 GT ISZERO PUSH2 0x2030 JUMPI PUSH2 0x202F PUSH2 0x38D2 JUMP JUMPDEST JUMPDEST PUSH1 0x40 MLOAD SWAP1 DUP1 DUP3 MSTORE DUP1 PUSH1 0x1F ADD PUSH1 0x1F NOT AND PUSH1 0x20 ADD DUP3 ADD PUSH1 0x40 MSTORE DUP1 ISZERO PUSH2 0x2062 JUMPI DUP2 PUSH1 0x20 ADD PUSH1 0x1 DUP3 MUL DUP1 CALLDATASIZE DUP4 CALLDATACOPY DUP1 DUP3 ADD SWAP2 POP POP SWAP1 POP JUMPDEST POP SWAP1 POP PUSH1 0x0 DUP1 PUSH1 0x20 DUP4 ADD SWAP2 POP DUP6 PUSH1 0x20 DUP9 ADD ADD SWAP1 POP PUSH2 0x2081 DUP3 DUP3 DUP8 PUSH2 0x26D8 JUMP JUMPDEST DUP3 SWAP4 POP POP POP POP SWAP4 SWAP3 POP POP POP JUMP JUMPDEST PUSH1 0x0 DUP3 MLOAD PUSH1 0x4 DUP4 PUSH2 0x209F SWAP2 SWAP1 PUSH2 0x389E JUMP JUMPDEST GT ISZERO PUSH2 0x20AA JUMPI PUSH1 0x0 DUP1 REVERT JUMPDEST PUSH4 0xFFFFFFFF DUP3 PUSH1 0x4 DUP6 ADD ADD MLOAD AND SWAP1 POP SWAP3 SWAP2 POP POP JUMP JUMPDEST PUSH1 0x0 DUP3 DUP3 DUP2 MLOAD DUP2 LT PUSH2 0x20D4 JUMPI PUSH2 0x20D3 PUSH2 0x3901 JUMP JUMPDEST JUMPDEST PUSH1 0x20 ADD ADD MLOAD PUSH1 0xF8 SHR PUSH1 0xF8 SHL PUSH1 0xF8 SHR SWAP1 POP SWAP3 SWAP2 POP POP JUMP JUMPDEST PUSH1 0x0 DUP4 MLOAD DUP3 DUP5 PUSH2 0x20FA SWAP2 SWAP1 PUSH2 0x389E JUMP JUMPDEST GT ISZERO PUSH2 0x2105 JUMPI PUSH1 0x0 DUP1 REVERT JUMPDEST DUP2 DUP4 PUSH1 0x20 DUP7 ADD ADD KECCAK256 SWAP1 POP SWAP4 SWAP3 POP POP POP JUMP JUMPDEST PUSH1 0x0 PUSH2 0x212A DUP4 PUSH1 0x0 DUP6 MLOAD DUP6 PUSH1 0x0 DUP8 MLOAD PUSH2 0x23C8 JUMP JUMPDEST SWAP1 POP SWAP3 SWAP2 POP POP JUMP JUMPDEST PUSH1 0x0 PUSH1 0x34 DUP3 GT ISZERO PUSH2 0x2142 JUMPI PUSH1 0x0 DUP1 REVERT JUMPDEST PUSH1 0x0 DUP1 DUP1 PUSH1 0x0 SWAP1 POP JUMPDEST DUP5 DUP2 LT ISZERO PUSH2 0x227C JUMPI PUSH1 0x0 DUP8 DUP3 DUP9 PUSH2 0x2162 SWAP2 SWAP1 PUSH2 0x389E JUMP JUMPDEST DUP2 MLOAD DUP2 LT PUSH2 0x2173 JUMPI PUSH2 0x2172 PUSH2 0x3901 JUMP JUMPDEST JUMPDEST PUSH1 0x20 ADD ADD MLOAD PUSH1 0xF8 SHR PUSH1 0xF8 SHL SWAP1 POP PUSH1 0x30 PUSH1 0xF8 SHL DUP2 PUSH31 0xFFFFFFFFFFFFFFFFFFFFFFFFFFFFFFFFFFFFFFFFFFFFFFFFFFFFFFFFFFFFFF NOT AND LT ISZERO DUP1 ISZERO PUSH2 0x21DC JUMPI POP PUSH1 0x7A PUSH1 0xF8 SHL DUP2 PUSH31 0xFFFFFFFFFFFFFFFFFFFFFFFFFFFFFFFFFFFFFFFFFFFFFFFFFFFFFFFFFFFFFF NOT AND GT ISZERO JUMPDEST PUSH2 0x21E5 JUMPI PUSH1 0x0 DUP1 REVERT JUMPDEST PUSH1 0x40 MLOAD DUP1 PUSH1 0x80 ADD PUSH1 0x40 MSTORE DUP1 PUSH1 0x47 DUP2 MSTORE PUSH1 0x20 ADD PUSH2 0x3D22 PUSH1 0x47 SWAP2 CODECOPY PUSH1 0x30 DUP3 PUSH1 0xF8 SHR PUSH1 0xFF AND PUSH2 0x2211 SWAP2 SWAP1 PUSH2 0x3930 JUMP JUMPDEST DUP2 MLOAD DUP2 LT PUSH2 0x2222 JUMPI PUSH2 0x2221 PUSH2 0x3901 JUMP JUMPDEST JUMPDEST PUSH1 0x20 ADD ADD MLOAD PUSH1 0xF8 SHR PUSH1 0xF8 SHL PUSH1 0xF8 SHR SWAP3 POP PUSH1 0x20 DUP4 PUSH1 0xFF AND GT ISZERO PUSH2 0x2243 JUMPI PUSH1 0x0 DUP1 REVERT JUMPDEST PUSH1 0x1 DUP7 PUSH2 0x2250 SWAP2 SWAP1 PUSH2 0x3930 JUMP JUMPDEST DUP3 SUB PUSH2 0x225C JUMPI POP PUSH2 0x227C JUMP JUMPDEST DUP3 PUSH1 0xFF AND PUSH1 0x5 DUP6 SWAP1 SHL OR SWAP4 POP POP DUP1 DUP1 PUSH2 0x2274 SWAP1 PUSH2 0x3964 JUMP JUMPDEST SWAP2 POP POP PUSH2 0x214B JUMP JUMPDEST POP PUSH1 0x0 PUSH1 0x5 DUP6 PUSH2 0x228C SWAP2 SWAP1 PUSH2 0x39AC JUMP JUMPDEST SWAP1 POP PUSH1 0x0 PUSH1 0x8 DUP7 PUSH2 0x229D SWAP2 SWAP1 PUSH2 0x3A1D JUMP JUMPDEST SUB PUSH2 0x22B3 JUMPI DUP2 PUSH1 0xFF AND PUSH1 0x5 DUP5 SWAP1 SHL OR SWAP3 POP PUSH2 0x23A8 JUMP JUMPDEST PUSH1 0x2 PUSH1 0x8 DUP7 PUSH2 0x22C2 SWAP2 SWAP1 PUSH2 0x3A1D JUMP JUMPDEST SUB PUSH2 0x22EE JUMPI PUSH1 0x2 DUP3 PUSH1 0xFF AND SWAP1 SHR PUSH1 0xFF AND PUSH1 0x3 DUP5 SWAP1 SHL OR SWAP3 POP PUSH1 0x2 DUP2 PUSH2 0x22E7 SWAP2 SWAP1 PUSH2 0x3930 JUMP JUMPDEST SWAP1 POP PUSH2 0x23A7 JUMP JUMPDEST PUSH1 0x4 PUSH1 0x8 DUP7 PUSH2 0x22FD SWAP2 SWAP1 PUSH2 0x3A1D JUMP JUMPDEST SUB PUSH2 0x2329 JUMPI PUSH1 0x4 DUP3 PUSH1 0xFF AND SWAP1 SHR PUSH1 0xFF AND PUSH1 0x1 DUP5 SWAP1 SHL OR SWAP3 POP PUSH1 0x4 DUP2 PUSH2 0x2322 SWAP2 SWAP1 PUSH2 0x3930 JUMP JUMPDEST SWAP1 POP PUSH2 0x23A6 JUMP JUMPDEST PUSH1 0x5 PUSH1 0x8 DUP7 PUSH2 0x2338 SWAP2 SWAP1 PUSH2 0x3A1D JUMP JUMPDEST SUB PUSH2 0x2364 JUMPI PUSH1 0x1 DUP3 PUSH1 0xFF AND SWAP1 SHR PUSH1 0xFF AND PUSH1 0x4 DUP5 SWAP1 SHL OR SWAP3 POP PUSH1 0x1 DUP2 PUSH2 0x235D SWAP2 SWAP1 PUSH2 0x3930 JUMP JUMPDEST SWAP1 POP PUSH2 0x23A5 JUMP JUMPDEST PUSH1 0x7 PUSH1 0x8 DUP7 PUSH2 0x2373 SWAP2 SWAP1 PUSH2 0x3A1D JUMP JUMPDEST SUB PUSH2 0x239F JUMPI PUSH1 0x3 DUP3 PUSH1 0xFF AND SWAP1 SHR PUSH1 0xFF AND PUSH1 0x2 DUP5 SWAP1 SHL OR SWAP3 POP PUSH1 0x3 DUP2 PUSH2 0x2398 SWAP2 SWAP1 PUSH2 0x3930 JUMP JUMPDEST SWAP1 POP PUSH2 0x23A4 JUMP JUMPDEST PUSH1 0x0 DUP1 REVERT JUMPDEST JUMPDEST JUMPDEST JUMPDEST JUMPDEST DUP1 PUSH2 0x100 PUSH2 0x23B6 SWAP2 SWAP1 PUSH2 0x3930 JUMP JUMPDEST DUP4 SWAP1 SHL PUSH1 0x0 SHL SWAP4 POP POP POP POP SWAP4 SWAP3 POP POP POP JUMP JUMPDEST PUSH1 0x0 DUP7 MLOAD DUP6 DUP8 PUSH2 0x23D8 SWAP2 SWAP1 PUSH2 0x389E JUMP JUMPDEST GT ISZERO PUSH2 0x2429 JUMPI DUP5 DUP7 PUSH2 0x23EA SWAP2 SWAP1 PUSH2 0x389E JUMP JUMPDEST DUP8 MLOAD PUSH1 0x40 MLOAD PUSH32 0x8A3C1CFB00000000000000000000000000000000000000000000000000000000 DUP2 MSTORE PUSH1 0x4 ADD PUSH2 0x2420 SWAP3 SWAP2 SWAP1 PUSH2 0x3A5D JUMP JUMPDEST PUSH1 0x40 MLOAD DUP1 SWAP2 SUB SWAP1 REVERT JUMPDEST DUP4 MLOAD DUP3 DUP5 PUSH2 0x2437 SWAP2 SWAP1 PUSH2 0x389E JUMP JUMPDEST GT ISZERO PUSH2 0x2488 JUMPI DUP2 DUP4 PUSH2 0x2449 SWAP2 SWAP1 PUSH2 0x389E JUMP JUMPDEST DUP5 MLOAD PUSH1 0x40 MLOAD PUSH32 0x8A3C1CFB00000000000000000000000000000000000000000000000000000000 DUP2 MSTORE PUSH1 0x4 ADD PUSH2 0x247F SWAP3 SWAP2 SWAP1 PUSH2 0x3A5D JUMP JUMPDEST PUSH1 0x40 MLOAD DUP1 SWAP2 SUB SWAP1 REVERT JUMPDEST PUSH1 0x0 DUP6 SWAP1 POP DUP6 DUP4 LT ISZERO PUSH2 0x2499 JUMPI DUP3 SWAP1 POP JUMPDEST PUSH1 0x0 DUP1 PUSH1 0x20 DUP10 ADD DUP11 ADD SWAP2 POP PUSH1 0x20 DUP7 ADD DUP8 ADD SWAP1 POP PUSH1 0x0 JUMPDEST DUP4 DUP2 LT ISZERO PUSH2 0x25A9 JUMPI PUSH1 0x0 DUP1 DUP5 MLOAD SWAP2 POP DUP4 MLOAD SWAP1 POP DUP1 DUP3 EQ PUSH2 0x2575 JUMPI PUSH1 0x0 PUSH1 0x20 DUP5 DUP9 PUSH2 0x24D9 SWAP2 SWAP1 PUSH2 0x3930 JUMP JUMPDEST LT PUSH2 0x2506 JUMPI PUSH32 0xFFFFFFFFFFFFFFFFFFFFFFFFFFFFFFFFFFFFFFFFFFFFFFFFFFFFFFFFFFFFFFFF SWAP1 POP PUSH2 0x2546 JUMP JUMPDEST PUSH1 0x1 DUP8 PUSH1 0x20 DUP7 PUSH2 0x2516 SWAP2 SWAP1 PUSH2 0x389E JUMP JUMPDEST PUSH2 0x2520 SWAP2 SWAP1 PUSH2 0x3930 JUMP JUMPDEST PUSH1 0x8 PUSH2 0x252C SWAP2 SWAP1 PUSH2 0x39AC JUMP JUMPDEST PUSH1 0x2 PUSH2 0x2538 SWAP2 SWAP1 PUSH2 0x3BB9 JUMP JUMPDEST PUSH2 0x2542 SWAP2 SWAP1 PUSH2 0x3930 JUMP JUMPDEST NOT SWAP1 POP JUMPDEST PUSH1 0x0 DUP2 DUP4 AND DUP3 DUP6 AND PUSH2 0x2558 SWAP2 SWAP1 PUSH2 0x3C0E JUMP JUMPDEST SWAP1 POP PUSH1 0x0 DUP2 EQ PUSH2 0x2572 JUMPI DUP1 SWAP9 POP POP POP POP POP POP POP POP POP PUSH2 0x25BC JUMP JUMPDEST POP POP JUMPDEST PUSH1 0x20 DUP6 PUSH2 0x2582 SWAP2 SWAP1 PUSH2 0x389E JUMP JUMPDEST SWAP5 POP PUSH1 0x20 DUP5 PUSH2 0x2591 SWAP2 SWAP1 PUSH2 0x389E JUMP JUMPDEST SWAP4 POP POP POP PUSH1 0x20 DUP2 PUSH2 0x25A2 SWAP2 SWAP1 PUSH2 0x389E JUMP JUMPDEST SWAP1 POP PUSH2 0x24AF JUMP JUMPDEST POP DUP5 DUP9 PUSH2 0x25B6 SWAP2 SWAP1 PUSH2 0x3C0E JUMP JUMPDEST SWAP4 POP POP POP POP JUMPDEST SWAP7 SWAP6 POP POP POP POP POP POP JUMP JUMPDEST PUSH1 0x0 DUP2 MLOAD DUP4 MLOAD EQ DUP1 ISZERO PUSH2 0x25E5 JUMPI POP PUSH2 0x25E4 DUP4 PUSH1 0x0 DUP5 PUSH1 0x0 DUP8 MLOAD PUSH2 0x261F JUMP JUMPDEST JUMPDEST SWAP1 POP SWAP3 SWAP2 POP POP JUMP JUMPDEST PUSH1 0x0 DUP2 MLOAD DUP4 PUSH2 0x25FC SWAP2 SWAP1 PUSH2 0x389E JUMP JUMPDEST DUP5 MLOAD EQ DUP1 ISZERO PUSH2 0x2616 JUMPI POP PUSH2 0x2615 DUP5 DUP5 DUP5 PUSH1 0x0 DUP7 MLOAD PUSH2 0x261F JUMP JUMPDEST JUMPDEST SWAP1 POP SWAP4 SWAP3 POP POP POP JUMP JUMPDEST PUSH1 0x0 PUSH2 0x262C DUP5 DUP5 DUP5 PUSH2 0x20EA JUMP JUMPDEST PUSH2 0x2637 DUP8 DUP8 DUP6 PUSH2 0x20EA JUMP JUMPDEST EQ SWAP1 POP SWAP6 SWAP5 POP POP POP POP POP JUMP JUMPDEST PUSH1 0x0 PUSH2 0x265C DUP4 DUP4 DUP5 DUP7 MLOAD PUSH2 0x2657 SWAP2 SWAP1 PUSH2 0x3930 JUMP JUMPDEST PUSH2 0x20EA JUMP JUMPDEST PUSH2 0x2673 DUP7 DUP7 DUP8 DUP10 MLOAD PUSH2 0x266E SWAP2 SWAP1 PUSH2 0x3930 JUMP JUMPDEST PUSH2 0x20EA JUMP JUMPDEST EQ SWAP1 POP SWAP5 SWAP4 POP POP POP POP JUMP JUMPDEST PUSH1 0x0 DUP3 MLOAD PUSH1 0x20 DUP4 PUSH2 0x268F SWAP2 SWAP1 PUSH2 0x389E JUMP JUMPDEST GT ISZERO PUSH2 0x269A JUMPI PUSH1 0x0 DUP1 REVERT JUMPDEST DUP2 PUSH1 0x20 DUP5 ADD ADD MLOAD SWAP1 POP SWAP3 SWAP2 POP POP JUMP JUMPDEST PUSH1 0x0 DUP3 MLOAD PUSH1 0x2 DUP4 PUSH2 0x26BA SWAP2 SWAP1 PUSH2 0x389E JUMP JUMPDEST GT ISZERO PUSH2 0x26C5 JUMPI PUSH1 0x0 DUP1 REVERT JUMPDEST PUSH2 0xFFFF DUP3 PUSH1 0x2 DUP6 ADD ADD MLOAD AND SWAP1 POP SWAP3 SWAP2 POP POP JUMP JUMPDEST JUMPDEST PUSH1 0x20 DUP2 LT PUSH2 0x2717 JUMPI DUP2 MLOAD DUP4 MSTORE PUSH1 0x20 DUP4 PUSH2 0x26F2 SWAP2 SWAP1 PUSH2 0x389E JUMP JUMPDEST SWAP3 POP PUSH1 0x20 DUP3 PUSH2 0x2701 SWAP2 SWAP1 PUSH2 0x389E JUMP JUMPDEST SWAP2 POP PUSH1 0x20 DUP2 PUSH2 0x2710 SWAP2 SWAP1 PUSH2 0x3930 JUMP JUMPDEST SWAP1 POP PUSH2 0x26D9 JUMP JUMPDEST PUSH1 0x0 PUSH1 0x1 DUP3 PUSH1 0x20 SUB PUSH2 0x100 EXP SUB SWAP1 POP DUP1 NOT DUP4 MLOAD AND DUP2 DUP6 MLOAD AND DUP2 DUP2 OR DUP7 MSTORE POP POP POP POP POP POP JUMP JUMPDEST PUSH1 0x0 DUP3 DUP3 MSTORE PUSH1 0x20 DUP3 ADD SWAP1 POP SWAP3 SWAP2 POP POP JUMP JUMPDEST PUSH32 0x7265616442797465733230000000000000000000000000000000000000000000 PUSH1 0x0 DUP3 ADD MSTORE POP JUMP JUMPDEST PUSH1 0x0 PUSH2 0x2783 PUSH1 0xB DUP4 PUSH2 0x273C JUMP JUMPDEST SWAP2 POP PUSH2 0x278E DUP3 PUSH2 0x274D JUMP JUMPDEST PUSH1 0x20 DUP3 ADD SWAP1 POP SWAP2 SWAP1 POP JUMP JUMPDEST PUSH1 0x0 PUSH1 0x20 DUP3 ADD SWAP1 POP DUP2 DUP2 SUB PUSH1 0x0 DUP4 ADD MSTORE PUSH2 0x27B2 DUP2 PUSH2 0x2776 JUMP JUMPDEST SWAP1 POP SWAP2 SWAP1 POP JUMP JUMPDEST PUSH32 0x436F707920302062797465730000000000000000000000000000000000000000 PUSH1 0x0 DUP3 ADD MSTORE POP JUMP JUMPDEST PUSH1 0x0 PUSH2 0x27EF PUSH1 0xC DUP4 PUSH2 0x273C JUMP JUMPDEST SWAP2 POP PUSH2 0x27FA DUP3 PUSH2 0x27B9 JUMP JUMPDEST PUSH1 0x20 DUP3 ADD SWAP1 POP SWAP2 SWAP1 POP JUMP JUMPDEST PUSH1 0x0 PUSH1 0x20 DUP3 ADD SWAP1 POP DUP2 DUP2 SUB PUSH1 0x0 DUP4 ADD MSTORE PUSH2 0x281E DUP2 PUSH2 0x27E2 JUMP JUMPDEST SWAP1 POP SWAP2 SWAP1 POP JUMP JUMPDEST PUSH32 0x436F707920737562737472696E67000000000000000000000000000000000000 PUSH1 0x0 DUP3 ADD MSTORE POP JUMP JUMPDEST PUSH1 0x0 PUSH2 0x285B PUSH1 0xE DUP4 PUSH2 0x273C JUMP JUMPDEST SWAP2 POP PUSH2 0x2866 DUP3 PUSH2 0x2825 JUMP JUMPDEST PUSH1 0x20 DUP3 ADD SWAP1 POP SWAP2 SWAP1 POP JUMP JUMPDEST PUSH1 0x0 PUSH1 0x20 DUP3 ADD SWAP1 POP DUP2 DUP2 SUB PUSH1 0x0 DUP4 ADD MSTORE PUSH2 0x288A DUP2 PUSH2 0x284E JUMP JUMPDEST SWAP1 POP SWAP2 SWAP1 POP JUMP JUMPDEST PUSH32 0x436F70792077686F6C6520737472696E67000000000000000000000000000000 PUSH1 0x0 DUP3 ADD MSTORE POP JUMP JUMPDEST PUSH1 0x0 PUSH2 0x28C7 PUSH1 0x11 DUP4 PUSH2 0x273C JUMP JUMPDEST SWAP2 POP PUSH2 0x28D2 DUP3 PUSH2 0x2891 JUMP JUMPDEST PUSH1 0x20 DUP3 ADD SWAP1 POP SWAP2 SWAP1 POP JUMP JUMPDEST PUSH1 0x0 PUSH1 0x20 DUP3 ADD SWAP1 POP DUP2 DUP2 SUB PUSH1 0x0 DUP4 ADD MSTORE PUSH2 0x28F6 DUP2 PUSH2 0x28BA JUMP JUMPDEST SWAP1 POP SWAP2 SWAP1 POP JUMP JUMPDEST PUSH32 0x526561642075696E742033320000000000000000000000000000000000000000 PUSH1 0x0 DUP3 ADD MSTORE POP JUMP JUMPDEST PUSH1 0x0 PUSH2 0x2933 PUSH1 0xC DUP4 PUSH2 0x273C JUMP JUMPDEST SWAP2 POP PUSH2 0x293E DUP3 PUSH2 0x28FD JUMP JUMPDEST PUSH1 0x20 DUP3 ADD SWAP1 POP SWAP2 SWAP1 POP JUMP JUMPDEST PUSH1 0x0 PUSH1 0x20 DUP3 ADD SWAP1 POP DUP2 DUP2 SUB PUSH1 0x0 DUP4 ADD MSTORE PUSH2 0x2962 DUP2 PUSH2 0x2926 JUMP JUMPDEST SWAP1 POP SWAP2 SWAP1 POP JUMP JUMPDEST PUSH32 0x61203D3D20307836310000000000000000000000000000000000000000000000 PUSH1 0x0 DUP3 ADD MSTORE POP JUMP JUMPDEST PUSH1 0x0 PUSH2 0x299F PUSH1 0x9 DUP4 PUSH2 0x273C JUMP JUMPDEST SWAP2 POP PUSH2 0x29AA DUP3 PUSH2 0x2969 JUMP JUMPDEST PUSH1 0x20 DUP3 ADD SWAP1 POP SWAP2 SWAP1 POP JUMP JUMPDEST PUSH1 0x0 PUSH1 0x20 DUP3 ADD SWAP1 POP DUP2 DUP2 SUB PUSH1 0x0 DUP4 ADD MSTORE PUSH2 0x29CE DUP2 PUSH2 0x2992 JUMP JUMPDEST SWAP1 POP SWAP2 SWAP1 POP JUMP JUMPDEST PUSH32 0x496E636F72726563742068617368206F6620656D70747920737472696E670000 PUSH1 0x0 DUP3 ADD MSTORE POP JUMP JUMPDEST PUSH1 0x0 PUSH2 0x2A0B PUSH1 0x1E DUP4 PUSH2 0x273C JUMP JUMPDEST SWAP2 POP PUSH2 0x2A16 DUP3 PUSH2 0x29D5 JUMP JUMPDEST PUSH1 0x20 DUP3 ADD SWAP1 POP SWAP2 SWAP1 POP JUMP JUMPDEST PUSH1 0x0 PUSH1 0x20 DUP3 ADD SWAP1 POP DUP2 DUP2 SUB PUSH1 0x0 DUP4 ADD MSTORE PUSH2 0x2A3A DUP2 PUSH2 0x29FE JUMP JUMPDEST SWAP1 POP SWAP2 SWAP1 POP JUMP JUMPDEST PUSH32 0x496E636F72726563742068617368206F662027666F6F27000000000000000000 PUSH1 0x0 DUP3 ADD MSTORE POP JUMP JUMPDEST PUSH1 0x0 PUSH2 0x2A77 PUSH1 0x17 DUP4 PUSH2 0x273C JUMP JUMPDEST SWAP2 POP PUSH2 0x2A82 DUP3 PUSH2 0x2A41 JUMP JUMPDEST PUSH1 0x20 DUP3 ADD SWAP1 POP SWAP2 SWAP1 POP JUMP JUMPDEST PUSH1 0x0 PUSH1 0x20 DUP3 ADD SWAP1 POP DUP2 DUP2 SUB PUSH1 0x0 DUP4 ADD MSTORE PUSH2 0x2AA6 DUP2 PUSH2 0x2A6A JUMP JUMPDEST SWAP1 POP SWAP2 SWAP1 POP JUMP JUMPDEST PUSH32 0x436F6D7061726520657175616C00000000000000000000000000000000000000 PUSH1 0x0 DUP3 ADD MSTORE POP JUMP JUMPDEST PUSH1 0x0 PUSH2 0x2AE3 PUSH1 0xD DUP4 PUSH2 0x273C JUMP JUMPDEST SWAP2 POP PUSH2 0x2AEE DUP3 PUSH2 0x2AAD JUMP JUMPDEST PUSH1 0x20 DUP3 ADD SWAP1 POP SWAP2 SWAP1 POP JUMP JUMPDEST PUSH1 0x0 PUSH1 0x20 DUP3 ADD SWAP1 POP DUP2 DUP2 SUB PUSH1 0x0 DUP4 ADD MSTORE PUSH2 0x2B12 DUP2 PUSH2 0x2AD6 JUMP JUMPDEST SWAP1 POP SWAP2 SWAP1 POP JUMP JUMPDEST PUSH32 0x436F6D7061726520646966666572656E742076616C756520776974682073616D PUSH1 0x0 DUP3 ADD MSTORE PUSH32 0x65206C656E677468000000000000000000000000000000000000000000000000 PUSH1 0x20 DUP3 ADD MSTORE POP JUMP JUMPDEST PUSH1 0x0 PUSH2 0x2B75 PUSH1 0x28 DUP4 PUSH2 0x273C JUMP JUMPDEST SWAP2 POP PUSH2 0x2B80 DUP3 PUSH2 0x2B19 JUMP JUMPDEST PUSH1 0x40 DUP3 ADD SWAP1 POP SWAP2 SWAP1 POP JUMP JUMPDEST PUSH1 0x0 PUSH1 0x20 DUP3 ADD SWAP1 POP DUP2 DUP2 SUB PUSH1 0x0 DUP4 ADD MSTORE PUSH2 0x2BA4 DUP2 PUSH2 0x2B68 JUMP JUMPDEST SWAP1 POP SWAP2 SWAP1 POP JUMP JUMPDEST PUSH32 0x436F6D7061726520646966666572656E742076616C75652077697468206D756C PUSH1 0x0 DUP3 ADD MSTORE PUSH32 0x7469706C65206C656E6774680000000000000000000000000000000000000000 PUSH1 0x20 DUP3 ADD MSTORE POP JUMP JUMPDEST PUSH1 0x0 PUSH2 0x2C07 PUSH1 0x2C DUP4 PUSH2 0x273C JUMP JUMPDEST SWAP2 POP PUSH2 0x2C12 DUP3 PUSH2 0x2BAB JUMP JUMPDEST PUSH1 0x40 DUP3 ADD SWAP1 POP SWAP2 SWAP1 POP JUMP JUMPDEST PUSH1 0x0 PUSH1 0x20 DUP3 ADD SWAP1 POP DUP2 DUP2 SUB PUSH1 0x0 DUP4 ADD MSTORE PUSH2 0x2C36 DUP2 PUSH2 0x2BFA JUMP JUMPDEST SWAP1 POP SWAP2 SWAP1 POP JUMP JUMPDEST PUSH32 0x436F6D7061726520646966666572656E742076616C7565207769746820646966 PUSH1 0x0 DUP3 ADD MSTORE PUSH32 0x666572656E74206C656E67746800000000000000000000000000000000000000 PUSH1 0x20 DUP3 ADD MSTORE POP JUMP JUMPDEST PUSH1 0x0 PUSH2 0x2C99 PUSH1 0x2D DUP4 PUSH2 0x273C JUMP JUMPDEST SWAP2 POP PUSH2 0x2CA4 DUP3 PUSH2 0x2C3D JUMP JUMPDEST PUSH1 0x40 DUP3 ADD SWAP1 POP SWAP2 SWAP1 POP JUMP JUMPDEST PUSH1 0x0 PUSH1 0x20 DUP3 ADD SWAP1 POP DUP2 DUP2 SUB PUSH1 0x0 DUP4 ADD MSTORE PUSH2 0x2CC8 DUP2 PUSH2 0x2C8C JUMP JUMPDEST SWAP1 POP SWAP2 SWAP1 POP JUMP JUMPDEST PUSH32 0x436F6D7061726573206D6F7265207468616E2033322062797465732063686172 PUSH1 0x0 DUP3 ADD MSTORE POP JUMP JUMPDEST PUSH1 0x0 PUSH2 0x2D05 PUSH1 0x20 DUP4 PUSH2 0x273C JUMP JUMPDEST SWAP2 POP PUSH2 0x2D10 DUP3 PUSH2 0x2CCF JUMP JUMPDEST PUSH1 0x20 DUP3 ADD SWAP1 POP SWAP2 SWAP1 POP JUMP JUMPDEST PUSH1 0x0 PUSH1 0x20 DUP3 ADD SWAP1 POP DUP2 DUP2 SUB PUSH1 0x0 DUP4 ADD MSTORE PUSH2 0x2D34 DUP2 PUSH2 0x2CF8 JUMP JUMPDEST SWAP1 POP SWAP2 SWAP1 POP JUMP JUMPDEST PUSH32 0x436F6D70617265206C6F6E672063686172207769746820646966666572656E63 PUSH1 0x0 DUP3 ADD MSTORE PUSH32 0x6520617420737461727400000000000000000000000000000000000000000000 PUSH1 0x20 DUP3 ADD MSTORE POP JUMP JUMPDEST PUSH1 0x0 PUSH2 0x2D97 PUSH1 0x2A DUP4 PUSH2 0x273C JUMP JUMPDEST SWAP2 POP PUSH2 0x2DA2 DUP3 PUSH2 0x2D3B JUMP JUMPDEST PUSH1 0x40 DUP3 ADD SWAP1 POP SWAP2 SWAP1 POP JUMP JUMPDEST PUSH1 0x0 PUSH1 0x20 DUP3 ADD SWAP1 POP DUP2 DUP2 SUB PUSH1 0x0 DUP4 ADD MSTORE PUSH2 0x2DC6 DUP2 PUSH2 0x2D8A JUMP JUMPDEST SWAP1 POP SWAP2 SWAP1 POP JUMP JUMPDEST PUSH32 0x4465636F64652027612700000000000000000000000000000000000000000000 PUSH1 0x0 DUP3 ADD MSTORE POP JUMP JUMPDEST PUSH1 0x0 PUSH2 0x2E03 PUSH1 0xA DUP4 PUSH2 0x273C JUMP JUMPDEST SWAP2 POP PUSH2 0x2E0E DUP3 PUSH2 0x2DCD JUMP JUMPDEST PUSH1 0x20 DUP3 ADD SWAP1 POP SWAP2 SWAP1 POP JUMP JUMPDEST PUSH1 0x0 PUSH1 0x20 DUP3 ADD SWAP1 POP DUP2 DUP2 SUB PUSH1 0x0 DUP4 ADD MSTORE PUSH2 0x2E32 DUP2 PUSH2 0x2DF6 JUMP JUMPDEST SWAP1 POP SWAP2 SWAP1 POP JUMP JUMPDEST PUSH32 0x4465636F64652027616127000000000000000000000000000000000000000000 PUSH1 0x0 DUP3 ADD MSTORE POP JUMP JUMPDEST PUSH1 0x0 PUSH2 0x2E6F PUSH1 0xB DUP4 PUSH2 0x273C JUMP JUMPDEST SWAP2 POP PUSH2 0x2E7A DUP3 PUSH2 0x2E39 JUMP JUMPDEST PUSH1 0x20 DUP3 ADD SWAP1 POP SWAP2 SWAP1 POP JUMP JUMPDEST PUSH1 0x0 PUSH1 0x20 DUP3 ADD SWAP1 POP DUP2 DUP2 SUB PUSH1 0x0 DUP4 ADD MSTORE PUSH2 0x2E9E DUP2 PUSH2 0x2E62 JUMP JUMPDEST SWAP1 POP SWAP2 SWAP1 POP JUMP JUMPDEST PUSH32 0x4465636F64652027616161270000000000000000000000000000000000000000 PUSH1 0x0 DUP3 ADD MSTORE POP JUMP JUMPDEST PUSH1 0x0 PUSH2 0x2EDB PUSH1 0xC DUP4 PUSH2 0x273C JUMP JUMPDEST SWAP2 POP PUSH2 0x2EE6 DUP3 PUSH2 0x2EA5 JUMP JUMPDEST PUSH1 0x20 DUP3 ADD SWAP1 POP SWAP2 SWAP1 POP JUMP JUMPDEST PUSH1 0x0 PUSH1 0x20 DUP3 ADD SWAP1 POP DUP2 DUP2 SUB PUSH1 0x0 DUP4 ADD MSTORE PUSH2 0x2F0A DUP2 PUSH2 0x2ECE JUMP JUMPDEST SWAP1 POP SWAP2 SWAP1 POP JUMP JUMPDEST PUSH32 0x4465636F64652027616161612700000000000000000000000000000000000000 PUSH1 0x0 DUP3 ADD MSTORE POP JUMP JUMPDEST PUSH1 0x0 PUSH2 0x2F47 PUSH1 0xD DUP4 PUSH2 0x273C JUMP JUMPDEST SWAP2 POP PUSH2 0x2F52 DUP3 PUSH2 0x2F11 JUMP JUMPDEST PUSH1 0x20 DUP3 ADD SWAP1 POP SWAP2 SWAP1 POP JUMP JUMPDEST PUSH1 0x0 PUSH1 0x20 DUP3 ADD SWAP1 POP DUP2 DUP2 SUB PUSH1 0x0 DUP4 ADD MSTORE PUSH2 0x2F76 DUP2 PUSH2 0x2F3A JUMP JUMPDEST SWAP1 POP SWAP2 SWAP1 POP JUMP JUMPDEST PUSH32 0x4465636F64652027616161616127000000000000000000000000000000000000 PUSH1 0x0 DUP3 ADD MSTORE POP JUMP JUMPDEST PUSH1 0x0 PUSH2 0x2FB3 PUSH1 0xE DUP4 PUSH2 0x273C JUMP JUMPDEST SWAP2 POP PUSH2 0x2FBE DUP3 PUSH2 0x2F7D JUMP JUMPDEST PUSH1 0x20 DUP3 ADD SWAP1 POP SWAP2 SWAP1 POP JUMP JUMPDEST PUSH1 0x0 PUSH1 0x20 DUP3 ADD SWAP1 POP DUP2 DUP2 SUB PUSH1 0x0 DUP4 ADD MSTORE PUSH2 0x2FE2 DUP2 PUSH2 0x2FA6 JUMP JUMPDEST SWAP1 POP SWAP2 SWAP1 POP JUMP JUMPDEST PUSH32 0x4465636F64652027616161616127206C6F776572636173650000000000000000 PUSH1 0x0 DUP3 ADD MSTORE POP JUMP JUMPDEST PUSH1 0x0 PUSH2 0x301F PUSH1 0x18 DUP4 PUSH2 0x273C JUMP JUMPDEST SWAP2 POP PUSH2 0x302A DUP3 PUSH2 0x2FE9 JUMP JUMPDEST PUSH1 0x20 DUP3 ADD SWAP1 POP SWAP2 SWAP1 POP JUMP JUMPDEST PUSH1 0x0 PUSH1 0x20 DUP3 ADD SWAP1 POP DUP2 DUP2 SUB PUSH1 0x0 DUP4 ADD MSTORE PUSH2 0x304E DUP2 PUSH2 0x3012 JUMP JUMPDEST SWAP1 POP SWAP2 SWAP1 POP JUMP JUMPDEST PUSH32 0x4465636F646520616C7068616265740000000000000000000000000000000000 PUSH1 0x0 DUP3 ADD MSTORE POP JUMP JUMPDEST PUSH1 0x0 PUSH2 0x308B PUSH1 0xF DUP4 PUSH2 0x273C JUMP JUMPDEST SWAP2 POP PUSH2 0x3096 DUP3 PUSH2 0x3055 JUMP JUMPDEST PUSH1 0x20 DUP3 ADD SWAP1 POP SWAP2 SWAP1 POP JUMP JUMPDEST PUSH1 0x0 PUSH1 0x20 DUP3 ADD SWAP1 POP DUP2 DUP2 SUB PUSH1 0x0 DUP4 ADD MSTORE PUSH2 0x30BA DUP2 PUSH2 0x307E JUMP JUMPDEST SWAP1 POP SWAP2 SWAP1 POP JUMP JUMPDEST PUSH32 0x4465636F646520616C706861626574206C6F7765726361736500000000000000 PUSH1 0x0 DUP3 ADD MSTORE POP JUMP JUMPDEST PUSH1 0x0 PUSH2 0x30F7 PUSH1 0x19 DUP4 PUSH2 0x273C JUMP JUMPDEST SWAP2 POP PUSH2 0x3102 DUP3 PUSH2 0x30C1 JUMP JUMPDEST PUSH1 0x20 DUP3 ADD SWAP1 POP SWAP2 SWAP1 POP JUMP JUMPDEST PUSH1 0x0 PUSH1 0x20 DUP3 ADD SWAP1 POP DUP2 DUP2 SUB PUSH1 0x0 DUP4 ADD MSTORE PUSH2 0x3126 DUP2 PUSH2 0x30EA JUMP JUMPDEST SWAP1 POP SWAP2 SWAP1 POP JUMP JUMPDEST PUSH32 0x4465636F64652033322A27612700000000000000000000000000000000000000 PUSH1 0x0 DUP3 ADD MSTORE POP JUMP JUMPDEST PUSH1 0x0 PUSH2 0x3163 PUSH1 0xD DUP4 PUSH2 0x273C JUMP JUMPDEST SWAP2 POP PUSH2 0x316E DUP3 PUSH2 0x312D JUMP JUMPDEST PUSH1 0x20 DUP3 ADD SWAP1 POP SWAP2 SWAP1 POP JUMP JUMPDEST PUSH1 0x0 PUSH1 0x20 DUP3 ADD SWAP1 POP DUP2 DUP2 SUB PUSH1 0x0 DUP4 ADD MSTORE PUSH2 0x3192 DUP2 PUSH2 0x3156 JUMP JUMPDEST SWAP1 POP SWAP2 SWAP1 POP JUMP JUMPDEST PUSH32 0x4465636F6465207265616C206279746573333268657800000000000000000000 PUSH1 0x0 DUP3 ADD MSTORE POP JUMP JUMPDEST PUSH1 0x0 PUSH2 0x31CF PUSH1 0x16 DUP4 PUSH2 0x273C JUMP JUMPDEST SWAP2 POP PUSH2 0x31DA DUP3 PUSH2 0x3199 JUMP JUMPDEST PUSH1 0x20 DUP3 ADD SWAP1 POP SWAP2 SWAP1 POP JUMP JUMPDEST PUSH1 0x0 PUSH1 0x20 DUP3 ADD SWAP1 POP DUP2 DUP2 SUB PUSH1 0x0 DUP4 ADD MSTORE PUSH2 0x31FE DUP2 PUSH2 0x31C2 JUMP JUMPDEST SWAP1 POP SWAP2 SWAP1 POP JUMP JUMPDEST PUSH32 0x436F6D706172652073616D65206C656E67746800000000000000000000000000 PUSH1 0x0 DUP3 ADD MSTORE POP JUMP JUMPDEST PUSH1 0x0 PUSH2 0x323B PUSH1 0x13 DUP4 PUSH2 0x273C JUMP JUMPDEST SWAP2 POP PUSH2 0x3246 DUP3 PUSH2 0x3205 JUMP JUMPDEST PUSH1 0x20 DUP3 ADD SWAP1 POP SWAP2 SWAP1 POP JUMP JUMPDEST PUSH1 0x0 PUSH1 0x20 DUP3 ADD SWAP1 POP DUP2 DUP2 SUB PUSH1 0x0 DUP4 ADD MSTORE PUSH2 0x326A DUP2 PUSH2 0x322E JUMP JUMPDEST SWAP1 POP SWAP2 SWAP1 POP JUMP JUMPDEST PUSH32 0x436F6D7061726520646966666572656E74206C656E6774680000000000000000 PUSH1 0x0 DUP3 ADD MSTORE POP JUMP JUMPDEST PUSH1 0x0 PUSH2 0x32A7 PUSH1 0x18 DUP4 PUSH2 0x273C JUMP JUMPDEST SWAP2 POP PUSH2 0x32B2 DUP3 PUSH2 0x3271 JUMP JUMPDEST PUSH1 0x20 DUP3 ADD SWAP1 POP SWAP2 SWAP1 POP JUMP JUMPDEST PUSH1 0x0 PUSH1 0x20 DUP3 ADD SWAP1 POP DUP2 DUP2 SUB PUSH1 0x0 DUP4 ADD MSTORE PUSH2 0x32D6 DUP2 PUSH2 0x329A JUMP JUMPDEST SWAP1 POP SWAP2 SWAP1 POP JUMP JUMPDEST PUSH32 0x436F6D706172652073616D65207769746820646966666572656E74206F666673 PUSH1 0x0 DUP3 ADD MSTORE PUSH32 0x6574000000000000000000000000000000000000000000000000000000000000 PUSH1 0x20 DUP3 ADD MSTORE POP JUMP JUMPDEST PUSH1 0x0 PUSH2 0x3339 PUSH1 0x22 DUP4 PUSH2 0x273C JUMP JUMPDEST SWAP2 POP PUSH2 0x3344 DUP3 PUSH2 0x32DD JUMP JUMPDEST PUSH1 0x40 DUP3 ADD SWAP1 POP SWAP2 SWAP1 POP JUMP JUMPDEST PUSH1 0x0 PUSH1 0x20 DUP3 ADD SWAP1 POP DUP2 DUP2 SUB PUSH1 0x0 DUP4 ADD MSTORE PUSH2 0x3368 DUP2 PUSH2 0x332C JUMP JUMPDEST SWAP1 POP SWAP2 SWAP1 POP JUMP JUMPDEST PUSH32 0x436F6D7061726520646966666572656E74206C6F6E6720737472696E67732073 PUSH1 0x0 DUP3 ADD MSTORE PUSH32 0x616D65206C656E67746820736D616C6C6572207061727469616C206C656E6774 PUSH1 0x20 DUP3 ADD MSTORE PUSH32 0x68207768696368206D75737420626520657175616C0000000000000000000000 PUSH1 0x40 DUP3 ADD MSTORE POP JUMP JUMPDEST PUSH1 0x0 PUSH2 0x33F1 PUSH1 0x55 DUP4 PUSH2 0x273C JUMP JUMPDEST SWAP2 POP PUSH2 0x33FC DUP3 PUSH2 0x336F JUMP JUMPDEST PUSH1 0x60 DUP3 ADD SWAP1 POP SWAP2 SWAP1 POP JUMP JUMPDEST PUSH1 0x0 PUSH1 0x20 DUP3 ADD SWAP1 POP DUP2 DUP2 SUB PUSH1 0x0 DUP4 ADD MSTORE PUSH2 0x3420 DUP2 PUSH2 0x33E4 JUMP JUMPDEST SWAP1 POP SWAP2 SWAP1 POP JUMP JUMPDEST PUSH32 0x436F6D70617265206C6F6E6720737472696E67732073616D65206C656E677468 PUSH1 0x0 DUP3 ADD MSTORE PUSH32 0x20646966666572656E74207061727469616C206C656E67746800000000000000 PUSH1 0x20 DUP3 ADD MSTORE POP JUMP JUMPDEST PUSH1 0x0 PUSH2 0x3483 PUSH1 0x39 DUP4 PUSH2 0x273C JUMP JUMPDEST SWAP2 POP PUSH2 0x348E DUP3 PUSH2 0x3427 JUMP JUMPDEST PUSH1 0x40 DUP3 ADD SWAP1 POP SWAP2 SWAP1 POP JUMP JUMPDEST PUSH1 0x0 PUSH1 0x20 DUP3 ADD SWAP1 POP DUP2 DUP2 SUB PUSH1 0x0 DUP4 ADD MSTORE PUSH2 0x34B2 DUP2 PUSH2 0x3476 JUMP JUMPDEST SWAP1 POP SWAP2 SWAP1 POP JUMP JUMPDEST PUSH32 0x436F6D7061726520737472696E67732065786163746C79203332206368617261 PUSH1 0x0 DUP3 ADD MSTORE PUSH32 0x6374657273206C6F6E6700000000000000000000000000000000000000000000 PUSH1 0x20 DUP3 ADD MSTORE POP JUMP JUMPDEST PUSH1 0x0 PUSH2 0x3515 PUSH1 0x2A DUP4 PUSH2 0x273C JUMP JUMPDEST SWAP2 POP PUSH2 0x3520 DUP3 PUSH2 0x34B9 JUMP JUMPDEST PUSH1 0x40 DUP3 ADD SWAP1 POP SWAP2 SWAP1 POP JUMP JUMPDEST PUSH1 0x0 PUSH1 0x20 DUP3 ADD SWAP1 POP DUP2 DUP2 SUB PUSH1 0x0 DUP4 ADD MSTORE PUSH2 0x3544 DUP2 PUSH2 0x3508 JUMP JUMPDEST SWAP1 POP SWAP2 SWAP1 POP JUMP JUMPDEST PUSH32 0x537472696E6720657175616C6974790000000000000000000000000000000000 PUSH1 0x0 DUP3 ADD MSTORE POP JUMP JUMPDEST PUSH1 0x0 PUSH2 0x3581 PUSH1 0xF DUP4 PUSH2 0x273C JUMP JUMPDEST SWAP2 POP PUSH2 0x358C DUP3 PUSH2 0x354B JUMP JUMPDEST PUSH1 0x20 DUP3 ADD SWAP1 POP SWAP2 SWAP1 POP JUMP JUMPDEST PUSH1 0x0 PUSH1 0x20 DUP3 ADD SWAP1 POP DUP2 DUP2 SUB PUSH1 0x0 DUP4 ADD MSTORE PUSH2 0x35B0 DUP2 PUSH2 0x3574 JUMP JUMPDEST SWAP1 POP SWAP2 SWAP1 POP JUMP JUMPDEST PUSH32 0x537472696E6720696E657175616C697479000000000000000000000000000000 PUSH1 0x0 DUP3 ADD MSTORE POP JUMP JUMPDEST PUSH1 0x0 PUSH2 0x35ED PUSH1 0x11 DUP4 PUSH2 0x273C JUMP JUMPDEST SWAP2 POP PUSH2 0x35F8 DUP3 PUSH2 0x35B7 JUMP JUMPDEST PUSH1 0x20 DUP3 ADD SWAP1 POP SWAP2 SWAP1 POP JUMP JUMPDEST PUSH1 0x0 PUSH1 0x20 DUP3 ADD SWAP1 POP DUP2 DUP2 SUB PUSH1 0x0 DUP4 ADD MSTORE PUSH2 0x361C DUP2 PUSH2 0x35E0 JUMP JUMPDEST SWAP1 POP SWAP2 SWAP1 POP JUMP JUMPDEST PUSH32 0x537562737472696E6720746F20737472696E6720657175616C69747900000000 PUSH1 0x0 DUP3 ADD MSTORE POP JUMP JUMPDEST PUSH1 0x0 PUSH2 0x3659 PUSH1 0x1C DUP4 PUSH2 0x273C JUMP JUMPDEST SWAP2 POP PUSH2 0x3664 DUP3 PUSH2 0x3623 JUMP JUMPDEST PUSH1 0x20 DUP3 ADD SWAP1 POP SWAP2 SWAP1 POP JUMP JUMPDEST PUSH1 0x0 PUSH1 0x20 DUP3 ADD SWAP1 POP DUP2 DUP2 SUB PUSH1 0x0 DUP4 ADD MSTORE PUSH2 0x3688 DUP2 PUSH2 0x364C JUMP JUMPDEST SWAP1 POP SWAP2 SWAP1 POP JUMP JUMPDEST PUSH32 0x537562737472696E6720746F20737562737472696E6720657175616C69747900 PUSH1 0x0 DUP3 ADD MSTORE POP JUMP JUMPDEST PUSH1 0x0 PUSH2 0x36C5 PUSH1 0x1F DUP4 PUSH2 0x273C JUMP JUMPDEST SWAP2 POP PUSH2 0x36D0 DUP3 PUSH2 0x368F JUMP JUMPDEST PUSH1 0x20 DUP3 ADD SWAP1 POP SWAP2 SWAP1 POP JUMP JUMPDEST PUSH1 0x0 PUSH1 0x20 DUP3 ADD SWAP1 POP DUP2 DUP2 SUB PUSH1 0x0 DUP4 ADD MSTORE PUSH2 0x36F4 DUP2 PUSH2 0x36B8 JUMP JUMPDEST SWAP1 POP SWAP2 SWAP1 POP JUMP JUMPDEST PUSH32 0x436F6D706172652077697468206F666673657420616E6420747261696C696E67 PUSH1 0x0 DUP3 ADD MSTORE PUSH32 0x2062797465730000000000000000000000000000000000000000000000000000 PUSH1 0x20 DUP3 ADD MSTORE POP JUMP JUMPDEST PUSH1 0x0 PUSH2 0x3757 PUSH1 0x26 DUP4 PUSH2 0x273C JUMP JUMPDEST SWAP2 POP PUSH2 0x3762 DUP3 PUSH2 0x36FB JUMP JUMPDEST PUSH1 0x40 DUP3 ADD SWAP1 POP SWAP2 SWAP1 POP JUMP JUMPDEST PUSH1 0x0 PUSH1 0x20 DUP3 ADD SWAP1 POP DUP2 DUP2 SUB PUSH1 0x0 DUP4 ADD MSTORE PUSH2 0x3786 DUP2 PUSH2 0x374A JUMP JUMPDEST SWAP1 POP SWAP2 SWAP1 POP JUMP JUMPDEST PUSH32 0x7265616442797465733332000000000000000000000000000000000000000000 PUSH1 0x0 DUP3 ADD MSTORE POP JUMP JUMPDEST PUSH1 0x0 PUSH2 0x37C3 PUSH1 0xB DUP4 PUSH2 0x273C JUMP JUMPDEST SWAP2 POP PUSH2 0x37CE DUP3 PUSH2 0x378D JUMP JUMPDEST PUSH1 0x20 DUP3 ADD SWAP1 POP SWAP2 SWAP1 POP JUMP JUMPDEST PUSH1 0x0 PUSH1 0x20 DUP3 ADD SWAP1 POP DUP2 DUP2 SUB PUSH1 0x0 DUP4 ADD MSTORE PUSH2 0x37F2 DUP2 PUSH2 0x37B6 JUMP JUMPDEST SWAP1 POP SWAP2 SWAP1 POP JUMP JUMPDEST PUSH32 0x526561642075696E742031360000000000000000000000000000000000000000 PUSH1 0x0 DUP3 ADD MSTORE POP JUMP JUMPDEST PUSH1 0x0 PUSH2 0x382F PUSH1 0xC DUP4 PUSH2 0x273C JUMP JUMPDEST SWAP2 POP PUSH2 0x383A DUP3 PUSH2 0x37F9 JUMP JUMPDEST PUSH1 0x20 DUP3 ADD SWAP1 POP SWAP2 SWAP1 POP JUMP JUMPDEST PUSH1 0x0 PUSH1 0x20 DUP3 ADD SWAP1 POP DUP2 DUP2 SUB PUSH1 0x0 DUP4 ADD MSTORE PUSH2 0x385E DUP2 PUSH2 0x3822 JUMP JUMPDEST SWAP1 POP SWAP2 SWAP1 POP JUMP JUMPDEST PUSH1 0x0 DUP2 SWAP1 POP SWAP2 SWAP1 POP JUMP JUMPDEST PUSH32 0x4E487B7100000000000000000000000000000000000000000000000000000000 PUSH1 0x0 MSTORE PUSH1 0x11 PUSH1 0x4 MSTORE PUSH1 0x24 PUSH1 0x0 REVERT JUMPDEST PUSH1 0x0 PUSH2 0x38A9 DUP3 PUSH2 0x3865 JUMP JUMPDEST SWAP2 POP PUSH2 0x38B4 DUP4 PUSH2 0x3865 JUMP JUMPDEST SWAP3 POP DUP3 DUP3 ADD SWAP1 POP DUP1 DUP3 GT ISZERO PUSH2 0x38CC JUMPI PUSH2 0x38CB PUSH2 0x386F JUMP JUMPDEST JUMPDEST SWAP3 SWAP2 POP POP JUMP JUMPDEST PUSH32 0x4E487B7100000000000000000000000000000000000000000000000000000000 PUSH1 0x0 MSTORE PUSH1 0x41 PUSH1 0x4 MSTORE PUSH1 0x24 PUSH1 0x0 REVERT JUMPDEST PUSH32 0x4E487B7100000000000000000000000000000000000000000000000000000000 PUSH1 0x0 MSTORE PUSH1 0x32 PUSH1 0x4 MSTORE PUSH1 0x24 PUSH1 0x0 REVERT JUMPDEST PUSH1 0x0 PUSH2 0x393B DUP3 PUSH2 0x3865 JUMP JUMPDEST SWAP2 POP PUSH2 0x3946 DUP4 PUSH2 0x3865 JUMP JUMPDEST SWAP3 POP DUP3 DUP3 SUB SWAP1 POP DUP2 DUP2 GT ISZERO PUSH2 0x395E JUMPI PUSH2 0x395D PUSH2 0x386F JUMP JUMPDEST JUMPDEST SWAP3 SWAP2 POP POP JUMP JUMPDEST PUSH1 0x0 PUSH2 0x396F DUP3 PUSH2 0x3865 JUMP JUMPDEST SWAP2 POP PUSH32 0xFFFFFFFFFFFFFFFFFFFFFFFFFFFFFFFFFFFFFFFFFFFFFFFFFFFFFFFFFFFFFFFF DUP3 SUB PUSH2 0x39A1 JUMPI PUSH2 0x39A0 PUSH2 0x386F JUMP JUMPDEST JUMPDEST PUSH1 0x1 DUP3 ADD SWAP1 POP SWAP2 SWAP1 POP JUMP JUMPDEST PUSH1 0x0 PUSH2 0x39B7 DUP3 PUSH2 0x3865 JUMP JUMPDEST SWAP2 POP PUSH2 0x39C2 DUP4 PUSH2 0x3865 JUMP JUMPDEST SWAP3 POP DUP3 DUP3 MUL PUSH2 0x39D0 DUP2 PUSH2 0x3865 JUMP JUMPDEST SWAP2 POP DUP3 DUP3 DIV DUP5 EQ DUP4 ISZERO OR PUSH2 0x39E7 JUMPI PUSH2 0x39E6 PUSH2 0x386F JUMP JUMPDEST JUMPDEST POP SWAP3 SWAP2 POP POP JUMP JUMPDEST PUSH32 0x4E487B7100000000000000000000000000000000000000000000000000000000 PUSH1 0x0 MSTORE PUSH1 0x12 PUSH1 0x4 MSTORE PUSH1 0x24 PUSH1 0x0 REVERT JUMPDEST PUSH1 0x0 PUSH2 0x3A28 DUP3 PUSH2 0x3865 JUMP JUMPDEST SWAP2 POP PUSH2 0x3A33 DUP4 PUSH2 0x3865 JUMP JUMPDEST SWAP3 POP DUP3 PUSH2 0x3A43 JUMPI PUSH2 0x3A42 PUSH2 0x39EE JUMP JUMPDEST JUMPDEST DUP3 DUP3 MOD SWAP1 POP SWAP3 SWAP2 POP POP JUMP JUMPDEST PUSH2 0x3A57 DUP2 PUSH2 0x3865 JUMP JUMPDEST DUP3 MSTORE POP POP JUMP JUMPDEST PUSH1 0x0 PUSH1 0x40 DUP3 ADD SWAP1 POP PUSH2 0x3A72 PUSH1 0x0 DUP4 ADD DUP6 PUSH2 0x3A4E JUMP JUMPDEST PUSH2 0x3A7F PUSH1 0x20 DUP4 ADD DUP5 PUSH2 0x3A4E JUMP JUMPDEST SWAP4 SWAP3 POP POP POP JUMP JUMPDEST PUSH1 0x0 DUP2 PUSH1 0x1 SHR SWAP1 POP SWAP2 SWAP1 POP JUMP JUMPDEST PUSH1 0x0 DUP1 DUP3 SWAP2 POP DUP4 SWAP1 POP JUMPDEST PUSH1 0x1 DUP6 GT ISZERO PUSH2 0x3ADD JUMPI DUP1 DUP7 DIV DUP2 GT ISZERO PUSH2 0x3AB9 JUMPI PUSH2 0x3AB8 PUSH2 0x386F JUMP JUMPDEST JUMPDEST PUSH1 0x1 DUP6 AND ISZERO PUSH2 0x3AC8 JUMPI DUP1 DUP3 MUL SWAP2 POP JUMPDEST DUP1 DUP2 MUL SWAP1 POP PUSH2 0x3AD6 DUP6 PUSH2 0x3A86 JUMP JUMPDEST SWAP5 POP PUSH2 0x3A9D JUMP JUMPDEST SWAP5 POP SWAP5 SWAP3 POP POP POP JUMP JUMPDEST PUSH1 0x0 DUP3 PUSH2 0x3AF6 JUMPI PUSH1 0x1 SWAP1 POP PUSH2 0x3BB2 JUMP JUMPDEST DUP2 PUSH2 0x3B04 JUMPI PUSH1 0x0 SWAP1 POP PUSH2 0x3BB2 JUMP JUMPDEST DUP2 PUSH1 0x1 DUP2 EQ PUSH2 0x3B1A JUMPI PUSH1 0x2 DUP2 EQ PUSH2 0x3B24 JUMPI PUSH2 0x3B53 JUMP JUMPDEST PUSH1 0x1 SWAP2 POP POP PUSH2 0x3BB2 JUMP JUMPDEST PUSH1 0xFF DUP5 GT ISZERO PUSH2 0x3B36 JUMPI PUSH2 0x3B35 PUSH2 0x386F JUMP JUMPDEST JUMPDEST DUP4 PUSH1 0x2 EXP SWAP2 POP DUP5 DUP3 GT ISZERO PUSH2 0x3B4D JUMPI PUSH2 0x3B4C PUSH2 0x386F JUMP JUMPDEST JUMPDEST POP PUSH2 0x3BB2 JUMP JUMPDEST POP PUSH1 0x20 DUP4 LT PUSH2 0x133 DUP4 LT AND PUSH1 0x4E DUP5 LT PUSH1 0xB DUP5 LT AND OR ISZERO PUSH2 0x3B88 JUMPI DUP3 DUP3 EXP SWAP1 POP DUP4 DUP2 GT ISZERO PUSH2 0x3B83 JUMPI PUSH2 0x3B82 PUSH2 0x386F JUMP JUMPDEST JUMPDEST PUSH2 0x3BB2 JUMP JUMPDEST PUSH2 0x3B95 DUP5 DUP5 DUP5 PUSH1 0x1 PUSH2 0x3A93 JUMP JUMPDEST SWAP3 POP SWAP1 POP DUP2 DUP5 DIV DUP2 GT ISZERO PUSH2 0x3BAC JUMPI PUSH2 0x3BAB PUSH2 0x386F JUMP JUMPDEST JUMPDEST DUP2 DUP2 MUL SWAP1 POP JUMPDEST SWAP4 SWAP3 POP POP POP JUMP JUMPDEST PUSH1 0x0 PUSH2 0x3BC4 DUP3 PUSH2 0x3865 JUMP JUMPDEST SWAP2 POP PUSH2 0x3BCF DUP4 PUSH2 0x3865 JUMP JUMPDEST SWAP3 POP PUSH2 0x3BFC PUSH32 0xFFFFFFFFFFFFFFFFFFFFFFFFFFFFFFFFFFFFFFFFFFFFFFFFFFFFFFFFFFFFFFFF DUP5 DUP5 PUSH2 0x3AE6 JUMP JUMPDEST SWAP1 POP SWAP3 SWAP2 POP POP JUMP JUMPDEST PUSH1 0x0 DUP2 SWAP1 POP SWAP2 SWAP1 POP JUMP JUMPDEST PUSH1 0x0 PUSH2 0x3C19 DUP3 PUSH2 0x3C04 JUMP JUMPDEST SWAP2 POP PUSH2 0x3C24 DUP4 PUSH2 0x3C04 JUMP JUMPDEST SWAP3 POP DUP3 DUP3 SUB SWAP1 POP DUP2 DUP2 SLT PUSH1 0x0 DUP5 SLT AND DUP3 DUP3 SGT PUSH1 0x0 DUP6 SLT ISZERO AND OR ISZERO PUSH2 0x3C4B JUMPI PUSH2 0x3C4A PUSH2 0x386F JUMP JUMPDEST JUMPDEST SWAP3 SWAP2 POP POP JUMP INVALID PUSH4 0x35683636 PUSH17 0x333563706A6D6771626164646D3671726A PUSH7 0x65316F6E347372 PUSH12 0x656C72376575337066384335 SELFBALANCE 0x4D ORIGIN 0x4F TIMESTAMP BALANCE NUMBER CALLDATALOAD SELFBALANCE 0x4D ORIGIN 0x4F TIMESTAMP BALANCE NUMBER CALLDATALOAD SELFBALANCE 0x4D ORIGIN 0x4F TIMESTAMP BALANCE NUMBER CALLDATALOAD SELFBALANCE 0x4D ORIGIN 0x4F TIMESTAMP BALANCE NUMBER CALLDATALOAD SELFBALANCE 0x4D ORIGIN 0x4F TIMESTAMP BALANCE NUMBER CALLDATALOAD SELFBALANCE 0x4D ORIGIN 0x4F TIMESTAMP BALANCE NUMBER CALLDATALOAD SELFBALANCE SELFBALANCE KECCAK256 PUSH3 0x737434 PUSH9 0x6C6A653772306F3863 CODESIZE PUSH17 0x346F38713538326C6D30656A6D69717407 PUSH14 0x61746F6B656E0378797A00323233 CALLVALUE CALLDATALOAD CALLDATASIZE CALLDATACOPY CODESIZE CODECOPY ADDRESS BALANCE ORIGIN CALLER CALLVALUE CALLDATALOAD CALLDATASIZE CALLDATACOPY CODESIZE CODECOPY ADDRESS BALANCE ORIGIN CALLER CALLVALUE CALLDATALOAD CALLDATASIZE CALLDATACOPY CODESIZE CODECOPY ADDRESS BALANCE ORIGIN CALLER CALLVALUE BALANCE ORIGIN CALLER CALLVALUE CALLDATALOAD CALLDATASIZE CALLDATACOPY CODESIZE CODECOPY ADDRESS BALANCE ORIGIN CALLER CALLVALUE CALLDATALOAD CALLDATASIZE CALLDATACOPY CODESIZE CODECOPY ADDRESS BALANCE ORIGIN CALLER CALLVALUE CALLDATALOAD CALLDATASIZE CALLDATACOPY CODESIZE CODECOPY ADDRESS BALANCE ORIGIN CALLER CALLVALUE STOP ADD MUL SUB DIV SDIV MOD SMOD ADDMOD MULMOD SELFDESTRUCT SELFDESTRUCT SELFDESTRUCT SELFDESTRUCT SELFDESTRUCT SELFDESTRUCT SELFDESTRUCT EXP SIGNEXTEND 0xC 0xD 0xE 0xF LT GT SLT SGT EQ ISZERO AND OR XOR NOT BYTE SHL SHR SAR 0x1E 0x1F SELFDESTRUCT SELFDESTRUCT SELFDESTRUCT SELFDESTRUCT SELFDESTRUCT SELFDESTRUCT SELFDESTRUCT SELFDESTRUCT SELFDESTRUCT SELFDESTRUCT EXP SIGNEXTEND 0xC 0xD 0xE 0xF LT GT SLT SGT EQ ISZERO AND OR XOR NOT BYTE SHL SHR SAR 0x1E 0x1F ADDRESS BALANCE ORIGIN CALLER CALLVALUE CALLDATALOAD CALLDATASIZE CALLDATACOPY CODESIZE CODECOPY ADDRESS BALANCE ORIGIN CALLER CALLVALUE CALLDATALOAD ADDRESS BALANCE ORIGIN CALLER CALLVALUE CALLDATALOAD CALLDATASIZE CALLDATACOPY CODESIZE CODECOPY ADDRESS BALANCE ORIGIN CALLER CALLVALUE CALLDATALOAD PUSH2 0x6243 CALLDATALOAD BASEFEE CALLDATASIZE CALLDATASIZE POP CALLER CALLDATALOAD NUMBER POP 0x4A 0x4D SELFBALANCE MLOAD TIMESTAMP COINBASE PREVRANDAO PREVRANDAO 0x4D CALLDATASIZE MLOAD MSTORE 0x4A CHAINID GASLIMIT BALANCE 0x4F 0x4E CALLVALUE MSTORE8 MSTORE 0x4B GASLIMIT 0x4C MSTORE CALLDATACOPY GASLIMIT SSTORE CALLER POP CHAINID CODESIZE ADDRESS BALANCE ORIGIN CALLER CALLVALUE CALLDATALOAD CALLDATASIZE CALLDATACOPY CODESIZE CODECOPY ADDRESS BALANCE ORIGIN CALLER CALLVALUE CALLDATALOAD ADDRESS BALANCE ORIGIN CALLER CALLVALUE CALLDATALOAD CALLDATASIZE CALLDATACOPY CODESIZE CODECOPY ADDRESS BALANCE ORIGIN CALLER CALLVALUE CALLDATALOAD PUSH2 0x61A2 PUSH5 0x6970667358 0x22 SLT KECCAK256 0x22 SGT 0x5D 0x1F 0xC7 0xFC 0xD2 0xD7 CALLDATALOAD STATICCALL CODESIZE RETURNDATASIZE 0xBE 0xA6 CALLER 0xB0 PUSH28 0x2C76442DD0639E257023D7576149A564736F6C634300081400330000 "
				},
				"gasEstimates": {
					"creation": {
						"codeDepositCost": "3176800",
						"executionCost": "3515",
						"totalCost": "3180315"
					},
					"external": {
						"testBase32HexDecodeWord()": "infinite",
						"testCompare()": "infinite",
						"testComparePartial()": "infinite",
						"testEquals()": "infinite",
						"testKeccak()": "infinite",
						"testReadBytes20()": "infinite",
						"testReadBytes32()": "infinite",
						"testReadUint16()": "infinite",
						"testReadUint32()": "infinite",
						"testReadUint8()": "infinite",
						"testSubstring()": "infinite"
					}
				},
				"methodIdentifiers": {
					"testBase32HexDecodeWord()": "83d31df6",
					"testCompare()": "809a6173",
					"testComparePartial()": "878ab4ae",
					"testEquals()": "c80094b3",
					"testKeccak()": "673dcc73",
					"testReadBytes20()": "005aa6f9",
					"testReadBytes32()": "e77975cf",
					"testReadUint16()": "f3cbda46",
					"testReadUint32()": "1b8e1b81",
					"testReadUint8()": "2e72f9a9",
					"testSubstring()": "098e6232"
				}
			},
			"storageLayout": {
				"storage": [],
				"types": null
			},
			"userdoc": {
				"kind": "user",
				"methods": {},
				"version": 1
			}
		}
	}
}