{
	"package/contracts/test/mocks/MockOffchainResolver.sol": {
		"MockOffchainResolver": {
			"abi": [
				{
					"inputs": [
						{
							"internalType": "address",
							"name": "sender",
							"type": "address"
						},
						{
							"internalType": "string[]",
							"name": "urls",
							"type": "string[]"
						},
						{
							"internalType": "bytes",
							"name": "callData",
							"type": "bytes"
						},
						{
							"internalType": "bytes4",
							"name": "callbackFunction",
							"type": "bytes4"
						},
						{
							"internalType": "bytes",
							"name": "extraData",
							"type": "bytes"
						}
					],
					"name": "OffchainLookup",
					"type": "error"
				},
				{
					"inputs": [
						{
							"internalType": "bytes32",
							"name": "",
							"type": "bytes32"
						}
					],
					"name": "addr",
					"outputs": [
						{
							"internalType": "bytes",
							"name": "",
							"type": "bytes"
						}
					],
					"stateMutability": "pure",
					"type": "function"
				},
				{
					"inputs": [
						{
							"internalType": "bytes",
							"name": "",
							"type": "bytes"
						},
						{
							"internalType": "bytes",
							"name": "data",
							"type": "bytes"
						}
					],
					"name": "resolve",
					"outputs": [
						{
							"internalType": "bytes",
							"name": "",
							"type": "bytes"
						}
					],
					"stateMutability": "view",
					"type": "function"
				},
				{
					"inputs": [
						{
							"internalType": "bytes",
							"name": "response",
							"type": "bytes"
						},
						{
							"internalType": "bytes",
							"name": "extraData",
							"type": "bytes"
						}
					],
					"name": "resolveCallback",
					"outputs": [
						{
							"internalType": "bytes",
							"name": "",
							"type": "bytes"
						}
					],
					"stateMutability": "view",
					"type": "function"
				},
				{
					"inputs": [
						{
							"internalType": "bytes4",
							"name": "interfaceId",
							"type": "bytes4"
						}
					],
					"name": "supportsInterface",
					"outputs": [
						{
							"internalType": "bool",
							"name": "",
							"type": "bool"
						}
					],
					"stateMutability": "view",
					"type": "function"
				}
			],
			"devdoc": {
				"kind": "dev",
				"methods": {
					"supportsInterface(bytes4)": {
						"details": "See {IERC165-supportsInterface}."
					}
				},
				"version": 1
			},
			"evm": {
				"assembly": "    /* \"package/contracts/test/mocks/MockOffchainResolver.sol\":305:1386  contract MockOffchainResolver is IExtendedResolver, ERC165 {... */\n  mstore(0x40, 0x80)\n  callvalue\n  dup1\n  iszero\n  tag_1\n  jumpi\n  0x00\n  dup1\n  revert\ntag_1:\n  pop\n  dataSize(sub_0)\n  dup1\n  dataOffset(sub_0)\n  0x00\n  codecopy\n  0x00\n  return\nstop\n\nsub_0: assembly {\n        /* \"package/contracts/test/mocks/MockOffchainResolver.sol\":305:1386  contract MockOffchainResolver is IExtendedResolver, ERC165 {... */\n      mstore(0x40, 0x80)\n      callvalue\n      dup1\n      iszero\n      tag_1\n      jumpi\n      0x00\n      dup1\n      revert\n    tag_1:\n      pop\n      jumpi(tag_2, lt(calldatasize, 0x04))\n      shr(0xe0, calldataload(0x00))\n      dup1\n      0x01ffc9a7\n      eq\n      tag_3\n      jumpi\n      dup1\n      0x3b3b57de\n      eq\n      tag_4\n      jumpi\n      dup1\n      0x9061b923\n      eq\n      tag_5\n      jumpi\n      dup1\n      0xb4a85801\n      eq\n      tag_6\n      jumpi\n    tag_2:\n      0x00\n      dup1\n      revert\n        /* \"package/contracts/test/mocks/MockOffchainResolver.sol\":368:567  function supportsInterface(bytes4 interfaceId) public view virtual override returns (bool) {... */\n    tag_3:\n      tag_7\n      0x04\n      dup1\n      calldatasize\n      sub\n      dup2\n      add\n      swap1\n      tag_8\n      swap2\n      swap1\n      tag_9\n      jump\t// in\n    tag_8:\n      tag_10\n      jump\t// in\n    tag_7:\n      mload(0x40)\n      tag_11\n      swap2\n      swap1\n      tag_12\n      jump\t// in\n    tag_11:\n      mload(0x40)\n      dup1\n      swap2\n      sub\n      swap1\n      return\n        /* \"package/contracts/test/mocks/MockOffchainResolver.sol\":871:970  function addr(bytes32) external pure returns (bytes memory) {... */\n    tag_4:\n      tag_13\n      0x04\n      dup1\n      calldatasize\n      sub\n      dup2\n      add\n      swap1\n      tag_14\n      swap2\n      swap1\n      tag_15\n      jump\t// in\n    tag_14:\n      tag_16\n      jump\t// in\n    tag_13:\n      mload(0x40)\n      tag_17\n      swap2\n      swap1\n      tag_18\n      jump\t// in\n    tag_17:\n      mload(0x40)\n      dup1\n      swap2\n      sub\n      swap1\n      return\n        /* \"package/contracts/test/mocks/MockOffchainResolver.sol\":571:867  function resolve(bytes calldata /* name */, bytes calldata data) external view returns (bytes memory) {... */\n    tag_5:\n      tag_19\n      0x04\n      dup1\n      calldatasize\n      sub\n      dup2\n      add\n      swap1\n      tag_20\n      swap2\n      swap1\n      tag_21\n      jump\t// in\n    tag_20:\n      tag_22\n      jump\t// in\n    tag_19:\n      mload(0x40)\n      tag_23\n      swap2\n      swap1\n      tag_18\n      jump\t// in\n    tag_23:\n      mload(0x40)\n      dup1\n      swap2\n      sub\n      swap1\n      return\n        /* \"package/contracts/test/mocks/MockOffchainResolver.sol\":974:1384  function resolveCallback(bytes calldata response, bytes calldata extraData) external view returns (bytes memory) {... */\n    tag_6:\n      tag_24\n      0x04\n      dup1\n      calldatasize\n      sub\n      dup2\n      add\n      swap1\n      tag_25\n      swap2\n      swap1\n      tag_21\n      jump\t// in\n    tag_25:\n      tag_26\n      jump\t// in\n    tag_24:\n      mload(0x40)\n      tag_27\n      swap2\n      swap1\n      tag_18\n      jump\t// in\n    tag_27:\n      mload(0x40)\n      dup1\n      swap2\n      sub\n      swap1\n      return\n        /* \"package/contracts/test/mocks/MockOffchainResolver.sol\":368:567  function supportsInterface(bytes4 interfaceId) public view virtual override returns (bool) {... */\n    tag_10:\n        /* \"package/contracts/test/mocks/MockOffchainResolver.sol\":453:457  bool */\n      0x00\n        /* \"package/contracts/test/mocks/MockOffchainResolver.sol\":487:522  type(IExtendedResolver).interfaceId */\n      0x9061b92300000000000000000000000000000000000000000000000000000000\n        /* \"package/contracts/test/mocks/MockOffchainResolver.sol\":472:522  interfaceId == type(IExtendedResolver).interfaceId */\n      not(0xffffffffffffffffffffffffffffffffffffffffffffffffffffffff)\n      and\n        /* \"package/contracts/test/mocks/MockOffchainResolver.sol\":472:483  interfaceId */\n      dup3\n        /* \"package/contracts/test/mocks/MockOffchainResolver.sol\":472:522  interfaceId == type(IExtendedResolver).interfaceId */\n      not(0xffffffffffffffffffffffffffffffffffffffffffffffffffffffff)\n      and\n      eq\n        /* \"package/contracts/test/mocks/MockOffchainResolver.sol\":472:562  interfaceId == type(IExtendedResolver).interfaceId || super.supportsInterface(interfaceId) */\n      dup1\n      tag_29\n      jumpi\n      pop\n        /* \"package/contracts/test/mocks/MockOffchainResolver.sol\":526:562  super.supportsInterface(interfaceId) */\n      tag_30\n        /* \"package/contracts/test/mocks/MockOffchainResolver.sol\":550:561  interfaceId */\n      dup3\n        /* \"package/contracts/test/mocks/MockOffchainResolver.sol\":526:549  super.supportsInterface */\n      tag_31\n        /* \"package/contracts/test/mocks/MockOffchainResolver.sol\":526:562  super.supportsInterface(interfaceId) */\n      jump\t// in\n    tag_30:\n        /* \"package/contracts/test/mocks/MockOffchainResolver.sol\":472:562  interfaceId == type(IExtendedResolver).interfaceId || super.supportsInterface(interfaceId) */\n    tag_29:\n        /* \"package/contracts/test/mocks/MockOffchainResolver.sol\":465:562  return interfaceId == type(IExtendedResolver).interfaceId || super.supportsInterface(interfaceId) */\n      swap1\n      pop\n        /* \"package/contracts/test/mocks/MockOffchainResolver.sol\":368:567  function supportsInterface(bytes4 interfaceId) public view virtual override returns (bool) {... */\n      swap2\n      swap1\n      pop\n      jump\t// out\n        /* \"package/contracts/test/mocks/MockOffchainResolver.sol\":871:970  function addr(bytes32) external pure returns (bytes memory) {... */\n    tag_16:\n        /* \"package/contracts/test/mocks/MockOffchainResolver.sol\":917:929  bytes memory */\n      0x60\n        /* \"package/contracts/test/mocks/MockOffchainResolver.sol\":944:965  abi.encode(\"onchain\") */\n      add(0x20, mload(0x40))\n      tag_33\n      swap1\n      tag_34\n      jump\t// in\n    tag_33:\n      mload(0x40)\n      0x20\n      dup2\n      dup4\n      sub\n      sub\n      dup2\n      mstore\n      swap1\n      0x40\n      mstore\n        /* \"package/contracts/test/mocks/MockOffchainResolver.sol\":937:965  return abi.encode(\"onchain\") */\n      swap1\n      pop\n        /* \"package/contracts/test/mocks/MockOffchainResolver.sol\":871:970  function addr(bytes32) external pure returns (bytes memory) {... */\n      swap2\n      swap1\n      pop\n      jump\t// out\n        /* \"package/contracts/test/mocks/MockOffchainResolver.sol\":571:867  function resolve(bytes calldata /* name */, bytes calldata data) external view returns (bytes memory) {... */\n    tag_22:\n        /* \"package/contracts/test/mocks/MockOffchainResolver.sol\":659:671  bytes memory */\n      0x60\n        /* \"package/contracts/test/mocks/MockOffchainResolver.sol\":679:699  string[] memory urls */\n      0x00\n        /* \"package/contracts/test/mocks/MockOffchainResolver.sol\":715:716  1 */\n      0x01\n        /* \"package/contracts/test/mocks/MockOffchainResolver.sol\":702:717  new string[](1) */\n      0xffffffffffffffff\n      dup2\n      gt\n      iszero\n      tag_36\n      jumpi\n      tag_37\n      tag_38\n      jump\t// in\n    tag_37:\n    tag_36:\n      mload(0x40)\n      swap1\n      dup1\n      dup3\n      mstore\n      dup1\n      0x20\n      mul\n      0x20\n      add\n      dup3\n      add\n      0x40\n      mstore\n      dup1\n      iszero\n      tag_39\n      jumpi\n      dup2\n      0x20\n      add\n    tag_40:\n      0x60\n      dup2\n      mstore\n      0x20\n      add\n      swap1\n      0x01\n      swap1\n      sub\n      swap1\n      dup2\n      tag_40\n      jumpi\n      swap1\n      pop\n    tag_39:\n      pop\n        /* \"package/contracts/test/mocks/MockOffchainResolver.sol\":679:717  string[] memory urls = new string[](1) */\n      swap1\n      pop\n        /* \"package/contracts/test/mocks/MockOffchainResolver.sol\":723:755  urls[0] = \"https://example.com/\" */\n      mload(0x40)\n      dup1\n      0x40\n      add\n      0x40\n      mstore\n      dup1\n      0x14\n      dup2\n      mstore\n      0x20\n      add\n      0x68747470733a2f2f6578616d706c652e636f6d2f000000000000000000000000\n      dup2\n      mstore\n      pop\n        /* \"package/contracts/test/mocks/MockOffchainResolver.sol\":723:727  urls */\n      dup2\n        /* \"package/contracts/test/mocks/MockOffchainResolver.sol\":728:729  0 */\n      0x00\n        /* \"package/contracts/test/mocks/MockOffchainResolver.sol\":723:730  urls[0] */\n      dup2\n      mload\n      dup2\n      lt\n      tag_41\n      jumpi\n      tag_42\n      tag_43\n      jump\t// in\n    tag_42:\n    tag_41:\n      0x20\n      mul\n      0x20\n      add\n      add\n        /* \"package/contracts/test/mocks/MockOffchainResolver.sol\":723:755  urls[0] = \"https://example.com/\" */\n      dup2\n      swap1\n      mstore\n      pop\n        /* \"package/contracts/test/mocks/MockOffchainResolver.sol\":791:795  this */\n      address\n        /* \"package/contracts/test/mocks/MockOffchainResolver.sol\":798:802  urls */\n      dup2\n        /* \"package/contracts/test/mocks/MockOffchainResolver.sol\":804:808  data */\n      dup6\n      dup6\n        /* \"package/contracts/test/mocks/MockOffchainResolver.sol\":810:855  MockOffchainResolver.resolveCallback.selector */\n      shl(0xe0, 0xb4a85801)\n        /* \"package/contracts/test/mocks/MockOffchainResolver.sol\":857:861  data */\n      dup9\n      dup9\n        /* \"package/contracts/test/mocks/MockOffchainResolver.sol\":768:862  OffchainLookup(address(this), urls, data, MockOffchainResolver.resolveCallback.selector, data) */\n      mload(0x40)\n      0x556f183000000000000000000000000000000000000000000000000000000000\n      dup2\n      mstore\n      0x04\n      add\n      tag_44\n      swap8\n      swap7\n      swap6\n      swap5\n      swap4\n      swap3\n      swap2\n      swap1\n      tag_45\n      jump\t// in\n    tag_44:\n      mload(0x40)\n      dup1\n      swap2\n      sub\n      swap1\n      revert\n        /* \"package/contracts/test/mocks/MockOffchainResolver.sol\":974:1384  function resolveCallback(bytes calldata response, bytes calldata extraData) external view returns (bytes memory) {... */\n    tag_26:\n        /* \"package/contracts/test/mocks/MockOffchainResolver.sol\":1073:1085  bytes memory */\n      0x60\n        /* \"package/contracts/test/mocks/MockOffchainResolver.sol\":1096:1117  bytes memory callData */\n      0x00\n        /* \"package/contracts/test/mocks/MockOffchainResolver.sol\":1134:1143  extraData */\n      dup4\n      dup4\n        /* \"package/contracts/test/mocks/MockOffchainResolver.sol\":1123:1168  abi.decode(extraData, (bytes, bytes, bytes4)) */\n      dup2\n      add\n      swap1\n      tag_47\n      swap2\n      swap1\n      tag_48\n      jump\t// in\n    tag_47:\n        /* \"package/contracts/test/mocks/MockOffchainResolver.sol\":1093:1168  (, bytes memory callData, ) = abi.decode(extraData, (bytes, bytes, bytes4)) */\n      pop\n      swap2\n      pop\n      pop\n        /* \"package/contracts/test/mocks/MockOffchainResolver.sol\":1205:1231  keccak256(\"addr(bytes32)\") */\n      0x3b3b57de213591bb50e06975ea011e4c8c4b3e6de4009450c1a9e55f66e4bfa4\n        /* \"package/contracts/test/mocks/MockOffchainResolver.sol\":1178:1232  bytes4(callData) == bytes4(keccak256(\"addr(bytes32)\")) */\n      not(0xffffffffffffffffffffffffffffffffffffffffffffffffffffffff)\n      and\n        /* \"package/contracts/test/mocks/MockOffchainResolver.sol\":1185:1193  callData */\n      dup2\n        /* \"package/contracts/test/mocks/MockOffchainResolver.sol\":1178:1194  bytes4(callData) */\n      tag_49\n      swap1\n      tag_50\n      jump\t// in\n    tag_49:\n        /* \"package/contracts/test/mocks/MockOffchainResolver.sol\":1178:1232  bytes4(callData) == bytes4(keccak256(\"addr(bytes32)\")) */\n      not(0xffffffffffffffffffffffffffffffffffffffffffffffffffffffff)\n      and\n      sub\n        /* \"package/contracts/test/mocks/MockOffchainResolver.sol\":1174:1342  if (bytes4(callData) == bytes4(keccak256(\"addr(bytes32)\"))) {... */\n      tag_51\n      jumpi\n        /* \"package/contracts/test/mocks/MockOffchainResolver.sol\":1243:1262  bytes memory result */\n      0x00\n        /* \"package/contracts/test/mocks/MockOffchainResolver.sol\":1281:1289  response */\n      dup7\n      dup7\n        /* \"package/contracts/test/mocks/MockOffchainResolver.sol\":1270:1314  abi.decode(response, (bytes, uint64, bytes)) */\n      dup2\n      add\n      swap1\n      tag_52\n      swap2\n      swap1\n      tag_53\n      jump\t// in\n    tag_52:\n        /* \"package/contracts/test/mocks/MockOffchainResolver.sol\":1242:1314  (bytes memory result, , ) = abi.decode(response, (bytes, uint64, bytes)) */\n      pop\n      pop\n      swap1\n      pop\n        /* \"package/contracts/test/mocks/MockOffchainResolver.sol\":1329:1335  result */\n      dup1\n        /* \"package/contracts/test/mocks/MockOffchainResolver.sol\":1322:1335  return result */\n      swap3\n      pop\n      pop\n      pop\n      jump(tag_46)\n        /* \"package/contracts/test/mocks/MockOffchainResolver.sol\":1174:1342  if (bytes4(callData) == bytes4(keccak256(\"addr(bytes32)\"))) {... */\n    tag_51:\n        /* \"package/contracts/test/mocks/MockOffchainResolver.sol\":1373:1377  this */\n      address\n        /* \"package/contracts/test/mocks/MockOffchainResolver.sol\":1354:1379  abi.encode(address(this)) */\n      add(0x20, mload(0x40))\n      tag_54\n      swap2\n      swap1\n      tag_55\n      jump\t// in\n    tag_54:\n      mload(0x40)\n      0x20\n      dup2\n      dup4\n      sub\n      sub\n      dup2\n      mstore\n      swap1\n      0x40\n      mstore\n        /* \"package/contracts/test/mocks/MockOffchainResolver.sol\":1347:1379  return abi.encode(address(this)) */\n      swap2\n      pop\n      pop\n        /* \"package/contracts/test/mocks/MockOffchainResolver.sol\":974:1384  function resolveCallback(bytes calldata response, bytes calldata extraData) external view returns (bytes memory) {... */\n    tag_46:\n      swap5\n      swap4\n      pop\n      pop\n      pop\n      pop\n      jump\t// out\n        /* \"@openzeppelin/contracts/utils/introspection/ERC165.sol\":763:918  function supportsInterface(bytes4 interfaceId) public view virtual override returns (bool) {... */\n    tag_31:\n        /* \"@openzeppelin/contracts/utils/introspection/ERC165.sol\":848:852  bool */\n      0x00\n        /* \"@openzeppelin/contracts/utils/introspection/ERC165.sol\":886:911  type(IERC165).interfaceId */\n      0x01ffc9a700000000000000000000000000000000000000000000000000000000\n        /* \"@openzeppelin/contracts/utils/introspection/ERC165.sol\":871:911  interfaceId == type(IERC165).interfaceId */\n      not(0xffffffffffffffffffffffffffffffffffffffffffffffffffffffff)\n      and\n        /* \"@openzeppelin/contracts/utils/introspection/ERC165.sol\":871:882  interfaceId */\n      dup3\n        /* \"@openzeppelin/contracts/utils/introspection/ERC165.sol\":871:911  interfaceId == type(IERC165).interfaceId */\n      not(0xffffffffffffffffffffffffffffffffffffffffffffffffffffffff)\n      and\n      eq\n        /* \"@openzeppelin/contracts/utils/introspection/ERC165.sol\":864:911  return interfaceId == type(IERC165).interfaceId */\n      swap1\n      pop\n        /* \"@openzeppelin/contracts/utils/introspection/ERC165.sol\":763:918  function supportsInterface(bytes4 interfaceId) public view virtual override returns (bool) {... */\n      swap2\n      swap1\n      pop\n      jump\t// out\n        /* \"#utility.yul\":7:82   */\n    tag_57:\n        /* \"#utility.yul\":40:46   */\n      0x00\n        /* \"#utility.yul\":73:75   */\n      0x40\n        /* \"#utility.yul\":67:76   */\n      mload\n        /* \"#utility.yul\":57:76   */\n      swap1\n      pop\n        /* \"#utility.yul\":7:82   */\n      swap1\n      jump\t// out\n        /* \"#utility.yul\":88:205   */\n    tag_58:\n        /* \"#utility.yul\":197:198   */\n      0x00\n        /* \"#utility.yul\":194:195   */\n      dup1\n        /* \"#utility.yul\":187:199   */\n      revert\n        /* \"#utility.yul\":211:328   */\n    tag_59:\n        /* \"#utility.yul\":320:321   */\n      0x00\n        /* \"#utility.yul\":317:318   */\n      dup1\n        /* \"#utility.yul\":310:322   */\n      revert\n        /* \"#utility.yul\":334:483   */\n    tag_60:\n        /* \"#utility.yul\":370:377   */\n      0x00\n        /* \"#utility.yul\":410:476   */\n      0xffffffff00000000000000000000000000000000000000000000000000000000\n        /* \"#utility.yul\":403:408   */\n      dup3\n        /* \"#utility.yul\":399:477   */\n      and\n        /* \"#utility.yul\":388:477   */\n      swap1\n      pop\n        /* \"#utility.yul\":334:483   */\n      swap2\n      swap1\n      pop\n      jump\t// out\n        /* \"#utility.yul\":489:609   */\n    tag_61:\n        /* \"#utility.yul\":561:584   */\n      tag_113\n        /* \"#utility.yul\":578:583   */\n      dup2\n        /* \"#utility.yul\":561:584   */\n      tag_60\n      jump\t// in\n    tag_113:\n        /* \"#utility.yul\":554:559   */\n      dup2\n        /* \"#utility.yul\":551:585   */\n      eq\n        /* \"#utility.yul\":541:603   */\n      tag_114\n      jumpi\n        /* \"#utility.yul\":599:600   */\n      0x00\n        /* \"#utility.yul\":596:597   */\n      dup1\n        /* \"#utility.yul\":589:601   */\n      revert\n        /* \"#utility.yul\":541:603   */\n    tag_114:\n        /* \"#utility.yul\":489:609   */\n      pop\n      jump\t// out\n        /* \"#utility.yul\":615:752   */\n    tag_62:\n        /* \"#utility.yul\":660:665   */\n      0x00\n        /* \"#utility.yul\":698:704   */\n      dup2\n        /* \"#utility.yul\":685:705   */\n      calldataload\n        /* \"#utility.yul\":676:705   */\n      swap1\n      pop\n        /* \"#utility.yul\":714:746   */\n      tag_116\n        /* \"#utility.yul\":740:745   */\n      dup2\n        /* \"#utility.yul\":714:746   */\n      tag_61\n      jump\t// in\n    tag_116:\n        /* \"#utility.yul\":615:752   */\n      swap3\n      swap2\n      pop\n      pop\n      jump\t// out\n        /* \"#utility.yul\":758:1085   */\n    tag_9:\n        /* \"#utility.yul\":816:822   */\n      0x00\n        /* \"#utility.yul\":865:867   */\n      0x20\n        /* \"#utility.yul\":853:862   */\n      dup3\n        /* \"#utility.yul\":844:851   */\n      dup5\n        /* \"#utility.yul\":840:863   */\n      sub\n        /* \"#utility.yul\":836:868   */\n      slt\n        /* \"#utility.yul\":833:952   */\n      iszero\n      tag_118\n      jumpi\n        /* \"#utility.yul\":871:950   */\n      tag_119\n      tag_58\n      jump\t// in\n    tag_119:\n        /* \"#utility.yul\":833:952   */\n    tag_118:\n        /* \"#utility.yul\":991:992   */\n      0x00\n        /* \"#utility.yul\":1016:1068   */\n      tag_120\n        /* \"#utility.yul\":1060:1067   */\n      dup5\n        /* \"#utility.yul\":1051:1057   */\n      dup3\n        /* \"#utility.yul\":1040:1049   */\n      dup6\n        /* \"#utility.yul\":1036:1058   */\n      add\n        /* \"#utility.yul\":1016:1068   */\n      tag_62\n      jump\t// in\n    tag_120:\n        /* \"#utility.yul\":1006:1068   */\n      swap2\n      pop\n        /* \"#utility.yul\":962:1078   */\n      pop\n        /* \"#utility.yul\":758:1085   */\n      swap3\n      swap2\n      pop\n      pop\n      jump\t// out\n        /* \"#utility.yul\":1091:1181   */\n    tag_63:\n        /* \"#utility.yul\":1125:1132   */\n      0x00\n        /* \"#utility.yul\":1168:1173   */\n      dup2\n        /* \"#utility.yul\":1161:1174   */\n      iszero\n        /* \"#utility.yul\":1154:1175   */\n      iszero\n        /* \"#utility.yul\":1143:1175   */\n      swap1\n      pop\n        /* \"#utility.yul\":1091:1181   */\n      swap2\n      swap1\n      pop\n      jump\t// out\n        /* \"#utility.yul\":1187:1296   */\n    tag_64:\n        /* \"#utility.yul\":1268:1289   */\n      tag_123\n        /* \"#utility.yul\":1283:1288   */\n      dup2\n        /* \"#utility.yul\":1268:1289   */\n      tag_63\n      jump\t// in\n    tag_123:\n        /* \"#utility.yul\":1263:1266   */\n      dup3\n        /* \"#utility.yul\":1256:1290   */\n      mstore\n        /* \"#utility.yul\":1187:1296   */\n      pop\n      pop\n      jump\t// out\n        /* \"#utility.yul\":1302:1512   */\n    tag_12:\n        /* \"#utility.yul\":1389:1393   */\n      0x00\n        /* \"#utility.yul\":1427:1429   */\n      0x20\n        /* \"#utility.yul\":1416:1425   */\n      dup3\n        /* \"#utility.yul\":1412:1430   */\n      add\n        /* \"#utility.yul\":1404:1430   */\n      swap1\n      pop\n        /* \"#utility.yul\":1440:1505   */\n      tag_125\n        /* \"#utility.yul\":1502:1503   */\n      0x00\n        /* \"#utility.yul\":1491:1500   */\n      dup4\n        /* \"#utility.yul\":1487:1504   */\n      add\n        /* \"#utility.yul\":1478:1484   */\n      dup5\n        /* \"#utility.yul\":1440:1505   */\n      tag_64\n      jump\t// in\n    tag_125:\n        /* \"#utility.yul\":1302:1512   */\n      swap3\n      swap2\n      pop\n      pop\n      jump\t// out\n        /* \"#utility.yul\":1518:1595   */\n    tag_65:\n        /* \"#utility.yul\":1555:1562   */\n      0x00\n        /* \"#utility.yul\":1584:1589   */\n      dup2\n        /* \"#utility.yul\":1573:1589   */\n      swap1\n      pop\n        /* \"#utility.yul\":1518:1595   */\n      swap2\n      swap1\n      pop\n      jump\t// out\n        /* \"#utility.yul\":1601:1723   */\n    tag_66:\n        /* \"#utility.yul\":1674:1698   */\n      tag_128\n        /* \"#utility.yul\":1692:1697   */\n      dup2\n        /* \"#utility.yul\":1674:1698   */\n      tag_65\n      jump\t// in\n    tag_128:\n        /* \"#utility.yul\":1667:1672   */\n      dup2\n        /* \"#utility.yul\":1664:1699   */\n      eq\n        /* \"#utility.yul\":1654:1717   */\n      tag_129\n      jumpi\n        /* \"#utility.yul\":1713:1714   */\n      0x00\n        /* \"#utility.yul\":1710:1711   */\n      dup1\n        /* \"#utility.yul\":1703:1715   */\n      revert\n        /* \"#utility.yul\":1654:1717   */\n    tag_129:\n        /* \"#utility.yul\":1601:1723   */\n      pop\n      jump\t// out\n        /* \"#utility.yul\":1729:1868   */\n    tag_67:\n        /* \"#utility.yul\":1775:1780   */\n      0x00\n        /* \"#utility.yul\":1813:1819   */\n      dup2\n        /* \"#utility.yul\":1800:1820   */\n      calldataload\n        /* \"#utility.yul\":1791:1820   */\n      swap1\n      pop\n        /* \"#utility.yul\":1829:1862   */\n      tag_131\n        /* \"#utility.yul\":1856:1861   */\n      dup2\n        /* \"#utility.yul\":1829:1862   */\n      tag_66\n      jump\t// in\n    tag_131:\n        /* \"#utility.yul\":1729:1868   */\n      swap3\n      swap2\n      pop\n      pop\n      jump\t// out\n        /* \"#utility.yul\":1874:2203   */\n    tag_15:\n        /* \"#utility.yul\":1933:1939   */\n      0x00\n        /* \"#utility.yul\":1982:1984   */\n      0x20\n        /* \"#utility.yul\":1970:1979   */\n      dup3\n        /* \"#utility.yul\":1961:1968   */\n      dup5\n        /* \"#utility.yul\":1957:1980   */\n      sub\n        /* \"#utility.yul\":1953:1985   */\n      slt\n        /* \"#utility.yul\":1950:2069   */\n      iszero\n      tag_133\n      jumpi\n        /* \"#utility.yul\":1988:2067   */\n      tag_134\n      tag_58\n      jump\t// in\n    tag_134:\n        /* \"#utility.yul\":1950:2069   */\n    tag_133:\n        /* \"#utility.yul\":2108:2109   */\n      0x00\n        /* \"#utility.yul\":2133:2186   */\n      tag_135\n        /* \"#utility.yul\":2178:2185   */\n      dup5\n        /* \"#utility.yul\":2169:2175   */\n      dup3\n        /* \"#utility.yul\":2158:2167   */\n      dup6\n        /* \"#utility.yul\":2154:2176   */\n      add\n        /* \"#utility.yul\":2133:2186   */\n      tag_67\n      jump\t// in\n    tag_135:\n        /* \"#utility.yul\":2123:2186   */\n      swap2\n      pop\n        /* \"#utility.yul\":2079:2196   */\n      pop\n        /* \"#utility.yul\":1874:2203   */\n      swap3\n      swap2\n      pop\n      pop\n      jump\t// out\n        /* \"#utility.yul\":2209:2307   */\n    tag_68:\n        /* \"#utility.yul\":2260:2266   */\n      0x00\n        /* \"#utility.yul\":2294:2299   */\n      dup2\n        /* \"#utility.yul\":2288:2300   */\n      mload\n        /* \"#utility.yul\":2278:2300   */\n      swap1\n      pop\n        /* \"#utility.yul\":2209:2307   */\n      swap2\n      swap1\n      pop\n      jump\t// out\n        /* \"#utility.yul\":2313:2481   */\n    tag_69:\n        /* \"#utility.yul\":2396:2407   */\n      0x00\n        /* \"#utility.yul\":2430:2436   */\n      dup3\n        /* \"#utility.yul\":2425:2428   */\n      dup3\n        /* \"#utility.yul\":2418:2437   */\n      mstore\n        /* \"#utility.yul\":2470:2474   */\n      0x20\n        /* \"#utility.yul\":2465:2468   */\n      dup3\n        /* \"#utility.yul\":2461:2475   */\n      add\n        /* \"#utility.yul\":2446:2475   */\n      swap1\n      pop\n        /* \"#utility.yul\":2313:2481   */\n      swap3\n      swap2\n      pop\n      pop\n      jump\t// out\n        /* \"#utility.yul\":2487:2735   */\n    tag_70:\n        /* \"#utility.yul\":2569:2570   */\n      0x00\n        /* \"#utility.yul\":2579:2692   */\n    tag_139:\n        /* \"#utility.yul\":2593:2599   */\n      dup4\n        /* \"#utility.yul\":2590:2591   */\n      dup2\n        /* \"#utility.yul\":2587:2600   */\n      lt\n        /* \"#utility.yul\":2579:2692   */\n      iszero\n      tag_141\n      jumpi\n        /* \"#utility.yul\":2678:2679   */\n      dup1\n        /* \"#utility.yul\":2673:2676   */\n      dup3\n        /* \"#utility.yul\":2669:2680   */\n      add\n        /* \"#utility.yul\":2663:2681   */\n      mload\n        /* \"#utility.yul\":2659:2660   */\n      dup2\n        /* \"#utility.yul\":2654:2657   */\n      dup5\n        /* \"#utility.yul\":2650:2661   */\n      add\n        /* \"#utility.yul\":2643:2682   */\n      mstore\n        /* \"#utility.yul\":2615:2617   */\n      0x20\n        /* \"#utility.yul\":2612:2613   */\n      dup2\n        /* \"#utility.yul\":2608:2618   */\n      add\n        /* \"#utility.yul\":2603:2618   */\n      swap1\n      pop\n        /* \"#utility.yul\":2579:2692   */\n      jump(tag_139)\n    tag_141:\n        /* \"#utility.yul\":2726:2727   */\n      0x00\n        /* \"#utility.yul\":2717:2723   */\n      dup5\n        /* \"#utility.yul\":2712:2715   */\n      dup5\n        /* \"#utility.yul\":2708:2724   */\n      add\n        /* \"#utility.yul\":2701:2728   */\n      mstore\n        /* \"#utility.yul\":2549:2735   */\n      pop\n        /* \"#utility.yul\":2487:2735   */\n      pop\n      pop\n      pop\n      jump\t// out\n        /* \"#utility.yul\":2741:2843   */\n    tag_71:\n        /* \"#utility.yul\":2782:2788   */\n      0x00\n        /* \"#utility.yul\":2833:2835   */\n      0x1f\n        /* \"#utility.yul\":2829:2836   */\n      not\n        /* \"#utility.yul\":2824:2826   */\n      0x1f\n        /* \"#utility.yul\":2817:2822   */\n      dup4\n        /* \"#utility.yul\":2813:2827   */\n      add\n        /* \"#utility.yul\":2809:2837   */\n      and\n        /* \"#utility.yul\":2799:2837   */\n      swap1\n      pop\n        /* \"#utility.yul\":2741:2843   */\n      swap2\n      swap1\n      pop\n      jump\t// out\n        /* \"#utility.yul\":2849:3222   */\n    tag_72:\n        /* \"#utility.yul\":2935:2938   */\n      0x00\n        /* \"#utility.yul\":2963:3001   */\n      tag_144\n        /* \"#utility.yul\":2995:3000   */\n      dup3\n        /* \"#utility.yul\":2963:3001   */\n      tag_68\n      jump\t// in\n    tag_144:\n        /* \"#utility.yul\":3017:3087   */\n      tag_145\n        /* \"#utility.yul\":3080:3086   */\n      dup2\n        /* \"#utility.yul\":3075:3078   */\n      dup6\n        /* \"#utility.yul\":3017:3087   */\n      tag_69\n      jump\t// in\n    tag_145:\n        /* \"#utility.yul\":3010:3087   */\n      swap4\n      pop\n        /* \"#utility.yul\":3096:3161   */\n      tag_146\n        /* \"#utility.yul\":3154:3160   */\n      dup2\n        /* \"#utility.yul\":3149:3152   */\n      dup6\n        /* \"#utility.yul\":3142:3146   */\n      0x20\n        /* \"#utility.yul\":3135:3140   */\n      dup7\n        /* \"#utility.yul\":3131:3147   */\n      add\n        /* \"#utility.yul\":3096:3161   */\n      tag_70\n      jump\t// in\n    tag_146:\n        /* \"#utility.yul\":3186:3215   */\n      tag_147\n        /* \"#utility.yul\":3208:3214   */\n      dup2\n        /* \"#utility.yul\":3186:3215   */\n      tag_71\n      jump\t// in\n    tag_147:\n        /* \"#utility.yul\":3181:3184   */\n      dup5\n        /* \"#utility.yul\":3177:3216   */\n      add\n        /* \"#utility.yul\":3170:3216   */\n      swap2\n      pop\n        /* \"#utility.yul\":2939:3222   */\n      pop\n        /* \"#utility.yul\":2849:3222   */\n      swap3\n      swap2\n      pop\n      pop\n      jump\t// out\n        /* \"#utility.yul\":3228:3537   */\n    tag_18:\n        /* \"#utility.yul\":3339:3343   */\n      0x00\n        /* \"#utility.yul\":3377:3379   */\n      0x20\n        /* \"#utility.yul\":3366:3375   */\n      dup3\n        /* \"#utility.yul\":3362:3380   */\n      add\n        /* \"#utility.yul\":3354:3380   */\n      swap1\n      pop\n        /* \"#utility.yul\":3426:3435   */\n      dup2\n        /* \"#utility.yul\":3420:3424   */\n      dup2\n        /* \"#utility.yul\":3416:3436   */\n      sub\n        /* \"#utility.yul\":3412:3413   */\n      0x00\n        /* \"#utility.yul\":3401:3410   */\n      dup4\n        /* \"#utility.yul\":3397:3414   */\n      add\n        /* \"#utility.yul\":3390:3437   */\n      mstore\n        /* \"#utility.yul\":3454:3530   */\n      tag_149\n        /* \"#utility.yul\":3525:3529   */\n      dup2\n        /* \"#utility.yul\":3516:3522   */\n      dup5\n        /* \"#utility.yul\":3454:3530   */\n      tag_72\n      jump\t// in\n    tag_149:\n        /* \"#utility.yul\":3446:3530   */\n      swap1\n      pop\n        /* \"#utility.yul\":3228:3537   */\n      swap3\n      swap2\n      pop\n      pop\n      jump\t// out\n        /* \"#utility.yul\":3543:3660   */\n    tag_73:\n        /* \"#utility.yul\":3652:3653   */\n      0x00\n        /* \"#utility.yul\":3649:3650   */\n      dup1\n        /* \"#utility.yul\":3642:3654   */\n      revert\n        /* \"#utility.yul\":3666:3783   */\n    tag_74:\n        /* \"#utility.yul\":3775:3776   */\n      0x00\n        /* \"#utility.yul\":3772:3773   */\n      dup1\n        /* \"#utility.yul\":3765:3777   */\n      revert\n        /* \"#utility.yul\":3789:3906   */\n    tag_75:\n        /* \"#utility.yul\":3898:3899   */\n      0x00\n        /* \"#utility.yul\":3895:3896   */\n      dup1\n        /* \"#utility.yul\":3888:3900   */\n      revert\n        /* \"#utility.yul\":3925:4477   */\n    tag_76:\n        /* \"#utility.yul\":3982:3990   */\n      0x00\n        /* \"#utility.yul\":3992:3998   */\n      dup1\n        /* \"#utility.yul\":4042:4045   */\n      dup4\n        /* \"#utility.yul\":4035:4039   */\n      0x1f\n        /* \"#utility.yul\":4027:4033   */\n      dup5\n        /* \"#utility.yul\":4023:4040   */\n      add\n        /* \"#utility.yul\":4019:4046   */\n      slt\n        /* \"#utility.yul\":4009:4131   */\n      tag_154\n      jumpi\n        /* \"#utility.yul\":4050:4129   */\n      tag_155\n      tag_73\n      jump\t// in\n    tag_155:\n        /* \"#utility.yul\":4009:4131   */\n    tag_154:\n        /* \"#utility.yul\":4163:4169   */\n      dup3\n        /* \"#utility.yul\":4150:4170   */\n      calldataload\n        /* \"#utility.yul\":4140:4170   */\n      swap1\n      pop\n        /* \"#utility.yul\":4193:4211   */\n      0xffffffffffffffff\n        /* \"#utility.yul\":4185:4191   */\n      dup2\n        /* \"#utility.yul\":4182:4212   */\n      gt\n        /* \"#utility.yul\":4179:4296   */\n      iszero\n      tag_156\n      jumpi\n        /* \"#utility.yul\":4215:4294   */\n      tag_157\n      tag_74\n      jump\t// in\n    tag_157:\n        /* \"#utility.yul\":4179:4296   */\n    tag_156:\n        /* \"#utility.yul\":4329:4333   */\n      0x20\n        /* \"#utility.yul\":4321:4327   */\n      dup4\n        /* \"#utility.yul\":4317:4334   */\n      add\n        /* \"#utility.yul\":4305:4334   */\n      swap2\n      pop\n        /* \"#utility.yul\":4383:4386   */\n      dup4\n        /* \"#utility.yul\":4375:4379   */\n      0x01\n        /* \"#utility.yul\":4367:4373   */\n      dup3\n        /* \"#utility.yul\":4363:4380   */\n      mul\n        /* \"#utility.yul\":4353:4361   */\n      dup4\n        /* \"#utility.yul\":4349:4381   */\n      add\n        /* \"#utility.yul\":4346:4387   */\n      gt\n        /* \"#utility.yul\":4343:4471   */\n      iszero\n      tag_158\n      jumpi\n        /* \"#utility.yul\":4390:4469   */\n      tag_159\n      tag_75\n      jump\t// in\n    tag_159:\n        /* \"#utility.yul\":4343:4471   */\n    tag_158:\n        /* \"#utility.yul\":3925:4477   */\n      swap3\n      pop\n      swap3\n      swap1\n      pop\n      jump\t// out\n        /* \"#utility.yul\":4483:5353   */\n    tag_21:\n        /* \"#utility.yul\":4573:4579   */\n      0x00\n        /* \"#utility.yul\":4581:4587   */\n      dup1\n        /* \"#utility.yul\":4589:4595   */\n      0x00\n        /* \"#utility.yul\":4597:4603   */\n      dup1\n        /* \"#utility.yul\":4646:4648   */\n      0x40\n        /* \"#utility.yul\":4634:4643   */\n      dup6\n        /* \"#utility.yul\":4625:4632   */\n      dup8\n        /* \"#utility.yul\":4621:4644   */\n      sub\n        /* \"#utility.yul\":4617:4649   */\n      slt\n        /* \"#utility.yul\":4614:4733   */\n      iszero\n      tag_161\n      jumpi\n        /* \"#utility.yul\":4652:4731   */\n      tag_162\n      tag_58\n      jump\t// in\n    tag_162:\n        /* \"#utility.yul\":4614:4733   */\n    tag_161:\n        /* \"#utility.yul\":4800:4801   */\n      0x00\n        /* \"#utility.yul\":4789:4798   */\n      dup6\n        /* \"#utility.yul\":4785:4802   */\n      add\n        /* \"#utility.yul\":4772:4803   */\n      calldataload\n        /* \"#utility.yul\":4830:4848   */\n      0xffffffffffffffff\n        /* \"#utility.yul\":4822:4828   */\n      dup2\n        /* \"#utility.yul\":4819:4849   */\n      gt\n        /* \"#utility.yul\":4816:4933   */\n      iszero\n      tag_163\n      jumpi\n        /* \"#utility.yul\":4852:4931   */\n      tag_164\n      tag_59\n      jump\t// in\n    tag_164:\n        /* \"#utility.yul\":4816:4933   */\n    tag_163:\n        /* \"#utility.yul\":4965:5029   */\n      tag_165\n        /* \"#utility.yul\":5021:5028   */\n      dup8\n        /* \"#utility.yul\":5012:5018   */\n      dup3\n        /* \"#utility.yul\":5001:5010   */\n      dup9\n        /* \"#utility.yul\":4997:5019   */\n      add\n        /* \"#utility.yul\":4965:5029   */\n      tag_76\n      jump\t// in\n    tag_165:\n        /* \"#utility.yul\":4947:5029   */\n      swap5\n      pop\n      swap5\n      pop\n        /* \"#utility.yul\":4743:5039   */\n      pop\n        /* \"#utility.yul\":5106:5108   */\n      0x20\n        /* \"#utility.yul\":5095:5104   */\n      dup6\n        /* \"#utility.yul\":5091:5109   */\n      add\n        /* \"#utility.yul\":5078:5110   */\n      calldataload\n        /* \"#utility.yul\":5137:5155   */\n      0xffffffffffffffff\n        /* \"#utility.yul\":5129:5135   */\n      dup2\n        /* \"#utility.yul\":5126:5156   */\n      gt\n        /* \"#utility.yul\":5123:5240   */\n      iszero\n      tag_166\n      jumpi\n        /* \"#utility.yul\":5159:5238   */\n      tag_167\n      tag_59\n      jump\t// in\n    tag_167:\n        /* \"#utility.yul\":5123:5240   */\n    tag_166:\n        /* \"#utility.yul\":5272:5336   */\n      tag_168\n        /* \"#utility.yul\":5328:5335   */\n      dup8\n        /* \"#utility.yul\":5319:5325   */\n      dup3\n        /* \"#utility.yul\":5308:5317   */\n      dup9\n        /* \"#utility.yul\":5304:5326   */\n      add\n        /* \"#utility.yul\":5272:5336   */\n      tag_76\n      jump\t// in\n    tag_168:\n        /* \"#utility.yul\":5254:5336   */\n      swap3\n      pop\n      swap3\n      pop\n        /* \"#utility.yul\":5049:5346   */\n      pop\n        /* \"#utility.yul\":4483:5353   */\n      swap3\n      swap6\n      swap2\n      swap5\n      pop\n      swap3\n      pop\n      jump\t// out\n        /* \"#utility.yul\":5359:5528   */\n    tag_77:\n        /* \"#utility.yul\":5443:5454   */\n      0x00\n        /* \"#utility.yul\":5477:5483   */\n      dup3\n        /* \"#utility.yul\":5472:5475   */\n      dup3\n        /* \"#utility.yul\":5465:5484   */\n      mstore\n        /* \"#utility.yul\":5517:5521   */\n      0x20\n        /* \"#utility.yul\":5512:5515   */\n      dup3\n        /* \"#utility.yul\":5508:5522   */\n      add\n        /* \"#utility.yul\":5493:5522   */\n      swap1\n      pop\n        /* \"#utility.yul\":5359:5528   */\n      swap3\n      swap2\n      pop\n      pop\n      jump\t// out\n        /* \"#utility.yul\":5534:5691   */\n    tag_78:\n        /* \"#utility.yul\":5674:5683   */\n      0x6f6e636861696e00000000000000000000000000000000000000000000000000\n        /* \"#utility.yul\":5670:5671   */\n      0x00\n        /* \"#utility.yul\":5662:5668   */\n      dup3\n        /* \"#utility.yul\":5658:5672   */\n      add\n        /* \"#utility.yul\":5651:5684   */\n      mstore\n        /* \"#utility.yul\":5534:5691   */\n      pop\n      jump\t// out\n        /* \"#utility.yul\":5697:6062   */\n    tag_79:\n        /* \"#utility.yul\":5839:5842   */\n      0x00\n        /* \"#utility.yul\":5860:5926   */\n      tag_172\n        /* \"#utility.yul\":5924:5925   */\n      0x07\n        /* \"#utility.yul\":5919:5922   */\n      dup4\n        /* \"#utility.yul\":5860:5926   */\n      tag_77\n      jump\t// in\n    tag_172:\n        /* \"#utility.yul\":5853:5926   */\n      swap2\n      pop\n        /* \"#utility.yul\":5935:6028   */\n      tag_173\n        /* \"#utility.yul\":6024:6027   */\n      dup3\n        /* \"#utility.yul\":5935:6028   */\n      tag_78\n      jump\t// in\n    tag_173:\n        /* \"#utility.yul\":6053:6055   */\n      0x20\n        /* \"#utility.yul\":6048:6051   */\n      dup3\n        /* \"#utility.yul\":6044:6056   */\n      add\n        /* \"#utility.yul\":6037:6056   */\n      swap1\n      pop\n        /* \"#utility.yul\":5697:6062   */\n      swap2\n      swap1\n      pop\n      jump\t// out\n        /* \"#utility.yul\":6068:6487   */\n    tag_34:\n        /* \"#utility.yul\":6234:6238   */\n      0x00\n        /* \"#utility.yul\":6272:6274   */\n      0x20\n        /* \"#utility.yul\":6261:6270   */\n      dup3\n        /* \"#utility.yul\":6257:6275   */\n      add\n        /* \"#utility.yul\":6249:6275   */\n      swap1\n      pop\n        /* \"#utility.yul\":6321:6330   */\n      dup2\n        /* \"#utility.yul\":6315:6319   */\n      dup2\n        /* \"#utility.yul\":6311:6331   */\n      sub\n        /* \"#utility.yul\":6307:6308   */\n      0x00\n        /* \"#utility.yul\":6296:6305   */\n      dup4\n        /* \"#utility.yul\":6292:6309   */\n      add\n        /* \"#utility.yul\":6285:6332   */\n      mstore\n        /* \"#utility.yul\":6349:6480   */\n      tag_175\n        /* \"#utility.yul\":6475:6479   */\n      dup2\n        /* \"#utility.yul\":6349:6480   */\n      tag_79\n      jump\t// in\n    tag_175:\n        /* \"#utility.yul\":6341:6480   */\n      swap1\n      pop\n        /* \"#utility.yul\":6068:6487   */\n      swap2\n      swap1\n      pop\n      jump\t// out\n        /* \"#utility.yul\":6493:6673   */\n    tag_38:\n        /* \"#utility.yul\":6541:6618   */\n      0x4e487b7100000000000000000000000000000000000000000000000000000000\n        /* \"#utility.yul\":6538:6539   */\n      0x00\n        /* \"#utility.yul\":6531:6619   */\n      mstore\n        /* \"#utility.yul\":6638:6642   */\n      0x41\n        /* \"#utility.yul\":6635:6636   */\n      0x04\n        /* \"#utility.yul\":6628:6643   */\n      mstore\n        /* \"#utility.yul\":6662:6666   */\n      0x24\n        /* \"#utility.yul\":6659:6660   */\n      0x00\n        /* \"#utility.yul\":6652:6667   */\n      revert\n        /* \"#utility.yul\":6679:6859   */\n    tag_43:\n        /* \"#utility.yul\":6727:6804   */\n      0x4e487b7100000000000000000000000000000000000000000000000000000000\n        /* \"#utility.yul\":6724:6725   */\n      0x00\n        /* \"#utility.yul\":6717:6805   */\n      mstore\n        /* \"#utility.yul\":6824:6828   */\n      0x32\n        /* \"#utility.yul\":6821:6822   */\n      0x04\n        /* \"#utility.yul\":6814:6829   */\n      mstore\n        /* \"#utility.yul\":6848:6852   */\n      0x24\n        /* \"#utility.yul\":6845:6846   */\n      0x00\n        /* \"#utility.yul\":6838:6853   */\n      revert\n        /* \"#utility.yul\":6865:6991   */\n    tag_80:\n        /* \"#utility.yul\":6902:6909   */\n      0x00\n        /* \"#utility.yul\":6942:6984   */\n      0xffffffffffffffffffffffffffffffffffffffff\n        /* \"#utility.yul\":6935:6940   */\n      dup3\n        /* \"#utility.yul\":6931:6985   */\n      and\n        /* \"#utility.yul\":6920:6985   */\n      swap1\n      pop\n        /* \"#utility.yul\":6865:6991   */\n      swap2\n      swap1\n      pop\n      jump\t// out\n        /* \"#utility.yul\":6997:7093   */\n    tag_81:\n        /* \"#utility.yul\":7034:7041   */\n      0x00\n        /* \"#utility.yul\":7063:7087   */\n      tag_180\n        /* \"#utility.yul\":7081:7086   */\n      dup3\n        /* \"#utility.yul\":7063:7087   */\n      tag_80\n      jump\t// in\n    tag_180:\n        /* \"#utility.yul\":7052:7087   */\n      swap1\n      pop\n        /* \"#utility.yul\":6997:7093   */\n      swap2\n      swap1\n      pop\n      jump\t// out\n        /* \"#utility.yul\":7099:7217   */\n    tag_82:\n        /* \"#utility.yul\":7186:7210   */\n      tag_182\n        /* \"#utility.yul\":7204:7209   */\n      dup2\n        /* \"#utility.yul\":7186:7210   */\n      tag_81\n      jump\t// in\n    tag_182:\n        /* \"#utility.yul\":7181:7184   */\n      dup3\n        /* \"#utility.yul\":7174:7211   */\n      mstore\n        /* \"#utility.yul\":7099:7217   */\n      pop\n      pop\n      jump\t// out\n        /* \"#utility.yul\":7223:7347   */\n    tag_83:\n        /* \"#utility.yul\":7300:7306   */\n      0x00\n        /* \"#utility.yul\":7334:7339   */\n      dup2\n        /* \"#utility.yul\":7328:7340   */\n      mload\n        /* \"#utility.yul\":7318:7340   */\n      swap1\n      pop\n        /* \"#utility.yul\":7223:7347   */\n      swap2\n      swap1\n      pop\n      jump\t// out\n        /* \"#utility.yul\":7353:7547   */\n    tag_84:\n        /* \"#utility.yul\":7462:7473   */\n      0x00\n        /* \"#utility.yul\":7496:7502   */\n      dup3\n        /* \"#utility.yul\":7491:7494   */\n      dup3\n        /* \"#utility.yul\":7484:7503   */\n      mstore\n        /* \"#utility.yul\":7536:7540   */\n      0x20\n        /* \"#utility.yul\":7531:7534   */\n      dup3\n        /* \"#utility.yul\":7527:7541   */\n      add\n        /* \"#utility.yul\":7512:7541   */\n      swap1\n      pop\n        /* \"#utility.yul\":7353:7547   */\n      swap3\n      swap2\n      pop\n      pop\n      jump\t// out\n        /* \"#utility.yul\":7553:7695   */\n    tag_85:\n        /* \"#utility.yul\":7630:7634   */\n      0x00\n        /* \"#utility.yul\":7653:7656   */\n      dup2\n        /* \"#utility.yul\":7645:7656   */\n      swap1\n      pop\n        /* \"#utility.yul\":7683:7687   */\n      0x20\n        /* \"#utility.yul\":7678:7681   */\n      dup3\n        /* \"#utility.yul\":7674:7688   */\n      add\n        /* \"#utility.yul\":7666:7688   */\n      swap1\n      pop\n        /* \"#utility.yul\":7553:7695   */\n      swap2\n      swap1\n      pop\n      jump\t// out\n        /* \"#utility.yul\":7701:7800   */\n    tag_86:\n        /* \"#utility.yul\":7753:7759   */\n      0x00\n        /* \"#utility.yul\":7787:7792   */\n      dup2\n        /* \"#utility.yul\":7781:7793   */\n      mload\n        /* \"#utility.yul\":7771:7793   */\n      swap1\n      pop\n        /* \"#utility.yul\":7701:7800   */\n      swap2\n      swap1\n      pop\n      jump\t// out\n        /* \"#utility.yul\":7806:7965   */\n    tag_87:\n        /* \"#utility.yul\":7880:7891   */\n      0x00\n        /* \"#utility.yul\":7914:7920   */\n      dup3\n        /* \"#utility.yul\":7909:7912   */\n      dup3\n        /* \"#utility.yul\":7902:7921   */\n      mstore\n        /* \"#utility.yul\":7954:7958   */\n      0x20\n        /* \"#utility.yul\":7949:7952   */\n      dup3\n        /* \"#utility.yul\":7945:7959   */\n      add\n        /* \"#utility.yul\":7930:7959   */\n      swap1\n      pop\n        /* \"#utility.yul\":7806:7965   */\n      swap3\n      swap2\n      pop\n      pop\n      jump\t// out\n        /* \"#utility.yul\":7971:8328   */\n    tag_88:\n        /* \"#utility.yul\":8049:8052   */\n      0x00\n        /* \"#utility.yul\":8077:8116   */\n      tag_189\n        /* \"#utility.yul\":8110:8115   */\n      dup3\n        /* \"#utility.yul\":8077:8116   */\n      tag_86\n      jump\t// in\n    tag_189:\n        /* \"#utility.yul\":8132:8193   */\n      tag_190\n        /* \"#utility.yul\":8186:8192   */\n      dup2\n        /* \"#utility.yul\":8181:8184   */\n      dup6\n        /* \"#utility.yul\":8132:8193   */\n      tag_87\n      jump\t// in\n    tag_190:\n        /* \"#utility.yul\":8125:8193   */\n      swap4\n      pop\n        /* \"#utility.yul\":8202:8267   */\n      tag_191\n        /* \"#utility.yul\":8260:8266   */\n      dup2\n        /* \"#utility.yul\":8255:8258   */\n      dup6\n        /* \"#utility.yul\":8248:8252   */\n      0x20\n        /* \"#utility.yul\":8241:8246   */\n      dup7\n        /* \"#utility.yul\":8237:8253   */\n      add\n        /* \"#utility.yul\":8202:8267   */\n      tag_70\n      jump\t// in\n    tag_191:\n        /* \"#utility.yul\":8292:8321   */\n      tag_192\n        /* \"#utility.yul\":8314:8320   */\n      dup2\n        /* \"#utility.yul\":8292:8321   */\n      tag_71\n      jump\t// in\n    tag_192:\n        /* \"#utility.yul\":8287:8290   */\n      dup5\n        /* \"#utility.yul\":8283:8322   */\n      add\n        /* \"#utility.yul\":8276:8322   */\n      swap2\n      pop\n        /* \"#utility.yul\":8053:8328   */\n      pop\n        /* \"#utility.yul\":7971:8328   */\n      swap3\n      swap2\n      pop\n      pop\n      jump\t// out\n        /* \"#utility.yul\":8334:8530   */\n    tag_89:\n        /* \"#utility.yul\":8423:8433   */\n      0x00\n        /* \"#utility.yul\":8458:8524   */\n      tag_194\n        /* \"#utility.yul\":8520:8523   */\n      dup4\n        /* \"#utility.yul\":8512:8518   */\n      dup4\n        /* \"#utility.yul\":8458:8524   */\n      tag_88\n      jump\t// in\n    tag_194:\n        /* \"#utility.yul\":8444:8524   */\n      swap1\n      pop\n        /* \"#utility.yul\":8334:8530   */\n      swap3\n      swap2\n      pop\n      pop\n      jump\t// out\n        /* \"#utility.yul\":8536:8659   */\n    tag_90:\n        /* \"#utility.yul\":8616:8620   */\n      0x00\n        /* \"#utility.yul\":8648:8652   */\n      0x20\n        /* \"#utility.yul\":8643:8646   */\n      dup3\n        /* \"#utility.yul\":8639:8653   */\n      add\n        /* \"#utility.yul\":8631:8653   */\n      swap1\n      pop\n        /* \"#utility.yul\":8536:8659   */\n      swap2\n      swap1\n      pop\n      jump\t// out\n        /* \"#utility.yul\":8693:9684   */\n    tag_91:\n        /* \"#utility.yul\":8832:8835   */\n      0x00\n        /* \"#utility.yul\":8861:8925   */\n      tag_197\n        /* \"#utility.yul\":8919:8924   */\n      dup3\n        /* \"#utility.yul\":8861:8925   */\n      tag_83\n      jump\t// in\n    tag_197:\n        /* \"#utility.yul\":8941:9037   */\n      tag_198\n        /* \"#utility.yul\":9030:9036   */\n      dup2\n        /* \"#utility.yul\":9025:9028   */\n      dup6\n        /* \"#utility.yul\":8941:9037   */\n      tag_84\n      jump\t// in\n    tag_198:\n        /* \"#utility.yul\":8934:9037   */\n      swap4\n      pop\n        /* \"#utility.yul\":9063:9066   */\n      dup4\n        /* \"#utility.yul\":9108:9112   */\n      0x20\n        /* \"#utility.yul\":9100:9106   */\n      dup3\n        /* \"#utility.yul\":9096:9113   */\n      mul\n        /* \"#utility.yul\":9091:9094   */\n      dup6\n        /* \"#utility.yul\":9087:9114   */\n      add\n        /* \"#utility.yul\":9138:9204   */\n      tag_199\n        /* \"#utility.yul\":9198:9203   */\n      dup6\n        /* \"#utility.yul\":9138:9204   */\n      tag_85\n      jump\t// in\n    tag_199:\n        /* \"#utility.yul\":9227:9234   */\n      dup1\n        /* \"#utility.yul\":9258:9259   */\n      0x00\n        /* \"#utility.yul\":9243:9639   */\n    tag_200:\n        /* \"#utility.yul\":9268:9274   */\n      dup6\n        /* \"#utility.yul\":9265:9266   */\n      dup2\n        /* \"#utility.yul\":9262:9275   */\n      lt\n        /* \"#utility.yul\":9243:9639   */\n      iszero\n      tag_202\n      jumpi\n        /* \"#utility.yul\":9339:9348   */\n      dup5\n        /* \"#utility.yul\":9333:9337   */\n      dup5\n        /* \"#utility.yul\":9329:9349   */\n      sub\n        /* \"#utility.yul\":9324:9327   */\n      dup10\n        /* \"#utility.yul\":9317:9350   */\n      mstore\n        /* \"#utility.yul\":9390:9396   */\n      dup2\n        /* \"#utility.yul\":9384:9397   */\n      mload\n        /* \"#utility.yul\":9418:9502   */\n      tag_203\n        /* \"#utility.yul\":9497:9501   */\n      dup6\n        /* \"#utility.yul\":9482:9495   */\n      dup3\n        /* \"#utility.yul\":9418:9502   */\n      tag_89\n      jump\t// in\n    tag_203:\n        /* \"#utility.yul\":9410:9502   */\n      swap5\n      pop\n        /* \"#utility.yul\":9525:9595   */\n      tag_204\n        /* \"#utility.yul\":9588:9594   */\n      dup4\n        /* \"#utility.yul\":9525:9595   */\n      tag_90\n      jump\t// in\n    tag_204:\n        /* \"#utility.yul\":9515:9595   */\n      swap3\n      pop\n        /* \"#utility.yul\":9624:9628   */\n      0x20\n        /* \"#utility.yul\":9619:9622   */\n      dup11\n        /* \"#utility.yul\":9615:9629   */\n      add\n        /* \"#utility.yul\":9608:9629   */\n      swap10\n      pop\n        /* \"#utility.yul\":9303:9639   */\n      pop\n        /* \"#utility.yul\":9290:9291   */\n      0x01\n        /* \"#utility.yul\":9287:9288   */\n      dup2\n        /* \"#utility.yul\":9283:9292   */\n      add\n        /* \"#utility.yul\":9278:9292   */\n      swap1\n      pop\n        /* \"#utility.yul\":9243:9639   */\n      jump(tag_200)\n    tag_202:\n        /* \"#utility.yul\":9247:9261   */\n      pop\n        /* \"#utility.yul\":9655:9659   */\n      dup3\n        /* \"#utility.yul\":9648:9659   */\n      swap8\n      pop\n        /* \"#utility.yul\":9675:9678   */\n      dup8\n        /* \"#utility.yul\":9668:9678   */\n      swap6\n      pop\n        /* \"#utility.yul\":8837:9684   */\n      pop\n      pop\n      pop\n      pop\n      pop\n        /* \"#utility.yul\":8693:9684   */\n      swap3\n      swap2\n      pop\n      pop\n      jump\t// out\n        /* \"#utility.yul\":9690:9838   */\n    tag_92:\n        /* \"#utility.yul\":9788:9794   */\n      dup3\n        /* \"#utility.yul\":9783:9786   */\n      dup2\n        /* \"#utility.yul\":9778:9781   */\n      dup4\n        /* \"#utility.yul\":9765:9795   */\n      calldatacopy\n        /* \"#utility.yul\":9829:9830   */\n      0x00\n        /* \"#utility.yul\":9820:9826   */\n      dup4\n        /* \"#utility.yul\":9815:9818   */\n      dup4\n        /* \"#utility.yul\":9811:9827   */\n      add\n        /* \"#utility.yul\":9804:9831   */\n      mstore\n        /* \"#utility.yul\":9690:9838   */\n      pop\n      pop\n      pop\n      jump\t// out\n        /* \"#utility.yul\":9866:10180   */\n    tag_93:\n        /* \"#utility.yul\":9962:9965   */\n      0x00\n        /* \"#utility.yul\":9983:10053   */\n      tag_207\n        /* \"#utility.yul\":10046:10052   */\n      dup4\n        /* \"#utility.yul\":10041:10044   */\n      dup6\n        /* \"#utility.yul\":9983:10053   */\n      tag_69\n      jump\t// in\n    tag_207:\n        /* \"#utility.yul\":9976:10053   */\n      swap4\n      pop\n        /* \"#utility.yul\":10063:10119   */\n      tag_208\n        /* \"#utility.yul\":10112:10118   */\n      dup4\n        /* \"#utility.yul\":10107:10110   */\n      dup6\n        /* \"#utility.yul\":10100:10105   */\n      dup5\n        /* \"#utility.yul\":10063:10119   */\n      tag_92\n      jump\t// in\n    tag_208:\n        /* \"#utility.yul\":10144:10173   */\n      tag_209\n        /* \"#utility.yul\":10166:10172   */\n      dup4\n        /* \"#utility.yul\":10144:10173   */\n      tag_71\n      jump\t// in\n    tag_209:\n        /* \"#utility.yul\":10139:10142   */\n      dup5\n        /* \"#utility.yul\":10135:10174   */\n      add\n        /* \"#utility.yul\":10128:10174   */\n      swap1\n      pop\n        /* \"#utility.yul\":9866:10180   */\n      swap4\n      swap3\n      pop\n      pop\n      pop\n      jump\t// out\n        /* \"#utility.yul\":10186:10301   */\n    tag_94:\n        /* \"#utility.yul\":10271:10294   */\n      tag_211\n        /* \"#utility.yul\":10288:10293   */\n      dup2\n        /* \"#utility.yul\":10271:10294   */\n      tag_60\n      jump\t// in\n    tag_211:\n        /* \"#utility.yul\":10266:10269   */\n      dup3\n        /* \"#utility.yul\":10259:10295   */\n      mstore\n        /* \"#utility.yul\":10186:10301   */\n      pop\n      pop\n      jump\t// out\n        /* \"#utility.yul\":10307:11372   */\n    tag_45:\n        /* \"#utility.yul\":10636:10640   */\n      0x00\n        /* \"#utility.yul\":10674:10677   */\n      0xa0\n        /* \"#utility.yul\":10663:10672   */\n      dup3\n        /* \"#utility.yul\":10659:10678   */\n      add\n        /* \"#utility.yul\":10651:10678   */\n      swap1\n      pop\n        /* \"#utility.yul\":10688:10759   */\n      tag_213\n        /* \"#utility.yul\":10756:10757   */\n      0x00\n        /* \"#utility.yul\":10745:10754   */\n      dup4\n        /* \"#utility.yul\":10741:10758   */\n      add\n        /* \"#utility.yul\":10732:10738   */\n      dup11\n        /* \"#utility.yul\":10688:10759   */\n      tag_82\n      jump\t// in\n    tag_213:\n        /* \"#utility.yul\":10806:10815   */\n      dup2\n        /* \"#utility.yul\":10800:10804   */\n      dup2\n        /* \"#utility.yul\":10796:10816   */\n      sub\n        /* \"#utility.yul\":10791:10793   */\n      0x20\n        /* \"#utility.yul\":10780:10789   */\n      dup4\n        /* \"#utility.yul\":10776:10794   */\n      add\n        /* \"#utility.yul\":10769:10817   */\n      mstore\n        /* \"#utility.yul\":10834:10962   */\n      tag_214\n        /* \"#utility.yul\":10957:10961   */\n      dup2\n        /* \"#utility.yul\":10948:10954   */\n      dup10\n        /* \"#utility.yul\":10834:10962   */\n      tag_91\n      jump\t// in\n    tag_214:\n        /* \"#utility.yul\":10826:10962   */\n      swap1\n      pop\n        /* \"#utility.yul\":11009:11018   */\n      dup2\n        /* \"#utility.yul\":11003:11007   */\n      dup2\n        /* \"#utility.yul\":10999:11019   */\n      sub\n        /* \"#utility.yul\":10994:10996   */\n      0x40\n        /* \"#utility.yul\":10983:10992   */\n      dup4\n        /* \"#utility.yul\":10979:10997   */\n      add\n        /* \"#utility.yul\":10972:11020   */\n      mstore\n        /* \"#utility.yul\":11037:11123   */\n      tag_215\n        /* \"#utility.yul\":11118:11122   */\n      dup2\n        /* \"#utility.yul\":11109:11115   */\n      dup8\n        /* \"#utility.yul\":11101:11107   */\n      dup10\n        /* \"#utility.yul\":11037:11123   */\n      tag_93\n      jump\t// in\n    tag_215:\n        /* \"#utility.yul\":11029:11123   */\n      swap1\n      pop\n        /* \"#utility.yul\":11133:11203   */\n      tag_216\n        /* \"#utility.yul\":11199:11201   */\n      0x60\n        /* \"#utility.yul\":11188:11197   */\n      dup4\n        /* \"#utility.yul\":11184:11202   */\n      add\n        /* \"#utility.yul\":11175:11181   */\n      dup7\n        /* \"#utility.yul\":11133:11203   */\n      tag_94\n      jump\t// in\n    tag_216:\n        /* \"#utility.yul\":11251:11260   */\n      dup2\n        /* \"#utility.yul\":11245:11249   */\n      dup2\n        /* \"#utility.yul\":11241:11261   */\n      sub\n        /* \"#utility.yul\":11235:11238   */\n      0x80\n        /* \"#utility.yul\":11224:11233   */\n      dup4\n        /* \"#utility.yul\":11220:11239   */\n      add\n        /* \"#utility.yul\":11213:11262   */\n      mstore\n        /* \"#utility.yul\":11279:11365   */\n      tag_217\n        /* \"#utility.yul\":11360:11364   */\n      dup2\n        /* \"#utility.yul\":11351:11357   */\n      dup5\n        /* \"#utility.yul\":11343:11349   */\n      dup7\n        /* \"#utility.yul\":11279:11365   */\n      tag_93\n      jump\t// in\n    tag_217:\n        /* \"#utility.yul\":11271:11365   */\n      swap1\n      pop\n        /* \"#utility.yul\":10307:11372   */\n      swap9\n      swap8\n      pop\n      pop\n      pop\n      pop\n      pop\n      pop\n      pop\n      pop\n      jump\t// out\n        /* \"#utility.yul\":11378:11495   */\n    tag_95:\n        /* \"#utility.yul\":11487:11488   */\n      0x00\n        /* \"#utility.yul\":11484:11485   */\n      dup1\n        /* \"#utility.yul\":11477:11489   */\n      revert\n        /* \"#utility.yul\":11501:11782   */\n    tag_96:\n        /* \"#utility.yul\":11584:11611   */\n      tag_220\n        /* \"#utility.yul\":11606:11610   */\n      dup3\n        /* \"#utility.yul\":11584:11611   */\n      tag_71\n      jump\t// in\n    tag_220:\n        /* \"#utility.yul\":11576:11582   */\n      dup2\n        /* \"#utility.yul\":11572:11612   */\n      add\n        /* \"#utility.yul\":11714:11720   */\n      dup2\n        /* \"#utility.yul\":11702:11712   */\n      dup2\n        /* \"#utility.yul\":11699:11721   */\n      lt\n        /* \"#utility.yul\":11678:11696   */\n      0xffffffffffffffff\n        /* \"#utility.yul\":11666:11676   */\n      dup3\n        /* \"#utility.yul\":11663:11697   */\n      gt\n        /* \"#utility.yul\":11660:11722   */\n      or\n        /* \"#utility.yul\":11657:11745   */\n      iszero\n      tag_221\n      jumpi\n        /* \"#utility.yul\":11725:11743   */\n      tag_222\n      tag_38\n      jump\t// in\n    tag_222:\n        /* \"#utility.yul\":11657:11745   */\n    tag_221:\n        /* \"#utility.yul\":11765:11775   */\n      dup1\n        /* \"#utility.yul\":11761:11763   */\n      0x40\n        /* \"#utility.yul\":11754:11776   */\n      mstore\n        /* \"#utility.yul\":11544:11782   */\n      pop\n        /* \"#utility.yul\":11501:11782   */\n      pop\n      pop\n      jump\t// out\n        /* \"#utility.yul\":11788:11917   */\n    tag_97:\n        /* \"#utility.yul\":11822:11828   */\n      0x00\n        /* \"#utility.yul\":11849:11869   */\n      tag_224\n      tag_57\n      jump\t// in\n    tag_224:\n        /* \"#utility.yul\":11839:11869   */\n      swap1\n      pop\n        /* \"#utility.yul\":11878:11911   */\n      tag_225\n        /* \"#utility.yul\":11906:11910   */\n      dup3\n        /* \"#utility.yul\":11898:11904   */\n      dup3\n        /* \"#utility.yul\":11878:11911   */\n      tag_96\n      jump\t// in\n    tag_225:\n        /* \"#utility.yul\":11788:11917   */\n      swap2\n      swap1\n      pop\n      jump\t// out\n        /* \"#utility.yul\":11923:12230   */\n    tag_98:\n        /* \"#utility.yul\":11984:11988   */\n      0x00\n        /* \"#utility.yul\":12074:12092   */\n      0xffffffffffffffff\n        /* \"#utility.yul\":12066:12072   */\n      dup3\n        /* \"#utility.yul\":12063:12093   */\n      gt\n        /* \"#utility.yul\":12060:12116   */\n      iszero\n      tag_227\n      jumpi\n        /* \"#utility.yul\":12096:12114   */\n      tag_228\n      tag_38\n      jump\t// in\n    tag_228:\n        /* \"#utility.yul\":12060:12116   */\n    tag_227:\n        /* \"#utility.yul\":12134:12163   */\n      tag_229\n        /* \"#utility.yul\":12156:12162   */\n      dup3\n        /* \"#utility.yul\":12134:12163   */\n      tag_71\n      jump\t// in\n    tag_229:\n        /* \"#utility.yul\":12126:12163   */\n      swap1\n      pop\n        /* \"#utility.yul\":12218:12222   */\n      0x20\n        /* \"#utility.yul\":12212:12216   */\n      dup2\n        /* \"#utility.yul\":12208:12223   */\n      add\n        /* \"#utility.yul\":12200:12223   */\n      swap1\n      pop\n        /* \"#utility.yul\":11923:12230   */\n      swap2\n      swap1\n      pop\n      jump\t// out\n        /* \"#utility.yul\":12236:12659   */\n    tag_99:\n        /* \"#utility.yul\":12313:12318   */\n      0x00\n        /* \"#utility.yul\":12338:12403   */\n      tag_231\n        /* \"#utility.yul\":12354:12402   */\n      tag_232\n        /* \"#utility.yul\":12395:12401   */\n      dup5\n        /* \"#utility.yul\":12354:12402   */\n      tag_98\n      jump\t// in\n    tag_232:\n        /* \"#utility.yul\":12338:12403   */\n      tag_97\n      jump\t// in\n    tag_231:\n        /* \"#utility.yul\":12329:12403   */\n      swap1\n      pop\n        /* \"#utility.yul\":12426:12432   */\n      dup3\n        /* \"#utility.yul\":12419:12424   */\n      dup2\n        /* \"#utility.yul\":12412:12433   */\n      mstore\n        /* \"#utility.yul\":12464:12468   */\n      0x20\n        /* \"#utility.yul\":12457:12462   */\n      dup2\n        /* \"#utility.yul\":12453:12469   */\n      add\n        /* \"#utility.yul\":12502:12505   */\n      dup5\n        /* \"#utility.yul\":12493:12499   */\n      dup5\n        /* \"#utility.yul\":12488:12491   */\n      dup5\n        /* \"#utility.yul\":12484:12500   */\n      add\n        /* \"#utility.yul\":12481:12506   */\n      gt\n        /* \"#utility.yul\":12478:12590   */\n      iszero\n      tag_233\n      jumpi\n        /* \"#utility.yul\":12509:12588   */\n      tag_234\n      tag_95\n      jump\t// in\n    tag_234:\n        /* \"#utility.yul\":12478:12590   */\n    tag_233:\n        /* \"#utility.yul\":12599:12653   */\n      tag_235\n        /* \"#utility.yul\":12646:12652   */\n      dup5\n        /* \"#utility.yul\":12641:12644   */\n      dup3\n        /* \"#utility.yul\":12636:12639   */\n      dup6\n        /* \"#utility.yul\":12599:12653   */\n      tag_92\n      jump\t// in\n    tag_235:\n        /* \"#utility.yul\":12319:12659   */\n      pop\n        /* \"#utility.yul\":12236:12659   */\n      swap4\n      swap3\n      pop\n      pop\n      pop\n      jump\t// out\n        /* \"#utility.yul\":12678:13016   */\n    tag_100:\n        /* \"#utility.yul\":12733:12738   */\n      0x00\n        /* \"#utility.yul\":12782:12785   */\n      dup3\n        /* \"#utility.yul\":12775:12779   */\n      0x1f\n        /* \"#utility.yul\":12767:12773   */\n      dup4\n        /* \"#utility.yul\":12763:12780   */\n      add\n        /* \"#utility.yul\":12759:12786   */\n      slt\n        /* \"#utility.yul\":12749:12871   */\n      tag_237\n      jumpi\n        /* \"#utility.yul\":12790:12869   */\n      tag_238\n      tag_73\n      jump\t// in\n    tag_238:\n        /* \"#utility.yul\":12749:12871   */\n    tag_237:\n        /* \"#utility.yul\":12907:12913   */\n      dup2\n        /* \"#utility.yul\":12894:12914   */\n      calldataload\n        /* \"#utility.yul\":12932:13010   */\n      tag_239\n        /* \"#utility.yul\":13006:13009   */\n      dup5\n        /* \"#utility.yul\":12998:13004   */\n      dup3\n        /* \"#utility.yul\":12991:12995   */\n      0x20\n        /* \"#utility.yul\":12983:12989   */\n      dup7\n        /* \"#utility.yul\":12979:12996   */\n      add\n        /* \"#utility.yul\":12932:13010   */\n      tag_99\n      jump\t// in\n    tag_239:\n        /* \"#utility.yul\":12923:13010   */\n      swap2\n      pop\n        /* \"#utility.yul\":12739:13016   */\n      pop\n        /* \"#utility.yul\":12678:13016   */\n      swap3\n      swap2\n      pop\n      pop\n      jump\t// out\n        /* \"#utility.yul\":13022:13995   */\n    tag_48:\n        /* \"#utility.yul\":13116:13122   */\n      0x00\n        /* \"#utility.yul\":13124:13130   */\n      dup1\n        /* \"#utility.yul\":13132:13138   */\n      0x00\n        /* \"#utility.yul\":13181:13183   */\n      0x60\n        /* \"#utility.yul\":13169:13178   */\n      dup5\n        /* \"#utility.yul\":13160:13167   */\n      dup7\n        /* \"#utility.yul\":13156:13179   */\n      sub\n        /* \"#utility.yul\":13152:13184   */\n      slt\n        /* \"#utility.yul\":13149:13268   */\n      iszero\n      tag_241\n      jumpi\n        /* \"#utility.yul\":13187:13266   */\n      tag_242\n      tag_58\n      jump\t// in\n    tag_242:\n        /* \"#utility.yul\":13149:13268   */\n    tag_241:\n        /* \"#utility.yul\":13335:13336   */\n      0x00\n        /* \"#utility.yul\":13324:13333   */\n      dup5\n        /* \"#utility.yul\":13320:13337   */\n      add\n        /* \"#utility.yul\":13307:13338   */\n      calldataload\n        /* \"#utility.yul\":13365:13383   */\n      0xffffffffffffffff\n        /* \"#utility.yul\":13357:13363   */\n      dup2\n        /* \"#utility.yul\":13354:13384   */\n      gt\n        /* \"#utility.yul\":13351:13468   */\n      iszero\n      tag_243\n      jumpi\n        /* \"#utility.yul\":13387:13466   */\n      tag_244\n      tag_59\n      jump\t// in\n    tag_244:\n        /* \"#utility.yul\":13351:13468   */\n    tag_243:\n        /* \"#utility.yul\":13492:13554   */\n      tag_245\n        /* \"#utility.yul\":13546:13553   */\n      dup7\n        /* \"#utility.yul\":13537:13543   */\n      dup3\n        /* \"#utility.yul\":13526:13535   */\n      dup8\n        /* \"#utility.yul\":13522:13544   */\n      add\n        /* \"#utility.yul\":13492:13554   */\n      tag_100\n      jump\t// in\n    tag_245:\n        /* \"#utility.yul\":13482:13554   */\n      swap4\n      pop\n        /* \"#utility.yul\":13278:13564   */\n      pop\n        /* \"#utility.yul\":13631:13633   */\n      0x20\n        /* \"#utility.yul\":13620:13629   */\n      dup5\n        /* \"#utility.yul\":13616:13634   */\n      add\n        /* \"#utility.yul\":13603:13635   */\n      calldataload\n        /* \"#utility.yul\":13662:13680   */\n      0xffffffffffffffff\n        /* \"#utility.yul\":13654:13660   */\n      dup2\n        /* \"#utility.yul\":13651:13681   */\n      gt\n        /* \"#utility.yul\":13648:13765   */\n      iszero\n      tag_246\n      jumpi\n        /* \"#utility.yul\":13684:13763   */\n      tag_247\n      tag_59\n      jump\t// in\n    tag_247:\n        /* \"#utility.yul\":13648:13765   */\n    tag_246:\n        /* \"#utility.yul\":13789:13851   */\n      tag_248\n        /* \"#utility.yul\":13843:13850   */\n      dup7\n        /* \"#utility.yul\":13834:13840   */\n      dup3\n        /* \"#utility.yul\":13823:13832   */\n      dup8\n        /* \"#utility.yul\":13819:13841   */\n      add\n        /* \"#utility.yul\":13789:13851   */\n      tag_100\n      jump\t// in\n    tag_248:\n        /* \"#utility.yul\":13779:13851   */\n      swap3\n      pop\n        /* \"#utility.yul\":13574:13861   */\n      pop\n        /* \"#utility.yul\":13900:13902   */\n      0x40\n        /* \"#utility.yul\":13926:13978   */\n      tag_249\n        /* \"#utility.yul\":13970:13977   */\n      dup7\n        /* \"#utility.yul\":13961:13967   */\n      dup3\n        /* \"#utility.yul\":13950:13959   */\n      dup8\n        /* \"#utility.yul\":13946:13968   */\n      add\n        /* \"#utility.yul\":13926:13978   */\n      tag_62\n      jump\t// in\n    tag_249:\n        /* \"#utility.yul\":13916:13978   */\n      swap2\n      pop\n        /* \"#utility.yul\":13871:13988   */\n      pop\n        /* \"#utility.yul\":13022:13995   */\n      swap3\n      pop\n      swap3\n      pop\n      swap3\n      jump\t// out\n        /* \"#utility.yul\":14001:14117   */\n    tag_101:\n        /* \"#utility.yul\":14052:14056   */\n      0x00\n        /* \"#utility.yul\":14075:14078   */\n      dup2\n        /* \"#utility.yul\":14067:14078   */\n      swap1\n      pop\n        /* \"#utility.yul\":14105:14109   */\n      0x20\n        /* \"#utility.yul\":14100:14103   */\n      dup3\n        /* \"#utility.yul\":14096:14110   */\n      add\n        /* \"#utility.yul\":14088:14110   */\n      swap1\n      pop\n        /* \"#utility.yul\":14001:14117   */\n      swap2\n      swap1\n      pop\n      jump\t// out\n        /* \"#utility.yul\":14123:14275   */\n    tag_102:\n        /* \"#utility.yul\":14165:14176   */\n      0x00\n        /* \"#utility.yul\":14201:14229   */\n      tag_252\n        /* \"#utility.yul\":14224:14227   */\n      dup3\n        /* \"#utility.yul\":14218:14228   */\n      mload\n        /* \"#utility.yul\":14201:14229   */\n      tag_60\n      jump\t// in\n    tag_252:\n        /* \"#utility.yul\":14263:14268   */\n      dup1\n        /* \"#utility.yul\":14239:14268   */\n      swap2\n      pop\n        /* \"#utility.yul\":14177:14275   */\n      pop\n        /* \"#utility.yul\":14123:14275   */\n      swap2\n      swap1\n      pop\n      jump\t// out\n        /* \"#utility.yul\":14281:14388   */\n    tag_103:\n        /* \"#utility.yul\":14325:14333   */\n      0x00\n        /* \"#utility.yul\":14375:14380   */\n      dup3\n        /* \"#utility.yul\":14369:14373   */\n      dup3\n        /* \"#utility.yul\":14365:14381   */\n      shl\n        /* \"#utility.yul\":14344:14381   */\n      swap1\n      pop\n        /* \"#utility.yul\":14281:14388   */\n      swap3\n      swap2\n      pop\n      pop\n      jump\t// out\n        /* \"#utility.yul\":14394:14984   */\n    tag_50:\n        /* \"#utility.yul\":14477:14482   */\n      0x00\n        /* \"#utility.yul\":14508:14546   */\n      tag_255\n        /* \"#utility.yul\":14540:14545   */\n      dup3\n        /* \"#utility.yul\":14508:14546   */\n      tag_68\n      jump\t// in\n    tag_255:\n        /* \"#utility.yul\":14571:14576   */\n      dup3\n        /* \"#utility.yul\":14598:14638   */\n      tag_256\n        /* \"#utility.yul\":14632:14637   */\n      dup5\n        /* \"#utility.yul\":14598:14638   */\n      tag_101\n      jump\t// in\n    tag_256:\n        /* \"#utility.yul\":14586:14638   */\n      swap1\n      pop\n        /* \"#utility.yul\":14657:14691   */\n      tag_257\n        /* \"#utility.yul\":14682:14690   */\n      dup2\n        /* \"#utility.yul\":14657:14691   */\n      tag_102\n      jump\t// in\n    tag_257:\n        /* \"#utility.yul\":14648:14691   */\n      swap3\n      pop\n        /* \"#utility.yul\":14715:14716   */\n      0x04\n        /* \"#utility.yul\":14707:14713   */\n      dup3\n        /* \"#utility.yul\":14704:14717   */\n      lt\n        /* \"#utility.yul\":14701:14977   */\n      iszero\n      tag_258\n      jumpi\n        /* \"#utility.yul\":14785:14953   */\n      tag_259\n        /* \"#utility.yul\":14869:14935   */\n      0xffffffff00000000000000000000000000000000000000000000000000000000\n        /* \"#utility.yul\":14839:14845   */\n      dup4\n        /* \"#utility.yul\":14836:14837   */\n      0x04\n        /* \"#utility.yul\":14832:14846   */\n      sub\n        /* \"#utility.yul\":14829:14830   */\n      0x08\n        /* \"#utility.yul\":14825:14847   */\n      mul\n        /* \"#utility.yul\":14785:14953   */\n      tag_103\n      jump\t// in\n    tag_259:\n        /* \"#utility.yul\":14762:14767   */\n      dup4\n        /* \"#utility.yul\":14741:14967   */\n      and\n        /* \"#utility.yul\":14732:14967   */\n      swap3\n      pop\n        /* \"#utility.yul\":14701:14977   */\n    tag_258:\n        /* \"#utility.yul\":14483:14984   */\n      pop\n      pop\n        /* \"#utility.yul\":14394:14984   */\n      swap2\n      swap1\n      pop\n      jump\t// out\n        /* \"#utility.yul\":14990:15091   */\n    tag_104:\n        /* \"#utility.yul\":15026:15033   */\n      0x00\n        /* \"#utility.yul\":15066:15084   */\n      0xffffffffffffffff\n        /* \"#utility.yul\":15059:15064   */\n      dup3\n        /* \"#utility.yul\":15055:15085   */\n      and\n        /* \"#utility.yul\":15044:15085   */\n      swap1\n      pop\n        /* \"#utility.yul\":14990:15091   */\n      swap2\n      swap1\n      pop\n      jump\t// out\n        /* \"#utility.yul\":15097:15217   */\n    tag_105:\n        /* \"#utility.yul\":15169:15192   */\n      tag_262\n        /* \"#utility.yul\":15186:15191   */\n      dup2\n        /* \"#utility.yul\":15169:15192   */\n      tag_104\n      jump\t// in\n    tag_262:\n        /* \"#utility.yul\":15162:15167   */\n      dup2\n        /* \"#utility.yul\":15159:15193   */\n      eq\n        /* \"#utility.yul\":15149:15211   */\n      tag_263\n      jumpi\n        /* \"#utility.yul\":15207:15208   */\n      0x00\n        /* \"#utility.yul\":15204:15205   */\n      dup1\n        /* \"#utility.yul\":15197:15209   */\n      revert\n        /* \"#utility.yul\":15149:15211   */\n    tag_263:\n        /* \"#utility.yul\":15097:15217   */\n      pop\n      jump\t// out\n        /* \"#utility.yul\":15223:15360   */\n    tag_106:\n        /* \"#utility.yul\":15268:15273   */\n      0x00\n        /* \"#utility.yul\":15306:15312   */\n      dup2\n        /* \"#utility.yul\":15293:15313   */\n      calldataload\n        /* \"#utility.yul\":15284:15313   */\n      swap1\n      pop\n        /* \"#utility.yul\":15322:15354   */\n      tag_265\n        /* \"#utility.yul\":15348:15353   */\n      dup2\n        /* \"#utility.yul\":15322:15354   */\n      tag_105\n      jump\t// in\n    tag_265:\n        /* \"#utility.yul\":15223:15360   */\n      swap3\n      swap2\n      pop\n      pop\n      jump\t// out\n        /* \"#utility.yul\":15366:16339   */\n    tag_53:\n        /* \"#utility.yul\":15460:15466   */\n      0x00\n        /* \"#utility.yul\":15468:15474   */\n      dup1\n        /* \"#utility.yul\":15476:15482   */\n      0x00\n        /* \"#utility.yul\":15525:15527   */\n      0x60\n        /* \"#utility.yul\":15513:15522   */\n      dup5\n        /* \"#utility.yul\":15504:15511   */\n      dup7\n        /* \"#utility.yul\":15500:15523   */\n      sub\n        /* \"#utility.yul\":15496:15528   */\n      slt\n        /* \"#utility.yul\":15493:15612   */\n      iszero\n      tag_267\n      jumpi\n        /* \"#utility.yul\":15531:15610   */\n      tag_268\n      tag_58\n      jump\t// in\n    tag_268:\n        /* \"#utility.yul\":15493:15612   */\n    tag_267:\n        /* \"#utility.yul\":15679:15680   */\n      0x00\n        /* \"#utility.yul\":15668:15677   */\n      dup5\n        /* \"#utility.yul\":15664:15681   */\n      add\n        /* \"#utility.yul\":15651:15682   */\n      calldataload\n        /* \"#utility.yul\":15709:15727   */\n      0xffffffffffffffff\n        /* \"#utility.yul\":15701:15707   */\n      dup2\n        /* \"#utility.yul\":15698:15728   */\n      gt\n        /* \"#utility.yul\":15695:15812   */\n      iszero\n      tag_269\n      jumpi\n        /* \"#utility.yul\":15731:15810   */\n      tag_270\n      tag_59\n      jump\t// in\n    tag_270:\n        /* \"#utility.yul\":15695:15812   */\n    tag_269:\n        /* \"#utility.yul\":15836:15898   */\n      tag_271\n        /* \"#utility.yul\":15890:15897   */\n      dup7\n        /* \"#utility.yul\":15881:15887   */\n      dup3\n        /* \"#utility.yul\":15870:15879   */\n      dup8\n        /* \"#utility.yul\":15866:15888   */\n      add\n        /* \"#utility.yul\":15836:15898   */\n      tag_100\n      jump\t// in\n    tag_271:\n        /* \"#utility.yul\":15826:15898   */\n      swap4\n      pop\n        /* \"#utility.yul\":15622:15908   */\n      pop\n        /* \"#utility.yul\":15947:15949   */\n      0x20\n        /* \"#utility.yul\":15973:16025   */\n      tag_272\n        /* \"#utility.yul\":16017:16024   */\n      dup7\n        /* \"#utility.yul\":16008:16014   */\n      dup3\n        /* \"#utility.yul\":15997:16006   */\n      dup8\n        /* \"#utility.yul\":15993:16015   */\n      add\n        /* \"#utility.yul\":15973:16025   */\n      tag_106\n      jump\t// in\n    tag_272:\n        /* \"#utility.yul\":15963:16025   */\n      swap3\n      pop\n        /* \"#utility.yul\":15918:16035   */\n      pop\n        /* \"#utility.yul\":16102:16104   */\n      0x40\n        /* \"#utility.yul\":16091:16100   */\n      dup5\n        /* \"#utility.yul\":16087:16105   */\n      add\n        /* \"#utility.yul\":16074:16106   */\n      calldataload\n        /* \"#utility.yul\":16133:16151   */\n      0xffffffffffffffff\n        /* \"#utility.yul\":16125:16131   */\n      dup2\n        /* \"#utility.yul\":16122:16152   */\n      gt\n        /* \"#utility.yul\":16119:16236   */\n      iszero\n      tag_273\n      jumpi\n        /* \"#utility.yul\":16155:16234   */\n      tag_274\n      tag_59\n      jump\t// in\n    tag_274:\n        /* \"#utility.yul\":16119:16236   */\n    tag_273:\n        /* \"#utility.yul\":16260:16322   */\n      tag_275\n        /* \"#utility.yul\":16314:16321   */\n      dup7\n        /* \"#utility.yul\":16305:16311   */\n      dup3\n        /* \"#utility.yul\":16294:16303   */\n      dup8\n        /* \"#utility.yul\":16290:16312   */\n      add\n        /* \"#utility.yul\":16260:16322   */\n      tag_100\n      jump\t// in\n    tag_275:\n        /* \"#utility.yul\":16250:16322   */\n      swap2\n      pop\n        /* \"#utility.yul\":16045:16332   */\n      pop\n        /* \"#utility.yul\":15366:16339   */\n      swap3\n      pop\n      swap3\n      pop\n      swap3\n      jump\t// out\n        /* \"#utility.yul\":16345:16567   */\n    tag_55:\n        /* \"#utility.yul\":16438:16442   */\n      0x00\n        /* \"#utility.yul\":16476:16478   */\n      0x20\n        /* \"#utility.yul\":16465:16474   */\n      dup3\n        /* \"#utility.yul\":16461:16479   */\n      add\n        /* \"#utility.yul\":16453:16479   */\n      swap1\n      pop\n        /* \"#utility.yul\":16489:16560   */\n      tag_277\n        /* \"#utility.yul\":16557:16558   */\n      0x00\n        /* \"#utility.yul\":16546:16555   */\n      dup4\n        /* \"#utility.yul\":16542:16559   */\n      add\n        /* \"#utility.yul\":16533:16539   */\n      dup5\n        /* \"#utility.yul\":16489:16560   */\n      tag_82\n      jump\t// in\n    tag_277:\n        /* \"#utility.yul\":16345:16567   */\n      swap3\n      swap2\n      pop\n      pop\n      jump\t// out\n\n    auxdata: 0xa264697066735822122068ae7cb92c7b164bc3afaef73257165049768d2a039c2f1e6f022bcc8129957864736f6c634300081b0033\n}\n",
				"bytecode": {
					"linkReferences": {},
					"object": "6080604052348015600f57600080fd5b50610ccc8061001f6000396000f3fe608060405234801561001057600080fd5b506004361061004c5760003560e01c806301ffc9a7146100515780633b3b57de146100815780639061b923146100b1578063b4a85801146100e1575b600080fd5b61006b60048036038101906100669190610452565b610111565b604051610078919061049a565b60405180910390f35b61009b600480360381019061009691906104eb565b61018b565b6040516100a891906105a8565b60405180910390f35b6100cb60048036038101906100c6919061062f565b6101b2565b6040516100d891906105a8565b60405180910390f35b6100fb60048036038101906100f6919061062f565b6102ac565b60405161010891906105a8565b60405180910390f35b60007f9061b923000000000000000000000000000000000000000000000000000000007bffffffffffffffffffffffffffffffffffffffffffffffffffffffff1916827bffffffffffffffffffffffffffffffffffffffffffffffffffffffff1916148061018457506101838261037c565b5b9050919050565b606060405160200161019c9061070d565b6040516020818303038152906040529050919050565b60606000600167ffffffffffffffff8111156101d1576101d061072d565b5b60405190808252806020026020018201604052801561020457816020015b60608152602001906001900390816101ef5790505b5090506040518060400160405280601481526020017f68747470733a2f2f6578616d706c652e636f6d2f000000000000000000000000815250816000815181106102515761025061075c565b5b60200260200101819052503081858563b4a8580160e01b88886040517f556f18300000000000000000000000000000000000000000000000000000000081526004016102a3979695949392919061092e565b60405180910390fd5b6060600083838101906102bf9190610a8c565b509150507f3b3b57de213591bb50e06975ea011e4c8c4b3e6de4009450c1a9e55f66e4bfa47bffffffffffffffffffffffffffffffffffffffffffffffffffffffff19168161030d90610b49565b7bffffffffffffffffffffffffffffffffffffffffffffffffffffffff19160361035057600086868101906103429190610bf0565b505090508092505050610374565b306040516020016103619190610c7b565b6040516020818303038152906040529150505b949350505050565b60007f01ffc9a7000000000000000000000000000000000000000000000000000000007bffffffffffffffffffffffffffffffffffffffffffffffffffffffff1916827bffffffffffffffffffffffffffffffffffffffffffffffffffffffff1916149050919050565b6000604051905090565b600080fd5b600080fd5b60007fffffffff0000000000000000000000000000000000000000000000000000000082169050919050565b61042f816103fa565b811461043a57600080fd5b50565b60008135905061044c81610426565b92915050565b600060208284031215610468576104676103f0565b5b60006104768482850161043d565b91505092915050565b60008115159050919050565b6104948161047f565b82525050565b60006020820190506104af600083018461048b565b92915050565b6000819050919050565b6104c8816104b5565b81146104d357600080fd5b50565b6000813590506104e5816104bf565b92915050565b600060208284031215610501576105006103f0565b5b600061050f848285016104d6565b91505092915050565b600081519050919050565b600082825260208201905092915050565b60005b83811015610552578082015181840152602081019050610537565b60008484015250505050565b6000601f19601f8301169050919050565b600061057a82610518565b6105848185610523565b9350610594818560208601610534565b61059d8161055e565b840191505092915050565b600060208201905081810360008301526105c2818461056f565b905092915050565b600080fd5b600080fd5b600080fd5b60008083601f8401126105ef576105ee6105ca565b5b8235905067ffffffffffffffff81111561060c5761060b6105cf565b5b602083019150836001820283011115610628576106276105d4565b5b9250929050565b60008060008060408587031215610649576106486103f0565b5b600085013567ffffffffffffffff811115610667576106666103f5565b5b610673878288016105d9565b9450945050602085013567ffffffffffffffff811115610696576106956103f5565b5b6106a2878288016105d9565b925092505092959194509250565b600082825260208201905092915050565b7f6f6e636861696e00000000000000000000000000000000000000000000000000600082015250565b60006106f76007836106b0565b9150610702826106c1565b602082019050919050565b60006020820190508181036000830152610726816106ea565b9050919050565b7f4e487b7100000000000000000000000000000000000000000000000000000000600052604160045260246000fd5b7f4e487b7100000000000000000000000000000000000000000000000000000000600052603260045260246000fd5b600073ffffffffffffffffffffffffffffffffffffffff82169050919050565b60006107b68261078b565b9050919050565b6107c6816107ab565b82525050565b600081519050919050565b600082825260208201905092915050565b6000819050602082019050919050565b600081519050919050565b600082825260208201905092915050565b600061081f826107f8565b6108298185610803565b9350610839818560208601610534565b6108428161055e565b840191505092915050565b60006108598383610814565b905092915050565b6000602082019050919050565b6000610879826107cc565b61088381856107d7565b935083602082028501610895856107e8565b8060005b858110156108d157848403895281516108b2858261084d565b94506108bd83610861565b925060208a01995050600181019050610899565b50829750879550505050505092915050565b82818337600083830152505050565b60006108fe8385610523565b935061090b8385846108e3565b6109148361055e565b840190509392505050565b610928816103fa565b82525050565b600060a082019050610943600083018a6107bd565b8181036020830152610955818961086e565b9050818103604083015261096a8187896108f2565b9050610979606083018661091f565b818103608083015261098c8184866108f2565b905098975050505050505050565b600080fd5b6109a88261055e565b810181811067ffffffffffffffff821117156109c7576109c661072d565b5b80604052505050565b60006109da6103e6565b90506109e6828261099f565b919050565b600067ffffffffffffffff821115610a0657610a0561072d565b5b610a0f8261055e565b9050602081019050919050565b6000610a2f610a2a846109eb565b6109d0565b905082815260208101848484011115610a4b57610a4a61099a565b5b610a568482856108e3565b509392505050565b600082601f830112610a7357610a726105ca565b5b8135610a83848260208601610a1c565b91505092915050565b600080600060608486031215610aa557610aa46103f0565b5b600084013567ffffffffffffffff811115610ac357610ac26103f5565b5b610acf86828701610a5e565b935050602084013567ffffffffffffffff811115610af057610aef6103f5565b5b610afc86828701610a5e565b9250506040610b0d8682870161043d565b9150509250925092565b6000819050602082019050919050565b6000610b3382516103fa565b80915050919050565b600082821b905092915050565b6000610b5482610518565b82610b5e84610b17565b9050610b6981610b27565b92506004821015610ba957610ba47fffffffff0000000000000000000000000000000000000000000000000000000083600403600802610b3c565b831692505b5050919050565b600067ffffffffffffffff82169050919050565b610bcd81610bb0565b8114610bd857600080fd5b50565b600081359050610bea81610bc4565b92915050565b600080600060608486031215610c0957610c086103f0565b5b600084013567ffffffffffffffff811115610c2757610c266103f5565b5b610c3386828701610a5e565b9350506020610c4486828701610bdb565b925050604084013567ffffffffffffffff811115610c6557610c646103f5565b5b610c7186828701610a5e565b9150509250925092565b6000602082019050610c9060008301846107bd565b9291505056fea264697066735822122068ae7cb92c7b164bc3afaef73257165049768d2a039c2f1e6f022bcc8129957864736f6c634300081b0033",
					"opcodes": "PUSH1 0x80 PUSH1 0x40 MSTORE CALLVALUE DUP1 ISZERO PUSH1 0xF JUMPI PUSH1 0x0 DUP1 REVERT JUMPDEST POP PUSH2 0xCCC DUP1 PUSH2 0x1F PUSH1 0x0 CODECOPY PUSH1 0x0 RETURN INVALID PUSH1 0x80 PUSH1 0x40 MSTORE CALLVALUE DUP1 ISZERO PUSH2 0x10 JUMPI PUSH1 0x0 DUP1 REVERT JUMPDEST POP PUSH1 0x4 CALLDATASIZE LT PUSH2 0x4C JUMPI PUSH1 0x0 CALLDATALOAD PUSH1 0xE0 SHR DUP1 PUSH4 0x1FFC9A7 EQ PUSH2 0x51 JUMPI DUP1 PUSH4 0x3B3B57DE EQ PUSH2 0x81 JUMPI DUP1 PUSH4 0x9061B923 EQ PUSH2 0xB1 JUMPI DUP1 PUSH4 0xB4A85801 EQ PUSH2 0xE1 JUMPI JUMPDEST PUSH1 0x0 DUP1 REVERT JUMPDEST PUSH2 0x6B PUSH1 0x4 DUP1 CALLDATASIZE SUB DUP2 ADD SWAP1 PUSH2 0x66 SWAP2 SWAP1 PUSH2 0x452 JUMP JUMPDEST PUSH2 0x111 JUMP JUMPDEST PUSH1 0x40 MLOAD PUSH2 0x78 SWAP2 SWAP1 PUSH2 0x49A JUMP JUMPDEST PUSH1 0x40 MLOAD DUP1 SWAP2 SUB SWAP1 RETURN JUMPDEST PUSH2 0x9B PUSH1 0x4 DUP1 CALLDATASIZE SUB DUP2 ADD SWAP1 PUSH2 0x96 SWAP2 SWAP1 PUSH2 0x4EB JUMP JUMPDEST PUSH2 0x18B JUMP JUMPDEST PUSH1 0x40 MLOAD PUSH2 0xA8 SWAP2 SWAP1 PUSH2 0x5A8 JUMP JUMPDEST PUSH1 0x40 MLOAD DUP1 SWAP2 SUB SWAP1 RETURN JUMPDEST PUSH2 0xCB PUSH1 0x4 DUP1 CALLDATASIZE SUB DUP2 ADD SWAP1 PUSH2 0xC6 SWAP2 SWAP1 PUSH2 0x62F JUMP JUMPDEST PUSH2 0x1B2 JUMP JUMPDEST PUSH1 0x40 MLOAD PUSH2 0xD8 SWAP2 SWAP1 PUSH2 0x5A8 JUMP JUMPDEST PUSH1 0x40 MLOAD DUP1 SWAP2 SUB SWAP1 RETURN JUMPDEST PUSH2 0xFB PUSH1 0x4 DUP1 CALLDATASIZE SUB DUP2 ADD SWAP1 PUSH2 0xF6 SWAP2 SWAP1 PUSH2 0x62F JUMP JUMPDEST PUSH2 0x2AC JUMP JUMPDEST PUSH1 0x40 MLOAD PUSH2 0x108 SWAP2 SWAP1 PUSH2 0x5A8 JUMP JUMPDEST PUSH1 0x40 MLOAD DUP1 SWAP2 SUB SWAP1 RETURN JUMPDEST PUSH1 0x0 PUSH32 0x9061B92300000000000000000000000000000000000000000000000000000000 PUSH28 0xFFFFFFFFFFFFFFFFFFFFFFFFFFFFFFFFFFFFFFFFFFFFFFFFFFFFFFFF NOT AND DUP3 PUSH28 0xFFFFFFFFFFFFFFFFFFFFFFFFFFFFFFFFFFFFFFFFFFFFFFFFFFFFFFFF NOT AND EQ DUP1 PUSH2 0x184 JUMPI POP PUSH2 0x183 DUP3 PUSH2 0x37C JUMP JUMPDEST JUMPDEST SWAP1 POP SWAP2 SWAP1 POP JUMP JUMPDEST PUSH1 0x60 PUSH1 0x40 MLOAD PUSH1 0x20 ADD PUSH2 0x19C SWAP1 PUSH2 0x70D JUMP JUMPDEST PUSH1 0x40 MLOAD PUSH1 0x20 DUP2 DUP4 SUB SUB DUP2 MSTORE SWAP1 PUSH1 0x40 MSTORE SWAP1 POP SWAP2 SWAP1 POP JUMP JUMPDEST PUSH1 0x60 PUSH1 0x0 PUSH1 0x1 PUSH8 0xFFFFFFFFFFFFFFFF DUP2 GT ISZERO PUSH2 0x1D1 JUMPI PUSH2 0x1D0 PUSH2 0x72D JUMP JUMPDEST JUMPDEST PUSH1 0x40 MLOAD SWAP1 DUP1 DUP3 MSTORE DUP1 PUSH1 0x20 MUL PUSH1 0x20 ADD DUP3 ADD PUSH1 0x40 MSTORE DUP1 ISZERO PUSH2 0x204 JUMPI DUP2 PUSH1 0x20 ADD JUMPDEST PUSH1 0x60 DUP2 MSTORE PUSH1 0x20 ADD SWAP1 PUSH1 0x1 SWAP1 SUB SWAP1 DUP2 PUSH2 0x1EF JUMPI SWAP1 POP JUMPDEST POP SWAP1 POP PUSH1 0x40 MLOAD DUP1 PUSH1 0x40 ADD PUSH1 0x40 MSTORE DUP1 PUSH1 0x14 DUP2 MSTORE PUSH1 0x20 ADD PUSH32 0x68747470733A2F2F6578616D706C652E636F6D2F000000000000000000000000 DUP2 MSTORE POP DUP2 PUSH1 0x0 DUP2 MLOAD DUP2 LT PUSH2 0x251 JUMPI PUSH2 0x250 PUSH2 0x75C JUMP JUMPDEST JUMPDEST PUSH1 0x20 MUL PUSH1 0x20 ADD ADD DUP2 SWAP1 MSTORE POP ADDRESS DUP2 DUP6 DUP6 PUSH4 0xB4A85801 PUSH1 0xE0 SHL DUP9 DUP9 PUSH1 0x40 MLOAD PUSH32 0x556F183000000000000000000000000000000000000000000000000000000000 DUP2 MSTORE PUSH1 0x4 ADD PUSH2 0x2A3 SWAP8 SWAP7 SWAP6 SWAP5 SWAP4 SWAP3 SWAP2 SWAP1 PUSH2 0x92E JUMP JUMPDEST PUSH1 0x40 MLOAD DUP1 SWAP2 SUB SWAP1 REVERT JUMPDEST PUSH1 0x60 PUSH1 0x0 DUP4 DUP4 DUP2 ADD SWAP1 PUSH2 0x2BF SWAP2 SWAP1 PUSH2 0xA8C JUMP JUMPDEST POP SWAP2 POP POP PUSH32 0x3B3B57DE213591BB50E06975EA011E4C8C4B3E6DE4009450C1A9E55F66E4BFA4 PUSH28 0xFFFFFFFFFFFFFFFFFFFFFFFFFFFFFFFFFFFFFFFFFFFFFFFFFFFFFFFF NOT AND DUP2 PUSH2 0x30D SWAP1 PUSH2 0xB49 JUMP JUMPDEST PUSH28 0xFFFFFFFFFFFFFFFFFFFFFFFFFFFFFFFFFFFFFFFFFFFFFFFFFFFFFFFF NOT AND SUB PUSH2 0x350 JUMPI PUSH1 0x0 DUP7 DUP7 DUP2 ADD SWAP1 PUSH2 0x342 SWAP2 SWAP1 PUSH2 0xBF0 JUMP JUMPDEST POP POP SWAP1 POP DUP1 SWAP3 POP POP POP PUSH2 0x374 JUMP JUMPDEST ADDRESS PUSH1 0x40 MLOAD PUSH1 0x20 ADD PUSH2 0x361 SWAP2 SWAP1 PUSH2 0xC7B JUMP JUMPDEST PUSH1 0x40 MLOAD PUSH1 0x20 DUP2 DUP4 SUB SUB DUP2 MSTORE SWAP1 PUSH1 0x40 MSTORE SWAP2 POP POP JUMPDEST SWAP5 SWAP4 POP POP POP POP JUMP JUMPDEST PUSH1 0x0 PUSH32 0x1FFC9A700000000000000000000000000000000000000000000000000000000 PUSH28 0xFFFFFFFFFFFFFFFFFFFFFFFFFFFFFFFFFFFFFFFFFFFFFFFFFFFFFFFF NOT AND DUP3 PUSH28 0xFFFFFFFFFFFFFFFFFFFFFFFFFFFFFFFFFFFFFFFFFFFFFFFFFFFFFFFF NOT AND EQ SWAP1 POP SWAP2 SWAP1 POP JUMP JUMPDEST PUSH1 0x0 PUSH1 0x40 MLOAD SWAP1 POP SWAP1 JUMP JUMPDEST PUSH1 0x0 DUP1 REVERT JUMPDEST PUSH1 0x0 DUP1 REVERT JUMPDEST PUSH1 0x0 PUSH32 0xFFFFFFFF00000000000000000000000000000000000000000000000000000000 DUP3 AND SWAP1 POP SWAP2 SWAP1 POP JUMP JUMPDEST PUSH2 0x42F DUP2 PUSH2 0x3FA JUMP JUMPDEST DUP2 EQ PUSH2 0x43A JUMPI PUSH1 0x0 DUP1 REVERT JUMPDEST POP JUMP JUMPDEST PUSH1 0x0 DUP2 CALLDATALOAD SWAP1 POP PUSH2 0x44C DUP2 PUSH2 0x426 JUMP JUMPDEST SWAP3 SWAP2 POP POP JUMP JUMPDEST PUSH1 0x0 PUSH1 0x20 DUP3 DUP5 SUB SLT ISZERO PUSH2 0x468 JUMPI PUSH2 0x467 PUSH2 0x3F0 JUMP JUMPDEST JUMPDEST PUSH1 0x0 PUSH2 0x476 DUP5 DUP3 DUP6 ADD PUSH2 0x43D JUMP JUMPDEST SWAP2 POP POP SWAP3 SWAP2 POP POP JUMP JUMPDEST PUSH1 0x0 DUP2 ISZERO ISZERO SWAP1 POP SWAP2 SWAP1 POP JUMP JUMPDEST PUSH2 0x494 DUP2 PUSH2 0x47F JUMP JUMPDEST DUP3 MSTORE POP POP JUMP JUMPDEST PUSH1 0x0 PUSH1 0x20 DUP3 ADD SWAP1 POP PUSH2 0x4AF PUSH1 0x0 DUP4 ADD DUP5 PUSH2 0x48B JUMP JUMPDEST SWAP3 SWAP2 POP POP JUMP JUMPDEST PUSH1 0x0 DUP2 SWAP1 POP SWAP2 SWAP1 POP JUMP JUMPDEST PUSH2 0x4C8 DUP2 PUSH2 0x4B5 JUMP JUMPDEST DUP2 EQ PUSH2 0x4D3 JUMPI PUSH1 0x0 DUP1 REVERT JUMPDEST POP JUMP JUMPDEST PUSH1 0x0 DUP2 CALLDATALOAD SWAP1 POP PUSH2 0x4E5 DUP2 PUSH2 0x4BF JUMP JUMPDEST SWAP3 SWAP2 POP POP JUMP JUMPDEST PUSH1 0x0 PUSH1 0x20 DUP3 DUP5 SUB SLT ISZERO PUSH2 0x501 JUMPI PUSH2 0x500 PUSH2 0x3F0 JUMP JUMPDEST JUMPDEST PUSH1 0x0 PUSH2 0x50F DUP5 DUP3 DUP6 ADD PUSH2 0x4D6 JUMP JUMPDEST SWAP2 POP POP SWAP3 SWAP2 POP POP JUMP JUMPDEST PUSH1 0x0 DUP2 MLOAD SWAP1 POP SWAP2 SWAP1 POP JUMP JUMPDEST PUSH1 0x0 DUP3 DUP3 MSTORE PUSH1 0x20 DUP3 ADD SWAP1 POP SWAP3 SWAP2 POP POP JUMP JUMPDEST PUSH1 0x0 JUMPDEST DUP4 DUP2 LT ISZERO PUSH2 0x552 JUMPI DUP1 DUP3 ADD MLOAD DUP2 DUP5 ADD MSTORE PUSH1 0x20 DUP2 ADD SWAP1 POP PUSH2 0x537 JUMP JUMPDEST PUSH1 0x0 DUP5 DUP5 ADD MSTORE POP POP POP POP JUMP JUMPDEST PUSH1 0x0 PUSH1 0x1F NOT PUSH1 0x1F DUP4 ADD AND SWAP1 POP SWAP2 SWAP1 POP JUMP JUMPDEST PUSH1 0x0 PUSH2 0x57A DUP3 PUSH2 0x518 JUMP JUMPDEST PUSH2 0x584 DUP2 DUP6 PUSH2 0x523 JUMP JUMPDEST SWAP4 POP PUSH2 0x594 DUP2 DUP6 PUSH1 0x20 DUP7 ADD PUSH2 0x534 JUMP JUMPDEST PUSH2 0x59D DUP2 PUSH2 0x55E JUMP JUMPDEST DUP5 ADD SWAP2 POP POP SWAP3 SWAP2 POP POP JUMP JUMPDEST PUSH1 0x0 PUSH1 0x20 DUP3 ADD SWAP1 POP DUP2 DUP2 SUB PUSH1 0x0 DUP4 ADD MSTORE PUSH2 0x5C2 DUP2 DUP5 PUSH2 0x56F JUMP JUMPDEST SWAP1 POP SWAP3 SWAP2 POP POP JUMP JUMPDEST PUSH1 0x0 DUP1 REVERT JUMPDEST PUSH1 0x0 DUP1 REVERT JUMPDEST PUSH1 0x0 DUP1 REVERT JUMPDEST PUSH1 0x0 DUP1 DUP4 PUSH1 0x1F DUP5 ADD SLT PUSH2 0x5EF JUMPI PUSH2 0x5EE PUSH2 0x5CA JUMP JUMPDEST JUMPDEST DUP3 CALLDATALOAD SWAP1 POP PUSH8 0xFFFFFFFFFFFFFFFF DUP2 GT ISZERO PUSH2 0x60C JUMPI PUSH2 0x60B PUSH2 0x5CF JUMP JUMPDEST JUMPDEST PUSH1 0x20 DUP4 ADD SWAP2 POP DUP4 PUSH1 0x1 DUP3 MUL DUP4 ADD GT ISZERO PUSH2 0x628 JUMPI PUSH2 0x627 PUSH2 0x5D4 JUMP JUMPDEST JUMPDEST SWAP3 POP SWAP3 SWAP1 POP JUMP JUMPDEST PUSH1 0x0 DUP1 PUSH1 0x0 DUP1 PUSH1 0x40 DUP6 DUP8 SUB SLT ISZERO PUSH2 0x649 JUMPI PUSH2 0x648 PUSH2 0x3F0 JUMP JUMPDEST JUMPDEST PUSH1 0x0 DUP6 ADD CALLDATALOAD PUSH8 0xFFFFFFFFFFFFFFFF DUP2 GT ISZERO PUSH2 0x667 JUMPI PUSH2 0x666 PUSH2 0x3F5 JUMP JUMPDEST JUMPDEST PUSH2 0x673 DUP8 DUP3 DUP9 ADD PUSH2 0x5D9 JUMP JUMPDEST SWAP5 POP SWAP5 POP POP PUSH1 0x20 DUP6 ADD CALLDATALOAD PUSH8 0xFFFFFFFFFFFFFFFF DUP2 GT ISZERO PUSH2 0x696 JUMPI PUSH2 0x695 PUSH2 0x3F5 JUMP JUMPDEST JUMPDEST PUSH2 0x6A2 DUP8 DUP3 DUP9 ADD PUSH2 0x5D9 JUMP JUMPDEST SWAP3 POP SWAP3 POP POP SWAP3 SWAP6 SWAP2 SWAP5 POP SWAP3 POP JUMP JUMPDEST PUSH1 0x0 DUP3 DUP3 MSTORE PUSH1 0x20 DUP3 ADD SWAP1 POP SWAP3 SWAP2 POP POP JUMP JUMPDEST PUSH32 0x6F6E636861696E00000000000000000000000000000000000000000000000000 PUSH1 0x0 DUP3 ADD MSTORE POP JUMP JUMPDEST PUSH1 0x0 PUSH2 0x6F7 PUSH1 0x7 DUP4 PUSH2 0x6B0 JUMP JUMPDEST SWAP2 POP PUSH2 0x702 DUP3 PUSH2 0x6C1 JUMP JUMPDEST PUSH1 0x20 DUP3 ADD SWAP1 POP SWAP2 SWAP1 POP JUMP JUMPDEST PUSH1 0x0 PUSH1 0x20 DUP3 ADD SWAP1 POP DUP2 DUP2 SUB PUSH1 0x0 DUP4 ADD MSTORE PUSH2 0x726 DUP2 PUSH2 0x6EA JUMP JUMPDEST SWAP1 POP SWAP2 SWAP1 POP JUMP JUMPDEST PUSH32 0x4E487B7100000000000000000000000000000000000000000000000000000000 PUSH1 0x0 MSTORE PUSH1 0x41 PUSH1 0x4 MSTORE PUSH1 0x24 PUSH1 0x0 REVERT JUMPDEST PUSH32 0x4E487B7100000000000000000000000000000000000000000000000000000000 PUSH1 0x0 MSTORE PUSH1 0x32 PUSH1 0x4 MSTORE PUSH1 0x24 PUSH1 0x0 REVERT JUMPDEST PUSH1 0x0 PUSH20 0xFFFFFFFFFFFFFFFFFFFFFFFFFFFFFFFFFFFFFFFF DUP3 AND SWAP1 POP SWAP2 SWAP1 POP JUMP JUMPDEST PUSH1 0x0 PUSH2 0x7B6 DUP3 PUSH2 0x78B JUMP JUMPDEST SWAP1 POP SWAP2 SWAP1 POP JUMP JUMPDEST PUSH2 0x7C6 DUP2 PUSH2 0x7AB JUMP JUMPDEST DUP3 MSTORE POP POP JUMP JUMPDEST PUSH1 0x0 DUP2 MLOAD SWAP1 POP SWAP2 SWAP1 POP JUMP JUMPDEST PUSH1 0x0 DUP3 DUP3 MSTORE PUSH1 0x20 DUP3 ADD SWAP1 POP SWAP3 SWAP2 POP POP JUMP JUMPDEST PUSH1 0x0 DUP2 SWAP1 POP PUSH1 0x20 DUP3 ADD SWAP1 POP SWAP2 SWAP1 POP JUMP JUMPDEST PUSH1 0x0 DUP2 MLOAD SWAP1 POP SWAP2 SWAP1 POP JUMP JUMPDEST PUSH1 0x0 DUP3 DUP3 MSTORE PUSH1 0x20 DUP3 ADD SWAP1 POP SWAP3 SWAP2 POP POP JUMP JUMPDEST PUSH1 0x0 PUSH2 0x81F DUP3 PUSH2 0x7F8 JUMP JUMPDEST PUSH2 0x829 DUP2 DUP6 PUSH2 0x803 JUMP JUMPDEST SWAP4 POP PUSH2 0x839 DUP2 DUP6 PUSH1 0x20 DUP7 ADD PUSH2 0x534 JUMP JUMPDEST PUSH2 0x842 DUP2 PUSH2 0x55E JUMP JUMPDEST DUP5 ADD SWAP2 POP POP SWAP3 SWAP2 POP POP JUMP JUMPDEST PUSH1 0x0 PUSH2 0x859 DUP4 DUP4 PUSH2 0x814 JUMP JUMPDEST SWAP1 POP SWAP3 SWAP2 POP POP JUMP JUMPDEST PUSH1 0x0 PUSH1 0x20 DUP3 ADD SWAP1 POP SWAP2 SWAP1 POP JUMP JUMPDEST PUSH1 0x0 PUSH2 0x879 DUP3 PUSH2 0x7CC JUMP JUMPDEST PUSH2 0x883 DUP2 DUP6 PUSH2 0x7D7 JUMP JUMPDEST SWAP4 POP DUP4 PUSH1 0x20 DUP3 MUL DUP6 ADD PUSH2 0x895 DUP6 PUSH2 0x7E8 JUMP JUMPDEST DUP1 PUSH1 0x0 JUMPDEST DUP6 DUP2 LT ISZERO PUSH2 0x8D1 JUMPI DUP5 DUP5 SUB DUP10 MSTORE DUP2 MLOAD PUSH2 0x8B2 DUP6 DUP3 PUSH2 0x84D JUMP JUMPDEST SWAP5 POP PUSH2 0x8BD DUP4 PUSH2 0x861 JUMP JUMPDEST SWAP3 POP PUSH1 0x20 DUP11 ADD SWAP10 POP POP PUSH1 0x1 DUP2 ADD SWAP1 POP PUSH2 0x899 JUMP JUMPDEST POP DUP3 SWAP8 POP DUP8 SWAP6 POP POP POP POP POP POP SWAP3 SWAP2 POP POP JUMP JUMPDEST DUP3 DUP2 DUP4 CALLDATACOPY PUSH1 0x0 DUP4 DUP4 ADD MSTORE POP POP POP JUMP JUMPDEST PUSH1 0x0 PUSH2 0x8FE DUP4 DUP6 PUSH2 0x523 JUMP JUMPDEST SWAP4 POP PUSH2 0x90B DUP4 DUP6 DUP5 PUSH2 0x8E3 JUMP JUMPDEST PUSH2 0x914 DUP4 PUSH2 0x55E JUMP JUMPDEST DUP5 ADD SWAP1 POP SWAP4 SWAP3 POP POP POP JUMP JUMPDEST PUSH2 0x928 DUP2 PUSH2 0x3FA JUMP JUMPDEST DUP3 MSTORE POP POP JUMP JUMPDEST PUSH1 0x0 PUSH1 0xA0 DUP3 ADD SWAP1 POP PUSH2 0x943 PUSH1 0x0 DUP4 ADD DUP11 PUSH2 0x7BD JUMP JUMPDEST DUP2 DUP2 SUB PUSH1 0x20 DUP4 ADD MSTORE PUSH2 0x955 DUP2 DUP10 PUSH2 0x86E JUMP JUMPDEST SWAP1 POP DUP2 DUP2 SUB PUSH1 0x40 DUP4 ADD MSTORE PUSH2 0x96A DUP2 DUP8 DUP10 PUSH2 0x8F2 JUMP JUMPDEST SWAP1 POP PUSH2 0x979 PUSH1 0x60 DUP4 ADD DUP7 PUSH2 0x91F JUMP JUMPDEST DUP2 DUP2 SUB PUSH1 0x80 DUP4 ADD MSTORE PUSH2 0x98C DUP2 DUP5 DUP7 PUSH2 0x8F2 JUMP JUMPDEST SWAP1 POP SWAP9 SWAP8 POP POP POP POP POP POP POP POP JUMP JUMPDEST PUSH1 0x0 DUP1 REVERT JUMPDEST PUSH2 0x9A8 DUP3 PUSH2 0x55E JUMP JUMPDEST DUP2 ADD DUP2 DUP2 LT PUSH8 0xFFFFFFFFFFFFFFFF DUP3 GT OR ISZERO PUSH2 0x9C7 JUMPI PUSH2 0x9C6 PUSH2 0x72D JUMP JUMPDEST JUMPDEST DUP1 PUSH1 0x40 MSTORE POP POP POP JUMP JUMPDEST PUSH1 0x0 PUSH2 0x9DA PUSH2 0x3E6 JUMP JUMPDEST SWAP1 POP PUSH2 0x9E6 DUP3 DUP3 PUSH2 0x99F JUMP JUMPDEST SWAP2 SWAP1 POP JUMP JUMPDEST PUSH1 0x0 PUSH8 0xFFFFFFFFFFFFFFFF DUP3 GT ISZERO PUSH2 0xA06 JUMPI PUSH2 0xA05 PUSH2 0x72D JUMP JUMPDEST JUMPDEST PUSH2 0xA0F DUP3 PUSH2 0x55E JUMP JUMPDEST SWAP1 POP PUSH1 0x20 DUP2 ADD SWAP1 POP SWAP2 SWAP1 POP JUMP JUMPDEST PUSH1 0x0 PUSH2 0xA2F PUSH2 0xA2A DUP5 PUSH2 0x9EB JUMP JUMPDEST PUSH2 0x9D0 JUMP JUMPDEST SWAP1 POP DUP3 DUP2 MSTORE PUSH1 0x20 DUP2 ADD DUP5 DUP5 DUP5 ADD GT ISZERO PUSH2 0xA4B JUMPI PUSH2 0xA4A PUSH2 0x99A JUMP JUMPDEST JUMPDEST PUSH2 0xA56 DUP5 DUP3 DUP6 PUSH2 0x8E3 JUMP JUMPDEST POP SWAP4 SWAP3 POP POP POP JUMP JUMPDEST PUSH1 0x0 DUP3 PUSH1 0x1F DUP4 ADD SLT PUSH2 0xA73 JUMPI PUSH2 0xA72 PUSH2 0x5CA JUMP JUMPDEST JUMPDEST DUP2 CALLDATALOAD PUSH2 0xA83 DUP5 DUP3 PUSH1 0x20 DUP7 ADD PUSH2 0xA1C JUMP JUMPDEST SWAP2 POP POP SWAP3 SWAP2 POP POP JUMP JUMPDEST PUSH1 0x0 DUP1 PUSH1 0x0 PUSH1 0x60 DUP5 DUP7 SUB SLT ISZERO PUSH2 0xAA5 JUMPI PUSH2 0xAA4 PUSH2 0x3F0 JUMP JUMPDEST JUMPDEST PUSH1 0x0 DUP5 ADD CALLDATALOAD PUSH8 0xFFFFFFFFFFFFFFFF DUP2 GT ISZERO PUSH2 0xAC3 JUMPI PUSH2 0xAC2 PUSH2 0x3F5 JUMP JUMPDEST JUMPDEST PUSH2 0xACF DUP7 DUP3 DUP8 ADD PUSH2 0xA5E JUMP JUMPDEST SWAP4 POP POP PUSH1 0x20 DUP5 ADD CALLDATALOAD PUSH8 0xFFFFFFFFFFFFFFFF DUP2 GT ISZERO PUSH2 0xAF0 JUMPI PUSH2 0xAEF PUSH2 0x3F5 JUMP JUMPDEST JUMPDEST PUSH2 0xAFC DUP7 DUP3 DUP8 ADD PUSH2 0xA5E JUMP JUMPDEST SWAP3 POP POP PUSH1 0x40 PUSH2 0xB0D DUP7 DUP3 DUP8 ADD PUSH2 0x43D JUMP JUMPDEST SWAP2 POP POP SWAP3 POP SWAP3 POP SWAP3 JUMP JUMPDEST PUSH1 0x0 DUP2 SWAP1 POP PUSH1 0x20 DUP3 ADD SWAP1 POP SWAP2 SWAP1 POP JUMP JUMPDEST PUSH1 0x0 PUSH2 0xB33 DUP3 MLOAD PUSH2 0x3FA JUMP JUMPDEST DUP1 SWAP2 POP POP SWAP2 SWAP1 POP JUMP JUMPDEST PUSH1 0x0 DUP3 DUP3 SHL SWAP1 POP SWAP3 SWAP2 POP POP JUMP JUMPDEST PUSH1 0x0 PUSH2 0xB54 DUP3 PUSH2 0x518 JUMP JUMPDEST DUP3 PUSH2 0xB5E DUP5 PUSH2 0xB17 JUMP JUMPDEST SWAP1 POP PUSH2 0xB69 DUP2 PUSH2 0xB27 JUMP JUMPDEST SWAP3 POP PUSH1 0x4 DUP3 LT ISZERO PUSH2 0xBA9 JUMPI PUSH2 0xBA4 PUSH32 0xFFFFFFFF00000000000000000000000000000000000000000000000000000000 DUP4 PUSH1 0x4 SUB PUSH1 0x8 MUL PUSH2 0xB3C JUMP JUMPDEST DUP4 AND SWAP3 POP JUMPDEST POP POP SWAP2 SWAP1 POP JUMP JUMPDEST PUSH1 0x0 PUSH8 0xFFFFFFFFFFFFFFFF DUP3 AND SWAP1 POP SWAP2 SWAP1 POP JUMP JUMPDEST PUSH2 0xBCD DUP2 PUSH2 0xBB0 JUMP JUMPDEST DUP2 EQ PUSH2 0xBD8 JUMPI PUSH1 0x0 DUP1 REVERT JUMPDEST POP JUMP JUMPDEST PUSH1 0x0 DUP2 CALLDATALOAD SWAP1 POP PUSH2 0xBEA DUP2 PUSH2 0xBC4 JUMP JUMPDEST SWAP3 SWAP2 POP POP JUMP JUMPDEST PUSH1 0x0 DUP1 PUSH1 0x0 PUSH1 0x60 DUP5 DUP7 SUB SLT ISZERO PUSH2 0xC09 JUMPI PUSH2 0xC08 PUSH2 0x3F0 JUMP JUMPDEST JUMPDEST PUSH1 0x0 DUP5 ADD CALLDATALOAD PUSH8 0xFFFFFFFFFFFFFFFF DUP2 GT ISZERO PUSH2 0xC27 JUMPI PUSH2 0xC26 PUSH2 0x3F5 JUMP JUMPDEST JUMPDEST PUSH2 0xC33 DUP7 DUP3 DUP8 ADD PUSH2 0xA5E JUMP JUMPDEST SWAP4 POP POP PUSH1 0x20 PUSH2 0xC44 DUP7 DUP3 DUP8 ADD PUSH2 0xBDB JUMP JUMPDEST SWAP3 POP POP PUSH1 0x40 DUP5 ADD CALLDATALOAD PUSH8 0xFFFFFFFFFFFFFFFF DUP2 GT ISZERO PUSH2 0xC65 JUMPI PUSH2 0xC64 PUSH2 0x3F5 JUMP JUMPDEST JUMPDEST PUSH2 0xC71 DUP7 DUP3 DUP8 ADD PUSH2 0xA5E JUMP JUMPDEST SWAP2 POP POP SWAP3 POP SWAP3 POP SWAP3 JUMP JUMPDEST PUSH1 0x0 PUSH1 0x20 DUP3 ADD SWAP1 POP PUSH2 0xC90 PUSH1 0x0 DUP4 ADD DUP5 PUSH2 0x7BD JUMP JUMPDEST SWAP3 SWAP2 POP POP JUMP INVALID LOG2 PUSH5 0x6970667358 0x22 SLT KECCAK256 PUSH9 0xAE7CB92C7B164BC3AF 0xAE 0xF7 ORIGIN JUMPI AND POP BLOBHASH PUSH23 0x8D2A039C2F1E6F022BCC8129957864736F6C634300081B STOP CALLER "
				},
				"gasEstimates": {
					"creation": {
						"codeDepositCost": "655200",
						"executionCost": "689",
						"totalCost": "655889"
					},
					"external": {
						"addr(bytes32)": "infinite",
						"resolve(bytes,bytes)": "infinite",
						"resolveCallback(bytes,bytes)": "infinite",
						"supportsInterface(bytes4)": "705"
					}
				},
				"methodIdentifiers": {
					"addr(bytes32)": "3b3b57de",
					"resolve(bytes,bytes)": "9061b923",
					"resolveCallback(bytes,bytes)": "b4a85801",
					"supportsInterface(bytes4)": "01ffc9a7"
				}
			},
			"storageLayout": {
				"storage": [],
				"types": null
			},
			"userdoc": {
				"kind": "user",
				"methods": {},
				"version": 1
			}
		}
	}
}