{
	"package/contracts/test/mocks/StringUtilsTest.sol": {
		"StringUtilsTest": {
			"abi": [
				{
					"inputs": [
						{
							"internalType": "string",
							"name": "testStr",
							"type": "string"
						}
					],
					"name": "testEscape",
					"outputs": [
						{
							"internalType": "string",
							"name": "",
							"type": "string"
						}
					],
					"stateMutability": "pure",
					"type": "function"
				}
			],
			"devdoc": {
				"kind": "dev",
				"methods": {},
				"version": 1
			},
			"evm": {
				"assembly": "    /* \"package/contracts/test/mocks/StringUtilsTest.sol\":84:240  library StringUtilsTest {... */\n  dataSize(sub_0)\n  dataOffset(sub_0)\n  0x0b\n  dup3\n  dup3\n  dup3\n  codecopy\n  dup1\n  mload\n  0x00\n  byte\n  0x73\n  eq\n  tag_1\n  jumpi\n  mstore(0x00, 0x4e487b7100000000000000000000000000000000000000000000000000000000)\n  mstore(0x04, 0x00)\n  revert(0x00, 0x24)\ntag_1:\n  mstore(0x00, address)\n  0x73\n  dup2\n  mstore8\n  dup3\n  dup2\n  return\nstop\n\nsub_0: assembly {\n        /* \"package/contracts/test/mocks/StringUtilsTest.sol\":84:240  library StringUtilsTest {... */\n      eq(address, deployTimeAddress())\n      mstore(0x40, 0x80)\n      jumpi(tag_1, lt(calldatasize, 0x04))\n      shr(0xe0, calldataload(0x00))\n      dup1\n      0xb869ab8e\n      eq\n      tag_2\n      jumpi\n    tag_1:\n      0x00\n      dup1\n      revert\n        /* \"package/contracts/test/mocks/StringUtilsTest.sol\":112:238  function testEscape(string calldata testStr) public pure returns (string memory) {... */\n    tag_2:\n      tag_3\n      0x04\n      dup1\n      calldatasize\n      sub\n      dup2\n      add\n      swap1\n      tag_4\n      swap2\n      swap1\n      tag_5\n      jump\t// in\n    tag_4:\n      tag_6\n      jump\t// in\n    tag_3:\n      mload(0x40)\n      tag_7\n      swap2\n      swap1\n      tag_8\n      jump\t// in\n    tag_7:\n      mload(0x40)\n      dup1\n      swap2\n      sub\n      swap1\n      return\n    tag_6:\n        /* \"package/contracts/test/mocks/StringUtilsTest.sol\":178:191  string memory */\n      0x60\n        /* \"package/contracts/test/mocks/StringUtilsTest.sol\":206:233  StringUtils.escape(testStr) */\n      tag_10\n        /* \"package/contracts/test/mocks/StringUtilsTest.sol\":225:232  testStr */\n      dup4\n      dup4\n        /* \"package/contracts/test/mocks/StringUtilsTest.sol\":206:233  StringUtils.escape(testStr) */\n      dup1\n      dup1\n      0x1f\n      add\n      0x20\n      dup1\n      swap2\n      div\n      mul\n      0x20\n      add\n      mload(0x40)\n      swap1\n      dup2\n      add\n      0x40\n      mstore\n      dup1\n      swap4\n      swap3\n      swap2\n      swap1\n      dup2\n      dup2\n      mstore\n      0x20\n      add\n      dup4\n      dup4\n      dup1\n      dup3\n      dup5\n      calldatacopy\n      0x00\n      dup2\n      dup5\n      add\n      mstore\n      not(0x1f)\n      0x1f\n      dup3\n      add\n      and\n      swap1\n      pop\n      dup1\n      dup4\n      add\n      swap3\n      pop\n      pop\n      pop\n      pop\n      pop\n      pop\n      pop\n        /* \"package/contracts/test/mocks/StringUtilsTest.sol\":206:224  StringUtils.escape */\n      tag_11\n        /* \"package/contracts/test/mocks/StringUtilsTest.sol\":206:233  StringUtils.escape(testStr) */\n      jump\t// in\n    tag_10:\n        /* \"package/contracts/test/mocks/StringUtilsTest.sol\":199:233  return StringUtils.escape(testStr) */\n      swap1\n      pop\n        /* \"package/contracts/test/mocks/StringUtilsTest.sol\":112:238  function testEscape(string calldata testStr) public pure returns (string memory) {... */\n      swap3\n      swap2\n      pop\n      pop\n      jump\t// out\n        /* \"package/contracts/utils/StringUtils.sol\":885:1638  function escape(string memory str) internal pure returns (string memory) {... */\n    tag_11:\n        /* \"package/contracts/utils/StringUtils.sol\":943:956  string memory */\n      0x60\n        /* \"package/contracts/utils/StringUtils.sol\":964:985  bytes memory strBytes */\n      0x00\n        /* \"package/contracts/utils/StringUtils.sol\":994:997  str */\n      dup3\n        /* \"package/contracts/utils/StringUtils.sol\":964:998  bytes memory strBytes = bytes(str) */\n      swap1\n      pop\n        /* \"package/contracts/utils/StringUtils.sol\":1004:1019  uint extraChars */\n      0x00\n        /* \"package/contracts/utils/StringUtils.sol\":1080:1086  uint i */\n      dup1\n        /* \"package/contracts/utils/StringUtils.sol\":1075:1196  for (uint i = 0; i < strBytes.length; i++) {... */\n    tag_13:\n        /* \"package/contracts/utils/StringUtils.sol\":1096:1104  strBytes */\n      dup3\n        /* \"package/contracts/utils/StringUtils.sol\":1096:1111  strBytes.length */\n      mload\n        /* \"package/contracts/utils/StringUtils.sol\":1092:1093  i */\n      dup2\n        /* \"package/contracts/utils/StringUtils.sol\":1092:1111  i < strBytes.length */\n      lt\n        /* \"package/contracts/utils/StringUtils.sol\":1075:1196  for (uint i = 0; i < strBytes.length; i++) {... */\n      iszero\n      tag_14\n      jumpi\n        /* \"package/contracts/utils/StringUtils.sol\":1130:1157  _needsEscaping(strBytes[i]) */\n      tag_16\n        /* \"package/contracts/utils/StringUtils.sol\":1145:1153  strBytes */\n      dup4\n        /* \"package/contracts/utils/StringUtils.sol\":1154:1155  i */\n      dup3\n        /* \"package/contracts/utils/StringUtils.sol\":1145:1156  strBytes[i] */\n      dup2\n      mload\n      dup2\n      lt\n      tag_17\n      jumpi\n      tag_18\n      tag_19\n      jump\t// in\n    tag_18:\n    tag_17:\n      0x20\n      add\n      add\n      mload\n      0xf8\n      shr\n      0xf8\n      shl\n        /* \"package/contracts/utils/StringUtils.sol\":1130:1144  _needsEscaping */\n      tag_20\n        /* \"package/contracts/utils/StringUtils.sol\":1130:1157  _needsEscaping(strBytes[i]) */\n      jump\t// in\n    tag_16:\n        /* \"package/contracts/utils/StringUtils.sol\":1126:1190  if (_needsEscaping(strBytes[i])) {... */\n      iszero\n      tag_21\n      jumpi\n        /* \"package/contracts/utils/StringUtils.sol\":1169:1181  extraChars++ */\n      dup2\n      dup1\n      tag_22\n      swap1\n      tag_23\n      jump\t// in\n    tag_22:\n      swap3\n      pop\n      pop\n        /* \"package/contracts/utils/StringUtils.sol\":1126:1190  if (_needsEscaping(strBytes[i])) {... */\n    tag_21:\n        /* \"package/contracts/utils/StringUtils.sol\":1113:1116  i++ */\n      dup1\n      dup1\n      0x01\n      add\n      swap2\n      pop\n      pop\n        /* \"package/contracts/utils/StringUtils.sol\":1075:1196  for (uint i = 0; i < strBytes.length; i++) {... */\n      jump(tag_13)\n    tag_14:\n      pop\n        /* \"package/contracts/utils/StringUtils.sol\":1252:1271  bytes memory buffer */\n      0x00\n        /* \"package/contracts/utils/StringUtils.sol\":1302:1312  extraChars */\n      dup2\n        /* \"package/contracts/utils/StringUtils.sol\":1284:1292  strBytes */\n      dup4\n        /* \"package/contracts/utils/StringUtils.sol\":1284:1299  strBytes.length */\n      mload\n        /* \"package/contracts/utils/StringUtils.sol\":1284:1312  strBytes.length + extraChars */\n      tag_24\n      swap2\n      swap1\n      tag_25\n      jump\t// in\n    tag_24:\n        /* \"package/contracts/utils/StringUtils.sol\":1274:1313  new bytes(strBytes.length + extraChars) */\n      0xffffffffffffffff\n      dup2\n      gt\n      iszero\n      tag_26\n      jumpi\n      tag_27\n      tag_28\n      jump\t// in\n    tag_27:\n    tag_26:\n      mload(0x40)\n      swap1\n      dup1\n      dup3\n      mstore\n      dup1\n      0x1f\n      add\n      not(0x1f)\n      and\n      0x20\n      add\n      dup3\n      add\n      0x40\n      mstore\n      dup1\n      iszero\n      tag_29\n      jumpi\n      dup2\n      0x20\n      add\n      0x01\n      dup3\n      mul\n      dup1\n      calldatasize\n      dup4\n      calldatacopy\n      dup1\n      dup3\n      add\n      swap2\n      pop\n      pop\n      swap1\n      pop\n    tag_29:\n      pop\n        /* \"package/contracts/utils/StringUtils.sol\":1252:1313  bytes memory buffer = new bytes(strBytes.length + extraChars) */\n      swap1\n      pop\n        /* \"package/contracts/utils/StringUtils.sol\":1319:1329  uint index */\n      0x00\n        /* \"package/contracts/utils/StringUtils.sol\":1370:1376  uint i */\n      dup1\n        /* \"package/contracts/utils/StringUtils.sol\":1365:1606  for (uint i = 0; i < strBytes.length; i++) {... */\n    tag_30:\n        /* \"package/contracts/utils/StringUtils.sol\":1386:1394  strBytes */\n      dup5\n        /* \"package/contracts/utils/StringUtils.sol\":1386:1401  strBytes.length */\n      mload\n        /* \"package/contracts/utils/StringUtils.sol\":1382:1383  i */\n      dup2\n        /* \"package/contracts/utils/StringUtils.sol\":1382:1401  i < strBytes.length */\n      lt\n        /* \"package/contracts/utils/StringUtils.sol\":1365:1606  for (uint i = 0; i < strBytes.length; i++) {... */\n      iszero\n      tag_31\n      jumpi\n        /* \"package/contracts/utils/StringUtils.sol\":1420:1447  _needsEscaping(strBytes[i]) */\n      tag_33\n        /* \"package/contracts/utils/StringUtils.sol\":1435:1443  strBytes */\n      dup6\n        /* \"package/contracts/utils/StringUtils.sol\":1444:1445  i */\n      dup3\n        /* \"package/contracts/utils/StringUtils.sol\":1435:1446  strBytes[i] */\n      dup2\n      mload\n      dup2\n      lt\n      tag_34\n      jumpi\n      tag_35\n      tag_19\n      jump\t// in\n    tag_35:\n    tag_34:\n      0x20\n      add\n      add\n      mload\n      0xf8\n      shr\n      0xf8\n      shl\n        /* \"package/contracts/utils/StringUtils.sol\":1420:1434  _needsEscaping */\n      tag_20\n        /* \"package/contracts/utils/StringUtils.sol\":1420:1447  _needsEscaping(strBytes[i]) */\n      jump\t// in\n    tag_33:\n        /* \"package/contracts/utils/StringUtils.sol\":1416:1600  if (_needsEscaping(strBytes[i])) {... */\n      iszero\n      tag_36\n      jumpi\n        /* \"package/contracts/utils/StringUtils.sol\":1459:1481  buffer[index++] = \"\\\\\" */\n      0x5c00000000000000000000000000000000000000000000000000000000000000\n        /* \"package/contracts/utils/StringUtils.sol\":1459:1465  buffer */\n      dup4\n        /* \"package/contracts/utils/StringUtils.sol\":1466:1473  index++ */\n      dup4\n      dup1\n      tag_37\n      swap1\n      tag_23\n      jump\t// in\n    tag_37:\n      swap5\n      pop\n        /* \"package/contracts/utils/StringUtils.sol\":1459:1474  buffer[index++] */\n      dup2\n      mload\n      dup2\n      lt\n      tag_38\n      jumpi\n      tag_39\n      tag_19\n      jump\t// in\n    tag_39:\n    tag_38:\n      0x20\n      add\n      add\n        /* \"package/contracts/utils/StringUtils.sol\":1459:1481  buffer[index++] = \"\\\\\" */\n      swap1\n      not(0xffffffffffffffffffffffffffffffffffffffffffffffffffffffffffffff)\n      and\n      swap1\n      dup2\n      0x00\n      byte\n      swap1\n      mstore8\n      pop\n        /* \"package/contracts/utils/StringUtils.sol\":1509:1537  _getEscapedChar(strBytes[i]) */\n      tag_40\n        /* \"package/contracts/utils/StringUtils.sol\":1525:1533  strBytes */\n      dup6\n        /* \"package/contracts/utils/StringUtils.sol\":1534:1535  i */\n      dup3\n        /* \"package/contracts/utils/StringUtils.sol\":1525:1536  strBytes[i] */\n      dup2\n      mload\n      dup2\n      lt\n      tag_41\n      jumpi\n      tag_42\n      tag_19\n      jump\t// in\n    tag_42:\n    tag_41:\n      0x20\n      add\n      add\n      mload\n      0xf8\n      shr\n      0xf8\n      shl\n        /* \"package/contracts/utils/StringUtils.sol\":1509:1524  _getEscapedChar */\n      tag_43\n        /* \"package/contracts/utils/StringUtils.sol\":1509:1537  _getEscapedChar(strBytes[i]) */\n      jump\t// in\n    tag_40:\n        /* \"package/contracts/utils/StringUtils.sol\":1491:1497  buffer */\n      dup4\n        /* \"package/contracts/utils/StringUtils.sol\":1498:1505  index++ */\n      dup4\n      dup1\n      tag_44\n      swap1\n      tag_23\n      jump\t// in\n    tag_44:\n      swap5\n      pop\n        /* \"package/contracts/utils/StringUtils.sol\":1491:1506  buffer[index++] */\n      dup2\n      mload\n      dup2\n      lt\n      tag_45\n      jumpi\n      tag_46\n      tag_19\n      jump\t// in\n    tag_46:\n    tag_45:\n      0x20\n      add\n      add\n        /* \"package/contracts/utils/StringUtils.sol\":1491:1537  buffer[index++] = _getEscapedChar(strBytes[i]) */\n      swap1\n      not(0xffffffffffffffffffffffffffffffffffffffffffffffffffffffffffffff)\n      and\n      swap1\n      dup2\n      0x00\n      byte\n      swap1\n      mstore8\n      pop\n        /* \"package/contracts/utils/StringUtils.sol\":1416:1600  if (_needsEscaping(strBytes[i])) {... */\n      jump(tag_47)\n    tag_36:\n        /* \"package/contracts/utils/StringUtils.sol\":1580:1588  strBytes */\n      dup5\n        /* \"package/contracts/utils/StringUtils.sol\":1589:1590  i */\n      dup2\n        /* \"package/contracts/utils/StringUtils.sol\":1580:1591  strBytes[i] */\n      dup2\n      mload\n      dup2\n      lt\n      tag_48\n      jumpi\n      tag_49\n      tag_19\n      jump\t// in\n    tag_49:\n    tag_48:\n      0x20\n      add\n      add\n      mload\n      0xf8\n      shr\n      0xf8\n      shl\n        /* \"package/contracts/utils/StringUtils.sol\":1562:1568  buffer */\n      dup4\n        /* \"package/contracts/utils/StringUtils.sol\":1569:1576  index++ */\n      dup4\n      dup1\n      tag_50\n      swap1\n      tag_23\n      jump\t// in\n    tag_50:\n      swap5\n      pop\n        /* \"package/contracts/utils/StringUtils.sol\":1562:1577  buffer[index++] */\n      dup2\n      mload\n      dup2\n      lt\n      tag_51\n      jumpi\n      tag_52\n      tag_19\n      jump\t// in\n    tag_52:\n    tag_51:\n      0x20\n      add\n      add\n        /* \"package/contracts/utils/StringUtils.sol\":1562:1591  buffer[index++] = strBytes[i] */\n      swap1\n      not(0xffffffffffffffffffffffffffffffffffffffffffffffffffffffffffffff)\n      and\n      swap1\n      dup2\n      0x00\n      byte\n      swap1\n      mstore8\n      pop\n        /* \"package/contracts/utils/StringUtils.sol\":1416:1600  if (_needsEscaping(strBytes[i])) {... */\n    tag_47:\n        /* \"package/contracts/utils/StringUtils.sol\":1403:1406  i++ */\n      dup1\n      dup1\n      0x01\n      add\n      swap2\n      pop\n      pop\n        /* \"package/contracts/utils/StringUtils.sol\":1365:1606  for (uint i = 0; i < strBytes.length; i++) {... */\n      jump(tag_30)\n    tag_31:\n      pop\n        /* \"package/contracts/utils/StringUtils.sol\":1626:1632  buffer */\n      dup2\n        /* \"package/contracts/utils/StringUtils.sol\":1612:1633  return string(buffer) */\n      swap5\n      pop\n      pop\n      pop\n      pop\n      pop\n        /* \"package/contracts/utils/StringUtils.sol\":885:1638  function escape(string memory str) internal pure returns (string memory) {... */\n      swap2\n      swap1\n      pop\n      jump\t// out\n        /* \"package/contracts/utils/StringUtils.sol\":1687:1860  function _needsEscaping(bytes1 char) private pure returns (bool) {... */\n    tag_20:\n        /* \"package/contracts/utils/StringUtils.sol\":1746:1750  bool */\n      0x00\n        /* \"package/contracts/utils/StringUtils.sol\":1765:1776  char == '\"' */\n      0x2200000000000000000000000000000000000000000000000000000000000000\n        /* \"package/contracts/utils/StringUtils.sol\":1765:1769  char */\n      dup3\n        /* \"package/contracts/utils/StringUtils.sol\":1765:1776  char == '\"' */\n      not(0xffffffffffffffffffffffffffffffffffffffffffffffffffffffffffffff)\n      and\n      eq\n        /* \"package/contracts/utils/StringUtils.sol\":1765:1791  char == '\"' || char == \"/\" */\n      dup1\n      tag_54\n      jumpi\n      pop\n        /* \"package/contracts/utils/StringUtils.sol\":1780:1791  char == \"/\" */\n      0x2f00000000000000000000000000000000000000000000000000000000000000\n        /* \"package/contracts/utils/StringUtils.sol\":1780:1784  char */\n      dup3\n        /* \"package/contracts/utils/StringUtils.sol\":1780:1791  char == \"/\" */\n      not(0xffffffffffffffffffffffffffffffffffffffffffffffffffffffffffffff)\n      and\n      eq\n        /* \"package/contracts/utils/StringUtils.sol\":1765:1791  char == '\"' || char == \"/\" */\n    tag_54:\n        /* \"package/contracts/utils/StringUtils.sol\":1765:1807  char == '\"' || char == \"/\" || char == \"\\\\\" */\n      dup1\n      tag_55\n      jumpi\n      pop\n        /* \"package/contracts/utils/StringUtils.sol\":1795:1807  char == \"\\\\\" */\n      0x5c00000000000000000000000000000000000000000000000000000000000000\n        /* \"package/contracts/utils/StringUtils.sol\":1795:1799  char */\n      dup3\n        /* \"package/contracts/utils/StringUtils.sol\":1795:1807  char == \"\\\\\" */\n      not(0xffffffffffffffffffffffffffffffffffffffffffffffffffffffffffffff)\n      and\n      eq\n        /* \"package/contracts/utils/StringUtils.sol\":1765:1807  char == '\"' || char == \"/\" || char == \"\\\\\" */\n    tag_55:\n        /* \"package/contracts/utils/StringUtils.sol\":1765:1823  char == '\"' || char == \"/\" || char == \"\\\\\" || char == \"\\n\" */\n      dup1\n      tag_56\n      jumpi\n      pop\n        /* \"package/contracts/utils/StringUtils.sol\":1811:1823  char == \"\\n\" */\n      0x0a00000000000000000000000000000000000000000000000000000000000000\n        /* \"package/contracts/utils/StringUtils.sol\":1811:1815  char */\n      dup3\n        /* \"package/contracts/utils/StringUtils.sol\":1811:1823  char == \"\\n\" */\n      not(0xffffffffffffffffffffffffffffffffffffffffffffffffffffffffffffff)\n      and\n      eq\n        /* \"package/contracts/utils/StringUtils.sol\":1765:1823  char == '\"' || char == \"/\" || char == \"\\\\\" || char == \"\\n\" */\n    tag_56:\n        /* \"package/contracts/utils/StringUtils.sol\":1765:1839  char == '\"' || char == \"/\" || char == \"\\\\\" || char == \"\\n\" || char == \"\\r\" */\n      dup1\n      tag_57\n      jumpi\n      pop\n        /* \"package/contracts/utils/StringUtils.sol\":1827:1839  char == \"\\r\" */\n      0x0d00000000000000000000000000000000000000000000000000000000000000\n        /* \"package/contracts/utils/StringUtils.sol\":1827:1831  char */\n      dup3\n        /* \"package/contracts/utils/StringUtils.sol\":1827:1839  char == \"\\r\" */\n      not(0xffffffffffffffffffffffffffffffffffffffffffffffffffffffffffffff)\n      and\n      eq\n        /* \"package/contracts/utils/StringUtils.sol\":1765:1839  char == '\"' || char == \"/\" || char == \"\\\\\" || char == \"\\n\" || char == \"\\r\" */\n    tag_57:\n        /* \"package/contracts/utils/StringUtils.sol\":1765:1855  char == '\"' || char == \"/\" || char == \"\\\\\" || char == \"\\n\" || char == \"\\r\" || char == \"\\t\" */\n      dup1\n      tag_58\n      jumpi\n      pop\n        /* \"package/contracts/utils/StringUtils.sol\":1843:1855  char == \"\\t\" */\n      0x0900000000000000000000000000000000000000000000000000000000000000\n        /* \"package/contracts/utils/StringUtils.sol\":1843:1847  char */\n      dup3\n        /* \"package/contracts/utils/StringUtils.sol\":1843:1855  char == \"\\t\" */\n      not(0xffffffffffffffffffffffffffffffffffffffffffffffffffffffffffffff)\n      and\n      eq\n        /* \"package/contracts/utils/StringUtils.sol\":1765:1855  char == '\"' || char == \"/\" || char == \"\\\\\" || char == \"\\n\" || char == \"\\r\" || char == \"\\t\" */\n    tag_58:\n        /* \"package/contracts/utils/StringUtils.sol\":1758:1855  return char == '\"' || char == \"/\" || char == \"\\\\\" || char == \"\\n\" || char == \"\\r\" || char == \"\\t\" */\n      swap1\n      pop\n        /* \"package/contracts/utils/StringUtils.sol\":1687:1860  function _needsEscaping(bytes1 char) private pure returns (bool) {... */\n      swap2\n      swap1\n      pop\n      jump\t// out\n        /* \"package/contracts/utils/StringUtils.sol\":1895:2087  function _getEscapedChar(bytes1 char) private pure returns (bytes1) {... */\n    tag_43:\n        /* \"package/contracts/utils/StringUtils.sol\":1955:1961  bytes1 */\n      0x00\n        /* \"package/contracts/utils/StringUtils.sol\":1973:1985  char == \"\\n\" */\n      0x0a00000000000000000000000000000000000000000000000000000000000000\n        /* \"package/contracts/utils/StringUtils.sol\":1973:1977  char */\n      dup3\n        /* \"package/contracts/utils/StringUtils.sol\":1973:1985  char == \"\\n\" */\n      not(0xffffffffffffffffffffffffffffffffffffffffffffffffffffffffffffff)\n      and\n      sub\n        /* \"package/contracts/utils/StringUtils.sol\":1969:1997  if (char == \"\\n\") return \"n\" */\n      tag_60\n      jumpi\n        /* \"package/contracts/utils/StringUtils.sol\":1987:1997  return \"n\" */\n      0x6e00000000000000000000000000000000000000000000000000000000000000\n      swap1\n      pop\n      jump(tag_59)\n        /* \"package/contracts/utils/StringUtils.sol\":1969:1997  if (char == \"\\n\") return \"n\" */\n    tag_60:\n        /* \"package/contracts/utils/StringUtils.sol\":2007:2019  char == \"\\r\" */\n      0x0d00000000000000000000000000000000000000000000000000000000000000\n        /* \"package/contracts/utils/StringUtils.sol\":2007:2011  char */\n      dup3\n        /* \"package/contracts/utils/StringUtils.sol\":2007:2019  char == \"\\r\" */\n      not(0xffffffffffffffffffffffffffffffffffffffffffffffffffffffffffffff)\n      and\n      sub\n        /* \"package/contracts/utils/StringUtils.sol\":2003:2031  if (char == \"\\r\") return \"r\" */\n      tag_61\n      jumpi\n        /* \"package/contracts/utils/StringUtils.sol\":2021:2031  return \"r\" */\n      0x7200000000000000000000000000000000000000000000000000000000000000\n      swap1\n      pop\n      jump(tag_59)\n        /* \"package/contracts/utils/StringUtils.sol\":2003:2031  if (char == \"\\r\") return \"r\" */\n    tag_61:\n        /* \"package/contracts/utils/StringUtils.sol\":2041:2053  char == \"\\t\" */\n      0x0900000000000000000000000000000000000000000000000000000000000000\n        /* \"package/contracts/utils/StringUtils.sol\":2041:2045  char */\n      dup3\n        /* \"package/contracts/utils/StringUtils.sol\":2041:2053  char == \"\\t\" */\n      not(0xffffffffffffffffffffffffffffffffffffffffffffffffffffffffffffff)\n      and\n      sub\n        /* \"package/contracts/utils/StringUtils.sol\":2037:2065  if (char == \"\\t\") return \"t\" */\n      tag_62\n      jumpi\n        /* \"package/contracts/utils/StringUtils.sol\":2055:2065  return \"t\" */\n      0x7400000000000000000000000000000000000000000000000000000000000000\n      swap1\n      pop\n      jump(tag_59)\n        /* \"package/contracts/utils/StringUtils.sol\":2037:2065  if (char == \"\\t\") return \"t\" */\n    tag_62:\n        /* \"package/contracts/utils/StringUtils.sol\":2078:2082  char */\n      dup2\n        /* \"package/contracts/utils/StringUtils.sol\":2071:2082  return char */\n      swap1\n      pop\n        /* \"package/contracts/utils/StringUtils.sol\":1895:2087  function _getEscapedChar(bytes1 char) private pure returns (bytes1) {... */\n    tag_59:\n      swap2\n      swap1\n      pop\n      jump\t// out\n        /* \"#utility.yul\":88:205   */\n    tag_64:\n        /* \"#utility.yul\":197:198   */\n      0x00\n        /* \"#utility.yul\":194:195   */\n      dup1\n        /* \"#utility.yul\":187:199   */\n      revert\n        /* \"#utility.yul\":211:328   */\n    tag_65:\n        /* \"#utility.yul\":320:321   */\n      0x00\n        /* \"#utility.yul\":317:318   */\n      dup1\n        /* \"#utility.yul\":310:322   */\n      revert\n        /* \"#utility.yul\":334:451   */\n    tag_66:\n        /* \"#utility.yul\":443:444   */\n      0x00\n        /* \"#utility.yul\":440:441   */\n      dup1\n        /* \"#utility.yul\":433:445   */\n      revert\n        /* \"#utility.yul\":457:574   */\n    tag_67:\n        /* \"#utility.yul\":566:567   */\n      0x00\n        /* \"#utility.yul\":563:564   */\n      dup1\n        /* \"#utility.yul\":556:568   */\n      revert\n        /* \"#utility.yul\":580:697   */\n    tag_68:\n        /* \"#utility.yul\":689:690   */\n      0x00\n        /* \"#utility.yul\":686:687   */\n      dup1\n        /* \"#utility.yul\":679:691   */\n      revert\n        /* \"#utility.yul\":717:1270   */\n    tag_69:\n        /* \"#utility.yul\":775:783   */\n      0x00\n        /* \"#utility.yul\":785:791   */\n      dup1\n        /* \"#utility.yul\":835:838   */\n      dup4\n        /* \"#utility.yul\":828:832   */\n      0x1f\n        /* \"#utility.yul\":820:826   */\n      dup5\n        /* \"#utility.yul\":816:833   */\n      add\n        /* \"#utility.yul\":812:839   */\n      slt\n        /* \"#utility.yul\":802:924   */\n      tag_85\n      jumpi\n        /* \"#utility.yul\":843:922   */\n      tag_86\n      tag_66\n      jump\t// in\n    tag_86:\n        /* \"#utility.yul\":802:924   */\n    tag_85:\n        /* \"#utility.yul\":956:962   */\n      dup3\n        /* \"#utility.yul\":943:963   */\n      calldataload\n        /* \"#utility.yul\":933:963   */\n      swap1\n      pop\n        /* \"#utility.yul\":986:1004   */\n      0xffffffffffffffff\n        /* \"#utility.yul\":978:984   */\n      dup2\n        /* \"#utility.yul\":975:1005   */\n      gt\n        /* \"#utility.yul\":972:1089   */\n      iszero\n      tag_87\n      jumpi\n        /* \"#utility.yul\":1008:1087   */\n      tag_88\n      tag_67\n      jump\t// in\n    tag_88:\n        /* \"#utility.yul\":972:1089   */\n    tag_87:\n        /* \"#utility.yul\":1122:1126   */\n      0x20\n        /* \"#utility.yul\":1114:1120   */\n      dup4\n        /* \"#utility.yul\":1110:1127   */\n      add\n        /* \"#utility.yul\":1098:1127   */\n      swap2\n      pop\n        /* \"#utility.yul\":1176:1179   */\n      dup4\n        /* \"#utility.yul\":1168:1172   */\n      0x01\n        /* \"#utility.yul\":1160:1166   */\n      dup3\n        /* \"#utility.yul\":1156:1173   */\n      mul\n        /* \"#utility.yul\":1146:1154   */\n      dup4\n        /* \"#utility.yul\":1142:1174   */\n      add\n        /* \"#utility.yul\":1139:1180   */\n      gt\n        /* \"#utility.yul\":1136:1264   */\n      iszero\n      tag_89\n      jumpi\n        /* \"#utility.yul\":1183:1262   */\n      tag_90\n      tag_68\n      jump\t// in\n    tag_90:\n        /* \"#utility.yul\":1136:1264   */\n    tag_89:\n        /* \"#utility.yul\":717:1270   */\n      swap3\n      pop\n      swap3\n      swap1\n      pop\n      jump\t// out\n        /* \"#utility.yul\":1276:1805   */\n    tag_5:\n        /* \"#utility.yul\":1347:1353   */\n      0x00\n        /* \"#utility.yul\":1355:1361   */\n      dup1\n        /* \"#utility.yul\":1404:1406   */\n      0x20\n        /* \"#utility.yul\":1392:1401   */\n      dup4\n        /* \"#utility.yul\":1383:1390   */\n      dup6\n        /* \"#utility.yul\":1379:1402   */\n      sub\n        /* \"#utility.yul\":1375:1407   */\n      slt\n        /* \"#utility.yul\":1372:1491   */\n      iszero\n      tag_92\n      jumpi\n        /* \"#utility.yul\":1410:1489   */\n      tag_93\n      tag_64\n      jump\t// in\n    tag_93:\n        /* \"#utility.yul\":1372:1491   */\n    tag_92:\n        /* \"#utility.yul\":1558:1559   */\n      0x00\n        /* \"#utility.yul\":1547:1556   */\n      dup4\n        /* \"#utility.yul\":1543:1560   */\n      add\n        /* \"#utility.yul\":1530:1561   */\n      calldataload\n        /* \"#utility.yul\":1588:1606   */\n      0xffffffffffffffff\n        /* \"#utility.yul\":1580:1586   */\n      dup2\n        /* \"#utility.yul\":1577:1607   */\n      gt\n        /* \"#utility.yul\":1574:1691   */\n      iszero\n      tag_94\n      jumpi\n        /* \"#utility.yul\":1610:1689   */\n      tag_95\n      tag_65\n      jump\t// in\n    tag_95:\n        /* \"#utility.yul\":1574:1691   */\n    tag_94:\n        /* \"#utility.yul\":1723:1788   */\n      tag_96\n        /* \"#utility.yul\":1780:1787   */\n      dup6\n        /* \"#utility.yul\":1771:1777   */\n      dup3\n        /* \"#utility.yul\":1760:1769   */\n      dup7\n        /* \"#utility.yul\":1756:1778   */\n      add\n        /* \"#utility.yul\":1723:1788   */\n      tag_69\n      jump\t// in\n    tag_96:\n        /* \"#utility.yul\":1705:1788   */\n      swap3\n      pop\n      swap3\n      pop\n        /* \"#utility.yul\":1501:1798   */\n      pop\n        /* \"#utility.yul\":1276:1805   */\n      swap3\n      pop\n      swap3\n      swap1\n      pop\n      jump\t// out\n        /* \"#utility.yul\":1811:1910   */\n    tag_70:\n        /* \"#utility.yul\":1863:1869   */\n      0x00\n        /* \"#utility.yul\":1897:1902   */\n      dup2\n        /* \"#utility.yul\":1891:1903   */\n      mload\n        /* \"#utility.yul\":1881:1903   */\n      swap1\n      pop\n        /* \"#utility.yul\":1811:1910   */\n      swap2\n      swap1\n      pop\n      jump\t// out\n        /* \"#utility.yul\":1916:2093   */\n    tag_71:\n        /* \"#utility.yul\":2008:2019   */\n      0x00\n        /* \"#utility.yul\":2042:2048   */\n      dup3\n        /* \"#utility.yul\":2037:2040   */\n      dup3\n        /* \"#utility.yul\":2030:2049   */\n      mstore\n        /* \"#utility.yul\":2082:2086   */\n      0x20\n        /* \"#utility.yul\":2077:2080   */\n      dup3\n        /* \"#utility.yul\":2073:2087   */\n      add\n        /* \"#utility.yul\":2058:2087   */\n      swap1\n      pop\n        /* \"#utility.yul\":1916:2093   */\n      swap3\n      swap2\n      pop\n      pop\n      jump\t// out\n        /* \"#utility.yul\":2099:2347   */\n    tag_72:\n        /* \"#utility.yul\":2181:2182   */\n      0x00\n        /* \"#utility.yul\":2191:2304   */\n    tag_100:\n        /* \"#utility.yul\":2205:2211   */\n      dup4\n        /* \"#utility.yul\":2202:2203   */\n      dup2\n        /* \"#utility.yul\":2199:2212   */\n      lt\n        /* \"#utility.yul\":2191:2304   */\n      iszero\n      tag_102\n      jumpi\n        /* \"#utility.yul\":2290:2291   */\n      dup1\n        /* \"#utility.yul\":2285:2288   */\n      dup3\n        /* \"#utility.yul\":2281:2292   */\n      add\n        /* \"#utility.yul\":2275:2293   */\n      mload\n        /* \"#utility.yul\":2271:2272   */\n      dup2\n        /* \"#utility.yul\":2266:2269   */\n      dup5\n        /* \"#utility.yul\":2262:2273   */\n      add\n        /* \"#utility.yul\":2255:2294   */\n      mstore\n        /* \"#utility.yul\":2227:2229   */\n      0x20\n        /* \"#utility.yul\":2224:2225   */\n      dup2\n        /* \"#utility.yul\":2220:2230   */\n      add\n        /* \"#utility.yul\":2215:2230   */\n      swap1\n      pop\n        /* \"#utility.yul\":2191:2304   */\n      jump(tag_100)\n    tag_102:\n        /* \"#utility.yul\":2338:2339   */\n      0x00\n        /* \"#utility.yul\":2329:2335   */\n      dup5\n        /* \"#utility.yul\":2324:2327   */\n      dup5\n        /* \"#utility.yul\":2320:2336   */\n      add\n        /* \"#utility.yul\":2313:2340   */\n      mstore\n        /* \"#utility.yul\":2161:2347   */\n      pop\n        /* \"#utility.yul\":2099:2347   */\n      pop\n      pop\n      pop\n      jump\t// out\n        /* \"#utility.yul\":2353:2455   */\n    tag_73:\n        /* \"#utility.yul\":2394:2400   */\n      0x00\n        /* \"#utility.yul\":2445:2447   */\n      0x1f\n        /* \"#utility.yul\":2441:2448   */\n      not\n        /* \"#utility.yul\":2436:2438   */\n      0x1f\n        /* \"#utility.yul\":2429:2434   */\n      dup4\n        /* \"#utility.yul\":2425:2439   */\n      add\n        /* \"#utility.yul\":2421:2449   */\n      and\n        /* \"#utility.yul\":2411:2449   */\n      swap1\n      pop\n        /* \"#utility.yul\":2353:2455   */\n      swap2\n      swap1\n      pop\n      jump\t// out\n        /* \"#utility.yul\":2461:2854   */\n    tag_74:\n        /* \"#utility.yul\":2557:2560   */\n      0x00\n        /* \"#utility.yul\":2585:2624   */\n      tag_105\n        /* \"#utility.yul\":2618:2623   */\n      dup3\n        /* \"#utility.yul\":2585:2624   */\n      tag_70\n      jump\t// in\n    tag_105:\n        /* \"#utility.yul\":2640:2719   */\n      tag_106\n        /* \"#utility.yul\":2712:2718   */\n      dup2\n        /* \"#utility.yul\":2707:2710   */\n      dup6\n        /* \"#utility.yul\":2640:2719   */\n      tag_71\n      jump\t// in\n    tag_106:\n        /* \"#utility.yul\":2633:2719   */\n      swap4\n      pop\n        /* \"#utility.yul\":2728:2793   */\n      tag_107\n        /* \"#utility.yul\":2786:2792   */\n      dup2\n        /* \"#utility.yul\":2781:2784   */\n      dup6\n        /* \"#utility.yul\":2774:2778   */\n      0x20\n        /* \"#utility.yul\":2767:2772   */\n      dup7\n        /* \"#utility.yul\":2763:2779   */\n      add\n        /* \"#utility.yul\":2728:2793   */\n      tag_72\n      jump\t// in\n    tag_107:\n        /* \"#utility.yul\":2818:2847   */\n      tag_108\n        /* \"#utility.yul\":2840:2846   */\n      dup2\n        /* \"#utility.yul\":2818:2847   */\n      tag_73\n      jump\t// in\n    tag_108:\n        /* \"#utility.yul\":2813:2816   */\n      dup5\n        /* \"#utility.yul\":2809:2848   */\n      add\n        /* \"#utility.yul\":2802:2848   */\n      swap2\n      pop\n        /* \"#utility.yul\":2561:2854   */\n      pop\n        /* \"#utility.yul\":2461:2854   */\n      swap3\n      swap2\n      pop\n      pop\n      jump\t// out\n        /* \"#utility.yul\":2860:3189   */\n    tag_8:\n        /* \"#utility.yul\":2981:2985   */\n      0x00\n        /* \"#utility.yul\":3019:3021   */\n      0x20\n        /* \"#utility.yul\":3008:3017   */\n      dup3\n        /* \"#utility.yul\":3004:3022   */\n      add\n        /* \"#utility.yul\":2996:3022   */\n      swap1\n      pop\n        /* \"#utility.yul\":3068:3077   */\n      dup2\n        /* \"#utility.yul\":3062:3066   */\n      dup2\n        /* \"#utility.yul\":3058:3078   */\n      sub\n        /* \"#utility.yul\":3054:3055   */\n      0x00\n        /* \"#utility.yul\":3043:3052   */\n      dup4\n        /* \"#utility.yul\":3039:3056   */\n      add\n        /* \"#utility.yul\":3032:3079   */\n      mstore\n        /* \"#utility.yul\":3096:3182   */\n      tag_110\n        /* \"#utility.yul\":3177:3181   */\n      dup2\n        /* \"#utility.yul\":3168:3174   */\n      dup5\n        /* \"#utility.yul\":3096:3182   */\n      tag_74\n      jump\t// in\n    tag_110:\n        /* \"#utility.yul\":3088:3182   */\n      swap1\n      pop\n        /* \"#utility.yul\":2860:3189   */\n      swap3\n      swap2\n      pop\n      pop\n      jump\t// out\n        /* \"#utility.yul\":3195:3375   */\n    tag_19:\n        /* \"#utility.yul\":3243:3320   */\n      0x4e487b7100000000000000000000000000000000000000000000000000000000\n        /* \"#utility.yul\":3240:3241   */\n      0x00\n        /* \"#utility.yul\":3233:3321   */\n      mstore\n        /* \"#utility.yul\":3340:3344   */\n      0x32\n        /* \"#utility.yul\":3337:3338   */\n      0x04\n        /* \"#utility.yul\":3330:3345   */\n      mstore\n        /* \"#utility.yul\":3364:3368   */\n      0x24\n        /* \"#utility.yul\":3361:3362   */\n      0x00\n        /* \"#utility.yul\":3354:3369   */\n      revert\n        /* \"#utility.yul\":3381:3561   */\n    tag_75:\n        /* \"#utility.yul\":3429:3506   */\n      0x4e487b7100000000000000000000000000000000000000000000000000000000\n        /* \"#utility.yul\":3426:3427   */\n      0x00\n        /* \"#utility.yul\":3419:3507   */\n      mstore\n        /* \"#utility.yul\":3526:3530   */\n      0x11\n        /* \"#utility.yul\":3523:3524   */\n      0x04\n        /* \"#utility.yul\":3516:3531   */\n      mstore\n        /* \"#utility.yul\":3550:3554   */\n      0x24\n        /* \"#utility.yul\":3547:3548   */\n      0x00\n        /* \"#utility.yul\":3540:3555   */\n      revert\n        /* \"#utility.yul\":3567:3644   */\n    tag_76:\n        /* \"#utility.yul\":3604:3611   */\n      0x00\n        /* \"#utility.yul\":3633:3638   */\n      dup2\n        /* \"#utility.yul\":3622:3638   */\n      swap1\n      pop\n        /* \"#utility.yul\":3567:3644   */\n      swap2\n      swap1\n      pop\n      jump\t// out\n        /* \"#utility.yul\":3650:3883   */\n    tag_23:\n        /* \"#utility.yul\":3689:3692   */\n      0x00\n        /* \"#utility.yul\":3712:3736   */\n      tag_115\n        /* \"#utility.yul\":3730:3735   */\n      dup3\n        /* \"#utility.yul\":3712:3736   */\n      tag_76\n      jump\t// in\n    tag_115:\n        /* \"#utility.yul\":3703:3736   */\n      swap2\n      pop\n        /* \"#utility.yul\":3758:3824   */\n      0xffffffffffffffffffffffffffffffffffffffffffffffffffffffffffffffff\n        /* \"#utility.yul\":3751:3756   */\n      dup3\n        /* \"#utility.yul\":3748:3825   */\n      sub\n        /* \"#utility.yul\":3745:3848   */\n      tag_116\n      jumpi\n        /* \"#utility.yul\":3828:3846   */\n      tag_117\n      tag_75\n      jump\t// in\n    tag_117:\n        /* \"#utility.yul\":3745:3848   */\n    tag_116:\n        /* \"#utility.yul\":3875:3876   */\n      0x01\n        /* \"#utility.yul\":3868:3873   */\n      dup3\n        /* \"#utility.yul\":3864:3877   */\n      add\n        /* \"#utility.yul\":3857:3877   */\n      swap1\n      pop\n        /* \"#utility.yul\":3650:3883   */\n      swap2\n      swap1\n      pop\n      jump\t// out\n        /* \"#utility.yul\":3889:4080   */\n    tag_25:\n        /* \"#utility.yul\":3929:3932   */\n      0x00\n        /* \"#utility.yul\":3948:3968   */\n      tag_119\n        /* \"#utility.yul\":3966:3967   */\n      dup3\n        /* \"#utility.yul\":3948:3968   */\n      tag_76\n      jump\t// in\n    tag_119:\n        /* \"#utility.yul\":3943:3968   */\n      swap2\n      pop\n        /* \"#utility.yul\":3982:4002   */\n      tag_120\n        /* \"#utility.yul\":4000:4001   */\n      dup4\n        /* \"#utility.yul\":3982:4002   */\n      tag_76\n      jump\t// in\n    tag_120:\n        /* \"#utility.yul\":3977:4002   */\n      swap3\n      pop\n        /* \"#utility.yul\":4025:4026   */\n      dup3\n        /* \"#utility.yul\":4022:4023   */\n      dup3\n        /* \"#utility.yul\":4018:4027   */\n      add\n        /* \"#utility.yul\":4011:4027   */\n      swap1\n      pop\n        /* \"#utility.yul\":4046:4049   */\n      dup1\n        /* \"#utility.yul\":4043:4044   */\n      dup3\n        /* \"#utility.yul\":4040:4050   */\n      gt\n        /* \"#utility.yul\":4037:4073   */\n      iszero\n      tag_121\n      jumpi\n        /* \"#utility.yul\":4053:4071   */\n      tag_122\n      tag_75\n      jump\t// in\n    tag_122:\n        /* \"#utility.yul\":4037:4073   */\n    tag_121:\n        /* \"#utility.yul\":3889:4080   */\n      swap3\n      swap2\n      pop\n      pop\n      jump\t// out\n        /* \"#utility.yul\":4086:4266   */\n    tag_28:\n        /* \"#utility.yul\":4134:4211   */\n      0x4e487b7100000000000000000000000000000000000000000000000000000000\n        /* \"#utility.yul\":4131:4132   */\n      0x00\n        /* \"#utility.yul\":4124:4212   */\n      mstore\n        /* \"#utility.yul\":4231:4235   */\n      0x41\n        /* \"#utility.yul\":4228:4229   */\n      0x04\n        /* \"#utility.yul\":4221:4236   */\n      mstore\n        /* \"#utility.yul\":4255:4259   */\n      0x24\n        /* \"#utility.yul\":4252:4253   */\n      0x00\n        /* \"#utility.yul\":4245:4260   */\n      revert\n\n    auxdata: 0xa2646970667358221220210dbd60ebf8655abab3cab8bf83db6f732bb2e5675fd93a000a4ce1cafba83864736f6c634300081b0033\n}\n",
				"bytecode": {
					"linkReferences": {},
					"object": "610900610052600b82828239805160001a6073146045577f4e487b7100000000000000000000000000000000000000000000000000000000600052600060045260246000fd5b30600052607381538281f3fe73000000000000000000000000000000000000000030146080604052600436106100355760003560e01c8063b869ab8e1461003a575b600080fd5b610054600480360381019061004f91906106b8565b61006a565b6040516100619190610795565b60405180910390f35b60606100b983838080601f016020809104026020016040519081016040528093929190818152602001838380828437600081840152601f19601f820116905080830192505050505050506100c1565b905092915050565b606060008290506000805b825181101561011c576100fb8382815181106100eb576100ea6107b7565b5b602001015160f81c60f81b610321565b1561010f57818061010b9061081f565b9250505b80806001019150506100cc565b50600081835161012c9190610867565b67ffffffffffffffff8111156101455761014461089b565b5b6040519080825280601f01601f1916602001820160405280156101775781602001600182028036833780820191505090505b5090506000805b8451811015610314576101ad85828151811061019d5761019c6107b7565b5b602001015160f81c60f81b610321565b1561029a577f5c000000000000000000000000000000000000000000000000000000000000008383806101df9061081f565b9450815181106101f2576101f16107b7565b5b60200101907effffffffffffffffffffffffffffffffffffffffffffffffffffffffffffff1916908160001a905350610247858281518110610237576102366107b7565b5b602001015160f81c60f81b6104eb565b8383806102539061081f565b945081518110610266576102656107b7565b5b60200101907effffffffffffffffffffffffffffffffffffffffffffffffffffffffffffff1916908160001a905350610307565b8481815181106102ad576102ac6107b7565b5b602001015160f81c60f81b8383806102c49061081f565b9450815181106102d7576102d66107b7565b5b60200101907effffffffffffffffffffffffffffffffffffffffffffffffffffffffffffff1916908160001a9053505b808060010191505061017e565b5081945050505050919050565b60007f2200000000000000000000000000000000000000000000000000000000000000827effffffffffffffffffffffffffffffffffffffffffffffffffffffffffffff191614806103b457507f2f00000000000000000000000000000000000000000000000000000000000000827effffffffffffffffffffffffffffffffffffffffffffffffffffffffffffff1916145b8061040057507f5c00000000000000000000000000000000000000000000000000000000000000827effffffffffffffffffffffffffffffffffffffffffffffffffffffffffffff1916145b8061044c57507f0a00000000000000000000000000000000000000000000000000000000000000827effffffffffffffffffffffffffffffffffffffffffffffffffffffffffffff1916145b8061049857507f0d00000000000000000000000000000000000000000000000000000000000000827effffffffffffffffffffffffffffffffffffffffffffffffffffffffffffff1916145b806104e457507f0900000000000000000000000000000000000000000000000000000000000000827effffffffffffffffffffffffffffffffffffffffffffffffffffffffffffff1916145b9050919050565b60007f0a00000000000000000000000000000000000000000000000000000000000000827effffffffffffffffffffffffffffffffffffffffffffffffffffffffffffff19160361055e577f6e000000000000000000000000000000000000000000000000000000000000009050610644565b7f0d00000000000000000000000000000000000000000000000000000000000000827effffffffffffffffffffffffffffffffffffffffffffffffffffffffffffff1916036105cf577f72000000000000000000000000000000000000000000000000000000000000009050610644565b7f0900000000000000000000000000000000000000000000000000000000000000827effffffffffffffffffffffffffffffffffffffffffffffffffffffffffffff191603610640577f74000000000000000000000000000000000000000000000000000000000000009050610644565b8190505b919050565b600080fd5b600080fd5b600080fd5b600080fd5b600080fd5b60008083601f84011261067857610677610653565b5b8235905067ffffffffffffffff81111561069557610694610658565b5b6020830191508360018202830111156106b1576106b061065d565b5b9250929050565b600080602083850312156106cf576106ce610649565b5b600083013567ffffffffffffffff8111156106ed576106ec61064e565b5b6106f985828601610662565b92509250509250929050565b600081519050919050565b600082825260208201905092915050565b60005b8381101561073f578082015181840152602081019050610724565b60008484015250505050565b6000601f19601f8301169050919050565b600061076782610705565b6107718185610710565b9350610781818560208601610721565b61078a8161074b565b840191505092915050565b600060208201905081810360008301526107af818461075c565b905092915050565b7f4e487b7100000000000000000000000000000000000000000000000000000000600052603260045260246000fd5b7f4e487b7100000000000000000000000000000000000000000000000000000000600052601160045260246000fd5b6000819050919050565b600061082a82610815565b91507fffffffffffffffffffffffffffffffffffffffffffffffffffffffffffffffff820361085c5761085b6107e6565b5b600182019050919050565b600061087282610815565b915061087d83610815565b9250828201905080821115610895576108946107e6565b5b92915050565b7f4e487b7100000000000000000000000000000000000000000000000000000000600052604160045260246000fdfea2646970667358221220210dbd60ebf8655abab3cab8bf83db6f732bb2e5675fd93a000a4ce1cafba83864736f6c634300081b0033",
					"opcodes": "PUSH2 0x900 PUSH2 0x52 PUSH1 0xB DUP3 DUP3 DUP3 CODECOPY DUP1 MLOAD PUSH1 0x0 BYTE PUSH1 0x73 EQ PUSH1 0x45 JUMPI PUSH32 0x4E487B7100000000000000000000000000000000000000000000000000000000 PUSH1 0x0 MSTORE PUSH1 0x0 PUSH1 0x4 MSTORE PUSH1 0x24 PUSH1 0x0 REVERT JUMPDEST ADDRESS PUSH1 0x0 MSTORE PUSH1 0x73 DUP2 MSTORE8 DUP3 DUP2 RETURN INVALID PUSH20 0x0 ADDRESS EQ PUSH1 0x80 PUSH1 0x40 MSTORE PUSH1 0x4 CALLDATASIZE LT PUSH2 0x35 JUMPI PUSH1 0x0 CALLDATALOAD PUSH1 0xE0 SHR DUP1 PUSH4 0xB869AB8E EQ PUSH2 0x3A JUMPI JUMPDEST PUSH1 0x0 DUP1 REVERT JUMPDEST PUSH2 0x54 PUSH1 0x4 DUP1 CALLDATASIZE SUB DUP2 ADD SWAP1 PUSH2 0x4F SWAP2 SWAP1 PUSH2 0x6B8 JUMP JUMPDEST PUSH2 0x6A JUMP JUMPDEST PUSH1 0x40 MLOAD PUSH2 0x61 SWAP2 SWAP1 PUSH2 0x795 JUMP JUMPDEST PUSH1 0x40 MLOAD DUP1 SWAP2 SUB SWAP1 RETURN JUMPDEST PUSH1 0x60 PUSH2 0xB9 DUP4 DUP4 DUP1 DUP1 PUSH1 0x1F ADD PUSH1 0x20 DUP1 SWAP2 DIV MUL PUSH1 0x20 ADD PUSH1 0x40 MLOAD SWAP1 DUP2 ADD PUSH1 0x40 MSTORE DUP1 SWAP4 SWAP3 SWAP2 SWAP1 DUP2 DUP2 MSTORE PUSH1 0x20 ADD DUP4 DUP4 DUP1 DUP3 DUP5 CALLDATACOPY PUSH1 0x0 DUP2 DUP5 ADD MSTORE PUSH1 0x1F NOT PUSH1 0x1F DUP3 ADD AND SWAP1 POP DUP1 DUP4 ADD SWAP3 POP POP POP POP POP POP POP PUSH2 0xC1 JUMP JUMPDEST SWAP1 POP SWAP3 SWAP2 POP POP JUMP JUMPDEST PUSH1 0x60 PUSH1 0x0 DUP3 SWAP1 POP PUSH1 0x0 DUP1 JUMPDEST DUP3 MLOAD DUP2 LT ISZERO PUSH2 0x11C JUMPI PUSH2 0xFB DUP4 DUP3 DUP2 MLOAD DUP2 LT PUSH2 0xEB JUMPI PUSH2 0xEA PUSH2 0x7B7 JUMP JUMPDEST JUMPDEST PUSH1 0x20 ADD ADD MLOAD PUSH1 0xF8 SHR PUSH1 0xF8 SHL PUSH2 0x321 JUMP JUMPDEST ISZERO PUSH2 0x10F JUMPI DUP2 DUP1 PUSH2 0x10B SWAP1 PUSH2 0x81F JUMP JUMPDEST SWAP3 POP POP JUMPDEST DUP1 DUP1 PUSH1 0x1 ADD SWAP2 POP POP PUSH2 0xCC JUMP JUMPDEST POP PUSH1 0x0 DUP2 DUP4 MLOAD PUSH2 0x12C SWAP2 SWAP1 PUSH2 0x867 JUMP JUMPDEST PUSH8 0xFFFFFFFFFFFFFFFF DUP2 GT ISZERO PUSH2 0x145 JUMPI PUSH2 0x144 PUSH2 0x89B JUMP JUMPDEST JUMPDEST PUSH1 0x40 MLOAD SWAP1 DUP1 DUP3 MSTORE DUP1 PUSH1 0x1F ADD PUSH1 0x1F NOT AND PUSH1 0x20 ADD DUP3 ADD PUSH1 0x40 MSTORE DUP1 ISZERO PUSH2 0x177 JUMPI DUP2 PUSH1 0x20 ADD PUSH1 0x1 DUP3 MUL DUP1 CALLDATASIZE DUP4 CALLDATACOPY DUP1 DUP3 ADD SWAP2 POP POP SWAP1 POP JUMPDEST POP SWAP1 POP PUSH1 0x0 DUP1 JUMPDEST DUP5 MLOAD DUP2 LT ISZERO PUSH2 0x314 JUMPI PUSH2 0x1AD DUP6 DUP3 DUP2 MLOAD DUP2 LT PUSH2 0x19D JUMPI PUSH2 0x19C PUSH2 0x7B7 JUMP JUMPDEST JUMPDEST PUSH1 0x20 ADD ADD MLOAD PUSH1 0xF8 SHR PUSH1 0xF8 SHL PUSH2 0x321 JUMP JUMPDEST ISZERO PUSH2 0x29A JUMPI PUSH32 0x5C00000000000000000000000000000000000000000000000000000000000000 DUP4 DUP4 DUP1 PUSH2 0x1DF SWAP1 PUSH2 0x81F JUMP JUMPDEST SWAP5 POP DUP2 MLOAD DUP2 LT PUSH2 0x1F2 JUMPI PUSH2 0x1F1 PUSH2 0x7B7 JUMP JUMPDEST JUMPDEST PUSH1 0x20 ADD ADD SWAP1 PUSH31 0xFFFFFFFFFFFFFFFFFFFFFFFFFFFFFFFFFFFFFFFFFFFFFFFFFFFFFFFFFFFFFF NOT AND SWAP1 DUP2 PUSH1 0x0 BYTE SWAP1 MSTORE8 POP PUSH2 0x247 DUP6 DUP3 DUP2 MLOAD DUP2 LT PUSH2 0x237 JUMPI PUSH2 0x236 PUSH2 0x7B7 JUMP JUMPDEST JUMPDEST PUSH1 0x20 ADD ADD MLOAD PUSH1 0xF8 SHR PUSH1 0xF8 SHL PUSH2 0x4EB JUMP JUMPDEST DUP4 DUP4 DUP1 PUSH2 0x253 SWAP1 PUSH2 0x81F JUMP JUMPDEST SWAP5 POP DUP2 MLOAD DUP2 LT PUSH2 0x266 JUMPI PUSH2 0x265 PUSH2 0x7B7 JUMP JUMPDEST JUMPDEST PUSH1 0x20 ADD ADD SWAP1 PUSH31 0xFFFFFFFFFFFFFFFFFFFFFFFFFFFFFFFFFFFFFFFFFFFFFFFFFFFFFFFFFFFFFF NOT AND SWAP1 DUP2 PUSH1 0x0 BYTE SWAP1 MSTORE8 POP PUSH2 0x307 JUMP JUMPDEST DUP5 DUP2 DUP2 MLOAD DUP2 LT PUSH2 0x2AD JUMPI PUSH2 0x2AC PUSH2 0x7B7 JUMP JUMPDEST JUMPDEST PUSH1 0x20 ADD ADD MLOAD PUSH1 0xF8 SHR PUSH1 0xF8 SHL DUP4 DUP4 DUP1 PUSH2 0x2C4 SWAP1 PUSH2 0x81F JUMP JUMPDEST SWAP5 POP DUP2 MLOAD DUP2 LT PUSH2 0x2D7 JUMPI PUSH2 0x2D6 PUSH2 0x7B7 JUMP JUMPDEST JUMPDEST PUSH1 0x20 ADD ADD SWAP1 PUSH31 0xFFFFFFFFFFFFFFFFFFFFFFFFFFFFFFFFFFFFFFFFFFFFFFFFFFFFFFFFFFFFFF NOT AND SWAP1 DUP2 PUSH1 0x0 BYTE SWAP1 MSTORE8 POP JUMPDEST DUP1 DUP1 PUSH1 0x1 ADD SWAP2 POP POP PUSH2 0x17E JUMP JUMPDEST POP DUP2 SWAP5 POP POP POP POP POP SWAP2 SWAP1 POP JUMP JUMPDEST PUSH1 0x0 PUSH32 0x2200000000000000000000000000000000000000000000000000000000000000 DUP3 PUSH31 0xFFFFFFFFFFFFFFFFFFFFFFFFFFFFFFFFFFFFFFFFFFFFFFFFFFFFFFFFFFFFFF NOT AND EQ DUP1 PUSH2 0x3B4 JUMPI POP PUSH32 0x2F00000000000000000000000000000000000000000000000000000000000000 DUP3 PUSH31 0xFFFFFFFFFFFFFFFFFFFFFFFFFFFFFFFFFFFFFFFFFFFFFFFFFFFFFFFFFFFFFF NOT AND EQ JUMPDEST DUP1 PUSH2 0x400 JUMPI POP PUSH32 0x5C00000000000000000000000000000000000000000000000000000000000000 DUP3 PUSH31 0xFFFFFFFFFFFFFFFFFFFFFFFFFFFFFFFFFFFFFFFFFFFFFFFFFFFFFFFFFFFFFF NOT AND EQ JUMPDEST DUP1 PUSH2 0x44C JUMPI POP PUSH32 0xA00000000000000000000000000000000000000000000000000000000000000 DUP3 PUSH31 0xFFFFFFFFFFFFFFFFFFFFFFFFFFFFFFFFFFFFFFFFFFFFFFFFFFFFFFFFFFFFFF NOT AND EQ JUMPDEST DUP1 PUSH2 0x498 JUMPI POP PUSH32 0xD00000000000000000000000000000000000000000000000000000000000000 DUP3 PUSH31 0xFFFFFFFFFFFFFFFFFFFFFFFFFFFFFFFFFFFFFFFFFFFFFFFFFFFFFFFFFFFFFF NOT AND EQ JUMPDEST DUP1 PUSH2 0x4E4 JUMPI POP PUSH32 0x900000000000000000000000000000000000000000000000000000000000000 DUP3 PUSH31 0xFFFFFFFFFFFFFFFFFFFFFFFFFFFFFFFFFFFFFFFFFFFFFFFFFFFFFFFFFFFFFF NOT AND EQ JUMPDEST SWAP1 POP SWAP2 SWAP1 POP JUMP JUMPDEST PUSH1 0x0 PUSH32 0xA00000000000000000000000000000000000000000000000000000000000000 DUP3 PUSH31 0xFFFFFFFFFFFFFFFFFFFFFFFFFFFFFFFFFFFFFFFFFFFFFFFFFFFFFFFFFFFFFF NOT AND SUB PUSH2 0x55E JUMPI PUSH32 0x6E00000000000000000000000000000000000000000000000000000000000000 SWAP1 POP PUSH2 0x644 JUMP JUMPDEST PUSH32 0xD00000000000000000000000000000000000000000000000000000000000000 DUP3 PUSH31 0xFFFFFFFFFFFFFFFFFFFFFFFFFFFFFFFFFFFFFFFFFFFFFFFFFFFFFFFFFFFFFF NOT AND SUB PUSH2 0x5CF JUMPI PUSH32 0x7200000000000000000000000000000000000000000000000000000000000000 SWAP1 POP PUSH2 0x644 JUMP JUMPDEST PUSH32 0x900000000000000000000000000000000000000000000000000000000000000 DUP3 PUSH31 0xFFFFFFFFFFFFFFFFFFFFFFFFFFFFFFFFFFFFFFFFFFFFFFFFFFFFFFFFFFFFFF NOT AND SUB PUSH2 0x640 JUMPI PUSH32 0x7400000000000000000000000000000000000000000000000000000000000000 SWAP1 POP PUSH2 0x644 JUMP JUMPDEST DUP2 SWAP1 POP JUMPDEST SWAP2 SWAP1 POP JUMP JUMPDEST PUSH1 0x0 DUP1 REVERT JUMPDEST PUSH1 0x0 DUP1 REVERT JUMPDEST PUSH1 0x0 DUP1 REVERT JUMPDEST PUSH1 0x0 DUP1 REVERT JUMPDEST PUSH1 0x0 DUP1 REVERT JUMPDEST PUSH1 0x0 DUP1 DUP4 PUSH1 0x1F DUP5 ADD SLT PUSH2 0x678 JUMPI PUSH2 0x677 PUSH2 0x653 JUMP JUMPDEST JUMPDEST DUP3 CALLDATALOAD SWAP1 POP PUSH8 0xFFFFFFFFFFFFFFFF DUP2 GT ISZERO PUSH2 0x695 JUMPI PUSH2 0x694 PUSH2 0x658 JUMP JUMPDEST JUMPDEST PUSH1 0x20 DUP4 ADD SWAP2 POP DUP4 PUSH1 0x1 DUP3 MUL DUP4 ADD GT ISZERO PUSH2 0x6B1 JUMPI PUSH2 0x6B0 PUSH2 0x65D JUMP JUMPDEST JUMPDEST SWAP3 POP SWAP3 SWAP1 POP JUMP JUMPDEST PUSH1 0x0 DUP1 PUSH1 0x20 DUP4 DUP6 SUB SLT ISZERO PUSH2 0x6CF JUMPI PUSH2 0x6CE PUSH2 0x649 JUMP JUMPDEST JUMPDEST PUSH1 0x0 DUP4 ADD CALLDATALOAD PUSH8 0xFFFFFFFFFFFFFFFF DUP2 GT ISZERO PUSH2 0x6ED JUMPI PUSH2 0x6EC PUSH2 0x64E JUMP JUMPDEST JUMPDEST PUSH2 0x6F9 DUP6 DUP3 DUP7 ADD PUSH2 0x662 JUMP JUMPDEST SWAP3 POP SWAP3 POP POP SWAP3 POP SWAP3 SWAP1 POP JUMP JUMPDEST PUSH1 0x0 DUP2 MLOAD SWAP1 POP SWAP2 SWAP1 POP JUMP JUMPDEST PUSH1 0x0 DUP3 DUP3 MSTORE PUSH1 0x20 DUP3 ADD SWAP1 POP SWAP3 SWAP2 POP POP JUMP JUMPDEST PUSH1 0x0 JUMPDEST DUP4 DUP2 LT ISZERO PUSH2 0x73F JUMPI DUP1 DUP3 ADD MLOAD DUP2 DUP5 ADD MSTORE PUSH1 0x20 DUP2 ADD SWAP1 POP PUSH2 0x724 JUMP JUMPDEST PUSH1 0x0 DUP5 DUP5 ADD MSTORE POP POP POP POP JUMP JUMPDEST PUSH1 0x0 PUSH1 0x1F NOT PUSH1 0x1F DUP4 ADD AND SWAP1 POP SWAP2 SWAP1 POP JUMP JUMPDEST PUSH1 0x0 PUSH2 0x767 DUP3 PUSH2 0x705 JUMP JUMPDEST PUSH2 0x771 DUP2 DUP6 PUSH2 0x710 JUMP JUMPDEST SWAP4 POP PUSH2 0x781 DUP2 DUP6 PUSH1 0x20 DUP7 ADD PUSH2 0x721 JUMP JUMPDEST PUSH2 0x78A DUP2 PUSH2 0x74B JUMP JUMPDEST DUP5 ADD SWAP2 POP POP SWAP3 SWAP2 POP POP JUMP JUMPDEST PUSH1 0x0 PUSH1 0x20 DUP3 ADD SWAP1 POP DUP2 DUP2 SUB PUSH1 0x0 DUP4 ADD MSTORE PUSH2 0x7AF DUP2 DUP5 PUSH2 0x75C JUMP JUMPDEST SWAP1 POP SWAP3 SWAP2 POP POP JUMP JUMPDEST PUSH32 0x4E487B7100000000000000000000000000000000000000000000000000000000 PUSH1 0x0 MSTORE PUSH1 0x32 PUSH1 0x4 MSTORE PUSH1 0x24 PUSH1 0x0 REVERT JUMPDEST PUSH32 0x4E487B7100000000000000000000000000000000000000000000000000000000 PUSH1 0x0 MSTORE PUSH1 0x11 PUSH1 0x4 MSTORE PUSH1 0x24 PUSH1 0x0 REVERT JUMPDEST PUSH1 0x0 DUP2 SWAP1 POP SWAP2 SWAP1 POP JUMP JUMPDEST PUSH1 0x0 PUSH2 0x82A DUP3 PUSH2 0x815 JUMP JUMPDEST SWAP2 POP PUSH32 0xFFFFFFFFFFFFFFFFFFFFFFFFFFFFFFFFFFFFFFFFFFFFFFFFFFFFFFFFFFFFFFFF DUP3 SUB PUSH2 0x85C JUMPI PUSH2 0x85B PUSH2 0x7E6 JUMP JUMPDEST JUMPDEST PUSH1 0x1 DUP3 ADD SWAP1 POP SWAP2 SWAP1 POP JUMP JUMPDEST PUSH1 0x0 PUSH2 0x872 DUP3 PUSH2 0x815 JUMP JUMPDEST SWAP2 POP PUSH2 0x87D DUP4 PUSH2 0x815 JUMP JUMPDEST SWAP3 POP DUP3 DUP3 ADD SWAP1 POP DUP1 DUP3 GT ISZERO PUSH2 0x895 JUMPI PUSH2 0x894 PUSH2 0x7E6 JUMP JUMPDEST JUMPDEST SWAP3 SWAP2 POP POP JUMP JUMPDEST PUSH32 0x4E487B7100000000000000000000000000000000000000000000000000000000 PUSH1 0x0 MSTORE PUSH1 0x41 PUSH1 0x4 MSTORE PUSH1 0x24 PUSH1 0x0 REVERT INVALID LOG2 PUSH5 0x6970667358 0x22 SLT KECCAK256 0x21 0xD 0xBD PUSH1 0xEB 0xF8 PUSH6 0x5ABAB3CAB8BF DUP4 0xDB PUSH16 0x732BB2E5675FD93A000A4CE1CAFBA838 PUSH5 0x736F6C6343 STOP ADDMOD SHL STOP CALLER "
				},
				"gasEstimates": {
					"creation": {
						"codeDepositCost": "460800",
						"executionCost": "521",
						"totalCost": "461321"
					},
					"external": {
						"testEscape(string)": "infinite"
					}
				},
				"methodIdentifiers": {
					"testEscape(string)": "b869ab8e"
				}
			},
			"storageLayout": {
				"storage": [],
				"types": null
			},
			"userdoc": {
				"kind": "user",
				"methods": {},
				"version": 1
			}
		}
	}
}