{
	"data": {
		"bytecode": {
			"linkReferences": {},
			"object": "6080604052348015600f57600080fd5b50613dbe8061001f6000396000f3fe608060405234801561001057600080fd5b50600436106100a85760003560e01c8063809a617311610071578063809a6173146100df57806383d31df6146100e9578063878ab4ae146100f3578063c80094b3146100fd578063e77975cf14610107578063f3cbda4614610111576100a8565b80625aa6f9146100ad578063098e6232146100b75780631b8e1b81146100c15780632e72f9a9146100cb578063673dcc73146100d5575b600080fd5b6100b561011b565b005b6100bf6101d9565b005b6100c96104f4565b005b6100d361058a565b005b6100dd6106a8565b005b6100e7610892565b005b6100f1610e2c565b005b6100fb61154c565b005b6101056119c2565b005b61010f611e6b565b005b610119611f1a565b005b7f62636465666768696a6b6c6d6e6f70717273747500000000000000000000000060001b61018860016040518060400160405280601681526020017f6162636465666768696a6b6c6d6e6f7071727374757600000000000000000000815250611fac90919063ffffffff16565b6bffffffffffffffffffffffff1916146101d7576040517f08c379a00000000000000000000000000000000000000000000000000000000081526004016101ce90612793565b60405180910390fd5b565b604051806020016040528060008152508051906020012061023b6000806040518060400160405280600581526020017f68656c6c6f000000000000000000000000000000000000000000000000000000815250611ff99092919063ffffffff16565b8051906020012014610282576040517f08c379a0000000000000000000000000000000000000000000000000000000008152600401610279906127ff565b60405180910390fd5b6040518060400160405280600481526020017f68656c6c000000000000000000000000000000000000000000000000000000008152508051906020012061030b600060046040518060400160405280600581526020017f68656c6c6f000000000000000000000000000000000000000000000000000000815250611ff99092919063ffffffff16565b8051906020012014610352576040517f08c379a00000000000000000000000000000000000000000000000000000000081526004016103499061286b565b60405180910390fd5b6040518060400160405280600481526020017f656c6c6f00000000000000000000000000000000000000000000000000000000815250805190602001206103db600160046040518060400160405280600581526020017f68656c6c6f000000000000000000000000000000000000000000000000000000815250611ff99092919063ffffffff16565b8051906020012014610422576040517f08c379a00000000000000000000000000000000000000000000000000000000081526004016104199061286b565b60405180910390fd5b6040518060400160405280600581526020017f68656c6c6f000000000000000000000000000000000000000000000000000000815250805190602001206104ab600060056040518060400160405280600581526020017f68656c6c6f000000000000000000000000000000000000000000000000000000815250611ff99092919063ffffffff16565b80519060200120146104f2576040517f08c379a00000000000000000000000000000000000000000000000000000000081526004016104e9906128d7565b60405180910390fd5b565b636263646561054260016040518060400160405280600581526020017f616263646500000000000000000000000000000000000000000000000000000081525061208e90919063ffffffff16565b63ffffffff1614610588576040517f08c379a000000000000000000000000000000000000000000000000000000000815260040161057f90612943565b60405180910390fd5b565b60616105d560006040518060400160405280600181526020017f61000000000000000000000000000000000000000000000000000000000000008152506120bf90919063ffffffff16565b60ff1614610618576040517f08c379a000000000000000000000000000000000000000000000000000000000815260040161060f906129af565b60405180910390fd5b606161066360016040518060400160405280600281526020017f62610000000000000000000000000000000000000000000000000000000000008152506120bf90919063ffffffff16565b60ff16146106a6576040517f08c379a000000000000000000000000000000000000000000000000000000000815260040161069d906129af565b60405180910390fd5b565b7fc5d2460186f7233c927e7db2dcc703c0e500b653ca82273b7bfad8045d85a47060001b6106f1600080604051806020016040528060008152506120ea9092919063ffffffff16565b14610731576040517f08c379a000000000000000000000000000000000000000000000000000000000815260040161072890612a1b565b60405180910390fd5b7f41b1a0649752af1b28b3dc29a1556eee781e4a4c3a1f7f53f90fa834de098c4d60001b6107a1600060036040518060400160405280600381526020017f666f6f00000000000000000000000000000000000000000000000000000000008152506120ea9092919063ffffffff16565b146107e1576040517f08c379a00000000000000000000000000000000000000000000000000000000081526004016107d890612a87565b60405180910390fd5b7fc5d2460186f7233c927e7db2dcc703c0e500b653ca82273b7bfad8045d85a47060001b6108506000806040518060400160405280600381526020017f666f6f00000000000000000000000000000000000000000000000000000000008152506120ea9092919063ffffffff16565b14610890576040517f08c379a000000000000000000000000000000000000000000000000000000000815260040161088790612a1b565b60405180910390fd5b565b6001151560006109156040518060400160405280600181526020017f61000000000000000000000000000000000000000000000000000000000000008152506040518060400160405280600181526020017f610000000000000000000000000000000000000000000000000000000000000081525061211690919063ffffffff16565b14151514610958576040517f08c379a000000000000000000000000000000000000000000000000000000000815260040161094f90612af3565b60405180910390fd5b6001151560006109db6040518060400160405280600181526020017f62000000000000000000000000000000000000000000000000000000000000008152506040518060400160405280600181526020017f610000000000000000000000000000000000000000000000000000000000000081525061211690919063ffffffff16565b12151514610a1e576040517f08c379a0000000000000000000000000000000000000000000000000000000008152600401610a1590612b85565b60405180910390fd5b600115156000610aa16040518060400160405280600181526020017f61000000000000000000000000000000000000000000000000000000000000008152506040518060400160405280600181526020017f620000000000000000000000000000000000000000000000000000000000000081525061211690919063ffffffff16565b13151514610ae4576040517f08c379a0000000000000000000000000000000000000000000000000000000008152600401610adb90612b85565b60405180910390fd5b600115156000610b676040518060400160405280600281526020017f61620000000000000000000000000000000000000000000000000000000000008152506040518060400160405280600281526020017f616100000000000000000000000000000000000000000000000000000000000081525061211690919063ffffffff16565b12151514610baa576040517f08c379a0000000000000000000000000000000000000000000000000000000008152600401610ba190612c17565b60405180910390fd5b600115156000610c2d6040518060400160405280600281526020017f61610000000000000000000000000000000000000000000000000000000000008152506040518060400160405280600181526020017f610000000000000000000000000000000000000000000000000000000000000081525061211690919063ffffffff16565b12151514610c70576040517f08c379a0000000000000000000000000000000000000000000000000000000008152600401610c6790612ca9565b60405180910390fd5b600115156000610cf36040518060400160405280600181526020017f61000000000000000000000000000000000000000000000000000000000000008152506040518060400160405280600281526020017f616100000000000000000000000000000000000000000000000000000000000081525061211690919063ffffffff16565b13151514610d36576040517f08c379a0000000000000000000000000000000000000000000000000000000008152600401610d2d90612ca9565b60405180910390fd5b6000604051806060016040528060228152602001613cb2602291399050600115156000610d6c838461211690919063ffffffff16565b14151514610daf576040517f08c379a0000000000000000000000000000000000000000000000000000000008152600401610da690612d15565b60405180910390fd5b6000604051806060016040528060228152602001613c90602291399050600115156000610de5838561211690919063ffffffff16565b12151514610e28576040517f08c379a0000000000000000000000000000000000000000000000000000000008152600401610e1f90612da7565b60405180910390fd5b5050565b7f61000000000000000000000000000000000000000000000000000000000000007effffffffffffffffffffffffffffffffffffffffffffffffffffffffffffff1916610ebb600060026040518060400160405280600281526020017f43340000000000000000000000000000000000000000000000000000000000008152506121329092919063ffffffff16565b14610efb576040517f08c379a0000000000000000000000000000000000000000000000000000000008152600401610ef290612e13565b60405180910390fd5b7f61610000000000000000000000000000000000000000000000000000000000007dffffffffffffffffffffffffffffffffffffffffffffffffffffffffffff1916610f89600060046040518060400160405280600481526020017f43354747000000000000000000000000000000000000000000000000000000008152506121329092919063ffffffff16565b14610fc9576040517f08c379a0000000000000000000000000000000000000000000000000000000008152600401610fc090612e7f565b60405180910390fd5b7f61616100000000000000000000000000000000000000000000000000000000007cffffffffffffffffffffffffffffffffffffffffffffffffffffffffff1916611056600060056040518060400160405280600581526020017f4335474d320000000000000000000000000000000000000000000000000000008152506121329092919063ffffffff16565b14611096576040517f08c379a000000000000000000000000000000000000000000000000000000000815260040161108d90612eeb565b60405180910390fd5b7f61616161000000000000000000000000000000000000000000000000000000007bffffffffffffffffffffffffffffffffffffffffffffffffffffffff1916611122600060076040518060400160405280600781526020017f4335474d324f38000000000000000000000000000000000000000000000000008152506121329092919063ffffffff16565b14611162576040517f08c379a000000000000000000000000000000000000000000000000000000000815260040161115990612f57565b60405180910390fd5b7f61616161610000000000000000000000000000000000000000000000000000007affffffffffffffffffffffffffffffffffffffffffffffffffffff19166111ed600060086040518060400160405280600881526020017f4335474d324f42310000000000000000000000000000000000000000000000008152506121329092919063ffffffff16565b1461122d576040517f08c379a000000000000000000000000000000000000000000000000000000000815260040161122490612fc3565b60405180910390fd5b7f61616161610000000000000000000000000000000000000000000000000000007affffffffffffffffffffffffffffffffffffffffffffffffffffff19166112b8600060086040518060400160405280600881526020017f6335676d324f62310000000000000000000000000000000000000000000000008152506121329092919063ffffffff16565b146112f8576040517f08c379a00000000000000000000000000000000000000000000000000000000081526004016112ef9061302f565b60405180910390fd5b7f6162636465666768696a6b6c6d6e6f707172737475767778797a00000000000065ffffffffffff19166113516000602a6040518060600160405280602a8152602001613d3d602a91396121329092919063ffffffff16565b14611391576040517f08c379a00000000000000000000000000000000000000000000000000000000081526004016113889061309b565b60405180910390fd5b7f6162636465666768696a6b6c6d6e6f707172737475767778797a00000000000065ffffffffffff19166113ea6000602a6040518060600160405280602a8152602001613c04602a91396121329092919063ffffffff16565b1461142a576040517f08c379a000000000000000000000000000000000000000000000000000000000815260040161142190613107565b60405180910390fd5b7f616161616161616161616161616161616161616161616161616161616161616161147a60006034604051806060016040528060348152602001613c2e603491396121329092919063ffffffff16565b146114ba576040517f08c379a00000000000000000000000000000000000000000000000000000000081526004016114b190613173565b60405180910390fd5b7f5f3a48d66e3ec18431192611a2a055b01d3b4b5d00000000000000000000000061150a600160206040518060600160405280602e8152602001613c62602e91396121329092919063ffffffff16565b1461154a576040517f08c379a0000000000000000000000000000000000000000000000000000000008152600401611541906131df565b60405180910390fd5b565b6001151560006115da6001806040518060400160405280600581526020017f7878627878000000000000000000000000000000000000000000000000000000815250600260016040518060400160405280600381526020017f78617800000000000000000000000000000000000000000000000000000000008152506123c29095949392919063ffffffff16565b1215151461161d576040517f08c379a00000000000000000000000000000000000000000000000000000000081526004016116149061324b565b60405180910390fd5b6001151560006116aa6001806040518060400160405280600681526020017f78786162787800000000000000000000000000000000000000000000000000008152506002806040518060400160405280600381526020017f78617800000000000000000000000000000000000000000000000000000000008152506123c29095949392919063ffffffff16565b121515146116ed576040517f08c379a00000000000000000000000000000000000000000000000000000000081526004016116e4906132b7565b60405180910390fd5b60011515600061177b6001806040518060400160405280600581526020017f7878617878000000000000000000000000000000000000000000000000000000815250600260016040518060400160405280600381526020017f78617800000000000000000000000000000000000000000000000000000000008152506123c29095949392919063ffffffff16565b141515146117be576040517f08c379a00000000000000000000000000000000000000000000000000000000081526004016117b590613349565b60405180910390fd5b60011515600061181360006021604051806060016040528060228152602001613d676022913960006021604051806060016040528060228152602001613d1b602291396123c29095949392919063ffffffff16565b14151514611856576040517f08c379a000000000000000000000000000000000000000000000000000000000815260040161184d90613401565b60405180910390fd5b6001151560006118ab60006021604051806060016040528060228152602001613d676022913960006022604051806060016040528060228152602001613d1b602291396123c29095949392919063ffffffff16565b121515146118ee576040517f08c379a00000000000000000000000000000000000000000000000000000000081526004016118e590613493565b60405180910390fd5b60011515600061197d600060206040518060400160405280602081526020017f3031323334353637383930313233343530313233343536373839303132333462815250600060206040518060400160405280602081526020017f30313233343536373839303132333435303132333435363738393031323334618152506123c29095949392919063ffffffff16565b121515146119c0576040517f08c379a00000000000000000000000000000000000000000000000000000000081526004016119b790613525565b60405180910390fd5b565b60011515611a436040518060400160405280600581526020017f68656c6c6f0000000000000000000000000000000000000000000000000000008152506040518060400160405280600581526020017f68656c6c6f0000000000000000000000000000000000000000000000000000008152506125c090919063ffffffff16565b151514611a85576040517f08c379a0000000000000000000000000000000000000000000000000000000008152600401611a7c90613591565b60405180910390fd5b60001515611b066040518060400160405280600781526020017f676f6f64627965000000000000000000000000000000000000000000000000008152506040518060400160405280600581526020017f68656c6c6f0000000000000000000000000000000000000000000000000000008152506125c090919063ffffffff16565b151514611b48576040517f08c379a0000000000000000000000000000000000000000000000000000000008152600401611b3f906135fd565b60405180910390fd5b60011515611bcc60016040518060400160405280600481526020017f656c6c6f000000000000000000000000000000000000000000000000000000008152506040518060400160405280600581526020017f68656c6c6f0000000000000000000000000000000000000000000000000000008152506125e79092919063ffffffff16565b151514611c0e576040517f08c379a0000000000000000000000000000000000000000000000000000000008152600401611c0590613669565b60405180910390fd5b60011515611c9860016040518060400160405280600581526020017f6a656c6c6f000000000000000000000000000000000000000000000000000000815250600160046040518060400160405280600581526020017f68656c6c6f00000000000000000000000000000000000000000000000000000081525061261990949392919063ffffffff16565b151514611cda576040517f08c379a0000000000000000000000000000000000000000000000000000000008152600401611cd1906136d5565b60405180910390fd5b60011515611d6160016040518060400160405280600881526020017f61626368656c6c6f00000000000000000000000000000000000000000000000081525060036040518060400160405280600681526020017f7a68656c6c6f000000000000000000000000000000000000000000000000000081525061263d909392919063ffffffff16565b151514611da3576040517f08c379a0000000000000000000000000000000000000000000000000000000008152600401611d9a90612c17565b60405180910390fd5b60001515611e2760006040518060400160405280600881526020017f30783031303230330000000000000000000000000000000000000000000000008152506040518060400160405280600c81526020017f30783031303230333030303000000000000000000000000000000000000000008152506125e79092919063ffffffff16565b151514611e69576040517f08c379a0000000000000000000000000000000000000000000000000000000008152600401611e6090613767565b60405180910390fd5b565b7f303132333435363738396162636465663031323334353637383961626364656660001b611ed860006040518060400160405280602081526020017f303132333435363738396162636465663031323334353637383961626364656681525061267890919063ffffffff16565b14611f18576040517f08c379a0000000000000000000000000000000000000000000000000000000008152600401611f0f906137d3565b60405180910390fd5b565b616263611f6660016040518060400160405280600381526020017f61626300000000000000000000000000000000000000000000000000000000008152506126a390919063ffffffff16565b61ffff1614611faa576040517f08c379a0000000000000000000000000000000000000000000000000000000008152600401611fa19061383f565b60405180910390fd5b565b60008251601483611fbd9190613898565b1115611fc857600080fd5b7fffffffffffffffffffffffffffffffffffffffff0000000000000000000000008260208501015116905092915050565b6060835182846120099190613898565b111561201457600080fd5b60008267ffffffffffffffff8111156120305761202f6138cc565b5b6040519080825280601f01601f1916602001820160405280156120625781602001600182028036833780820191505090505b50905060008060208301915085602088010190506120818282876126d2565b8293505050509392505050565b6000825160048361209f9190613898565b11156120aa57600080fd5b63ffffffff8260048501015116905092915050565b60008282815181106120d4576120d36138fb565b5b602001015160f81c60f81b60f81c905092915050565b6000835182846120fa9190613898565b111561210557600080fd5b818360208601012090509392505050565b600061212a836000855185600087516123c2565b905092915050565b6000603482111561214257600080fd5b60008080600090505b848110156122765760008782886121629190613898565b81518110612173576121726138fb565b5b602001015160f81c60f81b9050603060f81b817effffffffffffffffffffffffffffffffffffffffffffffffffffffffffffff1916101580156121dc5750607a60f81b817effffffffffffffffffffffffffffffffffffffffffffffffffffffffffffff191611155b6121e557600080fd5b604051806080016040528060478152602001613cd46047913960308260f81c60ff16612211919061392a565b81518110612222576122216138fb565b5b602001015160f81c60f81b60f81c925060208360ff16111561224357600080fd5b600186612250919061392a565b820361225c5750612276565b8260ff16600585901b17935050808060010191505061214b565b506000600585612286919061395e565b9050600060088661229791906139cf565b036122ad578160ff16600584901b1792506123a2565b60026008866122bc91906139cf565b036122e85760028260ff16901c60ff16600384901b1792506002816122e1919061392a565b90506123a1565b60046008866122f791906139cf565b036123235760048260ff16901c60ff16600184901b17925060048161231c919061392a565b90506123a0565b600560088661233291906139cf565b0361235e5760018260ff16901c60ff16600484901b179250600181612357919061392a565b905061239f565b600760088661236d91906139cf565b036123995760038260ff16901c60ff16600284901b179250600381612392919061392a565b905061239e565b600080fd5b5b5b5b5b806101006123b0919061392a565b83901b60001b93505050509392505050565b6000865185876123d29190613898565b11156124235784866123e49190613898565b87516040517f8a3c1cfb00000000000000000000000000000000000000000000000000000000815260040161241a929190613a0f565b60405180910390fd5b835182846124319190613898565b11156124825781836124439190613898565b84516040517f8a3c1cfb000000000000000000000000000000000000000000000000000000008152600401612479929190613a0f565b60405180910390fd5b600085905085831015612493578290505b600080602089018a019150602086018701905060005b838110156125a357600080845191508351905080821461256f576000602084886124d3919061392a565b10612500577fffffffffffffffffffffffffffffffffffffffffffffffffffffffffffffffff9050612540565b6001876020866125109190613898565b61251a919061392a565b6008612526919061395e565b60026125329190613b6b565b61253c919061392a565b1990505b60008183168285166125529190613bc0565b90506000811461256c5780985050505050505050506125b6565b50505b60208561257c9190613898565b945060208461258b9190613898565b9350505060208161259c9190613898565b90506124a9565b5084886125b09190613bc0565b93505050505b9695505050505050565b6000815183511480156125df57506125de8360008460008751612619565b5b905092915050565b60008151836125f69190613898565b8451148015612610575061260f84848460008651612619565b5b90509392505050565b60006126268484846120ea565b6126318787856120ea565b14905095945050505050565b60006126568383848651612651919061392a565b6120ea565b61266d8686878951612668919061392a565b6120ea565b149050949350505050565b600082516020836126899190613898565b111561269457600080fd5b81602084010151905092915050565b600082516002836126b49190613898565b11156126bf57600080fd5b61ffff8260028501015116905092915050565b5b6020811061271157815183526020836126ec9190613898565b92506020826126fb9190613898565b915060208161270a919061392a565b90506126d3565b60006001826020036101000a0390508019835116818551168181178652505050505050565b600082825260208201905092915050565b7f7265616442797465733230000000000000000000000000000000000000000000600082015250565b600061277d600b83612736565b915061278882612747565b602082019050919050565b600060208201905081810360008301526127ac81612770565b9050919050565b7f436f707920302062797465730000000000000000000000000000000000000000600082015250565b60006127e9600c83612736565b91506127f4826127b3565b602082019050919050565b60006020820190508181036000830152612818816127dc565b9050919050565b7f436f707920737562737472696e67000000000000000000000000000000000000600082015250565b6000612855600e83612736565b91506128608261281f565b602082019050919050565b6000602082019050818103600083015261288481612848565b9050919050565b7f436f70792077686f6c6520737472696e67000000000000000000000000000000600082015250565b60006128c1601183612736565b91506128cc8261288b565b602082019050919050565b600060208201905081810360008301526128f0816128b4565b9050919050565b7f526561642075696e742033320000000000000000000000000000000000000000600082015250565b600061292d600c83612736565b9150612938826128f7565b602082019050919050565b6000602082019050818103600083015261295c81612920565b9050919050565b7f61203d3d20307836310000000000000000000000000000000000000000000000600082015250565b6000612999600983612736565b91506129a482612963565b602082019050919050565b600060208201905081810360008301526129c88161298c565b9050919050565b7f496e636f72726563742068617368206f6620656d70747920737472696e670000600082015250565b6000612a05601e83612736565b9150612a10826129cf565b602082019050919050565b60006020820190508181036000830152612a34816129f8565b9050919050565b7f496e636f72726563742068617368206f662027666f6f27000000000000000000600082015250565b6000612a71601783612736565b9150612a7c82612a3b565b602082019050919050565b60006020820190508181036000830152612aa081612a64565b9050919050565b7f436f6d7061726520657175616c00000000000000000000000000000000000000600082015250565b6000612add600d83612736565b9150612ae882612aa7565b602082019050919050565b60006020820190508181036000830152612b0c81612ad0565b9050919050565b7f436f6d7061726520646966666572656e742076616c756520776974682073616d60008201527f65206c656e677468000000000000000000000000000000000000000000000000602082015250565b6000612b6f602883612736565b9150612b7a82612b13565b604082019050919050565b60006020820190508181036000830152612b9e81612b62565b9050919050565b7f436f6d7061726520646966666572656e742076616c75652077697468206d756c60008201527f7469706c65206c656e6774680000000000000000000000000000000000000000602082015250565b6000612c01602c83612736565b9150612c0c82612ba5565b604082019050919050565b60006020820190508181036000830152612c3081612bf4565b9050919050565b7f436f6d7061726520646966666572656e742076616c756520776974682064696660008201527f666572656e74206c656e67746800000000000000000000000000000000000000602082015250565b6000612c93602d83612736565b9150612c9e82612c37565b604082019050919050565b60006020820190508181036000830152612cc281612c86565b9050919050565b7f436f6d7061726573206d6f7265207468616e2033322062797465732063686172600082015250565b6000612cff602083612736565b9150612d0a82612cc9565b602082019050919050565b60006020820190508181036000830152612d2e81612cf2565b9050919050565b7f436f6d70617265206c6f6e672063686172207769746820646966666572656e6360008201527f6520617420737461727400000000000000000000000000000000000000000000602082015250565b6000612d91602a83612736565b9150612d9c82612d35565b604082019050919050565b60006020820190508181036000830152612dc081612d84565b9050919050565b7f4465636f64652027612700000000000000000000000000000000000000000000600082015250565b6000612dfd600a83612736565b9150612e0882612dc7565b602082019050919050565b60006020820190508181036000830152612e2c81612df0565b9050919050565b7f4465636f64652027616127000000000000000000000000000000000000000000600082015250565b6000612e69600b83612736565b9150612e7482612e33565b602082019050919050565b60006020820190508181036000830152612e9881612e5c565b9050919050565b7f4465636f64652027616161270000000000000000000000000000000000000000600082015250565b6000612ed5600c83612736565b9150612ee082612e9f565b602082019050919050565b60006020820190508181036000830152612f0481612ec8565b9050919050565b7f4465636f64652027616161612700000000000000000000000000000000000000600082015250565b6000612f41600d83612736565b9150612f4c82612f0b565b602082019050919050565b60006020820190508181036000830152612f7081612f34565b9050919050565b7f4465636f64652027616161616127000000000000000000000000000000000000600082015250565b6000612fad600e83612736565b9150612fb882612f77565b602082019050919050565b60006020820190508181036000830152612fdc81612fa0565b9050919050565b7f4465636f64652027616161616127206c6f776572636173650000000000000000600082015250565b6000613019601883612736565b915061302482612fe3565b602082019050919050565b600060208201905081810360008301526130488161300c565b9050919050565b7f4465636f646520616c7068616265740000000000000000000000000000000000600082015250565b6000613085600f83612736565b91506130908261304f565b602082019050919050565b600060208201905081810360008301526130b481613078565b9050919050565b7f4465636f646520616c706861626574206c6f7765726361736500000000000000600082015250565b60006130f1601983612736565b91506130fc826130bb565b602082019050919050565b60006020820190508181036000830152613120816130e4565b9050919050565b7f4465636f64652033322a27612700000000000000000000000000000000000000600082015250565b600061315d600d83612736565b915061316882613127565b602082019050919050565b6000602082019050818103600083015261318c81613150565b9050919050565b7f4465636f6465207265616c206279746573333268657800000000000000000000600082015250565b60006131c9601683612736565b91506131d482613193565b602082019050919050565b600060208201905081810360008301526131f8816131bc565b9050919050565b7f436f6d706172652073616d65206c656e67746800000000000000000000000000600082015250565b6000613235601383612736565b9150613240826131ff565b602082019050919050565b6000602082019050818103600083015261326481613228565b9050919050565b7f436f6d7061726520646966666572656e74206c656e6774680000000000000000600082015250565b60006132a1601883612736565b91506132ac8261326b565b602082019050919050565b600060208201905081810360008301526132d081613294565b9050919050565b7f436f6d706172652073616d65207769746820646966666572656e74206f66667360008201527f6574000000000000000000000000000000000000000000000000000000000000602082015250565b6000613333602283612736565b915061333e826132d7565b604082019050919050565b6000602082019050818103600083015261336281613326565b9050919050565b7f436f6d7061726520646966666572656e74206c6f6e6720737472696e6773207360008201527f616d65206c656e67746820736d616c6c6572207061727469616c206c656e677460208201527f68207768696368206d75737420626520657175616c0000000000000000000000604082015250565b60006133eb605583612736565b91506133f682613369565b606082019050919050565b6000602082019050818103600083015261341a816133de565b9050919050565b7f436f6d70617265206c6f6e6720737472696e67732073616d65206c656e67746860008201527f20646966666572656e74207061727469616c206c656e67746800000000000000602082015250565b600061347d603983612736565b915061348882613421565b604082019050919050565b600060208201905081810360008301526134ac81613470565b9050919050565b7f436f6d7061726520737472696e67732065786163746c7920333220636861726160008201527f6374657273206c6f6e6700000000000000000000000000000000000000000000602082015250565b600061350f602a83612736565b915061351a826134b3565b604082019050919050565b6000602082019050818103600083015261353e81613502565b9050919050565b7f537472696e6720657175616c6974790000000000000000000000000000000000600082015250565b600061357b600f83612736565b915061358682613545565b602082019050919050565b600060208201905081810360008301526135aa8161356e565b9050919050565b7f537472696e6720696e657175616c697479000000000000000000000000000000600082015250565b60006135e7601183612736565b91506135f2826135b1565b602082019050919050565b60006020820190508181036000830152613616816135da565b9050919050565b7f537562737472696e6720746f20737472696e6720657175616c69747900000000600082015250565b6000613653601c83612736565b915061365e8261361d565b602082019050919050565b6000602082019050818103600083015261368281613646565b9050919050565b7f537562737472696e6720746f20737562737472696e6720657175616c69747900600082015250565b60006136bf601f83612736565b91506136ca82613689565b602082019050919050565b600060208201905081810360008301526136ee816136b2565b9050919050565b7f436f6d706172652077697468206f666673657420616e6420747261696c696e6760008201527f2062797465730000000000000000000000000000000000000000000000000000602082015250565b6000613751602683612736565b915061375c826136f5565b604082019050919050565b6000602082019050818103600083015261378081613744565b9050919050565b7f7265616442797465733332000000000000000000000000000000000000000000600082015250565b60006137bd600b83612736565b91506137c882613787565b602082019050919050565b600060208201905081810360008301526137ec816137b0565b9050919050565b7f526561642075696e742031360000000000000000000000000000000000000000600082015250565b6000613829600c83612736565b9150613834826137f3565b602082019050919050565b600060208201905081810360008301526138588161381c565b9050919050565b6000819050919050565b7f4e487b7100000000000000000000000000000000000000000000000000000000600052601160045260246000fd5b60006138a38261385f565b91506138ae8361385f565b92508282019050808211156138c6576138c5613869565b5b92915050565b7f4e487b7100000000000000000000000000000000000000000000000000000000600052604160045260246000fd5b7f4e487b7100000000000000000000000000000000000000000000000000000000600052603260045260246000fd5b60006139358261385f565b91506139408361385f565b925082820390508181111561395857613957613869565b5b92915050565b60006139698261385f565b91506139748361385f565b92508282026139828161385f565b9150828204841483151761399957613998613869565b5b5092915050565b7f4e487b7100000000000000000000000000000000000000000000000000000000600052601260045260246000fd5b60006139da8261385f565b91506139e58361385f565b9250826139f5576139f46139a0565b5b828206905092915050565b613a098161385f565b82525050565b6000604082019050613a246000830185613a00565b613a316020830184613a00565b9392505050565b60008160011c9050919050565b6000808291508390505b6001851115613a8f57808604811115613a6b57613a6a613869565b5b6001851615613a7a5780820291505b8081029050613a8885613a38565b9450613a4f565b94509492505050565b600082613aa85760019050613b64565b81613ab65760009050613b64565b8160018114613acc5760028114613ad657613b05565b6001915050613b64565b60ff841115613ae857613ae7613869565b5b8360020a915084821115613aff57613afe613869565b5b50613b64565b5060208310610133831016604e8410600b8410161715613b3a5782820a905083811115613b3557613b34613869565b5b613b64565b613b478484846001613a45565b92509050818404811115613b5e57613b5d613869565b5b81810290505b9392505050565b6000613b768261385f565b9150613b818361385f565b9250613bae7fffffffffffffffffffffffffffffffffffffffffffffffffffffffffffffffff8484613a98565b905092915050565b6000819050919050565b6000613bcb82613bb6565b9150613bd683613bb6565b9250828203905081811260008412168282136000851215161715613bfd57613bfc613869565b5b9291505056fe633568363670333563706a6d6771626164646d3671726a6665316f6e3473726b656c72376575337066384335474d324f42314335474d324f42314335474d324f42314335474d324f42314335474d324f42314335474d324f4231433547472062737434686c6a653772306f38633870346f38713538326c6d30656a6d697174076d61746f6b656e0378797a00323233343536373839303132333435363738393031323334353637383930313233343132333435363738393031323334353637383930313233343536373839303132333400010203040506070809ffffffffffffff0a0b0c0d0e0f101112131415161718191a1b1c1d1e1fffffffffffffffffffff0a0b0c0d0e0f101112131415161718191a1b1c1d1e1f30313233343536373839303132333435303132333435363738393031323334356162433548363650333543504a4d4751424144444d3651524a4645314f4e3453524b454c523745553350463830313233343536373839303132333435303132333435363738393031323334356161a26469706673582212209d7210a74689c12fd841f3ee39cceef8d576c37fe24a4eb90fc8804a930af7d364736f6c634300081b0033",
			"opcodes": "PUSH1 0x80 PUSH1 0x40 MSTORE CALLVALUE DUP1 ISZERO PUSH1 0xF JUMPI PUSH1 0x0 DUP1 REVERT JUMPDEST POP PUSH2 0x3DBE DUP1 PUSH2 0x1F PUSH1 0x0 CODECOPY PUSH1 0x0 RETURN INVALID PUSH1 0x80 PUSH1 0x40 MSTORE CALLVALUE DUP1 ISZERO PUSH2 0x10 JUMPI PUSH1 0x0 DUP1 REVERT JUMPDEST POP PUSH1 0x4 CALLDATASIZE LT PUSH2 0xA8 JUMPI PUSH1 0x0 CALLDATALOAD PUSH1 0xE0 SHR DUP1 PUSH4 0x809A6173 GT PUSH2 0x71 JUMPI DUP1 PUSH4 0x809A6173 EQ PUSH2 0xDF JUMPI DUP1 PUSH4 0x83D31DF6 EQ PUSH2 0xE9 JUMPI DUP1 PUSH4 0x878AB4AE EQ PUSH2 0xF3 JUMPI DUP1 PUSH4 0xC80094B3 EQ PUSH2 0xFD JUMPI DUP1 PUSH4 0xE77975CF EQ PUSH2 0x107 JUMPI DUP1 PUSH4 0xF3CBDA46 EQ PUSH2 0x111 JUMPI PUSH2 0xA8 JUMP JUMPDEST DUP1 PUSH3 0x5AA6F9 EQ PUSH2 0xAD JUMPI DUP1 PUSH4 0x98E6232 EQ PUSH2 0xB7 JUMPI DUP1 PUSH4 0x1B8E1B81 EQ PUSH2 0xC1 JUMPI DUP1 PUSH4 0x2E72F9A9 EQ PUSH2 0xCB JUMPI DUP1 PUSH4 0x673DCC73 EQ PUSH2 0xD5 JUMPI JUMPDEST PUSH1 0x0 DUP1 REVERT JUMPDEST PUSH2 0xB5 PUSH2 0x11B JUMP JUMPDEST STOP JUMPDEST PUSH2 0xBF PUSH2 0x1D9 JUMP JUMPDEST STOP JUMPDEST PUSH2 0xC9 PUSH2 0x4F4 JUMP JUMPDEST STOP JUMPDEST PUSH2 0xD3 PUSH2 0x58A JUMP JUMPDEST STOP JUMPDEST PUSH2 0xDD PUSH2 0x6A8 JUMP JUMPDEST STOP JUMPDEST PUSH2 0xE7 PUSH2 0x892 JUMP JUMPDEST STOP JUMPDEST PUSH2 0xF1 PUSH2 0xE2C JUMP JUMPDEST STOP JUMPDEST PUSH2 0xFB PUSH2 0x154C JUMP JUMPDEST STOP JUMPDEST PUSH2 0x105 PUSH2 0x19C2 JUMP JUMPDEST STOP JUMPDEST PUSH2 0x10F PUSH2 0x1E6B JUMP JUMPDEST STOP JUMPDEST PUSH2 0x119 PUSH2 0x1F1A JUMP JUMPDEST STOP JUMPDEST PUSH32 0x62636465666768696A6B6C6D6E6F707172737475000000000000000000000000 PUSH1 0x0 SHL PUSH2 0x188 PUSH1 0x1 PUSH1 0x40 MLOAD DUP1 PUSH1 0x40 ADD PUSH1 0x40 MSTORE DUP1 PUSH1 0x16 DUP2 MSTORE PUSH1 0x20 ADD PUSH32 0x6162636465666768696A6B6C6D6E6F7071727374757600000000000000000000 DUP2 MSTORE POP PUSH2 0x1FAC SWAP1 SWAP2 SWAP1 PUSH4 0xFFFFFFFF AND JUMP JUMPDEST PUSH12 0xFFFFFFFFFFFFFFFFFFFFFFFF NOT AND EQ PUSH2 0x1D7 JUMPI PUSH1 0x40 MLOAD PUSH32 0x8C379A000000000000000000000000000000000000000000000000000000000 DUP2 MSTORE PUSH1 0x4 ADD PUSH2 0x1CE SWAP1 PUSH2 0x2793 JUMP JUMPDEST PUSH1 0x40 MLOAD DUP1 SWAP2 SUB SWAP1 REVERT JUMPDEST JUMP JUMPDEST PUSH1 0x40 MLOAD DUP1 PUSH1 0x20 ADD PUSH1 0x40 MSTORE DUP1 PUSH1 0x0 DUP2 MSTORE POP DUP1 MLOAD SWAP1 PUSH1 0x20 ADD KECCAK256 PUSH2 0x23B PUSH1 0x0 DUP1 PUSH1 0x40 MLOAD DUP1 PUSH1 0x40 ADD PUSH1 0x40 MSTORE DUP1 PUSH1 0x5 DUP2 MSTORE PUSH1 0x20 ADD PUSH32 0x68656C6C6F000000000000000000000000000000000000000000000000000000 DUP2 MSTORE POP PUSH2 0x1FF9 SWAP1 SWAP3 SWAP2 SWAP1 PUSH4 0xFFFFFFFF AND JUMP JUMPDEST DUP1 MLOAD SWAP1 PUSH1 0x20 ADD KECCAK256 EQ PUSH2 0x282 JUMPI PUSH1 0x40 MLOAD PUSH32 0x8C379A000000000000000000000000000000000000000000000000000000000 DUP2 MSTORE PUSH1 0x4 ADD PUSH2 0x279 SWAP1 PUSH2 0x27FF JUMP JUMPDEST PUSH1 0x40 MLOAD DUP1 SWAP2 SUB SWAP1 REVERT JUMPDEST PUSH1 0x40 MLOAD DUP1 PUSH1 0x40 ADD PUSH1 0x40 MSTORE DUP1 PUSH1 0x4 DUP2 MSTORE PUSH1 0x20 ADD PUSH32 0x68656C6C00000000000000000000000000000000000000000000000000000000 DUP2 MSTORE POP DUP1 MLOAD SWAP1 PUSH1 0x20 ADD KECCAK256 PUSH2 0x30B PUSH1 0x0 PUSH1 0x4 PUSH1 0x40 MLOAD DUP1 PUSH1 0x40 ADD PUSH1 0x40 MSTORE DUP1 PUSH1 0x5 DUP2 MSTORE PUSH1 0x20 ADD PUSH32 0x68656C6C6F000000000000000000000000000000000000000000000000000000 DUP2 MSTORE POP PUSH2 0x1FF9 SWAP1 SWAP3 SWAP2 SWAP1 PUSH4 0xFFFFFFFF AND JUMP JUMPDEST DUP1 MLOAD SWAP1 PUSH1 0x20 ADD KECCAK256 EQ PUSH2 0x352 JUMPI PUSH1 0x40 MLOAD PUSH32 0x8C379A000000000000000000000000000000000000000000000000000000000 DUP2 MSTORE PUSH1 0x4 ADD PUSH2 0x349 SWAP1 PUSH2 0x286B JUMP JUMPDEST PUSH1 0x40 MLOAD DUP1 SWAP2 SUB SWAP1 REVERT JUMPDEST PUSH1 0x40 MLOAD DUP1 PUSH1 0x40 ADD PUSH1 0x40 MSTORE DUP1 PUSH1 0x4 DUP2 MSTORE PUSH1 0x20 ADD PUSH32 0x656C6C6F00000000000000000000000000000000000000000000000000000000 DUP2 MSTORE POP DUP1 MLOAD SWAP1 PUSH1 0x20 ADD KECCAK256 PUSH2 0x3DB PUSH1 0x1 PUSH1 0x4 PUSH1 0x40 MLOAD DUP1 PUSH1 0x40 ADD PUSH1 0x40 MSTORE DUP1 PUSH1 0x5 DUP2 MSTORE PUSH1 0x20 ADD PUSH32 0x68656C6C6F000000000000000000000000000000000000000000000000000000 DUP2 MSTORE POP PUSH2 0x1FF9 SWAP1 SWAP3 SWAP2 SWAP1 PUSH4 0xFFFFFFFF AND JUMP JUMPDEST DUP1 MLOAD SWAP1 PUSH1 0x20 ADD KECCAK256 EQ PUSH2 0x422 JUMPI PUSH1 0x40 MLOAD PUSH32 0x8C379A000000000000000000000000000000000000000000000000000000000 DUP2 MSTORE PUSH1 0x4 ADD PUSH2 0x419 SWAP1 PUSH2 0x286B JUMP JUMPDEST PUSH1 0x40 MLOAD DUP1 SWAP2 SUB SWAP1 REVERT JUMPDEST PUSH1 0x40 MLOAD DUP1 PUSH1 0x40 ADD PUSH1 0x40 MSTORE DUP1 PUSH1 0x5 DUP2 MSTORE PUSH1 0x20 ADD PUSH32 0x68656C6C6F000000000000000000000000000000000000000000000000000000 DUP2 MSTORE POP DUP1 MLOAD SWAP1 PUSH1 0x20 ADD KECCAK256 PUSH2 0x4AB PUSH1 0x0 PUSH1 0x5 PUSH1 0x40 MLOAD DUP1 PUSH1 0x40 ADD PUSH1 0x40 MSTORE DUP1 PUSH1 0x5 DUP2 MSTORE PUSH1 0x20 ADD PUSH32 0x68656C6C6F000000000000000000000000000000000000000000000000000000 DUP2 MSTORE POP PUSH2 0x1FF9 SWAP1 SWAP3 SWAP2 SWAP1 PUSH4 0xFFFFFFFF AND JUMP JUMPDEST DUP1 MLOAD SWAP1 PUSH1 0x20 ADD KECCAK256 EQ PUSH2 0x4F2 JUMPI PUSH1 0x40 MLOAD PUSH32 0x8C379A000000000000000000000000000000000000000000000000000000000 DUP2 MSTORE PUSH1 0x4 ADD PUSH2 0x4E9 SWAP1 PUSH2 0x28D7 JUMP JUMPDEST PUSH1 0x40 MLOAD DUP1 SWAP2 SUB SWAP1 REVERT JUMPDEST JUMP JUMPDEST PUSH4 0x62636465 PUSH2 0x542 PUSH1 0x1 PUSH1 0x40 MLOAD DUP1 PUSH1 0x40 ADD PUSH1 0x40 MSTORE DUP1 PUSH1 0x5 DUP2 MSTORE PUSH1 0x20 ADD PUSH32 0x6162636465000000000000000000000000000000000000000000000000000000 DUP2 MSTORE POP PUSH2 0x208E SWAP1 SWAP2 SWAP1 PUSH4 0xFFFFFFFF AND JUMP JUMPDEST PUSH4 0xFFFFFFFF AND EQ PUSH2 0x588 JUMPI PUSH1 0x40 MLOAD PUSH32 0x8C379A000000000000000000000000000000000000000000000000000000000 DUP2 MSTORE PUSH1 0x4 ADD PUSH2 0x57F SWAP1 PUSH2 0x2943 JUMP JUMPDEST PUSH1 0x40 MLOAD DUP1 SWAP2 SUB SWAP1 REVERT JUMPDEST JUMP JUMPDEST PUSH1 0x61 PUSH2 0x5D5 PUSH1 0x0 PUSH1 0x40 MLOAD DUP1 PUSH1 0x40 ADD PUSH1 0x40 MSTORE DUP1 PUSH1 0x1 DUP2 MSTORE PUSH1 0x20 ADD PUSH32 0x6100000000000000000000000000000000000000000000000000000000000000 DUP2 MSTORE POP PUSH2 0x20BF SWAP1 SWAP2 SWAP1 PUSH4 0xFFFFFFFF AND JUMP JUMPDEST PUSH1 0xFF AND EQ PUSH2 0x618 JUMPI PUSH1 0x40 MLOAD PUSH32 0x8C379A000000000000000000000000000000000000000000000000000000000 DUP2 MSTORE PUSH1 0x4 ADD PUSH2 0x60F SWAP1 PUSH2 0x29AF JUMP JUMPDEST PUSH1 0x40 MLOAD DUP1 SWAP2 SUB SWAP1 REVERT JUMPDEST PUSH1 0x61 PUSH2 0x663 PUSH1 0x1 PUSH1 0x40 MLOAD DUP1 PUSH1 0x40 ADD PUSH1 0x40 MSTORE DUP1 PUSH1 0x2 DUP2 MSTORE PUSH1 0x20 ADD PUSH32 0x6261000000000000000000000000000000000000000000000000000000000000 DUP2 MSTORE POP PUSH2 0x20BF SWAP1 SWAP2 SWAP1 PUSH4 0xFFFFFFFF AND JUMP JUMPDEST PUSH1 0xFF AND EQ PUSH2 0x6A6 JUMPI PUSH1 0x40 MLOAD PUSH32 0x8C379A000000000000000000000000000000000000000000000000000000000 DUP2 MSTORE PUSH1 0x4 ADD PUSH2 0x69D SWAP1 PUSH2 0x29AF JUMP JUMPDEST PUSH1 0x40 MLOAD DUP1 SWAP2 SUB SWAP1 REVERT JUMPDEST JUMP JUMPDEST PUSH32 0xC5D2460186F7233C927E7DB2DCC703C0E500B653CA82273B7BFAD8045D85A470 PUSH1 0x0 SHL PUSH2 0x6F1 PUSH1 0x0 DUP1 PUSH1 0x40 MLOAD DUP1 PUSH1 0x20 ADD PUSH1 0x40 MSTORE DUP1 PUSH1 0x0 DUP2 MSTORE POP PUSH2 0x20EA SWAP1 SWAP3 SWAP2 SWAP1 PUSH4 0xFFFFFFFF AND JUMP JUMPDEST EQ PUSH2 0x731 JUMPI PUSH1 0x40 MLOAD PUSH32 0x8C379A000000000000000000000000000000000000000000000000000000000 DUP2 MSTORE PUSH1 0x4 ADD PUSH2 0x728 SWAP1 PUSH2 0x2A1B JUMP JUMPDEST PUSH1 0x40 MLOAD DUP1 SWAP2 SUB SWAP1 REVERT JUMPDEST PUSH32 0x41B1A0649752AF1B28B3DC29A1556EEE781E4A4C3A1F7F53F90FA834DE098C4D PUSH1 0x0 SHL PUSH2 0x7A1 PUSH1 0x0 PUSH1 0x3 PUSH1 0x40 MLOAD DUP1 PUSH1 0x40 ADD PUSH1 0x40 MSTORE DUP1 PUSH1 0x3 DUP2 MSTORE PUSH1 0x20 ADD PUSH32 0x666F6F0000000000000000000000000000000000000000000000000000000000 DUP2 MSTORE POP PUSH2 0x20EA SWAP1 SWAP3 SWAP2 SWAP1 PUSH4 0xFFFFFFFF AND JUMP JUMPDEST EQ PUSH2 0x7E1 JUMPI PUSH1 0x40 MLOAD PUSH32 0x8C379A000000000000000000000000000000000000000000000000000000000 DUP2 MSTORE PUSH1 0x4 ADD PUSH2 0x7D8 SWAP1 PUSH2 0x2A87 JUMP JUMPDEST PUSH1 0x40 MLOAD DUP1 SWAP2 SUB SWAP1 REVERT JUMPDEST PUSH32 0xC5D2460186F7233C927E7DB2DCC703C0E500B653CA82273B7BFAD8045D85A470 PUSH1 0x0 SHL PUSH2 0x850 PUSH1 0x0 DUP1 PUSH1 0x40 MLOAD DUP1 PUSH1 0x40 ADD PUSH1 0x40 MSTORE DUP1 PUSH1 0x3 DUP2 MSTORE PUSH1 0x20 ADD PUSH32 0x666F6F0000000000000000000000000000000000000000000000000000000000 DUP2 MSTORE POP PUSH2 0x20EA SWAP1 SWAP3 SWAP2 SWAP1 PUSH4 0xFFFFFFFF AND JUMP JUMPDEST EQ PUSH2 0x890 JUMPI PUSH1 0x40 MLOAD PUSH32 0x8C379A000000000000000000000000000000000000000000000000000000000 DUP2 MSTORE PUSH1 0x4 ADD PUSH2 0x887 SWAP1 PUSH2 0x2A1B JUMP JUMPDEST PUSH1 0x40 MLOAD DUP1 SWAP2 SUB SWAP1 REVERT JUMPDEST JUMP JUMPDEST PUSH1 0x1 ISZERO ISZERO PUSH1 0x0 PUSH2 0x915 PUSH1 0x40 MLOAD DUP1 PUSH1 0x40 ADD PUSH1 0x40 MSTORE DUP1 PUSH1 0x1 DUP2 MSTORE PUSH1 0x20 ADD PUSH32 0x6100000000000000000000000000000000000000000000000000000000000000 DUP2 MSTORE POP PUSH1 0x40 MLOAD DUP1 PUSH1 0x40 ADD PUSH1 0x40 MSTORE DUP1 PUSH1 0x1 DUP2 MSTORE PUSH1 0x20 ADD PUSH32 0x6100000000000000000000000000000000000000000000000000000000000000 DUP2 MSTORE POP PUSH2 0x2116 SWAP1 SWAP2 SWAP1 PUSH4 0xFFFFFFFF AND JUMP JUMPDEST EQ ISZERO ISZERO EQ PUSH2 0x958 JUMPI PUSH1 0x40 MLOAD PUSH32 0x8C379A000000000000000000000000000000000000000000000000000000000 DUP2 MSTORE PUSH1 0x4 ADD PUSH2 0x94F SWAP1 PUSH2 0x2AF3 JUMP JUMPDEST PUSH1 0x40 MLOAD DUP1 SWAP2 SUB SWAP1 REVERT JUMPDEST PUSH1 0x1 ISZERO ISZERO PUSH1 0x0 PUSH2 0x9DB PUSH1 0x40 MLOAD DUP1 PUSH1 0x40 ADD PUSH1 0x40 MSTORE DUP1 PUSH1 0x1 DUP2 MSTORE PUSH1 0x20 ADD PUSH32 0x6200000000000000000000000000000000000000000000000000000000000000 DUP2 MSTORE POP PUSH1 0x40 MLOAD DUP1 PUSH1 0x40 ADD PUSH1 0x40 MSTORE DUP1 PUSH1 0x1 DUP2 MSTORE PUSH1 0x20 ADD PUSH32 0x6100000000000000000000000000000000000000000000000000000000000000 DUP2 MSTORE POP PUSH2 0x2116 SWAP1 SWAP2 SWAP1 PUSH4 0xFFFFFFFF AND JUMP JUMPDEST SLT ISZERO ISZERO EQ PUSH2 0xA1E JUMPI PUSH1 0x40 MLOAD PUSH32 0x8C379A000000000000000000000000000000000000000000000000000000000 DUP2 MSTORE PUSH1 0x4 ADD PUSH2 0xA15 SWAP1 PUSH2 0x2B85 JUMP JUMPDEST PUSH1 0x40 MLOAD DUP1 SWAP2 SUB SWAP1 REVERT JUMPDEST PUSH1 0x1 ISZERO ISZERO PUSH1 0x0 PUSH2 0xAA1 PUSH1 0x40 MLOAD DUP1 PUSH1 0x40 ADD PUSH1 0x40 MSTORE DUP1 PUSH1 0x1 DUP2 MSTORE PUSH1 0x20 ADD PUSH32 0x6100000000000000000000000000000000000000000000000000000000000000 DUP2 MSTORE POP PUSH1 0x40 MLOAD DUP1 PUSH1 0x40 ADD PUSH1 0x40 MSTORE DUP1 PUSH1 0x1 DUP2 MSTORE PUSH1 0x20 ADD PUSH32 0x6200000000000000000000000000000000000000000000000000000000000000 DUP2 MSTORE POP PUSH2 0x2116 SWAP1 SWAP2 SWAP1 PUSH4 0xFFFFFFFF AND JUMP JUMPDEST SGT ISZERO ISZERO EQ PUSH2 0xAE4 JUMPI PUSH1 0x40 MLOAD PUSH32 0x8C379A000000000000000000000000000000000000000000000000000000000 DUP2 MSTORE PUSH1 0x4 ADD PUSH2 0xADB SWAP1 PUSH2 0x2B85 JUMP JUMPDEST PUSH1 0x40 MLOAD DUP1 SWAP2 SUB SWAP1 REVERT JUMPDEST PUSH1 0x1 ISZERO ISZERO PUSH1 0x0 PUSH2 0xB67 PUSH1 0x40 MLOAD DUP1 PUSH1 0x40 ADD PUSH1 0x40 MSTORE DUP1 PUSH1 0x2 DUP2 MSTORE PUSH1 0x20 ADD PUSH32 0x6162000000000000000000000000000000000000000000000000000000000000 DUP2 MSTORE POP PUSH1 0x40 MLOAD DUP1 PUSH1 0x40 ADD PUSH1 0x40 MSTORE DUP1 PUSH1 0x2 DUP2 MSTORE PUSH1 0x20 ADD PUSH32 0x6161000000000000000000000000000000000000000000000000000000000000 DUP2 MSTORE POP PUSH2 0x2116 SWAP1 SWAP2 SWAP1 PUSH4 0xFFFFFFFF AND JUMP JUMPDEST SLT ISZERO ISZERO EQ PUSH2 0xBAA JUMPI PUSH1 0x40 MLOAD PUSH32 0x8C379A000000000000000000000000000000000000000000000000000000000 DUP2 MSTORE PUSH1 0x4 ADD PUSH2 0xBA1 SWAP1 PUSH2 0x2C17 JUMP JUMPDEST PUSH1 0x40 MLOAD DUP1 SWAP2 SUB SWAP1 REVERT JUMPDEST PUSH1 0x1 ISZERO ISZERO PUSH1 0x0 PUSH2 0xC2D PUSH1 0x40 MLOAD DUP1 PUSH1 0x40 ADD PUSH1 0x40 MSTORE DUP1 PUSH1 0x2 DUP2 MSTORE PUSH1 0x20 ADD PUSH32 0x6161000000000000000000000000000000000000000000000000000000000000 DUP2 MSTORE POP PUSH1 0x40 MLOAD DUP1 PUSH1 0x40 ADD PUSH1 0x40 MSTORE DUP1 PUSH1 0x1 DUP2 MSTORE PUSH1 0x20 ADD PUSH32 0x6100000000000000000000000000000000000000000000000000000000000000 DUP2 MSTORE POP PUSH2 0x2116 SWAP1 SWAP2 SWAP1 PUSH4 0xFFFFFFFF AND JUMP JUMPDEST SLT ISZERO ISZERO EQ PUSH2 0xC70 JUMPI PUSH1 0x40 MLOAD PUSH32 0x8C379A000000000000000000000000000000000000000000000000000000000 DUP2 MSTORE PUSH1 0x4 ADD PUSH2 0xC67 SWAP1 PUSH2 0x2CA9 JUMP JUMPDEST PUSH1 0x40 MLOAD DUP1 SWAP2 SUB SWAP1 REVERT JUMPDEST PUSH1 0x1 ISZERO ISZERO PUSH1 0x0 PUSH2 0xCF3 PUSH1 0x40 MLOAD DUP1 PUSH1 0x40 ADD PUSH1 0x40 MSTORE DUP1 PUSH1 0x1 DUP2 MSTORE PUSH1 0x20 ADD PUSH32 0x6100000000000000000000000000000000000000000000000000000000000000 DUP2 MSTORE POP PUSH1 0x40 MLOAD DUP1 PUSH1 0x40 ADD PUSH1 0x40 MSTORE DUP1 PUSH1 0x2 DUP2 MSTORE PUSH1 0x20 ADD PUSH32 0x6161000000000000000000000000000000000000000000000000000000000000 DUP2 MSTORE POP PUSH2 0x2116 SWAP1 SWAP2 SWAP1 PUSH4 0xFFFFFFFF AND JUMP JUMPDEST SGT ISZERO ISZERO EQ PUSH2 0xD36 JUMPI PUSH1 0x40 MLOAD PUSH32 0x8C379A000000000000000000000000000000000000000000000000000000000 DUP2 MSTORE PUSH1 0x4 ADD PUSH2 0xD2D SWAP1 PUSH2 0x2CA9 JUMP JUMPDEST PUSH1 0x40 MLOAD DUP1 SWAP2 SUB SWAP1 REVERT JUMPDEST PUSH1 0x0 PUSH1 0x40 MLOAD DUP1 PUSH1 0x60 ADD PUSH1 0x40 MSTORE DUP1 PUSH1 0x22 DUP2 MSTORE PUSH1 0x20 ADD PUSH2 0x3CB2 PUSH1 0x22 SWAP2 CODECOPY SWAP1 POP PUSH1 0x1 ISZERO ISZERO PUSH1 0x0 PUSH2 0xD6C DUP4 DUP5 PUSH2 0x2116 SWAP1 SWAP2 SWAP1 PUSH4 0xFFFFFFFF AND JUMP JUMPDEST EQ ISZERO ISZERO EQ PUSH2 0xDAF JUMPI PUSH1 0x40 MLOAD PUSH32 0x8C379A000000000000000000000000000000000000000000000000000000000 DUP2 MSTORE PUSH1 0x4 ADD PUSH2 0xDA6 SWAP1 PUSH2 0x2D15 JUMP JUMPDEST PUSH1 0x40 MLOAD DUP1 SWAP2 SUB SWAP1 REVERT JUMPDEST PUSH1 0x0 PUSH1 0x40 MLOAD DUP1 PUSH1 0x60 ADD PUSH1 0x40 MSTORE DUP1 PUSH1 0x22 DUP2 MSTORE PUSH1 0x20 ADD PUSH2 0x3C90 PUSH1 0x22 SWAP2 CODECOPY SWAP1 POP PUSH1 0x1 ISZERO ISZERO PUSH1 0x0 PUSH2 0xDE5 DUP4 DUP6 PUSH2 0x2116 SWAP1 SWAP2 SWAP1 PUSH4 0xFFFFFFFF AND JUMP JUMPDEST SLT ISZERO ISZERO EQ PUSH2 0xE28 JUMPI PUSH1 0x40 MLOAD PUSH32 0x8C379A000000000000000000000000000000000000000000000000000000000 DUP2 MSTORE PUSH1 0x4 ADD PUSH2 0xE1F SWAP1 PUSH2 0x2DA7 JUMP JUMPDEST PUSH1 0x40 MLOAD DUP1 SWAP2 SUB SWAP1 REVERT JUMPDEST POP POP JUMP JUMPDEST PUSH32 0x6100000000000000000000000000000000000000000000000000000000000000 PUSH31 0xFFFFFFFFFFFFFFFFFFFFFFFFFFFFFFFFFFFFFFFFFFFFFFFFFFFFFFFFFFFFFF NOT AND PUSH2 0xEBB PUSH1 0x0 PUSH1 0x2 PUSH1 0x40 MLOAD DUP1 PUSH1 0x40 ADD PUSH1 0x40 MSTORE DUP1 PUSH1 0x2 DUP2 MSTORE PUSH1 0x20 ADD PUSH32 0x4334000000000000000000000000000000000000000000000000000000000000 DUP2 MSTORE POP PUSH2 0x2132 SWAP1 SWAP3 SWAP2 SWAP1 PUSH4 0xFFFFFFFF AND JUMP JUMPDEST EQ PUSH2 0xEFB JUMPI PUSH1 0x40 MLOAD PUSH32 0x8C379A000000000000000000000000000000000000000000000000000000000 DUP2 MSTORE PUSH1 0x4 ADD PUSH2 0xEF2 SWAP1 PUSH2 0x2E13 JUMP JUMPDEST PUSH1 0x40 MLOAD DUP1 SWAP2 SUB SWAP1 REVERT JUMPDEST PUSH32 0x6161000000000000000000000000000000000000000000000000000000000000 PUSH30 0xFFFFFFFFFFFFFFFFFFFFFFFFFFFFFFFFFFFFFFFFFFFFFFFFFFFFFFFFFFFF NOT AND PUSH2 0xF89 PUSH1 0x0 PUSH1 0x4 PUSH1 0x40 MLOAD DUP1 PUSH1 0x40 ADD PUSH1 0x40 MSTORE DUP1 PUSH1 0x4 DUP2 MSTORE PUSH1 0x20 ADD PUSH32 0x4335474700000000000000000000000000000000000000000000000000000000 DUP2 MSTORE POP PUSH2 0x2132 SWAP1 SWAP3 SWAP2 SWAP1 PUSH4 0xFFFFFFFF AND JUMP JUMPDEST EQ PUSH2 0xFC9 JUMPI PUSH1 0x40 MLOAD PUSH32 0x8C379A000000000000000000000000000000000000000000000000000000000 DUP2 MSTORE PUSH1 0x4 ADD PUSH2 0xFC0 SWAP1 PUSH2 0x2E7F JUMP JUMPDEST PUSH1 0x40 MLOAD DUP1 SWAP2 SUB SWAP1 REVERT JUMPDEST PUSH32 0x6161610000000000000000000000000000000000000000000000000000000000 PUSH29 0xFFFFFFFFFFFFFFFFFFFFFFFFFFFFFFFFFFFFFFFFFFFFFFFFFFFFFFFFFF NOT AND PUSH2 0x1056 PUSH1 0x0 PUSH1 0x5 PUSH1 0x40 MLOAD DUP1 PUSH1 0x40 ADD PUSH1 0x40 MSTORE DUP1 PUSH1 0x5 DUP2 MSTORE PUSH1 0x20 ADD PUSH32 0x4335474D32000000000000000000000000000000000000000000000000000000 DUP2 MSTORE POP PUSH2 0x2132 SWAP1 SWAP3 SWAP2 SWAP1 PUSH4 0xFFFFFFFF AND JUMP JUMPDEST EQ PUSH2 0x1096 JUMPI PUSH1 0x40 MLOAD PUSH32 0x8C379A000000000000000000000000000000000000000000000000000000000 DUP2 MSTORE PUSH1 0x4 ADD PUSH2 0x108D SWAP1 PUSH2 0x2EEB JUMP JUMPDEST PUSH1 0x40 MLOAD DUP1 SWAP2 SUB SWAP1 REVERT JUMPDEST PUSH32 0x6161616100000000000000000000000000000000000000000000000000000000 PUSH28 0xFFFFFFFFFFFFFFFFFFFFFFFFFFFFFFFFFFFFFFFFFFFFFFFFFFFFFFFF NOT AND PUSH2 0x1122 PUSH1 0x0 PUSH1 0x7 PUSH1 0x40 MLOAD DUP1 PUSH1 0x40 ADD PUSH1 0x40 MSTORE DUP1 PUSH1 0x7 DUP2 MSTORE PUSH1 0x20 ADD PUSH32 0x4335474D324F3800000000000000000000000000000000000000000000000000 DUP2 MSTORE POP PUSH2 0x2132 SWAP1 SWAP3 SWAP2 SWAP1 PUSH4 0xFFFFFFFF AND JUMP JUMPDEST EQ PUSH2 0x1162 JUMPI PUSH1 0x40 MLOAD PUSH32 0x8C379A000000000000000000000000000000000000000000000000000000000 DUP2 MSTORE PUSH1 0x4 ADD PUSH2 0x1159 SWAP1 PUSH2 0x2F57 JUMP JUMPDEST PUSH1 0x40 MLOAD DUP1 SWAP2 SUB SWAP1 REVERT JUMPDEST PUSH32 0x6161616161000000000000000000000000000000000000000000000000000000 PUSH27 0xFFFFFFFFFFFFFFFFFFFFFFFFFFFFFFFFFFFFFFFFFFFFFFFFFFFFFF NOT AND PUSH2 0x11ED PUSH1 0x0 PUSH1 0x8 PUSH1 0x40 MLOAD DUP1 PUSH1 0x40 ADD PUSH1 0x40 MSTORE DUP1 PUSH1 0x8 DUP2 MSTORE PUSH1 0x20 ADD PUSH32 0x4335474D324F4231000000000000000000000000000000000000000000000000 DUP2 MSTORE POP PUSH2 0x2132 SWAP1 SWAP3 SWAP2 SWAP1 PUSH4 0xFFFFFFFF AND JUMP JUMPDEST EQ PUSH2 0x122D JUMPI PUSH1 0x40 MLOAD PUSH32 0x8C379A000000000000000000000000000000000000000000000000000000000 DUP2 MSTORE PUSH1 0x4 ADD PUSH2 0x1224 SWAP1 PUSH2 0x2FC3 JUMP JUMPDEST PUSH1 0x40 MLOAD DUP1 SWAP2 SUB SWAP1 REVERT JUMPDEST PUSH32 0x6161616161000000000000000000000000000000000000000000000000000000 PUSH27 0xFFFFFFFFFFFFFFFFFFFFFFFFFFFFFFFFFFFFFFFFFFFFFFFFFFFFFF NOT AND PUSH2 0x12B8 PUSH1 0x0 PUSH1 0x8 PUSH1 0x40 MLOAD DUP1 PUSH1 0x40 ADD PUSH1 0x40 MSTORE DUP1 PUSH1 0x8 DUP2 MSTORE PUSH1 0x20 ADD PUSH32 0x6335676D324F6231000000000000000000000000000000000000000000000000 DUP2 MSTORE POP PUSH2 0x2132 SWAP1 SWAP3 SWAP2 SWAP1 PUSH4 0xFFFFFFFF AND JUMP JUMPDEST EQ PUSH2 0x12F8 JUMPI PUSH1 0x40 MLOAD PUSH32 0x8C379A000000000000000000000000000000000000000000000000000000000 DUP2 MSTORE PUSH1 0x4 ADD PUSH2 0x12EF SWAP1 PUSH2 0x302F JUMP JUMPDEST PUSH1 0x40 MLOAD DUP1 SWAP2 SUB SWAP1 REVERT JUMPDEST PUSH32 0x6162636465666768696A6B6C6D6E6F707172737475767778797A000000000000 PUSH6 0xFFFFFFFFFFFF NOT AND PUSH2 0x1351 PUSH1 0x0 PUSH1 0x2A PUSH1 0x40 MLOAD DUP1 PUSH1 0x60 ADD PUSH1 0x40 MSTORE DUP1 PUSH1 0x2A DUP2 MSTORE PUSH1 0x20 ADD PUSH2 0x3D3D PUSH1 0x2A SWAP2 CODECOPY PUSH2 0x2132 SWAP1 SWAP3 SWAP2 SWAP1 PUSH4 0xFFFFFFFF AND JUMP JUMPDEST EQ PUSH2 0x1391 JUMPI PUSH1 0x40 MLOAD PUSH32 0x8C379A000000000000000000000000000000000000000000000000000000000 DUP2 MSTORE PUSH1 0x4 ADD PUSH2 0x1388 SWAP1 PUSH2 0x309B JUMP JUMPDEST PUSH1 0x40 MLOAD DUP1 SWAP2 SUB SWAP1 REVERT JUMPDEST PUSH32 0x6162636465666768696A6B6C6D6E6F707172737475767778797A000000000000 PUSH6 0xFFFFFFFFFFFF NOT AND PUSH2 0x13EA PUSH1 0x0 PUSH1 0x2A PUSH1 0x40 MLOAD DUP1 PUSH1 0x60 ADD PUSH1 0x40 MSTORE DUP1 PUSH1 0x2A DUP2 MSTORE PUSH1 0x20 ADD PUSH2 0x3C04 PUSH1 0x2A SWAP2 CODECOPY PUSH2 0x2132 SWAP1 SWAP3 SWAP2 SWAP1 PUSH4 0xFFFFFFFF AND JUMP JUMPDEST EQ PUSH2 0x142A JUMPI PUSH1 0x40 MLOAD PUSH32 0x8C379A000000000000000000000000000000000000000000000000000000000 DUP2 MSTORE PUSH1 0x4 ADD PUSH2 0x1421 SWAP1 PUSH2 0x3107 JUMP JUMPDEST PUSH1 0x40 MLOAD DUP1 SWAP2 SUB SWAP1 REVERT JUMPDEST PUSH32 0x6161616161616161616161616161616161616161616161616161616161616161 PUSH2 0x147A PUSH1 0x0 PUSH1 0x34 PUSH1 0x40 MLOAD DUP1 PUSH1 0x60 ADD PUSH1 0x40 MSTORE DUP1 PUSH1 0x34 DUP2 MSTORE PUSH1 0x20 ADD PUSH2 0x3C2E PUSH1 0x34 SWAP2 CODECOPY PUSH2 0x2132 SWAP1 SWAP3 SWAP2 SWAP1 PUSH4 0xFFFFFFFF AND JUMP JUMPDEST EQ PUSH2 0x14BA JUMPI PUSH1 0x40 MLOAD PUSH32 0x8C379A000000000000000000000000000000000000000000000000000000000 DUP2 MSTORE PUSH1 0x4 ADD PUSH2 0x14B1 SWAP1 PUSH2 0x3173 JUMP JUMPDEST PUSH1 0x40 MLOAD DUP1 SWAP2 SUB SWAP1 REVERT JUMPDEST PUSH32 0x5F3A48D66E3EC18431192611A2A055B01D3B4B5D000000000000000000000000 PUSH2 0x150A PUSH1 0x1 PUSH1 0x20 PUSH1 0x40 MLOAD DUP1 PUSH1 0x60 ADD PUSH1 0x40 MSTORE DUP1 PUSH1 0x2E DUP2 MSTORE PUSH1 0x20 ADD PUSH2 0x3C62 PUSH1 0x2E SWAP2 CODECOPY PUSH2 0x2132 SWAP1 SWAP3 SWAP2 SWAP1 PUSH4 0xFFFFFFFF AND JUMP JUMPDEST EQ PUSH2 0x154A JUMPI PUSH1 0x40 MLOAD PUSH32 0x8C379A000000000000000000000000000000000000000000000000000000000 DUP2 MSTORE PUSH1 0x4 ADD PUSH2 0x1541 SWAP1 PUSH2 0x31DF JUMP JUMPDEST PUSH1 0x40 MLOAD DUP1 SWAP2 SUB SWAP1 REVERT JUMPDEST JUMP JUMPDEST PUSH1 0x1 ISZERO ISZERO PUSH1 0x0 PUSH2 0x15DA PUSH1 0x1 DUP1 PUSH1 0x40 MLOAD DUP1 PUSH1 0x40 ADD PUSH1 0x40 MSTORE DUP1 PUSH1 0x5 DUP2 MSTORE PUSH1 0x20 ADD PUSH32 0x7878627878000000000000000000000000000000000000000000000000000000 DUP2 MSTORE POP PUSH1 0x2 PUSH1 0x1 PUSH1 0x40 MLOAD DUP1 PUSH1 0x40 ADD PUSH1 0x40 MSTORE DUP1 PUSH1 0x3 DUP2 MSTORE PUSH1 0x20 ADD PUSH32 0x7861780000000000000000000000000000000000000000000000000000000000 DUP2 MSTORE POP PUSH2 0x23C2 SWAP1 SWAP6 SWAP5 SWAP4 SWAP3 SWAP2 SWAP1 PUSH4 0xFFFFFFFF AND JUMP JUMPDEST SLT ISZERO ISZERO EQ PUSH2 0x161D JUMPI PUSH1 0x40 MLOAD PUSH32 0x8C379A000000000000000000000000000000000000000000000000000000000 DUP2 MSTORE PUSH1 0x4 ADD PUSH2 0x1614 SWAP1 PUSH2 0x324B JUMP JUMPDEST PUSH1 0x40 MLOAD DUP1 SWAP2 SUB SWAP1 REVERT JUMPDEST PUSH1 0x1 ISZERO ISZERO PUSH1 0x0 PUSH2 0x16AA PUSH1 0x1 DUP1 PUSH1 0x40 MLOAD DUP1 PUSH1 0x40 ADD PUSH1 0x40 MSTORE DUP1 PUSH1 0x6 DUP2 MSTORE PUSH1 0x20 ADD PUSH32 0x7878616278780000000000000000000000000000000000000000000000000000 DUP2 MSTORE POP PUSH1 0x2 DUP1 PUSH1 0x40 MLOAD DUP1 PUSH1 0x40 ADD PUSH1 0x40 MSTORE DUP1 PUSH1 0x3 DUP2 MSTORE PUSH1 0x20 ADD PUSH32 0x7861780000000000000000000000000000000000000000000000000000000000 DUP2 MSTORE POP PUSH2 0x23C2 SWAP1 SWAP6 SWAP5 SWAP4 SWAP3 SWAP2 SWAP1 PUSH4 0xFFFFFFFF AND JUMP JUMPDEST SLT ISZERO ISZERO EQ PUSH2 0x16ED JUMPI PUSH1 0x40 MLOAD PUSH32 0x8C379A000000000000000000000000000000000000000000000000000000000 DUP2 MSTORE PUSH1 0x4 ADD PUSH2 0x16E4 SWAP1 PUSH2 0x32B7 JUMP JUMPDEST PUSH1 0x40 MLOAD DUP1 SWAP2 SUB SWAP1 REVERT JUMPDEST PUSH1 0x1 ISZERO ISZERO PUSH1 0x0 PUSH2 0x177B PUSH1 0x1 DUP1 PUSH1 0x40 MLOAD DUP1 PUSH1 0x40 ADD PUSH1 0x40 MSTORE DUP1 PUSH1 0x5 DUP2 MSTORE PUSH1 0x20 ADD PUSH32 0x7878617878000000000000000000000000000000000000000000000000000000 DUP2 MSTORE POP PUSH1 0x2 PUSH1 0x1 PUSH1 0x40 MLOAD DUP1 PUSH1 0x40 ADD PUSH1 0x40 MSTORE DUP1 PUSH1 0x3 DUP2 MSTORE PUSH1 0x20 ADD PUSH32 0x7861780000000000000000000000000000000000000000000000000000000000 DUP2 MSTORE POP PUSH2 0x23C2 SWAP1 SWAP6 SWAP5 SWAP4 SWAP3 SWAP2 SWAP1 PUSH4 0xFFFFFFFF AND JUMP JUMPDEST EQ ISZERO ISZERO EQ PUSH2 0x17BE JUMPI PUSH1 0x40 MLOAD PUSH32 0x8C379A000000000000000000000000000000000000000000000000000000000 DUP2 MSTORE PUSH1 0x4 ADD PUSH2 0x17B5 SWAP1 PUSH2 0x3349 JUMP JUMPDEST PUSH1 0x40 MLOAD DUP1 SWAP2 SUB SWAP1 REVERT JUMPDEST PUSH1 0x1 ISZERO ISZERO PUSH1 0x0 PUSH2 0x1813 PUSH1 0x0 PUSH1 0x21 PUSH1 0x40 MLOAD DUP1 PUSH1 0x60 ADD PUSH1 0x40 MSTORE DUP1 PUSH1 0x22 DUP2 MSTORE PUSH1 0x20 ADD PUSH2 0x3D67 PUSH1 0x22 SWAP2 CODECOPY PUSH1 0x0 PUSH1 0x21 PUSH1 0x40 MLOAD DUP1 PUSH1 0x60 ADD PUSH1 0x40 MSTORE DUP1 PUSH1 0x22 DUP2 MSTORE PUSH1 0x20 ADD PUSH2 0x3D1B PUSH1 0x22 SWAP2 CODECOPY PUSH2 0x23C2 SWAP1 SWAP6 SWAP5 SWAP4 SWAP3 SWAP2 SWAP1 PUSH4 0xFFFFFFFF AND JUMP JUMPDEST EQ ISZERO ISZERO EQ PUSH2 0x1856 JUMPI PUSH1 0x40 MLOAD PUSH32 0x8C379A000000000000000000000000000000000000000000000000000000000 DUP2 MSTORE PUSH1 0x4 ADD PUSH2 0x184D SWAP1 PUSH2 0x3401 JUMP JUMPDEST PUSH1 0x40 MLOAD DUP1 SWAP2 SUB SWAP1 REVERT JUMPDEST PUSH1 0x1 ISZERO ISZERO PUSH1 0x0 PUSH2 0x18AB PUSH1 0x0 PUSH1 0x21 PUSH1 0x40 MLOAD DUP1 PUSH1 0x60 ADD PUSH1 0x40 MSTORE DUP1 PUSH1 0x22 DUP2 MSTORE PUSH1 0x20 ADD PUSH2 0x3D67 PUSH1 0x22 SWAP2 CODECOPY PUSH1 0x0 PUSH1 0x22 PUSH1 0x40 MLOAD DUP1 PUSH1 0x60 ADD PUSH1 0x40 MSTORE DUP1 PUSH1 0x22 DUP2 MSTORE PUSH1 0x20 ADD PUSH2 0x3D1B PUSH1 0x22 SWAP2 CODECOPY PUSH2 0x23C2 SWAP1 SWAP6 SWAP5 SWAP4 SWAP3 SWAP2 SWAP1 PUSH4 0xFFFFFFFF AND JUMP JUMPDEST SLT ISZERO ISZERO EQ PUSH2 0x18EE JUMPI PUSH1 0x40 MLOAD PUSH32 0x8C379A000000000000000000000000000000000000000000000000000000000 DUP2 MSTORE PUSH1 0x4 ADD PUSH2 0x18E5 SWAP1 PUSH2 0x3493 JUMP JUMPDEST PUSH1 0x40 MLOAD DUP1 SWAP2 SUB SWAP1 REVERT JUMPDEST PUSH1 0x1 ISZERO ISZERO PUSH1 0x0 PUSH2 0x197D PUSH1 0x0 PUSH1 0x20 PUSH1 0x40 MLOAD DUP1 PUSH1 0x40 ADD PUSH1 0x40 MSTORE DUP1 PUSH1 0x20 DUP2 MSTORE PUSH1 0x20 ADD PUSH32 0x3031323334353637383930313233343530313233343536373839303132333462 DUP2 MSTORE POP PUSH1 0x0 PUSH1 0x20 PUSH1 0x40 MLOAD DUP1 PUSH1 0x40 ADD PUSH1 0x40 MSTORE DUP1 PUSH1 0x20 DUP2 MSTORE PUSH1 0x20 ADD PUSH32 0x3031323334353637383930313233343530313233343536373839303132333461 DUP2 MSTORE POP PUSH2 0x23C2 SWAP1 SWAP6 SWAP5 SWAP4 SWAP3 SWAP2 SWAP1 PUSH4 0xFFFFFFFF AND JUMP JUMPDEST SLT ISZERO ISZERO EQ PUSH2 0x19C0 JUMPI PUSH1 0x40 MLOAD PUSH32 0x8C379A000000000000000000000000000000000000000000000000000000000 DUP2 MSTORE PUSH1 0x4 ADD PUSH2 0x19B7 SWAP1 PUSH2 0x3525 JUMP JUMPDEST PUSH1 0x40 MLOAD DUP1 SWAP2 SUB SWAP1 REVERT JUMPDEST JUMP JUMPDEST PUSH1 0x1 ISZERO ISZERO PUSH2 0x1A43 PUSH1 0x40 MLOAD DUP1 PUSH1 0x40 ADD PUSH1 0x40 MSTORE DUP1 PUSH1 0x5 DUP2 MSTORE PUSH1 0x20 ADD PUSH32 0x68656C6C6F000000000000000000000000000000000000000000000000000000 DUP2 MSTORE POP PUSH1 0x40 MLOAD DUP1 PUSH1 0x40 ADD PUSH1 0x40 MSTORE DUP1 PUSH1 0x5 DUP2 MSTORE PUSH1 0x20 ADD PUSH32 0x68656C6C6F000000000000000000000000000000000000000000000000000000 DUP2 MSTORE POP PUSH2 0x25C0 SWAP1 SWAP2 SWAP1 PUSH4 0xFFFFFFFF AND JUMP JUMPDEST ISZERO ISZERO EQ PUSH2 0x1A85 JUMPI PUSH1 0x40 MLOAD PUSH32 0x8C379A000000000000000000000000000000000000000000000000000000000 DUP2 MSTORE PUSH1 0x4 ADD PUSH2 0x1A7C SWAP1 PUSH2 0x3591 JUMP JUMPDEST PUSH1 0x40 MLOAD DUP1 SWAP2 SUB SWAP1 REVERT JUMPDEST PUSH1 0x0 ISZERO ISZERO PUSH2 0x1B06 PUSH1 0x40 MLOAD DUP1 PUSH1 0x40 ADD PUSH1 0x40 MSTORE DUP1 PUSH1 0x7 DUP2 MSTORE PUSH1 0x20 ADD PUSH32 0x676F6F6462796500000000000000000000000000000000000000000000000000 DUP2 MSTORE POP PUSH1 0x40 MLOAD DUP1 PUSH1 0x40 ADD PUSH1 0x40 MSTORE DUP1 PUSH1 0x5 DUP2 MSTORE PUSH1 0x20 ADD PUSH32 0x68656C6C6F000000000000000000000000000000000000000000000000000000 DUP2 MSTORE POP PUSH2 0x25C0 SWAP1 SWAP2 SWAP1 PUSH4 0xFFFFFFFF AND JUMP JUMPDEST ISZERO ISZERO EQ PUSH2 0x1B48 JUMPI PUSH1 0x40 MLOAD PUSH32 0x8C379A000000000000000000000000000000000000000000000000000000000 DUP2 MSTORE PUSH1 0x4 ADD PUSH2 0x1B3F SWAP1 PUSH2 0x35FD JUMP JUMPDEST PUSH1 0x40 MLOAD DUP1 SWAP2 SUB SWAP1 REVERT JUMPDEST PUSH1 0x1 ISZERO ISZERO PUSH2 0x1BCC PUSH1 0x1 PUSH1 0x40 MLOAD DUP1 PUSH1 0x40 ADD PUSH1 0x40 MSTORE DUP1 PUSH1 0x4 DUP2 MSTORE PUSH1 0x20 ADD PUSH32 0x656C6C6F00000000000000000000000000000000000000000000000000000000 DUP2 MSTORE POP PUSH1 0x40 MLOAD DUP1 PUSH1 0x40 ADD PUSH1 0x40 MSTORE DUP1 PUSH1 0x5 DUP2 MSTORE PUSH1 0x20 ADD PUSH32 0x68656C6C6F000000000000000000000000000000000000000000000000000000 DUP2 MSTORE POP PUSH2 0x25E7 SWAP1 SWAP3 SWAP2 SWAP1 PUSH4 0xFFFFFFFF AND JUMP JUMPDEST ISZERO ISZERO EQ PUSH2 0x1C0E JUMPI PUSH1 0x40 MLOAD PUSH32 0x8C379A000000000000000000000000000000000000000000000000000000000 DUP2 MSTORE PUSH1 0x4 ADD PUSH2 0x1C05 SWAP1 PUSH2 0x3669 JUMP JUMPDEST PUSH1 0x40 MLOAD DUP1 SWAP2 SUB SWAP1 REVERT JUMPDEST PUSH1 0x1 ISZERO ISZERO PUSH2 0x1C98 PUSH1 0x1 PUSH1 0x40 MLOAD DUP1 PUSH1 0x40 ADD PUSH1 0x40 MSTORE DUP1 PUSH1 0x5 DUP2 MSTORE PUSH1 0x20 ADD PUSH32 0x6A656C6C6F000000000000000000000000000000000000000000000000000000 DUP2 MSTORE POP PUSH1 0x1 PUSH1 0x4 PUSH1 0x40 MLOAD DUP1 PUSH1 0x40 ADD PUSH1 0x40 MSTORE DUP1 PUSH1 0x5 DUP2 MSTORE PUSH1 0x20 ADD PUSH32 0x68656C6C6F000000000000000000000000000000000000000000000000000000 DUP2 MSTORE POP PUSH2 0x2619 SWAP1 SWAP5 SWAP4 SWAP3 SWAP2 SWAP1 PUSH4 0xFFFFFFFF AND JUMP JUMPDEST ISZERO ISZERO EQ PUSH2 0x1CDA JUMPI PUSH1 0x40 MLOAD PUSH32 0x8C379A000000000000000000000000000000000000000000000000000000000 DUP2 MSTORE PUSH1 0x4 ADD PUSH2 0x1CD1 SWAP1 PUSH2 0x36D5 JUMP JUMPDEST PUSH1 0x40 MLOAD DUP1 SWAP2 SUB SWAP1 REVERT JUMPDEST PUSH1 0x1 ISZERO ISZERO PUSH2 0x1D61 PUSH1 0x1 PUSH1 0x40 MLOAD DUP1 PUSH1 0x40 ADD PUSH1 0x40 MSTORE DUP1 PUSH1 0x8 DUP2 MSTORE PUSH1 0x20 ADD PUSH32 0x61626368656C6C6F000000000000000000000000000000000000000000000000 DUP2 MSTORE POP PUSH1 0x3 PUSH1 0x40 MLOAD DUP1 PUSH1 0x40 ADD PUSH1 0x40 MSTORE DUP1 PUSH1 0x6 DUP2 MSTORE PUSH1 0x20 ADD PUSH32 0x7A68656C6C6F0000000000000000000000000000000000000000000000000000 DUP2 MSTORE POP PUSH2 0x263D SWAP1 SWAP4 SWAP3 SWAP2 SWAP1 PUSH4 0xFFFFFFFF AND JUMP JUMPDEST ISZERO ISZERO EQ PUSH2 0x1DA3 JUMPI PUSH1 0x40 MLOAD PUSH32 0x8C379A000000000000000000000000000000000000000000000000000000000 DUP2 MSTORE PUSH1 0x4 ADD PUSH2 0x1D9A SWAP1 PUSH2 0x2C17 JUMP JUMPDEST PUSH1 0x40 MLOAD DUP1 SWAP2 SUB SWAP1 REVERT JUMPDEST PUSH1 0x0 ISZERO ISZERO PUSH2 0x1E27 PUSH1 0x0 PUSH1 0x40 MLOAD DUP1 PUSH1 0x40 ADD PUSH1 0x40 MSTORE DUP1 PUSH1 0x8 DUP2 MSTORE PUSH1 0x20 ADD PUSH32 0x3078303130323033000000000000000000000000000000000000000000000000 DUP2 MSTORE POP PUSH1 0x40 MLOAD DUP1 PUSH1 0x40 ADD PUSH1 0x40 MSTORE DUP1 PUSH1 0xC DUP2 MSTORE PUSH1 0x20 ADD PUSH32 0x3078303130323033303030300000000000000000000000000000000000000000 DUP2 MSTORE POP PUSH2 0x25E7 SWAP1 SWAP3 SWAP2 SWAP1 PUSH4 0xFFFFFFFF AND JUMP JUMPDEST ISZERO ISZERO EQ PUSH2 0x1E69 JUMPI PUSH1 0x40 MLOAD PUSH32 0x8C379A000000000000000000000000000000000000000000000000000000000 DUP2 MSTORE PUSH1 0x4 ADD PUSH2 0x1E60 SWAP1 PUSH2 0x3767 JUMP JUMPDEST PUSH1 0x40 MLOAD DUP1 SWAP2 SUB SWAP1 REVERT JUMPDEST JUMP JUMPDEST PUSH32 0x3031323334353637383961626364656630313233343536373839616263646566 PUSH1 0x0 SHL PUSH2 0x1ED8 PUSH1 0x0 PUSH1 0x40 MLOAD DUP1 PUSH1 0x40 ADD PUSH1 0x40 MSTORE DUP1 PUSH1 0x20 DUP2 MSTORE PUSH1 0x20 ADD PUSH32 0x3031323334353637383961626364656630313233343536373839616263646566 DUP2 MSTORE POP PUSH2 0x2678 SWAP1 SWAP2 SWAP1 PUSH4 0xFFFFFFFF AND JUMP JUMPDEST EQ PUSH2 0x1F18 JUMPI PUSH1 0x40 MLOAD PUSH32 0x8C379A000000000000000000000000000000000000000000000000000000000 DUP2 MSTORE PUSH1 0x4 ADD PUSH2 0x1F0F SWAP1 PUSH2 0x37D3 JUMP JUMPDEST PUSH1 0x40 MLOAD DUP1 SWAP2 SUB SWAP1 REVERT JUMPDEST JUMP JUMPDEST PUSH2 0x6263 PUSH2 0x1F66 PUSH1 0x1 PUSH1 0x40 MLOAD DUP1 PUSH1 0x40 ADD PUSH1 0x40 MSTORE DUP1 PUSH1 0x3 DUP2 MSTORE PUSH1 0x20 ADD PUSH32 0x6162630000000000000000000000000000000000000000000000000000000000 DUP2 MSTORE POP PUSH2 0x26A3 SWAP1 SWAP2 SWAP1 PUSH4 0xFFFFFFFF AND JUMP JUMPDEST PUSH2 0xFFFF AND EQ PUSH2 0x1FAA JUMPI PUSH1 0x40 MLOAD PUSH32 0x8C379A000000000000000000000000000000000000000000000000000000000 DUP2 MSTORE PUSH1 0x4 ADD PUSH2 0x1FA1 SWAP1 PUSH2 0x383F JUMP JUMPDEST PUSH1 0x40 MLOAD DUP1 SWAP2 SUB SWAP1 REVERT JUMPDEST JUMP JUMPDEST PUSH1 0x0 DUP3 MLOAD PUSH1 0x14 DUP4 PUSH2 0x1FBD SWAP2 SWAP1 PUSH2 0x3898 JUMP JUMPDEST GT ISZERO PUSH2 0x1FC8 JUMPI PUSH1 0x0 DUP1 REVERT JUMPDEST PUSH32 0xFFFFFFFFFFFFFFFFFFFFFFFFFFFFFFFFFFFFFFFF000000000000000000000000 DUP3 PUSH1 0x20 DUP6 ADD ADD MLOAD AND SWAP1 POP SWAP3 SWAP2 POP POP JUMP JUMPDEST PUSH1 0x60 DUP4 MLOAD DUP3 DUP5 PUSH2 0x2009 SWAP2 SWAP1 PUSH2 0x3898 JUMP JUMPDEST GT ISZERO PUSH2 0x2014 JUMPI PUSH1 0x0 DUP1 REVERT JUMPDEST PUSH1 0x0 DUP3 PUSH8 0xFFFFFFFFFFFFFFFF DUP2 GT ISZERO PUSH2 0x2030 JUMPI PUSH2 0x202F PUSH2 0x38CC JUMP JUMPDEST JUMPDEST PUSH1 0x40 MLOAD SWAP1 DUP1 DUP3 MSTORE DUP1 PUSH1 0x1F ADD PUSH1 0x1F NOT AND PUSH1 0x20 ADD DUP3 ADD PUSH1 0x40 MSTORE DUP1 ISZERO PUSH2 0x2062 JUMPI DUP2 PUSH1 0x20 ADD PUSH1 0x1 DUP3 MUL DUP1 CALLDATASIZE DUP4 CALLDATACOPY DUP1 DUP3 ADD SWAP2 POP POP SWAP1 POP JUMPDEST POP SWAP1 POP PUSH1 0x0 DUP1 PUSH1 0x20 DUP4 ADD SWAP2 POP DUP6 PUSH1 0x20 DUP9 ADD ADD SWAP1 POP PUSH2 0x2081 DUP3 DUP3 DUP8 PUSH2 0x26D2 JUMP JUMPDEST DUP3 SWAP4 POP POP POP POP SWAP4 SWAP3 POP POP POP JUMP JUMPDEST PUSH1 0x0 DUP3 MLOAD PUSH1 0x4 DUP4 PUSH2 0x209F SWAP2 SWAP1 PUSH2 0x3898 JUMP JUMPDEST GT ISZERO PUSH2 0x20AA JUMPI PUSH1 0x0 DUP1 REVERT JUMPDEST PUSH4 0xFFFFFFFF DUP3 PUSH1 0x4 DUP6 ADD ADD MLOAD AND SWAP1 POP SWAP3 SWAP2 POP POP JUMP JUMPDEST PUSH1 0x0 DUP3 DUP3 DUP2 MLOAD DUP2 LT PUSH2 0x20D4 JUMPI PUSH2 0x20D3 PUSH2 0x38FB JUMP JUMPDEST JUMPDEST PUSH1 0x20 ADD ADD MLOAD PUSH1 0xF8 SHR PUSH1 0xF8 SHL PUSH1 0xF8 SHR SWAP1 POP SWAP3 SWAP2 POP POP JUMP JUMPDEST PUSH1 0x0 DUP4 MLOAD DUP3 DUP5 PUSH2 0x20FA SWAP2 SWAP1 PUSH2 0x3898 JUMP JUMPDEST GT ISZERO PUSH2 0x2105 JUMPI PUSH1 0x0 DUP1 REVERT JUMPDEST DUP2 DUP4 PUSH1 0x20 DUP7 ADD ADD KECCAK256 SWAP1 POP SWAP4 SWAP3 POP POP POP JUMP JUMPDEST PUSH1 0x0 PUSH2 0x212A DUP4 PUSH1 0x0 DUP6 MLOAD DUP6 PUSH1 0x0 DUP8 MLOAD PUSH2 0x23C2 JUMP JUMPDEST SWAP1 POP SWAP3 SWAP2 POP POP JUMP JUMPDEST PUSH1 0x0 PUSH1 0x34 DUP3 GT ISZERO PUSH2 0x2142 JUMPI PUSH1 0x0 DUP1 REVERT JUMPDEST PUSH1 0x0 DUP1 DUP1 PUSH1 0x0 SWAP1 POP JUMPDEST DUP5 DUP2 LT ISZERO PUSH2 0x2276 JUMPI PUSH1 0x0 DUP8 DUP3 DUP9 PUSH2 0x2162 SWAP2 SWAP1 PUSH2 0x3898 JUMP JUMPDEST DUP2 MLOAD DUP2 LT PUSH2 0x2173 JUMPI PUSH2 0x2172 PUSH2 0x38FB JUMP JUMPDEST JUMPDEST PUSH1 0x20 ADD ADD MLOAD PUSH1 0xF8 SHR PUSH1 0xF8 SHL SWAP1 POP PUSH1 0x30 PUSH1 0xF8 SHL DUP2 PUSH31 0xFFFFFFFFFFFFFFFFFFFFFFFFFFFFFFFFFFFFFFFFFFFFFFFFFFFFFFFFFFFFFF NOT AND LT ISZERO DUP1 ISZERO PUSH2 0x21DC JUMPI POP PUSH1 0x7A PUSH1 0xF8 SHL DUP2 PUSH31 0xFFFFFFFFFFFFFFFFFFFFFFFFFFFFFFFFFFFFFFFFFFFFFFFFFFFFFFFFFFFFFF NOT AND GT ISZERO JUMPDEST PUSH2 0x21E5 JUMPI PUSH1 0x0 DUP1 REVERT JUMPDEST PUSH1 0x40 MLOAD DUP1 PUSH1 0x80 ADD PUSH1 0x40 MSTORE DUP1 PUSH1 0x47 DUP2 MSTORE PUSH1 0x20 ADD PUSH2 0x3CD4 PUSH1 0x47 SWAP2 CODECOPY PUSH1 0x30 DUP3 PUSH1 0xF8 SHR PUSH1 0xFF AND PUSH2 0x2211 SWAP2 SWAP1 PUSH2 0x392A JUMP JUMPDEST DUP2 MLOAD DUP2 LT PUSH2 0x2222 JUMPI PUSH2 0x2221 PUSH2 0x38FB JUMP JUMPDEST JUMPDEST PUSH1 0x20 ADD ADD MLOAD PUSH1 0xF8 SHR PUSH1 0xF8 SHL PUSH1 0xF8 SHR SWAP3 POP PUSH1 0x20 DUP4 PUSH1 0xFF AND GT ISZERO PUSH2 0x2243 JUMPI PUSH1 0x0 DUP1 REVERT JUMPDEST PUSH1 0x1 DUP7 PUSH2 0x2250 SWAP2 SWAP1 PUSH2 0x392A JUMP JUMPDEST DUP3 SUB PUSH2 0x225C JUMPI POP PUSH2 0x2276 JUMP JUMPDEST DUP3 PUSH1 0xFF AND PUSH1 0x5 DUP6 SWAP1 SHL OR SWAP4 POP POP DUP1 DUP1 PUSH1 0x1 ADD SWAP2 POP POP PUSH2 0x214B JUMP JUMPDEST POP PUSH1 0x0 PUSH1 0x5 DUP6 PUSH2 0x2286 SWAP2 SWAP1 PUSH2 0x395E JUMP JUMPDEST SWAP1 POP PUSH1 0x0 PUSH1 0x8 DUP7 PUSH2 0x2297 SWAP2 SWAP1 PUSH2 0x39CF JUMP JUMPDEST SUB PUSH2 0x22AD JUMPI DUP2 PUSH1 0xFF AND PUSH1 0x5 DUP5 SWAP1 SHL OR SWAP3 POP PUSH2 0x23A2 JUMP JUMPDEST PUSH1 0x2 PUSH1 0x8 DUP7 PUSH2 0x22BC SWAP2 SWAP1 PUSH2 0x39CF JUMP JUMPDEST SUB PUSH2 0x22E8 JUMPI PUSH1 0x2 DUP3 PUSH1 0xFF AND SWAP1 SHR PUSH1 0xFF AND PUSH1 0x3 DUP5 SWAP1 SHL OR SWAP3 POP PUSH1 0x2 DUP2 PUSH2 0x22E1 SWAP2 SWAP1 PUSH2 0x392A JUMP JUMPDEST SWAP1 POP PUSH2 0x23A1 JUMP JUMPDEST PUSH1 0x4 PUSH1 0x8 DUP7 PUSH2 0x22F7 SWAP2 SWAP1 PUSH2 0x39CF JUMP JUMPDEST SUB PUSH2 0x2323 JUMPI PUSH1 0x4 DUP3 PUSH1 0xFF AND SWAP1 SHR PUSH1 0xFF AND PUSH1 0x1 DUP5 SWAP1 SHL OR SWAP3 POP PUSH1 0x4 DUP2 PUSH2 0x231C SWAP2 SWAP1 PUSH2 0x392A JUMP JUMPDEST SWAP1 POP PUSH2 0x23A0 JUMP JUMPDEST PUSH1 0x5 PUSH1 0x8 DUP7 PUSH2 0x2332 SWAP2 SWAP1 PUSH2 0x39CF JUMP JUMPDEST SUB PUSH2 0x235E JUMPI PUSH1 0x1 DUP3 PUSH1 0xFF AND SWAP1 SHR PUSH1 0xFF AND PUSH1 0x4 DUP5 SWAP1 SHL OR SWAP3 POP PUSH1 0x1 DUP2 PUSH2 0x2357 SWAP2 SWAP1 PUSH2 0x392A JUMP JUMPDEST SWAP1 POP PUSH2 0x239F JUMP JUMPDEST PUSH1 0x7 PUSH1 0x8 DUP7 PUSH2 0x236D SWAP2 SWAP1 PUSH2 0x39CF JUMP JUMPDEST SUB PUSH2 0x2399 JUMPI PUSH1 0x3 DUP3 PUSH1 0xFF AND SWAP1 SHR PUSH1 0xFF AND PUSH1 0x2 DUP5 SWAP1 SHL OR SWAP3 POP PUSH1 0x3 DUP2 PUSH2 0x2392 SWAP2 SWAP1 PUSH2 0x392A JUMP JUMPDEST SWAP1 POP PUSH2 0x239E JUMP JUMPDEST PUSH1 0x0 DUP1 REVERT JUMPDEST JUMPDEST JUMPDEST JUMPDEST JUMPDEST DUP1 PUSH2 0x100 PUSH2 0x23B0 SWAP2 SWAP1 PUSH2 0x392A JUMP JUMPDEST DUP4 SWAP1 SHL PUSH1 0x0 SHL SWAP4 POP POP POP POP SWAP4 SWAP3 POP POP POP JUMP JUMPDEST PUSH1 0x0 DUP7 MLOAD DUP6 DUP8 PUSH2 0x23D2 SWAP2 SWAP1 PUSH2 0x3898 JUMP JUMPDEST GT ISZERO PUSH2 0x2423 JUMPI DUP5 DUP7 PUSH2 0x23E4 SWAP2 SWAP1 PUSH2 0x3898 JUMP JUMPDEST DUP8 MLOAD PUSH1 0x40 MLOAD PUSH32 0x8A3C1CFB00000000000000000000000000000000000000000000000000000000 DUP2 MSTORE PUSH1 0x4 ADD PUSH2 0x241A SWAP3 SWAP2 SWAP1 PUSH2 0x3A0F JUMP JUMPDEST PUSH1 0x40 MLOAD DUP1 SWAP2 SUB SWAP1 REVERT JUMPDEST DUP4 MLOAD DUP3 DUP5 PUSH2 0x2431 SWAP2 SWAP1 PUSH2 0x3898 JUMP JUMPDEST GT ISZERO PUSH2 0x2482 JUMPI DUP2 DUP4 PUSH2 0x2443 SWAP2 SWAP1 PUSH2 0x3898 JUMP JUMPDEST DUP5 MLOAD PUSH1 0x40 MLOAD PUSH32 0x8A3C1CFB00000000000000000000000000000000000000000000000000000000 DUP2 MSTORE PUSH1 0x4 ADD PUSH2 0x2479 SWAP3 SWAP2 SWAP1 PUSH2 0x3A0F JUMP JUMPDEST PUSH1 0x40 MLOAD DUP1 SWAP2 SUB SWAP1 REVERT JUMPDEST PUSH1 0x0 DUP6 SWAP1 POP DUP6 DUP4 LT ISZERO PUSH2 0x2493 JUMPI DUP3 SWAP1 POP JUMPDEST PUSH1 0x0 DUP1 PUSH1 0x20 DUP10 ADD DUP11 ADD SWAP2 POP PUSH1 0x20 DUP7 ADD DUP8 ADD SWAP1 POP PUSH1 0x0 JUMPDEST DUP4 DUP2 LT ISZERO PUSH2 0x25A3 JUMPI PUSH1 0x0 DUP1 DUP5 MLOAD SWAP2 POP DUP4 MLOAD SWAP1 POP DUP1 DUP3 EQ PUSH2 0x256F JUMPI PUSH1 0x0 PUSH1 0x20 DUP5 DUP9 PUSH2 0x24D3 SWAP2 SWAP1 PUSH2 0x392A JUMP JUMPDEST LT PUSH2 0x2500 JUMPI PUSH32 0xFFFFFFFFFFFFFFFFFFFFFFFFFFFFFFFFFFFFFFFFFFFFFFFFFFFFFFFFFFFFFFFF SWAP1 POP PUSH2 0x2540 JUMP JUMPDEST PUSH1 0x1 DUP8 PUSH1 0x20 DUP7 PUSH2 0x2510 SWAP2 SWAP1 PUSH2 0x3898 JUMP JUMPDEST PUSH2 0x251A SWAP2 SWAP1 PUSH2 0x392A JUMP JUMPDEST PUSH1 0x8 PUSH2 0x2526 SWAP2 SWAP1 PUSH2 0x395E JUMP JUMPDEST PUSH1 0x2 PUSH2 0x2532 SWAP2 SWAP1 PUSH2 0x3B6B JUMP JUMPDEST PUSH2 0x253C SWAP2 SWAP1 PUSH2 0x392A JUMP JUMPDEST NOT SWAP1 POP JUMPDEST PUSH1 0x0 DUP2 DUP4 AND DUP3 DUP6 AND PUSH2 0x2552 SWAP2 SWAP1 PUSH2 0x3BC0 JUMP JUMPDEST SWAP1 POP PUSH1 0x0 DUP2 EQ PUSH2 0x256C JUMPI DUP1 SWAP9 POP POP POP POP POP POP POP POP POP PUSH2 0x25B6 JUMP JUMPDEST POP POP JUMPDEST PUSH1 0x20 DUP6 PUSH2 0x257C SWAP2 SWAP1 PUSH2 0x3898 JUMP JUMPDEST SWAP5 POP PUSH1 0x20 DUP5 PUSH2 0x258B SWAP2 SWAP1 PUSH2 0x3898 JUMP JUMPDEST SWAP4 POP POP POP PUSH1 0x20 DUP2 PUSH2 0x259C SWAP2 SWAP1 PUSH2 0x3898 JUMP JUMPDEST SWAP1 POP PUSH2 0x24A9 JUMP JUMPDEST POP DUP5 DUP9 PUSH2 0x25B0 SWAP2 SWAP1 PUSH2 0x3BC0 JUMP JUMPDEST SWAP4 POP POP POP POP JUMPDEST SWAP7 SWAP6 POP POP POP POP POP POP JUMP JUMPDEST PUSH1 0x0 DUP2 MLOAD DUP4 MLOAD EQ DUP1 ISZERO PUSH2 0x25DF JUMPI POP PUSH2 0x25DE DUP4 PUSH1 0x0 DUP5 PUSH1 0x0 DUP8 MLOAD PUSH2 0x2619 JUMP JUMPDEST JUMPDEST SWAP1 POP SWAP3 SWAP2 POP POP JUMP JUMPDEST PUSH1 0x0 DUP2 MLOAD DUP4 PUSH2 0x25F6 SWAP2 SWAP1 PUSH2 0x3898 JUMP JUMPDEST DUP5 MLOAD EQ DUP1 ISZERO PUSH2 0x2610 JUMPI POP PUSH2 0x260F DUP5 DUP5 DUP5 PUSH1 0x0 DUP7 MLOAD PUSH2 0x2619 JUMP JUMPDEST JUMPDEST SWAP1 POP SWAP4 SWAP3 POP POP POP JUMP JUMPDEST PUSH1 0x0 PUSH2 0x2626 DUP5 DUP5 DUP5 PUSH2 0x20EA JUMP JUMPDEST PUSH2 0x2631 DUP8 DUP8 DUP6 PUSH2 0x20EA JUMP JUMPDEST EQ SWAP1 POP SWAP6 SWAP5 POP POP POP POP POP JUMP JUMPDEST PUSH1 0x0 PUSH2 0x2656 DUP4 DUP4 DUP5 DUP7 MLOAD PUSH2 0x2651 SWAP2 SWAP1 PUSH2 0x392A JUMP JUMPDEST PUSH2 0x20EA JUMP JUMPDEST PUSH2 0x266D DUP7 DUP7 DUP8 DUP10 MLOAD PUSH2 0x2668 SWAP2 SWAP1 PUSH2 0x392A JUMP JUMPDEST PUSH2 0x20EA JUMP JUMPDEST EQ SWAP1 POP SWAP5 SWAP4 POP POP POP POP JUMP JUMPDEST PUSH1 0x0 DUP3 MLOAD PUSH1 0x20 DUP4 PUSH2 0x2689 SWAP2 SWAP1 PUSH2 0x3898 JUMP JUMPDEST GT ISZERO PUSH2 0x2694 JUMPI PUSH1 0x0 DUP1 REVERT JUMPDEST DUP2 PUSH1 0x20 DUP5 ADD ADD MLOAD SWAP1 POP SWAP3 SWAP2 POP POP JUMP JUMPDEST PUSH1 0x0 DUP3 MLOAD PUSH1 0x2 DUP4 PUSH2 0x26B4 SWAP2 SWAP1 PUSH2 0x3898 JUMP JUMPDEST GT ISZERO PUSH2 0x26BF JUMPI PUSH1 0x0 DUP1 REVERT JUMPDEST PUSH2 0xFFFF DUP3 PUSH1 0x2 DUP6 ADD ADD MLOAD AND SWAP1 POP SWAP3 SWAP2 POP POP JUMP JUMPDEST JUMPDEST PUSH1 0x20 DUP2 LT PUSH2 0x2711 JUMPI DUP2 MLOAD DUP4 MSTORE PUSH1 0x20 DUP4 PUSH2 0x26EC SWAP2 SWAP1 PUSH2 0x3898 JUMP JUMPDEST SWAP3 POP PUSH1 0x20 DUP3 PUSH2 0x26FB SWAP2 SWAP1 PUSH2 0x3898 JUMP JUMPDEST SWAP2 POP PUSH1 0x20 DUP2 PUSH2 0x270A SWAP2 SWAP1 PUSH2 0x392A JUMP JUMPDEST SWAP1 POP PUSH2 0x26D3 JUMP JUMPDEST PUSH1 0x0 PUSH1 0x1 DUP3 PUSH1 0x20 SUB PUSH2 0x100 EXP SUB SWAP1 POP DUP1 NOT DUP4 MLOAD AND DUP2 DUP6 MLOAD AND DUP2 DUP2 OR DUP7 MSTORE POP POP POP POP POP POP JUMP JUMPDEST PUSH1 0x0 DUP3 DUP3 MSTORE PUSH1 0x20 DUP3 ADD SWAP1 POP SWAP3 SWAP2 POP POP JUMP JUMPDEST PUSH32 0x7265616442797465733230000000000000000000000000000000000000000000 PUSH1 0x0 DUP3 ADD MSTORE POP JUMP JUMPDEST PUSH1 0x0 PUSH2 0x277D PUSH1 0xB DUP4 PUSH2 0x2736 JUMP JUMPDEST SWAP2 POP PUSH2 0x2788 DUP3 PUSH2 0x2747 JUMP JUMPDEST PUSH1 0x20 DUP3 ADD SWAP1 POP SWAP2 SWAP1 POP JUMP JUMPDEST PUSH1 0x0 PUSH1 0x20 DUP3 ADD SWAP1 POP DUP2 DUP2 SUB PUSH1 0x0 DUP4 ADD MSTORE PUSH2 0x27AC DUP2 PUSH2 0x2770 JUMP JUMPDEST SWAP1 POP SWAP2 SWAP1 POP JUMP JUMPDEST PUSH32 0x436F707920302062797465730000000000000000000000000000000000000000 PUSH1 0x0 DUP3 ADD MSTORE POP JUMP JUMPDEST PUSH1 0x0 PUSH2 0x27E9 PUSH1 0xC DUP4 PUSH2 0x2736 JUMP JUMPDEST SWAP2 POP PUSH2 0x27F4 DUP3 PUSH2 0x27B3 JUMP JUMPDEST PUSH1 0x20 DUP3 ADD SWAP1 POP SWAP2 SWAP1 POP JUMP JUMPDEST PUSH1 0x0 PUSH1 0x20 DUP3 ADD SWAP1 POP DUP2 DUP2 SUB PUSH1 0x0 DUP4 ADD MSTORE PUSH2 0x2818 DUP2 PUSH2 0x27DC JUMP JUMPDEST SWAP1 POP SWAP2 SWAP1 POP JUMP JUMPDEST PUSH32 0x436F707920737562737472696E67000000000000000000000000000000000000 PUSH1 0x0 DUP3 ADD MSTORE POP JUMP JUMPDEST PUSH1 0x0 PUSH2 0x2855 PUSH1 0xE DUP4 PUSH2 0x2736 JUMP JUMPDEST SWAP2 POP PUSH2 0x2860 DUP3 PUSH2 0x281F JUMP JUMPDEST PUSH1 0x20 DUP3 ADD SWAP1 POP SWAP2 SWAP1 POP JUMP JUMPDEST PUSH1 0x0 PUSH1 0x20 DUP3 ADD SWAP1 POP DUP2 DUP2 SUB PUSH1 0x0 DUP4 ADD MSTORE PUSH2 0x2884 DUP2 PUSH2 0x2848 JUMP JUMPDEST SWAP1 POP SWAP2 SWAP1 POP JUMP JUMPDEST PUSH32 0x436F70792077686F6C6520737472696E67000000000000000000000000000000 PUSH1 0x0 DUP3 ADD MSTORE POP JUMP JUMPDEST PUSH1 0x0 PUSH2 0x28C1 PUSH1 0x11 DUP4 PUSH2 0x2736 JUMP JUMPDEST SWAP2 POP PUSH2 0x28CC DUP3 PUSH2 0x288B JUMP JUMPDEST PUSH1 0x20 DUP3 ADD SWAP1 POP SWAP2 SWAP1 POP JUMP JUMPDEST PUSH1 0x0 PUSH1 0x20 DUP3 ADD SWAP1 POP DUP2 DUP2 SUB PUSH1 0x0 DUP4 ADD MSTORE PUSH2 0x28F0 DUP2 PUSH2 0x28B4 JUMP JUMPDEST SWAP1 POP SWAP2 SWAP1 POP JUMP JUMPDEST PUSH32 0x526561642075696E742033320000000000000000000000000000000000000000 PUSH1 0x0 DUP3 ADD MSTORE POP JUMP JUMPDEST PUSH1 0x0 PUSH2 0x292D PUSH1 0xC DUP4 PUSH2 0x2736 JUMP JUMPDEST SWAP2 POP PUSH2 0x2938 DUP3 PUSH2 0x28F7 JUMP JUMPDEST PUSH1 0x20 DUP3 ADD SWAP1 POP SWAP2 SWAP1 POP JUMP JUMPDEST PUSH1 0x0 PUSH1 0x20 DUP3 ADD SWAP1 POP DUP2 DUP2 SUB PUSH1 0x0 DUP4 ADD MSTORE PUSH2 0x295C DUP2 PUSH2 0x2920 JUMP JUMPDEST SWAP1 POP SWAP2 SWAP1 POP JUMP JUMPDEST PUSH32 0x61203D3D20307836310000000000000000000000000000000000000000000000 PUSH1 0x0 DUP3 ADD MSTORE POP JUMP JUMPDEST PUSH1 0x0 PUSH2 0x2999 PUSH1 0x9 DUP4 PUSH2 0x2736 JUMP JUMPDEST SWAP2 POP PUSH2 0x29A4 DUP3 PUSH2 0x2963 JUMP JUMPDEST PUSH1 0x20 DUP3 ADD SWAP1 POP SWAP2 SWAP1 POP JUMP JUMPDEST PUSH1 0x0 PUSH1 0x20 DUP3 ADD SWAP1 POP DUP2 DUP2 SUB PUSH1 0x0 DUP4 ADD MSTORE PUSH2 0x29C8 DUP2 PUSH2 0x298C JUMP JUMPDEST SWAP1 POP SWAP2 SWAP1 POP JUMP JUMPDEST PUSH32 0x496E636F72726563742068617368206F6620656D70747920737472696E670000 PUSH1 0x0 DUP3 ADD MSTORE POP JUMP JUMPDEST PUSH1 0x0 PUSH2 0x2A05 PUSH1 0x1E DUP4 PUSH2 0x2736 JUMP JUMPDEST SWAP2 POP PUSH2 0x2A10 DUP3 PUSH2 0x29CF JUMP JUMPDEST PUSH1 0x20 DUP3 ADD SWAP1 POP SWAP2 SWAP1 POP JUMP JUMPDEST PUSH1 0x0 PUSH1 0x20 DUP3 ADD SWAP1 POP DUP2 DUP2 SUB PUSH1 0x0 DUP4 ADD MSTORE PUSH2 0x2A34 DUP2 PUSH2 0x29F8 JUMP JUMPDEST SWAP1 POP SWAP2 SWAP1 POP JUMP JUMPDEST PUSH32 0x496E636F72726563742068617368206F662027666F6F27000000000000000000 PUSH1 0x0 DUP3 ADD MSTORE POP JUMP JUMPDEST PUSH1 0x0 PUSH2 0x2A71 PUSH1 0x17 DUP4 PUSH2 0x2736 JUMP JUMPDEST SWAP2 POP PUSH2 0x2A7C DUP3 PUSH2 0x2A3B JUMP JUMPDEST PUSH1 0x20 DUP3 ADD SWAP1 POP SWAP2 SWAP1 POP JUMP JUMPDEST PUSH1 0x0 PUSH1 0x20 DUP3 ADD SWAP1 POP DUP2 DUP2 SUB PUSH1 0x0 DUP4 ADD MSTORE PUSH2 0x2AA0 DUP2 PUSH2 0x2A64 JUMP JUMPDEST SWAP1 POP SWAP2 SWAP1 POP JUMP JUMPDEST PUSH32 0x436F6D7061726520657175616C00000000000000000000000000000000000000 PUSH1 0x0 DUP3 ADD MSTORE POP JUMP JUMPDEST PUSH1 0x0 PUSH2 0x2ADD PUSH1 0xD DUP4 PUSH2 0x2736 JUMP JUMPDEST SWAP2 POP PUSH2 0x2AE8 DUP3 PUSH2 0x2AA7 JUMP JUMPDEST PUSH1 0x20 DUP3 ADD SWAP1 POP SWAP2 SWAP1 POP JUMP JUMPDEST PUSH1 0x0 PUSH1 0x20 DUP3 ADD SWAP1 POP DUP2 DUP2 SUB PUSH1 0x0 DUP4 ADD MSTORE PUSH2 0x2B0C DUP2 PUSH2 0x2AD0 JUMP JUMPDEST SWAP1 POP SWAP2 SWAP1 POP JUMP JUMPDEST PUSH32 0x436F6D7061726520646966666572656E742076616C756520776974682073616D PUSH1 0x0 DUP3 ADD MSTORE PUSH32 0x65206C656E677468000000000000000000000000000000000000000000000000 PUSH1 0x20 DUP3 ADD MSTORE POP JUMP JUMPDEST PUSH1 0x0 PUSH2 0x2B6F PUSH1 0x28 DUP4 PUSH2 0x2736 JUMP JUMPDEST SWAP2 POP PUSH2 0x2B7A DUP3 PUSH2 0x2B13 JUMP JUMPDEST PUSH1 0x40 DUP3 ADD SWAP1 POP SWAP2 SWAP1 POP JUMP JUMPDEST PUSH1 0x0 PUSH1 0x20 DUP3 ADD SWAP1 POP DUP2 DUP2 SUB PUSH1 0x0 DUP4 ADD MSTORE PUSH2 0x2B9E DUP2 PUSH2 0x2B62 JUMP JUMPDEST SWAP1 POP SWAP2 SWAP1 POP JUMP JUMPDEST PUSH32 0x436F6D7061726520646966666572656E742076616C75652077697468206D756C PUSH1 0x0 DUP3 ADD MSTORE PUSH32 0x7469706C65206C656E6774680000000000000000000000000000000000000000 PUSH1 0x20 DUP3 ADD MSTORE POP JUMP JUMPDEST PUSH1 0x0 PUSH2 0x2C01 PUSH1 0x2C DUP4 PUSH2 0x2736 JUMP JUMPDEST SWAP2 POP PUSH2 0x2C0C DUP3 PUSH2 0x2BA5 JUMP JUMPDEST PUSH1 0x40 DUP3 ADD SWAP1 POP SWAP2 SWAP1 POP JUMP JUMPDEST PUSH1 0x0 PUSH1 0x20 DUP3 ADD SWAP1 POP DUP2 DUP2 SUB PUSH1 0x0 DUP4 ADD MSTORE PUSH2 0x2C30 DUP2 PUSH2 0x2BF4 JUMP JUMPDEST SWAP1 POP SWAP2 SWAP1 POP JUMP JUMPDEST PUSH32 0x436F6D7061726520646966666572656E742076616C7565207769746820646966 PUSH1 0x0 DUP3 ADD MSTORE PUSH32 0x666572656E74206C656E67746800000000000000000000000000000000000000 PUSH1 0x20 DUP3 ADD MSTORE POP JUMP JUMPDEST PUSH1 0x0 PUSH2 0x2C93 PUSH1 0x2D DUP4 PUSH2 0x2736 JUMP JUMPDEST SWAP2 POP PUSH2 0x2C9E DUP3 PUSH2 0x2C37 JUMP JUMPDEST PUSH1 0x40 DUP3 ADD SWAP1 POP SWAP2 SWAP1 POP JUMP JUMPDEST PUSH1 0x0 PUSH1 0x20 DUP3 ADD SWAP1 POP DUP2 DUP2 SUB PUSH1 0x0 DUP4 ADD MSTORE PUSH2 0x2CC2 DUP2 PUSH2 0x2C86 JUMP JUMPDEST SWAP1 POP SWAP2 SWAP1 POP JUMP JUMPDEST PUSH32 0x436F6D7061726573206D6F7265207468616E2033322062797465732063686172 PUSH1 0x0 DUP3 ADD MSTORE POP JUMP JUMPDEST PUSH1 0x0 PUSH2 0x2CFF PUSH1 0x20 DUP4 PUSH2 0x2736 JUMP JUMPDEST SWAP2 POP PUSH2 0x2D0A DUP3 PUSH2 0x2CC9 JUMP JUMPDEST PUSH1 0x20 DUP3 ADD SWAP1 POP SWAP2 SWAP1 POP JUMP JUMPDEST PUSH1 0x0 PUSH1 0x20 DUP3 ADD SWAP1 POP DUP2 DUP2 SUB PUSH1 0x0 DUP4 ADD MSTORE PUSH2 0x2D2E DUP2 PUSH2 0x2CF2 JUMP JUMPDEST SWAP1 POP SWAP2 SWAP1 POP JUMP JUMPDEST PUSH32 0x436F6D70617265206C6F6E672063686172207769746820646966666572656E63 PUSH1 0x0 DUP3 ADD MSTORE PUSH32 0x6520617420737461727400000000000000000000000000000000000000000000 PUSH1 0x20 DUP3 ADD MSTORE POP JUMP JUMPDEST PUSH1 0x0 PUSH2 0x2D91 PUSH1 0x2A DUP4 PUSH2 0x2736 JUMP JUMPDEST SWAP2 POP PUSH2 0x2D9C DUP3 PUSH2 0x2D35 JUMP JUMPDEST PUSH1 0x40 DUP3 ADD SWAP1 POP SWAP2 SWAP1 POP JUMP JUMPDEST PUSH1 0x0 PUSH1 0x20 DUP3 ADD SWAP1 POP DUP2 DUP2 SUB PUSH1 0x0 DUP4 ADD MSTORE PUSH2 0x2DC0 DUP2 PUSH2 0x2D84 JUMP JUMPDEST SWAP1 POP SWAP2 SWAP1 POP JUMP JUMPDEST PUSH32 0x4465636F64652027612700000000000000000000000000000000000000000000 PUSH1 0x0 DUP3 ADD MSTORE POP JUMP JUMPDEST PUSH1 0x0 PUSH2 0x2DFD PUSH1 0xA DUP4 PUSH2 0x2736 JUMP JUMPDEST SWAP2 POP PUSH2 0x2E08 DUP3 PUSH2 0x2DC7 JUMP JUMPDEST PUSH1 0x20 DUP3 ADD SWAP1 POP SWAP2 SWAP1 POP JUMP JUMPDEST PUSH1 0x0 PUSH1 0x20 DUP3 ADD SWAP1 POP DUP2 DUP2 SUB PUSH1 0x0 DUP4 ADD MSTORE PUSH2 0x2E2C DUP2 PUSH2 0x2DF0 JUMP JUMPDEST SWAP1 POP SWAP2 SWAP1 POP JUMP JUMPDEST PUSH32 0x4465636F64652027616127000000000000000000000000000000000000000000 PUSH1 0x0 DUP3 ADD MSTORE POP JUMP JUMPDEST PUSH1 0x0 PUSH2 0x2E69 PUSH1 0xB DUP4 PUSH2 0x2736 JUMP JUMPDEST SWAP2 POP PUSH2 0x2E74 DUP3 PUSH2 0x2E33 JUMP JUMPDEST PUSH1 0x20 DUP3 ADD SWAP1 POP SWAP2 SWAP1 POP JUMP JUMPDEST PUSH1 0x0 PUSH1 0x20 DUP3 ADD SWAP1 POP DUP2 DUP2 SUB PUSH1 0x0 DUP4 ADD MSTORE PUSH2 0x2E98 DUP2 PUSH2 0x2E5C JUMP JUMPDEST SWAP1 POP SWAP2 SWAP1 POP JUMP JUMPDEST PUSH32 0x4465636F64652027616161270000000000000000000000000000000000000000 PUSH1 0x0 DUP3 ADD MSTORE POP JUMP JUMPDEST PUSH1 0x0 PUSH2 0x2ED5 PUSH1 0xC DUP4 PUSH2 0x2736 JUMP JUMPDEST SWAP2 POP PUSH2 0x2EE0 DUP3 PUSH2 0x2E9F JUMP JUMPDEST PUSH1 0x20 DUP3 ADD SWAP1 POP SWAP2 SWAP1 POP JUMP JUMPDEST PUSH1 0x0 PUSH1 0x20 DUP3 ADD SWAP1 POP DUP2 DUP2 SUB PUSH1 0x0 DUP4 ADD MSTORE PUSH2 0x2F04 DUP2 PUSH2 0x2EC8 JUMP JUMPDEST SWAP1 POP SWAP2 SWAP1 POP JUMP JUMPDEST PUSH32 0x4465636F64652027616161612700000000000000000000000000000000000000 PUSH1 0x0 DUP3 ADD MSTORE POP JUMP JUMPDEST PUSH1 0x0 PUSH2 0x2F41 PUSH1 0xD DUP4 PUSH2 0x2736 JUMP JUMPDEST SWAP2 POP PUSH2 0x2F4C DUP3 PUSH2 0x2F0B JUMP JUMPDEST PUSH1 0x20 DUP3 ADD SWAP1 POP SWAP2 SWAP1 POP JUMP JUMPDEST PUSH1 0x0 PUSH1 0x20 DUP3 ADD SWAP1 POP DUP2 DUP2 SUB PUSH1 0x0 DUP4 ADD MSTORE PUSH2 0x2F70 DUP2 PUSH2 0x2F34 JUMP JUMPDEST SWAP1 POP SWAP2 SWAP1 POP JUMP JUMPDEST PUSH32 0x4465636F64652027616161616127000000000000000000000000000000000000 PUSH1 0x0 DUP3 ADD MSTORE POP JUMP JUMPDEST PUSH1 0x0 PUSH2 0x2FAD PUSH1 0xE DUP4 PUSH2 0x2736 JUMP JUMPDEST SWAP2 POP PUSH2 0x2FB8 DUP3 PUSH2 0x2F77 JUMP JUMPDEST PUSH1 0x20 DUP3 ADD SWAP1 POP SWAP2 SWAP1 POP JUMP JUMPDEST PUSH1 0x0 PUSH1 0x20 DUP3 ADD SWAP1 POP DUP2 DUP2 SUB PUSH1 0x0 DUP4 ADD MSTORE PUSH2 0x2FDC DUP2 PUSH2 0x2FA0 JUMP JUMPDEST SWAP1 POP SWAP2 SWAP1 POP JUMP JUMPDEST PUSH32 0x4465636F64652027616161616127206C6F776572636173650000000000000000 PUSH1 0x0 DUP3 ADD MSTORE POP JUMP JUMPDEST PUSH1 0x0 PUSH2 0x3019 PUSH1 0x18 DUP4 PUSH2 0x2736 JUMP JUMPDEST SWAP2 POP PUSH2 0x3024 DUP3 PUSH2 0x2FE3 JUMP JUMPDEST PUSH1 0x20 DUP3 ADD SWAP1 POP SWAP2 SWAP1 POP JUMP JUMPDEST PUSH1 0x0 PUSH1 0x20 DUP3 ADD SWAP1 POP DUP2 DUP2 SUB PUSH1 0x0 DUP4 ADD MSTORE PUSH2 0x3048 DUP2 PUSH2 0x300C JUMP JUMPDEST SWAP1 POP SWAP2 SWAP1 POP JUMP JUMPDEST PUSH32 0x4465636F646520616C7068616265740000000000000000000000000000000000 PUSH1 0x0 DUP3 ADD MSTORE POP JUMP JUMPDEST PUSH1 0x0 PUSH2 0x3085 PUSH1 0xF DUP4 PUSH2 0x2736 JUMP JUMPDEST SWAP2 POP PUSH2 0x3090 DUP3 PUSH2 0x304F JUMP JUMPDEST PUSH1 0x20 DUP3 ADD SWAP1 POP SWAP2 SWAP1 POP JUMP JUMPDEST PUSH1 0x0 PUSH1 0x20 DUP3 ADD SWAP1 POP DUP2 DUP2 SUB PUSH1 0x0 DUP4 ADD MSTORE PUSH2 0x30B4 DUP2 PUSH2 0x3078 JUMP JUMPDEST SWAP1 POP SWAP2 SWAP1 POP JUMP JUMPDEST PUSH32 0x4465636F646520616C706861626574206C6F7765726361736500000000000000 PUSH1 0x0 DUP3 ADD MSTORE POP JUMP JUMPDEST PUSH1 0x0 PUSH2 0x30F1 PUSH1 0x19 DUP4 PUSH2 0x2736 JUMP JUMPDEST SWAP2 POP PUSH2 0x30FC DUP3 PUSH2 0x30BB JUMP JUMPDEST PUSH1 0x20 DUP3 ADD SWAP1 POP SWAP2 SWAP1 POP JUMP JUMPDEST PUSH1 0x0 PUSH1 0x20 DUP3 ADD SWAP1 POP DUP2 DUP2 SUB PUSH1 0x0 DUP4 ADD MSTORE PUSH2 0x3120 DUP2 PUSH2 0x30E4 JUMP JUMPDEST SWAP1 POP SWAP2 SWAP1 POP JUMP JUMPDEST PUSH32 0x4465636F64652033322A27612700000000000000000000000000000000000000 PUSH1 0x0 DUP3 ADD MSTORE POP JUMP JUMPDEST PUSH1 0x0 PUSH2 0x315D PUSH1 0xD DUP4 PUSH2 0x2736 JUMP JUMPDEST SWAP2 POP PUSH2 0x3168 DUP3 PUSH2 0x3127 JUMP JUMPDEST PUSH1 0x20 DUP3 ADD SWAP1 POP SWAP2 SWAP1 POP JUMP JUMPDEST PUSH1 0x0 PUSH1 0x20 DUP3 ADD SWAP1 POP DUP2 DUP2 SUB PUSH1 0x0 DUP4 ADD MSTORE PUSH2 0x318C DUP2 PUSH2 0x3150 JUMP JUMPDEST SWAP1 POP SWAP2 SWAP1 POP JUMP JUMPDEST PUSH32 0x4465636F6465207265616C206279746573333268657800000000000000000000 PUSH1 0x0 DUP3 ADD MSTORE POP JUMP JUMPDEST PUSH1 0x0 PUSH2 0x31C9 PUSH1 0x16 DUP4 PUSH2 0x2736 JUMP JUMPDEST SWAP2 POP PUSH2 0x31D4 DUP3 PUSH2 0x3193 JUMP JUMPDEST PUSH1 0x20 DUP3 ADD SWAP1 POP SWAP2 SWAP1 POP JUMP JUMPDEST PUSH1 0x0 PUSH1 0x20 DUP3 ADD SWAP1 POP DUP2 DUP2 SUB PUSH1 0x0 DUP4 ADD MSTORE PUSH2 0x31F8 DUP2 PUSH2 0x31BC JUMP JUMPDEST SWAP1 POP SWAP2 SWAP1 POP JUMP JUMPDEST PUSH32 0x436F6D706172652073616D65206C656E67746800000000000000000000000000 PUSH1 0x0 DUP3 ADD MSTORE POP JUMP JUMPDEST PUSH1 0x0 PUSH2 0x3235 PUSH1 0x13 DUP4 PUSH2 0x2736 JUMP JUMPDEST SWAP2 POP PUSH2 0x3240 DUP3 PUSH2 0x31FF JUMP JUMPDEST PUSH1 0x20 DUP3 ADD SWAP1 POP SWAP2 SWAP1 POP JUMP JUMPDEST PUSH1 0x0 PUSH1 0x20 DUP3 ADD SWAP1 POP DUP2 DUP2 SUB PUSH1 0x0 DUP4 ADD MSTORE PUSH2 0x3264 DUP2 PUSH2 0x3228 JUMP JUMPDEST SWAP1 POP SWAP2 SWAP1 POP JUMP JUMPDEST PUSH32 0x436F6D7061726520646966666572656E74206C656E6774680000000000000000 PUSH1 0x0 DUP3 ADD MSTORE POP JUMP JUMPDEST PUSH1 0x0 PUSH2 0x32A1 PUSH1 0x18 DUP4 PUSH2 0x2736 JUMP JUMPDEST SWAP2 POP PUSH2 0x32AC DUP3 PUSH2 0x326B JUMP JUMPDEST PUSH1 0x20 DUP3 ADD SWAP1 POP SWAP2 SWAP1 POP JUMP JUMPDEST PUSH1 0x0 PUSH1 0x20 DUP3 ADD SWAP1 POP DUP2 DUP2 SUB PUSH1 0x0 DUP4 ADD MSTORE PUSH2 0x32D0 DUP2 PUSH2 0x3294 JUMP JUMPDEST SWAP1 POP SWAP2 SWAP1 POP JUMP JUMPDEST PUSH32 0x436F6D706172652073616D65207769746820646966666572656E74206F666673 PUSH1 0x0 DUP3 ADD MSTORE PUSH32 0x6574000000000000000000000000000000000000000000000000000000000000 PUSH1 0x20 DUP3 ADD MSTORE POP JUMP JUMPDEST PUSH1 0x0 PUSH2 0x3333 PUSH1 0x22 DUP4 PUSH2 0x2736 JUMP JUMPDEST SWAP2 POP PUSH2 0x333E DUP3 PUSH2 0x32D7 JUMP JUMPDEST PUSH1 0x40 DUP3 ADD SWAP1 POP SWAP2 SWAP1 POP JUMP JUMPDEST PUSH1 0x0 PUSH1 0x20 DUP3 ADD SWAP1 POP DUP2 DUP2 SUB PUSH1 0x0 DUP4 ADD MSTORE PUSH2 0x3362 DUP2 PUSH2 0x3326 JUMP JUMPDEST SWAP1 POP SWAP2 SWAP1 POP JUMP JUMPDEST PUSH32 0x436F6D7061726520646966666572656E74206C6F6E6720737472696E67732073 PUSH1 0x0 DUP3 ADD MSTORE PUSH32 0x616D65206C656E67746820736D616C6C6572207061727469616C206C656E6774 PUSH1 0x20 DUP3 ADD MSTORE PUSH32 0x68207768696368206D75737420626520657175616C0000000000000000000000 PUSH1 0x40 DUP3 ADD MSTORE POP JUMP JUMPDEST PUSH1 0x0 PUSH2 0x33EB PUSH1 0x55 DUP4 PUSH2 0x2736 JUMP JUMPDEST SWAP2 POP PUSH2 0x33F6 DUP3 PUSH2 0x3369 JUMP JUMPDEST PUSH1 0x60 DUP3 ADD SWAP1 POP SWAP2 SWAP1 POP JUMP JUMPDEST PUSH1 0x0 PUSH1 0x20 DUP3 ADD SWAP1 POP DUP2 DUP2 SUB PUSH1 0x0 DUP4 ADD MSTORE PUSH2 0x341A DUP2 PUSH2 0x33DE JUMP JUMPDEST SWAP1 POP SWAP2 SWAP1 POP JUMP JUMPDEST PUSH32 0x436F6D70617265206C6F6E6720737472696E67732073616D65206C656E677468 PUSH1 0x0 DUP3 ADD MSTORE PUSH32 0x20646966666572656E74207061727469616C206C656E67746800000000000000 PUSH1 0x20 DUP3 ADD MSTORE POP JUMP JUMPDEST PUSH1 0x0 PUSH2 0x347D PUSH1 0x39 DUP4 PUSH2 0x2736 JUMP JUMPDEST SWAP2 POP PUSH2 0x3488 DUP3 PUSH2 0x3421 JUMP JUMPDEST PUSH1 0x40 DUP3 ADD SWAP1 POP SWAP2 SWAP1 POP JUMP JUMPDEST PUSH1 0x0 PUSH1 0x20 DUP3 ADD SWAP1 POP DUP2 DUP2 SUB PUSH1 0x0 DUP4 ADD MSTORE PUSH2 0x34AC DUP2 PUSH2 0x3470 JUMP JUMPDEST SWAP1 POP SWAP2 SWAP1 POP JUMP JUMPDEST PUSH32 0x436F6D7061726520737472696E67732065786163746C79203332206368617261 PUSH1 0x0 DUP3 ADD MSTORE PUSH32 0x6374657273206C6F6E6700000000000000000000000000000000000000000000 PUSH1 0x20 DUP3 ADD MSTORE POP JUMP JUMPDEST PUSH1 0x0 PUSH2 0x350F PUSH1 0x2A DUP4 PUSH2 0x2736 JUMP JUMPDEST SWAP2 POP PUSH2 0x351A DUP3 PUSH2 0x34B3 JUMP JUMPDEST PUSH1 0x40 DUP3 ADD SWAP1 POP SWAP2 SWAP1 POP JUMP JUMPDEST PUSH1 0x0 PUSH1 0x20 DUP3 ADD SWAP1 POP DUP2 DUP2 SUB PUSH1 0x0 DUP4 ADD MSTORE PUSH2 0x353E DUP2 PUSH2 0x3502 JUMP JUMPDEST SWAP1 POP SWAP2 SWAP1 POP JUMP JUMPDEST PUSH32 0x537472696E6720657175616C6974790000000000000000000000000000000000 PUSH1 0x0 DUP3 ADD MSTORE POP JUMP JUMPDEST PUSH1 0x0 PUSH2 0x357B PUSH1 0xF DUP4 PUSH2 0x2736 JUMP JUMPDEST SWAP2 POP PUSH2 0x3586 DUP3 PUSH2 0x3545 JUMP JUMPDEST PUSH1 0x20 DUP3 ADD SWAP1 POP SWAP2 SWAP1 POP JUMP JUMPDEST PUSH1 0x0 PUSH1 0x20 DUP3 ADD SWAP1 POP DUP2 DUP2 SUB PUSH1 0x0 DUP4 ADD MSTORE PUSH2 0x35AA DUP2 PUSH2 0x356E JUMP JUMPDEST SWAP1 POP SWAP2 SWAP1 POP JUMP JUMPDEST PUSH32 0x537472696E6720696E657175616C697479000000000000000000000000000000 PUSH1 0x0 DUP3 ADD MSTORE POP JUMP JUMPDEST PUSH1 0x0 PUSH2 0x35E7 PUSH1 0x11 DUP4 PUSH2 0x2736 JUMP JUMPDEST SWAP2 POP PUSH2 0x35F2 DUP3 PUSH2 0x35B1 JUMP JUMPDEST PUSH1 0x20 DUP3 ADD SWAP1 POP SWAP2 SWAP1 POP JUMP JUMPDEST PUSH1 0x0 PUSH1 0x20 DUP3 ADD SWAP1 POP DUP2 DUP2 SUB PUSH1 0x0 DUP4 ADD MSTORE PUSH2 0x3616 DUP2 PUSH2 0x35DA JUMP JUMPDEST SWAP1 POP SWAP2 SWAP1 POP JUMP JUMPDEST PUSH32 0x537562737472696E6720746F20737472696E6720657175616C69747900000000 PUSH1 0x0 DUP3 ADD MSTORE POP JUMP JUMPDEST PUSH1 0x0 PUSH2 0x3653 PUSH1 0x1C DUP4 PUSH2 0x2736 JUMP JUMPDEST SWAP2 POP PUSH2 0x365E DUP3 PUSH2 0x361D JUMP JUMPDEST PUSH1 0x20 DUP3 ADD SWAP1 POP SWAP2 SWAP1 POP JUMP JUMPDEST PUSH1 0x0 PUSH1 0x20 DUP3 ADD SWAP1 POP DUP2 DUP2 SUB PUSH1 0x0 DUP4 ADD MSTORE PUSH2 0x3682 DUP2 PUSH2 0x3646 JUMP JUMPDEST SWAP1 POP SWAP2 SWAP1 POP JUMP JUMPDEST PUSH32 0x537562737472696E6720746F20737562737472696E6720657175616C69747900 PUSH1 0x0 DUP3 ADD MSTORE POP JUMP JUMPDEST PUSH1 0x0 PUSH2 0x36BF PUSH1 0x1F DUP4 PUSH2 0x2736 JUMP JUMPDEST SWAP2 POP PUSH2 0x36CA DUP3 PUSH2 0x3689 JUMP JUMPDEST PUSH1 0x20 DUP3 ADD SWAP1 POP SWAP2 SWAP1 POP JUMP JUMPDEST PUSH1 0x0 PUSH1 0x20 DUP3 ADD SWAP1 POP DUP2 DUP2 SUB PUSH1 0x0 DUP4 ADD MSTORE PUSH2 0x36EE DUP2 PUSH2 0x36B2 JUMP JUMPDEST SWAP1 POP SWAP2 SWAP1 POP JUMP JUMPDEST PUSH32 0x436F6D706172652077697468206F666673657420616E6420747261696C696E67 PUSH1 0x0 DUP3 ADD MSTORE PUSH32 0x2062797465730000000000000000000000000000000000000000000000000000 PUSH1 0x20 DUP3 ADD MSTORE POP JUMP JUMPDEST PUSH1 0x0 PUSH2 0x3751 PUSH1 0x26 DUP4 PUSH2 0x2736 JUMP JUMPDEST SWAP2 POP PUSH2 0x375C DUP3 PUSH2 0x36F5 JUMP JUMPDEST PUSH1 0x40 DUP3 ADD SWAP1 POP SWAP2 SWAP1 POP JUMP JUMPDEST PUSH1 0x0 PUSH1 0x20 DUP3 ADD SWAP1 POP DUP2 DUP2 SUB PUSH1 0x0 DUP4 ADD MSTORE PUSH2 0x3780 DUP2 PUSH2 0x3744 JUMP JUMPDEST SWAP1 POP SWAP2 SWAP1 POP JUMP JUMPDEST PUSH32 0x7265616442797465733332000000000000000000000000000000000000000000 PUSH1 0x0 DUP3 ADD MSTORE POP JUMP JUMPDEST PUSH1 0x0 PUSH2 0x37BD PUSH1 0xB DUP4 PUSH2 0x2736 JUMP JUMPDEST SWAP2 POP PUSH2 0x37C8 DUP3 PUSH2 0x3787 JUMP JUMPDEST PUSH1 0x20 DUP3 ADD SWAP1 POP SWAP2 SWAP1 POP JUMP JUMPDEST PUSH1 0x0 PUSH1 0x20 DUP3 ADD SWAP1 POP DUP2 DUP2 SUB PUSH1 0x0 DUP4 ADD MSTORE PUSH2 0x37EC DUP2 PUSH2 0x37B0 JUMP JUMPDEST SWAP1 POP SWAP2 SWAP1 POP JUMP JUMPDEST PUSH32 0x526561642075696E742031360000000000000000000000000000000000000000 PUSH1 0x0 DUP3 ADD MSTORE POP JUMP JUMPDEST PUSH1 0x0 PUSH2 0x3829 PUSH1 0xC DUP4 PUSH2 0x2736 JUMP JUMPDEST SWAP2 POP PUSH2 0x3834 DUP3 PUSH2 0x37F3 JUMP JUMPDEST PUSH1 0x20 DUP3 ADD SWAP1 POP SWAP2 SWAP1 POP JUMP JUMPDEST PUSH1 0x0 PUSH1 0x20 DUP3 ADD SWAP1 POP DUP2 DUP2 SUB PUSH1 0x0 DUP4 ADD MSTORE PUSH2 0x3858 DUP2 PUSH2 0x381C JUMP JUMPDEST SWAP1 POP SWAP2 SWAP1 POP JUMP JUMPDEST PUSH1 0x0 DUP2 SWAP1 POP SWAP2 SWAP1 POP JUMP JUMPDEST PUSH32 0x4E487B7100000000000000000000000000000000000000000000000000000000 PUSH1 0x0 MSTORE PUSH1 0x11 PUSH1 0x4 MSTORE PUSH1 0x24 PUSH1 0x0 REVERT JUMPDEST PUSH1 0x0 PUSH2 0x38A3 DUP3 PUSH2 0x385F JUMP JUMPDEST SWAP2 POP PUSH2 0x38AE DUP4 PUSH2 0x385F JUMP JUMPDEST SWAP3 POP DUP3 DUP3 ADD SWAP1 POP DUP1 DUP3 GT ISZERO PUSH2 0x38C6 JUMPI PUSH2 0x38C5 PUSH2 0x3869 JUMP JUMPDEST JUMPDEST SWAP3 SWAP2 POP POP JUMP JUMPDEST PUSH32 0x4E487B7100000000000000000000000000000000000000000000000000000000 PUSH1 0x0 MSTORE PUSH1 0x41 PUSH1 0x4 MSTORE PUSH1 0x24 PUSH1 0x0 REVERT JUMPDEST PUSH32 0x4E487B7100000000000000000000000000000000000000000000000000000000 PUSH1 0x0 MSTORE PUSH1 0x32 PUSH1 0x4 MSTORE PUSH1 0x24 PUSH1 0x0 REVERT JUMPDEST PUSH1 0x0 PUSH2 0x3935 DUP3 PUSH2 0x385F JUMP JUMPDEST SWAP2 POP PUSH2 0x3940 DUP4 PUSH2 0x385F JUMP JUMPDEST SWAP3 POP DUP3 DUP3 SUB SWAP1 POP DUP2 DUP2 GT ISZERO PUSH2 0x3958 JUMPI PUSH2 0x3957 PUSH2 0x3869 JUMP JUMPDEST JUMPDEST SWAP3 SWAP2 POP POP JUMP JUMPDEST PUSH1 0x0 PUSH2 0x3969 DUP3 PUSH2 0x385F JUMP JUMPDEST SWAP2 POP PUSH2 0x3974 DUP4 PUSH2 0x385F JUMP JUMPDEST SWAP3 POP DUP3 DUP3 MUL PUSH2 0x3982 DUP2 PUSH2 0x385F JUMP JUMPDEST SWAP2 POP DUP3 DUP3 DIV DUP5 EQ DUP4 ISZERO OR PUSH2 0x3999 JUMPI PUSH2 0x3998 PUSH2 0x3869 JUMP JUMPDEST JUMPDEST POP SWAP3 SWAP2 POP POP JUMP JUMPDEST PUSH32 0x4E487B7100000000000000000000000000000000000000000000000000000000 PUSH1 0x0 MSTORE PUSH1 0x12 PUSH1 0x4 MSTORE PUSH1 0x24 PUSH1 0x0 REVERT JUMPDEST PUSH1 0x0 PUSH2 0x39DA DUP3 PUSH2 0x385F JUMP JUMPDEST SWAP2 POP PUSH2 0x39E5 DUP4 PUSH2 0x385F JUMP JUMPDEST SWAP3 POP DUP3 PUSH2 0x39F5 JUMPI PUSH2 0x39F4 PUSH2 0x39A0 JUMP JUMPDEST JUMPDEST DUP3 DUP3 MOD SWAP1 POP SWAP3 SWAP2 POP POP JUMP JUMPDEST PUSH2 0x3A09 DUP2 PUSH2 0x385F JUMP JUMPDEST DUP3 MSTORE POP POP JUMP JUMPDEST PUSH1 0x0 PUSH1 0x40 DUP3 ADD SWAP1 POP PUSH2 0x3A24 PUSH1 0x0 DUP4 ADD DUP6 PUSH2 0x3A00 JUMP JUMPDEST PUSH2 0x3A31 PUSH1 0x20 DUP4 ADD DUP5 PUSH2 0x3A00 JUMP JUMPDEST SWAP4 SWAP3 POP POP POP JUMP JUMPDEST PUSH1 0x0 DUP2 PUSH1 0x1 SHR SWAP1 POP SWAP2 SWAP1 POP JUMP JUMPDEST PUSH1 0x0 DUP1 DUP3 SWAP2 POP DUP4 SWAP1 POP JUMPDEST PUSH1 0x1 DUP6 GT ISZERO PUSH2 0x3A8F JUMPI DUP1 DUP7 DIV DUP2 GT ISZERO PUSH2 0x3A6B JUMPI PUSH2 0x3A6A PUSH2 0x3869 JUMP JUMPDEST JUMPDEST PUSH1 0x1 DUP6 AND ISZERO PUSH2 0x3A7A JUMPI DUP1 DUP3 MUL SWAP2 POP JUMPDEST DUP1 DUP2 MUL SWAP1 POP PUSH2 0x3A88 DUP6 PUSH2 0x3A38 JUMP JUMPDEST SWAP5 POP PUSH2 0x3A4F JUMP JUMPDEST SWAP5 POP SWAP5 SWAP3 POP POP POP JUMP JUMPDEST PUSH1 0x0 DUP3 PUSH2 0x3AA8 JUMPI PUSH1 0x1 SWAP1 POP PUSH2 0x3B64 JUMP JUMPDEST DUP2 PUSH2 0x3AB6 JUMPI PUSH1 0x0 SWAP1 POP PUSH2 0x3B64 JUMP JUMPDEST DUP2 PUSH1 0x1 DUP2 EQ PUSH2 0x3ACC JUMPI PUSH1 0x2 DUP2 EQ PUSH2 0x3AD6 JUMPI PUSH2 0x3B05 JUMP JUMPDEST PUSH1 0x1 SWAP2 POP POP PUSH2 0x3B64 JUMP JUMPDEST PUSH1 0xFF DUP5 GT ISZERO PUSH2 0x3AE8 JUMPI PUSH2 0x3AE7 PUSH2 0x3869 JUMP JUMPDEST JUMPDEST DUP4 PUSH1 0x2 EXP SWAP2 POP DUP5 DUP3 GT ISZERO PUSH2 0x3AFF JUMPI PUSH2 0x3AFE PUSH2 0x3869 JUMP JUMPDEST JUMPDEST POP PUSH2 0x3B64 JUMP JUMPDEST POP PUSH1 0x20 DUP4 LT PUSH2 0x133 DUP4 LT AND PUSH1 0x4E DUP5 LT PUSH1 0xB DUP5 LT AND OR ISZERO PUSH2 0x3B3A JUMPI DUP3 DUP3 EXP SWAP1 POP DUP4 DUP2 GT ISZERO PUSH2 0x3B35 JUMPI PUSH2 0x3B34 PUSH2 0x3869 JUMP JUMPDEST JUMPDEST PUSH2 0x3B64 JUMP JUMPDEST PUSH2 0x3B47 DUP5 DUP5 DUP5 PUSH1 0x1 PUSH2 0x3A45 JUMP JUMPDEST SWAP3 POP SWAP1 POP DUP2 DUP5 DIV DUP2 GT ISZERO PUSH2 0x3B5E JUMPI PUSH2 0x3B5D PUSH2 0x3869 JUMP JUMPDEST JUMPDEST DUP2 DUP2 MUL SWAP1 POP JUMPDEST SWAP4 SWAP3 POP POP POP JUMP JUMPDEST PUSH1 0x0 PUSH2 0x3B76 DUP3 PUSH2 0x385F JUMP JUMPDEST SWAP2 POP PUSH2 0x3B81 DUP4 PUSH2 0x385F JUMP JUMPDEST SWAP3 POP PUSH2 0x3BAE PUSH32 0xFFFFFFFFFFFFFFFFFFFFFFFFFFFFFFFFFFFFFFFFFFFFFFFFFFFFFFFFFFFFFFFF DUP5 DUP5 PUSH2 0x3A98 JUMP JUMPDEST SWAP1 POP SWAP3 SWAP2 POP POP JUMP JUMPDEST PUSH1 0x0 DUP2 SWAP1 POP SWAP2 SWAP1 POP JUMP JUMPDEST PUSH1 0x0 PUSH2 0x3BCB DUP3 PUSH2 0x3BB6 JUMP JUMPDEST SWAP2 POP PUSH2 0x3BD6 DUP4 PUSH2 0x3BB6 JUMP JUMPDEST SWAP3 POP DUP3 DUP3 SUB SWAP1 POP DUP2 DUP2 SLT PUSH1 0x0 DUP5 SLT AND DUP3 DUP3 SGT PUSH1 0x0 DUP6 SLT ISZERO AND OR ISZERO PUSH2 0x3BFD JUMPI PUSH2 0x3BFC PUSH2 0x3869 JUMP JUMPDEST JUMPDEST SWAP3 SWAP2 POP POP JUMP INVALID PUSH4 0x35683636 PUSH17 0x333563706A6D6771626164646D3671726A PUSH7 0x65316F6E347372 PUSH12 0x656C72376575337066384335 SELFBALANCE 0x4D ORIGIN 0x4F TIMESTAMP BALANCE NUMBER CALLDATALOAD SELFBALANCE 0x4D ORIGIN 0x4F TIMESTAMP BALANCE NUMBER CALLDATALOAD SELFBALANCE 0x4D ORIGIN 0x4F TIMESTAMP BALANCE NUMBER CALLDATALOAD SELFBALANCE 0x4D ORIGIN 0x4F TIMESTAMP BALANCE NUMBER CALLDATALOAD SELFBALANCE 0x4D ORIGIN 0x4F TIMESTAMP BALANCE NUMBER CALLDATALOAD SELFBALANCE 0x4D ORIGIN 0x4F TIMESTAMP BALANCE NUMBER CALLDATALOAD SELFBALANCE SELFBALANCE KECCAK256 PUSH3 0x737434 PUSH9 0x6C6A653772306F3863 CODESIZE PUSH17 0x346F38713538326C6D30656A6D69717407 PUSH14 0x61746F6B656E0378797A00323233 CALLVALUE CALLDATALOAD CALLDATASIZE CALLDATACOPY CODESIZE CODECOPY ADDRESS BALANCE ORIGIN CALLER CALLVALUE CALLDATALOAD CALLDATASIZE CALLDATACOPY CODESIZE CODECOPY ADDRESS BALANCE ORIGIN CALLER CALLVALUE CALLDATALOAD CALLDATASIZE CALLDATACOPY CODESIZE CODECOPY ADDRESS BALANCE ORIGIN CALLER CALLVALUE BALANCE ORIGIN CALLER CALLVALUE CALLDATALOAD CALLDATASIZE CALLDATACOPY CODESIZE CODECOPY ADDRESS BALANCE ORIGIN CALLER CALLVALUE CALLDATALOAD CALLDATASIZE CALLDATACOPY CODESIZE CODECOPY ADDRESS BALANCE ORIGIN CALLER CALLVALUE CALLDATALOAD CALLDATASIZE CALLDATACOPY CODESIZE CODECOPY ADDRESS BALANCE ORIGIN CALLER CALLVALUE STOP ADD MUL SUB DIV SDIV MOD SMOD ADDMOD MULMOD SELFDESTRUCT SELFDESTRUCT SELFDESTRUCT SELFDESTRUCT SELFDESTRUCT SELFDESTRUCT SELFDESTRUCT EXP SIGNEXTEND 0xC 0xD 0xE 0xF LT GT SLT SGT EQ ISZERO AND OR XOR NOT BYTE SHL SHR SAR 0x1E 0x1F SELFDESTRUCT SELFDESTRUCT SELFDESTRUCT SELFDESTRUCT SELFDESTRUCT SELFDESTRUCT SELFDESTRUCT SELFDESTRUCT SELFDESTRUCT SELFDESTRUCT EXP SIGNEXTEND 0xC 0xD 0xE 0xF LT GT SLT SGT EQ ISZERO AND OR XOR NOT BYTE SHL SHR SAR 0x1E 0x1F ADDRESS BALANCE ORIGIN CALLER CALLVALUE CALLDATALOAD CALLDATASIZE CALLDATACOPY CODESIZE CODECOPY ADDRESS BALANCE ORIGIN CALLER CALLVALUE CALLDATALOAD ADDRESS BALANCE ORIGIN CALLER CALLVALUE CALLDATALOAD CALLDATASIZE CALLDATACOPY CODESIZE CODECOPY ADDRESS BALANCE ORIGIN CALLER CALLVALUE CALLDATALOAD PUSH2 0x6243 CALLDATALOAD BASEFEE CALLDATASIZE CALLDATASIZE POP CALLER CALLDATALOAD NUMBER POP BLOBBASEFEE 0x4D SELFBALANCE MLOAD TIMESTAMP COINBASE PREVRANDAO PREVRANDAO 0x4D CALLDATASIZE MLOAD MSTORE BLOBBASEFEE CHAINID GASLIMIT BALANCE 0x4F 0x4E CALLVALUE MSTORE8 MSTORE 0x4B GASLIMIT 0x4C MSTORE CALLDATACOPY GASLIMIT SSTORE CALLER POP CHAINID CODESIZE ADDRESS BALANCE ORIGIN CALLER CALLVALUE CALLDATALOAD CALLDATASIZE CALLDATACOPY CODESIZE CODECOPY ADDRESS BALANCE ORIGIN CALLER CALLVALUE CALLDATALOAD ADDRESS BALANCE ORIGIN CALLER CALLVALUE CALLDATALOAD CALLDATASIZE CALLDATACOPY CODESIZE CODECOPY ADDRESS BALANCE ORIGIN CALLER CALLVALUE CALLDATALOAD PUSH2 0x61A2 PUSH5 0x6970667358 0x22 SLT KECCAK256 SWAP14 PUSH19 0x10A74689C12FD841F3EE39CCEEF8D576C37FE2 BLOBBASEFEE 0x4E 0xB9 0xF 0xC8 DUP1 BLOBBASEFEE SWAP4 EXP 0xF7 0xD3 PUSH5 0x736F6C6343 STOP ADDMOD SHL STOP CALLER "
		},
		"gasEstimates": {
			"creation": {
				"codeDepositCost": "3161200",
				"executionCost": "3491",
				"totalCost": "3164691"
			},
			"external": {
				"testBase32HexDecodeWord()": "infinite",
				"testCompare()": "infinite",
				"testComparePartial()": "infinite",
				"testEquals()": "infinite",
				"testKeccak()": "infinite",
				"testReadBytes20()": "infinite",
				"testReadBytes32()": "infinite",
				"testReadUint16()": "infinite",
				"testReadUint32()": "infinite",
				"testReadUint8()": "infinite",
				"testSubstring()": "infinite"
			}
		},
		"methodIdentifiers": {
			"testBase32HexDecodeWord()": "83d31df6",
			"testCompare()": "809a6173",
			"testComparePartial()": "878ab4ae",
			"testEquals()": "c80094b3",
			"testKeccak()": "673dcc73",
			"testReadBytes20()": "005aa6f9",
			"testReadBytes32()": "e77975cf",
			"testReadUint16()": "f3cbda46",
			"testReadUint32()": "1b8e1b81",
			"testReadUint8()": "2e72f9a9",
			"testSubstring()": "098e6232"
		}
	},
	"abi": [
		{
			"inputs": [
				{
					"internalType": "uint256",
					"name": "offset",
					"type": "uint256"
				},
				{
					"internalType": "uint256",
					"name": "length",
					"type": "uint256"
				}
			],
			"name": "OffsetOutOfBoundsError",
			"type": "error"
		},
		{
			"inputs": [],
			"name": "testBase32HexDecodeWord",
			"outputs": [],
			"stateMutability": "pure",
			"type": "function"
		},
		{
			"inputs": [],
			"name": "testCompare",
			"outputs": [],
			"stateMutability": "pure",
			"type": "function"
		},
		{
			"inputs": [],
			"name": "testComparePartial",
			"outputs": [],
			"stateMutability": "pure",
			"type": "function"
		},
		{
			"inputs": [],
			"name": "testEquals",
			"outputs": [],
			"stateMutability": "pure",
			"type": "function"
		},
		{
			"inputs": [],
			"name": "testKeccak",
			"outputs": [],
			"stateMutability": "pure",
			"type": "function"
		},
		{
			"inputs": [],
			"name": "testReadBytes20",
			"outputs": [],
			"stateMutability": "pure",
			"type": "function"
		},
		{
			"inputs": [],
			"name": "testReadBytes32",
			"outputs": [],
			"stateMutability": "pure",
			"type": "function"
		},
		{
			"inputs": [],
			"name": "testReadUint16",
			"outputs": [],
			"stateMutability": "pure",
			"type": "function"
		},
		{
			"inputs": [],
			"name": "testReadUint32",
			"outputs": [],
			"stateMutability": "pure",
			"type": "function"
		},
		{
			"inputs": [],
			"name": "testReadUint8",
			"outputs": [],
			"stateMutability": "pure",
			"type": "function"
		},
		{
			"inputs": [],
			"name": "testSubstring",
			"outputs": [],
			"stateMutability": "pure",
			"type": "function"
		}
	]
}