{
	"data": {
		"bytecode": {
			"linkReferences": {},
			"object": "6080604052348015600f57600080fd5b506136668061001f6000396000f3fe608060405234801561001057600080fd5b50600436106100625760003560e01c80630250cf9a14610067578063706fc4de14610071578063976e62ac1461007b5780639e4a090d14610085578063bb73daed1461008f578063cc60617b14610099575b600080fd5b61006f6100a3565b005b610079610227565b005b610083610599565b005b61008d610d1b565b005b610097610eec565b005b6100a161105e565b005b60016100cf6000604051806040016040528060018152602001600081525061126d90919063ffffffff16565b1461010f576040517f08c379a000000000000000000000000000000000000000000000000000000000815260040161010690611e80565b60405180910390fd5b600161015a60046040518060400160405280600581526020017f036162630000000000000000000000000000000000000000000000000000000081525061126d90919063ffffffff16565b1461019a576040517f08c379a000000000000000000000000000000000000000000000000000000000815260040161019190611e80565b60405180910390fd5b60056101e560006040518060400160405280600581526020017f036162630000000000000000000000000000000000000000000000000000000081525061126d90919063ffffffff16565b14610225576040517f08c379a000000000000000000000000000000000000000000000000000000000815260040161021c90611eec565b60405180910390fd5b565b6000604051806060016040528060248152602001613449602491399050600060405180604001604052806040518060400160405280600381526020017f016100000000000000000000000000000000000000000000000000000000000081525081526020016040518060400160405280600581526020017f01620161000000000000000000000000000000000000000000000000000000008152508152509050600060405180604001604052806040518060400160405280600481526020017f740000010000000000000000000000000000000000000000000000000000000081525081526020016040518060400160405280600481526020017fc0a801010000000000000000000000000000000000000000000000000000000081525081525090506000806103616000866112e990919063ffffffff16565b90505b61036d81611313565b61054f576001816040015161ffff16146103bc576040517f08c379a00000000000000000000000000000000000000000000000000000000081526004016103b390611f58565b60405180910390fd5b6001816060015161ffff1614610407576040517f08c379a00000000000000000000000000000000000000000000000000000000081526004016103fe90611fc4565b60405180910390fd5b610e10816080015163ffffffff1614610455576040517f08c379a000000000000000000000000000000000000000000000000000000000815260040161044c90612030565b60405180910390fd5b83826002811061046857610467612050565b5b60200201518051906020012061047d82611329565b80519060200120146104c4576040517f08c379a00000000000000000000000000000000000000000000000000000000081526004016104bb906120cb565b60405180910390fd5b8282600281106104d7576104d6612050565b5b6020020151805190602001206104ec82611360565b8051906020012014610533576040517f08c379a000000000000000000000000000000000000000000000000000000000815260040161052a90612137565b60405180910390fd5b818061053e90612190565b92505061054a81611399565b610364565b5060028114610593576040517f08c379a000000000000000000000000000000000000000000000000000000000815260040161058a90612224565b60405180910390fd5b50505050565b60006040518060400160405280600c81526020017f066274686c61620378797a000000000000000000000000000000000000000000815250905060006040518060400160405280600c81526020017f066574686c61620378797a000000000000000000000000000000000000000000815250905060006040518060400160405280600581526020017f0378797a00000000000000000000000000000000000000000000000000000000815250905060006040518060400160405280600781526020017f0161016201630000000000000000000000000000000000000000000000000000815250905060006040518060400160405280600781526020017f0162016201630000000000000000000000000000000000000000000000000000815250905060006040518060400160405280600381526020017f0163000000000000000000000000000000000000000000000000000000000000815250905060006040518060400160405280600381526020017f0164000000000000000000000000000000000000000000000000000000000000815250905060006040518060400160405280600781526020017f0161016401630000000000000000000000000000000000000000000000000000815250905060006040518060400160405280600781526020017f0162016101630000000000000000000000000000000000000000000000000000815250905060006040518060400160405280600881526020017f0261620163016400000000000000000000000000000000000000000000000000815250905060006040518060400160405280600781526020017f0161016301640000000000000000000000000000000000000000000000000000815250905060006040518060800160405280605a81526020016135d7605a91399050600060405180608001604052806059815260200161357e60599139905060006108d06040518060400160405280600581526020017f03026162000000000000000000000000000000000000000000000000000000008152506040518060400160405280600581526020017f03016161000000000000000000000000000000000000000000000000000000008152506114df90919063ffffffff16565b12610910576040517f08c379a0000000000000000000000000000000000000000000000000000000008152600401610907906122b6565b60405180910390fd5b6000610925898c6114df90919063ffffffff16565b13610965576040517f08c379a000000000000000000000000000000000000000000000000000000000815260040161095c90612348565b60405180910390fd5b600061097a888c6114df90919063ffffffff16565b126109ba576040517f08c379a00000000000000000000000000000000000000000000000000000000081526004016109b190612400565b60405180910390fd5b60006109cf878c6114df90919063ffffffff16565b12610a0f576040517f08c379a0000000000000000000000000000000000000000000000000000000008152600401610a0690612492565b60405180910390fd5b6000610a24868c6114df90919063ffffffff16565b13610a64576040517f08c379a0000000000000000000000000000000000000000000000000000000008152600401610a5b90612524565b60405180910390fd5b6000610a7984866114df90919063ffffffff16565b13610ab9576040517f08c379a0000000000000000000000000000000000000000000000000000000008152600401610ab0906125dc565b60405180910390fd5b6000610ace8a8c6114df90919063ffffffff16565b12610b0e576040517f08c379a0000000000000000000000000000000000000000000000000000000008152600401610b05906125dc565b60405180910390fd5b6000610b238d8d6114df90919063ffffffff16565b12610b63576040517f08c379a0000000000000000000000000000000000000000000000000000000008152600401610b5a90612648565b60405180910390fd5b6000610b788d8f6114df90919063ffffffff16565b12610bb8576040517f08c379a0000000000000000000000000000000000000000000000000000000008152600401610baf906126da565b60405180910390fd5b6000610bcd8e8f6114df90919063ffffffff16565b14610c0d576040517f08c379a0000000000000000000000000000000000000000000000000000000008152600401610c049061276c565b60405180910390fd5b6000610c228e8e6114df90919063ffffffff16565b13610c62576040517f08c379a0000000000000000000000000000000000000000000000000000000008152600401610c59906127fe565b60405180910390fd5b6000610c778c8f6114df90919063ffffffff16565b13610cb7576040517f08c379a0000000000000000000000000000000000000000000000000000000008152600401610cae9061286a565b60405180910390fd5b6000610ccc82846114df90919063ffffffff16565b13610d0c576040517f08c379a0000000000000000000000000000000000000000000000000000000008152600401610d03906128fc565b60405180910390fd5b50505050505050505050505050565b610d2760016000611691565b610d66576040517f08c379a0000000000000000000000000000000000000000000000000000000008152600401610d5d90612968565b60405180910390fd5b610d7260006001611691565b15610db2576040517f08c379a0000000000000000000000000000000000000000000000000000000008152600401610da9906129d4565b60405180910390fd5b610dc1600063ffffffff611691565b610e00576040517f08c379a0000000000000000000000000000000000000000000000000000000008152600401610df790612a40565b60405180910390fd5b610e0f63ffffffff6000611691565b15610e4f576040517f08c379a0000000000000000000000000000000000000000000000000000000008152600401610e4690612aac565b60405180910390fd5b610e61631111111163aaaaaaaa611691565b610ea0576040517f08c379a0000000000000000000000000000000000000000000000000000000008152600401610e9790612b18565b60405180910390fd5b610eab600180611691565b610eea576040517f08c379a0000000000000000000000000000000000000000000000000000000008152600401610ee190612b84565b60405180910390fd5b565b614a5c610f13604051806101400160405280610108815260200161323961010891396116a4565b61ffff1614610f57576040517f08c379a0000000000000000000000000000000000000000000000000000000008152600401610f4e90612bf0565b60405180910390fd5b6154bd610f7b6040518060c00160405280608981526020016134f5608991396116a4565b61ffff1614610fbf576040517f08c379a0000000000000000000000000000000000000000000000000000000008152600401610fb690612c5c565b60405180910390fd5b61835e610fe36040518060c001604052806088815260200161346d608891396116a4565b61ffff1614610ff157600080fd5b614f66611018604051806101400160405280610108815260200161334161010891396116a4565b61ffff161461105c576040517f08c379a000000000000000000000000000000000000000000000000000000000815260040161105390612cc8565b60405180910390fd5b565b600061108a600060405180604001604052806001815260200160008152506118ec90919063ffffffff16565b146110ca576040517f08c379a00000000000000000000000000000000000000000000000000000000081526004016110c190612d34565b60405180910390fd5b600161111560006040518060400160405280600381526020017f01610000000000000000000000000000000000000000000000000000000000008152506118ec90919063ffffffff16565b14611155576040517f08c379a000000000000000000000000000000000000000000000000000000000815260040161114c90612da0565b60405180910390fd5b60026111a060006040518060400160405280600681526020017f01620161000000000000000000000000000000000000000000000000000000008152506118ec90919063ffffffff16565b146111e0576040517f08c379a00000000000000000000000000000000000000000000000000000000081526004016111d790612e0c565b60405180910390fd5b600161122b60076040518060400160405280600c81526020017f066574686c61620378797a0000000000000000000000000000000000000000008152506118ec90919063ffffffff16565b1461126b576040517f08c379a000000000000000000000000000000000000000000000000000000000815260040161126290612e78565b60405180910390fd5b565b6000808290505b6001156112d4578351811061128c5761128b612e98565b5b60006112a1828661196d90919063ffffffff16565b60ff1690506001816112b39190612ec7565b826112be9190612ec7565b9150600081036112ce57506112d4565b50611274565b82816112e09190612efb565b91505092915050565b6112f1611dd8565b828160000181905250818160c001818152505061130d81611399565b92915050565b6000816000015151826020015110159050919050565b606061135982602001516113458460000151856020015161126d565b84600001516119989092919063ffffffff16565b9050919050565b60606113928260a001518360a001518460c0015161137e9190612efb565b84600001516119989092919063ffffffff16565b9050919050565b8060c00151816020018181525050806000015151816020015110156114dc5760006113cc8260000151836020015161126d565b82602001516113db9190612ec7565b90506113f4818360000151611a2d90919063ffffffff16565b826040019061ffff16908161ffff16815250506002816114149190612ec7565b905061142d818360000151611a2d90919063ffffffff16565b826060019061ffff16908161ffff168152505060028161144d9190612ec7565b9050611466818360000151611a5c90919063ffffffff16565b826080019063ffffffff16908163ffffffff168152505060048161148a9190612ec7565b905060006114a5828460000151611a2d90919063ffffffff16565b61ffff1690506002826114b89190612ec7565b9150818360a001818152505080826114d09190612ec7565b8360c001818152505050505b50565b60006114f48284611a8d90919063ffffffff16565b15611502576000905061168b565b60008060008060006115158860006118ec565b905060006115248860006118ec565b90505b808211156115515785935061153c8987611ab4565b9550818061154990612f2f565b925050611527565b5b8181111561157c578492506115678886611ab4565b9450808061157490612f2f565b915050611552565b5b6000821180156115a1575061159f8689878c611aeb909392919063ffffffff16565b155b156115d8578593506115b38987611ab4565b95508492506115c28886611ab4565b94506001826115d19190612efb565b915061157d565b6000860361160e577fffffffffffffffffffffffffffffffffffffffffffffffffffffffffffffffff965050505050505061168b565b60008503611625576001965050505050505061168b565b6116826001856116359190612ec7565b611648868c61196d90919063ffffffff16565b60ff168a6001876116599190612ec7565b61166c888e61196d90919063ffffffff16565b60ff168e611b269095949392919063ffffffff16565b96505050505050505b92915050565b60008082840360030b1215905092915050565b6000612000825111156116ec576040517f08c379a00000000000000000000000000000000000000000000000000000000081526004016116e390612fa4565b60405180910390fd5b60008060005b601f85510181101561178c576000816020870101519050855160208301111561172f57600060088388510302610100039050808183901c901b9150505b60087fff00ff00ff00ff00ff00ff00ff00ff00ff00ff00ff00ff00ff00ff00ff00ff008216901c840193507eff00ff00ff00ff00ff00ff00ff00ff00ff00ff00ff00ff00ff00ff00ff00ff811683019250506020810190506116f2565b5060107fffff0000ffff0000ffff0000ffff0000ffff0000ffff0000ffff0000ffff00008316901c7dffff0000ffff0000ffff0000ffff0000ffff0000ffff0000ffff0000ffff831601915060107fffff0000ffff0000ffff0000ffff0000ffff0000ffff0000ffff0000ffff00008216901c7dffff0000ffff0000ffff0000ffff0000ffff0000ffff0000ffff0000ffff821601905080600883901b01915060207fffffffff00000000ffffffff00000000ffffffff00000000ffffffff000000008316901c7bffffffff00000000ffffffff00000000ffffffff00000000ffffffff831601915060407fffffffffffffffff0000000000000000ffffffffffffffff00000000000000008316901c77ffffffffffffffff0000000000000000ffffffffffffffff8316019150608082901c6fffffffffffffffffffffffffffffffff831601915061ffff601083901c16820191508192505050919050565b600080600090505b600115611963578351831061190c5761190b612e98565b5b6000611921848661196d90919063ffffffff16565b60ff1690506001816119339190612ec7565b8461193e9190612ec7565b93506000810361194e5750611963565b60018261195b9190612ec7565b9150506118f4565b8091505092915050565b600082828151811061198257611981612050565b5b602001015160f81c60f81b60f81c905092915050565b6060835182846119a89190612ec7565b11156119b357600080fd5b60008267ffffffffffffffff8111156119cf576119ce612fc4565b5b6040519080825280601f01601f191660200182016040528015611a015781602001600182028036833780820191505090505b5090506000806020830191508560208801019050611a20828287611d24565b8293505050509392505050565b60008251600283611a3e9190612ec7565b1115611a4957600080fd5b61ffff8260028501015116905092915050565b60008251600483611a6d9190612ec7565b1115611a7857600080fd5b63ffffffff8260048501015116905092915050565b600081518351148015611aac5750611aab8360008460008751611d88565b5b905092915050565b6000611ac9828461196d90919063ffffffff16565b60ff16600183611ad99190612ec7565b611ae39190612ec7565b905092915050565b6000611b048383848651611aff9190612efb565b611dac565b611b1b8686878951611b169190612efb565b611dac565b149050949350505050565b600086518587611b369190612ec7565b1115611b87578486611b489190612ec7565b87516040517f8a3c1cfb000000000000000000000000000000000000000000000000000000008152600401611b7e929190613002565b60405180910390fd5b83518284611b959190612ec7565b1115611be6578183611ba79190612ec7565b84516040517f8a3c1cfb000000000000000000000000000000000000000000000000000000008152600401611bdd929190613002565b60405180910390fd5b600085905085831015611bf7578290505b600080602089018a019150602086018701905060005b83811015611d07576000808451915083519050808214611cd357600060208488611c379190612efb565b10611c64577fffffffffffffffffffffffffffffffffffffffffffffffffffffffffffffffff9050611ca4565b600187602086611c749190612ec7565b611c7e9190612efb565b6008611c8a919061302b565b6002611c9691906131a0565b611ca09190612efb565b1990505b6000818316828516611cb691906131f5565b905060008114611cd0578098505050505050505050611d1a565b50505b602085611ce09190612ec7565b9450602084611cef9190612ec7565b93505050602081611d009190612ec7565b9050611c0d565b508488611d1491906131f5565b93505050505b9695505050505050565b5b60208110611d635781518352602083611d3e9190612ec7565b9250602082611d4d9190612ec7565b9150602081611d5c9190612efb565b9050611d25565b60006001826020036101000a0390508019835116818551168181178652505050505050565b6000611d95848484611dac565b611da0878785611dac565b14905095945050505050565b600083518284611dbc9190612ec7565b1115611dc757600080fd5b818360208601012090509392505050565b6040518060e001604052806060815260200160008152602001600061ffff168152602001600061ffff168152602001600063ffffffff16815260200160008152602001600081525090565b600082825260208201905092915050565b7f6e616d654c656e67746828272e2729203d3d2031000000000000000000000000600082015250565b6000611e6a601483611e23565b9150611e7582611e34565b602082019050919050565b60006020820190508181036000830152611e9981611e5d565b9050919050565b7f6e616d654c656e67746828276162632e2729203d3d2035000000000000000000600082015250565b6000611ed6601783611e23565b9150611ee182611ea0565b602082019050919050565b60006020820190508181036000830152611f0581611ec9565b9050919050565b7f54797065206d6174636865730000000000000000000000000000000000000000600082015250565b6000611f42600c83611e23565b9150611f4d82611f0c565b602082019050919050565b60006020820190508181036000830152611f7181611f35565b9050919050565b7f436c617373206d61746368657300000000000000000000000000000000000000600082015250565b6000611fae600d83611e23565b9150611fb982611f78565b602082019050919050565b60006020820190508181036000830152611fdd81611fa1565b9050919050565b7f54544c206d617463686573000000000000000000000000000000000000000000600082015250565b600061201a600b83611e23565b915061202582611fe4565b602082019050919050565b600060208201905081810360008301526120498161200d565b9050919050565b7f4e487b7100000000000000000000000000000000000000000000000000000000600052603260045260246000fd5b7f4e616d65206d6174636865730000000000000000000000000000000000000000600082015250565b60006120b5600c83611e23565b91506120c08261207f565b602082019050919050565b600060208201905081810360008301526120e4816120a8565b9050919050565b7f5264617461206d61746368657300000000000000000000000000000000000000600082015250565b6000612121600d83611e23565b915061212c826120eb565b602082019050919050565b6000602082019050818103600083015261215081612114565b9050919050565b7f4e487b7100000000000000000000000000000000000000000000000000000000600052601160045260246000fd5b6000819050919050565b600061219b82612186565b91507fffffffffffffffffffffffffffffffffffffffffffffffffffffffffffffffff82036121cd576121cc612157565b5b600182019050919050565b7f45787065637465642032207265636f7264730000000000000000000000000000600082015250565b600061220e601283611e23565b9150612219826121d8565b602082019050919050565b6000602082019050818103600083015261223d81612201565b9050919050565b7f6c6162656c206c656e677468732061726520636f72726563746c79206368656360008201527f6b65640000000000000000000000000000000000000000000000000000000000602082015250565b60006122a0602383611e23565b91506122ab82612244565b604082019050919050565b600060208201905081810360008301526122cf81612293565b9050919050565b7f6f6e65206e616d6520686173206120646966666572656e6365206f66203e312060008201527f6c6162656c20746f2077697468207468652073616d6520726f6f74206e616d65602082015250565b6000612332604083611e23565b915061233d826122d6565b604082019050919050565b6000602082019050818103600083015261236181612325565b9050919050565b7f6f6e65206e616d6520686173206120646966666572656e6365206f66203e312060008201527f6c6162656c20746f207769746820646966666572656e7420726f6f74206e616d60208201527f6500000000000000000000000000000000000000000000000000000000000000604082015250565b60006123ea604183611e23565b91506123f582612368565b606082019050919050565b60006020820190508181036000830152612419816123dd565b9050919050565b7f74776f206e616d6573207374617274207468652073616d65206275742068617660008201527f6520646966666572656e63657320696e206c61746572206c6162656c73000000602082015250565b600061247c603d83611e23565b915061248782612420565b604082019050919050565b600060208201905081810360008301526124ab8161246f565b9050919050565b7f746865206669727374206c6162656c20736f727473206c617465722c2062757460008201527f20746865206669727374206c6162656c20736f727473206561726c6965720000602082015250565b600061250e603e83611e23565b9150612519826124b2565b604082019050919050565b6000602082019050818103600083015261253d81612501565b9050919050565b7f74776f206e616d657320776865726520746865206669727374206c6162656c2060008201527f6f6e206f6e65206973206120707265666978206f66207468652066697273742060208201527f6c6162656c206f6e20746865206f746865720000000000000000000000000000604082015250565b60006125c6605283611e23565b91506125d182612544565b606082019050919050565b600060208201905081810360008301526125f5816125b9565b9050919050565b7f78797a20636f6d6573206265666f7265206574684c61622e78797a0000000000600082015250565b6000612632601b83611e23565b915061263d826125fc565b602082019050919050565b6000602082019050818103600083015261266181612625565b9050919050565b7f6274684c61622e78797a20636f6d6573206265666f7265206574684c61622e7860008201527f797a000000000000000000000000000000000000000000000000000000000000602082015250565b60006126c4602283611e23565b91506126cf82612668565b604082019050919050565b600060208201905081810360008301526126f3816126b7565b9050919050565b7f6274684c61622e78797a20616e64206274684c61622e78797a2061726520746860008201527f652073616d650000000000000000000000000000000000000000000000000000602082015250565b6000612756602683611e23565b9150612761826126fa565b604082019050919050565b6000602082019050818103600083015261278581612749565b9050919050565b7f6574684c61622e78797a20636f6d657320616674657220626574684c61622e7860008201527f797a000000000000000000000000000000000000000000000000000000000000602082015250565b60006127e8602283611e23565b91506127f38261278c565b604082019050919050565b60006020820190508181036000830152612817816127db565b9050919050565b7f6274684c61622e78797a20636f6d65732061667465722078797a000000000000600082015250565b6000612854601a83611e23565b915061285f8261281e565b602082019050919050565b6000602082019050818103600083015261288381612847565b9050919050565b7f6c6f6e67612e766c6f6e672e65746820636f6d6573206166746572206c6f6e6760008201527f2e766c6f6e672e65746800000000000000000000000000000000000000000000602082015250565b60006128e6602a83611e23565b91506128f18261288a565b604082019050919050565b60006020820190508181036000830152612915816128d9565b9050919050565b7f31203e3d20300000000000000000000000000000000000000000000000000000600082015250565b6000612952600683611e23565b915061295d8261291c565b602082019050919050565b6000602082019050818103600083015261298181612945565b9050919050565b7f212830203c3d2031290000000000000000000000000000000000000000000000600082015250565b60006129be600983611e23565b91506129c982612988565b602082019050919050565b600060208201905081810360008301526129ed816129b1565b9050919050565b7f30203e3d20307846464646464646460000000000000000000000000000000000600082015250565b6000612a2a600f83611e23565b9150612a35826129f4565b602082019050919050565b60006020820190508181036000830152612a5981612a1d565b9050919050565b7f212830203c3d2030784646464646464646290000000000000000000000000000600082015250565b6000612a96601283611e23565b9150612aa182612a60565b602082019050919050565b60006020820190508181036000830152612ac581612a89565b9050919050565b7f30783131313131313131203e3d20307841414141414141410000000000000000600082015250565b6000612b02601883611e23565b9150612b0d82612acc565b602082019050919050565b60006020820190508181036000830152612b3181612af5565b9050919050565b7f31203e3d20310000000000000000000000000000000000000000000000000000600082015250565b6000612b6e600683611e23565b9150612b7982612b38565b602082019050919050565b60006020820190508181036000830152612b9d81612b61565b9050919050565b7f496e76616c6964206b6579746167000000000000000000000000000000000000600082015250565b6000612bda600e83611e23565b9150612be582612ba4565b602082019050919050565b60006020820190508181036000830152612c0981612bcd565b9050919050565b7f496e76616c6964206b6579746167202832290000000000000000000000000000600082015250565b6000612c46601283611e23565b9150612c5182612c10565b602082019050919050565b60006020820190508181036000830152612c7581612c39565b9050919050565b7f496e76616c6964206b6579746167202833290000000000000000000000000000600082015250565b6000612cb2601283611e23565b9150612cbd82612c7c565b602082019050919050565b60006020820190508181036000830152612ce181612ca5565b9050919050565b7f6c6162656c436f756e7428272e2729203d3d2030000000000000000000000000600082015250565b6000612d1e601483611e23565b9150612d2982612ce8565b602082019050919050565b60006020820190508181036000830152612d4d81612d11565b9050919050565b7f6c6162656c436f756e742827612e2729203d3d20310000000000000000000000600082015250565b6000612d8a601583611e23565b9150612d9582612d54565b602082019050919050565b60006020820190508181036000830152612db981612d7d565b9050919050565b7f6c6162656c436f756e742827622e612e2729203d3d2032000000000000000000600082015250565b6000612df6601783611e23565b9150612e0182612dc0565b602082019050919050565b60006020820190508181036000830152612e2581612de9565b9050919050565b7f6e616d654c656e6774682827286274686c6162292e78797a2e2729203d3d2036600082015250565b6000612e62602083611e23565b9150612e6d82612e2c565b602082019050919050565b60006020820190508181036000830152612e9181612e55565b9050919050565b7f4e487b7100000000000000000000000000000000000000000000000000000000600052600160045260246000fd5b6000612ed282612186565b9150612edd83612186565b9250828201905080821115612ef557612ef4612157565b5b92915050565b6000612f0682612186565b9150612f1183612186565b9250828203905081811115612f2957612f28612157565b5b92915050565b6000612f3a82612186565b915060008203612f4d57612f4c612157565b5b600182039050919050565b7f4c6f6e67206b657973206e6f74207065726d6974746564000000000000000000600082015250565b6000612f8e601783611e23565b9150612f9982612f58565b602082019050919050565b60006020820190508181036000830152612fbd81612f81565b9050919050565b7f4e487b7100000000000000000000000000000000000000000000000000000000600052604160045260246000fd5b612ffc81612186565b82525050565b60006040820190506130176000830185612ff3565b6130246020830184612ff3565b9392505050565b600061303682612186565b915061304183612186565b925082820261304f81612186565b9150828204841483151761306657613065612157565b5b5092915050565b60008160011c9050919050565b6000808291508390505b60018511156130c4578086048111156130a05761309f612157565b5b60018516156130af5780820291505b80810290506130bd8561306d565b9450613084565b94509492505050565b6000826130dd5760019050613199565b816130eb5760009050613199565b8160018114613101576002811461310b5761313a565b6001915050613199565b60ff84111561311d5761311c612157565b5b8360020a91508482111561313457613133612157565b5b50613199565b5060208310610133831016604e8410600b841016171561316f5782820a90508381111561316a57613169612157565b5b613199565b61317c848484600161307a565b9250905081840481111561319357613192612157565b5b81810290505b9392505050565b60006131ab82612186565b91506131b683612186565b92506131e37fffffffffffffffffffffffffffffffffffffffffffffffffffffffffffffffff84846130cd565b905092915050565b6000819050919050565b6000613200826131eb565b915061320b836131eb565b925082820390508181126000841216828213600085121516171561323257613231612157565b5b9291505056fe0101030803010001a80020a95566ba42e886bb804cda84e47ef56dbd7aec612615552cec906d2116d0ef207028c51554144dfeafe7c7cb8f005dd18234133ac0710a81182ce1fd14ad2283bc83435f9df2f6313251931a176df0da51e54f42e604860dfb359580250f559cc543c4ffd51cbe3de8cfd06719237f9fc47ee729da06835fa452e825e9a18ebc2ecbcf563474652c33cf56a9033bcdf5d973121797ec8089041b6e03a1b72d0a735b984e03687309332324f27c2dba85e9db15e83a0143382e974b0621c18e625ecec907577d9e7bade95241a81ebbe8a901d4d3276e40b114c0a2e6fc38d19c2e6aab02644b2813f575fc21601e0dee49cd9ee96a43103e524d62873d0101030803010001acffb409bcc939f831f7a1e5ec88f7a59255ec53040be432027390a4ce896d6f9086f3c5e177fbfe118163aaec7af1462c47945944c4e2c026be5e98bbcded25978272e1e3e079c5094d573f0e83c92f02b32d3513b1550b826929c80dd0f92cac966d17769fd5867b647c3f38029abdc48152eb8f207159ecc5d232c7c1537c79f4b7ac28ff11682f21681bf6d6aba555032bf6f9f036beb2aaa5b3778d6eebfba6bf9ea191be4ab0caea759e2f773a1f9029c73ecb8d5735b9321db085f1b8e2d8038fe2941992548cee0d67dd4547e11dd63af9c9fc1c5466fb684cf009d7197c2cf79e792ab501e6a8a1ca519af2cb9b5f6367e94c0d47502451357be1b50161000001000100000e1000047400000101620161000001000100000e100004c0a801010100030503010001bfa54c38d909fabb0f937d70d775ba0df4c0badb09707d995249406950407a621c794c68b186b15dbf8f9f9ea231e9f96414ccda4eceb50b17a9ac6c4bd4b95da04849e96ee791578b703bc9ae184fb1794bac792a0787f693a40f19f523ee6dbd3599dbaaa9a50437926ecf6438845d1d49448962524f2a1a7a36b3a0a1eca3010003050440000003ba2fa05a75e173bede89eb71831ab14035f2408ad09df4d8dc8f8f72e8f13506feaddf7b04cb14958b82966e3420562302c4002bc4fd088432e160519bb14dae82443850c1423e06085710b5caf070d46b7ba7e481414f6a5fe225fdca984c959091645d0cf1c9a1a313d7e7fb7ba60b967b71a65f8cef2c3768e11b081c8fcf2130313233343536373839303132333435363738393031323334353637383930316131303132333435363738393031323334353637383930313233343536373839303132333435363738393031323334353637380365746800223031323334353637383930313233343536373839303132333435363738393031613031303132333435363738393031323334353637383930313233343536373839303132333435363738393031323334353637380365746800a26469706673582212203c5b35f74811fda2328f0b1310f512251bce7ddc3976b14b01eb2c08e829419164736f6c634300081b0033",
			"opcodes": "PUSH1 0x80 PUSH1 0x40 MSTORE CALLVALUE DUP1 ISZERO PUSH1 0xF JUMPI PUSH1 0x0 DUP1 REVERT JUMPDEST POP PUSH2 0x3666 DUP1 PUSH2 0x1F PUSH1 0x0 CODECOPY PUSH1 0x0 RETURN INVALID PUSH1 0x80 PUSH1 0x40 MSTORE CALLVALUE DUP1 ISZERO PUSH2 0x10 JUMPI PUSH1 0x0 DUP1 REVERT JUMPDEST POP PUSH1 0x4 CALLDATASIZE LT PUSH2 0x62 JUMPI PUSH1 0x0 CALLDATALOAD PUSH1 0xE0 SHR DUP1 PUSH4 0x250CF9A EQ PUSH2 0x67 JUMPI DUP1 PUSH4 0x706FC4DE EQ PUSH2 0x71 JUMPI DUP1 PUSH4 0x976E62AC EQ PUSH2 0x7B JUMPI DUP1 PUSH4 0x9E4A090D EQ PUSH2 0x85 JUMPI DUP1 PUSH4 0xBB73DAED EQ PUSH2 0x8F JUMPI DUP1 PUSH4 0xCC60617B EQ PUSH2 0x99 JUMPI JUMPDEST PUSH1 0x0 DUP1 REVERT JUMPDEST PUSH2 0x6F PUSH2 0xA3 JUMP JUMPDEST STOP JUMPDEST PUSH2 0x79 PUSH2 0x227 JUMP JUMPDEST STOP JUMPDEST PUSH2 0x83 PUSH2 0x599 JUMP JUMPDEST STOP JUMPDEST PUSH2 0x8D PUSH2 0xD1B JUMP JUMPDEST STOP JUMPDEST PUSH2 0x97 PUSH2 0xEEC JUMP JUMPDEST STOP JUMPDEST PUSH2 0xA1 PUSH2 0x105E JUMP JUMPDEST STOP JUMPDEST PUSH1 0x1 PUSH2 0xCF PUSH1 0x0 PUSH1 0x40 MLOAD DUP1 PUSH1 0x40 ADD PUSH1 0x40 MSTORE DUP1 PUSH1 0x1 DUP2 MSTORE PUSH1 0x20 ADD PUSH1 0x0 DUP2 MSTORE POP PUSH2 0x126D SWAP1 SWAP2 SWAP1 PUSH4 0xFFFFFFFF AND JUMP JUMPDEST EQ PUSH2 0x10F JUMPI PUSH1 0x40 MLOAD PUSH32 0x8C379A000000000000000000000000000000000000000000000000000000000 DUP2 MSTORE PUSH1 0x4 ADD PUSH2 0x106 SWAP1 PUSH2 0x1E80 JUMP JUMPDEST PUSH1 0x40 MLOAD DUP1 SWAP2 SUB SWAP1 REVERT JUMPDEST PUSH1 0x1 PUSH2 0x15A PUSH1 0x4 PUSH1 0x40 MLOAD DUP1 PUSH1 0x40 ADD PUSH1 0x40 MSTORE DUP1 PUSH1 0x5 DUP2 MSTORE PUSH1 0x20 ADD PUSH32 0x361626300000000000000000000000000000000000000000000000000000000 DUP2 MSTORE POP PUSH2 0x126D SWAP1 SWAP2 SWAP1 PUSH4 0xFFFFFFFF AND JUMP JUMPDEST EQ PUSH2 0x19A JUMPI PUSH1 0x40 MLOAD PUSH32 0x8C379A000000000000000000000000000000000000000000000000000000000 DUP2 MSTORE PUSH1 0x4 ADD PUSH2 0x191 SWAP1 PUSH2 0x1E80 JUMP JUMPDEST PUSH1 0x40 MLOAD DUP1 SWAP2 SUB SWAP1 REVERT JUMPDEST PUSH1 0x5 PUSH2 0x1E5 PUSH1 0x0 PUSH1 0x40 MLOAD DUP1 PUSH1 0x40 ADD PUSH1 0x40 MSTORE DUP1 PUSH1 0x5 DUP2 MSTORE PUSH1 0x20 ADD PUSH32 0x361626300000000000000000000000000000000000000000000000000000000 DUP2 MSTORE POP PUSH2 0x126D SWAP1 SWAP2 SWAP1 PUSH4 0xFFFFFFFF AND JUMP JUMPDEST EQ PUSH2 0x225 JUMPI PUSH1 0x40 MLOAD PUSH32 0x8C379A000000000000000000000000000000000000000000000000000000000 DUP2 MSTORE PUSH1 0x4 ADD PUSH2 0x21C SWAP1 PUSH2 0x1EEC JUMP JUMPDEST PUSH1 0x40 MLOAD DUP1 SWAP2 SUB SWAP1 REVERT JUMPDEST JUMP JUMPDEST PUSH1 0x0 PUSH1 0x40 MLOAD DUP1 PUSH1 0x60 ADD PUSH1 0x40 MSTORE DUP1 PUSH1 0x24 DUP2 MSTORE PUSH1 0x20 ADD PUSH2 0x3449 PUSH1 0x24 SWAP2 CODECOPY SWAP1 POP PUSH1 0x0 PUSH1 0x40 MLOAD DUP1 PUSH1 0x40 ADD PUSH1 0x40 MSTORE DUP1 PUSH1 0x40 MLOAD DUP1 PUSH1 0x40 ADD PUSH1 0x40 MSTORE DUP1 PUSH1 0x3 DUP2 MSTORE PUSH1 0x20 ADD PUSH32 0x161000000000000000000000000000000000000000000000000000000000000 DUP2 MSTORE POP DUP2 MSTORE PUSH1 0x20 ADD PUSH1 0x40 MLOAD DUP1 PUSH1 0x40 ADD PUSH1 0x40 MSTORE DUP1 PUSH1 0x5 DUP2 MSTORE PUSH1 0x20 ADD PUSH32 0x162016100000000000000000000000000000000000000000000000000000000 DUP2 MSTORE POP DUP2 MSTORE POP SWAP1 POP PUSH1 0x0 PUSH1 0x40 MLOAD DUP1 PUSH1 0x40 ADD PUSH1 0x40 MSTORE DUP1 PUSH1 0x40 MLOAD DUP1 PUSH1 0x40 ADD PUSH1 0x40 MSTORE DUP1 PUSH1 0x4 DUP2 MSTORE PUSH1 0x20 ADD PUSH32 0x7400000100000000000000000000000000000000000000000000000000000000 DUP2 MSTORE POP DUP2 MSTORE PUSH1 0x20 ADD PUSH1 0x40 MLOAD DUP1 PUSH1 0x40 ADD PUSH1 0x40 MSTORE DUP1 PUSH1 0x4 DUP2 MSTORE PUSH1 0x20 ADD PUSH32 0xC0A8010100000000000000000000000000000000000000000000000000000000 DUP2 MSTORE POP DUP2 MSTORE POP SWAP1 POP PUSH1 0x0 DUP1 PUSH2 0x361 PUSH1 0x0 DUP7 PUSH2 0x12E9 SWAP1 SWAP2 SWAP1 PUSH4 0xFFFFFFFF AND JUMP JUMPDEST SWAP1 POP JUMPDEST PUSH2 0x36D DUP2 PUSH2 0x1313 JUMP JUMPDEST PUSH2 0x54F JUMPI PUSH1 0x1 DUP2 PUSH1 0x40 ADD MLOAD PUSH2 0xFFFF AND EQ PUSH2 0x3BC JUMPI PUSH1 0x40 MLOAD PUSH32 0x8C379A000000000000000000000000000000000000000000000000000000000 DUP2 MSTORE PUSH1 0x4 ADD PUSH2 0x3B3 SWAP1 PUSH2 0x1F58 JUMP JUMPDEST PUSH1 0x40 MLOAD DUP1 SWAP2 SUB SWAP1 REVERT JUMPDEST PUSH1 0x1 DUP2 PUSH1 0x60 ADD MLOAD PUSH2 0xFFFF AND EQ PUSH2 0x407 JUMPI PUSH1 0x40 MLOAD PUSH32 0x8C379A000000000000000000000000000000000000000000000000000000000 DUP2 MSTORE PUSH1 0x4 ADD PUSH2 0x3FE SWAP1 PUSH2 0x1FC4 JUMP JUMPDEST PUSH1 0x40 MLOAD DUP1 SWAP2 SUB SWAP1 REVERT JUMPDEST PUSH2 0xE10 DUP2 PUSH1 0x80 ADD MLOAD PUSH4 0xFFFFFFFF AND EQ PUSH2 0x455 JUMPI PUSH1 0x40 MLOAD PUSH32 0x8C379A000000000000000000000000000000000000000000000000000000000 DUP2 MSTORE PUSH1 0x4 ADD PUSH2 0x44C SWAP1 PUSH2 0x2030 JUMP JUMPDEST PUSH1 0x40 MLOAD DUP1 SWAP2 SUB SWAP1 REVERT JUMPDEST DUP4 DUP3 PUSH1 0x2 DUP2 LT PUSH2 0x468 JUMPI PUSH2 0x467 PUSH2 0x2050 JUMP JUMPDEST JUMPDEST PUSH1 0x20 MUL ADD MLOAD DUP1 MLOAD SWAP1 PUSH1 0x20 ADD KECCAK256 PUSH2 0x47D DUP3 PUSH2 0x1329 JUMP JUMPDEST DUP1 MLOAD SWAP1 PUSH1 0x20 ADD KECCAK256 EQ PUSH2 0x4C4 JUMPI PUSH1 0x40 MLOAD PUSH32 0x8C379A000000000000000000000000000000000000000000000000000000000 DUP2 MSTORE PUSH1 0x4 ADD PUSH2 0x4BB SWAP1 PUSH2 0x20CB JUMP JUMPDEST PUSH1 0x40 MLOAD DUP1 SWAP2 SUB SWAP1 REVERT JUMPDEST DUP3 DUP3 PUSH1 0x2 DUP2 LT PUSH2 0x4D7 JUMPI PUSH2 0x4D6 PUSH2 0x2050 JUMP JUMPDEST JUMPDEST PUSH1 0x20 MUL ADD MLOAD DUP1 MLOAD SWAP1 PUSH1 0x20 ADD KECCAK256 PUSH2 0x4EC DUP3 PUSH2 0x1360 JUMP JUMPDEST DUP1 MLOAD SWAP1 PUSH1 0x20 ADD KECCAK256 EQ PUSH2 0x533 JUMPI PUSH1 0x40 MLOAD PUSH32 0x8C379A000000000000000000000000000000000000000000000000000000000 DUP2 MSTORE PUSH1 0x4 ADD PUSH2 0x52A SWAP1 PUSH2 0x2137 JUMP JUMPDEST PUSH1 0x40 MLOAD DUP1 SWAP2 SUB SWAP1 REVERT JUMPDEST DUP2 DUP1 PUSH2 0x53E SWAP1 PUSH2 0x2190 JUMP JUMPDEST SWAP3 POP POP PUSH2 0x54A DUP2 PUSH2 0x1399 JUMP JUMPDEST PUSH2 0x364 JUMP JUMPDEST POP PUSH1 0x2 DUP2 EQ PUSH2 0x593 JUMPI PUSH1 0x40 MLOAD PUSH32 0x8C379A000000000000000000000000000000000000000000000000000000000 DUP2 MSTORE PUSH1 0x4 ADD PUSH2 0x58A SWAP1 PUSH2 0x2224 JUMP JUMPDEST PUSH1 0x40 MLOAD DUP1 SWAP2 SUB SWAP1 REVERT JUMPDEST POP POP POP POP JUMP JUMPDEST PUSH1 0x0 PUSH1 0x40 MLOAD DUP1 PUSH1 0x40 ADD PUSH1 0x40 MSTORE DUP1 PUSH1 0xC DUP2 MSTORE PUSH1 0x20 ADD PUSH32 0x66274686C61620378797A000000000000000000000000000000000000000000 DUP2 MSTORE POP SWAP1 POP PUSH1 0x0 PUSH1 0x40 MLOAD DUP1 PUSH1 0x40 ADD PUSH1 0x40 MSTORE DUP1 PUSH1 0xC DUP2 MSTORE PUSH1 0x20 ADD PUSH32 0x66574686C61620378797A000000000000000000000000000000000000000000 DUP2 MSTORE POP SWAP1 POP PUSH1 0x0 PUSH1 0x40 MLOAD DUP1 PUSH1 0x40 ADD PUSH1 0x40 MSTORE DUP1 PUSH1 0x5 DUP2 MSTORE PUSH1 0x20 ADD PUSH32 0x378797A00000000000000000000000000000000000000000000000000000000 DUP2 MSTORE POP SWAP1 POP PUSH1 0x0 PUSH1 0x40 MLOAD DUP1 PUSH1 0x40 ADD PUSH1 0x40 MSTORE DUP1 PUSH1 0x7 DUP2 MSTORE PUSH1 0x20 ADD PUSH32 0x161016201630000000000000000000000000000000000000000000000000000 DUP2 MSTORE POP SWAP1 POP PUSH1 0x0 PUSH1 0x40 MLOAD DUP1 PUSH1 0x40 ADD PUSH1 0x40 MSTORE DUP1 PUSH1 0x7 DUP2 MSTORE PUSH1 0x20 ADD PUSH32 0x162016201630000000000000000000000000000000000000000000000000000 DUP2 MSTORE POP SWAP1 POP PUSH1 0x0 PUSH1 0x40 MLOAD DUP1 PUSH1 0x40 ADD PUSH1 0x40 MSTORE DUP1 PUSH1 0x3 DUP2 MSTORE PUSH1 0x20 ADD PUSH32 0x163000000000000000000000000000000000000000000000000000000000000 DUP2 MSTORE POP SWAP1 POP PUSH1 0x0 PUSH1 0x40 MLOAD DUP1 PUSH1 0x40 ADD PUSH1 0x40 MSTORE DUP1 PUSH1 0x3 DUP2 MSTORE PUSH1 0x20 ADD PUSH32 0x164000000000000000000000000000000000000000000000000000000000000 DUP2 MSTORE POP SWAP1 POP PUSH1 0x0 PUSH1 0x40 MLOAD DUP1 PUSH1 0x40 ADD PUSH1 0x40 MSTORE DUP1 PUSH1 0x7 DUP2 MSTORE PUSH1 0x20 ADD PUSH32 0x161016401630000000000000000000000000000000000000000000000000000 DUP2 MSTORE POP SWAP1 POP PUSH1 0x0 PUSH1 0x40 MLOAD DUP1 PUSH1 0x40 ADD PUSH1 0x40 MSTORE DUP1 PUSH1 0x7 DUP2 MSTORE PUSH1 0x20 ADD PUSH32 0x162016101630000000000000000000000000000000000000000000000000000 DUP2 MSTORE POP SWAP1 POP PUSH1 0x0 PUSH1 0x40 MLOAD DUP1 PUSH1 0x40 ADD PUSH1 0x40 MSTORE DUP1 PUSH1 0x8 DUP2 MSTORE PUSH1 0x20 ADD PUSH32 0x261620163016400000000000000000000000000000000000000000000000000 DUP2 MSTORE POP SWAP1 POP PUSH1 0x0 PUSH1 0x40 MLOAD DUP1 PUSH1 0x40 ADD PUSH1 0x40 MSTORE DUP1 PUSH1 0x7 DUP2 MSTORE PUSH1 0x20 ADD PUSH32 0x161016301640000000000000000000000000000000000000000000000000000 DUP2 MSTORE POP SWAP1 POP PUSH1 0x0 PUSH1 0x40 MLOAD DUP1 PUSH1 0x80 ADD PUSH1 0x40 MSTORE DUP1 PUSH1 0x5A DUP2 MSTORE PUSH1 0x20 ADD PUSH2 0x35D7 PUSH1 0x5A SWAP2 CODECOPY SWAP1 POP PUSH1 0x0 PUSH1 0x40 MLOAD DUP1 PUSH1 0x80 ADD PUSH1 0x40 MSTORE DUP1 PUSH1 0x59 DUP2 MSTORE PUSH1 0x20 ADD PUSH2 0x357E PUSH1 0x59 SWAP2 CODECOPY SWAP1 POP PUSH1 0x0 PUSH2 0x8D0 PUSH1 0x40 MLOAD DUP1 PUSH1 0x40 ADD PUSH1 0x40 MSTORE DUP1 PUSH1 0x5 DUP2 MSTORE PUSH1 0x20 ADD PUSH32 0x302616200000000000000000000000000000000000000000000000000000000 DUP2 MSTORE POP PUSH1 0x40 MLOAD DUP1 PUSH1 0x40 ADD PUSH1 0x40 MSTORE DUP1 PUSH1 0x5 DUP2 MSTORE PUSH1 0x20 ADD PUSH32 0x301616100000000000000000000000000000000000000000000000000000000 DUP2 MSTORE POP PUSH2 0x14DF SWAP1 SWAP2 SWAP1 PUSH4 0xFFFFFFFF AND JUMP JUMPDEST SLT PUSH2 0x910 JUMPI PUSH1 0x40 MLOAD PUSH32 0x8C379A000000000000000000000000000000000000000000000000000000000 DUP2 MSTORE PUSH1 0x4 ADD PUSH2 0x907 SWAP1 PUSH2 0x22B6 JUMP JUMPDEST PUSH1 0x40 MLOAD DUP1 SWAP2 SUB SWAP1 REVERT JUMPDEST PUSH1 0x0 PUSH2 0x925 DUP10 DUP13 PUSH2 0x14DF SWAP1 SWAP2 SWAP1 PUSH4 0xFFFFFFFF AND JUMP JUMPDEST SGT PUSH2 0x965 JUMPI PUSH1 0x40 MLOAD PUSH32 0x8C379A000000000000000000000000000000000000000000000000000000000 DUP2 MSTORE PUSH1 0x4 ADD PUSH2 0x95C SWAP1 PUSH2 0x2348 JUMP JUMPDEST PUSH1 0x40 MLOAD DUP1 SWAP2 SUB SWAP1 REVERT JUMPDEST PUSH1 0x0 PUSH2 0x97A DUP9 DUP13 PUSH2 0x14DF SWAP1 SWAP2 SWAP1 PUSH4 0xFFFFFFFF AND JUMP JUMPDEST SLT PUSH2 0x9BA JUMPI PUSH1 0x40 MLOAD PUSH32 0x8C379A000000000000000000000000000000000000000000000000000000000 DUP2 MSTORE PUSH1 0x4 ADD PUSH2 0x9B1 SWAP1 PUSH2 0x2400 JUMP JUMPDEST PUSH1 0x40 MLOAD DUP1 SWAP2 SUB SWAP1 REVERT JUMPDEST PUSH1 0x0 PUSH2 0x9CF DUP8 DUP13 PUSH2 0x14DF SWAP1 SWAP2 SWAP1 PUSH4 0xFFFFFFFF AND JUMP JUMPDEST SLT PUSH2 0xA0F JUMPI PUSH1 0x40 MLOAD PUSH32 0x8C379A000000000000000000000000000000000000000000000000000000000 DUP2 MSTORE PUSH1 0x4 ADD PUSH2 0xA06 SWAP1 PUSH2 0x2492 JUMP JUMPDEST PUSH1 0x40 MLOAD DUP1 SWAP2 SUB SWAP1 REVERT JUMPDEST PUSH1 0x0 PUSH2 0xA24 DUP7 DUP13 PUSH2 0x14DF SWAP1 SWAP2 SWAP1 PUSH4 0xFFFFFFFF AND JUMP JUMPDEST SGT PUSH2 0xA64 JUMPI PUSH1 0x40 MLOAD PUSH32 0x8C379A000000000000000000000000000000000000000000000000000000000 DUP2 MSTORE PUSH1 0x4 ADD PUSH2 0xA5B SWAP1 PUSH2 0x2524 JUMP JUMPDEST PUSH1 0x40 MLOAD DUP1 SWAP2 SUB SWAP1 REVERT JUMPDEST PUSH1 0x0 PUSH2 0xA79 DUP5 DUP7 PUSH2 0x14DF SWAP1 SWAP2 SWAP1 PUSH4 0xFFFFFFFF AND JUMP JUMPDEST SGT PUSH2 0xAB9 JUMPI PUSH1 0x40 MLOAD PUSH32 0x8C379A000000000000000000000000000000000000000000000000000000000 DUP2 MSTORE PUSH1 0x4 ADD PUSH2 0xAB0 SWAP1 PUSH2 0x25DC JUMP JUMPDEST PUSH1 0x40 MLOAD DUP1 SWAP2 SUB SWAP1 REVERT JUMPDEST PUSH1 0x0 PUSH2 0xACE DUP11 DUP13 PUSH2 0x14DF SWAP1 SWAP2 SWAP1 PUSH4 0xFFFFFFFF AND JUMP JUMPDEST SLT PUSH2 0xB0E JUMPI PUSH1 0x40 MLOAD PUSH32 0x8C379A000000000000000000000000000000000000000000000000000000000 DUP2 MSTORE PUSH1 0x4 ADD PUSH2 0xB05 SWAP1 PUSH2 0x25DC JUMP JUMPDEST PUSH1 0x40 MLOAD DUP1 SWAP2 SUB SWAP1 REVERT JUMPDEST PUSH1 0x0 PUSH2 0xB23 DUP14 DUP14 PUSH2 0x14DF SWAP1 SWAP2 SWAP1 PUSH4 0xFFFFFFFF AND JUMP JUMPDEST SLT PUSH2 0xB63 JUMPI PUSH1 0x40 MLOAD PUSH32 0x8C379A000000000000000000000000000000000000000000000000000000000 DUP2 MSTORE PUSH1 0x4 ADD PUSH2 0xB5A SWAP1 PUSH2 0x2648 JUMP JUMPDEST PUSH1 0x40 MLOAD DUP1 SWAP2 SUB SWAP1 REVERT JUMPDEST PUSH1 0x0 PUSH2 0xB78 DUP14 DUP16 PUSH2 0x14DF SWAP1 SWAP2 SWAP1 PUSH4 0xFFFFFFFF AND JUMP JUMPDEST SLT PUSH2 0xBB8 JUMPI PUSH1 0x40 MLOAD PUSH32 0x8C379A000000000000000000000000000000000000000000000000000000000 DUP2 MSTORE PUSH1 0x4 ADD PUSH2 0xBAF SWAP1 PUSH2 0x26DA JUMP JUMPDEST PUSH1 0x40 MLOAD DUP1 SWAP2 SUB SWAP1 REVERT JUMPDEST PUSH1 0x0 PUSH2 0xBCD DUP15 DUP16 PUSH2 0x14DF SWAP1 SWAP2 SWAP1 PUSH4 0xFFFFFFFF AND JUMP JUMPDEST EQ PUSH2 0xC0D JUMPI PUSH1 0x40 MLOAD PUSH32 0x8C379A000000000000000000000000000000000000000000000000000000000 DUP2 MSTORE PUSH1 0x4 ADD PUSH2 0xC04 SWAP1 PUSH2 0x276C JUMP JUMPDEST PUSH1 0x40 MLOAD DUP1 SWAP2 SUB SWAP1 REVERT JUMPDEST PUSH1 0x0 PUSH2 0xC22 DUP15 DUP15 PUSH2 0x14DF SWAP1 SWAP2 SWAP1 PUSH4 0xFFFFFFFF AND JUMP JUMPDEST SGT PUSH2 0xC62 JUMPI PUSH1 0x40 MLOAD PUSH32 0x8C379A000000000000000000000000000000000000000000000000000000000 DUP2 MSTORE PUSH1 0x4 ADD PUSH2 0xC59 SWAP1 PUSH2 0x27FE JUMP JUMPDEST PUSH1 0x40 MLOAD DUP1 SWAP2 SUB SWAP1 REVERT JUMPDEST PUSH1 0x0 PUSH2 0xC77 DUP13 DUP16 PUSH2 0x14DF SWAP1 SWAP2 SWAP1 PUSH4 0xFFFFFFFF AND JUMP JUMPDEST SGT PUSH2 0xCB7 JUMPI PUSH1 0x40 MLOAD PUSH32 0x8C379A000000000000000000000000000000000000000000000000000000000 DUP2 MSTORE PUSH1 0x4 ADD PUSH2 0xCAE SWAP1 PUSH2 0x286A JUMP JUMPDEST PUSH1 0x40 MLOAD DUP1 SWAP2 SUB SWAP1 REVERT JUMPDEST PUSH1 0x0 PUSH2 0xCCC DUP3 DUP5 PUSH2 0x14DF SWAP1 SWAP2 SWAP1 PUSH4 0xFFFFFFFF AND JUMP JUMPDEST SGT PUSH2 0xD0C JUMPI PUSH1 0x40 MLOAD PUSH32 0x8C379A000000000000000000000000000000000000000000000000000000000 DUP2 MSTORE PUSH1 0x4 ADD PUSH2 0xD03 SWAP1 PUSH2 0x28FC JUMP JUMPDEST PUSH1 0x40 MLOAD DUP1 SWAP2 SUB SWAP1 REVERT JUMPDEST POP POP POP POP POP POP POP POP POP POP POP POP POP JUMP JUMPDEST PUSH2 0xD27 PUSH1 0x1 PUSH1 0x0 PUSH2 0x1691 JUMP JUMPDEST PUSH2 0xD66 JUMPI PUSH1 0x40 MLOAD PUSH32 0x8C379A000000000000000000000000000000000000000000000000000000000 DUP2 MSTORE PUSH1 0x4 ADD PUSH2 0xD5D SWAP1 PUSH2 0x2968 JUMP JUMPDEST PUSH1 0x40 MLOAD DUP1 SWAP2 SUB SWAP1 REVERT JUMPDEST PUSH2 0xD72 PUSH1 0x0 PUSH1 0x1 PUSH2 0x1691 JUMP JUMPDEST ISZERO PUSH2 0xDB2 JUMPI PUSH1 0x40 MLOAD PUSH32 0x8C379A000000000000000000000000000000000000000000000000000000000 DUP2 MSTORE PUSH1 0x4 ADD PUSH2 0xDA9 SWAP1 PUSH2 0x29D4 JUMP JUMPDEST PUSH1 0x40 MLOAD DUP1 SWAP2 SUB SWAP1 REVERT JUMPDEST PUSH2 0xDC1 PUSH1 0x0 PUSH4 0xFFFFFFFF PUSH2 0x1691 JUMP JUMPDEST PUSH2 0xE00 JUMPI PUSH1 0x40 MLOAD PUSH32 0x8C379A000000000000000000000000000000000000000000000000000000000 DUP2 MSTORE PUSH1 0x4 ADD PUSH2 0xDF7 SWAP1 PUSH2 0x2A40 JUMP JUMPDEST PUSH1 0x40 MLOAD DUP1 SWAP2 SUB SWAP1 REVERT JUMPDEST PUSH2 0xE0F PUSH4 0xFFFFFFFF PUSH1 0x0 PUSH2 0x1691 JUMP JUMPDEST ISZERO PUSH2 0xE4F JUMPI PUSH1 0x40 MLOAD PUSH32 0x8C379A000000000000000000000000000000000000000000000000000000000 DUP2 MSTORE PUSH1 0x4 ADD PUSH2 0xE46 SWAP1 PUSH2 0x2AAC JUMP JUMPDEST PUSH1 0x40 MLOAD DUP1 SWAP2 SUB SWAP1 REVERT JUMPDEST PUSH2 0xE61 PUSH4 0x11111111 PUSH4 0xAAAAAAAA PUSH2 0x1691 JUMP JUMPDEST PUSH2 0xEA0 JUMPI PUSH1 0x40 MLOAD PUSH32 0x8C379A000000000000000000000000000000000000000000000000000000000 DUP2 MSTORE PUSH1 0x4 ADD PUSH2 0xE97 SWAP1 PUSH2 0x2B18 JUMP JUMPDEST PUSH1 0x40 MLOAD DUP1 SWAP2 SUB SWAP1 REVERT JUMPDEST PUSH2 0xEAB PUSH1 0x1 DUP1 PUSH2 0x1691 JUMP JUMPDEST PUSH2 0xEEA JUMPI PUSH1 0x40 MLOAD PUSH32 0x8C379A000000000000000000000000000000000000000000000000000000000 DUP2 MSTORE PUSH1 0x4 ADD PUSH2 0xEE1 SWAP1 PUSH2 0x2B84 JUMP JUMPDEST PUSH1 0x40 MLOAD DUP1 SWAP2 SUB SWAP1 REVERT JUMPDEST JUMP JUMPDEST PUSH2 0x4A5C PUSH2 0xF13 PUSH1 0x40 MLOAD DUP1 PUSH2 0x140 ADD PUSH1 0x40 MSTORE DUP1 PUSH2 0x108 DUP2 MSTORE PUSH1 0x20 ADD PUSH2 0x3239 PUSH2 0x108 SWAP2 CODECOPY PUSH2 0x16A4 JUMP JUMPDEST PUSH2 0xFFFF AND EQ PUSH2 0xF57 JUMPI PUSH1 0x40 MLOAD PUSH32 0x8C379A000000000000000000000000000000000000000000000000000000000 DUP2 MSTORE PUSH1 0x4 ADD PUSH2 0xF4E SWAP1 PUSH2 0x2BF0 JUMP JUMPDEST PUSH1 0x40 MLOAD DUP1 SWAP2 SUB SWAP1 REVERT JUMPDEST PUSH2 0x54BD PUSH2 0xF7B PUSH1 0x40 MLOAD DUP1 PUSH1 0xC0 ADD PUSH1 0x40 MSTORE DUP1 PUSH1 0x89 DUP2 MSTORE PUSH1 0x20 ADD PUSH2 0x34F5 PUSH1 0x89 SWAP2 CODECOPY PUSH2 0x16A4 JUMP JUMPDEST PUSH2 0xFFFF AND EQ PUSH2 0xFBF JUMPI PUSH1 0x40 MLOAD PUSH32 0x8C379A000000000000000000000000000000000000000000000000000000000 DUP2 MSTORE PUSH1 0x4 ADD PUSH2 0xFB6 SWAP1 PUSH2 0x2C5C JUMP JUMPDEST PUSH1 0x40 MLOAD DUP1 SWAP2 SUB SWAP1 REVERT JUMPDEST PUSH2 0x835E PUSH2 0xFE3 PUSH1 0x40 MLOAD DUP1 PUSH1 0xC0 ADD PUSH1 0x40 MSTORE DUP1 PUSH1 0x88 DUP2 MSTORE PUSH1 0x20 ADD PUSH2 0x346D PUSH1 0x88 SWAP2 CODECOPY PUSH2 0x16A4 JUMP JUMPDEST PUSH2 0xFFFF AND EQ PUSH2 0xFF1 JUMPI PUSH1 0x0 DUP1 REVERT JUMPDEST PUSH2 0x4F66 PUSH2 0x1018 PUSH1 0x40 MLOAD DUP1 PUSH2 0x140 ADD PUSH1 0x40 MSTORE DUP1 PUSH2 0x108 DUP2 MSTORE PUSH1 0x20 ADD PUSH2 0x3341 PUSH2 0x108 SWAP2 CODECOPY PUSH2 0x16A4 JUMP JUMPDEST PUSH2 0xFFFF AND EQ PUSH2 0x105C JUMPI PUSH1 0x40 MLOAD PUSH32 0x8C379A000000000000000000000000000000000000000000000000000000000 DUP2 MSTORE PUSH1 0x4 ADD PUSH2 0x1053 SWAP1 PUSH2 0x2CC8 JUMP JUMPDEST PUSH1 0x40 MLOAD DUP1 SWAP2 SUB SWAP1 REVERT JUMPDEST JUMP JUMPDEST PUSH1 0x0 PUSH2 0x108A PUSH1 0x0 PUSH1 0x40 MLOAD DUP1 PUSH1 0x40 ADD PUSH1 0x40 MSTORE DUP1 PUSH1 0x1 DUP2 MSTORE PUSH1 0x20 ADD PUSH1 0x0 DUP2 MSTORE POP PUSH2 0x18EC SWAP1 SWAP2 SWAP1 PUSH4 0xFFFFFFFF AND JUMP JUMPDEST EQ PUSH2 0x10CA JUMPI PUSH1 0x40 MLOAD PUSH32 0x8C379A000000000000000000000000000000000000000000000000000000000 DUP2 MSTORE PUSH1 0x4 ADD PUSH2 0x10C1 SWAP1 PUSH2 0x2D34 JUMP JUMPDEST PUSH1 0x40 MLOAD DUP1 SWAP2 SUB SWAP1 REVERT JUMPDEST PUSH1 0x1 PUSH2 0x1115 PUSH1 0x0 PUSH1 0x40 MLOAD DUP1 PUSH1 0x40 ADD PUSH1 0x40 MSTORE DUP1 PUSH1 0x3 DUP2 MSTORE PUSH1 0x20 ADD PUSH32 0x161000000000000000000000000000000000000000000000000000000000000 DUP2 MSTORE POP PUSH2 0x18EC SWAP1 SWAP2 SWAP1 PUSH4 0xFFFFFFFF AND JUMP JUMPDEST EQ PUSH2 0x1155 JUMPI PUSH1 0x40 MLOAD PUSH32 0x8C379A000000000000000000000000000000000000000000000000000000000 DUP2 MSTORE PUSH1 0x4 ADD PUSH2 0x114C SWAP1 PUSH2 0x2DA0 JUMP JUMPDEST PUSH1 0x40 MLOAD DUP1 SWAP2 SUB SWAP1 REVERT JUMPDEST PUSH1 0x2 PUSH2 0x11A0 PUSH1 0x0 PUSH1 0x40 MLOAD DUP1 PUSH1 0x40 ADD PUSH1 0x40 MSTORE DUP1 PUSH1 0x6 DUP2 MSTORE PUSH1 0x20 ADD PUSH32 0x162016100000000000000000000000000000000000000000000000000000000 DUP2 MSTORE POP PUSH2 0x18EC SWAP1 SWAP2 SWAP1 PUSH4 0xFFFFFFFF AND JUMP JUMPDEST EQ PUSH2 0x11E0 JUMPI PUSH1 0x40 MLOAD PUSH32 0x8C379A000000000000000000000000000000000000000000000000000000000 DUP2 MSTORE PUSH1 0x4 ADD PUSH2 0x11D7 SWAP1 PUSH2 0x2E0C JUMP JUMPDEST PUSH1 0x40 MLOAD DUP1 SWAP2 SUB SWAP1 REVERT JUMPDEST PUSH1 0x1 PUSH2 0x122B PUSH1 0x7 PUSH1 0x40 MLOAD DUP1 PUSH1 0x40 ADD PUSH1 0x40 MSTORE DUP1 PUSH1 0xC DUP2 MSTORE PUSH1 0x20 ADD PUSH32 0x66574686C61620378797A000000000000000000000000000000000000000000 DUP2 MSTORE POP PUSH2 0x18EC SWAP1 SWAP2 SWAP1 PUSH4 0xFFFFFFFF AND JUMP JUMPDEST EQ PUSH2 0x126B JUMPI PUSH1 0x40 MLOAD PUSH32 0x8C379A000000000000000000000000000000000000000000000000000000000 DUP2 MSTORE PUSH1 0x4 ADD PUSH2 0x1262 SWAP1 PUSH2 0x2E78 JUMP JUMPDEST PUSH1 0x40 MLOAD DUP1 SWAP2 SUB SWAP1 REVERT JUMPDEST JUMP JUMPDEST PUSH1 0x0 DUP1 DUP3 SWAP1 POP JUMPDEST PUSH1 0x1 ISZERO PUSH2 0x12D4 JUMPI DUP4 MLOAD DUP2 LT PUSH2 0x128C JUMPI PUSH2 0x128B PUSH2 0x2E98 JUMP JUMPDEST JUMPDEST PUSH1 0x0 PUSH2 0x12A1 DUP3 DUP7 PUSH2 0x196D SWAP1 SWAP2 SWAP1 PUSH4 0xFFFFFFFF AND JUMP JUMPDEST PUSH1 0xFF AND SWAP1 POP PUSH1 0x1 DUP2 PUSH2 0x12B3 SWAP2 SWAP1 PUSH2 0x2EC7 JUMP JUMPDEST DUP3 PUSH2 0x12BE SWAP2 SWAP1 PUSH2 0x2EC7 JUMP JUMPDEST SWAP2 POP PUSH1 0x0 DUP2 SUB PUSH2 0x12CE JUMPI POP PUSH2 0x12D4 JUMP JUMPDEST POP PUSH2 0x1274 JUMP JUMPDEST DUP3 DUP2 PUSH2 0x12E0 SWAP2 SWAP1 PUSH2 0x2EFB JUMP JUMPDEST SWAP2 POP POP SWAP3 SWAP2 POP POP JUMP JUMPDEST PUSH2 0x12F1 PUSH2 0x1DD8 JUMP JUMPDEST DUP3 DUP2 PUSH1 0x0 ADD DUP2 SWAP1 MSTORE POP DUP2 DUP2 PUSH1 0xC0 ADD DUP2 DUP2 MSTORE POP POP PUSH2 0x130D DUP2 PUSH2 0x1399 JUMP JUMPDEST SWAP3 SWAP2 POP POP JUMP JUMPDEST PUSH1 0x0 DUP2 PUSH1 0x0 ADD MLOAD MLOAD DUP3 PUSH1 0x20 ADD MLOAD LT ISZERO SWAP1 POP SWAP2 SWAP1 POP JUMP JUMPDEST PUSH1 0x60 PUSH2 0x1359 DUP3 PUSH1 0x20 ADD MLOAD PUSH2 0x1345 DUP5 PUSH1 0x0 ADD MLOAD DUP6 PUSH1 0x20 ADD MLOAD PUSH2 0x126D JUMP JUMPDEST DUP5 PUSH1 0x0 ADD MLOAD PUSH2 0x1998 SWAP1 SWAP3 SWAP2 SWAP1 PUSH4 0xFFFFFFFF AND JUMP JUMPDEST SWAP1 POP SWAP2 SWAP1 POP JUMP JUMPDEST PUSH1 0x60 PUSH2 0x1392 DUP3 PUSH1 0xA0 ADD MLOAD DUP4 PUSH1 0xA0 ADD MLOAD DUP5 PUSH1 0xC0 ADD MLOAD PUSH2 0x137E SWAP2 SWAP1 PUSH2 0x2EFB JUMP JUMPDEST DUP5 PUSH1 0x0 ADD MLOAD PUSH2 0x1998 SWAP1 SWAP3 SWAP2 SWAP1 PUSH4 0xFFFFFFFF AND JUMP JUMPDEST SWAP1 POP SWAP2 SWAP1 POP JUMP JUMPDEST DUP1 PUSH1 0xC0 ADD MLOAD DUP2 PUSH1 0x20 ADD DUP2 DUP2 MSTORE POP POP DUP1 PUSH1 0x0 ADD MLOAD MLOAD DUP2 PUSH1 0x20 ADD MLOAD LT ISZERO PUSH2 0x14DC JUMPI PUSH1 0x0 PUSH2 0x13CC DUP3 PUSH1 0x0 ADD MLOAD DUP4 PUSH1 0x20 ADD MLOAD PUSH2 0x126D JUMP JUMPDEST DUP3 PUSH1 0x20 ADD MLOAD PUSH2 0x13DB SWAP2 SWAP1 PUSH2 0x2EC7 JUMP JUMPDEST SWAP1 POP PUSH2 0x13F4 DUP2 DUP4 PUSH1 0x0 ADD MLOAD PUSH2 0x1A2D SWAP1 SWAP2 SWAP1 PUSH4 0xFFFFFFFF AND JUMP JUMPDEST DUP3 PUSH1 0x40 ADD SWAP1 PUSH2 0xFFFF AND SWAP1 DUP2 PUSH2 0xFFFF AND DUP2 MSTORE POP POP PUSH1 0x2 DUP2 PUSH2 0x1414 SWAP2 SWAP1 PUSH2 0x2EC7 JUMP JUMPDEST SWAP1 POP PUSH2 0x142D DUP2 DUP4 PUSH1 0x0 ADD MLOAD PUSH2 0x1A2D SWAP1 SWAP2 SWAP1 PUSH4 0xFFFFFFFF AND JUMP JUMPDEST DUP3 PUSH1 0x60 ADD SWAP1 PUSH2 0xFFFF AND SWAP1 DUP2 PUSH2 0xFFFF AND DUP2 MSTORE POP POP PUSH1 0x2 DUP2 PUSH2 0x144D SWAP2 SWAP1 PUSH2 0x2EC7 JUMP JUMPDEST SWAP1 POP PUSH2 0x1466 DUP2 DUP4 PUSH1 0x0 ADD MLOAD PUSH2 0x1A5C SWAP1 SWAP2 SWAP1 PUSH4 0xFFFFFFFF AND JUMP JUMPDEST DUP3 PUSH1 0x80 ADD SWAP1 PUSH4 0xFFFFFFFF AND SWAP1 DUP2 PUSH4 0xFFFFFFFF AND DUP2 MSTORE POP POP PUSH1 0x4 DUP2 PUSH2 0x148A SWAP2 SWAP1 PUSH2 0x2EC7 JUMP JUMPDEST SWAP1 POP PUSH1 0x0 PUSH2 0x14A5 DUP3 DUP5 PUSH1 0x0 ADD MLOAD PUSH2 0x1A2D SWAP1 SWAP2 SWAP1 PUSH4 0xFFFFFFFF AND JUMP JUMPDEST PUSH2 0xFFFF AND SWAP1 POP PUSH1 0x2 DUP3 PUSH2 0x14B8 SWAP2 SWAP1 PUSH2 0x2EC7 JUMP JUMPDEST SWAP2 POP DUP2 DUP4 PUSH1 0xA0 ADD DUP2 DUP2 MSTORE POP POP DUP1 DUP3 PUSH2 0x14D0 SWAP2 SWAP1 PUSH2 0x2EC7 JUMP JUMPDEST DUP4 PUSH1 0xC0 ADD DUP2 DUP2 MSTORE POP POP POP POP JUMPDEST POP JUMP JUMPDEST PUSH1 0x0 PUSH2 0x14F4 DUP3 DUP5 PUSH2 0x1A8D SWAP1 SWAP2 SWAP1 PUSH4 0xFFFFFFFF AND JUMP JUMPDEST ISZERO PUSH2 0x1502 JUMPI PUSH1 0x0 SWAP1 POP PUSH2 0x168B JUMP JUMPDEST PUSH1 0x0 DUP1 PUSH1 0x0 DUP1 PUSH1 0x0 PUSH2 0x1515 DUP9 PUSH1 0x0 PUSH2 0x18EC JUMP JUMPDEST SWAP1 POP PUSH1 0x0 PUSH2 0x1524 DUP9 PUSH1 0x0 PUSH2 0x18EC JUMP JUMPDEST SWAP1 POP JUMPDEST DUP1 DUP3 GT ISZERO PUSH2 0x1551 JUMPI DUP6 SWAP4 POP PUSH2 0x153C DUP10 DUP8 PUSH2 0x1AB4 JUMP JUMPDEST SWAP6 POP DUP2 DUP1 PUSH2 0x1549 SWAP1 PUSH2 0x2F2F JUMP JUMPDEST SWAP3 POP POP PUSH2 0x1527 JUMP JUMPDEST JUMPDEST DUP2 DUP2 GT ISZERO PUSH2 0x157C JUMPI DUP5 SWAP3 POP PUSH2 0x1567 DUP9 DUP7 PUSH2 0x1AB4 JUMP JUMPDEST SWAP5 POP DUP1 DUP1 PUSH2 0x1574 SWAP1 PUSH2 0x2F2F JUMP JUMPDEST SWAP2 POP POP PUSH2 0x1552 JUMP JUMPDEST JUMPDEST PUSH1 0x0 DUP3 GT DUP1 ISZERO PUSH2 0x15A1 JUMPI POP PUSH2 0x159F DUP7 DUP10 DUP8 DUP13 PUSH2 0x1AEB SWAP1 SWAP4 SWAP3 SWAP2 SWAP1 PUSH4 0xFFFFFFFF AND JUMP JUMPDEST ISZERO JUMPDEST ISZERO PUSH2 0x15D8 JUMPI DUP6 SWAP4 POP PUSH2 0x15B3 DUP10 DUP8 PUSH2 0x1AB4 JUMP JUMPDEST SWAP6 POP DUP5 SWAP3 POP PUSH2 0x15C2 DUP9 DUP7 PUSH2 0x1AB4 JUMP JUMPDEST SWAP5 POP PUSH1 0x1 DUP3 PUSH2 0x15D1 SWAP2 SWAP1 PUSH2 0x2EFB JUMP JUMPDEST SWAP2 POP PUSH2 0x157D JUMP JUMPDEST PUSH1 0x0 DUP7 SUB PUSH2 0x160E JUMPI PUSH32 0xFFFFFFFFFFFFFFFFFFFFFFFFFFFFFFFFFFFFFFFFFFFFFFFFFFFFFFFFFFFFFFFF SWAP7 POP POP POP POP POP POP POP PUSH2 0x168B JUMP JUMPDEST PUSH1 0x0 DUP6 SUB PUSH2 0x1625 JUMPI PUSH1 0x1 SWAP7 POP POP POP POP POP POP POP PUSH2 0x168B JUMP JUMPDEST PUSH2 0x1682 PUSH1 0x1 DUP6 PUSH2 0x1635 SWAP2 SWAP1 PUSH2 0x2EC7 JUMP JUMPDEST PUSH2 0x1648 DUP7 DUP13 PUSH2 0x196D SWAP1 SWAP2 SWAP1 PUSH4 0xFFFFFFFF AND JUMP JUMPDEST PUSH1 0xFF AND DUP11 PUSH1 0x1 DUP8 PUSH2 0x1659 SWAP2 SWAP1 PUSH2 0x2EC7 JUMP JUMPDEST PUSH2 0x166C DUP9 DUP15 PUSH2 0x196D SWAP1 SWAP2 SWAP1 PUSH4 0xFFFFFFFF AND JUMP JUMPDEST PUSH1 0xFF AND DUP15 PUSH2 0x1B26 SWAP1 SWAP6 SWAP5 SWAP4 SWAP3 SWAP2 SWAP1 PUSH4 0xFFFFFFFF AND JUMP JUMPDEST SWAP7 POP POP POP POP POP POP POP JUMPDEST SWAP3 SWAP2 POP POP JUMP JUMPDEST PUSH1 0x0 DUP1 DUP3 DUP5 SUB PUSH1 0x3 SIGNEXTEND SLT ISZERO SWAP1 POP SWAP3 SWAP2 POP POP JUMP JUMPDEST PUSH1 0x0 PUSH2 0x2000 DUP3 MLOAD GT ISZERO PUSH2 0x16EC JUMPI PUSH1 0x40 MLOAD PUSH32 0x8C379A000000000000000000000000000000000000000000000000000000000 DUP2 MSTORE PUSH1 0x4 ADD PUSH2 0x16E3 SWAP1 PUSH2 0x2FA4 JUMP JUMPDEST PUSH1 0x40 MLOAD DUP1 SWAP2 SUB SWAP1 REVERT JUMPDEST PUSH1 0x0 DUP1 PUSH1 0x0 JUMPDEST PUSH1 0x1F DUP6 MLOAD ADD DUP2 LT ISZERO PUSH2 0x178C JUMPI PUSH1 0x0 DUP2 PUSH1 0x20 DUP8 ADD ADD MLOAD SWAP1 POP DUP6 MLOAD PUSH1 0x20 DUP4 ADD GT ISZERO PUSH2 0x172F JUMPI PUSH1 0x0 PUSH1 0x8 DUP4 DUP9 MLOAD SUB MUL PUSH2 0x100 SUB SWAP1 POP DUP1 DUP2 DUP4 SWAP1 SHR SWAP1 SHL SWAP2 POP POP JUMPDEST PUSH1 0x8 PUSH32 0xFF00FF00FF00FF00FF00FF00FF00FF00FF00FF00FF00FF00FF00FF00FF00FF00 DUP3 AND SWAP1 SHR DUP5 ADD SWAP4 POP PUSH31 0xFF00FF00FF00FF00FF00FF00FF00FF00FF00FF00FF00FF00FF00FF00FF00FF DUP2 AND DUP4 ADD SWAP3 POP POP PUSH1 0x20 DUP2 ADD SWAP1 POP PUSH2 0x16F2 JUMP JUMPDEST POP PUSH1 0x10 PUSH32 0xFFFF0000FFFF0000FFFF0000FFFF0000FFFF0000FFFF0000FFFF0000FFFF0000 DUP4 AND SWAP1 SHR PUSH30 0xFFFF0000FFFF0000FFFF0000FFFF0000FFFF0000FFFF0000FFFF0000FFFF DUP4 AND ADD SWAP2 POP PUSH1 0x10 PUSH32 0xFFFF0000FFFF0000FFFF0000FFFF0000FFFF0000FFFF0000FFFF0000FFFF0000 DUP3 AND SWAP1 SHR PUSH30 0xFFFF0000FFFF0000FFFF0000FFFF0000FFFF0000FFFF0000FFFF0000FFFF DUP3 AND ADD SWAP1 POP DUP1 PUSH1 0x8 DUP4 SWAP1 SHL ADD SWAP2 POP PUSH1 0x20 PUSH32 0xFFFFFFFF00000000FFFFFFFF00000000FFFFFFFF00000000FFFFFFFF00000000 DUP4 AND SWAP1 SHR PUSH28 0xFFFFFFFF00000000FFFFFFFF00000000FFFFFFFF00000000FFFFFFFF DUP4 AND ADD SWAP2 POP PUSH1 0x40 PUSH32 0xFFFFFFFFFFFFFFFF0000000000000000FFFFFFFFFFFFFFFF0000000000000000 DUP4 AND SWAP1 SHR PUSH24 0xFFFFFFFFFFFFFFFF0000000000000000FFFFFFFFFFFFFFFF DUP4 AND ADD SWAP2 POP PUSH1 0x80 DUP3 SWAP1 SHR PUSH16 0xFFFFFFFFFFFFFFFFFFFFFFFFFFFFFFFF DUP4 AND ADD SWAP2 POP PUSH2 0xFFFF PUSH1 0x10 DUP4 SWAP1 SHR AND DUP3 ADD SWAP2 POP DUP2 SWAP3 POP POP POP SWAP2 SWAP1 POP JUMP JUMPDEST PUSH1 0x0 DUP1 PUSH1 0x0 SWAP1 POP JUMPDEST PUSH1 0x1 ISZERO PUSH2 0x1963 JUMPI DUP4 MLOAD DUP4 LT PUSH2 0x190C JUMPI PUSH2 0x190B PUSH2 0x2E98 JUMP JUMPDEST JUMPDEST PUSH1 0x0 PUSH2 0x1921 DUP5 DUP7 PUSH2 0x196D SWAP1 SWAP2 SWAP1 PUSH4 0xFFFFFFFF AND JUMP JUMPDEST PUSH1 0xFF AND SWAP1 POP PUSH1 0x1 DUP2 PUSH2 0x1933 SWAP2 SWAP1 PUSH2 0x2EC7 JUMP JUMPDEST DUP5 PUSH2 0x193E SWAP2 SWAP1 PUSH2 0x2EC7 JUMP JUMPDEST SWAP4 POP PUSH1 0x0 DUP2 SUB PUSH2 0x194E JUMPI POP PUSH2 0x1963 JUMP JUMPDEST PUSH1 0x1 DUP3 PUSH2 0x195B SWAP2 SWAP1 PUSH2 0x2EC7 JUMP JUMPDEST SWAP2 POP POP PUSH2 0x18F4 JUMP JUMPDEST DUP1 SWAP2 POP POP SWAP3 SWAP2 POP POP JUMP JUMPDEST PUSH1 0x0 DUP3 DUP3 DUP2 MLOAD DUP2 LT PUSH2 0x1982 JUMPI PUSH2 0x1981 PUSH2 0x2050 JUMP JUMPDEST JUMPDEST PUSH1 0x20 ADD ADD MLOAD PUSH1 0xF8 SHR PUSH1 0xF8 SHL PUSH1 0xF8 SHR SWAP1 POP SWAP3 SWAP2 POP POP JUMP JUMPDEST PUSH1 0x60 DUP4 MLOAD DUP3 DUP5 PUSH2 0x19A8 SWAP2 SWAP1 PUSH2 0x2EC7 JUMP JUMPDEST GT ISZERO PUSH2 0x19B3 JUMPI PUSH1 0x0 DUP1 REVERT JUMPDEST PUSH1 0x0 DUP3 PUSH8 0xFFFFFFFFFFFFFFFF DUP2 GT ISZERO PUSH2 0x19CF JUMPI PUSH2 0x19CE PUSH2 0x2FC4 JUMP JUMPDEST JUMPDEST PUSH1 0x40 MLOAD SWAP1 DUP1 DUP3 MSTORE DUP1 PUSH1 0x1F ADD PUSH1 0x1F NOT AND PUSH1 0x20 ADD DUP3 ADD PUSH1 0x40 MSTORE DUP1 ISZERO PUSH2 0x1A01 JUMPI DUP2 PUSH1 0x20 ADD PUSH1 0x1 DUP3 MUL DUP1 CALLDATASIZE DUP4 CALLDATACOPY DUP1 DUP3 ADD SWAP2 POP POP SWAP1 POP JUMPDEST POP SWAP1 POP PUSH1 0x0 DUP1 PUSH1 0x20 DUP4 ADD SWAP2 POP DUP6 PUSH1 0x20 DUP9 ADD ADD SWAP1 POP PUSH2 0x1A20 DUP3 DUP3 DUP8 PUSH2 0x1D24 JUMP JUMPDEST DUP3 SWAP4 POP POP POP POP SWAP4 SWAP3 POP POP POP JUMP JUMPDEST PUSH1 0x0 DUP3 MLOAD PUSH1 0x2 DUP4 PUSH2 0x1A3E SWAP2 SWAP1 PUSH2 0x2EC7 JUMP JUMPDEST GT ISZERO PUSH2 0x1A49 JUMPI PUSH1 0x0 DUP1 REVERT JUMPDEST PUSH2 0xFFFF DUP3 PUSH1 0x2 DUP6 ADD ADD MLOAD AND SWAP1 POP SWAP3 SWAP2 POP POP JUMP JUMPDEST PUSH1 0x0 DUP3 MLOAD PUSH1 0x4 DUP4 PUSH2 0x1A6D SWAP2 SWAP1 PUSH2 0x2EC7 JUMP JUMPDEST GT ISZERO PUSH2 0x1A78 JUMPI PUSH1 0x0 DUP1 REVERT JUMPDEST PUSH4 0xFFFFFFFF DUP3 PUSH1 0x4 DUP6 ADD ADD MLOAD AND SWAP1 POP SWAP3 SWAP2 POP POP JUMP JUMPDEST PUSH1 0x0 DUP2 MLOAD DUP4 MLOAD EQ DUP1 ISZERO PUSH2 0x1AAC JUMPI POP PUSH2 0x1AAB DUP4 PUSH1 0x0 DUP5 PUSH1 0x0 DUP8 MLOAD PUSH2 0x1D88 JUMP JUMPDEST JUMPDEST SWAP1 POP SWAP3 SWAP2 POP POP JUMP JUMPDEST PUSH1 0x0 PUSH2 0x1AC9 DUP3 DUP5 PUSH2 0x196D SWAP1 SWAP2 SWAP1 PUSH4 0xFFFFFFFF AND JUMP JUMPDEST PUSH1 0xFF AND PUSH1 0x1 DUP4 PUSH2 0x1AD9 SWAP2 SWAP1 PUSH2 0x2EC7 JUMP JUMPDEST PUSH2 0x1AE3 SWAP2 SWAP1 PUSH2 0x2EC7 JUMP JUMPDEST SWAP1 POP SWAP3 SWAP2 POP POP JUMP JUMPDEST PUSH1 0x0 PUSH2 0x1B04 DUP4 DUP4 DUP5 DUP7 MLOAD PUSH2 0x1AFF SWAP2 SWAP1 PUSH2 0x2EFB JUMP JUMPDEST PUSH2 0x1DAC JUMP JUMPDEST PUSH2 0x1B1B DUP7 DUP7 DUP8 DUP10 MLOAD PUSH2 0x1B16 SWAP2 SWAP1 PUSH2 0x2EFB JUMP JUMPDEST PUSH2 0x1DAC JUMP JUMPDEST EQ SWAP1 POP SWAP5 SWAP4 POP POP POP POP JUMP JUMPDEST PUSH1 0x0 DUP7 MLOAD DUP6 DUP8 PUSH2 0x1B36 SWAP2 SWAP1 PUSH2 0x2EC7 JUMP JUMPDEST GT ISZERO PUSH2 0x1B87 JUMPI DUP5 DUP7 PUSH2 0x1B48 SWAP2 SWAP1 PUSH2 0x2EC7 JUMP JUMPDEST DUP8 MLOAD PUSH1 0x40 MLOAD PUSH32 0x8A3C1CFB00000000000000000000000000000000000000000000000000000000 DUP2 MSTORE PUSH1 0x4 ADD PUSH2 0x1B7E SWAP3 SWAP2 SWAP1 PUSH2 0x3002 JUMP JUMPDEST PUSH1 0x40 MLOAD DUP1 SWAP2 SUB SWAP1 REVERT JUMPDEST DUP4 MLOAD DUP3 DUP5 PUSH2 0x1B95 SWAP2 SWAP1 PUSH2 0x2EC7 JUMP JUMPDEST GT ISZERO PUSH2 0x1BE6 JUMPI DUP2 DUP4 PUSH2 0x1BA7 SWAP2 SWAP1 PUSH2 0x2EC7 JUMP JUMPDEST DUP5 MLOAD PUSH1 0x40 MLOAD PUSH32 0x8A3C1CFB00000000000000000000000000000000000000000000000000000000 DUP2 MSTORE PUSH1 0x4 ADD PUSH2 0x1BDD SWAP3 SWAP2 SWAP1 PUSH2 0x3002 JUMP JUMPDEST PUSH1 0x40 MLOAD DUP1 SWAP2 SUB SWAP1 REVERT JUMPDEST PUSH1 0x0 DUP6 SWAP1 POP DUP6 DUP4 LT ISZERO PUSH2 0x1BF7 JUMPI DUP3 SWAP1 POP JUMPDEST PUSH1 0x0 DUP1 PUSH1 0x20 DUP10 ADD DUP11 ADD SWAP2 POP PUSH1 0x20 DUP7 ADD DUP8 ADD SWAP1 POP PUSH1 0x0 JUMPDEST DUP4 DUP2 LT ISZERO PUSH2 0x1D07 JUMPI PUSH1 0x0 DUP1 DUP5 MLOAD SWAP2 POP DUP4 MLOAD SWAP1 POP DUP1 DUP3 EQ PUSH2 0x1CD3 JUMPI PUSH1 0x0 PUSH1 0x20 DUP5 DUP9 PUSH2 0x1C37 SWAP2 SWAP1 PUSH2 0x2EFB JUMP JUMPDEST LT PUSH2 0x1C64 JUMPI PUSH32 0xFFFFFFFFFFFFFFFFFFFFFFFFFFFFFFFFFFFFFFFFFFFFFFFFFFFFFFFFFFFFFFFF SWAP1 POP PUSH2 0x1CA4 JUMP JUMPDEST PUSH1 0x1 DUP8 PUSH1 0x20 DUP7 PUSH2 0x1C74 SWAP2 SWAP1 PUSH2 0x2EC7 JUMP JUMPDEST PUSH2 0x1C7E SWAP2 SWAP1 PUSH2 0x2EFB JUMP JUMPDEST PUSH1 0x8 PUSH2 0x1C8A SWAP2 SWAP1 PUSH2 0x302B JUMP JUMPDEST PUSH1 0x2 PUSH2 0x1C96 SWAP2 SWAP1 PUSH2 0x31A0 JUMP JUMPDEST PUSH2 0x1CA0 SWAP2 SWAP1 PUSH2 0x2EFB JUMP JUMPDEST NOT SWAP1 POP JUMPDEST PUSH1 0x0 DUP2 DUP4 AND DUP3 DUP6 AND PUSH2 0x1CB6 SWAP2 SWAP1 PUSH2 0x31F5 JUMP JUMPDEST SWAP1 POP PUSH1 0x0 DUP2 EQ PUSH2 0x1CD0 JUMPI DUP1 SWAP9 POP POP POP POP POP POP POP POP POP PUSH2 0x1D1A JUMP JUMPDEST POP POP JUMPDEST PUSH1 0x20 DUP6 PUSH2 0x1CE0 SWAP2 SWAP1 PUSH2 0x2EC7 JUMP JUMPDEST SWAP5 POP PUSH1 0x20 DUP5 PUSH2 0x1CEF SWAP2 SWAP1 PUSH2 0x2EC7 JUMP JUMPDEST SWAP4 POP POP POP PUSH1 0x20 DUP2 PUSH2 0x1D00 SWAP2 SWAP1 PUSH2 0x2EC7 JUMP JUMPDEST SWAP1 POP PUSH2 0x1C0D JUMP JUMPDEST POP DUP5 DUP9 PUSH2 0x1D14 SWAP2 SWAP1 PUSH2 0x31F5 JUMP JUMPDEST SWAP4 POP POP POP POP JUMPDEST SWAP7 SWAP6 POP POP POP POP POP POP JUMP JUMPDEST JUMPDEST PUSH1 0x20 DUP2 LT PUSH2 0x1D63 JUMPI DUP2 MLOAD DUP4 MSTORE PUSH1 0x20 DUP4 PUSH2 0x1D3E SWAP2 SWAP1 PUSH2 0x2EC7 JUMP JUMPDEST SWAP3 POP PUSH1 0x20 DUP3 PUSH2 0x1D4D SWAP2 SWAP1 PUSH2 0x2EC7 JUMP JUMPDEST SWAP2 POP PUSH1 0x20 DUP2 PUSH2 0x1D5C SWAP2 SWAP1 PUSH2 0x2EFB JUMP JUMPDEST SWAP1 POP PUSH2 0x1D25 JUMP JUMPDEST PUSH1 0x0 PUSH1 0x1 DUP3 PUSH1 0x20 SUB PUSH2 0x100 EXP SUB SWAP1 POP DUP1 NOT DUP4 MLOAD AND DUP2 DUP6 MLOAD AND DUP2 DUP2 OR DUP7 MSTORE POP POP POP POP POP POP JUMP JUMPDEST PUSH1 0x0 PUSH2 0x1D95 DUP5 DUP5 DUP5 PUSH2 0x1DAC JUMP JUMPDEST PUSH2 0x1DA0 DUP8 DUP8 DUP6 PUSH2 0x1DAC JUMP JUMPDEST EQ SWAP1 POP SWAP6 SWAP5 POP POP POP POP POP JUMP JUMPDEST PUSH1 0x0 DUP4 MLOAD DUP3 DUP5 PUSH2 0x1DBC SWAP2 SWAP1 PUSH2 0x2EC7 JUMP JUMPDEST GT ISZERO PUSH2 0x1DC7 JUMPI PUSH1 0x0 DUP1 REVERT JUMPDEST DUP2 DUP4 PUSH1 0x20 DUP7 ADD ADD KECCAK256 SWAP1 POP SWAP4 SWAP3 POP POP POP JUMP JUMPDEST PUSH1 0x40 MLOAD DUP1 PUSH1 0xE0 ADD PUSH1 0x40 MSTORE DUP1 PUSH1 0x60 DUP2 MSTORE PUSH1 0x20 ADD PUSH1 0x0 DUP2 MSTORE PUSH1 0x20 ADD PUSH1 0x0 PUSH2 0xFFFF AND DUP2 MSTORE PUSH1 0x20 ADD PUSH1 0x0 PUSH2 0xFFFF AND DUP2 MSTORE PUSH1 0x20 ADD PUSH1 0x0 PUSH4 0xFFFFFFFF AND DUP2 MSTORE PUSH1 0x20 ADD PUSH1 0x0 DUP2 MSTORE PUSH1 0x20 ADD PUSH1 0x0 DUP2 MSTORE POP SWAP1 JUMP JUMPDEST PUSH1 0x0 DUP3 DUP3 MSTORE PUSH1 0x20 DUP3 ADD SWAP1 POP SWAP3 SWAP2 POP POP JUMP JUMPDEST PUSH32 0x6E616D654C656E67746828272E2729203D3D2031000000000000000000000000 PUSH1 0x0 DUP3 ADD MSTORE POP JUMP JUMPDEST PUSH1 0x0 PUSH2 0x1E6A PUSH1 0x14 DUP4 PUSH2 0x1E23 JUMP JUMPDEST SWAP2 POP PUSH2 0x1E75 DUP3 PUSH2 0x1E34 JUMP JUMPDEST PUSH1 0x20 DUP3 ADD SWAP1 POP SWAP2 SWAP1 POP JUMP JUMPDEST PUSH1 0x0 PUSH1 0x20 DUP3 ADD SWAP1 POP DUP2 DUP2 SUB PUSH1 0x0 DUP4 ADD MSTORE PUSH2 0x1E99 DUP2 PUSH2 0x1E5D JUMP JUMPDEST SWAP1 POP SWAP2 SWAP1 POP JUMP JUMPDEST PUSH32 0x6E616D654C656E67746828276162632E2729203D3D2035000000000000000000 PUSH1 0x0 DUP3 ADD MSTORE POP JUMP JUMPDEST PUSH1 0x0 PUSH2 0x1ED6 PUSH1 0x17 DUP4 PUSH2 0x1E23 JUMP JUMPDEST SWAP2 POP PUSH2 0x1EE1 DUP3 PUSH2 0x1EA0 JUMP JUMPDEST PUSH1 0x20 DUP3 ADD SWAP1 POP SWAP2 SWAP1 POP JUMP JUMPDEST PUSH1 0x0 PUSH1 0x20 DUP3 ADD SWAP1 POP DUP2 DUP2 SUB PUSH1 0x0 DUP4 ADD MSTORE PUSH2 0x1F05 DUP2 PUSH2 0x1EC9 JUMP JUMPDEST SWAP1 POP SWAP2 SWAP1 POP JUMP JUMPDEST PUSH32 0x54797065206D6174636865730000000000000000000000000000000000000000 PUSH1 0x0 DUP3 ADD MSTORE POP JUMP JUMPDEST PUSH1 0x0 PUSH2 0x1F42 PUSH1 0xC DUP4 PUSH2 0x1E23 JUMP JUMPDEST SWAP2 POP PUSH2 0x1F4D DUP3 PUSH2 0x1F0C JUMP JUMPDEST PUSH1 0x20 DUP3 ADD SWAP1 POP SWAP2 SWAP1 POP JUMP JUMPDEST PUSH1 0x0 PUSH1 0x20 DUP3 ADD SWAP1 POP DUP2 DUP2 SUB PUSH1 0x0 DUP4 ADD MSTORE PUSH2 0x1F71 DUP2 PUSH2 0x1F35 JUMP JUMPDEST SWAP1 POP SWAP2 SWAP1 POP JUMP JUMPDEST PUSH32 0x436C617373206D61746368657300000000000000000000000000000000000000 PUSH1 0x0 DUP3 ADD MSTORE POP JUMP JUMPDEST PUSH1 0x0 PUSH2 0x1FAE PUSH1 0xD DUP4 PUSH2 0x1E23 JUMP JUMPDEST SWAP2 POP PUSH2 0x1FB9 DUP3 PUSH2 0x1F78 JUMP JUMPDEST PUSH1 0x20 DUP3 ADD SWAP1 POP SWAP2 SWAP1 POP JUMP JUMPDEST PUSH1 0x0 PUSH1 0x20 DUP3 ADD SWAP1 POP DUP2 DUP2 SUB PUSH1 0x0 DUP4 ADD MSTORE PUSH2 0x1FDD DUP2 PUSH2 0x1FA1 JUMP JUMPDEST SWAP1 POP SWAP2 SWAP1 POP JUMP JUMPDEST PUSH32 0x54544C206D617463686573000000000000000000000000000000000000000000 PUSH1 0x0 DUP3 ADD MSTORE POP JUMP JUMPDEST PUSH1 0x0 PUSH2 0x201A PUSH1 0xB DUP4 PUSH2 0x1E23 JUMP JUMPDEST SWAP2 POP PUSH2 0x2025 DUP3 PUSH2 0x1FE4 JUMP JUMPDEST PUSH1 0x20 DUP3 ADD SWAP1 POP SWAP2 SWAP1 POP JUMP JUMPDEST PUSH1 0x0 PUSH1 0x20 DUP3 ADD SWAP1 POP DUP2 DUP2 SUB PUSH1 0x0 DUP4 ADD MSTORE PUSH2 0x2049 DUP2 PUSH2 0x200D JUMP JUMPDEST SWAP1 POP SWAP2 SWAP1 POP JUMP JUMPDEST PUSH32 0x4E487B7100000000000000000000000000000000000000000000000000000000 PUSH1 0x0 MSTORE PUSH1 0x32 PUSH1 0x4 MSTORE PUSH1 0x24 PUSH1 0x0 REVERT JUMPDEST PUSH32 0x4E616D65206D6174636865730000000000000000000000000000000000000000 PUSH1 0x0 DUP3 ADD MSTORE POP JUMP JUMPDEST PUSH1 0x0 PUSH2 0x20B5 PUSH1 0xC DUP4 PUSH2 0x1E23 JUMP JUMPDEST SWAP2 POP PUSH2 0x20C0 DUP3 PUSH2 0x207F JUMP JUMPDEST PUSH1 0x20 DUP3 ADD SWAP1 POP SWAP2 SWAP1 POP JUMP JUMPDEST PUSH1 0x0 PUSH1 0x20 DUP3 ADD SWAP1 POP DUP2 DUP2 SUB PUSH1 0x0 DUP4 ADD MSTORE PUSH2 0x20E4 DUP2 PUSH2 0x20A8 JUMP JUMPDEST SWAP1 POP SWAP2 SWAP1 POP JUMP JUMPDEST PUSH32 0x5264617461206D61746368657300000000000000000000000000000000000000 PUSH1 0x0 DUP3 ADD MSTORE POP JUMP JUMPDEST PUSH1 0x0 PUSH2 0x2121 PUSH1 0xD DUP4 PUSH2 0x1E23 JUMP JUMPDEST SWAP2 POP PUSH2 0x212C DUP3 PUSH2 0x20EB JUMP JUMPDEST PUSH1 0x20 DUP3 ADD SWAP1 POP SWAP2 SWAP1 POP JUMP JUMPDEST PUSH1 0x0 PUSH1 0x20 DUP3 ADD SWAP1 POP DUP2 DUP2 SUB PUSH1 0x0 DUP4 ADD MSTORE PUSH2 0x2150 DUP2 PUSH2 0x2114 JUMP JUMPDEST SWAP1 POP SWAP2 SWAP1 POP JUMP JUMPDEST PUSH32 0x4E487B7100000000000000000000000000000000000000000000000000000000 PUSH1 0x0 MSTORE PUSH1 0x11 PUSH1 0x4 MSTORE PUSH1 0x24 PUSH1 0x0 REVERT JUMPDEST PUSH1 0x0 DUP2 SWAP1 POP SWAP2 SWAP1 POP JUMP JUMPDEST PUSH1 0x0 PUSH2 0x219B DUP3 PUSH2 0x2186 JUMP JUMPDEST SWAP2 POP PUSH32 0xFFFFFFFFFFFFFFFFFFFFFFFFFFFFFFFFFFFFFFFFFFFFFFFFFFFFFFFFFFFFFFFF DUP3 SUB PUSH2 0x21CD JUMPI PUSH2 0x21CC PUSH2 0x2157 JUMP JUMPDEST JUMPDEST PUSH1 0x1 DUP3 ADD SWAP1 POP SWAP2 SWAP1 POP JUMP JUMPDEST PUSH32 0x45787065637465642032207265636F7264730000000000000000000000000000 PUSH1 0x0 DUP3 ADD MSTORE POP JUMP JUMPDEST PUSH1 0x0 PUSH2 0x220E PUSH1 0x12 DUP4 PUSH2 0x1E23 JUMP JUMPDEST SWAP2 POP PUSH2 0x2219 DUP3 PUSH2 0x21D8 JUMP JUMPDEST PUSH1 0x20 DUP3 ADD SWAP1 POP SWAP2 SWAP1 POP JUMP JUMPDEST PUSH1 0x0 PUSH1 0x20 DUP3 ADD SWAP1 POP DUP2 DUP2 SUB PUSH1 0x0 DUP4 ADD MSTORE PUSH2 0x223D DUP2 PUSH2 0x2201 JUMP JUMPDEST SWAP1 POP SWAP2 SWAP1 POP JUMP JUMPDEST PUSH32 0x6C6162656C206C656E677468732061726520636F72726563746C792063686563 PUSH1 0x0 DUP3 ADD MSTORE PUSH32 0x6B65640000000000000000000000000000000000000000000000000000000000 PUSH1 0x20 DUP3 ADD MSTORE POP JUMP JUMPDEST PUSH1 0x0 PUSH2 0x22A0 PUSH1 0x23 DUP4 PUSH2 0x1E23 JUMP JUMPDEST SWAP2 POP PUSH2 0x22AB DUP3 PUSH2 0x2244 JUMP JUMPDEST PUSH1 0x40 DUP3 ADD SWAP1 POP SWAP2 SWAP1 POP JUMP JUMPDEST PUSH1 0x0 PUSH1 0x20 DUP3 ADD SWAP1 POP DUP2 DUP2 SUB PUSH1 0x0 DUP4 ADD MSTORE PUSH2 0x22CF DUP2 PUSH2 0x2293 JUMP JUMPDEST SWAP1 POP SWAP2 SWAP1 POP JUMP JUMPDEST PUSH32 0x6F6E65206E616D6520686173206120646966666572656E6365206F66203E3120 PUSH1 0x0 DUP3 ADD MSTORE PUSH32 0x6C6162656C20746F2077697468207468652073616D6520726F6F74206E616D65 PUSH1 0x20 DUP3 ADD MSTORE POP JUMP JUMPDEST PUSH1 0x0 PUSH2 0x2332 PUSH1 0x40 DUP4 PUSH2 0x1E23 JUMP JUMPDEST SWAP2 POP PUSH2 0x233D DUP3 PUSH2 0x22D6 JUMP JUMPDEST PUSH1 0x40 DUP3 ADD SWAP1 POP SWAP2 SWAP1 POP JUMP JUMPDEST PUSH1 0x0 PUSH1 0x20 DUP3 ADD SWAP1 POP DUP2 DUP2 SUB PUSH1 0x0 DUP4 ADD MSTORE PUSH2 0x2361 DUP2 PUSH2 0x2325 JUMP JUMPDEST SWAP1 POP SWAP2 SWAP1 POP JUMP JUMPDEST PUSH32 0x6F6E65206E616D6520686173206120646966666572656E6365206F66203E3120 PUSH1 0x0 DUP3 ADD MSTORE PUSH32 0x6C6162656C20746F207769746820646966666572656E7420726F6F74206E616D PUSH1 0x20 DUP3 ADD MSTORE PUSH32 0x6500000000000000000000000000000000000000000000000000000000000000 PUSH1 0x40 DUP3 ADD MSTORE POP JUMP JUMPDEST PUSH1 0x0 PUSH2 0x23EA PUSH1 0x41 DUP4 PUSH2 0x1E23 JUMP JUMPDEST SWAP2 POP PUSH2 0x23F5 DUP3 PUSH2 0x2368 JUMP JUMPDEST PUSH1 0x60 DUP3 ADD SWAP1 POP SWAP2 SWAP1 POP JUMP JUMPDEST PUSH1 0x0 PUSH1 0x20 DUP3 ADD SWAP1 POP DUP2 DUP2 SUB PUSH1 0x0 DUP4 ADD MSTORE PUSH2 0x2419 DUP2 PUSH2 0x23DD JUMP JUMPDEST SWAP1 POP SWAP2 SWAP1 POP JUMP JUMPDEST PUSH32 0x74776F206E616D6573207374617274207468652073616D652062757420686176 PUSH1 0x0 DUP3 ADD MSTORE PUSH32 0x6520646966666572656E63657320696E206C61746572206C6162656C73000000 PUSH1 0x20 DUP3 ADD MSTORE POP JUMP JUMPDEST PUSH1 0x0 PUSH2 0x247C PUSH1 0x3D DUP4 PUSH2 0x1E23 JUMP JUMPDEST SWAP2 POP PUSH2 0x2487 DUP3 PUSH2 0x2420 JUMP JUMPDEST PUSH1 0x40 DUP3 ADD SWAP1 POP SWAP2 SWAP1 POP JUMP JUMPDEST PUSH1 0x0 PUSH1 0x20 DUP3 ADD SWAP1 POP DUP2 DUP2 SUB PUSH1 0x0 DUP4 ADD MSTORE PUSH2 0x24AB DUP2 PUSH2 0x246F JUMP JUMPDEST SWAP1 POP SWAP2 SWAP1 POP JUMP JUMPDEST PUSH32 0x746865206669727374206C6162656C20736F727473206C617465722C20627574 PUSH1 0x0 DUP3 ADD MSTORE PUSH32 0x20746865206669727374206C6162656C20736F727473206561726C6965720000 PUSH1 0x20 DUP3 ADD MSTORE POP JUMP JUMPDEST PUSH1 0x0 PUSH2 0x250E PUSH1 0x3E DUP4 PUSH2 0x1E23 JUMP JUMPDEST SWAP2 POP PUSH2 0x2519 DUP3 PUSH2 0x24B2 JUMP JUMPDEST PUSH1 0x40 DUP3 ADD SWAP1 POP SWAP2 SWAP1 POP JUMP JUMPDEST PUSH1 0x0 PUSH1 0x20 DUP3 ADD SWAP1 POP DUP2 DUP2 SUB PUSH1 0x0 DUP4 ADD MSTORE PUSH2 0x253D DUP2 PUSH2 0x2501 JUMP JUMPDEST SWAP1 POP SWAP2 SWAP1 POP JUMP JUMPDEST PUSH32 0x74776F206E616D657320776865726520746865206669727374206C6162656C20 PUSH1 0x0 DUP3 ADD MSTORE PUSH32 0x6F6E206F6E65206973206120707265666978206F662074686520666972737420 PUSH1 0x20 DUP3 ADD MSTORE PUSH32 0x6C6162656C206F6E20746865206F746865720000000000000000000000000000 PUSH1 0x40 DUP3 ADD MSTORE POP JUMP JUMPDEST PUSH1 0x0 PUSH2 0x25C6 PUSH1 0x52 DUP4 PUSH2 0x1E23 JUMP JUMPDEST SWAP2 POP PUSH2 0x25D1 DUP3 PUSH2 0x2544 JUMP JUMPDEST PUSH1 0x60 DUP3 ADD SWAP1 POP SWAP2 SWAP1 POP JUMP JUMPDEST PUSH1 0x0 PUSH1 0x20 DUP3 ADD SWAP1 POP DUP2 DUP2 SUB PUSH1 0x0 DUP4 ADD MSTORE PUSH2 0x25F5 DUP2 PUSH2 0x25B9 JUMP JUMPDEST SWAP1 POP SWAP2 SWAP1 POP JUMP JUMPDEST PUSH32 0x78797A20636F6D6573206265666F7265206574684C61622E78797A0000000000 PUSH1 0x0 DUP3 ADD MSTORE POP JUMP JUMPDEST PUSH1 0x0 PUSH2 0x2632 PUSH1 0x1B DUP4 PUSH2 0x1E23 JUMP JUMPDEST SWAP2 POP PUSH2 0x263D DUP3 PUSH2 0x25FC JUMP JUMPDEST PUSH1 0x20 DUP3 ADD SWAP1 POP SWAP2 SWAP1 POP JUMP JUMPDEST PUSH1 0x0 PUSH1 0x20 DUP3 ADD SWAP1 POP DUP2 DUP2 SUB PUSH1 0x0 DUP4 ADD MSTORE PUSH2 0x2661 DUP2 PUSH2 0x2625 JUMP JUMPDEST SWAP1 POP SWAP2 SWAP1 POP JUMP JUMPDEST PUSH32 0x6274684C61622E78797A20636F6D6573206265666F7265206574684C61622E78 PUSH1 0x0 DUP3 ADD MSTORE PUSH32 0x797A000000000000000000000000000000000000000000000000000000000000 PUSH1 0x20 DUP3 ADD MSTORE POP JUMP JUMPDEST PUSH1 0x0 PUSH2 0x26C4 PUSH1 0x22 DUP4 PUSH2 0x1E23 JUMP JUMPDEST SWAP2 POP PUSH2 0x26CF DUP3 PUSH2 0x2668 JUMP JUMPDEST PUSH1 0x40 DUP3 ADD SWAP1 POP SWAP2 SWAP1 POP JUMP JUMPDEST PUSH1 0x0 PUSH1 0x20 DUP3 ADD SWAP1 POP DUP2 DUP2 SUB PUSH1 0x0 DUP4 ADD MSTORE PUSH2 0x26F3 DUP2 PUSH2 0x26B7 JUMP JUMPDEST SWAP1 POP SWAP2 SWAP1 POP JUMP JUMPDEST PUSH32 0x6274684C61622E78797A20616E64206274684C61622E78797A20617265207468 PUSH1 0x0 DUP3 ADD MSTORE PUSH32 0x652073616D650000000000000000000000000000000000000000000000000000 PUSH1 0x20 DUP3 ADD MSTORE POP JUMP JUMPDEST PUSH1 0x0 PUSH2 0x2756 PUSH1 0x26 DUP4 PUSH2 0x1E23 JUMP JUMPDEST SWAP2 POP PUSH2 0x2761 DUP3 PUSH2 0x26FA JUMP JUMPDEST PUSH1 0x40 DUP3 ADD SWAP1 POP SWAP2 SWAP1 POP JUMP JUMPDEST PUSH1 0x0 PUSH1 0x20 DUP3 ADD SWAP1 POP DUP2 DUP2 SUB PUSH1 0x0 DUP4 ADD MSTORE PUSH2 0x2785 DUP2 PUSH2 0x2749 JUMP JUMPDEST SWAP1 POP SWAP2 SWAP1 POP JUMP JUMPDEST PUSH32 0x6574684C61622E78797A20636F6D657320616674657220626574684C61622E78 PUSH1 0x0 DUP3 ADD MSTORE PUSH32 0x797A000000000000000000000000000000000000000000000000000000000000 PUSH1 0x20 DUP3 ADD MSTORE POP JUMP JUMPDEST PUSH1 0x0 PUSH2 0x27E8 PUSH1 0x22 DUP4 PUSH2 0x1E23 JUMP JUMPDEST SWAP2 POP PUSH2 0x27F3 DUP3 PUSH2 0x278C JUMP JUMPDEST PUSH1 0x40 DUP3 ADD SWAP1 POP SWAP2 SWAP1 POP JUMP JUMPDEST PUSH1 0x0 PUSH1 0x20 DUP3 ADD SWAP1 POP DUP2 DUP2 SUB PUSH1 0x0 DUP4 ADD MSTORE PUSH2 0x2817 DUP2 PUSH2 0x27DB JUMP JUMPDEST SWAP1 POP SWAP2 SWAP1 POP JUMP JUMPDEST PUSH32 0x6274684C61622E78797A20636F6D65732061667465722078797A000000000000 PUSH1 0x0 DUP3 ADD MSTORE POP JUMP JUMPDEST PUSH1 0x0 PUSH2 0x2854 PUSH1 0x1A DUP4 PUSH2 0x1E23 JUMP JUMPDEST SWAP2 POP PUSH2 0x285F DUP3 PUSH2 0x281E JUMP JUMPDEST PUSH1 0x20 DUP3 ADD SWAP1 POP SWAP2 SWAP1 POP JUMP JUMPDEST PUSH1 0x0 PUSH1 0x20 DUP3 ADD SWAP1 POP DUP2 DUP2 SUB PUSH1 0x0 DUP4 ADD MSTORE PUSH2 0x2883 DUP2 PUSH2 0x2847 JUMP JUMPDEST SWAP1 POP SWAP2 SWAP1 POP JUMP JUMPDEST PUSH32 0x6C6F6E67612E766C6F6E672E65746820636F6D6573206166746572206C6F6E67 PUSH1 0x0 DUP3 ADD MSTORE PUSH32 0x2E766C6F6E672E65746800000000000000000000000000000000000000000000 PUSH1 0x20 DUP3 ADD MSTORE POP JUMP JUMPDEST PUSH1 0x0 PUSH2 0x28E6 PUSH1 0x2A DUP4 PUSH2 0x1E23 JUMP JUMPDEST SWAP2 POP PUSH2 0x28F1 DUP3 PUSH2 0x288A JUMP JUMPDEST PUSH1 0x40 DUP3 ADD SWAP1 POP SWAP2 SWAP1 POP JUMP JUMPDEST PUSH1 0x0 PUSH1 0x20 DUP3 ADD SWAP1 POP DUP2 DUP2 SUB PUSH1 0x0 DUP4 ADD MSTORE PUSH2 0x2915 DUP2 PUSH2 0x28D9 JUMP JUMPDEST SWAP1 POP SWAP2 SWAP1 POP JUMP JUMPDEST PUSH32 0x31203E3D20300000000000000000000000000000000000000000000000000000 PUSH1 0x0 DUP3 ADD MSTORE POP JUMP JUMPDEST PUSH1 0x0 PUSH2 0x2952 PUSH1 0x6 DUP4 PUSH2 0x1E23 JUMP JUMPDEST SWAP2 POP PUSH2 0x295D DUP3 PUSH2 0x291C JUMP JUMPDEST PUSH1 0x20 DUP3 ADD SWAP1 POP SWAP2 SWAP1 POP JUMP JUMPDEST PUSH1 0x0 PUSH1 0x20 DUP3 ADD SWAP1 POP DUP2 DUP2 SUB PUSH1 0x0 DUP4 ADD MSTORE PUSH2 0x2981 DUP2 PUSH2 0x2945 JUMP JUMPDEST SWAP1 POP SWAP2 SWAP1 POP JUMP JUMPDEST PUSH32 0x212830203C3D2031290000000000000000000000000000000000000000000000 PUSH1 0x0 DUP3 ADD MSTORE POP JUMP JUMPDEST PUSH1 0x0 PUSH2 0x29BE PUSH1 0x9 DUP4 PUSH2 0x1E23 JUMP JUMPDEST SWAP2 POP PUSH2 0x29C9 DUP3 PUSH2 0x2988 JUMP JUMPDEST PUSH1 0x20 DUP3 ADD SWAP1 POP SWAP2 SWAP1 POP JUMP JUMPDEST PUSH1 0x0 PUSH1 0x20 DUP3 ADD SWAP1 POP DUP2 DUP2 SUB PUSH1 0x0 DUP4 ADD MSTORE PUSH2 0x29ED DUP2 PUSH2 0x29B1 JUMP JUMPDEST SWAP1 POP SWAP2 SWAP1 POP JUMP JUMPDEST PUSH32 0x30203E3D20307846464646464646460000000000000000000000000000000000 PUSH1 0x0 DUP3 ADD MSTORE POP JUMP JUMPDEST PUSH1 0x0 PUSH2 0x2A2A PUSH1 0xF DUP4 PUSH2 0x1E23 JUMP JUMPDEST SWAP2 POP PUSH2 0x2A35 DUP3 PUSH2 0x29F4 JUMP JUMPDEST PUSH1 0x20 DUP3 ADD SWAP1 POP SWAP2 SWAP1 POP JUMP JUMPDEST PUSH1 0x0 PUSH1 0x20 DUP3 ADD SWAP1 POP DUP2 DUP2 SUB PUSH1 0x0 DUP4 ADD MSTORE PUSH2 0x2A59 DUP2 PUSH2 0x2A1D JUMP JUMPDEST SWAP1 POP SWAP2 SWAP1 POP JUMP JUMPDEST PUSH32 0x212830203C3D2030784646464646464646290000000000000000000000000000 PUSH1 0x0 DUP3 ADD MSTORE POP JUMP JUMPDEST PUSH1 0x0 PUSH2 0x2A96 PUSH1 0x12 DUP4 PUSH2 0x1E23 JUMP JUMPDEST SWAP2 POP PUSH2 0x2AA1 DUP3 PUSH2 0x2A60 JUMP JUMPDEST PUSH1 0x20 DUP3 ADD SWAP1 POP SWAP2 SWAP1 POP JUMP JUMPDEST PUSH1 0x0 PUSH1 0x20 DUP3 ADD SWAP1 POP DUP2 DUP2 SUB PUSH1 0x0 DUP4 ADD MSTORE PUSH2 0x2AC5 DUP2 PUSH2 0x2A89 JUMP JUMPDEST SWAP1 POP SWAP2 SWAP1 POP JUMP JUMPDEST PUSH32 0x30783131313131313131203E3D20307841414141414141410000000000000000 PUSH1 0x0 DUP3 ADD MSTORE POP JUMP JUMPDEST PUSH1 0x0 PUSH2 0x2B02 PUSH1 0x18 DUP4 PUSH2 0x1E23 JUMP JUMPDEST SWAP2 POP PUSH2 0x2B0D DUP3 PUSH2 0x2ACC JUMP JUMPDEST PUSH1 0x20 DUP3 ADD SWAP1 POP SWAP2 SWAP1 POP JUMP JUMPDEST PUSH1 0x0 PUSH1 0x20 DUP3 ADD SWAP1 POP DUP2 DUP2 SUB PUSH1 0x0 DUP4 ADD MSTORE PUSH2 0x2B31 DUP2 PUSH2 0x2AF5 JUMP JUMPDEST SWAP1 POP SWAP2 SWAP1 POP JUMP JUMPDEST PUSH32 0x31203E3D20310000000000000000000000000000000000000000000000000000 PUSH1 0x0 DUP3 ADD MSTORE POP JUMP JUMPDEST PUSH1 0x0 PUSH2 0x2B6E PUSH1 0x6 DUP4 PUSH2 0x1E23 JUMP JUMPDEST SWAP2 POP PUSH2 0x2B79 DUP3 PUSH2 0x2B38 JUMP JUMPDEST PUSH1 0x20 DUP3 ADD SWAP1 POP SWAP2 SWAP1 POP JUMP JUMPDEST PUSH1 0x0 PUSH1 0x20 DUP3 ADD SWAP1 POP DUP2 DUP2 SUB PUSH1 0x0 DUP4 ADD MSTORE PUSH2 0x2B9D DUP2 PUSH2 0x2B61 JUMP JUMPDEST SWAP1 POP SWAP2 SWAP1 POP JUMP JUMPDEST PUSH32 0x496E76616C6964206B6579746167000000000000000000000000000000000000 PUSH1 0x0 DUP3 ADD MSTORE POP JUMP JUMPDEST PUSH1 0x0 PUSH2 0x2BDA PUSH1 0xE DUP4 PUSH2 0x1E23 JUMP JUMPDEST SWAP2 POP PUSH2 0x2BE5 DUP3 PUSH2 0x2BA4 JUMP JUMPDEST PUSH1 0x20 DUP3 ADD SWAP1 POP SWAP2 SWAP1 POP JUMP JUMPDEST PUSH1 0x0 PUSH1 0x20 DUP3 ADD SWAP1 POP DUP2 DUP2 SUB PUSH1 0x0 DUP4 ADD MSTORE PUSH2 0x2C09 DUP2 PUSH2 0x2BCD JUMP JUMPDEST SWAP1 POP SWAP2 SWAP1 POP JUMP JUMPDEST PUSH32 0x496E76616C6964206B6579746167202832290000000000000000000000000000 PUSH1 0x0 DUP3 ADD MSTORE POP JUMP JUMPDEST PUSH1 0x0 PUSH2 0x2C46 PUSH1 0x12 DUP4 PUSH2 0x1E23 JUMP JUMPDEST SWAP2 POP PUSH2 0x2C51 DUP3 PUSH2 0x2C10 JUMP JUMPDEST PUSH1 0x20 DUP3 ADD SWAP1 POP SWAP2 SWAP1 POP JUMP JUMPDEST PUSH1 0x0 PUSH1 0x20 DUP3 ADD SWAP1 POP DUP2 DUP2 SUB PUSH1 0x0 DUP4 ADD MSTORE PUSH2 0x2C75 DUP2 PUSH2 0x2C39 JUMP JUMPDEST SWAP1 POP SWAP2 SWAP1 POP JUMP JUMPDEST PUSH32 0x496E76616C6964206B6579746167202833290000000000000000000000000000 PUSH1 0x0 DUP3 ADD MSTORE POP JUMP JUMPDEST PUSH1 0x0 PUSH2 0x2CB2 PUSH1 0x12 DUP4 PUSH2 0x1E23 JUMP JUMPDEST SWAP2 POP PUSH2 0x2CBD DUP3 PUSH2 0x2C7C JUMP JUMPDEST PUSH1 0x20 DUP3 ADD SWAP1 POP SWAP2 SWAP1 POP JUMP JUMPDEST PUSH1 0x0 PUSH1 0x20 DUP3 ADD SWAP1 POP DUP2 DUP2 SUB PUSH1 0x0 DUP4 ADD MSTORE PUSH2 0x2CE1 DUP2 PUSH2 0x2CA5 JUMP JUMPDEST SWAP1 POP SWAP2 SWAP1 POP JUMP JUMPDEST PUSH32 0x6C6162656C436F756E7428272E2729203D3D2030000000000000000000000000 PUSH1 0x0 DUP3 ADD MSTORE POP JUMP JUMPDEST PUSH1 0x0 PUSH2 0x2D1E PUSH1 0x14 DUP4 PUSH2 0x1E23 JUMP JUMPDEST SWAP2 POP PUSH2 0x2D29 DUP3 PUSH2 0x2CE8 JUMP JUMPDEST PUSH1 0x20 DUP3 ADD SWAP1 POP SWAP2 SWAP1 POP JUMP JUMPDEST PUSH1 0x0 PUSH1 0x20 DUP3 ADD SWAP1 POP DUP2 DUP2 SUB PUSH1 0x0 DUP4 ADD MSTORE PUSH2 0x2D4D DUP2 PUSH2 0x2D11 JUMP JUMPDEST SWAP1 POP SWAP2 SWAP1 POP JUMP JUMPDEST PUSH32 0x6C6162656C436F756E742827612E2729203D3D20310000000000000000000000 PUSH1 0x0 DUP3 ADD MSTORE POP JUMP JUMPDEST PUSH1 0x0 PUSH2 0x2D8A PUSH1 0x15 DUP4 PUSH2 0x1E23 JUMP JUMPDEST SWAP2 POP PUSH2 0x2D95 DUP3 PUSH2 0x2D54 JUMP JUMPDEST PUSH1 0x20 DUP3 ADD SWAP1 POP SWAP2 SWAP1 POP JUMP JUMPDEST PUSH1 0x0 PUSH1 0x20 DUP3 ADD SWAP1 POP DUP2 DUP2 SUB PUSH1 0x0 DUP4 ADD MSTORE PUSH2 0x2DB9 DUP2 PUSH2 0x2D7D JUMP JUMPDEST SWAP1 POP SWAP2 SWAP1 POP JUMP JUMPDEST PUSH32 0x6C6162656C436F756E742827622E612E2729203D3D2032000000000000000000 PUSH1 0x0 DUP3 ADD MSTORE POP JUMP JUMPDEST PUSH1 0x0 PUSH2 0x2DF6 PUSH1 0x17 DUP4 PUSH2 0x1E23 JUMP JUMPDEST SWAP2 POP PUSH2 0x2E01 DUP3 PUSH2 0x2DC0 JUMP JUMPDEST PUSH1 0x20 DUP3 ADD SWAP1 POP SWAP2 SWAP1 POP JUMP JUMPDEST PUSH1 0x0 PUSH1 0x20 DUP3 ADD SWAP1 POP DUP2 DUP2 SUB PUSH1 0x0 DUP4 ADD MSTORE PUSH2 0x2E25 DUP2 PUSH2 0x2DE9 JUMP JUMPDEST SWAP1 POP SWAP2 SWAP1 POP JUMP JUMPDEST PUSH32 0x6E616D654C656E6774682827286274686C6162292E78797A2E2729203D3D2036 PUSH1 0x0 DUP3 ADD MSTORE POP JUMP JUMPDEST PUSH1 0x0 PUSH2 0x2E62 PUSH1 0x20 DUP4 PUSH2 0x1E23 JUMP JUMPDEST SWAP2 POP PUSH2 0x2E6D DUP3 PUSH2 0x2E2C JUMP JUMPDEST PUSH1 0x20 DUP3 ADD SWAP1 POP SWAP2 SWAP1 POP JUMP JUMPDEST PUSH1 0x0 PUSH1 0x20 DUP3 ADD SWAP1 POP DUP2 DUP2 SUB PUSH1 0x0 DUP4 ADD MSTORE PUSH2 0x2E91 DUP2 PUSH2 0x2E55 JUMP JUMPDEST SWAP1 POP SWAP2 SWAP1 POP JUMP JUMPDEST PUSH32 0x4E487B7100000000000000000000000000000000000000000000000000000000 PUSH1 0x0 MSTORE PUSH1 0x1 PUSH1 0x4 MSTORE PUSH1 0x24 PUSH1 0x0 REVERT JUMPDEST PUSH1 0x0 PUSH2 0x2ED2 DUP3 PUSH2 0x2186 JUMP JUMPDEST SWAP2 POP PUSH2 0x2EDD DUP4 PUSH2 0x2186 JUMP JUMPDEST SWAP3 POP DUP3 DUP3 ADD SWAP1 POP DUP1 DUP3 GT ISZERO PUSH2 0x2EF5 JUMPI PUSH2 0x2EF4 PUSH2 0x2157 JUMP JUMPDEST JUMPDEST SWAP3 SWAP2 POP POP JUMP JUMPDEST PUSH1 0x0 PUSH2 0x2F06 DUP3 PUSH2 0x2186 JUMP JUMPDEST SWAP2 POP PUSH2 0x2F11 DUP4 PUSH2 0x2186 JUMP JUMPDEST SWAP3 POP DUP3 DUP3 SUB SWAP1 POP DUP2 DUP2 GT ISZERO PUSH2 0x2F29 JUMPI PUSH2 0x2F28 PUSH2 0x2157 JUMP JUMPDEST JUMPDEST SWAP3 SWAP2 POP POP JUMP JUMPDEST PUSH1 0x0 PUSH2 0x2F3A DUP3 PUSH2 0x2186 JUMP JUMPDEST SWAP2 POP PUSH1 0x0 DUP3 SUB PUSH2 0x2F4D JUMPI PUSH2 0x2F4C PUSH2 0x2157 JUMP JUMPDEST JUMPDEST PUSH1 0x1 DUP3 SUB SWAP1 POP SWAP2 SWAP1 POP JUMP JUMPDEST PUSH32 0x4C6F6E67206B657973206E6F74207065726D6974746564000000000000000000 PUSH1 0x0 DUP3 ADD MSTORE POP JUMP JUMPDEST PUSH1 0x0 PUSH2 0x2F8E PUSH1 0x17 DUP4 PUSH2 0x1E23 JUMP JUMPDEST SWAP2 POP PUSH2 0x2F99 DUP3 PUSH2 0x2F58 JUMP JUMPDEST PUSH1 0x20 DUP3 ADD SWAP1 POP SWAP2 SWAP1 POP JUMP JUMPDEST PUSH1 0x0 PUSH1 0x20 DUP3 ADD SWAP1 POP DUP2 DUP2 SUB PUSH1 0x0 DUP4 ADD MSTORE PUSH2 0x2FBD DUP2 PUSH2 0x2F81 JUMP JUMPDEST SWAP1 POP SWAP2 SWAP1 POP JUMP JUMPDEST PUSH32 0x4E487B7100000000000000000000000000000000000000000000000000000000 PUSH1 0x0 MSTORE PUSH1 0x41 PUSH1 0x4 MSTORE PUSH1 0x24 PUSH1 0x0 REVERT JUMPDEST PUSH2 0x2FFC DUP2 PUSH2 0x2186 JUMP JUMPDEST DUP3 MSTORE POP POP JUMP JUMPDEST PUSH1 0x0 PUSH1 0x40 DUP3 ADD SWAP1 POP PUSH2 0x3017 PUSH1 0x0 DUP4 ADD DUP6 PUSH2 0x2FF3 JUMP JUMPDEST PUSH2 0x3024 PUSH1 0x20 DUP4 ADD DUP5 PUSH2 0x2FF3 JUMP JUMPDEST SWAP4 SWAP3 POP POP POP JUMP JUMPDEST PUSH1 0x0 PUSH2 0x3036 DUP3 PUSH2 0x2186 JUMP JUMPDEST SWAP2 POP PUSH2 0x3041 DUP4 PUSH2 0x2186 JUMP JUMPDEST SWAP3 POP DUP3 DUP3 MUL PUSH2 0x304F DUP2 PUSH2 0x2186 JUMP JUMPDEST SWAP2 POP DUP3 DUP3 DIV DUP5 EQ DUP4 ISZERO OR PUSH2 0x3066 JUMPI PUSH2 0x3065 PUSH2 0x2157 JUMP JUMPDEST JUMPDEST POP SWAP3 SWAP2 POP POP JUMP JUMPDEST PUSH1 0x0 DUP2 PUSH1 0x1 SHR SWAP1 POP SWAP2 SWAP1 POP JUMP JUMPDEST PUSH1 0x0 DUP1 DUP3 SWAP2 POP DUP4 SWAP1 POP JUMPDEST PUSH1 0x1 DUP6 GT ISZERO PUSH2 0x30C4 JUMPI DUP1 DUP7 DIV DUP2 GT ISZERO PUSH2 0x30A0 JUMPI PUSH2 0x309F PUSH2 0x2157 JUMP JUMPDEST JUMPDEST PUSH1 0x1 DUP6 AND ISZERO PUSH2 0x30AF JUMPI DUP1 DUP3 MUL SWAP2 POP JUMPDEST DUP1 DUP2 MUL SWAP1 POP PUSH2 0x30BD DUP6 PUSH2 0x306D JUMP JUMPDEST SWAP5 POP PUSH2 0x3084 JUMP JUMPDEST SWAP5 POP SWAP5 SWAP3 POP POP POP JUMP JUMPDEST PUSH1 0x0 DUP3 PUSH2 0x30DD JUMPI PUSH1 0x1 SWAP1 POP PUSH2 0x3199 JUMP JUMPDEST DUP2 PUSH2 0x30EB JUMPI PUSH1 0x0 SWAP1 POP PUSH2 0x3199 JUMP JUMPDEST DUP2 PUSH1 0x1 DUP2 EQ PUSH2 0x3101 JUMPI PUSH1 0x2 DUP2 EQ PUSH2 0x310B JUMPI PUSH2 0x313A JUMP JUMPDEST PUSH1 0x1 SWAP2 POP POP PUSH2 0x3199 JUMP JUMPDEST PUSH1 0xFF DUP5 GT ISZERO PUSH2 0x311D JUMPI PUSH2 0x311C PUSH2 0x2157 JUMP JUMPDEST JUMPDEST DUP4 PUSH1 0x2 EXP SWAP2 POP DUP5 DUP3 GT ISZERO PUSH2 0x3134 JUMPI PUSH2 0x3133 PUSH2 0x2157 JUMP JUMPDEST JUMPDEST POP PUSH2 0x3199 JUMP JUMPDEST POP PUSH1 0x20 DUP4 LT PUSH2 0x133 DUP4 LT AND PUSH1 0x4E DUP5 LT PUSH1 0xB DUP5 LT AND OR ISZERO PUSH2 0x316F JUMPI DUP3 DUP3 EXP SWAP1 POP DUP4 DUP2 GT ISZERO PUSH2 0x316A JUMPI PUSH2 0x3169 PUSH2 0x2157 JUMP JUMPDEST JUMPDEST PUSH2 0x3199 JUMP JUMPDEST PUSH2 0x317C DUP5 DUP5 DUP5 PUSH1 0x1 PUSH2 0x307A JUMP JUMPDEST SWAP3 POP SWAP1 POP DUP2 DUP5 DIV DUP2 GT ISZERO PUSH2 0x3193 JUMPI PUSH2 0x3192 PUSH2 0x2157 JUMP JUMPDEST JUMPDEST DUP2 DUP2 MUL SWAP1 POP JUMPDEST SWAP4 SWAP3 POP POP POP JUMP JUMPDEST PUSH1 0x0 PUSH2 0x31AB DUP3 PUSH2 0x2186 JUMP JUMPDEST SWAP2 POP PUSH2 0x31B6 DUP4 PUSH2 0x2186 JUMP JUMPDEST SWAP3 POP PUSH2 0x31E3 PUSH32 0xFFFFFFFFFFFFFFFFFFFFFFFFFFFFFFFFFFFFFFFFFFFFFFFFFFFFFFFFFFFFFFFF DUP5 DUP5 PUSH2 0x30CD JUMP JUMPDEST SWAP1 POP SWAP3 SWAP2 POP POP JUMP JUMPDEST PUSH1 0x0 DUP2 SWAP1 POP SWAP2 SWAP1 POP JUMP JUMPDEST PUSH1 0x0 PUSH2 0x3200 DUP3 PUSH2 0x31EB JUMP JUMPDEST SWAP2 POP PUSH2 0x320B DUP4 PUSH2 0x31EB JUMP JUMPDEST SWAP3 POP DUP3 DUP3 SUB SWAP1 POP DUP2 DUP2 SLT PUSH1 0x0 DUP5 SLT AND DUP3 DUP3 SGT PUSH1 0x0 DUP6 SLT ISZERO AND OR ISZERO PUSH2 0x3232 JUMPI PUSH2 0x3231 PUSH2 0x2157 JUMP JUMPDEST JUMPDEST SWAP3 SWAP2 POP POP JUMP INVALID ADD ADD SUB ADDMOD SUB ADD STOP ADD 0xA8 STOP KECCAK256 0xA9 SSTORE PUSH7 0xBA42E886BB804C 0xDA DUP5 0xE4 PUSH31 0xF56DBD7AEC612615552CEC906D2116D0EF207028C51554144DFEAFE7C7CB8F STOP TSTORE 0xD1 DUP3 CALLVALUE SGT GASPRICE 0xC0 PUSH18 0xA81182CE1FD14AD2283BC83435F9DF2F631 ORIGIN MLOAD SWAP4 BYTE OR PUSH14 0xF0DA51E54F42E604860DFB359580 0x25 0xF SSTORE SWAP13 0xC5 NUMBER 0xC4 SELFDESTRUCT 0xD5 SHR 0xBE RETURNDATASIZE 0xE8 0xCF 0xD0 PUSH8 0x19237F9FC47EE729 0xDA MOD DUP4 PUSH0 LOG4 MSTORE 0xE8 0x25 0xE9 LOG1 DUP15 0xBC 0x2E 0xCB 0xCF JUMP CALLVALUE PUSH21 0x652C33CF56A9033BCDF5D973121797EC8089041B6E SUB LOG1 0xB7 0x2D EXP PUSH20 0x5B984E03687309332324F27C2DBA85E9DB15E83A ADD NUMBER CODESIZE 0x2E SWAP8 0x4B MOD 0x21 0xC1 DUP15 PUSH3 0x5ECEC9 SMOD JUMPI PUSH30 0x9E7BADE95241A81EBBE8A901D4D3276E40B114C0A2E6FC38D19C2E6AAB02 PUSH5 0x4B2813F575 0xFC 0x21 PUSH1 0x1E 0xD 0xEE BLOBHASH 0xCD SWAP15 0xE9 PUSH11 0x43103E524D62873D010103 ADDMOD SUB ADD STOP ADD 0xAC SELFDESTRUCT 0xB4 MULMOD 0xBC 0xC9 CODECOPY 0xF8 BALANCE 0xF7 LOG1 0xE5 0xEC DUP9 0xF7 0xA5 SWAP3 SSTORE 0xEC MSTORE8 DIV SIGNEXTEND 0xE4 ORIGIN MUL PUSH20 0x90A4CE896D6F9086F3C5E177FBFE118163AAEC7A CALL CHAINID 0x2C SELFBALANCE SWAP5 MSIZE PREVRANDAO 0xC4 0xE2 0xC0 0x26 0xBE MCOPY SWAP9 0xBB 0xCD 0xED 0x25 SWAP8 DUP3 PUSH19 0xE1E3E079C5094D573F0E83C92F02B32D3513B1 SSTORE SIGNEXTEND DUP3 PUSH10 0x29C80DD0F92CAC966D17 PUSH23 0x9FD5867B647C3F38029ABDC48152EB8F207159ECC5D232 0xC7 0xC1 MSTORE8 PUSH29 0x79F4B7AC28FF11682F21681BF6D6ABA555032BF6F9F036BEB2AAA5B377 DUP14 PUSH15 0xEBFBA6BF9EA191BE4AB0CAEA759E2F PUSH24 0x3A1F9029C73ECB8D5735B9321DB085F1B8E2D8038FE29419 SWAP3 SLOAD DUP13 0xEE 0xD PUSH8 0xDD4547E11DD63AF9 0xC9 0xFC SHR SLOAD PUSH7 0xFB684CF009D719 PUSH29 0x2CF79E792AB501E6A8A1CA519AF2CB9B5F6367E94C0D47502451357BE1 0xB5 ADD PUSH2 0x0 ADD STOP ADD STOP STOP 0xE LT STOP DIV PUSH21 0x101620161000001000100000E100004C0A801 ADD ADD STOP SUB SDIV SUB ADD STOP ADD 0xBF 0xA5 0x4C CODESIZE 0xD9 MULMOD STATICCALL 0xBB 0xF SWAP4 PUSH30 0x70D775BA0DF4C0BADB09707D995249406950407A621C794C68B186B15DBF DUP16 SWAP16 SWAP15 LOG2 BALANCE 0xE9 0xF9 PUSH5 0x14CCDA4ECE 0xB5 SIGNEXTEND OR 0xA9 0xAC PUSH13 0x4BD4B95DA04849E96EE791578B PUSH17 0x3BC9AE184FB1794BAC792A0787F693A40F NOT CREATE2 0x23 0xEE PUSH14 0xBD3599DBAAA9A50437926ECF6438 DUP5 TSTORE SAR BLOBHASH PREVRANDAO DUP10 PUSH3 0x524F2A BYTE PUSH27 0x36B3A0A1ECA3010003050440000003BA2FA05A75E173BEDE89EB71 DUP4 BYTE 0xB1 BLOCKHASH CALLDATALOAD CALLCODE BLOCKHASH DUP11 0xD0 SWAP14 DELEGATECALL 0xD8 0xDC DUP16 DUP16 PUSH19 0xE8F13506FEADDF7B04CB14958B82966E342056 0x23 MUL 0xC4 STOP 0x2B 0xC4 REVERT ADDMOD DUP5 ORIGIN 0xE1 PUSH1 0x51 SWAP12 0xB1 0x4D 0xAE DUP3 PREVRANDAO CODESIZE POP 0xC1 TIMESTAMP RETURNDATACOPY MOD ADDMOD JUMPI LT 0xB5 0xCA CREATE PUSH17 0xD46B7BA7E481414F6A5FE225FDCA984C95 SWAP1 SWAP2 PUSH5 0x5D0CF1C9A1 LOG3 SGT 0xD7 0xE7 0xFB PUSH28 0xA60B967B71A65F8CEF2C3768E11B081C8FCF21303132333435363738 CODECOPY ADDRESS BALANCE ORIGIN CALLER CALLVALUE CALLDATALOAD CALLDATASIZE CALLDATACOPY CODESIZE CODECOPY ADDRESS BALANCE ORIGIN CALLER CALLVALUE CALLDATALOAD CALLDATASIZE CALLDATACOPY CODESIZE CODECOPY ADDRESS BALANCE PUSH2 0x3130 BALANCE ORIGIN CALLER CALLVALUE CALLDATALOAD CALLDATASIZE CALLDATACOPY CODESIZE CODECOPY ADDRESS BALANCE ORIGIN CALLER CALLVALUE CALLDATALOAD CALLDATASIZE CALLDATACOPY CODESIZE CODECOPY ADDRESS BALANCE ORIGIN CALLER CALLVALUE CALLDATALOAD CALLDATASIZE CALLDATACOPY CODESIZE CODECOPY ADDRESS BALANCE ORIGIN CALLER CALLVALUE CALLDATALOAD CALLDATASIZE CALLDATACOPY CODESIZE CODECOPY ADDRESS BALANCE ORIGIN CALLER CALLVALUE CALLDATALOAD CALLDATASIZE CALLDATACOPY CODESIZE SUB PUSH6 0x746800223031 ORIGIN CALLER CALLVALUE CALLDATALOAD CALLDATASIZE CALLDATACOPY CODESIZE CODECOPY ADDRESS BALANCE ORIGIN CALLER CALLVALUE CALLDATALOAD CALLDATASIZE CALLDATACOPY CODESIZE CODECOPY ADDRESS BALANCE ORIGIN CALLER CALLVALUE CALLDATALOAD CALLDATASIZE CALLDATACOPY CODESIZE CODECOPY ADDRESS BALANCE PUSH2 0x3031 ADDRESS BALANCE ORIGIN CALLER CALLVALUE CALLDATALOAD CALLDATASIZE CALLDATACOPY CODESIZE CODECOPY ADDRESS BALANCE ORIGIN CALLER CALLVALUE CALLDATALOAD CALLDATASIZE CALLDATACOPY CODESIZE CODECOPY ADDRESS BALANCE ORIGIN CALLER CALLVALUE CALLDATALOAD CALLDATASIZE CALLDATACOPY CODESIZE CODECOPY ADDRESS BALANCE ORIGIN CALLER CALLVALUE CALLDATALOAD CALLDATASIZE CALLDATACOPY CODESIZE CODECOPY ADDRESS BALANCE ORIGIN CALLER CALLVALUE CALLDATALOAD CALLDATASIZE CALLDATACOPY CODESIZE SUB PUSH6 0x746800A26469 PUSH17 0x6673582212203C5B35F74811FDA2328F0B SGT LT CREATE2 SLT 0x25 SHL 0xCE PUSH30 0xDC3976B14B01EB2C08E829419164736F6C634300081B0033000000000000 "
		},
		"gasEstimates": {
			"creation": {
				"codeDepositCost": "2785200",
				"executionCost": "3038",
				"totalCost": "2788238"
			},
			"external": {
				"testCompareNames()": "infinite",
				"testIterateRRs()": "infinite",
				"testKeyTag()": "infinite",
				"testLabelCount()": "infinite",
				"testNameLength()": "infinite",
				"testSerialNumberGt()": "infinite"
			}
		},
		"methodIdentifiers": {
			"testCompareNames()": "976e62ac",
			"testIterateRRs()": "706fc4de",
			"testKeyTag()": "bb73daed",
			"testLabelCount()": "cc60617b",
			"testNameLength()": "0250cf9a",
			"testSerialNumberGt()": "9e4a090d"
		}
	},
	"abi": [
		{
			"inputs": [
				{
					"internalType": "uint256",
					"name": "offset",
					"type": "uint256"
				},
				{
					"internalType": "uint256",
					"name": "length",
					"type": "uint256"
				}
			],
			"name": "OffsetOutOfBoundsError",
			"type": "error"
		},
		{
			"inputs": [],
			"name": "testCompareNames",
			"outputs": [],
			"stateMutability": "pure",
			"type": "function"
		},
		{
			"inputs": [],
			"name": "testIterateRRs",
			"outputs": [],
			"stateMutability": "pure",
			"type": "function"
		},
		{
			"inputs": [],
			"name": "testKeyTag",
			"outputs": [],
			"stateMutability": "view",
			"type": "function"
		},
		{
			"inputs": [],
			"name": "testLabelCount",
			"outputs": [],
			"stateMutability": "pure",
			"type": "function"
		},
		{
			"inputs": [],
			"name": "testNameLength",
			"outputs": [],
			"stateMutability": "pure",
			"type": "function"
		},
		{
			"inputs": [],
			"name": "testSerialNumberGt",
			"outputs": [],
			"stateMutability": "pure",
			"type": "function"
		}
	]
}