{
	"package/contracts/utils/TestNameEncoder.sol": {
		"TestNameEncoder": {
			"abi": [
				{
					"inputs": [
						{
							"internalType": "string",
							"name": "name",
							"type": "string"
						}
					],
					"name": "encodeName",
					"outputs": [
						{
							"internalType": "bytes",
							"name": "",
							"type": "bytes"
						},
						{
							"internalType": "bytes32",
							"name": "",
							"type": "bytes32"
						}
					],
					"stateMutability": "pure",
					"type": "function"
				}
			],
			"devdoc": {
				"kind": "dev",
				"methods": {},
				"version": 1
			},
			"evm": {
				"assembly": "    /* \"package/contracts/utils/TestNameEncoder.sol\":106:292  contract TestNameEncoder {... */\n  mstore(0x40, 0x80)\n  callvalue\n  dup1\n  iszero\n  tag_1\n  jumpi\n  0x00\n  dup1\n  revert\ntag_1:\n  pop\n  dataSize(sub_0)\n  dup1\n  dataOffset(sub_0)\n  0x00\n  codecopy\n  0x00\n  return\nstop\n\nsub_0: assembly {\n        /* \"package/contracts/utils/TestNameEncoder.sol\":106:292  contract TestNameEncoder {... */\n      mstore(0x40, 0x80)\n      callvalue\n      dup1\n      iszero\n      tag_1\n      jumpi\n      0x00\n      dup1\n      revert\n    tag_1:\n      pop\n      jumpi(tag_2, lt(calldatasize, 0x04))\n      shr(0xe0, calldataload(0x00))\n      dup1\n      0x18d321ca\n      eq\n      tag_3\n      jumpi\n    tag_2:\n      0x00\n      dup1\n      revert\n        /* \"package/contracts/utils/TestNameEncoder.sol\":168:290  function encodeName(string memory name) public pure returns (bytes memory, bytes32) {... */\n    tag_3:\n      tag_4\n      0x04\n      dup1\n      calldatasize\n      sub\n      dup2\n      add\n      swap1\n      tag_5\n      swap2\n      swap1\n      tag_6\n      jump\t// in\n    tag_5:\n      tag_7\n      jump\t// in\n    tag_4:\n      mload(0x40)\n      tag_8\n      swap3\n      swap2\n      swap1\n      tag_9\n      jump\t// in\n    tag_8:\n      mload(0x40)\n      dup1\n      swap2\n      sub\n      swap1\n      return\n    tag_7:\n        /* \"package/contracts/utils/TestNameEncoder.sol\":229:241  bytes memory */\n      0x60\n        /* \"package/contracts/utils/TestNameEncoder.sol\":243:250  bytes32 */\n      0x00\n        /* \"package/contracts/utils/TestNameEncoder.sol\":265:285  name.dnsEncodeName() */\n      tag_11\n        /* \"package/contracts/utils/TestNameEncoder.sol\":265:269  name */\n      dup4\n        /* \"package/contracts/utils/TestNameEncoder.sol\":265:283  name.dnsEncodeName */\n      tag_12\n        /* \"package/contracts/utils/TestNameEncoder.sol\":265:285  name.dnsEncodeName() */\n      jump\t// in\n    tag_11:\n        /* \"package/contracts/utils/TestNameEncoder.sol\":258:285  return name.dnsEncodeName() */\n      swap2\n      pop\n      swap2\n      pop\n        /* \"package/contracts/utils/TestNameEncoder.sol\":168:290  function encodeName(string memory name) public pure returns (bytes memory, bytes32) {... */\n      swap2\n      pop\n      swap2\n      jump\t// out\n        /* \"package/contracts/utils/NameEncoder.sol\":166:1203  function dnsEncodeName(string memory name) internal pure returns (bytes memory dnsName, bytes32 node) {... */\n    tag_12:\n        /* \"package/contracts/utils/NameEncoder.sol\":232:252  bytes memory dnsName */\n      0x60\n        /* \"package/contracts/utils/NameEncoder.sol\":254:266  bytes32 node */\n      0x00\n        /* \"package/contracts/utils/NameEncoder.sol\":274:291  uint8 labelLength */\n      dup1\n        /* \"package/contracts/utils/NameEncoder.sol\":294:295  0 */\n      0x00\n        /* \"package/contracts/utils/NameEncoder.sol\":274:295  uint8 labelLength = 0 */\n      swap1\n      pop\n        /* \"package/contracts/utils/NameEncoder.sol\":301:323  bytes memory bytesName */\n      0x00\n        /* \"package/contracts/utils/NameEncoder.sol\":332:336  name */\n      dup5\n        /* \"package/contracts/utils/NameEncoder.sol\":301:337  bytes memory bytesName = bytes(name) */\n      swap1\n      pop\n        /* \"package/contracts/utils/NameEncoder.sol\":343:357  uint256 length */\n      0x00\n        /* \"package/contracts/utils/NameEncoder.sol\":360:369  bytesName */\n      dup2\n        /* \"package/contracts/utils/NameEncoder.sol\":360:376  bytesName.length */\n      mload\n        /* \"package/contracts/utils/NameEncoder.sol\":343:376  uint256 length = bytesName.length */\n      swap1\n      pop\n        /* \"package/contracts/utils/NameEncoder.sol\":411:412  2 */\n      0x02\n        /* \"package/contracts/utils/NameEncoder.sol\":402:408  length */\n      dup2\n        /* \"package/contracts/utils/NameEncoder.sol\":402:412  length + 2 */\n      tag_14\n      swap2\n      swap1\n      tag_15\n      jump\t// in\n    tag_14:\n        /* \"package/contracts/utils/NameEncoder.sol\":392:413  new bytes(length + 2) */\n      0xffffffffffffffff\n      dup2\n      gt\n      iszero\n      tag_16\n      jumpi\n      tag_17\n      tag_18\n      jump\t// in\n    tag_17:\n    tag_16:\n      mload(0x40)\n      swap1\n      dup1\n      dup3\n      mstore\n      dup1\n      0x1f\n      add\n      not(0x1f)\n      and\n      0x20\n      add\n      dup3\n      add\n      0x40\n      mstore\n      dup1\n      iszero\n      tag_19\n      jumpi\n      dup2\n      0x20\n      add\n      0x01\n      dup3\n      mul\n      dup1\n      calldatasize\n      dup4\n      calldatacopy\n      dup1\n      dup3\n      add\n      swap2\n      pop\n      pop\n      swap1\n      pop\n    tag_19:\n      pop\n        /* \"package/contracts/utils/NameEncoder.sol\":382:413  dnsName = new bytes(length + 2) */\n      swap5\n      pop\n        /* \"package/contracts/utils/NameEncoder.sol\":426:427  0 */\n      0x00\n        /* \"package/contracts/utils/NameEncoder.sol\":419:427  node = 0 */\n      dup1\n      shl\n      swap4\n      pop\n        /* \"package/contracts/utils/NameEncoder.sol\":447:448  0 */\n      0x00\n        /* \"package/contracts/utils/NameEncoder.sol\":437:443  length */\n      dup2\n        /* \"package/contracts/utils/NameEncoder.sol\":437:448  length == 0 */\n      sub\n        /* \"package/contracts/utils/NameEncoder.sol\":433:509  if (length == 0) {... */\n      tag_20\n      jumpi\n        /* \"package/contracts/utils/NameEncoder.sol\":471:472  0 */\n      0x00\n        /* \"package/contracts/utils/NameEncoder.sol\":458:472  dnsName[0] = 0 */\n      0xf8\n      shl\n        /* \"package/contracts/utils/NameEncoder.sol\":458:465  dnsName */\n      dup6\n        /* \"package/contracts/utils/NameEncoder.sol\":466:467  0 */\n      0x00\n        /* \"package/contracts/utils/NameEncoder.sol\":458:468  dnsName[0] */\n      dup2\n      mload\n      dup2\n      lt\n      tag_21\n      jumpi\n      tag_22\n      tag_23\n      jump\t// in\n    tag_22:\n    tag_21:\n      0x20\n      add\n      add\n        /* \"package/contracts/utils/NameEncoder.sol\":458:472  dnsName[0] = 0 */\n      swap1\n      not(0xffffffffffffffffffffffffffffffffffffffffffffffffffffffffffffff)\n      and\n      swap1\n      dup2\n      0x00\n      byte\n      swap1\n      mstore8\n      pop\n        /* \"package/contracts/utils/NameEncoder.sol\":480:502  return (dnsName, node) */\n      pop\n      pop\n      pop\n      jump(tag_13)\n        /* \"package/contracts/utils/NameEncoder.sol\":433:509  if (length == 0) {... */\n    tag_20:\n        /* \"package/contracts/utils/NameEncoder.sol\":654:663  uint256 i */\n      0x00\n        /* \"package/contracts/utils/NameEncoder.sol\":675:676  1 */\n      0x01\n        /* \"package/contracts/utils/NameEncoder.sol\":666:672  length */\n      dup3\n        /* \"package/contracts/utils/NameEncoder.sol\":666:676  length - 1 */\n      sub\n        /* \"package/contracts/utils/NameEncoder.sol\":654:676  uint256 i = length - 1 */\n      swap1\n      pop\n        /* \"package/contracts/utils/NameEncoder.sol\":649:1045  for (uint256 i = length - 1; i >= 0; i--) {... */\n    tag_24:\n        /* \"package/contracts/utils/NameEncoder.sol\":683:684  0 */\n      0x00\n        /* \"package/contracts/utils/NameEncoder.sol\":678:679  i */\n      dup2\n        /* \"package/contracts/utils/NameEncoder.sol\":678:684  i >= 0 */\n      lt\n        /* \"package/contracts/utils/NameEncoder.sol\":649:1045  for (uint256 i = length - 1; i >= 0; i--) {... */\n      tag_25\n      jumpi\n        /* \"package/contracts/utils/NameEncoder.sol\":705:724  bytesName[i] == \".\" */\n      0x2e00000000000000000000000000000000000000000000000000000000000000\n        /* \"package/contracts/utils/NameEncoder.sol\":705:714  bytesName */\n      dup4\n        /* \"package/contracts/utils/NameEncoder.sol\":715:716  i */\n      dup3\n        /* \"package/contracts/utils/NameEncoder.sol\":705:717  bytesName[i] */\n      dup2\n      mload\n      dup2\n      lt\n      tag_27\n      jumpi\n      tag_28\n      tag_23\n      jump\t// in\n    tag_28:\n    tag_27:\n      0x20\n      add\n      add\n      mload\n      0xf8\n      shr\n      0xf8\n      shl\n        /* \"package/contracts/utils/NameEncoder.sol\":705:724  bytesName[i] == \".\" */\n      not(0xffffffffffffffffffffffffffffffffffffffffffffffffffffffffffffff)\n      and\n      sub\n        /* \"package/contracts/utils/NameEncoder.sol\":701:988  if (bytesName[i] == \".\") {... */\n      tag_29\n      jumpi\n        /* \"package/contracts/utils/NameEncoder.sol\":762:773  labelLength */\n      dup4\n        /* \"package/contracts/utils/NameEncoder.sol\":755:774  bytes1(labelLength) */\n      0xf8\n      shl\n        /* \"package/contracts/utils/NameEncoder.sol\":738:745  dnsName */\n      dup7\n        /* \"package/contracts/utils/NameEncoder.sol\":750:751  1 */\n      0x01\n        /* \"package/contracts/utils/NameEncoder.sol\":746:747  i */\n      dup4\n        /* \"package/contracts/utils/NameEncoder.sol\":746:751  i + 1 */\n      add\n        /* \"package/contracts/utils/NameEncoder.sol\":738:752  dnsName[i + 1] */\n      dup2\n      mload\n      dup2\n      lt\n      tag_30\n      jumpi\n      tag_31\n      tag_23\n      jump\t// in\n    tag_31:\n    tag_30:\n      0x20\n      add\n      add\n        /* \"package/contracts/utils/NameEncoder.sol\":738:774  dnsName[i + 1] = bytes1(labelLength) */\n      swap1\n      not(0xffffffffffffffffffffffffffffffffffffffffffffffffffffffffffffff)\n      and\n      swap1\n      dup2\n      0x00\n      byte\n      swap1\n      mstore8\n      pop\n        /* \"package/contracts/utils/NameEncoder.sol\":820:824  node */\n      dup5\n        /* \"package/contracts/utils/NameEncoder.sol\":826:862  bytesName.keccak(i + 1, labelLength) */\n      tag_32\n        /* \"package/contracts/utils/NameEncoder.sol\":847:848  1 */\n      0x01\n        /* \"package/contracts/utils/NameEncoder.sol\":843:844  i */\n      dup4\n        /* \"package/contracts/utils/NameEncoder.sol\":843:848  i + 1 */\n      add\n        /* \"package/contracts/utils/NameEncoder.sol\":850:861  labelLength */\n      dup7\n        /* \"package/contracts/utils/NameEncoder.sol\":826:862  bytesName.keccak(i + 1, labelLength) */\n      0xff\n      and\n        /* \"package/contracts/utils/NameEncoder.sol\":826:835  bytesName */\n      dup7\n        /* \"package/contracts/utils/NameEncoder.sol\":826:842  bytesName.keccak */\n      tag_33\n      swap1\n        /* \"package/contracts/utils/NameEncoder.sol\":826:862  bytesName.keccak(i + 1, labelLength) */\n      swap3\n      swap2\n      swap1\n      0xffffffff\n      and\n      jump\t// in\n    tag_32:\n        /* \"package/contracts/utils/NameEncoder.sol\":803:863  abi.encodePacked(node, bytesName.keccak(i + 1, labelLength)) */\n      add(0x20, mload(0x40))\n      tag_34\n      swap3\n      swap2\n      swap1\n      tag_35\n      jump\t// in\n    tag_34:\n      mload(0x40)\n      0x20\n      dup2\n      dup4\n      sub\n      sub\n      dup2\n      mstore\n      swap1\n      0x40\n      mstore\n        /* \"package/contracts/utils/NameEncoder.sol\":793:864  keccak256(abi.encodePacked(node, bytesName.keccak(i + 1, labelLength))) */\n      dup1\n      mload\n      swap1\n      0x20\n      add\n      keccak256\n        /* \"package/contracts/utils/NameEncoder.sol\":786:864  node = keccak256(abi.encodePacked(node, bytesName.keccak(i + 1, labelLength))) */\n      swap5\n      pop\n        /* \"package/contracts/utils/NameEncoder.sol\":890:891  0 */\n      0x00\n        /* \"package/contracts/utils/NameEncoder.sol\":876:891  labelLength = 0 */\n      swap4\n      pop\n        /* \"package/contracts/utils/NameEncoder.sol\":701:988  if (bytesName[i] == \".\") {... */\n      jump(tag_36)\n    tag_29:\n        /* \"package/contracts/utils/NameEncoder.sol\":935:936  1 */\n      0x01\n        /* \"package/contracts/utils/NameEncoder.sol\":920:936  labelLength += 1 */\n      dup5\n      add\n      swap4\n      pop\n        /* \"package/contracts/utils/NameEncoder.sol\":965:974  bytesName */\n      dup3\n        /* \"package/contracts/utils/NameEncoder.sol\":975:976  i */\n      dup2\n        /* \"package/contracts/utils/NameEncoder.sol\":965:977  bytesName[i] */\n      dup2\n      mload\n      dup2\n      lt\n      tag_37\n      jumpi\n      tag_38\n      tag_23\n      jump\t// in\n    tag_38:\n    tag_37:\n      0x20\n      add\n      add\n      mload\n      0xf8\n      shr\n      0xf8\n      shl\n        /* \"package/contracts/utils/NameEncoder.sol\":948:955  dnsName */\n      dup7\n        /* \"package/contracts/utils/NameEncoder.sol\":960:961  1 */\n      0x01\n        /* \"package/contracts/utils/NameEncoder.sol\":956:957  i */\n      dup4\n        /* \"package/contracts/utils/NameEncoder.sol\":956:961  i + 1 */\n      add\n        /* \"package/contracts/utils/NameEncoder.sol\":948:962  dnsName[i + 1] */\n      dup2\n      mload\n      dup2\n      lt\n      tag_39\n      jumpi\n      tag_40\n      tag_23\n      jump\t// in\n    tag_40:\n    tag_39:\n      0x20\n      add\n      add\n        /* \"package/contracts/utils/NameEncoder.sol\":948:977  dnsName[i + 1] = bytesName[i] */\n      swap1\n      not(0xffffffffffffffffffffffffffffffffffffffffffffffffffffffffffffff)\n      and\n      swap1\n      dup2\n      0x00\n      byte\n      swap1\n      mstore8\n      pop\n        /* \"package/contracts/utils/NameEncoder.sol\":701:988  if (bytesName[i] == \".\") {... */\n    tag_36:\n        /* \"package/contracts/utils/NameEncoder.sol\":1006:1007  0 */\n      0x00\n        /* \"package/contracts/utils/NameEncoder.sol\":1001:1002  i */\n      dup2\n        /* \"package/contracts/utils/NameEncoder.sol\":1001:1007  i == 0 */\n      sub\n        /* \"package/contracts/utils/NameEncoder.sol\":997:1037  if (i == 0) {... */\n      iszero\n        /* \"package/contracts/utils/NameEncoder.sol\":1021:1026  break */\n      tag_25\n        /* \"package/contracts/utils/NameEncoder.sol\":997:1037  if (i == 0) {... */\n      jumpi\n        /* \"package/contracts/utils/NameEncoder.sol\":686:689  i-- */\n      dup1\n      dup1\n      0x01\n      swap1\n      sub\n      swap2\n      pop\n      pop\n        /* \"package/contracts/utils/NameEncoder.sol\":649:1045  for (uint256 i = length - 1; i >= 0; i--) {... */\n      jump(tag_24)\n    tag_25:\n      pop\n        /* \"package/contracts/utils/NameEncoder.sol\":1091:1095  node */\n      dup4\n        /* \"package/contracts/utils/NameEncoder.sol\":1097:1129  bytesName.keccak(0, labelLength) */\n      tag_42\n        /* \"package/contracts/utils/NameEncoder.sol\":1114:1115  0 */\n      0x00\n        /* \"package/contracts/utils/NameEncoder.sol\":1117:1128  labelLength */\n      dup6\n        /* \"package/contracts/utils/NameEncoder.sol\":1097:1129  bytesName.keccak(0, labelLength) */\n      0xff\n      and\n        /* \"package/contracts/utils/NameEncoder.sol\":1097:1106  bytesName */\n      dup6\n        /* \"package/contracts/utils/NameEncoder.sol\":1097:1113  bytesName.keccak */\n      tag_33\n      swap1\n        /* \"package/contracts/utils/NameEncoder.sol\":1097:1129  bytesName.keccak(0, labelLength) */\n      swap3\n      swap2\n      swap1\n      0xffffffff\n      and\n      jump\t// in\n    tag_42:\n        /* \"package/contracts/utils/NameEncoder.sol\":1074:1130  abi.encodePacked(node, bytesName.keccak(0, labelLength)) */\n      add(0x20, mload(0x40))\n      tag_43\n      swap3\n      swap2\n      swap1\n      tag_35\n      jump\t// in\n    tag_43:\n      mload(0x40)\n      0x20\n      dup2\n      dup4\n      sub\n      sub\n      dup2\n      mstore\n      swap1\n      0x40\n      mstore\n        /* \"package/contracts/utils/NameEncoder.sol\":1064:1131  keccak256(abi.encodePacked(node, bytesName.keccak(0, labelLength))) */\n      dup1\n      mload\n      swap1\n      0x20\n      add\n      keccak256\n        /* \"package/contracts/utils/NameEncoder.sol\":1057:1131  node = keccak256(abi.encodePacked(node, bytesName.keccak(0, labelLength))) */\n      swap4\n      pop\n        /* \"package/contracts/utils/NameEncoder.sol\":1158:1169  labelLength */\n      dup3\n        /* \"package/contracts/utils/NameEncoder.sol\":1151:1170  bytes1(labelLength) */\n      0xf8\n      shl\n        /* \"package/contracts/utils/NameEncoder.sol\":1138:1145  dnsName */\n      dup6\n        /* \"package/contracts/utils/NameEncoder.sol\":1146:1147  0 */\n      0x00\n        /* \"package/contracts/utils/NameEncoder.sol\":1138:1148  dnsName[0] */\n      dup2\n      mload\n      dup2\n      lt\n      tag_44\n      jumpi\n      tag_45\n      tag_23\n      jump\t// in\n    tag_45:\n    tag_44:\n      0x20\n      add\n      add\n        /* \"package/contracts/utils/NameEncoder.sol\":1138:1170  dnsName[0] = bytes1(labelLength) */\n      swap1\n      not(0xffffffffffffffffffffffffffffffffffffffffffffffffffffffffffffff)\n      and\n      swap1\n      dup2\n      0x00\n      byte\n      swap1\n      mstore8\n      pop\n        /* \"package/contracts/utils/NameEncoder.sol\":1176:1198  return (dnsName, node) */\n      pop\n      pop\n      pop\n        /* \"package/contracts/utils/NameEncoder.sol\":166:1203  function dnsEncodeName(string memory name) internal pure returns (bytes memory dnsName, bytes32 node) {... */\n    tag_13:\n      swap2\n      pop\n      swap2\n      jump\t// out\n        /* \"package/contracts/utils/BytesUtils.sol\":391:615  function keccak(bytes memory self, uint256 offset, uint256 len) internal pure returns (bytes32 ret) {... */\n    tag_33:\n        /* \"package/contracts/utils/BytesUtils.sol\":478:489  bytes32 ret */\n      0x00\n        /* \"package/contracts/utils/BytesUtils.sol\":521:525  self */\n      dup4\n        /* \"package/contracts/utils/BytesUtils.sol\":521:532  self.length */\n      mload\n        /* \"package/contracts/utils/BytesUtils.sol\":514:517  len */\n      dup3\n        /* \"package/contracts/utils/BytesUtils.sol\":505:511  offset */\n      dup5\n        /* \"package/contracts/utils/BytesUtils.sol\":505:517  offset + len */\n      tag_47\n      swap2\n      swap1\n      tag_15\n      jump\t// in\n    tag_47:\n        /* \"package/contracts/utils/BytesUtils.sol\":505:532  offset + len <= self.length */\n      gt\n      iszero\n        /* \"package/contracts/utils/BytesUtils.sol\":497:533  require(offset + len <= self.length) */\n      tag_48\n      jumpi\n      0x00\n      dup1\n      revert\n    tag_48:\n        /* \"package/contracts/utils/BytesUtils.sol\":601:604  len */\n      dup2\n        /* \"package/contracts/utils/BytesUtils.sol\":592:598  offset */\n      dup4\n        /* \"package/contracts/utils/BytesUtils.sol\":587:589  32 */\n      0x20\n        /* \"package/contracts/utils/BytesUtils.sol\":581:585  self */\n      dup7\n        /* \"package/contracts/utils/BytesUtils.sol\":577:590  add(self, 32) */\n      add\n        /* \"package/contracts/utils/BytesUtils.sol\":573:599  add(add(self, 32), offset) */\n      add\n        /* \"package/contracts/utils/BytesUtils.sol\":563:605  keccak256(add(add(self, 32), offset), len) */\n      keccak256\n        /* \"package/contracts/utils/BytesUtils.sol\":556:605  ret := keccak256(add(add(self, 32), offset), len) */\n      swap1\n      pop\n        /* \"package/contracts/utils/BytesUtils.sol\":391:615  function keccak(bytes memory self, uint256 offset, uint256 len) internal pure returns (bytes32 ret) {... */\n      swap4\n      swap3\n      pop\n      pop\n      pop\n      jump\t// out\n        /* \"#utility.yul\":7:82   */\n    tag_49:\n        /* \"#utility.yul\":40:46   */\n      0x00\n        /* \"#utility.yul\":73:75   */\n      0x40\n        /* \"#utility.yul\":67:76   */\n      mload\n        /* \"#utility.yul\":57:76   */\n      swap1\n      pop\n        /* \"#utility.yul\":7:82   */\n      swap1\n      jump\t// out\n        /* \"#utility.yul\":88:205   */\n    tag_50:\n        /* \"#utility.yul\":197:198   */\n      0x00\n        /* \"#utility.yul\":194:195   */\n      dup1\n        /* \"#utility.yul\":187:199   */\n      revert\n        /* \"#utility.yul\":211:328   */\n    tag_51:\n        /* \"#utility.yul\":320:321   */\n      0x00\n        /* \"#utility.yul\":317:318   */\n      dup1\n        /* \"#utility.yul\":310:322   */\n      revert\n        /* \"#utility.yul\":334:451   */\n    tag_52:\n        /* \"#utility.yul\":443:444   */\n      0x00\n        /* \"#utility.yul\":440:441   */\n      dup1\n        /* \"#utility.yul\":433:445   */\n      revert\n        /* \"#utility.yul\":457:574   */\n    tag_53:\n        /* \"#utility.yul\":566:567   */\n      0x00\n        /* \"#utility.yul\":563:564   */\n      dup1\n        /* \"#utility.yul\":556:568   */\n      revert\n        /* \"#utility.yul\":580:682   */\n    tag_54:\n        /* \"#utility.yul\":621:627   */\n      0x00\n        /* \"#utility.yul\":672:674   */\n      0x1f\n        /* \"#utility.yul\":668:675   */\n      not\n        /* \"#utility.yul\":663:665   */\n      0x1f\n        /* \"#utility.yul\":656:661   */\n      dup4\n        /* \"#utility.yul\":652:666   */\n      add\n        /* \"#utility.yul\":648:676   */\n      and\n        /* \"#utility.yul\":638:676   */\n      swap1\n      pop\n        /* \"#utility.yul\":580:682   */\n      swap2\n      swap1\n      pop\n      jump\t// out\n        /* \"#utility.yul\":688:868   */\n    tag_18:\n        /* \"#utility.yul\":736:813   */\n      0x4e487b7100000000000000000000000000000000000000000000000000000000\n        /* \"#utility.yul\":733:734   */\n      0x00\n        /* \"#utility.yul\":726:814   */\n      mstore\n        /* \"#utility.yul\":833:837   */\n      0x41\n        /* \"#utility.yul\":830:831   */\n      0x04\n        /* \"#utility.yul\":823:838   */\n      mstore\n        /* \"#utility.yul\":857:861   */\n      0x24\n        /* \"#utility.yul\":854:855   */\n      0x00\n        /* \"#utility.yul\":847:862   */\n      revert\n        /* \"#utility.yul\":874:1155   */\n    tag_55:\n        /* \"#utility.yul\":957:984   */\n      tag_80\n        /* \"#utility.yul\":979:983   */\n      dup3\n        /* \"#utility.yul\":957:984   */\n      tag_54\n      jump\t// in\n    tag_80:\n        /* \"#utility.yul\":949:955   */\n      dup2\n        /* \"#utility.yul\":945:985   */\n      add\n        /* \"#utility.yul\":1087:1093   */\n      dup2\n        /* \"#utility.yul\":1075:1085   */\n      dup2\n        /* \"#utility.yul\":1072:1094   */\n      lt\n        /* \"#utility.yul\":1051:1069   */\n      0xffffffffffffffff\n        /* \"#utility.yul\":1039:1049   */\n      dup3\n        /* \"#utility.yul\":1036:1070   */\n      gt\n        /* \"#utility.yul\":1033:1095   */\n      or\n        /* \"#utility.yul\":1030:1118   */\n      iszero\n      tag_81\n      jumpi\n        /* \"#utility.yul\":1098:1116   */\n      tag_82\n      tag_18\n      jump\t// in\n    tag_82:\n        /* \"#utility.yul\":1030:1118   */\n    tag_81:\n        /* \"#utility.yul\":1138:1148   */\n      dup1\n        /* \"#utility.yul\":1134:1136   */\n      0x40\n        /* \"#utility.yul\":1127:1149   */\n      mstore\n        /* \"#utility.yul\":917:1155   */\n      pop\n        /* \"#utility.yul\":874:1155   */\n      pop\n      pop\n      jump\t// out\n        /* \"#utility.yul\":1161:1290   */\n    tag_56:\n        /* \"#utility.yul\":1195:1201   */\n      0x00\n        /* \"#utility.yul\":1222:1242   */\n      tag_84\n      tag_49\n      jump\t// in\n    tag_84:\n        /* \"#utility.yul\":1212:1242   */\n      swap1\n      pop\n        /* \"#utility.yul\":1251:1284   */\n      tag_85\n        /* \"#utility.yul\":1279:1283   */\n      dup3\n        /* \"#utility.yul\":1271:1277   */\n      dup3\n        /* \"#utility.yul\":1251:1284   */\n      tag_55\n      jump\t// in\n    tag_85:\n        /* \"#utility.yul\":1161:1290   */\n      swap2\n      swap1\n      pop\n      jump\t// out\n        /* \"#utility.yul\":1296:1604   */\n    tag_57:\n        /* \"#utility.yul\":1358:1362   */\n      0x00\n        /* \"#utility.yul\":1448:1466   */\n      0xffffffffffffffff\n        /* \"#utility.yul\":1440:1446   */\n      dup3\n        /* \"#utility.yul\":1437:1467   */\n      gt\n        /* \"#utility.yul\":1434:1490   */\n      iszero\n      tag_87\n      jumpi\n        /* \"#utility.yul\":1470:1488   */\n      tag_88\n      tag_18\n      jump\t// in\n    tag_88:\n        /* \"#utility.yul\":1434:1490   */\n    tag_87:\n        /* \"#utility.yul\":1508:1537   */\n      tag_89\n        /* \"#utility.yul\":1530:1536   */\n      dup3\n        /* \"#utility.yul\":1508:1537   */\n      tag_54\n      jump\t// in\n    tag_89:\n        /* \"#utility.yul\":1500:1537   */\n      swap1\n      pop\n        /* \"#utility.yul\":1592:1596   */\n      0x20\n        /* \"#utility.yul\":1586:1590   */\n      dup2\n        /* \"#utility.yul\":1582:1597   */\n      add\n        /* \"#utility.yul\":1574:1597   */\n      swap1\n      pop\n        /* \"#utility.yul\":1296:1604   */\n      swap2\n      swap1\n      pop\n      jump\t// out\n        /* \"#utility.yul\":1610:1758   */\n    tag_58:\n        /* \"#utility.yul\":1708:1714   */\n      dup3\n        /* \"#utility.yul\":1703:1706   */\n      dup2\n        /* \"#utility.yul\":1698:1701   */\n      dup4\n        /* \"#utility.yul\":1685:1715   */\n      calldatacopy\n        /* \"#utility.yul\":1749:1750   */\n      0x00\n        /* \"#utility.yul\":1740:1746   */\n      dup4\n        /* \"#utility.yul\":1735:1738   */\n      dup4\n        /* \"#utility.yul\":1731:1747   */\n      add\n        /* \"#utility.yul\":1724:1751   */\n      mstore\n        /* \"#utility.yul\":1610:1758   */\n      pop\n      pop\n      pop\n      jump\t// out\n        /* \"#utility.yul\":1764:2189   */\n    tag_59:\n        /* \"#utility.yul\":1842:1847   */\n      0x00\n        /* \"#utility.yul\":1867:1933   */\n      tag_92\n        /* \"#utility.yul\":1883:1932   */\n      tag_93\n        /* \"#utility.yul\":1925:1931   */\n      dup5\n        /* \"#utility.yul\":1883:1932   */\n      tag_57\n      jump\t// in\n    tag_93:\n        /* \"#utility.yul\":1867:1933   */\n      tag_56\n      jump\t// in\n    tag_92:\n        /* \"#utility.yul\":1858:1933   */\n      swap1\n      pop\n        /* \"#utility.yul\":1956:1962   */\n      dup3\n        /* \"#utility.yul\":1949:1954   */\n      dup2\n        /* \"#utility.yul\":1942:1963   */\n      mstore\n        /* \"#utility.yul\":1994:1998   */\n      0x20\n        /* \"#utility.yul\":1987:1992   */\n      dup2\n        /* \"#utility.yul\":1983:1999   */\n      add\n        /* \"#utility.yul\":2032:2035   */\n      dup5\n        /* \"#utility.yul\":2023:2029   */\n      dup5\n        /* \"#utility.yul\":2018:2021   */\n      dup5\n        /* \"#utility.yul\":2014:2030   */\n      add\n        /* \"#utility.yul\":2011:2036   */\n      gt\n        /* \"#utility.yul\":2008:2120   */\n      iszero\n      tag_94\n      jumpi\n        /* \"#utility.yul\":2039:2118   */\n      tag_95\n      tag_53\n      jump\t// in\n    tag_95:\n        /* \"#utility.yul\":2008:2120   */\n    tag_94:\n        /* \"#utility.yul\":2129:2183   */\n      tag_96\n        /* \"#utility.yul\":2176:2182   */\n      dup5\n        /* \"#utility.yul\":2171:2174   */\n      dup3\n        /* \"#utility.yul\":2166:2169   */\n      dup6\n        /* \"#utility.yul\":2129:2183   */\n      tag_58\n      jump\t// in\n    tag_96:\n        /* \"#utility.yul\":1848:2189   */\n      pop\n        /* \"#utility.yul\":1764:2189   */\n      swap4\n      swap3\n      pop\n      pop\n      pop\n      jump\t// out\n        /* \"#utility.yul\":2209:2549   */\n    tag_60:\n        /* \"#utility.yul\":2265:2270   */\n      0x00\n        /* \"#utility.yul\":2314:2317   */\n      dup3\n        /* \"#utility.yul\":2307:2311   */\n      0x1f\n        /* \"#utility.yul\":2299:2305   */\n      dup4\n        /* \"#utility.yul\":2295:2312   */\n      add\n        /* \"#utility.yul\":2291:2318   */\n      slt\n        /* \"#utility.yul\":2281:2403   */\n      tag_98\n      jumpi\n        /* \"#utility.yul\":2322:2401   */\n      tag_99\n      tag_52\n      jump\t// in\n    tag_99:\n        /* \"#utility.yul\":2281:2403   */\n    tag_98:\n        /* \"#utility.yul\":2439:2445   */\n      dup2\n        /* \"#utility.yul\":2426:2446   */\n      calldataload\n        /* \"#utility.yul\":2464:2543   */\n      tag_100\n        /* \"#utility.yul\":2539:2542   */\n      dup5\n        /* \"#utility.yul\":2531:2537   */\n      dup3\n        /* \"#utility.yul\":2524:2528   */\n      0x20\n        /* \"#utility.yul\":2516:2522   */\n      dup7\n        /* \"#utility.yul\":2512:2529   */\n      add\n        /* \"#utility.yul\":2464:2543   */\n      tag_59\n      jump\t// in\n    tag_100:\n        /* \"#utility.yul\":2455:2543   */\n      swap2\n      pop\n        /* \"#utility.yul\":2271:2549   */\n      pop\n        /* \"#utility.yul\":2209:2549   */\n      swap3\n      swap2\n      pop\n      pop\n      jump\t// out\n        /* \"#utility.yul\":2555:3064   */\n    tag_6:\n        /* \"#utility.yul\":2624:2630   */\n      0x00\n        /* \"#utility.yul\":2673:2675   */\n      0x20\n        /* \"#utility.yul\":2661:2670   */\n      dup3\n        /* \"#utility.yul\":2652:2659   */\n      dup5\n        /* \"#utility.yul\":2648:2671   */\n      sub\n        /* \"#utility.yul\":2644:2676   */\n      slt\n        /* \"#utility.yul\":2641:2760   */\n      iszero\n      tag_102\n      jumpi\n        /* \"#utility.yul\":2679:2758   */\n      tag_103\n      tag_50\n      jump\t// in\n    tag_103:\n        /* \"#utility.yul\":2641:2760   */\n    tag_102:\n        /* \"#utility.yul\":2827:2828   */\n      0x00\n        /* \"#utility.yul\":2816:2825   */\n      dup3\n        /* \"#utility.yul\":2812:2829   */\n      add\n        /* \"#utility.yul\":2799:2830   */\n      calldataload\n        /* \"#utility.yul\":2857:2875   */\n      0xffffffffffffffff\n        /* \"#utility.yul\":2849:2855   */\n      dup2\n        /* \"#utility.yul\":2846:2876   */\n      gt\n        /* \"#utility.yul\":2843:2960   */\n      iszero\n      tag_104\n      jumpi\n        /* \"#utility.yul\":2879:2958   */\n      tag_105\n      tag_51\n      jump\t// in\n    tag_105:\n        /* \"#utility.yul\":2843:2960   */\n    tag_104:\n        /* \"#utility.yul\":2984:3047   */\n      tag_106\n        /* \"#utility.yul\":3039:3046   */\n      dup5\n        /* \"#utility.yul\":3030:3036   */\n      dup3\n        /* \"#utility.yul\":3019:3028   */\n      dup6\n        /* \"#utility.yul\":3015:3037   */\n      add\n        /* \"#utility.yul\":2984:3047   */\n      tag_60\n      jump\t// in\n    tag_106:\n        /* \"#utility.yul\":2974:3047   */\n      swap2\n      pop\n        /* \"#utility.yul\":2770:3057   */\n      pop\n        /* \"#utility.yul\":2555:3064   */\n      swap3\n      swap2\n      pop\n      pop\n      jump\t// out\n        /* \"#utility.yul\":3070:3168   */\n    tag_61:\n        /* \"#utility.yul\":3121:3127   */\n      0x00\n        /* \"#utility.yul\":3155:3160   */\n      dup2\n        /* \"#utility.yul\":3149:3161   */\n      mload\n        /* \"#utility.yul\":3139:3161   */\n      swap1\n      pop\n        /* \"#utility.yul\":3070:3168   */\n      swap2\n      swap1\n      pop\n      jump\t// out\n        /* \"#utility.yul\":3174:3342   */\n    tag_62:\n        /* \"#utility.yul\":3257:3268   */\n      0x00\n        /* \"#utility.yul\":3291:3297   */\n      dup3\n        /* \"#utility.yul\":3286:3289   */\n      dup3\n        /* \"#utility.yul\":3279:3298   */\n      mstore\n        /* \"#utility.yul\":3331:3335   */\n      0x20\n        /* \"#utility.yul\":3326:3329   */\n      dup3\n        /* \"#utility.yul\":3322:3336   */\n      add\n        /* \"#utility.yul\":3307:3336   */\n      swap1\n      pop\n        /* \"#utility.yul\":3174:3342   */\n      swap3\n      swap2\n      pop\n      pop\n      jump\t// out\n        /* \"#utility.yul\":3348:3596   */\n    tag_63:\n        /* \"#utility.yul\":3430:3431   */\n      0x00\n        /* \"#utility.yul\":3440:3553   */\n    tag_110:\n        /* \"#utility.yul\":3454:3460   */\n      dup4\n        /* \"#utility.yul\":3451:3452   */\n      dup2\n        /* \"#utility.yul\":3448:3461   */\n      lt\n        /* \"#utility.yul\":3440:3553   */\n      iszero\n      tag_112\n      jumpi\n        /* \"#utility.yul\":3539:3540   */\n      dup1\n        /* \"#utility.yul\":3534:3537   */\n      dup3\n        /* \"#utility.yul\":3530:3541   */\n      add\n        /* \"#utility.yul\":3524:3542   */\n      mload\n        /* \"#utility.yul\":3520:3521   */\n      dup2\n        /* \"#utility.yul\":3515:3518   */\n      dup5\n        /* \"#utility.yul\":3511:3522   */\n      add\n        /* \"#utility.yul\":3504:3543   */\n      mstore\n        /* \"#utility.yul\":3476:3478   */\n      0x20\n        /* \"#utility.yul\":3473:3474   */\n      dup2\n        /* \"#utility.yul\":3469:3479   */\n      add\n        /* \"#utility.yul\":3464:3479   */\n      swap1\n      pop\n        /* \"#utility.yul\":3440:3553   */\n      jump(tag_110)\n    tag_112:\n        /* \"#utility.yul\":3587:3588   */\n      0x00\n        /* \"#utility.yul\":3578:3584   */\n      dup5\n        /* \"#utility.yul\":3573:3576   */\n      dup5\n        /* \"#utility.yul\":3569:3585   */\n      add\n        /* \"#utility.yul\":3562:3589   */\n      mstore\n        /* \"#utility.yul\":3410:3596   */\n      pop\n        /* \"#utility.yul\":3348:3596   */\n      pop\n      pop\n      pop\n      jump\t// out\n        /* \"#utility.yul\":3602:3975   */\n    tag_64:\n        /* \"#utility.yul\":3688:3691   */\n      0x00\n        /* \"#utility.yul\":3716:3754   */\n      tag_114\n        /* \"#utility.yul\":3748:3753   */\n      dup3\n        /* \"#utility.yul\":3716:3754   */\n      tag_61\n      jump\t// in\n    tag_114:\n        /* \"#utility.yul\":3770:3840   */\n      tag_115\n        /* \"#utility.yul\":3833:3839   */\n      dup2\n        /* \"#utility.yul\":3828:3831   */\n      dup6\n        /* \"#utility.yul\":3770:3840   */\n      tag_62\n      jump\t// in\n    tag_115:\n        /* \"#utility.yul\":3763:3840   */\n      swap4\n      pop\n        /* \"#utility.yul\":3849:3914   */\n      tag_116\n        /* \"#utility.yul\":3907:3913   */\n      dup2\n        /* \"#utility.yul\":3902:3905   */\n      dup6\n        /* \"#utility.yul\":3895:3899   */\n      0x20\n        /* \"#utility.yul\":3888:3893   */\n      dup7\n        /* \"#utility.yul\":3884:3900   */\n      add\n        /* \"#utility.yul\":3849:3914   */\n      tag_63\n      jump\t// in\n    tag_116:\n        /* \"#utility.yul\":3939:3968   */\n      tag_117\n        /* \"#utility.yul\":3961:3967   */\n      dup2\n        /* \"#utility.yul\":3939:3968   */\n      tag_54\n      jump\t// in\n    tag_117:\n        /* \"#utility.yul\":3934:3937   */\n      dup5\n        /* \"#utility.yul\":3930:3969   */\n      add\n        /* \"#utility.yul\":3923:3969   */\n      swap2\n      pop\n        /* \"#utility.yul\":3692:3975   */\n      pop\n        /* \"#utility.yul\":3602:3975   */\n      swap3\n      swap2\n      pop\n      pop\n      jump\t// out\n        /* \"#utility.yul\":3981:4058   */\n    tag_65:\n        /* \"#utility.yul\":4018:4025   */\n      0x00\n        /* \"#utility.yul\":4047:4052   */\n      dup2\n        /* \"#utility.yul\":4036:4052   */\n      swap1\n      pop\n        /* \"#utility.yul\":3981:4058   */\n      swap2\n      swap1\n      pop\n      jump\t// out\n        /* \"#utility.yul\":4064:4182   */\n    tag_66:\n        /* \"#utility.yul\":4151:4175   */\n      tag_120\n        /* \"#utility.yul\":4169:4174   */\n      dup2\n        /* \"#utility.yul\":4151:4175   */\n      tag_65\n      jump\t// in\n    tag_120:\n        /* \"#utility.yul\":4146:4149   */\n      dup3\n        /* \"#utility.yul\":4139:4176   */\n      mstore\n        /* \"#utility.yul\":4064:4182   */\n      pop\n      pop\n      jump\t// out\n        /* \"#utility.yul\":4188:4607   */\n    tag_9:\n        /* \"#utility.yul\":4327:4331   */\n      0x00\n        /* \"#utility.yul\":4365:4367   */\n      0x40\n        /* \"#utility.yul\":4354:4363   */\n      dup3\n        /* \"#utility.yul\":4350:4368   */\n      add\n        /* \"#utility.yul\":4342:4368   */\n      swap1\n      pop\n        /* \"#utility.yul\":4414:4423   */\n      dup2\n        /* \"#utility.yul\":4408:4412   */\n      dup2\n        /* \"#utility.yul\":4404:4424   */\n      sub\n        /* \"#utility.yul\":4400:4401   */\n      0x00\n        /* \"#utility.yul\":4389:4398   */\n      dup4\n        /* \"#utility.yul\":4385:4402   */\n      add\n        /* \"#utility.yul\":4378:4425   */\n      mstore\n        /* \"#utility.yul\":4442:4518   */\n      tag_122\n        /* \"#utility.yul\":4513:4517   */\n      dup2\n        /* \"#utility.yul\":4504:4510   */\n      dup6\n        /* \"#utility.yul\":4442:4518   */\n      tag_64\n      jump\t// in\n    tag_122:\n        /* \"#utility.yul\":4434:4518   */\n      swap1\n      pop\n        /* \"#utility.yul\":4528:4600   */\n      tag_123\n        /* \"#utility.yul\":4596:4598   */\n      0x20\n        /* \"#utility.yul\":4585:4594   */\n      dup4\n        /* \"#utility.yul\":4581:4599   */\n      add\n        /* \"#utility.yul\":4572:4578   */\n      dup5\n        /* \"#utility.yul\":4528:4600   */\n      tag_66\n      jump\t// in\n    tag_123:\n        /* \"#utility.yul\":4188:4607   */\n      swap4\n      swap3\n      pop\n      pop\n      pop\n      jump\t// out\n        /* \"#utility.yul\":4613:4690   */\n    tag_67:\n        /* \"#utility.yul\":4650:4657   */\n      0x00\n        /* \"#utility.yul\":4679:4684   */\n      dup2\n        /* \"#utility.yul\":4668:4684   */\n      swap1\n      pop\n        /* \"#utility.yul\":4613:4690   */\n      swap2\n      swap1\n      pop\n      jump\t// out\n        /* \"#utility.yul\":4696:4876   */\n    tag_68:\n        /* \"#utility.yul\":4744:4821   */\n      0x4e487b7100000000000000000000000000000000000000000000000000000000\n        /* \"#utility.yul\":4741:4742   */\n      0x00\n        /* \"#utility.yul\":4734:4822   */\n      mstore\n        /* \"#utility.yul\":4841:4845   */\n      0x11\n        /* \"#utility.yul\":4838:4839   */\n      0x04\n        /* \"#utility.yul\":4831:4846   */\n      mstore\n        /* \"#utility.yul\":4865:4869   */\n      0x24\n        /* \"#utility.yul\":4862:4863   */\n      0x00\n        /* \"#utility.yul\":4855:4870   */\n      revert\n        /* \"#utility.yul\":4882:5073   */\n    tag_15:\n        /* \"#utility.yul\":4922:4925   */\n      0x00\n        /* \"#utility.yul\":4941:4961   */\n      tag_127\n        /* \"#utility.yul\":4959:4960   */\n      dup3\n        /* \"#utility.yul\":4941:4961   */\n      tag_67\n      jump\t// in\n    tag_127:\n        /* \"#utility.yul\":4936:4961   */\n      swap2\n      pop\n        /* \"#utility.yul\":4975:4995   */\n      tag_128\n        /* \"#utility.yul\":4993:4994   */\n      dup4\n        /* \"#utility.yul\":4975:4995   */\n      tag_67\n      jump\t// in\n    tag_128:\n        /* \"#utility.yul\":4970:4995   */\n      swap3\n      pop\n        /* \"#utility.yul\":5018:5019   */\n      dup3\n        /* \"#utility.yul\":5015:5016   */\n      dup3\n        /* \"#utility.yul\":5011:5020   */\n      add\n        /* \"#utility.yul\":5004:5020   */\n      swap1\n      pop\n        /* \"#utility.yul\":5039:5042   */\n      dup1\n        /* \"#utility.yul\":5036:5037   */\n      dup3\n        /* \"#utility.yul\":5033:5043   */\n      gt\n        /* \"#utility.yul\":5030:5066   */\n      iszero\n      tag_129\n      jumpi\n        /* \"#utility.yul\":5046:5064   */\n      tag_130\n      tag_68\n      jump\t// in\n    tag_130:\n        /* \"#utility.yul\":5030:5066   */\n    tag_129:\n        /* \"#utility.yul\":4882:5073   */\n      swap3\n      swap2\n      pop\n      pop\n      jump\t// out\n        /* \"#utility.yul\":5079:5259   */\n    tag_23:\n        /* \"#utility.yul\":5127:5204   */\n      0x4e487b7100000000000000000000000000000000000000000000000000000000\n        /* \"#utility.yul\":5124:5125   */\n      0x00\n        /* \"#utility.yul\":5117:5205   */\n      mstore\n        /* \"#utility.yul\":5224:5228   */\n      0x32\n        /* \"#utility.yul\":5221:5222   */\n      0x04\n        /* \"#utility.yul\":5214:5229   */\n      mstore\n        /* \"#utility.yul\":5248:5252   */\n      0x24\n        /* \"#utility.yul\":5245:5246   */\n      0x00\n        /* \"#utility.yul\":5238:5253   */\n      revert\n        /* \"#utility.yul\":5265:5344   */\n    tag_69:\n        /* \"#utility.yul\":5304:5311   */\n      0x00\n        /* \"#utility.yul\":5333:5338   */\n      dup2\n        /* \"#utility.yul\":5322:5338   */\n      swap1\n      pop\n        /* \"#utility.yul\":5265:5344   */\n      swap2\n      swap1\n      pop\n      jump\t// out\n        /* \"#utility.yul\":5350:5507   */\n    tag_70:\n        /* \"#utility.yul\":5455:5500   */\n      tag_134\n        /* \"#utility.yul\":5475:5499   */\n      tag_135\n        /* \"#utility.yul\":5493:5498   */\n      dup3\n        /* \"#utility.yul\":5475:5499   */\n      tag_65\n      jump\t// in\n    tag_135:\n        /* \"#utility.yul\":5455:5500   */\n      tag_69\n      jump\t// in\n    tag_134:\n        /* \"#utility.yul\":5450:5453   */\n      dup3\n        /* \"#utility.yul\":5443:5501   */\n      mstore\n        /* \"#utility.yul\":5350:5507   */\n      pop\n      pop\n      jump\t// out\n        /* \"#utility.yul\":5513:5910   */\n    tag_35:\n        /* \"#utility.yul\":5653:5656   */\n      0x00\n        /* \"#utility.yul\":5668:5743   */\n      tag_137\n        /* \"#utility.yul\":5739:5742   */\n      dup3\n        /* \"#utility.yul\":5730:5736   */\n      dup6\n        /* \"#utility.yul\":5668:5743   */\n      tag_70\n      jump\t// in\n    tag_137:\n        /* \"#utility.yul\":5768:5770   */\n      0x20\n        /* \"#utility.yul\":5763:5766   */\n      dup3\n        /* \"#utility.yul\":5759:5771   */\n      add\n        /* \"#utility.yul\":5752:5771   */\n      swap2\n      pop\n        /* \"#utility.yul\":5781:5856   */\n      tag_138\n        /* \"#utility.yul\":5852:5855   */\n      dup3\n        /* \"#utility.yul\":5843:5849   */\n      dup5\n        /* \"#utility.yul\":5781:5856   */\n      tag_70\n      jump\t// in\n    tag_138:\n        /* \"#utility.yul\":5881:5883   */\n      0x20\n        /* \"#utility.yul\":5876:5879   */\n      dup3\n        /* \"#utility.yul\":5872:5884   */\n      add\n        /* \"#utility.yul\":5865:5884   */\n      swap2\n      pop\n        /* \"#utility.yul\":5901:5904   */\n      dup2\n        /* \"#utility.yul\":5894:5904   */\n      swap1\n      pop\n        /* \"#utility.yul\":5513:5910   */\n      swap4\n      swap3\n      pop\n      pop\n      pop\n      jump\t// out\n\n    auxdata: 0xa2646970667358221220eedbdaebf6a7a44b83c8d6580876e8991c5b1ac62d6798a8cf8e7dfaeca58bd264736f6c634300081b0033\n}\n",
				"bytecode": {
					"linkReferences": {},
					"object": "6080604052348015600f57600080fd5b5061071d8061001f6000396000f3fe608060405234801561001057600080fd5b506004361061002b5760003560e01c806318d321ca14610030575b600080fd5b61004a600480360381019061004591906104ed565b610061565b6040516100589291906105ce565b60405180910390f35b6060600061006e83610077565b91509150915091565b60606000806000905060008490506000815190506002816100989190610637565b67ffffffffffffffff8111156100b1576100b06103c2565b5b6040519080825280601f01601f1916602001820160405280156100e35781602001600182028036833780820191505090505b5094506000801b93506000810361014457600060f81b8560008151811061010d5761010c61066b565b5b60200101907effffffffffffffffffffffffffffffffffffffffffffffffffffffffffffff1916908160001a905350505050610362565b60006001820390505b600081106102d3577f2e000000000000000000000000000000000000000000000000000000000000008382815181106101895761018861066b565b5b602001015160f81c60f81b7effffffffffffffffffffffffffffffffffffffffffffffffffffffffffffff191603610252578360f81b8660018301815181106101d5576101d461066b565b5b60200101907effffffffffffffffffffffffffffffffffffffffffffffffffffffffffffff1916908160001a90535084610220600183018660ff16866103679092919063ffffffff16565b6040516020016102319291906106bb565b604051602081830303815290604052805190602001209450600093506102bc565b60018401935082818151811061026b5761026a61066b565b5b602001015160f81c60f81b86600183018151811061028c5761028b61066b565b5b60200101907effffffffffffffffffffffffffffffffffffffffffffffffffffffffffffff1916908160001a9053505b60008103156102d35780806001900391505061014d565b50836102ee60008560ff16856103679092919063ffffffff16565b6040516020016102ff9291906106bb565b6040516020818303038152906040528051906020012093508260f81b8560008151811061032f5761032e61066b565b5b60200101907effffffffffffffffffffffffffffffffffffffffffffffffffffffffffffff1916908160001a9053505050505b915091565b6000835182846103779190610637565b111561038257600080fd5b818360208601012090509392505050565b6000604051905090565b600080fd5b600080fd5b600080fd5b600080fd5b6000601f19601f8301169050919050565b7f4e487b7100000000000000000000000000000000000000000000000000000000600052604160045260246000fd5b6103fa826103b1565b810181811067ffffffffffffffff82111715610419576104186103c2565b5b80604052505050565b600061042c610393565b905061043882826103f1565b919050565b600067ffffffffffffffff821115610458576104576103c2565b5b610461826103b1565b9050602081019050919050565b82818337600083830152505050565b600061049061048b8461043d565b610422565b9050828152602081018484840111156104ac576104ab6103ac565b5b6104b784828561046e565b509392505050565b600082601f8301126104d4576104d36103a7565b5b81356104e484826020860161047d565b91505092915050565b6000602082840312156105035761050261039d565b5b600082013567ffffffffffffffff811115610521576105206103a2565b5b61052d848285016104bf565b91505092915050565b600081519050919050565b600082825260208201905092915050565b60005b83811015610570578082015181840152602081019050610555565b60008484015250505050565b600061058782610536565b6105918185610541565b93506105a1818560208601610552565b6105aa816103b1565b840191505092915050565b6000819050919050565b6105c8816105b5565b82525050565b600060408201905081810360008301526105e8818561057c565b90506105f760208301846105bf565b9392505050565b6000819050919050565b7f4e487b7100000000000000000000000000000000000000000000000000000000600052601160045260246000fd5b6000610642826105fe565b915061064d836105fe565b925082820190508082111561066557610664610608565b5b92915050565b7f4e487b7100000000000000000000000000000000000000000000000000000000600052603260045260246000fd5b6000819050919050565b6106b56106b0826105b5565b61069a565b82525050565b60006106c782856106a4565b6020820191506106d782846106a4565b602082019150819050939250505056fea2646970667358221220eedbdaebf6a7a44b83c8d6580876e8991c5b1ac62d6798a8cf8e7dfaeca58bd264736f6c634300081b0033",
					"opcodes": "PUSH1 0x80 PUSH1 0x40 MSTORE CALLVALUE DUP1 ISZERO PUSH1 0xF JUMPI PUSH1 0x0 DUP1 REVERT JUMPDEST POP PUSH2 0x71D DUP1 PUSH2 0x1F PUSH1 0x0 CODECOPY PUSH1 0x0 RETURN INVALID PUSH1 0x80 PUSH1 0x40 MSTORE CALLVALUE DUP1 ISZERO PUSH2 0x10 JUMPI PUSH1 0x0 DUP1 REVERT JUMPDEST POP PUSH1 0x4 CALLDATASIZE LT PUSH2 0x2B JUMPI PUSH1 0x0 CALLDATALOAD PUSH1 0xE0 SHR DUP1 PUSH4 0x18D321CA EQ PUSH2 0x30 JUMPI JUMPDEST PUSH1 0x0 DUP1 REVERT JUMPDEST PUSH2 0x4A PUSH1 0x4 DUP1 CALLDATASIZE SUB DUP2 ADD SWAP1 PUSH2 0x45 SWAP2 SWAP1 PUSH2 0x4ED JUMP JUMPDEST PUSH2 0x61 JUMP JUMPDEST PUSH1 0x40 MLOAD PUSH2 0x58 SWAP3 SWAP2 SWAP1 PUSH2 0x5CE JUMP JUMPDEST PUSH1 0x40 MLOAD DUP1 SWAP2 SUB SWAP1 RETURN JUMPDEST PUSH1 0x60 PUSH1 0x0 PUSH2 0x6E DUP4 PUSH2 0x77 JUMP JUMPDEST SWAP2 POP SWAP2 POP SWAP2 POP SWAP2 JUMP JUMPDEST PUSH1 0x60 PUSH1 0x0 DUP1 PUSH1 0x0 SWAP1 POP PUSH1 0x0 DUP5 SWAP1 POP PUSH1 0x0 DUP2 MLOAD SWAP1 POP PUSH1 0x2 DUP2 PUSH2 0x98 SWAP2 SWAP1 PUSH2 0x637 JUMP JUMPDEST PUSH8 0xFFFFFFFFFFFFFFFF DUP2 GT ISZERO PUSH2 0xB1 JUMPI PUSH2 0xB0 PUSH2 0x3C2 JUMP JUMPDEST JUMPDEST PUSH1 0x40 MLOAD SWAP1 DUP1 DUP3 MSTORE DUP1 PUSH1 0x1F ADD PUSH1 0x1F NOT AND PUSH1 0x20 ADD DUP3 ADD PUSH1 0x40 MSTORE DUP1 ISZERO PUSH2 0xE3 JUMPI DUP2 PUSH1 0x20 ADD PUSH1 0x1 DUP3 MUL DUP1 CALLDATASIZE DUP4 CALLDATACOPY DUP1 DUP3 ADD SWAP2 POP POP SWAP1 POP JUMPDEST POP SWAP5 POP PUSH1 0x0 DUP1 SHL SWAP4 POP PUSH1 0x0 DUP2 SUB PUSH2 0x144 JUMPI PUSH1 0x0 PUSH1 0xF8 SHL DUP6 PUSH1 0x0 DUP2 MLOAD DUP2 LT PUSH2 0x10D JUMPI PUSH2 0x10C PUSH2 0x66B JUMP JUMPDEST JUMPDEST PUSH1 0x20 ADD ADD SWAP1 PUSH31 0xFFFFFFFFFFFFFFFFFFFFFFFFFFFFFFFFFFFFFFFFFFFFFFFFFFFFFFFFFFFFFF NOT AND SWAP1 DUP2 PUSH1 0x0 BYTE SWAP1 MSTORE8 POP POP POP POP PUSH2 0x362 JUMP JUMPDEST PUSH1 0x0 PUSH1 0x1 DUP3 SUB SWAP1 POP JUMPDEST PUSH1 0x0 DUP2 LT PUSH2 0x2D3 JUMPI PUSH32 0x2E00000000000000000000000000000000000000000000000000000000000000 DUP4 DUP3 DUP2 MLOAD DUP2 LT PUSH2 0x189 JUMPI PUSH2 0x188 PUSH2 0x66B JUMP JUMPDEST JUMPDEST PUSH1 0x20 ADD ADD MLOAD PUSH1 0xF8 SHR PUSH1 0xF8 SHL PUSH31 0xFFFFFFFFFFFFFFFFFFFFFFFFFFFFFFFFFFFFFFFFFFFFFFFFFFFFFFFFFFFFFF NOT AND SUB PUSH2 0x252 JUMPI DUP4 PUSH1 0xF8 SHL DUP7 PUSH1 0x1 DUP4 ADD DUP2 MLOAD DUP2 LT PUSH2 0x1D5 JUMPI PUSH2 0x1D4 PUSH2 0x66B JUMP JUMPDEST JUMPDEST PUSH1 0x20 ADD ADD SWAP1 PUSH31 0xFFFFFFFFFFFFFFFFFFFFFFFFFFFFFFFFFFFFFFFFFFFFFFFFFFFFFFFFFFFFFF NOT AND SWAP1 DUP2 PUSH1 0x0 BYTE SWAP1 MSTORE8 POP DUP5 PUSH2 0x220 PUSH1 0x1 DUP4 ADD DUP7 PUSH1 0xFF AND DUP7 PUSH2 0x367 SWAP1 SWAP3 SWAP2 SWAP1 PUSH4 0xFFFFFFFF AND JUMP JUMPDEST PUSH1 0x40 MLOAD PUSH1 0x20 ADD PUSH2 0x231 SWAP3 SWAP2 SWAP1 PUSH2 0x6BB JUMP JUMPDEST PUSH1 0x40 MLOAD PUSH1 0x20 DUP2 DUP4 SUB SUB DUP2 MSTORE SWAP1 PUSH1 0x40 MSTORE DUP1 MLOAD SWAP1 PUSH1 0x20 ADD KECCAK256 SWAP5 POP PUSH1 0x0 SWAP4 POP PUSH2 0x2BC JUMP JUMPDEST PUSH1 0x1 DUP5 ADD SWAP4 POP DUP3 DUP2 DUP2 MLOAD DUP2 LT PUSH2 0x26B JUMPI PUSH2 0x26A PUSH2 0x66B JUMP JUMPDEST JUMPDEST PUSH1 0x20 ADD ADD MLOAD PUSH1 0xF8 SHR PUSH1 0xF8 SHL DUP7 PUSH1 0x1 DUP4 ADD DUP2 MLOAD DUP2 LT PUSH2 0x28C JUMPI PUSH2 0x28B PUSH2 0x66B JUMP JUMPDEST JUMPDEST PUSH1 0x20 ADD ADD SWAP1 PUSH31 0xFFFFFFFFFFFFFFFFFFFFFFFFFFFFFFFFFFFFFFFFFFFFFFFFFFFFFFFFFFFFFF NOT AND SWAP1 DUP2 PUSH1 0x0 BYTE SWAP1 MSTORE8 POP JUMPDEST PUSH1 0x0 DUP2 SUB ISZERO PUSH2 0x2D3 JUMPI DUP1 DUP1 PUSH1 0x1 SWAP1 SUB SWAP2 POP POP PUSH2 0x14D JUMP JUMPDEST POP DUP4 PUSH2 0x2EE PUSH1 0x0 DUP6 PUSH1 0xFF AND DUP6 PUSH2 0x367 SWAP1 SWAP3 SWAP2 SWAP1 PUSH4 0xFFFFFFFF AND JUMP JUMPDEST PUSH1 0x40 MLOAD PUSH1 0x20 ADD PUSH2 0x2FF SWAP3 SWAP2 SWAP1 PUSH2 0x6BB JUMP JUMPDEST PUSH1 0x40 MLOAD PUSH1 0x20 DUP2 DUP4 SUB SUB DUP2 MSTORE SWAP1 PUSH1 0x40 MSTORE DUP1 MLOAD SWAP1 PUSH1 0x20 ADD KECCAK256 SWAP4 POP DUP3 PUSH1 0xF8 SHL DUP6 PUSH1 0x0 DUP2 MLOAD DUP2 LT PUSH2 0x32F JUMPI PUSH2 0x32E PUSH2 0x66B JUMP JUMPDEST JUMPDEST PUSH1 0x20 ADD ADD SWAP1 PUSH31 0xFFFFFFFFFFFFFFFFFFFFFFFFFFFFFFFFFFFFFFFFFFFFFFFFFFFFFFFFFFFFFF NOT AND SWAP1 DUP2 PUSH1 0x0 BYTE SWAP1 MSTORE8 POP POP POP POP JUMPDEST SWAP2 POP SWAP2 JUMP JUMPDEST PUSH1 0x0 DUP4 MLOAD DUP3 DUP5 PUSH2 0x377 SWAP2 SWAP1 PUSH2 0x637 JUMP JUMPDEST GT ISZERO PUSH2 0x382 JUMPI PUSH1 0x0 DUP1 REVERT JUMPDEST DUP2 DUP4 PUSH1 0x20 DUP7 ADD ADD KECCAK256 SWAP1 POP SWAP4 SWAP3 POP POP POP JUMP JUMPDEST PUSH1 0x0 PUSH1 0x40 MLOAD SWAP1 POP SWAP1 JUMP JUMPDEST PUSH1 0x0 DUP1 REVERT JUMPDEST PUSH1 0x0 DUP1 REVERT JUMPDEST PUSH1 0x0 DUP1 REVERT JUMPDEST PUSH1 0x0 DUP1 REVERT JUMPDEST PUSH1 0x0 PUSH1 0x1F NOT PUSH1 0x1F DUP4 ADD AND SWAP1 POP SWAP2 SWAP1 POP JUMP JUMPDEST PUSH32 0x4E487B7100000000000000000000000000000000000000000000000000000000 PUSH1 0x0 MSTORE PUSH1 0x41 PUSH1 0x4 MSTORE PUSH1 0x24 PUSH1 0x0 REVERT JUMPDEST PUSH2 0x3FA DUP3 PUSH2 0x3B1 JUMP JUMPDEST DUP2 ADD DUP2 DUP2 LT PUSH8 0xFFFFFFFFFFFFFFFF DUP3 GT OR ISZERO PUSH2 0x419 JUMPI PUSH2 0x418 PUSH2 0x3C2 JUMP JUMPDEST JUMPDEST DUP1 PUSH1 0x40 MSTORE POP POP POP JUMP JUMPDEST PUSH1 0x0 PUSH2 0x42C PUSH2 0x393 JUMP JUMPDEST SWAP1 POP PUSH2 0x438 DUP3 DUP3 PUSH2 0x3F1 JUMP JUMPDEST SWAP2 SWAP1 POP JUMP JUMPDEST PUSH1 0x0 PUSH8 0xFFFFFFFFFFFFFFFF DUP3 GT ISZERO PUSH2 0x458 JUMPI PUSH2 0x457 PUSH2 0x3C2 JUMP JUMPDEST JUMPDEST PUSH2 0x461 DUP3 PUSH2 0x3B1 JUMP JUMPDEST SWAP1 POP PUSH1 0x20 DUP2 ADD SWAP1 POP SWAP2 SWAP1 POP JUMP JUMPDEST DUP3 DUP2 DUP4 CALLDATACOPY PUSH1 0x0 DUP4 DUP4 ADD MSTORE POP POP POP JUMP JUMPDEST PUSH1 0x0 PUSH2 0x490 PUSH2 0x48B DUP5 PUSH2 0x43D JUMP JUMPDEST PUSH2 0x422 JUMP JUMPDEST SWAP1 POP DUP3 DUP2 MSTORE PUSH1 0x20 DUP2 ADD DUP5 DUP5 DUP5 ADD GT ISZERO PUSH2 0x4AC JUMPI PUSH2 0x4AB PUSH2 0x3AC JUMP JUMPDEST JUMPDEST PUSH2 0x4B7 DUP5 DUP3 DUP6 PUSH2 0x46E JUMP JUMPDEST POP SWAP4 SWAP3 POP POP POP JUMP JUMPDEST PUSH1 0x0 DUP3 PUSH1 0x1F DUP4 ADD SLT PUSH2 0x4D4 JUMPI PUSH2 0x4D3 PUSH2 0x3A7 JUMP JUMPDEST JUMPDEST DUP2 CALLDATALOAD PUSH2 0x4E4 DUP5 DUP3 PUSH1 0x20 DUP7 ADD PUSH2 0x47D JUMP JUMPDEST SWAP2 POP POP SWAP3 SWAP2 POP POP JUMP JUMPDEST PUSH1 0x0 PUSH1 0x20 DUP3 DUP5 SUB SLT ISZERO PUSH2 0x503 JUMPI PUSH2 0x502 PUSH2 0x39D JUMP JUMPDEST JUMPDEST PUSH1 0x0 DUP3 ADD CALLDATALOAD PUSH8 0xFFFFFFFFFFFFFFFF DUP2 GT ISZERO PUSH2 0x521 JUMPI PUSH2 0x520 PUSH2 0x3A2 JUMP JUMPDEST JUMPDEST PUSH2 0x52D DUP5 DUP3 DUP6 ADD PUSH2 0x4BF JUMP JUMPDEST SWAP2 POP POP SWAP3 SWAP2 POP POP JUMP JUMPDEST PUSH1 0x0 DUP2 MLOAD SWAP1 POP SWAP2 SWAP1 POP JUMP JUMPDEST PUSH1 0x0 DUP3 DUP3 MSTORE PUSH1 0x20 DUP3 ADD SWAP1 POP SWAP3 SWAP2 POP POP JUMP JUMPDEST PUSH1 0x0 JUMPDEST DUP4 DUP2 LT ISZERO PUSH2 0x570 JUMPI DUP1 DUP3 ADD MLOAD DUP2 DUP5 ADD MSTORE PUSH1 0x20 DUP2 ADD SWAP1 POP PUSH2 0x555 JUMP JUMPDEST PUSH1 0x0 DUP5 DUP5 ADD MSTORE POP POP POP POP JUMP JUMPDEST PUSH1 0x0 PUSH2 0x587 DUP3 PUSH2 0x536 JUMP JUMPDEST PUSH2 0x591 DUP2 DUP6 PUSH2 0x541 JUMP JUMPDEST SWAP4 POP PUSH2 0x5A1 DUP2 DUP6 PUSH1 0x20 DUP7 ADD PUSH2 0x552 JUMP JUMPDEST PUSH2 0x5AA DUP2 PUSH2 0x3B1 JUMP JUMPDEST DUP5 ADD SWAP2 POP POP SWAP3 SWAP2 POP POP JUMP JUMPDEST PUSH1 0x0 DUP2 SWAP1 POP SWAP2 SWAP1 POP JUMP JUMPDEST PUSH2 0x5C8 DUP2 PUSH2 0x5B5 JUMP JUMPDEST DUP3 MSTORE POP POP JUMP JUMPDEST PUSH1 0x0 PUSH1 0x40 DUP3 ADD SWAP1 POP DUP2 DUP2 SUB PUSH1 0x0 DUP4 ADD MSTORE PUSH2 0x5E8 DUP2 DUP6 PUSH2 0x57C JUMP JUMPDEST SWAP1 POP PUSH2 0x5F7 PUSH1 0x20 DUP4 ADD DUP5 PUSH2 0x5BF JUMP JUMPDEST SWAP4 SWAP3 POP POP POP JUMP JUMPDEST PUSH1 0x0 DUP2 SWAP1 POP SWAP2 SWAP1 POP JUMP JUMPDEST PUSH32 0x4E487B7100000000000000000000000000000000000000000000000000000000 PUSH1 0x0 MSTORE PUSH1 0x11 PUSH1 0x4 MSTORE PUSH1 0x24 PUSH1 0x0 REVERT JUMPDEST PUSH1 0x0 PUSH2 0x642 DUP3 PUSH2 0x5FE JUMP JUMPDEST SWAP2 POP PUSH2 0x64D DUP4 PUSH2 0x5FE JUMP JUMPDEST SWAP3 POP DUP3 DUP3 ADD SWAP1 POP DUP1 DUP3 GT ISZERO PUSH2 0x665 JUMPI PUSH2 0x664 PUSH2 0x608 JUMP JUMPDEST JUMPDEST SWAP3 SWAP2 POP POP JUMP JUMPDEST PUSH32 0x4E487B7100000000000000000000000000000000000000000000000000000000 PUSH1 0x0 MSTORE PUSH1 0x32 PUSH1 0x4 MSTORE PUSH1 0x24 PUSH1 0x0 REVERT JUMPDEST PUSH1 0x0 DUP2 SWAP1 POP SWAP2 SWAP1 POP JUMP JUMPDEST PUSH2 0x6B5 PUSH2 0x6B0 DUP3 PUSH2 0x5B5 JUMP JUMPDEST PUSH2 0x69A JUMP JUMPDEST DUP3 MSTORE POP POP JUMP JUMPDEST PUSH1 0x0 PUSH2 0x6C7 DUP3 DUP6 PUSH2 0x6A4 JUMP JUMPDEST PUSH1 0x20 DUP3 ADD SWAP2 POP PUSH2 0x6D7 DUP3 DUP5 PUSH2 0x6A4 JUMP JUMPDEST PUSH1 0x20 DUP3 ADD SWAP2 POP DUP2 SWAP1 POP SWAP4 SWAP3 POP POP POP JUMP INVALID LOG2 PUSH5 0x6970667358 0x22 SLT KECCAK256 0xEE 0xDB 0xDA 0xEB 0xF6 0xA7 LOG4 0x4B DUP4 0xC8 0xD6 PC ADDMOD PUSH23 0xE8991C5B1AC62D6798A8CF8E7DFAECA58BD264736F6C63 NUMBER STOP ADDMOD SHL STOP CALLER "
				},
				"gasEstimates": {
					"creation": {
						"codeDepositCost": "364200",
						"executionCost": "399",
						"totalCost": "364599"
					},
					"external": {
						"encodeName(string)": "infinite"
					}
				},
				"methodIdentifiers": {
					"encodeName(string)": "18d321ca"
				}
			},
			"storageLayout": {
				"storage": [],
				"types": null
			},
			"userdoc": {
				"kind": "user",
				"methods": {},
				"version": 1
			}
		}
	}
}