{
	"package/contracts/utils/DummyRevertResolver.sol": {
		"DummyRevertResolver": {
			"abi": [
				{
					"inputs": [
						{
							"internalType": "bytes",
							"name": "",
							"type": "bytes"
						},
						{
							"internalType": "bytes",
							"name": "",
							"type": "bytes"
						}
					],
					"name": "resolve",
					"outputs": [
						{
							"internalType": "bytes",
							"name": "",
							"type": "bytes"
						}
					],
					"stateMutability": "pure",
					"type": "function"
				},
				{
					"inputs": [
						{
							"internalType": "bytes4",
							"name": "",
							"type": "bytes4"
						}
					],
					"name": "supportsInterface",
					"outputs": [
						{
							"internalType": "bool",
							"name": "",
							"type": "bool"
						}
					],
					"stateMutability": "pure",
					"type": "function"
				}
			],
			"devdoc": {
				"kind": "dev",
				"methods": {},
				"version": 1
			},
			"evm": {
				"assembly": "    /* \"package/contracts/utils/DummyRevertResolver.sol\":66:311  contract DummyRevertResolver {... */\n  mstore(0x40, 0x80)\n  callvalue\n  dup1\n  iszero\n  tag_1\n  jumpi\n  0x00\n  dup1\n  revert\ntag_1:\n  pop\n  dataSize(sub_0)\n  dup1\n  dataOffset(sub_0)\n  0x00\n  codecopy\n  0x00\n  return\nstop\n\nsub_0: assembly {\n        /* \"package/contracts/utils/DummyRevertResolver.sol\":66:311  contract DummyRevertResolver {... */\n      mstore(0x40, 0x80)\n      callvalue\n      dup1\n      iszero\n      tag_1\n      jumpi\n      0x00\n      dup1\n      revert\n    tag_1:\n      pop\n      jumpi(tag_2, lt(calldatasize, 0x04))\n      shr(0xe0, calldataload(0x00))\n      dup1\n      0x01ffc9a7\n      eq\n      tag_3\n      jumpi\n      dup1\n      0x9061b923\n      eq\n      tag_4\n      jumpi\n    tag_2:\n      0x00\n      dup1\n      revert\n        /* \"package/contracts/utils/DummyRevertResolver.sol\":223:309  function supportsInterface(bytes4) external pure returns (bool) {... */\n    tag_3:\n      tag_5\n      0x04\n      dup1\n      calldatasize\n      sub\n      dup2\n      add\n      swap1\n      tag_6\n      swap2\n      swap1\n      tag_7\n      jump\t// in\n    tag_6:\n      tag_8\n      jump\t// in\n    tag_5:\n      mload(0x40)\n      tag_9\n      swap2\n      swap1\n      tag_10\n      jump\t// in\n    tag_9:\n      mload(0x40)\n      dup1\n      swap2\n      sub\n      swap1\n      return\n        /* \"package/contracts/utils/DummyRevertResolver.sol\":99:219  function resolve(bytes calldata, bytes calldata) external pure returns (bytes memory) {... */\n    tag_4:\n      tag_11\n      0x04\n      dup1\n      calldatasize\n      sub\n      dup2\n      add\n      swap1\n      tag_12\n      swap2\n      swap1\n      tag_13\n      jump\t// in\n    tag_12:\n      tag_14\n      jump\t// in\n    tag_11:\n      mload(0x40)\n      tag_15\n      swap2\n      swap1\n      tag_16\n      jump\t// in\n    tag_15:\n      mload(0x40)\n      dup1\n      swap2\n      sub\n      swap1\n      return\n        /* \"package/contracts/utils/DummyRevertResolver.sol\":223:309  function supportsInterface(bytes4) external pure returns (bool) {... */\n    tag_8:\n        /* \"package/contracts/utils/DummyRevertResolver.sol\":281:285  bool */\n      0x00\n        /* \"package/contracts/utils/DummyRevertResolver.sol\":300:304  true */\n      0x01\n        /* \"package/contracts/utils/DummyRevertResolver.sol\":293:304  return true */\n      swap1\n      pop\n        /* \"package/contracts/utils/DummyRevertResolver.sol\":223:309  function supportsInterface(bytes4) external pure returns (bool) {... */\n      swap2\n      swap1\n      pop\n      jump\t// out\n        /* \"package/contracts/utils/DummyRevertResolver.sol\":99:219  function resolve(bytes calldata, bytes calldata) external pure returns (bytes memory) {... */\n    tag_14:\n        /* \"package/contracts/utils/DummyRevertResolver.sol\":171:183  bytes memory */\n      0x60\n        /* \"package/contracts/utils/DummyRevertResolver.sol\":191:214  revert(\"Not Supported\") */\n      mload(0x40)\n      0x08c379a000000000000000000000000000000000000000000000000000000000\n      dup2\n      mstore\n      0x04\n      add\n      tag_19\n      swap1\n      tag_20\n      jump\t// in\n    tag_19:\n      mload(0x40)\n      dup1\n      swap2\n      sub\n      swap1\n      revert\n        /* \"#utility.yul\":88:205   */\n    tag_22:\n        /* \"#utility.yul\":197:198   */\n      0x00\n        /* \"#utility.yul\":194:195   */\n      dup1\n        /* \"#utility.yul\":187:199   */\n      revert\n        /* \"#utility.yul\":211:328   */\n    tag_23:\n        /* \"#utility.yul\":320:321   */\n      0x00\n        /* \"#utility.yul\":317:318   */\n      dup1\n        /* \"#utility.yul\":310:322   */\n      revert\n        /* \"#utility.yul\":334:483   */\n    tag_24:\n        /* \"#utility.yul\":370:377   */\n      0x00\n        /* \"#utility.yul\":410:476   */\n      0xffffffff00000000000000000000000000000000000000000000000000000000\n        /* \"#utility.yul\":403:408   */\n      dup3\n        /* \"#utility.yul\":399:477   */\n      and\n        /* \"#utility.yul\":388:477   */\n      swap1\n      pop\n        /* \"#utility.yul\":334:483   */\n      swap2\n      swap1\n      pop\n      jump\t// out\n        /* \"#utility.yul\":489:609   */\n    tag_25:\n        /* \"#utility.yul\":561:584   */\n      tag_47\n        /* \"#utility.yul\":578:583   */\n      dup2\n        /* \"#utility.yul\":561:584   */\n      tag_24\n      jump\t// in\n    tag_47:\n        /* \"#utility.yul\":554:559   */\n      dup2\n        /* \"#utility.yul\":551:585   */\n      eq\n        /* \"#utility.yul\":541:603   */\n      tag_48\n      jumpi\n        /* \"#utility.yul\":599:600   */\n      0x00\n        /* \"#utility.yul\":596:597   */\n      dup1\n        /* \"#utility.yul\":589:601   */\n      revert\n        /* \"#utility.yul\":541:603   */\n    tag_48:\n        /* \"#utility.yul\":489:609   */\n      pop\n      jump\t// out\n        /* \"#utility.yul\":615:752   */\n    tag_26:\n        /* \"#utility.yul\":660:665   */\n      0x00\n        /* \"#utility.yul\":698:704   */\n      dup2\n        /* \"#utility.yul\":685:705   */\n      calldataload\n        /* \"#utility.yul\":676:705   */\n      swap1\n      pop\n        /* \"#utility.yul\":714:746   */\n      tag_50\n        /* \"#utility.yul\":740:745   */\n      dup2\n        /* \"#utility.yul\":714:746   */\n      tag_25\n      jump\t// in\n    tag_50:\n        /* \"#utility.yul\":615:752   */\n      swap3\n      swap2\n      pop\n      pop\n      jump\t// out\n        /* \"#utility.yul\":758:1085   */\n    tag_7:\n        /* \"#utility.yul\":816:822   */\n      0x00\n        /* \"#utility.yul\":865:867   */\n      0x20\n        /* \"#utility.yul\":853:862   */\n      dup3\n        /* \"#utility.yul\":844:851   */\n      dup5\n        /* \"#utility.yul\":840:863   */\n      sub\n        /* \"#utility.yul\":836:868   */\n      slt\n        /* \"#utility.yul\":833:952   */\n      iszero\n      tag_52\n      jumpi\n        /* \"#utility.yul\":871:950   */\n      tag_53\n      tag_22\n      jump\t// in\n    tag_53:\n        /* \"#utility.yul\":833:952   */\n    tag_52:\n        /* \"#utility.yul\":991:992   */\n      0x00\n        /* \"#utility.yul\":1016:1068   */\n      tag_54\n        /* \"#utility.yul\":1060:1067   */\n      dup5\n        /* \"#utility.yul\":1051:1057   */\n      dup3\n        /* \"#utility.yul\":1040:1049   */\n      dup6\n        /* \"#utility.yul\":1036:1058   */\n      add\n        /* \"#utility.yul\":1016:1068   */\n      tag_26\n      jump\t// in\n    tag_54:\n        /* \"#utility.yul\":1006:1068   */\n      swap2\n      pop\n        /* \"#utility.yul\":962:1078   */\n      pop\n        /* \"#utility.yul\":758:1085   */\n      swap3\n      swap2\n      pop\n      pop\n      jump\t// out\n        /* \"#utility.yul\":1091:1181   */\n    tag_27:\n        /* \"#utility.yul\":1125:1132   */\n      0x00\n        /* \"#utility.yul\":1168:1173   */\n      dup2\n        /* \"#utility.yul\":1161:1174   */\n      iszero\n        /* \"#utility.yul\":1154:1175   */\n      iszero\n        /* \"#utility.yul\":1143:1175   */\n      swap1\n      pop\n        /* \"#utility.yul\":1091:1181   */\n      swap2\n      swap1\n      pop\n      jump\t// out\n        /* \"#utility.yul\":1187:1296   */\n    tag_28:\n        /* \"#utility.yul\":1268:1289   */\n      tag_57\n        /* \"#utility.yul\":1283:1288   */\n      dup2\n        /* \"#utility.yul\":1268:1289   */\n      tag_27\n      jump\t// in\n    tag_57:\n        /* \"#utility.yul\":1263:1266   */\n      dup3\n        /* \"#utility.yul\":1256:1290   */\n      mstore\n        /* \"#utility.yul\":1187:1296   */\n      pop\n      pop\n      jump\t// out\n        /* \"#utility.yul\":1302:1512   */\n    tag_10:\n        /* \"#utility.yul\":1389:1393   */\n      0x00\n        /* \"#utility.yul\":1427:1429   */\n      0x20\n        /* \"#utility.yul\":1416:1425   */\n      dup3\n        /* \"#utility.yul\":1412:1430   */\n      add\n        /* \"#utility.yul\":1404:1430   */\n      swap1\n      pop\n        /* \"#utility.yul\":1440:1505   */\n      tag_59\n        /* \"#utility.yul\":1502:1503   */\n      0x00\n        /* \"#utility.yul\":1491:1500   */\n      dup4\n        /* \"#utility.yul\":1487:1504   */\n      add\n        /* \"#utility.yul\":1478:1484   */\n      dup5\n        /* \"#utility.yul\":1440:1505   */\n      tag_28\n      jump\t// in\n    tag_59:\n        /* \"#utility.yul\":1302:1512   */\n      swap3\n      swap2\n      pop\n      pop\n      jump\t// out\n        /* \"#utility.yul\":1518:1635   */\n    tag_29:\n        /* \"#utility.yul\":1627:1628   */\n      0x00\n        /* \"#utility.yul\":1624:1625   */\n      dup1\n        /* \"#utility.yul\":1617:1629   */\n      revert\n        /* \"#utility.yul\":1641:1758   */\n    tag_30:\n        /* \"#utility.yul\":1750:1751   */\n      0x00\n        /* \"#utility.yul\":1747:1748   */\n      dup1\n        /* \"#utility.yul\":1740:1752   */\n      revert\n        /* \"#utility.yul\":1764:1881   */\n    tag_31:\n        /* \"#utility.yul\":1873:1874   */\n      0x00\n        /* \"#utility.yul\":1870:1871   */\n      dup1\n        /* \"#utility.yul\":1863:1875   */\n      revert\n        /* \"#utility.yul\":1900:2452   */\n    tag_32:\n        /* \"#utility.yul\":1957:1965   */\n      0x00\n        /* \"#utility.yul\":1967:1973   */\n      dup1\n        /* \"#utility.yul\":2017:2020   */\n      dup4\n        /* \"#utility.yul\":2010:2014   */\n      0x1f\n        /* \"#utility.yul\":2002:2008   */\n      dup5\n        /* \"#utility.yul\":1998:2015   */\n      add\n        /* \"#utility.yul\":1994:2021   */\n      slt\n        /* \"#utility.yul\":1984:2106   */\n      tag_64\n      jumpi\n        /* \"#utility.yul\":2025:2104   */\n      tag_65\n      tag_29\n      jump\t// in\n    tag_65:\n        /* \"#utility.yul\":1984:2106   */\n    tag_64:\n        /* \"#utility.yul\":2138:2144   */\n      dup3\n        /* \"#utility.yul\":2125:2145   */\n      calldataload\n        /* \"#utility.yul\":2115:2145   */\n      swap1\n      pop\n        /* \"#utility.yul\":2168:2186   */\n      0xffffffffffffffff\n        /* \"#utility.yul\":2160:2166   */\n      dup2\n        /* \"#utility.yul\":2157:2187   */\n      gt\n        /* \"#utility.yul\":2154:2271   */\n      iszero\n      tag_66\n      jumpi\n        /* \"#utility.yul\":2190:2269   */\n      tag_67\n      tag_30\n      jump\t// in\n    tag_67:\n        /* \"#utility.yul\":2154:2271   */\n    tag_66:\n        /* \"#utility.yul\":2304:2308   */\n      0x20\n        /* \"#utility.yul\":2296:2302   */\n      dup4\n        /* \"#utility.yul\":2292:2309   */\n      add\n        /* \"#utility.yul\":2280:2309   */\n      swap2\n      pop\n        /* \"#utility.yul\":2358:2361   */\n      dup4\n        /* \"#utility.yul\":2350:2354   */\n      0x01\n        /* \"#utility.yul\":2342:2348   */\n      dup3\n        /* \"#utility.yul\":2338:2355   */\n      mul\n        /* \"#utility.yul\":2328:2336   */\n      dup4\n        /* \"#utility.yul\":2324:2356   */\n      add\n        /* \"#utility.yul\":2321:2362   */\n      gt\n        /* \"#utility.yul\":2318:2446   */\n      iszero\n      tag_68\n      jumpi\n        /* \"#utility.yul\":2365:2444   */\n      tag_69\n      tag_31\n      jump\t// in\n    tag_69:\n        /* \"#utility.yul\":2318:2446   */\n    tag_68:\n        /* \"#utility.yul\":1900:2452   */\n      swap3\n      pop\n      swap3\n      swap1\n      pop\n      jump\t// out\n        /* \"#utility.yul\":2458:3328   */\n    tag_13:\n        /* \"#utility.yul\":2548:2554   */\n      0x00\n        /* \"#utility.yul\":2556:2562   */\n      dup1\n        /* \"#utility.yul\":2564:2570   */\n      0x00\n        /* \"#utility.yul\":2572:2578   */\n      dup1\n        /* \"#utility.yul\":2621:2623   */\n      0x40\n        /* \"#utility.yul\":2609:2618   */\n      dup6\n        /* \"#utility.yul\":2600:2607   */\n      dup8\n        /* \"#utility.yul\":2596:2619   */\n      sub\n        /* \"#utility.yul\":2592:2624   */\n      slt\n        /* \"#utility.yul\":2589:2708   */\n      iszero\n      tag_71\n      jumpi\n        /* \"#utility.yul\":2627:2706   */\n      tag_72\n      tag_22\n      jump\t// in\n    tag_72:\n        /* \"#utility.yul\":2589:2708   */\n    tag_71:\n        /* \"#utility.yul\":2775:2776   */\n      0x00\n        /* \"#utility.yul\":2764:2773   */\n      dup6\n        /* \"#utility.yul\":2760:2777   */\n      add\n        /* \"#utility.yul\":2747:2778   */\n      calldataload\n        /* \"#utility.yul\":2805:2823   */\n      0xffffffffffffffff\n        /* \"#utility.yul\":2797:2803   */\n      dup2\n        /* \"#utility.yul\":2794:2824   */\n      gt\n        /* \"#utility.yul\":2791:2908   */\n      iszero\n      tag_73\n      jumpi\n        /* \"#utility.yul\":2827:2906   */\n      tag_74\n      tag_23\n      jump\t// in\n    tag_74:\n        /* \"#utility.yul\":2791:2908   */\n    tag_73:\n        /* \"#utility.yul\":2940:3004   */\n      tag_75\n        /* \"#utility.yul\":2996:3003   */\n      dup8\n        /* \"#utility.yul\":2987:2993   */\n      dup3\n        /* \"#utility.yul\":2976:2985   */\n      dup9\n        /* \"#utility.yul\":2972:2994   */\n      add\n        /* \"#utility.yul\":2940:3004   */\n      tag_32\n      jump\t// in\n    tag_75:\n        /* \"#utility.yul\":2922:3004   */\n      swap5\n      pop\n      swap5\n      pop\n        /* \"#utility.yul\":2718:3014   */\n      pop\n        /* \"#utility.yul\":3081:3083   */\n      0x20\n        /* \"#utility.yul\":3070:3079   */\n      dup6\n        /* \"#utility.yul\":3066:3084   */\n      add\n        /* \"#utility.yul\":3053:3085   */\n      calldataload\n        /* \"#utility.yul\":3112:3130   */\n      0xffffffffffffffff\n        /* \"#utility.yul\":3104:3110   */\n      dup2\n        /* \"#utility.yul\":3101:3131   */\n      gt\n        /* \"#utility.yul\":3098:3215   */\n      iszero\n      tag_76\n      jumpi\n        /* \"#utility.yul\":3134:3213   */\n      tag_77\n      tag_23\n      jump\t// in\n    tag_77:\n        /* \"#utility.yul\":3098:3215   */\n    tag_76:\n        /* \"#utility.yul\":3247:3311   */\n      tag_78\n        /* \"#utility.yul\":3303:3310   */\n      dup8\n        /* \"#utility.yul\":3294:3300   */\n      dup3\n        /* \"#utility.yul\":3283:3292   */\n      dup9\n        /* \"#utility.yul\":3279:3301   */\n      add\n        /* \"#utility.yul\":3247:3311   */\n      tag_32\n      jump\t// in\n    tag_78:\n        /* \"#utility.yul\":3229:3311   */\n      swap3\n      pop\n      swap3\n      pop\n        /* \"#utility.yul\":3024:3321   */\n      pop\n        /* \"#utility.yul\":2458:3328   */\n      swap3\n      swap6\n      swap2\n      swap5\n      pop\n      swap3\n      pop\n      jump\t// out\n        /* \"#utility.yul\":3334:3432   */\n    tag_33:\n        /* \"#utility.yul\":3385:3391   */\n      0x00\n        /* \"#utility.yul\":3419:3424   */\n      dup2\n        /* \"#utility.yul\":3413:3425   */\n      mload\n        /* \"#utility.yul\":3403:3425   */\n      swap1\n      pop\n        /* \"#utility.yul\":3334:3432   */\n      swap2\n      swap1\n      pop\n      jump\t// out\n        /* \"#utility.yul\":3438:3606   */\n    tag_34:\n        /* \"#utility.yul\":3521:3532   */\n      0x00\n        /* \"#utility.yul\":3555:3561   */\n      dup3\n        /* \"#utility.yul\":3550:3553   */\n      dup3\n        /* \"#utility.yul\":3543:3562   */\n      mstore\n        /* \"#utility.yul\":3595:3599   */\n      0x20\n        /* \"#utility.yul\":3590:3593   */\n      dup3\n        /* \"#utility.yul\":3586:3600   */\n      add\n        /* \"#utility.yul\":3571:3600   */\n      swap1\n      pop\n        /* \"#utility.yul\":3438:3606   */\n      swap3\n      swap2\n      pop\n      pop\n      jump\t// out\n        /* \"#utility.yul\":3612:3860   */\n    tag_35:\n        /* \"#utility.yul\":3694:3695   */\n      0x00\n        /* \"#utility.yul\":3704:3817   */\n    tag_82:\n        /* \"#utility.yul\":3718:3724   */\n      dup4\n        /* \"#utility.yul\":3715:3716   */\n      dup2\n        /* \"#utility.yul\":3712:3725   */\n      lt\n        /* \"#utility.yul\":3704:3817   */\n      iszero\n      tag_84\n      jumpi\n        /* \"#utility.yul\":3803:3804   */\n      dup1\n        /* \"#utility.yul\":3798:3801   */\n      dup3\n        /* \"#utility.yul\":3794:3805   */\n      add\n        /* \"#utility.yul\":3788:3806   */\n      mload\n        /* \"#utility.yul\":3784:3785   */\n      dup2\n        /* \"#utility.yul\":3779:3782   */\n      dup5\n        /* \"#utility.yul\":3775:3786   */\n      add\n        /* \"#utility.yul\":3768:3807   */\n      mstore\n        /* \"#utility.yul\":3740:3742   */\n      0x20\n        /* \"#utility.yul\":3737:3738   */\n      dup2\n        /* \"#utility.yul\":3733:3743   */\n      add\n        /* \"#utility.yul\":3728:3743   */\n      swap1\n      pop\n        /* \"#utility.yul\":3704:3817   */\n      jump(tag_82)\n    tag_84:\n        /* \"#utility.yul\":3851:3852   */\n      0x00\n        /* \"#utility.yul\":3842:3848   */\n      dup5\n        /* \"#utility.yul\":3837:3840   */\n      dup5\n        /* \"#utility.yul\":3833:3849   */\n      add\n        /* \"#utility.yul\":3826:3853   */\n      mstore\n        /* \"#utility.yul\":3674:3860   */\n      pop\n        /* \"#utility.yul\":3612:3860   */\n      pop\n      pop\n      pop\n      jump\t// out\n        /* \"#utility.yul\":3866:3968   */\n    tag_36:\n        /* \"#utility.yul\":3907:3913   */\n      0x00\n        /* \"#utility.yul\":3958:3960   */\n      0x1f\n        /* \"#utility.yul\":3954:3961   */\n      not\n        /* \"#utility.yul\":3949:3951   */\n      0x1f\n        /* \"#utility.yul\":3942:3947   */\n      dup4\n        /* \"#utility.yul\":3938:3952   */\n      add\n        /* \"#utility.yul\":3934:3962   */\n      and\n        /* \"#utility.yul\":3924:3962   */\n      swap1\n      pop\n        /* \"#utility.yul\":3866:3968   */\n      swap2\n      swap1\n      pop\n      jump\t// out\n        /* \"#utility.yul\":3974:4347   */\n    tag_37:\n        /* \"#utility.yul\":4060:4063   */\n      0x00\n        /* \"#utility.yul\":4088:4126   */\n      tag_87\n        /* \"#utility.yul\":4120:4125   */\n      dup3\n        /* \"#utility.yul\":4088:4126   */\n      tag_33\n      jump\t// in\n    tag_87:\n        /* \"#utility.yul\":4142:4212   */\n      tag_88\n        /* \"#utility.yul\":4205:4211   */\n      dup2\n        /* \"#utility.yul\":4200:4203   */\n      dup6\n        /* \"#utility.yul\":4142:4212   */\n      tag_34\n      jump\t// in\n    tag_88:\n        /* \"#utility.yul\":4135:4212   */\n      swap4\n      pop\n        /* \"#utility.yul\":4221:4286   */\n      tag_89\n        /* \"#utility.yul\":4279:4285   */\n      dup2\n        /* \"#utility.yul\":4274:4277   */\n      dup6\n        /* \"#utility.yul\":4267:4271   */\n      0x20\n        /* \"#utility.yul\":4260:4265   */\n      dup7\n        /* \"#utility.yul\":4256:4272   */\n      add\n        /* \"#utility.yul\":4221:4286   */\n      tag_35\n      jump\t// in\n    tag_89:\n        /* \"#utility.yul\":4311:4340   */\n      tag_90\n        /* \"#utility.yul\":4333:4339   */\n      dup2\n        /* \"#utility.yul\":4311:4340   */\n      tag_36\n      jump\t// in\n    tag_90:\n        /* \"#utility.yul\":4306:4309   */\n      dup5\n        /* \"#utility.yul\":4302:4341   */\n      add\n        /* \"#utility.yul\":4295:4341   */\n      swap2\n      pop\n        /* \"#utility.yul\":4064:4347   */\n      pop\n        /* \"#utility.yul\":3974:4347   */\n      swap3\n      swap2\n      pop\n      pop\n      jump\t// out\n        /* \"#utility.yul\":4353:4662   */\n    tag_16:\n        /* \"#utility.yul\":4464:4468   */\n      0x00\n        /* \"#utility.yul\":4502:4504   */\n      0x20\n        /* \"#utility.yul\":4491:4500   */\n      dup3\n        /* \"#utility.yul\":4487:4505   */\n      add\n        /* \"#utility.yul\":4479:4505   */\n      swap1\n      pop\n        /* \"#utility.yul\":4551:4560   */\n      dup2\n        /* \"#utility.yul\":4545:4549   */\n      dup2\n        /* \"#utility.yul\":4541:4561   */\n      sub\n        /* \"#utility.yul\":4537:4538   */\n      0x00\n        /* \"#utility.yul\":4526:4535   */\n      dup4\n        /* \"#utility.yul\":4522:4539   */\n      add\n        /* \"#utility.yul\":4515:4562   */\n      mstore\n        /* \"#utility.yul\":4579:4655   */\n      tag_92\n        /* \"#utility.yul\":4650:4654   */\n      dup2\n        /* \"#utility.yul\":4641:4647   */\n      dup5\n        /* \"#utility.yul\":4579:4655   */\n      tag_37\n      jump\t// in\n    tag_92:\n        /* \"#utility.yul\":4571:4655   */\n      swap1\n      pop\n        /* \"#utility.yul\":4353:4662   */\n      swap3\n      swap2\n      pop\n      pop\n      jump\t// out\n        /* \"#utility.yul\":4668:4837   */\n    tag_38:\n        /* \"#utility.yul\":4752:4763   */\n      0x00\n        /* \"#utility.yul\":4786:4792   */\n      dup3\n        /* \"#utility.yul\":4781:4784   */\n      dup3\n        /* \"#utility.yul\":4774:4793   */\n      mstore\n        /* \"#utility.yul\":4826:4830   */\n      0x20\n        /* \"#utility.yul\":4821:4824   */\n      dup3\n        /* \"#utility.yul\":4817:4831   */\n      add\n        /* \"#utility.yul\":4802:4831   */\n      swap1\n      pop\n        /* \"#utility.yul\":4668:4837   */\n      swap3\n      swap2\n      pop\n      pop\n      jump\t// out\n        /* \"#utility.yul\":4843:5006   */\n    tag_39:\n        /* \"#utility.yul\":4983:4998   */\n      0x4e6f7420537570706f7274656400000000000000000000000000000000000000\n        /* \"#utility.yul\":4979:4980   */\n      0x00\n        /* \"#utility.yul\":4971:4977   */\n      dup3\n        /* \"#utility.yul\":4967:4981   */\n      add\n        /* \"#utility.yul\":4960:4999   */\n      mstore\n        /* \"#utility.yul\":4843:5006   */\n      pop\n      jump\t// out\n        /* \"#utility.yul\":5012:5378   */\n    tag_40:\n        /* \"#utility.yul\":5154:5157   */\n      0x00\n        /* \"#utility.yul\":5175:5242   */\n      tag_96\n        /* \"#utility.yul\":5239:5241   */\n      0x0d\n        /* \"#utility.yul\":5234:5237   */\n      dup4\n        /* \"#utility.yul\":5175:5242   */\n      tag_38\n      jump\t// in\n    tag_96:\n        /* \"#utility.yul\":5168:5242   */\n      swap2\n      pop\n        /* \"#utility.yul\":5251:5344   */\n      tag_97\n        /* \"#utility.yul\":5340:5343   */\n      dup3\n        /* \"#utility.yul\":5251:5344   */\n      tag_39\n      jump\t// in\n    tag_97:\n        /* \"#utility.yul\":5369:5371   */\n      0x20\n        /* \"#utility.yul\":5364:5367   */\n      dup3\n        /* \"#utility.yul\":5360:5372   */\n      add\n        /* \"#utility.yul\":5353:5372   */\n      swap1\n      pop\n        /* \"#utility.yul\":5012:5378   */\n      swap2\n      swap1\n      pop\n      jump\t// out\n        /* \"#utility.yul\":5384:5803   */\n    tag_20:\n        /* \"#utility.yul\":5550:5554   */\n      0x00\n        /* \"#utility.yul\":5588:5590   */\n      0x20\n        /* \"#utility.yul\":5577:5586   */\n      dup3\n        /* \"#utility.yul\":5573:5591   */\n      add\n        /* \"#utility.yul\":5565:5591   */\n      swap1\n      pop\n        /* \"#utility.yul\":5637:5646   */\n      dup2\n        /* \"#utility.yul\":5631:5635   */\n      dup2\n        /* \"#utility.yul\":5627:5647   */\n      sub\n        /* \"#utility.yul\":5623:5624   */\n      0x00\n        /* \"#utility.yul\":5612:5621   */\n      dup4\n        /* \"#utility.yul\":5608:5625   */\n      add\n        /* \"#utility.yul\":5601:5648   */\n      mstore\n        /* \"#utility.yul\":5665:5796   */\n      tag_99\n        /* \"#utility.yul\":5791:5795   */\n      dup2\n        /* \"#utility.yul\":5665:5796   */\n      tag_40\n      jump\t// in\n    tag_99:\n        /* \"#utility.yul\":5657:5796   */\n      swap1\n      pop\n        /* \"#utility.yul\":5384:5803   */\n      swap2\n      swap1\n      pop\n      jump\t// out\n\n    auxdata: 0xa26469706673582212207f83f6c270a1d49660c6db7d300017737c2858ef12de1fdf0dd5910241fc5f4c64736f6c634300081b0033\n}\n",
				"bytecode": {
					"linkReferences": {},
					"object": "6080604052348015600f57600080fd5b506103f38061001f6000396000f3fe608060405234801561001057600080fd5b50600436106100365760003560e01c806301ffc9a71461003b5780639061b9231461006b575b600080fd5b61005560048036038101906100509190610145565b61009b565b604051610062919061018d565b60405180910390f35b6100856004803603810190610080919061020d565b6100a6565b604051610092919061031e565b60405180910390f35b600060019050919050565b60606040517f08c379a00000000000000000000000000000000000000000000000000000000081526004016100da9061039d565b60405180910390fd5b600080fd5b600080fd5b60007fffffffff0000000000000000000000000000000000000000000000000000000082169050919050565b610122816100ed565b811461012d57600080fd5b50565b60008135905061013f81610119565b92915050565b60006020828403121561015b5761015a6100e3565b5b600061016984828501610130565b91505092915050565b60008115159050919050565b61018781610172565b82525050565b60006020820190506101a2600083018461017e565b92915050565b600080fd5b600080fd5b600080fd5b60008083601f8401126101cd576101cc6101a8565b5b8235905067ffffffffffffffff8111156101ea576101e96101ad565b5b602083019150836001820283011115610206576102056101b2565b5b9250929050565b60008060008060408587031215610227576102266100e3565b5b600085013567ffffffffffffffff811115610245576102446100e8565b5b610251878288016101b7565b9450945050602085013567ffffffffffffffff811115610274576102736100e8565b5b610280878288016101b7565b925092505092959194509250565b600081519050919050565b600082825260208201905092915050565b60005b838110156102c85780820151818401526020810190506102ad565b60008484015250505050565b6000601f19601f8301169050919050565b60006102f08261028e565b6102fa8185610299565b935061030a8185602086016102aa565b610313816102d4565b840191505092915050565b6000602082019050818103600083015261033881846102e5565b905092915050565b600082825260208201905092915050565b7f4e6f7420537570706f7274656400000000000000000000000000000000000000600082015250565b6000610387600d83610340565b915061039282610351565b602082019050919050565b600060208201905081810360008301526103b68161037a565b905091905056fea26469706673582212207f83f6c270a1d49660c6db7d300017737c2858ef12de1fdf0dd5910241fc5f4c64736f6c634300081b0033",
					"opcodes": "PUSH1 0x80 PUSH1 0x40 MSTORE CALLVALUE DUP1 ISZERO PUSH1 0xF JUMPI PUSH1 0x0 DUP1 REVERT JUMPDEST POP PUSH2 0x3F3 DUP1 PUSH2 0x1F PUSH1 0x0 CODECOPY PUSH1 0x0 RETURN INVALID PUSH1 0x80 PUSH1 0x40 MSTORE CALLVALUE DUP1 ISZERO PUSH2 0x10 JUMPI PUSH1 0x0 DUP1 REVERT JUMPDEST POP PUSH1 0x4 CALLDATASIZE LT PUSH2 0x36 JUMPI PUSH1 0x0 CALLDATALOAD PUSH1 0xE0 SHR DUP1 PUSH4 0x1FFC9A7 EQ PUSH2 0x3B JUMPI DUP1 PUSH4 0x9061B923 EQ PUSH2 0x6B JUMPI JUMPDEST PUSH1 0x0 DUP1 REVERT JUMPDEST PUSH2 0x55 PUSH1 0x4 DUP1 CALLDATASIZE SUB DUP2 ADD SWAP1 PUSH2 0x50 SWAP2 SWAP1 PUSH2 0x145 JUMP JUMPDEST PUSH2 0x9B JUMP JUMPDEST PUSH1 0x40 MLOAD PUSH2 0x62 SWAP2 SWAP1 PUSH2 0x18D JUMP JUMPDEST PUSH1 0x40 MLOAD DUP1 SWAP2 SUB SWAP1 RETURN JUMPDEST PUSH2 0x85 PUSH1 0x4 DUP1 CALLDATASIZE SUB DUP2 ADD SWAP1 PUSH2 0x80 SWAP2 SWAP1 PUSH2 0x20D JUMP JUMPDEST PUSH2 0xA6 JUMP JUMPDEST PUSH1 0x40 MLOAD PUSH2 0x92 SWAP2 SWAP1 PUSH2 0x31E JUMP JUMPDEST PUSH1 0x40 MLOAD DUP1 SWAP2 SUB SWAP1 RETURN JUMPDEST PUSH1 0x0 PUSH1 0x1 SWAP1 POP SWAP2 SWAP1 POP JUMP JUMPDEST PUSH1 0x60 PUSH1 0x40 MLOAD PUSH32 0x8C379A000000000000000000000000000000000000000000000000000000000 DUP2 MSTORE PUSH1 0x4 ADD PUSH2 0xDA SWAP1 PUSH2 0x39D JUMP JUMPDEST PUSH1 0x40 MLOAD DUP1 SWAP2 SUB SWAP1 REVERT JUMPDEST PUSH1 0x0 DUP1 REVERT JUMPDEST PUSH1 0x0 DUP1 REVERT JUMPDEST PUSH1 0x0 PUSH32 0xFFFFFFFF00000000000000000000000000000000000000000000000000000000 DUP3 AND SWAP1 POP SWAP2 SWAP1 POP JUMP JUMPDEST PUSH2 0x122 DUP2 PUSH2 0xED JUMP JUMPDEST DUP2 EQ PUSH2 0x12D JUMPI PUSH1 0x0 DUP1 REVERT JUMPDEST POP JUMP JUMPDEST PUSH1 0x0 DUP2 CALLDATALOAD SWAP1 POP PUSH2 0x13F DUP2 PUSH2 0x119 JUMP JUMPDEST SWAP3 SWAP2 POP POP JUMP JUMPDEST PUSH1 0x0 PUSH1 0x20 DUP3 DUP5 SUB SLT ISZERO PUSH2 0x15B JUMPI PUSH2 0x15A PUSH2 0xE3 JUMP JUMPDEST JUMPDEST PUSH1 0x0 PUSH2 0x169 DUP5 DUP3 DUP6 ADD PUSH2 0x130 JUMP JUMPDEST SWAP2 POP POP SWAP3 SWAP2 POP POP JUMP JUMPDEST PUSH1 0x0 DUP2 ISZERO ISZERO SWAP1 POP SWAP2 SWAP1 POP JUMP JUMPDEST PUSH2 0x187 DUP2 PUSH2 0x172 JUMP JUMPDEST DUP3 MSTORE POP POP JUMP JUMPDEST PUSH1 0x0 PUSH1 0x20 DUP3 ADD SWAP1 POP PUSH2 0x1A2 PUSH1 0x0 DUP4 ADD DUP5 PUSH2 0x17E JUMP JUMPDEST SWAP3 SWAP2 POP POP JUMP JUMPDEST PUSH1 0x0 DUP1 REVERT JUMPDEST PUSH1 0x0 DUP1 REVERT JUMPDEST PUSH1 0x0 DUP1 REVERT JUMPDEST PUSH1 0x0 DUP1 DUP4 PUSH1 0x1F DUP5 ADD SLT PUSH2 0x1CD JUMPI PUSH2 0x1CC PUSH2 0x1A8 JUMP JUMPDEST JUMPDEST DUP3 CALLDATALOAD SWAP1 POP PUSH8 0xFFFFFFFFFFFFFFFF DUP2 GT ISZERO PUSH2 0x1EA JUMPI PUSH2 0x1E9 PUSH2 0x1AD JUMP JUMPDEST JUMPDEST PUSH1 0x20 DUP4 ADD SWAP2 POP DUP4 PUSH1 0x1 DUP3 MUL DUP4 ADD GT ISZERO PUSH2 0x206 JUMPI PUSH2 0x205 PUSH2 0x1B2 JUMP JUMPDEST JUMPDEST SWAP3 POP SWAP3 SWAP1 POP JUMP JUMPDEST PUSH1 0x0 DUP1 PUSH1 0x0 DUP1 PUSH1 0x40 DUP6 DUP8 SUB SLT ISZERO PUSH2 0x227 JUMPI PUSH2 0x226 PUSH2 0xE3 JUMP JUMPDEST JUMPDEST PUSH1 0x0 DUP6 ADD CALLDATALOAD PUSH8 0xFFFFFFFFFFFFFFFF DUP2 GT ISZERO PUSH2 0x245 JUMPI PUSH2 0x244 PUSH2 0xE8 JUMP JUMPDEST JUMPDEST PUSH2 0x251 DUP8 DUP3 DUP9 ADD PUSH2 0x1B7 JUMP JUMPDEST SWAP5 POP SWAP5 POP POP PUSH1 0x20 DUP6 ADD CALLDATALOAD PUSH8 0xFFFFFFFFFFFFFFFF DUP2 GT ISZERO PUSH2 0x274 JUMPI PUSH2 0x273 PUSH2 0xE8 JUMP JUMPDEST JUMPDEST PUSH2 0x280 DUP8 DUP3 DUP9 ADD PUSH2 0x1B7 JUMP JUMPDEST SWAP3 POP SWAP3 POP POP SWAP3 SWAP6 SWAP2 SWAP5 POP SWAP3 POP JUMP JUMPDEST PUSH1 0x0 DUP2 MLOAD SWAP1 POP SWAP2 SWAP1 POP JUMP JUMPDEST PUSH1 0x0 DUP3 DUP3 MSTORE PUSH1 0x20 DUP3 ADD SWAP1 POP SWAP3 SWAP2 POP POP JUMP JUMPDEST PUSH1 0x0 JUMPDEST DUP4 DUP2 LT ISZERO PUSH2 0x2C8 JUMPI DUP1 DUP3 ADD MLOAD DUP2 DUP5 ADD MSTORE PUSH1 0x20 DUP2 ADD SWAP1 POP PUSH2 0x2AD JUMP JUMPDEST PUSH1 0x0 DUP5 DUP5 ADD MSTORE POP POP POP POP JUMP JUMPDEST PUSH1 0x0 PUSH1 0x1F NOT PUSH1 0x1F DUP4 ADD AND SWAP1 POP SWAP2 SWAP1 POP JUMP JUMPDEST PUSH1 0x0 PUSH2 0x2F0 DUP3 PUSH2 0x28E JUMP JUMPDEST PUSH2 0x2FA DUP2 DUP6 PUSH2 0x299 JUMP JUMPDEST SWAP4 POP PUSH2 0x30A DUP2 DUP6 PUSH1 0x20 DUP7 ADD PUSH2 0x2AA JUMP JUMPDEST PUSH2 0x313 DUP2 PUSH2 0x2D4 JUMP JUMPDEST DUP5 ADD SWAP2 POP POP SWAP3 SWAP2 POP POP JUMP JUMPDEST PUSH1 0x0 PUSH1 0x20 DUP3 ADD SWAP1 POP DUP2 DUP2 SUB PUSH1 0x0 DUP4 ADD MSTORE PUSH2 0x338 DUP2 DUP5 PUSH2 0x2E5 JUMP JUMPDEST SWAP1 POP SWAP3 SWAP2 POP POP JUMP JUMPDEST PUSH1 0x0 DUP3 DUP3 MSTORE PUSH1 0x20 DUP3 ADD SWAP1 POP SWAP3 SWAP2 POP POP JUMP JUMPDEST PUSH32 0x4E6F7420537570706F7274656400000000000000000000000000000000000000 PUSH1 0x0 DUP3 ADD MSTORE POP JUMP JUMPDEST PUSH1 0x0 PUSH2 0x387 PUSH1 0xD DUP4 PUSH2 0x340 JUMP JUMPDEST SWAP2 POP PUSH2 0x392 DUP3 PUSH2 0x351 JUMP JUMPDEST PUSH1 0x20 DUP3 ADD SWAP1 POP SWAP2 SWAP1 POP JUMP JUMPDEST PUSH1 0x0 PUSH1 0x20 DUP3 ADD SWAP1 POP DUP2 DUP2 SUB PUSH1 0x0 DUP4 ADD MSTORE PUSH2 0x3B6 DUP2 PUSH2 0x37A JUMP JUMPDEST SWAP1 POP SWAP2 SWAP1 POP JUMP INVALID LOG2 PUSH5 0x6970667358 0x22 SLT KECCAK256 PUSH32 0x83F6C270A1D49660C6DB7D300017737C2858EF12DE1FDF0DD5910241FC5F4C64 PUSH20 0x6F6C634300081B00330000000000000000000000 "
				},
				"gasEstimates": {
					"creation": {
						"codeDepositCost": "202200",
						"executionCost": "245",
						"totalCost": "202445"
					},
					"external": {
						"resolve(bytes,bytes)": "infinite",
						"supportsInterface(bytes4)": "592"
					}
				},
				"methodIdentifiers": {
					"resolve(bytes,bytes)": "9061b923",
					"supportsInterface(bytes4)": "01ffc9a7"
				}
			},
			"storageLayout": {
				"storage": [],
				"types": null
			},
			"userdoc": {
				"kind": "user",
				"methods": {},
				"version": 1
			}
		}
	}
}