{
	"package/contracts/utils/TestHexUtils.sol": {
		"TestHexUtils": {
			"abi": [
				{
					"inputs": [
						{
							"internalType": "bytes",
							"name": "name",
							"type": "bytes"
						},
						{
							"internalType": "uint256",
							"name": "idx",
							"type": "uint256"
						},
						{
							"internalType": "uint256",
							"name": "lastInx",
							"type": "uint256"
						}
					],
					"name": "hexStringToBytes32",
					"outputs": [
						{
							"internalType": "bytes32",
							"name": "",
							"type": "bytes32"
						},
						{
							"internalType": "bool",
							"name": "",
							"type": "bool"
						}
					],
					"stateMutability": "pure",
					"type": "function"
				},
				{
					"inputs": [
						{
							"internalType": "bytes",
							"name": "input",
							"type": "bytes"
						},
						{
							"internalType": "uint256",
							"name": "idx",
							"type": "uint256"
						},
						{
							"internalType": "uint256",
							"name": "lastInx",
							"type": "uint256"
						}
					],
					"name": "hexToAddress",
					"outputs": [
						{
							"internalType": "address",
							"name": "",
							"type": "address"
						},
						{
							"internalType": "bool",
							"name": "",
							"type": "bool"
						}
					],
					"stateMutability": "pure",
					"type": "function"
				},
				{
					"inputs": [
						{
							"internalType": "bytes",
							"name": "name",
							"type": "bytes"
						},
						{
							"internalType": "uint256",
							"name": "idx",
							"type": "uint256"
						},
						{
							"internalType": "uint256",
							"name": "lastInx",
							"type": "uint256"
						}
					],
					"name": "hexToBytes",
					"outputs": [
						{
							"internalType": "bytes",
							"name": "",
							"type": "bytes"
						},
						{
							"internalType": "bool",
							"name": "",
							"type": "bool"
						}
					],
					"stateMutability": "pure",
					"type": "function"
				}
			],
			"devdoc": {
				"kind": "dev",
				"methods": {},
				"version": 1
			},
			"evm": {
				"assembly": "    /* \"package/contracts/utils/TestHexUtils.sol\":99:649  contract TestHexUtils {... */\n  mstore(0x40, 0x80)\n  callvalue\n  dup1\n  iszero\n  tag_1\n  jumpi\n  0x00\n  dup1\n  revert\ntag_1:\n  pop\n  dataSize(sub_0)\n  dup1\n  dataOffset(sub_0)\n  0x00\n  codecopy\n  0x00\n  return\nstop\n\nsub_0: assembly {\n        /* \"package/contracts/utils/TestHexUtils.sol\":99:649  contract TestHexUtils {... */\n      mstore(0x40, 0x80)\n      callvalue\n      dup1\n      iszero\n      tag_1\n      jumpi\n      0x00\n      dup1\n      revert\n    tag_1:\n      pop\n      jumpi(tag_2, lt(calldatasize, 0x04))\n      shr(0xe0, calldataload(0x00))\n      dup1\n      0x3a2988c0\n      eq\n      tag_3\n      jumpi\n      dup1\n      0x437276d4\n      eq\n      tag_4\n      jumpi\n      dup1\n      0xb1fb9071\n      eq\n      tag_5\n      jumpi\n    tag_2:\n      0x00\n      dup1\n      revert\n        /* \"package/contracts/utils/TestHexUtils.sol\":487:647  function hexToAddress(bytes calldata input, uint256 idx, uint256 lastInx) public pure returns (address, bool) {... */\n    tag_3:\n      tag_6\n      0x04\n      dup1\n      calldatasize\n      sub\n      dup2\n      add\n      swap1\n      tag_7\n      swap2\n      swap1\n      tag_8\n      jump\t// in\n    tag_7:\n      tag_9\n      jump\t// in\n    tag_6:\n      mload(0x40)\n      tag_10\n      swap3\n      swap2\n      swap1\n      tag_11\n      jump\t// in\n    tag_10:\n      mload(0x40)\n      dup1\n      swap2\n      sub\n      swap1\n      return\n        /* \"package/contracts/utils/TestHexUtils.sol\":313:483  function hexStringToBytes32(bytes calldata name, uint256 idx, uint256 lastInx) public pure returns (bytes32, bool) {... */\n    tag_4:\n      tag_12\n      0x04\n      dup1\n      calldatasize\n      sub\n      dup2\n      add\n      swap1\n      tag_13\n      swap2\n      swap1\n      tag_8\n      jump\t// in\n    tag_13:\n      tag_14\n      jump\t// in\n    tag_12:\n      mload(0x40)\n      tag_15\n      swap3\n      swap2\n      swap1\n      tag_16\n      jump\t// in\n    tag_15:\n      mload(0x40)\n      dup1\n      swap2\n      sub\n      swap1\n      return\n        /* \"package/contracts/utils/TestHexUtils.sol\":150:309  function hexToBytes(bytes calldata name, uint256 idx, uint256 lastInx) public pure returns (bytes memory, bool) {... */\n    tag_5:\n      tag_17\n      0x04\n      dup1\n      calldatasize\n      sub\n      dup2\n      add\n      swap1\n      tag_18\n      swap2\n      swap1\n      tag_8\n      jump\t// in\n    tag_18:\n      tag_19\n      jump\t// in\n    tag_17:\n      mload(0x40)\n      tag_20\n      swap3\n      swap2\n      swap1\n      tag_21\n      jump\t// in\n    tag_20:\n      mload(0x40)\n      dup1\n      swap2\n      sub\n      swap1\n      return\n        /* \"package/contracts/utils/TestHexUtils.sol\":487:647  function hexToAddress(bytes calldata input, uint256 idx, uint256 lastInx) public pure returns (address, bool) {... */\n    tag_9:\n        /* \"package/contracts/utils/TestHexUtils.sol\":582:589  address */\n      0x00\n        /* \"package/contracts/utils/TestHexUtils.sol\":591:595  bool */\n      dup1\n        /* \"package/contracts/utils/TestHexUtils.sol\":610:642  input.hexToAddress(idx, lastInx) */\n      tag_23\n        /* \"package/contracts/utils/TestHexUtils.sol\":629:632  idx */\n      dup5\n        /* \"package/contracts/utils/TestHexUtils.sol\":634:641  lastInx */\n      dup5\n        /* \"package/contracts/utils/TestHexUtils.sol\":610:615  input */\n      dup9\n      dup9\n        /* \"package/contracts/utils/TestHexUtils.sol\":610:628  input.hexToAddress */\n      dup1\n      dup1\n      0x1f\n      add\n      0x20\n      dup1\n      swap2\n      div\n      mul\n      0x20\n      add\n      mload(0x40)\n      swap1\n      dup2\n      add\n      0x40\n      mstore\n      dup1\n      swap4\n      swap3\n      swap2\n      swap1\n      dup2\n      dup2\n      mstore\n      0x20\n      add\n      dup4\n      dup4\n      dup1\n      dup3\n      dup5\n      calldatacopy\n      0x00\n      dup2\n      dup5\n      add\n      mstore\n      not(0x1f)\n      0x1f\n      dup3\n      add\n      and\n      swap1\n      pop\n      dup1\n      dup4\n      add\n      swap3\n      pop\n      pop\n      pop\n      pop\n      pop\n      pop\n      pop\n      tag_24\n      swap1\n        /* \"package/contracts/utils/TestHexUtils.sol\":610:642  input.hexToAddress(idx, lastInx) */\n      swap3\n      swap2\n      swap1\n      0xffffffff\n      and\n      jump\t// in\n    tag_23:\n        /* \"package/contracts/utils/TestHexUtils.sol\":603:642  return input.hexToAddress(idx, lastInx) */\n      swap2\n      pop\n      swap2\n      pop\n        /* \"package/contracts/utils/TestHexUtils.sol\":487:647  function hexToAddress(bytes calldata input, uint256 idx, uint256 lastInx) public pure returns (address, bool) {... */\n      swap5\n      pop\n      swap5\n      swap3\n      pop\n      pop\n      pop\n      jump\t// out\n        /* \"package/contracts/utils/TestHexUtils.sol\":313:483  function hexStringToBytes32(bytes calldata name, uint256 idx, uint256 lastInx) public pure returns (bytes32, bool) {... */\n    tag_14:\n        /* \"package/contracts/utils/TestHexUtils.sol\":413:420  bytes32 */\n      0x00\n        /* \"package/contracts/utils/TestHexUtils.sol\":422:426  bool */\n      dup1\n        /* \"package/contracts/utils/TestHexUtils.sol\":441:478  name.hexStringToBytes32(idx, lastInx) */\n      tag_26\n        /* \"package/contracts/utils/TestHexUtils.sol\":465:468  idx */\n      dup5\n        /* \"package/contracts/utils/TestHexUtils.sol\":470:477  lastInx */\n      dup5\n        /* \"package/contracts/utils/TestHexUtils.sol\":441:445  name */\n      dup9\n      dup9\n        /* \"package/contracts/utils/TestHexUtils.sol\":441:464  name.hexStringToBytes32 */\n      dup1\n      dup1\n      0x1f\n      add\n      0x20\n      dup1\n      swap2\n      div\n      mul\n      0x20\n      add\n      mload(0x40)\n      swap1\n      dup2\n      add\n      0x40\n      mstore\n      dup1\n      swap4\n      swap3\n      swap2\n      swap1\n      dup2\n      dup2\n      mstore\n      0x20\n      add\n      dup4\n      dup4\n      dup1\n      dup3\n      dup5\n      calldatacopy\n      0x00\n      dup2\n      dup5\n      add\n      mstore\n      not(0x1f)\n      0x1f\n      dup3\n      add\n      and\n      swap1\n      pop\n      dup1\n      dup4\n      add\n      swap3\n      pop\n      pop\n      pop\n      pop\n      pop\n      pop\n      pop\n      tag_27\n      swap1\n        /* \"package/contracts/utils/TestHexUtils.sol\":441:478  name.hexStringToBytes32(idx, lastInx) */\n      swap3\n      swap2\n      swap1\n      0xffffffff\n      and\n      jump\t// in\n    tag_26:\n        /* \"package/contracts/utils/TestHexUtils.sol\":434:478  return name.hexStringToBytes32(idx, lastInx) */\n      swap2\n      pop\n      swap2\n      pop\n        /* \"package/contracts/utils/TestHexUtils.sol\":313:483  function hexStringToBytes32(bytes calldata name, uint256 idx, uint256 lastInx) public pure returns (bytes32, bool) {... */\n      swap5\n      pop\n      swap5\n      swap3\n      pop\n      pop\n      pop\n      jump\t// out\n        /* \"package/contracts/utils/TestHexUtils.sol\":150:309  function hexToBytes(bytes calldata name, uint256 idx, uint256 lastInx) public pure returns (bytes memory, bool) {... */\n    tag_19:\n        /* \"package/contracts/utils/TestHexUtils.sol\":242:254  bytes memory */\n      0x60\n        /* \"package/contracts/utils/TestHexUtils.sol\":256:260  bool */\n      0x00\n        /* \"package/contracts/utils/TestHexUtils.sol\":275:304  name.hexToBytes(idx, lastInx) */\n      tag_29\n        /* \"package/contracts/utils/TestHexUtils.sol\":291:294  idx */\n      dup5\n        /* \"package/contracts/utils/TestHexUtils.sol\":296:303  lastInx */\n      dup5\n        /* \"package/contracts/utils/TestHexUtils.sol\":275:279  name */\n      dup9\n      dup9\n        /* \"package/contracts/utils/TestHexUtils.sol\":275:290  name.hexToBytes */\n      dup1\n      dup1\n      0x1f\n      add\n      0x20\n      dup1\n      swap2\n      div\n      mul\n      0x20\n      add\n      mload(0x40)\n      swap1\n      dup2\n      add\n      0x40\n      mstore\n      dup1\n      swap4\n      swap3\n      swap2\n      swap1\n      dup2\n      dup2\n      mstore\n      0x20\n      add\n      dup4\n      dup4\n      dup1\n      dup3\n      dup5\n      calldatacopy\n      0x00\n      dup2\n      dup5\n      add\n      mstore\n      not(0x1f)\n      0x1f\n      dup3\n      add\n      and\n      swap1\n      pop\n      dup1\n      dup4\n      add\n      swap3\n      pop\n      pop\n      pop\n      pop\n      pop\n      pop\n      pop\n      tag_30\n      swap1\n        /* \"package/contracts/utils/TestHexUtils.sol\":275:304  name.hexToBytes(idx, lastInx) */\n      swap3\n      swap2\n      swap1\n      0xffffffff\n      and\n      jump\t// in\n    tag_29:\n        /* \"package/contracts/utils/TestHexUtils.sol\":268:304  return name.hexToBytes(idx, lastInx) */\n      swap2\n      pop\n      swap2\n      pop\n        /* \"package/contracts/utils/TestHexUtils.sol\":150:309  function hexToBytes(bytes calldata name, uint256 idx, uint256 lastInx) public pure returns (bytes memory, bool) {... */\n      swap5\n      pop\n      swap5\n      swap3\n      pop\n      pop\n      pop\n      jump\t// out\n        /* \"package/contracts/utils/HexUtils.sol\":2499:2789  function hexToAddress(bytes memory str, uint256 idx, uint256 lastIdx) internal pure returns (address, bool) {... */\n    tag_24:\n        /* \"package/contracts/utils/HexUtils.sol\":2592:2599  address */\n      0x00\n        /* \"package/contracts/utils/HexUtils.sol\":2601:2605  bool */\n      dup1\n        /* \"package/contracts/utils/HexUtils.sol\":2633:2635  40 */\n      0x28\n        /* \"package/contracts/utils/HexUtils.sol\":2627:2630  idx */\n      dup5\n        /* \"package/contracts/utils/HexUtils.sol\":2617:2624  lastIdx */\n      dup5\n        /* \"package/contracts/utils/HexUtils.sol\":2617:2630  lastIdx - idx */\n      tag_32\n      swap2\n      swap1\n      tag_33\n      jump\t// in\n    tag_32:\n        /* \"package/contracts/utils/HexUtils.sol\":2617:2635  lastIdx - idx < 40 */\n      lt\n        /* \"package/contracts/utils/HexUtils.sol\":2613:2665  if (lastIdx - idx < 40) return (address(0x0), false) */\n      iszero\n      tag_34\n      jumpi\n        /* \"package/contracts/utils/HexUtils.sol\":2653:2656  0x0 */\n      0x00\n        /* \"package/contracts/utils/HexUtils.sol\":2659:2664  false */\n      dup1\n        /* \"package/contracts/utils/HexUtils.sol\":2637:2665  return (address(0x0), false) */\n      swap2\n      pop\n      swap2\n      pop\n      jump(tag_31)\n        /* \"package/contracts/utils/HexUtils.sol\":2613:2665  if (lastIdx - idx < 40) return (address(0x0), false) */\n    tag_34:\n        /* \"package/contracts/utils/HexUtils.sol\":2672:2681  bytes32 r */\n      0x00\n        /* \"package/contracts/utils/HexUtils.sol\":2683:2693  bool valid */\n      dup1\n        /* \"package/contracts/utils/HexUtils.sol\":2697:2734  hexStringToBytes32(str, idx, lastIdx) */\n      tag_35\n        /* \"package/contracts/utils/HexUtils.sol\":2716:2719  str */\n      dup8\n        /* \"package/contracts/utils/HexUtils.sol\":2721:2724  idx */\n      dup8\n        /* \"package/contracts/utils/HexUtils.sol\":2726:2733  lastIdx */\n      dup8\n        /* \"package/contracts/utils/HexUtils.sol\":2697:2715  hexStringToBytes32 */\n      tag_27\n        /* \"package/contracts/utils/HexUtils.sol\":2697:2734  hexStringToBytes32(str, idx, lastIdx) */\n      jump\t// in\n    tag_35:\n        /* \"package/contracts/utils/HexUtils.sol\":2671:2734  (bytes32 r, bool valid) = hexStringToBytes32(str, idx, lastIdx) */\n      swap2\n      pop\n      swap2\n      pop\n        /* \"package/contracts/utils/HexUtils.sol\":2772:2773  r */\n      dup2\n        /* \"package/contracts/utils/HexUtils.sol\":2764:2774  uint256(r) */\n      0x00\n      shr\n        /* \"package/contracts/utils/HexUtils.sol\":2778:2783  valid */\n      dup2\n        /* \"package/contracts/utils/HexUtils.sol\":2740:2784  return (address(uint160(uint256(r))), valid) */\n      swap4\n      pop\n      swap4\n      pop\n      pop\n      pop\n        /* \"package/contracts/utils/HexUtils.sol\":2499:2789  function hexToAddress(bytes memory str, uint256 idx, uint256 lastIdx) internal pure returns (address, bool) {... */\n    tag_31:\n      swap4\n      pop\n      swap4\n      swap2\n      pop\n      pop\n      jump\t// out\n        /* \"package/contracts/utils/HexUtils.sol\":339:750  function hexStringToBytes32(bytes memory str, uint256 idx, uint256 lastIdx) internal pure returns (bytes32, bool) {... */\n    tag_27:\n        /* \"package/contracts/utils/HexUtils.sol\":438:445  bytes32 */\n      0x00\n        /* \"package/contracts/utils/HexUtils.sol\":447:451  bool */\n      dup1\n        /* \"package/contracts/utils/HexUtils.sol\":484:486  64 */\n      0x40\n        /* \"package/contracts/utils/HexUtils.sol\":477:480  idx */\n      dup5\n        /* \"package/contracts/utils/HexUtils.sol\":467:474  lastIdx */\n      dup5\n        /* \"package/contracts/utils/HexUtils.sol\":467:480  lastIdx - idx */\n      tag_37\n      swap2\n      swap1\n      tag_33\n      jump\t// in\n    tag_37:\n        /* \"package/contracts/utils/HexUtils.sol\":467:486  lastIdx - idx <= 64 */\n      gt\n      iszero\n        /* \"package/contracts/utils/HexUtils.sol\":459:487  require(lastIdx - idx <= 64) */\n      tag_38\n      jumpi\n      0x00\n      dup1\n      revert\n    tag_38:\n        /* \"package/contracts/utils/HexUtils.sol\":494:508  bytes memory r */\n      0x00\n        /* \"package/contracts/utils/HexUtils.sol\":510:520  bool valid */\n      dup1\n        /* \"package/contracts/utils/HexUtils.sol\":524:553  hexToBytes(str, idx, lastIdx) */\n      tag_39\n        /* \"package/contracts/utils/HexUtils.sol\":535:538  str */\n      dup8\n        /* \"package/contracts/utils/HexUtils.sol\":540:543  idx */\n      dup8\n        /* \"package/contracts/utils/HexUtils.sol\":545:552  lastIdx */\n      dup8\n        /* \"package/contracts/utils/HexUtils.sol\":524:534  hexToBytes */\n      tag_30\n        /* \"package/contracts/utils/HexUtils.sol\":524:553  hexToBytes(str, idx, lastIdx) */\n      jump\t// in\n    tag_39:\n        /* \"package/contracts/utils/HexUtils.sol\":493:553  (bytes memory r, bool valid) = hexToBytes(str, idx, lastIdx) */\n      swap2\n      pop\n      swap2\n      pop\n        /* \"package/contracts/utils/HexUtils.sol\":564:569  valid */\n      dup1\n        /* \"package/contracts/utils/HexUtils.sol\":559:612  if (!valid) {... */\n      tag_40\n      jumpi\n        /* \"package/contracts/utils/HexUtils.sol\":595:596  0 */\n      0x00\n        /* \"package/contracts/utils/HexUtils.sol\":587:597  bytes32(0) */\n      dup1\n      shl\n        /* \"package/contracts/utils/HexUtils.sol\":599:604  false */\n      0x00\n        /* \"package/contracts/utils/HexUtils.sol\":579:605  return (bytes32(0), false) */\n      swap4\n      pop\n      swap4\n      pop\n      pop\n      pop\n      jump(tag_36)\n        /* \"package/contracts/utils/HexUtils.sol\":559:612  if (!valid) {... */\n    tag_40:\n        /* \"package/contracts/utils/HexUtils.sol\":617:628  bytes32 ret */\n      0x00\n        /* \"package/contracts/utils/HexUtils.sol\":711:713  32 */\n      0x20\n        /* \"package/contracts/utils/HexUtils.sol\":708:709  r */\n      dup4\n        /* \"package/contracts/utils/HexUtils.sol\":704:714  add(r, 32) */\n      add\n        /* \"package/contracts/utils/HexUtils.sol\":698:715  mload(add(r, 32)) */\n      mload\n        /* \"package/contracts/utils/HexUtils.sol\":690:693  idx */\n      dup8\n        /* \"package/contracts/utils/HexUtils.sol\":681:688  lastIdx */\n      dup8\n        /* \"package/contracts/utils/HexUtils.sol\":677:694  sub(lastIdx, idx) */\n      sub\n        /* \"package/contracts/utils/HexUtils.sol\":673:675  64 */\n      0x40\n        /* \"package/contracts/utils/HexUtils.sol\":669:695  sub(64, sub(lastIdx, idx)) */\n      sub\n        /* \"package/contracts/utils/HexUtils.sol\":666:667  4 */\n      0x04\n        /* \"package/contracts/utils/HexUtils.sol\":662:696  mul(4, sub(64, sub(lastIdx, idx))) */\n      mul\n        /* \"package/contracts/utils/HexUtils.sol\":658:716  shr(mul(4, sub(64, sub(lastIdx, idx))), mload(add(r, 32))) */\n      shr\n        /* \"package/contracts/utils/HexUtils.sol\":651:716  ret := shr(mul(4, sub(64, sub(lastIdx, idx))), mload(add(r, 32))) */\n      swap1\n      pop\n        /* \"package/contracts/utils/HexUtils.sol\":735:738  ret */\n      dup1\n        /* \"package/contracts/utils/HexUtils.sol\":740:744  true */\n      0x01\n        /* \"package/contracts/utils/HexUtils.sol\":727:745  return (ret, true) */\n      swap5\n      pop\n      swap5\n      pop\n      pop\n      pop\n      pop\n        /* \"package/contracts/utils/HexUtils.sol\":339:750  function hexStringToBytes32(bytes memory str, uint256 idx, uint256 lastIdx) internal pure returns (bytes32, bool) {... */\n    tag_36:\n      swap4\n      pop\n      swap4\n      swap2\n      pop\n      pop\n      jump\t// out\n        /* \"package/contracts/utils/HexUtils.sol\":754:2231  function hexToBytes(... */\n    tag_30:\n        /* \"package/contracts/utils/HexUtils.sol\":861:875  bytes memory r */\n      0x60\n        /* \"package/contracts/utils/HexUtils.sol\":877:887  bool valid */\n      0x00\n        /* \"package/contracts/utils/HexUtils.sol\":895:912  uint256 hexLength */\n      dup1\n        /* \"package/contracts/utils/HexUtils.sol\":925:928  idx */\n      dup5\n        /* \"package/contracts/utils/HexUtils.sol\":915:922  lastIdx */\n      dup5\n        /* \"package/contracts/utils/HexUtils.sol\":915:928  lastIdx - idx */\n      tag_42\n      swap2\n      swap1\n      tag_33\n      jump\t// in\n    tag_42:\n        /* \"package/contracts/utils/HexUtils.sol\":895:928  uint256 hexLength = lastIdx - idx */\n      swap1\n      pop\n        /* \"package/contracts/utils/HexUtils.sol\":955:956  1 */\n      0x01\n        /* \"package/contracts/utils/HexUtils.sol\":950:951  2 */\n      0x02\n        /* \"package/contracts/utils/HexUtils.sol\":938:947  hexLength */\n      dup3\n        /* \"package/contracts/utils/HexUtils.sol\":938:951  hexLength % 2 */\n      tag_43\n      swap2\n      swap1\n      tag_44\n      jump\t// in\n    tag_43:\n        /* \"package/contracts/utils/HexUtils.sol\":938:956  hexLength % 2 == 1 */\n      sub\n        /* \"package/contracts/utils/HexUtils.sol\":934:1004  if (hexLength % 2 == 1) {... */\n      tag_45\n      jumpi\n        /* \"package/contracts/utils/HexUtils.sol\":966:997  revert(\"Invalid string length\") */\n      mload(0x40)\n      0x08c379a000000000000000000000000000000000000000000000000000000000\n      dup2\n      mstore\n      0x04\n      add\n      tag_46\n      swap1\n      tag_47\n      jump\t// in\n    tag_46:\n      mload(0x40)\n      dup1\n      swap2\n      sub\n      swap1\n      revert\n        /* \"package/contracts/utils/HexUtils.sol\":934:1004  if (hexLength % 2 == 1) {... */\n    tag_45:\n        /* \"package/contracts/utils/HexUtils.sol\":1035:1036  2 */\n      0x02\n        /* \"package/contracts/utils/HexUtils.sol\":1023:1032  hexLength */\n      dup2\n        /* \"package/contracts/utils/HexUtils.sol\":1023:1036  hexLength / 2 */\n      tag_48\n      swap2\n      swap1\n      tag_49\n      jump\t// in\n    tag_48:\n        /* \"package/contracts/utils/HexUtils.sol\":1013:1037  new bytes(hexLength / 2) */\n      0xffffffffffffffff\n      dup2\n      gt\n      iszero\n      tag_50\n      jumpi\n      tag_51\n      tag_52\n      jump\t// in\n    tag_51:\n    tag_50:\n      mload(0x40)\n      swap1\n      dup1\n      dup3\n      mstore\n      dup1\n      0x1f\n      add\n      not(0x1f)\n      and\n      0x20\n      add\n      dup3\n      add\n      0x40\n      mstore\n      dup1\n      iszero\n      tag_53\n      jumpi\n      dup2\n      0x20\n      add\n      0x01\n      dup3\n      mul\n      dup1\n      calldatasize\n      dup4\n      calldatacopy\n      dup1\n      dup3\n      add\n      swap2\n      pop\n      pop\n      swap1\n      pop\n    tag_53:\n      pop\n        /* \"package/contracts/utils/HexUtils.sol\":1009:1037  r = new bytes(hexLength / 2) */\n      swap3\n      pop\n        /* \"package/contracts/utils/HexUtils.sol\":1051:1055  true */\n      0x01\n        /* \"package/contracts/utils/HexUtils.sol\":1043:1055  valid = true */\n      swap2\n      pop\n        /* \"package/contracts/utils/HexUtils.sol\":1174:1177  str */\n      dup6\n        /* \"package/contracts/utils/HexUtils.sol\":1168:1178  mload(str) */\n      mload\n        /* \"package/contracts/utils/HexUtils.sol\":1159:1166  lastIdx */\n      dup5\n        /* \"package/contracts/utils/HexUtils.sol\":1156:1179  gt(lastIdx, mload(str)) */\n      gt\n        /* \"package/contracts/utils/HexUtils.sol\":1153:1210  if gt(lastIdx, mload(str)) {... */\n      iszero\n      tag_55\n      jumpi\n        /* \"package/contracts/utils/HexUtils.sol\":1200:1201  0 */\n      0x00\n        /* \"package/contracts/utils/HexUtils.sol\":1197:1198  0 */\n      dup1\n        /* \"package/contracts/utils/HexUtils.sol\":1190:1202  revert(0, 0) */\n      revert\n        /* \"package/contracts/utils/HexUtils.sol\":1153:1210  if gt(lastIdx, mload(str)) {... */\n    tag_55:\n        /* \"package/contracts/utils/HexUtils.sol\":1218:1690  function getHex(c) -> ascii {... */\n      jump(tag_56)\n    tag_54:\n        /* \"package/contracts/utils/HexUtils.sol\":1240:1245  ascii */\n      0x00\n        /* \"package/contracts/utils/HexUtils.sol\":1308:1310  58 */\n      0x3a\n        /* \"package/contracts/utils/HexUtils.sol\":1305:1306  c */\n      dup3\n        /* \"package/contracts/utils/HexUtils.sol\":1302:1311  lt(c, 58) */\n      lt\n        /* \"package/contracts/utils/HexUtils.sol\":1297:1299  47 */\n      0x2f\n        /* \"package/contracts/utils/HexUtils.sol\":1294:1295  c */\n      dup4\n        /* \"package/contracts/utils/HexUtils.sol\":1291:1300  gt(c, 47) */\n      gt\n        /* \"package/contracts/utils/HexUtils.sol\":1287:1312  and(gt(c, 47), lt(c, 58)) */\n      and\n        /* \"package/contracts/utils/HexUtils.sol\":1284:1370  if and(gt(c, 47), lt(c, 58)) {... */\n      iszero\n      tag_58\n      jumpi\n        /* \"package/contracts/utils/HexUtils.sol\":1341:1343  48 */\n      0x30\n        /* \"package/contracts/utils/HexUtils.sol\":1338:1339  c */\n      dup3\n        /* \"package/contracts/utils/HexUtils.sol\":1334:1344  sub(c, 48) */\n      sub\n        /* \"package/contracts/utils/HexUtils.sol\":1325:1344  ascii := sub(c, 48) */\n      swap1\n      pop\n        /* \"package/contracts/utils/HexUtils.sol\":1355:1360  leave */\n      jump(tag_57)\n        /* \"package/contracts/utils/HexUtils.sol\":1284:1370  if and(gt(c, 47), lt(c, 58)) {... */\n    tag_58:\n        /* \"package/contracts/utils/HexUtils.sol\":1431:1433  71 */\n      0x47\n        /* \"package/contracts/utils/HexUtils.sol\":1428:1429  c */\n      dup3\n        /* \"package/contracts/utils/HexUtils.sol\":1425:1434  lt(c, 71) */\n      lt\n        /* \"package/contracts/utils/HexUtils.sol\":1420:1422  64 */\n      0x40\n        /* \"package/contracts/utils/HexUtils.sol\":1417:1418  c */\n      dup4\n        /* \"package/contracts/utils/HexUtils.sol\":1414:1423  gt(c, 64) */\n      gt\n        /* \"package/contracts/utils/HexUtils.sol\":1410:1435  and(gt(c, 64), lt(c, 71)) */\n      and\n        /* \"package/contracts/utils/HexUtils.sol\":1407:1502  if and(gt(c, 64), lt(c, 71)) {... */\n      iszero\n      tag_59\n      jumpi\n        /* \"package/contracts/utils/HexUtils.sol\":1473:1475  10 */\n      0x0a\n        /* \"package/contracts/utils/HexUtils.sol\":1468:1470  65 */\n      0x41\n        /* \"package/contracts/utils/HexUtils.sol\":1465:1466  c */\n      dup4\n        /* \"package/contracts/utils/HexUtils.sol\":1461:1471  sub(c, 65) */\n      sub\n        /* \"package/contracts/utils/HexUtils.sol\":1457:1476  add(sub(c, 65), 10) */\n      add\n        /* \"package/contracts/utils/HexUtils.sol\":1448:1476  ascii := add(sub(c, 65), 10) */\n      swap1\n      pop\n        /* \"package/contracts/utils/HexUtils.sol\":1487:1492  leave */\n      jump(tag_57)\n        /* \"package/contracts/utils/HexUtils.sol\":1407:1502  if and(gt(c, 64), lt(c, 71)) {... */\n    tag_59:\n        /* \"package/contracts/utils/HexUtils.sol\":1564:1567  103 */\n      0x67\n        /* \"package/contracts/utils/HexUtils.sol\":1561:1562  c */\n      dup3\n        /* \"package/contracts/utils/HexUtils.sol\":1558:1568  lt(c, 103) */\n      lt\n        /* \"package/contracts/utils/HexUtils.sol\":1553:1555  96 */\n      0x60\n        /* \"package/contracts/utils/HexUtils.sol\":1550:1551  c */\n      dup4\n        /* \"package/contracts/utils/HexUtils.sol\":1547:1556  gt(c, 96) */\n      gt\n        /* \"package/contracts/utils/HexUtils.sol\":1543:1569  and(gt(c, 96), lt(c, 103)) */\n      and\n        /* \"package/contracts/utils/HexUtils.sol\":1540:1636  if and(gt(c, 96), lt(c, 103)) {... */\n      iszero\n      tag_60\n      jumpi\n        /* \"package/contracts/utils/HexUtils.sol\":1607:1609  10 */\n      0x0a\n        /* \"package/contracts/utils/HexUtils.sol\":1602:1604  97 */\n      0x61\n        /* \"package/contracts/utils/HexUtils.sol\":1599:1600  c */\n      dup4\n        /* \"package/contracts/utils/HexUtils.sol\":1595:1605  sub(c, 97) */\n      sub\n        /* \"package/contracts/utils/HexUtils.sol\":1591:1610  add(sub(c, 97), 10) */\n      add\n        /* \"package/contracts/utils/HexUtils.sol\":1582:1610  ascii := add(sub(c, 97), 10) */\n      swap1\n      pop\n        /* \"package/contracts/utils/HexUtils.sol\":1621:1626  leave */\n      jump(tag_57)\n        /* \"package/contracts/utils/HexUtils.sol\":1540:1636  if and(gt(c, 96), lt(c, 103)) {... */\n    tag_60:\n        /* \"package/contracts/utils/HexUtils.sol\":1678:1682  0xff */\n      0xff\n        /* \"package/contracts/utils/HexUtils.sol\":1669:1682  ascii := 0xff */\n      swap1\n      pop\n        /* \"package/contracts/utils/HexUtils.sol\":1218:1690  function getHex(c) -> ascii {... */\n    tag_57:\n      swap2\n      swap1\n      pop\n      jump\t// out\n    tag_56:\n        /* \"package/contracts/utils/HexUtils.sol\":1718:1720  32 */\n      0x20\n        /* \"package/contracts/utils/HexUtils.sol\":1713:1716  str */\n      dup7\n        /* \"package/contracts/utils/HexUtils.sol\":1709:1721  add(str, 32) */\n      add\n        /* \"package/contracts/utils/HexUtils.sol\":1751:1754  idx */\n      dup6\n        /* \"package/contracts/utils/HexUtils.sol\":1728:2221  for {... */\n    tag_61:\n        /* \"package/contracts/utils/HexUtils.sol\":1769:1776  lastIdx */\n      dup6\n        /* \"package/contracts/utils/HexUtils.sol\":1766:1767  i */\n      dup2\n        /* \"package/contracts/utils/HexUtils.sol\":1763:1777  lt(i, lastIdx) */\n      lt\n        /* \"package/contracts/utils/HexUtils.sol\":1728:2221  for {... */\n      iszero\n      tag_63\n      jumpi\n        /* \"package/contracts/utils/HexUtils.sol\":1834:1869  getHex(byte(0, mload(add(ptr, i)))) */\n      tag_64\n        /* \"package/contracts/utils/HexUtils.sol\":1864:1865  i */\n      dup2\n        /* \"package/contracts/utils/HexUtils.sol\":1859:1862  ptr */\n      dup4\n        /* \"package/contracts/utils/HexUtils.sol\":1855:1866  add(ptr, i) */\n      add\n        /* \"package/contracts/utils/HexUtils.sol\":1849:1867  mload(add(ptr, i)) */\n      mload\n        /* \"package/contracts/utils/HexUtils.sol\":1846:1847  0 */\n      0x00\n        /* \"package/contracts/utils/HexUtils.sol\":1841:1868  byte(0, mload(add(ptr, i))) */\n      byte\n        /* \"package/contracts/utils/HexUtils.sol\":1834:1869  getHex(byte(0, mload(add(ptr, i)))) */\n      tag_54\n      jump\t// in\n    tag_64:\n        /* \"package/contracts/utils/HexUtils.sol\":1891:1934  getHex(byte(0, mload(add(ptr, add(i, 1))))) */\n      tag_65\n        /* \"package/contracts/utils/HexUtils.sol\":1928:1929  1 */\n      0x01\n        /* \"package/contracts/utils/HexUtils.sol\":1925:1926  i */\n      dup4\n        /* \"package/contracts/utils/HexUtils.sol\":1921:1930  add(i, 1) */\n      add\n        /* \"package/contracts/utils/HexUtils.sol\":1916:1919  ptr */\n      dup5\n        /* \"package/contracts/utils/HexUtils.sol\":1912:1931  add(ptr, add(i, 1)) */\n      add\n        /* \"package/contracts/utils/HexUtils.sol\":1906:1932  mload(add(ptr, add(i, 1))) */\n      mload\n        /* \"package/contracts/utils/HexUtils.sol\":1903:1904  0 */\n      0x00\n        /* \"package/contracts/utils/HexUtils.sol\":1898:1933  byte(0, mload(add(ptr, add(i, 1)))) */\n      byte\n        /* \"package/contracts/utils/HexUtils.sol\":1891:1934  getHex(byte(0, mload(add(ptr, add(i, 1))))) */\n      tag_54\n      jump\t// in\n    tag_65:\n        /* \"package/contracts/utils/HexUtils.sol\":2041:2045  0xff */\n      0xff\n        /* \"package/contracts/utils/HexUtils.sol\":2034:2039  byte2 */\n      dup2\n        /* \"package/contracts/utils/HexUtils.sol\":2031:2046  eq(byte2, 0xff) */\n      eq\n        /* \"package/contracts/utils/HexUtils.sol\":2024:2028  0xff */\n      0xff\n        /* \"package/contracts/utils/HexUtils.sol\":2017:2022  byte1 */\n      dup4\n        /* \"package/contracts/utils/HexUtils.sol\":2014:2029  eq(byte1, 0xff) */\n      eq\n        /* \"package/contracts/utils/HexUtils.sol\":2011:2047  or(eq(byte1, 0xff), eq(byte2, 0xff)) */\n      or\n        /* \"package/contracts/utils/HexUtils.sol\":2008:2100  if or(eq(byte1, 0xff), eq(byte2, 0xff)) {... */\n      iszero\n      tag_66\n      jumpi\n        /* \"package/contracts/utils/HexUtils.sol\":2069:2074  false */\n      0x00\n        /* \"package/contracts/utils/HexUtils.sol\":2060:2074  valid := false */\n      swap6\n      pop\n        /* \"package/contracts/utils/HexUtils.sol\":2085:2090  break */\n      pop\n      pop\n      jump(tag_63)\n        /* \"package/contracts/utils/HexUtils.sol\":2008:2100  if or(eq(byte1, 0xff), eq(byte2, 0xff)) {... */\n    tag_66:\n        /* \"package/contracts/utils/HexUtils.sol\":2143:2148  byte2 */\n      dup1\n        /* \"package/contracts/utils/HexUtils.sol\":2135:2140  byte1 */\n      dup3\n        /* \"package/contracts/utils/HexUtils.sol\":2132:2133  4 */\n      0x04\n        /* \"package/contracts/utils/HexUtils.sol\":2128:2141  shl(4, byte1) */\n      shl\n        /* \"package/contracts/utils/HexUtils.sol\":2125:2149  or(shl(4, byte1), byte2) */\n      or\n        /* \"package/contracts/utils/HexUtils.sol\":2204:2212  combined */\n      dup1\n        /* \"package/contracts/utils/HexUtils.sol\":2199:2200  2 */\n      0x02\n        /* \"package/contracts/utils/HexUtils.sol\":2193:2196  idx */\n      dup12\n        /* \"package/contracts/utils/HexUtils.sol\":2190:2191  i */\n      dup7\n        /* \"package/contracts/utils/HexUtils.sol\":2186:2197  sub(i, idx) */\n      sub\n        /* \"package/contracts/utils/HexUtils.sol\":2182:2201  div(sub(i, idx), 2) */\n      div\n        /* \"package/contracts/utils/HexUtils.sol\":2177:2179  32 */\n      0x20\n        /* \"package/contracts/utils/HexUtils.sol\":2174:2175  r */\n      dup11\n        /* \"package/contracts/utils/HexUtils.sol\":2170:2180  add(r, 32) */\n      add\n        /* \"package/contracts/utils/HexUtils.sol\":2166:2202  add(add(r, 32), div(sub(i, idx), 2)) */\n      add\n        /* \"package/contracts/utils/HexUtils.sol\":2158:2213  mstore8(add(add(r, 32), div(sub(i, idx), 2)), combined) */\n      mstore8\n        /* \"package/contracts/utils/HexUtils.sol\":1811:2221  {... */\n      pop\n      pop\n      pop\n        /* \"package/contracts/utils/HexUtils.sol\":1800:1801  2 */\n      0x02\n        /* \"package/contracts/utils/HexUtils.sol\":1797:1798  i */\n      dup2\n        /* \"package/contracts/utils/HexUtils.sol\":1793:1802  add(i, 2) */\n      add\n        /* \"package/contracts/utils/HexUtils.sol\":1788:1802  i := add(i, 2) */\n      swap1\n      pop\n        /* \"package/contracts/utils/HexUtils.sol\":1728:2221  for {... */\n      jump(tag_61)\n    tag_63:\n        /* \"package/contracts/utils/HexUtils.sol\":1732:1762  {... */\n      pop\n        /* \"package/contracts/utils/HexUtils.sol\":1070:2227  {... */\n      pop\n      pop\n        /* \"package/contracts/utils/HexUtils.sol\":754:2231  function hexToBytes(... */\n      swap4\n      pop\n      swap4\n      swap2\n      pop\n      pop\n      jump\t// out\n        /* \"#utility.yul\":88:205   */\n    tag_68:\n        /* \"#utility.yul\":197:198   */\n      0x00\n        /* \"#utility.yul\":194:195   */\n      dup1\n        /* \"#utility.yul\":187:199   */\n      revert\n        /* \"#utility.yul\":211:328   */\n    tag_69:\n        /* \"#utility.yul\":320:321   */\n      0x00\n        /* \"#utility.yul\":317:318   */\n      dup1\n        /* \"#utility.yul\":310:322   */\n      revert\n        /* \"#utility.yul\":334:451   */\n    tag_70:\n        /* \"#utility.yul\":443:444   */\n      0x00\n        /* \"#utility.yul\":440:441   */\n      dup1\n        /* \"#utility.yul\":433:445   */\n      revert\n        /* \"#utility.yul\":457:574   */\n    tag_71:\n        /* \"#utility.yul\":566:567   */\n      0x00\n        /* \"#utility.yul\":563:564   */\n      dup1\n        /* \"#utility.yul\":556:568   */\n      revert\n        /* \"#utility.yul\":580:697   */\n    tag_72:\n        /* \"#utility.yul\":689:690   */\n      0x00\n        /* \"#utility.yul\":686:687   */\n      dup1\n        /* \"#utility.yul\":679:691   */\n      revert\n        /* \"#utility.yul\":716:1268   */\n    tag_73:\n        /* \"#utility.yul\":773:781   */\n      0x00\n        /* \"#utility.yul\":783:789   */\n      dup1\n        /* \"#utility.yul\":833:836   */\n      dup4\n        /* \"#utility.yul\":826:830   */\n      0x1f\n        /* \"#utility.yul\":818:824   */\n      dup5\n        /* \"#utility.yul\":814:831   */\n      add\n        /* \"#utility.yul\":810:837   */\n      slt\n        /* \"#utility.yul\":800:922   */\n      tag_102\n      jumpi\n        /* \"#utility.yul\":841:920   */\n      tag_103\n      tag_70\n      jump\t// in\n    tag_103:\n        /* \"#utility.yul\":800:922   */\n    tag_102:\n        /* \"#utility.yul\":954:960   */\n      dup3\n        /* \"#utility.yul\":941:961   */\n      calldataload\n        /* \"#utility.yul\":931:961   */\n      swap1\n      pop\n        /* \"#utility.yul\":984:1002   */\n      0xffffffffffffffff\n        /* \"#utility.yul\":976:982   */\n      dup2\n        /* \"#utility.yul\":973:1003   */\n      gt\n        /* \"#utility.yul\":970:1087   */\n      iszero\n      tag_104\n      jumpi\n        /* \"#utility.yul\":1006:1085   */\n      tag_105\n      tag_71\n      jump\t// in\n    tag_105:\n        /* \"#utility.yul\":970:1087   */\n    tag_104:\n        /* \"#utility.yul\":1120:1124   */\n      0x20\n        /* \"#utility.yul\":1112:1118   */\n      dup4\n        /* \"#utility.yul\":1108:1125   */\n      add\n        /* \"#utility.yul\":1096:1125   */\n      swap2\n      pop\n        /* \"#utility.yul\":1174:1177   */\n      dup4\n        /* \"#utility.yul\":1166:1170   */\n      0x01\n        /* \"#utility.yul\":1158:1164   */\n      dup3\n        /* \"#utility.yul\":1154:1171   */\n      mul\n        /* \"#utility.yul\":1144:1152   */\n      dup4\n        /* \"#utility.yul\":1140:1172   */\n      add\n        /* \"#utility.yul\":1137:1178   */\n      gt\n        /* \"#utility.yul\":1134:1262   */\n      iszero\n      tag_106\n      jumpi\n        /* \"#utility.yul\":1181:1260   */\n      tag_107\n      tag_72\n      jump\t// in\n    tag_107:\n        /* \"#utility.yul\":1134:1262   */\n    tag_106:\n        /* \"#utility.yul\":716:1268   */\n      swap3\n      pop\n      swap3\n      swap1\n      pop\n      jump\t// out\n        /* \"#utility.yul\":1274:1351   */\n    tag_74:\n        /* \"#utility.yul\":1311:1318   */\n      0x00\n        /* \"#utility.yul\":1340:1345   */\n      dup2\n        /* \"#utility.yul\":1329:1345   */\n      swap1\n      pop\n        /* \"#utility.yul\":1274:1351   */\n      swap2\n      swap1\n      pop\n      jump\t// out\n        /* \"#utility.yul\":1357:1479   */\n    tag_75:\n        /* \"#utility.yul\":1430:1454   */\n      tag_110\n        /* \"#utility.yul\":1448:1453   */\n      dup2\n        /* \"#utility.yul\":1430:1454   */\n      tag_74\n      jump\t// in\n    tag_110:\n        /* \"#utility.yul\":1423:1428   */\n      dup2\n        /* \"#utility.yul\":1420:1455   */\n      eq\n        /* \"#utility.yul\":1410:1473   */\n      tag_111\n      jumpi\n        /* \"#utility.yul\":1469:1470   */\n      0x00\n        /* \"#utility.yul\":1466:1467   */\n      dup1\n        /* \"#utility.yul\":1459:1471   */\n      revert\n        /* \"#utility.yul\":1410:1473   */\n    tag_111:\n        /* \"#utility.yul\":1357:1479   */\n      pop\n      jump\t// out\n        /* \"#utility.yul\":1485:1624   */\n    tag_76:\n        /* \"#utility.yul\":1531:1536   */\n      0x00\n        /* \"#utility.yul\":1569:1575   */\n      dup2\n        /* \"#utility.yul\":1556:1576   */\n      calldataload\n        /* \"#utility.yul\":1547:1576   */\n      swap1\n      pop\n        /* \"#utility.yul\":1585:1618   */\n      tag_113\n        /* \"#utility.yul\":1612:1617   */\n      dup2\n        /* \"#utility.yul\":1585:1618   */\n      tag_75\n      jump\t// in\n    tag_113:\n        /* \"#utility.yul\":1485:1624   */\n      swap3\n      swap2\n      pop\n      pop\n      jump\t// out\n        /* \"#utility.yul\":1630:2447   */\n    tag_8:\n        /* \"#utility.yul\":1718:1724   */\n      0x00\n        /* \"#utility.yul\":1726:1732   */\n      dup1\n        /* \"#utility.yul\":1734:1740   */\n      0x00\n        /* \"#utility.yul\":1742:1748   */\n      dup1\n        /* \"#utility.yul\":1791:1793   */\n      0x60\n        /* \"#utility.yul\":1779:1788   */\n      dup6\n        /* \"#utility.yul\":1770:1777   */\n      dup8\n        /* \"#utility.yul\":1766:1789   */\n      sub\n        /* \"#utility.yul\":1762:1794   */\n      slt\n        /* \"#utility.yul\":1759:1878   */\n      iszero\n      tag_115\n      jumpi\n        /* \"#utility.yul\":1797:1876   */\n      tag_116\n      tag_68\n      jump\t// in\n    tag_116:\n        /* \"#utility.yul\":1759:1878   */\n    tag_115:\n        /* \"#utility.yul\":1945:1946   */\n      0x00\n        /* \"#utility.yul\":1934:1943   */\n      dup6\n        /* \"#utility.yul\":1930:1947   */\n      add\n        /* \"#utility.yul\":1917:1948   */\n      calldataload\n        /* \"#utility.yul\":1975:1993   */\n      0xffffffffffffffff\n        /* \"#utility.yul\":1967:1973   */\n      dup2\n        /* \"#utility.yul\":1964:1994   */\n      gt\n        /* \"#utility.yul\":1961:2078   */\n      iszero\n      tag_117\n      jumpi\n        /* \"#utility.yul\":1997:2076   */\n      tag_118\n      tag_69\n      jump\t// in\n    tag_118:\n        /* \"#utility.yul\":1961:2078   */\n    tag_117:\n        /* \"#utility.yul\":2110:2174   */\n      tag_119\n        /* \"#utility.yul\":2166:2173   */\n      dup8\n        /* \"#utility.yul\":2157:2163   */\n      dup3\n        /* \"#utility.yul\":2146:2155   */\n      dup9\n        /* \"#utility.yul\":2142:2164   */\n      add\n        /* \"#utility.yul\":2110:2174   */\n      tag_73\n      jump\t// in\n    tag_119:\n        /* \"#utility.yul\":2092:2174   */\n      swap5\n      pop\n      swap5\n      pop\n        /* \"#utility.yul\":1888:2184   */\n      pop\n        /* \"#utility.yul\":2223:2225   */\n      0x20\n        /* \"#utility.yul\":2249:2302   */\n      tag_120\n        /* \"#utility.yul\":2294:2301   */\n      dup8\n        /* \"#utility.yul\":2285:2291   */\n      dup3\n        /* \"#utility.yul\":2274:2283   */\n      dup9\n        /* \"#utility.yul\":2270:2292   */\n      add\n        /* \"#utility.yul\":2249:2302   */\n      tag_76\n      jump\t// in\n    tag_120:\n        /* \"#utility.yul\":2239:2302   */\n      swap3\n      pop\n        /* \"#utility.yul\":2194:2312   */\n      pop\n        /* \"#utility.yul\":2351:2353   */\n      0x40\n        /* \"#utility.yul\":2377:2430   */\n      tag_121\n        /* \"#utility.yul\":2422:2429   */\n      dup8\n        /* \"#utility.yul\":2413:2419   */\n      dup3\n        /* \"#utility.yul\":2402:2411   */\n      dup9\n        /* \"#utility.yul\":2398:2420   */\n      add\n        /* \"#utility.yul\":2377:2430   */\n      tag_76\n      jump\t// in\n    tag_121:\n        /* \"#utility.yul\":2367:2430   */\n      swap2\n      pop\n        /* \"#utility.yul\":2322:2440   */\n      pop\n        /* \"#utility.yul\":1630:2447   */\n      swap3\n      swap6\n      swap2\n      swap5\n      pop\n      swap3\n      pop\n      jump\t// out\n        /* \"#utility.yul\":2453:2579   */\n    tag_77:\n        /* \"#utility.yul\":2490:2497   */\n      0x00\n        /* \"#utility.yul\":2530:2572   */\n      0xffffffffffffffffffffffffffffffffffffffff\n        /* \"#utility.yul\":2523:2528   */\n      dup3\n        /* \"#utility.yul\":2519:2573   */\n      and\n        /* \"#utility.yul\":2508:2573   */\n      swap1\n      pop\n        /* \"#utility.yul\":2453:2579   */\n      swap2\n      swap1\n      pop\n      jump\t// out\n        /* \"#utility.yul\":2585:2681   */\n    tag_78:\n        /* \"#utility.yul\":2622:2629   */\n      0x00\n        /* \"#utility.yul\":2651:2675   */\n      tag_124\n        /* \"#utility.yul\":2669:2674   */\n      dup3\n        /* \"#utility.yul\":2651:2675   */\n      tag_77\n      jump\t// in\n    tag_124:\n        /* \"#utility.yul\":2640:2675   */\n      swap1\n      pop\n        /* \"#utility.yul\":2585:2681   */\n      swap2\n      swap1\n      pop\n      jump\t// out\n        /* \"#utility.yul\":2687:2805   */\n    tag_79:\n        /* \"#utility.yul\":2774:2798   */\n      tag_126\n        /* \"#utility.yul\":2792:2797   */\n      dup2\n        /* \"#utility.yul\":2774:2798   */\n      tag_78\n      jump\t// in\n    tag_126:\n        /* \"#utility.yul\":2769:2772   */\n      dup3\n        /* \"#utility.yul\":2762:2799   */\n      mstore\n        /* \"#utility.yul\":2687:2805   */\n      pop\n      pop\n      jump\t// out\n        /* \"#utility.yul\":2811:2901   */\n    tag_80:\n        /* \"#utility.yul\":2845:2852   */\n      0x00\n        /* \"#utility.yul\":2888:2893   */\n      dup2\n        /* \"#utility.yul\":2881:2894   */\n      iszero\n        /* \"#utility.yul\":2874:2895   */\n      iszero\n        /* \"#utility.yul\":2863:2895   */\n      swap1\n      pop\n        /* \"#utility.yul\":2811:2901   */\n      swap2\n      swap1\n      pop\n      jump\t// out\n        /* \"#utility.yul\":2907:3016   */\n    tag_81:\n        /* \"#utility.yul\":2988:3009   */\n      tag_129\n        /* \"#utility.yul\":3003:3008   */\n      dup2\n        /* \"#utility.yul\":2988:3009   */\n      tag_80\n      jump\t// in\n    tag_129:\n        /* \"#utility.yul\":2983:2986   */\n      dup3\n        /* \"#utility.yul\":2976:3010   */\n      mstore\n        /* \"#utility.yul\":2907:3016   */\n      pop\n      pop\n      jump\t// out\n        /* \"#utility.yul\":3022:3342   */\n    tag_11:\n        /* \"#utility.yul\":3137:3141   */\n      0x00\n        /* \"#utility.yul\":3175:3177   */\n      0x40\n        /* \"#utility.yul\":3164:3173   */\n      dup3\n        /* \"#utility.yul\":3160:3178   */\n      add\n        /* \"#utility.yul\":3152:3178   */\n      swap1\n      pop\n        /* \"#utility.yul\":3188:3259   */\n      tag_131\n        /* \"#utility.yul\":3256:3257   */\n      0x00\n        /* \"#utility.yul\":3245:3254   */\n      dup4\n        /* \"#utility.yul\":3241:3258   */\n      add\n        /* \"#utility.yul\":3232:3238   */\n      dup6\n        /* \"#utility.yul\":3188:3259   */\n      tag_79\n      jump\t// in\n    tag_131:\n        /* \"#utility.yul\":3269:3335   */\n      tag_132\n        /* \"#utility.yul\":3331:3333   */\n      0x20\n        /* \"#utility.yul\":3320:3329   */\n      dup4\n        /* \"#utility.yul\":3316:3334   */\n      add\n        /* \"#utility.yul\":3307:3313   */\n      dup5\n        /* \"#utility.yul\":3269:3335   */\n      tag_81\n      jump\t// in\n    tag_132:\n        /* \"#utility.yul\":3022:3342   */\n      swap4\n      swap3\n      pop\n      pop\n      pop\n      jump\t// out\n        /* \"#utility.yul\":3348:3425   */\n    tag_82:\n        /* \"#utility.yul\":3385:3392   */\n      0x00\n        /* \"#utility.yul\":3414:3419   */\n      dup2\n        /* \"#utility.yul\":3403:3419   */\n      swap1\n      pop\n        /* \"#utility.yul\":3348:3425   */\n      swap2\n      swap1\n      pop\n      jump\t// out\n        /* \"#utility.yul\":3431:3549   */\n    tag_83:\n        /* \"#utility.yul\":3518:3542   */\n      tag_135\n        /* \"#utility.yul\":3536:3541   */\n      dup2\n        /* \"#utility.yul\":3518:3542   */\n      tag_82\n      jump\t// in\n    tag_135:\n        /* \"#utility.yul\":3513:3516   */\n      dup3\n        /* \"#utility.yul\":3506:3543   */\n      mstore\n        /* \"#utility.yul\":3431:3549   */\n      pop\n      pop\n      jump\t// out\n        /* \"#utility.yul\":3555:3875   */\n    tag_16:\n        /* \"#utility.yul\":3670:3674   */\n      0x00\n        /* \"#utility.yul\":3708:3710   */\n      0x40\n        /* \"#utility.yul\":3697:3706   */\n      dup3\n        /* \"#utility.yul\":3693:3711   */\n      add\n        /* \"#utility.yul\":3685:3711   */\n      swap1\n      pop\n        /* \"#utility.yul\":3721:3792   */\n      tag_137\n        /* \"#utility.yul\":3789:3790   */\n      0x00\n        /* \"#utility.yul\":3778:3787   */\n      dup4\n        /* \"#utility.yul\":3774:3791   */\n      add\n        /* \"#utility.yul\":3765:3771   */\n      dup6\n        /* \"#utility.yul\":3721:3792   */\n      tag_83\n      jump\t// in\n    tag_137:\n        /* \"#utility.yul\":3802:3868   */\n      tag_138\n        /* \"#utility.yul\":3864:3866   */\n      0x20\n        /* \"#utility.yul\":3853:3862   */\n      dup4\n        /* \"#utility.yul\":3849:3867   */\n      add\n        /* \"#utility.yul\":3840:3846   */\n      dup5\n        /* \"#utility.yul\":3802:3868   */\n      tag_81\n      jump\t// in\n    tag_138:\n        /* \"#utility.yul\":3555:3875   */\n      swap4\n      swap3\n      pop\n      pop\n      pop\n      jump\t// out\n        /* \"#utility.yul\":3881:3979   */\n    tag_84:\n        /* \"#utility.yul\":3932:3938   */\n      0x00\n        /* \"#utility.yul\":3966:3971   */\n      dup2\n        /* \"#utility.yul\":3960:3972   */\n      mload\n        /* \"#utility.yul\":3950:3972   */\n      swap1\n      pop\n        /* \"#utility.yul\":3881:3979   */\n      swap2\n      swap1\n      pop\n      jump\t// out\n        /* \"#utility.yul\":3985:4153   */\n    tag_85:\n        /* \"#utility.yul\":4068:4079   */\n      0x00\n        /* \"#utility.yul\":4102:4108   */\n      dup3\n        /* \"#utility.yul\":4097:4100   */\n      dup3\n        /* \"#utility.yul\":4090:4109   */\n      mstore\n        /* \"#utility.yul\":4142:4146   */\n      0x20\n        /* \"#utility.yul\":4137:4140   */\n      dup3\n        /* \"#utility.yul\":4133:4147   */\n      add\n        /* \"#utility.yul\":4118:4147   */\n      swap1\n      pop\n        /* \"#utility.yul\":3985:4153   */\n      swap3\n      swap2\n      pop\n      pop\n      jump\t// out\n        /* \"#utility.yul\":4159:4407   */\n    tag_86:\n        /* \"#utility.yul\":4241:4242   */\n      0x00\n        /* \"#utility.yul\":4251:4364   */\n    tag_142:\n        /* \"#utility.yul\":4265:4271   */\n      dup4\n        /* \"#utility.yul\":4262:4263   */\n      dup2\n        /* \"#utility.yul\":4259:4272   */\n      lt\n        /* \"#utility.yul\":4251:4364   */\n      iszero\n      tag_144\n      jumpi\n        /* \"#utility.yul\":4350:4351   */\n      dup1\n        /* \"#utility.yul\":4345:4348   */\n      dup3\n        /* \"#utility.yul\":4341:4352   */\n      add\n        /* \"#utility.yul\":4335:4353   */\n      mload\n        /* \"#utility.yul\":4331:4332   */\n      dup2\n        /* \"#utility.yul\":4326:4329   */\n      dup5\n        /* \"#utility.yul\":4322:4333   */\n      add\n        /* \"#utility.yul\":4315:4354   */\n      mstore\n        /* \"#utility.yul\":4287:4289   */\n      0x20\n        /* \"#utility.yul\":4284:4285   */\n      dup2\n        /* \"#utility.yul\":4280:4290   */\n      add\n        /* \"#utility.yul\":4275:4290   */\n      swap1\n      pop\n        /* \"#utility.yul\":4251:4364   */\n      jump(tag_142)\n    tag_144:\n        /* \"#utility.yul\":4398:4399   */\n      0x00\n        /* \"#utility.yul\":4389:4395   */\n      dup5\n        /* \"#utility.yul\":4384:4387   */\n      dup5\n        /* \"#utility.yul\":4380:4396   */\n      add\n        /* \"#utility.yul\":4373:4400   */\n      mstore\n        /* \"#utility.yul\":4221:4407   */\n      pop\n        /* \"#utility.yul\":4159:4407   */\n      pop\n      pop\n      pop\n      jump\t// out\n        /* \"#utility.yul\":4413:4515   */\n    tag_87:\n        /* \"#utility.yul\":4454:4460   */\n      0x00\n        /* \"#utility.yul\":4505:4507   */\n      0x1f\n        /* \"#utility.yul\":4501:4508   */\n      not\n        /* \"#utility.yul\":4496:4498   */\n      0x1f\n        /* \"#utility.yul\":4489:4494   */\n      dup4\n        /* \"#utility.yul\":4485:4499   */\n      add\n        /* \"#utility.yul\":4481:4509   */\n      and\n        /* \"#utility.yul\":4471:4509   */\n      swap1\n      pop\n        /* \"#utility.yul\":4413:4515   */\n      swap2\n      swap1\n      pop\n      jump\t// out\n        /* \"#utility.yul\":4521:4894   */\n    tag_88:\n        /* \"#utility.yul\":4607:4610   */\n      0x00\n        /* \"#utility.yul\":4635:4673   */\n      tag_147\n        /* \"#utility.yul\":4667:4672   */\n      dup3\n        /* \"#utility.yul\":4635:4673   */\n      tag_84\n      jump\t// in\n    tag_147:\n        /* \"#utility.yul\":4689:4759   */\n      tag_148\n        /* \"#utility.yul\":4752:4758   */\n      dup2\n        /* \"#utility.yul\":4747:4750   */\n      dup6\n        /* \"#utility.yul\":4689:4759   */\n      tag_85\n      jump\t// in\n    tag_148:\n        /* \"#utility.yul\":4682:4759   */\n      swap4\n      pop\n        /* \"#utility.yul\":4768:4833   */\n      tag_149\n        /* \"#utility.yul\":4826:4832   */\n      dup2\n        /* \"#utility.yul\":4821:4824   */\n      dup6\n        /* \"#utility.yul\":4814:4818   */\n      0x20\n        /* \"#utility.yul\":4807:4812   */\n      dup7\n        /* \"#utility.yul\":4803:4819   */\n      add\n        /* \"#utility.yul\":4768:4833   */\n      tag_86\n      jump\t// in\n    tag_149:\n        /* \"#utility.yul\":4858:4887   */\n      tag_150\n        /* \"#utility.yul\":4880:4886   */\n      dup2\n        /* \"#utility.yul\":4858:4887   */\n      tag_87\n      jump\t// in\n    tag_150:\n        /* \"#utility.yul\":4853:4856   */\n      dup5\n        /* \"#utility.yul\":4849:4888   */\n      add\n        /* \"#utility.yul\":4842:4888   */\n      swap2\n      pop\n        /* \"#utility.yul\":4611:4894   */\n      pop\n        /* \"#utility.yul\":4521:4894   */\n      swap3\n      swap2\n      pop\n      pop\n      jump\t// out\n        /* \"#utility.yul\":4900:5307   */\n    tag_21:\n        /* \"#utility.yul\":5033:5037   */\n      0x00\n        /* \"#utility.yul\":5071:5073   */\n      0x40\n        /* \"#utility.yul\":5060:5069   */\n      dup3\n        /* \"#utility.yul\":5056:5074   */\n      add\n        /* \"#utility.yul\":5048:5074   */\n      swap1\n      pop\n        /* \"#utility.yul\":5120:5129   */\n      dup2\n        /* \"#utility.yul\":5114:5118   */\n      dup2\n        /* \"#utility.yul\":5110:5130   */\n      sub\n        /* \"#utility.yul\":5106:5107   */\n      0x00\n        /* \"#utility.yul\":5095:5104   */\n      dup4\n        /* \"#utility.yul\":5091:5108   */\n      add\n        /* \"#utility.yul\":5084:5131   */\n      mstore\n        /* \"#utility.yul\":5148:5224   */\n      tag_152\n        /* \"#utility.yul\":5219:5223   */\n      dup2\n        /* \"#utility.yul\":5210:5216   */\n      dup6\n        /* \"#utility.yul\":5148:5224   */\n      tag_88\n      jump\t// in\n    tag_152:\n        /* \"#utility.yul\":5140:5224   */\n      swap1\n      pop\n        /* \"#utility.yul\":5234:5300   */\n      tag_153\n        /* \"#utility.yul\":5296:5298   */\n      0x20\n        /* \"#utility.yul\":5285:5294   */\n      dup4\n        /* \"#utility.yul\":5281:5299   */\n      add\n        /* \"#utility.yul\":5272:5278   */\n      dup5\n        /* \"#utility.yul\":5234:5300   */\n      tag_81\n      jump\t// in\n    tag_153:\n        /* \"#utility.yul\":4900:5307   */\n      swap4\n      swap3\n      pop\n      pop\n      pop\n      jump\t// out\n        /* \"#utility.yul\":5313:5493   */\n    tag_89:\n        /* \"#utility.yul\":5361:5438   */\n      0x4e487b7100000000000000000000000000000000000000000000000000000000\n        /* \"#utility.yul\":5358:5359   */\n      0x00\n        /* \"#utility.yul\":5351:5439   */\n      mstore\n        /* \"#utility.yul\":5458:5462   */\n      0x11\n        /* \"#utility.yul\":5455:5456   */\n      0x04\n        /* \"#utility.yul\":5448:5463   */\n      mstore\n        /* \"#utility.yul\":5482:5486   */\n      0x24\n        /* \"#utility.yul\":5479:5480   */\n      0x00\n        /* \"#utility.yul\":5472:5487   */\n      revert\n        /* \"#utility.yul\":5499:5693   */\n    tag_33:\n        /* \"#utility.yul\":5539:5543   */\n      0x00\n        /* \"#utility.yul\":5559:5579   */\n      tag_156\n        /* \"#utility.yul\":5577:5578   */\n      dup3\n        /* \"#utility.yul\":5559:5579   */\n      tag_74\n      jump\t// in\n    tag_156:\n        /* \"#utility.yul\":5554:5579   */\n      swap2\n      pop\n        /* \"#utility.yul\":5593:5613   */\n      tag_157\n        /* \"#utility.yul\":5611:5612   */\n      dup4\n        /* \"#utility.yul\":5593:5613   */\n      tag_74\n      jump\t// in\n    tag_157:\n        /* \"#utility.yul\":5588:5613   */\n      swap3\n      pop\n        /* \"#utility.yul\":5637:5638   */\n      dup3\n        /* \"#utility.yul\":5634:5635   */\n      dup3\n        /* \"#utility.yul\":5630:5639   */\n      sub\n        /* \"#utility.yul\":5622:5639   */\n      swap1\n      pop\n        /* \"#utility.yul\":5661:5662   */\n      dup2\n        /* \"#utility.yul\":5655:5659   */\n      dup2\n        /* \"#utility.yul\":5652:5663   */\n      gt\n        /* \"#utility.yul\":5649:5686   */\n      iszero\n      tag_158\n      jumpi\n        /* \"#utility.yul\":5666:5684   */\n      tag_159\n      tag_89\n      jump\t// in\n    tag_159:\n        /* \"#utility.yul\":5649:5686   */\n    tag_158:\n        /* \"#utility.yul\":5499:5693   */\n      swap3\n      swap2\n      pop\n      pop\n      jump\t// out\n        /* \"#utility.yul\":5699:5879   */\n    tag_90:\n        /* \"#utility.yul\":5747:5824   */\n      0x4e487b7100000000000000000000000000000000000000000000000000000000\n        /* \"#utility.yul\":5744:5745   */\n      0x00\n        /* \"#utility.yul\":5737:5825   */\n      mstore\n        /* \"#utility.yul\":5844:5848   */\n      0x12\n        /* \"#utility.yul\":5841:5842   */\n      0x04\n        /* \"#utility.yul\":5834:5849   */\n      mstore\n        /* \"#utility.yul\":5868:5872   */\n      0x24\n        /* \"#utility.yul\":5865:5866   */\n      0x00\n        /* \"#utility.yul\":5858:5873   */\n      revert\n        /* \"#utility.yul\":5885:6061   */\n    tag_44:\n        /* \"#utility.yul\":5917:5918   */\n      0x00\n        /* \"#utility.yul\":5934:5954   */\n      tag_162\n        /* \"#utility.yul\":5952:5953   */\n      dup3\n        /* \"#utility.yul\":5934:5954   */\n      tag_74\n      jump\t// in\n    tag_162:\n        /* \"#utility.yul\":5929:5954   */\n      swap2\n      pop\n        /* \"#utility.yul\":5968:5988   */\n      tag_163\n        /* \"#utility.yul\":5986:5987   */\n      dup4\n        /* \"#utility.yul\":5968:5988   */\n      tag_74\n      jump\t// in\n    tag_163:\n        /* \"#utility.yul\":5963:5988   */\n      swap3\n      pop\n        /* \"#utility.yul\":6007:6008   */\n      dup3\n        /* \"#utility.yul\":5997:6032   */\n      tag_164\n      jumpi\n        /* \"#utility.yul\":6012:6030   */\n      tag_165\n      tag_90\n      jump\t// in\n    tag_165:\n        /* \"#utility.yul\":5997:6032   */\n    tag_164:\n        /* \"#utility.yul\":6053:6054   */\n      dup3\n        /* \"#utility.yul\":6050:6051   */\n      dup3\n        /* \"#utility.yul\":6046:6055   */\n      mod\n        /* \"#utility.yul\":6041:6055   */\n      swap1\n      pop\n        /* \"#utility.yul\":5885:6061   */\n      swap3\n      swap2\n      pop\n      pop\n      jump\t// out\n        /* \"#utility.yul\":6067:6236   */\n    tag_91:\n        /* \"#utility.yul\":6151:6162   */\n      0x00\n        /* \"#utility.yul\":6185:6191   */\n      dup3\n        /* \"#utility.yul\":6180:6183   */\n      dup3\n        /* \"#utility.yul\":6173:6192   */\n      mstore\n        /* \"#utility.yul\":6225:6229   */\n      0x20\n        /* \"#utility.yul\":6220:6223   */\n      dup3\n        /* \"#utility.yul\":6216:6230   */\n      add\n        /* \"#utility.yul\":6201:6230   */\n      swap1\n      pop\n        /* \"#utility.yul\":6067:6236   */\n      swap3\n      swap2\n      pop\n      pop\n      jump\t// out\n        /* \"#utility.yul\":6242:6413   */\n    tag_92:\n        /* \"#utility.yul\":6382:6405   */\n      0x496e76616c696420737472696e67206c656e6774680000000000000000000000\n        /* \"#utility.yul\":6378:6379   */\n      0x00\n        /* \"#utility.yul\":6370:6376   */\n      dup3\n        /* \"#utility.yul\":6366:6380   */\n      add\n        /* \"#utility.yul\":6359:6406   */\n      mstore\n        /* \"#utility.yul\":6242:6413   */\n      pop\n      jump\t// out\n        /* \"#utility.yul\":6419:6785   */\n    tag_93:\n        /* \"#utility.yul\":6561:6564   */\n      0x00\n        /* \"#utility.yul\":6582:6649   */\n      tag_169\n        /* \"#utility.yul\":6646:6648   */\n      0x15\n        /* \"#utility.yul\":6641:6644   */\n      dup4\n        /* \"#utility.yul\":6582:6649   */\n      tag_91\n      jump\t// in\n    tag_169:\n        /* \"#utility.yul\":6575:6649   */\n      swap2\n      pop\n        /* \"#utility.yul\":6658:6751   */\n      tag_170\n        /* \"#utility.yul\":6747:6750   */\n      dup3\n        /* \"#utility.yul\":6658:6751   */\n      tag_92\n      jump\t// in\n    tag_170:\n        /* \"#utility.yul\":6776:6778   */\n      0x20\n        /* \"#utility.yul\":6771:6774   */\n      dup3\n        /* \"#utility.yul\":6767:6779   */\n      add\n        /* \"#utility.yul\":6760:6779   */\n      swap1\n      pop\n        /* \"#utility.yul\":6419:6785   */\n      swap2\n      swap1\n      pop\n      jump\t// out\n        /* \"#utility.yul\":6791:7210   */\n    tag_47:\n        /* \"#utility.yul\":6957:6961   */\n      0x00\n        /* \"#utility.yul\":6995:6997   */\n      0x20\n        /* \"#utility.yul\":6984:6993   */\n      dup3\n        /* \"#utility.yul\":6980:6998   */\n      add\n        /* \"#utility.yul\":6972:6998   */\n      swap1\n      pop\n        /* \"#utility.yul\":7044:7053   */\n      dup2\n        /* \"#utility.yul\":7038:7042   */\n      dup2\n        /* \"#utility.yul\":7034:7054   */\n      sub\n        /* \"#utility.yul\":7030:7031   */\n      0x00\n        /* \"#utility.yul\":7019:7028   */\n      dup4\n        /* \"#utility.yul\":7015:7032   */\n      add\n        /* \"#utility.yul\":7008:7055   */\n      mstore\n        /* \"#utility.yul\":7072:7203   */\n      tag_172\n        /* \"#utility.yul\":7198:7202   */\n      dup2\n        /* \"#utility.yul\":7072:7203   */\n      tag_93\n      jump\t// in\n    tag_172:\n        /* \"#utility.yul\":7064:7203   */\n      swap1\n      pop\n        /* \"#utility.yul\":6791:7210   */\n      swap2\n      swap1\n      pop\n      jump\t// out\n        /* \"#utility.yul\":7216:7401   */\n    tag_49:\n        /* \"#utility.yul\":7256:7257   */\n      0x00\n        /* \"#utility.yul\":7273:7293   */\n      tag_174\n        /* \"#utility.yul\":7291:7292   */\n      dup3\n        /* \"#utility.yul\":7273:7293   */\n      tag_74\n      jump\t// in\n    tag_174:\n        /* \"#utility.yul\":7268:7293   */\n      swap2\n      pop\n        /* \"#utility.yul\":7307:7327   */\n      tag_175\n        /* \"#utility.yul\":7325:7326   */\n      dup4\n        /* \"#utility.yul\":7307:7327   */\n      tag_74\n      jump\t// in\n    tag_175:\n        /* \"#utility.yul\":7302:7327   */\n      swap3\n      pop\n        /* \"#utility.yul\":7346:7347   */\n      dup3\n        /* \"#utility.yul\":7336:7371   */\n      tag_176\n      jumpi\n        /* \"#utility.yul\":7351:7369   */\n      tag_177\n      tag_90\n      jump\t// in\n    tag_177:\n        /* \"#utility.yul\":7336:7371   */\n    tag_176:\n        /* \"#utility.yul\":7393:7394   */\n      dup3\n        /* \"#utility.yul\":7390:7391   */\n      dup3\n        /* \"#utility.yul\":7386:7395   */\n      div\n        /* \"#utility.yul\":7381:7395   */\n      swap1\n      pop\n        /* \"#utility.yul\":7216:7401   */\n      swap3\n      swap2\n      pop\n      pop\n      jump\t// out\n        /* \"#utility.yul\":7407:7587   */\n    tag_52:\n        /* \"#utility.yul\":7455:7532   */\n      0x4e487b7100000000000000000000000000000000000000000000000000000000\n        /* \"#utility.yul\":7452:7453   */\n      0x00\n        /* \"#utility.yul\":7445:7533   */\n      mstore\n        /* \"#utility.yul\":7552:7556   */\n      0x41\n        /* \"#utility.yul\":7549:7550   */\n      0x04\n        /* \"#utility.yul\":7542:7557   */\n      mstore\n        /* \"#utility.yul\":7576:7580   */\n      0x24\n        /* \"#utility.yul\":7573:7574   */\n      0x00\n        /* \"#utility.yul\":7566:7581   */\n      revert\n\n    auxdata: 0xa264697066735822122011c62eea2d9595ba87a1ccbd28ad3b0ab8587ecd34b97eb128e006b24b326e7664736f6c634300081b0033\n}\n",
				"bytecode": {
					"linkReferences": {},
					"object": "6080604052348015600f57600080fd5b506108e38061001f6000396000f3fe608060405234801561001057600080fd5b50600436106100415760003560e01c80633a2988c014610046578063437276d414610077578063b1fb9071146100a8575b600080fd5b610060600480360381019061005b9190610512565b6100d9565b60405161006e9291906105e2565b60405180910390f35b610091600480360381019061008c9190610512565b610142565b60405161009f929190610624565b60405180910390f35b6100c260048036038101906100bd9190610512565b6101ab565b6040516100d09291906106dd565b60405180910390f35b600080610135848488888080601f016020809104026020016040519081016040528093929190818152602001838380828437600081840152601f19601f820116905080830192505050505050506102159092919063ffffffff16565b9150915094509492505050565b60008061019e848488888080601f016020809104026020016040519081016040528093929190818152602001838380828437600081840152601f19601f8201169050808301925050505050505061025e9092919063ffffffff16565b9150915094509492505050565b60606000610208848488888080601f016020809104026020016040519081016040528093929190818152602001838380828437600081840152601f19601f820116905080830192505050505050506102c89092919063ffffffff16565b9150915094509492505050565b60008060288484610226919061073c565b10156102385760008091509150610256565b60008061024687878761025e565b915091508160001c819350935050505b935093915050565b6000806040848461026f919061073c565b111561027a57600080fd5b6000806102888787876102c8565b91509150806102a2576000801b60009350935050506102c0565b600060208301518787036040036004021c9050806001945094505050505b935093915050565b606060008084846102d9919061073c565b905060016002826102ea919061079f565b0361032a576040517f08c379a00000000000000000000000000000000000000000000000000000000081526004016103219061082d565b60405180910390fd5b600281610337919061084d565b67ffffffffffffffff8111156103505761034f61087e565b5b6040519080825280601f01601f1916602001820160405280156103825781602001600182028036833780820191505090505b50925060019150855184111561039757600080fd5b6103f9565b6000603a8210602f831116156103b7576030820390506103f4565b604782106040831116156103d357600a604183030190506103f4565b606782106060831116156103ef57600a606183030190506103f4565b60ff90505b919050565b60208601855b85811015610462576104168183015160001a61039c565b6104286001830184015160001a61039c565b60ff811460ff8314171561044157600095505050610462565b808260041b178060028b86030460208a0101535050506002810190506103ff565b505050935093915050565b600080fd5b600080fd5b600080fd5b600080fd5b600080fd5b60008083601f84011261049c5761049b610477565b5b8235905067ffffffffffffffff8111156104b9576104b861047c565b5b6020830191508360018202830111156104d5576104d4610481565b5b9250929050565b6000819050919050565b6104ef816104dc565b81146104fa57600080fd5b50565b60008135905061050c816104e6565b92915050565b6000806000806060858703121561052c5761052b61046d565b5b600085013567ffffffffffffffff81111561054a57610549610472565b5b61055687828801610486565b94509450506020610569878288016104fd565b925050604061057a878288016104fd565b91505092959194509250565b600073ffffffffffffffffffffffffffffffffffffffff82169050919050565b60006105b182610586565b9050919050565b6105c1816105a6565b82525050565b60008115159050919050565b6105dc816105c7565b82525050565b60006040820190506105f760008301856105b8565b61060460208301846105d3565b9392505050565b6000819050919050565b61061e8161060b565b82525050565b60006040820190506106396000830185610615565b61064660208301846105d3565b9392505050565b600081519050919050565b600082825260208201905092915050565b60005b8381101561068757808201518184015260208101905061066c565b60008484015250505050565b6000601f19601f8301169050919050565b60006106af8261064d565b6106b98185610658565b93506106c9818560208601610669565b6106d281610693565b840191505092915050565b600060408201905081810360008301526106f781856106a4565b905061070660208301846105d3565b9392505050565b7f4e487b7100000000000000000000000000000000000000000000000000000000600052601160045260246000fd5b6000610747826104dc565b9150610752836104dc565b925082820390508181111561076a5761076961070d565b5b92915050565b7f4e487b7100000000000000000000000000000000000000000000000000000000600052601260045260246000fd5b60006107aa826104dc565b91506107b5836104dc565b9250826107c5576107c4610770565b5b828206905092915050565b600082825260208201905092915050565b7f496e76616c696420737472696e67206c656e6774680000000000000000000000600082015250565b60006108176015836107d0565b9150610822826107e1565b602082019050919050565b600060208201905081810360008301526108468161080a565b9050919050565b6000610858826104dc565b9150610863836104dc565b92508261087357610872610770565b5b828204905092915050565b7f4e487b7100000000000000000000000000000000000000000000000000000000600052604160045260246000fdfea264697066735822122011c62eea2d9595ba87a1ccbd28ad3b0ab8587ecd34b97eb128e006b24b326e7664736f6c634300081b0033",
					"opcodes": "PUSH1 0x80 PUSH1 0x40 MSTORE CALLVALUE DUP1 ISZERO PUSH1 0xF JUMPI PUSH1 0x0 DUP1 REVERT JUMPDEST POP PUSH2 0x8E3 DUP1 PUSH2 0x1F PUSH1 0x0 CODECOPY PUSH1 0x0 RETURN INVALID PUSH1 0x80 PUSH1 0x40 MSTORE CALLVALUE DUP1 ISZERO PUSH2 0x10 JUMPI PUSH1 0x0 DUP1 REVERT JUMPDEST POP PUSH1 0x4 CALLDATASIZE LT PUSH2 0x41 JUMPI PUSH1 0x0 CALLDATALOAD PUSH1 0xE0 SHR DUP1 PUSH4 0x3A2988C0 EQ PUSH2 0x46 JUMPI DUP1 PUSH4 0x437276D4 EQ PUSH2 0x77 JUMPI DUP1 PUSH4 0xB1FB9071 EQ PUSH2 0xA8 JUMPI JUMPDEST PUSH1 0x0 DUP1 REVERT JUMPDEST PUSH2 0x60 PUSH1 0x4 DUP1 CALLDATASIZE SUB DUP2 ADD SWAP1 PUSH2 0x5B SWAP2 SWAP1 PUSH2 0x512 JUMP JUMPDEST PUSH2 0xD9 JUMP JUMPDEST PUSH1 0x40 MLOAD PUSH2 0x6E SWAP3 SWAP2 SWAP1 PUSH2 0x5E2 JUMP JUMPDEST PUSH1 0x40 MLOAD DUP1 SWAP2 SUB SWAP1 RETURN JUMPDEST PUSH2 0x91 PUSH1 0x4 DUP1 CALLDATASIZE SUB DUP2 ADD SWAP1 PUSH2 0x8C SWAP2 SWAP1 PUSH2 0x512 JUMP JUMPDEST PUSH2 0x142 JUMP JUMPDEST PUSH1 0x40 MLOAD PUSH2 0x9F SWAP3 SWAP2 SWAP1 PUSH2 0x624 JUMP JUMPDEST PUSH1 0x40 MLOAD DUP1 SWAP2 SUB SWAP1 RETURN JUMPDEST PUSH2 0xC2 PUSH1 0x4 DUP1 CALLDATASIZE SUB DUP2 ADD SWAP1 PUSH2 0xBD SWAP2 SWAP1 PUSH2 0x512 JUMP JUMPDEST PUSH2 0x1AB JUMP JUMPDEST PUSH1 0x40 MLOAD PUSH2 0xD0 SWAP3 SWAP2 SWAP1 PUSH2 0x6DD JUMP JUMPDEST PUSH1 0x40 MLOAD DUP1 SWAP2 SUB SWAP1 RETURN JUMPDEST PUSH1 0x0 DUP1 PUSH2 0x135 DUP5 DUP5 DUP9 DUP9 DUP1 DUP1 PUSH1 0x1F ADD PUSH1 0x20 DUP1 SWAP2 DIV MUL PUSH1 0x20 ADD PUSH1 0x40 MLOAD SWAP1 DUP2 ADD PUSH1 0x40 MSTORE DUP1 SWAP4 SWAP3 SWAP2 SWAP1 DUP2 DUP2 MSTORE PUSH1 0x20 ADD DUP4 DUP4 DUP1 DUP3 DUP5 CALLDATACOPY PUSH1 0x0 DUP2 DUP5 ADD MSTORE PUSH1 0x1F NOT PUSH1 0x1F DUP3 ADD AND SWAP1 POP DUP1 DUP4 ADD SWAP3 POP POP POP POP POP POP POP PUSH2 0x215 SWAP1 SWAP3 SWAP2 SWAP1 PUSH4 0xFFFFFFFF AND JUMP JUMPDEST SWAP2 POP SWAP2 POP SWAP5 POP SWAP5 SWAP3 POP POP POP JUMP JUMPDEST PUSH1 0x0 DUP1 PUSH2 0x19E DUP5 DUP5 DUP9 DUP9 DUP1 DUP1 PUSH1 0x1F ADD PUSH1 0x20 DUP1 SWAP2 DIV MUL PUSH1 0x20 ADD PUSH1 0x40 MLOAD SWAP1 DUP2 ADD PUSH1 0x40 MSTORE DUP1 SWAP4 SWAP3 SWAP2 SWAP1 DUP2 DUP2 MSTORE PUSH1 0x20 ADD DUP4 DUP4 DUP1 DUP3 DUP5 CALLDATACOPY PUSH1 0x0 DUP2 DUP5 ADD MSTORE PUSH1 0x1F NOT PUSH1 0x1F DUP3 ADD AND SWAP1 POP DUP1 DUP4 ADD SWAP3 POP POP POP POP POP POP POP PUSH2 0x25E SWAP1 SWAP3 SWAP2 SWAP1 PUSH4 0xFFFFFFFF AND JUMP JUMPDEST SWAP2 POP SWAP2 POP SWAP5 POP SWAP5 SWAP3 POP POP POP JUMP JUMPDEST PUSH1 0x60 PUSH1 0x0 PUSH2 0x208 DUP5 DUP5 DUP9 DUP9 DUP1 DUP1 PUSH1 0x1F ADD PUSH1 0x20 DUP1 SWAP2 DIV MUL PUSH1 0x20 ADD PUSH1 0x40 MLOAD SWAP1 DUP2 ADD PUSH1 0x40 MSTORE DUP1 SWAP4 SWAP3 SWAP2 SWAP1 DUP2 DUP2 MSTORE PUSH1 0x20 ADD DUP4 DUP4 DUP1 DUP3 DUP5 CALLDATACOPY PUSH1 0x0 DUP2 DUP5 ADD MSTORE PUSH1 0x1F NOT PUSH1 0x1F DUP3 ADD AND SWAP1 POP DUP1 DUP4 ADD SWAP3 POP POP POP POP POP POP POP PUSH2 0x2C8 SWAP1 SWAP3 SWAP2 SWAP1 PUSH4 0xFFFFFFFF AND JUMP JUMPDEST SWAP2 POP SWAP2 POP SWAP5 POP SWAP5 SWAP3 POP POP POP JUMP JUMPDEST PUSH1 0x0 DUP1 PUSH1 0x28 DUP5 DUP5 PUSH2 0x226 SWAP2 SWAP1 PUSH2 0x73C JUMP JUMPDEST LT ISZERO PUSH2 0x238 JUMPI PUSH1 0x0 DUP1 SWAP2 POP SWAP2 POP PUSH2 0x256 JUMP JUMPDEST PUSH1 0x0 DUP1 PUSH2 0x246 DUP8 DUP8 DUP8 PUSH2 0x25E JUMP JUMPDEST SWAP2 POP SWAP2 POP DUP2 PUSH1 0x0 SHR DUP2 SWAP4 POP SWAP4 POP POP POP JUMPDEST SWAP4 POP SWAP4 SWAP2 POP POP JUMP JUMPDEST PUSH1 0x0 DUP1 PUSH1 0x40 DUP5 DUP5 PUSH2 0x26F SWAP2 SWAP1 PUSH2 0x73C JUMP JUMPDEST GT ISZERO PUSH2 0x27A JUMPI PUSH1 0x0 DUP1 REVERT JUMPDEST PUSH1 0x0 DUP1 PUSH2 0x288 DUP8 DUP8 DUP8 PUSH2 0x2C8 JUMP JUMPDEST SWAP2 POP SWAP2 POP DUP1 PUSH2 0x2A2 JUMPI PUSH1 0x0 DUP1 SHL PUSH1 0x0 SWAP4 POP SWAP4 POP POP POP PUSH2 0x2C0 JUMP JUMPDEST PUSH1 0x0 PUSH1 0x20 DUP4 ADD MLOAD DUP8 DUP8 SUB PUSH1 0x40 SUB PUSH1 0x4 MUL SHR SWAP1 POP DUP1 PUSH1 0x1 SWAP5 POP SWAP5 POP POP POP POP JUMPDEST SWAP4 POP SWAP4 SWAP2 POP POP JUMP JUMPDEST PUSH1 0x60 PUSH1 0x0 DUP1 DUP5 DUP5 PUSH2 0x2D9 SWAP2 SWAP1 PUSH2 0x73C JUMP JUMPDEST SWAP1 POP PUSH1 0x1 PUSH1 0x2 DUP3 PUSH2 0x2EA SWAP2 SWAP1 PUSH2 0x79F JUMP JUMPDEST SUB PUSH2 0x32A JUMPI PUSH1 0x40 MLOAD PUSH32 0x8C379A000000000000000000000000000000000000000000000000000000000 DUP2 MSTORE PUSH1 0x4 ADD PUSH2 0x321 SWAP1 PUSH2 0x82D JUMP JUMPDEST PUSH1 0x40 MLOAD DUP1 SWAP2 SUB SWAP1 REVERT JUMPDEST PUSH1 0x2 DUP2 PUSH2 0x337 SWAP2 SWAP1 PUSH2 0x84D JUMP JUMPDEST PUSH8 0xFFFFFFFFFFFFFFFF DUP2 GT ISZERO PUSH2 0x350 JUMPI PUSH2 0x34F PUSH2 0x87E JUMP JUMPDEST JUMPDEST PUSH1 0x40 MLOAD SWAP1 DUP1 DUP3 MSTORE DUP1 PUSH1 0x1F ADD PUSH1 0x1F NOT AND PUSH1 0x20 ADD DUP3 ADD PUSH1 0x40 MSTORE DUP1 ISZERO PUSH2 0x382 JUMPI DUP2 PUSH1 0x20 ADD PUSH1 0x1 DUP3 MUL DUP1 CALLDATASIZE DUP4 CALLDATACOPY DUP1 DUP3 ADD SWAP2 POP POP SWAP1 POP JUMPDEST POP SWAP3 POP PUSH1 0x1 SWAP2 POP DUP6 MLOAD DUP5 GT ISZERO PUSH2 0x397 JUMPI PUSH1 0x0 DUP1 REVERT JUMPDEST PUSH2 0x3F9 JUMP JUMPDEST PUSH1 0x0 PUSH1 0x3A DUP3 LT PUSH1 0x2F DUP4 GT AND ISZERO PUSH2 0x3B7 JUMPI PUSH1 0x30 DUP3 SUB SWAP1 POP PUSH2 0x3F4 JUMP JUMPDEST PUSH1 0x47 DUP3 LT PUSH1 0x40 DUP4 GT AND ISZERO PUSH2 0x3D3 JUMPI PUSH1 0xA PUSH1 0x41 DUP4 SUB ADD SWAP1 POP PUSH2 0x3F4 JUMP JUMPDEST PUSH1 0x67 DUP3 LT PUSH1 0x60 DUP4 GT AND ISZERO PUSH2 0x3EF JUMPI PUSH1 0xA PUSH1 0x61 DUP4 SUB ADD SWAP1 POP PUSH2 0x3F4 JUMP JUMPDEST PUSH1 0xFF SWAP1 POP JUMPDEST SWAP2 SWAP1 POP JUMP JUMPDEST PUSH1 0x20 DUP7 ADD DUP6 JUMPDEST DUP6 DUP2 LT ISZERO PUSH2 0x462 JUMPI PUSH2 0x416 DUP2 DUP4 ADD MLOAD PUSH1 0x0 BYTE PUSH2 0x39C JUMP JUMPDEST PUSH2 0x428 PUSH1 0x1 DUP4 ADD DUP5 ADD MLOAD PUSH1 0x0 BYTE PUSH2 0x39C JUMP JUMPDEST PUSH1 0xFF DUP2 EQ PUSH1 0xFF DUP4 EQ OR ISZERO PUSH2 0x441 JUMPI PUSH1 0x0 SWAP6 POP POP POP PUSH2 0x462 JUMP JUMPDEST DUP1 DUP3 PUSH1 0x4 SHL OR DUP1 PUSH1 0x2 DUP12 DUP7 SUB DIV PUSH1 0x20 DUP11 ADD ADD MSTORE8 POP POP POP PUSH1 0x2 DUP2 ADD SWAP1 POP PUSH2 0x3FF JUMP JUMPDEST POP POP POP SWAP4 POP SWAP4 SWAP2 POP POP JUMP JUMPDEST PUSH1 0x0 DUP1 REVERT JUMPDEST PUSH1 0x0 DUP1 REVERT JUMPDEST PUSH1 0x0 DUP1 REVERT JUMPDEST PUSH1 0x0 DUP1 REVERT JUMPDEST PUSH1 0x0 DUP1 REVERT JUMPDEST PUSH1 0x0 DUP1 DUP4 PUSH1 0x1F DUP5 ADD SLT PUSH2 0x49C JUMPI PUSH2 0x49B PUSH2 0x477 JUMP JUMPDEST JUMPDEST DUP3 CALLDATALOAD SWAP1 POP PUSH8 0xFFFFFFFFFFFFFFFF DUP2 GT ISZERO PUSH2 0x4B9 JUMPI PUSH2 0x4B8 PUSH2 0x47C JUMP JUMPDEST JUMPDEST PUSH1 0x20 DUP4 ADD SWAP2 POP DUP4 PUSH1 0x1 DUP3 MUL DUP4 ADD GT ISZERO PUSH2 0x4D5 JUMPI PUSH2 0x4D4 PUSH2 0x481 JUMP JUMPDEST JUMPDEST SWAP3 POP SWAP3 SWAP1 POP JUMP JUMPDEST PUSH1 0x0 DUP2 SWAP1 POP SWAP2 SWAP1 POP JUMP JUMPDEST PUSH2 0x4EF DUP2 PUSH2 0x4DC JUMP JUMPDEST DUP2 EQ PUSH2 0x4FA JUMPI PUSH1 0x0 DUP1 REVERT JUMPDEST POP JUMP JUMPDEST PUSH1 0x0 DUP2 CALLDATALOAD SWAP1 POP PUSH2 0x50C DUP2 PUSH2 0x4E6 JUMP JUMPDEST SWAP3 SWAP2 POP POP JUMP JUMPDEST PUSH1 0x0 DUP1 PUSH1 0x0 DUP1 PUSH1 0x60 DUP6 DUP8 SUB SLT ISZERO PUSH2 0x52C JUMPI PUSH2 0x52B PUSH2 0x46D JUMP JUMPDEST JUMPDEST PUSH1 0x0 DUP6 ADD CALLDATALOAD PUSH8 0xFFFFFFFFFFFFFFFF DUP2 GT ISZERO PUSH2 0x54A JUMPI PUSH2 0x549 PUSH2 0x472 JUMP JUMPDEST JUMPDEST PUSH2 0x556 DUP8 DUP3 DUP9 ADD PUSH2 0x486 JUMP JUMPDEST SWAP5 POP SWAP5 POP POP PUSH1 0x20 PUSH2 0x569 DUP8 DUP3 DUP9 ADD PUSH2 0x4FD JUMP JUMPDEST SWAP3 POP POP PUSH1 0x40 PUSH2 0x57A DUP8 DUP3 DUP9 ADD PUSH2 0x4FD JUMP JUMPDEST SWAP2 POP POP SWAP3 SWAP6 SWAP2 SWAP5 POP SWAP3 POP JUMP JUMPDEST PUSH1 0x0 PUSH20 0xFFFFFFFFFFFFFFFFFFFFFFFFFFFFFFFFFFFFFFFF DUP3 AND SWAP1 POP SWAP2 SWAP1 POP JUMP JUMPDEST PUSH1 0x0 PUSH2 0x5B1 DUP3 PUSH2 0x586 JUMP JUMPDEST SWAP1 POP SWAP2 SWAP1 POP JUMP JUMPDEST PUSH2 0x5C1 DUP2 PUSH2 0x5A6 JUMP JUMPDEST DUP3 MSTORE POP POP JUMP JUMPDEST PUSH1 0x0 DUP2 ISZERO ISZERO SWAP1 POP SWAP2 SWAP1 POP JUMP JUMPDEST PUSH2 0x5DC DUP2 PUSH2 0x5C7 JUMP JUMPDEST DUP3 MSTORE POP POP JUMP JUMPDEST PUSH1 0x0 PUSH1 0x40 DUP3 ADD SWAP1 POP PUSH2 0x5F7 PUSH1 0x0 DUP4 ADD DUP6 PUSH2 0x5B8 JUMP JUMPDEST PUSH2 0x604 PUSH1 0x20 DUP4 ADD DUP5 PUSH2 0x5D3 JUMP JUMPDEST SWAP4 SWAP3 POP POP POP JUMP JUMPDEST PUSH1 0x0 DUP2 SWAP1 POP SWAP2 SWAP1 POP JUMP JUMPDEST PUSH2 0x61E DUP2 PUSH2 0x60B JUMP JUMPDEST DUP3 MSTORE POP POP JUMP JUMPDEST PUSH1 0x0 PUSH1 0x40 DUP3 ADD SWAP1 POP PUSH2 0x639 PUSH1 0x0 DUP4 ADD DUP6 PUSH2 0x615 JUMP JUMPDEST PUSH2 0x646 PUSH1 0x20 DUP4 ADD DUP5 PUSH2 0x5D3 JUMP JUMPDEST SWAP4 SWAP3 POP POP POP JUMP JUMPDEST PUSH1 0x0 DUP2 MLOAD SWAP1 POP SWAP2 SWAP1 POP JUMP JUMPDEST PUSH1 0x0 DUP3 DUP3 MSTORE PUSH1 0x20 DUP3 ADD SWAP1 POP SWAP3 SWAP2 POP POP JUMP JUMPDEST PUSH1 0x0 JUMPDEST DUP4 DUP2 LT ISZERO PUSH2 0x687 JUMPI DUP1 DUP3 ADD MLOAD DUP2 DUP5 ADD MSTORE PUSH1 0x20 DUP2 ADD SWAP1 POP PUSH2 0x66C JUMP JUMPDEST PUSH1 0x0 DUP5 DUP5 ADD MSTORE POP POP POP POP JUMP JUMPDEST PUSH1 0x0 PUSH1 0x1F NOT PUSH1 0x1F DUP4 ADD AND SWAP1 POP SWAP2 SWAP1 POP JUMP JUMPDEST PUSH1 0x0 PUSH2 0x6AF DUP3 PUSH2 0x64D JUMP JUMPDEST PUSH2 0x6B9 DUP2 DUP6 PUSH2 0x658 JUMP JUMPDEST SWAP4 POP PUSH2 0x6C9 DUP2 DUP6 PUSH1 0x20 DUP7 ADD PUSH2 0x669 JUMP JUMPDEST PUSH2 0x6D2 DUP2 PUSH2 0x693 JUMP JUMPDEST DUP5 ADD SWAP2 POP POP SWAP3 SWAP2 POP POP JUMP JUMPDEST PUSH1 0x0 PUSH1 0x40 DUP3 ADD SWAP1 POP DUP2 DUP2 SUB PUSH1 0x0 DUP4 ADD MSTORE PUSH2 0x6F7 DUP2 DUP6 PUSH2 0x6A4 JUMP JUMPDEST SWAP1 POP PUSH2 0x706 PUSH1 0x20 DUP4 ADD DUP5 PUSH2 0x5D3 JUMP JUMPDEST SWAP4 SWAP3 POP POP POP JUMP JUMPDEST PUSH32 0x4E487B7100000000000000000000000000000000000000000000000000000000 PUSH1 0x0 MSTORE PUSH1 0x11 PUSH1 0x4 MSTORE PUSH1 0x24 PUSH1 0x0 REVERT JUMPDEST PUSH1 0x0 PUSH2 0x747 DUP3 PUSH2 0x4DC JUMP JUMPDEST SWAP2 POP PUSH2 0x752 DUP4 PUSH2 0x4DC JUMP JUMPDEST SWAP3 POP DUP3 DUP3 SUB SWAP1 POP DUP2 DUP2 GT ISZERO PUSH2 0x76A JUMPI PUSH2 0x769 PUSH2 0x70D JUMP JUMPDEST JUMPDEST SWAP3 SWAP2 POP POP JUMP JUMPDEST PUSH32 0x4E487B7100000000000000000000000000000000000000000000000000000000 PUSH1 0x0 MSTORE PUSH1 0x12 PUSH1 0x4 MSTORE PUSH1 0x24 PUSH1 0x0 REVERT JUMPDEST PUSH1 0x0 PUSH2 0x7AA DUP3 PUSH2 0x4DC JUMP JUMPDEST SWAP2 POP PUSH2 0x7B5 DUP4 PUSH2 0x4DC JUMP JUMPDEST SWAP3 POP DUP3 PUSH2 0x7C5 JUMPI PUSH2 0x7C4 PUSH2 0x770 JUMP JUMPDEST JUMPDEST DUP3 DUP3 MOD SWAP1 POP SWAP3 SWAP2 POP POP JUMP JUMPDEST PUSH1 0x0 DUP3 DUP3 MSTORE PUSH1 0x20 DUP3 ADD SWAP1 POP SWAP3 SWAP2 POP POP JUMP JUMPDEST PUSH32 0x496E76616C696420737472696E67206C656E6774680000000000000000000000 PUSH1 0x0 DUP3 ADD MSTORE POP JUMP JUMPDEST PUSH1 0x0 PUSH2 0x817 PUSH1 0x15 DUP4 PUSH2 0x7D0 JUMP JUMPDEST SWAP2 POP PUSH2 0x822 DUP3 PUSH2 0x7E1 JUMP JUMPDEST PUSH1 0x20 DUP3 ADD SWAP1 POP SWAP2 SWAP1 POP JUMP JUMPDEST PUSH1 0x0 PUSH1 0x20 DUP3 ADD SWAP1 POP DUP2 DUP2 SUB PUSH1 0x0 DUP4 ADD MSTORE PUSH2 0x846 DUP2 PUSH2 0x80A JUMP JUMPDEST SWAP1 POP SWAP2 SWAP1 POP JUMP JUMPDEST PUSH1 0x0 PUSH2 0x858 DUP3 PUSH2 0x4DC JUMP JUMPDEST SWAP2 POP PUSH2 0x863 DUP4 PUSH2 0x4DC JUMP JUMPDEST SWAP3 POP DUP3 PUSH2 0x873 JUMPI PUSH2 0x872 PUSH2 0x770 JUMP JUMPDEST JUMPDEST DUP3 DUP3 DIV SWAP1 POP SWAP3 SWAP2 POP POP JUMP JUMPDEST PUSH32 0x4E487B7100000000000000000000000000000000000000000000000000000000 PUSH1 0x0 MSTORE PUSH1 0x41 PUSH1 0x4 MSTORE PUSH1 0x24 PUSH1 0x0 REVERT INVALID LOG2 PUSH5 0x6970667358 0x22 SLT KECCAK256 GT 0xC6 0x2E 0xEA 0x2D SWAP6 SWAP6 0xBA DUP8 LOG1 0xCC 0xBD 0x28 0xAD EXTCODESIZE EXP 0xB8 PC PUSH31 0xCD34B97EB128E006B24B326E7664736F6C634300081B003300000000000000 "
				},
				"gasEstimates": {
					"creation": {
						"codeDepositCost": "455000",
						"executionCost": "493",
						"totalCost": "455493"
					},
					"external": {
						"hexStringToBytes32(bytes,uint256,uint256)": "infinite",
						"hexToAddress(bytes,uint256,uint256)": "infinite",
						"hexToBytes(bytes,uint256,uint256)": "infinite"
					}
				},
				"methodIdentifiers": {
					"hexStringToBytes32(bytes,uint256,uint256)": "437276d4",
					"hexToAddress(bytes,uint256,uint256)": "3a2988c0",
					"hexToBytes(bytes,uint256,uint256)": "b1fb9071"
				}
			},
			"storageLayout": {
				"storage": [],
				"types": null
			},
			"userdoc": {
				"kind": "user",
				"methods": {},
				"version": 1
			}
		}
	}
}