{
	"package/contracts/root/Root.sol": {
		"Root": {
			"abi": [
				{
					"inputs": [
						{
							"internalType": "contract ENS",
							"name": "_ens",
							"type": "address"
						}
					],
					"stateMutability": "nonpayable",
					"type": "constructor"
				},
				{
					"anonymous": false,
					"inputs": [
						{
							"indexed": true,
							"internalType": "address",
							"name": "controller",
							"type": "address"
						},
						{
							"indexed": false,
							"internalType": "bool",
							"name": "enabled",
							"type": "bool"
						}
					],
					"name": "ControllerChanged",
					"type": "event"
				},
				{
					"anonymous": false,
					"inputs": [
						{
							"indexed": true,
							"internalType": "address",
							"name": "previousOwner",
							"type": "address"
						},
						{
							"indexed": true,
							"internalType": "address",
							"name": "newOwner",
							"type": "address"
						}
					],
					"name": "OwnershipTransferred",
					"type": "event"
				},
				{
					"anonymous": false,
					"inputs": [
						{
							"indexed": true,
							"internalType": "bytes32",
							"name": "label",
							"type": "bytes32"
						}
					],
					"name": "TLDLocked",
					"type": "event"
				},
				{
					"inputs": [
						{
							"internalType": "address",
							"name": "",
							"type": "address"
						}
					],
					"name": "controllers",
					"outputs": [
						{
							"internalType": "bool",
							"name": "",
							"type": "bool"
						}
					],
					"stateMutability": "view",
					"type": "function"
				},
				{
					"inputs": [],
					"name": "ens",
					"outputs": [
						{
							"internalType": "contract ENS",
							"name": "",
							"type": "address"
						}
					],
					"stateMutability": "view",
					"type": "function"
				},
				{
					"inputs": [
						{
							"internalType": "bytes32",
							"name": "label",
							"type": "bytes32"
						}
					],
					"name": "lock",
					"outputs": [],
					"stateMutability": "nonpayable",
					"type": "function"
				},
				{
					"inputs": [
						{
							"internalType": "bytes32",
							"name": "",
							"type": "bytes32"
						}
					],
					"name": "locked",
					"outputs": [
						{
							"internalType": "bool",
							"name": "",
							"type": "bool"
						}
					],
					"stateMutability": "view",
					"type": "function"
				},
				{
					"inputs": [],
					"name": "owner",
					"outputs": [
						{
							"internalType": "address",
							"name": "",
							"type": "address"
						}
					],
					"stateMutability": "view",
					"type": "function"
				},
				{
					"inputs": [],
					"name": "renounceOwnership",
					"outputs": [],
					"stateMutability": "nonpayable",
					"type": "function"
				},
				{
					"inputs": [
						{
							"internalType": "address",
							"name": "controller",
							"type": "address"
						},
						{
							"internalType": "bool",
							"name": "enabled",
							"type": "bool"
						}
					],
					"name": "setController",
					"outputs": [],
					"stateMutability": "nonpayable",
					"type": "function"
				},
				{
					"inputs": [
						{
							"internalType": "address",
							"name": "resolver",
							"type": "address"
						}
					],
					"name": "setResolver",
					"outputs": [],
					"stateMutability": "nonpayable",
					"type": "function"
				},
				{
					"inputs": [
						{
							"internalType": "bytes32",
							"name": "label",
							"type": "bytes32"
						},
						{
							"internalType": "address",
							"name": "owner",
							"type": "address"
						}
					],
					"name": "setSubnodeOwner",
					"outputs": [],
					"stateMutability": "nonpayable",
					"type": "function"
				},
				{
					"inputs": [
						{
							"internalType": "bytes4",
							"name": "interfaceID",
							"type": "bytes4"
						}
					],
					"name": "supportsInterface",
					"outputs": [
						{
							"internalType": "bool",
							"name": "",
							"type": "bool"
						}
					],
					"stateMutability": "pure",
					"type": "function"
				},
				{
					"inputs": [
						{
							"internalType": "address",
							"name": "newOwner",
							"type": "address"
						}
					],
					"name": "transferOwnership",
					"outputs": [],
					"stateMutability": "nonpayable",
					"type": "function"
				}
			],
			"devdoc": {
				"kind": "dev",
				"methods": {
					"owner()": {
						"details": "Returns the address of the current owner."
					},
					"renounceOwnership()": {
						"details": "Leaves the contract without owner. It will not be possible to call `onlyOwner` functions anymore. Can only be called by the current owner. NOTE: Renouncing ownership will leave the contract without an owner, thereby removing any functionality that is only available to the owner."
					},
					"transferOwnership(address)": {
						"details": "Transfers ownership of the contract to a new account (`newOwner`). Can only be called by the current owner."
					}
				},
				"version": 1
			},
			"evm": {
				"assembly": "    /* \"package/contracts/root/Root.sol\":138:1000  contract Root is Ownable, Controllable {... */\n  mstore(0x40, 0x80)\n    /* \"package/contracts/root/Root.sol\":432:482  constructor(ENS _ens) public {... */\n  callvalue\n  dup1\n  iszero\n  tag_1\n  jumpi\n  0x00\n  dup1\n  revert\ntag_1:\n  pop\n  mload(0x40)\n  sub(codesize, bytecodeSize)\n  dup1\n  bytecodeSize\n  dup4\n  codecopy\n  dup2\n  dup2\n  add\n  0x40\n  mstore\n  dup2\n  add\n  swap1\n  tag_2\n  swap2\n  swap1\n  tag_3\n  jump\t// in\ntag_2:\n    /* \"@openzeppelin/contracts/access/Ownable.sol\":867:884  address msgSender */\n  0x00\n    /* \"@openzeppelin/contracts/access/Ownable.sol\":887:899  _msgSender() */\n  tag_7\n    /* \"@openzeppelin/contracts/access/Ownable.sol\":887:897  _msgSender */\n  shl(0x20, tag_8)\n    /* \"@openzeppelin/contracts/access/Ownable.sol\":887:899  _msgSender() */\n  0x20\n  shr\n  jump\t// in\ntag_7:\n    /* \"@openzeppelin/contracts/access/Ownable.sol\":867:899  address msgSender = _msgSender() */\n  swap1\n  pop\n    /* \"@openzeppelin/contracts/access/Ownable.sol\":918:927  msgSender */\n  dup1\n    /* \"@openzeppelin/contracts/access/Ownable.sol\":909:915  _owner */\n  0x00\n  dup1\n    /* \"@openzeppelin/contracts/access/Ownable.sol\":909:927  _owner = msgSender */\n  0x0100\n  exp\n  dup2\n  sload\n  dup2\n  0xffffffffffffffffffffffffffffffffffffffff\n  mul\n  not\n  and\n  swap1\n  dup4\n  0xffffffffffffffffffffffffffffffffffffffff\n  and\n  mul\n  or\n  swap1\n  sstore\n  pop\n    /* \"@openzeppelin/contracts/access/Ownable.sol\":975:984  msgSender */\n  dup1\n    /* \"@openzeppelin/contracts/access/Ownable.sol\":942:985  OwnershipTransferred(address(0), msgSender) */\n  0xffffffffffffffffffffffffffffffffffffffff\n  and\n    /* \"@openzeppelin/contracts/access/Ownable.sol\":971:972  0 */\n  0x00\n    /* \"@openzeppelin/contracts/access/Ownable.sol\":942:985  OwnershipTransferred(address(0), msgSender) */\n  0xffffffffffffffffffffffffffffffffffffffff\n  and\n  0x8be0079c531659141344cd1fd0a4f28419497f9722a3daafe3b4186f6b6457e0\n  mload(0x40)\n  mload(0x40)\n  dup1\n  swap2\n  sub\n  swap1\n  log3\n    /* \"@openzeppelin/contracts/access/Ownable.sol\":857:992  {... */\n  pop\n    /* \"package/contracts/root/Root.sol\":473:477  _ens */\n  dup1\n    /* \"package/contracts/root/Root.sol\":467:470  ens */\n  0x02\n  0x00\n    /* \"package/contracts/root/Root.sol\":467:477  ens = _ens */\n  0x0100\n  exp\n  dup2\n  sload\n  dup2\n  0xffffffffffffffffffffffffffffffffffffffff\n  mul\n  not\n  and\n  swap1\n  dup4\n  0xffffffffffffffffffffffffffffffffffffffff\n  and\n  mul\n  or\n  swap1\n  sstore\n  pop\n    /* \"package/contracts/root/Root.sol\":432:482  constructor(ENS _ens) public {... */\n  pop\n    /* \"package/contracts/root/Root.sol\":138:1000  contract Root is Ownable, Controllable {... */\n  jump(tag_10)\n    /* \"@openzeppelin/contracts/utils/Context.sol\":586:682  function _msgSender() internal view virtual returns (address) {... */\ntag_8:\n    /* \"@openzeppelin/contracts/utils/Context.sol\":639:646  address */\n  0x00\n    /* \"@openzeppelin/contracts/utils/Context.sol\":665:675  msg.sender */\n  caller\n    /* \"@openzeppelin/contracts/utils/Context.sol\":658:675  return msg.sender */\n  swap1\n  pop\n    /* \"@openzeppelin/contracts/utils/Context.sol\":586:682  function _msgSender() internal view virtual returns (address) {... */\n  swap1\n  jump\t// out\n    /* \"#utility.yul\":88:205   */\ntag_13:\n    /* \"#utility.yul\":197:198   */\n  0x00\n    /* \"#utility.yul\":194:195   */\n  dup1\n    /* \"#utility.yul\":187:199   */\n  revert\n    /* \"#utility.yul\":334:460   */\ntag_15:\n    /* \"#utility.yul\":371:378   */\n  0x00\n    /* \"#utility.yul\":411:453   */\n  0xffffffffffffffffffffffffffffffffffffffff\n    /* \"#utility.yul\":404:409   */\n  dup3\n    /* \"#utility.yul\":400:454   */\n  and\n    /* \"#utility.yul\":389:454   */\n  swap1\n  pop\n    /* \"#utility.yul\":334:460   */\n  swap2\n  swap1\n  pop\n  jump\t// out\n    /* \"#utility.yul\":466:562   */\ntag_16:\n    /* \"#utility.yul\":503:510   */\n  0x00\n    /* \"#utility.yul\":532:556   */\n  tag_26\n    /* \"#utility.yul\":550:555   */\n  dup3\n    /* \"#utility.yul\":532:556   */\n  tag_15\n  jump\t// in\ntag_26:\n    /* \"#utility.yul\":521:556   */\n  swap1\n  pop\n    /* \"#utility.yul\":466:562   */\n  swap2\n  swap1\n  pop\n  jump\t// out\n    /* \"#utility.yul\":568:675   */\ntag_17:\n    /* \"#utility.yul\":616:623   */\n  0x00\n    /* \"#utility.yul\":645:669   */\n  tag_28\n    /* \"#utility.yul\":663:668   */\n  dup3\n    /* \"#utility.yul\":645:669   */\n  tag_16\n  jump\t// in\ntag_28:\n    /* \"#utility.yul\":634:669   */\n  swap1\n  pop\n    /* \"#utility.yul\":568:675   */\n  swap2\n  swap1\n  pop\n  jump\t// out\n    /* \"#utility.yul\":681:825   */\ntag_18:\n    /* \"#utility.yul\":765:800   */\n  tag_30\n    /* \"#utility.yul\":794:799   */\n  dup2\n    /* \"#utility.yul\":765:800   */\n  tag_17\n  jump\t// in\ntag_30:\n    /* \"#utility.yul\":758:763   */\n  dup2\n    /* \"#utility.yul\":755:801   */\n  eq\n    /* \"#utility.yul\":745:819   */\n  tag_31\n  jumpi\n    /* \"#utility.yul\":815:816   */\n  0x00\n    /* \"#utility.yul\":812:813   */\n  dup1\n    /* \"#utility.yul\":805:817   */\n  revert\n    /* \"#utility.yul\":745:819   */\ntag_31:\n    /* \"#utility.yul\":681:825   */\n  pop\n  jump\t// out\n    /* \"#utility.yul\":831:996   */\ntag_19:\n    /* \"#utility.yul\":899:904   */\n  0x00\n    /* \"#utility.yul\":930:936   */\n  dup2\n    /* \"#utility.yul\":924:937   */\n  mload\n    /* \"#utility.yul\":915:937   */\n  swap1\n  pop\n    /* \"#utility.yul\":946:990   */\n  tag_33\n    /* \"#utility.yul\":984:989   */\n  dup2\n    /* \"#utility.yul\":946:990   */\n  tag_18\n  jump\t// in\ntag_33:\n    /* \"#utility.yul\":831:996   */\n  swap3\n  swap2\n  pop\n  pop\n  jump\t// out\n    /* \"#utility.yul\":1002:1375   */\ntag_3:\n    /* \"#utility.yul\":1083:1089   */\n  0x00\n    /* \"#utility.yul\":1132:1134   */\n  0x20\n    /* \"#utility.yul\":1120:1129   */\n  dup3\n    /* \"#utility.yul\":1111:1118   */\n  dup5\n    /* \"#utility.yul\":1107:1130   */\n  sub\n    /* \"#utility.yul\":1103:1135   */\n  slt\n    /* \"#utility.yul\":1100:1219   */\n  iszero\n  tag_35\n  jumpi\n    /* \"#utility.yul\":1138:1217   */\n  tag_36\n  tag_13\n  jump\t// in\ntag_36:\n    /* \"#utility.yul\":1100:1219   */\ntag_35:\n    /* \"#utility.yul\":1258:1259   */\n  0x00\n    /* \"#utility.yul\":1283:1358   */\n  tag_37\n    /* \"#utility.yul\":1350:1357   */\n  dup5\n    /* \"#utility.yul\":1341:1347   */\n  dup3\n    /* \"#utility.yul\":1330:1339   */\n  dup6\n    /* \"#utility.yul\":1326:1348   */\n  add\n    /* \"#utility.yul\":1283:1358   */\n  tag_19\n  jump\t// in\ntag_37:\n    /* \"#utility.yul\":1273:1358   */\n  swap2\n  pop\n    /* \"#utility.yul\":1229:1368   */\n  pop\n    /* \"#utility.yul\":1002:1375   */\n  swap3\n  swap2\n  pop\n  pop\n  jump\t// out\n    /* \"package/contracts/root/Root.sol\":138:1000  contract Root is Ownable, Controllable {... */\ntag_10:\n  dataSize(sub_0)\n  dup1\n  dataOffset(sub_0)\n  0x00\n  codecopy\n  0x00\n  return\nstop\n\nsub_0: assembly {\n        /* \"package/contracts/root/Root.sol\":138:1000  contract Root is Ownable, Controllable {... */\n      mstore(0x40, 0x80)\n      callvalue\n      dup1\n      iszero\n      tag_1\n      jumpi\n      0x00\n      dup1\n      revert\n    tag_1:\n      pop\n      jumpi(tag_2, lt(calldatasize, 0x04))\n      shr(0xe0, calldataload(0x00))\n      dup1\n      0x8cb8ecec\n      gt\n      tag_14\n      jumpi\n      dup1\n      0x8cb8ecec\n      eq\n      tag_8\n      jumpi\n      dup1\n      0x8da5cb5b\n      eq\n      tag_9\n      jumpi\n      dup1\n      0xcbe9e764\n      eq\n      tag_10\n      jumpi\n      dup1\n      0xda8c229e\n      eq\n      tag_11\n      jumpi\n      dup1\n      0xe0dba60f\n      eq\n      tag_12\n      jumpi\n      dup1\n      0xf2fde38b\n      eq\n      tag_13\n      jumpi\n      jump(tag_2)\n    tag_14:\n      dup1\n      0x01670ba9\n      eq\n      tag_3\n      jumpi\n      dup1\n      0x01ffc9a7\n      eq\n      tag_4\n      jumpi\n      dup1\n      0x3f15457f\n      eq\n      tag_5\n      jumpi\n      dup1\n      0x4e543b26\n      eq\n      tag_6\n      jumpi\n      dup1\n      0x715018a6\n      eq\n      tag_7\n      jumpi\n    tag_2:\n      0x00\n      dup1\n      revert\n        /* \"package/contracts/root/Root.sol\":762:868  function lock(bytes32 label) external onlyOwner {... */\n    tag_3:\n      tag_15\n      0x04\n      dup1\n      calldatasize\n      sub\n      dup2\n      add\n      swap1\n      tag_16\n      swap2\n      swap1\n      tag_17\n      jump\t// in\n    tag_16:\n      tag_18\n      jump\t// in\n    tag_15:\n      stop\n        /* \"package/contracts/root/Root.sol\":872:998  function supportsInterface(bytes4 interfaceID) external pure returns (bool) {... */\n    tag_4:\n      tag_19\n      0x04\n      dup1\n      calldatasize\n      sub\n      dup2\n      add\n      swap1\n      tag_20\n      swap2\n      swap1\n      tag_21\n      jump\t// in\n    tag_20:\n      tag_22\n      jump\t// in\n    tag_19:\n      mload(0x40)\n      tag_23\n      swap2\n      swap1\n      tag_24\n      jump\t// in\n    tag_23:\n      mload(0x40)\n      dup1\n      swap2\n      sub\n      swap1\n      return\n        /* \"package/contracts/root/Root.sol\":371:385  ENS public ens */\n    tag_5:\n      tag_25\n      tag_26\n      jump\t// in\n    tag_25:\n      mload(0x40)\n      tag_27\n      swap2\n      swap1\n      tag_28\n      jump\t// in\n    tag_27:\n      mload(0x40)\n      dup1\n      swap2\n      sub\n      swap1\n      return\n        /* \"package/contracts/root/Root.sol\":653:758  function setResolver(address resolver) external onlyOwner {... */\n    tag_6:\n      tag_29\n      0x04\n      dup1\n      calldatasize\n      sub\n      dup2\n      add\n      swap1\n      tag_30\n      swap2\n      swap1\n      tag_31\n      jump\t// in\n    tag_30:\n      tag_32\n      jump\t// in\n    tag_29:\n      stop\n        /* \"@openzeppelin/contracts/access/Ownable.sol\":1700:1845  function renounceOwnership() public virtual onlyOwner {... */\n    tag_7:\n      tag_33\n      tag_34\n      jump\t// in\n    tag_33:\n      stop\n        /* \"package/contracts/root/Root.sol\":486:649  function setSubnodeOwner(bytes32 label, address owner) external onlyController {... */\n    tag_8:\n      tag_35\n      0x04\n      dup1\n      calldatasize\n      sub\n      dup2\n      add\n      swap1\n      tag_36\n      swap2\n      swap1\n      tag_37\n      jump\t// in\n    tag_36:\n      tag_38\n      jump\t// in\n    tag_35:\n      stop\n        /* \"@openzeppelin/contracts/access/Ownable.sol\":1068:1153  function owner() public view virtual returns (address) {... */\n    tag_9:\n      tag_39\n      tag_40\n      jump\t// in\n    tag_39:\n      mload(0x40)\n      tag_41\n      swap2\n      swap1\n      tag_42\n      jump\t// in\n    tag_41:\n      mload(0x40)\n      dup1\n      swap2\n      sub\n      swap1\n      return\n        /* \"package/contracts/root/Root.sol\":389:427  mapping(bytes32 => bool) public locked */\n    tag_10:\n      tag_43\n      0x04\n      dup1\n      calldatasize\n      sub\n      dup2\n      add\n      swap1\n      tag_44\n      swap2\n      swap1\n      tag_17\n      jump\t// in\n    tag_44:\n      tag_45\n      jump\t// in\n    tag_43:\n      mload(0x40)\n      tag_46\n      swap2\n      swap1\n      tag_24\n      jump\t// in\n    tag_46:\n      mload(0x40)\n      dup1\n      swap2\n      sub\n      swap1\n      return\n        /* \"package/contracts/root/Controllable.sol\":116:159  mapping(address => bool) public controllers */\n    tag_11:\n      tag_47\n      0x04\n      dup1\n      calldatasize\n      sub\n      dup2\n      add\n      swap1\n      tag_48\n      swap2\n      swap1\n      tag_31\n      jump\t// in\n    tag_48:\n      tag_49\n      jump\t// in\n    tag_47:\n      mload(0x40)\n      tag_50\n      swap2\n      swap1\n      tag_24\n      jump\t// in\n    tag_50:\n      mload(0x40)\n      dup1\n      swap2\n      sub\n      swap1\n      return\n        /* \"package/contracts/root/Controllable.sol\":358:525  function setController(address controller, bool enabled) public onlyOwner {... */\n    tag_12:\n      tag_51\n      0x04\n      dup1\n      calldatasize\n      sub\n      dup2\n      add\n      swap1\n      tag_52\n      swap2\n      swap1\n      tag_53\n      jump\t// in\n    tag_52:\n      tag_54\n      jump\t// in\n    tag_51:\n      stop\n        /* \"@openzeppelin/contracts/access/Ownable.sol\":1994:2234  function transferOwnership(address newOwner) public virtual onlyOwner {... */\n    tag_13:\n      tag_55\n      0x04\n      dup1\n      calldatasize\n      sub\n      dup2\n      add\n      swap1\n      tag_56\n      swap2\n      swap1\n      tag_31\n      jump\t// in\n    tag_56:\n      tag_57\n      jump\t// in\n    tag_55:\n      stop\n        /* \"package/contracts/root/Root.sol\":762:868  function lock(bytes32 label) external onlyOwner {... */\n    tag_18:\n        /* \"@openzeppelin/contracts/access/Ownable.sol\":1291:1303  _msgSender() */\n      tag_59\n        /* \"@openzeppelin/contracts/access/Ownable.sol\":1291:1301  _msgSender */\n      tag_60\n        /* \"@openzeppelin/contracts/access/Ownable.sol\":1291:1303  _msgSender() */\n      jump\t// in\n    tag_59:\n        /* \"@openzeppelin/contracts/access/Ownable.sol\":1280:1303  owner() == _msgSender() */\n      0xffffffffffffffffffffffffffffffffffffffff\n      and\n        /* \"@openzeppelin/contracts/access/Ownable.sol\":1280:1287  owner() */\n      tag_61\n        /* \"@openzeppelin/contracts/access/Ownable.sol\":1280:1285  owner */\n      tag_40\n        /* \"@openzeppelin/contracts/access/Ownable.sol\":1280:1287  owner() */\n      jump\t// in\n    tag_61:\n        /* \"@openzeppelin/contracts/access/Ownable.sol\":1280:1303  owner() == _msgSender() */\n      0xffffffffffffffffffffffffffffffffffffffff\n      and\n      eq\n        /* \"@openzeppelin/contracts/access/Ownable.sol\":1272:1340  require(owner() == _msgSender(), \"Ownable: caller is not the owner\") */\n      tag_62\n      jumpi\n      mload(0x40)\n      0x08c379a000000000000000000000000000000000000000000000000000000000\n      dup2\n      mstore\n      0x04\n      add\n      tag_63\n      swap1\n      tag_64\n      jump\t// in\n    tag_63:\n      mload(0x40)\n      dup1\n      swap2\n      sub\n      swap1\n      revert\n    tag_62:\n        /* \"package/contracts/root/Root.sol\":831:836  label */\n      dup1\n        /* \"package/contracts/root/Root.sol\":821:837  TLDLocked(label) */\n      0x1764176cfa565853ba1ded547a830a9f9bff95231ef6fd228b3ddd6175777569\n      mload(0x40)\n      mload(0x40)\n      dup1\n      swap2\n      sub\n      swap1\n      log2\n        /* \"package/contracts/root/Root.sol\":859:863  true */\n      0x01\n        /* \"package/contracts/root/Root.sol\":843:849  locked */\n      0x03\n        /* \"package/contracts/root/Root.sol\":843:856  locked[label] */\n      0x00\n        /* \"package/contracts/root/Root.sol\":850:855  label */\n      dup4\n        /* \"package/contracts/root/Root.sol\":843:856  locked[label] */\n      dup2\n      mstore\n      0x20\n      add\n      swap1\n      dup2\n      mstore\n      0x20\n      add\n      0x00\n      keccak256\n      0x00\n        /* \"package/contracts/root/Root.sol\":843:863  locked[label] = true */\n      0x0100\n      exp\n      dup2\n      sload\n      dup2\n      0xff\n      mul\n      not\n      and\n      swap1\n      dup4\n      iszero\n      iszero\n      mul\n      or\n      swap1\n      sstore\n      pop\n        /* \"package/contracts/root/Root.sol\":762:868  function lock(bytes32 label) external onlyOwner {... */\n      pop\n      jump\t// out\n        /* \"package/contracts/root/Root.sol\":872:998  function supportsInterface(bytes4 interfaceID) external pure returns (bool) {... */\n    tag_22:\n        /* \"package/contracts/root/Root.sol\":942:946  bool */\n      0x00\n        /* \"package/contracts/root/Root.sol\":284:322  keccak256(\"supportsInterface(bytes4)\") */\n      0x01ffc9a7a5cef8baa21ed3c5c0d7e23accb804b619e9333b597f47a0d84076e2\n        /* \"package/contracts/root/Root.sol\":961:993  interfaceID == INTERFACE_META_ID */\n      not(0xffffffffffffffffffffffffffffffffffffffffffffffffffffffff)\n      and\n        /* \"package/contracts/root/Root.sol\":961:972  interfaceID */\n      dup3\n        /* \"package/contracts/root/Root.sol\":961:993  interfaceID == INTERFACE_META_ID */\n      not(0xffffffffffffffffffffffffffffffffffffffffffffffffffffffff)\n      and\n      eq\n        /* \"package/contracts/root/Root.sol\":954:993  return interfaceID == INTERFACE_META_ID */\n      swap1\n      pop\n        /* \"package/contracts/root/Root.sol\":872:998  function supportsInterface(bytes4 interfaceID) external pure returns (bool) {... */\n      swap2\n      swap1\n      pop\n      jump\t// out\n        /* \"package/contracts/root/Root.sol\":371:385  ENS public ens */\n    tag_26:\n      0x02\n      0x00\n      swap1\n      sload\n      swap1\n      0x0100\n      exp\n      swap1\n      div\n      0xffffffffffffffffffffffffffffffffffffffff\n      and\n      dup2\n      jump\t// out\n        /* \"package/contracts/root/Root.sol\":653:758  function setResolver(address resolver) external onlyOwner {... */\n    tag_32:\n        /* \"@openzeppelin/contracts/access/Ownable.sol\":1291:1303  _msgSender() */\n      tag_68\n        /* \"@openzeppelin/contracts/access/Ownable.sol\":1291:1301  _msgSender */\n      tag_60\n        /* \"@openzeppelin/contracts/access/Ownable.sol\":1291:1303  _msgSender() */\n      jump\t// in\n    tag_68:\n        /* \"@openzeppelin/contracts/access/Ownable.sol\":1280:1303  owner() == _msgSender() */\n      0xffffffffffffffffffffffffffffffffffffffff\n      and\n        /* \"@openzeppelin/contracts/access/Ownable.sol\":1280:1287  owner() */\n      tag_69\n        /* \"@openzeppelin/contracts/access/Ownable.sol\":1280:1285  owner */\n      tag_40\n        /* \"@openzeppelin/contracts/access/Ownable.sol\":1280:1287  owner() */\n      jump\t// in\n    tag_69:\n        /* \"@openzeppelin/contracts/access/Ownable.sol\":1280:1303  owner() == _msgSender() */\n      0xffffffffffffffffffffffffffffffffffffffff\n      and\n      eq\n        /* \"@openzeppelin/contracts/access/Ownable.sol\":1272:1340  require(owner() == _msgSender(), \"Ownable: caller is not the owner\") */\n      tag_70\n      jumpi\n      mload(0x40)\n      0x08c379a000000000000000000000000000000000000000000000000000000000\n      dup2\n      mstore\n      0x04\n      add\n      tag_71\n      swap1\n      tag_64\n      jump\t// in\n    tag_71:\n      mload(0x40)\n      dup1\n      swap2\n      sub\n      swap1\n      revert\n    tag_70:\n        /* \"package/contracts/root/Root.sol\":717:720  ens */\n      0x02\n      0x00\n      swap1\n      sload\n      swap1\n      0x0100\n      exp\n      swap1\n      div\n      0xffffffffffffffffffffffffffffffffffffffff\n      and\n        /* \"package/contracts/root/Root.sol\":717:732  ens.setResolver */\n      0xffffffffffffffffffffffffffffffffffffffff\n      and\n      0x1896f70a\n        /* \"package/contracts/root/Root.sol\":226:227  0 */\n      0x00\n        /* \"package/contracts/root/Root.sol\":218:228  bytes32(0) */\n      dup1\n      shl\n        /* \"package/contracts/root/Root.sol\":744:752  resolver */\n      dup4\n        /* \"package/contracts/root/Root.sol\":717:753  ens.setResolver(ROOT_NODE, resolver) */\n      mload(0x40)\n      dup4\n      0xffffffff\n      and\n      0xe0\n      shl\n      dup2\n      mstore\n      0x04\n      add\n      tag_73\n      swap3\n      swap2\n      swap1\n      tag_74\n      jump\t// in\n    tag_73:\n      0x00\n      mload(0x40)\n      dup1\n      dup4\n      sub\n      dup2\n      0x00\n      dup8\n      dup1\n      extcodesize\n      iszero\n      dup1\n      iszero\n      tag_75\n      jumpi\n      0x00\n      dup1\n      revert\n    tag_75:\n      pop\n      gas\n      call\n      iszero\n      dup1\n      iszero\n      tag_77\n      jumpi\n      returndatasize\n      0x00\n      dup1\n      returndatacopy\n      revert(0x00, returndatasize)\n    tag_77:\n      pop\n      pop\n      pop\n      pop\n        /* \"package/contracts/root/Root.sol\":653:758  function setResolver(address resolver) external onlyOwner {... */\n      pop\n      jump\t// out\n        /* \"@openzeppelin/contracts/access/Ownable.sol\":1700:1845  function renounceOwnership() public virtual onlyOwner {... */\n    tag_34:\n        /* \"@openzeppelin/contracts/access/Ownable.sol\":1291:1303  _msgSender() */\n      tag_79\n        /* \"@openzeppelin/contracts/access/Ownable.sol\":1291:1301  _msgSender */\n      tag_60\n        /* \"@openzeppelin/contracts/access/Ownable.sol\":1291:1303  _msgSender() */\n      jump\t// in\n    tag_79:\n        /* \"@openzeppelin/contracts/access/Ownable.sol\":1280:1303  owner() == _msgSender() */\n      0xffffffffffffffffffffffffffffffffffffffff\n      and\n        /* \"@openzeppelin/contracts/access/Ownable.sol\":1280:1287  owner() */\n      tag_80\n        /* \"@openzeppelin/contracts/access/Ownable.sol\":1280:1285  owner */\n      tag_40\n        /* \"@openzeppelin/contracts/access/Ownable.sol\":1280:1287  owner() */\n      jump\t// in\n    tag_80:\n        /* \"@openzeppelin/contracts/access/Ownable.sol\":1280:1303  owner() == _msgSender() */\n      0xffffffffffffffffffffffffffffffffffffffff\n      and\n      eq\n        /* \"@openzeppelin/contracts/access/Ownable.sol\":1272:1340  require(owner() == _msgSender(), \"Ownable: caller is not the owner\") */\n      tag_81\n      jumpi\n      mload(0x40)\n      0x08c379a000000000000000000000000000000000000000000000000000000000\n      dup2\n      mstore\n      0x04\n      add\n      tag_82\n      swap1\n      tag_64\n      jump\t// in\n    tag_82:\n      mload(0x40)\n      dup1\n      swap2\n      sub\n      swap1\n      revert\n    tag_81:\n        /* \"@openzeppelin/contracts/access/Ownable.sol\":1806:1807  0 */\n      0x00\n        /* \"@openzeppelin/contracts/access/Ownable.sol\":1769:1809  OwnershipTransferred(_owner, address(0)) */\n      0xffffffffffffffffffffffffffffffffffffffff\n      and\n        /* \"@openzeppelin/contracts/access/Ownable.sol\":1790:1796  _owner */\n      0x00\n      dup1\n      sload\n      swap1\n      0x0100\n      exp\n      swap1\n      div\n      0xffffffffffffffffffffffffffffffffffffffff\n      and\n        /* \"@openzeppelin/contracts/access/Ownable.sol\":1769:1809  OwnershipTransferred(_owner, address(0)) */\n      0xffffffffffffffffffffffffffffffffffffffff\n      and\n      0x8be0079c531659141344cd1fd0a4f28419497f9722a3daafe3b4186f6b6457e0\n      mload(0x40)\n      mload(0x40)\n      dup1\n      swap2\n      sub\n      swap1\n      log3\n        /* \"@openzeppelin/contracts/access/Ownable.sol\":1836:1837  0 */\n      0x00\n        /* \"@openzeppelin/contracts/access/Ownable.sol\":1819:1825  _owner */\n      dup1\n      0x00\n        /* \"@openzeppelin/contracts/access/Ownable.sol\":1819:1838  _owner = address(0) */\n      0x0100\n      exp\n      dup2\n      sload\n      dup2\n      0xffffffffffffffffffffffffffffffffffffffff\n      mul\n      not\n      and\n      swap1\n      dup4\n      0xffffffffffffffffffffffffffffffffffffffff\n      and\n      mul\n      or\n      swap1\n      sstore\n      pop\n        /* \"@openzeppelin/contracts/access/Ownable.sol\":1700:1845  function renounceOwnership() public virtual onlyOwner {... */\n      jump\t// out\n        /* \"package/contracts/root/Root.sol\":486:649  function setSubnodeOwner(bytes32 label, address owner) external onlyController {... */\n    tag_38:\n        /* \"package/contracts/root/Controllable.sol\":274:285  controllers */\n      0x01\n        /* \"package/contracts/root/Controllable.sol\":274:297  controllers[msg.sender] */\n      0x00\n        /* \"package/contracts/root/Controllable.sol\":286:296  msg.sender */\n      caller\n        /* \"package/contracts/root/Controllable.sol\":274:297  controllers[msg.sender] */\n      0xffffffffffffffffffffffffffffffffffffffff\n      and\n      0xffffffffffffffffffffffffffffffffffffffff\n      and\n      dup2\n      mstore\n      0x20\n      add\n      swap1\n      dup2\n      mstore\n      0x20\n      add\n      0x00\n      keccak256\n      0x00\n      swap1\n      sload\n      swap1\n      0x0100\n      exp\n      swap1\n      div\n      0xff\n      and\n        /* \"package/contracts/root/Controllable.sol\":266:342  require(controllers[msg.sender], \"Controllable: Caller is not a controller\") */\n      tag_85\n      jumpi\n      mload(0x40)\n      0x08c379a000000000000000000000000000000000000000000000000000000000\n      dup2\n      mstore\n      0x04\n      add\n      tag_86\n      swap1\n      tag_87\n      jump\t// in\n    tag_86:\n      mload(0x40)\n      dup1\n      swap2\n      sub\n      swap1\n      revert\n    tag_85:\n        /* \"package/contracts/root/Root.sol\":580:586  locked */\n      0x03\n        /* \"package/contracts/root/Root.sol\":580:593  locked[label] */\n      0x00\n        /* \"package/contracts/root/Root.sol\":587:592  label */\n      dup4\n        /* \"package/contracts/root/Root.sol\":580:593  locked[label] */\n      dup2\n      mstore\n      0x20\n      add\n      swap1\n      dup2\n      mstore\n      0x20\n      add\n      0x00\n      keccak256\n      0x00\n      swap1\n      sload\n      swap1\n      0x0100\n      exp\n      swap1\n      div\n      0xff\n      and\n        /* \"package/contracts/root/Root.sol\":579:593  !locked[label] */\n      iszero\n        /* \"package/contracts/root/Root.sol\":571:594  require(!locked[label]) */\n      tag_89\n      jumpi\n      0x00\n      dup1\n      revert\n    tag_89:\n        /* \"package/contracts/root/Root.sol\":600:603  ens */\n      0x02\n      0x00\n      swap1\n      sload\n      swap1\n      0x0100\n      exp\n      swap1\n      div\n      0xffffffffffffffffffffffffffffffffffffffff\n      and\n        /* \"package/contracts/root/Root.sol\":600:619  ens.setSubnodeOwner */\n      0xffffffffffffffffffffffffffffffffffffffff\n      and\n      0x06ab5923\n        /* \"package/contracts/root/Root.sol\":226:227  0 */\n      0x00\n        /* \"package/contracts/root/Root.sol\":218:228  bytes32(0) */\n      dup1\n      shl\n        /* \"package/contracts/root/Root.sol\":631:636  label */\n      dup5\n        /* \"package/contracts/root/Root.sol\":638:643  owner */\n      dup5\n        /* \"package/contracts/root/Root.sol\":600:644  ens.setSubnodeOwner(ROOT_NODE, label, owner) */\n      mload(0x40)\n      dup5\n      0xffffffff\n      and\n      0xe0\n      shl\n      dup2\n      mstore\n      0x04\n      add\n      tag_90\n      swap4\n      swap3\n      swap2\n      swap1\n      tag_91\n      jump\t// in\n    tag_90:\n      0x20\n      mload(0x40)\n      dup1\n      dup4\n      sub\n      dup2\n      0x00\n      dup8\n      gas\n      call\n      iszero\n      dup1\n      iszero\n      tag_93\n      jumpi\n      returndatasize\n      0x00\n      dup1\n      returndatacopy\n      revert(0x00, returndatasize)\n    tag_93:\n      pop\n      pop\n      pop\n      pop\n      mload(0x40)\n      returndatasize\n      not(0x1f)\n      0x1f\n      dup3\n      add\n      and\n      dup3\n      add\n      dup1\n      0x40\n      mstore\n      pop\n      dup2\n      add\n      swap1\n      tag_94\n      swap2\n      swap1\n      tag_95\n      jump\t// in\n    tag_94:\n      pop\n        /* \"package/contracts/root/Root.sol\":486:649  function setSubnodeOwner(bytes32 label, address owner) external onlyController {... */\n      pop\n      pop\n      jump\t// out\n        /* \"@openzeppelin/contracts/access/Ownable.sol\":1068:1153  function owner() public view virtual returns (address) {... */\n    tag_40:\n        /* \"@openzeppelin/contracts/access/Ownable.sol\":1114:1121  address */\n      0x00\n        /* \"@openzeppelin/contracts/access/Ownable.sol\":1140:1146  _owner */\n      dup1\n      0x00\n      swap1\n      sload\n      swap1\n      0x0100\n      exp\n      swap1\n      div\n      0xffffffffffffffffffffffffffffffffffffffff\n      and\n        /* \"@openzeppelin/contracts/access/Ownable.sol\":1133:1146  return _owner */\n      swap1\n      pop\n        /* \"@openzeppelin/contracts/access/Ownable.sol\":1068:1153  function owner() public view virtual returns (address) {... */\n      swap1\n      jump\t// out\n        /* \"package/contracts/root/Root.sol\":389:427  mapping(bytes32 => bool) public locked */\n    tag_45:\n      mstore(0x20, 0x03)\n      dup1\n      0x00\n      mstore\n      keccak256(0x00, 0x40)\n      0x00\n      swap2\n      pop\n      sload\n      swap1\n      0x0100\n      exp\n      swap1\n      div\n      0xff\n      and\n      dup2\n      jump\t// out\n        /* \"package/contracts/root/Controllable.sol\":116:159  mapping(address => bool) public controllers */\n    tag_49:\n      mstore(0x20, 0x01)\n      dup1\n      0x00\n      mstore\n      keccak256(0x00, 0x40)\n      0x00\n      swap2\n      pop\n      sload\n      swap1\n      0x0100\n      exp\n      swap1\n      div\n      0xff\n      and\n      dup2\n      jump\t// out\n        /* \"package/contracts/root/Controllable.sol\":358:525  function setController(address controller, bool enabled) public onlyOwner {... */\n    tag_54:\n        /* \"@openzeppelin/contracts/access/Ownable.sol\":1291:1303  _msgSender() */\n      tag_98\n        /* \"@openzeppelin/contracts/access/Ownable.sol\":1291:1301  _msgSender */\n      tag_60\n        /* \"@openzeppelin/contracts/access/Ownable.sol\":1291:1303  _msgSender() */\n      jump\t// in\n    tag_98:\n        /* \"@openzeppelin/contracts/access/Ownable.sol\":1280:1303  owner() == _msgSender() */\n      0xffffffffffffffffffffffffffffffffffffffff\n      and\n        /* \"@openzeppelin/contracts/access/Ownable.sol\":1280:1287  owner() */\n      tag_99\n        /* \"@openzeppelin/contracts/access/Ownable.sol\":1280:1285  owner */\n      tag_40\n        /* \"@openzeppelin/contracts/access/Ownable.sol\":1280:1287  owner() */\n      jump\t// in\n    tag_99:\n        /* \"@openzeppelin/contracts/access/Ownable.sol\":1280:1303  owner() == _msgSender() */\n      0xffffffffffffffffffffffffffffffffffffffff\n      and\n      eq\n        /* \"@openzeppelin/contracts/access/Ownable.sol\":1272:1340  require(owner() == _msgSender(), \"Ownable: caller is not the owner\") */\n      tag_100\n      jumpi\n      mload(0x40)\n      0x08c379a000000000000000000000000000000000000000000000000000000000\n      dup2\n      mstore\n      0x04\n      add\n      tag_101\n      swap1\n      tag_64\n      jump\t// in\n    tag_101:\n      mload(0x40)\n      dup1\n      swap2\n      sub\n      swap1\n      revert\n    tag_100:\n        /* \"package/contracts/root/Controllable.sol\":464:471  enabled */\n      dup1\n        /* \"package/contracts/root/Controllable.sol\":438:449  controllers */\n      0x01\n        /* \"package/contracts/root/Controllable.sol\":438:461  controllers[controller] */\n      0x00\n        /* \"package/contracts/root/Controllable.sol\":450:460  controller */\n      dup5\n        /* \"package/contracts/root/Controllable.sol\":438:461  controllers[controller] */\n      0xffffffffffffffffffffffffffffffffffffffff\n      and\n      0xffffffffffffffffffffffffffffffffffffffff\n      and\n      dup2\n      mstore\n      0x20\n      add\n      swap1\n      dup2\n      mstore\n      0x20\n      add\n      0x00\n      keccak256\n      0x00\n        /* \"package/contracts/root/Controllable.sol\":438:471  controllers[controller] = enabled */\n      0x0100\n      exp\n      dup2\n      sload\n      dup2\n      0xff\n      mul\n      not\n      and\n      swap1\n      dup4\n      iszero\n      iszero\n      mul\n      or\n      swap1\n      sstore\n      pop\n        /* \"package/contracts/root/Controllable.sol\":500:510  controller */\n      dup2\n        /* \"package/contracts/root/Controllable.sol\":482:520  ControllerChanged(controller, enabled) */\n      0xffffffffffffffffffffffffffffffffffffffff\n      and\n      0x4c97694570a07277810af7e5669ffd5f6a2d6b74b6e9a274b8b870fd5114cf87\n        /* \"package/contracts/root/Controllable.sol\":512:519  enabled */\n      dup3\n        /* \"package/contracts/root/Controllable.sol\":482:520  ControllerChanged(controller, enabled) */\n      mload(0x40)\n      tag_103\n      swap2\n      swap1\n      tag_24\n      jump\t// in\n    tag_103:\n      mload(0x40)\n      dup1\n      swap2\n      sub\n      swap1\n      log2\n        /* \"package/contracts/root/Controllable.sol\":358:525  function setController(address controller, bool enabled) public onlyOwner {... */\n      pop\n      pop\n      jump\t// out\n        /* \"@openzeppelin/contracts/access/Ownable.sol\":1994:2234  function transferOwnership(address newOwner) public virtual onlyOwner {... */\n    tag_57:\n        /* \"@openzeppelin/contracts/access/Ownable.sol\":1291:1303  _msgSender() */\n      tag_105\n        /* \"@openzeppelin/contracts/access/Ownable.sol\":1291:1301  _msgSender */\n      tag_60\n        /* \"@openzeppelin/contracts/access/Ownable.sol\":1291:1303  _msgSender() */\n      jump\t// in\n    tag_105:\n        /* \"@openzeppelin/contracts/access/Ownable.sol\":1280:1303  owner() == _msgSender() */\n      0xffffffffffffffffffffffffffffffffffffffff\n      and\n        /* \"@openzeppelin/contracts/access/Ownable.sol\":1280:1287  owner() */\n      tag_106\n        /* \"@openzeppelin/contracts/access/Ownable.sol\":1280:1285  owner */\n      tag_40\n        /* \"@openzeppelin/contracts/access/Ownable.sol\":1280:1287  owner() */\n      jump\t// in\n    tag_106:\n        /* \"@openzeppelin/contracts/access/Ownable.sol\":1280:1303  owner() == _msgSender() */\n      0xffffffffffffffffffffffffffffffffffffffff\n      and\n      eq\n        /* \"@openzeppelin/contracts/access/Ownable.sol\":1272:1340  require(owner() == _msgSender(), \"Ownable: caller is not the owner\") */\n      tag_107\n      jumpi\n      mload(0x40)\n      0x08c379a000000000000000000000000000000000000000000000000000000000\n      dup2\n      mstore\n      0x04\n      add\n      tag_108\n      swap1\n      tag_64\n      jump\t// in\n    tag_108:\n      mload(0x40)\n      dup1\n      swap2\n      sub\n      swap1\n      revert\n    tag_107:\n        /* \"@openzeppelin/contracts/access/Ownable.sol\":2102:2103  0 */\n      0x00\n        /* \"@openzeppelin/contracts/access/Ownable.sol\":2082:2104  newOwner != address(0) */\n      0xffffffffffffffffffffffffffffffffffffffff\n      and\n        /* \"@openzeppelin/contracts/access/Ownable.sol\":2082:2090  newOwner */\n      dup2\n        /* \"@openzeppelin/contracts/access/Ownable.sol\":2082:2104  newOwner != address(0) */\n      0xffffffffffffffffffffffffffffffffffffffff\n      and\n      sub\n        /* \"@openzeppelin/contracts/access/Ownable.sol\":2074:2147  require(newOwner != address(0), \"Ownable: new owner is the zero address\") */\n      tag_110\n      jumpi\n      mload(0x40)\n      0x08c379a000000000000000000000000000000000000000000000000000000000\n      dup2\n      mstore\n      0x04\n      add\n      tag_111\n      swap1\n      tag_112\n      jump\t// in\n    tag_111:\n      mload(0x40)\n      dup1\n      swap2\n      sub\n      swap1\n      revert\n    tag_110:\n        /* \"@openzeppelin/contracts/access/Ownable.sol\":2191:2199  newOwner */\n      dup1\n        /* \"@openzeppelin/contracts/access/Ownable.sol\":2162:2200  OwnershipTransferred(_owner, newOwner) */\n      0xffffffffffffffffffffffffffffffffffffffff\n      and\n        /* \"@openzeppelin/contracts/access/Ownable.sol\":2183:2189  _owner */\n      0x00\n      dup1\n      sload\n      swap1\n      0x0100\n      exp\n      swap1\n      div\n      0xffffffffffffffffffffffffffffffffffffffff\n      and\n        /* \"@openzeppelin/contracts/access/Ownable.sol\":2162:2200  OwnershipTransferred(_owner, newOwner) */\n      0xffffffffffffffffffffffffffffffffffffffff\n      and\n      0x8be0079c531659141344cd1fd0a4f28419497f9722a3daafe3b4186f6b6457e0\n      mload(0x40)\n      mload(0x40)\n      dup1\n      swap2\n      sub\n      swap1\n      log3\n        /* \"@openzeppelin/contracts/access/Ownable.sol\":2219:2227  newOwner */\n      dup1\n        /* \"@openzeppelin/contracts/access/Ownable.sol\":2210:2216  _owner */\n      0x00\n      dup1\n        /* \"@openzeppelin/contracts/access/Ownable.sol\":2210:2227  _owner = newOwner */\n      0x0100\n      exp\n      dup2\n      sload\n      dup2\n      0xffffffffffffffffffffffffffffffffffffffff\n      mul\n      not\n      and\n      swap1\n      dup4\n      0xffffffffffffffffffffffffffffffffffffffff\n      and\n      mul\n      or\n      swap1\n      sstore\n      pop\n        /* \"@openzeppelin/contracts/access/Ownable.sol\":1994:2234  function transferOwnership(address newOwner) public virtual onlyOwner {... */\n      pop\n      jump\t// out\n        /* \"@openzeppelin/contracts/utils/Context.sol\":586:682  function _msgSender() internal view virtual returns (address) {... */\n    tag_60:\n        /* \"@openzeppelin/contracts/utils/Context.sol\":639:646  address */\n      0x00\n        /* \"@openzeppelin/contracts/utils/Context.sol\":665:675  msg.sender */\n      caller\n        /* \"@openzeppelin/contracts/utils/Context.sol\":658:675  return msg.sender */\n      swap1\n      pop\n        /* \"@openzeppelin/contracts/utils/Context.sol\":586:682  function _msgSender() internal view virtual returns (address) {... */\n      swap1\n      jump\t// out\n        /* \"#utility.yul\":88:205   */\n    tag_115:\n        /* \"#utility.yul\":197:198   */\n      0x00\n        /* \"#utility.yul\":194:195   */\n      dup1\n        /* \"#utility.yul\":187:199   */\n      revert\n        /* \"#utility.yul\":334:411   */\n    tag_117:\n        /* \"#utility.yul\":371:378   */\n      0x00\n        /* \"#utility.yul\":400:405   */\n      dup2\n        /* \"#utility.yul\":389:405   */\n      swap1\n      pop\n        /* \"#utility.yul\":334:411   */\n      swap2\n      swap1\n      pop\n      jump\t// out\n        /* \"#utility.yul\":417:539   */\n    tag_118:\n        /* \"#utility.yul\":490:514   */\n      tag_152\n        /* \"#utility.yul\":508:513   */\n      dup2\n        /* \"#utility.yul\":490:514   */\n      tag_117\n      jump\t// in\n    tag_152:\n        /* \"#utility.yul\":483:488   */\n      dup2\n        /* \"#utility.yul\":480:515   */\n      eq\n        /* \"#utility.yul\":470:533   */\n      tag_153\n      jumpi\n        /* \"#utility.yul\":529:530   */\n      0x00\n        /* \"#utility.yul\":526:527   */\n      dup1\n        /* \"#utility.yul\":519:531   */\n      revert\n        /* \"#utility.yul\":470:533   */\n    tag_153:\n        /* \"#utility.yul\":417:539   */\n      pop\n      jump\t// out\n        /* \"#utility.yul\":545:684   */\n    tag_119:\n        /* \"#utility.yul\":591:596   */\n      0x00\n        /* \"#utility.yul\":629:635   */\n      dup2\n        /* \"#utility.yul\":616:636   */\n      calldataload\n        /* \"#utility.yul\":607:636   */\n      swap1\n      pop\n        /* \"#utility.yul\":645:678   */\n      tag_155\n        /* \"#utility.yul\":672:677   */\n      dup2\n        /* \"#utility.yul\":645:678   */\n      tag_118\n      jump\t// in\n    tag_155:\n        /* \"#utility.yul\":545:684   */\n      swap3\n      swap2\n      pop\n      pop\n      jump\t// out\n        /* \"#utility.yul\":690:1019   */\n    tag_17:\n        /* \"#utility.yul\":749:755   */\n      0x00\n        /* \"#utility.yul\":798:800   */\n      0x20\n        /* \"#utility.yul\":786:795   */\n      dup3\n        /* \"#utility.yul\":777:784   */\n      dup5\n        /* \"#utility.yul\":773:796   */\n      sub\n        /* \"#utility.yul\":769:801   */\n      slt\n        /* \"#utility.yul\":766:885   */\n      iszero\n      tag_157\n      jumpi\n        /* \"#utility.yul\":804:883   */\n      tag_158\n      tag_115\n      jump\t// in\n    tag_158:\n        /* \"#utility.yul\":766:885   */\n    tag_157:\n        /* \"#utility.yul\":924:925   */\n      0x00\n        /* \"#utility.yul\":949:1002   */\n      tag_159\n        /* \"#utility.yul\":994:1001   */\n      dup5\n        /* \"#utility.yul\":985:991   */\n      dup3\n        /* \"#utility.yul\":974:983   */\n      dup6\n        /* \"#utility.yul\":970:992   */\n      add\n        /* \"#utility.yul\":949:1002   */\n      tag_119\n      jump\t// in\n    tag_159:\n        /* \"#utility.yul\":939:1002   */\n      swap2\n      pop\n        /* \"#utility.yul\":895:1012   */\n      pop\n        /* \"#utility.yul\":690:1019   */\n      swap3\n      swap2\n      pop\n      pop\n      jump\t// out\n        /* \"#utility.yul\":1025:1174   */\n    tag_120:\n        /* \"#utility.yul\":1061:1068   */\n      0x00\n        /* \"#utility.yul\":1101:1167   */\n      0xffffffff00000000000000000000000000000000000000000000000000000000\n        /* \"#utility.yul\":1094:1099   */\n      dup3\n        /* \"#utility.yul\":1090:1168   */\n      and\n        /* \"#utility.yul\":1079:1168   */\n      swap1\n      pop\n        /* \"#utility.yul\":1025:1174   */\n      swap2\n      swap1\n      pop\n      jump\t// out\n        /* \"#utility.yul\":1180:1300   */\n    tag_121:\n        /* \"#utility.yul\":1252:1275   */\n      tag_162\n        /* \"#utility.yul\":1269:1274   */\n      dup2\n        /* \"#utility.yul\":1252:1275   */\n      tag_120\n      jump\t// in\n    tag_162:\n        /* \"#utility.yul\":1245:1250   */\n      dup2\n        /* \"#utility.yul\":1242:1276   */\n      eq\n        /* \"#utility.yul\":1232:1294   */\n      tag_163\n      jumpi\n        /* \"#utility.yul\":1290:1291   */\n      0x00\n        /* \"#utility.yul\":1287:1288   */\n      dup1\n        /* \"#utility.yul\":1280:1292   */\n      revert\n        /* \"#utility.yul\":1232:1294   */\n    tag_163:\n        /* \"#utility.yul\":1180:1300   */\n      pop\n      jump\t// out\n        /* \"#utility.yul\":1306:1443   */\n    tag_122:\n        /* \"#utility.yul\":1351:1356   */\n      0x00\n        /* \"#utility.yul\":1389:1395   */\n      dup2\n        /* \"#utility.yul\":1376:1396   */\n      calldataload\n        /* \"#utility.yul\":1367:1396   */\n      swap1\n      pop\n        /* \"#utility.yul\":1405:1437   */\n      tag_165\n        /* \"#utility.yul\":1431:1436   */\n      dup2\n        /* \"#utility.yul\":1405:1437   */\n      tag_121\n      jump\t// in\n    tag_165:\n        /* \"#utility.yul\":1306:1443   */\n      swap3\n      swap2\n      pop\n      pop\n      jump\t// out\n        /* \"#utility.yul\":1449:1776   */\n    tag_21:\n        /* \"#utility.yul\":1507:1513   */\n      0x00\n        /* \"#utility.yul\":1556:1558   */\n      0x20\n        /* \"#utility.yul\":1544:1553   */\n      dup3\n        /* \"#utility.yul\":1535:1542   */\n      dup5\n        /* \"#utility.yul\":1531:1554   */\n      sub\n        /* \"#utility.yul\":1527:1559   */\n      slt\n        /* \"#utility.yul\":1524:1643   */\n      iszero\n      tag_167\n      jumpi\n        /* \"#utility.yul\":1562:1641   */\n      tag_168\n      tag_115\n      jump\t// in\n    tag_168:\n        /* \"#utility.yul\":1524:1643   */\n    tag_167:\n        /* \"#utility.yul\":1682:1683   */\n      0x00\n        /* \"#utility.yul\":1707:1759   */\n      tag_169\n        /* \"#utility.yul\":1751:1758   */\n      dup5\n        /* \"#utility.yul\":1742:1748   */\n      dup3\n        /* \"#utility.yul\":1731:1740   */\n      dup6\n        /* \"#utility.yul\":1727:1749   */\n      add\n        /* \"#utility.yul\":1707:1759   */\n      tag_122\n      jump\t// in\n    tag_169:\n        /* \"#utility.yul\":1697:1759   */\n      swap2\n      pop\n        /* \"#utility.yul\":1653:1769   */\n      pop\n        /* \"#utility.yul\":1449:1776   */\n      swap3\n      swap2\n      pop\n      pop\n      jump\t// out\n        /* \"#utility.yul\":1782:1872   */\n    tag_123:\n        /* \"#utility.yul\":1816:1823   */\n      0x00\n        /* \"#utility.yul\":1859:1864   */\n      dup2\n        /* \"#utility.yul\":1852:1865   */\n      iszero\n        /* \"#utility.yul\":1845:1866   */\n      iszero\n        /* \"#utility.yul\":1834:1866   */\n      swap1\n      pop\n        /* \"#utility.yul\":1782:1872   */\n      swap2\n      swap1\n      pop\n      jump\t// out\n        /* \"#utility.yul\":1878:1987   */\n    tag_124:\n        /* \"#utility.yul\":1959:1980   */\n      tag_172\n        /* \"#utility.yul\":1974:1979   */\n      dup2\n        /* \"#utility.yul\":1959:1980   */\n      tag_123\n      jump\t// in\n    tag_172:\n        /* \"#utility.yul\":1954:1957   */\n      dup3\n        /* \"#utility.yul\":1947:1981   */\n      mstore\n        /* \"#utility.yul\":1878:1987   */\n      pop\n      pop\n      jump\t// out\n        /* \"#utility.yul\":1993:2203   */\n    tag_24:\n        /* \"#utility.yul\":2080:2084   */\n      0x00\n        /* \"#utility.yul\":2118:2120   */\n      0x20\n        /* \"#utility.yul\":2107:2116   */\n      dup3\n        /* \"#utility.yul\":2103:2121   */\n      add\n        /* \"#utility.yul\":2095:2121   */\n      swap1\n      pop\n        /* \"#utility.yul\":2131:2196   */\n      tag_174\n        /* \"#utility.yul\":2193:2194   */\n      0x00\n        /* \"#utility.yul\":2182:2191   */\n      dup4\n        /* \"#utility.yul\":2178:2195   */\n      add\n        /* \"#utility.yul\":2169:2175   */\n      dup5\n        /* \"#utility.yul\":2131:2196   */\n      tag_124\n      jump\t// in\n    tag_174:\n        /* \"#utility.yul\":1993:2203   */\n      swap3\n      swap2\n      pop\n      pop\n      jump\t// out\n        /* \"#utility.yul\":2209:2335   */\n    tag_125:\n        /* \"#utility.yul\":2246:2253   */\n      0x00\n        /* \"#utility.yul\":2286:2328   */\n      0xffffffffffffffffffffffffffffffffffffffff\n        /* \"#utility.yul\":2279:2284   */\n      dup3\n        /* \"#utility.yul\":2275:2329   */\n      and\n        /* \"#utility.yul\":2264:2329   */\n      swap1\n      pop\n        /* \"#utility.yul\":2209:2335   */\n      swap2\n      swap1\n      pop\n      jump\t// out\n        /* \"#utility.yul\":2341:2401   */\n    tag_126:\n        /* \"#utility.yul\":2369:2372   */\n      0x00\n        /* \"#utility.yul\":2390:2395   */\n      dup2\n        /* \"#utility.yul\":2383:2395   */\n      swap1\n      pop\n        /* \"#utility.yul\":2341:2401   */\n      swap2\n      swap1\n      pop\n      jump\t// out\n        /* \"#utility.yul\":2407:2549   */\n    tag_127:\n        /* \"#utility.yul\":2457:2466   */\n      0x00\n        /* \"#utility.yul\":2490:2543   */\n      tag_178\n        /* \"#utility.yul\":2508:2542   */\n      tag_179\n        /* \"#utility.yul\":2517:2541   */\n      tag_180\n        /* \"#utility.yul\":2535:2540   */\n      dup5\n        /* \"#utility.yul\":2517:2541   */\n      tag_125\n      jump\t// in\n    tag_180:\n        /* \"#utility.yul\":2508:2542   */\n      tag_126\n      jump\t// in\n    tag_179:\n        /* \"#utility.yul\":2490:2543   */\n      tag_125\n      jump\t// in\n    tag_178:\n        /* \"#utility.yul\":2477:2543   */\n      swap1\n      pop\n        /* \"#utility.yul\":2407:2549   */\n      swap2\n      swap1\n      pop\n      jump\t// out\n        /* \"#utility.yul\":2555:2681   */\n    tag_128:\n        /* \"#utility.yul\":2605:2614   */\n      0x00\n        /* \"#utility.yul\":2638:2675   */\n      tag_182\n        /* \"#utility.yul\":2669:2674   */\n      dup3\n        /* \"#utility.yul\":2638:2675   */\n      tag_127\n      jump\t// in\n    tag_182:\n        /* \"#utility.yul\":2625:2675   */\n      swap1\n      pop\n        /* \"#utility.yul\":2555:2681   */\n      swap2\n      swap1\n      pop\n      jump\t// out\n        /* \"#utility.yul\":2687:2824   */\n    tag_129:\n        /* \"#utility.yul\":2748:2757   */\n      0x00\n        /* \"#utility.yul\":2781:2818   */\n      tag_184\n        /* \"#utility.yul\":2812:2817   */\n      dup3\n        /* \"#utility.yul\":2781:2818   */\n      tag_128\n      jump\t// in\n    tag_184:\n        /* \"#utility.yul\":2768:2818   */\n      swap1\n      pop\n        /* \"#utility.yul\":2687:2824   */\n      swap2\n      swap1\n      pop\n      jump\t// out\n        /* \"#utility.yul\":2830:2983   */\n    tag_130:\n        /* \"#utility.yul\":2928:2976   */\n      tag_186\n        /* \"#utility.yul\":2970:2975   */\n      dup2\n        /* \"#utility.yul\":2928:2976   */\n      tag_129\n      jump\t// in\n    tag_186:\n        /* \"#utility.yul\":2923:2926   */\n      dup3\n        /* \"#utility.yul\":2916:2977   */\n      mstore\n        /* \"#utility.yul\":2830:2983   */\n      pop\n      pop\n      jump\t// out\n        /* \"#utility.yul\":2989:3233   */\n    tag_28:\n        /* \"#utility.yul\":3093:3097   */\n      0x00\n        /* \"#utility.yul\":3131:3133   */\n      0x20\n        /* \"#utility.yul\":3120:3129   */\n      dup3\n        /* \"#utility.yul\":3116:3134   */\n      add\n        /* \"#utility.yul\":3108:3134   */\n      swap1\n      pop\n        /* \"#utility.yul\":3144:3226   */\n      tag_188\n        /* \"#utility.yul\":3223:3224   */\n      0x00\n        /* \"#utility.yul\":3212:3221   */\n      dup4\n        /* \"#utility.yul\":3208:3225   */\n      add\n        /* \"#utility.yul\":3199:3205   */\n      dup5\n        /* \"#utility.yul\":3144:3226   */\n      tag_130\n      jump\t// in\n    tag_188:\n        /* \"#utility.yul\":2989:3233   */\n      swap3\n      swap2\n      pop\n      pop\n      jump\t// out\n        /* \"#utility.yul\":3239:3335   */\n    tag_131:\n        /* \"#utility.yul\":3276:3283   */\n      0x00\n        /* \"#utility.yul\":3305:3329   */\n      tag_190\n        /* \"#utility.yul\":3323:3328   */\n      dup3\n        /* \"#utility.yul\":3305:3329   */\n      tag_125\n      jump\t// in\n    tag_190:\n        /* \"#utility.yul\":3294:3329   */\n      swap1\n      pop\n        /* \"#utility.yul\":3239:3335   */\n      swap2\n      swap1\n      pop\n      jump\t// out\n        /* \"#utility.yul\":3341:3463   */\n    tag_132:\n        /* \"#utility.yul\":3414:3438   */\n      tag_192\n        /* \"#utility.yul\":3432:3437   */\n      dup2\n        /* \"#utility.yul\":3414:3438   */\n      tag_131\n      jump\t// in\n    tag_192:\n        /* \"#utility.yul\":3407:3412   */\n      dup2\n        /* \"#utility.yul\":3404:3439   */\n      eq\n        /* \"#utility.yul\":3394:3457   */\n      tag_193\n      jumpi\n        /* \"#utility.yul\":3453:3454   */\n      0x00\n        /* \"#utility.yul\":3450:3451   */\n      dup1\n        /* \"#utility.yul\":3443:3455   */\n      revert\n        /* \"#utility.yul\":3394:3457   */\n    tag_193:\n        /* \"#utility.yul\":3341:3463   */\n      pop\n      jump\t// out\n        /* \"#utility.yul\":3469:3608   */\n    tag_133:\n        /* \"#utility.yul\":3515:3520   */\n      0x00\n        /* \"#utility.yul\":3553:3559   */\n      dup2\n        /* \"#utility.yul\":3540:3560   */\n      calldataload\n        /* \"#utility.yul\":3531:3560   */\n      swap1\n      pop\n        /* \"#utility.yul\":3569:3602   */\n      tag_195\n        /* \"#utility.yul\":3596:3601   */\n      dup2\n        /* \"#utility.yul\":3569:3602   */\n      tag_132\n      jump\t// in\n    tag_195:\n        /* \"#utility.yul\":3469:3608   */\n      swap3\n      swap2\n      pop\n      pop\n      jump\t// out\n        /* \"#utility.yul\":3614:3943   */\n    tag_31:\n        /* \"#utility.yul\":3673:3679   */\n      0x00\n        /* \"#utility.yul\":3722:3724   */\n      0x20\n        /* \"#utility.yul\":3710:3719   */\n      dup3\n        /* \"#utility.yul\":3701:3708   */\n      dup5\n        /* \"#utility.yul\":3697:3720   */\n      sub\n        /* \"#utility.yul\":3693:3725   */\n      slt\n        /* \"#utility.yul\":3690:3809   */\n      iszero\n      tag_197\n      jumpi\n        /* \"#utility.yul\":3728:3807   */\n      tag_198\n      tag_115\n      jump\t// in\n    tag_198:\n        /* \"#utility.yul\":3690:3809   */\n    tag_197:\n        /* \"#utility.yul\":3848:3849   */\n      0x00\n        /* \"#utility.yul\":3873:3926   */\n      tag_199\n        /* \"#utility.yul\":3918:3925   */\n      dup5\n        /* \"#utility.yul\":3909:3915   */\n      dup3\n        /* \"#utility.yul\":3898:3907   */\n      dup6\n        /* \"#utility.yul\":3894:3916   */\n      add\n        /* \"#utility.yul\":3873:3926   */\n      tag_133\n      jump\t// in\n    tag_199:\n        /* \"#utility.yul\":3863:3926   */\n      swap2\n      pop\n        /* \"#utility.yul\":3819:3936   */\n      pop\n        /* \"#utility.yul\":3614:3943   */\n      swap3\n      swap2\n      pop\n      pop\n      jump\t// out\n        /* \"#utility.yul\":3949:4423   */\n    tag_37:\n        /* \"#utility.yul\":4017:4023   */\n      0x00\n        /* \"#utility.yul\":4025:4031   */\n      dup1\n        /* \"#utility.yul\":4074:4076   */\n      0x40\n        /* \"#utility.yul\":4062:4071   */\n      dup4\n        /* \"#utility.yul\":4053:4060   */\n      dup6\n        /* \"#utility.yul\":4049:4072   */\n      sub\n        /* \"#utility.yul\":4045:4077   */\n      slt\n        /* \"#utility.yul\":4042:4161   */\n      iszero\n      tag_201\n      jumpi\n        /* \"#utility.yul\":4080:4159   */\n      tag_202\n      tag_115\n      jump\t// in\n    tag_202:\n        /* \"#utility.yul\":4042:4161   */\n    tag_201:\n        /* \"#utility.yul\":4200:4201   */\n      0x00\n        /* \"#utility.yul\":4225:4278   */\n      tag_203\n        /* \"#utility.yul\":4270:4277   */\n      dup6\n        /* \"#utility.yul\":4261:4267   */\n      dup3\n        /* \"#utility.yul\":4250:4259   */\n      dup7\n        /* \"#utility.yul\":4246:4268   */\n      add\n        /* \"#utility.yul\":4225:4278   */\n      tag_119\n      jump\t// in\n    tag_203:\n        /* \"#utility.yul\":4215:4278   */\n      swap3\n      pop\n        /* \"#utility.yul\":4171:4288   */\n      pop\n        /* \"#utility.yul\":4327:4329   */\n      0x20\n        /* \"#utility.yul\":4353:4406   */\n      tag_204\n        /* \"#utility.yul\":4398:4405   */\n      dup6\n        /* \"#utility.yul\":4389:4395   */\n      dup3\n        /* \"#utility.yul\":4378:4387   */\n      dup7\n        /* \"#utility.yul\":4374:4396   */\n      add\n        /* \"#utility.yul\":4353:4406   */\n      tag_133\n      jump\t// in\n    tag_204:\n        /* \"#utility.yul\":4343:4406   */\n      swap2\n      pop\n        /* \"#utility.yul\":4298:4416   */\n      pop\n        /* \"#utility.yul\":3949:4423   */\n      swap3\n      pop\n      swap3\n      swap1\n      pop\n      jump\t// out\n        /* \"#utility.yul\":4429:4547   */\n    tag_134:\n        /* \"#utility.yul\":4516:4540   */\n      tag_206\n        /* \"#utility.yul\":4534:4539   */\n      dup2\n        /* \"#utility.yul\":4516:4540   */\n      tag_131\n      jump\t// in\n    tag_206:\n        /* \"#utility.yul\":4511:4514   */\n      dup3\n        /* \"#utility.yul\":4504:4541   */\n      mstore\n        /* \"#utility.yul\":4429:4547   */\n      pop\n      pop\n      jump\t// out\n        /* \"#utility.yul\":4553:4775   */\n    tag_42:\n        /* \"#utility.yul\":4646:4650   */\n      0x00\n        /* \"#utility.yul\":4684:4686   */\n      0x20\n        /* \"#utility.yul\":4673:4682   */\n      dup3\n        /* \"#utility.yul\":4669:4687   */\n      add\n        /* \"#utility.yul\":4661:4687   */\n      swap1\n      pop\n        /* \"#utility.yul\":4697:4768   */\n      tag_208\n        /* \"#utility.yul\":4765:4766   */\n      0x00\n        /* \"#utility.yul\":4754:4763   */\n      dup4\n        /* \"#utility.yul\":4750:4767   */\n      add\n        /* \"#utility.yul\":4741:4747   */\n      dup5\n        /* \"#utility.yul\":4697:4768   */\n      tag_134\n      jump\t// in\n    tag_208:\n        /* \"#utility.yul\":4553:4775   */\n      swap3\n      swap2\n      pop\n      pop\n      jump\t// out\n        /* \"#utility.yul\":4781:4897   */\n    tag_135:\n        /* \"#utility.yul\":4851:4872   */\n      tag_210\n        /* \"#utility.yul\":4866:4871   */\n      dup2\n        /* \"#utility.yul\":4851:4872   */\n      tag_123\n      jump\t// in\n    tag_210:\n        /* \"#utility.yul\":4844:4849   */\n      dup2\n        /* \"#utility.yul\":4841:4873   */\n      eq\n        /* \"#utility.yul\":4831:4891   */\n      tag_211\n      jumpi\n        /* \"#utility.yul\":4887:4888   */\n      0x00\n        /* \"#utility.yul\":4884:4885   */\n      dup1\n        /* \"#utility.yul\":4877:4889   */\n      revert\n        /* \"#utility.yul\":4831:4891   */\n    tag_211:\n        /* \"#utility.yul\":4781:4897   */\n      pop\n      jump\t// out\n        /* \"#utility.yul\":4903:5036   */\n    tag_136:\n        /* \"#utility.yul\":4946:4951   */\n      0x00\n        /* \"#utility.yul\":4984:4990   */\n      dup2\n        /* \"#utility.yul\":4971:4991   */\n      calldataload\n        /* \"#utility.yul\":4962:4991   */\n      swap1\n      pop\n        /* \"#utility.yul\":5000:5030   */\n      tag_213\n        /* \"#utility.yul\":5024:5029   */\n      dup2\n        /* \"#utility.yul\":5000:5030   */\n      tag_135\n      jump\t// in\n    tag_213:\n        /* \"#utility.yul\":4903:5036   */\n      swap3\n      swap2\n      pop\n      pop\n      jump\t// out\n        /* \"#utility.yul\":5042:5510   */\n    tag_53:\n        /* \"#utility.yul\":5107:5113   */\n      0x00\n        /* \"#utility.yul\":5115:5121   */\n      dup1\n        /* \"#utility.yul\":5164:5166   */\n      0x40\n        /* \"#utility.yul\":5152:5161   */\n      dup4\n        /* \"#utility.yul\":5143:5150   */\n      dup6\n        /* \"#utility.yul\":5139:5162   */\n      sub\n        /* \"#utility.yul\":5135:5167   */\n      slt\n        /* \"#utility.yul\":5132:5251   */\n      iszero\n      tag_215\n      jumpi\n        /* \"#utility.yul\":5170:5249   */\n      tag_216\n      tag_115\n      jump\t// in\n    tag_216:\n        /* \"#utility.yul\":5132:5251   */\n    tag_215:\n        /* \"#utility.yul\":5290:5291   */\n      0x00\n        /* \"#utility.yul\":5315:5368   */\n      tag_217\n        /* \"#utility.yul\":5360:5367   */\n      dup6\n        /* \"#utility.yul\":5351:5357   */\n      dup3\n        /* \"#utility.yul\":5340:5349   */\n      dup7\n        /* \"#utility.yul\":5336:5358   */\n      add\n        /* \"#utility.yul\":5315:5368   */\n      tag_133\n      jump\t// in\n    tag_217:\n        /* \"#utility.yul\":5305:5368   */\n      swap3\n      pop\n        /* \"#utility.yul\":5261:5378   */\n      pop\n        /* \"#utility.yul\":5417:5419   */\n      0x20\n        /* \"#utility.yul\":5443:5493   */\n      tag_218\n        /* \"#utility.yul\":5485:5492   */\n      dup6\n        /* \"#utility.yul\":5476:5482   */\n      dup3\n        /* \"#utility.yul\":5465:5474   */\n      dup7\n        /* \"#utility.yul\":5461:5483   */\n      add\n        /* \"#utility.yul\":5443:5493   */\n      tag_136\n      jump\t// in\n    tag_218:\n        /* \"#utility.yul\":5433:5493   */\n      swap2\n      pop\n        /* \"#utility.yul\":5388:5503   */\n      pop\n        /* \"#utility.yul\":5042:5510   */\n      swap3\n      pop\n      swap3\n      swap1\n      pop\n      jump\t// out\n        /* \"#utility.yul\":5516:5685   */\n    tag_137:\n        /* \"#utility.yul\":5600:5611   */\n      0x00\n        /* \"#utility.yul\":5634:5640   */\n      dup3\n        /* \"#utility.yul\":5629:5632   */\n      dup3\n        /* \"#utility.yul\":5622:5641   */\n      mstore\n        /* \"#utility.yul\":5674:5678   */\n      0x20\n        /* \"#utility.yul\":5669:5672   */\n      dup3\n        /* \"#utility.yul\":5665:5679   */\n      add\n        /* \"#utility.yul\":5650:5679   */\n      swap1\n      pop\n        /* \"#utility.yul\":5516:5685   */\n      swap3\n      swap2\n      pop\n      pop\n      jump\t// out\n        /* \"#utility.yul\":5691:5873   */\n    tag_138:\n        /* \"#utility.yul\":5831:5865   */\n      0x4f776e61626c653a2063616c6c6572206973206e6f7420746865206f776e6572\n        /* \"#utility.yul\":5827:5828   */\n      0x00\n        /* \"#utility.yul\":5819:5825   */\n      dup3\n        /* \"#utility.yul\":5815:5829   */\n      add\n        /* \"#utility.yul\":5808:5866   */\n      mstore\n        /* \"#utility.yul\":5691:5873   */\n      pop\n      jump\t// out\n        /* \"#utility.yul\":5879:6245   */\n    tag_139:\n        /* \"#utility.yul\":6021:6024   */\n      0x00\n        /* \"#utility.yul\":6042:6109   */\n      tag_222\n        /* \"#utility.yul\":6106:6108   */\n      0x20\n        /* \"#utility.yul\":6101:6104   */\n      dup4\n        /* \"#utility.yul\":6042:6109   */\n      tag_137\n      jump\t// in\n    tag_222:\n        /* \"#utility.yul\":6035:6109   */\n      swap2\n      pop\n        /* \"#utility.yul\":6118:6211   */\n      tag_223\n        /* \"#utility.yul\":6207:6210   */\n      dup3\n        /* \"#utility.yul\":6118:6211   */\n      tag_138\n      jump\t// in\n    tag_223:\n        /* \"#utility.yul\":6236:6238   */\n      0x20\n        /* \"#utility.yul\":6231:6234   */\n      dup3\n        /* \"#utility.yul\":6227:6239   */\n      add\n        /* \"#utility.yul\":6220:6239   */\n      swap1\n      pop\n        /* \"#utility.yul\":5879:6245   */\n      swap2\n      swap1\n      pop\n      jump\t// out\n        /* \"#utility.yul\":6251:6670   */\n    tag_64:\n        /* \"#utility.yul\":6417:6421   */\n      0x00\n        /* \"#utility.yul\":6455:6457   */\n      0x20\n        /* \"#utility.yul\":6444:6453   */\n      dup3\n        /* \"#utility.yul\":6440:6458   */\n      add\n        /* \"#utility.yul\":6432:6458   */\n      swap1\n      pop\n        /* \"#utility.yul\":6504:6513   */\n      dup2\n        /* \"#utility.yul\":6498:6502   */\n      dup2\n        /* \"#utility.yul\":6494:6514   */\n      sub\n        /* \"#utility.yul\":6490:6491   */\n      0x00\n        /* \"#utility.yul\":6479:6488   */\n      dup4\n        /* \"#utility.yul\":6475:6492   */\n      add\n        /* \"#utility.yul\":6468:6515   */\n      mstore\n        /* \"#utility.yul\":6532:6663   */\n      tag_225\n        /* \"#utility.yul\":6658:6662   */\n      dup2\n        /* \"#utility.yul\":6532:6663   */\n      tag_139\n      jump\t// in\n    tag_225:\n        /* \"#utility.yul\":6524:6663   */\n      swap1\n      pop\n        /* \"#utility.yul\":6251:6670   */\n      swap2\n      swap1\n      pop\n      jump\t// out\n        /* \"#utility.yul\":6676:6794   */\n    tag_140:\n        /* \"#utility.yul\":6763:6787   */\n      tag_227\n        /* \"#utility.yul\":6781:6786   */\n      dup2\n        /* \"#utility.yul\":6763:6787   */\n      tag_117\n      jump\t// in\n    tag_227:\n        /* \"#utility.yul\":6758:6761   */\n      dup3\n        /* \"#utility.yul\":6751:6788   */\n      mstore\n        /* \"#utility.yul\":6676:6794   */\n      pop\n      pop\n      jump\t// out\n        /* \"#utility.yul\":6800:7132   */\n    tag_74:\n        /* \"#utility.yul\":6921:6925   */\n      0x00\n        /* \"#utility.yul\":6959:6961   */\n      0x40\n        /* \"#utility.yul\":6948:6957   */\n      dup3\n        /* \"#utility.yul\":6944:6962   */\n      add\n        /* \"#utility.yul\":6936:6962   */\n      swap1\n      pop\n        /* \"#utility.yul\":6972:7043   */\n      tag_229\n        /* \"#utility.yul\":7040:7041   */\n      0x00\n        /* \"#utility.yul\":7029:7038   */\n      dup4\n        /* \"#utility.yul\":7025:7042   */\n      add\n        /* \"#utility.yul\":7016:7022   */\n      dup6\n        /* \"#utility.yul\":6972:7043   */\n      tag_140\n      jump\t// in\n    tag_229:\n        /* \"#utility.yul\":7053:7125   */\n      tag_230\n        /* \"#utility.yul\":7121:7123   */\n      0x20\n        /* \"#utility.yul\":7110:7119   */\n      dup4\n        /* \"#utility.yul\":7106:7124   */\n      add\n        /* \"#utility.yul\":7097:7103   */\n      dup5\n        /* \"#utility.yul\":7053:7125   */\n      tag_134\n      jump\t// in\n    tag_230:\n        /* \"#utility.yul\":6800:7132   */\n      swap4\n      swap3\n      pop\n      pop\n      pop\n      jump\t// out\n        /* \"#utility.yul\":7138:7365   */\n    tag_141:\n        /* \"#utility.yul\":7278:7312   */\n      0x436f6e74726f6c6c61626c653a2043616c6c6572206973206e6f74206120636f\n        /* \"#utility.yul\":7274:7275   */\n      0x00\n        /* \"#utility.yul\":7266:7272   */\n      dup3\n        /* \"#utility.yul\":7262:7276   */\n      add\n        /* \"#utility.yul\":7255:7313   */\n      mstore\n        /* \"#utility.yul\":7347:7357   */\n      0x6e74726f6c6c6572000000000000000000000000000000000000000000000000\n        /* \"#utility.yul\":7342:7344   */\n      0x20\n        /* \"#utility.yul\":7334:7340   */\n      dup3\n        /* \"#utility.yul\":7330:7345   */\n      add\n        /* \"#utility.yul\":7323:7358   */\n      mstore\n        /* \"#utility.yul\":7138:7365   */\n      pop\n      jump\t// out\n        /* \"#utility.yul\":7371:7737   */\n    tag_142:\n        /* \"#utility.yul\":7513:7516   */\n      0x00\n        /* \"#utility.yul\":7534:7601   */\n      tag_233\n        /* \"#utility.yul\":7598:7600   */\n      0x28\n        /* \"#utility.yul\":7593:7596   */\n      dup4\n        /* \"#utility.yul\":7534:7601   */\n      tag_137\n      jump\t// in\n    tag_233:\n        /* \"#utility.yul\":7527:7601   */\n      swap2\n      pop\n        /* \"#utility.yul\":7610:7703   */\n      tag_234\n        /* \"#utility.yul\":7699:7702   */\n      dup3\n        /* \"#utility.yul\":7610:7703   */\n      tag_141\n      jump\t// in\n    tag_234:\n        /* \"#utility.yul\":7728:7730   */\n      0x40\n        /* \"#utility.yul\":7723:7726   */\n      dup3\n        /* \"#utility.yul\":7719:7731   */\n      add\n        /* \"#utility.yul\":7712:7731   */\n      swap1\n      pop\n        /* \"#utility.yul\":7371:7737   */\n      swap2\n      swap1\n      pop\n      jump\t// out\n        /* \"#utility.yul\":7743:8162   */\n    tag_87:\n        /* \"#utility.yul\":7909:7913   */\n      0x00\n        /* \"#utility.yul\":7947:7949   */\n      0x20\n        /* \"#utility.yul\":7936:7945   */\n      dup3\n        /* \"#utility.yul\":7932:7950   */\n      add\n        /* \"#utility.yul\":7924:7950   */\n      swap1\n      pop\n        /* \"#utility.yul\":7996:8005   */\n      dup2\n        /* \"#utility.yul\":7990:7994   */\n      dup2\n        /* \"#utility.yul\":7986:8006   */\n      sub\n        /* \"#utility.yul\":7982:7983   */\n      0x00\n        /* \"#utility.yul\":7971:7980   */\n      dup4\n        /* \"#utility.yul\":7967:7984   */\n      add\n        /* \"#utility.yul\":7960:8007   */\n      mstore\n        /* \"#utility.yul\":8024:8155   */\n      tag_236\n        /* \"#utility.yul\":8150:8154   */\n      dup2\n        /* \"#utility.yul\":8024:8155   */\n      tag_142\n      jump\t// in\n    tag_236:\n        /* \"#utility.yul\":8016:8155   */\n      swap1\n      pop\n        /* \"#utility.yul\":7743:8162   */\n      swap2\n      swap1\n      pop\n      jump\t// out\n        /* \"#utility.yul\":8168:8610   */\n    tag_91:\n        /* \"#utility.yul\":8317:8321   */\n      0x00\n        /* \"#utility.yul\":8355:8357   */\n      0x60\n        /* \"#utility.yul\":8344:8353   */\n      dup3\n        /* \"#utility.yul\":8340:8358   */\n      add\n        /* \"#utility.yul\":8332:8358   */\n      swap1\n      pop\n        /* \"#utility.yul\":8368:8439   */\n      tag_238\n        /* \"#utility.yul\":8436:8437   */\n      0x00\n        /* \"#utility.yul\":8425:8434   */\n      dup4\n        /* \"#utility.yul\":8421:8438   */\n      add\n        /* \"#utility.yul\":8412:8418   */\n      dup7\n        /* \"#utility.yul\":8368:8439   */\n      tag_140\n      jump\t// in\n    tag_238:\n        /* \"#utility.yul\":8449:8521   */\n      tag_239\n        /* \"#utility.yul\":8517:8519   */\n      0x20\n        /* \"#utility.yul\":8506:8515   */\n      dup4\n        /* \"#utility.yul\":8502:8520   */\n      add\n        /* \"#utility.yul\":8493:8499   */\n      dup6\n        /* \"#utility.yul\":8449:8521   */\n      tag_140\n      jump\t// in\n    tag_239:\n        /* \"#utility.yul\":8531:8603   */\n      tag_240\n        /* \"#utility.yul\":8599:8601   */\n      0x40\n        /* \"#utility.yul\":8588:8597   */\n      dup4\n        /* \"#utility.yul\":8584:8602   */\n      add\n        /* \"#utility.yul\":8575:8581   */\n      dup5\n        /* \"#utility.yul\":8531:8603   */\n      tag_134\n      jump\t// in\n    tag_240:\n        /* \"#utility.yul\":8168:8610   */\n      swap5\n      swap4\n      pop\n      pop\n      pop\n      pop\n      jump\t// out\n        /* \"#utility.yul\":8616:8759   */\n    tag_143:\n        /* \"#utility.yul\":8673:8678   */\n      0x00\n        /* \"#utility.yul\":8704:8710   */\n      dup2\n        /* \"#utility.yul\":8698:8711   */\n      mload\n        /* \"#utility.yul\":8689:8711   */\n      swap1\n      pop\n        /* \"#utility.yul\":8720:8753   */\n      tag_242\n        /* \"#utility.yul\":8747:8752   */\n      dup2\n        /* \"#utility.yul\":8720:8753   */\n      tag_118\n      jump\t// in\n    tag_242:\n        /* \"#utility.yul\":8616:8759   */\n      swap3\n      swap2\n      pop\n      pop\n      jump\t// out\n        /* \"#utility.yul\":8765:9116   */\n    tag_95:\n        /* \"#utility.yul\":8835:8841   */\n      0x00\n        /* \"#utility.yul\":8884:8886   */\n      0x20\n        /* \"#utility.yul\":8872:8881   */\n      dup3\n        /* \"#utility.yul\":8863:8870   */\n      dup5\n        /* \"#utility.yul\":8859:8882   */\n      sub\n        /* \"#utility.yul\":8855:8887   */\n      slt\n        /* \"#utility.yul\":8852:8971   */\n      iszero\n      tag_244\n      jumpi\n        /* \"#utility.yul\":8890:8969   */\n      tag_245\n      tag_115\n      jump\t// in\n    tag_245:\n        /* \"#utility.yul\":8852:8971   */\n    tag_244:\n        /* \"#utility.yul\":9010:9011   */\n      0x00\n        /* \"#utility.yul\":9035:9099   */\n      tag_246\n        /* \"#utility.yul\":9091:9098   */\n      dup5\n        /* \"#utility.yul\":9082:9088   */\n      dup3\n        /* \"#utility.yul\":9071:9080   */\n      dup6\n        /* \"#utility.yul\":9067:9089   */\n      add\n        /* \"#utility.yul\":9035:9099   */\n      tag_143\n      jump\t// in\n    tag_246:\n        /* \"#utility.yul\":9025:9099   */\n      swap2\n      pop\n        /* \"#utility.yul\":8981:9109   */\n      pop\n        /* \"#utility.yul\":8765:9116   */\n      swap3\n      swap2\n      pop\n      pop\n      jump\t// out\n        /* \"#utility.yul\":9122:9347   */\n    tag_144:\n        /* \"#utility.yul\":9262:9296   */\n      0x4f776e61626c653a206e6577206f776e657220697320746865207a65726f2061\n        /* \"#utility.yul\":9258:9259   */\n      0x00\n        /* \"#utility.yul\":9250:9256   */\n      dup3\n        /* \"#utility.yul\":9246:9260   */\n      add\n        /* \"#utility.yul\":9239:9297   */\n      mstore\n        /* \"#utility.yul\":9331:9339   */\n      0x6464726573730000000000000000000000000000000000000000000000000000\n        /* \"#utility.yul\":9326:9328   */\n      0x20\n        /* \"#utility.yul\":9318:9324   */\n      dup3\n        /* \"#utility.yul\":9314:9329   */\n      add\n        /* \"#utility.yul\":9307:9340   */\n      mstore\n        /* \"#utility.yul\":9122:9347   */\n      pop\n      jump\t// out\n        /* \"#utility.yul\":9353:9719   */\n    tag_145:\n        /* \"#utility.yul\":9495:9498   */\n      0x00\n        /* \"#utility.yul\":9516:9583   */\n      tag_249\n        /* \"#utility.yul\":9580:9582   */\n      0x26\n        /* \"#utility.yul\":9575:9578   */\n      dup4\n        /* \"#utility.yul\":9516:9583   */\n      tag_137\n      jump\t// in\n    tag_249:\n        /* \"#utility.yul\":9509:9583   */\n      swap2\n      pop\n        /* \"#utility.yul\":9592:9685   */\n      tag_250\n        /* \"#utility.yul\":9681:9684   */\n      dup3\n        /* \"#utility.yul\":9592:9685   */\n      tag_144\n      jump\t// in\n    tag_250:\n        /* \"#utility.yul\":9710:9712   */\n      0x40\n        /* \"#utility.yul\":9705:9708   */\n      dup3\n        /* \"#utility.yul\":9701:9713   */\n      add\n        /* \"#utility.yul\":9694:9713   */\n      swap1\n      pop\n        /* \"#utility.yul\":9353:9719   */\n      swap2\n      swap1\n      pop\n      jump\t// out\n        /* \"#utility.yul\":9725:10144   */\n    tag_112:\n        /* \"#utility.yul\":9891:9895   */\n      0x00\n        /* \"#utility.yul\":9929:9931   */\n      0x20\n        /* \"#utility.yul\":9918:9927   */\n      dup3\n        /* \"#utility.yul\":9914:9932   */\n      add\n        /* \"#utility.yul\":9906:9932   */\n      swap1\n      pop\n        /* \"#utility.yul\":9978:9987   */\n      dup2\n        /* \"#utility.yul\":9972:9976   */\n      dup2\n        /* \"#utility.yul\":9968:9988   */\n      sub\n        /* \"#utility.yul\":9964:9965   */\n      0x00\n        /* \"#utility.yul\":9953:9962   */\n      dup4\n        /* \"#utility.yul\":9949:9966   */\n      add\n        /* \"#utility.yul\":9942:9989   */\n      mstore\n        /* \"#utility.yul\":10006:10137   */\n      tag_252\n        /* \"#utility.yul\":10132:10136   */\n      dup2\n        /* \"#utility.yul\":10006:10137   */\n      tag_145\n      jump\t// in\n    tag_252:\n        /* \"#utility.yul\":9998:10137   */\n      swap1\n      pop\n        /* \"#utility.yul\":9725:10144   */\n      swap2\n      swap1\n      pop\n      jump\t// out\n\n    auxdata: 0xa264697066735822122099e0107be06bbb231098b556b1377f4ff4e129fca10af4bda6054afc4abf956b64736f6c63430008140033\n}\n",
				"bytecode": {
					"linkReferences": {},
					"object": "60806040523480156200001157600080fd5b50604051620011df380380620011df8339818101604052810190620000379190620001b5565b6000620000496200012f60201b60201c565b9050806000806101000a81548173ffffffffffffffffffffffffffffffffffffffff021916908373ffffffffffffffffffffffffffffffffffffffff1602179055508073ffffffffffffffffffffffffffffffffffffffff16600073ffffffffffffffffffffffffffffffffffffffff167f8be0079c531659141344cd1fd0a4f28419497f9722a3daafe3b4186f6b6457e060405160405180910390a35080600260006101000a81548173ffffffffffffffffffffffffffffffffffffffff021916908373ffffffffffffffffffffffffffffffffffffffff16021790555050620001e7565b600033905090565b600080fd5b600073ffffffffffffffffffffffffffffffffffffffff82169050919050565b600062000169826200013c565b9050919050565b60006200017d826200015c565b9050919050565b6200018f8162000170565b81146200019b57600080fd5b50565b600081519050620001af8162000184565b92915050565b600060208284031215620001ce57620001cd62000137565b5b6000620001de848285016200019e565b91505092915050565b610fe880620001f76000396000f3fe608060405234801561001057600080fd5b50600436106100a95760003560e01c80638cb8ecec116100715780638cb8ecec1461013e5780638da5cb5b1461015a578063cbe9e76414610178578063da8c229e146101a8578063e0dba60f146101d8578063f2fde38b146101f4576100a9565b806301670ba9146100ae57806301ffc9a7146100ca5780633f15457f146100fa5780634e543b2614610118578063715018a614610134575b600080fd5b6100c860048036038101906100c39190610a9d565b610210565b005b6100e460048036038101906100df9190610b22565b6102e8565b6040516100f19190610b6a565b60405180910390f35b610102610352565b60405161010f9190610c04565b60405180910390f35b610132600480360381019061012d9190610c5d565b610378565b005b61013c610489565b005b61015860048036038101906101539190610c8a565b6105c3565b005b610162610724565b60405161016f9190610cd9565b60405180910390f35b610192600480360381019061018d9190610a9d565b61074d565b60405161019f9190610b6a565b60405180910390f35b6101c260048036038101906101bd9190610c5d565b61076d565b6040516101cf9190610b6a565b60405180910390f35b6101f260048036038101906101ed9190610d20565b61078d565b005b61020e60048036038101906102099190610c5d565b6108b2565b005b610218610a5a565b73ffffffffffffffffffffffffffffffffffffffff16610236610724565b73ffffffffffffffffffffffffffffffffffffffff161461028c576040517f08c379a000000000000000000000000000000000000000000000000000000000815260040161028390610dbd565b60405180910390fd5b807f1764176cfa565853ba1ded547a830a9f9bff95231ef6fd228b3ddd617577756960405160405180910390a260016003600083815260200190815260200160002060006101000a81548160ff02191690831515021790555050565b60007f01ffc9a7a5cef8baa21ed3c5c0d7e23accb804b619e9333b597f47a0d84076e27bffffffffffffffffffffffffffffffffffffffffffffffffffffffff1916827bffffffffffffffffffffffffffffffffffffffffffffffffffffffff1916149050919050565b600260009054906101000a900473ffffffffffffffffffffffffffffffffffffffff1681565b610380610a5a565b73ffffffffffffffffffffffffffffffffffffffff1661039e610724565b73ffffffffffffffffffffffffffffffffffffffff16146103f4576040517f08c379a00000000000000000000000000000000000000000000000000000000081526004016103eb90610dbd565b60405180910390fd5b600260009054906101000a900473ffffffffffffffffffffffffffffffffffffffff1673ffffffffffffffffffffffffffffffffffffffff16631896f70a6000801b836040518363ffffffff1660e01b8152600401610454929190610dec565b600060405180830381600087803b15801561046e57600080fd5b505af1158015610482573d6000803e3d6000fd5b5050505050565b610491610a5a565b73ffffffffffffffffffffffffffffffffffffffff166104af610724565b73ffffffffffffffffffffffffffffffffffffffff1614610505576040517f08c379a00000000000000000000000000000000000000000000000000000000081526004016104fc90610dbd565b60405180910390fd5b600073ffffffffffffffffffffffffffffffffffffffff1660008054906101000a900473ffffffffffffffffffffffffffffffffffffffff1673ffffffffffffffffffffffffffffffffffffffff167f8be0079c531659141344cd1fd0a4f28419497f9722a3daafe3b4186f6b6457e060405160405180910390a360008060006101000a81548173ffffffffffffffffffffffffffffffffffffffff021916908373ffffffffffffffffffffffffffffffffffffffff160217905550565b600160003373ffffffffffffffffffffffffffffffffffffffff1673ffffffffffffffffffffffffffffffffffffffff16815260200190815260200160002060009054906101000a900460ff1661064f576040517f08c379a000000000000000000000000000000000000000000000000000000000815260040161064690610e87565b60405180910390fd5b6003600083815260200190815260200160002060009054906101000a900460ff161561067a57600080fd5b600260009054906101000a900473ffffffffffffffffffffffffffffffffffffffff1673ffffffffffffffffffffffffffffffffffffffff166306ab59236000801b84846040518463ffffffff1660e01b81526004016106dc93929190610ea7565b6020604051808303816000875af11580156106fb573d6000803e3d6000fd5b505050506040513d601f19601f8201168201806040525081019061071f9190610ef3565b505050565b60008060009054906101000a900473ffffffffffffffffffffffffffffffffffffffff16905090565b60036020528060005260406000206000915054906101000a900460ff1681565b60016020528060005260406000206000915054906101000a900460ff1681565b610795610a5a565b73ffffffffffffffffffffffffffffffffffffffff166107b3610724565b73ffffffffffffffffffffffffffffffffffffffff1614610809576040517f08c379a000000000000000000000000000000000000000000000000000000000815260040161080090610dbd565b60405180910390fd5b80600160008473ffffffffffffffffffffffffffffffffffffffff1673ffffffffffffffffffffffffffffffffffffffff16815260200190815260200160002060006101000a81548160ff0219169083151502179055508173ffffffffffffffffffffffffffffffffffffffff167f4c97694570a07277810af7e5669ffd5f6a2d6b74b6e9a274b8b870fd5114cf87826040516108a69190610b6a565b60405180910390a25050565b6108ba610a5a565b73ffffffffffffffffffffffffffffffffffffffff166108d8610724565b73ffffffffffffffffffffffffffffffffffffffff161461092e576040517f08c379a000000000000000000000000000000000000000000000000000000000815260040161092590610dbd565b60405180910390fd5b600073ffffffffffffffffffffffffffffffffffffffff168173ffffffffffffffffffffffffffffffffffffffff160361099d576040517f08c379a000000000000000000000000000000000000000000000000000000000815260040161099490610f92565b60405180910390fd5b8073ffffffffffffffffffffffffffffffffffffffff1660008054906101000a900473ffffffffffffffffffffffffffffffffffffffff1673ffffffffffffffffffffffffffffffffffffffff167f8be0079c531659141344cd1fd0a4f28419497f9722a3daafe3b4186f6b6457e060405160405180910390a3806000806101000a81548173ffffffffffffffffffffffffffffffffffffffff021916908373ffffffffffffffffffffffffffffffffffffffff16021790555050565b600033905090565b600080fd5b6000819050919050565b610a7a81610a67565b8114610a8557600080fd5b50565b600081359050610a9781610a71565b92915050565b600060208284031215610ab357610ab2610a62565b5b6000610ac184828501610a88565b91505092915050565b60007fffffffff0000000000000000000000000000000000000000000000000000000082169050919050565b610aff81610aca565b8114610b0a57600080fd5b50565b600081359050610b1c81610af6565b92915050565b600060208284031215610b3857610b37610a62565b5b6000610b4684828501610b0d565b91505092915050565b60008115159050919050565b610b6481610b4f565b82525050565b6000602082019050610b7f6000830184610b5b565b92915050565b600073ffffffffffffffffffffffffffffffffffffffff82169050919050565b6000819050919050565b6000610bca610bc5610bc084610b85565b610ba5565b610b85565b9050919050565b6000610bdc82610baf565b9050919050565b6000610bee82610bd1565b9050919050565b610bfe81610be3565b82525050565b6000602082019050610c196000830184610bf5565b92915050565b6000610c2a82610b85565b9050919050565b610c3a81610c1f565b8114610c4557600080fd5b50565b600081359050610c5781610c31565b92915050565b600060208284031215610c7357610c72610a62565b5b6000610c8184828501610c48565b91505092915050565b60008060408385031215610ca157610ca0610a62565b5b6000610caf85828601610a88565b9250506020610cc085828601610c48565b9150509250929050565b610cd381610c1f565b82525050565b6000602082019050610cee6000830184610cca565b92915050565b610cfd81610b4f565b8114610d0857600080fd5b50565b600081359050610d1a81610cf4565b92915050565b60008060408385031215610d3757610d36610a62565b5b6000610d4585828601610c48565b9250506020610d5685828601610d0b565b9150509250929050565b600082825260208201905092915050565b7f4f776e61626c653a2063616c6c6572206973206e6f7420746865206f776e6572600082015250565b6000610da7602083610d60565b9150610db282610d71565b602082019050919050565b60006020820190508181036000830152610dd681610d9a565b9050919050565b610de681610a67565b82525050565b6000604082019050610e016000830185610ddd565b610e0e6020830184610cca565b9392505050565b7f436f6e74726f6c6c61626c653a2043616c6c6572206973206e6f74206120636f60008201527f6e74726f6c6c6572000000000000000000000000000000000000000000000000602082015250565b6000610e71602883610d60565b9150610e7c82610e15565b604082019050919050565b60006020820190508181036000830152610ea081610e64565b9050919050565b6000606082019050610ebc6000830186610ddd565b610ec96020830185610ddd565b610ed66040830184610cca565b949350505050565b600081519050610eed81610a71565b92915050565b600060208284031215610f0957610f08610a62565b5b6000610f1784828501610ede565b91505092915050565b7f4f776e61626c653a206e6577206f776e657220697320746865207a65726f206160008201527f6464726573730000000000000000000000000000000000000000000000000000602082015250565b6000610f7c602683610d60565b9150610f8782610f20565b604082019050919050565b60006020820190508181036000830152610fab81610f6f565b905091905056fea264697066735822122099e0107be06bbb231098b556b1377f4ff4e129fca10af4bda6054afc4abf956b64736f6c63430008140033",
					"opcodes": "PUSH1 0x80 PUSH1 0x40 MSTORE CALLVALUE DUP1 ISZERO PUSH3 0x11 JUMPI PUSH1 0x0 DUP1 REVERT JUMPDEST POP PUSH1 0x40 MLOAD PUSH3 0x11DF CODESIZE SUB DUP1 PUSH3 0x11DF DUP4 CODECOPY DUP2 DUP2 ADD PUSH1 0x40 MSTORE DUP2 ADD SWAP1 PUSH3 0x37 SWAP2 SWAP1 PUSH3 0x1B5 JUMP JUMPDEST PUSH1 0x0 PUSH3 0x49 PUSH3 0x12F PUSH1 0x20 SHL PUSH1 0x20 SHR JUMP JUMPDEST SWAP1 POP DUP1 PUSH1 0x0 DUP1 PUSH2 0x100 EXP DUP2 SLOAD DUP2 PUSH20 0xFFFFFFFFFFFFFFFFFFFFFFFFFFFFFFFFFFFFFFFF MUL NOT AND SWAP1 DUP4 PUSH20 0xFFFFFFFFFFFFFFFFFFFFFFFFFFFFFFFFFFFFFFFF AND MUL OR SWAP1 SSTORE POP DUP1 PUSH20 0xFFFFFFFFFFFFFFFFFFFFFFFFFFFFFFFFFFFFFFFF AND PUSH1 0x0 PUSH20 0xFFFFFFFFFFFFFFFFFFFFFFFFFFFFFFFFFFFFFFFF AND PUSH32 0x8BE0079C531659141344CD1FD0A4F28419497F9722A3DAAFE3B4186F6B6457E0 PUSH1 0x40 MLOAD PUSH1 0x40 MLOAD DUP1 SWAP2 SUB SWAP1 LOG3 POP DUP1 PUSH1 0x2 PUSH1 0x0 PUSH2 0x100 EXP DUP2 SLOAD DUP2 PUSH20 0xFFFFFFFFFFFFFFFFFFFFFFFFFFFFFFFFFFFFFFFF MUL NOT AND SWAP1 DUP4 PUSH20 0xFFFFFFFFFFFFFFFFFFFFFFFFFFFFFFFFFFFFFFFF AND MUL OR SWAP1 SSTORE POP POP PUSH3 0x1E7 JUMP JUMPDEST PUSH1 0x0 CALLER SWAP1 POP SWAP1 JUMP JUMPDEST PUSH1 0x0 DUP1 REVERT JUMPDEST PUSH1 0x0 PUSH20 0xFFFFFFFFFFFFFFFFFFFFFFFFFFFFFFFFFFFFFFFF DUP3 AND SWAP1 POP SWAP2 SWAP1 POP JUMP JUMPDEST PUSH1 0x0 PUSH3 0x169 DUP3 PUSH3 0x13C JUMP JUMPDEST SWAP1 POP SWAP2 SWAP1 POP JUMP JUMPDEST PUSH1 0x0 PUSH3 0x17D DUP3 PUSH3 0x15C JUMP JUMPDEST SWAP1 POP SWAP2 SWAP1 POP JUMP JUMPDEST PUSH3 0x18F DUP2 PUSH3 0x170 JUMP JUMPDEST DUP2 EQ PUSH3 0x19B JUMPI PUSH1 0x0 DUP1 REVERT JUMPDEST POP JUMP JUMPDEST PUSH1 0x0 DUP2 MLOAD SWAP1 POP PUSH3 0x1AF DUP2 PUSH3 0x184 JUMP JUMPDEST SWAP3 SWAP2 POP POP JUMP JUMPDEST PUSH1 0x0 PUSH1 0x20 DUP3 DUP5 SUB SLT ISZERO PUSH3 0x1CE JUMPI PUSH3 0x1CD PUSH3 0x137 JUMP JUMPDEST JUMPDEST PUSH1 0x0 PUSH3 0x1DE DUP5 DUP3 DUP6 ADD PUSH3 0x19E JUMP JUMPDEST SWAP2 POP POP SWAP3 SWAP2 POP POP JUMP JUMPDEST PUSH2 0xFE8 DUP1 PUSH3 0x1F7 PUSH1 0x0 CODECOPY PUSH1 0x0 RETURN INVALID PUSH1 0x80 PUSH1 0x40 MSTORE CALLVALUE DUP1 ISZERO PUSH2 0x10 JUMPI PUSH1 0x0 DUP1 REVERT JUMPDEST POP PUSH1 0x4 CALLDATASIZE LT PUSH2 0xA9 JUMPI PUSH1 0x0 CALLDATALOAD PUSH1 0xE0 SHR DUP1 PUSH4 0x8CB8ECEC GT PUSH2 0x71 JUMPI DUP1 PUSH4 0x8CB8ECEC EQ PUSH2 0x13E JUMPI DUP1 PUSH4 0x8DA5CB5B EQ PUSH2 0x15A JUMPI DUP1 PUSH4 0xCBE9E764 EQ PUSH2 0x178 JUMPI DUP1 PUSH4 0xDA8C229E EQ PUSH2 0x1A8 JUMPI DUP1 PUSH4 0xE0DBA60F EQ PUSH2 0x1D8 JUMPI DUP1 PUSH4 0xF2FDE38B EQ PUSH2 0x1F4 JUMPI PUSH2 0xA9 JUMP JUMPDEST DUP1 PUSH4 0x1670BA9 EQ PUSH2 0xAE JUMPI DUP1 PUSH4 0x1FFC9A7 EQ PUSH2 0xCA JUMPI DUP1 PUSH4 0x3F15457F EQ PUSH2 0xFA JUMPI DUP1 PUSH4 0x4E543B26 EQ PUSH2 0x118 JUMPI DUP1 PUSH4 0x715018A6 EQ PUSH2 0x134 JUMPI JUMPDEST PUSH1 0x0 DUP1 REVERT JUMPDEST PUSH2 0xC8 PUSH1 0x4 DUP1 CALLDATASIZE SUB DUP2 ADD SWAP1 PUSH2 0xC3 SWAP2 SWAP1 PUSH2 0xA9D JUMP JUMPDEST PUSH2 0x210 JUMP JUMPDEST STOP JUMPDEST PUSH2 0xE4 PUSH1 0x4 DUP1 CALLDATASIZE SUB DUP2 ADD SWAP1 PUSH2 0xDF SWAP2 SWAP1 PUSH2 0xB22 JUMP JUMPDEST PUSH2 0x2E8 JUMP JUMPDEST PUSH1 0x40 MLOAD PUSH2 0xF1 SWAP2 SWAP1 PUSH2 0xB6A JUMP JUMPDEST PUSH1 0x40 MLOAD DUP1 SWAP2 SUB SWAP1 RETURN JUMPDEST PUSH2 0x102 PUSH2 0x352 JUMP JUMPDEST PUSH1 0x40 MLOAD PUSH2 0x10F SWAP2 SWAP1 PUSH2 0xC04 JUMP JUMPDEST PUSH1 0x40 MLOAD DUP1 SWAP2 SUB SWAP1 RETURN JUMPDEST PUSH2 0x132 PUSH1 0x4 DUP1 CALLDATASIZE SUB DUP2 ADD SWAP1 PUSH2 0x12D SWAP2 SWAP1 PUSH2 0xC5D JUMP JUMPDEST PUSH2 0x378 JUMP JUMPDEST STOP JUMPDEST PUSH2 0x13C PUSH2 0x489 JUMP JUMPDEST STOP JUMPDEST PUSH2 0x158 PUSH1 0x4 DUP1 CALLDATASIZE SUB DUP2 ADD SWAP1 PUSH2 0x153 SWAP2 SWAP1 PUSH2 0xC8A JUMP JUMPDEST PUSH2 0x5C3 JUMP JUMPDEST STOP JUMPDEST PUSH2 0x162 PUSH2 0x724 JUMP JUMPDEST PUSH1 0x40 MLOAD PUSH2 0x16F SWAP2 SWAP1 PUSH2 0xCD9 JUMP JUMPDEST PUSH1 0x40 MLOAD DUP1 SWAP2 SUB SWAP1 RETURN JUMPDEST PUSH2 0x192 PUSH1 0x4 DUP1 CALLDATASIZE SUB DUP2 ADD SWAP1 PUSH2 0x18D SWAP2 SWAP1 PUSH2 0xA9D JUMP JUMPDEST PUSH2 0x74D JUMP JUMPDEST PUSH1 0x40 MLOAD PUSH2 0x19F SWAP2 SWAP1 PUSH2 0xB6A JUMP JUMPDEST PUSH1 0x40 MLOAD DUP1 SWAP2 SUB SWAP1 RETURN JUMPDEST PUSH2 0x1C2 PUSH1 0x4 DUP1 CALLDATASIZE SUB DUP2 ADD SWAP1 PUSH2 0x1BD SWAP2 SWAP1 PUSH2 0xC5D JUMP JUMPDEST PUSH2 0x76D JUMP JUMPDEST PUSH1 0x40 MLOAD PUSH2 0x1CF SWAP2 SWAP1 PUSH2 0xB6A JUMP JUMPDEST PUSH1 0x40 MLOAD DUP1 SWAP2 SUB SWAP1 RETURN JUMPDEST PUSH2 0x1F2 PUSH1 0x4 DUP1 CALLDATASIZE SUB DUP2 ADD SWAP1 PUSH2 0x1ED SWAP2 SWAP1 PUSH2 0xD20 JUMP JUMPDEST PUSH2 0x78D JUMP JUMPDEST STOP JUMPDEST PUSH2 0x20E PUSH1 0x4 DUP1 CALLDATASIZE SUB DUP2 ADD SWAP1 PUSH2 0x209 SWAP2 SWAP1 PUSH2 0xC5D JUMP JUMPDEST PUSH2 0x8B2 JUMP JUMPDEST STOP JUMPDEST PUSH2 0x218 PUSH2 0xA5A JUMP JUMPDEST PUSH20 0xFFFFFFFFFFFFFFFFFFFFFFFFFFFFFFFFFFFFFFFF AND PUSH2 0x236 PUSH2 0x724 JUMP JUMPDEST PUSH20 0xFFFFFFFFFFFFFFFFFFFFFFFFFFFFFFFFFFFFFFFF AND EQ PUSH2 0x28C JUMPI PUSH1 0x40 MLOAD PUSH32 0x8C379A000000000000000000000000000000000000000000000000000000000 DUP2 MSTORE PUSH1 0x4 ADD PUSH2 0x283 SWAP1 PUSH2 0xDBD JUMP JUMPDEST PUSH1 0x40 MLOAD DUP1 SWAP2 SUB SWAP1 REVERT JUMPDEST DUP1 PUSH32 0x1764176CFA565853BA1DED547A830A9F9BFF95231EF6FD228B3DDD6175777569 PUSH1 0x40 MLOAD PUSH1 0x40 MLOAD DUP1 SWAP2 SUB SWAP1 LOG2 PUSH1 0x1 PUSH1 0x3 PUSH1 0x0 DUP4 DUP2 MSTORE PUSH1 0x20 ADD SWAP1 DUP2 MSTORE PUSH1 0x20 ADD PUSH1 0x0 KECCAK256 PUSH1 0x0 PUSH2 0x100 EXP DUP2 SLOAD DUP2 PUSH1 0xFF MUL NOT AND SWAP1 DUP4 ISZERO ISZERO MUL OR SWAP1 SSTORE POP POP JUMP JUMPDEST PUSH1 0x0 PUSH32 0x1FFC9A7A5CEF8BAA21ED3C5C0D7E23ACCB804B619E9333B597F47A0D84076E2 PUSH28 0xFFFFFFFFFFFFFFFFFFFFFFFFFFFFFFFFFFFFFFFFFFFFFFFFFFFFFFFF NOT AND DUP3 PUSH28 0xFFFFFFFFFFFFFFFFFFFFFFFFFFFFFFFFFFFFFFFFFFFFFFFFFFFFFFFF NOT AND EQ SWAP1 POP SWAP2 SWAP1 POP JUMP JUMPDEST PUSH1 0x2 PUSH1 0x0 SWAP1 SLOAD SWAP1 PUSH2 0x100 EXP SWAP1 DIV PUSH20 0xFFFFFFFFFFFFFFFFFFFFFFFFFFFFFFFFFFFFFFFF AND DUP2 JUMP JUMPDEST PUSH2 0x380 PUSH2 0xA5A JUMP JUMPDEST PUSH20 0xFFFFFFFFFFFFFFFFFFFFFFFFFFFFFFFFFFFFFFFF AND PUSH2 0x39E PUSH2 0x724 JUMP JUMPDEST PUSH20 0xFFFFFFFFFFFFFFFFFFFFFFFFFFFFFFFFFFFFFFFF AND EQ PUSH2 0x3F4 JUMPI PUSH1 0x40 MLOAD PUSH32 0x8C379A000000000000000000000000000000000000000000000000000000000 DUP2 MSTORE PUSH1 0x4 ADD PUSH2 0x3EB SWAP1 PUSH2 0xDBD JUMP JUMPDEST PUSH1 0x40 MLOAD DUP1 SWAP2 SUB SWAP1 REVERT JUMPDEST PUSH1 0x2 PUSH1 0x0 SWAP1 SLOAD SWAP1 PUSH2 0x100 EXP SWAP1 DIV PUSH20 0xFFFFFFFFFFFFFFFFFFFFFFFFFFFFFFFFFFFFFFFF AND PUSH20 0xFFFFFFFFFFFFFFFFFFFFFFFFFFFFFFFFFFFFFFFF AND PUSH4 0x1896F70A PUSH1 0x0 DUP1 SHL DUP4 PUSH1 0x40 MLOAD DUP4 PUSH4 0xFFFFFFFF AND PUSH1 0xE0 SHL DUP2 MSTORE PUSH1 0x4 ADD PUSH2 0x454 SWAP3 SWAP2 SWAP1 PUSH2 0xDEC JUMP JUMPDEST PUSH1 0x0 PUSH1 0x40 MLOAD DUP1 DUP4 SUB DUP2 PUSH1 0x0 DUP8 DUP1 EXTCODESIZE ISZERO DUP1 ISZERO PUSH2 0x46E JUMPI PUSH1 0x0 DUP1 REVERT JUMPDEST POP GAS CALL ISZERO DUP1 ISZERO PUSH2 0x482 JUMPI RETURNDATASIZE PUSH1 0x0 DUP1 RETURNDATACOPY RETURNDATASIZE PUSH1 0x0 REVERT JUMPDEST POP POP POP POP POP JUMP JUMPDEST PUSH2 0x491 PUSH2 0xA5A JUMP JUMPDEST PUSH20 0xFFFFFFFFFFFFFFFFFFFFFFFFFFFFFFFFFFFFFFFF AND PUSH2 0x4AF PUSH2 0x724 JUMP JUMPDEST PUSH20 0xFFFFFFFFFFFFFFFFFFFFFFFFFFFFFFFFFFFFFFFF AND EQ PUSH2 0x505 JUMPI PUSH1 0x40 MLOAD PUSH32 0x8C379A000000000000000000000000000000000000000000000000000000000 DUP2 MSTORE PUSH1 0x4 ADD PUSH2 0x4FC SWAP1 PUSH2 0xDBD JUMP JUMPDEST PUSH1 0x40 MLOAD DUP1 SWAP2 SUB SWAP1 REVERT JUMPDEST PUSH1 0x0 PUSH20 0xFFFFFFFFFFFFFFFFFFFFFFFFFFFFFFFFFFFFFFFF AND PUSH1 0x0 DUP1 SLOAD SWAP1 PUSH2 0x100 EXP SWAP1 DIV PUSH20 0xFFFFFFFFFFFFFFFFFFFFFFFFFFFFFFFFFFFFFFFF AND PUSH20 0xFFFFFFFFFFFFFFFFFFFFFFFFFFFFFFFFFFFFFFFF AND PUSH32 0x8BE0079C531659141344CD1FD0A4F28419497F9722A3DAAFE3B4186F6B6457E0 PUSH1 0x40 MLOAD PUSH1 0x40 MLOAD DUP1 SWAP2 SUB SWAP1 LOG3 PUSH1 0x0 DUP1 PUSH1 0x0 PUSH2 0x100 EXP DUP2 SLOAD DUP2 PUSH20 0xFFFFFFFFFFFFFFFFFFFFFFFFFFFFFFFFFFFFFFFF MUL NOT AND SWAP1 DUP4 PUSH20 0xFFFFFFFFFFFFFFFFFFFFFFFFFFFFFFFFFFFFFFFF AND MUL OR SWAP1 SSTORE POP JUMP JUMPDEST PUSH1 0x1 PUSH1 0x0 CALLER PUSH20 0xFFFFFFFFFFFFFFFFFFFFFFFFFFFFFFFFFFFFFFFF AND PUSH20 0xFFFFFFFFFFFFFFFFFFFFFFFFFFFFFFFFFFFFFFFF AND DUP2 MSTORE PUSH1 0x20 ADD SWAP1 DUP2 MSTORE PUSH1 0x20 ADD PUSH1 0x0 KECCAK256 PUSH1 0x0 SWAP1 SLOAD SWAP1 PUSH2 0x100 EXP SWAP1 DIV PUSH1 0xFF AND PUSH2 0x64F JUMPI PUSH1 0x40 MLOAD PUSH32 0x8C379A000000000000000000000000000000000000000000000000000000000 DUP2 MSTORE PUSH1 0x4 ADD PUSH2 0x646 SWAP1 PUSH2 0xE87 JUMP JUMPDEST PUSH1 0x40 MLOAD DUP1 SWAP2 SUB SWAP1 REVERT JUMPDEST PUSH1 0x3 PUSH1 0x0 DUP4 DUP2 MSTORE PUSH1 0x20 ADD SWAP1 DUP2 MSTORE PUSH1 0x20 ADD PUSH1 0x0 KECCAK256 PUSH1 0x0 SWAP1 SLOAD SWAP1 PUSH2 0x100 EXP SWAP1 DIV PUSH1 0xFF AND ISZERO PUSH2 0x67A JUMPI PUSH1 0x0 DUP1 REVERT JUMPDEST PUSH1 0x2 PUSH1 0x0 SWAP1 SLOAD SWAP1 PUSH2 0x100 EXP SWAP1 DIV PUSH20 0xFFFFFFFFFFFFFFFFFFFFFFFFFFFFFFFFFFFFFFFF AND PUSH20 0xFFFFFFFFFFFFFFFFFFFFFFFFFFFFFFFFFFFFFFFF AND PUSH4 0x6AB5923 PUSH1 0x0 DUP1 SHL DUP5 DUP5 PUSH1 0x40 MLOAD DUP5 PUSH4 0xFFFFFFFF AND PUSH1 0xE0 SHL DUP2 MSTORE PUSH1 0x4 ADD PUSH2 0x6DC SWAP4 SWAP3 SWAP2 SWAP1 PUSH2 0xEA7 JUMP JUMPDEST PUSH1 0x20 PUSH1 0x40 MLOAD DUP1 DUP4 SUB DUP2 PUSH1 0x0 DUP8 GAS CALL ISZERO DUP1 ISZERO PUSH2 0x6FB JUMPI RETURNDATASIZE PUSH1 0x0 DUP1 RETURNDATACOPY RETURNDATASIZE PUSH1 0x0 REVERT JUMPDEST POP POP POP POP PUSH1 0x40 MLOAD RETURNDATASIZE PUSH1 0x1F NOT PUSH1 0x1F DUP3 ADD AND DUP3 ADD DUP1 PUSH1 0x40 MSTORE POP DUP2 ADD SWAP1 PUSH2 0x71F SWAP2 SWAP1 PUSH2 0xEF3 JUMP JUMPDEST POP POP POP JUMP JUMPDEST PUSH1 0x0 DUP1 PUSH1 0x0 SWAP1 SLOAD SWAP1 PUSH2 0x100 EXP SWAP1 DIV PUSH20 0xFFFFFFFFFFFFFFFFFFFFFFFFFFFFFFFFFFFFFFFF AND SWAP1 POP SWAP1 JUMP JUMPDEST PUSH1 0x3 PUSH1 0x20 MSTORE DUP1 PUSH1 0x0 MSTORE PUSH1 0x40 PUSH1 0x0 KECCAK256 PUSH1 0x0 SWAP2 POP SLOAD SWAP1 PUSH2 0x100 EXP SWAP1 DIV PUSH1 0xFF AND DUP2 JUMP JUMPDEST PUSH1 0x1 PUSH1 0x20 MSTORE DUP1 PUSH1 0x0 MSTORE PUSH1 0x40 PUSH1 0x0 KECCAK256 PUSH1 0x0 SWAP2 POP SLOAD SWAP1 PUSH2 0x100 EXP SWAP1 DIV PUSH1 0xFF AND DUP2 JUMP JUMPDEST PUSH2 0x795 PUSH2 0xA5A JUMP JUMPDEST PUSH20 0xFFFFFFFFFFFFFFFFFFFFFFFFFFFFFFFFFFFFFFFF AND PUSH2 0x7B3 PUSH2 0x724 JUMP JUMPDEST PUSH20 0xFFFFFFFFFFFFFFFFFFFFFFFFFFFFFFFFFFFFFFFF AND EQ PUSH2 0x809 JUMPI PUSH1 0x40 MLOAD PUSH32 0x8C379A000000000000000000000000000000000000000000000000000000000 DUP2 MSTORE PUSH1 0x4 ADD PUSH2 0x800 SWAP1 PUSH2 0xDBD JUMP JUMPDEST PUSH1 0x40 MLOAD DUP1 SWAP2 SUB SWAP1 REVERT JUMPDEST DUP1 PUSH1 0x1 PUSH1 0x0 DUP5 PUSH20 0xFFFFFFFFFFFFFFFFFFFFFFFFFFFFFFFFFFFFFFFF AND PUSH20 0xFFFFFFFFFFFFFFFFFFFFFFFFFFFFFFFFFFFFFFFF AND DUP2 MSTORE PUSH1 0x20 ADD SWAP1 DUP2 MSTORE PUSH1 0x20 ADD PUSH1 0x0 KECCAK256 PUSH1 0x0 PUSH2 0x100 EXP DUP2 SLOAD DUP2 PUSH1 0xFF MUL NOT AND SWAP1 DUP4 ISZERO ISZERO MUL OR SWAP1 SSTORE POP DUP2 PUSH20 0xFFFFFFFFFFFFFFFFFFFFFFFFFFFFFFFFFFFFFFFF AND PUSH32 0x4C97694570A07277810AF7E5669FFD5F6A2D6B74B6E9A274B8B870FD5114CF87 DUP3 PUSH1 0x40 MLOAD PUSH2 0x8A6 SWAP2 SWAP1 PUSH2 0xB6A JUMP JUMPDEST PUSH1 0x40 MLOAD DUP1 SWAP2 SUB SWAP1 LOG2 POP POP JUMP JUMPDEST PUSH2 0x8BA PUSH2 0xA5A JUMP JUMPDEST PUSH20 0xFFFFFFFFFFFFFFFFFFFFFFFFFFFFFFFFFFFFFFFF AND PUSH2 0x8D8 PUSH2 0x724 JUMP JUMPDEST PUSH20 0xFFFFFFFFFFFFFFFFFFFFFFFFFFFFFFFFFFFFFFFF AND EQ PUSH2 0x92E JUMPI PUSH1 0x40 MLOAD PUSH32 0x8C379A000000000000000000000000000000000000000000000000000000000 DUP2 MSTORE PUSH1 0x4 ADD PUSH2 0x925 SWAP1 PUSH2 0xDBD JUMP JUMPDEST PUSH1 0x40 MLOAD DUP1 SWAP2 SUB SWAP1 REVERT JUMPDEST PUSH1 0x0 PUSH20 0xFFFFFFFFFFFFFFFFFFFFFFFFFFFFFFFFFFFFFFFF AND DUP2 PUSH20 0xFFFFFFFFFFFFFFFFFFFFFFFFFFFFFFFFFFFFFFFF AND SUB PUSH2 0x99D JUMPI PUSH1 0x40 MLOAD PUSH32 0x8C379A000000000000000000000000000000000000000000000000000000000 DUP2 MSTORE PUSH1 0x4 ADD PUSH2 0x994 SWAP1 PUSH2 0xF92 JUMP JUMPDEST PUSH1 0x40 MLOAD DUP1 SWAP2 SUB SWAP1 REVERT JUMPDEST DUP1 PUSH20 0xFFFFFFFFFFFFFFFFFFFFFFFFFFFFFFFFFFFFFFFF AND PUSH1 0x0 DUP1 SLOAD SWAP1 PUSH2 0x100 EXP SWAP1 DIV PUSH20 0xFFFFFFFFFFFFFFFFFFFFFFFFFFFFFFFFFFFFFFFF AND PUSH20 0xFFFFFFFFFFFFFFFFFFFFFFFFFFFFFFFFFFFFFFFF AND PUSH32 0x8BE0079C531659141344CD1FD0A4F28419497F9722A3DAAFE3B4186F6B6457E0 PUSH1 0x40 MLOAD PUSH1 0x40 MLOAD DUP1 SWAP2 SUB SWAP1 LOG3 DUP1 PUSH1 0x0 DUP1 PUSH2 0x100 EXP DUP2 SLOAD DUP2 PUSH20 0xFFFFFFFFFFFFFFFFFFFFFFFFFFFFFFFFFFFFFFFF MUL NOT AND SWAP1 DUP4 PUSH20 0xFFFFFFFFFFFFFFFFFFFFFFFFFFFFFFFFFFFFFFFF AND MUL OR SWAP1 SSTORE POP POP JUMP JUMPDEST PUSH1 0x0 CALLER SWAP1 POP SWAP1 JUMP JUMPDEST PUSH1 0x0 DUP1 REVERT JUMPDEST PUSH1 0x0 DUP2 SWAP1 POP SWAP2 SWAP1 POP JUMP JUMPDEST PUSH2 0xA7A DUP2 PUSH2 0xA67 JUMP JUMPDEST DUP2 EQ PUSH2 0xA85 JUMPI PUSH1 0x0 DUP1 REVERT JUMPDEST POP JUMP JUMPDEST PUSH1 0x0 DUP2 CALLDATALOAD SWAP1 POP PUSH2 0xA97 DUP2 PUSH2 0xA71 JUMP JUMPDEST SWAP3 SWAP2 POP POP JUMP JUMPDEST PUSH1 0x0 PUSH1 0x20 DUP3 DUP5 SUB SLT ISZERO PUSH2 0xAB3 JUMPI PUSH2 0xAB2 PUSH2 0xA62 JUMP JUMPDEST JUMPDEST PUSH1 0x0 PUSH2 0xAC1 DUP5 DUP3 DUP6 ADD PUSH2 0xA88 JUMP JUMPDEST SWAP2 POP POP SWAP3 SWAP2 POP POP JUMP JUMPDEST PUSH1 0x0 PUSH32 0xFFFFFFFF00000000000000000000000000000000000000000000000000000000 DUP3 AND SWAP1 POP SWAP2 SWAP1 POP JUMP JUMPDEST PUSH2 0xAFF DUP2 PUSH2 0xACA JUMP JUMPDEST DUP2 EQ PUSH2 0xB0A JUMPI PUSH1 0x0 DUP1 REVERT JUMPDEST POP JUMP JUMPDEST PUSH1 0x0 DUP2 CALLDATALOAD SWAP1 POP PUSH2 0xB1C DUP2 PUSH2 0xAF6 JUMP JUMPDEST SWAP3 SWAP2 POP POP JUMP JUMPDEST PUSH1 0x0 PUSH1 0x20 DUP3 DUP5 SUB SLT ISZERO PUSH2 0xB38 JUMPI PUSH2 0xB37 PUSH2 0xA62 JUMP JUMPDEST JUMPDEST PUSH1 0x0 PUSH2 0xB46 DUP5 DUP3 DUP6 ADD PUSH2 0xB0D JUMP JUMPDEST SWAP2 POP POP SWAP3 SWAP2 POP POP JUMP JUMPDEST PUSH1 0x0 DUP2 ISZERO ISZERO SWAP1 POP SWAP2 SWAP1 POP JUMP JUMPDEST PUSH2 0xB64 DUP2 PUSH2 0xB4F JUMP JUMPDEST DUP3 MSTORE POP POP JUMP JUMPDEST PUSH1 0x0 PUSH1 0x20 DUP3 ADD SWAP1 POP PUSH2 0xB7F PUSH1 0x0 DUP4 ADD DUP5 PUSH2 0xB5B JUMP JUMPDEST SWAP3 SWAP2 POP POP JUMP JUMPDEST PUSH1 0x0 PUSH20 0xFFFFFFFFFFFFFFFFFFFFFFFFFFFFFFFFFFFFFFFF DUP3 AND SWAP1 POP SWAP2 SWAP1 POP JUMP JUMPDEST PUSH1 0x0 DUP2 SWAP1 POP SWAP2 SWAP1 POP JUMP JUMPDEST PUSH1 0x0 PUSH2 0xBCA PUSH2 0xBC5 PUSH2 0xBC0 DUP5 PUSH2 0xB85 JUMP JUMPDEST PUSH2 0xBA5 JUMP JUMPDEST PUSH2 0xB85 JUMP JUMPDEST SWAP1 POP SWAP2 SWAP1 POP JUMP JUMPDEST PUSH1 0x0 PUSH2 0xBDC DUP3 PUSH2 0xBAF JUMP JUMPDEST SWAP1 POP SWAP2 SWAP1 POP JUMP JUMPDEST PUSH1 0x0 PUSH2 0xBEE DUP3 PUSH2 0xBD1 JUMP JUMPDEST SWAP1 POP SWAP2 SWAP1 POP JUMP JUMPDEST PUSH2 0xBFE DUP2 PUSH2 0xBE3 JUMP JUMPDEST DUP3 MSTORE POP POP JUMP JUMPDEST PUSH1 0x0 PUSH1 0x20 DUP3 ADD SWAP1 POP PUSH2 0xC19 PUSH1 0x0 DUP4 ADD DUP5 PUSH2 0xBF5 JUMP JUMPDEST SWAP3 SWAP2 POP POP JUMP JUMPDEST PUSH1 0x0 PUSH2 0xC2A DUP3 PUSH2 0xB85 JUMP JUMPDEST SWAP1 POP SWAP2 SWAP1 POP JUMP JUMPDEST PUSH2 0xC3A DUP2 PUSH2 0xC1F JUMP JUMPDEST DUP2 EQ PUSH2 0xC45 JUMPI PUSH1 0x0 DUP1 REVERT JUMPDEST POP JUMP JUMPDEST PUSH1 0x0 DUP2 CALLDATALOAD SWAP1 POP PUSH2 0xC57 DUP2 PUSH2 0xC31 JUMP JUMPDEST SWAP3 SWAP2 POP POP JUMP JUMPDEST PUSH1 0x0 PUSH1 0x20 DUP3 DUP5 SUB SLT ISZERO PUSH2 0xC73 JUMPI PUSH2 0xC72 PUSH2 0xA62 JUMP JUMPDEST JUMPDEST PUSH1 0x0 PUSH2 0xC81 DUP5 DUP3 DUP6 ADD PUSH2 0xC48 JUMP JUMPDEST SWAP2 POP POP SWAP3 SWAP2 POP POP JUMP JUMPDEST PUSH1 0x0 DUP1 PUSH1 0x40 DUP4 DUP6 SUB SLT ISZERO PUSH2 0xCA1 JUMPI PUSH2 0xCA0 PUSH2 0xA62 JUMP JUMPDEST JUMPDEST PUSH1 0x0 PUSH2 0xCAF DUP6 DUP3 DUP7 ADD PUSH2 0xA88 JUMP JUMPDEST SWAP3 POP POP PUSH1 0x20 PUSH2 0xCC0 DUP6 DUP3 DUP7 ADD PUSH2 0xC48 JUMP JUMPDEST SWAP2 POP POP SWAP3 POP SWAP3 SWAP1 POP JUMP JUMPDEST PUSH2 0xCD3 DUP2 PUSH2 0xC1F JUMP JUMPDEST DUP3 MSTORE POP POP JUMP JUMPDEST PUSH1 0x0 PUSH1 0x20 DUP3 ADD SWAP1 POP PUSH2 0xCEE PUSH1 0x0 DUP4 ADD DUP5 PUSH2 0xCCA JUMP JUMPDEST SWAP3 SWAP2 POP POP JUMP JUMPDEST PUSH2 0xCFD DUP2 PUSH2 0xB4F JUMP JUMPDEST DUP2 EQ PUSH2 0xD08 JUMPI PUSH1 0x0 DUP1 REVERT JUMPDEST POP JUMP JUMPDEST PUSH1 0x0 DUP2 CALLDATALOAD SWAP1 POP PUSH2 0xD1A DUP2 PUSH2 0xCF4 JUMP JUMPDEST SWAP3 SWAP2 POP POP JUMP JUMPDEST PUSH1 0x0 DUP1 PUSH1 0x40 DUP4 DUP6 SUB SLT ISZERO PUSH2 0xD37 JUMPI PUSH2 0xD36 PUSH2 0xA62 JUMP JUMPDEST JUMPDEST PUSH1 0x0 PUSH2 0xD45 DUP6 DUP3 DUP7 ADD PUSH2 0xC48 JUMP JUMPDEST SWAP3 POP POP PUSH1 0x20 PUSH2 0xD56 DUP6 DUP3 DUP7 ADD PUSH2 0xD0B JUMP JUMPDEST SWAP2 POP POP SWAP3 POP SWAP3 SWAP1 POP JUMP JUMPDEST PUSH1 0x0 DUP3 DUP3 MSTORE PUSH1 0x20 DUP3 ADD SWAP1 POP SWAP3 SWAP2 POP POP JUMP JUMPDEST PUSH32 0x4F776E61626C653A2063616C6C6572206973206E6F7420746865206F776E6572 PUSH1 0x0 DUP3 ADD MSTORE POP JUMP JUMPDEST PUSH1 0x0 PUSH2 0xDA7 PUSH1 0x20 DUP4 PUSH2 0xD60 JUMP JUMPDEST SWAP2 POP PUSH2 0xDB2 DUP3 PUSH2 0xD71 JUMP JUMPDEST PUSH1 0x20 DUP3 ADD SWAP1 POP SWAP2 SWAP1 POP JUMP JUMPDEST PUSH1 0x0 PUSH1 0x20 DUP3 ADD SWAP1 POP DUP2 DUP2 SUB PUSH1 0x0 DUP4 ADD MSTORE PUSH2 0xDD6 DUP2 PUSH2 0xD9A JUMP JUMPDEST SWAP1 POP SWAP2 SWAP1 POP JUMP JUMPDEST PUSH2 0xDE6 DUP2 PUSH2 0xA67 JUMP JUMPDEST DUP3 MSTORE POP POP JUMP JUMPDEST PUSH1 0x0 PUSH1 0x40 DUP3 ADD SWAP1 POP PUSH2 0xE01 PUSH1 0x0 DUP4 ADD DUP6 PUSH2 0xDDD JUMP JUMPDEST PUSH2 0xE0E PUSH1 0x20 DUP4 ADD DUP5 PUSH2 0xCCA JUMP JUMPDEST SWAP4 SWAP3 POP POP POP JUMP JUMPDEST PUSH32 0x436F6E74726F6C6C61626C653A2043616C6C6572206973206E6F74206120636F PUSH1 0x0 DUP3 ADD MSTORE PUSH32 0x6E74726F6C6C6572000000000000000000000000000000000000000000000000 PUSH1 0x20 DUP3 ADD MSTORE POP JUMP JUMPDEST PUSH1 0x0 PUSH2 0xE71 PUSH1 0x28 DUP4 PUSH2 0xD60 JUMP JUMPDEST SWAP2 POP PUSH2 0xE7C DUP3 PUSH2 0xE15 JUMP JUMPDEST PUSH1 0x40 DUP3 ADD SWAP1 POP SWAP2 SWAP1 POP JUMP JUMPDEST PUSH1 0x0 PUSH1 0x20 DUP3 ADD SWAP1 POP DUP2 DUP2 SUB PUSH1 0x0 DUP4 ADD MSTORE PUSH2 0xEA0 DUP2 PUSH2 0xE64 JUMP JUMPDEST SWAP1 POP SWAP2 SWAP1 POP JUMP JUMPDEST PUSH1 0x0 PUSH1 0x60 DUP3 ADD SWAP1 POP PUSH2 0xEBC PUSH1 0x0 DUP4 ADD DUP7 PUSH2 0xDDD JUMP JUMPDEST PUSH2 0xEC9 PUSH1 0x20 DUP4 ADD DUP6 PUSH2 0xDDD JUMP JUMPDEST PUSH2 0xED6 PUSH1 0x40 DUP4 ADD DUP5 PUSH2 0xCCA JUMP JUMPDEST SWAP5 SWAP4 POP POP POP POP JUMP JUMPDEST PUSH1 0x0 DUP2 MLOAD SWAP1 POP PUSH2 0xEED DUP2 PUSH2 0xA71 JUMP JUMPDEST SWAP3 SWAP2 POP POP JUMP JUMPDEST PUSH1 0x0 PUSH1 0x20 DUP3 DUP5 SUB SLT ISZERO PUSH2 0xF09 JUMPI PUSH2 0xF08 PUSH2 0xA62 JUMP JUMPDEST JUMPDEST PUSH1 0x0 PUSH2 0xF17 DUP5 DUP3 DUP6 ADD PUSH2 0xEDE JUMP JUMPDEST SWAP2 POP POP SWAP3 SWAP2 POP POP JUMP JUMPDEST PUSH32 0x4F776E61626C653A206E6577206F776E657220697320746865207A65726F2061 PUSH1 0x0 DUP3 ADD MSTORE PUSH32 0x6464726573730000000000000000000000000000000000000000000000000000 PUSH1 0x20 DUP3 ADD MSTORE POP JUMP JUMPDEST PUSH1 0x0 PUSH2 0xF7C PUSH1 0x26 DUP4 PUSH2 0xD60 JUMP JUMPDEST SWAP2 POP PUSH2 0xF87 DUP3 PUSH2 0xF20 JUMP JUMPDEST PUSH1 0x40 DUP3 ADD SWAP1 POP SWAP2 SWAP1 POP JUMP JUMPDEST PUSH1 0x0 PUSH1 0x20 DUP3 ADD SWAP1 POP DUP2 DUP2 SUB PUSH1 0x0 DUP4 ADD MSTORE PUSH2 0xFAB DUP2 PUSH2 0xF6F JUMP JUMPDEST SWAP1 POP SWAP2 SWAP1 POP JUMP INVALID LOG2 PUSH5 0x6970667358 0x22 SLT KECCAK256 SWAP10 0xE0 LT PUSH28 0xE06BBB231098B556B1377F4FF4E129FCA10AF4BDA6054AFC4ABF956B PUSH5 0x736F6C6343 STOP ADDMOD EQ STOP CALLER "
				},
				"gasEstimates": {
					"creation": {
						"codeDepositCost": "814400",
						"executionCost": "infinite",
						"totalCost": "infinite"
					},
					"external": {
						"controllers(address)": "2911",
						"ens()": "infinite",
						"lock(bytes32)": "28147",
						"locked(bytes32)": "2840",
						"owner()": "2544",
						"renounceOwnership()": "30418",
						"setController(address,bool)": "infinite",
						"setResolver(address)": "infinite",
						"setSubnodeOwner(bytes32,address)": "infinite",
						"supportsInterface(bytes4)": "661",
						"transferOwnership(address)": "30785"
					}
				},
				"methodIdentifiers": {
					"controllers(address)": "da8c229e",
					"ens()": "3f15457f",
					"lock(bytes32)": "01670ba9",
					"locked(bytes32)": "cbe9e764",
					"owner()": "8da5cb5b",
					"renounceOwnership()": "715018a6",
					"setController(address,bool)": "e0dba60f",
					"setResolver(address)": "4e543b26",
					"setSubnodeOwner(bytes32,address)": "8cb8ecec",
					"supportsInterface(bytes4)": "01ffc9a7",
					"transferOwnership(address)": "f2fde38b"
				}
			},
			"storageLayout": {
				"storage": [
					{
						"astId": 7,
						"contract": "package/contracts/root/Root.sol:Root",
						"label": "_owner",
						"offset": 0,
						"slot": "0",
						"type": "t_address"
					},
					{
						"astId": 278,
						"contract": "package/contracts/root/Root.sol:Root",
						"label": "controllers",
						"offset": 0,
						"slot": "1",
						"type": "t_mapping(t_address,t_bool)"
					},
					{
						"astId": 348,
						"contract": "package/contracts/root/Root.sol:Root",
						"label": "ens",
						"offset": 0,
						"slot": "2",
						"type": "t_contract(ENS)269"
					},
					{
						"astId": 352,
						"contract": "package/contracts/root/Root.sol:Root",
						"label": "locked",
						"offset": 0,
						"slot": "3",
						"type": "t_mapping(t_bytes32,t_bool)"
					}
				],
				"types": {
					"t_address": {
						"encoding": "inplace",
						"label": "address",
						"numberOfBytes": "20"
					},
					"t_bool": {
						"encoding": "inplace",
						"label": "bool",
						"numberOfBytes": "1"
					},
					"t_bytes32": {
						"encoding": "inplace",
						"label": "bytes32",
						"numberOfBytes": "32"
					},
					"t_contract(ENS)269": {
						"encoding": "inplace",
						"label": "contract ENS",
						"numberOfBytes": "20"
					},
					"t_mapping(t_address,t_bool)": {
						"encoding": "mapping",
						"key": "t_address",
						"label": "mapping(address => bool)",
						"numberOfBytes": "32",
						"value": "t_bool"
					},
					"t_mapping(t_bytes32,t_bool)": {
						"encoding": "mapping",
						"key": "t_bytes32",
						"label": "mapping(bytes32 => bool)",
						"numberOfBytes": "32",
						"value": "t_bool"
					}
				}
			},
			"userdoc": {
				"kind": "user",
				"methods": {},
				"version": 1
			}
		}
	}
}