{
	"package/contracts/root/Controllable.sol": {
		"Controllable": {
			"abi": [
				{
					"anonymous": false,
					"inputs": [
						{
							"indexed": true,
							"internalType": "address",
							"name": "controller",
							"type": "address"
						},
						{
							"indexed": false,
							"internalType": "bool",
							"name": "enabled",
							"type": "bool"
						}
					],
					"name": "ControllerChanged",
					"type": "event"
				},
				{
					"anonymous": false,
					"inputs": [
						{
							"indexed": true,
							"internalType": "address",
							"name": "previousOwner",
							"type": "address"
						},
						{
							"indexed": true,
							"internalType": "address",
							"name": "newOwner",
							"type": "address"
						}
					],
					"name": "OwnershipTransferred",
					"type": "event"
				},
				{
					"inputs": [
						{
							"internalType": "address",
							"name": "",
							"type": "address"
						}
					],
					"name": "controllers",
					"outputs": [
						{
							"internalType": "bool",
							"name": "",
							"type": "bool"
						}
					],
					"stateMutability": "view",
					"type": "function"
				},
				{
					"inputs": [],
					"name": "owner",
					"outputs": [
						{
							"internalType": "address",
							"name": "",
							"type": "address"
						}
					],
					"stateMutability": "view",
					"type": "function"
				},
				{
					"inputs": [],
					"name": "renounceOwnership",
					"outputs": [],
					"stateMutability": "nonpayable",
					"type": "function"
				},
				{
					"inputs": [
						{
							"internalType": "address",
							"name": "controller",
							"type": "address"
						},
						{
							"internalType": "bool",
							"name": "enabled",
							"type": "bool"
						}
					],
					"name": "setController",
					"outputs": [],
					"stateMutability": "nonpayable",
					"type": "function"
				},
				{
					"inputs": [
						{
							"internalType": "address",
							"name": "newOwner",
							"type": "address"
						}
					],
					"name": "transferOwnership",
					"outputs": [],
					"stateMutability": "nonpayable",
					"type": "function"
				}
			],
			"devdoc": {
				"kind": "dev",
				"methods": {
					"owner()": {
						"details": "Returns the address of the current owner."
					},
					"renounceOwnership()": {
						"details": "Leaves the contract without owner. It will not be possible to call `onlyOwner` functions anymore. Can only be called by the current owner. NOTE: Renouncing ownership will leave the contract without an owner, thereby removing any functionality that is only available to the owner."
					},
					"transferOwnership(address)": {
						"details": "Transfers ownership of the contract to a new account (`newOwner`). Can only be called by the current owner."
					}
				},
				"version": 1
			},
			"evm": {
				"assembly": "    /* \"package/contracts/root/Controllable.sol\":79:527  contract Controllable is Ownable {... */\n  mstore(0x40, 0x80)\n  callvalue\n  dup1\n  iszero\n  tag_1\n  jumpi\n  0x00\n  dup1\n  revert\ntag_1:\n  pop\n    /* \"@openzeppelin/contracts/access/Ownable.sol\":867:884  address msgSender */\n  0x00\n    /* \"@openzeppelin/contracts/access/Ownable.sol\":887:899  _msgSender() */\n  tag_4\n    /* \"@openzeppelin/contracts/access/Ownable.sol\":887:897  _msgSender */\n  shl(0x20, tag_5)\n    /* \"@openzeppelin/contracts/access/Ownable.sol\":887:899  _msgSender() */\n  0x20\n  shr\n  jump\t// in\ntag_4:\n    /* \"@openzeppelin/contracts/access/Ownable.sol\":867:899  address msgSender = _msgSender() */\n  swap1\n  pop\n    /* \"@openzeppelin/contracts/access/Ownable.sol\":918:927  msgSender */\n  dup1\n    /* \"@openzeppelin/contracts/access/Ownable.sol\":909:915  _owner */\n  0x00\n  dup1\n    /* \"@openzeppelin/contracts/access/Ownable.sol\":909:927  _owner = msgSender */\n  0x0100\n  exp\n  dup2\n  sload\n  dup2\n  0xffffffffffffffffffffffffffffffffffffffff\n  mul\n  not\n  and\n  swap1\n  dup4\n  0xffffffffffffffffffffffffffffffffffffffff\n  and\n  mul\n  or\n  swap1\n  sstore\n  pop\n    /* \"@openzeppelin/contracts/access/Ownable.sol\":975:984  msgSender */\n  dup1\n    /* \"@openzeppelin/contracts/access/Ownable.sol\":942:985  OwnershipTransferred(address(0), msgSender) */\n  0xffffffffffffffffffffffffffffffffffffffff\n  and\n    /* \"@openzeppelin/contracts/access/Ownable.sol\":971:972  0 */\n  0x00\n    /* \"@openzeppelin/contracts/access/Ownable.sol\":942:985  OwnershipTransferred(address(0), msgSender) */\n  0xffffffffffffffffffffffffffffffffffffffff\n  and\n  0x8be0079c531659141344cd1fd0a4f28419497f9722a3daafe3b4186f6b6457e0\n  mload(0x40)\n  mload(0x40)\n  dup1\n  swap2\n  sub\n  swap1\n  log3\n    /* \"@openzeppelin/contracts/access/Ownable.sol\":857:992  {... */\n  pop\n    /* \"package/contracts/root/Controllable.sol\":79:527  contract Controllable is Ownable {... */\n  jump(tag_6)\n    /* \"@openzeppelin/contracts/utils/Context.sol\":586:682  function _msgSender() internal view virtual returns (address) {... */\ntag_5:\n    /* \"@openzeppelin/contracts/utils/Context.sol\":639:646  address */\n  0x00\n    /* \"@openzeppelin/contracts/utils/Context.sol\":665:675  msg.sender */\n  caller\n    /* \"@openzeppelin/contracts/utils/Context.sol\":658:675  return msg.sender */\n  swap1\n  pop\n    /* \"@openzeppelin/contracts/utils/Context.sol\":586:682  function _msgSender() internal view virtual returns (address) {... */\n  swap1\n  jump\t// out\n    /* \"package/contracts/root/Controllable.sol\":79:527  contract Controllable is Ownable {... */\ntag_6:\n  dataSize(sub_0)\n  dup1\n  dataOffset(sub_0)\n  0x00\n  codecopy\n  0x00\n  return\nstop\n\nsub_0: assembly {\n        /* \"package/contracts/root/Controllable.sol\":79:527  contract Controllable is Ownable {... */\n      mstore(0x40, 0x80)\n      callvalue\n      dup1\n      iszero\n      tag_1\n      jumpi\n      0x00\n      dup1\n      revert\n    tag_1:\n      pop\n      jumpi(tag_2, lt(calldatasize, 0x04))\n      shr(0xe0, calldataload(0x00))\n      dup1\n      0x715018a6\n      eq\n      tag_3\n      jumpi\n      dup1\n      0x8da5cb5b\n      eq\n      tag_4\n      jumpi\n      dup1\n      0xda8c229e\n      eq\n      tag_5\n      jumpi\n      dup1\n      0xe0dba60f\n      eq\n      tag_6\n      jumpi\n      dup1\n      0xf2fde38b\n      eq\n      tag_7\n      jumpi\n    tag_2:\n      0x00\n      dup1\n      revert\n        /* \"@openzeppelin/contracts/access/Ownable.sol\":1700:1845  function renounceOwnership() public virtual onlyOwner {... */\n    tag_3:\n      tag_8\n      tag_9\n      jump\t// in\n    tag_8:\n      stop\n        /* \"@openzeppelin/contracts/access/Ownable.sol\":1068:1153  function owner() public view virtual returns (address) {... */\n    tag_4:\n      tag_10\n      tag_11\n      jump\t// in\n    tag_10:\n      mload(0x40)\n      tag_12\n      swap2\n      swap1\n      tag_13\n      jump\t// in\n    tag_12:\n      mload(0x40)\n      dup1\n      swap2\n      sub\n      swap1\n      return\n        /* \"package/contracts/root/Controllable.sol\":116:159  mapping(address => bool) public controllers */\n    tag_5:\n      tag_14\n      0x04\n      dup1\n      calldatasize\n      sub\n      dup2\n      add\n      swap1\n      tag_15\n      swap2\n      swap1\n      tag_16\n      jump\t// in\n    tag_15:\n      tag_17\n      jump\t// in\n    tag_14:\n      mload(0x40)\n      tag_18\n      swap2\n      swap1\n      tag_19\n      jump\t// in\n    tag_18:\n      mload(0x40)\n      dup1\n      swap2\n      sub\n      swap1\n      return\n        /* \"package/contracts/root/Controllable.sol\":358:525  function setController(address controller, bool enabled) public onlyOwner {... */\n    tag_6:\n      tag_20\n      0x04\n      dup1\n      calldatasize\n      sub\n      dup2\n      add\n      swap1\n      tag_21\n      swap2\n      swap1\n      tag_22\n      jump\t// in\n    tag_21:\n      tag_23\n      jump\t// in\n    tag_20:\n      stop\n        /* \"@openzeppelin/contracts/access/Ownable.sol\":1994:2234  function transferOwnership(address newOwner) public virtual onlyOwner {... */\n    tag_7:\n      tag_24\n      0x04\n      dup1\n      calldatasize\n      sub\n      dup2\n      add\n      swap1\n      tag_25\n      swap2\n      swap1\n      tag_16\n      jump\t// in\n    tag_25:\n      tag_26\n      jump\t// in\n    tag_24:\n      stop\n        /* \"@openzeppelin/contracts/access/Ownable.sol\":1700:1845  function renounceOwnership() public virtual onlyOwner {... */\n    tag_9:\n        /* \"@openzeppelin/contracts/access/Ownable.sol\":1291:1303  _msgSender() */\n      tag_28\n        /* \"@openzeppelin/contracts/access/Ownable.sol\":1291:1301  _msgSender */\n      tag_29\n        /* \"@openzeppelin/contracts/access/Ownable.sol\":1291:1303  _msgSender() */\n      jump\t// in\n    tag_28:\n        /* \"@openzeppelin/contracts/access/Ownable.sol\":1280:1303  owner() == _msgSender() */\n      0xffffffffffffffffffffffffffffffffffffffff\n      and\n        /* \"@openzeppelin/contracts/access/Ownable.sol\":1280:1287  owner() */\n      tag_30\n        /* \"@openzeppelin/contracts/access/Ownable.sol\":1280:1285  owner */\n      tag_11\n        /* \"@openzeppelin/contracts/access/Ownable.sol\":1280:1287  owner() */\n      jump\t// in\n    tag_30:\n        /* \"@openzeppelin/contracts/access/Ownable.sol\":1280:1303  owner() == _msgSender() */\n      0xffffffffffffffffffffffffffffffffffffffff\n      and\n      eq\n        /* \"@openzeppelin/contracts/access/Ownable.sol\":1272:1340  require(owner() == _msgSender(), \"Ownable: caller is not the owner\") */\n      tag_31\n      jumpi\n      mload(0x40)\n      0x08c379a000000000000000000000000000000000000000000000000000000000\n      dup2\n      mstore\n      0x04\n      add\n      tag_32\n      swap1\n      tag_33\n      jump\t// in\n    tag_32:\n      mload(0x40)\n      dup1\n      swap2\n      sub\n      swap1\n      revert\n    tag_31:\n        /* \"@openzeppelin/contracts/access/Ownable.sol\":1806:1807  0 */\n      0x00\n        /* \"@openzeppelin/contracts/access/Ownable.sol\":1769:1809  OwnershipTransferred(_owner, address(0)) */\n      0xffffffffffffffffffffffffffffffffffffffff\n      and\n        /* \"@openzeppelin/contracts/access/Ownable.sol\":1790:1796  _owner */\n      0x00\n      dup1\n      sload\n      swap1\n      0x0100\n      exp\n      swap1\n      div\n      0xffffffffffffffffffffffffffffffffffffffff\n      and\n        /* \"@openzeppelin/contracts/access/Ownable.sol\":1769:1809  OwnershipTransferred(_owner, address(0)) */\n      0xffffffffffffffffffffffffffffffffffffffff\n      and\n      0x8be0079c531659141344cd1fd0a4f28419497f9722a3daafe3b4186f6b6457e0\n      mload(0x40)\n      mload(0x40)\n      dup1\n      swap2\n      sub\n      swap1\n      log3\n        /* \"@openzeppelin/contracts/access/Ownable.sol\":1836:1837  0 */\n      0x00\n        /* \"@openzeppelin/contracts/access/Ownable.sol\":1819:1825  _owner */\n      dup1\n      0x00\n        /* \"@openzeppelin/contracts/access/Ownable.sol\":1819:1838  _owner = address(0) */\n      0x0100\n      exp\n      dup2\n      sload\n      dup2\n      0xffffffffffffffffffffffffffffffffffffffff\n      mul\n      not\n      and\n      swap1\n      dup4\n      0xffffffffffffffffffffffffffffffffffffffff\n      and\n      mul\n      or\n      swap1\n      sstore\n      pop\n        /* \"@openzeppelin/contracts/access/Ownable.sol\":1700:1845  function renounceOwnership() public virtual onlyOwner {... */\n      jump\t// out\n        /* \"@openzeppelin/contracts/access/Ownable.sol\":1068:1153  function owner() public view virtual returns (address) {... */\n    tag_11:\n        /* \"@openzeppelin/contracts/access/Ownable.sol\":1114:1121  address */\n      0x00\n        /* \"@openzeppelin/contracts/access/Ownable.sol\":1140:1146  _owner */\n      dup1\n      0x00\n      swap1\n      sload\n      swap1\n      0x0100\n      exp\n      swap1\n      div\n      0xffffffffffffffffffffffffffffffffffffffff\n      and\n        /* \"@openzeppelin/contracts/access/Ownable.sol\":1133:1146  return _owner */\n      swap1\n      pop\n        /* \"@openzeppelin/contracts/access/Ownable.sol\":1068:1153  function owner() public view virtual returns (address) {... */\n      swap1\n      jump\t// out\n        /* \"package/contracts/root/Controllable.sol\":116:159  mapping(address => bool) public controllers */\n    tag_17:\n      mstore(0x20, 0x01)\n      dup1\n      0x00\n      mstore\n      keccak256(0x00, 0x40)\n      0x00\n      swap2\n      pop\n      sload\n      swap1\n      0x0100\n      exp\n      swap1\n      div\n      0xff\n      and\n      dup2\n      jump\t// out\n        /* \"package/contracts/root/Controllable.sol\":358:525  function setController(address controller, bool enabled) public onlyOwner {... */\n    tag_23:\n        /* \"@openzeppelin/contracts/access/Ownable.sol\":1291:1303  _msgSender() */\n      tag_37\n        /* \"@openzeppelin/contracts/access/Ownable.sol\":1291:1301  _msgSender */\n      tag_29\n        /* \"@openzeppelin/contracts/access/Ownable.sol\":1291:1303  _msgSender() */\n      jump\t// in\n    tag_37:\n        /* \"@openzeppelin/contracts/access/Ownable.sol\":1280:1303  owner() == _msgSender() */\n      0xffffffffffffffffffffffffffffffffffffffff\n      and\n        /* \"@openzeppelin/contracts/access/Ownable.sol\":1280:1287  owner() */\n      tag_38\n        /* \"@openzeppelin/contracts/access/Ownable.sol\":1280:1285  owner */\n      tag_11\n        /* \"@openzeppelin/contracts/access/Ownable.sol\":1280:1287  owner() */\n      jump\t// in\n    tag_38:\n        /* \"@openzeppelin/contracts/access/Ownable.sol\":1280:1303  owner() == _msgSender() */\n      0xffffffffffffffffffffffffffffffffffffffff\n      and\n      eq\n        /* \"@openzeppelin/contracts/access/Ownable.sol\":1272:1340  require(owner() == _msgSender(), \"Ownable: caller is not the owner\") */\n      tag_39\n      jumpi\n      mload(0x40)\n      0x08c379a000000000000000000000000000000000000000000000000000000000\n      dup2\n      mstore\n      0x04\n      add\n      tag_40\n      swap1\n      tag_33\n      jump\t// in\n    tag_40:\n      mload(0x40)\n      dup1\n      swap2\n      sub\n      swap1\n      revert\n    tag_39:\n        /* \"package/contracts/root/Controllable.sol\":464:471  enabled */\n      dup1\n        /* \"package/contracts/root/Controllable.sol\":438:449  controllers */\n      0x01\n        /* \"package/contracts/root/Controllable.sol\":438:461  controllers[controller] */\n      0x00\n        /* \"package/contracts/root/Controllable.sol\":450:460  controller */\n      dup5\n        /* \"package/contracts/root/Controllable.sol\":438:461  controllers[controller] */\n      0xffffffffffffffffffffffffffffffffffffffff\n      and\n      0xffffffffffffffffffffffffffffffffffffffff\n      and\n      dup2\n      mstore\n      0x20\n      add\n      swap1\n      dup2\n      mstore\n      0x20\n      add\n      0x00\n      keccak256\n      0x00\n        /* \"package/contracts/root/Controllable.sol\":438:471  controllers[controller] = enabled */\n      0x0100\n      exp\n      dup2\n      sload\n      dup2\n      0xff\n      mul\n      not\n      and\n      swap1\n      dup4\n      iszero\n      iszero\n      mul\n      or\n      swap1\n      sstore\n      pop\n        /* \"package/contracts/root/Controllable.sol\":500:510  controller */\n      dup2\n        /* \"package/contracts/root/Controllable.sol\":482:520  ControllerChanged(controller, enabled) */\n      0xffffffffffffffffffffffffffffffffffffffff\n      and\n      0x4c97694570a07277810af7e5669ffd5f6a2d6b74b6e9a274b8b870fd5114cf87\n        /* \"package/contracts/root/Controllable.sol\":512:519  enabled */\n      dup3\n        /* \"package/contracts/root/Controllable.sol\":482:520  ControllerChanged(controller, enabled) */\n      mload(0x40)\n      tag_42\n      swap2\n      swap1\n      tag_19\n      jump\t// in\n    tag_42:\n      mload(0x40)\n      dup1\n      swap2\n      sub\n      swap1\n      log2\n        /* \"package/contracts/root/Controllable.sol\":358:525  function setController(address controller, bool enabled) public onlyOwner {... */\n      pop\n      pop\n      jump\t// out\n        /* \"@openzeppelin/contracts/access/Ownable.sol\":1994:2234  function transferOwnership(address newOwner) public virtual onlyOwner {... */\n    tag_26:\n        /* \"@openzeppelin/contracts/access/Ownable.sol\":1291:1303  _msgSender() */\n      tag_44\n        /* \"@openzeppelin/contracts/access/Ownable.sol\":1291:1301  _msgSender */\n      tag_29\n        /* \"@openzeppelin/contracts/access/Ownable.sol\":1291:1303  _msgSender() */\n      jump\t// in\n    tag_44:\n        /* \"@openzeppelin/contracts/access/Ownable.sol\":1280:1303  owner() == _msgSender() */\n      0xffffffffffffffffffffffffffffffffffffffff\n      and\n        /* \"@openzeppelin/contracts/access/Ownable.sol\":1280:1287  owner() */\n      tag_45\n        /* \"@openzeppelin/contracts/access/Ownable.sol\":1280:1285  owner */\n      tag_11\n        /* \"@openzeppelin/contracts/access/Ownable.sol\":1280:1287  owner() */\n      jump\t// in\n    tag_45:\n        /* \"@openzeppelin/contracts/access/Ownable.sol\":1280:1303  owner() == _msgSender() */\n      0xffffffffffffffffffffffffffffffffffffffff\n      and\n      eq\n        /* \"@openzeppelin/contracts/access/Ownable.sol\":1272:1340  require(owner() == _msgSender(), \"Ownable: caller is not the owner\") */\n      tag_46\n      jumpi\n      mload(0x40)\n      0x08c379a000000000000000000000000000000000000000000000000000000000\n      dup2\n      mstore\n      0x04\n      add\n      tag_47\n      swap1\n      tag_33\n      jump\t// in\n    tag_47:\n      mload(0x40)\n      dup1\n      swap2\n      sub\n      swap1\n      revert\n    tag_46:\n        /* \"@openzeppelin/contracts/access/Ownable.sol\":2102:2103  0 */\n      0x00\n        /* \"@openzeppelin/contracts/access/Ownable.sol\":2082:2104  newOwner != address(0) */\n      0xffffffffffffffffffffffffffffffffffffffff\n      and\n        /* \"@openzeppelin/contracts/access/Ownable.sol\":2082:2090  newOwner */\n      dup2\n        /* \"@openzeppelin/contracts/access/Ownable.sol\":2082:2104  newOwner != address(0) */\n      0xffffffffffffffffffffffffffffffffffffffff\n      and\n      sub\n        /* \"@openzeppelin/contracts/access/Ownable.sol\":2074:2147  require(newOwner != address(0), \"Ownable: new owner is the zero address\") */\n      tag_49\n      jumpi\n      mload(0x40)\n      0x08c379a000000000000000000000000000000000000000000000000000000000\n      dup2\n      mstore\n      0x04\n      add\n      tag_50\n      swap1\n      tag_51\n      jump\t// in\n    tag_50:\n      mload(0x40)\n      dup1\n      swap2\n      sub\n      swap1\n      revert\n    tag_49:\n        /* \"@openzeppelin/contracts/access/Ownable.sol\":2191:2199  newOwner */\n      dup1\n        /* \"@openzeppelin/contracts/access/Ownable.sol\":2162:2200  OwnershipTransferred(_owner, newOwner) */\n      0xffffffffffffffffffffffffffffffffffffffff\n      and\n        /* \"@openzeppelin/contracts/access/Ownable.sol\":2183:2189  _owner */\n      0x00\n      dup1\n      sload\n      swap1\n      0x0100\n      exp\n      swap1\n      div\n      0xffffffffffffffffffffffffffffffffffffffff\n      and\n        /* \"@openzeppelin/contracts/access/Ownable.sol\":2162:2200  OwnershipTransferred(_owner, newOwner) */\n      0xffffffffffffffffffffffffffffffffffffffff\n      and\n      0x8be0079c531659141344cd1fd0a4f28419497f9722a3daafe3b4186f6b6457e0\n      mload(0x40)\n      mload(0x40)\n      dup1\n      swap2\n      sub\n      swap1\n      log3\n        /* \"@openzeppelin/contracts/access/Ownable.sol\":2219:2227  newOwner */\n      dup1\n        /* \"@openzeppelin/contracts/access/Ownable.sol\":2210:2216  _owner */\n      0x00\n      dup1\n        /* \"@openzeppelin/contracts/access/Ownable.sol\":2210:2227  _owner = newOwner */\n      0x0100\n      exp\n      dup2\n      sload\n      dup2\n      0xffffffffffffffffffffffffffffffffffffffff\n      mul\n      not\n      and\n      swap1\n      dup4\n      0xffffffffffffffffffffffffffffffffffffffff\n      and\n      mul\n      or\n      swap1\n      sstore\n      pop\n        /* \"@openzeppelin/contracts/access/Ownable.sol\":1994:2234  function transferOwnership(address newOwner) public virtual onlyOwner {... */\n      pop\n      jump\t// out\n        /* \"@openzeppelin/contracts/utils/Context.sol\":586:682  function _msgSender() internal view virtual returns (address) {... */\n    tag_29:\n        /* \"@openzeppelin/contracts/utils/Context.sol\":639:646  address */\n      0x00\n        /* \"@openzeppelin/contracts/utils/Context.sol\":665:675  msg.sender */\n      caller\n        /* \"@openzeppelin/contracts/utils/Context.sol\":658:675  return msg.sender */\n      swap1\n      pop\n        /* \"@openzeppelin/contracts/utils/Context.sol\":586:682  function _msgSender() internal view virtual returns (address) {... */\n      swap1\n      jump\t// out\n        /* \"#utility.yul\":7:133   */\n    tag_53:\n        /* \"#utility.yul\":44:51   */\n      0x00\n        /* \"#utility.yul\":84:126   */\n      0xffffffffffffffffffffffffffffffffffffffff\n        /* \"#utility.yul\":77:82   */\n      dup3\n        /* \"#utility.yul\":73:127   */\n      and\n        /* \"#utility.yul\":62:127   */\n      swap1\n      pop\n        /* \"#utility.yul\":7:133   */\n      swap2\n      swap1\n      pop\n      jump\t// out\n        /* \"#utility.yul\":139:235   */\n    tag_54:\n        /* \"#utility.yul\":176:183   */\n      0x00\n        /* \"#utility.yul\":205:229   */\n      tag_73\n        /* \"#utility.yul\":223:228   */\n      dup3\n        /* \"#utility.yul\":205:229   */\n      tag_53\n      jump\t// in\n    tag_73:\n        /* \"#utility.yul\":194:229   */\n      swap1\n      pop\n        /* \"#utility.yul\":139:235   */\n      swap2\n      swap1\n      pop\n      jump\t// out\n        /* \"#utility.yul\":241:359   */\n    tag_55:\n        /* \"#utility.yul\":328:352   */\n      tag_75\n        /* \"#utility.yul\":346:351   */\n      dup2\n        /* \"#utility.yul\":328:352   */\n      tag_54\n      jump\t// in\n    tag_75:\n        /* \"#utility.yul\":323:326   */\n      dup3\n        /* \"#utility.yul\":316:353   */\n      mstore\n        /* \"#utility.yul\":241:359   */\n      pop\n      pop\n      jump\t// out\n        /* \"#utility.yul\":365:587   */\n    tag_13:\n        /* \"#utility.yul\":458:462   */\n      0x00\n        /* \"#utility.yul\":496:498   */\n      0x20\n        /* \"#utility.yul\":485:494   */\n      dup3\n        /* \"#utility.yul\":481:499   */\n      add\n        /* \"#utility.yul\":473:499   */\n      swap1\n      pop\n        /* \"#utility.yul\":509:580   */\n      tag_77\n        /* \"#utility.yul\":577:578   */\n      0x00\n        /* \"#utility.yul\":566:575   */\n      dup4\n        /* \"#utility.yul\":562:579   */\n      add\n        /* \"#utility.yul\":553:559   */\n      dup5\n        /* \"#utility.yul\":509:580   */\n      tag_55\n      jump\t// in\n    tag_77:\n        /* \"#utility.yul\":365:587   */\n      swap3\n      swap2\n      pop\n      pop\n      jump\t// out\n        /* \"#utility.yul\":674:791   */\n    tag_57:\n        /* \"#utility.yul\":783:784   */\n      0x00\n        /* \"#utility.yul\":780:781   */\n      dup1\n        /* \"#utility.yul\":773:785   */\n      revert\n        /* \"#utility.yul\":920:1042   */\n    tag_59:\n        /* \"#utility.yul\":993:1017   */\n      tag_82\n        /* \"#utility.yul\":1011:1016   */\n      dup2\n        /* \"#utility.yul\":993:1017   */\n      tag_54\n      jump\t// in\n    tag_82:\n        /* \"#utility.yul\":986:991   */\n      dup2\n        /* \"#utility.yul\":983:1018   */\n      eq\n        /* \"#utility.yul\":973:1036   */\n      tag_83\n      jumpi\n        /* \"#utility.yul\":1032:1033   */\n      0x00\n        /* \"#utility.yul\":1029:1030   */\n      dup1\n        /* \"#utility.yul\":1022:1034   */\n      revert\n        /* \"#utility.yul\":973:1036   */\n    tag_83:\n        /* \"#utility.yul\":920:1042   */\n      pop\n      jump\t// out\n        /* \"#utility.yul\":1048:1187   */\n    tag_60:\n        /* \"#utility.yul\":1094:1099   */\n      0x00\n        /* \"#utility.yul\":1132:1138   */\n      dup2\n        /* \"#utility.yul\":1119:1139   */\n      calldataload\n        /* \"#utility.yul\":1110:1139   */\n      swap1\n      pop\n        /* \"#utility.yul\":1148:1181   */\n      tag_85\n        /* \"#utility.yul\":1175:1180   */\n      dup2\n        /* \"#utility.yul\":1148:1181   */\n      tag_59\n      jump\t// in\n    tag_85:\n        /* \"#utility.yul\":1048:1187   */\n      swap3\n      swap2\n      pop\n      pop\n      jump\t// out\n        /* \"#utility.yul\":1193:1522   */\n    tag_16:\n        /* \"#utility.yul\":1252:1258   */\n      0x00\n        /* \"#utility.yul\":1301:1303   */\n      0x20\n        /* \"#utility.yul\":1289:1298   */\n      dup3\n        /* \"#utility.yul\":1280:1287   */\n      dup5\n        /* \"#utility.yul\":1276:1299   */\n      sub\n        /* \"#utility.yul\":1272:1304   */\n      slt\n        /* \"#utility.yul\":1269:1388   */\n      iszero\n      tag_87\n      jumpi\n        /* \"#utility.yul\":1307:1386   */\n      tag_88\n      tag_57\n      jump\t// in\n    tag_88:\n        /* \"#utility.yul\":1269:1388   */\n    tag_87:\n        /* \"#utility.yul\":1427:1428   */\n      0x00\n        /* \"#utility.yul\":1452:1505   */\n      tag_89\n        /* \"#utility.yul\":1497:1504   */\n      dup5\n        /* \"#utility.yul\":1488:1494   */\n      dup3\n        /* \"#utility.yul\":1477:1486   */\n      dup6\n        /* \"#utility.yul\":1473:1495   */\n      add\n        /* \"#utility.yul\":1452:1505   */\n      tag_60\n      jump\t// in\n    tag_89:\n        /* \"#utility.yul\":1442:1505   */\n      swap2\n      pop\n        /* \"#utility.yul\":1398:1515   */\n      pop\n        /* \"#utility.yul\":1193:1522   */\n      swap3\n      swap2\n      pop\n      pop\n      jump\t// out\n        /* \"#utility.yul\":1528:1618   */\n    tag_61:\n        /* \"#utility.yul\":1562:1569   */\n      0x00\n        /* \"#utility.yul\":1605:1610   */\n      dup2\n        /* \"#utility.yul\":1598:1611   */\n      iszero\n        /* \"#utility.yul\":1591:1612   */\n      iszero\n        /* \"#utility.yul\":1580:1612   */\n      swap1\n      pop\n        /* \"#utility.yul\":1528:1618   */\n      swap2\n      swap1\n      pop\n      jump\t// out\n        /* \"#utility.yul\":1624:1733   */\n    tag_62:\n        /* \"#utility.yul\":1705:1726   */\n      tag_92\n        /* \"#utility.yul\":1720:1725   */\n      dup2\n        /* \"#utility.yul\":1705:1726   */\n      tag_61\n      jump\t// in\n    tag_92:\n        /* \"#utility.yul\":1700:1703   */\n      dup3\n        /* \"#utility.yul\":1693:1727   */\n      mstore\n        /* \"#utility.yul\":1624:1733   */\n      pop\n      pop\n      jump\t// out\n        /* \"#utility.yul\":1739:1949   */\n    tag_19:\n        /* \"#utility.yul\":1826:1830   */\n      0x00\n        /* \"#utility.yul\":1864:1866   */\n      0x20\n        /* \"#utility.yul\":1853:1862   */\n      dup3\n        /* \"#utility.yul\":1849:1867   */\n      add\n        /* \"#utility.yul\":1841:1867   */\n      swap1\n      pop\n        /* \"#utility.yul\":1877:1942   */\n      tag_94\n        /* \"#utility.yul\":1939:1940   */\n      0x00\n        /* \"#utility.yul\":1928:1937   */\n      dup4\n        /* \"#utility.yul\":1924:1941   */\n      add\n        /* \"#utility.yul\":1915:1921   */\n      dup5\n        /* \"#utility.yul\":1877:1942   */\n      tag_62\n      jump\t// in\n    tag_94:\n        /* \"#utility.yul\":1739:1949   */\n      swap3\n      swap2\n      pop\n      pop\n      jump\t// out\n        /* \"#utility.yul\":1955:2071   */\n    tag_63:\n        /* \"#utility.yul\":2025:2046   */\n      tag_96\n        /* \"#utility.yul\":2040:2045   */\n      dup2\n        /* \"#utility.yul\":2025:2046   */\n      tag_61\n      jump\t// in\n    tag_96:\n        /* \"#utility.yul\":2018:2023   */\n      dup2\n        /* \"#utility.yul\":2015:2047   */\n      eq\n        /* \"#utility.yul\":2005:2065   */\n      tag_97\n      jumpi\n        /* \"#utility.yul\":2061:2062   */\n      0x00\n        /* \"#utility.yul\":2058:2059   */\n      dup1\n        /* \"#utility.yul\":2051:2063   */\n      revert\n        /* \"#utility.yul\":2005:2065   */\n    tag_97:\n        /* \"#utility.yul\":1955:2071   */\n      pop\n      jump\t// out\n        /* \"#utility.yul\":2077:2210   */\n    tag_64:\n        /* \"#utility.yul\":2120:2125   */\n      0x00\n        /* \"#utility.yul\":2158:2164   */\n      dup2\n        /* \"#utility.yul\":2145:2165   */\n      calldataload\n        /* \"#utility.yul\":2136:2165   */\n      swap1\n      pop\n        /* \"#utility.yul\":2174:2204   */\n      tag_99\n        /* \"#utility.yul\":2198:2203   */\n      dup2\n        /* \"#utility.yul\":2174:2204   */\n      tag_63\n      jump\t// in\n    tag_99:\n        /* \"#utility.yul\":2077:2210   */\n      swap3\n      swap2\n      pop\n      pop\n      jump\t// out\n        /* \"#utility.yul\":2216:2684   */\n    tag_22:\n        /* \"#utility.yul\":2281:2287   */\n      0x00\n        /* \"#utility.yul\":2289:2295   */\n      dup1\n        /* \"#utility.yul\":2338:2340   */\n      0x40\n        /* \"#utility.yul\":2326:2335   */\n      dup4\n        /* \"#utility.yul\":2317:2324   */\n      dup6\n        /* \"#utility.yul\":2313:2336   */\n      sub\n        /* \"#utility.yul\":2309:2341   */\n      slt\n        /* \"#utility.yul\":2306:2425   */\n      iszero\n      tag_101\n      jumpi\n        /* \"#utility.yul\":2344:2423   */\n      tag_102\n      tag_57\n      jump\t// in\n    tag_102:\n        /* \"#utility.yul\":2306:2425   */\n    tag_101:\n        /* \"#utility.yul\":2464:2465   */\n      0x00\n        /* \"#utility.yul\":2489:2542   */\n      tag_103\n        /* \"#utility.yul\":2534:2541   */\n      dup6\n        /* \"#utility.yul\":2525:2531   */\n      dup3\n        /* \"#utility.yul\":2514:2523   */\n      dup7\n        /* \"#utility.yul\":2510:2532   */\n      add\n        /* \"#utility.yul\":2489:2542   */\n      tag_60\n      jump\t// in\n    tag_103:\n        /* \"#utility.yul\":2479:2542   */\n      swap3\n      pop\n        /* \"#utility.yul\":2435:2552   */\n      pop\n        /* \"#utility.yul\":2591:2593   */\n      0x20\n        /* \"#utility.yul\":2617:2667   */\n      tag_104\n        /* \"#utility.yul\":2659:2666   */\n      dup6\n        /* \"#utility.yul\":2650:2656   */\n      dup3\n        /* \"#utility.yul\":2639:2648   */\n      dup7\n        /* \"#utility.yul\":2635:2657   */\n      add\n        /* \"#utility.yul\":2617:2667   */\n      tag_64\n      jump\t// in\n    tag_104:\n        /* \"#utility.yul\":2607:2667   */\n      swap2\n      pop\n        /* \"#utility.yul\":2562:2677   */\n      pop\n        /* \"#utility.yul\":2216:2684   */\n      swap3\n      pop\n      swap3\n      swap1\n      pop\n      jump\t// out\n        /* \"#utility.yul\":2690:2859   */\n    tag_65:\n        /* \"#utility.yul\":2774:2785   */\n      0x00\n        /* \"#utility.yul\":2808:2814   */\n      dup3\n        /* \"#utility.yul\":2803:2806   */\n      dup3\n        /* \"#utility.yul\":2796:2815   */\n      mstore\n        /* \"#utility.yul\":2848:2852   */\n      0x20\n        /* \"#utility.yul\":2843:2846   */\n      dup3\n        /* \"#utility.yul\":2839:2853   */\n      add\n        /* \"#utility.yul\":2824:2853   */\n      swap1\n      pop\n        /* \"#utility.yul\":2690:2859   */\n      swap3\n      swap2\n      pop\n      pop\n      jump\t// out\n        /* \"#utility.yul\":2865:3047   */\n    tag_66:\n        /* \"#utility.yul\":3005:3039   */\n      0x4f776e61626c653a2063616c6c6572206973206e6f7420746865206f776e6572\n        /* \"#utility.yul\":3001:3002   */\n      0x00\n        /* \"#utility.yul\":2993:2999   */\n      dup3\n        /* \"#utility.yul\":2989:3003   */\n      add\n        /* \"#utility.yul\":2982:3040   */\n      mstore\n        /* \"#utility.yul\":2865:3047   */\n      pop\n      jump\t// out\n        /* \"#utility.yul\":3053:3419   */\n    tag_67:\n        /* \"#utility.yul\":3195:3198   */\n      0x00\n        /* \"#utility.yul\":3216:3283   */\n      tag_108\n        /* \"#utility.yul\":3280:3282   */\n      0x20\n        /* \"#utility.yul\":3275:3278   */\n      dup4\n        /* \"#utility.yul\":3216:3283   */\n      tag_65\n      jump\t// in\n    tag_108:\n        /* \"#utility.yul\":3209:3283   */\n      swap2\n      pop\n        /* \"#utility.yul\":3292:3385   */\n      tag_109\n        /* \"#utility.yul\":3381:3384   */\n      dup3\n        /* \"#utility.yul\":3292:3385   */\n      tag_66\n      jump\t// in\n    tag_109:\n        /* \"#utility.yul\":3410:3412   */\n      0x20\n        /* \"#utility.yul\":3405:3408   */\n      dup3\n        /* \"#utility.yul\":3401:3413   */\n      add\n        /* \"#utility.yul\":3394:3413   */\n      swap1\n      pop\n        /* \"#utility.yul\":3053:3419   */\n      swap2\n      swap1\n      pop\n      jump\t// out\n        /* \"#utility.yul\":3425:3844   */\n    tag_33:\n        /* \"#utility.yul\":3591:3595   */\n      0x00\n        /* \"#utility.yul\":3629:3631   */\n      0x20\n        /* \"#utility.yul\":3618:3627   */\n      dup3\n        /* \"#utility.yul\":3614:3632   */\n      add\n        /* \"#utility.yul\":3606:3632   */\n      swap1\n      pop\n        /* \"#utility.yul\":3678:3687   */\n      dup2\n        /* \"#utility.yul\":3672:3676   */\n      dup2\n        /* \"#utility.yul\":3668:3688   */\n      sub\n        /* \"#utility.yul\":3664:3665   */\n      0x00\n        /* \"#utility.yul\":3653:3662   */\n      dup4\n        /* \"#utility.yul\":3649:3666   */\n      add\n        /* \"#utility.yul\":3642:3689   */\n      mstore\n        /* \"#utility.yul\":3706:3837   */\n      tag_111\n        /* \"#utility.yul\":3832:3836   */\n      dup2\n        /* \"#utility.yul\":3706:3837   */\n      tag_67\n      jump\t// in\n    tag_111:\n        /* \"#utility.yul\":3698:3837   */\n      swap1\n      pop\n        /* \"#utility.yul\":3425:3844   */\n      swap2\n      swap1\n      pop\n      jump\t// out\n        /* \"#utility.yul\":3850:4075   */\n    tag_68:\n        /* \"#utility.yul\":3990:4024   */\n      0x4f776e61626c653a206e6577206f776e657220697320746865207a65726f2061\n        /* \"#utility.yul\":3986:3987   */\n      0x00\n        /* \"#utility.yul\":3978:3984   */\n      dup3\n        /* \"#utility.yul\":3974:3988   */\n      add\n        /* \"#utility.yul\":3967:4025   */\n      mstore\n        /* \"#utility.yul\":4059:4067   */\n      0x6464726573730000000000000000000000000000000000000000000000000000\n        /* \"#utility.yul\":4054:4056   */\n      0x20\n        /* \"#utility.yul\":4046:4052   */\n      dup3\n        /* \"#utility.yul\":4042:4057   */\n      add\n        /* \"#utility.yul\":4035:4068   */\n      mstore\n        /* \"#utility.yul\":3850:4075   */\n      pop\n      jump\t// out\n        /* \"#utility.yul\":4081:4447   */\n    tag_69:\n        /* \"#utility.yul\":4223:4226   */\n      0x00\n        /* \"#utility.yul\":4244:4311   */\n      tag_114\n        /* \"#utility.yul\":4308:4310   */\n      0x26\n        /* \"#utility.yul\":4303:4306   */\n      dup4\n        /* \"#utility.yul\":4244:4311   */\n      tag_65\n      jump\t// in\n    tag_114:\n        /* \"#utility.yul\":4237:4311   */\n      swap2\n      pop\n        /* \"#utility.yul\":4320:4413   */\n      tag_115\n        /* \"#utility.yul\":4409:4412   */\n      dup3\n        /* \"#utility.yul\":4320:4413   */\n      tag_68\n      jump\t// in\n    tag_115:\n        /* \"#utility.yul\":4438:4440   */\n      0x40\n        /* \"#utility.yul\":4433:4436   */\n      dup3\n        /* \"#utility.yul\":4429:4441   */\n      add\n        /* \"#utility.yul\":4422:4441   */\n      swap1\n      pop\n        /* \"#utility.yul\":4081:4447   */\n      swap2\n      swap1\n      pop\n      jump\t// out\n        /* \"#utility.yul\":4453:4872   */\n    tag_51:\n        /* \"#utility.yul\":4619:4623   */\n      0x00\n        /* \"#utility.yul\":4657:4659   */\n      0x20\n        /* \"#utility.yul\":4646:4655   */\n      dup3\n        /* \"#utility.yul\":4642:4660   */\n      add\n        /* \"#utility.yul\":4634:4660   */\n      swap1\n      pop\n        /* \"#utility.yul\":4706:4715   */\n      dup2\n        /* \"#utility.yul\":4700:4704   */\n      dup2\n        /* \"#utility.yul\":4696:4716   */\n      sub\n        /* \"#utility.yul\":4692:4693   */\n      0x00\n        /* \"#utility.yul\":4681:4690   */\n      dup4\n        /* \"#utility.yul\":4677:4694   */\n      add\n        /* \"#utility.yul\":4670:4717   */\n      mstore\n        /* \"#utility.yul\":4734:4865   */\n      tag_117\n        /* \"#utility.yul\":4860:4864   */\n      dup2\n        /* \"#utility.yul\":4734:4865   */\n      tag_69\n      jump\t// in\n    tag_117:\n        /* \"#utility.yul\":4726:4865   */\n      swap1\n      pop\n        /* \"#utility.yul\":4453:4872   */\n      swap2\n      swap1\n      pop\n      jump\t// out\n\n    auxdata: 0xa26469706673582212209ada96abf32b69466c87dd040bd9bdc35553c5fa6d485298203268d03cd25e9264736f6c63430008140033\n}\n",
				"bytecode": {
					"linkReferences": {},
					"object": "608060405234801561001057600080fd5b5060006100216100c460201b60201c565b9050806000806101000a81548173ffffffffffffffffffffffffffffffffffffffff021916908373ffffffffffffffffffffffffffffffffffffffff1602179055508073ffffffffffffffffffffffffffffffffffffffff16600073ffffffffffffffffffffffffffffffffffffffff167f8be0079c531659141344cd1fd0a4f28419497f9722a3daafe3b4186f6b6457e060405160405180910390a3506100cc565b600033905090565b6107e5806100db6000396000f3fe608060405234801561001057600080fd5b50600436106100575760003560e01c8063715018a61461005c5780638da5cb5b14610066578063da8c229e14610084578063e0dba60f146100b4578063f2fde38b146100d0575b600080fd5b6100646100ec565b005b61006e610226565b60405161007b9190610585565b60405180910390f35b61009e600480360381019061009991906105d1565b61024f565b6040516100ab9190610619565b60405180910390f35b6100ce60048036038101906100c99190610660565b61026f565b005b6100ea60048036038101906100e591906105d1565b610394565b005b6100f461053c565b73ffffffffffffffffffffffffffffffffffffffff16610112610226565b73ffffffffffffffffffffffffffffffffffffffff1614610168576040517f08c379a000000000000000000000000000000000000000000000000000000000815260040161015f906106fd565b60405180910390fd5b600073ffffffffffffffffffffffffffffffffffffffff1660008054906101000a900473ffffffffffffffffffffffffffffffffffffffff1673ffffffffffffffffffffffffffffffffffffffff167f8be0079c531659141344cd1fd0a4f28419497f9722a3daafe3b4186f6b6457e060405160405180910390a360008060006101000a81548173ffffffffffffffffffffffffffffffffffffffff021916908373ffffffffffffffffffffffffffffffffffffffff160217905550565b60008060009054906101000a900473ffffffffffffffffffffffffffffffffffffffff16905090565b60016020528060005260406000206000915054906101000a900460ff1681565b61027761053c565b73ffffffffffffffffffffffffffffffffffffffff16610295610226565b73ffffffffffffffffffffffffffffffffffffffff16146102eb576040517f08c379a00000000000000000000000000000000000000000000000000000000081526004016102e2906106fd565b60405180910390fd5b80600160008473ffffffffffffffffffffffffffffffffffffffff1673ffffffffffffffffffffffffffffffffffffffff16815260200190815260200160002060006101000a81548160ff0219169083151502179055508173ffffffffffffffffffffffffffffffffffffffff167f4c97694570a07277810af7e5669ffd5f6a2d6b74b6e9a274b8b870fd5114cf87826040516103889190610619565b60405180910390a25050565b61039c61053c565b73ffffffffffffffffffffffffffffffffffffffff166103ba610226565b73ffffffffffffffffffffffffffffffffffffffff1614610410576040517f08c379a0000000000000000000000000000000000000000000000000000000008152600401610407906106fd565b60405180910390fd5b600073ffffffffffffffffffffffffffffffffffffffff168173ffffffffffffffffffffffffffffffffffffffff160361047f576040517f08c379a00000000000000000000000000000000000000000000000000000000081526004016104769061078f565b60405180910390fd5b8073ffffffffffffffffffffffffffffffffffffffff1660008054906101000a900473ffffffffffffffffffffffffffffffffffffffff1673ffffffffffffffffffffffffffffffffffffffff167f8be0079c531659141344cd1fd0a4f28419497f9722a3daafe3b4186f6b6457e060405160405180910390a3806000806101000a81548173ffffffffffffffffffffffffffffffffffffffff021916908373ffffffffffffffffffffffffffffffffffffffff16021790555050565b600033905090565b600073ffffffffffffffffffffffffffffffffffffffff82169050919050565b600061056f82610544565b9050919050565b61057f81610564565b82525050565b600060208201905061059a6000830184610576565b92915050565b600080fd5b6105ae81610564565b81146105b957600080fd5b50565b6000813590506105cb816105a5565b92915050565b6000602082840312156105e7576105e66105a0565b5b60006105f5848285016105bc565b91505092915050565b60008115159050919050565b610613816105fe565b82525050565b600060208201905061062e600083018461060a565b92915050565b61063d816105fe565b811461064857600080fd5b50565b60008135905061065a81610634565b92915050565b60008060408385031215610677576106766105a0565b5b6000610685858286016105bc565b92505060206106968582860161064b565b9150509250929050565b600082825260208201905092915050565b7f4f776e61626c653a2063616c6c6572206973206e6f7420746865206f776e6572600082015250565b60006106e76020836106a0565b91506106f2826106b1565b602082019050919050565b60006020820190508181036000830152610716816106da565b9050919050565b7f4f776e61626c653a206e6577206f776e657220697320746865207a65726f206160008201527f6464726573730000000000000000000000000000000000000000000000000000602082015250565b60006107796026836106a0565b91506107848261071d565b604082019050919050565b600060208201905081810360008301526107a88161076c565b905091905056fea26469706673582212209ada96abf32b69466c87dd040bd9bdc35553c5fa6d485298203268d03cd25e9264736f6c63430008140033",
					"opcodes": "PUSH1 0x80 PUSH1 0x40 MSTORE CALLVALUE DUP1 ISZERO PUSH2 0x10 JUMPI PUSH1 0x0 DUP1 REVERT JUMPDEST POP PUSH1 0x0 PUSH2 0x21 PUSH2 0xC4 PUSH1 0x20 SHL PUSH1 0x20 SHR JUMP JUMPDEST SWAP1 POP DUP1 PUSH1 0x0 DUP1 PUSH2 0x100 EXP DUP2 SLOAD DUP2 PUSH20 0xFFFFFFFFFFFFFFFFFFFFFFFFFFFFFFFFFFFFFFFF MUL NOT AND SWAP1 DUP4 PUSH20 0xFFFFFFFFFFFFFFFFFFFFFFFFFFFFFFFFFFFFFFFF AND MUL OR SWAP1 SSTORE POP DUP1 PUSH20 0xFFFFFFFFFFFFFFFFFFFFFFFFFFFFFFFFFFFFFFFF AND PUSH1 0x0 PUSH20 0xFFFFFFFFFFFFFFFFFFFFFFFFFFFFFFFFFFFFFFFF AND PUSH32 0x8BE0079C531659141344CD1FD0A4F28419497F9722A3DAAFE3B4186F6B6457E0 PUSH1 0x40 MLOAD PUSH1 0x40 MLOAD DUP1 SWAP2 SUB SWAP1 LOG3 POP PUSH2 0xCC JUMP JUMPDEST PUSH1 0x0 CALLER SWAP1 POP SWAP1 JUMP JUMPDEST PUSH2 0x7E5 DUP1 PUSH2 0xDB PUSH1 0x0 CODECOPY PUSH1 0x0 RETURN INVALID PUSH1 0x80 PUSH1 0x40 MSTORE CALLVALUE DUP1 ISZERO PUSH2 0x10 JUMPI PUSH1 0x0 DUP1 REVERT JUMPDEST POP PUSH1 0x4 CALLDATASIZE LT PUSH2 0x57 JUMPI PUSH1 0x0 CALLDATALOAD PUSH1 0xE0 SHR DUP1 PUSH4 0x715018A6 EQ PUSH2 0x5C JUMPI DUP1 PUSH4 0x8DA5CB5B EQ PUSH2 0x66 JUMPI DUP1 PUSH4 0xDA8C229E EQ PUSH2 0x84 JUMPI DUP1 PUSH4 0xE0DBA60F EQ PUSH2 0xB4 JUMPI DUP1 PUSH4 0xF2FDE38B EQ PUSH2 0xD0 JUMPI JUMPDEST PUSH1 0x0 DUP1 REVERT JUMPDEST PUSH2 0x64 PUSH2 0xEC JUMP JUMPDEST STOP JUMPDEST PUSH2 0x6E PUSH2 0x226 JUMP JUMPDEST PUSH1 0x40 MLOAD PUSH2 0x7B SWAP2 SWAP1 PUSH2 0x585 JUMP JUMPDEST PUSH1 0x40 MLOAD DUP1 SWAP2 SUB SWAP1 RETURN JUMPDEST PUSH2 0x9E PUSH1 0x4 DUP1 CALLDATASIZE SUB DUP2 ADD SWAP1 PUSH2 0x99 SWAP2 SWAP1 PUSH2 0x5D1 JUMP JUMPDEST PUSH2 0x24F JUMP JUMPDEST PUSH1 0x40 MLOAD PUSH2 0xAB SWAP2 SWAP1 PUSH2 0x619 JUMP JUMPDEST PUSH1 0x40 MLOAD DUP1 SWAP2 SUB SWAP1 RETURN JUMPDEST PUSH2 0xCE PUSH1 0x4 DUP1 CALLDATASIZE SUB DUP2 ADD SWAP1 PUSH2 0xC9 SWAP2 SWAP1 PUSH2 0x660 JUMP JUMPDEST PUSH2 0x26F JUMP JUMPDEST STOP JUMPDEST PUSH2 0xEA PUSH1 0x4 DUP1 CALLDATASIZE SUB DUP2 ADD SWAP1 PUSH2 0xE5 SWAP2 SWAP1 PUSH2 0x5D1 JUMP JUMPDEST PUSH2 0x394 JUMP JUMPDEST STOP JUMPDEST PUSH2 0xF4 PUSH2 0x53C JUMP JUMPDEST PUSH20 0xFFFFFFFFFFFFFFFFFFFFFFFFFFFFFFFFFFFFFFFF AND PUSH2 0x112 PUSH2 0x226 JUMP JUMPDEST PUSH20 0xFFFFFFFFFFFFFFFFFFFFFFFFFFFFFFFFFFFFFFFF AND EQ PUSH2 0x168 JUMPI PUSH1 0x40 MLOAD PUSH32 0x8C379A000000000000000000000000000000000000000000000000000000000 DUP2 MSTORE PUSH1 0x4 ADD PUSH2 0x15F SWAP1 PUSH2 0x6FD JUMP JUMPDEST PUSH1 0x40 MLOAD DUP1 SWAP2 SUB SWAP1 REVERT JUMPDEST PUSH1 0x0 PUSH20 0xFFFFFFFFFFFFFFFFFFFFFFFFFFFFFFFFFFFFFFFF AND PUSH1 0x0 DUP1 SLOAD SWAP1 PUSH2 0x100 EXP SWAP1 DIV PUSH20 0xFFFFFFFFFFFFFFFFFFFFFFFFFFFFFFFFFFFFFFFF AND PUSH20 0xFFFFFFFFFFFFFFFFFFFFFFFFFFFFFFFFFFFFFFFF AND PUSH32 0x8BE0079C531659141344CD1FD0A4F28419497F9722A3DAAFE3B4186F6B6457E0 PUSH1 0x40 MLOAD PUSH1 0x40 MLOAD DUP1 SWAP2 SUB SWAP1 LOG3 PUSH1 0x0 DUP1 PUSH1 0x0 PUSH2 0x100 EXP DUP2 SLOAD DUP2 PUSH20 0xFFFFFFFFFFFFFFFFFFFFFFFFFFFFFFFFFFFFFFFF MUL NOT AND SWAP1 DUP4 PUSH20 0xFFFFFFFFFFFFFFFFFFFFFFFFFFFFFFFFFFFFFFFF AND MUL OR SWAP1 SSTORE POP JUMP JUMPDEST PUSH1 0x0 DUP1 PUSH1 0x0 SWAP1 SLOAD SWAP1 PUSH2 0x100 EXP SWAP1 DIV PUSH20 0xFFFFFFFFFFFFFFFFFFFFFFFFFFFFFFFFFFFFFFFF AND SWAP1 POP SWAP1 JUMP JUMPDEST PUSH1 0x1 PUSH1 0x20 MSTORE DUP1 PUSH1 0x0 MSTORE PUSH1 0x40 PUSH1 0x0 KECCAK256 PUSH1 0x0 SWAP2 POP SLOAD SWAP1 PUSH2 0x100 EXP SWAP1 DIV PUSH1 0xFF AND DUP2 JUMP JUMPDEST PUSH2 0x277 PUSH2 0x53C JUMP JUMPDEST PUSH20 0xFFFFFFFFFFFFFFFFFFFFFFFFFFFFFFFFFFFFFFFF AND PUSH2 0x295 PUSH2 0x226 JUMP JUMPDEST PUSH20 0xFFFFFFFFFFFFFFFFFFFFFFFFFFFFFFFFFFFFFFFF AND EQ PUSH2 0x2EB JUMPI PUSH1 0x40 MLOAD PUSH32 0x8C379A000000000000000000000000000000000000000000000000000000000 DUP2 MSTORE PUSH1 0x4 ADD PUSH2 0x2E2 SWAP1 PUSH2 0x6FD JUMP JUMPDEST PUSH1 0x40 MLOAD DUP1 SWAP2 SUB SWAP1 REVERT JUMPDEST DUP1 PUSH1 0x1 PUSH1 0x0 DUP5 PUSH20 0xFFFFFFFFFFFFFFFFFFFFFFFFFFFFFFFFFFFFFFFF AND PUSH20 0xFFFFFFFFFFFFFFFFFFFFFFFFFFFFFFFFFFFFFFFF AND DUP2 MSTORE PUSH1 0x20 ADD SWAP1 DUP2 MSTORE PUSH1 0x20 ADD PUSH1 0x0 KECCAK256 PUSH1 0x0 PUSH2 0x100 EXP DUP2 SLOAD DUP2 PUSH1 0xFF MUL NOT AND SWAP1 DUP4 ISZERO ISZERO MUL OR SWAP1 SSTORE POP DUP2 PUSH20 0xFFFFFFFFFFFFFFFFFFFFFFFFFFFFFFFFFFFFFFFF AND PUSH32 0x4C97694570A07277810AF7E5669FFD5F6A2D6B74B6E9A274B8B870FD5114CF87 DUP3 PUSH1 0x40 MLOAD PUSH2 0x388 SWAP2 SWAP1 PUSH2 0x619 JUMP JUMPDEST PUSH1 0x40 MLOAD DUP1 SWAP2 SUB SWAP1 LOG2 POP POP JUMP JUMPDEST PUSH2 0x39C PUSH2 0x53C JUMP JUMPDEST PUSH20 0xFFFFFFFFFFFFFFFFFFFFFFFFFFFFFFFFFFFFFFFF AND PUSH2 0x3BA PUSH2 0x226 JUMP JUMPDEST PUSH20 0xFFFFFFFFFFFFFFFFFFFFFFFFFFFFFFFFFFFFFFFF AND EQ PUSH2 0x410 JUMPI PUSH1 0x40 MLOAD PUSH32 0x8C379A000000000000000000000000000000000000000000000000000000000 DUP2 MSTORE PUSH1 0x4 ADD PUSH2 0x407 SWAP1 PUSH2 0x6FD JUMP JUMPDEST PUSH1 0x40 MLOAD DUP1 SWAP2 SUB SWAP1 REVERT JUMPDEST PUSH1 0x0 PUSH20 0xFFFFFFFFFFFFFFFFFFFFFFFFFFFFFFFFFFFFFFFF AND DUP2 PUSH20 0xFFFFFFFFFFFFFFFFFFFFFFFFFFFFFFFFFFFFFFFF AND SUB PUSH2 0x47F JUMPI PUSH1 0x40 MLOAD PUSH32 0x8C379A000000000000000000000000000000000000000000000000000000000 DUP2 MSTORE PUSH1 0x4 ADD PUSH2 0x476 SWAP1 PUSH2 0x78F JUMP JUMPDEST PUSH1 0x40 MLOAD DUP1 SWAP2 SUB SWAP1 REVERT JUMPDEST DUP1 PUSH20 0xFFFFFFFFFFFFFFFFFFFFFFFFFFFFFFFFFFFFFFFF AND PUSH1 0x0 DUP1 SLOAD SWAP1 PUSH2 0x100 EXP SWAP1 DIV PUSH20 0xFFFFFFFFFFFFFFFFFFFFFFFFFFFFFFFFFFFFFFFF AND PUSH20 0xFFFFFFFFFFFFFFFFFFFFFFFFFFFFFFFFFFFFFFFF AND PUSH32 0x8BE0079C531659141344CD1FD0A4F28419497F9722A3DAAFE3B4186F6B6457E0 PUSH1 0x40 MLOAD PUSH1 0x40 MLOAD DUP1 SWAP2 SUB SWAP1 LOG3 DUP1 PUSH1 0x0 DUP1 PUSH2 0x100 EXP DUP2 SLOAD DUP2 PUSH20 0xFFFFFFFFFFFFFFFFFFFFFFFFFFFFFFFFFFFFFFFF MUL NOT AND SWAP1 DUP4 PUSH20 0xFFFFFFFFFFFFFFFFFFFFFFFFFFFFFFFFFFFFFFFF AND MUL OR SWAP1 SSTORE POP POP JUMP JUMPDEST PUSH1 0x0 CALLER SWAP1 POP SWAP1 JUMP JUMPDEST PUSH1 0x0 PUSH20 0xFFFFFFFFFFFFFFFFFFFFFFFFFFFFFFFFFFFFFFFF DUP3 AND SWAP1 POP SWAP2 SWAP1 POP JUMP JUMPDEST PUSH1 0x0 PUSH2 0x56F DUP3 PUSH2 0x544 JUMP JUMPDEST SWAP1 POP SWAP2 SWAP1 POP JUMP JUMPDEST PUSH2 0x57F DUP2 PUSH2 0x564 JUMP JUMPDEST DUP3 MSTORE POP POP JUMP JUMPDEST PUSH1 0x0 PUSH1 0x20 DUP3 ADD SWAP1 POP PUSH2 0x59A PUSH1 0x0 DUP4 ADD DUP5 PUSH2 0x576 JUMP JUMPDEST SWAP3 SWAP2 POP POP JUMP JUMPDEST PUSH1 0x0 DUP1 REVERT JUMPDEST PUSH2 0x5AE DUP2 PUSH2 0x564 JUMP JUMPDEST DUP2 EQ PUSH2 0x5B9 JUMPI PUSH1 0x0 DUP1 REVERT JUMPDEST POP JUMP JUMPDEST PUSH1 0x0 DUP2 CALLDATALOAD SWAP1 POP PUSH2 0x5CB DUP2 PUSH2 0x5A5 JUMP JUMPDEST SWAP3 SWAP2 POP POP JUMP JUMPDEST PUSH1 0x0 PUSH1 0x20 DUP3 DUP5 SUB SLT ISZERO PUSH2 0x5E7 JUMPI PUSH2 0x5E6 PUSH2 0x5A0 JUMP JUMPDEST JUMPDEST PUSH1 0x0 PUSH2 0x5F5 DUP5 DUP3 DUP6 ADD PUSH2 0x5BC JUMP JUMPDEST SWAP2 POP POP SWAP3 SWAP2 POP POP JUMP JUMPDEST PUSH1 0x0 DUP2 ISZERO ISZERO SWAP1 POP SWAP2 SWAP1 POP JUMP JUMPDEST PUSH2 0x613 DUP2 PUSH2 0x5FE JUMP JUMPDEST DUP3 MSTORE POP POP JUMP JUMPDEST PUSH1 0x0 PUSH1 0x20 DUP3 ADD SWAP1 POP PUSH2 0x62E PUSH1 0x0 DUP4 ADD DUP5 PUSH2 0x60A JUMP JUMPDEST SWAP3 SWAP2 POP POP JUMP JUMPDEST PUSH2 0x63D DUP2 PUSH2 0x5FE JUMP JUMPDEST DUP2 EQ PUSH2 0x648 JUMPI PUSH1 0x0 DUP1 REVERT JUMPDEST POP JUMP JUMPDEST PUSH1 0x0 DUP2 CALLDATALOAD SWAP1 POP PUSH2 0x65A DUP2 PUSH2 0x634 JUMP JUMPDEST SWAP3 SWAP2 POP POP JUMP JUMPDEST PUSH1 0x0 DUP1 PUSH1 0x40 DUP4 DUP6 SUB SLT ISZERO PUSH2 0x677 JUMPI PUSH2 0x676 PUSH2 0x5A0 JUMP JUMPDEST JUMPDEST PUSH1 0x0 PUSH2 0x685 DUP6 DUP3 DUP7 ADD PUSH2 0x5BC JUMP JUMPDEST SWAP3 POP POP PUSH1 0x20 PUSH2 0x696 DUP6 DUP3 DUP7 ADD PUSH2 0x64B JUMP JUMPDEST SWAP2 POP POP SWAP3 POP SWAP3 SWAP1 POP JUMP JUMPDEST PUSH1 0x0 DUP3 DUP3 MSTORE PUSH1 0x20 DUP3 ADD SWAP1 POP SWAP3 SWAP2 POP POP JUMP JUMPDEST PUSH32 0x4F776E61626C653A2063616C6C6572206973206E6F7420746865206F776E6572 PUSH1 0x0 DUP3 ADD MSTORE POP JUMP JUMPDEST PUSH1 0x0 PUSH2 0x6E7 PUSH1 0x20 DUP4 PUSH2 0x6A0 JUMP JUMPDEST SWAP2 POP PUSH2 0x6F2 DUP3 PUSH2 0x6B1 JUMP JUMPDEST PUSH1 0x20 DUP3 ADD SWAP1 POP SWAP2 SWAP1 POP JUMP JUMPDEST PUSH1 0x0 PUSH1 0x20 DUP3 ADD SWAP1 POP DUP2 DUP2 SUB PUSH1 0x0 DUP4 ADD MSTORE PUSH2 0x716 DUP2 PUSH2 0x6DA JUMP JUMPDEST SWAP1 POP SWAP2 SWAP1 POP JUMP JUMPDEST PUSH32 0x4F776E61626C653A206E6577206F776E657220697320746865207A65726F2061 PUSH1 0x0 DUP3 ADD MSTORE PUSH32 0x6464726573730000000000000000000000000000000000000000000000000000 PUSH1 0x20 DUP3 ADD MSTORE POP JUMP JUMPDEST PUSH1 0x0 PUSH2 0x779 PUSH1 0x26 DUP4 PUSH2 0x6A0 JUMP JUMPDEST SWAP2 POP PUSH2 0x784 DUP3 PUSH2 0x71D JUMP JUMPDEST PUSH1 0x40 DUP3 ADD SWAP1 POP SWAP2 SWAP1 POP JUMP JUMPDEST PUSH1 0x0 PUSH1 0x20 DUP3 ADD SWAP1 POP DUP2 DUP2 SUB PUSH1 0x0 DUP4 ADD MSTORE PUSH2 0x7A8 DUP2 PUSH2 0x76C JUMP JUMPDEST SWAP1 POP SWAP2 SWAP1 POP JUMP INVALID LOG2 PUSH5 0x6970667358 0x22 SLT KECCAK256 SWAP11 0xDA SWAP7 0xAB RETURN 0x2B PUSH10 0x466C87DD040BD9BDC355 MSTORE8 0xC5 STATICCALL PUSH14 0x485298203268D03CD25E9264736F PUSH13 0x63430008140033000000000000 "
				},
				"gasEstimates": {
					"creation": {
						"codeDepositCost": "404200",
						"executionCost": "infinite",
						"totalCost": "infinite"
					},
					"external": {
						"controllers(address)": "2867",
						"owner()": "2522",
						"renounceOwnership()": "30307",
						"setController(address,bool)": "infinite",
						"transferOwnership(address)": "30741"
					}
				},
				"methodIdentifiers": {
					"controllers(address)": "da8c229e",
					"owner()": "8da5cb5b",
					"renounceOwnership()": "715018a6",
					"setController(address,bool)": "e0dba60f",
					"transferOwnership(address)": "f2fde38b"
				}
			},
			"storageLayout": {
				"storage": [
					{
						"astId": 7,
						"contract": "package/contracts/root/Controllable.sol:Controllable",
						"label": "_owner",
						"offset": 0,
						"slot": "0",
						"type": "t_address"
					},
					{
						"astId": 278,
						"contract": "package/contracts/root/Controllable.sol:Controllable",
						"label": "controllers",
						"offset": 0,
						"slot": "1",
						"type": "t_mapping(t_address,t_bool)"
					}
				],
				"types": {
					"t_address": {
						"encoding": "inplace",
						"label": "address",
						"numberOfBytes": "20"
					},
					"t_bool": {
						"encoding": "inplace",
						"label": "bool",
						"numberOfBytes": "1"
					},
					"t_mapping(t_address,t_bool)": {
						"encoding": "mapping",
						"key": "t_address",
						"label": "mapping(address => bool)",
						"numberOfBytes": "32",
						"value": "t_bool"
					}
				}
			},
			"userdoc": {
				"kind": "user",
				"methods": {},
				"version": 1
			}
		}
	}
}