{
	"data": {
		"bytecode": {
			"linkReferences": {},
			"object": "6060604052341561000c57fe5b5b6101ac8061001c6000396000f30060606040526000357c0100000000000000000000000000000000000000000000000000000000900463ffffffff168063691f343114610046578063f8a8fd6d146100f1575bfe5b341561004e57fe5b61006860048080356000191690602001909190505061011b565b60405180806020018281038252838181518152602001915080519060200190808383600083146100b7575b8051825260208311156100b757602082019150602081019050602083039250610093565b505050905090810190601f1680156100e35780820380516001836020036101000a031916815260200191505b509250505060405180910390f35b34156100f957fe5b610101610162565b604051808215151515815260200191505060405180910390f35b61012361016c565b604060405190810160405280600881526020017f746573742e65746800000000000000000000000000000000000000000000000081525090505b919050565b6000600190505b90565b6020604051908101604052806000815250905600a165627a7a72305820d660a1f31f0dface71dcbc3cf16d5397495cc1b0725424339dedc4d3b6c6c7aa0029",
			"opcodes": "PUSH1 0x60 PUSH1 0x40 MSTORE CALLVALUE ISZERO PUSH2 0xC JUMPI INVALID JUMPDEST JUMPDEST PUSH2 0x1AC DUP1 PUSH2 0x1C PUSH1 0x0 CODECOPY PUSH1 0x0 RETURN STOP PUSH1 0x60 PUSH1 0x40 MSTORE PUSH1 0x0 CALLDATALOAD PUSH29 0x100000000000000000000000000000000000000000000000000000000 SWAP1 DIV PUSH4 0xFFFFFFFF AND DUP1 PUSH4 0x691F3431 EQ PUSH2 0x46 JUMPI DUP1 PUSH4 0xF8A8FD6D EQ PUSH2 0xF1 JUMPI JUMPDEST INVALID JUMPDEST CALLVALUE ISZERO PUSH2 0x4E JUMPI INVALID JUMPDEST PUSH2 0x68 PUSH1 0x4 DUP1 DUP1 CALLDATALOAD PUSH1 0x0 NOT AND SWAP1 PUSH1 0x20 ADD SWAP1 SWAP2 SWAP1 POP POP PUSH2 0x11B JUMP JUMPDEST PUSH1 0x40 MLOAD DUP1 DUP1 PUSH1 0x20 ADD DUP3 DUP2 SUB DUP3 MSTORE DUP4 DUP2 DUP2 MLOAD DUP2 MSTORE PUSH1 0x20 ADD SWAP2 POP DUP1 MLOAD SWAP1 PUSH1 0x20 ADD SWAP1 DUP1 DUP4 DUP4 PUSH1 0x0 DUP4 EQ PUSH2 0xB7 JUMPI JUMPDEST DUP1 MLOAD DUP3 MSTORE PUSH1 0x20 DUP4 GT ISZERO PUSH2 0xB7 JUMPI PUSH1 0x20 DUP3 ADD SWAP2 POP PUSH1 0x20 DUP2 ADD SWAP1 POP PUSH1 0x20 DUP4 SUB SWAP3 POP PUSH2 0x93 JUMP JUMPDEST POP POP POP SWAP1 POP SWAP1 DUP2 ADD SWAP1 PUSH1 0x1F AND DUP1 ISZERO PUSH2 0xE3 JUMPI DUP1 DUP3 SUB DUP1 MLOAD PUSH1 0x1 DUP4 PUSH1 0x20 SUB PUSH2 0x100 EXP SUB NOT AND DUP2 MSTORE PUSH1 0x20 ADD SWAP2 POP JUMPDEST POP SWAP3 POP POP POP PUSH1 0x40 MLOAD DUP1 SWAP2 SUB SWAP1 RETURN JUMPDEST CALLVALUE ISZERO PUSH2 0xF9 JUMPI INVALID JUMPDEST PUSH2 0x101 PUSH2 0x162 JUMP JUMPDEST PUSH1 0x40 MLOAD DUP1 DUP3 ISZERO ISZERO ISZERO ISZERO DUP2 MSTORE PUSH1 0x20 ADD SWAP2 POP POP PUSH1 0x40 MLOAD DUP1 SWAP2 SUB SWAP1 RETURN JUMPDEST PUSH2 0x123 PUSH2 0x16C JUMP JUMPDEST PUSH1 0x40 PUSH1 0x40 MLOAD SWAP1 DUP2 ADD PUSH1 0x40 MSTORE DUP1 PUSH1 0x8 DUP2 MSTORE PUSH1 0x20 ADD PUSH32 0x746573742E657468000000000000000000000000000000000000000000000000 DUP2 MSTORE POP SWAP1 POP JUMPDEST SWAP2 SWAP1 POP JUMP JUMPDEST PUSH1 0x0 PUSH1 0x1 SWAP1 POP JUMPDEST SWAP1 JUMP JUMPDEST PUSH1 0x20 PUSH1 0x40 MLOAD SWAP1 DUP2 ADD PUSH1 0x40 MSTORE DUP1 PUSH1 0x0 DUP2 MSTORE POP SWAP1 JUMP STOP LOG1 PUSH6 0x627A7A723058 SHA3 0xd6 PUSH1 0xA1 RETURN 0x1f 0xd 0xfa 0xce PUSH18 0xDCBC3CF16D5397495CC1B0725424339DEDC4 0xd3 0xb6 0xc6 0xc7 0xaa STOP 0x29 "
		},
		"gasEstimates": {
			"creation": {
				"codeDepositCost": "85600",
				"executionCost": "131",
				"totalCost": "85731"
			},
			"external": {
				"name(bytes32)": "644",
				"test()": "208"
			}
		},
		"methodIdentifiers": {
			"name(bytes32)": "691f3431",
			"test()": "f8a8fd6d"
		}
	},
	"abi": [
		{
			"constant": false,
			"inputs": [
				{
					"name": "",
					"type": "bytes32"
				}
			],
			"name": "name",
			"outputs": [
				{
					"name": "",
					"type": "string"
				}
			],
			"payable": false,
			"type": "function",
			"stateMutability": "nonpayable"
		},
		{
			"constant": false,
			"inputs": [],
			"name": "test",
			"outputs": [
				{
					"name": "",
					"type": "bool"
				}
			],
			"payable": false,
			"type": "function",
			"stateMutability": "nonpayable"
		}
	]
}