{
	"data": {
		"bytecode": {
			"linkReferences": {},
			"object": "6080604052348015600f57600080fd5b506106a78061001f6000396000f3fe608060405234801561001057600080fd5b50600436106100365760003560e01c806390497d231461003b578063ecc4401d1461006c575b600080fd5b610055600480360381019061005091906103a9565b61009c565b604051610063929190610431565b60405180910390f35b610086600480360381019061008191906103a9565b610102565b604051610093919061045a565b60405180910390f35b6000806100f68386868080601f016020809104026020016040519081016040528093929190818152602001838380828437600081840152601f19601f8201169050808301925050505050505061016490919063ffffffff16565b91509150935093915050565b600061015b8285858080601f016020809104026020016040519081016040528093929190818152602001838380828437600081840152601f19601f8201169050808301925050505050505061022290919063ffffffff16565b90509392505050565b600080835183106101aa576040517f08c379a00000000000000000000000000000000000000000000000000000000081526004016101a1906104d2565b60405180910390fd5b60008484815181106101bf576101be6104f2565b5b602001015160f81c60f81b60f81c60ff16905060008111156101f9576101f2856001866101ec9190610550565b836102d8565b9250610200565b6000801b92505b6001818561020e9190610550565b6102189190610550565b9150509250929050565b60008060006102318585610164565b915091506000801b820361029b576001855161024d9190610584565b841461028e576040517f08c379a000000000000000000000000000000000000000000000000000000000815260040161028590610604565b60405180910390fd5b6000801b925050506102d2565b6102a58582610222565b826040516020016102b7929190610645565b60405160208183030381529060405280519060200120925050505b92915050565b6000835182846102e89190610550565b11156102f357600080fd5b818360208601012090509392505050565b600080fd5b600080fd5b600080fd5b600080fd5b600080fd5b60008083601f8401126103335761033261030e565b5b8235905067ffffffffffffffff8111156103505761034f610313565b5b60208301915083600182028301111561036c5761036b610318565b5b9250929050565b6000819050919050565b61038681610373565b811461039157600080fd5b50565b6000813590506103a38161037d565b92915050565b6000806000604084860312156103c2576103c1610304565b5b600084013567ffffffffffffffff8111156103e0576103df610309565b5b6103ec8682870161031d565b935093505060206103ff86828701610394565b9150509250925092565b6000819050919050565b61041c81610409565b82525050565b61042b81610373565b82525050565b60006040820190506104466000830185610413565b6104536020830184610422565b9392505050565b600060208201905061046f6000830184610413565b92915050565b600082825260208201905092915050565b7f726561644c6162656c3a20496e646578206f7574206f6620626f756e64730000600082015250565b60006104bc601e83610475565b91506104c782610486565b602082019050919050565b600060208201905081810360008301526104eb816104af565b9050919050565b7f4e487b7100000000000000000000000000000000000000000000000000000000600052603260045260246000fd5b7f4e487b7100000000000000000000000000000000000000000000000000000000600052601160045260246000fd5b600061055b82610373565b915061056683610373565b925082820190508082111561057e5761057d610521565b5b92915050565b600061058f82610373565b915061059a83610373565b92508282039050818111156105b2576105b1610521565b5b92915050565b7f6e616d65686173683a204a756e6b20617420656e64206f66206e616d65000000600082015250565b60006105ee601d83610475565b91506105f9826105b8565b602082019050919050565b6000602082019050818103600083015261061d816105e1565b9050919050565b6000819050919050565b61063f61063a82610409565b610624565b82525050565b6000610651828561062e565b602082019150610661828461062e565b602082019150819050939250505056fea2646970667358221220f52fdedde6aff54f50536ae96eeed79621d83dc9d5c7fb9151f9ac5f81367be764736f6c634300081b0033",
			"opcodes": "PUSH1 0x80 PUSH1 0x40 MSTORE CALLVALUE DUP1 ISZERO PUSH1 0xF JUMPI PUSH1 0x0 DUP1 REVERT JUMPDEST POP PUSH2 0x6A7 DUP1 PUSH2 0x1F PUSH1 0x0 CODECOPY PUSH1 0x0 RETURN INVALID PUSH1 0x80 PUSH1 0x40 MSTORE CALLVALUE DUP1 ISZERO PUSH2 0x10 JUMPI PUSH1 0x0 DUP1 REVERT JUMPDEST POP PUSH1 0x4 CALLDATASIZE LT PUSH2 0x36 JUMPI PUSH1 0x0 CALLDATALOAD PUSH1 0xE0 SHR DUP1 PUSH4 0x90497D23 EQ PUSH2 0x3B JUMPI DUP1 PUSH4 0xECC4401D EQ PUSH2 0x6C JUMPI JUMPDEST PUSH1 0x0 DUP1 REVERT JUMPDEST PUSH2 0x55 PUSH1 0x4 DUP1 CALLDATASIZE SUB DUP2 ADD SWAP1 PUSH2 0x50 SWAP2 SWAP1 PUSH2 0x3A9 JUMP JUMPDEST PUSH2 0x9C JUMP JUMPDEST PUSH1 0x40 MLOAD PUSH2 0x63 SWAP3 SWAP2 SWAP1 PUSH2 0x431 JUMP JUMPDEST PUSH1 0x40 MLOAD DUP1 SWAP2 SUB SWAP1 RETURN JUMPDEST PUSH2 0x86 PUSH1 0x4 DUP1 CALLDATASIZE SUB DUP2 ADD SWAP1 PUSH2 0x81 SWAP2 SWAP1 PUSH2 0x3A9 JUMP JUMPDEST PUSH2 0x102 JUMP JUMPDEST PUSH1 0x40 MLOAD PUSH2 0x93 SWAP2 SWAP1 PUSH2 0x45A JUMP JUMPDEST PUSH1 0x40 MLOAD DUP1 SWAP2 SUB SWAP1 RETURN JUMPDEST PUSH1 0x0 DUP1 PUSH2 0xF6 DUP4 DUP7 DUP7 DUP1 DUP1 PUSH1 0x1F ADD PUSH1 0x20 DUP1 SWAP2 DIV MUL PUSH1 0x20 ADD PUSH1 0x40 MLOAD SWAP1 DUP2 ADD PUSH1 0x40 MSTORE DUP1 SWAP4 SWAP3 SWAP2 SWAP1 DUP2 DUP2 MSTORE PUSH1 0x20 ADD DUP4 DUP4 DUP1 DUP3 DUP5 CALLDATACOPY PUSH1 0x0 DUP2 DUP5 ADD MSTORE PUSH1 0x1F NOT PUSH1 0x1F DUP3 ADD AND SWAP1 POP DUP1 DUP4 ADD SWAP3 POP POP POP POP POP POP POP PUSH2 0x164 SWAP1 SWAP2 SWAP1 PUSH4 0xFFFFFFFF AND JUMP JUMPDEST SWAP2 POP SWAP2 POP SWAP4 POP SWAP4 SWAP2 POP POP JUMP JUMPDEST PUSH1 0x0 PUSH2 0x15B DUP3 DUP6 DUP6 DUP1 DUP1 PUSH1 0x1F ADD PUSH1 0x20 DUP1 SWAP2 DIV MUL PUSH1 0x20 ADD PUSH1 0x40 MLOAD SWAP1 DUP2 ADD PUSH1 0x40 MSTORE DUP1 SWAP4 SWAP3 SWAP2 SWAP1 DUP2 DUP2 MSTORE PUSH1 0x20 ADD DUP4 DUP4 DUP1 DUP3 DUP5 CALLDATACOPY PUSH1 0x0 DUP2 DUP5 ADD MSTORE PUSH1 0x1F NOT PUSH1 0x1F DUP3 ADD AND SWAP1 POP DUP1 DUP4 ADD SWAP3 POP POP POP POP POP POP POP PUSH2 0x222 SWAP1 SWAP2 SWAP1 PUSH4 0xFFFFFFFF AND JUMP JUMPDEST SWAP1 POP SWAP4 SWAP3 POP POP POP JUMP JUMPDEST PUSH1 0x0 DUP1 DUP4 MLOAD DUP4 LT PUSH2 0x1AA JUMPI PUSH1 0x40 MLOAD PUSH32 0x8C379A000000000000000000000000000000000000000000000000000000000 DUP2 MSTORE PUSH1 0x4 ADD PUSH2 0x1A1 SWAP1 PUSH2 0x4D2 JUMP JUMPDEST PUSH1 0x40 MLOAD DUP1 SWAP2 SUB SWAP1 REVERT JUMPDEST PUSH1 0x0 DUP5 DUP5 DUP2 MLOAD DUP2 LT PUSH2 0x1BF JUMPI PUSH2 0x1BE PUSH2 0x4F2 JUMP JUMPDEST JUMPDEST PUSH1 0x20 ADD ADD MLOAD PUSH1 0xF8 SHR PUSH1 0xF8 SHL PUSH1 0xF8 SHR PUSH1 0xFF AND SWAP1 POP PUSH1 0x0 DUP2 GT ISZERO PUSH2 0x1F9 JUMPI PUSH2 0x1F2 DUP6 PUSH1 0x1 DUP7 PUSH2 0x1EC SWAP2 SWAP1 PUSH2 0x550 JUMP JUMPDEST DUP4 PUSH2 0x2D8 JUMP JUMPDEST SWAP3 POP PUSH2 0x200 JUMP JUMPDEST PUSH1 0x0 DUP1 SHL SWAP3 POP JUMPDEST PUSH1 0x1 DUP2 DUP6 PUSH2 0x20E SWAP2 SWAP1 PUSH2 0x550 JUMP JUMPDEST PUSH2 0x218 SWAP2 SWAP1 PUSH2 0x550 JUMP JUMPDEST SWAP2 POP POP SWAP3 POP SWAP3 SWAP1 POP JUMP JUMPDEST PUSH1 0x0 DUP1 PUSH1 0x0 PUSH2 0x231 DUP6 DUP6 PUSH2 0x164 JUMP JUMPDEST SWAP2 POP SWAP2 POP PUSH1 0x0 DUP1 SHL DUP3 SUB PUSH2 0x29B JUMPI PUSH1 0x1 DUP6 MLOAD PUSH2 0x24D SWAP2 SWAP1 PUSH2 0x584 JUMP JUMPDEST DUP5 EQ PUSH2 0x28E JUMPI PUSH1 0x40 MLOAD PUSH32 0x8C379A000000000000000000000000000000000000000000000000000000000 DUP2 MSTORE PUSH1 0x4 ADD PUSH2 0x285 SWAP1 PUSH2 0x604 JUMP JUMPDEST PUSH1 0x40 MLOAD DUP1 SWAP2 SUB SWAP1 REVERT JUMPDEST PUSH1 0x0 DUP1 SHL SWAP3 POP POP POP PUSH2 0x2D2 JUMP JUMPDEST PUSH2 0x2A5 DUP6 DUP3 PUSH2 0x222 JUMP JUMPDEST DUP3 PUSH1 0x40 MLOAD PUSH1 0x20 ADD PUSH2 0x2B7 SWAP3 SWAP2 SWAP1 PUSH2 0x645 JUMP JUMPDEST PUSH1 0x40 MLOAD PUSH1 0x20 DUP2 DUP4 SUB SUB DUP2 MSTORE SWAP1 PUSH1 0x40 MSTORE DUP1 MLOAD SWAP1 PUSH1 0x20 ADD KECCAK256 SWAP3 POP POP POP JUMPDEST SWAP3 SWAP2 POP POP JUMP JUMPDEST PUSH1 0x0 DUP4 MLOAD DUP3 DUP5 PUSH2 0x2E8 SWAP2 SWAP1 PUSH2 0x550 JUMP JUMPDEST GT ISZERO PUSH2 0x2F3 JUMPI PUSH1 0x0 DUP1 REVERT JUMPDEST DUP2 DUP4 PUSH1 0x20 DUP7 ADD ADD KECCAK256 SWAP1 POP SWAP4 SWAP3 POP POP POP JUMP JUMPDEST PUSH1 0x0 DUP1 REVERT JUMPDEST PUSH1 0x0 DUP1 REVERT JUMPDEST PUSH1 0x0 DUP1 REVERT JUMPDEST PUSH1 0x0 DUP1 REVERT JUMPDEST PUSH1 0x0 DUP1 REVERT JUMPDEST PUSH1 0x0 DUP1 DUP4 PUSH1 0x1F DUP5 ADD SLT PUSH2 0x333 JUMPI PUSH2 0x332 PUSH2 0x30E JUMP JUMPDEST JUMPDEST DUP3 CALLDATALOAD SWAP1 POP PUSH8 0xFFFFFFFFFFFFFFFF DUP2 GT ISZERO PUSH2 0x350 JUMPI PUSH2 0x34F PUSH2 0x313 JUMP JUMPDEST JUMPDEST PUSH1 0x20 DUP4 ADD SWAP2 POP DUP4 PUSH1 0x1 DUP3 MUL DUP4 ADD GT ISZERO PUSH2 0x36C JUMPI PUSH2 0x36B PUSH2 0x318 JUMP JUMPDEST JUMPDEST SWAP3 POP SWAP3 SWAP1 POP JUMP JUMPDEST PUSH1 0x0 DUP2 SWAP1 POP SWAP2 SWAP1 POP JUMP JUMPDEST PUSH2 0x386 DUP2 PUSH2 0x373 JUMP JUMPDEST DUP2 EQ PUSH2 0x391 JUMPI PUSH1 0x0 DUP1 REVERT JUMPDEST POP JUMP JUMPDEST PUSH1 0x0 DUP2 CALLDATALOAD SWAP1 POP PUSH2 0x3A3 DUP2 PUSH2 0x37D JUMP JUMPDEST SWAP3 SWAP2 POP POP JUMP JUMPDEST PUSH1 0x0 DUP1 PUSH1 0x0 PUSH1 0x40 DUP5 DUP7 SUB SLT ISZERO PUSH2 0x3C2 JUMPI PUSH2 0x3C1 PUSH2 0x304 JUMP JUMPDEST JUMPDEST PUSH1 0x0 DUP5 ADD CALLDATALOAD PUSH8 0xFFFFFFFFFFFFFFFF DUP2 GT ISZERO PUSH2 0x3E0 JUMPI PUSH2 0x3DF PUSH2 0x309 JUMP JUMPDEST JUMPDEST PUSH2 0x3EC DUP7 DUP3 DUP8 ADD PUSH2 0x31D JUMP JUMPDEST SWAP4 POP SWAP4 POP POP PUSH1 0x20 PUSH2 0x3FF DUP7 DUP3 DUP8 ADD PUSH2 0x394 JUMP JUMPDEST SWAP2 POP POP SWAP3 POP SWAP3 POP SWAP3 JUMP JUMPDEST PUSH1 0x0 DUP2 SWAP1 POP SWAP2 SWAP1 POP JUMP JUMPDEST PUSH2 0x41C DUP2 PUSH2 0x409 JUMP JUMPDEST DUP3 MSTORE POP POP JUMP JUMPDEST PUSH2 0x42B DUP2 PUSH2 0x373 JUMP JUMPDEST DUP3 MSTORE POP POP JUMP JUMPDEST PUSH1 0x0 PUSH1 0x40 DUP3 ADD SWAP1 POP PUSH2 0x446 PUSH1 0x0 DUP4 ADD DUP6 PUSH2 0x413 JUMP JUMPDEST PUSH2 0x453 PUSH1 0x20 DUP4 ADD DUP5 PUSH2 0x422 JUMP JUMPDEST SWAP4 SWAP3 POP POP POP JUMP JUMPDEST PUSH1 0x0 PUSH1 0x20 DUP3 ADD SWAP1 POP PUSH2 0x46F PUSH1 0x0 DUP4 ADD DUP5 PUSH2 0x413 JUMP JUMPDEST SWAP3 SWAP2 POP POP JUMP JUMPDEST PUSH1 0x0 DUP3 DUP3 MSTORE PUSH1 0x20 DUP3 ADD SWAP1 POP SWAP3 SWAP2 POP POP JUMP JUMPDEST PUSH32 0x726561644C6162656C3A20496E646578206F7574206F6620626F756E64730000 PUSH1 0x0 DUP3 ADD MSTORE POP JUMP JUMPDEST PUSH1 0x0 PUSH2 0x4BC PUSH1 0x1E DUP4 PUSH2 0x475 JUMP JUMPDEST SWAP2 POP PUSH2 0x4C7 DUP3 PUSH2 0x486 JUMP JUMPDEST PUSH1 0x20 DUP3 ADD SWAP1 POP SWAP2 SWAP1 POP JUMP JUMPDEST PUSH1 0x0 PUSH1 0x20 DUP3 ADD SWAP1 POP DUP2 DUP2 SUB PUSH1 0x0 DUP4 ADD MSTORE PUSH2 0x4EB DUP2 PUSH2 0x4AF JUMP JUMPDEST SWAP1 POP SWAP2 SWAP1 POP JUMP JUMPDEST PUSH32 0x4E487B7100000000000000000000000000000000000000000000000000000000 PUSH1 0x0 MSTORE PUSH1 0x32 PUSH1 0x4 MSTORE PUSH1 0x24 PUSH1 0x0 REVERT JUMPDEST PUSH32 0x4E487B7100000000000000000000000000000000000000000000000000000000 PUSH1 0x0 MSTORE PUSH1 0x11 PUSH1 0x4 MSTORE PUSH1 0x24 PUSH1 0x0 REVERT JUMPDEST PUSH1 0x0 PUSH2 0x55B DUP3 PUSH2 0x373 JUMP JUMPDEST SWAP2 POP PUSH2 0x566 DUP4 PUSH2 0x373 JUMP JUMPDEST SWAP3 POP DUP3 DUP3 ADD SWAP1 POP DUP1 DUP3 GT ISZERO PUSH2 0x57E JUMPI PUSH2 0x57D PUSH2 0x521 JUMP JUMPDEST JUMPDEST SWAP3 SWAP2 POP POP JUMP JUMPDEST PUSH1 0x0 PUSH2 0x58F DUP3 PUSH2 0x373 JUMP JUMPDEST SWAP2 POP PUSH2 0x59A DUP4 PUSH2 0x373 JUMP JUMPDEST SWAP3 POP DUP3 DUP3 SUB SWAP1 POP DUP2 DUP2 GT ISZERO PUSH2 0x5B2 JUMPI PUSH2 0x5B1 PUSH2 0x521 JUMP JUMPDEST JUMPDEST SWAP3 SWAP2 POP POP JUMP JUMPDEST PUSH32 0x6E616D65686173683A204A756E6B20617420656E64206F66206E616D65000000 PUSH1 0x0 DUP3 ADD MSTORE POP JUMP JUMPDEST PUSH1 0x0 PUSH2 0x5EE PUSH1 0x1D DUP4 PUSH2 0x475 JUMP JUMPDEST SWAP2 POP PUSH2 0x5F9 DUP3 PUSH2 0x5B8 JUMP JUMPDEST PUSH1 0x20 DUP3 ADD SWAP1 POP SWAP2 SWAP1 POP JUMP JUMPDEST PUSH1 0x0 PUSH1 0x20 DUP3 ADD SWAP1 POP DUP2 DUP2 SUB PUSH1 0x0 DUP4 ADD MSTORE PUSH2 0x61D DUP2 PUSH2 0x5E1 JUMP JUMPDEST SWAP1 POP SWAP2 SWAP1 POP JUMP JUMPDEST PUSH1 0x0 DUP2 SWAP1 POP SWAP2 SWAP1 POP JUMP JUMPDEST PUSH2 0x63F PUSH2 0x63A DUP3 PUSH2 0x409 JUMP JUMPDEST PUSH2 0x624 JUMP JUMPDEST DUP3 MSTORE POP POP JUMP JUMPDEST PUSH1 0x0 PUSH2 0x651 DUP3 DUP6 PUSH2 0x62E JUMP JUMPDEST PUSH1 0x20 DUP3 ADD SWAP2 POP PUSH2 0x661 DUP3 DUP5 PUSH2 0x62E JUMP JUMPDEST PUSH1 0x20 DUP3 ADD SWAP2 POP DUP2 SWAP1 POP SWAP4 SWAP3 POP POP POP JUMP INVALID LOG2 PUSH5 0x6970667358 0x22 SLT KECCAK256 CREATE2 0x2F 0xDE 0xDD 0xE6 0xAF CREATE2 0x4F POP MSTORE8 PUSH11 0xE96EEED79621D83DC9D5C7 0xFB SWAP2 MLOAD 0xF9 0xAC PUSH0 DUP2 CALLDATASIZE PUSH28 0xE764736F6C634300081B003300000000000000000000000000000000 "
		},
		"gasEstimates": {
			"creation": {
				"codeDepositCost": "340600",
				"executionCost": "380",
				"totalCost": "340980"
			},
			"external": {
				"namehash(bytes,uint256)": "infinite",
				"readLabel(bytes,uint256)": "infinite"
			}
		},
		"methodIdentifiers": {
			"namehash(bytes,uint256)": "ecc4401d",
			"readLabel(bytes,uint256)": "90497d23"
		}
	},
	"abi": [
		{
			"inputs": [
				{
					"internalType": "bytes",
					"name": "name",
					"type": "bytes"
				},
				{
					"internalType": "uint256",
					"name": "offset",
					"type": "uint256"
				}
			],
			"name": "namehash",
			"outputs": [
				{
					"internalType": "bytes32",
					"name": "",
					"type": "bytes32"
				}
			],
			"stateMutability": "pure",
			"type": "function"
		},
		{
			"inputs": [
				{
					"internalType": "bytes",
					"name": "name",
					"type": "bytes"
				},
				{
					"internalType": "uint256",
					"name": "offset",
					"type": "uint256"
				}
			],
			"name": "readLabel",
			"outputs": [
				{
					"internalType": "bytes32",
					"name": "",
					"type": "bytes32"
				},
				{
					"internalType": "uint256",
					"name": "",
					"type": "uint256"
				}
			],
			"stateMutability": "pure",
			"type": "function"
		}
	]
}