{
	"data": {
		"bytecode": {
			"linkReferences": {},
			"object": "60a060405234801561001057600080fd5b50604051615cde380380615cde833981810160405281019061003291906104cd565b600061004261013260201b60201c565b9050806000806101000a81548173ffffffffffffffffffffffffffffffffffffffff021916908373ffffffffffffffffffffffffffffffffffffffff1602179055508073ffffffffffffffffffffffffffffffffffffffff16600073ffffffffffffffffffffffffffffffffffffffff167f8be0079c531659141344cd1fd0a4f28419497f9722a3daafe3b4186f6b6457e060405160405180910390a3508173ffffffffffffffffffffffffffffffffffffffff1660808173ffffffffffffffffffffffffffffffffffffffff1681525050806001908051906020019061012a92919061013a565b50505061081c565b600033905090565b828054828255906000526020600020908101928215610182579160200282015b82811115610181578251829081610171919061074a565b509160200191906001019061015a565b5b50905061018f9190610193565b5090565b5b808211156101b357600081816101aa91906101b7565b50600101610194565b5090565b5080546101c390610563565b6000825580601f106101d557506101f4565b601f0160209004906000526020600020908101906101f391906101f7565b5b50565b5b808211156102105760008160009055506001016101f8565b5090565b6000604051905090565b600080fd5b600080fd5b600073ffffffffffffffffffffffffffffffffffffffff82169050919050565b600061025382610228565b9050919050565b61026381610248565b811461026e57600080fd5b50565b6000815190506102808161025a565b92915050565b600080fd5b6000601f19601f8301169050919050565b7f4e487b7100000000000000000000000000000000000000000000000000000000600052604160045260246000fd5b6102d48261028b565b810181811067ffffffffffffffff821117156102f3576102f261029c565b5b80604052505050565b6000610306610214565b905061031282826102cb565b919050565b600067ffffffffffffffff8211156103325761033161029c565b5b602082029050602081019050919050565b600080fd5b600080fd5b600067ffffffffffffffff8211156103685761036761029c565b5b6103718261028b565b9050602081019050919050565b60005b8381101561039c578082015181840152602081019050610381565b60008484015250505050565b60006103bb6103b68461034d565b6102fc565b9050828152602081018484840111156103d7576103d6610348565b5b6103e284828561037e565b509392505050565b600082601f8301126103ff576103fe610286565b5b815161040f8482602086016103a8565b91505092915050565b600061042b61042684610317565b6102fc565b9050808382526020820190506020840283018581111561044e5761044d610343565b5b835b8181101561049557805167ffffffffffffffff81111561047357610472610286565b5b80860161048089826103ea565b85526020850194505050602081019050610450565b5050509392505050565b600082601f8301126104b4576104b3610286565b5b81516104c4848260208601610418565b91505092915050565b600080604083850312156104e4576104e361021e565b5b60006104f285828601610271565b925050602083015167ffffffffffffffff81111561051357610512610223565b5b61051f8582860161049f565b9150509250929050565b600081519050919050565b7f4e487b7100000000000000000000000000000000000000000000000000000000600052602260045260246000fd5b6000600282049050600182168061057b57607f821691505b60208210810361058e5761058d610534565b5b50919050565b60008190508160005260206000209050919050565b60006020601f8301049050919050565b600082821b905092915050565b6000600883026105f67fffffffffffffffffffffffffffffffffffffffffffffffffffffffffffffffff826105b9565b61060086836105b9565b95508019841693508086168417925050509392505050565b6000819050919050565b6000819050919050565b600061064761064261063d84610618565b610622565b610618565b9050919050565b6000819050919050565b6106618361062c565b61067561066d8261064e565b8484546105c6565b825550505050565b600090565b61068a61067d565b610695818484610658565b505050565b5b818110156106b9576106ae600082610682565b60018101905061069b565b5050565b601f8211156106fe576106cf81610594565b6106d8846105a9565b810160208510156106e7578190505b6106fb6106f3856105a9565b83018261069a565b50505b505050565b600082821c905092915050565b600061072160001984600802610703565b1980831691505092915050565b600061073a8383610710565b9150826002028217905092915050565b61075382610529565b67ffffffffffffffff81111561076c5761076b61029c565b5b6107768254610563565b6107818282856106bd565b600060209050601f8311600181146107b457600084156107a2578287015190505b6107ac858261072e565b865550610814565b601f1984166107c286610594565b60005b828110156107ea578489015182556001820191506020850194506020810190506107c5565b868310156108075784890151610803601f891682610710565b8355505b6001600288020188555050505b505050505050565b6080516154a061083e600039600081816107fc0152611a8301526154a06000f3fe608060405234801561001057600080fd5b50600436106101165760003560e01c80638e5ea8df116100a2578063b241d0d311610071578063b241d0d314610337578063b4a858011461036a578063e0a854121461039b578063ec11c823146103cc578063f2fde38b146103ff57610116565b80638e5ea8df146102885780639061b923146102a4578063a1cbcbaf146102d5578063a6b164191461030757610116565b8063715018a6116100e9578063715018a6146101e057806376286c00146101ea5780637b1039991461021b5780638da5cb5b146102395780638e25a0f31461025757610116565b806301ffc9a71461011b5780630667cfea1461014b578063206c74c91461017c5780636dc4fb73146101ad575b600080fd5b61013560048036038101906101309190612dbd565b61041b565b6040516101429190612e05565b60405180910390f35b61016560048036038101906101609190613148565b610495565b6040516101739291906132b4565b60405180910390f35b610196600480360381019061019191906133c5565b6104ca565b6040516101a4929190613599565b60405180910390f35b6101c760048036038101906101c291906135c9565b6105b7565b6040516101d7949392919061369f565b60405180910390f35b6101e861068b565b005b61020460048036038101906101ff91906136eb565b6107c5565b604051610212929190613599565b60405180910390f35b6102236107fa565b60405161023091906137f6565b60405180910390f35b61024161081e565b60405161024e9190613811565b60405180910390f35b610271600480360381019061026c919061382c565b610847565b60405161027f9291906132b4565b60405180910390f35b6102a2600480360381019061029d919061391a565b610914565b005b6102be60048036038101906102b99190613963565b6109aa565b6040516102cc9291906132b4565b60405180910390f35b6102ef60048036038101906102ea91906139df565b610aaf565b6040516102fe93929190613a7f565b60405180910390f35b610321600480360381019061031c9190613ae2565b610add565b60405161032e9190613b0f565b60405180910390f35b610351600480360381019061034c9190613b31565b610b89565b604051610361949392919061369f565b60405180910390f35b610384600480360381019061037f91906135c9565b610c8a565b604051610392929190613599565b60405180910390f35b6103b560048036038101906103b091906135c9565b610cbc565b6040516103c39291906132b4565b60405180910390f35b6103e660048036038101906103e191906139df565b610d1c565b6040516103f6949392919061369f565b60405180910390f35b61041960048036038101906104149190613bd9565b610e10565b005b60007f9061b923000000000000000000000000000000000000000000000000000000007bffffffffffffffffffffffffffffffffffffffffffffffffffffffff1916827bffffffffffffffffffffffffffffffffffffffffffffffffffffffff1916148061048e575061048d82610fb8565b5b9050919050565b606060006104bd8686868663e0a8541260e01b60405180602001604052806000815250610847565b9150915094509492505050565b606060006105ab8585856001805480602002602001604051908101604052809291908181526020016000905b828210156105a257838290600052602060002001805461051590613c35565b80601f016020809104026020016040519081016040528092919081815260200182805461054190613c35565b801561058e5780601f106105635761010080835404028352916020019161058e565b820191906000526020600020905b81548152906001019060200180831161057157829003601f168201915b5050505050815260200190600101906104f6565b505050506107c5565b91509150935093915050565b606060008060008060008060006105d88c8c8c8c636dc4fb7360e01b611022565b93509350935093506000846000815181106105f6576105f5613c66565b5b6020026020010151905061060981611430565b600082511115610663576000808380602001905181019061062a9190613d43565b91509150600083602001518060200190518101906106489190613d9f565b9050828183899b509b509b509b505050505050505050610680565b610672816020015185856114e7565b985098509850985050505050505b945094509450949050565b61069361165f565b73ffffffffffffffffffffffffffffffffffffffff166106b161081e565b73ffffffffffffffffffffffffffffffffffffffff1614610707576040517f08c379a00000000000000000000000000000000000000000000000000000000081526004016106fe90613e18565b60405180910390fd5b600073ffffffffffffffffffffffffffffffffffffffff1660008054906101000a900473ffffffffffffffffffffffffffffffffffffffff1673ffffffffffffffffffffffffffffffffffffffff167f8be0079c531659141344cd1fd0a4f28419497f9722a3daafe3b4186f6b6457e060405160405180910390a360008060006101000a81548173ffffffffffffffffffffffffffffffffffffffff021916908373ffffffffffffffffffffffffffffffffffffffff160217905550565b606060006107ed8686868663b4a8580160e01b60405180602001604052806000815250611667565b9150915094509492505050565b7f000000000000000000000000000000000000000000000000000000000000000081565b60008060009054906101000a900473ffffffffffffffffffffffffffffffffffffffff16905090565b6060600080600167ffffffffffffffff81111561086757610866612e9b565b5b60405190808252806020026020018201604052801561089a57816020015b60608152602001906001900390816108855790505b50905086816000815181106108b2576108b1613c66565b5b60200260200101819052506000806108ce8b8b858b8b8b611667565b915091506000826000815181106108e8576108e7613c66565b5b602002602001015190506108fb81611430565b8060200151829550955050505050965096945050505050565b61091c61165f565b73ffffffffffffffffffffffffffffffffffffffff1661093a61081e565b73ffffffffffffffffffffffffffffffffffffffff1614610990576040517f08c379a000000000000000000000000000000000000000000000000000000000815260040161098790613e18565b60405180910390fd5b80600190805190602001906109a6929190612b51565b5050565b60606000610aa38585856001805480602002602001604051908101604052809291908181526020016000905b82821015610a825783829060005260206000200180546109f590613c35565b80601f0160208091040260200160405190810160405280929190818152602001828054610a2190613c35565b8015610a6e5780601f10610a4357610100808354040283529160200191610a6e565b820191906000526020600020905b815481529060010190602001808311610a5157829003601f168201915b5050505050815260200190600101906109d6565b5050505063e0a8541260e01b60405180602001604052806000815250610847565b91509150935093915050565b600080600080600080610ac488886000611859565b9250925092508282829550955095505050509250925092565b60018181548110610aed57600080fd5b906000526020600020016000915090508054610b0890613c35565b80601f0160208091040260200160405190810160405280929190818152602001828054610b3490613c35565b8015610b815780601f10610b5657610100808354040283529160200191610b81565b820191906000526020600020905b815481529060010190602001808311610b6457829003601f168201915b505050505081565b6060600080600080610be9600089898080601f016020809104026020016040519081016040528093929190818152602001838380828437600081840152601f19601f82011690508083019250505050505050611b8290919063ffffffff16565b604051602401610bf99190613e38565b60405160208183030381529060405263691f343160e01b6020820180517bffffffffffffffffffffffffffffffffffffffffffffffffffffffff83818316178352505050509050600080610c678a8a858b636dc4fb7360e01b60405180602001604052806000815250610847565b91509150610c7682828a6114e7565b965096509650965050505093509350935093565b60606000806000610ca58888888863b4a8580160e01b611022565b505091509150818193509350505094509492505050565b60606000806000610cd78888888863e0a8541260e01b611022565b505091509150600082600081518110610cf357610cf2613c66565b5b60200260200101519050610d0681611430565b8060200151829450945050505094509492505050565b60606000806000610dff86866001805480602002602001604051908101604052809291908181526020016000905b82821015610df6578382906000526020600020018054610d6990613c35565b80601f0160208091040260200160405190810160405280929190818152602001828054610d9590613c35565b8015610de25780601f10610db757610100808354040283529160200191610de2565b820191906000526020600020905b815481529060010190602001808311610dc557829003601f168201915b505050505081526020019060010190610d4a565b50505050610b89565b935093509350935092959194509250565b610e1861165f565b73ffffffffffffffffffffffffffffffffffffffff16610e3661081e565b73ffffffffffffffffffffffffffffffffffffffff1614610e8c576040517f08c379a0000000000000000000000000000000000000000000000000000000008152600401610e8390613e18565b60405180910390fd5b600073ffffffffffffffffffffffffffffffffffffffff168173ffffffffffffffffffffffffffffffffffffffff1603610efb576040517f08c379a0000000000000000000000000000000000000000000000000000000008152600401610ef290613ec5565b60405180910390fd5b8073ffffffffffffffffffffffffffffffffffffffff1660008054906101000a900473ffffffffffffffffffffffffffffffffffffffff1673ffffffffffffffffffffffffffffffffffffffff167f8be0079c531659141344cd1fd0a4f28419497f9722a3daafe3b4186f6b6457e060405160405180910390a3806000806101000a81548173ffffffffffffffffffffffffffffffffffffffff021916908373ffffffffffffffffffffffffffffffffffffffff16021790555050565b60007f01ffc9a7000000000000000000000000000000000000000000000000000000007bffffffffffffffffffffffffffffffffffffffffffffffffffffffff1916827bffffffffffffffffffffffffffffffffffffffffffffffffffffffff1916149050919050565b60606000606080611031612baa565b8581606001907bffffffffffffffffffffffffffffffffffffffffffffffffffffffff191690817bffffffffffffffffffffffffffffffffffffffffffffffffffffffff1916815250506000808b8b81019061108d9190613fd4565b9150915060608a8a8101906110a291906141b8565b886080018960a0018a6040018b60c0018499508590528590528573ffffffffffffffffffffffffffffffffffffffff1673ffffffffffffffffffffffffffffffffffffffff168152508515151515815250505050505080518251111561110757600080fd5b805167ffffffffffffffff81111561112257611121612e9b565b5b60405190808252806020026020018201604052801561115557816020015b60608152602001906001900390816111405790505b508460200181905250805167ffffffffffffffff81111561117957611178612e9b565b5b6040519080825280602002602001820160405280156111a75781602001602082028036833780820191505090505b508460e001819052506000805b82518110156113fe57600060e01b7bffffffffffffffffffffffffffffffffffffffffffffffffffffffff19168382815181106111f4576111f3613c66565b5b6020026020010151600001517bffffffffffffffffffffffffffffffffffffffffffffffffffffffff19160361126a5782818151811061123757611236613c66565b5b6020026020010151602001518660200151828151811061125a57611259613c66565b5b60200260200101819052506113f1565b84828151811061127d5761127c613c66565b5b6020026020010151156112f75760018660e0015182815181106112a3576112a2613c66565b5b6020026020010190151590811515815250508382815181106112c8576112c7613c66565b5b6020026020010151866020015182815181106112e7576112e6613c66565b5b60200260200101819052506113e1565b82818151811061130a57611309613c66565b5b60200260200101516000015184838151811061132957611328613c66565b5b602002602001015184838151811061134457611343613c66565b5b602002602001015160200151604051602401611361929190614287565b604051602081830303815290604052907bffffffffffffffffffffffffffffffffffffffffffffffffffffffff19166020820180517bffffffffffffffffffffffffffffffffffffffffffffffffffffffff8381831617835250505050866020015182815181106113d5576113d4613c66565b5b60200260200101819052505b6001826113ee91906142ed565b91505b80806001019150506111b4565b5061140885611c38565b8560a0015186604001518760c001519850985098509850505050505095509550955095915050565b80600001516114e45763ca7a4e7560e01b7bffffffffffffffffffffffffffffffffffffffffffffffffffffffff1916816020015161146e90614353565b7bffffffffffffffffffffffffffffffffffffffffffffffffffffffff1916036114a357600081602001519050805160208201fd5b80602001516040517f95c0c7520000000000000000000000000000000000000000000000000000000081526004016114db91906143ba565b60405180910390fd5b50565b60606000806000808780602001905181019061150391906143dc565b905060008061151183612044565b915091506000816040516024016115289190613e38565b604051602081830303815290604052633b3b57de60e01b6020820180517bffffffffffffffffffffffffffffffffffffffffffffffffffffffff838183161783525050505090506000848b604051602001611584929190614425565b60405160208183030381529060405290506000803073ffffffffffffffffffffffffffffffffffffffff16638e25a0f387868f636dc4fb7360e01b886040518663ffffffff1660e01b81526004016115e0959493929190614570565b600060405180830381865afa1580156115fd573d6000803e3d6000fd5b505050506040513d6000823e3d601f19601f820116820180604052508101906116269190614664565b915091506000828060200190518101906116409190613d9f565b905087818f849b509b509b509b50505050505050505093509350935093565b600033905090565b606060008060006116788a8a610aaf565b9250509150819250600073ffffffffffffffffffffffffffffffffffffffff168373ffffffffffffffffffffffffffffffffffffffff16036116e6576040517f7199966d00000000000000000000000000000000000000000000000000000000815260040160405180910390fd5b6117058373ffffffffffffffffffffffffffffffffffffffff16612334565b61173b576040517f4981ac0500000000000000000000000000000000000000000000000000000000815260040160405180910390fd5b60008082141590506118496040518061010001604052808d8d8080601f016020809104026020016040519081016040528093929190818152602001838380828437600081840152601f19601f8201169050808301925050505050505081526020018b81526020018a8152602001897bffffffffffffffffffffffffffffffffffffffffffffffffffffffff1916815260200183151581526020018673ffffffffffffffffffffffffffffffffffffffff1681526020018881526020018b5167ffffffffffffffff81111561181257611811612e9b565b5b6040519080825280602002602001820160405280156118405781602001602082028036833780820191505090505b50815250611c38565b9450505050965096945050505050565b60008060008086868681811061187257611871613c66565b5b9050013560f81c60f81b60f81c60ff1690506000810361189f5760008060001b8693509350935050611b79565b6000600182876118af91906142ed565b6118b991906142ed565b9050600060428314801561191a5750605b60f81b898960018a6118dc91906142ed565b8181106118ec576118eb613c66565b5b9050013560f81c60f81b7effffffffffffffffffffffffffffffffffffffffffffffffffffffffffffff1916145b80156119735750605d60f81b898960018561193591906146c0565b81811061194557611944613c66565b5b9050013560f81c60f81b7effffffffffffffffffffffffffffffffffffffffffffffffffffffffffffff1916145b15611a05576119fb600060408b8b60028c61198e91906142ed565b9060018861199c91906146c0565b926119a9939291906146fe565b8080601f016020809104026020016040519081016040528093929190818152602001838380828437600081840152601f19601f820116905080830192505050505050506123479092919063ffffffff16565b5080915050611a3c565b8888600189611a1491906142ed565b908492611a23939291906146fe565b604051611a31929190614769565b604051809103902090505b6000806000611a4c8c8c87611859565b92509250925060008285604051602001611a679291906147a3565b60405160208183030381529060405280519060200120905060007f000000000000000000000000000000000000000000000000000000000000000073ffffffffffffffffffffffffffffffffffffffff16630178b8bf836040518263ffffffff1660e01b8152600401611ada9190613e38565b602060405180830381865afa158015611af7573d6000803e3d6000fd5b505050506040513d601f19601f82011682018060405250810190611b1b91906147cf565b9050600073ffffffffffffffffffffffffffffffffffffffff168173ffffffffffffffffffffffffffffffffffffffff1614611b675780828d9a509a509a505050505050505050611b79565b8482849a509a509a5050505050505050505b93509350939050565b6000806000611b9185856123b1565b915091506000801b8203611bfb5760018551611bad91906146c0565b8414611bee576040517f08c379a0000000000000000000000000000000000000000000000000000000008152600401611be590614848565b60405180910390fd5b6000801b92505050611c32565b611c058582611b82565b82604051602001611c179291906147a3565b60405160208183030381529060405280519060200120925050505b92915050565b6060600082602001515190506000808267ffffffffffffffff811115611c6157611c60612e9b565b5b604051908082528060200260200182016040528015611c9a57816020015b611c87612c26565b815260200190600190039081611c7f5790505b50905060008367ffffffffffffffff811115611cb957611cb8612e9b565b5b604051908082528060200260200182016040528015611cf257816020015b611cdf612c5d565b815260200190600190039081611cd75790505b5090508367ffffffffffffffff811115611d0f57611d0e612e9b565b5b604051908082528060200260200182016040528015611d4857816020015b611d35612c96565b815260200190600190039081611d2d5790505b5094506000611d568761246f565b905060005b85811015611f3057600088602001518281518110611d7c57611d7b613c66565b5b6020026020010151905060008960e001518381518110611d9f57611d9e613c66565b5b602002602001015190508015611dec57604051806040016040528060001515815260200183815250898481518110611dda57611dd9613c66565b5b60200260200101819052505050611f23565b6000611e028b60000151848d60a001518861251d565b8094508192505050600080600080611e1f8f60a0015188876125c5565b93509350935093508315611e995782806020019051810190611e4191906149b9565b8b8d81518110611e5457611e53613c66565b5b6020026020010181905250818a8981518110611e7357611e72613c66565b5b602002602001018190525060018c611e8b91906142ed565b9b5050505050505050611f23565b808015611ea7575088602001515b15611ec35782806020019051810190611ec09190614a02565b92505b60405180604001604052808215158152602001848152508e8981518110611eed57611eec613c66565b5b6020026020010181905250868a8981518110611f0c57611f0b613c66565b5b602002602001015160200181905250505050505050505b8080600101915050611d5b565b5060008403611f4357505050505061203f565b83835230876040015163a780bab660e01b85604051602401611f659190614bf9565b604051602081830303815290604052907bffffffffffffffffffffffffffffffffffffffffffffffffffffffff19166020820180517bffffffffffffffffffffffffffffffffffffffffffffffffffffffff838183161783525050505089606001518a608001518b60a001518c604001518d60c0015189604051602001611ff0959493929190614d29565b6040516020818303038152906040526040517f556f1830000000000000000000000000000000000000000000000000000000008152600401612036959493929190614d91565b60405180910390fd5b919050565b606060008060009050600084905060008151905060028161206591906142ed565b67ffffffffffffffff81111561207e5761207d612e9b565b5b6040519080825280601f01601f1916602001820160405280156120b05781602001600182028036833780820191505090505b5094506000801b93506000810361211157600060f81b856000815181106120da576120d9613c66565b5b60200101907effffffffffffffffffffffffffffffffffffffffffffffffffffffffffffff1916908160001a90535050505061232f565b60006001820390505b600081106122a0577f2e0000000000000000000000000000000000000000000000000000000000000083828151811061215657612155613c66565b5b602001015160f81c60f81b7effffffffffffffffffffffffffffffffffffffffffffffffffffffffffffff19160361221f578360f81b8660018301815181106121a2576121a1613c66565b5b60200101907effffffffffffffffffffffffffffffffffffffffffffffffffffffffffffff1916908160001a905350846121ed600183018660ff16866127ff9092919063ffffffff16565b6040516020016121fe9291906147a3565b60405160208183030381529060405280519060200120945060009350612289565b60018401935082818151811061223857612237613c66565b5b602001015160f81c60f81b86600183018151811061225957612258613c66565b5b60200101907effffffffffffffffffffffffffffffffffffffffffffffffffffffffffffff1916908160001a9053505b60008103156122a05780806001900391505061211a565b50836122bb60008560ff16856127ff9092919063ffffffff16565b6040516020016122cc9291906147a3565b6040516020818303038152906040528051906020012093508260f81b856000815181106122fc576122fb613c66565b5b60200101907effffffffffffffffffffffffffffffffffffffffffffffffffffffffffffff1916908160001a9053505050505b915091565b600080823b905060008111915050919050565b6000806040848461235891906146c0565b111561236357600080fd5b60008061237187878761282b565b915091508061238b576000801b60009350935050506123a9565b600060208301518787036040036004021c9050806001945094505050505b935093915050565b600080835183106123f7576040517f08c379a00000000000000000000000000000000000000000000000000000000081526004016123ee90614e45565b60405180910390fd5b600084848151811061240c5761240b613c66565b5b602001015160f81c60f81b60f81c60ff16905060008111156124465761243f8560018661243991906142ed565b836127ff565b925061244d565b6000801b92505b6001818561245b91906142ed565b61246591906142ed565b9150509250929050565b612477612cb2565b60008083600001515114905060006124b38460a001517f9061b923000000000000000000000000000000000000000000000000000000006129d0565b9050836080015180156124c4575080155b156124fb576040517f82c2c72800000000000000000000000000000000000000000000000000000000815260040160405180910390fd5b6040518060400160405280831515815260200182151581525092505050919050565b6000606082600001516125b4578260200151156125975760018686604051602401612549929190614287565b604051602081830303815290604052639061b92360e01b6020820180517bffffffffffffffffffffffffffffffffffffffffffffffffffffffff8381831617835250505050915091506125bc565b6125aa84866125a590614353565b6129d0565b85915091506125bc565b600185915091505b94509492505050565b600060606125d1612c5d565b600084156125ea576125e38787612a61565b90506125fa565b6125f7878761c350612a76565b90505b6000612604612aeb565b9050811561262a576000612619600083612af3565b8460019450945094509450506127f6565b600481106127f457600061264060006004612af3565b9050600061265a6004808561265591906146c0565b612af3565b905063556f183060e01b7bffffffffffffffffffffffffffffffffffffffffffffffffffffffff19168261268d90614353565b7bffffffffffffffffffffffffffffffffffffffffffffffffffffffff1916036127b7576000806000806000858060200190518101906126cd9190614e7a565b945094509450945094508e73ffffffffffffffffffffffffffffffffffffffff168573ffffffffffffffffffffffffffffffffffffffff16036127ad5760405180606001604052808673ffffffffffffffffffffffffffffffffffffffff1681526020018581526020018481525060405160200161274b9190614fa0565b6040516020818303038152906040529a506040518060400160405280837bffffffffffffffffffffffffffffffffffffffffffffffffffffffff1916815260200182815250995060018b8b60009b509b509b509b5050505050505050506127f6565b50505050506127f1565b81816040516020016127ca929190614ff3565b604051602081830303815290604052955060008686600096509650965096505050506127f6565b50505b505b93509350935093565b60008351828461280f91906142ed565b111561281a57600080fd5b818360208601012090509392505050565b6060600080848461283c91906146c0565b9050600160028261284d9190615046565b0361288d576040517f08c379a0000000000000000000000000000000000000000000000000000000008152600401612884906150c3565b60405180910390fd5b60028161289a91906150e3565b67ffffffffffffffff8111156128b3576128b2612e9b565b5b6040519080825280601f01601f1916602001820160405280156128e55781602001600182028036833780820191505090505b5092506001915085518411156128fa57600080fd5b61295c565b6000603a8210602f8311161561291a57603082039050612957565b6047821060408311161561293657600a60418303019050612957565b6067821060608311161561295257600a60618303019050612957565b60ff90505b919050565b60208601855b858110156129c5576129798183015160001a6128ff565b61298b6001830184015160001a6128ff565b60ff811460ff831417156129a4576000955050506129c5565b808260041b178060028b86030460208a010153505050600281019050612962565b505050935093915050565b60008273ffffffffffffffffffffffffffffffffffffffff166301ffc9a761c350846040518363ffffffff1660e01b8152600401612a0e9190615114565b6020604051808303818786fa93505050508015612a4957506040513d601f19601f82011682018060405250810190612a469190615144565b60015b612a565760009050612a5b565b809150505b92915050565b6000612a6e83835a612a76565b905092915050565b6000612a978473ffffffffffffffffffffffffffffffffffffffff16612334565b612ad6576040517f08c379a0000000000000000000000000000000000000000000000000000000008152600401612acd906151e3565b60405180910390fd5b6000808451602086018786fa90509392505050565b60003d905090565b60608167ffffffffffffffff811115612b0f57612b0e612e9b565b5b6040519080825280601f01601f191660200182016040528015612b415781602001600182028036833780820191505090505b5090508183602083013e92915050565b828054828255906000526020600020908101928215612b99579160200282015b82811115612b98578251829081612b889190615398565b5091602001919060010190612b71565b5b509050612ba69190612cd0565b5090565b60405180610100016040528060608152602001606081526020016060815260200160007bffffffffffffffffffffffffffffffffffffffffffffffffffffffff19168152602001600015158152602001600073ffffffffffffffffffffffffffffffffffffffff16815260200160608152602001606081525090565b6040518060600160405280600073ffffffffffffffffffffffffffffffffffffffff16815260200160608152602001606081525090565b604051806040016040528060007bffffffffffffffffffffffffffffffffffffffffffffffffffffffff19168152602001606081525090565b6040518060400160405280600015158152602001606081525090565b60405180604001604052806000151581526020016000151581525090565b5b80821115612cf05760008181612ce79190612cf4565b50600101612cd1565b5090565b508054612d0090613c35565b6000825580601f10612d125750612d31565b601f016020900490600052602060002090810190612d309190612d34565b5b50565b5b80821115612d4d576000816000905550600101612d35565b5090565b6000604051905090565b600080fd5b600080fd5b60007fffffffff0000000000000000000000000000000000000000000000000000000082169050919050565b612d9a81612d65565b8114612da557600080fd5b50565b600081359050612db781612d91565b92915050565b600060208284031215612dd357612dd2612d5b565b5b6000612de184828501612da8565b91505092915050565b60008115159050919050565b612dff81612dea565b82525050565b6000602082019050612e1a6000830184612df6565b92915050565b600080fd5b600080fd5b600080fd5b60008083601f840112612e4557612e44612e20565b5b8235905067ffffffffffffffff811115612e6257612e61612e25565b5b602083019150836001820283011115612e7e57612e7d612e2a565b5b9250929050565b600080fd5b6000601f19601f8301169050919050565b7f4e487b7100000000000000000000000000000000000000000000000000000000600052604160045260246000fd5b612ed382612e8a565b810181811067ffffffffffffffff82111715612ef257612ef1612e9b565b5b80604052505050565b6000612f05612d51565b9050612f118282612eca565b919050565b600067ffffffffffffffff821115612f3157612f30612e9b565b5b612f3a82612e8a565b9050602081019050919050565b82818337600083830152505050565b6000612f69612f6484612f16565b612efb565b905082815260208101848484011115612f8557612f84612e85565b5b612f90848285612f47565b509392505050565b600082601f830112612fad57612fac612e20565b5b8135612fbd848260208601612f56565b91505092915050565b600067ffffffffffffffff821115612fe157612fe0612e9b565b5b602082029050602081019050919050565b600067ffffffffffffffff82111561300d5761300c612e9b565b5b61301682612e8a565b9050602081019050919050565b600061303661303184612ff2565b612efb565b90508281526020810184848401111561305257613051612e85565b5b61305d848285612f47565b509392505050565b600082601f83011261307a57613079612e20565b5b813561308a848260208601613023565b91505092915050565b60006130a66130a184612fc6565b612efb565b905080838252602082019050602084028301858111156130c9576130c8612e2a565b5b835b8181101561311057803567ffffffffffffffff8111156130ee576130ed612e20565b5b8086016130fb8982613065565b855260208501945050506020810190506130cb565b5050509392505050565b600082601f83011261312f5761312e612e20565b5b813561313f848260208601613093565b91505092915050565b6000806000806060858703121561316257613161612d5b565b5b600085013567ffffffffffffffff8111156131805761317f612d60565b5b61318c87828801612e2f565b9450945050602085013567ffffffffffffffff8111156131af576131ae612d60565b5b6131bb87828801612f98565b925050604085013567ffffffffffffffff8111156131dc576131db612d60565b5b6131e88782880161311a565b91505092959194509250565b600081519050919050565b600082825260208201905092915050565b60005b8381101561322e578082015181840152602081019050613213565b60008484015250505050565b6000613245826131f4565b61324f81856131ff565b935061325f818560208601613210565b61326881612e8a565b840191505092915050565b600073ffffffffffffffffffffffffffffffffffffffff82169050919050565b600061329e82613273565b9050919050565b6132ae81613293565b82525050565b600060408201905081810360008301526132ce818561323a565b90506132dd60208301846132a5565b9392505050565b600067ffffffffffffffff8211156132ff576132fe612e9b565b5b602082029050602081019050919050565b600061332361331e846132e4565b612efb565b9050808382526020820190506020840283018581111561334657613345612e2a565b5b835b8181101561338d57803567ffffffffffffffff81111561336b5761336a612e20565b5b8086016133788982612f98565b85526020850194505050602081019050613348565b5050509392505050565b600082601f8301126133ac576133ab612e20565b5b81356133bc848260208601613310565b91505092915050565b6000806000604084860312156133de576133dd612d5b565b5b600084013567ffffffffffffffff8111156133fc576133fb612d60565b5b61340886828701612e2f565b9350935050602084013567ffffffffffffffff81111561342b5761342a612d60565b5b61343786828701613397565b9150509250925092565b600081519050919050565b600082825260208201905092915050565b6000819050602082019050919050565b61347681612dea565b82525050565b600082825260208201905092915050565b6000613498826131f4565b6134a2818561347c565b93506134b2818560208601613210565b6134bb81612e8a565b840191505092915050565b60006040830160008301516134de600086018261346d565b50602083015184820360208601526134f6828261348d565b9150508091505092915050565b600061350f83836134c6565b905092915050565b6000602082019050919050565b600061352f82613441565b613539818561344c565b93508360208202850161354b8561345d565b8060005b8581101561358757848403895281516135688582613503565b945061357383613517565b925060208a0199505060018101905061354f565b50829750879550505050505092915050565b600060408201905081810360008301526135b38185613524565b90506135c260208301846132a5565b9392505050565b600080600080604085870312156135e3576135e2612d5b565b5b600085013567ffffffffffffffff81111561360157613600612d60565b5b61360d87828801612e2f565b9450945050602085013567ffffffffffffffff8111156136305761362f612d60565b5b61363c87828801612e2f565b925092505092959194509250565b600081519050919050565b600082825260208201905092915050565b60006136718261364a565b61367b8185613655565b935061368b818560208601613210565b61369481612e8a565b840191505092915050565b600060808201905081810360008301526136b98187613666565b90506136c860208301866132a5565b6136d560408301856132a5565b6136e260608301846132a5565b95945050505050565b6000806000806060858703121561370557613704612d5b565b5b600085013567ffffffffffffffff81111561372357613722612d60565b5b61372f87828801612e2f565b9450945050602085013567ffffffffffffffff81111561375257613751612d60565b5b61375e87828801613397565b925050604085013567ffffffffffffffff81111561377f5761377e612d60565b5b61378b8782880161311a565b91505092959194509250565b6000819050919050565b60006137bc6137b76137b284613273565b613797565b613273565b9050919050565b60006137ce826137a1565b9050919050565b60006137e0826137c3565b9050919050565b6137f0816137d5565b82525050565b600060208201905061380b60008301846137e7565b92915050565b600060208201905061382660008301846132a5565b92915050565b60008060008060008060a0878903121561384957613848612d5b565b5b600087013567ffffffffffffffff81111561386757613866612d60565b5b61387389828a01612e2f565b9650965050602087013567ffffffffffffffff81111561389657613895612d60565b5b6138a289828a01612f98565b945050604087013567ffffffffffffffff8111156138c3576138c2612d60565b5b6138cf89828a0161311a565b93505060606138e089828a01612da8565b925050608087013567ffffffffffffffff81111561390157613900612d60565b5b61390d89828a01612f98565b9150509295509295509295565b6000602082840312156139305761392f612d5b565b5b600082013567ffffffffffffffff81111561394e5761394d612d60565b5b61395a8482850161311a565b91505092915050565b60008060006040848603121561397c5761397b612d5b565b5b600084013567ffffffffffffffff81111561399a57613999612d60565b5b6139a686828701612e2f565b9350935050602084013567ffffffffffffffff8111156139c9576139c8612d60565b5b6139d586828701612f98565b9150509250925092565b600080602083850312156139f6576139f5612d5b565b5b600083013567ffffffffffffffff811115613a1457613a13612d60565b5b613a2085828601612e2f565b92509250509250929050565b6000613a37826137c3565b9050919050565b613a4781613a2c565b82525050565b6000819050919050565b613a6081613a4d565b82525050565b6000819050919050565b613a7981613a66565b82525050565b6000606082019050613a946000830186613a3e565b613aa16020830185613a57565b613aae6040830184613a70565b949350505050565b613abf81613a66565b8114613aca57600080fd5b50565b600081359050613adc81613ab6565b92915050565b600060208284031215613af857613af7612d5b565b5b6000613b0684828501613acd565b91505092915050565b60006020820190508181036000830152613b298184613666565b905092915050565b600080600060408486031215613b4a57613b49612d5b565b5b600084013567ffffffffffffffff811115613b6857613b67612d60565b5b613b7486828701612e2f565b9350935050602084013567ffffffffffffffff811115613b9757613b96612d60565b5b613ba38682870161311a565b9150509250925092565b613bb681613293565b8114613bc157600080fd5b50565b600081359050613bd381613bad565b92915050565b600060208284031215613bef57613bee612d5b565b5b6000613bfd84828501613bc4565b91505092915050565b7f4e487b7100000000000000000000000000000000000000000000000000000000600052602260045260246000fd5b60006002820490506001821680613c4d57607f821691505b602082108103613c6057613c5f613c06565b5b50919050565b7f4e487b7100000000000000000000000000000000000000000000000000000000600052603260045260246000fd5b6000613ca8613ca384612ff2565b612efb565b905082815260208101848484011115613cc457613cc3612e85565b5b613ccf848285613210565b509392505050565b600082601f830112613cec57613ceb612e20565b5b8151613cfc848260208601613c95565b91505092915050565b6000613d1082613273565b9050919050565b613d2081613d05565b8114613d2b57600080fd5b50565b600081519050613d3d81613d17565b92915050565b60008060408385031215613d5a57613d59612d5b565b5b600083015167ffffffffffffffff811115613d7857613d77612d60565b5b613d8485828601613cd7565b9250506020613d9585828601613d2e565b9150509250929050565b600060208284031215613db557613db4612d5b565b5b6000613dc384828501613d2e565b91505092915050565b7f4f776e61626c653a2063616c6c6572206973206e6f7420746865206f776e6572600082015250565b6000613e02602083613655565b9150613e0d82613dcc565b602082019050919050565b60006020820190508181036000830152613e3181613df5565b9050919050565b6000602082019050613e4d6000830184613a57565b92915050565b7f4f776e61626c653a206e6577206f776e657220697320746865207a65726f206160008201527f6464726573730000000000000000000000000000000000000000000000000000602082015250565b6000613eaf602683613655565b9150613eba82613e53565b604082019050919050565b60006020820190508181036000830152613ede81613ea2565b9050919050565b600067ffffffffffffffff821115613f0057613eff612e9b565b5b602082029050602081019050919050565b613f1a81612dea565b8114613f2557600080fd5b50565b600081359050613f3781613f11565b92915050565b6000613f50613f4b84613ee5565b612efb565b90508083825260208201905060208402830185811115613f7357613f72612e2a565b5b835b81811015613f9c5780613f888882613f28565b845260208401935050602081019050613f75565b5050509392505050565b600082601f830112613fbb57613fba612e20565b5b8135613fcb848260208601613f3d565b91505092915050565b60008060408385031215613feb57613fea612d5b565b5b600083013567ffffffffffffffff81111561400957614008612d60565b5b61401585828601613fa6565b925050602083013567ffffffffffffffff81111561403657614035612d60565b5b61404285828601613397565b9150509250929050565b60008135905061405b81613d17565b92915050565b600067ffffffffffffffff82111561407c5761407b612e9b565b5b602082029050602081019050919050565b600080fd5b600080fd5b6000604082840312156140ad576140ac61408d565b5b6140b76040612efb565b905060006140c784828501612da8565b600083015250602082013567ffffffffffffffff8111156140eb576140ea614092565b5b6140f784828501612f98565b60208301525092915050565b600061411661411184614061565b612efb565b9050808382526020820190506020840283018581111561413957614138612e2a565b5b835b8181101561418057803567ffffffffffffffff81111561415e5761415d612e20565b5b80860161416b8982614097565b8552602085019450505060208101905061413b565b5050509392505050565b600082601f83011261419f5761419e612e20565b5b81356141af848260208601614103565b91505092915050565b600080600080600060a086880312156141d4576141d3612d5b565b5b60006141e288828901613f28565b95505060206141f38882890161404c565b945050604086013567ffffffffffffffff81111561421457614213612d60565b5b6142208882890161311a565b935050606086013567ffffffffffffffff81111561424157614240612d60565b5b61424d88828901612f98565b925050608086013567ffffffffffffffff81111561426e5761426d612d60565b5b61427a8882890161418a565b9150509295509295909350565b600060408201905081810360008301526142a1818561323a565b905081810360208301526142b5818461323a565b90509392505050565b7f4e487b7100000000000000000000000000000000000000000000000000000000600052601160045260246000fd5b60006142f882613a66565b915061430383613a66565b925082820190508082111561431b5761431a6142be565b5b92915050565b6000819050602082019050919050565b600061433d8251612d65565b80915050919050565b600082821b905092915050565b600061435e826131f4565b8261436884614321565b905061437381614331565b925060048210156143b3576143ae7fffffffff0000000000000000000000000000000000000000000000000000000083600403600802614346565b831692505b5050919050565b600060208201905081810360008301526143d4818461323a565b905092915050565b6000602082840312156143f2576143f1612d5b565b5b600082015167ffffffffffffffff8111156144105761440f612d60565b5b61441c84828501613cd7565b91505092915050565b6000604082019050818103600083015261443f8185613666565b905061444e60208301846132a5565b9392505050565b600081519050919050565b600082825260208201905092915050565b6000819050602082019050919050565b600082825260208201905092915050565b600061449d8261364a565b6144a78185614481565b93506144b7818560208601613210565b6144c081612e8a565b840191505092915050565b60006144d78383614492565b905092915050565b6000602082019050919050565b60006144f782614455565b6145018185614460565b93508360208202850161451385614471565b8060005b8581101561454f578484038952815161453085826144cb565b945061453b836144df565b925060208a01995050600181019050614517565b50829750879550505050505092915050565b61456a81612d65565b82525050565b600060a082019050818103600083015261458a818861323a565b9050818103602083015261459e818761323a565b905081810360408301526145b281866144ec565b90506145c16060830185614561565b81810360808301526145d3818461323a565b90509695505050505050565b60006145f26145ed84612f16565b612efb565b90508281526020810184848401111561460e5761460d612e85565b5b614619848285613210565b509392505050565b600082601f83011261463657614635612e20565b5b81516146468482602086016145df565b91505092915050565b60008151905061465e81613bad565b92915050565b6000806040838503121561467b5761467a612d5b565b5b600083015167ffffffffffffffff81111561469957614698612d60565b5b6146a585828601614621565b92505060206146b68582860161464f565b9150509250929050565b60006146cb82613a66565b91506146d683613a66565b92508282039050818111156146ee576146ed6142be565b5b92915050565b600080fd5b600080fd5b60008085851115614712576147116146f4565b5b83861115614723576147226146f9565b5b6001850283019150848603905094509492505050565b600081905092915050565b60006147508385614739565b935061475d838584612f47565b82840190509392505050565b6000614776828486614744565b91508190509392505050565b6000819050919050565b61479d61479882613a4d565b614782565b82525050565b60006147af828561478c565b6020820191506147bf828461478c565b6020820191508190509392505050565b6000602082840312156147e5576147e4612d5b565b5b60006147f38482850161464f565b91505092915050565b7f6e616d65686173683a204a756e6b20617420656e64206f66206e616d65000000600082015250565b6000614832601d83613655565b915061483d826147fc565b602082019050919050565b6000602082019050818103600083015261486181614825565b9050919050565b600061487b61487684612fc6565b612efb565b9050808382526020820190506020840283018581111561489e5761489d612e2a565b5b835b818110156148e557805167ffffffffffffffff8111156148c3576148c2612e20565b5b8086016148d08982613cd7565b855260208501945050506020810190506148a0565b5050509392505050565b600082601f83011261490457614903612e20565b5b8151614914848260208601614868565b91505092915050565b6000606082840312156149335761493261408d565b5b61493d6060612efb565b9050600061494d8482850161464f565b600083015250602082015167ffffffffffffffff81111561497157614970614092565b5b61497d848285016148ef565b602083015250604082015167ffffffffffffffff8111156149a1576149a0614092565b5b6149ad84828501614621565b60408301525092915050565b6000602082840312156149cf576149ce612d5b565b5b600082015167ffffffffffffffff8111156149ed576149ec612d60565b5b6149f98482850161491d565b91505092915050565b600060208284031215614a1857614a17612d5b565b5b600082015167ffffffffffffffff811115614a3657614a35612d60565b5b614a4284828501614621565b91505092915050565b600081519050919050565b600082825260208201905092915050565b6000819050602082019050919050565b614a8081613293565b82525050565b600082825260208201905092915050565b6000614aa282614455565b614aac8185614a86565b935083602082028501614abe85614471565b8060005b85811015614afa5784840389528151614adb85826144cb565b9450614ae6836144df565b925060208a01995050600181019050614ac2565b50829750879550505050505092915050565b6000606083016000830151614b246000860182614a77565b5060208301518482036020860152614b3c8282614a97565b91505060408301518482036040860152614b56828261348d565b9150508091505092915050565b6000614b6f8383614b0c565b905092915050565b6000602082019050919050565b6000614b8f82614a4b565b614b998185614a56565b935083602082028501614bab85614a67565b8060005b85811015614be75784840389528151614bc88582614b63565b9450614bd383614b77565b925060208a01995050600181019050614baf565b50829750879550505050505092915050565b60006020820190508181036000830152614c138184614b84565b905092915050565b600081519050919050565b600082825260208201905092915050565b6000819050602082019050919050565b614c5081612d65565b82525050565b6000604083016000830151614c6e6000860182614c47565b5060208301518482036020860152614c86828261348d565b9150508091505092915050565b6000614c9f8383614c56565b905092915050565b6000602082019050919050565b6000614cbf82614c1b565b614cc98185614c26565b935083602082028501614cdb85614c37565b8060005b85811015614d175784840389528151614cf88582614c93565b9450614d0383614ca7565b925060208a01995050600181019050614cdf565b50829750879550505050505092915050565b600060a082019050614d3e6000830188612df6565b614d4b60208301876132a5565b8181036040830152614d5d81866144ec565b90508181036060830152614d71818561323a565b90508181036080830152614d858184614cb4565b90509695505050505050565b600060a082019050614da660008301886132a5565b8181036020830152614db881876144ec565b90508181036040830152614dcc818661323a565b9050614ddb6060830185614561565b8181036080830152614ded818461323a565b90509695505050505050565b7f726561644c6162656c3a20496e646578206f7574206f6620626f756e64730000600082015250565b6000614e2f601e83613655565b9150614e3a82614df9565b602082019050919050565b60006020820190508181036000830152614e5e81614e22565b9050919050565b600081519050614e7481612d91565b92915050565b600080600080600060a08688031215614e9657614e95612d5b565b5b6000614ea488828901613d2e565b955050602086015167ffffffffffffffff811115614ec557614ec4612d60565b5b614ed1888289016148ef565b945050604086015167ffffffffffffffff811115614ef257614ef1612d60565b5b614efe88828901614621565b9350506060614f0f88828901614e65565b925050608086015167ffffffffffffffff811115614f3057614f2f612d60565b5b614f3c88828901614621565b9150509295509295909350565b6000606083016000830151614f616000860182614a77565b5060208301518482036020860152614f798282614a97565b91505060408301518482036040860152614f93828261348d565b9150508091505092915050565b60006020820190508181036000830152614fba8184614f49565b905092915050565b6000614fcd826131f4565b614fd78185614739565b9350614fe7818560208601613210565b80840191505092915050565b6000614fff8285614fc2565b915061500b8284614fc2565b91508190509392505050565b7f4e487b7100000000000000000000000000000000000000000000000000000000600052601260045260246000fd5b600061505182613a66565b915061505c83613a66565b92508261506c5761506b615017565b5b828206905092915050565b7f496e76616c696420737472696e67206c656e6774680000000000000000000000600082015250565b60006150ad601583613655565b91506150b882615077565b602082019050919050565b600060208201905081810360008301526150dc816150a0565b9050919050565b60006150ee82613a66565b91506150f983613a66565b92508261510957615108615017565b5b828204905092915050565b60006020820190506151296000830184614561565b92915050565b60008151905061513e81613f11565b92915050565b60006020828403121561515a57615159612d5b565b5b60006151688482850161512f565b91505092915050565b7f4c6f774c6576656c43616c6c5574696c733a207374617469632063616c6c207460008201527f6f206e6f6e2d636f6e7472616374000000000000000000000000000000000000602082015250565b60006151cd602e83613655565b91506151d882615171565b604082019050919050565b600060208201905081810360008301526151fc816151c0565b9050919050565b60008190508160005260206000209050919050565b60006020601f8301049050919050565b6000600883026152587fffffffffffffffffffffffffffffffffffffffffffffffffffffffffffffffff82614346565b6152628683614346565b95508019841693508086168417925050509392505050565b600061529561529061528b84613a66565b613797565b613a66565b9050919050565b6000819050919050565b6152af8361527a565b6152c36152bb8261529c565b848454615228565b825550505050565b600090565b6152d86152cb565b6152e38184846152a6565b505050565b5b81811015615307576152fc6000826152d0565b6001810190506152e9565b5050565b601f82111561534c5761531d81615203565b61532684615218565b81016020851015615335578190505b61534961534185615218565b8301826152e8565b50505b505050565b600082821c905092915050565b600061536f60001984600802615351565b1980831691505092915050565b6000615388838361535e565b9150826002028217905092915050565b6153a18261364a565b67ffffffffffffffff8111156153ba576153b9612e9b565b5b6153c48254613c35565b6153cf82828561530b565b600060209050601f83116001811461540257600084156153f0578287015190505b6153fa858261537c565b865550615462565b601f19841661541086615203565b60005b8281101561543857848901518255600182019150602085019450602081019050615413565b868310156154555784890151615451601f89168261535e565b8355505b6001600288020188555050505b50505050505056fea2646970667358221220a63e1a4ab1125ae7bf06a2527670f92dade0339578ac6ba606e66a9d50d2683864736f6c634300081b0033",
			"opcodes": "PUSH1 0xA0 PUSH1 0x40 MSTORE CALLVALUE DUP1 ISZERO PUSH2 0x10 JUMPI PUSH1 0x0 DUP1 REVERT JUMPDEST POP PUSH1 0x40 MLOAD PUSH2 0x5CDE CODESIZE SUB DUP1 PUSH2 0x5CDE DUP4 CODECOPY DUP2 DUP2 ADD PUSH1 0x40 MSTORE DUP2 ADD SWAP1 PUSH2 0x32 SWAP2 SWAP1 PUSH2 0x4CD JUMP JUMPDEST PUSH1 0x0 PUSH2 0x42 PUSH2 0x132 PUSH1 0x20 SHL PUSH1 0x20 SHR JUMP JUMPDEST SWAP1 POP DUP1 PUSH1 0x0 DUP1 PUSH2 0x100 EXP DUP2 SLOAD DUP2 PUSH20 0xFFFFFFFFFFFFFFFFFFFFFFFFFFFFFFFFFFFFFFFF MUL NOT AND SWAP1 DUP4 PUSH20 0xFFFFFFFFFFFFFFFFFFFFFFFFFFFFFFFFFFFFFFFF AND MUL OR SWAP1 SSTORE POP DUP1 PUSH20 0xFFFFFFFFFFFFFFFFFFFFFFFFFFFFFFFFFFFFFFFF AND PUSH1 0x0 PUSH20 0xFFFFFFFFFFFFFFFFFFFFFFFFFFFFFFFFFFFFFFFF AND PUSH32 0x8BE0079C531659141344CD1FD0A4F28419497F9722A3DAAFE3B4186F6B6457E0 PUSH1 0x40 MLOAD PUSH1 0x40 MLOAD DUP1 SWAP2 SUB SWAP1 LOG3 POP DUP2 PUSH20 0xFFFFFFFFFFFFFFFFFFFFFFFFFFFFFFFFFFFFFFFF AND PUSH1 0x80 DUP2 PUSH20 0xFFFFFFFFFFFFFFFFFFFFFFFFFFFFFFFFFFFFFFFF AND DUP2 MSTORE POP POP DUP1 PUSH1 0x1 SWAP1 DUP1 MLOAD SWAP1 PUSH1 0x20 ADD SWAP1 PUSH2 0x12A SWAP3 SWAP2 SWAP1 PUSH2 0x13A JUMP JUMPDEST POP POP POP PUSH2 0x81C JUMP JUMPDEST PUSH1 0x0 CALLER SWAP1 POP SWAP1 JUMP JUMPDEST DUP3 DUP1 SLOAD DUP3 DUP3 SSTORE SWAP1 PUSH1 0x0 MSTORE PUSH1 0x20 PUSH1 0x0 KECCAK256 SWAP1 DUP2 ADD SWAP3 DUP3 ISZERO PUSH2 0x182 JUMPI SWAP2 PUSH1 0x20 MUL DUP3 ADD JUMPDEST DUP3 DUP2 GT ISZERO PUSH2 0x181 JUMPI DUP3 MLOAD DUP3 SWAP1 DUP2 PUSH2 0x171 SWAP2 SWAP1 PUSH2 0x74A JUMP JUMPDEST POP SWAP2 PUSH1 0x20 ADD SWAP2 SWAP1 PUSH1 0x1 ADD SWAP1 PUSH2 0x15A JUMP JUMPDEST JUMPDEST POP SWAP1 POP PUSH2 0x18F SWAP2 SWAP1 PUSH2 0x193 JUMP JUMPDEST POP SWAP1 JUMP JUMPDEST JUMPDEST DUP1 DUP3 GT ISZERO PUSH2 0x1B3 JUMPI PUSH1 0x0 DUP2 DUP2 PUSH2 0x1AA SWAP2 SWAP1 PUSH2 0x1B7 JUMP JUMPDEST POP PUSH1 0x1 ADD PUSH2 0x194 JUMP JUMPDEST POP SWAP1 JUMP JUMPDEST POP DUP1 SLOAD PUSH2 0x1C3 SWAP1 PUSH2 0x563 JUMP JUMPDEST PUSH1 0x0 DUP3 SSTORE DUP1 PUSH1 0x1F LT PUSH2 0x1D5 JUMPI POP PUSH2 0x1F4 JUMP JUMPDEST PUSH1 0x1F ADD PUSH1 0x20 SWAP1 DIV SWAP1 PUSH1 0x0 MSTORE PUSH1 0x20 PUSH1 0x0 KECCAK256 SWAP1 DUP2 ADD SWAP1 PUSH2 0x1F3 SWAP2 SWAP1 PUSH2 0x1F7 JUMP JUMPDEST JUMPDEST POP JUMP JUMPDEST JUMPDEST DUP1 DUP3 GT ISZERO PUSH2 0x210 JUMPI PUSH1 0x0 DUP2 PUSH1 0x0 SWAP1 SSTORE POP PUSH1 0x1 ADD PUSH2 0x1F8 JUMP JUMPDEST POP SWAP1 JUMP JUMPDEST PUSH1 0x0 PUSH1 0x40 MLOAD SWAP1 POP SWAP1 JUMP JUMPDEST PUSH1 0x0 DUP1 REVERT JUMPDEST PUSH1 0x0 DUP1 REVERT JUMPDEST PUSH1 0x0 PUSH20 0xFFFFFFFFFFFFFFFFFFFFFFFFFFFFFFFFFFFFFFFF DUP3 AND SWAP1 POP SWAP2 SWAP1 POP JUMP JUMPDEST PUSH1 0x0 PUSH2 0x253 DUP3 PUSH2 0x228 JUMP JUMPDEST SWAP1 POP SWAP2 SWAP1 POP JUMP JUMPDEST PUSH2 0x263 DUP2 PUSH2 0x248 JUMP JUMPDEST DUP2 EQ PUSH2 0x26E JUMPI PUSH1 0x0 DUP1 REVERT JUMPDEST POP JUMP JUMPDEST PUSH1 0x0 DUP2 MLOAD SWAP1 POP PUSH2 0x280 DUP2 PUSH2 0x25A JUMP JUMPDEST SWAP3 SWAP2 POP POP JUMP JUMPDEST PUSH1 0x0 DUP1 REVERT JUMPDEST PUSH1 0x0 PUSH1 0x1F NOT PUSH1 0x1F DUP4 ADD AND SWAP1 POP SWAP2 SWAP1 POP JUMP JUMPDEST PUSH32 0x4E487B7100000000000000000000000000000000000000000000000000000000 PUSH1 0x0 MSTORE PUSH1 0x41 PUSH1 0x4 MSTORE PUSH1 0x24 PUSH1 0x0 REVERT JUMPDEST PUSH2 0x2D4 DUP3 PUSH2 0x28B JUMP JUMPDEST DUP2 ADD DUP2 DUP2 LT PUSH8 0xFFFFFFFFFFFFFFFF DUP3 GT OR ISZERO PUSH2 0x2F3 JUMPI PUSH2 0x2F2 PUSH2 0x29C JUMP JUMPDEST JUMPDEST DUP1 PUSH1 0x40 MSTORE POP POP POP JUMP JUMPDEST PUSH1 0x0 PUSH2 0x306 PUSH2 0x214 JUMP JUMPDEST SWAP1 POP PUSH2 0x312 DUP3 DUP3 PUSH2 0x2CB JUMP JUMPDEST SWAP2 SWAP1 POP JUMP JUMPDEST PUSH1 0x0 PUSH8 0xFFFFFFFFFFFFFFFF DUP3 GT ISZERO PUSH2 0x332 JUMPI PUSH2 0x331 PUSH2 0x29C JUMP JUMPDEST JUMPDEST PUSH1 0x20 DUP3 MUL SWAP1 POP PUSH1 0x20 DUP2 ADD SWAP1 POP SWAP2 SWAP1 POP JUMP JUMPDEST PUSH1 0x0 DUP1 REVERT JUMPDEST PUSH1 0x0 DUP1 REVERT JUMPDEST PUSH1 0x0 PUSH8 0xFFFFFFFFFFFFFFFF DUP3 GT ISZERO PUSH2 0x368 JUMPI PUSH2 0x367 PUSH2 0x29C JUMP JUMPDEST JUMPDEST PUSH2 0x371 DUP3 PUSH2 0x28B JUMP JUMPDEST SWAP1 POP PUSH1 0x20 DUP2 ADD SWAP1 POP SWAP2 SWAP1 POP JUMP JUMPDEST PUSH1 0x0 JUMPDEST DUP4 DUP2 LT ISZERO PUSH2 0x39C JUMPI DUP1 DUP3 ADD MLOAD DUP2 DUP5 ADD MSTORE PUSH1 0x20 DUP2 ADD SWAP1 POP PUSH2 0x381 JUMP JUMPDEST PUSH1 0x0 DUP5 DUP5 ADD MSTORE POP POP POP POP JUMP JUMPDEST PUSH1 0x0 PUSH2 0x3BB PUSH2 0x3B6 DUP5 PUSH2 0x34D JUMP JUMPDEST PUSH2 0x2FC JUMP JUMPDEST SWAP1 POP DUP3 DUP2 MSTORE PUSH1 0x20 DUP2 ADD DUP5 DUP5 DUP5 ADD GT ISZERO PUSH2 0x3D7 JUMPI PUSH2 0x3D6 PUSH2 0x348 JUMP JUMPDEST JUMPDEST PUSH2 0x3E2 DUP5 DUP3 DUP6 PUSH2 0x37E JUMP JUMPDEST POP SWAP4 SWAP3 POP POP POP JUMP JUMPDEST PUSH1 0x0 DUP3 PUSH1 0x1F DUP4 ADD SLT PUSH2 0x3FF JUMPI PUSH2 0x3FE PUSH2 0x286 JUMP JUMPDEST JUMPDEST DUP2 MLOAD PUSH2 0x40F DUP5 DUP3 PUSH1 0x20 DUP7 ADD PUSH2 0x3A8 JUMP JUMPDEST SWAP2 POP POP SWAP3 SWAP2 POP POP JUMP JUMPDEST PUSH1 0x0 PUSH2 0x42B PUSH2 0x426 DUP5 PUSH2 0x317 JUMP JUMPDEST PUSH2 0x2FC JUMP JUMPDEST SWAP1 POP DUP1 DUP4 DUP3 MSTORE PUSH1 0x20 DUP3 ADD SWAP1 POP PUSH1 0x20 DUP5 MUL DUP4 ADD DUP6 DUP2 GT ISZERO PUSH2 0x44E JUMPI PUSH2 0x44D PUSH2 0x343 JUMP JUMPDEST JUMPDEST DUP4 JUMPDEST DUP2 DUP2 LT ISZERO PUSH2 0x495 JUMPI DUP1 MLOAD PUSH8 0xFFFFFFFFFFFFFFFF DUP2 GT ISZERO PUSH2 0x473 JUMPI PUSH2 0x472 PUSH2 0x286 JUMP JUMPDEST JUMPDEST DUP1 DUP7 ADD PUSH2 0x480 DUP10 DUP3 PUSH2 0x3EA JUMP JUMPDEST DUP6 MSTORE PUSH1 0x20 DUP6 ADD SWAP5 POP POP POP PUSH1 0x20 DUP2 ADD SWAP1 POP PUSH2 0x450 JUMP JUMPDEST POP POP POP SWAP4 SWAP3 POP POP POP JUMP JUMPDEST PUSH1 0x0 DUP3 PUSH1 0x1F DUP4 ADD SLT PUSH2 0x4B4 JUMPI PUSH2 0x4B3 PUSH2 0x286 JUMP JUMPDEST JUMPDEST DUP2 MLOAD PUSH2 0x4C4 DUP5 DUP3 PUSH1 0x20 DUP7 ADD PUSH2 0x418 JUMP JUMPDEST SWAP2 POP POP SWAP3 SWAP2 POP POP JUMP JUMPDEST PUSH1 0x0 DUP1 PUSH1 0x40 DUP4 DUP6 SUB SLT ISZERO PUSH2 0x4E4 JUMPI PUSH2 0x4E3 PUSH2 0x21E JUMP JUMPDEST JUMPDEST PUSH1 0x0 PUSH2 0x4F2 DUP6 DUP3 DUP7 ADD PUSH2 0x271 JUMP JUMPDEST SWAP3 POP POP PUSH1 0x20 DUP4 ADD MLOAD PUSH8 0xFFFFFFFFFFFFFFFF DUP2 GT ISZERO PUSH2 0x513 JUMPI PUSH2 0x512 PUSH2 0x223 JUMP JUMPDEST JUMPDEST PUSH2 0x51F DUP6 DUP3 DUP7 ADD PUSH2 0x49F JUMP JUMPDEST SWAP2 POP POP SWAP3 POP SWAP3 SWAP1 POP JUMP JUMPDEST PUSH1 0x0 DUP2 MLOAD SWAP1 POP SWAP2 SWAP1 POP JUMP JUMPDEST PUSH32 0x4E487B7100000000000000000000000000000000000000000000000000000000 PUSH1 0x0 MSTORE PUSH1 0x22 PUSH1 0x4 MSTORE PUSH1 0x24 PUSH1 0x0 REVERT JUMPDEST PUSH1 0x0 PUSH1 0x2 DUP3 DIV SWAP1 POP PUSH1 0x1 DUP3 AND DUP1 PUSH2 0x57B JUMPI PUSH1 0x7F DUP3 AND SWAP2 POP JUMPDEST PUSH1 0x20 DUP3 LT DUP2 SUB PUSH2 0x58E JUMPI PUSH2 0x58D PUSH2 0x534 JUMP JUMPDEST JUMPDEST POP SWAP2 SWAP1 POP JUMP JUMPDEST PUSH1 0x0 DUP2 SWAP1 POP DUP2 PUSH1 0x0 MSTORE PUSH1 0x20 PUSH1 0x0 KECCAK256 SWAP1 POP SWAP2 SWAP1 POP JUMP JUMPDEST PUSH1 0x0 PUSH1 0x20 PUSH1 0x1F DUP4 ADD DIV SWAP1 POP SWAP2 SWAP1 POP JUMP JUMPDEST PUSH1 0x0 DUP3 DUP3 SHL SWAP1 POP SWAP3 SWAP2 POP POP JUMP JUMPDEST PUSH1 0x0 PUSH1 0x8 DUP4 MUL PUSH2 0x5F6 PUSH32 0xFFFFFFFFFFFFFFFFFFFFFFFFFFFFFFFFFFFFFFFFFFFFFFFFFFFFFFFFFFFFFFFF DUP3 PUSH2 0x5B9 JUMP JUMPDEST PUSH2 0x600 DUP7 DUP4 PUSH2 0x5B9 JUMP JUMPDEST SWAP6 POP DUP1 NOT DUP5 AND SWAP4 POP DUP1 DUP7 AND DUP5 OR SWAP3 POP POP POP SWAP4 SWAP3 POP POP POP JUMP JUMPDEST PUSH1 0x0 DUP2 SWAP1 POP SWAP2 SWAP1 POP JUMP JUMPDEST PUSH1 0x0 DUP2 SWAP1 POP SWAP2 SWAP1 POP JUMP JUMPDEST PUSH1 0x0 PUSH2 0x647 PUSH2 0x642 PUSH2 0x63D DUP5 PUSH2 0x618 JUMP JUMPDEST PUSH2 0x622 JUMP JUMPDEST PUSH2 0x618 JUMP JUMPDEST SWAP1 POP SWAP2 SWAP1 POP JUMP JUMPDEST PUSH1 0x0 DUP2 SWAP1 POP SWAP2 SWAP1 POP JUMP JUMPDEST PUSH2 0x661 DUP4 PUSH2 0x62C JUMP JUMPDEST PUSH2 0x675 PUSH2 0x66D DUP3 PUSH2 0x64E JUMP JUMPDEST DUP5 DUP5 SLOAD PUSH2 0x5C6 JUMP JUMPDEST DUP3 SSTORE POP POP POP POP JUMP JUMPDEST PUSH1 0x0 SWAP1 JUMP JUMPDEST PUSH2 0x68A PUSH2 0x67D JUMP JUMPDEST PUSH2 0x695 DUP2 DUP5 DUP5 PUSH2 0x658 JUMP JUMPDEST POP POP POP JUMP JUMPDEST JUMPDEST DUP2 DUP2 LT ISZERO PUSH2 0x6B9 JUMPI PUSH2 0x6AE PUSH1 0x0 DUP3 PUSH2 0x682 JUMP JUMPDEST PUSH1 0x1 DUP2 ADD SWAP1 POP PUSH2 0x69B JUMP JUMPDEST POP POP JUMP JUMPDEST PUSH1 0x1F DUP3 GT ISZERO PUSH2 0x6FE JUMPI PUSH2 0x6CF DUP2 PUSH2 0x594 JUMP JUMPDEST PUSH2 0x6D8 DUP5 PUSH2 0x5A9 JUMP JUMPDEST DUP2 ADD PUSH1 0x20 DUP6 LT ISZERO PUSH2 0x6E7 JUMPI DUP2 SWAP1 POP JUMPDEST PUSH2 0x6FB PUSH2 0x6F3 DUP6 PUSH2 0x5A9 JUMP JUMPDEST DUP4 ADD DUP3 PUSH2 0x69A JUMP JUMPDEST POP POP JUMPDEST POP POP POP JUMP JUMPDEST PUSH1 0x0 DUP3 DUP3 SHR SWAP1 POP SWAP3 SWAP2 POP POP JUMP JUMPDEST PUSH1 0x0 PUSH2 0x721 PUSH1 0x0 NOT DUP5 PUSH1 0x8 MUL PUSH2 0x703 JUMP JUMPDEST NOT DUP1 DUP4 AND SWAP2 POP POP SWAP3 SWAP2 POP POP JUMP JUMPDEST PUSH1 0x0 PUSH2 0x73A DUP4 DUP4 PUSH2 0x710 JUMP JUMPDEST SWAP2 POP DUP3 PUSH1 0x2 MUL DUP3 OR SWAP1 POP SWAP3 SWAP2 POP POP JUMP JUMPDEST PUSH2 0x753 DUP3 PUSH2 0x529 JUMP JUMPDEST PUSH8 0xFFFFFFFFFFFFFFFF DUP2 GT ISZERO PUSH2 0x76C JUMPI PUSH2 0x76B PUSH2 0x29C JUMP JUMPDEST JUMPDEST PUSH2 0x776 DUP3 SLOAD PUSH2 0x563 JUMP JUMPDEST PUSH2 0x781 DUP3 DUP3 DUP6 PUSH2 0x6BD JUMP JUMPDEST PUSH1 0x0 PUSH1 0x20 SWAP1 POP PUSH1 0x1F DUP4 GT PUSH1 0x1 DUP2 EQ PUSH2 0x7B4 JUMPI PUSH1 0x0 DUP5 ISZERO PUSH2 0x7A2 JUMPI DUP3 DUP8 ADD MLOAD SWAP1 POP JUMPDEST PUSH2 0x7AC DUP6 DUP3 PUSH2 0x72E JUMP JUMPDEST DUP7 SSTORE POP PUSH2 0x814 JUMP JUMPDEST PUSH1 0x1F NOT DUP5 AND PUSH2 0x7C2 DUP7 PUSH2 0x594 JUMP JUMPDEST PUSH1 0x0 JUMPDEST DUP3 DUP2 LT ISZERO PUSH2 0x7EA JUMPI DUP5 DUP10 ADD MLOAD DUP3 SSTORE PUSH1 0x1 DUP3 ADD SWAP2 POP PUSH1 0x20 DUP6 ADD SWAP5 POP PUSH1 0x20 DUP2 ADD SWAP1 POP PUSH2 0x7C5 JUMP JUMPDEST DUP7 DUP4 LT ISZERO PUSH2 0x807 JUMPI DUP5 DUP10 ADD MLOAD PUSH2 0x803 PUSH1 0x1F DUP10 AND DUP3 PUSH2 0x710 JUMP JUMPDEST DUP4 SSTORE POP JUMPDEST PUSH1 0x1 PUSH1 0x2 DUP9 MUL ADD DUP9 SSTORE POP POP POP JUMPDEST POP POP POP POP POP POP JUMP JUMPDEST PUSH1 0x80 MLOAD PUSH2 0x54A0 PUSH2 0x83E PUSH1 0x0 CODECOPY PUSH1 0x0 DUP2 DUP2 PUSH2 0x7FC ADD MSTORE PUSH2 0x1A83 ADD MSTORE PUSH2 0x54A0 PUSH1 0x0 RETURN INVALID PUSH1 0x80 PUSH1 0x40 MSTORE CALLVALUE DUP1 ISZERO PUSH2 0x10 JUMPI PUSH1 0x0 DUP1 REVERT JUMPDEST POP PUSH1 0x4 CALLDATASIZE LT PUSH2 0x116 JUMPI PUSH1 0x0 CALLDATALOAD PUSH1 0xE0 SHR DUP1 PUSH4 0x8E5EA8DF GT PUSH2 0xA2 JUMPI DUP1 PUSH4 0xB241D0D3 GT PUSH2 0x71 JUMPI DUP1 PUSH4 0xB241D0D3 EQ PUSH2 0x337 JUMPI DUP1 PUSH4 0xB4A85801 EQ PUSH2 0x36A JUMPI DUP1 PUSH4 0xE0A85412 EQ PUSH2 0x39B JUMPI DUP1 PUSH4 0xEC11C823 EQ PUSH2 0x3CC JUMPI DUP1 PUSH4 0xF2FDE38B EQ PUSH2 0x3FF JUMPI PUSH2 0x116 JUMP JUMPDEST DUP1 PUSH4 0x8E5EA8DF EQ PUSH2 0x288 JUMPI DUP1 PUSH4 0x9061B923 EQ PUSH2 0x2A4 JUMPI DUP1 PUSH4 0xA1CBCBAF EQ PUSH2 0x2D5 JUMPI DUP1 PUSH4 0xA6B16419 EQ PUSH2 0x307 JUMPI PUSH2 0x116 JUMP JUMPDEST DUP1 PUSH4 0x715018A6 GT PUSH2 0xE9 JUMPI DUP1 PUSH4 0x715018A6 EQ PUSH2 0x1E0 JUMPI DUP1 PUSH4 0x76286C00 EQ PUSH2 0x1EA JUMPI DUP1 PUSH4 0x7B103999 EQ PUSH2 0x21B JUMPI DUP1 PUSH4 0x8DA5CB5B EQ PUSH2 0x239 JUMPI DUP1 PUSH4 0x8E25A0F3 EQ PUSH2 0x257 JUMPI PUSH2 0x116 JUMP JUMPDEST DUP1 PUSH4 0x1FFC9A7 EQ PUSH2 0x11B JUMPI DUP1 PUSH4 0x667CFEA EQ PUSH2 0x14B JUMPI DUP1 PUSH4 0x206C74C9 EQ PUSH2 0x17C JUMPI DUP1 PUSH4 0x6DC4FB73 EQ PUSH2 0x1AD JUMPI JUMPDEST PUSH1 0x0 DUP1 REVERT JUMPDEST PUSH2 0x135 PUSH1 0x4 DUP1 CALLDATASIZE SUB DUP2 ADD SWAP1 PUSH2 0x130 SWAP2 SWAP1 PUSH2 0x2DBD JUMP JUMPDEST PUSH2 0x41B JUMP JUMPDEST PUSH1 0x40 MLOAD PUSH2 0x142 SWAP2 SWAP1 PUSH2 0x2E05 JUMP JUMPDEST PUSH1 0x40 MLOAD DUP1 SWAP2 SUB SWAP1 RETURN JUMPDEST PUSH2 0x165 PUSH1 0x4 DUP1 CALLDATASIZE SUB DUP2 ADD SWAP1 PUSH2 0x160 SWAP2 SWAP1 PUSH2 0x3148 JUMP JUMPDEST PUSH2 0x495 JUMP JUMPDEST PUSH1 0x40 MLOAD PUSH2 0x173 SWAP3 SWAP2 SWAP1 PUSH2 0x32B4 JUMP JUMPDEST PUSH1 0x40 MLOAD DUP1 SWAP2 SUB SWAP1 RETURN JUMPDEST PUSH2 0x196 PUSH1 0x4 DUP1 CALLDATASIZE SUB DUP2 ADD SWAP1 PUSH2 0x191 SWAP2 SWAP1 PUSH2 0x33C5 JUMP JUMPDEST PUSH2 0x4CA JUMP JUMPDEST PUSH1 0x40 MLOAD PUSH2 0x1A4 SWAP3 SWAP2 SWAP1 PUSH2 0x3599 JUMP JUMPDEST PUSH1 0x40 MLOAD DUP1 SWAP2 SUB SWAP1 RETURN JUMPDEST PUSH2 0x1C7 PUSH1 0x4 DUP1 CALLDATASIZE SUB DUP2 ADD SWAP1 PUSH2 0x1C2 SWAP2 SWAP1 PUSH2 0x35C9 JUMP JUMPDEST PUSH2 0x5B7 JUMP JUMPDEST PUSH1 0x40 MLOAD PUSH2 0x1D7 SWAP5 SWAP4 SWAP3 SWAP2 SWAP1 PUSH2 0x369F JUMP JUMPDEST PUSH1 0x40 MLOAD DUP1 SWAP2 SUB SWAP1 RETURN JUMPDEST PUSH2 0x1E8 PUSH2 0x68B JUMP JUMPDEST STOP JUMPDEST PUSH2 0x204 PUSH1 0x4 DUP1 CALLDATASIZE SUB DUP2 ADD SWAP1 PUSH2 0x1FF SWAP2 SWAP1 PUSH2 0x36EB JUMP JUMPDEST PUSH2 0x7C5 JUMP JUMPDEST PUSH1 0x40 MLOAD PUSH2 0x212 SWAP3 SWAP2 SWAP1 PUSH2 0x3599 JUMP JUMPDEST PUSH1 0x40 MLOAD DUP1 SWAP2 SUB SWAP1 RETURN JUMPDEST PUSH2 0x223 PUSH2 0x7FA JUMP JUMPDEST PUSH1 0x40 MLOAD PUSH2 0x230 SWAP2 SWAP1 PUSH2 0x37F6 JUMP JUMPDEST PUSH1 0x40 MLOAD DUP1 SWAP2 SUB SWAP1 RETURN JUMPDEST PUSH2 0x241 PUSH2 0x81E JUMP JUMPDEST PUSH1 0x40 MLOAD PUSH2 0x24E SWAP2 SWAP1 PUSH2 0x3811 JUMP JUMPDEST PUSH1 0x40 MLOAD DUP1 SWAP2 SUB SWAP1 RETURN JUMPDEST PUSH2 0x271 PUSH1 0x4 DUP1 CALLDATASIZE SUB DUP2 ADD SWAP1 PUSH2 0x26C SWAP2 SWAP1 PUSH2 0x382C JUMP JUMPDEST PUSH2 0x847 JUMP JUMPDEST PUSH1 0x40 MLOAD PUSH2 0x27F SWAP3 SWAP2 SWAP1 PUSH2 0x32B4 JUMP JUMPDEST PUSH1 0x40 MLOAD DUP1 SWAP2 SUB SWAP1 RETURN JUMPDEST PUSH2 0x2A2 PUSH1 0x4 DUP1 CALLDATASIZE SUB DUP2 ADD SWAP1 PUSH2 0x29D SWAP2 SWAP1 PUSH2 0x391A JUMP JUMPDEST PUSH2 0x914 JUMP JUMPDEST STOP JUMPDEST PUSH2 0x2BE PUSH1 0x4 DUP1 CALLDATASIZE SUB DUP2 ADD SWAP1 PUSH2 0x2B9 SWAP2 SWAP1 PUSH2 0x3963 JUMP JUMPDEST PUSH2 0x9AA JUMP JUMPDEST PUSH1 0x40 MLOAD PUSH2 0x2CC SWAP3 SWAP2 SWAP1 PUSH2 0x32B4 JUMP JUMPDEST PUSH1 0x40 MLOAD DUP1 SWAP2 SUB SWAP1 RETURN JUMPDEST PUSH2 0x2EF PUSH1 0x4 DUP1 CALLDATASIZE SUB DUP2 ADD SWAP1 PUSH2 0x2EA SWAP2 SWAP1 PUSH2 0x39DF JUMP JUMPDEST PUSH2 0xAAF JUMP JUMPDEST PUSH1 0x40 MLOAD PUSH2 0x2FE SWAP4 SWAP3 SWAP2 SWAP1 PUSH2 0x3A7F JUMP JUMPDEST PUSH1 0x40 MLOAD DUP1 SWAP2 SUB SWAP1 RETURN JUMPDEST PUSH2 0x321 PUSH1 0x4 DUP1 CALLDATASIZE SUB DUP2 ADD SWAP1 PUSH2 0x31C SWAP2 SWAP1 PUSH2 0x3AE2 JUMP JUMPDEST PUSH2 0xADD JUMP JUMPDEST PUSH1 0x40 MLOAD PUSH2 0x32E SWAP2 SWAP1 PUSH2 0x3B0F JUMP JUMPDEST PUSH1 0x40 MLOAD DUP1 SWAP2 SUB SWAP1 RETURN JUMPDEST PUSH2 0x351 PUSH1 0x4 DUP1 CALLDATASIZE SUB DUP2 ADD SWAP1 PUSH2 0x34C SWAP2 SWAP1 PUSH2 0x3B31 JUMP JUMPDEST PUSH2 0xB89 JUMP JUMPDEST PUSH1 0x40 MLOAD PUSH2 0x361 SWAP5 SWAP4 SWAP3 SWAP2 SWAP1 PUSH2 0x369F JUMP JUMPDEST PUSH1 0x40 MLOAD DUP1 SWAP2 SUB SWAP1 RETURN JUMPDEST PUSH2 0x384 PUSH1 0x4 DUP1 CALLDATASIZE SUB DUP2 ADD SWAP1 PUSH2 0x37F SWAP2 SWAP1 PUSH2 0x35C9 JUMP JUMPDEST PUSH2 0xC8A JUMP JUMPDEST PUSH1 0x40 MLOAD PUSH2 0x392 SWAP3 SWAP2 SWAP1 PUSH2 0x3599 JUMP JUMPDEST PUSH1 0x40 MLOAD DUP1 SWAP2 SUB SWAP1 RETURN JUMPDEST PUSH2 0x3B5 PUSH1 0x4 DUP1 CALLDATASIZE SUB DUP2 ADD SWAP1 PUSH2 0x3B0 SWAP2 SWAP1 PUSH2 0x35C9 JUMP JUMPDEST PUSH2 0xCBC JUMP JUMPDEST PUSH1 0x40 MLOAD PUSH2 0x3C3 SWAP3 SWAP2 SWAP1 PUSH2 0x32B4 JUMP JUMPDEST PUSH1 0x40 MLOAD DUP1 SWAP2 SUB SWAP1 RETURN JUMPDEST PUSH2 0x3E6 PUSH1 0x4 DUP1 CALLDATASIZE SUB DUP2 ADD SWAP1 PUSH2 0x3E1 SWAP2 SWAP1 PUSH2 0x39DF JUMP JUMPDEST PUSH2 0xD1C JUMP JUMPDEST PUSH1 0x40 MLOAD PUSH2 0x3F6 SWAP5 SWAP4 SWAP3 SWAP2 SWAP1 PUSH2 0x369F JUMP JUMPDEST PUSH1 0x40 MLOAD DUP1 SWAP2 SUB SWAP1 RETURN JUMPDEST PUSH2 0x419 PUSH1 0x4 DUP1 CALLDATASIZE SUB DUP2 ADD SWAP1 PUSH2 0x414 SWAP2 SWAP1 PUSH2 0x3BD9 JUMP JUMPDEST PUSH2 0xE10 JUMP JUMPDEST STOP JUMPDEST PUSH1 0x0 PUSH32 0x9061B92300000000000000000000000000000000000000000000000000000000 PUSH28 0xFFFFFFFFFFFFFFFFFFFFFFFFFFFFFFFFFFFFFFFFFFFFFFFFFFFFFFFF NOT AND DUP3 PUSH28 0xFFFFFFFFFFFFFFFFFFFFFFFFFFFFFFFFFFFFFFFFFFFFFFFFFFFFFFFF NOT AND EQ DUP1 PUSH2 0x48E JUMPI POP PUSH2 0x48D DUP3 PUSH2 0xFB8 JUMP JUMPDEST JUMPDEST SWAP1 POP SWAP2 SWAP1 POP JUMP JUMPDEST PUSH1 0x60 PUSH1 0x0 PUSH2 0x4BD DUP7 DUP7 DUP7 DUP7 PUSH4 0xE0A85412 PUSH1 0xE0 SHL PUSH1 0x40 MLOAD DUP1 PUSH1 0x20 ADD PUSH1 0x40 MSTORE DUP1 PUSH1 0x0 DUP2 MSTORE POP PUSH2 0x847 JUMP JUMPDEST SWAP2 POP SWAP2 POP SWAP5 POP SWAP5 SWAP3 POP POP POP JUMP JUMPDEST PUSH1 0x60 PUSH1 0x0 PUSH2 0x5AB DUP6 DUP6 DUP6 PUSH1 0x1 DUP1 SLOAD DUP1 PUSH1 0x20 MUL PUSH1 0x20 ADD PUSH1 0x40 MLOAD SWAP1 DUP2 ADD PUSH1 0x40 MSTORE DUP1 SWAP3 SWAP2 SWAP1 DUP2 DUP2 MSTORE PUSH1 0x20 ADD PUSH1 0x0 SWAP1 JUMPDEST DUP3 DUP3 LT ISZERO PUSH2 0x5A2 JUMPI DUP4 DUP3 SWAP1 PUSH1 0x0 MSTORE PUSH1 0x20 PUSH1 0x0 KECCAK256 ADD DUP1 SLOAD PUSH2 0x515 SWAP1 PUSH2 0x3C35 JUMP JUMPDEST DUP1 PUSH1 0x1F ADD PUSH1 0x20 DUP1 SWAP2 DIV MUL PUSH1 0x20 ADD PUSH1 0x40 MLOAD SWAP1 DUP2 ADD PUSH1 0x40 MSTORE DUP1 SWAP3 SWAP2 SWAP1 DUP2 DUP2 MSTORE PUSH1 0x20 ADD DUP3 DUP1 SLOAD PUSH2 0x541 SWAP1 PUSH2 0x3C35 JUMP JUMPDEST DUP1 ISZERO PUSH2 0x58E JUMPI DUP1 PUSH1 0x1F LT PUSH2 0x563 JUMPI PUSH2 0x100 DUP1 DUP4 SLOAD DIV MUL DUP4 MSTORE SWAP2 PUSH1 0x20 ADD SWAP2 PUSH2 0x58E JUMP JUMPDEST DUP3 ADD SWAP2 SWAP1 PUSH1 0x0 MSTORE PUSH1 0x20 PUSH1 0x0 KECCAK256 SWAP1 JUMPDEST DUP2 SLOAD DUP2 MSTORE SWAP1 PUSH1 0x1 ADD SWAP1 PUSH1 0x20 ADD DUP1 DUP4 GT PUSH2 0x571 JUMPI DUP3 SWAP1 SUB PUSH1 0x1F AND DUP3 ADD SWAP2 JUMPDEST POP POP POP POP POP DUP2 MSTORE PUSH1 0x20 ADD SWAP1 PUSH1 0x1 ADD SWAP1 PUSH2 0x4F6 JUMP JUMPDEST POP POP POP POP PUSH2 0x7C5 JUMP JUMPDEST SWAP2 POP SWAP2 POP SWAP4 POP SWAP4 SWAP2 POP POP JUMP JUMPDEST PUSH1 0x60 PUSH1 0x0 DUP1 PUSH1 0x0 DUP1 PUSH1 0x0 DUP1 PUSH1 0x0 PUSH2 0x5D8 DUP13 DUP13 DUP13 DUP13 PUSH4 0x6DC4FB73 PUSH1 0xE0 SHL PUSH2 0x1022 JUMP JUMPDEST SWAP4 POP SWAP4 POP SWAP4 POP SWAP4 POP PUSH1 0x0 DUP5 PUSH1 0x0 DUP2 MLOAD DUP2 LT PUSH2 0x5F6 JUMPI PUSH2 0x5F5 PUSH2 0x3C66 JUMP JUMPDEST JUMPDEST PUSH1 0x20 MUL PUSH1 0x20 ADD ADD MLOAD SWAP1 POP PUSH2 0x609 DUP2 PUSH2 0x1430 JUMP JUMPDEST PUSH1 0x0 DUP3 MLOAD GT ISZERO PUSH2 0x663 JUMPI PUSH1 0x0 DUP1 DUP4 DUP1 PUSH1 0x20 ADD SWAP1 MLOAD DUP2 ADD SWAP1 PUSH2 0x62A SWAP2 SWAP1 PUSH2 0x3D43 JUMP JUMPDEST SWAP2 POP SWAP2 POP PUSH1 0x0 DUP4 PUSH1 0x20 ADD MLOAD DUP1 PUSH1 0x20 ADD SWAP1 MLOAD DUP2 ADD SWAP1 PUSH2 0x648 SWAP2 SWAP1 PUSH2 0x3D9F JUMP JUMPDEST SWAP1 POP DUP3 DUP2 DUP4 DUP10 SWAP12 POP SWAP12 POP SWAP12 POP SWAP12 POP POP POP POP POP POP POP POP POP PUSH2 0x680 JUMP JUMPDEST PUSH2 0x672 DUP2 PUSH1 0x20 ADD MLOAD DUP6 DUP6 PUSH2 0x14E7 JUMP JUMPDEST SWAP9 POP SWAP9 POP SWAP9 POP SWAP9 POP POP POP POP POP POP JUMPDEST SWAP5 POP SWAP5 POP SWAP5 POP SWAP5 SWAP1 POP JUMP JUMPDEST PUSH2 0x693 PUSH2 0x165F JUMP JUMPDEST PUSH20 0xFFFFFFFFFFFFFFFFFFFFFFFFFFFFFFFFFFFFFFFF AND PUSH2 0x6B1 PUSH2 0x81E JUMP JUMPDEST PUSH20 0xFFFFFFFFFFFFFFFFFFFFFFFFFFFFFFFFFFFFFFFF AND EQ PUSH2 0x707 JUMPI PUSH1 0x40 MLOAD PUSH32 0x8C379A000000000000000000000000000000000000000000000000000000000 DUP2 MSTORE PUSH1 0x4 ADD PUSH2 0x6FE SWAP1 PUSH2 0x3E18 JUMP JUMPDEST PUSH1 0x40 MLOAD DUP1 SWAP2 SUB SWAP1 REVERT JUMPDEST PUSH1 0x0 PUSH20 0xFFFFFFFFFFFFFFFFFFFFFFFFFFFFFFFFFFFFFFFF AND PUSH1 0x0 DUP1 SLOAD SWAP1 PUSH2 0x100 EXP SWAP1 DIV PUSH20 0xFFFFFFFFFFFFFFFFFFFFFFFFFFFFFFFFFFFFFFFF AND PUSH20 0xFFFFFFFFFFFFFFFFFFFFFFFFFFFFFFFFFFFFFFFF AND PUSH32 0x8BE0079C531659141344CD1FD0A4F28419497F9722A3DAAFE3B4186F6B6457E0 PUSH1 0x40 MLOAD PUSH1 0x40 MLOAD DUP1 SWAP2 SUB SWAP1 LOG3 PUSH1 0x0 DUP1 PUSH1 0x0 PUSH2 0x100 EXP DUP2 SLOAD DUP2 PUSH20 0xFFFFFFFFFFFFFFFFFFFFFFFFFFFFFFFFFFFFFFFF MUL NOT AND SWAP1 DUP4 PUSH20 0xFFFFFFFFFFFFFFFFFFFFFFFFFFFFFFFFFFFFFFFF AND MUL OR SWAP1 SSTORE POP JUMP JUMPDEST PUSH1 0x60 PUSH1 0x0 PUSH2 0x7ED DUP7 DUP7 DUP7 DUP7 PUSH4 0xB4A85801 PUSH1 0xE0 SHL PUSH1 0x40 MLOAD DUP1 PUSH1 0x20 ADD PUSH1 0x40 MSTORE DUP1 PUSH1 0x0 DUP2 MSTORE POP PUSH2 0x1667 JUMP JUMPDEST SWAP2 POP SWAP2 POP SWAP5 POP SWAP5 SWAP3 POP POP POP JUMP JUMPDEST PUSH32 0x0 DUP2 JUMP JUMPDEST PUSH1 0x0 DUP1 PUSH1 0x0 SWAP1 SLOAD SWAP1 PUSH2 0x100 EXP SWAP1 DIV PUSH20 0xFFFFFFFFFFFFFFFFFFFFFFFFFFFFFFFFFFFFFFFF AND SWAP1 POP SWAP1 JUMP JUMPDEST PUSH1 0x60 PUSH1 0x0 DUP1 PUSH1 0x1 PUSH8 0xFFFFFFFFFFFFFFFF DUP2 GT ISZERO PUSH2 0x867 JUMPI PUSH2 0x866 PUSH2 0x2E9B JUMP JUMPDEST JUMPDEST PUSH1 0x40 MLOAD SWAP1 DUP1 DUP3 MSTORE DUP1 PUSH1 0x20 MUL PUSH1 0x20 ADD DUP3 ADD PUSH1 0x40 MSTORE DUP1 ISZERO PUSH2 0x89A JUMPI DUP2 PUSH1 0x20 ADD JUMPDEST PUSH1 0x60 DUP2 MSTORE PUSH1 0x20 ADD SWAP1 PUSH1 0x1 SWAP1 SUB SWAP1 DUP2 PUSH2 0x885 JUMPI SWAP1 POP JUMPDEST POP SWAP1 POP DUP7 DUP2 PUSH1 0x0 DUP2 MLOAD DUP2 LT PUSH2 0x8B2 JUMPI PUSH2 0x8B1 PUSH2 0x3C66 JUMP JUMPDEST JUMPDEST PUSH1 0x20 MUL PUSH1 0x20 ADD ADD DUP2 SWAP1 MSTORE POP PUSH1 0x0 DUP1 PUSH2 0x8CE DUP12 DUP12 DUP6 DUP12 DUP12 DUP12 PUSH2 0x1667 JUMP JUMPDEST SWAP2 POP SWAP2 POP PUSH1 0x0 DUP3 PUSH1 0x0 DUP2 MLOAD DUP2 LT PUSH2 0x8E8 JUMPI PUSH2 0x8E7 PUSH2 0x3C66 JUMP JUMPDEST JUMPDEST PUSH1 0x20 MUL PUSH1 0x20 ADD ADD MLOAD SWAP1 POP PUSH2 0x8FB DUP2 PUSH2 0x1430 JUMP JUMPDEST DUP1 PUSH1 0x20 ADD MLOAD DUP3 SWAP6 POP SWAP6 POP POP POP POP POP SWAP7 POP SWAP7 SWAP5 POP POP POP POP POP JUMP JUMPDEST PUSH2 0x91C PUSH2 0x165F JUMP JUMPDEST PUSH20 0xFFFFFFFFFFFFFFFFFFFFFFFFFFFFFFFFFFFFFFFF AND PUSH2 0x93A PUSH2 0x81E JUMP JUMPDEST PUSH20 0xFFFFFFFFFFFFFFFFFFFFFFFFFFFFFFFFFFFFFFFF AND EQ PUSH2 0x990 JUMPI PUSH1 0x40 MLOAD PUSH32 0x8C379A000000000000000000000000000000000000000000000000000000000 DUP2 MSTORE PUSH1 0x4 ADD PUSH2 0x987 SWAP1 PUSH2 0x3E18 JUMP JUMPDEST PUSH1 0x40 MLOAD DUP1 SWAP2 SUB SWAP1 REVERT JUMPDEST DUP1 PUSH1 0x1 SWAP1 DUP1 MLOAD SWAP1 PUSH1 0x20 ADD SWAP1 PUSH2 0x9A6 SWAP3 SWAP2 SWAP1 PUSH2 0x2B51 JUMP JUMPDEST POP POP JUMP JUMPDEST PUSH1 0x60 PUSH1 0x0 PUSH2 0xAA3 DUP6 DUP6 DUP6 PUSH1 0x1 DUP1 SLOAD DUP1 PUSH1 0x20 MUL PUSH1 0x20 ADD PUSH1 0x40 MLOAD SWAP1 DUP2 ADD PUSH1 0x40 MSTORE DUP1 SWAP3 SWAP2 SWAP1 DUP2 DUP2 MSTORE PUSH1 0x20 ADD PUSH1 0x0 SWAP1 JUMPDEST DUP3 DUP3 LT ISZERO PUSH2 0xA82 JUMPI DUP4 DUP3 SWAP1 PUSH1 0x0 MSTORE PUSH1 0x20 PUSH1 0x0 KECCAK256 ADD DUP1 SLOAD PUSH2 0x9F5 SWAP1 PUSH2 0x3C35 JUMP JUMPDEST DUP1 PUSH1 0x1F ADD PUSH1 0x20 DUP1 SWAP2 DIV MUL PUSH1 0x20 ADD PUSH1 0x40 MLOAD SWAP1 DUP2 ADD PUSH1 0x40 MSTORE DUP1 SWAP3 SWAP2 SWAP1 DUP2 DUP2 MSTORE PUSH1 0x20 ADD DUP3 DUP1 SLOAD PUSH2 0xA21 SWAP1 PUSH2 0x3C35 JUMP JUMPDEST DUP1 ISZERO PUSH2 0xA6E JUMPI DUP1 PUSH1 0x1F LT PUSH2 0xA43 JUMPI PUSH2 0x100 DUP1 DUP4 SLOAD DIV MUL DUP4 MSTORE SWAP2 PUSH1 0x20 ADD SWAP2 PUSH2 0xA6E JUMP JUMPDEST DUP3 ADD SWAP2 SWAP1 PUSH1 0x0 MSTORE PUSH1 0x20 PUSH1 0x0 KECCAK256 SWAP1 JUMPDEST DUP2 SLOAD DUP2 MSTORE SWAP1 PUSH1 0x1 ADD SWAP1 PUSH1 0x20 ADD DUP1 DUP4 GT PUSH2 0xA51 JUMPI DUP3 SWAP1 SUB PUSH1 0x1F AND DUP3 ADD SWAP2 JUMPDEST POP POP POP POP POP DUP2 MSTORE PUSH1 0x20 ADD SWAP1 PUSH1 0x1 ADD SWAP1 PUSH2 0x9D6 JUMP JUMPDEST POP POP POP POP PUSH4 0xE0A85412 PUSH1 0xE0 SHL PUSH1 0x40 MLOAD DUP1 PUSH1 0x20 ADD PUSH1 0x40 MSTORE DUP1 PUSH1 0x0 DUP2 MSTORE POP PUSH2 0x847 JUMP JUMPDEST SWAP2 POP SWAP2 POP SWAP4 POP SWAP4 SWAP2 POP POP JUMP JUMPDEST PUSH1 0x0 DUP1 PUSH1 0x0 DUP1 PUSH1 0x0 DUP1 PUSH2 0xAC4 DUP9 DUP9 PUSH1 0x0 PUSH2 0x1859 JUMP JUMPDEST SWAP3 POP SWAP3 POP SWAP3 POP DUP3 DUP3 DUP3 SWAP6 POP SWAP6 POP SWAP6 POP POP POP POP SWAP3 POP SWAP3 POP SWAP3 JUMP JUMPDEST PUSH1 0x1 DUP2 DUP2 SLOAD DUP2 LT PUSH2 0xAED JUMPI PUSH1 0x0 DUP1 REVERT JUMPDEST SWAP1 PUSH1 0x0 MSTORE PUSH1 0x20 PUSH1 0x0 KECCAK256 ADD PUSH1 0x0 SWAP2 POP SWAP1 POP DUP1 SLOAD PUSH2 0xB08 SWAP1 PUSH2 0x3C35 JUMP JUMPDEST DUP1 PUSH1 0x1F ADD PUSH1 0x20 DUP1 SWAP2 DIV MUL PUSH1 0x20 ADD PUSH1 0x40 MLOAD SWAP1 DUP2 ADD PUSH1 0x40 MSTORE DUP1 SWAP3 SWAP2 SWAP1 DUP2 DUP2 MSTORE PUSH1 0x20 ADD DUP3 DUP1 SLOAD PUSH2 0xB34 SWAP1 PUSH2 0x3C35 JUMP JUMPDEST DUP1 ISZERO PUSH2 0xB81 JUMPI DUP1 PUSH1 0x1F LT PUSH2 0xB56 JUMPI PUSH2 0x100 DUP1 DUP4 SLOAD DIV MUL DUP4 MSTORE SWAP2 PUSH1 0x20 ADD SWAP2 PUSH2 0xB81 JUMP JUMPDEST DUP3 ADD SWAP2 SWAP1 PUSH1 0x0 MSTORE PUSH1 0x20 PUSH1 0x0 KECCAK256 SWAP1 JUMPDEST DUP2 SLOAD DUP2 MSTORE SWAP1 PUSH1 0x1 ADD SWAP1 PUSH1 0x20 ADD DUP1 DUP4 GT PUSH2 0xB64 JUMPI DUP3 SWAP1 SUB PUSH1 0x1F AND DUP3 ADD SWAP2 JUMPDEST POP POP POP POP POP DUP2 JUMP JUMPDEST PUSH1 0x60 PUSH1 0x0 DUP1 PUSH1 0x0 DUP1 PUSH2 0xBE9 PUSH1 0x0 DUP10 DUP10 DUP1 DUP1 PUSH1 0x1F ADD PUSH1 0x20 DUP1 SWAP2 DIV MUL PUSH1 0x20 ADD PUSH1 0x40 MLOAD SWAP1 DUP2 ADD PUSH1 0x40 MSTORE DUP1 SWAP4 SWAP3 SWAP2 SWAP1 DUP2 DUP2 MSTORE PUSH1 0x20 ADD DUP4 DUP4 DUP1 DUP3 DUP5 CALLDATACOPY PUSH1 0x0 DUP2 DUP5 ADD MSTORE PUSH1 0x1F NOT PUSH1 0x1F DUP3 ADD AND SWAP1 POP DUP1 DUP4 ADD SWAP3 POP POP POP POP POP POP POP PUSH2 0x1B82 SWAP1 SWAP2 SWAP1 PUSH4 0xFFFFFFFF AND JUMP JUMPDEST PUSH1 0x40 MLOAD PUSH1 0x24 ADD PUSH2 0xBF9 SWAP2 SWAP1 PUSH2 0x3E38 JUMP JUMPDEST PUSH1 0x40 MLOAD PUSH1 0x20 DUP2 DUP4 SUB SUB DUP2 MSTORE SWAP1 PUSH1 0x40 MSTORE PUSH4 0x691F3431 PUSH1 0xE0 SHL PUSH1 0x20 DUP3 ADD DUP1 MLOAD PUSH28 0xFFFFFFFFFFFFFFFFFFFFFFFFFFFFFFFFFFFFFFFFFFFFFFFFFFFFFFFF DUP4 DUP2 DUP4 AND OR DUP4 MSTORE POP POP POP POP SWAP1 POP PUSH1 0x0 DUP1 PUSH2 0xC67 DUP11 DUP11 DUP6 DUP12 PUSH4 0x6DC4FB73 PUSH1 0xE0 SHL PUSH1 0x40 MLOAD DUP1 PUSH1 0x20 ADD PUSH1 0x40 MSTORE DUP1 PUSH1 0x0 DUP2 MSTORE POP PUSH2 0x847 JUMP JUMPDEST SWAP2 POP SWAP2 POP PUSH2 0xC76 DUP3 DUP3 DUP11 PUSH2 0x14E7 JUMP JUMPDEST SWAP7 POP SWAP7 POP SWAP7 POP SWAP7 POP POP POP POP SWAP4 POP SWAP4 POP SWAP4 POP SWAP4 JUMP JUMPDEST PUSH1 0x60 PUSH1 0x0 DUP1 PUSH1 0x0 PUSH2 0xCA5 DUP9 DUP9 DUP9 DUP9 PUSH4 0xB4A85801 PUSH1 0xE0 SHL PUSH2 0x1022 JUMP JUMPDEST POP POP SWAP2 POP SWAP2 POP DUP2 DUP2 SWAP4 POP SWAP4 POP POP POP SWAP5 POP SWAP5 SWAP3 POP POP POP JUMP JUMPDEST PUSH1 0x60 PUSH1 0x0 DUP1 PUSH1 0x0 PUSH2 0xCD7 DUP9 DUP9 DUP9 DUP9 PUSH4 0xE0A85412 PUSH1 0xE0 SHL PUSH2 0x1022 JUMP JUMPDEST POP POP SWAP2 POP SWAP2 POP PUSH1 0x0 DUP3 PUSH1 0x0 DUP2 MLOAD DUP2 LT PUSH2 0xCF3 JUMPI PUSH2 0xCF2 PUSH2 0x3C66 JUMP JUMPDEST JUMPDEST PUSH1 0x20 MUL PUSH1 0x20 ADD ADD MLOAD SWAP1 POP PUSH2 0xD06 DUP2 PUSH2 0x1430 JUMP JUMPDEST DUP1 PUSH1 0x20 ADD MLOAD DUP3 SWAP5 POP SWAP5 POP POP POP POP SWAP5 POP SWAP5 SWAP3 POP POP POP JUMP JUMPDEST PUSH1 0x60 PUSH1 0x0 DUP1 PUSH1 0x0 PUSH2 0xDFF DUP7 DUP7 PUSH1 0x1 DUP1 SLOAD DUP1 PUSH1 0x20 MUL PUSH1 0x20 ADD PUSH1 0x40 MLOAD SWAP1 DUP2 ADD PUSH1 0x40 MSTORE DUP1 SWAP3 SWAP2 SWAP1 DUP2 DUP2 MSTORE PUSH1 0x20 ADD PUSH1 0x0 SWAP1 JUMPDEST DUP3 DUP3 LT ISZERO PUSH2 0xDF6 JUMPI DUP4 DUP3 SWAP1 PUSH1 0x0 MSTORE PUSH1 0x20 PUSH1 0x0 KECCAK256 ADD DUP1 SLOAD PUSH2 0xD69 SWAP1 PUSH2 0x3C35 JUMP JUMPDEST DUP1 PUSH1 0x1F ADD PUSH1 0x20 DUP1 SWAP2 DIV MUL PUSH1 0x20 ADD PUSH1 0x40 MLOAD SWAP1 DUP2 ADD PUSH1 0x40 MSTORE DUP1 SWAP3 SWAP2 SWAP1 DUP2 DUP2 MSTORE PUSH1 0x20 ADD DUP3 DUP1 SLOAD PUSH2 0xD95 SWAP1 PUSH2 0x3C35 JUMP JUMPDEST DUP1 ISZERO PUSH2 0xDE2 JUMPI DUP1 PUSH1 0x1F LT PUSH2 0xDB7 JUMPI PUSH2 0x100 DUP1 DUP4 SLOAD DIV MUL DUP4 MSTORE SWAP2 PUSH1 0x20 ADD SWAP2 PUSH2 0xDE2 JUMP JUMPDEST DUP3 ADD SWAP2 SWAP1 PUSH1 0x0 MSTORE PUSH1 0x20 PUSH1 0x0 KECCAK256 SWAP1 JUMPDEST DUP2 SLOAD DUP2 MSTORE SWAP1 PUSH1 0x1 ADD SWAP1 PUSH1 0x20 ADD DUP1 DUP4 GT PUSH2 0xDC5 JUMPI DUP3 SWAP1 SUB PUSH1 0x1F AND DUP3 ADD SWAP2 JUMPDEST POP POP POP POP POP DUP2 MSTORE PUSH1 0x20 ADD SWAP1 PUSH1 0x1 ADD SWAP1 PUSH2 0xD4A JUMP JUMPDEST POP POP POP POP PUSH2 0xB89 JUMP JUMPDEST SWAP4 POP SWAP4 POP SWAP4 POP SWAP4 POP SWAP3 SWAP6 SWAP2 SWAP5 POP SWAP3 POP JUMP JUMPDEST PUSH2 0xE18 PUSH2 0x165F JUMP JUMPDEST PUSH20 0xFFFFFFFFFFFFFFFFFFFFFFFFFFFFFFFFFFFFFFFF AND PUSH2 0xE36 PUSH2 0x81E JUMP JUMPDEST PUSH20 0xFFFFFFFFFFFFFFFFFFFFFFFFFFFFFFFFFFFFFFFF AND EQ PUSH2 0xE8C JUMPI PUSH1 0x40 MLOAD PUSH32 0x8C379A000000000000000000000000000000000000000000000000000000000 DUP2 MSTORE PUSH1 0x4 ADD PUSH2 0xE83 SWAP1 PUSH2 0x3E18 JUMP JUMPDEST PUSH1 0x40 MLOAD DUP1 SWAP2 SUB SWAP1 REVERT JUMPDEST PUSH1 0x0 PUSH20 0xFFFFFFFFFFFFFFFFFFFFFFFFFFFFFFFFFFFFFFFF AND DUP2 PUSH20 0xFFFFFFFFFFFFFFFFFFFFFFFFFFFFFFFFFFFFFFFF AND SUB PUSH2 0xEFB JUMPI PUSH1 0x40 MLOAD PUSH32 0x8C379A000000000000000000000000000000000000000000000000000000000 DUP2 MSTORE PUSH1 0x4 ADD PUSH2 0xEF2 SWAP1 PUSH2 0x3EC5 JUMP JUMPDEST PUSH1 0x40 MLOAD DUP1 SWAP2 SUB SWAP1 REVERT JUMPDEST DUP1 PUSH20 0xFFFFFFFFFFFFFFFFFFFFFFFFFFFFFFFFFFFFFFFF AND PUSH1 0x0 DUP1 SLOAD SWAP1 PUSH2 0x100 EXP SWAP1 DIV PUSH20 0xFFFFFFFFFFFFFFFFFFFFFFFFFFFFFFFFFFFFFFFF AND PUSH20 0xFFFFFFFFFFFFFFFFFFFFFFFFFFFFFFFFFFFFFFFF AND PUSH32 0x8BE0079C531659141344CD1FD0A4F28419497F9722A3DAAFE3B4186F6B6457E0 PUSH1 0x40 MLOAD PUSH1 0x40 MLOAD DUP1 SWAP2 SUB SWAP1 LOG3 DUP1 PUSH1 0x0 DUP1 PUSH2 0x100 EXP DUP2 SLOAD DUP2 PUSH20 0xFFFFFFFFFFFFFFFFFFFFFFFFFFFFFFFFFFFFFFFF MUL NOT AND SWAP1 DUP4 PUSH20 0xFFFFFFFFFFFFFFFFFFFFFFFFFFFFFFFFFFFFFFFF AND MUL OR SWAP1 SSTORE POP POP JUMP JUMPDEST PUSH1 0x0 PUSH32 0x1FFC9A700000000000000000000000000000000000000000000000000000000 PUSH28 0xFFFFFFFFFFFFFFFFFFFFFFFFFFFFFFFFFFFFFFFFFFFFFFFFFFFFFFFF NOT AND DUP3 PUSH28 0xFFFFFFFFFFFFFFFFFFFFFFFFFFFFFFFFFFFFFFFFFFFFFFFFFFFFFFFF NOT AND EQ SWAP1 POP SWAP2 SWAP1 POP JUMP JUMPDEST PUSH1 0x60 PUSH1 0x0 PUSH1 0x60 DUP1 PUSH2 0x1031 PUSH2 0x2BAA JUMP JUMPDEST DUP6 DUP2 PUSH1 0x60 ADD SWAP1 PUSH28 0xFFFFFFFFFFFFFFFFFFFFFFFFFFFFFFFFFFFFFFFFFFFFFFFFFFFFFFFF NOT AND SWAP1 DUP2 PUSH28 0xFFFFFFFFFFFFFFFFFFFFFFFFFFFFFFFFFFFFFFFFFFFFFFFFFFFFFFFF NOT AND DUP2 MSTORE POP POP PUSH1 0x0 DUP1 DUP12 DUP12 DUP2 ADD SWAP1 PUSH2 0x108D SWAP2 SWAP1 PUSH2 0x3FD4 JUMP JUMPDEST SWAP2 POP SWAP2 POP PUSH1 0x60 DUP11 DUP11 DUP2 ADD SWAP1 PUSH2 0x10A2 SWAP2 SWAP1 PUSH2 0x41B8 JUMP JUMPDEST DUP9 PUSH1 0x80 ADD DUP10 PUSH1 0xA0 ADD DUP11 PUSH1 0x40 ADD DUP12 PUSH1 0xC0 ADD DUP5 SWAP10 POP DUP6 SWAP1 MSTORE DUP6 SWAP1 MSTORE DUP6 PUSH20 0xFFFFFFFFFFFFFFFFFFFFFFFFFFFFFFFFFFFFFFFF AND PUSH20 0xFFFFFFFFFFFFFFFFFFFFFFFFFFFFFFFFFFFFFFFF AND DUP2 MSTORE POP DUP6 ISZERO ISZERO ISZERO ISZERO DUP2 MSTORE POP POP POP POP POP POP DUP1 MLOAD DUP3 MLOAD GT ISZERO PUSH2 0x1107 JUMPI PUSH1 0x0 DUP1 REVERT JUMPDEST DUP1 MLOAD PUSH8 0xFFFFFFFFFFFFFFFF DUP2 GT ISZERO PUSH2 0x1122 JUMPI PUSH2 0x1121 PUSH2 0x2E9B JUMP JUMPDEST JUMPDEST PUSH1 0x40 MLOAD SWAP1 DUP1 DUP3 MSTORE DUP1 PUSH1 0x20 MUL PUSH1 0x20 ADD DUP3 ADD PUSH1 0x40 MSTORE DUP1 ISZERO PUSH2 0x1155 JUMPI DUP2 PUSH1 0x20 ADD JUMPDEST PUSH1 0x60 DUP2 MSTORE PUSH1 0x20 ADD SWAP1 PUSH1 0x1 SWAP1 SUB SWAP1 DUP2 PUSH2 0x1140 JUMPI SWAP1 POP JUMPDEST POP DUP5 PUSH1 0x20 ADD DUP2 SWAP1 MSTORE POP DUP1 MLOAD PUSH8 0xFFFFFFFFFFFFFFFF DUP2 GT ISZERO PUSH2 0x1179 JUMPI PUSH2 0x1178 PUSH2 0x2E9B JUMP JUMPDEST JUMPDEST PUSH1 0x40 MLOAD SWAP1 DUP1 DUP3 MSTORE DUP1 PUSH1 0x20 MUL PUSH1 0x20 ADD DUP3 ADD PUSH1 0x40 MSTORE DUP1 ISZERO PUSH2 0x11A7 JUMPI DUP2 PUSH1 0x20 ADD PUSH1 0x20 DUP3 MUL DUP1 CALLDATASIZE DUP4 CALLDATACOPY DUP1 DUP3 ADD SWAP2 POP POP SWAP1 POP JUMPDEST POP DUP5 PUSH1 0xE0 ADD DUP2 SWAP1 MSTORE POP PUSH1 0x0 DUP1 JUMPDEST DUP3 MLOAD DUP2 LT ISZERO PUSH2 0x13FE JUMPI PUSH1 0x0 PUSH1 0xE0 SHL PUSH28 0xFFFFFFFFFFFFFFFFFFFFFFFFFFFFFFFFFFFFFFFFFFFFFFFFFFFFFFFF NOT AND DUP4 DUP3 DUP2 MLOAD DUP2 LT PUSH2 0x11F4 JUMPI PUSH2 0x11F3 PUSH2 0x3C66 JUMP JUMPDEST JUMPDEST PUSH1 0x20 MUL PUSH1 0x20 ADD ADD MLOAD PUSH1 0x0 ADD MLOAD PUSH28 0xFFFFFFFFFFFFFFFFFFFFFFFFFFFFFFFFFFFFFFFFFFFFFFFFFFFFFFFF NOT AND SUB PUSH2 0x126A JUMPI DUP3 DUP2 DUP2 MLOAD DUP2 LT PUSH2 0x1237 JUMPI PUSH2 0x1236 PUSH2 0x3C66 JUMP JUMPDEST JUMPDEST PUSH1 0x20 MUL PUSH1 0x20 ADD ADD MLOAD PUSH1 0x20 ADD MLOAD DUP7 PUSH1 0x20 ADD MLOAD DUP3 DUP2 MLOAD DUP2 LT PUSH2 0x125A JUMPI PUSH2 0x1259 PUSH2 0x3C66 JUMP JUMPDEST JUMPDEST PUSH1 0x20 MUL PUSH1 0x20 ADD ADD DUP2 SWAP1 MSTORE POP PUSH2 0x13F1 JUMP JUMPDEST DUP5 DUP3 DUP2 MLOAD DUP2 LT PUSH2 0x127D JUMPI PUSH2 0x127C PUSH2 0x3C66 JUMP JUMPDEST JUMPDEST PUSH1 0x20 MUL PUSH1 0x20 ADD ADD MLOAD ISZERO PUSH2 0x12F7 JUMPI PUSH1 0x1 DUP7 PUSH1 0xE0 ADD MLOAD DUP3 DUP2 MLOAD DUP2 LT PUSH2 0x12A3 JUMPI PUSH2 0x12A2 PUSH2 0x3C66 JUMP JUMPDEST JUMPDEST PUSH1 0x20 MUL PUSH1 0x20 ADD ADD SWAP1 ISZERO ISZERO SWAP1 DUP2 ISZERO ISZERO DUP2 MSTORE POP POP DUP4 DUP3 DUP2 MLOAD DUP2 LT PUSH2 0x12C8 JUMPI PUSH2 0x12C7 PUSH2 0x3C66 JUMP JUMPDEST JUMPDEST PUSH1 0x20 MUL PUSH1 0x20 ADD ADD MLOAD DUP7 PUSH1 0x20 ADD MLOAD DUP3 DUP2 MLOAD DUP2 LT PUSH2 0x12E7 JUMPI PUSH2 0x12E6 PUSH2 0x3C66 JUMP JUMPDEST JUMPDEST PUSH1 0x20 MUL PUSH1 0x20 ADD ADD DUP2 SWAP1 MSTORE POP PUSH2 0x13E1 JUMP JUMPDEST DUP3 DUP2 DUP2 MLOAD DUP2 LT PUSH2 0x130A JUMPI PUSH2 0x1309 PUSH2 0x3C66 JUMP JUMPDEST JUMPDEST PUSH1 0x20 MUL PUSH1 0x20 ADD ADD MLOAD PUSH1 0x0 ADD MLOAD DUP5 DUP4 DUP2 MLOAD DUP2 LT PUSH2 0x1329 JUMPI PUSH2 0x1328 PUSH2 0x3C66 JUMP JUMPDEST JUMPDEST PUSH1 0x20 MUL PUSH1 0x20 ADD ADD MLOAD DUP5 DUP4 DUP2 MLOAD DUP2 LT PUSH2 0x1344 JUMPI PUSH2 0x1343 PUSH2 0x3C66 JUMP JUMPDEST JUMPDEST PUSH1 0x20 MUL PUSH1 0x20 ADD ADD MLOAD PUSH1 0x20 ADD MLOAD PUSH1 0x40 MLOAD PUSH1 0x24 ADD PUSH2 0x1361 SWAP3 SWAP2 SWAP1 PUSH2 0x4287 JUMP JUMPDEST PUSH1 0x40 MLOAD PUSH1 0x20 DUP2 DUP4 SUB SUB DUP2 MSTORE SWAP1 PUSH1 0x40 MSTORE SWAP1 PUSH28 0xFFFFFFFFFFFFFFFFFFFFFFFFFFFFFFFFFFFFFFFFFFFFFFFFFFFFFFFF NOT AND PUSH1 0x20 DUP3 ADD DUP1 MLOAD PUSH28 0xFFFFFFFFFFFFFFFFFFFFFFFFFFFFFFFFFFFFFFFFFFFFFFFFFFFFFFFF DUP4 DUP2 DUP4 AND OR DUP4 MSTORE POP POP POP POP DUP7 PUSH1 0x20 ADD MLOAD DUP3 DUP2 MLOAD DUP2 LT PUSH2 0x13D5 JUMPI PUSH2 0x13D4 PUSH2 0x3C66 JUMP JUMPDEST JUMPDEST PUSH1 0x20 MUL PUSH1 0x20 ADD ADD DUP2 SWAP1 MSTORE POP JUMPDEST PUSH1 0x1 DUP3 PUSH2 0x13EE SWAP2 SWAP1 PUSH2 0x42ED JUMP JUMPDEST SWAP2 POP JUMPDEST DUP1 DUP1 PUSH1 0x1 ADD SWAP2 POP POP PUSH2 0x11B4 JUMP JUMPDEST POP PUSH2 0x1408 DUP6 PUSH2 0x1C38 JUMP JUMPDEST DUP6 PUSH1 0xA0 ADD MLOAD DUP7 PUSH1 0x40 ADD MLOAD DUP8 PUSH1 0xC0 ADD MLOAD SWAP9 POP SWAP9 POP SWAP9 POP SWAP9 POP POP POP POP POP POP SWAP6 POP SWAP6 POP SWAP6 POP SWAP6 SWAP2 POP POP JUMP JUMPDEST DUP1 PUSH1 0x0 ADD MLOAD PUSH2 0x14E4 JUMPI PUSH4 0xCA7A4E75 PUSH1 0xE0 SHL PUSH28 0xFFFFFFFFFFFFFFFFFFFFFFFFFFFFFFFFFFFFFFFFFFFFFFFFFFFFFFFF NOT AND DUP2 PUSH1 0x20 ADD MLOAD PUSH2 0x146E SWAP1 PUSH2 0x4353 JUMP JUMPDEST PUSH28 0xFFFFFFFFFFFFFFFFFFFFFFFFFFFFFFFFFFFFFFFFFFFFFFFFFFFFFFFF NOT AND SUB PUSH2 0x14A3 JUMPI PUSH1 0x0 DUP2 PUSH1 0x20 ADD MLOAD SWAP1 POP DUP1 MLOAD PUSH1 0x20 DUP3 ADD REVERT JUMPDEST DUP1 PUSH1 0x20 ADD MLOAD PUSH1 0x40 MLOAD PUSH32 0x95C0C75200000000000000000000000000000000000000000000000000000000 DUP2 MSTORE PUSH1 0x4 ADD PUSH2 0x14DB SWAP2 SWAP1 PUSH2 0x43BA JUMP JUMPDEST PUSH1 0x40 MLOAD DUP1 SWAP2 SUB SWAP1 REVERT JUMPDEST POP JUMP JUMPDEST PUSH1 0x60 PUSH1 0x0 DUP1 PUSH1 0x0 DUP1 DUP8 DUP1 PUSH1 0x20 ADD SWAP1 MLOAD DUP2 ADD SWAP1 PUSH2 0x1503 SWAP2 SWAP1 PUSH2 0x43DC JUMP JUMPDEST SWAP1 POP PUSH1 0x0 DUP1 PUSH2 0x1511 DUP4 PUSH2 0x2044 JUMP JUMPDEST SWAP2 POP SWAP2 POP PUSH1 0x0 DUP2 PUSH1 0x40 MLOAD PUSH1 0x24 ADD PUSH2 0x1528 SWAP2 SWAP1 PUSH2 0x3E38 JUMP JUMPDEST PUSH1 0x40 MLOAD PUSH1 0x20 DUP2 DUP4 SUB SUB DUP2 MSTORE SWAP1 PUSH1 0x40 MSTORE PUSH4 0x3B3B57DE PUSH1 0xE0 SHL PUSH1 0x20 DUP3 ADD DUP1 MLOAD PUSH28 0xFFFFFFFFFFFFFFFFFFFFFFFFFFFFFFFFFFFFFFFFFFFFFFFFFFFFFFFF DUP4 DUP2 DUP4 AND OR DUP4 MSTORE POP POP POP POP SWAP1 POP PUSH1 0x0 DUP5 DUP12 PUSH1 0x40 MLOAD PUSH1 0x20 ADD PUSH2 0x1584 SWAP3 SWAP2 SWAP1 PUSH2 0x4425 JUMP JUMPDEST PUSH1 0x40 MLOAD PUSH1 0x20 DUP2 DUP4 SUB SUB DUP2 MSTORE SWAP1 PUSH1 0x40 MSTORE SWAP1 POP PUSH1 0x0 DUP1 ADDRESS PUSH20 0xFFFFFFFFFFFFFFFFFFFFFFFFFFFFFFFFFFFFFFFF AND PUSH4 0x8E25A0F3 DUP8 DUP7 DUP16 PUSH4 0x6DC4FB73 PUSH1 0xE0 SHL DUP9 PUSH1 0x40 MLOAD DUP7 PUSH4 0xFFFFFFFF AND PUSH1 0xE0 SHL DUP2 MSTORE PUSH1 0x4 ADD PUSH2 0x15E0 SWAP6 SWAP5 SWAP4 SWAP3 SWAP2 SWAP1 PUSH2 0x4570 JUMP JUMPDEST PUSH1 0x0 PUSH1 0x40 MLOAD DUP1 DUP4 SUB DUP2 DUP7 GAS STATICCALL ISZERO DUP1 ISZERO PUSH2 0x15FD JUMPI RETURNDATASIZE PUSH1 0x0 DUP1 RETURNDATACOPY RETURNDATASIZE PUSH1 0x0 REVERT JUMPDEST POP POP POP POP PUSH1 0x40 MLOAD RETURNDATASIZE PUSH1 0x0 DUP3 RETURNDATACOPY RETURNDATASIZE PUSH1 0x1F NOT PUSH1 0x1F DUP3 ADD AND DUP3 ADD DUP1 PUSH1 0x40 MSTORE POP DUP2 ADD SWAP1 PUSH2 0x1626 SWAP2 SWAP1 PUSH2 0x4664 JUMP JUMPDEST SWAP2 POP SWAP2 POP PUSH1 0x0 DUP3 DUP1 PUSH1 0x20 ADD SWAP1 MLOAD DUP2 ADD SWAP1 PUSH2 0x1640 SWAP2 SWAP1 PUSH2 0x3D9F JUMP JUMPDEST SWAP1 POP DUP8 DUP2 DUP16 DUP5 SWAP12 POP SWAP12 POP SWAP12 POP SWAP12 POP POP POP POP POP POP POP POP POP SWAP4 POP SWAP4 POP SWAP4 POP SWAP4 JUMP JUMPDEST PUSH1 0x0 CALLER SWAP1 POP SWAP1 JUMP JUMPDEST PUSH1 0x60 PUSH1 0x0 DUP1 PUSH1 0x0 PUSH2 0x1678 DUP11 DUP11 PUSH2 0xAAF JUMP JUMPDEST SWAP3 POP POP SWAP2 POP DUP2 SWAP3 POP PUSH1 0x0 PUSH20 0xFFFFFFFFFFFFFFFFFFFFFFFFFFFFFFFFFFFFFFFF AND DUP4 PUSH20 0xFFFFFFFFFFFFFFFFFFFFFFFFFFFFFFFFFFFFFFFF AND SUB PUSH2 0x16E6 JUMPI PUSH1 0x40 MLOAD PUSH32 0x7199966D00000000000000000000000000000000000000000000000000000000 DUP2 MSTORE PUSH1 0x4 ADD PUSH1 0x40 MLOAD DUP1 SWAP2 SUB SWAP1 REVERT JUMPDEST PUSH2 0x1705 DUP4 PUSH20 0xFFFFFFFFFFFFFFFFFFFFFFFFFFFFFFFFFFFFFFFF AND PUSH2 0x2334 JUMP JUMPDEST PUSH2 0x173B JUMPI PUSH1 0x40 MLOAD PUSH32 0x4981AC0500000000000000000000000000000000000000000000000000000000 DUP2 MSTORE PUSH1 0x4 ADD PUSH1 0x40 MLOAD DUP1 SWAP2 SUB SWAP1 REVERT JUMPDEST PUSH1 0x0 DUP1 DUP3 EQ ISZERO SWAP1 POP PUSH2 0x1849 PUSH1 0x40 MLOAD DUP1 PUSH2 0x100 ADD PUSH1 0x40 MSTORE DUP1 DUP14 DUP14 DUP1 DUP1 PUSH1 0x1F ADD PUSH1 0x20 DUP1 SWAP2 DIV MUL PUSH1 0x20 ADD PUSH1 0x40 MLOAD SWAP1 DUP2 ADD PUSH1 0x40 MSTORE DUP1 SWAP4 SWAP3 SWAP2 SWAP1 DUP2 DUP2 MSTORE PUSH1 0x20 ADD DUP4 DUP4 DUP1 DUP3 DUP5 CALLDATACOPY PUSH1 0x0 DUP2 DUP5 ADD MSTORE PUSH1 0x1F NOT PUSH1 0x1F DUP3 ADD AND SWAP1 POP DUP1 DUP4 ADD SWAP3 POP POP POP POP POP POP POP DUP2 MSTORE PUSH1 0x20 ADD DUP12 DUP2 MSTORE PUSH1 0x20 ADD DUP11 DUP2 MSTORE PUSH1 0x20 ADD DUP10 PUSH28 0xFFFFFFFFFFFFFFFFFFFFFFFFFFFFFFFFFFFFFFFFFFFFFFFFFFFFFFFF NOT AND DUP2 MSTORE PUSH1 0x20 ADD DUP4 ISZERO ISZERO DUP2 MSTORE PUSH1 0x20 ADD DUP7 PUSH20 0xFFFFFFFFFFFFFFFFFFFFFFFFFFFFFFFFFFFFFFFF AND DUP2 MSTORE PUSH1 0x20 ADD DUP9 DUP2 MSTORE PUSH1 0x20 ADD DUP12 MLOAD PUSH8 0xFFFFFFFFFFFFFFFF DUP2 GT ISZERO PUSH2 0x1812 JUMPI PUSH2 0x1811 PUSH2 0x2E9B JUMP JUMPDEST JUMPDEST PUSH1 0x40 MLOAD SWAP1 DUP1 DUP3 MSTORE DUP1 PUSH1 0x20 MUL PUSH1 0x20 ADD DUP3 ADD PUSH1 0x40 MSTORE DUP1 ISZERO PUSH2 0x1840 JUMPI DUP2 PUSH1 0x20 ADD PUSH1 0x20 DUP3 MUL DUP1 CALLDATASIZE DUP4 CALLDATACOPY DUP1 DUP3 ADD SWAP2 POP POP SWAP1 POP JUMPDEST POP DUP2 MSTORE POP PUSH2 0x1C38 JUMP JUMPDEST SWAP5 POP POP POP POP SWAP7 POP SWAP7 SWAP5 POP POP POP POP POP JUMP JUMPDEST PUSH1 0x0 DUP1 PUSH1 0x0 DUP1 DUP7 DUP7 DUP7 DUP2 DUP2 LT PUSH2 0x1872 JUMPI PUSH2 0x1871 PUSH2 0x3C66 JUMP JUMPDEST JUMPDEST SWAP1 POP ADD CALLDATALOAD PUSH1 0xF8 SHR PUSH1 0xF8 SHL PUSH1 0xF8 SHR PUSH1 0xFF AND SWAP1 POP PUSH1 0x0 DUP2 SUB PUSH2 0x189F JUMPI PUSH1 0x0 DUP1 PUSH1 0x0 SHL DUP7 SWAP4 POP SWAP4 POP SWAP4 POP POP PUSH2 0x1B79 JUMP JUMPDEST PUSH1 0x0 PUSH1 0x1 DUP3 DUP8 PUSH2 0x18AF SWAP2 SWAP1 PUSH2 0x42ED JUMP JUMPDEST PUSH2 0x18B9 SWAP2 SWAP1 PUSH2 0x42ED JUMP JUMPDEST SWAP1 POP PUSH1 0x0 PUSH1 0x42 DUP4 EQ DUP1 ISZERO PUSH2 0x191A JUMPI POP PUSH1 0x5B PUSH1 0xF8 SHL DUP10 DUP10 PUSH1 0x1 DUP11 PUSH2 0x18DC SWAP2 SWAP1 PUSH2 0x42ED JUMP JUMPDEST DUP2 DUP2 LT PUSH2 0x18EC JUMPI PUSH2 0x18EB PUSH2 0x3C66 JUMP JUMPDEST JUMPDEST SWAP1 POP ADD CALLDATALOAD PUSH1 0xF8 SHR PUSH1 0xF8 SHL PUSH31 0xFFFFFFFFFFFFFFFFFFFFFFFFFFFFFFFFFFFFFFFFFFFFFFFFFFFFFFFFFFFFFF NOT AND EQ JUMPDEST DUP1 ISZERO PUSH2 0x1973 JUMPI POP PUSH1 0x5D PUSH1 0xF8 SHL DUP10 DUP10 PUSH1 0x1 DUP6 PUSH2 0x1935 SWAP2 SWAP1 PUSH2 0x46C0 JUMP JUMPDEST DUP2 DUP2 LT PUSH2 0x1945 JUMPI PUSH2 0x1944 PUSH2 0x3C66 JUMP JUMPDEST JUMPDEST SWAP1 POP ADD CALLDATALOAD PUSH1 0xF8 SHR PUSH1 0xF8 SHL PUSH31 0xFFFFFFFFFFFFFFFFFFFFFFFFFFFFFFFFFFFFFFFFFFFFFFFFFFFFFFFFFFFFFF NOT AND EQ JUMPDEST ISZERO PUSH2 0x1A05 JUMPI PUSH2 0x19FB PUSH1 0x0 PUSH1 0x40 DUP12 DUP12 PUSH1 0x2 DUP13 PUSH2 0x198E SWAP2 SWAP1 PUSH2 0x42ED JUMP JUMPDEST SWAP1 PUSH1 0x1 DUP9 PUSH2 0x199C SWAP2 SWAP1 PUSH2 0x46C0 JUMP JUMPDEST SWAP3 PUSH2 0x19A9 SWAP4 SWAP3 SWAP2 SWAP1 PUSH2 0x46FE JUMP JUMPDEST DUP1 DUP1 PUSH1 0x1F ADD PUSH1 0x20 DUP1 SWAP2 DIV MUL PUSH1 0x20 ADD PUSH1 0x40 MLOAD SWAP1 DUP2 ADD PUSH1 0x40 MSTORE DUP1 SWAP4 SWAP3 SWAP2 SWAP1 DUP2 DUP2 MSTORE PUSH1 0x20 ADD DUP4 DUP4 DUP1 DUP3 DUP5 CALLDATACOPY PUSH1 0x0 DUP2 DUP5 ADD MSTORE PUSH1 0x1F NOT PUSH1 0x1F DUP3 ADD AND SWAP1 POP DUP1 DUP4 ADD SWAP3 POP POP POP POP POP POP POP PUSH2 0x2347 SWAP1 SWAP3 SWAP2 SWAP1 PUSH4 0xFFFFFFFF AND JUMP JUMPDEST POP DUP1 SWAP2 POP POP PUSH2 0x1A3C JUMP JUMPDEST DUP9 DUP9 PUSH1 0x1 DUP10 PUSH2 0x1A14 SWAP2 SWAP1 PUSH2 0x42ED JUMP JUMPDEST SWAP1 DUP5 SWAP3 PUSH2 0x1A23 SWAP4 SWAP3 SWAP2 SWAP1 PUSH2 0x46FE JUMP JUMPDEST PUSH1 0x40 MLOAD PUSH2 0x1A31 SWAP3 SWAP2 SWAP1 PUSH2 0x4769 JUMP JUMPDEST PUSH1 0x40 MLOAD DUP1 SWAP2 SUB SWAP1 KECCAK256 SWAP1 POP JUMPDEST PUSH1 0x0 DUP1 PUSH1 0x0 PUSH2 0x1A4C DUP13 DUP13 DUP8 PUSH2 0x1859 JUMP JUMPDEST SWAP3 POP SWAP3 POP SWAP3 POP PUSH1 0x0 DUP3 DUP6 PUSH1 0x40 MLOAD PUSH1 0x20 ADD PUSH2 0x1A67 SWAP3 SWAP2 SWAP1 PUSH2 0x47A3 JUMP JUMPDEST PUSH1 0x40 MLOAD PUSH1 0x20 DUP2 DUP4 SUB SUB DUP2 MSTORE SWAP1 PUSH1 0x40 MSTORE DUP1 MLOAD SWAP1 PUSH1 0x20 ADD KECCAK256 SWAP1 POP PUSH1 0x0 PUSH32 0x0 PUSH20 0xFFFFFFFFFFFFFFFFFFFFFFFFFFFFFFFFFFFFFFFF AND PUSH4 0x178B8BF DUP4 PUSH1 0x40 MLOAD DUP3 PUSH4 0xFFFFFFFF AND PUSH1 0xE0 SHL DUP2 MSTORE PUSH1 0x4 ADD PUSH2 0x1ADA SWAP2 SWAP1 PUSH2 0x3E38 JUMP JUMPDEST PUSH1 0x20 PUSH1 0x40 MLOAD DUP1 DUP4 SUB DUP2 DUP7 GAS STATICCALL ISZERO DUP1 ISZERO PUSH2 0x1AF7 JUMPI RETURNDATASIZE PUSH1 0x0 DUP1 RETURNDATACOPY RETURNDATASIZE PUSH1 0x0 REVERT JUMPDEST POP POP POP POP PUSH1 0x40 MLOAD RETURNDATASIZE PUSH1 0x1F NOT PUSH1 0x1F DUP3 ADD AND DUP3 ADD DUP1 PUSH1 0x40 MSTORE POP DUP2 ADD SWAP1 PUSH2 0x1B1B SWAP2 SWAP1 PUSH2 0x47CF JUMP JUMPDEST SWAP1 POP PUSH1 0x0 PUSH20 0xFFFFFFFFFFFFFFFFFFFFFFFFFFFFFFFFFFFFFFFF AND DUP2 PUSH20 0xFFFFFFFFFFFFFFFFFFFFFFFFFFFFFFFFFFFFFFFF AND EQ PUSH2 0x1B67 JUMPI DUP1 DUP3 DUP14 SWAP11 POP SWAP11 POP SWAP11 POP POP POP POP POP POP POP POP POP PUSH2 0x1B79 JUMP JUMPDEST DUP5 DUP3 DUP5 SWAP11 POP SWAP11 POP SWAP11 POP POP POP POP POP POP POP POP POP JUMPDEST SWAP4 POP SWAP4 POP SWAP4 SWAP1 POP JUMP JUMPDEST PUSH1 0x0 DUP1 PUSH1 0x0 PUSH2 0x1B91 DUP6 DUP6 PUSH2 0x23B1 JUMP JUMPDEST SWAP2 POP SWAP2 POP PUSH1 0x0 DUP1 SHL DUP3 SUB PUSH2 0x1BFB JUMPI PUSH1 0x1 DUP6 MLOAD PUSH2 0x1BAD SWAP2 SWAP1 PUSH2 0x46C0 JUMP JUMPDEST DUP5 EQ PUSH2 0x1BEE JUMPI PUSH1 0x40 MLOAD PUSH32 0x8C379A000000000000000000000000000000000000000000000000000000000 DUP2 MSTORE PUSH1 0x4 ADD PUSH2 0x1BE5 SWAP1 PUSH2 0x4848 JUMP JUMPDEST PUSH1 0x40 MLOAD DUP1 SWAP2 SUB SWAP1 REVERT JUMPDEST PUSH1 0x0 DUP1 SHL SWAP3 POP POP POP PUSH2 0x1C32 JUMP JUMPDEST PUSH2 0x1C05 DUP6 DUP3 PUSH2 0x1B82 JUMP JUMPDEST DUP3 PUSH1 0x40 MLOAD PUSH1 0x20 ADD PUSH2 0x1C17 SWAP3 SWAP2 SWAP1 PUSH2 0x47A3 JUMP JUMPDEST PUSH1 0x40 MLOAD PUSH1 0x20 DUP2 DUP4 SUB SUB DUP2 MSTORE SWAP1 PUSH1 0x40 MSTORE DUP1 MLOAD SWAP1 PUSH1 0x20 ADD KECCAK256 SWAP3 POP POP POP JUMPDEST SWAP3 SWAP2 POP POP JUMP JUMPDEST PUSH1 0x60 PUSH1 0x0 DUP3 PUSH1 0x20 ADD MLOAD MLOAD SWAP1 POP PUSH1 0x0 DUP1 DUP3 PUSH8 0xFFFFFFFFFFFFFFFF DUP2 GT ISZERO PUSH2 0x1C61 JUMPI PUSH2 0x1C60 PUSH2 0x2E9B JUMP JUMPDEST JUMPDEST PUSH1 0x40 MLOAD SWAP1 DUP1 DUP3 MSTORE DUP1 PUSH1 0x20 MUL PUSH1 0x20 ADD DUP3 ADD PUSH1 0x40 MSTORE DUP1 ISZERO PUSH2 0x1C9A JUMPI DUP2 PUSH1 0x20 ADD JUMPDEST PUSH2 0x1C87 PUSH2 0x2C26 JUMP JUMPDEST DUP2 MSTORE PUSH1 0x20 ADD SWAP1 PUSH1 0x1 SWAP1 SUB SWAP1 DUP2 PUSH2 0x1C7F JUMPI SWAP1 POP JUMPDEST POP SWAP1 POP PUSH1 0x0 DUP4 PUSH8 0xFFFFFFFFFFFFFFFF DUP2 GT ISZERO PUSH2 0x1CB9 JUMPI PUSH2 0x1CB8 PUSH2 0x2E9B JUMP JUMPDEST JUMPDEST PUSH1 0x40 MLOAD SWAP1 DUP1 DUP3 MSTORE DUP1 PUSH1 0x20 MUL PUSH1 0x20 ADD DUP3 ADD PUSH1 0x40 MSTORE DUP1 ISZERO PUSH2 0x1CF2 JUMPI DUP2 PUSH1 0x20 ADD JUMPDEST PUSH2 0x1CDF PUSH2 0x2C5D JUMP JUMPDEST DUP2 MSTORE PUSH1 0x20 ADD SWAP1 PUSH1 0x1 SWAP1 SUB SWAP1 DUP2 PUSH2 0x1CD7 JUMPI SWAP1 POP JUMPDEST POP SWAP1 POP DUP4 PUSH8 0xFFFFFFFFFFFFFFFF DUP2 GT ISZERO PUSH2 0x1D0F JUMPI PUSH2 0x1D0E PUSH2 0x2E9B JUMP JUMPDEST JUMPDEST PUSH1 0x40 MLOAD SWAP1 DUP1 DUP3 MSTORE DUP1 PUSH1 0x20 MUL PUSH1 0x20 ADD DUP3 ADD PUSH1 0x40 MSTORE DUP1 ISZERO PUSH2 0x1D48 JUMPI DUP2 PUSH1 0x20 ADD JUMPDEST PUSH2 0x1D35 PUSH2 0x2C96 JUMP JUMPDEST DUP2 MSTORE PUSH1 0x20 ADD SWAP1 PUSH1 0x1 SWAP1 SUB SWAP1 DUP2 PUSH2 0x1D2D JUMPI SWAP1 POP JUMPDEST POP SWAP5 POP PUSH1 0x0 PUSH2 0x1D56 DUP8 PUSH2 0x246F JUMP JUMPDEST SWAP1 POP PUSH1 0x0 JUMPDEST DUP6 DUP2 LT ISZERO PUSH2 0x1F30 JUMPI PUSH1 0x0 DUP9 PUSH1 0x20 ADD MLOAD DUP3 DUP2 MLOAD DUP2 LT PUSH2 0x1D7C JUMPI PUSH2 0x1D7B PUSH2 0x3C66 JUMP JUMPDEST JUMPDEST PUSH1 0x20 MUL PUSH1 0x20 ADD ADD MLOAD SWAP1 POP PUSH1 0x0 DUP10 PUSH1 0xE0 ADD MLOAD DUP4 DUP2 MLOAD DUP2 LT PUSH2 0x1D9F JUMPI PUSH2 0x1D9E PUSH2 0x3C66 JUMP JUMPDEST JUMPDEST PUSH1 0x20 MUL PUSH1 0x20 ADD ADD MLOAD SWAP1 POP DUP1 ISZERO PUSH2 0x1DEC JUMPI PUSH1 0x40 MLOAD DUP1 PUSH1 0x40 ADD PUSH1 0x40 MSTORE DUP1 PUSH1 0x0 ISZERO ISZERO DUP2 MSTORE PUSH1 0x20 ADD DUP4 DUP2 MSTORE POP DUP10 DUP5 DUP2 MLOAD DUP2 LT PUSH2 0x1DDA JUMPI PUSH2 0x1DD9 PUSH2 0x3C66 JUMP JUMPDEST JUMPDEST PUSH1 0x20 MUL PUSH1 0x20 ADD ADD DUP2 SWAP1 MSTORE POP POP POP PUSH2 0x1F23 JUMP JUMPDEST PUSH1 0x0 PUSH2 0x1E02 DUP12 PUSH1 0x0 ADD MLOAD DUP5 DUP14 PUSH1 0xA0 ADD MLOAD DUP9 PUSH2 0x251D JUMP JUMPDEST DUP1 SWAP5 POP DUP2 SWAP3 POP POP POP PUSH1 0x0 DUP1 PUSH1 0x0 DUP1 PUSH2 0x1E1F DUP16 PUSH1 0xA0 ADD MLOAD DUP9 DUP8 PUSH2 0x25C5 JUMP JUMPDEST SWAP4 POP SWAP4 POP SWAP4 POP SWAP4 POP DUP4 ISZERO PUSH2 0x1E99 JUMPI DUP3 DUP1 PUSH1 0x20 ADD SWAP1 MLOAD DUP2 ADD SWAP1 PUSH2 0x1E41 SWAP2 SWAP1 PUSH2 0x49B9 JUMP JUMPDEST DUP12 DUP14 DUP2 MLOAD DUP2 LT PUSH2 0x1E54 JUMPI PUSH2 0x1E53 PUSH2 0x3C66 JUMP JUMPDEST JUMPDEST PUSH1 0x20 MUL PUSH1 0x20 ADD ADD DUP2 SWAP1 MSTORE POP DUP2 DUP11 DUP10 DUP2 MLOAD DUP2 LT PUSH2 0x1E73 JUMPI PUSH2 0x1E72 PUSH2 0x3C66 JUMP JUMPDEST JUMPDEST PUSH1 0x20 MUL PUSH1 0x20 ADD ADD DUP2 SWAP1 MSTORE POP PUSH1 0x1 DUP13 PUSH2 0x1E8B SWAP2 SWAP1 PUSH2 0x42ED JUMP JUMPDEST SWAP12 POP POP POP POP POP POP POP POP PUSH2 0x1F23 JUMP JUMPDEST DUP1 DUP1 ISZERO PUSH2 0x1EA7 JUMPI POP DUP9 PUSH1 0x20 ADD MLOAD JUMPDEST ISZERO PUSH2 0x1EC3 JUMPI DUP3 DUP1 PUSH1 0x20 ADD SWAP1 MLOAD DUP2 ADD SWAP1 PUSH2 0x1EC0 SWAP2 SWAP1 PUSH2 0x4A02 JUMP JUMPDEST SWAP3 POP JUMPDEST PUSH1 0x40 MLOAD DUP1 PUSH1 0x40 ADD PUSH1 0x40 MSTORE DUP1 DUP3 ISZERO ISZERO DUP2 MSTORE PUSH1 0x20 ADD DUP5 DUP2 MSTORE POP DUP15 DUP10 DUP2 MLOAD DUP2 LT PUSH2 0x1EED JUMPI PUSH2 0x1EEC PUSH2 0x3C66 JUMP JUMPDEST JUMPDEST PUSH1 0x20 MUL PUSH1 0x20 ADD ADD DUP2 SWAP1 MSTORE POP DUP7 DUP11 DUP10 DUP2 MLOAD DUP2 LT PUSH2 0x1F0C JUMPI PUSH2 0x1F0B PUSH2 0x3C66 JUMP JUMPDEST JUMPDEST PUSH1 0x20 MUL PUSH1 0x20 ADD ADD MLOAD PUSH1 0x20 ADD DUP2 SWAP1 MSTORE POP POP POP POP POP POP POP POP JUMPDEST DUP1 DUP1 PUSH1 0x1 ADD SWAP2 POP POP PUSH2 0x1D5B JUMP JUMPDEST POP PUSH1 0x0 DUP5 SUB PUSH2 0x1F43 JUMPI POP POP POP POP POP PUSH2 0x203F JUMP JUMPDEST DUP4 DUP4 MSTORE ADDRESS DUP8 PUSH1 0x40 ADD MLOAD PUSH4 0xA780BAB6 PUSH1 0xE0 SHL DUP6 PUSH1 0x40 MLOAD PUSH1 0x24 ADD PUSH2 0x1F65 SWAP2 SWAP1 PUSH2 0x4BF9 JUMP JUMPDEST PUSH1 0x40 MLOAD PUSH1 0x20 DUP2 DUP4 SUB SUB DUP2 MSTORE SWAP1 PUSH1 0x40 MSTORE SWAP1 PUSH28 0xFFFFFFFFFFFFFFFFFFFFFFFFFFFFFFFFFFFFFFFFFFFFFFFFFFFFFFFF NOT AND PUSH1 0x20 DUP3 ADD DUP1 MLOAD PUSH28 0xFFFFFFFFFFFFFFFFFFFFFFFFFFFFFFFFFFFFFFFFFFFFFFFFFFFFFFFF DUP4 DUP2 DUP4 AND OR DUP4 MSTORE POP POP POP POP DUP10 PUSH1 0x60 ADD MLOAD DUP11 PUSH1 0x80 ADD MLOAD DUP12 PUSH1 0xA0 ADD MLOAD DUP13 PUSH1 0x40 ADD MLOAD DUP14 PUSH1 0xC0 ADD MLOAD DUP10 PUSH1 0x40 MLOAD PUSH1 0x20 ADD PUSH2 0x1FF0 SWAP6 SWAP5 SWAP4 SWAP3 SWAP2 SWAP1 PUSH2 0x4D29 JUMP JUMPDEST PUSH1 0x40 MLOAD PUSH1 0x20 DUP2 DUP4 SUB SUB DUP2 MSTORE SWAP1 PUSH1 0x40 MSTORE PUSH1 0x40 MLOAD PUSH32 0x556F183000000000000000000000000000000000000000000000000000000000 DUP2 MSTORE PUSH1 0x4 ADD PUSH2 0x2036 SWAP6 SWAP5 SWAP4 SWAP3 SWAP2 SWAP1 PUSH2 0x4D91 JUMP JUMPDEST PUSH1 0x40 MLOAD DUP1 SWAP2 SUB SWAP1 REVERT JUMPDEST SWAP2 SWAP1 POP JUMP JUMPDEST PUSH1 0x60 PUSH1 0x0 DUP1 PUSH1 0x0 SWAP1 POP PUSH1 0x0 DUP5 SWAP1 POP PUSH1 0x0 DUP2 MLOAD SWAP1 POP PUSH1 0x2 DUP2 PUSH2 0x2065 SWAP2 SWAP1 PUSH2 0x42ED JUMP JUMPDEST PUSH8 0xFFFFFFFFFFFFFFFF DUP2 GT ISZERO PUSH2 0x207E JUMPI PUSH2 0x207D PUSH2 0x2E9B JUMP JUMPDEST JUMPDEST PUSH1 0x40 MLOAD SWAP1 DUP1 DUP3 MSTORE DUP1 PUSH1 0x1F ADD PUSH1 0x1F NOT AND PUSH1 0x20 ADD DUP3 ADD PUSH1 0x40 MSTORE DUP1 ISZERO PUSH2 0x20B0 JUMPI DUP2 PUSH1 0x20 ADD PUSH1 0x1 DUP3 MUL DUP1 CALLDATASIZE DUP4 CALLDATACOPY DUP1 DUP3 ADD SWAP2 POP POP SWAP1 POP JUMPDEST POP SWAP5 POP PUSH1 0x0 DUP1 SHL SWAP4 POP PUSH1 0x0 DUP2 SUB PUSH2 0x2111 JUMPI PUSH1 0x0 PUSH1 0xF8 SHL DUP6 PUSH1 0x0 DUP2 MLOAD DUP2 LT PUSH2 0x20DA JUMPI PUSH2 0x20D9 PUSH2 0x3C66 JUMP JUMPDEST JUMPDEST PUSH1 0x20 ADD ADD SWAP1 PUSH31 0xFFFFFFFFFFFFFFFFFFFFFFFFFFFFFFFFFFFFFFFFFFFFFFFFFFFFFFFFFFFFFF NOT AND SWAP1 DUP2 PUSH1 0x0 BYTE SWAP1 MSTORE8 POP POP POP POP PUSH2 0x232F JUMP JUMPDEST PUSH1 0x0 PUSH1 0x1 DUP3 SUB SWAP1 POP JUMPDEST PUSH1 0x0 DUP2 LT PUSH2 0x22A0 JUMPI PUSH32 0x2E00000000000000000000000000000000000000000000000000000000000000 DUP4 DUP3 DUP2 MLOAD DUP2 LT PUSH2 0x2156 JUMPI PUSH2 0x2155 PUSH2 0x3C66 JUMP JUMPDEST JUMPDEST PUSH1 0x20 ADD ADD MLOAD PUSH1 0xF8 SHR PUSH1 0xF8 SHL PUSH31 0xFFFFFFFFFFFFFFFFFFFFFFFFFFFFFFFFFFFFFFFFFFFFFFFFFFFFFFFFFFFFFF NOT AND SUB PUSH2 0x221F JUMPI DUP4 PUSH1 0xF8 SHL DUP7 PUSH1 0x1 DUP4 ADD DUP2 MLOAD DUP2 LT PUSH2 0x21A2 JUMPI PUSH2 0x21A1 PUSH2 0x3C66 JUMP JUMPDEST JUMPDEST PUSH1 0x20 ADD ADD SWAP1 PUSH31 0xFFFFFFFFFFFFFFFFFFFFFFFFFFFFFFFFFFFFFFFFFFFFFFFFFFFFFFFFFFFFFF NOT AND SWAP1 DUP2 PUSH1 0x0 BYTE SWAP1 MSTORE8 POP DUP5 PUSH2 0x21ED PUSH1 0x1 DUP4 ADD DUP7 PUSH1 0xFF AND DUP7 PUSH2 0x27FF SWAP1 SWAP3 SWAP2 SWAP1 PUSH4 0xFFFFFFFF AND JUMP JUMPDEST PUSH1 0x40 MLOAD PUSH1 0x20 ADD PUSH2 0x21FE SWAP3 SWAP2 SWAP1 PUSH2 0x47A3 JUMP JUMPDEST PUSH1 0x40 MLOAD PUSH1 0x20 DUP2 DUP4 SUB SUB DUP2 MSTORE SWAP1 PUSH1 0x40 MSTORE DUP1 MLOAD SWAP1 PUSH1 0x20 ADD KECCAK256 SWAP5 POP PUSH1 0x0 SWAP4 POP PUSH2 0x2289 JUMP JUMPDEST PUSH1 0x1 DUP5 ADD SWAP4 POP DUP3 DUP2 DUP2 MLOAD DUP2 LT PUSH2 0x2238 JUMPI PUSH2 0x2237 PUSH2 0x3C66 JUMP JUMPDEST JUMPDEST PUSH1 0x20 ADD ADD MLOAD PUSH1 0xF8 SHR PUSH1 0xF8 SHL DUP7 PUSH1 0x1 DUP4 ADD DUP2 MLOAD DUP2 LT PUSH2 0x2259 JUMPI PUSH2 0x2258 PUSH2 0x3C66 JUMP JUMPDEST JUMPDEST PUSH1 0x20 ADD ADD SWAP1 PUSH31 0xFFFFFFFFFFFFFFFFFFFFFFFFFFFFFFFFFFFFFFFFFFFFFFFFFFFFFFFFFFFFFF NOT AND SWAP1 DUP2 PUSH1 0x0 BYTE SWAP1 MSTORE8 POP JUMPDEST PUSH1 0x0 DUP2 SUB ISZERO PUSH2 0x22A0 JUMPI DUP1 DUP1 PUSH1 0x1 SWAP1 SUB SWAP2 POP POP PUSH2 0x211A JUMP JUMPDEST POP DUP4 PUSH2 0x22BB PUSH1 0x0 DUP6 PUSH1 0xFF AND DUP6 PUSH2 0x27FF SWAP1 SWAP3 SWAP2 SWAP1 PUSH4 0xFFFFFFFF AND JUMP JUMPDEST PUSH1 0x40 MLOAD PUSH1 0x20 ADD PUSH2 0x22CC SWAP3 SWAP2 SWAP1 PUSH2 0x47A3 JUMP JUMPDEST PUSH1 0x40 MLOAD PUSH1 0x20 DUP2 DUP4 SUB SUB DUP2 MSTORE SWAP1 PUSH1 0x40 MSTORE DUP1 MLOAD SWAP1 PUSH1 0x20 ADD KECCAK256 SWAP4 POP DUP3 PUSH1 0xF8 SHL DUP6 PUSH1 0x0 DUP2 MLOAD DUP2 LT PUSH2 0x22FC JUMPI PUSH2 0x22FB PUSH2 0x3C66 JUMP JUMPDEST JUMPDEST PUSH1 0x20 ADD ADD SWAP1 PUSH31 0xFFFFFFFFFFFFFFFFFFFFFFFFFFFFFFFFFFFFFFFFFFFFFFFFFFFFFFFFFFFFFF NOT AND SWAP1 DUP2 PUSH1 0x0 BYTE SWAP1 MSTORE8 POP POP POP POP JUMPDEST SWAP2 POP SWAP2 JUMP JUMPDEST PUSH1 0x0 DUP1 DUP3 EXTCODESIZE SWAP1 POP PUSH1 0x0 DUP2 GT SWAP2 POP POP SWAP2 SWAP1 POP JUMP JUMPDEST PUSH1 0x0 DUP1 PUSH1 0x40 DUP5 DUP5 PUSH2 0x2358 SWAP2 SWAP1 PUSH2 0x46C0 JUMP JUMPDEST GT ISZERO PUSH2 0x2363 JUMPI PUSH1 0x0 DUP1 REVERT JUMPDEST PUSH1 0x0 DUP1 PUSH2 0x2371 DUP8 DUP8 DUP8 PUSH2 0x282B JUMP JUMPDEST SWAP2 POP SWAP2 POP DUP1 PUSH2 0x238B JUMPI PUSH1 0x0 DUP1 SHL PUSH1 0x0 SWAP4 POP SWAP4 POP POP POP PUSH2 0x23A9 JUMP JUMPDEST PUSH1 0x0 PUSH1 0x20 DUP4 ADD MLOAD DUP8 DUP8 SUB PUSH1 0x40 SUB PUSH1 0x4 MUL SHR SWAP1 POP DUP1 PUSH1 0x1 SWAP5 POP SWAP5 POP POP POP POP JUMPDEST SWAP4 POP SWAP4 SWAP2 POP POP JUMP JUMPDEST PUSH1 0x0 DUP1 DUP4 MLOAD DUP4 LT PUSH2 0x23F7 JUMPI PUSH1 0x40 MLOAD PUSH32 0x8C379A000000000000000000000000000000000000000000000000000000000 DUP2 MSTORE PUSH1 0x4 ADD PUSH2 0x23EE SWAP1 PUSH2 0x4E45 JUMP JUMPDEST PUSH1 0x40 MLOAD DUP1 SWAP2 SUB SWAP1 REVERT JUMPDEST PUSH1 0x0 DUP5 DUP5 DUP2 MLOAD DUP2 LT PUSH2 0x240C JUMPI PUSH2 0x240B PUSH2 0x3C66 JUMP JUMPDEST JUMPDEST PUSH1 0x20 ADD ADD MLOAD PUSH1 0xF8 SHR PUSH1 0xF8 SHL PUSH1 0xF8 SHR PUSH1 0xFF AND SWAP1 POP PUSH1 0x0 DUP2 GT ISZERO PUSH2 0x2446 JUMPI PUSH2 0x243F DUP6 PUSH1 0x1 DUP7 PUSH2 0x2439 SWAP2 SWAP1 PUSH2 0x42ED JUMP JUMPDEST DUP4 PUSH2 0x27FF JUMP JUMPDEST SWAP3 POP PUSH2 0x244D JUMP JUMPDEST PUSH1 0x0 DUP1 SHL SWAP3 POP JUMPDEST PUSH1 0x1 DUP2 DUP6 PUSH2 0x245B SWAP2 SWAP1 PUSH2 0x42ED JUMP JUMPDEST PUSH2 0x2465 SWAP2 SWAP1 PUSH2 0x42ED JUMP JUMPDEST SWAP2 POP POP SWAP3 POP SWAP3 SWAP1 POP JUMP JUMPDEST PUSH2 0x2477 PUSH2 0x2CB2 JUMP JUMPDEST PUSH1 0x0 DUP1 DUP4 PUSH1 0x0 ADD MLOAD MLOAD EQ SWAP1 POP PUSH1 0x0 PUSH2 0x24B3 DUP5 PUSH1 0xA0 ADD MLOAD PUSH32 0x9061B92300000000000000000000000000000000000000000000000000000000 PUSH2 0x29D0 JUMP JUMPDEST SWAP1 POP DUP4 PUSH1 0x80 ADD MLOAD DUP1 ISZERO PUSH2 0x24C4 JUMPI POP DUP1 ISZERO JUMPDEST ISZERO PUSH2 0x24FB JUMPI PUSH1 0x40 MLOAD PUSH32 0x82C2C72800000000000000000000000000000000000000000000000000000000 DUP2 MSTORE PUSH1 0x4 ADD PUSH1 0x40 MLOAD DUP1 SWAP2 SUB SWAP1 REVERT JUMPDEST PUSH1 0x40 MLOAD DUP1 PUSH1 0x40 ADD PUSH1 0x40 MSTORE DUP1 DUP4 ISZERO ISZERO DUP2 MSTORE PUSH1 0x20 ADD DUP3 ISZERO ISZERO DUP2 MSTORE POP SWAP3 POP POP POP SWAP2 SWAP1 POP JUMP JUMPDEST PUSH1 0x0 PUSH1 0x60 DUP3 PUSH1 0x0 ADD MLOAD PUSH2 0x25B4 JUMPI DUP3 PUSH1 0x20 ADD MLOAD ISZERO PUSH2 0x2597 JUMPI PUSH1 0x1 DUP7 DUP7 PUSH1 0x40 MLOAD PUSH1 0x24 ADD PUSH2 0x2549 SWAP3 SWAP2 SWAP1 PUSH2 0x4287 JUMP JUMPDEST PUSH1 0x40 MLOAD PUSH1 0x20 DUP2 DUP4 SUB SUB DUP2 MSTORE SWAP1 PUSH1 0x40 MSTORE PUSH4 0x9061B923 PUSH1 0xE0 SHL PUSH1 0x20 DUP3 ADD DUP1 MLOAD PUSH28 0xFFFFFFFFFFFFFFFFFFFFFFFFFFFFFFFFFFFFFFFFFFFFFFFFFFFFFFFF DUP4 DUP2 DUP4 AND OR DUP4 MSTORE POP POP POP POP SWAP2 POP SWAP2 POP PUSH2 0x25BC JUMP JUMPDEST PUSH2 0x25AA DUP5 DUP7 PUSH2 0x25A5 SWAP1 PUSH2 0x4353 JUMP JUMPDEST PUSH2 0x29D0 JUMP JUMPDEST DUP6 SWAP2 POP SWAP2 POP PUSH2 0x25BC JUMP JUMPDEST PUSH1 0x1 DUP6 SWAP2 POP SWAP2 POP JUMPDEST SWAP5 POP SWAP5 SWAP3 POP POP POP JUMP JUMPDEST PUSH1 0x0 PUSH1 0x60 PUSH2 0x25D1 PUSH2 0x2C5D JUMP JUMPDEST PUSH1 0x0 DUP5 ISZERO PUSH2 0x25EA JUMPI PUSH2 0x25E3 DUP8 DUP8 PUSH2 0x2A61 JUMP JUMPDEST SWAP1 POP PUSH2 0x25FA JUMP JUMPDEST PUSH2 0x25F7 DUP8 DUP8 PUSH2 0xC350 PUSH2 0x2A76 JUMP JUMPDEST SWAP1 POP JUMPDEST PUSH1 0x0 PUSH2 0x2604 PUSH2 0x2AEB JUMP JUMPDEST SWAP1 POP DUP2 ISZERO PUSH2 0x262A JUMPI PUSH1 0x0 PUSH2 0x2619 PUSH1 0x0 DUP4 PUSH2 0x2AF3 JUMP JUMPDEST DUP5 PUSH1 0x1 SWAP5 POP SWAP5 POP SWAP5 POP SWAP5 POP POP PUSH2 0x27F6 JUMP JUMPDEST PUSH1 0x4 DUP2 LT PUSH2 0x27F4 JUMPI PUSH1 0x0 PUSH2 0x2640 PUSH1 0x0 PUSH1 0x4 PUSH2 0x2AF3 JUMP JUMPDEST SWAP1 POP PUSH1 0x0 PUSH2 0x265A PUSH1 0x4 DUP1 DUP6 PUSH2 0x2655 SWAP2 SWAP1 PUSH2 0x46C0 JUMP JUMPDEST PUSH2 0x2AF3 JUMP JUMPDEST SWAP1 POP PUSH4 0x556F1830 PUSH1 0xE0 SHL PUSH28 0xFFFFFFFFFFFFFFFFFFFFFFFFFFFFFFFFFFFFFFFFFFFFFFFFFFFFFFFF NOT AND DUP3 PUSH2 0x268D SWAP1 PUSH2 0x4353 JUMP JUMPDEST PUSH28 0xFFFFFFFFFFFFFFFFFFFFFFFFFFFFFFFFFFFFFFFFFFFFFFFFFFFFFFFF NOT AND SUB PUSH2 0x27B7 JUMPI PUSH1 0x0 DUP1 PUSH1 0x0 DUP1 PUSH1 0x0 DUP6 DUP1 PUSH1 0x20 ADD SWAP1 MLOAD DUP2 ADD SWAP1 PUSH2 0x26CD SWAP2 SWAP1 PUSH2 0x4E7A JUMP JUMPDEST SWAP5 POP SWAP5 POP SWAP5 POP SWAP5 POP SWAP5 POP DUP15 PUSH20 0xFFFFFFFFFFFFFFFFFFFFFFFFFFFFFFFFFFFFFFFF AND DUP6 PUSH20 0xFFFFFFFFFFFFFFFFFFFFFFFFFFFFFFFFFFFFFFFF AND SUB PUSH2 0x27AD JUMPI PUSH1 0x40 MLOAD DUP1 PUSH1 0x60 ADD PUSH1 0x40 MSTORE DUP1 DUP7 PUSH20 0xFFFFFFFFFFFFFFFFFFFFFFFFFFFFFFFFFFFFFFFF AND DUP2 MSTORE PUSH1 0x20 ADD DUP6 DUP2 MSTORE PUSH1 0x20 ADD DUP5 DUP2 MSTORE POP PUSH1 0x40 MLOAD PUSH1 0x20 ADD PUSH2 0x274B SWAP2 SWAP1 PUSH2 0x4FA0 JUMP JUMPDEST PUSH1 0x40 MLOAD PUSH1 0x20 DUP2 DUP4 SUB SUB DUP2 MSTORE SWAP1 PUSH1 0x40 MSTORE SWAP11 POP PUSH1 0x40 MLOAD DUP1 PUSH1 0x40 ADD PUSH1 0x40 MSTORE DUP1 DUP4 PUSH28 0xFFFFFFFFFFFFFFFFFFFFFFFFFFFFFFFFFFFFFFFFFFFFFFFFFFFFFFFF NOT AND DUP2 MSTORE PUSH1 0x20 ADD DUP3 DUP2 MSTORE POP SWAP10 POP PUSH1 0x1 DUP12 DUP12 PUSH1 0x0 SWAP12 POP SWAP12 POP SWAP12 POP SWAP12 POP POP POP POP POP POP POP POP POP PUSH2 0x27F6 JUMP JUMPDEST POP POP POP POP POP PUSH2 0x27F1 JUMP JUMPDEST DUP2 DUP2 PUSH1 0x40 MLOAD PUSH1 0x20 ADD PUSH2 0x27CA SWAP3 SWAP2 SWAP1 PUSH2 0x4FF3 JUMP JUMPDEST PUSH1 0x40 MLOAD PUSH1 0x20 DUP2 DUP4 SUB SUB DUP2 MSTORE SWAP1 PUSH1 0x40 MSTORE SWAP6 POP PUSH1 0x0 DUP7 DUP7 PUSH1 0x0 SWAP7 POP SWAP7 POP SWAP7 POP SWAP7 POP POP POP POP PUSH2 0x27F6 JUMP JUMPDEST POP POP JUMPDEST POP JUMPDEST SWAP4 POP SWAP4 POP SWAP4 POP SWAP4 JUMP JUMPDEST PUSH1 0x0 DUP4 MLOAD DUP3 DUP5 PUSH2 0x280F SWAP2 SWAP1 PUSH2 0x42ED JUMP JUMPDEST GT ISZERO PUSH2 0x281A JUMPI PUSH1 0x0 DUP1 REVERT JUMPDEST DUP2 DUP4 PUSH1 0x20 DUP7 ADD ADD KECCAK256 SWAP1 POP SWAP4 SWAP3 POP POP POP JUMP JUMPDEST PUSH1 0x60 PUSH1 0x0 DUP1 DUP5 DUP5 PUSH2 0x283C SWAP2 SWAP1 PUSH2 0x46C0 JUMP JUMPDEST SWAP1 POP PUSH1 0x1 PUSH1 0x2 DUP3 PUSH2 0x284D SWAP2 SWAP1 PUSH2 0x5046 JUMP JUMPDEST SUB PUSH2 0x288D JUMPI PUSH1 0x40 MLOAD PUSH32 0x8C379A000000000000000000000000000000000000000000000000000000000 DUP2 MSTORE PUSH1 0x4 ADD PUSH2 0x2884 SWAP1 PUSH2 0x50C3 JUMP JUMPDEST PUSH1 0x40 MLOAD DUP1 SWAP2 SUB SWAP1 REVERT JUMPDEST PUSH1 0x2 DUP2 PUSH2 0x289A SWAP2 SWAP1 PUSH2 0x50E3 JUMP JUMPDEST PUSH8 0xFFFFFFFFFFFFFFFF DUP2 GT ISZERO PUSH2 0x28B3 JUMPI PUSH2 0x28B2 PUSH2 0x2E9B JUMP JUMPDEST JUMPDEST PUSH1 0x40 MLOAD SWAP1 DUP1 DUP3 MSTORE DUP1 PUSH1 0x1F ADD PUSH1 0x1F NOT AND PUSH1 0x20 ADD DUP3 ADD PUSH1 0x40 MSTORE DUP1 ISZERO PUSH2 0x28E5 JUMPI DUP2 PUSH1 0x20 ADD PUSH1 0x1 DUP3 MUL DUP1 CALLDATASIZE DUP4 CALLDATACOPY DUP1 DUP3 ADD SWAP2 POP POP SWAP1 POP JUMPDEST POP SWAP3 POP PUSH1 0x1 SWAP2 POP DUP6 MLOAD DUP5 GT ISZERO PUSH2 0x28FA JUMPI PUSH1 0x0 DUP1 REVERT JUMPDEST PUSH2 0x295C JUMP JUMPDEST PUSH1 0x0 PUSH1 0x3A DUP3 LT PUSH1 0x2F DUP4 GT AND ISZERO PUSH2 0x291A JUMPI PUSH1 0x30 DUP3 SUB SWAP1 POP PUSH2 0x2957 JUMP JUMPDEST PUSH1 0x47 DUP3 LT PUSH1 0x40 DUP4 GT AND ISZERO PUSH2 0x2936 JUMPI PUSH1 0xA PUSH1 0x41 DUP4 SUB ADD SWAP1 POP PUSH2 0x2957 JUMP JUMPDEST PUSH1 0x67 DUP3 LT PUSH1 0x60 DUP4 GT AND ISZERO PUSH2 0x2952 JUMPI PUSH1 0xA PUSH1 0x61 DUP4 SUB ADD SWAP1 POP PUSH2 0x2957 JUMP JUMPDEST PUSH1 0xFF SWAP1 POP JUMPDEST SWAP2 SWAP1 POP JUMP JUMPDEST PUSH1 0x20 DUP7 ADD DUP6 JUMPDEST DUP6 DUP2 LT ISZERO PUSH2 0x29C5 JUMPI PUSH2 0x2979 DUP2 DUP4 ADD MLOAD PUSH1 0x0 BYTE PUSH2 0x28FF JUMP JUMPDEST PUSH2 0x298B PUSH1 0x1 DUP4 ADD DUP5 ADD MLOAD PUSH1 0x0 BYTE PUSH2 0x28FF JUMP JUMPDEST PUSH1 0xFF DUP2 EQ PUSH1 0xFF DUP4 EQ OR ISZERO PUSH2 0x29A4 JUMPI PUSH1 0x0 SWAP6 POP POP POP PUSH2 0x29C5 JUMP JUMPDEST DUP1 DUP3 PUSH1 0x4 SHL OR DUP1 PUSH1 0x2 DUP12 DUP7 SUB DIV PUSH1 0x20 DUP11 ADD ADD MSTORE8 POP POP POP PUSH1 0x2 DUP2 ADD SWAP1 POP PUSH2 0x2962 JUMP JUMPDEST POP POP POP SWAP4 POP SWAP4 SWAP2 POP POP JUMP JUMPDEST PUSH1 0x0 DUP3 PUSH20 0xFFFFFFFFFFFFFFFFFFFFFFFFFFFFFFFFFFFFFFFF AND PUSH4 0x1FFC9A7 PUSH2 0xC350 DUP5 PUSH1 0x40 MLOAD DUP4 PUSH4 0xFFFFFFFF AND PUSH1 0xE0 SHL DUP2 MSTORE PUSH1 0x4 ADD PUSH2 0x2A0E SWAP2 SWAP1 PUSH2 0x5114 JUMP JUMPDEST PUSH1 0x20 PUSH1 0x40 MLOAD DUP1 DUP4 SUB DUP2 DUP8 DUP7 STATICCALL SWAP4 POP POP POP POP DUP1 ISZERO PUSH2 0x2A49 JUMPI POP PUSH1 0x40 MLOAD RETURNDATASIZE PUSH1 0x1F NOT PUSH1 0x1F DUP3 ADD AND DUP3 ADD DUP1 PUSH1 0x40 MSTORE POP DUP2 ADD SWAP1 PUSH2 0x2A46 SWAP2 SWAP1 PUSH2 0x5144 JUMP JUMPDEST PUSH1 0x1 JUMPDEST PUSH2 0x2A56 JUMPI PUSH1 0x0 SWAP1 POP PUSH2 0x2A5B JUMP JUMPDEST DUP1 SWAP2 POP POP JUMPDEST SWAP3 SWAP2 POP POP JUMP JUMPDEST PUSH1 0x0 PUSH2 0x2A6E DUP4 DUP4 GAS PUSH2 0x2A76 JUMP JUMPDEST SWAP1 POP SWAP3 SWAP2 POP POP JUMP JUMPDEST PUSH1 0x0 PUSH2 0x2A97 DUP5 PUSH20 0xFFFFFFFFFFFFFFFFFFFFFFFFFFFFFFFFFFFFFFFF AND PUSH2 0x2334 JUMP JUMPDEST PUSH2 0x2AD6 JUMPI PUSH1 0x40 MLOAD PUSH32 0x8C379A000000000000000000000000000000000000000000000000000000000 DUP2 MSTORE PUSH1 0x4 ADD PUSH2 0x2ACD SWAP1 PUSH2 0x51E3 JUMP JUMPDEST PUSH1 0x40 MLOAD DUP1 SWAP2 SUB SWAP1 REVERT JUMPDEST PUSH1 0x0 DUP1 DUP5 MLOAD PUSH1 0x20 DUP7 ADD DUP8 DUP7 STATICCALL SWAP1 POP SWAP4 SWAP3 POP POP POP JUMP JUMPDEST PUSH1 0x0 RETURNDATASIZE SWAP1 POP SWAP1 JUMP JUMPDEST PUSH1 0x60 DUP2 PUSH8 0xFFFFFFFFFFFFFFFF DUP2 GT ISZERO PUSH2 0x2B0F JUMPI PUSH2 0x2B0E PUSH2 0x2E9B JUMP JUMPDEST JUMPDEST PUSH1 0x40 MLOAD SWAP1 DUP1 DUP3 MSTORE DUP1 PUSH1 0x1F ADD PUSH1 0x1F NOT AND PUSH1 0x20 ADD DUP3 ADD PUSH1 0x40 MSTORE DUP1 ISZERO PUSH2 0x2B41 JUMPI DUP2 PUSH1 0x20 ADD PUSH1 0x1 DUP3 MUL DUP1 CALLDATASIZE DUP4 CALLDATACOPY DUP1 DUP3 ADD SWAP2 POP POP SWAP1 POP JUMPDEST POP SWAP1 POP DUP2 DUP4 PUSH1 0x20 DUP4 ADD RETURNDATACOPY SWAP3 SWAP2 POP POP JUMP JUMPDEST DUP3 DUP1 SLOAD DUP3 DUP3 SSTORE SWAP1 PUSH1 0x0 MSTORE PUSH1 0x20 PUSH1 0x0 KECCAK256 SWAP1 DUP2 ADD SWAP3 DUP3 ISZERO PUSH2 0x2B99 JUMPI SWAP2 PUSH1 0x20 MUL DUP3 ADD JUMPDEST DUP3 DUP2 GT ISZERO PUSH2 0x2B98 JUMPI DUP3 MLOAD DUP3 SWAP1 DUP2 PUSH2 0x2B88 SWAP2 SWAP1 PUSH2 0x5398 JUMP JUMPDEST POP SWAP2 PUSH1 0x20 ADD SWAP2 SWAP1 PUSH1 0x1 ADD SWAP1 PUSH2 0x2B71 JUMP JUMPDEST JUMPDEST POP SWAP1 POP PUSH2 0x2BA6 SWAP2 SWAP1 PUSH2 0x2CD0 JUMP JUMPDEST POP SWAP1 JUMP JUMPDEST PUSH1 0x40 MLOAD DUP1 PUSH2 0x100 ADD PUSH1 0x40 MSTORE DUP1 PUSH1 0x60 DUP2 MSTORE PUSH1 0x20 ADD PUSH1 0x60 DUP2 MSTORE PUSH1 0x20 ADD PUSH1 0x60 DUP2 MSTORE PUSH1 0x20 ADD PUSH1 0x0 PUSH28 0xFFFFFFFFFFFFFFFFFFFFFFFFFFFFFFFFFFFFFFFFFFFFFFFFFFFFFFFF NOT AND DUP2 MSTORE PUSH1 0x20 ADD PUSH1 0x0 ISZERO ISZERO DUP2 MSTORE PUSH1 0x20 ADD PUSH1 0x0 PUSH20 0xFFFFFFFFFFFFFFFFFFFFFFFFFFFFFFFFFFFFFFFF AND DUP2 MSTORE PUSH1 0x20 ADD PUSH1 0x60 DUP2 MSTORE PUSH1 0x20 ADD PUSH1 0x60 DUP2 MSTORE POP SWAP1 JUMP JUMPDEST PUSH1 0x40 MLOAD DUP1 PUSH1 0x60 ADD PUSH1 0x40 MSTORE DUP1 PUSH1 0x0 PUSH20 0xFFFFFFFFFFFFFFFFFFFFFFFFFFFFFFFFFFFFFFFF AND DUP2 MSTORE PUSH1 0x20 ADD PUSH1 0x60 DUP2 MSTORE PUSH1 0x20 ADD PUSH1 0x60 DUP2 MSTORE POP SWAP1 JUMP JUMPDEST PUSH1 0x40 MLOAD DUP1 PUSH1 0x40 ADD PUSH1 0x40 MSTORE DUP1 PUSH1 0x0 PUSH28 0xFFFFFFFFFFFFFFFFFFFFFFFFFFFFFFFFFFFFFFFFFFFFFFFFFFFFFFFF NOT AND DUP2 MSTORE PUSH1 0x20 ADD PUSH1 0x60 DUP2 MSTORE POP SWAP1 JUMP JUMPDEST PUSH1 0x40 MLOAD DUP1 PUSH1 0x40 ADD PUSH1 0x40 MSTORE DUP1 PUSH1 0x0 ISZERO ISZERO DUP2 MSTORE PUSH1 0x20 ADD PUSH1 0x60 DUP2 MSTORE POP SWAP1 JUMP JUMPDEST PUSH1 0x40 MLOAD DUP1 PUSH1 0x40 ADD PUSH1 0x40 MSTORE DUP1 PUSH1 0x0 ISZERO ISZERO DUP2 MSTORE PUSH1 0x20 ADD PUSH1 0x0 ISZERO ISZERO DUP2 MSTORE POP SWAP1 JUMP JUMPDEST JUMPDEST DUP1 DUP3 GT ISZERO PUSH2 0x2CF0 JUMPI PUSH1 0x0 DUP2 DUP2 PUSH2 0x2CE7 SWAP2 SWAP1 PUSH2 0x2CF4 JUMP JUMPDEST POP PUSH1 0x1 ADD PUSH2 0x2CD1 JUMP JUMPDEST POP SWAP1 JUMP JUMPDEST POP DUP1 SLOAD PUSH2 0x2D00 SWAP1 PUSH2 0x3C35 JUMP JUMPDEST PUSH1 0x0 DUP3 SSTORE DUP1 PUSH1 0x1F LT PUSH2 0x2D12 JUMPI POP PUSH2 0x2D31 JUMP JUMPDEST PUSH1 0x1F ADD PUSH1 0x20 SWAP1 DIV SWAP1 PUSH1 0x0 MSTORE PUSH1 0x20 PUSH1 0x0 KECCAK256 SWAP1 DUP2 ADD SWAP1 PUSH2 0x2D30 SWAP2 SWAP1 PUSH2 0x2D34 JUMP JUMPDEST JUMPDEST POP JUMP JUMPDEST JUMPDEST DUP1 DUP3 GT ISZERO PUSH2 0x2D4D JUMPI PUSH1 0x0 DUP2 PUSH1 0x0 SWAP1 SSTORE POP PUSH1 0x1 ADD PUSH2 0x2D35 JUMP JUMPDEST POP SWAP1 JUMP JUMPDEST PUSH1 0x0 PUSH1 0x40 MLOAD SWAP1 POP SWAP1 JUMP JUMPDEST PUSH1 0x0 DUP1 REVERT JUMPDEST PUSH1 0x0 DUP1 REVERT JUMPDEST PUSH1 0x0 PUSH32 0xFFFFFFFF00000000000000000000000000000000000000000000000000000000 DUP3 AND SWAP1 POP SWAP2 SWAP1 POP JUMP JUMPDEST PUSH2 0x2D9A DUP2 PUSH2 0x2D65 JUMP JUMPDEST DUP2 EQ PUSH2 0x2DA5 JUMPI PUSH1 0x0 DUP1 REVERT JUMPDEST POP JUMP JUMPDEST PUSH1 0x0 DUP2 CALLDATALOAD SWAP1 POP PUSH2 0x2DB7 DUP2 PUSH2 0x2D91 JUMP JUMPDEST SWAP3 SWAP2 POP POP JUMP JUMPDEST PUSH1 0x0 PUSH1 0x20 DUP3 DUP5 SUB SLT ISZERO PUSH2 0x2DD3 JUMPI PUSH2 0x2DD2 PUSH2 0x2D5B JUMP JUMPDEST JUMPDEST PUSH1 0x0 PUSH2 0x2DE1 DUP5 DUP3 DUP6 ADD PUSH2 0x2DA8 JUMP JUMPDEST SWAP2 POP POP SWAP3 SWAP2 POP POP JUMP JUMPDEST PUSH1 0x0 DUP2 ISZERO ISZERO SWAP1 POP SWAP2 SWAP1 POP JUMP JUMPDEST PUSH2 0x2DFF DUP2 PUSH2 0x2DEA JUMP JUMPDEST DUP3 MSTORE POP POP JUMP JUMPDEST PUSH1 0x0 PUSH1 0x20 DUP3 ADD SWAP1 POP PUSH2 0x2E1A PUSH1 0x0 DUP4 ADD DUP5 PUSH2 0x2DF6 JUMP JUMPDEST SWAP3 SWAP2 POP POP JUMP JUMPDEST PUSH1 0x0 DUP1 REVERT JUMPDEST PUSH1 0x0 DUP1 REVERT JUMPDEST PUSH1 0x0 DUP1 REVERT JUMPDEST PUSH1 0x0 DUP1 DUP4 PUSH1 0x1F DUP5 ADD SLT PUSH2 0x2E45 JUMPI PUSH2 0x2E44 PUSH2 0x2E20 JUMP JUMPDEST JUMPDEST DUP3 CALLDATALOAD SWAP1 POP PUSH8 0xFFFFFFFFFFFFFFFF DUP2 GT ISZERO PUSH2 0x2E62 JUMPI PUSH2 0x2E61 PUSH2 0x2E25 JUMP JUMPDEST JUMPDEST PUSH1 0x20 DUP4 ADD SWAP2 POP DUP4 PUSH1 0x1 DUP3 MUL DUP4 ADD GT ISZERO PUSH2 0x2E7E JUMPI PUSH2 0x2E7D PUSH2 0x2E2A JUMP JUMPDEST JUMPDEST SWAP3 POP SWAP3 SWAP1 POP JUMP JUMPDEST PUSH1 0x0 DUP1 REVERT JUMPDEST PUSH1 0x0 PUSH1 0x1F NOT PUSH1 0x1F DUP4 ADD AND SWAP1 POP SWAP2 SWAP1 POP JUMP JUMPDEST PUSH32 0x4E487B7100000000000000000000000000000000000000000000000000000000 PUSH1 0x0 MSTORE PUSH1 0x41 PUSH1 0x4 MSTORE PUSH1 0x24 PUSH1 0x0 REVERT JUMPDEST PUSH2 0x2ED3 DUP3 PUSH2 0x2E8A JUMP JUMPDEST DUP2 ADD DUP2 DUP2 LT PUSH8 0xFFFFFFFFFFFFFFFF DUP3 GT OR ISZERO PUSH2 0x2EF2 JUMPI PUSH2 0x2EF1 PUSH2 0x2E9B JUMP JUMPDEST JUMPDEST DUP1 PUSH1 0x40 MSTORE POP POP POP JUMP JUMPDEST PUSH1 0x0 PUSH2 0x2F05 PUSH2 0x2D51 JUMP JUMPDEST SWAP1 POP PUSH2 0x2F11 DUP3 DUP3 PUSH2 0x2ECA JUMP JUMPDEST SWAP2 SWAP1 POP JUMP JUMPDEST PUSH1 0x0 PUSH8 0xFFFFFFFFFFFFFFFF DUP3 GT ISZERO PUSH2 0x2F31 JUMPI PUSH2 0x2F30 PUSH2 0x2E9B JUMP JUMPDEST JUMPDEST PUSH2 0x2F3A DUP3 PUSH2 0x2E8A JUMP JUMPDEST SWAP1 POP PUSH1 0x20 DUP2 ADD SWAP1 POP SWAP2 SWAP1 POP JUMP JUMPDEST DUP3 DUP2 DUP4 CALLDATACOPY PUSH1 0x0 DUP4 DUP4 ADD MSTORE POP POP POP JUMP JUMPDEST PUSH1 0x0 PUSH2 0x2F69 PUSH2 0x2F64 DUP5 PUSH2 0x2F16 JUMP JUMPDEST PUSH2 0x2EFB JUMP JUMPDEST SWAP1 POP DUP3 DUP2 MSTORE PUSH1 0x20 DUP2 ADD DUP5 DUP5 DUP5 ADD GT ISZERO PUSH2 0x2F85 JUMPI PUSH2 0x2F84 PUSH2 0x2E85 JUMP JUMPDEST JUMPDEST PUSH2 0x2F90 DUP5 DUP3 DUP6 PUSH2 0x2F47 JUMP JUMPDEST POP SWAP4 SWAP3 POP POP POP JUMP JUMPDEST PUSH1 0x0 DUP3 PUSH1 0x1F DUP4 ADD SLT PUSH2 0x2FAD JUMPI PUSH2 0x2FAC PUSH2 0x2E20 JUMP JUMPDEST JUMPDEST DUP2 CALLDATALOAD PUSH2 0x2FBD DUP5 DUP3 PUSH1 0x20 DUP7 ADD PUSH2 0x2F56 JUMP JUMPDEST SWAP2 POP POP SWAP3 SWAP2 POP POP JUMP JUMPDEST PUSH1 0x0 PUSH8 0xFFFFFFFFFFFFFFFF DUP3 GT ISZERO PUSH2 0x2FE1 JUMPI PUSH2 0x2FE0 PUSH2 0x2E9B JUMP JUMPDEST JUMPDEST PUSH1 0x20 DUP3 MUL SWAP1 POP PUSH1 0x20 DUP2 ADD SWAP1 POP SWAP2 SWAP1 POP JUMP JUMPDEST PUSH1 0x0 PUSH8 0xFFFFFFFFFFFFFFFF DUP3 GT ISZERO PUSH2 0x300D JUMPI PUSH2 0x300C PUSH2 0x2E9B JUMP JUMPDEST JUMPDEST PUSH2 0x3016 DUP3 PUSH2 0x2E8A JUMP JUMPDEST SWAP1 POP PUSH1 0x20 DUP2 ADD SWAP1 POP SWAP2 SWAP1 POP JUMP JUMPDEST PUSH1 0x0 PUSH2 0x3036 PUSH2 0x3031 DUP5 PUSH2 0x2FF2 JUMP JUMPDEST PUSH2 0x2EFB JUMP JUMPDEST SWAP1 POP DUP3 DUP2 MSTORE PUSH1 0x20 DUP2 ADD DUP5 DUP5 DUP5 ADD GT ISZERO PUSH2 0x3052 JUMPI PUSH2 0x3051 PUSH2 0x2E85 JUMP JUMPDEST JUMPDEST PUSH2 0x305D DUP5 DUP3 DUP6 PUSH2 0x2F47 JUMP JUMPDEST POP SWAP4 SWAP3 POP POP POP JUMP JUMPDEST PUSH1 0x0 DUP3 PUSH1 0x1F DUP4 ADD SLT PUSH2 0x307A JUMPI PUSH2 0x3079 PUSH2 0x2E20 JUMP JUMPDEST JUMPDEST DUP2 CALLDATALOAD PUSH2 0x308A DUP5 DUP3 PUSH1 0x20 DUP7 ADD PUSH2 0x3023 JUMP JUMPDEST SWAP2 POP POP SWAP3 SWAP2 POP POP JUMP JUMPDEST PUSH1 0x0 PUSH2 0x30A6 PUSH2 0x30A1 DUP5 PUSH2 0x2FC6 JUMP JUMPDEST PUSH2 0x2EFB JUMP JUMPDEST SWAP1 POP DUP1 DUP4 DUP3 MSTORE PUSH1 0x20 DUP3 ADD SWAP1 POP PUSH1 0x20 DUP5 MUL DUP4 ADD DUP6 DUP2 GT ISZERO PUSH2 0x30C9 JUMPI PUSH2 0x30C8 PUSH2 0x2E2A JUMP JUMPDEST JUMPDEST DUP4 JUMPDEST DUP2 DUP2 LT ISZERO PUSH2 0x3110 JUMPI DUP1 CALLDATALOAD PUSH8 0xFFFFFFFFFFFFFFFF DUP2 GT ISZERO PUSH2 0x30EE JUMPI PUSH2 0x30ED PUSH2 0x2E20 JUMP JUMPDEST JUMPDEST DUP1 DUP7 ADD PUSH2 0x30FB DUP10 DUP3 PUSH2 0x3065 JUMP JUMPDEST DUP6 MSTORE PUSH1 0x20 DUP6 ADD SWAP5 POP POP POP PUSH1 0x20 DUP2 ADD SWAP1 POP PUSH2 0x30CB JUMP JUMPDEST POP POP POP SWAP4 SWAP3 POP POP POP JUMP JUMPDEST PUSH1 0x0 DUP3 PUSH1 0x1F DUP4 ADD SLT PUSH2 0x312F JUMPI PUSH2 0x312E PUSH2 0x2E20 JUMP JUMPDEST JUMPDEST DUP2 CALLDATALOAD PUSH2 0x313F DUP5 DUP3 PUSH1 0x20 DUP7 ADD PUSH2 0x3093 JUMP JUMPDEST SWAP2 POP POP SWAP3 SWAP2 POP POP JUMP JUMPDEST PUSH1 0x0 DUP1 PUSH1 0x0 DUP1 PUSH1 0x60 DUP6 DUP8 SUB SLT ISZERO PUSH2 0x3162 JUMPI PUSH2 0x3161 PUSH2 0x2D5B JUMP JUMPDEST JUMPDEST PUSH1 0x0 DUP6 ADD CALLDATALOAD PUSH8 0xFFFFFFFFFFFFFFFF DUP2 GT ISZERO PUSH2 0x3180 JUMPI PUSH2 0x317F PUSH2 0x2D60 JUMP JUMPDEST JUMPDEST PUSH2 0x318C DUP8 DUP3 DUP9 ADD PUSH2 0x2E2F JUMP JUMPDEST SWAP5 POP SWAP5 POP POP PUSH1 0x20 DUP6 ADD CALLDATALOAD PUSH8 0xFFFFFFFFFFFFFFFF DUP2 GT ISZERO PUSH2 0x31AF JUMPI PUSH2 0x31AE PUSH2 0x2D60 JUMP JUMPDEST JUMPDEST PUSH2 0x31BB DUP8 DUP3 DUP9 ADD PUSH2 0x2F98 JUMP JUMPDEST SWAP3 POP POP PUSH1 0x40 DUP6 ADD CALLDATALOAD PUSH8 0xFFFFFFFFFFFFFFFF DUP2 GT ISZERO PUSH2 0x31DC JUMPI PUSH2 0x31DB PUSH2 0x2D60 JUMP JUMPDEST JUMPDEST PUSH2 0x31E8 DUP8 DUP3 DUP9 ADD PUSH2 0x311A JUMP JUMPDEST SWAP2 POP POP SWAP3 SWAP6 SWAP2 SWAP5 POP SWAP3 POP JUMP JUMPDEST PUSH1 0x0 DUP2 MLOAD SWAP1 POP SWAP2 SWAP1 POP JUMP JUMPDEST PUSH1 0x0 DUP3 DUP3 MSTORE PUSH1 0x20 DUP3 ADD SWAP1 POP SWAP3 SWAP2 POP POP JUMP JUMPDEST PUSH1 0x0 JUMPDEST DUP4 DUP2 LT ISZERO PUSH2 0x322E JUMPI DUP1 DUP3 ADD MLOAD DUP2 DUP5 ADD MSTORE PUSH1 0x20 DUP2 ADD SWAP1 POP PUSH2 0x3213 JUMP JUMPDEST PUSH1 0x0 DUP5 DUP5 ADD MSTORE POP POP POP POP JUMP JUMPDEST PUSH1 0x0 PUSH2 0x3245 DUP3 PUSH2 0x31F4 JUMP JUMPDEST PUSH2 0x324F DUP2 DUP6 PUSH2 0x31FF JUMP JUMPDEST SWAP4 POP PUSH2 0x325F DUP2 DUP6 PUSH1 0x20 DUP7 ADD PUSH2 0x3210 JUMP JUMPDEST PUSH2 0x3268 DUP2 PUSH2 0x2E8A JUMP JUMPDEST DUP5 ADD SWAP2 POP POP SWAP3 SWAP2 POP POP JUMP JUMPDEST PUSH1 0x0 PUSH20 0xFFFFFFFFFFFFFFFFFFFFFFFFFFFFFFFFFFFFFFFF DUP3 AND SWAP1 POP SWAP2 SWAP1 POP JUMP JUMPDEST PUSH1 0x0 PUSH2 0x329E DUP3 PUSH2 0x3273 JUMP JUMPDEST SWAP1 POP SWAP2 SWAP1 POP JUMP JUMPDEST PUSH2 0x32AE DUP2 PUSH2 0x3293 JUMP JUMPDEST DUP3 MSTORE POP POP JUMP JUMPDEST PUSH1 0x0 PUSH1 0x40 DUP3 ADD SWAP1 POP DUP2 DUP2 SUB PUSH1 0x0 DUP4 ADD MSTORE PUSH2 0x32CE DUP2 DUP6 PUSH2 0x323A JUMP JUMPDEST SWAP1 POP PUSH2 0x32DD PUSH1 0x20 DUP4 ADD DUP5 PUSH2 0x32A5 JUMP JUMPDEST SWAP4 SWAP3 POP POP POP JUMP JUMPDEST PUSH1 0x0 PUSH8 0xFFFFFFFFFFFFFFFF DUP3 GT ISZERO PUSH2 0x32FF JUMPI PUSH2 0x32FE PUSH2 0x2E9B JUMP JUMPDEST JUMPDEST PUSH1 0x20 DUP3 MUL SWAP1 POP PUSH1 0x20 DUP2 ADD SWAP1 POP SWAP2 SWAP1 POP JUMP JUMPDEST PUSH1 0x0 PUSH2 0x3323 PUSH2 0x331E DUP5 PUSH2 0x32E4 JUMP JUMPDEST PUSH2 0x2EFB JUMP JUMPDEST SWAP1 POP DUP1 DUP4 DUP3 MSTORE PUSH1 0x20 DUP3 ADD SWAP1 POP PUSH1 0x20 DUP5 MUL DUP4 ADD DUP6 DUP2 GT ISZERO PUSH2 0x3346 JUMPI PUSH2 0x3345 PUSH2 0x2E2A JUMP JUMPDEST JUMPDEST DUP4 JUMPDEST DUP2 DUP2 LT ISZERO PUSH2 0x338D JUMPI DUP1 CALLDATALOAD PUSH8 0xFFFFFFFFFFFFFFFF DUP2 GT ISZERO PUSH2 0x336B JUMPI PUSH2 0x336A PUSH2 0x2E20 JUMP JUMPDEST JUMPDEST DUP1 DUP7 ADD PUSH2 0x3378 DUP10 DUP3 PUSH2 0x2F98 JUMP JUMPDEST DUP6 MSTORE PUSH1 0x20 DUP6 ADD SWAP5 POP POP POP PUSH1 0x20 DUP2 ADD SWAP1 POP PUSH2 0x3348 JUMP JUMPDEST POP POP POP SWAP4 SWAP3 POP POP POP JUMP JUMPDEST PUSH1 0x0 DUP3 PUSH1 0x1F DUP4 ADD SLT PUSH2 0x33AC JUMPI PUSH2 0x33AB PUSH2 0x2E20 JUMP JUMPDEST JUMPDEST DUP2 CALLDATALOAD PUSH2 0x33BC DUP5 DUP3 PUSH1 0x20 DUP7 ADD PUSH2 0x3310 JUMP JUMPDEST SWAP2 POP POP SWAP3 SWAP2 POP POP JUMP JUMPDEST PUSH1 0x0 DUP1 PUSH1 0x0 PUSH1 0x40 DUP5 DUP7 SUB SLT ISZERO PUSH2 0x33DE JUMPI PUSH2 0x33DD PUSH2 0x2D5B JUMP JUMPDEST JUMPDEST PUSH1 0x0 DUP5 ADD CALLDATALOAD PUSH8 0xFFFFFFFFFFFFFFFF DUP2 GT ISZERO PUSH2 0x33FC JUMPI PUSH2 0x33FB PUSH2 0x2D60 JUMP JUMPDEST JUMPDEST PUSH2 0x3408 DUP7 DUP3 DUP8 ADD PUSH2 0x2E2F JUMP JUMPDEST SWAP4 POP SWAP4 POP POP PUSH1 0x20 DUP5 ADD CALLDATALOAD PUSH8 0xFFFFFFFFFFFFFFFF DUP2 GT ISZERO PUSH2 0x342B JUMPI PUSH2 0x342A PUSH2 0x2D60 JUMP JUMPDEST JUMPDEST PUSH2 0x3437 DUP7 DUP3 DUP8 ADD PUSH2 0x3397 JUMP JUMPDEST SWAP2 POP POP SWAP3 POP SWAP3 POP SWAP3 JUMP JUMPDEST PUSH1 0x0 DUP2 MLOAD SWAP1 POP SWAP2 SWAP1 POP JUMP JUMPDEST PUSH1 0x0 DUP3 DUP3 MSTORE PUSH1 0x20 DUP3 ADD SWAP1 POP SWAP3 SWAP2 POP POP JUMP JUMPDEST PUSH1 0x0 DUP2 SWAP1 POP PUSH1 0x20 DUP3 ADD SWAP1 POP SWAP2 SWAP1 POP JUMP JUMPDEST PUSH2 0x3476 DUP2 PUSH2 0x2DEA JUMP JUMPDEST DUP3 MSTORE POP POP JUMP JUMPDEST PUSH1 0x0 DUP3 DUP3 MSTORE PUSH1 0x20 DUP3 ADD SWAP1 POP SWAP3 SWAP2 POP POP JUMP JUMPDEST PUSH1 0x0 PUSH2 0x3498 DUP3 PUSH2 0x31F4 JUMP JUMPDEST PUSH2 0x34A2 DUP2 DUP6 PUSH2 0x347C JUMP JUMPDEST SWAP4 POP PUSH2 0x34B2 DUP2 DUP6 PUSH1 0x20 DUP7 ADD PUSH2 0x3210 JUMP JUMPDEST PUSH2 0x34BB DUP2 PUSH2 0x2E8A JUMP JUMPDEST DUP5 ADD SWAP2 POP POP SWAP3 SWAP2 POP POP JUMP JUMPDEST PUSH1 0x0 PUSH1 0x40 DUP4 ADD PUSH1 0x0 DUP4 ADD MLOAD PUSH2 0x34DE PUSH1 0x0 DUP7 ADD DUP3 PUSH2 0x346D JUMP JUMPDEST POP PUSH1 0x20 DUP4 ADD MLOAD DUP5 DUP3 SUB PUSH1 0x20 DUP7 ADD MSTORE PUSH2 0x34F6 DUP3 DUP3 PUSH2 0x348D JUMP JUMPDEST SWAP2 POP POP DUP1 SWAP2 POP POP SWAP3 SWAP2 POP POP JUMP JUMPDEST PUSH1 0x0 PUSH2 0x350F DUP4 DUP4 PUSH2 0x34C6 JUMP JUMPDEST SWAP1 POP SWAP3 SWAP2 POP POP JUMP JUMPDEST PUSH1 0x0 PUSH1 0x20 DUP3 ADD SWAP1 POP SWAP2 SWAP1 POP JUMP JUMPDEST PUSH1 0x0 PUSH2 0x352F DUP3 PUSH2 0x3441 JUMP JUMPDEST PUSH2 0x3539 DUP2 DUP6 PUSH2 0x344C JUMP JUMPDEST SWAP4 POP DUP4 PUSH1 0x20 DUP3 MUL DUP6 ADD PUSH2 0x354B DUP6 PUSH2 0x345D JUMP JUMPDEST DUP1 PUSH1 0x0 JUMPDEST DUP6 DUP2 LT ISZERO PUSH2 0x3587 JUMPI DUP5 DUP5 SUB DUP10 MSTORE DUP2 MLOAD PUSH2 0x3568 DUP6 DUP3 PUSH2 0x3503 JUMP JUMPDEST SWAP5 POP PUSH2 0x3573 DUP4 PUSH2 0x3517 JUMP JUMPDEST SWAP3 POP PUSH1 0x20 DUP11 ADD SWAP10 POP POP PUSH1 0x1 DUP2 ADD SWAP1 POP PUSH2 0x354F JUMP JUMPDEST POP DUP3 SWAP8 POP DUP8 SWAP6 POP POP POP POP POP POP SWAP3 SWAP2 POP POP JUMP JUMPDEST PUSH1 0x0 PUSH1 0x40 DUP3 ADD SWAP1 POP DUP2 DUP2 SUB PUSH1 0x0 DUP4 ADD MSTORE PUSH2 0x35B3 DUP2 DUP6 PUSH2 0x3524 JUMP JUMPDEST SWAP1 POP PUSH2 0x35C2 PUSH1 0x20 DUP4 ADD DUP5 PUSH2 0x32A5 JUMP JUMPDEST SWAP4 SWAP3 POP POP POP JUMP JUMPDEST PUSH1 0x0 DUP1 PUSH1 0x0 DUP1 PUSH1 0x40 DUP6 DUP8 SUB SLT ISZERO PUSH2 0x35E3 JUMPI PUSH2 0x35E2 PUSH2 0x2D5B JUMP JUMPDEST JUMPDEST PUSH1 0x0 DUP6 ADD CALLDATALOAD PUSH8 0xFFFFFFFFFFFFFFFF DUP2 GT ISZERO PUSH2 0x3601 JUMPI PUSH2 0x3600 PUSH2 0x2D60 JUMP JUMPDEST JUMPDEST PUSH2 0x360D DUP8 DUP3 DUP9 ADD PUSH2 0x2E2F JUMP JUMPDEST SWAP5 POP SWAP5 POP POP PUSH1 0x20 DUP6 ADD CALLDATALOAD PUSH8 0xFFFFFFFFFFFFFFFF DUP2 GT ISZERO PUSH2 0x3630 JUMPI PUSH2 0x362F PUSH2 0x2D60 JUMP JUMPDEST JUMPDEST PUSH2 0x363C DUP8 DUP3 DUP9 ADD PUSH2 0x2E2F JUMP JUMPDEST SWAP3 POP SWAP3 POP POP SWAP3 SWAP6 SWAP2 SWAP5 POP SWAP3 POP JUMP JUMPDEST PUSH1 0x0 DUP2 MLOAD SWAP1 POP SWAP2 SWAP1 POP JUMP JUMPDEST PUSH1 0x0 DUP3 DUP3 MSTORE PUSH1 0x20 DUP3 ADD SWAP1 POP SWAP3 SWAP2 POP POP JUMP JUMPDEST PUSH1 0x0 PUSH2 0x3671 DUP3 PUSH2 0x364A JUMP JUMPDEST PUSH2 0x367B DUP2 DUP6 PUSH2 0x3655 JUMP JUMPDEST SWAP4 POP PUSH2 0x368B DUP2 DUP6 PUSH1 0x20 DUP7 ADD PUSH2 0x3210 JUMP JUMPDEST PUSH2 0x3694 DUP2 PUSH2 0x2E8A JUMP JUMPDEST DUP5 ADD SWAP2 POP POP SWAP3 SWAP2 POP POP JUMP JUMPDEST PUSH1 0x0 PUSH1 0x80 DUP3 ADD SWAP1 POP DUP2 DUP2 SUB PUSH1 0x0 DUP4 ADD MSTORE PUSH2 0x36B9 DUP2 DUP8 PUSH2 0x3666 JUMP JUMPDEST SWAP1 POP PUSH2 0x36C8 PUSH1 0x20 DUP4 ADD DUP7 PUSH2 0x32A5 JUMP JUMPDEST PUSH2 0x36D5 PUSH1 0x40 DUP4 ADD DUP6 PUSH2 0x32A5 JUMP JUMPDEST PUSH2 0x36E2 PUSH1 0x60 DUP4 ADD DUP5 PUSH2 0x32A5 JUMP JUMPDEST SWAP6 SWAP5 POP POP POP POP POP JUMP JUMPDEST PUSH1 0x0 DUP1 PUSH1 0x0 DUP1 PUSH1 0x60 DUP6 DUP8 SUB SLT ISZERO PUSH2 0x3705 JUMPI PUSH2 0x3704 PUSH2 0x2D5B JUMP JUMPDEST JUMPDEST PUSH1 0x0 DUP6 ADD CALLDATALOAD PUSH8 0xFFFFFFFFFFFFFFFF DUP2 GT ISZERO PUSH2 0x3723 JUMPI PUSH2 0x3722 PUSH2 0x2D60 JUMP JUMPDEST JUMPDEST PUSH2 0x372F DUP8 DUP3 DUP9 ADD PUSH2 0x2E2F JUMP JUMPDEST SWAP5 POP SWAP5 POP POP PUSH1 0x20 DUP6 ADD CALLDATALOAD PUSH8 0xFFFFFFFFFFFFFFFF DUP2 GT ISZERO PUSH2 0x3752 JUMPI PUSH2 0x3751 PUSH2 0x2D60 JUMP JUMPDEST JUMPDEST PUSH2 0x375E DUP8 DUP3 DUP9 ADD PUSH2 0x3397 JUMP JUMPDEST SWAP3 POP POP PUSH1 0x40 DUP6 ADD CALLDATALOAD PUSH8 0xFFFFFFFFFFFFFFFF DUP2 GT ISZERO PUSH2 0x377F JUMPI PUSH2 0x377E PUSH2 0x2D60 JUMP JUMPDEST JUMPDEST PUSH2 0x378B DUP8 DUP3 DUP9 ADD PUSH2 0x311A JUMP JUMPDEST SWAP2 POP POP SWAP3 SWAP6 SWAP2 SWAP5 POP SWAP3 POP JUMP JUMPDEST PUSH1 0x0 DUP2 SWAP1 POP SWAP2 SWAP1 POP JUMP JUMPDEST PUSH1 0x0 PUSH2 0x37BC PUSH2 0x37B7 PUSH2 0x37B2 DUP5 PUSH2 0x3273 JUMP JUMPDEST PUSH2 0x3797 JUMP JUMPDEST PUSH2 0x3273 JUMP JUMPDEST SWAP1 POP SWAP2 SWAP1 POP JUMP JUMPDEST PUSH1 0x0 PUSH2 0x37CE DUP3 PUSH2 0x37A1 JUMP JUMPDEST SWAP1 POP SWAP2 SWAP1 POP JUMP JUMPDEST PUSH1 0x0 PUSH2 0x37E0 DUP3 PUSH2 0x37C3 JUMP JUMPDEST SWAP1 POP SWAP2 SWAP1 POP JUMP JUMPDEST PUSH2 0x37F0 DUP2 PUSH2 0x37D5 JUMP JUMPDEST DUP3 MSTORE POP POP JUMP JUMPDEST PUSH1 0x0 PUSH1 0x20 DUP3 ADD SWAP1 POP PUSH2 0x380B PUSH1 0x0 DUP4 ADD DUP5 PUSH2 0x37E7 JUMP JUMPDEST SWAP3 SWAP2 POP POP JUMP JUMPDEST PUSH1 0x0 PUSH1 0x20 DUP3 ADD SWAP1 POP PUSH2 0x3826 PUSH1 0x0 DUP4 ADD DUP5 PUSH2 0x32A5 JUMP JUMPDEST SWAP3 SWAP2 POP POP JUMP JUMPDEST PUSH1 0x0 DUP1 PUSH1 0x0 DUP1 PUSH1 0x0 DUP1 PUSH1 0xA0 DUP8 DUP10 SUB SLT ISZERO PUSH2 0x3849 JUMPI PUSH2 0x3848 PUSH2 0x2D5B JUMP JUMPDEST JUMPDEST PUSH1 0x0 DUP8 ADD CALLDATALOAD PUSH8 0xFFFFFFFFFFFFFFFF DUP2 GT ISZERO PUSH2 0x3867 JUMPI PUSH2 0x3866 PUSH2 0x2D60 JUMP JUMPDEST JUMPDEST PUSH2 0x3873 DUP10 DUP3 DUP11 ADD PUSH2 0x2E2F JUMP JUMPDEST SWAP7 POP SWAP7 POP POP PUSH1 0x20 DUP8 ADD CALLDATALOAD PUSH8 0xFFFFFFFFFFFFFFFF DUP2 GT ISZERO PUSH2 0x3896 JUMPI PUSH2 0x3895 PUSH2 0x2D60 JUMP JUMPDEST JUMPDEST PUSH2 0x38A2 DUP10 DUP3 DUP11 ADD PUSH2 0x2F98 JUMP JUMPDEST SWAP5 POP POP PUSH1 0x40 DUP8 ADD CALLDATALOAD PUSH8 0xFFFFFFFFFFFFFFFF DUP2 GT ISZERO PUSH2 0x38C3 JUMPI PUSH2 0x38C2 PUSH2 0x2D60 JUMP JUMPDEST JUMPDEST PUSH2 0x38CF DUP10 DUP3 DUP11 ADD PUSH2 0x311A JUMP JUMPDEST SWAP4 POP POP PUSH1 0x60 PUSH2 0x38E0 DUP10 DUP3 DUP11 ADD PUSH2 0x2DA8 JUMP JUMPDEST SWAP3 POP POP PUSH1 0x80 DUP8 ADD CALLDATALOAD PUSH8 0xFFFFFFFFFFFFFFFF DUP2 GT ISZERO PUSH2 0x3901 JUMPI PUSH2 0x3900 PUSH2 0x2D60 JUMP JUMPDEST JUMPDEST PUSH2 0x390D DUP10 DUP3 DUP11 ADD PUSH2 0x2F98 JUMP JUMPDEST SWAP2 POP POP SWAP3 SWAP6 POP SWAP3 SWAP6 POP SWAP3 SWAP6 JUMP JUMPDEST PUSH1 0x0 PUSH1 0x20 DUP3 DUP5 SUB SLT ISZERO PUSH2 0x3930 JUMPI PUSH2 0x392F PUSH2 0x2D5B JUMP JUMPDEST JUMPDEST PUSH1 0x0 DUP3 ADD CALLDATALOAD PUSH8 0xFFFFFFFFFFFFFFFF DUP2 GT ISZERO PUSH2 0x394E JUMPI PUSH2 0x394D PUSH2 0x2D60 JUMP JUMPDEST JUMPDEST PUSH2 0x395A DUP5 DUP3 DUP6 ADD PUSH2 0x311A JUMP JUMPDEST SWAP2 POP POP SWAP3 SWAP2 POP POP JUMP JUMPDEST PUSH1 0x0 DUP1 PUSH1 0x0 PUSH1 0x40 DUP5 DUP7 SUB SLT ISZERO PUSH2 0x397C JUMPI PUSH2 0x397B PUSH2 0x2D5B JUMP JUMPDEST JUMPDEST PUSH1 0x0 DUP5 ADD CALLDATALOAD PUSH8 0xFFFFFFFFFFFFFFFF DUP2 GT ISZERO PUSH2 0x399A JUMPI PUSH2 0x3999 PUSH2 0x2D60 JUMP JUMPDEST JUMPDEST PUSH2 0x39A6 DUP7 DUP3 DUP8 ADD PUSH2 0x2E2F JUMP JUMPDEST SWAP4 POP SWAP4 POP POP PUSH1 0x20 DUP5 ADD CALLDATALOAD PUSH8 0xFFFFFFFFFFFFFFFF DUP2 GT ISZERO PUSH2 0x39C9 JUMPI PUSH2 0x39C8 PUSH2 0x2D60 JUMP JUMPDEST JUMPDEST PUSH2 0x39D5 DUP7 DUP3 DUP8 ADD PUSH2 0x2F98 JUMP JUMPDEST SWAP2 POP POP SWAP3 POP SWAP3 POP SWAP3 JUMP JUMPDEST PUSH1 0x0 DUP1 PUSH1 0x20 DUP4 DUP6 SUB SLT ISZERO PUSH2 0x39F6 JUMPI PUSH2 0x39F5 PUSH2 0x2D5B JUMP JUMPDEST JUMPDEST PUSH1 0x0 DUP4 ADD CALLDATALOAD PUSH8 0xFFFFFFFFFFFFFFFF DUP2 GT ISZERO PUSH2 0x3A14 JUMPI PUSH2 0x3A13 PUSH2 0x2D60 JUMP JUMPDEST JUMPDEST PUSH2 0x3A20 DUP6 DUP3 DUP7 ADD PUSH2 0x2E2F JUMP JUMPDEST SWAP3 POP SWAP3 POP POP SWAP3 POP SWAP3 SWAP1 POP JUMP JUMPDEST PUSH1 0x0 PUSH2 0x3A37 DUP3 PUSH2 0x37C3 JUMP JUMPDEST SWAP1 POP SWAP2 SWAP1 POP JUMP JUMPDEST PUSH2 0x3A47 DUP2 PUSH2 0x3A2C JUMP JUMPDEST DUP3 MSTORE POP POP JUMP JUMPDEST PUSH1 0x0 DUP2 SWAP1 POP SWAP2 SWAP1 POP JUMP JUMPDEST PUSH2 0x3A60 DUP2 PUSH2 0x3A4D JUMP JUMPDEST DUP3 MSTORE POP POP JUMP JUMPDEST PUSH1 0x0 DUP2 SWAP1 POP SWAP2 SWAP1 POP JUMP JUMPDEST PUSH2 0x3A79 DUP2 PUSH2 0x3A66 JUMP JUMPDEST DUP3 MSTORE POP POP JUMP JUMPDEST PUSH1 0x0 PUSH1 0x60 DUP3 ADD SWAP1 POP PUSH2 0x3A94 PUSH1 0x0 DUP4 ADD DUP7 PUSH2 0x3A3E JUMP JUMPDEST PUSH2 0x3AA1 PUSH1 0x20 DUP4 ADD DUP6 PUSH2 0x3A57 JUMP JUMPDEST PUSH2 0x3AAE PUSH1 0x40 DUP4 ADD DUP5 PUSH2 0x3A70 JUMP JUMPDEST SWAP5 SWAP4 POP POP POP POP JUMP JUMPDEST PUSH2 0x3ABF DUP2 PUSH2 0x3A66 JUMP JUMPDEST DUP2 EQ PUSH2 0x3ACA JUMPI PUSH1 0x0 DUP1 REVERT JUMPDEST POP JUMP JUMPDEST PUSH1 0x0 DUP2 CALLDATALOAD SWAP1 POP PUSH2 0x3ADC DUP2 PUSH2 0x3AB6 JUMP JUMPDEST SWAP3 SWAP2 POP POP JUMP JUMPDEST PUSH1 0x0 PUSH1 0x20 DUP3 DUP5 SUB SLT ISZERO PUSH2 0x3AF8 JUMPI PUSH2 0x3AF7 PUSH2 0x2D5B JUMP JUMPDEST JUMPDEST PUSH1 0x0 PUSH2 0x3B06 DUP5 DUP3 DUP6 ADD PUSH2 0x3ACD JUMP JUMPDEST SWAP2 POP POP SWAP3 SWAP2 POP POP JUMP JUMPDEST PUSH1 0x0 PUSH1 0x20 DUP3 ADD SWAP1 POP DUP2 DUP2 SUB PUSH1 0x0 DUP4 ADD MSTORE PUSH2 0x3B29 DUP2 DUP5 PUSH2 0x3666 JUMP JUMPDEST SWAP1 POP SWAP3 SWAP2 POP POP JUMP JUMPDEST PUSH1 0x0 DUP1 PUSH1 0x0 PUSH1 0x40 DUP5 DUP7 SUB SLT ISZERO PUSH2 0x3B4A JUMPI PUSH2 0x3B49 PUSH2 0x2D5B JUMP JUMPDEST JUMPDEST PUSH1 0x0 DUP5 ADD CALLDATALOAD PUSH8 0xFFFFFFFFFFFFFFFF DUP2 GT ISZERO PUSH2 0x3B68 JUMPI PUSH2 0x3B67 PUSH2 0x2D60 JUMP JUMPDEST JUMPDEST PUSH2 0x3B74 DUP7 DUP3 DUP8 ADD PUSH2 0x2E2F JUMP JUMPDEST SWAP4 POP SWAP4 POP POP PUSH1 0x20 DUP5 ADD CALLDATALOAD PUSH8 0xFFFFFFFFFFFFFFFF DUP2 GT ISZERO PUSH2 0x3B97 JUMPI PUSH2 0x3B96 PUSH2 0x2D60 JUMP JUMPDEST JUMPDEST PUSH2 0x3BA3 DUP7 DUP3 DUP8 ADD PUSH2 0x311A JUMP JUMPDEST SWAP2 POP POP SWAP3 POP SWAP3 POP SWAP3 JUMP JUMPDEST PUSH2 0x3BB6 DUP2 PUSH2 0x3293 JUMP JUMPDEST DUP2 EQ PUSH2 0x3BC1 JUMPI PUSH1 0x0 DUP1 REVERT JUMPDEST POP JUMP JUMPDEST PUSH1 0x0 DUP2 CALLDATALOAD SWAP1 POP PUSH2 0x3BD3 DUP2 PUSH2 0x3BAD JUMP JUMPDEST SWAP3 SWAP2 POP POP JUMP JUMPDEST PUSH1 0x0 PUSH1 0x20 DUP3 DUP5 SUB SLT ISZERO PUSH2 0x3BEF JUMPI PUSH2 0x3BEE PUSH2 0x2D5B JUMP JUMPDEST JUMPDEST PUSH1 0x0 PUSH2 0x3BFD DUP5 DUP3 DUP6 ADD PUSH2 0x3BC4 JUMP JUMPDEST SWAP2 POP POP SWAP3 SWAP2 POP POP JUMP JUMPDEST PUSH32 0x4E487B7100000000000000000000000000000000000000000000000000000000 PUSH1 0x0 MSTORE PUSH1 0x22 PUSH1 0x4 MSTORE PUSH1 0x24 PUSH1 0x0 REVERT JUMPDEST PUSH1 0x0 PUSH1 0x2 DUP3 DIV SWAP1 POP PUSH1 0x1 DUP3 AND DUP1 PUSH2 0x3C4D JUMPI PUSH1 0x7F DUP3 AND SWAP2 POP JUMPDEST PUSH1 0x20 DUP3 LT DUP2 SUB PUSH2 0x3C60 JUMPI PUSH2 0x3C5F PUSH2 0x3C06 JUMP JUMPDEST JUMPDEST POP SWAP2 SWAP1 POP JUMP JUMPDEST PUSH32 0x4E487B7100000000000000000000000000000000000000000000000000000000 PUSH1 0x0 MSTORE PUSH1 0x32 PUSH1 0x4 MSTORE PUSH1 0x24 PUSH1 0x0 REVERT JUMPDEST PUSH1 0x0 PUSH2 0x3CA8 PUSH2 0x3CA3 DUP5 PUSH2 0x2FF2 JUMP JUMPDEST PUSH2 0x2EFB JUMP JUMPDEST SWAP1 POP DUP3 DUP2 MSTORE PUSH1 0x20 DUP2 ADD DUP5 DUP5 DUP5 ADD GT ISZERO PUSH2 0x3CC4 JUMPI PUSH2 0x3CC3 PUSH2 0x2E85 JUMP JUMPDEST JUMPDEST PUSH2 0x3CCF DUP5 DUP3 DUP6 PUSH2 0x3210 JUMP JUMPDEST POP SWAP4 SWAP3 POP POP POP JUMP JUMPDEST PUSH1 0x0 DUP3 PUSH1 0x1F DUP4 ADD SLT PUSH2 0x3CEC JUMPI PUSH2 0x3CEB PUSH2 0x2E20 JUMP JUMPDEST JUMPDEST DUP2 MLOAD PUSH2 0x3CFC DUP5 DUP3 PUSH1 0x20 DUP7 ADD PUSH2 0x3C95 JUMP JUMPDEST SWAP2 POP POP SWAP3 SWAP2 POP POP JUMP JUMPDEST PUSH1 0x0 PUSH2 0x3D10 DUP3 PUSH2 0x3273 JUMP JUMPDEST SWAP1 POP SWAP2 SWAP1 POP JUMP JUMPDEST PUSH2 0x3D20 DUP2 PUSH2 0x3D05 JUMP JUMPDEST DUP2 EQ PUSH2 0x3D2B JUMPI PUSH1 0x0 DUP1 REVERT JUMPDEST POP JUMP JUMPDEST PUSH1 0x0 DUP2 MLOAD SWAP1 POP PUSH2 0x3D3D DUP2 PUSH2 0x3D17 JUMP JUMPDEST SWAP3 SWAP2 POP POP JUMP JUMPDEST PUSH1 0x0 DUP1 PUSH1 0x40 DUP4 DUP6 SUB SLT ISZERO PUSH2 0x3D5A JUMPI PUSH2 0x3D59 PUSH2 0x2D5B JUMP JUMPDEST JUMPDEST PUSH1 0x0 DUP4 ADD MLOAD PUSH8 0xFFFFFFFFFFFFFFFF DUP2 GT ISZERO PUSH2 0x3D78 JUMPI PUSH2 0x3D77 PUSH2 0x2D60 JUMP JUMPDEST JUMPDEST PUSH2 0x3D84 DUP6 DUP3 DUP7 ADD PUSH2 0x3CD7 JUMP JUMPDEST SWAP3 POP POP PUSH1 0x20 PUSH2 0x3D95 DUP6 DUP3 DUP7 ADD PUSH2 0x3D2E JUMP JUMPDEST SWAP2 POP POP SWAP3 POP SWAP3 SWAP1 POP JUMP JUMPDEST PUSH1 0x0 PUSH1 0x20 DUP3 DUP5 SUB SLT ISZERO PUSH2 0x3DB5 JUMPI PUSH2 0x3DB4 PUSH2 0x2D5B JUMP JUMPDEST JUMPDEST PUSH1 0x0 PUSH2 0x3DC3 DUP5 DUP3 DUP6 ADD PUSH2 0x3D2E JUMP JUMPDEST SWAP2 POP POP SWAP3 SWAP2 POP POP JUMP JUMPDEST PUSH32 0x4F776E61626C653A2063616C6C6572206973206E6F7420746865206F776E6572 PUSH1 0x0 DUP3 ADD MSTORE POP JUMP JUMPDEST PUSH1 0x0 PUSH2 0x3E02 PUSH1 0x20 DUP4 PUSH2 0x3655 JUMP JUMPDEST SWAP2 POP PUSH2 0x3E0D DUP3 PUSH2 0x3DCC JUMP JUMPDEST PUSH1 0x20 DUP3 ADD SWAP1 POP SWAP2 SWAP1 POP JUMP JUMPDEST PUSH1 0x0 PUSH1 0x20 DUP3 ADD SWAP1 POP DUP2 DUP2 SUB PUSH1 0x0 DUP4 ADD MSTORE PUSH2 0x3E31 DUP2 PUSH2 0x3DF5 JUMP JUMPDEST SWAP1 POP SWAP2 SWAP1 POP JUMP JUMPDEST PUSH1 0x0 PUSH1 0x20 DUP3 ADD SWAP1 POP PUSH2 0x3E4D PUSH1 0x0 DUP4 ADD DUP5 PUSH2 0x3A57 JUMP JUMPDEST SWAP3 SWAP2 POP POP JUMP JUMPDEST PUSH32 0x4F776E61626C653A206E6577206F776E657220697320746865207A65726F2061 PUSH1 0x0 DUP3 ADD MSTORE PUSH32 0x6464726573730000000000000000000000000000000000000000000000000000 PUSH1 0x20 DUP3 ADD MSTORE POP JUMP JUMPDEST PUSH1 0x0 PUSH2 0x3EAF PUSH1 0x26 DUP4 PUSH2 0x3655 JUMP JUMPDEST SWAP2 POP PUSH2 0x3EBA DUP3 PUSH2 0x3E53 JUMP JUMPDEST PUSH1 0x40 DUP3 ADD SWAP1 POP SWAP2 SWAP1 POP JUMP JUMPDEST PUSH1 0x0 PUSH1 0x20 DUP3 ADD SWAP1 POP DUP2 DUP2 SUB PUSH1 0x0 DUP4 ADD MSTORE PUSH2 0x3EDE DUP2 PUSH2 0x3EA2 JUMP JUMPDEST SWAP1 POP SWAP2 SWAP1 POP JUMP JUMPDEST PUSH1 0x0 PUSH8 0xFFFFFFFFFFFFFFFF DUP3 GT ISZERO PUSH2 0x3F00 JUMPI PUSH2 0x3EFF PUSH2 0x2E9B JUMP JUMPDEST JUMPDEST PUSH1 0x20 DUP3 MUL SWAP1 POP PUSH1 0x20 DUP2 ADD SWAP1 POP SWAP2 SWAP1 POP JUMP JUMPDEST PUSH2 0x3F1A DUP2 PUSH2 0x2DEA JUMP JUMPDEST DUP2 EQ PUSH2 0x3F25 JUMPI PUSH1 0x0 DUP1 REVERT JUMPDEST POP JUMP JUMPDEST PUSH1 0x0 DUP2 CALLDATALOAD SWAP1 POP PUSH2 0x3F37 DUP2 PUSH2 0x3F11 JUMP JUMPDEST SWAP3 SWAP2 POP POP JUMP JUMPDEST PUSH1 0x0 PUSH2 0x3F50 PUSH2 0x3F4B DUP5 PUSH2 0x3EE5 JUMP JUMPDEST PUSH2 0x2EFB JUMP JUMPDEST SWAP1 POP DUP1 DUP4 DUP3 MSTORE PUSH1 0x20 DUP3 ADD SWAP1 POP PUSH1 0x20 DUP5 MUL DUP4 ADD DUP6 DUP2 GT ISZERO PUSH2 0x3F73 JUMPI PUSH2 0x3F72 PUSH2 0x2E2A JUMP JUMPDEST JUMPDEST DUP4 JUMPDEST DUP2 DUP2 LT ISZERO PUSH2 0x3F9C JUMPI DUP1 PUSH2 0x3F88 DUP9 DUP3 PUSH2 0x3F28 JUMP JUMPDEST DUP5 MSTORE PUSH1 0x20 DUP5 ADD SWAP4 POP POP PUSH1 0x20 DUP2 ADD SWAP1 POP PUSH2 0x3F75 JUMP JUMPDEST POP POP POP SWAP4 SWAP3 POP POP POP JUMP JUMPDEST PUSH1 0x0 DUP3 PUSH1 0x1F DUP4 ADD SLT PUSH2 0x3FBB JUMPI PUSH2 0x3FBA PUSH2 0x2E20 JUMP JUMPDEST JUMPDEST DUP2 CALLDATALOAD PUSH2 0x3FCB DUP5 DUP3 PUSH1 0x20 DUP7 ADD PUSH2 0x3F3D JUMP JUMPDEST SWAP2 POP POP SWAP3 SWAP2 POP POP JUMP JUMPDEST PUSH1 0x0 DUP1 PUSH1 0x40 DUP4 DUP6 SUB SLT ISZERO PUSH2 0x3FEB JUMPI PUSH2 0x3FEA PUSH2 0x2D5B JUMP JUMPDEST JUMPDEST PUSH1 0x0 DUP4 ADD CALLDATALOAD PUSH8 0xFFFFFFFFFFFFFFFF DUP2 GT ISZERO PUSH2 0x4009 JUMPI PUSH2 0x4008 PUSH2 0x2D60 JUMP JUMPDEST JUMPDEST PUSH2 0x4015 DUP6 DUP3 DUP7 ADD PUSH2 0x3FA6 JUMP JUMPDEST SWAP3 POP POP PUSH1 0x20 DUP4 ADD CALLDATALOAD PUSH8 0xFFFFFFFFFFFFFFFF DUP2 GT ISZERO PUSH2 0x4036 JUMPI PUSH2 0x4035 PUSH2 0x2D60 JUMP JUMPDEST JUMPDEST PUSH2 0x4042 DUP6 DUP3 DUP7 ADD PUSH2 0x3397 JUMP JUMPDEST SWAP2 POP POP SWAP3 POP SWAP3 SWAP1 POP JUMP JUMPDEST PUSH1 0x0 DUP2 CALLDATALOAD SWAP1 POP PUSH2 0x405B DUP2 PUSH2 0x3D17 JUMP JUMPDEST SWAP3 SWAP2 POP POP JUMP JUMPDEST PUSH1 0x0 PUSH8 0xFFFFFFFFFFFFFFFF DUP3 GT ISZERO PUSH2 0x407C JUMPI PUSH2 0x407B PUSH2 0x2E9B JUMP JUMPDEST JUMPDEST PUSH1 0x20 DUP3 MUL SWAP1 POP PUSH1 0x20 DUP2 ADD SWAP1 POP SWAP2 SWAP1 POP JUMP JUMPDEST PUSH1 0x0 DUP1 REVERT JUMPDEST PUSH1 0x0 DUP1 REVERT JUMPDEST PUSH1 0x0 PUSH1 0x40 DUP3 DUP5 SUB SLT ISZERO PUSH2 0x40AD JUMPI PUSH2 0x40AC PUSH2 0x408D JUMP JUMPDEST JUMPDEST PUSH2 0x40B7 PUSH1 0x40 PUSH2 0x2EFB JUMP JUMPDEST SWAP1 POP PUSH1 0x0 PUSH2 0x40C7 DUP5 DUP3 DUP6 ADD PUSH2 0x2DA8 JUMP JUMPDEST PUSH1 0x0 DUP4 ADD MSTORE POP PUSH1 0x20 DUP3 ADD CALLDATALOAD PUSH8 0xFFFFFFFFFFFFFFFF DUP2 GT ISZERO PUSH2 0x40EB JUMPI PUSH2 0x40EA PUSH2 0x4092 JUMP JUMPDEST JUMPDEST PUSH2 0x40F7 DUP5 DUP3 DUP6 ADD PUSH2 0x2F98 JUMP JUMPDEST PUSH1 0x20 DUP4 ADD MSTORE POP SWAP3 SWAP2 POP POP JUMP JUMPDEST PUSH1 0x0 PUSH2 0x4116 PUSH2 0x4111 DUP5 PUSH2 0x4061 JUMP JUMPDEST PUSH2 0x2EFB JUMP JUMPDEST SWAP1 POP DUP1 DUP4 DUP3 MSTORE PUSH1 0x20 DUP3 ADD SWAP1 POP PUSH1 0x20 DUP5 MUL DUP4 ADD DUP6 DUP2 GT ISZERO PUSH2 0x4139 JUMPI PUSH2 0x4138 PUSH2 0x2E2A JUMP JUMPDEST JUMPDEST DUP4 JUMPDEST DUP2 DUP2 LT ISZERO PUSH2 0x4180 JUMPI DUP1 CALLDATALOAD PUSH8 0xFFFFFFFFFFFFFFFF DUP2 GT ISZERO PUSH2 0x415E JUMPI PUSH2 0x415D PUSH2 0x2E20 JUMP JUMPDEST JUMPDEST DUP1 DUP7 ADD PUSH2 0x416B DUP10 DUP3 PUSH2 0x4097 JUMP JUMPDEST DUP6 MSTORE PUSH1 0x20 DUP6 ADD SWAP5 POP POP POP PUSH1 0x20 DUP2 ADD SWAP1 POP PUSH2 0x413B JUMP JUMPDEST POP POP POP SWAP4 SWAP3 POP POP POP JUMP JUMPDEST PUSH1 0x0 DUP3 PUSH1 0x1F DUP4 ADD SLT PUSH2 0x419F JUMPI PUSH2 0x419E PUSH2 0x2E20 JUMP JUMPDEST JUMPDEST DUP2 CALLDATALOAD PUSH2 0x41AF DUP5 DUP3 PUSH1 0x20 DUP7 ADD PUSH2 0x4103 JUMP JUMPDEST SWAP2 POP POP SWAP3 SWAP2 POP POP JUMP JUMPDEST PUSH1 0x0 DUP1 PUSH1 0x0 DUP1 PUSH1 0x0 PUSH1 0xA0 DUP7 DUP9 SUB SLT ISZERO PUSH2 0x41D4 JUMPI PUSH2 0x41D3 PUSH2 0x2D5B JUMP JUMPDEST JUMPDEST PUSH1 0x0 PUSH2 0x41E2 DUP9 DUP3 DUP10 ADD PUSH2 0x3F28 JUMP JUMPDEST SWAP6 POP POP PUSH1 0x20 PUSH2 0x41F3 DUP9 DUP3 DUP10 ADD PUSH2 0x404C JUMP JUMPDEST SWAP5 POP POP PUSH1 0x40 DUP7 ADD CALLDATALOAD PUSH8 0xFFFFFFFFFFFFFFFF DUP2 GT ISZERO PUSH2 0x4214 JUMPI PUSH2 0x4213 PUSH2 0x2D60 JUMP JUMPDEST JUMPDEST PUSH2 0x4220 DUP9 DUP3 DUP10 ADD PUSH2 0x311A JUMP JUMPDEST SWAP4 POP POP PUSH1 0x60 DUP7 ADD CALLDATALOAD PUSH8 0xFFFFFFFFFFFFFFFF DUP2 GT ISZERO PUSH2 0x4241 JUMPI PUSH2 0x4240 PUSH2 0x2D60 JUMP JUMPDEST JUMPDEST PUSH2 0x424D DUP9 DUP3 DUP10 ADD PUSH2 0x2F98 JUMP JUMPDEST SWAP3 POP POP PUSH1 0x80 DUP7 ADD CALLDATALOAD PUSH8 0xFFFFFFFFFFFFFFFF DUP2 GT ISZERO PUSH2 0x426E JUMPI PUSH2 0x426D PUSH2 0x2D60 JUMP JUMPDEST JUMPDEST PUSH2 0x427A DUP9 DUP3 DUP10 ADD PUSH2 0x418A JUMP JUMPDEST SWAP2 POP POP SWAP3 SWAP6 POP SWAP3 SWAP6 SWAP1 SWAP4 POP JUMP JUMPDEST PUSH1 0x0 PUSH1 0x40 DUP3 ADD SWAP1 POP DUP2 DUP2 SUB PUSH1 0x0 DUP4 ADD MSTORE PUSH2 0x42A1 DUP2 DUP6 PUSH2 0x323A JUMP JUMPDEST SWAP1 POP DUP2 DUP2 SUB PUSH1 0x20 DUP4 ADD MSTORE PUSH2 0x42B5 DUP2 DUP5 PUSH2 0x323A JUMP JUMPDEST SWAP1 POP SWAP4 SWAP3 POP POP POP JUMP JUMPDEST PUSH32 0x4E487B7100000000000000000000000000000000000000000000000000000000 PUSH1 0x0 MSTORE PUSH1 0x11 PUSH1 0x4 MSTORE PUSH1 0x24 PUSH1 0x0 REVERT JUMPDEST PUSH1 0x0 PUSH2 0x42F8 DUP3 PUSH2 0x3A66 JUMP JUMPDEST SWAP2 POP PUSH2 0x4303 DUP4 PUSH2 0x3A66 JUMP JUMPDEST SWAP3 POP DUP3 DUP3 ADD SWAP1 POP DUP1 DUP3 GT ISZERO PUSH2 0x431B JUMPI PUSH2 0x431A PUSH2 0x42BE JUMP JUMPDEST JUMPDEST SWAP3 SWAP2 POP POP JUMP JUMPDEST PUSH1 0x0 DUP2 SWAP1 POP PUSH1 0x20 DUP3 ADD SWAP1 POP SWAP2 SWAP1 POP JUMP JUMPDEST PUSH1 0x0 PUSH2 0x433D DUP3 MLOAD PUSH2 0x2D65 JUMP JUMPDEST DUP1 SWAP2 POP POP SWAP2 SWAP1 POP JUMP JUMPDEST PUSH1 0x0 DUP3 DUP3 SHL SWAP1 POP SWAP3 SWAP2 POP POP JUMP JUMPDEST PUSH1 0x0 PUSH2 0x435E DUP3 PUSH2 0x31F4 JUMP JUMPDEST DUP3 PUSH2 0x4368 DUP5 PUSH2 0x4321 JUMP JUMPDEST SWAP1 POP PUSH2 0x4373 DUP2 PUSH2 0x4331 JUMP JUMPDEST SWAP3 POP PUSH1 0x4 DUP3 LT ISZERO PUSH2 0x43B3 JUMPI PUSH2 0x43AE PUSH32 0xFFFFFFFF00000000000000000000000000000000000000000000000000000000 DUP4 PUSH1 0x4 SUB PUSH1 0x8 MUL PUSH2 0x4346 JUMP JUMPDEST DUP4 AND SWAP3 POP JUMPDEST POP POP SWAP2 SWAP1 POP JUMP JUMPDEST PUSH1 0x0 PUSH1 0x20 DUP3 ADD SWAP1 POP DUP2 DUP2 SUB PUSH1 0x0 DUP4 ADD MSTORE PUSH2 0x43D4 DUP2 DUP5 PUSH2 0x323A JUMP JUMPDEST SWAP1 POP SWAP3 SWAP2 POP POP JUMP JUMPDEST PUSH1 0x0 PUSH1 0x20 DUP3 DUP5 SUB SLT ISZERO PUSH2 0x43F2 JUMPI PUSH2 0x43F1 PUSH2 0x2D5B JUMP JUMPDEST JUMPDEST PUSH1 0x0 DUP3 ADD MLOAD PUSH8 0xFFFFFFFFFFFFFFFF DUP2 GT ISZERO PUSH2 0x4410 JUMPI PUSH2 0x440F PUSH2 0x2D60 JUMP JUMPDEST JUMPDEST PUSH2 0x441C DUP5 DUP3 DUP6 ADD PUSH2 0x3CD7 JUMP JUMPDEST SWAP2 POP POP SWAP3 SWAP2 POP POP JUMP JUMPDEST PUSH1 0x0 PUSH1 0x40 DUP3 ADD SWAP1 POP DUP2 DUP2 SUB PUSH1 0x0 DUP4 ADD MSTORE PUSH2 0x443F DUP2 DUP6 PUSH2 0x3666 JUMP JUMPDEST SWAP1 POP PUSH2 0x444E PUSH1 0x20 DUP4 ADD DUP5 PUSH2 0x32A5 JUMP JUMPDEST SWAP4 SWAP3 POP POP POP JUMP JUMPDEST PUSH1 0x0 DUP2 MLOAD SWAP1 POP SWAP2 SWAP1 POP JUMP JUMPDEST PUSH1 0x0 DUP3 DUP3 MSTORE PUSH1 0x20 DUP3 ADD SWAP1 POP SWAP3 SWAP2 POP POP JUMP JUMPDEST PUSH1 0x0 DUP2 SWAP1 POP PUSH1 0x20 DUP3 ADD SWAP1 POP SWAP2 SWAP1 POP JUMP JUMPDEST PUSH1 0x0 DUP3 DUP3 MSTORE PUSH1 0x20 DUP3 ADD SWAP1 POP SWAP3 SWAP2 POP POP JUMP JUMPDEST PUSH1 0x0 PUSH2 0x449D DUP3 PUSH2 0x364A JUMP JUMPDEST PUSH2 0x44A7 DUP2 DUP6 PUSH2 0x4481 JUMP JUMPDEST SWAP4 POP PUSH2 0x44B7 DUP2 DUP6 PUSH1 0x20 DUP7 ADD PUSH2 0x3210 JUMP JUMPDEST PUSH2 0x44C0 DUP2 PUSH2 0x2E8A JUMP JUMPDEST DUP5 ADD SWAP2 POP POP SWAP3 SWAP2 POP POP JUMP JUMPDEST PUSH1 0x0 PUSH2 0x44D7 DUP4 DUP4 PUSH2 0x4492 JUMP JUMPDEST SWAP1 POP SWAP3 SWAP2 POP POP JUMP JUMPDEST PUSH1 0x0 PUSH1 0x20 DUP3 ADD SWAP1 POP SWAP2 SWAP1 POP JUMP JUMPDEST PUSH1 0x0 PUSH2 0x44F7 DUP3 PUSH2 0x4455 JUMP JUMPDEST PUSH2 0x4501 DUP2 DUP6 PUSH2 0x4460 JUMP JUMPDEST SWAP4 POP DUP4 PUSH1 0x20 DUP3 MUL DUP6 ADD PUSH2 0x4513 DUP6 PUSH2 0x4471 JUMP JUMPDEST DUP1 PUSH1 0x0 JUMPDEST DUP6 DUP2 LT ISZERO PUSH2 0x454F JUMPI DUP5 DUP5 SUB DUP10 MSTORE DUP2 MLOAD PUSH2 0x4530 DUP6 DUP3 PUSH2 0x44CB JUMP JUMPDEST SWAP5 POP PUSH2 0x453B DUP4 PUSH2 0x44DF JUMP JUMPDEST SWAP3 POP PUSH1 0x20 DUP11 ADD SWAP10 POP POP PUSH1 0x1 DUP2 ADD SWAP1 POP PUSH2 0x4517 JUMP JUMPDEST POP DUP3 SWAP8 POP DUP8 SWAP6 POP POP POP POP POP POP SWAP3 SWAP2 POP POP JUMP JUMPDEST PUSH2 0x456A DUP2 PUSH2 0x2D65 JUMP JUMPDEST DUP3 MSTORE POP POP JUMP JUMPDEST PUSH1 0x0 PUSH1 0xA0 DUP3 ADD SWAP1 POP DUP2 DUP2 SUB PUSH1 0x0 DUP4 ADD MSTORE PUSH2 0x458A DUP2 DUP9 PUSH2 0x323A JUMP JUMPDEST SWAP1 POP DUP2 DUP2 SUB PUSH1 0x20 DUP4 ADD MSTORE PUSH2 0x459E DUP2 DUP8 PUSH2 0x323A JUMP JUMPDEST SWAP1 POP DUP2 DUP2 SUB PUSH1 0x40 DUP4 ADD MSTORE PUSH2 0x45B2 DUP2 DUP7 PUSH2 0x44EC JUMP JUMPDEST SWAP1 POP PUSH2 0x45C1 PUSH1 0x60 DUP4 ADD DUP6 PUSH2 0x4561 JUMP JUMPDEST DUP2 DUP2 SUB PUSH1 0x80 DUP4 ADD MSTORE PUSH2 0x45D3 DUP2 DUP5 PUSH2 0x323A JUMP JUMPDEST SWAP1 POP SWAP7 SWAP6 POP POP POP POP POP POP JUMP JUMPDEST PUSH1 0x0 PUSH2 0x45F2 PUSH2 0x45ED DUP5 PUSH2 0x2F16 JUMP JUMPDEST PUSH2 0x2EFB JUMP JUMPDEST SWAP1 POP DUP3 DUP2 MSTORE PUSH1 0x20 DUP2 ADD DUP5 DUP5 DUP5 ADD GT ISZERO PUSH2 0x460E JUMPI PUSH2 0x460D PUSH2 0x2E85 JUMP JUMPDEST JUMPDEST PUSH2 0x4619 DUP5 DUP3 DUP6 PUSH2 0x3210 JUMP JUMPDEST POP SWAP4 SWAP3 POP POP POP JUMP JUMPDEST PUSH1 0x0 DUP3 PUSH1 0x1F DUP4 ADD SLT PUSH2 0x4636 JUMPI PUSH2 0x4635 PUSH2 0x2E20 JUMP JUMPDEST JUMPDEST DUP2 MLOAD PUSH2 0x4646 DUP5 DUP3 PUSH1 0x20 DUP7 ADD PUSH2 0x45DF JUMP JUMPDEST SWAP2 POP POP SWAP3 SWAP2 POP POP JUMP JUMPDEST PUSH1 0x0 DUP2 MLOAD SWAP1 POP PUSH2 0x465E DUP2 PUSH2 0x3BAD JUMP JUMPDEST SWAP3 SWAP2 POP POP JUMP JUMPDEST PUSH1 0x0 DUP1 PUSH1 0x40 DUP4 DUP6 SUB SLT ISZERO PUSH2 0x467B JUMPI PUSH2 0x467A PUSH2 0x2D5B JUMP JUMPDEST JUMPDEST PUSH1 0x0 DUP4 ADD MLOAD PUSH8 0xFFFFFFFFFFFFFFFF DUP2 GT ISZERO PUSH2 0x4699 JUMPI PUSH2 0x4698 PUSH2 0x2D60 JUMP JUMPDEST JUMPDEST PUSH2 0x46A5 DUP6 DUP3 DUP7 ADD PUSH2 0x4621 JUMP JUMPDEST SWAP3 POP POP PUSH1 0x20 PUSH2 0x46B6 DUP6 DUP3 DUP7 ADD PUSH2 0x464F JUMP JUMPDEST SWAP2 POP POP SWAP3 POP SWAP3 SWAP1 POP JUMP JUMPDEST PUSH1 0x0 PUSH2 0x46CB DUP3 PUSH2 0x3A66 JUMP JUMPDEST SWAP2 POP PUSH2 0x46D6 DUP4 PUSH2 0x3A66 JUMP JUMPDEST SWAP3 POP DUP3 DUP3 SUB SWAP1 POP DUP2 DUP2 GT ISZERO PUSH2 0x46EE JUMPI PUSH2 0x46ED PUSH2 0x42BE JUMP JUMPDEST JUMPDEST SWAP3 SWAP2 POP POP JUMP JUMPDEST PUSH1 0x0 DUP1 REVERT JUMPDEST PUSH1 0x0 DUP1 REVERT JUMPDEST PUSH1 0x0 DUP1 DUP6 DUP6 GT ISZERO PUSH2 0x4712 JUMPI PUSH2 0x4711 PUSH2 0x46F4 JUMP JUMPDEST JUMPDEST DUP4 DUP7 GT ISZERO PUSH2 0x4723 JUMPI PUSH2 0x4722 PUSH2 0x46F9 JUMP JUMPDEST JUMPDEST PUSH1 0x1 DUP6 MUL DUP4 ADD SWAP2 POP DUP5 DUP7 SUB SWAP1 POP SWAP5 POP SWAP5 SWAP3 POP POP POP JUMP JUMPDEST PUSH1 0x0 DUP2 SWAP1 POP SWAP3 SWAP2 POP POP JUMP JUMPDEST PUSH1 0x0 PUSH2 0x4750 DUP4 DUP6 PUSH2 0x4739 JUMP JUMPDEST SWAP4 POP PUSH2 0x475D DUP4 DUP6 DUP5 PUSH2 0x2F47 JUMP JUMPDEST DUP3 DUP5 ADD SWAP1 POP SWAP4 SWAP3 POP POP POP JUMP JUMPDEST PUSH1 0x0 PUSH2 0x4776 DUP3 DUP5 DUP7 PUSH2 0x4744 JUMP JUMPDEST SWAP2 POP DUP2 SWAP1 POP SWAP4 SWAP3 POP POP POP JUMP JUMPDEST PUSH1 0x0 DUP2 SWAP1 POP SWAP2 SWAP1 POP JUMP JUMPDEST PUSH2 0x479D PUSH2 0x4798 DUP3 PUSH2 0x3A4D JUMP JUMPDEST PUSH2 0x4782 JUMP JUMPDEST DUP3 MSTORE POP POP JUMP JUMPDEST PUSH1 0x0 PUSH2 0x47AF DUP3 DUP6 PUSH2 0x478C JUMP JUMPDEST PUSH1 0x20 DUP3 ADD SWAP2 POP PUSH2 0x47BF DUP3 DUP5 PUSH2 0x478C JUMP JUMPDEST PUSH1 0x20 DUP3 ADD SWAP2 POP DUP2 SWAP1 POP SWAP4 SWAP3 POP POP POP JUMP JUMPDEST PUSH1 0x0 PUSH1 0x20 DUP3 DUP5 SUB SLT ISZERO PUSH2 0x47E5 JUMPI PUSH2 0x47E4 PUSH2 0x2D5B JUMP JUMPDEST JUMPDEST PUSH1 0x0 PUSH2 0x47F3 DUP5 DUP3 DUP6 ADD PUSH2 0x464F JUMP JUMPDEST SWAP2 POP POP SWAP3 SWAP2 POP POP JUMP JUMPDEST PUSH32 0x6E616D65686173683A204A756E6B20617420656E64206F66206E616D65000000 PUSH1 0x0 DUP3 ADD MSTORE POP JUMP JUMPDEST PUSH1 0x0 PUSH2 0x4832 PUSH1 0x1D DUP4 PUSH2 0x3655 JUMP JUMPDEST SWAP2 POP PUSH2 0x483D DUP3 PUSH2 0x47FC JUMP JUMPDEST PUSH1 0x20 DUP3 ADD SWAP1 POP SWAP2 SWAP1 POP JUMP JUMPDEST PUSH1 0x0 PUSH1 0x20 DUP3 ADD SWAP1 POP DUP2 DUP2 SUB PUSH1 0x0 DUP4 ADD MSTORE PUSH2 0x4861 DUP2 PUSH2 0x4825 JUMP JUMPDEST SWAP1 POP SWAP2 SWAP1 POP JUMP JUMPDEST PUSH1 0x0 PUSH2 0x487B PUSH2 0x4876 DUP5 PUSH2 0x2FC6 JUMP JUMPDEST PUSH2 0x2EFB JUMP JUMPDEST SWAP1 POP DUP1 DUP4 DUP3 MSTORE PUSH1 0x20 DUP3 ADD SWAP1 POP PUSH1 0x20 DUP5 MUL DUP4 ADD DUP6 DUP2 GT ISZERO PUSH2 0x489E JUMPI PUSH2 0x489D PUSH2 0x2E2A JUMP JUMPDEST JUMPDEST DUP4 JUMPDEST DUP2 DUP2 LT ISZERO PUSH2 0x48E5 JUMPI DUP1 MLOAD PUSH8 0xFFFFFFFFFFFFFFFF DUP2 GT ISZERO PUSH2 0x48C3 JUMPI PUSH2 0x48C2 PUSH2 0x2E20 JUMP JUMPDEST JUMPDEST DUP1 DUP7 ADD PUSH2 0x48D0 DUP10 DUP3 PUSH2 0x3CD7 JUMP JUMPDEST DUP6 MSTORE PUSH1 0x20 DUP6 ADD SWAP5 POP POP POP PUSH1 0x20 DUP2 ADD SWAP1 POP PUSH2 0x48A0 JUMP JUMPDEST POP POP POP SWAP4 SWAP3 POP POP POP JUMP JUMPDEST PUSH1 0x0 DUP3 PUSH1 0x1F DUP4 ADD SLT PUSH2 0x4904 JUMPI PUSH2 0x4903 PUSH2 0x2E20 JUMP JUMPDEST JUMPDEST DUP2 MLOAD PUSH2 0x4914 DUP5 DUP3 PUSH1 0x20 DUP7 ADD PUSH2 0x4868 JUMP JUMPDEST SWAP2 POP POP SWAP3 SWAP2 POP POP JUMP JUMPDEST PUSH1 0x0 PUSH1 0x60 DUP3 DUP5 SUB SLT ISZERO PUSH2 0x4933 JUMPI PUSH2 0x4932 PUSH2 0x408D JUMP JUMPDEST JUMPDEST PUSH2 0x493D PUSH1 0x60 PUSH2 0x2EFB JUMP JUMPDEST SWAP1 POP PUSH1 0x0 PUSH2 0x494D DUP5 DUP3 DUP6 ADD PUSH2 0x464F JUMP JUMPDEST PUSH1 0x0 DUP4 ADD MSTORE POP PUSH1 0x20 DUP3 ADD MLOAD PUSH8 0xFFFFFFFFFFFFFFFF DUP2 GT ISZERO PUSH2 0x4971 JUMPI PUSH2 0x4970 PUSH2 0x4092 JUMP JUMPDEST JUMPDEST PUSH2 0x497D DUP5 DUP3 DUP6 ADD PUSH2 0x48EF JUMP JUMPDEST PUSH1 0x20 DUP4 ADD MSTORE POP PUSH1 0x40 DUP3 ADD MLOAD PUSH8 0xFFFFFFFFFFFFFFFF DUP2 GT ISZERO PUSH2 0x49A1 JUMPI PUSH2 0x49A0 PUSH2 0x4092 JUMP JUMPDEST JUMPDEST PUSH2 0x49AD DUP5 DUP3 DUP6 ADD PUSH2 0x4621 JUMP JUMPDEST PUSH1 0x40 DUP4 ADD MSTORE POP SWAP3 SWAP2 POP POP JUMP JUMPDEST PUSH1 0x0 PUSH1 0x20 DUP3 DUP5 SUB SLT ISZERO PUSH2 0x49CF JUMPI PUSH2 0x49CE PUSH2 0x2D5B JUMP JUMPDEST JUMPDEST PUSH1 0x0 DUP3 ADD MLOAD PUSH8 0xFFFFFFFFFFFFFFFF DUP2 GT ISZERO PUSH2 0x49ED JUMPI PUSH2 0x49EC PUSH2 0x2D60 JUMP JUMPDEST JUMPDEST PUSH2 0x49F9 DUP5 DUP3 DUP6 ADD PUSH2 0x491D JUMP JUMPDEST SWAP2 POP POP SWAP3 SWAP2 POP POP JUMP JUMPDEST PUSH1 0x0 PUSH1 0x20 DUP3 DUP5 SUB SLT ISZERO PUSH2 0x4A18 JUMPI PUSH2 0x4A17 PUSH2 0x2D5B JUMP JUMPDEST JUMPDEST PUSH1 0x0 DUP3 ADD MLOAD PUSH8 0xFFFFFFFFFFFFFFFF DUP2 GT ISZERO PUSH2 0x4A36 JUMPI PUSH2 0x4A35 PUSH2 0x2D60 JUMP JUMPDEST JUMPDEST PUSH2 0x4A42 DUP5 DUP3 DUP6 ADD PUSH2 0x4621 JUMP JUMPDEST SWAP2 POP POP SWAP3 SWAP2 POP POP JUMP JUMPDEST PUSH1 0x0 DUP2 MLOAD SWAP1 POP SWAP2 SWAP1 POP JUMP JUMPDEST PUSH1 0x0 DUP3 DUP3 MSTORE PUSH1 0x20 DUP3 ADD SWAP1 POP SWAP3 SWAP2 POP POP JUMP JUMPDEST PUSH1 0x0 DUP2 SWAP1 POP PUSH1 0x20 DUP3 ADD SWAP1 POP SWAP2 SWAP1 POP JUMP JUMPDEST PUSH2 0x4A80 DUP2 PUSH2 0x3293 JUMP JUMPDEST DUP3 MSTORE POP POP JUMP JUMPDEST PUSH1 0x0 DUP3 DUP3 MSTORE PUSH1 0x20 DUP3 ADD SWAP1 POP SWAP3 SWAP2 POP POP JUMP JUMPDEST PUSH1 0x0 PUSH2 0x4AA2 DUP3 PUSH2 0x4455 JUMP JUMPDEST PUSH2 0x4AAC DUP2 DUP6 PUSH2 0x4A86 JUMP JUMPDEST SWAP4 POP DUP4 PUSH1 0x20 DUP3 MUL DUP6 ADD PUSH2 0x4ABE DUP6 PUSH2 0x4471 JUMP JUMPDEST DUP1 PUSH1 0x0 JUMPDEST DUP6 DUP2 LT ISZERO PUSH2 0x4AFA JUMPI DUP5 DUP5 SUB DUP10 MSTORE DUP2 MLOAD PUSH2 0x4ADB DUP6 DUP3 PUSH2 0x44CB JUMP JUMPDEST SWAP5 POP PUSH2 0x4AE6 DUP4 PUSH2 0x44DF JUMP JUMPDEST SWAP3 POP PUSH1 0x20 DUP11 ADD SWAP10 POP POP PUSH1 0x1 DUP2 ADD SWAP1 POP PUSH2 0x4AC2 JUMP JUMPDEST POP DUP3 SWAP8 POP DUP8 SWAP6 POP POP POP POP POP POP SWAP3 SWAP2 POP POP JUMP JUMPDEST PUSH1 0x0 PUSH1 0x60 DUP4 ADD PUSH1 0x0 DUP4 ADD MLOAD PUSH2 0x4B24 PUSH1 0x0 DUP7 ADD DUP3 PUSH2 0x4A77 JUMP JUMPDEST POP PUSH1 0x20 DUP4 ADD MLOAD DUP5 DUP3 SUB PUSH1 0x20 DUP7 ADD MSTORE PUSH2 0x4B3C DUP3 DUP3 PUSH2 0x4A97 JUMP JUMPDEST SWAP2 POP POP PUSH1 0x40 DUP4 ADD MLOAD DUP5 DUP3 SUB PUSH1 0x40 DUP7 ADD MSTORE PUSH2 0x4B56 DUP3 DUP3 PUSH2 0x348D JUMP JUMPDEST SWAP2 POP POP DUP1 SWAP2 POP POP SWAP3 SWAP2 POP POP JUMP JUMPDEST PUSH1 0x0 PUSH2 0x4B6F DUP4 DUP4 PUSH2 0x4B0C JUMP JUMPDEST SWAP1 POP SWAP3 SWAP2 POP POP JUMP JUMPDEST PUSH1 0x0 PUSH1 0x20 DUP3 ADD SWAP1 POP SWAP2 SWAP1 POP JUMP JUMPDEST PUSH1 0x0 PUSH2 0x4B8F DUP3 PUSH2 0x4A4B JUMP JUMPDEST PUSH2 0x4B99 DUP2 DUP6 PUSH2 0x4A56 JUMP JUMPDEST SWAP4 POP DUP4 PUSH1 0x20 DUP3 MUL DUP6 ADD PUSH2 0x4BAB DUP6 PUSH2 0x4A67 JUMP JUMPDEST DUP1 PUSH1 0x0 JUMPDEST DUP6 DUP2 LT ISZERO PUSH2 0x4BE7 JUMPI DUP5 DUP5 SUB DUP10 MSTORE DUP2 MLOAD PUSH2 0x4BC8 DUP6 DUP3 PUSH2 0x4B63 JUMP JUMPDEST SWAP5 POP PUSH2 0x4BD3 DUP4 PUSH2 0x4B77 JUMP JUMPDEST SWAP3 POP PUSH1 0x20 DUP11 ADD SWAP10 POP POP PUSH1 0x1 DUP2 ADD SWAP1 POP PUSH2 0x4BAF JUMP JUMPDEST POP DUP3 SWAP8 POP DUP8 SWAP6 POP POP POP POP POP POP SWAP3 SWAP2 POP POP JUMP JUMPDEST PUSH1 0x0 PUSH1 0x20 DUP3 ADD SWAP1 POP DUP2 DUP2 SUB PUSH1 0x0 DUP4 ADD MSTORE PUSH2 0x4C13 DUP2 DUP5 PUSH2 0x4B84 JUMP JUMPDEST SWAP1 POP SWAP3 SWAP2 POP POP JUMP JUMPDEST PUSH1 0x0 DUP2 MLOAD SWAP1 POP SWAP2 SWAP1 POP JUMP JUMPDEST PUSH1 0x0 DUP3 DUP3 MSTORE PUSH1 0x20 DUP3 ADD SWAP1 POP SWAP3 SWAP2 POP POP JUMP JUMPDEST PUSH1 0x0 DUP2 SWAP1 POP PUSH1 0x20 DUP3 ADD SWAP1 POP SWAP2 SWAP1 POP JUMP JUMPDEST PUSH2 0x4C50 DUP2 PUSH2 0x2D65 JUMP JUMPDEST DUP3 MSTORE POP POP JUMP JUMPDEST PUSH1 0x0 PUSH1 0x40 DUP4 ADD PUSH1 0x0 DUP4 ADD MLOAD PUSH2 0x4C6E PUSH1 0x0 DUP7 ADD DUP3 PUSH2 0x4C47 JUMP JUMPDEST POP PUSH1 0x20 DUP4 ADD MLOAD DUP5 DUP3 SUB PUSH1 0x20 DUP7 ADD MSTORE PUSH2 0x4C86 DUP3 DUP3 PUSH2 0x348D JUMP JUMPDEST SWAP2 POP POP DUP1 SWAP2 POP POP SWAP3 SWAP2 POP POP JUMP JUMPDEST PUSH1 0x0 PUSH2 0x4C9F DUP4 DUP4 PUSH2 0x4C56 JUMP JUMPDEST SWAP1 POP SWAP3 SWAP2 POP POP JUMP JUMPDEST PUSH1 0x0 PUSH1 0x20 DUP3 ADD SWAP1 POP SWAP2 SWAP1 POP JUMP JUMPDEST PUSH1 0x0 PUSH2 0x4CBF DUP3 PUSH2 0x4C1B JUMP JUMPDEST PUSH2 0x4CC9 DUP2 DUP6 PUSH2 0x4C26 JUMP JUMPDEST SWAP4 POP DUP4 PUSH1 0x20 DUP3 MUL DUP6 ADD PUSH2 0x4CDB DUP6 PUSH2 0x4C37 JUMP JUMPDEST DUP1 PUSH1 0x0 JUMPDEST DUP6 DUP2 LT ISZERO PUSH2 0x4D17 JUMPI DUP5 DUP5 SUB DUP10 MSTORE DUP2 MLOAD PUSH2 0x4CF8 DUP6 DUP3 PUSH2 0x4C93 JUMP JUMPDEST SWAP5 POP PUSH2 0x4D03 DUP4 PUSH2 0x4CA7 JUMP JUMPDEST SWAP3 POP PUSH1 0x20 DUP11 ADD SWAP10 POP POP PUSH1 0x1 DUP2 ADD SWAP1 POP PUSH2 0x4CDF JUMP JUMPDEST POP DUP3 SWAP8 POP DUP8 SWAP6 POP POP POP POP POP POP SWAP3 SWAP2 POP POP JUMP JUMPDEST PUSH1 0x0 PUSH1 0xA0 DUP3 ADD SWAP1 POP PUSH2 0x4D3E PUSH1 0x0 DUP4 ADD DUP9 PUSH2 0x2DF6 JUMP JUMPDEST PUSH2 0x4D4B PUSH1 0x20 DUP4 ADD DUP8 PUSH2 0x32A5 JUMP JUMPDEST DUP2 DUP2 SUB PUSH1 0x40 DUP4 ADD MSTORE PUSH2 0x4D5D DUP2 DUP7 PUSH2 0x44EC JUMP JUMPDEST SWAP1 POP DUP2 DUP2 SUB PUSH1 0x60 DUP4 ADD MSTORE PUSH2 0x4D71 DUP2 DUP6 PUSH2 0x323A JUMP JUMPDEST SWAP1 POP DUP2 DUP2 SUB PUSH1 0x80 DUP4 ADD MSTORE PUSH2 0x4D85 DUP2 DUP5 PUSH2 0x4CB4 JUMP JUMPDEST SWAP1 POP SWAP7 SWAP6 POP POP POP POP POP POP JUMP JUMPDEST PUSH1 0x0 PUSH1 0xA0 DUP3 ADD SWAP1 POP PUSH2 0x4DA6 PUSH1 0x0 DUP4 ADD DUP9 PUSH2 0x32A5 JUMP JUMPDEST DUP2 DUP2 SUB PUSH1 0x20 DUP4 ADD MSTORE PUSH2 0x4DB8 DUP2 DUP8 PUSH2 0x44EC JUMP JUMPDEST SWAP1 POP DUP2 DUP2 SUB PUSH1 0x40 DUP4 ADD MSTORE PUSH2 0x4DCC DUP2 DUP7 PUSH2 0x323A JUMP JUMPDEST SWAP1 POP PUSH2 0x4DDB PUSH1 0x60 DUP4 ADD DUP6 PUSH2 0x4561 JUMP JUMPDEST DUP2 DUP2 SUB PUSH1 0x80 DUP4 ADD MSTORE PUSH2 0x4DED DUP2 DUP5 PUSH2 0x323A JUMP JUMPDEST SWAP1 POP SWAP7 SWAP6 POP POP POP POP POP POP JUMP JUMPDEST PUSH32 0x726561644C6162656C3A20496E646578206F7574206F6620626F756E64730000 PUSH1 0x0 DUP3 ADD MSTORE POP JUMP JUMPDEST PUSH1 0x0 PUSH2 0x4E2F PUSH1 0x1E DUP4 PUSH2 0x3655 JUMP JUMPDEST SWAP2 POP PUSH2 0x4E3A DUP3 PUSH2 0x4DF9 JUMP JUMPDEST PUSH1 0x20 DUP3 ADD SWAP1 POP SWAP2 SWAP1 POP JUMP JUMPDEST PUSH1 0x0 PUSH1 0x20 DUP3 ADD SWAP1 POP DUP2 DUP2 SUB PUSH1 0x0 DUP4 ADD MSTORE PUSH2 0x4E5E DUP2 PUSH2 0x4E22 JUMP JUMPDEST SWAP1 POP SWAP2 SWAP1 POP JUMP JUMPDEST PUSH1 0x0 DUP2 MLOAD SWAP1 POP PUSH2 0x4E74 DUP2 PUSH2 0x2D91 JUMP JUMPDEST SWAP3 SWAP2 POP POP JUMP JUMPDEST PUSH1 0x0 DUP1 PUSH1 0x0 DUP1 PUSH1 0x0 PUSH1 0xA0 DUP7 DUP9 SUB SLT ISZERO PUSH2 0x4E96 JUMPI PUSH2 0x4E95 PUSH2 0x2D5B JUMP JUMPDEST JUMPDEST PUSH1 0x0 PUSH2 0x4EA4 DUP9 DUP3 DUP10 ADD PUSH2 0x3D2E JUMP JUMPDEST SWAP6 POP POP PUSH1 0x20 DUP7 ADD MLOAD PUSH8 0xFFFFFFFFFFFFFFFF DUP2 GT ISZERO PUSH2 0x4EC5 JUMPI PUSH2 0x4EC4 PUSH2 0x2D60 JUMP JUMPDEST JUMPDEST PUSH2 0x4ED1 DUP9 DUP3 DUP10 ADD PUSH2 0x48EF JUMP JUMPDEST SWAP5 POP POP PUSH1 0x40 DUP7 ADD MLOAD PUSH8 0xFFFFFFFFFFFFFFFF DUP2 GT ISZERO PUSH2 0x4EF2 JUMPI PUSH2 0x4EF1 PUSH2 0x2D60 JUMP JUMPDEST JUMPDEST PUSH2 0x4EFE DUP9 DUP3 DUP10 ADD PUSH2 0x4621 JUMP JUMPDEST SWAP4 POP POP PUSH1 0x60 PUSH2 0x4F0F DUP9 DUP3 DUP10 ADD PUSH2 0x4E65 JUMP JUMPDEST SWAP3 POP POP PUSH1 0x80 DUP7 ADD MLOAD PUSH8 0xFFFFFFFFFFFFFFFF DUP2 GT ISZERO PUSH2 0x4F30 JUMPI PUSH2 0x4F2F PUSH2 0x2D60 JUMP JUMPDEST JUMPDEST PUSH2 0x4F3C DUP9 DUP3 DUP10 ADD PUSH2 0x4621 JUMP JUMPDEST SWAP2 POP POP SWAP3 SWAP6 POP SWAP3 SWAP6 SWAP1 SWAP4 POP JUMP JUMPDEST PUSH1 0x0 PUSH1 0x60 DUP4 ADD PUSH1 0x0 DUP4 ADD MLOAD PUSH2 0x4F61 PUSH1 0x0 DUP7 ADD DUP3 PUSH2 0x4A77 JUMP JUMPDEST POP PUSH1 0x20 DUP4 ADD MLOAD DUP5 DUP3 SUB PUSH1 0x20 DUP7 ADD MSTORE PUSH2 0x4F79 DUP3 DUP3 PUSH2 0x4A97 JUMP JUMPDEST SWAP2 POP POP PUSH1 0x40 DUP4 ADD MLOAD DUP5 DUP3 SUB PUSH1 0x40 DUP7 ADD MSTORE PUSH2 0x4F93 DUP3 DUP3 PUSH2 0x348D JUMP JUMPDEST SWAP2 POP POP DUP1 SWAP2 POP POP SWAP3 SWAP2 POP POP JUMP JUMPDEST PUSH1 0x0 PUSH1 0x20 DUP3 ADD SWAP1 POP DUP2 DUP2 SUB PUSH1 0x0 DUP4 ADD MSTORE PUSH2 0x4FBA DUP2 DUP5 PUSH2 0x4F49 JUMP JUMPDEST SWAP1 POP SWAP3 SWAP2 POP POP JUMP JUMPDEST PUSH1 0x0 PUSH2 0x4FCD DUP3 PUSH2 0x31F4 JUMP JUMPDEST PUSH2 0x4FD7 DUP2 DUP6 PUSH2 0x4739 JUMP JUMPDEST SWAP4 POP PUSH2 0x4FE7 DUP2 DUP6 PUSH1 0x20 DUP7 ADD PUSH2 0x3210 JUMP JUMPDEST DUP1 DUP5 ADD SWAP2 POP POP SWAP3 SWAP2 POP POP JUMP JUMPDEST PUSH1 0x0 PUSH2 0x4FFF DUP3 DUP6 PUSH2 0x4FC2 JUMP JUMPDEST SWAP2 POP PUSH2 0x500B DUP3 DUP5 PUSH2 0x4FC2 JUMP JUMPDEST SWAP2 POP DUP2 SWAP1 POP SWAP4 SWAP3 POP POP POP JUMP JUMPDEST PUSH32 0x4E487B7100000000000000000000000000000000000000000000000000000000 PUSH1 0x0 MSTORE PUSH1 0x12 PUSH1 0x4 MSTORE PUSH1 0x24 PUSH1 0x0 REVERT JUMPDEST PUSH1 0x0 PUSH2 0x5051 DUP3 PUSH2 0x3A66 JUMP JUMPDEST SWAP2 POP PUSH2 0x505C DUP4 PUSH2 0x3A66 JUMP JUMPDEST SWAP3 POP DUP3 PUSH2 0x506C JUMPI PUSH2 0x506B PUSH2 0x5017 JUMP JUMPDEST JUMPDEST DUP3 DUP3 MOD SWAP1 POP SWAP3 SWAP2 POP POP JUMP JUMPDEST PUSH32 0x496E76616C696420737472696E67206C656E6774680000000000000000000000 PUSH1 0x0 DUP3 ADD MSTORE POP JUMP JUMPDEST PUSH1 0x0 PUSH2 0x50AD PUSH1 0x15 DUP4 PUSH2 0x3655 JUMP JUMPDEST SWAP2 POP PUSH2 0x50B8 DUP3 PUSH2 0x5077 JUMP JUMPDEST PUSH1 0x20 DUP3 ADD SWAP1 POP SWAP2 SWAP1 POP JUMP JUMPDEST PUSH1 0x0 PUSH1 0x20 DUP3 ADD SWAP1 POP DUP2 DUP2 SUB PUSH1 0x0 DUP4 ADD MSTORE PUSH2 0x50DC DUP2 PUSH2 0x50A0 JUMP JUMPDEST SWAP1 POP SWAP2 SWAP1 POP JUMP JUMPDEST PUSH1 0x0 PUSH2 0x50EE DUP3 PUSH2 0x3A66 JUMP JUMPDEST SWAP2 POP PUSH2 0x50F9 DUP4 PUSH2 0x3A66 JUMP JUMPDEST SWAP3 POP DUP3 PUSH2 0x5109 JUMPI PUSH2 0x5108 PUSH2 0x5017 JUMP JUMPDEST JUMPDEST DUP3 DUP3 DIV SWAP1 POP SWAP3 SWAP2 POP POP JUMP JUMPDEST PUSH1 0x0 PUSH1 0x20 DUP3 ADD SWAP1 POP PUSH2 0x5129 PUSH1 0x0 DUP4 ADD DUP5 PUSH2 0x4561 JUMP JUMPDEST SWAP3 SWAP2 POP POP JUMP JUMPDEST PUSH1 0x0 DUP2 MLOAD SWAP1 POP PUSH2 0x513E DUP2 PUSH2 0x3F11 JUMP JUMPDEST SWAP3 SWAP2 POP POP JUMP JUMPDEST PUSH1 0x0 PUSH1 0x20 DUP3 DUP5 SUB SLT ISZERO PUSH2 0x515A JUMPI PUSH2 0x5159 PUSH2 0x2D5B JUMP JUMPDEST JUMPDEST PUSH1 0x0 PUSH2 0x5168 DUP5 DUP3 DUP6 ADD PUSH2 0x512F JUMP JUMPDEST SWAP2 POP POP SWAP3 SWAP2 POP POP JUMP JUMPDEST PUSH32 0x4C6F774C6576656C43616C6C5574696C733A207374617469632063616C6C2074 PUSH1 0x0 DUP3 ADD MSTORE PUSH32 0x6F206E6F6E2D636F6E7472616374000000000000000000000000000000000000 PUSH1 0x20 DUP3 ADD MSTORE POP JUMP JUMPDEST PUSH1 0x0 PUSH2 0x51CD PUSH1 0x2E DUP4 PUSH2 0x3655 JUMP JUMPDEST SWAP2 POP PUSH2 0x51D8 DUP3 PUSH2 0x5171 JUMP JUMPDEST PUSH1 0x40 DUP3 ADD SWAP1 POP SWAP2 SWAP1 POP JUMP JUMPDEST PUSH1 0x0 PUSH1 0x20 DUP3 ADD SWAP1 POP DUP2 DUP2 SUB PUSH1 0x0 DUP4 ADD MSTORE PUSH2 0x51FC DUP2 PUSH2 0x51C0 JUMP JUMPDEST SWAP1 POP SWAP2 SWAP1 POP JUMP JUMPDEST PUSH1 0x0 DUP2 SWAP1 POP DUP2 PUSH1 0x0 MSTORE PUSH1 0x20 PUSH1 0x0 KECCAK256 SWAP1 POP SWAP2 SWAP1 POP JUMP JUMPDEST PUSH1 0x0 PUSH1 0x20 PUSH1 0x1F DUP4 ADD DIV SWAP1 POP SWAP2 SWAP1 POP JUMP JUMPDEST PUSH1 0x0 PUSH1 0x8 DUP4 MUL PUSH2 0x5258 PUSH32 0xFFFFFFFFFFFFFFFFFFFFFFFFFFFFFFFFFFFFFFFFFFFFFFFFFFFFFFFFFFFFFFFF DUP3 PUSH2 0x4346 JUMP JUMPDEST PUSH2 0x5262 DUP7 DUP4 PUSH2 0x4346 JUMP JUMPDEST SWAP6 POP DUP1 NOT DUP5 AND SWAP4 POP DUP1 DUP7 AND DUP5 OR SWAP3 POP POP POP SWAP4 SWAP3 POP POP POP JUMP JUMPDEST PUSH1 0x0 PUSH2 0x5295 PUSH2 0x5290 PUSH2 0x528B DUP5 PUSH2 0x3A66 JUMP JUMPDEST PUSH2 0x3797 JUMP JUMPDEST PUSH2 0x3A66 JUMP JUMPDEST SWAP1 POP SWAP2 SWAP1 POP JUMP JUMPDEST PUSH1 0x0 DUP2 SWAP1 POP SWAP2 SWAP1 POP JUMP JUMPDEST PUSH2 0x52AF DUP4 PUSH2 0x527A JUMP JUMPDEST PUSH2 0x52C3 PUSH2 0x52BB DUP3 PUSH2 0x529C JUMP JUMPDEST DUP5 DUP5 SLOAD PUSH2 0x5228 JUMP JUMPDEST DUP3 SSTORE POP POP POP POP JUMP JUMPDEST PUSH1 0x0 SWAP1 JUMP JUMPDEST PUSH2 0x52D8 PUSH2 0x52CB JUMP JUMPDEST PUSH2 0x52E3 DUP2 DUP5 DUP5 PUSH2 0x52A6 JUMP JUMPDEST POP POP POP JUMP JUMPDEST JUMPDEST DUP2 DUP2 LT ISZERO PUSH2 0x5307 JUMPI PUSH2 0x52FC PUSH1 0x0 DUP3 PUSH2 0x52D0 JUMP JUMPDEST PUSH1 0x1 DUP2 ADD SWAP1 POP PUSH2 0x52E9 JUMP JUMPDEST POP POP JUMP JUMPDEST PUSH1 0x1F DUP3 GT ISZERO PUSH2 0x534C JUMPI PUSH2 0x531D DUP2 PUSH2 0x5203 JUMP JUMPDEST PUSH2 0x5326 DUP5 PUSH2 0x5218 JUMP JUMPDEST DUP2 ADD PUSH1 0x20 DUP6 LT ISZERO PUSH2 0x5335 JUMPI DUP2 SWAP1 POP JUMPDEST PUSH2 0x5349 PUSH2 0x5341 DUP6 PUSH2 0x5218 JUMP JUMPDEST DUP4 ADD DUP3 PUSH2 0x52E8 JUMP JUMPDEST POP POP JUMPDEST POP POP POP JUMP JUMPDEST PUSH1 0x0 DUP3 DUP3 SHR SWAP1 POP SWAP3 SWAP2 POP POP JUMP JUMPDEST PUSH1 0x0 PUSH2 0x536F PUSH1 0x0 NOT DUP5 PUSH1 0x8 MUL PUSH2 0x5351 JUMP JUMPDEST NOT DUP1 DUP4 AND SWAP2 POP POP SWAP3 SWAP2 POP POP JUMP JUMPDEST PUSH1 0x0 PUSH2 0x5388 DUP4 DUP4 PUSH2 0x535E JUMP JUMPDEST SWAP2 POP DUP3 PUSH1 0x2 MUL DUP3 OR SWAP1 POP SWAP3 SWAP2 POP POP JUMP JUMPDEST PUSH2 0x53A1 DUP3 PUSH2 0x364A JUMP JUMPDEST PUSH8 0xFFFFFFFFFFFFFFFF DUP2 GT ISZERO PUSH2 0x53BA JUMPI PUSH2 0x53B9 PUSH2 0x2E9B JUMP JUMPDEST JUMPDEST PUSH2 0x53C4 DUP3 SLOAD PUSH2 0x3C35 JUMP JUMPDEST PUSH2 0x53CF DUP3 DUP3 DUP6 PUSH2 0x530B JUMP JUMPDEST PUSH1 0x0 PUSH1 0x20 SWAP1 POP PUSH1 0x1F DUP4 GT PUSH1 0x1 DUP2 EQ PUSH2 0x5402 JUMPI PUSH1 0x0 DUP5 ISZERO PUSH2 0x53F0 JUMPI DUP3 DUP8 ADD MLOAD SWAP1 POP JUMPDEST PUSH2 0x53FA DUP6 DUP3 PUSH2 0x537C JUMP JUMPDEST DUP7 SSTORE POP PUSH2 0x5462 JUMP JUMPDEST PUSH1 0x1F NOT DUP5 AND PUSH2 0x5410 DUP7 PUSH2 0x5203 JUMP JUMPDEST PUSH1 0x0 JUMPDEST DUP3 DUP2 LT ISZERO PUSH2 0x5438 JUMPI DUP5 DUP10 ADD MLOAD DUP3 SSTORE PUSH1 0x1 DUP3 ADD SWAP2 POP PUSH1 0x20 DUP6 ADD SWAP5 POP PUSH1 0x20 DUP2 ADD SWAP1 POP PUSH2 0x5413 JUMP JUMPDEST DUP7 DUP4 LT ISZERO PUSH2 0x5455 JUMPI DUP5 DUP10 ADD MLOAD PUSH2 0x5451 PUSH1 0x1F DUP10 AND DUP3 PUSH2 0x535E JUMP JUMPDEST DUP4 SSTORE POP JUMPDEST PUSH1 0x1 PUSH1 0x2 DUP9 MUL ADD DUP9 SSTORE POP POP POP JUMPDEST POP POP POP POP POP POP JUMP INVALID LOG2 PUSH5 0x6970667358 0x22 SLT KECCAK256 0xA6 RETURNDATACOPY BYTE BLOBBASEFEE 0xB1 SLT GAS 0xE7 0xBF MOD LOG2 MSTORE PUSH23 0x70F92DADE0339578AC6BA606E66A9D50D2683864736F6C PUSH4 0x4300081B STOP CALLER "
		},
		"gasEstimates": {
			"creation": {
				"codeDepositCost": "4332800",
				"executionCost": "infinite",
				"totalCost": "infinite"
			},
			"external": {
				"_resolveSingle(bytes,bytes,string[],bytes4,bytes)": "infinite",
				"batchGatewayURLs(uint256)": "infinite",
				"findResolver(bytes)": "infinite",
				"owner()": "2611",
				"registry()": "infinite",
				"renounceOwnership()": "30352",
				"resolve(bytes,bytes)": "infinite",
				"resolve(bytes,bytes,string[])": "infinite",
				"resolve(bytes,bytes[])": "infinite",
				"resolve(bytes,bytes[],string[])": "infinite",
				"resolveCallback(bytes,bytes)": "infinite",
				"resolveSingleCallback(bytes,bytes)": "infinite",
				"reverse(bytes)": "infinite",
				"reverse(bytes,string[])": "infinite",
				"reverseCallback(bytes,bytes)": "infinite",
				"setGatewayURLs(string[])": "infinite",
				"supportsInterface(bytes4)": "751",
				"transferOwnership(address)": "30785"
			},
			"internal": {
				"_checkInterface(address,bytes4)": "infinite",
				"_checkMulticall(struct MulticallData memory)": "infinite",
				"_checkResolveSingle(struct Result memory)": "infinite",
				"_checkSafetyAndItem(bytes memory,bytes memory,address,struct MulticallChecks memory)": "infinite",
				"_multicall(struct MulticallData memory)": "infinite",
				"_resolve(bytes calldata,bytes memory[] memory,string memory[] memory,bytes4,bytes memory)": "infinite",
				"_resolveCallback(bytes calldata,bytes calldata,bytes4)": "infinite",
				"callWithOffchainLookupPropagation(address,bytes memory,bool)": "infinite",
				"findResolver(bytes calldata,uint256)": "infinite",
				"getForwardDataFromReverse(bytes memory,address,string memory[] memory)": "infinite"
			}
		},
		"methodIdentifiers": {
			"_resolveSingle(bytes,bytes,string[],bytes4,bytes)": "8e25a0f3",
			"batchGatewayURLs(uint256)": "a6b16419",
			"findResolver(bytes)": "a1cbcbaf",
			"owner()": "8da5cb5b",
			"registry()": "7b103999",
			"renounceOwnership()": "715018a6",
			"resolve(bytes,bytes)": "9061b923",
			"resolve(bytes,bytes,string[])": "0667cfea",
			"resolve(bytes,bytes[])": "206c74c9",
			"resolve(bytes,bytes[],string[])": "76286c00",
			"resolveCallback(bytes,bytes)": "b4a85801",
			"resolveSingleCallback(bytes,bytes)": "e0a85412",
			"reverse(bytes)": "ec11c823",
			"reverse(bytes,string[])": "b241d0d3",
			"reverseCallback(bytes,bytes)": "6dc4fb73",
			"setGatewayURLs(string[])": "8e5ea8df",
			"supportsInterface(bytes4)": "01ffc9a7",
			"transferOwnership(address)": "f2fde38b"
		}
	},
	"abi": [
		{
			"inputs": [
				{
					"internalType": "address",
					"name": "_registry",
					"type": "address"
				},
				{
					"internalType": "string[]",
					"name": "_urls",
					"type": "string[]"
				}
			],
			"stateMutability": "nonpayable",
			"type": "constructor"
		},
		{
			"inputs": [
				{
					"internalType": "address",
					"name": "sender",
					"type": "address"
				},
				{
					"internalType": "string[]",
					"name": "urls",
					"type": "string[]"
				},
				{
					"internalType": "bytes",
					"name": "callData",
					"type": "bytes"
				},
				{
					"internalType": "bytes4",
					"name": "callbackFunction",
					"type": "bytes4"
				},
				{
					"internalType": "bytes",
					"name": "extraData",
					"type": "bytes"
				}
			],
			"name": "OffchainLookup",
			"type": "error"
		},
		{
			"inputs": [
				{
					"internalType": "bytes",
					"name": "returnData",
					"type": "bytes"
				}
			],
			"name": "ResolverError",
			"type": "error"
		},
		{
			"inputs": [],
			"name": "ResolverNotContract",
			"type": "error"
		},
		{
			"inputs": [],
			"name": "ResolverNotFound",
			"type": "error"
		},
		{
			"inputs": [],
			"name": "ResolverWildcardNotSupported",
			"type": "error"
		},
		{
			"anonymous": false,
			"inputs": [
				{
					"indexed": true,
					"internalType": "address",
					"name": "previousOwner",
					"type": "address"
				},
				{
					"indexed": true,
					"internalType": "address",
					"name": "newOwner",
					"type": "address"
				}
			],
			"name": "OwnershipTransferred",
			"type": "event"
		},
		{
			"inputs": [
				{
					"internalType": "bytes",
					"name": "name",
					"type": "bytes"
				},
				{
					"internalType": "bytes",
					"name": "data",
					"type": "bytes"
				},
				{
					"internalType": "string[]",
					"name": "gateways",
					"type": "string[]"
				},
				{
					"internalType": "bytes4",
					"name": "callbackFunction",
					"type": "bytes4"
				},
				{
					"internalType": "bytes",
					"name": "metaData",
					"type": "bytes"
				}
			],
			"name": "_resolveSingle",
			"outputs": [
				{
					"internalType": "bytes",
					"name": "",
					"type": "bytes"
				},
				{
					"internalType": "address",
					"name": "",
					"type": "address"
				}
			],
			"stateMutability": "view",
			"type": "function"
		},
		{
			"inputs": [
				{
					"internalType": "uint256",
					"name": "",
					"type": "uint256"
				}
			],
			"name": "batchGatewayURLs",
			"outputs": [
				{
					"internalType": "string",
					"name": "",
					"type": "string"
				}
			],
			"stateMutability": "view",
			"type": "function"
		},
		{
			"inputs": [
				{
					"internalType": "bytes",
					"name": "name",
					"type": "bytes"
				}
			],
			"name": "findResolver",
			"outputs": [
				{
					"internalType": "contract Resolver",
					"name": "",
					"type": "address"
				},
				{
					"internalType": "bytes32",
					"name": "",
					"type": "bytes32"
				},
				{
					"internalType": "uint256",
					"name": "",
					"type": "uint256"
				}
			],
			"stateMutability": "view",
			"type": "function"
		},
		{
			"inputs": [],
			"name": "owner",
			"outputs": [
				{
					"internalType": "address",
					"name": "",
					"type": "address"
				}
			],
			"stateMutability": "view",
			"type": "function"
		},
		{
			"inputs": [],
			"name": "registry",
			"outputs": [
				{
					"internalType": "contract ENS",
					"name": "",
					"type": "address"
				}
			],
			"stateMutability": "view",
			"type": "function"
		},
		{
			"inputs": [],
			"name": "renounceOwnership",
			"outputs": [],
			"stateMutability": "nonpayable",
			"type": "function"
		},
		{
			"inputs": [
				{
					"internalType": "bytes",
					"name": "name",
					"type": "bytes"
				},
				{
					"internalType": "bytes",
					"name": "data",
					"type": "bytes"
				},
				{
					"internalType": "string[]",
					"name": "gateways",
					"type": "string[]"
				}
			],
			"name": "resolve",
			"outputs": [
				{
					"internalType": "bytes",
					"name": "",
					"type": "bytes"
				},
				{
					"internalType": "address",
					"name": "",
					"type": "address"
				}
			],
			"stateMutability": "view",
			"type": "function"
		},
		{
			"inputs": [
				{
					"internalType": "bytes",
					"name": "name",
					"type": "bytes"
				},
				{
					"internalType": "bytes[]",
					"name": "data",
					"type": "bytes[]"
				}
			],
			"name": "resolve",
			"outputs": [
				{
					"components": [
						{
							"internalType": "bool",
							"name": "success",
							"type": "bool"
						},
						{
							"internalType": "bytes",
							"name": "returnData",
							"type": "bytes"
						}
					],
					"internalType": "struct Result[]",
					"name": "",
					"type": "tuple[]"
				},
				{
					"internalType": "address",
					"name": "",
					"type": "address"
				}
			],
			"stateMutability": "view",
			"type": "function"
		},
		{
			"inputs": [
				{
					"internalType": "bytes",
					"name": "name",
					"type": "bytes"
				},
				{
					"internalType": "bytes[]",
					"name": "data",
					"type": "bytes[]"
				},
				{
					"internalType": "string[]",
					"name": "gateways",
					"type": "string[]"
				}
			],
			"name": "resolve",
			"outputs": [
				{
					"components": [
						{
							"internalType": "bool",
							"name": "success",
							"type": "bool"
						},
						{
							"internalType": "bytes",
							"name": "returnData",
							"type": "bytes"
						}
					],
					"internalType": "struct Result[]",
					"name": "",
					"type": "tuple[]"
				},
				{
					"internalType": "address",
					"name": "",
					"type": "address"
				}
			],
			"stateMutability": "view",
			"type": "function"
		},
		{
			"inputs": [
				{
					"internalType": "bytes",
					"name": "name",
					"type": "bytes"
				},
				{
					"internalType": "bytes",
					"name": "data",
					"type": "bytes"
				}
			],
			"name": "resolve",
			"outputs": [
				{
					"internalType": "bytes",
					"name": "",
					"type": "bytes"
				},
				{
					"internalType": "address",
					"name": "",
					"type": "address"
				}
			],
			"stateMutability": "view",
			"type": "function"
		},
		{
			"inputs": [
				{
					"internalType": "bytes",
					"name": "response",
					"type": "bytes"
				},
				{
					"internalType": "bytes",
					"name": "extraData",
					"type": "bytes"
				}
			],
			"name": "resolveCallback",
			"outputs": [
				{
					"components": [
						{
							"internalType": "bool",
							"name": "success",
							"type": "bool"
						},
						{
							"internalType": "bytes",
							"name": "returnData",
							"type": "bytes"
						}
					],
					"internalType": "struct Result[]",
					"name": "",
					"type": "tuple[]"
				},
				{
					"internalType": "address",
					"name": "",
					"type": "address"
				}
			],
			"stateMutability": "view",
			"type": "function"
		},
		{
			"inputs": [
				{
					"internalType": "bytes",
					"name": "response",
					"type": "bytes"
				},
				{
					"internalType": "bytes",
					"name": "extraData",
					"type": "bytes"
				}
			],
			"name": "resolveSingleCallback",
			"outputs": [
				{
					"internalType": "bytes",
					"name": "",
					"type": "bytes"
				},
				{
					"internalType": "address",
					"name": "",
					"type": "address"
				}
			],
			"stateMutability": "view",
			"type": "function"
		},
		{
			"inputs": [
				{
					"internalType": "bytes",
					"name": "reverseName",
					"type": "bytes"
				},
				{
					"internalType": "string[]",
					"name": "gateways",
					"type": "string[]"
				}
			],
			"name": "reverse",
			"outputs": [
				{
					"internalType": "string",
					"name": "",
					"type": "string"
				},
				{
					"internalType": "address",
					"name": "",
					"type": "address"
				},
				{
					"internalType": "address",
					"name": "",
					"type": "address"
				},
				{
					"internalType": "address",
					"name": "",
					"type": "address"
				}
			],
			"stateMutability": "view",
			"type": "function"
		},
		{
			"inputs": [
				{
					"internalType": "bytes",
					"name": "reverseName",
					"type": "bytes"
				}
			],
			"name": "reverse",
			"outputs": [
				{
					"internalType": "string",
					"name": "",
					"type": "string"
				},
				{
					"internalType": "address",
					"name": "",
					"type": "address"
				},
				{
					"internalType": "address",
					"name": "",
					"type": "address"
				},
				{
					"internalType": "address",
					"name": "",
					"type": "address"
				}
			],
			"stateMutability": "view",
			"type": "function"
		},
		{
			"inputs": [
				{
					"internalType": "bytes",
					"name": "response",
					"type": "bytes"
				},
				{
					"internalType": "bytes",
					"name": "extraData",
					"type": "bytes"
				}
			],
			"name": "reverseCallback",
			"outputs": [
				{
					"internalType": "string",
					"name": "",
					"type": "string"
				},
				{
					"internalType": "address",
					"name": "",
					"type": "address"
				},
				{
					"internalType": "address",
					"name": "",
					"type": "address"
				},
				{
					"internalType": "address",
					"name": "",
					"type": "address"
				}
			],
			"stateMutability": "view",
			"type": "function"
		},
		{
			"inputs": [
				{
					"internalType": "string[]",
					"name": "_urls",
					"type": "string[]"
				}
			],
			"name": "setGatewayURLs",
			"outputs": [],
			"stateMutability": "nonpayable",
			"type": "function"
		},
		{
			"inputs": [
				{
					"internalType": "bytes4",
					"name": "interfaceId",
					"type": "bytes4"
				}
			],
			"name": "supportsInterface",
			"outputs": [
				{
					"internalType": "bool",
					"name": "",
					"type": "bool"
				}
			],
			"stateMutability": "view",
			"type": "function"
		},
		{
			"inputs": [
				{
					"internalType": "address",
					"name": "newOwner",
					"type": "address"
				}
			],
			"name": "transferOwnership",
			"outputs": [],
			"stateMutability": "nonpayable",
			"type": "function"
		}
	]
}