{
	"package/contracts/reverseRegistrar/ReverseRegistrar.sol": {
		"ReverseRegistrar": {
			"abi": [
				{
					"inputs": [
						{
							"internalType": "contract ENS",
							"name": "ensAddr",
							"type": "address"
						}
					],
					"stateMutability": "nonpayable",
					"type": "constructor"
				},
				{
					"anonymous": false,
					"inputs": [
						{
							"indexed": true,
							"internalType": "address",
							"name": "controller",
							"type": "address"
						},
						{
							"indexed": false,
							"internalType": "bool",
							"name": "enabled",
							"type": "bool"
						}
					],
					"name": "ControllerChanged",
					"type": "event"
				},
				{
					"anonymous": false,
					"inputs": [
						{
							"indexed": true,
							"internalType": "contract NameResolver",
							"name": "resolver",
							"type": "address"
						}
					],
					"name": "DefaultResolverChanged",
					"type": "event"
				},
				{
					"anonymous": false,
					"inputs": [
						{
							"indexed": true,
							"internalType": "address",
							"name": "previousOwner",
							"type": "address"
						},
						{
							"indexed": true,
							"internalType": "address",
							"name": "newOwner",
							"type": "address"
						}
					],
					"name": "OwnershipTransferred",
					"type": "event"
				},
				{
					"anonymous": false,
					"inputs": [
						{
							"indexed": true,
							"internalType": "address",
							"name": "addr",
							"type": "address"
						},
						{
							"indexed": true,
							"internalType": "bytes32",
							"name": "node",
							"type": "bytes32"
						}
					],
					"name": "ReverseClaimed",
					"type": "event"
				},
				{
					"inputs": [
						{
							"internalType": "address",
							"name": "owner",
							"type": "address"
						}
					],
					"name": "claim",
					"outputs": [
						{
							"internalType": "bytes32",
							"name": "",
							"type": "bytes32"
						}
					],
					"stateMutability": "nonpayable",
					"type": "function"
				},
				{
					"inputs": [
						{
							"internalType": "address",
							"name": "addr",
							"type": "address"
						},
						{
							"internalType": "address",
							"name": "owner",
							"type": "address"
						},
						{
							"internalType": "address",
							"name": "resolver",
							"type": "address"
						}
					],
					"name": "claimForAddr",
					"outputs": [
						{
							"internalType": "bytes32",
							"name": "",
							"type": "bytes32"
						}
					],
					"stateMutability": "nonpayable",
					"type": "function"
				},
				{
					"inputs": [
						{
							"internalType": "address",
							"name": "owner",
							"type": "address"
						},
						{
							"internalType": "address",
							"name": "resolver",
							"type": "address"
						}
					],
					"name": "claimWithResolver",
					"outputs": [
						{
							"internalType": "bytes32",
							"name": "",
							"type": "bytes32"
						}
					],
					"stateMutability": "nonpayable",
					"type": "function"
				},
				{
					"inputs": [
						{
							"internalType": "address",
							"name": "",
							"type": "address"
						}
					],
					"name": "controllers",
					"outputs": [
						{
							"internalType": "bool",
							"name": "",
							"type": "bool"
						}
					],
					"stateMutability": "view",
					"type": "function"
				},
				{
					"inputs": [],
					"name": "defaultResolver",
					"outputs": [
						{
							"internalType": "contract NameResolver",
							"name": "",
							"type": "address"
						}
					],
					"stateMutability": "view",
					"type": "function"
				},
				{
					"inputs": [],
					"name": "ens",
					"outputs": [
						{
							"internalType": "contract ENS",
							"name": "",
							"type": "address"
						}
					],
					"stateMutability": "view",
					"type": "function"
				},
				{
					"inputs": [
						{
							"internalType": "address",
							"name": "addr",
							"type": "address"
						}
					],
					"name": "node",
					"outputs": [
						{
							"internalType": "bytes32",
							"name": "",
							"type": "bytes32"
						}
					],
					"stateMutability": "pure",
					"type": "function"
				},
				{
					"inputs": [],
					"name": "owner",
					"outputs": [
						{
							"internalType": "address",
							"name": "",
							"type": "address"
						}
					],
					"stateMutability": "view",
					"type": "function"
				},
				{
					"inputs": [],
					"name": "renounceOwnership",
					"outputs": [],
					"stateMutability": "nonpayable",
					"type": "function"
				},
				{
					"inputs": [
						{
							"internalType": "address",
							"name": "controller",
							"type": "address"
						},
						{
							"internalType": "bool",
							"name": "enabled",
							"type": "bool"
						}
					],
					"name": "setController",
					"outputs": [],
					"stateMutability": "nonpayable",
					"type": "function"
				},
				{
					"inputs": [
						{
							"internalType": "address",
							"name": "resolver",
							"type": "address"
						}
					],
					"name": "setDefaultResolver",
					"outputs": [],
					"stateMutability": "nonpayable",
					"type": "function"
				},
				{
					"inputs": [
						{
							"internalType": "string",
							"name": "name",
							"type": "string"
						}
					],
					"name": "setName",
					"outputs": [
						{
							"internalType": "bytes32",
							"name": "",
							"type": "bytes32"
						}
					],
					"stateMutability": "nonpayable",
					"type": "function"
				},
				{
					"inputs": [
						{
							"internalType": "address",
							"name": "addr",
							"type": "address"
						},
						{
							"internalType": "address",
							"name": "owner",
							"type": "address"
						},
						{
							"internalType": "address",
							"name": "resolver",
							"type": "address"
						},
						{
							"internalType": "string",
							"name": "name",
							"type": "string"
						}
					],
					"name": "setNameForAddr",
					"outputs": [
						{
							"internalType": "bytes32",
							"name": "",
							"type": "bytes32"
						}
					],
					"stateMutability": "nonpayable",
					"type": "function"
				},
				{
					"inputs": [
						{
							"internalType": "address",
							"name": "newOwner",
							"type": "address"
						}
					],
					"name": "transferOwnership",
					"outputs": [],
					"stateMutability": "nonpayable",
					"type": "function"
				}
			],
			"devdoc": {
				"kind": "dev",
				"methods": {
					"claim(address)": {
						"details": "Transfers ownership of the reverse ENS record associated with the      calling account.",
						"params": {
							"owner": "The address to set as the owner of the reverse record in ENS."
						},
						"returns": {
							"_0": "The ENS node hash of the reverse record."
						}
					},
					"claimForAddr(address,address,address)": {
						"details": "Transfers ownership of the reverse ENS record associated with the      calling account.",
						"params": {
							"addr": "The reverse record to set",
							"owner": "The address to set as the owner of the reverse record in ENS.",
							"resolver": "The resolver of the reverse node"
						},
						"returns": {
							"_0": "The ENS node hash of the reverse record."
						}
					},
					"claimWithResolver(address,address)": {
						"details": "Transfers ownership of the reverse ENS record associated with the      calling account.",
						"params": {
							"owner": "The address to set as the owner of the reverse record in ENS.",
							"resolver": "The address of the resolver to set; 0 to leave unchanged."
						},
						"returns": {
							"_0": "The ENS node hash of the reverse record."
						}
					},
					"constructor": {
						"details": "Constructor",
						"params": {
							"ensAddr": "The address of the ENS registry."
						}
					},
					"node(address)": {
						"details": "Returns the node hash for a given account's reverse records.",
						"params": {
							"addr": "The address to hash"
						},
						"returns": {
							"_0": "The ENS node hash."
						}
					},
					"owner()": {
						"details": "Returns the address of the current owner."
					},
					"renounceOwnership()": {
						"details": "Leaves the contract without owner. It will not be possible to call `onlyOwner` functions anymore. Can only be called by the current owner. NOTE: Renouncing ownership will leave the contract without an owner, thereby removing any functionality that is only available to the owner."
					},
					"setName(string)": {
						"details": "Sets the `name()` record for the reverse ENS record associated with the calling account. First updates the resolver to the default reverse resolver if necessary.",
						"params": {
							"name": "The name to set for this address."
						},
						"returns": {
							"_0": "The ENS node hash of the reverse record."
						}
					},
					"setNameForAddr(address,address,address,string)": {
						"details": "Sets the `name()` record for the reverse ENS record associated with the account provided. Updates the resolver to a designated resolver Only callable by controllers and authorised users",
						"params": {
							"addr": "The reverse record to set",
							"name": "The name to set for this address.",
							"owner": "The owner of the reverse node",
							"resolver": "The resolver of the reverse node"
						},
						"returns": {
							"_0": "The ENS node hash of the reverse record."
						}
					},
					"transferOwnership(address)": {
						"details": "Transfers ownership of the contract to a new account (`newOwner`). Can only be called by the current owner."
					}
				},
				"version": 1
			},
			"evm": {
				"assembly": "    /* \"package/contracts/reverseRegistrar/ReverseRegistrar.sol\":546:5821  contract ReverseRegistrar is Ownable, Controllable, IReverseRegistrar {... */\n  mstore(0x40, 0xa0)\n    /* \"package/contracts/reverseRegistrar/ReverseRegistrar.sol\":907:1200  constructor(ENS ensAddr) {... */\n  callvalue\n  dup1\n  iszero\n  tag_1\n  jumpi\n  0x00\n  dup1\n  revert\ntag_1:\n  pop\n  mload(0x40)\n  sub(codesize, bytecodeSize)\n  dup1\n  bytecodeSize\n  dup4\n  codecopy\n  dup2\n  dup2\n  add\n  0x40\n  mstore\n  dup2\n  add\n  swap1\n  tag_2\n  swap2\n  swap1\n  tag_3\n  jump\t// in\ntag_2:\n    /* \"@openzeppelin/contracts/access/Ownable.sol\":867:884  address msgSender */\n  0x00\n    /* \"@openzeppelin/contracts/access/Ownable.sol\":887:899  _msgSender() */\n  tag_7\n    /* \"@openzeppelin/contracts/access/Ownable.sol\":887:897  _msgSender */\n  shl(0x20, tag_8)\n    /* \"@openzeppelin/contracts/access/Ownable.sol\":887:899  _msgSender() */\n  0x20\n  shr\n  jump\t// in\ntag_7:\n    /* \"@openzeppelin/contracts/access/Ownable.sol\":867:899  address msgSender = _msgSender() */\n  swap1\n  pop\n    /* \"@openzeppelin/contracts/access/Ownable.sol\":918:927  msgSender */\n  dup1\n    /* \"@openzeppelin/contracts/access/Ownable.sol\":909:915  _owner */\n  0x00\n  dup1\n    /* \"@openzeppelin/contracts/access/Ownable.sol\":909:927  _owner = msgSender */\n  0x0100\n  exp\n  dup2\n  sload\n  dup2\n  0xffffffffffffffffffffffffffffffffffffffff\n  mul\n  not\n  and\n  swap1\n  dup4\n  0xffffffffffffffffffffffffffffffffffffffff\n  and\n  mul\n  or\n  swap1\n  sstore\n  pop\n    /* \"@openzeppelin/contracts/access/Ownable.sol\":975:984  msgSender */\n  dup1\n    /* \"@openzeppelin/contracts/access/Ownable.sol\":942:985  OwnershipTransferred(address(0), msgSender) */\n  0xffffffffffffffffffffffffffffffffffffffff\n  and\n    /* \"@openzeppelin/contracts/access/Ownable.sol\":971:972  0 */\n  0x00\n    /* \"@openzeppelin/contracts/access/Ownable.sol\":942:985  OwnershipTransferred(address(0), msgSender) */\n  0xffffffffffffffffffffffffffffffffffffffff\n  and\n  0x8be0079c531659141344cd1fd0a4f28419497f9722a3daafe3b4186f6b6457e0\n  mload(0x40)\n  mload(0x40)\n  dup1\n  swap2\n  sub\n  swap1\n  log3\n    /* \"@openzeppelin/contracts/access/Ownable.sol\":857:992  {... */\n  pop\n    /* \"package/contracts/reverseRegistrar/ReverseRegistrar.sol\":944:951  ensAddr */\n  dup1\n    /* \"package/contracts/reverseRegistrar/ReverseRegistrar.sol\":938:951  ens = ensAddr */\n  0xffffffffffffffffffffffffffffffffffffffff\n  and\n  0x80\n  dup2\n  0xffffffffffffffffffffffffffffffffffffffff\n  and\n  dup2\n  mstore\n  pop\n  pop\n    /* \"package/contracts/reverseRegistrar/ReverseRegistrar.sol\":1020:1049  ReverseRegistrar oldRegistrar */\n  0x00\n    /* \"package/contracts/reverseRegistrar/ReverseRegistrar.sol\":1069:1076  ensAddr */\n  dup2\n    /* \"package/contracts/reverseRegistrar/ReverseRegistrar.sol\":1069:1082  ensAddr.owner */\n  0xffffffffffffffffffffffffffffffffffffffff\n  and\n  0x02571be3\n    /* \"package/contracts/reverseRegistrar/ReverseRegistrar.sol\":448:514  0x91d1777781884d03a6757a803996e38de2a42967fb37eeaca72729271025a9e2 */\n  0x91d1777781884d03a6757a803996e38de2a42967fb37eeaca72729271025a9e2\n    /* \"package/contracts/reverseRegistrar/ReverseRegistrar.sol\":1083:1100  ADDR_REVERSE_NODE */\n  0x00\n  shl\n    /* \"package/contracts/reverseRegistrar/ReverseRegistrar.sol\":1069:1101  ensAddr.owner(ADDR_REVERSE_NODE) */\n  mload(0x40)\n  dup3\n  0xffffffff\n  and\n  0xe0\n  shl\n  dup2\n  mstore\n  0x04\n  add\n  tag_10\n  swap2\n  swap1\n  tag_11\n  jump\t// in\ntag_10:\n  0x20\n  mload(0x40)\n  dup1\n  dup4\n  sub\n  dup2\n  dup7\n  gas\n  staticcall\n  iszero\n  dup1\n  iszero\n  tag_13\n  jumpi\n  returndatasize\n  0x00\n  dup1\n  returndatacopy\n  revert(0x00, returndatasize)\ntag_13:\n  pop\n  pop\n  pop\n  pop\n  mload(0x40)\n  returndatasize\n  not(0x1f)\n  0x1f\n  dup3\n  add\n  and\n  dup3\n  add\n  dup1\n  0x40\n  mstore\n  pop\n  dup2\n  add\n  swap1\n  tag_14\n  swap2\n  swap1\n  tag_15\n  jump\t// in\ntag_14:\n    /* \"package/contracts/reverseRegistrar/ReverseRegistrar.sol\":1020:1102  ReverseRegistrar oldRegistrar = ReverseRegistrar(ensAddr.owner(ADDR_REVERSE_NODE)) */\n  swap1\n  pop\n    /* \"package/contracts/reverseRegistrar/ReverseRegistrar.sol\":1145:1148  0x0 */\n  0x00\n    /* \"package/contracts/reverseRegistrar/ReverseRegistrar.sol\":1112:1149  address(oldRegistrar) != address(0x0) */\n  0xffffffffffffffffffffffffffffffffffffffff\n  and\n    /* \"package/contracts/reverseRegistrar/ReverseRegistrar.sol\":1120:1132  oldRegistrar */\n  dup2\n    /* \"package/contracts/reverseRegistrar/ReverseRegistrar.sol\":1112:1149  address(oldRegistrar) != address(0x0) */\n  0xffffffffffffffffffffffffffffffffffffffff\n  and\n  eq\n    /* \"package/contracts/reverseRegistrar/ReverseRegistrar.sol\":1108:1196  if (address(oldRegistrar) != address(0x0)) {... */\n  tag_16\n  jumpi\n    /* \"package/contracts/reverseRegistrar/ReverseRegistrar.sol\":1159:1171  oldRegistrar */\n  dup1\n    /* \"package/contracts/reverseRegistrar/ReverseRegistrar.sol\":1159:1177  oldRegistrar.claim */\n  0xffffffffffffffffffffffffffffffffffffffff\n  and\n  0x1e83409a\n    /* \"package/contracts/reverseRegistrar/ReverseRegistrar.sol\":1178:1188  msg.sender */\n  caller\n    /* \"package/contracts/reverseRegistrar/ReverseRegistrar.sol\":1159:1189  oldRegistrar.claim(msg.sender) */\n  mload(0x40)\n  dup3\n  0xffffffff\n  and\n  0xe0\n  shl\n  dup2\n  mstore\n  0x04\n  add\n  tag_17\n  swap2\n  swap1\n  tag_18\n  jump\t// in\ntag_17:\n  0x20\n  mload(0x40)\n  dup1\n  dup4\n  sub\n  dup2\n  0x00\n  dup8\n  gas\n  call\n  iszero\n  dup1\n  iszero\n  tag_20\n  jumpi\n  returndatasize\n  0x00\n  dup1\n  returndatacopy\n  revert(0x00, returndatasize)\ntag_20:\n  pop\n  pop\n  pop\n  pop\n  mload(0x40)\n  returndatasize\n  not(0x1f)\n  0x1f\n  dup3\n  add\n  and\n  dup3\n  add\n  dup1\n  0x40\n  mstore\n  pop\n  dup2\n  add\n  swap1\n  tag_21\n  swap2\n  swap1\n  tag_22\n  jump\t// in\ntag_21:\n  pop\n    /* \"package/contracts/reverseRegistrar/ReverseRegistrar.sol\":1108:1196  if (address(oldRegistrar) != address(0x0)) {... */\ntag_16:\n    /* \"package/contracts/reverseRegistrar/ReverseRegistrar.sol\":932:1200  {... */\n  pop\n    /* \"package/contracts/reverseRegistrar/ReverseRegistrar.sol\":907:1200  constructor(ENS ensAddr) {... */\n  pop\n    /* \"package/contracts/reverseRegistrar/ReverseRegistrar.sol\":546:5821  contract ReverseRegistrar is Ownable, Controllable, IReverseRegistrar {... */\n  jump(tag_23)\n    /* \"@openzeppelin/contracts/utils/Context.sol\":586:682  function _msgSender() internal view virtual returns (address) {... */\ntag_8:\n    /* \"@openzeppelin/contracts/utils/Context.sol\":639:646  address */\n  0x00\n    /* \"@openzeppelin/contracts/utils/Context.sol\":665:675  msg.sender */\n  caller\n    /* \"@openzeppelin/contracts/utils/Context.sol\":658:675  return msg.sender */\n  swap1\n  pop\n    /* \"@openzeppelin/contracts/utils/Context.sol\":586:682  function _msgSender() internal view virtual returns (address) {... */\n  swap1\n  jump\t// out\n    /* \"#utility.yul\":88:205   */\ntag_26:\n    /* \"#utility.yul\":197:198   */\n  0x00\n    /* \"#utility.yul\":194:195   */\n  dup1\n    /* \"#utility.yul\":187:199   */\n  revert\n    /* \"#utility.yul\":334:460   */\ntag_28:\n    /* \"#utility.yul\":371:378   */\n  0x00\n    /* \"#utility.yul\":411:453   */\n  0xffffffffffffffffffffffffffffffffffffffff\n    /* \"#utility.yul\":404:409   */\n  dup3\n    /* \"#utility.yul\":400:454   */\n  and\n    /* \"#utility.yul\":389:454   */\n  swap1\n  pop\n    /* \"#utility.yul\":334:460   */\n  swap2\n  swap1\n  pop\n  jump\t// out\n    /* \"#utility.yul\":466:562   */\ntag_29:\n    /* \"#utility.yul\":503:510   */\n  0x00\n    /* \"#utility.yul\":532:556   */\n  tag_46\n    /* \"#utility.yul\":550:555   */\n  dup3\n    /* \"#utility.yul\":532:556   */\n  tag_28\n  jump\t// in\ntag_46:\n    /* \"#utility.yul\":521:556   */\n  swap1\n  pop\n    /* \"#utility.yul\":466:562   */\n  swap2\n  swap1\n  pop\n  jump\t// out\n    /* \"#utility.yul\":568:675   */\ntag_30:\n    /* \"#utility.yul\":616:623   */\n  0x00\n    /* \"#utility.yul\":645:669   */\n  tag_48\n    /* \"#utility.yul\":663:668   */\n  dup3\n    /* \"#utility.yul\":645:669   */\n  tag_29\n  jump\t// in\ntag_48:\n    /* \"#utility.yul\":634:669   */\n  swap1\n  pop\n    /* \"#utility.yul\":568:675   */\n  swap2\n  swap1\n  pop\n  jump\t// out\n    /* \"#utility.yul\":681:825   */\ntag_31:\n    /* \"#utility.yul\":765:800   */\n  tag_50\n    /* \"#utility.yul\":794:799   */\n  dup2\n    /* \"#utility.yul\":765:800   */\n  tag_30\n  jump\t// in\ntag_50:\n    /* \"#utility.yul\":758:763   */\n  dup2\n    /* \"#utility.yul\":755:801   */\n  eq\n    /* \"#utility.yul\":745:819   */\n  tag_51\n  jumpi\n    /* \"#utility.yul\":815:816   */\n  0x00\n    /* \"#utility.yul\":812:813   */\n  dup1\n    /* \"#utility.yul\":805:817   */\n  revert\n    /* \"#utility.yul\":745:819   */\ntag_51:\n    /* \"#utility.yul\":681:825   */\n  pop\n  jump\t// out\n    /* \"#utility.yul\":831:996   */\ntag_32:\n    /* \"#utility.yul\":899:904   */\n  0x00\n    /* \"#utility.yul\":930:936   */\n  dup2\n    /* \"#utility.yul\":924:937   */\n  mload\n    /* \"#utility.yul\":915:937   */\n  swap1\n  pop\n    /* \"#utility.yul\":946:990   */\n  tag_53\n    /* \"#utility.yul\":984:989   */\n  dup2\n    /* \"#utility.yul\":946:990   */\n  tag_31\n  jump\t// in\ntag_53:\n    /* \"#utility.yul\":831:996   */\n  swap3\n  swap2\n  pop\n  pop\n  jump\t// out\n    /* \"#utility.yul\":1002:1375   */\ntag_3:\n    /* \"#utility.yul\":1083:1089   */\n  0x00\n    /* \"#utility.yul\":1132:1134   */\n  0x20\n    /* \"#utility.yul\":1120:1129   */\n  dup3\n    /* \"#utility.yul\":1111:1118   */\n  dup5\n    /* \"#utility.yul\":1107:1130   */\n  sub\n    /* \"#utility.yul\":1103:1135   */\n  slt\n    /* \"#utility.yul\":1100:1219   */\n  iszero\n  tag_55\n  jumpi\n    /* \"#utility.yul\":1138:1217   */\n  tag_56\n  tag_26\n  jump\t// in\ntag_56:\n    /* \"#utility.yul\":1100:1219   */\ntag_55:\n    /* \"#utility.yul\":1258:1259   */\n  0x00\n    /* \"#utility.yul\":1283:1358   */\n  tag_57\n    /* \"#utility.yul\":1350:1357   */\n  dup5\n    /* \"#utility.yul\":1341:1347   */\n  dup3\n    /* \"#utility.yul\":1330:1339   */\n  dup6\n    /* \"#utility.yul\":1326:1348   */\n  add\n    /* \"#utility.yul\":1283:1358   */\n  tag_32\n  jump\t// in\ntag_57:\n    /* \"#utility.yul\":1273:1358   */\n  swap2\n  pop\n    /* \"#utility.yul\":1229:1368   */\n  pop\n    /* \"#utility.yul\":1002:1375   */\n  swap3\n  swap2\n  pop\n  pop\n  jump\t// out\n    /* \"#utility.yul\":1381:1458   */\ntag_33:\n    /* \"#utility.yul\":1418:1425   */\n  0x00\n    /* \"#utility.yul\":1447:1452   */\n  dup2\n    /* \"#utility.yul\":1436:1452   */\n  swap1\n  pop\n    /* \"#utility.yul\":1381:1458   */\n  swap2\n  swap1\n  pop\n  jump\t// out\n    /* \"#utility.yul\":1464:1582   */\ntag_34:\n    /* \"#utility.yul\":1551:1575   */\n  tag_60\n    /* \"#utility.yul\":1569:1574   */\n  dup2\n    /* \"#utility.yul\":1551:1575   */\n  tag_33\n  jump\t// in\ntag_60:\n    /* \"#utility.yul\":1546:1549   */\n  dup3\n    /* \"#utility.yul\":1539:1576   */\n  mstore\n    /* \"#utility.yul\":1464:1582   */\n  pop\n  pop\n  jump\t// out\n    /* \"#utility.yul\":1588:1810   */\ntag_11:\n    /* \"#utility.yul\":1681:1685   */\n  0x00\n    /* \"#utility.yul\":1719:1721   */\n  0x20\n    /* \"#utility.yul\":1708:1717   */\n  dup3\n    /* \"#utility.yul\":1704:1722   */\n  add\n    /* \"#utility.yul\":1696:1722   */\n  swap1\n  pop\n    /* \"#utility.yul\":1732:1803   */\n  tag_62\n    /* \"#utility.yul\":1800:1801   */\n  0x00\n    /* \"#utility.yul\":1789:1798   */\n  dup4\n    /* \"#utility.yul\":1785:1802   */\n  add\n    /* \"#utility.yul\":1776:1782   */\n  dup5\n    /* \"#utility.yul\":1732:1803   */\n  tag_34\n  jump\t// in\ntag_62:\n    /* \"#utility.yul\":1588:1810   */\n  swap3\n  swap2\n  pop\n  pop\n  jump\t// out\n    /* \"#utility.yul\":1816:1938   */\ntag_35:\n    /* \"#utility.yul\":1889:1913   */\n  tag_64\n    /* \"#utility.yul\":1907:1912   */\n  dup2\n    /* \"#utility.yul\":1889:1913   */\n  tag_29\n  jump\t// in\ntag_64:\n    /* \"#utility.yul\":1882:1887   */\n  dup2\n    /* \"#utility.yul\":1879:1914   */\n  eq\n    /* \"#utility.yul\":1869:1932   */\n  tag_65\n  jumpi\n    /* \"#utility.yul\":1928:1929   */\n  0x00\n    /* \"#utility.yul\":1925:1926   */\n  dup1\n    /* \"#utility.yul\":1918:1930   */\n  revert\n    /* \"#utility.yul\":1869:1932   */\ntag_65:\n    /* \"#utility.yul\":1816:1938   */\n  pop\n  jump\t// out\n    /* \"#utility.yul\":1944:2087   */\ntag_36:\n    /* \"#utility.yul\":2001:2006   */\n  0x00\n    /* \"#utility.yul\":2032:2038   */\n  dup2\n    /* \"#utility.yul\":2026:2039   */\n  mload\n    /* \"#utility.yul\":2017:2039   */\n  swap1\n  pop\n    /* \"#utility.yul\":2048:2081   */\n  tag_67\n    /* \"#utility.yul\":2075:2080   */\n  dup2\n    /* \"#utility.yul\":2048:2081   */\n  tag_35\n  jump\t// in\ntag_67:\n    /* \"#utility.yul\":1944:2087   */\n  swap3\n  swap2\n  pop\n  pop\n  jump\t// out\n    /* \"#utility.yul\":2093:2444   */\ntag_15:\n    /* \"#utility.yul\":2163:2169   */\n  0x00\n    /* \"#utility.yul\":2212:2214   */\n  0x20\n    /* \"#utility.yul\":2200:2209   */\n  dup3\n    /* \"#utility.yul\":2191:2198   */\n  dup5\n    /* \"#utility.yul\":2187:2210   */\n  sub\n    /* \"#utility.yul\":2183:2215   */\n  slt\n    /* \"#utility.yul\":2180:2299   */\n  iszero\n  tag_69\n  jumpi\n    /* \"#utility.yul\":2218:2297   */\n  tag_70\n  tag_26\n  jump\t// in\ntag_70:\n    /* \"#utility.yul\":2180:2299   */\ntag_69:\n    /* \"#utility.yul\":2338:2339   */\n  0x00\n    /* \"#utility.yul\":2363:2427   */\n  tag_71\n    /* \"#utility.yul\":2419:2426   */\n  dup5\n    /* \"#utility.yul\":2410:2416   */\n  dup3\n    /* \"#utility.yul\":2399:2408   */\n  dup6\n    /* \"#utility.yul\":2395:2417   */\n  add\n    /* \"#utility.yul\":2363:2427   */\n  tag_36\n  jump\t// in\ntag_71:\n    /* \"#utility.yul\":2353:2427   */\n  swap2\n  pop\n    /* \"#utility.yul\":2309:2437   */\n  pop\n    /* \"#utility.yul\":2093:2444   */\n  swap3\n  swap2\n  pop\n  pop\n  jump\t// out\n    /* \"#utility.yul\":2450:2568   */\ntag_37:\n    /* \"#utility.yul\":2537:2561   */\n  tag_73\n    /* \"#utility.yul\":2555:2560   */\n  dup2\n    /* \"#utility.yul\":2537:2561   */\n  tag_29\n  jump\t// in\ntag_73:\n    /* \"#utility.yul\":2532:2535   */\n  dup3\n    /* \"#utility.yul\":2525:2562   */\n  mstore\n    /* \"#utility.yul\":2450:2568   */\n  pop\n  pop\n  jump\t// out\n    /* \"#utility.yul\":2574:2796   */\ntag_18:\n    /* \"#utility.yul\":2667:2671   */\n  0x00\n    /* \"#utility.yul\":2705:2707   */\n  0x20\n    /* \"#utility.yul\":2694:2703   */\n  dup3\n    /* \"#utility.yul\":2690:2708   */\n  add\n    /* \"#utility.yul\":2682:2708   */\n  swap1\n  pop\n    /* \"#utility.yul\":2718:2789   */\n  tag_75\n    /* \"#utility.yul\":2786:2787   */\n  0x00\n    /* \"#utility.yul\":2775:2784   */\n  dup4\n    /* \"#utility.yul\":2771:2788   */\n  add\n    /* \"#utility.yul\":2762:2768   */\n  dup5\n    /* \"#utility.yul\":2718:2789   */\n  tag_37\n  jump\t// in\ntag_75:\n    /* \"#utility.yul\":2574:2796   */\n  swap3\n  swap2\n  pop\n  pop\n  jump\t// out\n    /* \"#utility.yul\":2802:2924   */\ntag_38:\n    /* \"#utility.yul\":2875:2899   */\n  tag_77\n    /* \"#utility.yul\":2893:2898   */\n  dup2\n    /* \"#utility.yul\":2875:2899   */\n  tag_33\n  jump\t// in\ntag_77:\n    /* \"#utility.yul\":2868:2873   */\n  dup2\n    /* \"#utility.yul\":2865:2900   */\n  eq\n    /* \"#utility.yul\":2855:2918   */\n  tag_78\n  jumpi\n    /* \"#utility.yul\":2914:2915   */\n  0x00\n    /* \"#utility.yul\":2911:2912   */\n  dup1\n    /* \"#utility.yul\":2904:2916   */\n  revert\n    /* \"#utility.yul\":2855:2918   */\ntag_78:\n    /* \"#utility.yul\":2802:2924   */\n  pop\n  jump\t// out\n    /* \"#utility.yul\":2930:3073   */\ntag_39:\n    /* \"#utility.yul\":2987:2992   */\n  0x00\n    /* \"#utility.yul\":3018:3024   */\n  dup2\n    /* \"#utility.yul\":3012:3025   */\n  mload\n    /* \"#utility.yul\":3003:3025   */\n  swap1\n  pop\n    /* \"#utility.yul\":3034:3067   */\n  tag_80\n    /* \"#utility.yul\":3061:3066   */\n  dup2\n    /* \"#utility.yul\":3034:3067   */\n  tag_38\n  jump\t// in\ntag_80:\n    /* \"#utility.yul\":2930:3073   */\n  swap3\n  swap2\n  pop\n  pop\n  jump\t// out\n    /* \"#utility.yul\":3079:3430   */\ntag_22:\n    /* \"#utility.yul\":3149:3155   */\n  0x00\n    /* \"#utility.yul\":3198:3200   */\n  0x20\n    /* \"#utility.yul\":3186:3195   */\n  dup3\n    /* \"#utility.yul\":3177:3184   */\n  dup5\n    /* \"#utility.yul\":3173:3196   */\n  sub\n    /* \"#utility.yul\":3169:3201   */\n  slt\n    /* \"#utility.yul\":3166:3285   */\n  iszero\n  tag_82\n  jumpi\n    /* \"#utility.yul\":3204:3283   */\n  tag_83\n  tag_26\n  jump\t// in\ntag_83:\n    /* \"#utility.yul\":3166:3285   */\ntag_82:\n    /* \"#utility.yul\":3324:3325   */\n  0x00\n    /* \"#utility.yul\":3349:3413   */\n  tag_84\n    /* \"#utility.yul\":3405:3412   */\n  dup5\n    /* \"#utility.yul\":3396:3402   */\n  dup3\n    /* \"#utility.yul\":3385:3394   */\n  dup6\n    /* \"#utility.yul\":3381:3403   */\n  add\n    /* \"#utility.yul\":3349:3413   */\n  tag_39\n  jump\t// in\ntag_84:\n    /* \"#utility.yul\":3339:3413   */\n  swap2\n  pop\n    /* \"#utility.yul\":3295:3423   */\n  pop\n    /* \"#utility.yul\":3079:3430   */\n  swap3\n  swap2\n  pop\n  pop\n  jump\t// out\n    /* \"package/contracts/reverseRegistrar/ReverseRegistrar.sol\":546:5821  contract ReverseRegistrar is Ownable, Controllable, IReverseRegistrar {... */\ntag_23:\n  mload(0x80)\n  codecopy(0x00, dataOffset(sub_0), dataSize(sub_0))\n  0x00\n  assignImmutable(\"0x4383ee0ddfd8502f9393d9b8f5200ad38dbe836870d41c01f4055e3f56cef583\")\n  return(0x00, dataSize(sub_0))\nstop\n\nsub_0: assembly {\n        /* \"package/contracts/reverseRegistrar/ReverseRegistrar.sol\":546:5821  contract ReverseRegistrar is Ownable, Controllable, IReverseRegistrar {... */\n      mstore(0x40, 0x80)\n      callvalue\n      dup1\n      iszero\n      tag_1\n      jumpi\n      0x00\n      dup1\n      revert\n    tag_1:\n      pop\n      jumpi(tag_2, lt(calldatasize, 0x04))\n      shr(0xe0, calldataload(0x00))\n      dup1\n      0x8da5cb5b\n      gt\n      tag_17\n      jumpi\n      dup1\n      0xc66485b2\n      gt\n      tag_18\n      jumpi\n      dup1\n      0xc66485b2\n      eq\n      tag_13\n      jumpi\n      dup1\n      0xda8c229e\n      eq\n      tag_14\n      jumpi\n      dup1\n      0xe0dba60f\n      eq\n      tag_15\n      jumpi\n      dup1\n      0xf2fde38b\n      eq\n      tag_16\n      jumpi\n      jump(tag_2)\n    tag_18:\n      dup1\n      0x8da5cb5b\n      eq\n      tag_10\n      jumpi\n      dup1\n      0xbffbe61c\n      eq\n      tag_11\n      jumpi\n      dup1\n      0xc47f0027\n      eq\n      tag_12\n      jumpi\n      jump(tag_2)\n    tag_17:\n      dup1\n      0x65669631\n      gt\n      tag_19\n      jumpi\n      dup1\n      0x65669631\n      eq\n      tag_6\n      jumpi\n      dup1\n      0x715018a6\n      eq\n      tag_7\n      jumpi\n      dup1\n      0x7a806d6b\n      eq\n      tag_8\n      jumpi\n      dup1\n      0x828eab0e\n      eq\n      tag_9\n      jumpi\n      jump(tag_2)\n    tag_19:\n      dup1\n      0x0f5a5466\n      eq\n      tag_3\n      jumpi\n      dup1\n      0x1e83409a\n      eq\n      tag_4\n      jumpi\n      dup1\n      0x3f15457f\n      eq\n      tag_5\n      jumpi\n    tag_2:\n      0x00\n      dup1\n      revert\n        /* \"package/contracts/reverseRegistrar/ReverseRegistrar.sol\":3259:3412  function claimWithResolver(address owner, address resolver) public override returns (bytes32) {... */\n    tag_3:\n      tag_20\n      0x04\n      dup1\n      calldatasize\n      sub\n      dup2\n      add\n      swap1\n      tag_21\n      swap2\n      swap1\n      tag_22\n      jump\t// in\n    tag_21:\n      tag_23\n      jump\t// in\n    tag_20:\n      mload(0x40)\n      tag_24\n      swap2\n      swap1\n      tag_25\n      jump\t// in\n    tag_24:\n      mload(0x40)\n      dup1\n      swap2\n      sub\n      swap1\n      return\n        /* \"package/contracts/reverseRegistrar/ReverseRegistrar.sol\":2022:2161  function claim(address owner) public override returns (bytes32) {... */\n    tag_4:\n      tag_26\n      0x04\n      dup1\n      calldatasize\n      sub\n      dup2\n      add\n      swap1\n      tag_27\n      swap2\n      swap1\n      tag_28\n      jump\t// in\n    tag_27:\n      tag_29\n      jump\t// in\n    tag_26:\n      mload(0x40)\n      tag_30\n      swap2\n      swap1\n      tag_25\n      jump\t// in\n    tag_30:\n      mload(0x40)\n      dup1\n      swap2\n      sub\n      swap1\n      return\n        /* \"package/contracts/reverseRegistrar/ReverseRegistrar.sol\":620:644  ENS public immutable ens */\n    tag_5:\n      tag_31\n      tag_32\n      jump\t// in\n    tag_31:\n      mload(0x40)\n      tag_33\n      swap2\n      swap1\n      tag_34\n      jump\t// in\n    tag_33:\n      mload(0x40)\n      dup1\n      swap2\n      sub\n      swap1\n      return\n        /* \"package/contracts/reverseRegistrar/ReverseRegistrar.sol\":2511:2927  function claimForAddr(... */\n    tag_6:\n      tag_35\n      0x04\n      dup1\n      calldatasize\n      sub\n      dup2\n      add\n      swap1\n      tag_36\n      swap2\n      swap1\n      tag_37\n      jump\t// in\n    tag_36:\n      tag_38\n      jump\t// in\n    tag_35:\n      mload(0x40)\n      tag_39\n      swap2\n      swap1\n      tag_25\n      jump\t// in\n    tag_39:\n      mload(0x40)\n      dup1\n      swap2\n      sub\n      swap1\n      return\n        /* \"@openzeppelin/contracts/access/Ownable.sol\":1700:1845  function renounceOwnership() public virtual onlyOwner {... */\n    tag_7:\n      tag_40\n      tag_41\n      jump\t// in\n    tag_40:\n      stop\n        /* \"package/contracts/reverseRegistrar/ReverseRegistrar.sol\":4346:4617  function setNameForAddr(... */\n    tag_8:\n      tag_42\n      0x04\n      dup1\n      calldatasize\n      sub\n      dup2\n      add\n      swap1\n      tag_43\n      swap2\n      swap1\n      tag_44\n      jump\t// in\n    tag_43:\n      tag_45\n      jump\t// in\n    tag_42:\n      mload(0x40)\n      tag_46\n      swap2\n      swap1\n      tag_25\n      jump\t// in\n    tag_46:\n      mload(0x40)\n      dup1\n      swap2\n      sub\n      swap1\n      return\n        /* \"package/contracts/reverseRegistrar/ReverseRegistrar.sol\":648:683  NameResolver public defaultResolver */\n    tag_9:\n      tag_47\n      tag_48\n      jump\t// in\n    tag_47:\n      mload(0x40)\n      tag_49\n      swap2\n      swap1\n      tag_50\n      jump\t// in\n    tag_49:\n      mload(0x40)\n      dup1\n      swap2\n      sub\n      swap1\n      return\n        /* \"@openzeppelin/contracts/access/Ownable.sol\":1068:1153  function owner() public view virtual returns (address) {... */\n    tag_10:\n      tag_51\n      tag_52\n      jump\t// in\n    tag_51:\n      mload(0x40)\n      tag_53\n      swap2\n      swap1\n      tag_54\n      jump\t// in\n    tag_53:\n      mload(0x40)\n      dup1\n      swap2\n      sub\n      swap1\n      return\n        /* \"package/contracts/reverseRegistrar/ReverseRegistrar.sol\":4773:4926  function node(address addr) public pure override returns (bytes32) {... */\n    tag_11:\n      tag_55\n      0x04\n      dup1\n      calldatasize\n      sub\n      dup2\n      add\n      swap1\n      tag_56\n      swap2\n      swap1\n      tag_28\n      jump\t// in\n    tag_56:\n      tag_57\n      jump\t// in\n    tag_55:\n      mload(0x40)\n      tag_58\n      swap2\n      swap1\n      tag_25\n      jump\t// in\n    tag_58:\n      mload(0x40)\n      dup1\n      swap2\n      sub\n      swap1\n      return\n        /* \"package/contracts/reverseRegistrar/ReverseRegistrar.sol\":3715:3874  function setName(string memory name) public override returns (bytes32) {... */\n    tag_12:\n      tag_59\n      0x04\n      dup1\n      calldatasize\n      sub\n      dup2\n      add\n      swap1\n      tag_60\n      swap2\n      swap1\n      tag_61\n      jump\t// in\n    tag_60:\n      tag_62\n      jump\t// in\n    tag_59:\n      mload(0x40)\n      tag_63\n      swap2\n      swap1\n      tag_25\n      jump\t// in\n    tag_63:\n      mload(0x40)\n      dup1\n      swap2\n      sub\n      swap1\n      return\n        /* \"package/contracts/reverseRegistrar/ReverseRegistrar.sol\":1491:1769  function setDefaultResolver(address resolver) public override onlyOwner {... */\n    tag_13:\n      tag_64\n      0x04\n      dup1\n      calldatasize\n      sub\n      dup2\n      add\n      swap1\n      tag_65\n      swap2\n      swap1\n      tag_28\n      jump\t// in\n    tag_65:\n      tag_66\n      jump\t// in\n    tag_64:\n      stop\n        /* \"package/contracts/root/Controllable.sol\":148:191  mapping(address => bool) public controllers */\n    tag_14:\n      tag_67\n      0x04\n      dup1\n      calldatasize\n      sub\n      dup2\n      add\n      swap1\n      tag_68\n      swap2\n      swap1\n      tag_28\n      jump\t// in\n    tag_68:\n      tag_69\n      jump\t// in\n    tag_67:\n      mload(0x40)\n      tag_70\n      swap2\n      swap1\n      tag_71\n      jump\t// in\n    tag_70:\n      mload(0x40)\n      dup1\n      swap2\n      sub\n      swap1\n      return\n        /* \"package/contracts/root/Controllable.sol\":390:557  function setController(address controller, bool enabled) public onlyOwner {... */\n    tag_15:\n      tag_72\n      0x04\n      dup1\n      calldatasize\n      sub\n      dup2\n      add\n      swap1\n      tag_73\n      swap2\n      swap1\n      tag_74\n      jump\t// in\n    tag_73:\n      tag_75\n      jump\t// in\n    tag_72:\n      stop\n        /* \"@openzeppelin/contracts/access/Ownable.sol\":1994:2234  function transferOwnership(address newOwner) public virtual onlyOwner {... */\n    tag_16:\n      tag_76\n      0x04\n      dup1\n      calldatasize\n      sub\n      dup2\n      add\n      swap1\n      tag_77\n      swap2\n      swap1\n      tag_28\n      jump\t// in\n    tag_77:\n      tag_78\n      jump\t// in\n    tag_76:\n      stop\n        /* \"package/contracts/reverseRegistrar/ReverseRegistrar.sol\":3259:3412  function claimWithResolver(address owner, address resolver) public override returns (bytes32) {... */\n    tag_23:\n        /* \"package/contracts/reverseRegistrar/ReverseRegistrar.sol\":3344:3351  bytes32 */\n      0x00\n        /* \"package/contracts/reverseRegistrar/ReverseRegistrar.sol\":3366:3407  claimForAddr(msg.sender, owner, resolver) */\n      tag_80\n        /* \"package/contracts/reverseRegistrar/ReverseRegistrar.sol\":3379:3389  msg.sender */\n      caller\n        /* \"package/contracts/reverseRegistrar/ReverseRegistrar.sol\":3391:3396  owner */\n      dup5\n        /* \"package/contracts/reverseRegistrar/ReverseRegistrar.sol\":3398:3406  resolver */\n      dup5\n        /* \"package/contracts/reverseRegistrar/ReverseRegistrar.sol\":3366:3378  claimForAddr */\n      tag_38\n        /* \"package/contracts/reverseRegistrar/ReverseRegistrar.sol\":3366:3407  claimForAddr(msg.sender, owner, resolver) */\n      jump\t// in\n    tag_80:\n        /* \"package/contracts/reverseRegistrar/ReverseRegistrar.sol\":3359:3407  return claimForAddr(msg.sender, owner, resolver) */\n      swap1\n      pop\n        /* \"package/contracts/reverseRegistrar/ReverseRegistrar.sol\":3259:3412  function claimWithResolver(address owner, address resolver) public override returns (bytes32) {... */\n      swap3\n      swap2\n      pop\n      pop\n      jump\t// out\n        /* \"package/contracts/reverseRegistrar/ReverseRegistrar.sol\":2022:2161  function claim(address owner) public override returns (bytes32) {... */\n    tag_29:\n        /* \"package/contracts/reverseRegistrar/ReverseRegistrar.sol\":2077:2084  bytes32 */\n      0x00\n        /* \"package/contracts/reverseRegistrar/ReverseRegistrar.sol\":2099:2156  claimForAddr(msg.sender, owner, address(defaultResolver)) */\n      tag_82\n        /* \"package/contracts/reverseRegistrar/ReverseRegistrar.sol\":2112:2122  msg.sender */\n      caller\n        /* \"package/contracts/reverseRegistrar/ReverseRegistrar.sol\":2124:2129  owner */\n      dup4\n        /* \"package/contracts/reverseRegistrar/ReverseRegistrar.sol\":2139:2154  defaultResolver */\n      0x02\n      0x00\n      swap1\n      sload\n      swap1\n      0x0100\n      exp\n      swap1\n      div\n      0xffffffffffffffffffffffffffffffffffffffff\n      and\n        /* \"package/contracts/reverseRegistrar/ReverseRegistrar.sol\":2099:2111  claimForAddr */\n      tag_38\n        /* \"package/contracts/reverseRegistrar/ReverseRegistrar.sol\":2099:2156  claimForAddr(msg.sender, owner, address(defaultResolver)) */\n      jump\t// in\n    tag_82:\n        /* \"package/contracts/reverseRegistrar/ReverseRegistrar.sol\":2092:2156  return claimForAddr(msg.sender, owner, address(defaultResolver)) */\n      swap1\n      pop\n        /* \"package/contracts/reverseRegistrar/ReverseRegistrar.sol\":2022:2161  function claim(address owner) public override returns (bytes32) {... */\n      swap2\n      swap1\n      pop\n      jump\t// out\n        /* \"package/contracts/reverseRegistrar/ReverseRegistrar.sol\":620:644  ENS public immutable ens */\n    tag_32:\n      immutable(\"0x4383ee0ddfd8502f9393d9b8f5200ad38dbe836870d41c01f4055e3f56cef583\")\n      dup2\n      jump\t// out\n        /* \"package/contracts/reverseRegistrar/ReverseRegistrar.sol\":2511:2927  function claimForAddr(... */\n    tag_38:\n        /* \"package/contracts/reverseRegistrar/ReverseRegistrar.sol\":2638:2645  bytes32 */\n      0x00\n        /* \"package/contracts/reverseRegistrar/ReverseRegistrar.sol\":2623:2627  addr */\n      dup4\n        /* \"package/contracts/reverseRegistrar/ReverseRegistrar.sol\":1267:1277  msg.sender */\n      caller\n        /* \"package/contracts/reverseRegistrar/ReverseRegistrar.sol\":1259:1277  addr == msg.sender */\n      0xffffffffffffffffffffffffffffffffffffffff\n      and\n        /* \"package/contracts/reverseRegistrar/ReverseRegistrar.sol\":1259:1263  addr */\n      dup2\n        /* \"package/contracts/reverseRegistrar/ReverseRegistrar.sol\":1259:1277  addr == msg.sender */\n      0xffffffffffffffffffffffffffffffffffffffff\n      and\n      eq\n        /* \"package/contracts/reverseRegistrar/ReverseRegistrar.sol\":1259:1304  addr == msg.sender || controllers[msg.sender] */\n      dup1\n      tag_84\n      jumpi\n      pop\n        /* \"package/contracts/reverseRegistrar/ReverseRegistrar.sol\":1281:1292  controllers */\n      0x01\n        /* \"package/contracts/reverseRegistrar/ReverseRegistrar.sol\":1281:1304  controllers[msg.sender] */\n      0x00\n        /* \"package/contracts/reverseRegistrar/ReverseRegistrar.sol\":1293:1303  msg.sender */\n      caller\n        /* \"package/contracts/reverseRegistrar/ReverseRegistrar.sol\":1281:1304  controllers[msg.sender] */\n      0xffffffffffffffffffffffffffffffffffffffff\n      and\n      0xffffffffffffffffffffffffffffffffffffffff\n      and\n      dup2\n      mstore\n      0x20\n      add\n      swap1\n      dup2\n      mstore\n      0x20\n      add\n      0x00\n      keccak256\n      0x00\n      swap1\n      sload\n      swap1\n      0x0100\n      exp\n      swap1\n      div\n      0xff\n      and\n        /* \"package/contracts/reverseRegistrar/ReverseRegistrar.sol\":1259:1304  addr == msg.sender || controllers[msg.sender] */\n    tag_84:\n        /* \"package/contracts/reverseRegistrar/ReverseRegistrar.sol\":1259:1346  addr == msg.sender || controllers[msg.sender] || ens.isApprovedForAll(addr, msg.sender) */\n      dup1\n      tag_85\n      jumpi\n      pop\n        /* \"package/contracts/reverseRegistrar/ReverseRegistrar.sol\":1308:1311  ens */\n      immutable(\"0x4383ee0ddfd8502f9393d9b8f5200ad38dbe836870d41c01f4055e3f56cef583\")\n        /* \"package/contracts/reverseRegistrar/ReverseRegistrar.sol\":1308:1328  ens.isApprovedForAll */\n      0xffffffffffffffffffffffffffffffffffffffff\n      and\n      0xe985e9c5\n        /* \"package/contracts/reverseRegistrar/ReverseRegistrar.sol\":1329:1333  addr */\n      dup3\n        /* \"package/contracts/reverseRegistrar/ReverseRegistrar.sol\":1335:1345  msg.sender */\n      caller\n        /* \"package/contracts/reverseRegistrar/ReverseRegistrar.sol\":1308:1346  ens.isApprovedForAll(addr, msg.sender) */\n      mload(0x40)\n      dup4\n      0xffffffff\n      and\n      0xe0\n      shl\n      dup2\n      mstore\n      0x04\n      add\n      tag_86\n      swap3\n      swap2\n      swap1\n      tag_87\n      jump\t// in\n    tag_86:\n      0x20\n      mload(0x40)\n      dup1\n      dup4\n      sub\n      dup2\n      dup7\n      gas\n      staticcall\n      iszero\n      dup1\n      iszero\n      tag_89\n      jumpi\n      returndatasize\n      0x00\n      dup1\n      returndatacopy\n      revert(0x00, returndatasize)\n    tag_89:\n      pop\n      pop\n      pop\n      pop\n      mload(0x40)\n      returndatasize\n      not(0x1f)\n      0x1f\n      dup3\n      add\n      and\n      dup3\n      add\n      dup1\n      0x40\n      mstore\n      pop\n      dup2\n      add\n      swap1\n      tag_90\n      swap2\n      swap1\n      tag_91\n      jump\t// in\n    tag_90:\n        /* \"package/contracts/reverseRegistrar/ReverseRegistrar.sol\":1259:1346  addr == msg.sender || controllers[msg.sender] || ens.isApprovedForAll(addr, msg.sender) */\n    tag_85:\n        /* \"package/contracts/reverseRegistrar/ReverseRegistrar.sol\":1259:1368  addr == msg.sender || controllers[msg.sender] || ens.isApprovedForAll(addr, msg.sender) || ownsContract(addr) */\n      dup1\n      tag_92\n      jumpi\n      pop\n        /* \"package/contracts/reverseRegistrar/ReverseRegistrar.sol\":1350:1368  ownsContract(addr) */\n      tag_93\n        /* \"package/contracts/reverseRegistrar/ReverseRegistrar.sol\":1363:1367  addr */\n      dup2\n        /* \"package/contracts/reverseRegistrar/ReverseRegistrar.sol\":1350:1362  ownsContract */\n      tag_94\n        /* \"package/contracts/reverseRegistrar/ReverseRegistrar.sol\":1350:1368  ownsContract(addr) */\n      jump\t// in\n    tag_93:\n        /* \"package/contracts/reverseRegistrar/ReverseRegistrar.sol\":1259:1368  addr == msg.sender || controllers[msg.sender] || ens.isApprovedForAll(addr, msg.sender) || ownsContract(addr) */\n    tag_92:\n        /* \"package/contracts/reverseRegistrar/ReverseRegistrar.sol\":1244:1475  require(... */\n      tag_95\n      jumpi\n      mload(0x40)\n      0x08c379a000000000000000000000000000000000000000000000000000000000\n      dup2\n      mstore\n      0x04\n      add\n      tag_96\n      swap1\n      tag_97\n      jump\t// in\n    tag_96:\n      mload(0x40)\n      dup1\n      swap2\n      sub\n      swap1\n      revert\n    tag_95:\n        /* \"package/contracts/reverseRegistrar/ReverseRegistrar.sol\":2653:2670  bytes32 labelHash */\n      0x00\n        /* \"package/contracts/reverseRegistrar/ReverseRegistrar.sol\":2673:2693  sha3HexAddress(addr) */\n      tag_99\n        /* \"package/contracts/reverseRegistrar/ReverseRegistrar.sol\":2688:2692  addr */\n      dup7\n        /* \"package/contracts/reverseRegistrar/ReverseRegistrar.sol\":2673:2687  sha3HexAddress */\n      tag_100\n        /* \"package/contracts/reverseRegistrar/ReverseRegistrar.sol\":2673:2693  sha3HexAddress(addr) */\n      jump\t// in\n    tag_99:\n        /* \"package/contracts/reverseRegistrar/ReverseRegistrar.sol\":2653:2693  bytes32 labelHash = sha3HexAddress(addr) */\n      swap1\n      pop\n        /* \"package/contracts/reverseRegistrar/ReverseRegistrar.sol\":2699:2718  bytes32 reverseNode */\n      0x00\n        /* \"package/contracts/reverseRegistrar/ReverseRegistrar.sol\":448:514  0x91d1777781884d03a6757a803996e38de2a42967fb37eeaca72729271025a9e2 */\n      0x91d1777781884d03a6757a803996e38de2a42967fb37eeaca72729271025a9e2\n        /* \"package/contracts/reverseRegistrar/ReverseRegistrar.sol\":2748:2765  ADDR_REVERSE_NODE */\n      0x00\n      shl\n        /* \"package/contracts/reverseRegistrar/ReverseRegistrar.sol\":2767:2776  labelHash */\n      dup3\n        /* \"package/contracts/reverseRegistrar/ReverseRegistrar.sol\":2731:2777  abi.encodePacked(ADDR_REVERSE_NODE, labelHash) */\n      add(0x20, mload(0x40))\n      tag_101\n      swap3\n      swap2\n      swap1\n      tag_102\n      jump\t// in\n    tag_101:\n      mload(0x40)\n      0x20\n      dup2\n      dup4\n      sub\n      sub\n      dup2\n      mstore\n      swap1\n      0x40\n      mstore\n        /* \"package/contracts/reverseRegistrar/ReverseRegistrar.sol\":2721:2778  keccak256(abi.encodePacked(ADDR_REVERSE_NODE, labelHash)) */\n      dup1\n      mload\n      swap1\n      0x20\n      add\n      keccak256\n        /* \"package/contracts/reverseRegistrar/ReverseRegistrar.sol\":2699:2778  bytes32 reverseNode = keccak256(abi.encodePacked(ADDR_REVERSE_NODE, labelHash)) */\n      swap1\n      pop\n        /* \"package/contracts/reverseRegistrar/ReverseRegistrar.sol\":2810:2821  reverseNode */\n      dup1\n        /* \"package/contracts/reverseRegistrar/ReverseRegistrar.sol\":2804:2808  addr */\n      dup8\n        /* \"package/contracts/reverseRegistrar/ReverseRegistrar.sol\":2789:2822  ReverseClaimed(addr, reverseNode) */\n      0xffffffffffffffffffffffffffffffffffffffff\n      and\n      0x6ada868dd3058cf77a48a74489fd7963688e5464b2b0fa957ace976243270e92\n      mload(0x40)\n      mload(0x40)\n      dup1\n      swap2\n      sub\n      swap1\n      log3\n        /* \"package/contracts/reverseRegistrar/ReverseRegistrar.sol\":2828:2831  ens */\n      immutable(\"0x4383ee0ddfd8502f9393d9b8f5200ad38dbe836870d41c01f4055e3f56cef583\")\n        /* \"package/contracts/reverseRegistrar/ReverseRegistrar.sol\":2828:2848  ens.setSubnodeRecord */\n      0xffffffffffffffffffffffffffffffffffffffff\n      and\n      0x5ef2c7f0\n        /* \"package/contracts/reverseRegistrar/ReverseRegistrar.sol\":448:514  0x91d1777781884d03a6757a803996e38de2a42967fb37eeaca72729271025a9e2 */\n      0x91d1777781884d03a6757a803996e38de2a42967fb37eeaca72729271025a9e2\n        /* \"package/contracts/reverseRegistrar/ReverseRegistrar.sol\":2849:2866  ADDR_REVERSE_NODE */\n      0x00\n      shl\n        /* \"package/contracts/reverseRegistrar/ReverseRegistrar.sol\":2868:2877  labelHash */\n      dup5\n        /* \"package/contracts/reverseRegistrar/ReverseRegistrar.sol\":2879:2884  owner */\n      dup10\n        /* \"package/contracts/reverseRegistrar/ReverseRegistrar.sol\":2886:2894  resolver */\n      dup10\n        /* \"package/contracts/reverseRegistrar/ReverseRegistrar.sol\":2896:2897  0 */\n      0x00\n        /* \"package/contracts/reverseRegistrar/ReverseRegistrar.sol\":2828:2898  ens.setSubnodeRecord(ADDR_REVERSE_NODE, labelHash, owner, resolver, 0) */\n      mload(0x40)\n      dup7\n      0xffffffff\n      and\n      0xe0\n      shl\n      dup2\n      mstore\n      0x04\n      add\n      tag_103\n      swap6\n      swap5\n      swap4\n      swap3\n      swap2\n      swap1\n      tag_104\n      jump\t// in\n    tag_103:\n      0x00\n      mload(0x40)\n      dup1\n      dup4\n      sub\n      dup2\n      0x00\n      dup8\n      dup1\n      extcodesize\n      iszero\n      dup1\n      iszero\n      tag_105\n      jumpi\n      0x00\n      dup1\n      revert\n    tag_105:\n      pop\n      gas\n      call\n      iszero\n      dup1\n      iszero\n      tag_107\n      jumpi\n      returndatasize\n      0x00\n      dup1\n      returndatacopy\n      revert(0x00, returndatasize)\n    tag_107:\n      pop\n      pop\n      pop\n      pop\n        /* \"package/contracts/reverseRegistrar/ReverseRegistrar.sol\":2911:2922  reverseNode */\n      dup1\n        /* \"package/contracts/reverseRegistrar/ReverseRegistrar.sol\":2904:2922  return reverseNode */\n      swap4\n      pop\n      pop\n      pop\n        /* \"package/contracts/reverseRegistrar/ReverseRegistrar.sol\":2511:2927  function claimForAddr(... */\n      pop\n      swap4\n      swap3\n      pop\n      pop\n      pop\n      jump\t// out\n        /* \"@openzeppelin/contracts/access/Ownable.sol\":1700:1845  function renounceOwnership() public virtual onlyOwner {... */\n    tag_41:\n        /* \"@openzeppelin/contracts/access/Ownable.sol\":1291:1303  _msgSender() */\n      tag_109\n        /* \"@openzeppelin/contracts/access/Ownable.sol\":1291:1301  _msgSender */\n      tag_110\n        /* \"@openzeppelin/contracts/access/Ownable.sol\":1291:1303  _msgSender() */\n      jump\t// in\n    tag_109:\n        /* \"@openzeppelin/contracts/access/Ownable.sol\":1280:1303  owner() == _msgSender() */\n      0xffffffffffffffffffffffffffffffffffffffff\n      and\n        /* \"@openzeppelin/contracts/access/Ownable.sol\":1280:1287  owner() */\n      tag_111\n        /* \"@openzeppelin/contracts/access/Ownable.sol\":1280:1285  owner */\n      tag_52\n        /* \"@openzeppelin/contracts/access/Ownable.sol\":1280:1287  owner() */\n      jump\t// in\n    tag_111:\n        /* \"@openzeppelin/contracts/access/Ownable.sol\":1280:1303  owner() == _msgSender() */\n      0xffffffffffffffffffffffffffffffffffffffff\n      and\n      eq\n        /* \"@openzeppelin/contracts/access/Ownable.sol\":1272:1340  require(owner() == _msgSender(), \"Ownable: caller is not the owner\") */\n      tag_112\n      jumpi\n      mload(0x40)\n      0x08c379a000000000000000000000000000000000000000000000000000000000\n      dup2\n      mstore\n      0x04\n      add\n      tag_113\n      swap1\n      tag_114\n      jump\t// in\n    tag_113:\n      mload(0x40)\n      dup1\n      swap2\n      sub\n      swap1\n      revert\n    tag_112:\n        /* \"@openzeppelin/contracts/access/Ownable.sol\":1806:1807  0 */\n      0x00\n        /* \"@openzeppelin/contracts/access/Ownable.sol\":1769:1809  OwnershipTransferred(_owner, address(0)) */\n      0xffffffffffffffffffffffffffffffffffffffff\n      and\n        /* \"@openzeppelin/contracts/access/Ownable.sol\":1790:1796  _owner */\n      0x00\n      dup1\n      sload\n      swap1\n      0x0100\n      exp\n      swap1\n      div\n      0xffffffffffffffffffffffffffffffffffffffff\n      and\n        /* \"@openzeppelin/contracts/access/Ownable.sol\":1769:1809  OwnershipTransferred(_owner, address(0)) */\n      0xffffffffffffffffffffffffffffffffffffffff\n      and\n      0x8be0079c531659141344cd1fd0a4f28419497f9722a3daafe3b4186f6b6457e0\n      mload(0x40)\n      mload(0x40)\n      dup1\n      swap2\n      sub\n      swap1\n      log3\n        /* \"@openzeppelin/contracts/access/Ownable.sol\":1836:1837  0 */\n      0x00\n        /* \"@openzeppelin/contracts/access/Ownable.sol\":1819:1825  _owner */\n      dup1\n      0x00\n        /* \"@openzeppelin/contracts/access/Ownable.sol\":1819:1838  _owner = address(0) */\n      0x0100\n      exp\n      dup2\n      sload\n      dup2\n      0xffffffffffffffffffffffffffffffffffffffff\n      mul\n      not\n      and\n      swap1\n      dup4\n      0xffffffffffffffffffffffffffffffffffffffff\n      and\n      mul\n      or\n      swap1\n      sstore\n      pop\n        /* \"@openzeppelin/contracts/access/Ownable.sol\":1700:1845  function renounceOwnership() public virtual onlyOwner {... */\n      jump\t// out\n        /* \"package/contracts/reverseRegistrar/ReverseRegistrar.sol\":4346:4617  function setNameForAddr(... */\n    tag_45:\n        /* \"package/contracts/reverseRegistrar/ReverseRegistrar.sol\":4482:4489  bytes32 */\n      0x00\n        /* \"package/contracts/reverseRegistrar/ReverseRegistrar.sol\":4497:4509  bytes32 node */\n      dup1\n        /* \"package/contracts/reverseRegistrar/ReverseRegistrar.sol\":4512:4547  claimForAddr(addr, owner, resolver) */\n      tag_117\n        /* \"package/contracts/reverseRegistrar/ReverseRegistrar.sol\":4525:4529  addr */\n      dup7\n        /* \"package/contracts/reverseRegistrar/ReverseRegistrar.sol\":4531:4536  owner */\n      dup7\n        /* \"package/contracts/reverseRegistrar/ReverseRegistrar.sol\":4538:4546  resolver */\n      dup7\n        /* \"package/contracts/reverseRegistrar/ReverseRegistrar.sol\":4512:4524  claimForAddr */\n      tag_38\n        /* \"package/contracts/reverseRegistrar/ReverseRegistrar.sol\":4512:4547  claimForAddr(addr, owner, resolver) */\n      jump\t// in\n    tag_117:\n        /* \"package/contracts/reverseRegistrar/ReverseRegistrar.sol\":4497:4547  bytes32 node = claimForAddr(addr, owner, resolver) */\n      swap1\n      pop\n        /* \"package/contracts/reverseRegistrar/ReverseRegistrar.sol\":4566:4574  resolver */\n      dup4\n        /* \"package/contracts/reverseRegistrar/ReverseRegistrar.sol\":4553:4583  NameResolver(resolver).setName */\n      0xffffffffffffffffffffffffffffffffffffffff\n      and\n      0x77372213\n        /* \"package/contracts/reverseRegistrar/ReverseRegistrar.sol\":4584:4588  node */\n      dup3\n        /* \"package/contracts/reverseRegistrar/ReverseRegistrar.sol\":4590:4594  name */\n      dup6\n        /* \"package/contracts/reverseRegistrar/ReverseRegistrar.sol\":4553:4595  NameResolver(resolver).setName(node, name) */\n      mload(0x40)\n      dup4\n      0xffffffff\n      and\n      0xe0\n      shl\n      dup2\n      mstore\n      0x04\n      add\n      tag_118\n      swap3\n      swap2\n      swap1\n      tag_119\n      jump\t// in\n    tag_118:\n      0x00\n      mload(0x40)\n      dup1\n      dup4\n      sub\n      dup2\n      0x00\n      dup8\n      dup1\n      extcodesize\n      iszero\n      dup1\n      iszero\n      tag_120\n      jumpi\n      0x00\n      dup1\n      revert\n    tag_120:\n      pop\n      gas\n      call\n      iszero\n      dup1\n      iszero\n      tag_122\n      jumpi\n      returndatasize\n      0x00\n      dup1\n      returndatacopy\n      revert(0x00, returndatasize)\n    tag_122:\n      pop\n      pop\n      pop\n      pop\n        /* \"package/contracts/reverseRegistrar/ReverseRegistrar.sol\":4608:4612  node */\n      dup1\n        /* \"package/contracts/reverseRegistrar/ReverseRegistrar.sol\":4601:4612  return node */\n      swap2\n      pop\n      pop\n        /* \"package/contracts/reverseRegistrar/ReverseRegistrar.sol\":4346:4617  function setNameForAddr(... */\n      swap5\n      swap4\n      pop\n      pop\n      pop\n      pop\n      jump\t// out\n        /* \"package/contracts/reverseRegistrar/ReverseRegistrar.sol\":648:683  NameResolver public defaultResolver */\n    tag_48:\n      0x02\n      0x00\n      swap1\n      sload\n      swap1\n      0x0100\n      exp\n      swap1\n      div\n      0xffffffffffffffffffffffffffffffffffffffff\n      and\n      dup2\n      jump\t// out\n        /* \"@openzeppelin/contracts/access/Ownable.sol\":1068:1153  function owner() public view virtual returns (address) {... */\n    tag_52:\n        /* \"@openzeppelin/contracts/access/Ownable.sol\":1114:1121  address */\n      0x00\n        /* \"@openzeppelin/contracts/access/Ownable.sol\":1140:1146  _owner */\n      dup1\n      0x00\n      swap1\n      sload\n      swap1\n      0x0100\n      exp\n      swap1\n      div\n      0xffffffffffffffffffffffffffffffffffffffff\n      and\n        /* \"@openzeppelin/contracts/access/Ownable.sol\":1133:1146  return _owner */\n      swap1\n      pop\n        /* \"@openzeppelin/contracts/access/Ownable.sol\":1068:1153  function owner() public view virtual returns (address) {... */\n      swap1\n      jump\t// out\n        /* \"package/contracts/reverseRegistrar/ReverseRegistrar.sol\":4773:4926  function node(address addr) public pure override returns (bytes32) {... */\n    tag_57:\n        /* \"package/contracts/reverseRegistrar/ReverseRegistrar.sol\":4831:4838  bytes32 */\n      0x00\n        /* \"package/contracts/reverseRegistrar/ReverseRegistrar.sol\":448:514  0x91d1777781884d03a6757a803996e38de2a42967fb37eeaca72729271025a9e2 */\n      0x91d1777781884d03a6757a803996e38de2a42967fb37eeaca72729271025a9e2\n        /* \"package/contracts/reverseRegistrar/ReverseRegistrar.sol\":4880:4897  ADDR_REVERSE_NODE */\n      0x00\n      shl\n        /* \"package/contracts/reverseRegistrar/ReverseRegistrar.sol\":4899:4919  sha3HexAddress(addr) */\n      tag_125\n        /* \"package/contracts/reverseRegistrar/ReverseRegistrar.sol\":4914:4918  addr */\n      dup4\n        /* \"package/contracts/reverseRegistrar/ReverseRegistrar.sol\":4899:4913  sha3HexAddress */\n      tag_100\n        /* \"package/contracts/reverseRegistrar/ReverseRegistrar.sol\":4899:4919  sha3HexAddress(addr) */\n      jump\t// in\n    tag_125:\n        /* \"package/contracts/reverseRegistrar/ReverseRegistrar.sol\":4863:4920  abi.encodePacked(ADDR_REVERSE_NODE, sha3HexAddress(addr)) */\n      add(0x20, mload(0x40))\n      tag_126\n      swap3\n      swap2\n      swap1\n      tag_102\n      jump\t// in\n    tag_126:\n      mload(0x40)\n      0x20\n      dup2\n      dup4\n      sub\n      sub\n      dup2\n      mstore\n      swap1\n      0x40\n      mstore\n        /* \"package/contracts/reverseRegistrar/ReverseRegistrar.sol\":4853:4921  keccak256(abi.encodePacked(ADDR_REVERSE_NODE, sha3HexAddress(addr))) */\n      dup1\n      mload\n      swap1\n      0x20\n      add\n      keccak256\n        /* \"package/contracts/reverseRegistrar/ReverseRegistrar.sol\":4846:4921  return keccak256(abi.encodePacked(ADDR_REVERSE_NODE, sha3HexAddress(addr))) */\n      swap1\n      pop\n        /* \"package/contracts/reverseRegistrar/ReverseRegistrar.sol\":4773:4926  function node(address addr) public pure override returns (bytes32) {... */\n      swap2\n      swap1\n      pop\n      jump\t// out\n        /* \"package/contracts/reverseRegistrar/ReverseRegistrar.sol\":3715:3874  function setName(string memory name) public override returns (bytes32) {... */\n    tag_62:\n        /* \"package/contracts/reverseRegistrar/ReverseRegistrar.sol\":3777:3784  bytes32 */\n      0x00\n        /* \"package/contracts/reverseRegistrar/ReverseRegistrar.sol\":3799:3869  setNameForAddr(msg.sender, msg.sender, address(defaultResolver), name) */\n      tag_128\n        /* \"package/contracts/reverseRegistrar/ReverseRegistrar.sol\":3814:3824  msg.sender */\n      caller\n        /* \"package/contracts/reverseRegistrar/ReverseRegistrar.sol\":3826:3836  msg.sender */\n      caller\n        /* \"package/contracts/reverseRegistrar/ReverseRegistrar.sol\":3846:3861  defaultResolver */\n      0x02\n      0x00\n      swap1\n      sload\n      swap1\n      0x0100\n      exp\n      swap1\n      div\n      0xffffffffffffffffffffffffffffffffffffffff\n      and\n        /* \"package/contracts/reverseRegistrar/ReverseRegistrar.sol\":3864:3868  name */\n      dup6\n        /* \"package/contracts/reverseRegistrar/ReverseRegistrar.sol\":3799:3813  setNameForAddr */\n      tag_45\n        /* \"package/contracts/reverseRegistrar/ReverseRegistrar.sol\":3799:3869  setNameForAddr(msg.sender, msg.sender, address(defaultResolver), name) */\n      jump\t// in\n    tag_128:\n        /* \"package/contracts/reverseRegistrar/ReverseRegistrar.sol\":3792:3869  return setNameForAddr(msg.sender, msg.sender, address(defaultResolver), name) */\n      swap1\n      pop\n        /* \"package/contracts/reverseRegistrar/ReverseRegistrar.sol\":3715:3874  function setName(string memory name) public override returns (bytes32) {... */\n      swap2\n      swap1\n      pop\n      jump\t// out\n        /* \"package/contracts/reverseRegistrar/ReverseRegistrar.sol\":1491:1769  function setDefaultResolver(address resolver) public override onlyOwner {... */\n    tag_66:\n        /* \"@openzeppelin/contracts/access/Ownable.sol\":1291:1303  _msgSender() */\n      tag_130\n        /* \"@openzeppelin/contracts/access/Ownable.sol\":1291:1301  _msgSender */\n      tag_110\n        /* \"@openzeppelin/contracts/access/Ownable.sol\":1291:1303  _msgSender() */\n      jump\t// in\n    tag_130:\n        /* \"@openzeppelin/contracts/access/Ownable.sol\":1280:1303  owner() == _msgSender() */\n      0xffffffffffffffffffffffffffffffffffffffff\n      and\n        /* \"@openzeppelin/contracts/access/Ownable.sol\":1280:1287  owner() */\n      tag_131\n        /* \"@openzeppelin/contracts/access/Ownable.sol\":1280:1285  owner */\n      tag_52\n        /* \"@openzeppelin/contracts/access/Ownable.sol\":1280:1287  owner() */\n      jump\t// in\n    tag_131:\n        /* \"@openzeppelin/contracts/access/Ownable.sol\":1280:1303  owner() == _msgSender() */\n      0xffffffffffffffffffffffffffffffffffffffff\n      and\n      eq\n        /* \"@openzeppelin/contracts/access/Ownable.sol\":1272:1340  require(owner() == _msgSender(), \"Ownable: caller is not the owner\") */\n      tag_132\n      jumpi\n      mload(0x40)\n      0x08c379a000000000000000000000000000000000000000000000000000000000\n      dup2\n      mstore\n      0x04\n      add\n      tag_133\n      swap1\n      tag_114\n      jump\t// in\n    tag_133:\n      mload(0x40)\n      dup1\n      swap2\n      sub\n      swap1\n      revert\n    tag_132:\n        /* \"package/contracts/reverseRegistrar/ReverseRegistrar.sol\":1606:1607  0 */\n      0x00\n        /* \"package/contracts/reverseRegistrar/ReverseRegistrar.sol\":1577:1608  address(resolver) != address(0) */\n      0xffffffffffffffffffffffffffffffffffffffff\n      and\n        /* \"package/contracts/reverseRegistrar/ReverseRegistrar.sol\":1585:1593  resolver */\n      dup2\n        /* \"package/contracts/reverseRegistrar/ReverseRegistrar.sol\":1577:1608  address(resolver) != address(0) */\n      0xffffffffffffffffffffffffffffffffffffffff\n      and\n      sub\n        /* \"package/contracts/reverseRegistrar/ReverseRegistrar.sol\":1569:1661  require(address(resolver) != address(0), \"ReverseRegistrar: Resolver address must not be 0\") */\n      tag_135\n      jumpi\n      mload(0x40)\n      0x08c379a000000000000000000000000000000000000000000000000000000000\n      dup2\n      mstore\n      0x04\n      add\n      tag_136\n      swap1\n      tag_137\n      jump\t// in\n    tag_136:\n      mload(0x40)\n      dup1\n      swap2\n      sub\n      swap1\n      revert\n    tag_135:\n        /* \"package/contracts/reverseRegistrar/ReverseRegistrar.sol\":1698:1706  resolver */\n      dup1\n        /* \"package/contracts/reverseRegistrar/ReverseRegistrar.sol\":1667:1682  defaultResolver */\n      0x02\n      0x00\n        /* \"package/contracts/reverseRegistrar/ReverseRegistrar.sol\":1667:1707  defaultResolver = NameResolver(resolver) */\n      0x0100\n      exp\n      dup2\n      sload\n      dup2\n      0xffffffffffffffffffffffffffffffffffffffff\n      mul\n      not\n      and\n      swap1\n      dup4\n      0xffffffffffffffffffffffffffffffffffffffff\n      and\n      mul\n      or\n      swap1\n      sstore\n      pop\n        /* \"package/contracts/reverseRegistrar/ReverseRegistrar.sol\":1754:1762  resolver */\n      dup1\n        /* \"package/contracts/reverseRegistrar/ReverseRegistrar.sol\":1718:1764  DefaultResolverChanged(NameResolver(resolver)) */\n      0xffffffffffffffffffffffffffffffffffffffff\n      and\n      0xeae17a84d9eb83d8c8eb317f9e7d64857bc363fa51674d996c023f4340c577cf\n      mload(0x40)\n      mload(0x40)\n      dup1\n      swap2\n      sub\n      swap1\n      log2\n        /* \"package/contracts/reverseRegistrar/ReverseRegistrar.sol\":1491:1769  function setDefaultResolver(address resolver) public override onlyOwner {... */\n      pop\n      jump\t// out\n        /* \"package/contracts/root/Controllable.sol\":148:191  mapping(address => bool) public controllers */\n    tag_69:\n      mstore(0x20, 0x01)\n      dup1\n      0x00\n      mstore\n      keccak256(0x00, 0x40)\n      0x00\n      swap2\n      pop\n      sload\n      swap1\n      0x0100\n      exp\n      swap1\n      div\n      0xff\n      and\n      dup2\n      jump\t// out\n        /* \"package/contracts/root/Controllable.sol\":390:557  function setController(address controller, bool enabled) public onlyOwner {... */\n    tag_75:\n        /* \"@openzeppelin/contracts/access/Ownable.sol\":1291:1303  _msgSender() */\n      tag_139\n        /* \"@openzeppelin/contracts/access/Ownable.sol\":1291:1301  _msgSender */\n      tag_110\n        /* \"@openzeppelin/contracts/access/Ownable.sol\":1291:1303  _msgSender() */\n      jump\t// in\n    tag_139:\n        /* \"@openzeppelin/contracts/access/Ownable.sol\":1280:1303  owner() == _msgSender() */\n      0xffffffffffffffffffffffffffffffffffffffff\n      and\n        /* \"@openzeppelin/contracts/access/Ownable.sol\":1280:1287  owner() */\n      tag_140\n        /* \"@openzeppelin/contracts/access/Ownable.sol\":1280:1285  owner */\n      tag_52\n        /* \"@openzeppelin/contracts/access/Ownable.sol\":1280:1287  owner() */\n      jump\t// in\n    tag_140:\n        /* \"@openzeppelin/contracts/access/Ownable.sol\":1280:1303  owner() == _msgSender() */\n      0xffffffffffffffffffffffffffffffffffffffff\n      and\n      eq\n        /* \"@openzeppelin/contracts/access/Ownable.sol\":1272:1340  require(owner() == _msgSender(), \"Ownable: caller is not the owner\") */\n      tag_141\n      jumpi\n      mload(0x40)\n      0x08c379a000000000000000000000000000000000000000000000000000000000\n      dup2\n      mstore\n      0x04\n      add\n      tag_142\n      swap1\n      tag_114\n      jump\t// in\n    tag_142:\n      mload(0x40)\n      dup1\n      swap2\n      sub\n      swap1\n      revert\n    tag_141:\n        /* \"package/contracts/root/Controllable.sol\":496:503  enabled */\n      dup1\n        /* \"package/contracts/root/Controllable.sol\":470:481  controllers */\n      0x01\n        /* \"package/contracts/root/Controllable.sol\":470:493  controllers[controller] */\n      0x00\n        /* \"package/contracts/root/Controllable.sol\":482:492  controller */\n      dup5\n        /* \"package/contracts/root/Controllable.sol\":470:493  controllers[controller] */\n      0xffffffffffffffffffffffffffffffffffffffff\n      and\n      0xffffffffffffffffffffffffffffffffffffffff\n      and\n      dup2\n      mstore\n      0x20\n      add\n      swap1\n      dup2\n      mstore\n      0x20\n      add\n      0x00\n      keccak256\n      0x00\n        /* \"package/contracts/root/Controllable.sol\":470:503  controllers[controller] = enabled */\n      0x0100\n      exp\n      dup2\n      sload\n      dup2\n      0xff\n      mul\n      not\n      and\n      swap1\n      dup4\n      iszero\n      iszero\n      mul\n      or\n      swap1\n      sstore\n      pop\n        /* \"package/contracts/root/Controllable.sol\":532:542  controller */\n      dup2\n        /* \"package/contracts/root/Controllable.sol\":514:552  ControllerChanged(controller, enabled) */\n      0xffffffffffffffffffffffffffffffffffffffff\n      and\n      0x4c97694570a07277810af7e5669ffd5f6a2d6b74b6e9a274b8b870fd5114cf87\n        /* \"package/contracts/root/Controllable.sol\":544:551  enabled */\n      dup3\n        /* \"package/contracts/root/Controllable.sol\":514:552  ControllerChanged(controller, enabled) */\n      mload(0x40)\n      tag_144\n      swap2\n      swap1\n      tag_71\n      jump\t// in\n    tag_144:\n      mload(0x40)\n      dup1\n      swap2\n      sub\n      swap1\n      log2\n        /* \"package/contracts/root/Controllable.sol\":390:557  function setController(address controller, bool enabled) public onlyOwner {... */\n      pop\n      pop\n      jump\t// out\n        /* \"@openzeppelin/contracts/access/Ownable.sol\":1994:2234  function transferOwnership(address newOwner) public virtual onlyOwner {... */\n    tag_78:\n        /* \"@openzeppelin/contracts/access/Ownable.sol\":1291:1303  _msgSender() */\n      tag_146\n        /* \"@openzeppelin/contracts/access/Ownable.sol\":1291:1301  _msgSender */\n      tag_110\n        /* \"@openzeppelin/contracts/access/Ownable.sol\":1291:1303  _msgSender() */\n      jump\t// in\n    tag_146:\n        /* \"@openzeppelin/contracts/access/Ownable.sol\":1280:1303  owner() == _msgSender() */\n      0xffffffffffffffffffffffffffffffffffffffff\n      and\n        /* \"@openzeppelin/contracts/access/Ownable.sol\":1280:1287  owner() */\n      tag_147\n        /* \"@openzeppelin/contracts/access/Ownable.sol\":1280:1285  owner */\n      tag_52\n        /* \"@openzeppelin/contracts/access/Ownable.sol\":1280:1287  owner() */\n      jump\t// in\n    tag_147:\n        /* \"@openzeppelin/contracts/access/Ownable.sol\":1280:1303  owner() == _msgSender() */\n      0xffffffffffffffffffffffffffffffffffffffff\n      and\n      eq\n        /* \"@openzeppelin/contracts/access/Ownable.sol\":1272:1340  require(owner() == _msgSender(), \"Ownable: caller is not the owner\") */\n      tag_148\n      jumpi\n      mload(0x40)\n      0x08c379a000000000000000000000000000000000000000000000000000000000\n      dup2\n      mstore\n      0x04\n      add\n      tag_149\n      swap1\n      tag_114\n      jump\t// in\n    tag_149:\n      mload(0x40)\n      dup1\n      swap2\n      sub\n      swap1\n      revert\n    tag_148:\n        /* \"@openzeppelin/contracts/access/Ownable.sol\":2102:2103  0 */\n      0x00\n        /* \"@openzeppelin/contracts/access/Ownable.sol\":2082:2104  newOwner != address(0) */\n      0xffffffffffffffffffffffffffffffffffffffff\n      and\n        /* \"@openzeppelin/contracts/access/Ownable.sol\":2082:2090  newOwner */\n      dup2\n        /* \"@openzeppelin/contracts/access/Ownable.sol\":2082:2104  newOwner != address(0) */\n      0xffffffffffffffffffffffffffffffffffffffff\n      and\n      sub\n        /* \"@openzeppelin/contracts/access/Ownable.sol\":2074:2147  require(newOwner != address(0), \"Ownable: new owner is the zero address\") */\n      tag_151\n      jumpi\n      mload(0x40)\n      0x08c379a000000000000000000000000000000000000000000000000000000000\n      dup2\n      mstore\n      0x04\n      add\n      tag_152\n      swap1\n      tag_153\n      jump\t// in\n    tag_152:\n      mload(0x40)\n      dup1\n      swap2\n      sub\n      swap1\n      revert\n    tag_151:\n        /* \"@openzeppelin/contracts/access/Ownable.sol\":2191:2199  newOwner */\n      dup1\n        /* \"@openzeppelin/contracts/access/Ownable.sol\":2162:2200  OwnershipTransferred(_owner, newOwner) */\n      0xffffffffffffffffffffffffffffffffffffffff\n      and\n        /* \"@openzeppelin/contracts/access/Ownable.sol\":2183:2189  _owner */\n      0x00\n      dup1\n      sload\n      swap1\n      0x0100\n      exp\n      swap1\n      div\n      0xffffffffffffffffffffffffffffffffffffffff\n      and\n        /* \"@openzeppelin/contracts/access/Ownable.sol\":2162:2200  OwnershipTransferred(_owner, newOwner) */\n      0xffffffffffffffffffffffffffffffffffffffff\n      and\n      0x8be0079c531659141344cd1fd0a4f28419497f9722a3daafe3b4186f6b6457e0\n      mload(0x40)\n      mload(0x40)\n      dup1\n      swap2\n      sub\n      swap1\n      log3\n        /* \"@openzeppelin/contracts/access/Ownable.sol\":2219:2227  newOwner */\n      dup1\n        /* \"@openzeppelin/contracts/access/Ownable.sol\":2210:2216  _owner */\n      0x00\n      dup1\n        /* \"@openzeppelin/contracts/access/Ownable.sol\":2210:2227  _owner = newOwner */\n      0x0100\n      exp\n      dup2\n      sload\n      dup2\n      0xffffffffffffffffffffffffffffffffffffffff\n      mul\n      not\n      and\n      swap1\n      dup4\n      0xffffffffffffffffffffffffffffffffffffffff\n      and\n      mul\n      or\n      swap1\n      sstore\n      pop\n        /* \"@openzeppelin/contracts/access/Ownable.sol\":1994:2234  function transferOwnership(address newOwner) public virtual onlyOwner {... */\n      pop\n      jump\t// out\n        /* \"package/contracts/reverseRegistrar/ReverseRegistrar.sol\":5619:5819  function ownsContract(address addr) internal view returns (bool) {... */\n    tag_94:\n        /* \"package/contracts/reverseRegistrar/ReverseRegistrar.sol\":5678:5682  bool */\n      0x00\n        /* \"package/contracts/reverseRegistrar/ReverseRegistrar.sol\":5702:5706  addr */\n      dup2\n        /* \"package/contracts/reverseRegistrar/ReverseRegistrar.sol\":5694:5713  Ownable(addr).owner */\n      0xffffffffffffffffffffffffffffffffffffffff\n      and\n      0x8da5cb5b\n        /* \"package/contracts/reverseRegistrar/ReverseRegistrar.sol\":5694:5715  Ownable(addr).owner() */\n      mload(0x40)\n      dup2\n      0xffffffff\n      and\n      0xe0\n      shl\n      dup2\n      mstore\n      0x04\n      add\n      0x20\n      mload(0x40)\n      dup1\n      dup4\n      sub\n      dup2\n      dup7\n      gas\n      staticcall\n      swap3\n      pop\n      pop\n      pop\n      dup1\n      iszero\n      tag_155\n      jumpi\n      pop\n      mload(0x40)\n      returndatasize\n      not(0x1f)\n      0x1f\n      dup3\n      add\n      and\n      dup3\n      add\n      dup1\n      0x40\n      mstore\n      pop\n      dup2\n      add\n      swap1\n      tag_156\n      swap2\n      swap1\n      tag_157\n      jump\t// in\n    tag_156:\n      0x01\n    tag_155:\n        /* \"package/contracts/reverseRegistrar/ReverseRegistrar.sol\":5690:5815  try Ownable(addr).owner() returns (address owner) {... */\n      tag_158\n      jumpi\n        /* \"package/contracts/reverseRegistrar/ReverseRegistrar.sol\":5803:5808  false */\n      0x00\n        /* \"package/contracts/reverseRegistrar/ReverseRegistrar.sol\":5796:5808  return false */\n      swap1\n      pop\n      jump(tag_154)\n        /* \"package/contracts/reverseRegistrar/ReverseRegistrar.sol\":5690:5815  try Ownable(addr).owner() returns (address owner) {... */\n    tag_158:\n        /* \"package/contracts/reverseRegistrar/ReverseRegistrar.sol\":5764:5774  msg.sender */\n      caller\n        /* \"package/contracts/reverseRegistrar/ReverseRegistrar.sol\":5755:5774  owner == msg.sender */\n      0xffffffffffffffffffffffffffffffffffffffff\n      and\n        /* \"package/contracts/reverseRegistrar/ReverseRegistrar.sol\":5755:5760  owner */\n      dup2\n        /* \"package/contracts/reverseRegistrar/ReverseRegistrar.sol\":5755:5774  owner == msg.sender */\n      0xffffffffffffffffffffffffffffffffffffffff\n      and\n      eq\n        /* \"package/contracts/reverseRegistrar/ReverseRegistrar.sol\":5748:5774  return owner == msg.sender */\n      swap2\n      pop\n      pop\n        /* \"package/contracts/reverseRegistrar/ReverseRegistrar.sol\":5619:5819  function ownsContract(address addr) internal view returns (bool) {... */\n    tag_154:\n      swap2\n      swap1\n      pop\n      jump\t// out\n        /* \"package/contracts/reverseRegistrar/ReverseRegistrar.sol\":5215:5615  function sha3HexAddress(address addr) private pure returns (bytes32 ret) {... */\n    tag_100:\n        /* \"package/contracts/reverseRegistrar/ReverseRegistrar.sol\":5275:5286  bytes32 ret */\n      0x00\n        /* \"package/contracts/reverseRegistrar/ReverseRegistrar.sol\":5334:5336  40 */\n      0x28\n        /* \"package/contracts/reverseRegistrar/ReverseRegistrar.sol\":5311:5574  for {... */\n    tag_164:\n        /* \"package/contracts/reverseRegistrar/ReverseRegistrar.sol\":5351:5352  0 */\n      0x00\n        /* \"package/contracts/reverseRegistrar/ReverseRegistrar.sol\":5348:5349  i */\n      dup2\n        /* \"package/contracts/reverseRegistrar/ReverseRegistrar.sol\":5345:5353  gt(i, 0) */\n      gt\n        /* \"package/contracts/reverseRegistrar/ReverseRegistrar.sol\":5311:5574  for {... */\n      iszero\n      tag_166\n      jumpi\n        /* \"package/contracts/reverseRegistrar/ReverseRegistrar.sol\":5379:5380  1 */\n      0x01\n        /* \"package/contracts/reverseRegistrar/ReverseRegistrar.sol\":5376:5377  i */\n      dup2\n        /* \"package/contracts/reverseRegistrar/ReverseRegistrar.sol\":5372:5381  sub(i, 1) */\n      sub\n        /* \"package/contracts/reverseRegistrar/ReverseRegistrar.sol\":5367:5381  i := sub(i, 1) */\n      swap1\n      pop\n        /* \"package/contracts/reverseRegistrar/ReverseRegistrar.sol\":5422:5428  lookup */\n      0x3031323334353637383961626364656600000000000000000000000000000000\n        /* \"package/contracts/reverseRegistrar/ReverseRegistrar.sol\":5416:5419  0xf */\n      0x0f\n        /* \"package/contracts/reverseRegistrar/ReverseRegistrar.sol\":5410:5414  addr */\n      dup5\n        /* \"package/contracts/reverseRegistrar/ReverseRegistrar.sol\":5406:5420  and(addr, 0xf) */\n      and\n        /* \"package/contracts/reverseRegistrar/ReverseRegistrar.sol\":5401:5429  byte(and(addr, 0xf), lookup) */\n      byte\n        /* \"package/contracts/reverseRegistrar/ReverseRegistrar.sol\":5398:5399  i */\n      dup2\n        /* \"package/contracts/reverseRegistrar/ReverseRegistrar.sol\":5390:5430  mstore8(i, byte(and(addr, 0xf), lookup)) */\n      mstore8\n        /* \"package/contracts/reverseRegistrar/ReverseRegistrar.sol\":5457:5461  0x10 */\n      0x10\n        /* \"package/contracts/reverseRegistrar/ReverseRegistrar.sol\":5451:5455  addr */\n      dup4\n        /* \"package/contracts/reverseRegistrar/ReverseRegistrar.sol\":5447:5462  div(addr, 0x10) */\n      div\n        /* \"package/contracts/reverseRegistrar/ReverseRegistrar.sol\":5439:5462  addr := div(addr, 0x10) */\n      swap3\n      pop\n        /* \"package/contracts/reverseRegistrar/ReverseRegistrar.sol\":5483:5484  1 */\n      0x01\n        /* \"package/contracts/reverseRegistrar/ReverseRegistrar.sol\":5480:5481  i */\n      dup2\n        /* \"package/contracts/reverseRegistrar/ReverseRegistrar.sol\":5476:5485  sub(i, 1) */\n      sub\n        /* \"package/contracts/reverseRegistrar/ReverseRegistrar.sol\":5471:5485  i := sub(i, 1) */\n      swap1\n      pop\n        /* \"package/contracts/reverseRegistrar/ReverseRegistrar.sol\":5526:5532  lookup */\n      0x3031323334353637383961626364656600000000000000000000000000000000\n        /* \"package/contracts/reverseRegistrar/ReverseRegistrar.sol\":5520:5523  0xf */\n      0x0f\n        /* \"package/contracts/reverseRegistrar/ReverseRegistrar.sol\":5514:5518  addr */\n      dup5\n        /* \"package/contracts/reverseRegistrar/ReverseRegistrar.sol\":5510:5524  and(addr, 0xf) */\n      and\n        /* \"package/contracts/reverseRegistrar/ReverseRegistrar.sol\":5505:5533  byte(and(addr, 0xf), lookup) */\n      byte\n        /* \"package/contracts/reverseRegistrar/ReverseRegistrar.sol\":5502:5503  i */\n      dup2\n        /* \"package/contracts/reverseRegistrar/ReverseRegistrar.sol\":5494:5534  mstore8(i, byte(and(addr, 0xf), lookup)) */\n      mstore8\n        /* \"package/contracts/reverseRegistrar/ReverseRegistrar.sol\":5561:5565  0x10 */\n      0x10\n        /* \"package/contracts/reverseRegistrar/ReverseRegistrar.sol\":5555:5559  addr */\n      dup4\n        /* \"package/contracts/reverseRegistrar/ReverseRegistrar.sol\":5551:5566  div(addr, 0x10) */\n      div\n        /* \"package/contracts/reverseRegistrar/ReverseRegistrar.sol\":5543:5566  addr := div(addr, 0x10) */\n      swap3\n      pop\n        /* \"package/contracts/reverseRegistrar/ReverseRegistrar.sol\":5311:5574  for {... */\n      jump(tag_164)\n    tag_166:\n        /* \"package/contracts/reverseRegistrar/ReverseRegistrar.sol\":5315:5344  {... */\n      pop\n        /* \"package/contracts/reverseRegistrar/ReverseRegistrar.sol\":5602:5604  40 */\n      0x28\n        /* \"package/contracts/reverseRegistrar/ReverseRegistrar.sol\":5599:5600  0 */\n      0x00\n        /* \"package/contracts/reverseRegistrar/ReverseRegistrar.sol\":5589:5605  keccak256(0, 40) */\n      keccak256\n        /* \"package/contracts/reverseRegistrar/ReverseRegistrar.sol\":5582:5605  ret := keccak256(0, 40) */\n      swap1\n      pop\n        /* \"package/contracts/reverseRegistrar/ReverseRegistrar.sol\":5215:5615  function sha3HexAddress(address addr) private pure returns (bytes32 ret) {... */\n      swap2\n      swap1\n      pop\n      jump\t// out\n        /* \"@openzeppelin/contracts/utils/Context.sol\":586:682  function _msgSender() internal view virtual returns (address) {... */\n    tag_110:\n        /* \"@openzeppelin/contracts/utils/Context.sol\":639:646  address */\n      0x00\n        /* \"@openzeppelin/contracts/utils/Context.sol\":665:675  msg.sender */\n      caller\n        /* \"@openzeppelin/contracts/utils/Context.sol\":658:675  return msg.sender */\n      swap1\n      pop\n        /* \"@openzeppelin/contracts/utils/Context.sol\":586:682  function _msgSender() internal view virtual returns (address) {... */\n      swap1\n      jump\t// out\n        /* \"#utility.yul\":7:82   */\n    tag_168:\n        /* \"#utility.yul\":40:46   */\n      0x00\n        /* \"#utility.yul\":73:75   */\n      0x40\n        /* \"#utility.yul\":67:76   */\n      mload\n        /* \"#utility.yul\":57:76   */\n      swap1\n      pop\n        /* \"#utility.yul\":7:82   */\n      swap1\n      jump\t// out\n        /* \"#utility.yul\":88:205   */\n    tag_169:\n        /* \"#utility.yul\":197:198   */\n      0x00\n        /* \"#utility.yul\":194:195   */\n      dup1\n        /* \"#utility.yul\":187:199   */\n      revert\n        /* \"#utility.yul\":211:328   */\n    tag_170:\n        /* \"#utility.yul\":320:321   */\n      0x00\n        /* \"#utility.yul\":317:318   */\n      dup1\n        /* \"#utility.yul\":310:322   */\n      revert\n        /* \"#utility.yul\":334:460   */\n    tag_171:\n        /* \"#utility.yul\":371:378   */\n      0x00\n        /* \"#utility.yul\":411:453   */\n      0xffffffffffffffffffffffffffffffffffffffff\n        /* \"#utility.yul\":404:409   */\n      dup3\n        /* \"#utility.yul\":400:454   */\n      and\n        /* \"#utility.yul\":389:454   */\n      swap1\n      pop\n        /* \"#utility.yul\":334:460   */\n      swap2\n      swap1\n      pop\n      jump\t// out\n        /* \"#utility.yul\":466:562   */\n    tag_172:\n        /* \"#utility.yul\":503:510   */\n      0x00\n        /* \"#utility.yul\":532:556   */\n      tag_225\n        /* \"#utility.yul\":550:555   */\n      dup3\n        /* \"#utility.yul\":532:556   */\n      tag_171\n      jump\t// in\n    tag_225:\n        /* \"#utility.yul\":521:556   */\n      swap1\n      pop\n        /* \"#utility.yul\":466:562   */\n      swap2\n      swap1\n      pop\n      jump\t// out\n        /* \"#utility.yul\":568:690   */\n    tag_173:\n        /* \"#utility.yul\":641:665   */\n      tag_227\n        /* \"#utility.yul\":659:664   */\n      dup2\n        /* \"#utility.yul\":641:665   */\n      tag_172\n      jump\t// in\n    tag_227:\n        /* \"#utility.yul\":634:639   */\n      dup2\n        /* \"#utility.yul\":631:666   */\n      eq\n        /* \"#utility.yul\":621:684   */\n      tag_228\n      jumpi\n        /* \"#utility.yul\":680:681   */\n      0x00\n        /* \"#utility.yul\":677:678   */\n      dup1\n        /* \"#utility.yul\":670:682   */\n      revert\n        /* \"#utility.yul\":621:684   */\n    tag_228:\n        /* \"#utility.yul\":568:690   */\n      pop\n      jump\t// out\n        /* \"#utility.yul\":696:835   */\n    tag_174:\n        /* \"#utility.yul\":742:747   */\n      0x00\n        /* \"#utility.yul\":780:786   */\n      dup2\n        /* \"#utility.yul\":767:787   */\n      calldataload\n        /* \"#utility.yul\":758:787   */\n      swap1\n      pop\n        /* \"#utility.yul\":796:829   */\n      tag_230\n        /* \"#utility.yul\":823:828   */\n      dup2\n        /* \"#utility.yul\":796:829   */\n      tag_173\n      jump\t// in\n    tag_230:\n        /* \"#utility.yul\":696:835   */\n      swap3\n      swap2\n      pop\n      pop\n      jump\t// out\n        /* \"#utility.yul\":841:1315   */\n    tag_22:\n        /* \"#utility.yul\":909:915   */\n      0x00\n        /* \"#utility.yul\":917:923   */\n      dup1\n        /* \"#utility.yul\":966:968   */\n      0x40\n        /* \"#utility.yul\":954:963   */\n      dup4\n        /* \"#utility.yul\":945:952   */\n      dup6\n        /* \"#utility.yul\":941:964   */\n      sub\n        /* \"#utility.yul\":937:969   */\n      slt\n        /* \"#utility.yul\":934:1053   */\n      iszero\n      tag_232\n      jumpi\n        /* \"#utility.yul\":972:1051   */\n      tag_233\n      tag_169\n      jump\t// in\n    tag_233:\n        /* \"#utility.yul\":934:1053   */\n    tag_232:\n        /* \"#utility.yul\":1092:1093   */\n      0x00\n        /* \"#utility.yul\":1117:1170   */\n      tag_234\n        /* \"#utility.yul\":1162:1169   */\n      dup6\n        /* \"#utility.yul\":1153:1159   */\n      dup3\n        /* \"#utility.yul\":1142:1151   */\n      dup7\n        /* \"#utility.yul\":1138:1160   */\n      add\n        /* \"#utility.yul\":1117:1170   */\n      tag_174\n      jump\t// in\n    tag_234:\n        /* \"#utility.yul\":1107:1170   */\n      swap3\n      pop\n        /* \"#utility.yul\":1063:1180   */\n      pop\n        /* \"#utility.yul\":1219:1221   */\n      0x20\n        /* \"#utility.yul\":1245:1298   */\n      tag_235\n        /* \"#utility.yul\":1290:1297   */\n      dup6\n        /* \"#utility.yul\":1281:1287   */\n      dup3\n        /* \"#utility.yul\":1270:1279   */\n      dup7\n        /* \"#utility.yul\":1266:1288   */\n      add\n        /* \"#utility.yul\":1245:1298   */\n      tag_174\n      jump\t// in\n    tag_235:\n        /* \"#utility.yul\":1235:1298   */\n      swap2\n      pop\n        /* \"#utility.yul\":1190:1308   */\n      pop\n        /* \"#utility.yul\":841:1315   */\n      swap3\n      pop\n      swap3\n      swap1\n      pop\n      jump\t// out\n        /* \"#utility.yul\":1321:1398   */\n    tag_175:\n        /* \"#utility.yul\":1358:1365   */\n      0x00\n        /* \"#utility.yul\":1387:1392   */\n      dup2\n        /* \"#utility.yul\":1376:1392   */\n      swap1\n      pop\n        /* \"#utility.yul\":1321:1398   */\n      swap2\n      swap1\n      pop\n      jump\t// out\n        /* \"#utility.yul\":1404:1522   */\n    tag_176:\n        /* \"#utility.yul\":1491:1515   */\n      tag_238\n        /* \"#utility.yul\":1509:1514   */\n      dup2\n        /* \"#utility.yul\":1491:1515   */\n      tag_175\n      jump\t// in\n    tag_238:\n        /* \"#utility.yul\":1486:1489   */\n      dup3\n        /* \"#utility.yul\":1479:1516   */\n      mstore\n        /* \"#utility.yul\":1404:1522   */\n      pop\n      pop\n      jump\t// out\n        /* \"#utility.yul\":1528:1750   */\n    tag_25:\n        /* \"#utility.yul\":1621:1625   */\n      0x00\n        /* \"#utility.yul\":1659:1661   */\n      0x20\n        /* \"#utility.yul\":1648:1657   */\n      dup3\n        /* \"#utility.yul\":1644:1662   */\n      add\n        /* \"#utility.yul\":1636:1662   */\n      swap1\n      pop\n        /* \"#utility.yul\":1672:1743   */\n      tag_240\n        /* \"#utility.yul\":1740:1741   */\n      0x00\n        /* \"#utility.yul\":1729:1738   */\n      dup4\n        /* \"#utility.yul\":1725:1742   */\n      add\n        /* \"#utility.yul\":1716:1722   */\n      dup5\n        /* \"#utility.yul\":1672:1743   */\n      tag_176\n      jump\t// in\n    tag_240:\n        /* \"#utility.yul\":1528:1750   */\n      swap3\n      swap2\n      pop\n      pop\n      jump\t// out\n        /* \"#utility.yul\":1756:2085   */\n    tag_28:\n        /* \"#utility.yul\":1815:1821   */\n      0x00\n        /* \"#utility.yul\":1864:1866   */\n      0x20\n        /* \"#utility.yul\":1852:1861   */\n      dup3\n        /* \"#utility.yul\":1843:1850   */\n      dup5\n        /* \"#utility.yul\":1839:1862   */\n      sub\n        /* \"#utility.yul\":1835:1867   */\n      slt\n        /* \"#utility.yul\":1832:1951   */\n      iszero\n      tag_242\n      jumpi\n        /* \"#utility.yul\":1870:1949   */\n      tag_243\n      tag_169\n      jump\t// in\n    tag_243:\n        /* \"#utility.yul\":1832:1951   */\n    tag_242:\n        /* \"#utility.yul\":1990:1991   */\n      0x00\n        /* \"#utility.yul\":2015:2068   */\n      tag_244\n        /* \"#utility.yul\":2060:2067   */\n      dup5\n        /* \"#utility.yul\":2051:2057   */\n      dup3\n        /* \"#utility.yul\":2040:2049   */\n      dup6\n        /* \"#utility.yul\":2036:2058   */\n      add\n        /* \"#utility.yul\":2015:2068   */\n      tag_174\n      jump\t// in\n    tag_244:\n        /* \"#utility.yul\":2005:2068   */\n      swap2\n      pop\n        /* \"#utility.yul\":1961:2078   */\n      pop\n        /* \"#utility.yul\":1756:2085   */\n      swap3\n      swap2\n      pop\n      pop\n      jump\t// out\n        /* \"#utility.yul\":2091:2151   */\n    tag_177:\n        /* \"#utility.yul\":2119:2122   */\n      0x00\n        /* \"#utility.yul\":2140:2145   */\n      dup2\n        /* \"#utility.yul\":2133:2145   */\n      swap1\n      pop\n        /* \"#utility.yul\":2091:2151   */\n      swap2\n      swap1\n      pop\n      jump\t// out\n        /* \"#utility.yul\":2157:2299   */\n    tag_178:\n        /* \"#utility.yul\":2207:2216   */\n      0x00\n        /* \"#utility.yul\":2240:2293   */\n      tag_247\n        /* \"#utility.yul\":2258:2292   */\n      tag_248\n        /* \"#utility.yul\":2267:2291   */\n      tag_249\n        /* \"#utility.yul\":2285:2290   */\n      dup5\n        /* \"#utility.yul\":2267:2291   */\n      tag_171\n      jump\t// in\n    tag_249:\n        /* \"#utility.yul\":2258:2292   */\n      tag_177\n      jump\t// in\n    tag_248:\n        /* \"#utility.yul\":2240:2293   */\n      tag_171\n      jump\t// in\n    tag_247:\n        /* \"#utility.yul\":2227:2293   */\n      swap1\n      pop\n        /* \"#utility.yul\":2157:2299   */\n      swap2\n      swap1\n      pop\n      jump\t// out\n        /* \"#utility.yul\":2305:2431   */\n    tag_179:\n        /* \"#utility.yul\":2355:2364   */\n      0x00\n        /* \"#utility.yul\":2388:2425   */\n      tag_251\n        /* \"#utility.yul\":2419:2424   */\n      dup3\n        /* \"#utility.yul\":2388:2425   */\n      tag_178\n      jump\t// in\n    tag_251:\n        /* \"#utility.yul\":2375:2425   */\n      swap1\n      pop\n        /* \"#utility.yul\":2305:2431   */\n      swap2\n      swap1\n      pop\n      jump\t// out\n        /* \"#utility.yul\":2437:2574   */\n    tag_180:\n        /* \"#utility.yul\":2498:2507   */\n      0x00\n        /* \"#utility.yul\":2531:2568   */\n      tag_253\n        /* \"#utility.yul\":2562:2567   */\n      dup3\n        /* \"#utility.yul\":2531:2568   */\n      tag_179\n      jump\t// in\n    tag_253:\n        /* \"#utility.yul\":2518:2568   */\n      swap1\n      pop\n        /* \"#utility.yul\":2437:2574   */\n      swap2\n      swap1\n      pop\n      jump\t// out\n        /* \"#utility.yul\":2580:2733   */\n    tag_181:\n        /* \"#utility.yul\":2678:2726   */\n      tag_255\n        /* \"#utility.yul\":2720:2725   */\n      dup2\n        /* \"#utility.yul\":2678:2726   */\n      tag_180\n      jump\t// in\n    tag_255:\n        /* \"#utility.yul\":2673:2676   */\n      dup3\n        /* \"#utility.yul\":2666:2727   */\n      mstore\n        /* \"#utility.yul\":2580:2733   */\n      pop\n      pop\n      jump\t// out\n        /* \"#utility.yul\":2739:2983   */\n    tag_34:\n        /* \"#utility.yul\":2843:2847   */\n      0x00\n        /* \"#utility.yul\":2881:2883   */\n      0x20\n        /* \"#utility.yul\":2870:2879   */\n      dup3\n        /* \"#utility.yul\":2866:2884   */\n      add\n        /* \"#utility.yul\":2858:2884   */\n      swap1\n      pop\n        /* \"#utility.yul\":2894:2976   */\n      tag_257\n        /* \"#utility.yul\":2973:2974   */\n      0x00\n        /* \"#utility.yul\":2962:2971   */\n      dup4\n        /* \"#utility.yul\":2958:2975   */\n      add\n        /* \"#utility.yul\":2949:2955   */\n      dup5\n        /* \"#utility.yul\":2894:2976   */\n      tag_181\n      jump\t// in\n    tag_257:\n        /* \"#utility.yul\":2739:2983   */\n      swap3\n      swap2\n      pop\n      pop\n      jump\t// out\n        /* \"#utility.yul\":2989:3608   */\n    tag_37:\n        /* \"#utility.yul\":3066:3072   */\n      0x00\n        /* \"#utility.yul\":3074:3080   */\n      dup1\n        /* \"#utility.yul\":3082:3088   */\n      0x00\n        /* \"#utility.yul\":3131:3133   */\n      0x60\n        /* \"#utility.yul\":3119:3128   */\n      dup5\n        /* \"#utility.yul\":3110:3117   */\n      dup7\n        /* \"#utility.yul\":3106:3129   */\n      sub\n        /* \"#utility.yul\":3102:3134   */\n      slt\n        /* \"#utility.yul\":3099:3218   */\n      iszero\n      tag_259\n      jumpi\n        /* \"#utility.yul\":3137:3216   */\n      tag_260\n      tag_169\n      jump\t// in\n    tag_260:\n        /* \"#utility.yul\":3099:3218   */\n    tag_259:\n        /* \"#utility.yul\":3257:3258   */\n      0x00\n        /* \"#utility.yul\":3282:3335   */\n      tag_261\n        /* \"#utility.yul\":3327:3334   */\n      dup7\n        /* \"#utility.yul\":3318:3324   */\n      dup3\n        /* \"#utility.yul\":3307:3316   */\n      dup8\n        /* \"#utility.yul\":3303:3325   */\n      add\n        /* \"#utility.yul\":3282:3335   */\n      tag_174\n      jump\t// in\n    tag_261:\n        /* \"#utility.yul\":3272:3335   */\n      swap4\n      pop\n        /* \"#utility.yul\":3228:3345   */\n      pop\n        /* \"#utility.yul\":3384:3386   */\n      0x20\n        /* \"#utility.yul\":3410:3463   */\n      tag_262\n        /* \"#utility.yul\":3455:3462   */\n      dup7\n        /* \"#utility.yul\":3446:3452   */\n      dup3\n        /* \"#utility.yul\":3435:3444   */\n      dup8\n        /* \"#utility.yul\":3431:3453   */\n      add\n        /* \"#utility.yul\":3410:3463   */\n      tag_174\n      jump\t// in\n    tag_262:\n        /* \"#utility.yul\":3400:3463   */\n      swap3\n      pop\n        /* \"#utility.yul\":3355:3473   */\n      pop\n        /* \"#utility.yul\":3512:3514   */\n      0x40\n        /* \"#utility.yul\":3538:3591   */\n      tag_263\n        /* \"#utility.yul\":3583:3590   */\n      dup7\n        /* \"#utility.yul\":3574:3580   */\n      dup3\n        /* \"#utility.yul\":3563:3572   */\n      dup8\n        /* \"#utility.yul\":3559:3581   */\n      add\n        /* \"#utility.yul\":3538:3591   */\n      tag_174\n      jump\t// in\n    tag_263:\n        /* \"#utility.yul\":3528:3591   */\n      swap2\n      pop\n        /* \"#utility.yul\":3483:3601   */\n      pop\n        /* \"#utility.yul\":2989:3608   */\n      swap3\n      pop\n      swap3\n      pop\n      swap3\n      jump\t// out\n        /* \"#utility.yul\":3614:3731   */\n    tag_182:\n        /* \"#utility.yul\":3723:3724   */\n      0x00\n        /* \"#utility.yul\":3720:3721   */\n      dup1\n        /* \"#utility.yul\":3713:3725   */\n      revert\n        /* \"#utility.yul\":3737:3854   */\n    tag_183:\n        /* \"#utility.yul\":3846:3847   */\n      0x00\n        /* \"#utility.yul\":3843:3844   */\n      dup1\n        /* \"#utility.yul\":3836:3848   */\n      revert\n        /* \"#utility.yul\":3860:3962   */\n    tag_184:\n        /* \"#utility.yul\":3901:3907   */\n      0x00\n        /* \"#utility.yul\":3952:3954   */\n      0x1f\n        /* \"#utility.yul\":3948:3955   */\n      not\n        /* \"#utility.yul\":3943:3945   */\n      0x1f\n        /* \"#utility.yul\":3936:3941   */\n      dup4\n        /* \"#utility.yul\":3932:3946   */\n      add\n        /* \"#utility.yul\":3928:3956   */\n      and\n        /* \"#utility.yul\":3918:3956   */\n      swap1\n      pop\n        /* \"#utility.yul\":3860:3962   */\n      swap2\n      swap1\n      pop\n      jump\t// out\n        /* \"#utility.yul\":3968:4148   */\n    tag_185:\n        /* \"#utility.yul\":4016:4093   */\n      0x4e487b7100000000000000000000000000000000000000000000000000000000\n        /* \"#utility.yul\":4013:4014   */\n      0x00\n        /* \"#utility.yul\":4006:4094   */\n      mstore\n        /* \"#utility.yul\":4113:4117   */\n      0x41\n        /* \"#utility.yul\":4110:4111   */\n      0x04\n        /* \"#utility.yul\":4103:4118   */\n      mstore\n        /* \"#utility.yul\":4137:4141   */\n      0x24\n        /* \"#utility.yul\":4134:4135   */\n      0x00\n        /* \"#utility.yul\":4127:4142   */\n      revert\n        /* \"#utility.yul\":4154:4435   */\n    tag_186:\n        /* \"#utility.yul\":4237:4264   */\n      tag_269\n        /* \"#utility.yul\":4259:4263   */\n      dup3\n        /* \"#utility.yul\":4237:4264   */\n      tag_184\n      jump\t// in\n    tag_269:\n        /* \"#utility.yul\":4229:4235   */\n      dup2\n        /* \"#utility.yul\":4225:4265   */\n      add\n        /* \"#utility.yul\":4367:4373   */\n      dup2\n        /* \"#utility.yul\":4355:4365   */\n      dup2\n        /* \"#utility.yul\":4352:4374   */\n      lt\n        /* \"#utility.yul\":4331:4349   */\n      0xffffffffffffffff\n        /* \"#utility.yul\":4319:4329   */\n      dup3\n        /* \"#utility.yul\":4316:4350   */\n      gt\n        /* \"#utility.yul\":4313:4375   */\n      or\n        /* \"#utility.yul\":4310:4398   */\n      iszero\n      tag_270\n      jumpi\n        /* \"#utility.yul\":4378:4396   */\n      tag_271\n      tag_185\n      jump\t// in\n    tag_271:\n        /* \"#utility.yul\":4310:4398   */\n    tag_270:\n        /* \"#utility.yul\":4418:4428   */\n      dup1\n        /* \"#utility.yul\":4414:4416   */\n      0x40\n        /* \"#utility.yul\":4407:4429   */\n      mstore\n        /* \"#utility.yul\":4197:4435   */\n      pop\n        /* \"#utility.yul\":4154:4435   */\n      pop\n      pop\n      jump\t// out\n        /* \"#utility.yul\":4441:4570   */\n    tag_187:\n        /* \"#utility.yul\":4475:4481   */\n      0x00\n        /* \"#utility.yul\":4502:4522   */\n      tag_273\n      tag_168\n      jump\t// in\n    tag_273:\n        /* \"#utility.yul\":4492:4522   */\n      swap1\n      pop\n        /* \"#utility.yul\":4531:4564   */\n      tag_274\n        /* \"#utility.yul\":4559:4563   */\n      dup3\n        /* \"#utility.yul\":4551:4557   */\n      dup3\n        /* \"#utility.yul\":4531:4564   */\n      tag_186\n      jump\t// in\n    tag_274:\n        /* \"#utility.yul\":4441:4570   */\n      swap2\n      swap1\n      pop\n      jump\t// out\n        /* \"#utility.yul\":4576:4884   */\n    tag_188:\n        /* \"#utility.yul\":4638:4642   */\n      0x00\n        /* \"#utility.yul\":4728:4746   */\n      0xffffffffffffffff\n        /* \"#utility.yul\":4720:4726   */\n      dup3\n        /* \"#utility.yul\":4717:4747   */\n      gt\n        /* \"#utility.yul\":4714:4770   */\n      iszero\n      tag_276\n      jumpi\n        /* \"#utility.yul\":4750:4768   */\n      tag_277\n      tag_185\n      jump\t// in\n    tag_277:\n        /* \"#utility.yul\":4714:4770   */\n    tag_276:\n        /* \"#utility.yul\":4788:4817   */\n      tag_278\n        /* \"#utility.yul\":4810:4816   */\n      dup3\n        /* \"#utility.yul\":4788:4817   */\n      tag_184\n      jump\t// in\n    tag_278:\n        /* \"#utility.yul\":4780:4817   */\n      swap1\n      pop\n        /* \"#utility.yul\":4872:4876   */\n      0x20\n        /* \"#utility.yul\":4866:4870   */\n      dup2\n        /* \"#utility.yul\":4862:4877   */\n      add\n        /* \"#utility.yul\":4854:4877   */\n      swap1\n      pop\n        /* \"#utility.yul\":4576:4884   */\n      swap2\n      swap1\n      pop\n      jump\t// out\n        /* \"#utility.yul\":4890:5038   */\n    tag_189:\n        /* \"#utility.yul\":4988:4994   */\n      dup3\n        /* \"#utility.yul\":4983:4986   */\n      dup2\n        /* \"#utility.yul\":4978:4981   */\n      dup4\n        /* \"#utility.yul\":4965:4995   */\n      calldatacopy\n        /* \"#utility.yul\":5029:5030   */\n      0x00\n        /* \"#utility.yul\":5020:5026   */\n      dup4\n        /* \"#utility.yul\":5015:5018   */\n      dup4\n        /* \"#utility.yul\":5011:5027   */\n      add\n        /* \"#utility.yul\":5004:5031   */\n      mstore\n        /* \"#utility.yul\":4890:5038   */\n      pop\n      pop\n      pop\n      jump\t// out\n        /* \"#utility.yul\":5044:5469   */\n    tag_190:\n        /* \"#utility.yul\":5122:5127   */\n      0x00\n        /* \"#utility.yul\":5147:5213   */\n      tag_281\n        /* \"#utility.yul\":5163:5212   */\n      tag_282\n        /* \"#utility.yul\":5205:5211   */\n      dup5\n        /* \"#utility.yul\":5163:5212   */\n      tag_188\n      jump\t// in\n    tag_282:\n        /* \"#utility.yul\":5147:5213   */\n      tag_187\n      jump\t// in\n    tag_281:\n        /* \"#utility.yul\":5138:5213   */\n      swap1\n      pop\n        /* \"#utility.yul\":5236:5242   */\n      dup3\n        /* \"#utility.yul\":5229:5234   */\n      dup2\n        /* \"#utility.yul\":5222:5243   */\n      mstore\n        /* \"#utility.yul\":5274:5278   */\n      0x20\n        /* \"#utility.yul\":5267:5272   */\n      dup2\n        /* \"#utility.yul\":5263:5279   */\n      add\n        /* \"#utility.yul\":5312:5315   */\n      dup5\n        /* \"#utility.yul\":5303:5309   */\n      dup5\n        /* \"#utility.yul\":5298:5301   */\n      dup5\n        /* \"#utility.yul\":5294:5310   */\n      add\n        /* \"#utility.yul\":5291:5316   */\n      gt\n        /* \"#utility.yul\":5288:5400   */\n      iszero\n      tag_283\n      jumpi\n        /* \"#utility.yul\":5319:5398   */\n      tag_284\n      tag_183\n      jump\t// in\n    tag_284:\n        /* \"#utility.yul\":5288:5400   */\n    tag_283:\n        /* \"#utility.yul\":5409:5463   */\n      tag_285\n        /* \"#utility.yul\":5456:5462   */\n      dup5\n        /* \"#utility.yul\":5451:5454   */\n      dup3\n        /* \"#utility.yul\":5446:5449   */\n      dup6\n        /* \"#utility.yul\":5409:5463   */\n      tag_189\n      jump\t// in\n    tag_285:\n        /* \"#utility.yul\":5128:5469   */\n      pop\n        /* \"#utility.yul\":5044:5469   */\n      swap4\n      swap3\n      pop\n      pop\n      pop\n      jump\t// out\n        /* \"#utility.yul\":5489:5829   */\n    tag_191:\n        /* \"#utility.yul\":5545:5550   */\n      0x00\n        /* \"#utility.yul\":5594:5597   */\n      dup3\n        /* \"#utility.yul\":5587:5591   */\n      0x1f\n        /* \"#utility.yul\":5579:5585   */\n      dup4\n        /* \"#utility.yul\":5575:5592   */\n      add\n        /* \"#utility.yul\":5571:5598   */\n      slt\n        /* \"#utility.yul\":5561:5683   */\n      tag_287\n      jumpi\n        /* \"#utility.yul\":5602:5681   */\n      tag_288\n      tag_182\n      jump\t// in\n    tag_288:\n        /* \"#utility.yul\":5561:5683   */\n    tag_287:\n        /* \"#utility.yul\":5719:5725   */\n      dup2\n        /* \"#utility.yul\":5706:5726   */\n      calldataload\n        /* \"#utility.yul\":5744:5823   */\n      tag_289\n        /* \"#utility.yul\":5819:5822   */\n      dup5\n        /* \"#utility.yul\":5811:5817   */\n      dup3\n        /* \"#utility.yul\":5804:5808   */\n      0x20\n        /* \"#utility.yul\":5796:5802   */\n      dup7\n        /* \"#utility.yul\":5792:5809   */\n      add\n        /* \"#utility.yul\":5744:5823   */\n      tag_190\n      jump\t// in\n    tag_289:\n        /* \"#utility.yul\":5735:5823   */\n      swap2\n      pop\n        /* \"#utility.yul\":5551:5829   */\n      pop\n        /* \"#utility.yul\":5489:5829   */\n      swap3\n      swap2\n      pop\n      pop\n      jump\t// out\n        /* \"#utility.yul\":5835:6780   */\n    tag_44:\n        /* \"#utility.yul\":5931:5937   */\n      0x00\n        /* \"#utility.yul\":5939:5945   */\n      dup1\n        /* \"#utility.yul\":5947:5953   */\n      0x00\n        /* \"#utility.yul\":5955:5961   */\n      dup1\n        /* \"#utility.yul\":6004:6007   */\n      0x80\n        /* \"#utility.yul\":5992:6001   */\n      dup6\n        /* \"#utility.yul\":5983:5990   */\n      dup8\n        /* \"#utility.yul\":5979:6002   */\n      sub\n        /* \"#utility.yul\":5975:6008   */\n      slt\n        /* \"#utility.yul\":5972:6092   */\n      iszero\n      tag_291\n      jumpi\n        /* \"#utility.yul\":6011:6090   */\n      tag_292\n      tag_169\n      jump\t// in\n    tag_292:\n        /* \"#utility.yul\":5972:6092   */\n    tag_291:\n        /* \"#utility.yul\":6131:6132   */\n      0x00\n        /* \"#utility.yul\":6156:6209   */\n      tag_293\n        /* \"#utility.yul\":6201:6208   */\n      dup8\n        /* \"#utility.yul\":6192:6198   */\n      dup3\n        /* \"#utility.yul\":6181:6190   */\n      dup9\n        /* \"#utility.yul\":6177:6199   */\n      add\n        /* \"#utility.yul\":6156:6209   */\n      tag_174\n      jump\t// in\n    tag_293:\n        /* \"#utility.yul\":6146:6209   */\n      swap5\n      pop\n        /* \"#utility.yul\":6102:6219   */\n      pop\n        /* \"#utility.yul\":6258:6260   */\n      0x20\n        /* \"#utility.yul\":6284:6337   */\n      tag_294\n        /* \"#utility.yul\":6329:6336   */\n      dup8\n        /* \"#utility.yul\":6320:6326   */\n      dup3\n        /* \"#utility.yul\":6309:6318   */\n      dup9\n        /* \"#utility.yul\":6305:6327   */\n      add\n        /* \"#utility.yul\":6284:6337   */\n      tag_174\n      jump\t// in\n    tag_294:\n        /* \"#utility.yul\":6274:6337   */\n      swap4\n      pop\n        /* \"#utility.yul\":6229:6347   */\n      pop\n        /* \"#utility.yul\":6386:6388   */\n      0x40\n        /* \"#utility.yul\":6412:6465   */\n      tag_295\n        /* \"#utility.yul\":6457:6464   */\n      dup8\n        /* \"#utility.yul\":6448:6454   */\n      dup3\n        /* \"#utility.yul\":6437:6446   */\n      dup9\n        /* \"#utility.yul\":6433:6455   */\n      add\n        /* \"#utility.yul\":6412:6465   */\n      tag_174\n      jump\t// in\n    tag_295:\n        /* \"#utility.yul\":6402:6465   */\n      swap3\n      pop\n        /* \"#utility.yul\":6357:6475   */\n      pop\n        /* \"#utility.yul\":6542:6544   */\n      0x60\n        /* \"#utility.yul\":6531:6540   */\n      dup6\n        /* \"#utility.yul\":6527:6545   */\n      add\n        /* \"#utility.yul\":6514:6546   */\n      calldataload\n        /* \"#utility.yul\":6573:6591   */\n      0xffffffffffffffff\n        /* \"#utility.yul\":6565:6571   */\n      dup2\n        /* \"#utility.yul\":6562:6592   */\n      gt\n        /* \"#utility.yul\":6559:6676   */\n      iszero\n      tag_296\n      jumpi\n        /* \"#utility.yul\":6595:6674   */\n      tag_297\n      tag_170\n      jump\t// in\n    tag_297:\n        /* \"#utility.yul\":6559:6676   */\n    tag_296:\n        /* \"#utility.yul\":6700:6763   */\n      tag_298\n        /* \"#utility.yul\":6755:6762   */\n      dup8\n        /* \"#utility.yul\":6746:6752   */\n      dup3\n        /* \"#utility.yul\":6735:6744   */\n      dup9\n        /* \"#utility.yul\":6731:6753   */\n      add\n        /* \"#utility.yul\":6700:6763   */\n      tag_191\n      jump\t// in\n    tag_298:\n        /* \"#utility.yul\":6690:6763   */\n      swap2\n      pop\n        /* \"#utility.yul\":6485:6773   */\n      pop\n        /* \"#utility.yul\":5835:6780   */\n      swap3\n      swap6\n      swap2\n      swap5\n      pop\n      swap3\n      pop\n      jump\t// out\n        /* \"#utility.yul\":6786:6932   */\n    tag_192:\n        /* \"#utility.yul\":6856:6865   */\n      0x00\n        /* \"#utility.yul\":6889:6926   */\n      tag_300\n        /* \"#utility.yul\":6920:6925   */\n      dup3\n        /* \"#utility.yul\":6889:6926   */\n      tag_179\n      jump\t// in\n    tag_300:\n        /* \"#utility.yul\":6876:6926   */\n      swap1\n      pop\n        /* \"#utility.yul\":6786:6932   */\n      swap2\n      swap1\n      pop\n      jump\t// out\n        /* \"#utility.yul\":6938:7109   */\n    tag_193:\n        /* \"#utility.yul\":7045:7102   */\n      tag_302\n        /* \"#utility.yul\":7096:7101   */\n      dup2\n        /* \"#utility.yul\":7045:7102   */\n      tag_192\n      jump\t// in\n    tag_302:\n        /* \"#utility.yul\":7040:7043   */\n      dup3\n        /* \"#utility.yul\":7033:7103   */\n      mstore\n        /* \"#utility.yul\":6938:7109   */\n      pop\n      pop\n      jump\t// out\n        /* \"#utility.yul\":7115:7377   */\n    tag_50:\n        /* \"#utility.yul\":7228:7232   */\n      0x00\n        /* \"#utility.yul\":7266:7268   */\n      0x20\n        /* \"#utility.yul\":7255:7264   */\n      dup3\n        /* \"#utility.yul\":7251:7269   */\n      add\n        /* \"#utility.yul\":7243:7269   */\n      swap1\n      pop\n        /* \"#utility.yul\":7279:7370   */\n      tag_304\n        /* \"#utility.yul\":7367:7368   */\n      0x00\n        /* \"#utility.yul\":7356:7365   */\n      dup4\n        /* \"#utility.yul\":7352:7369   */\n      add\n        /* \"#utility.yul\":7343:7349   */\n      dup5\n        /* \"#utility.yul\":7279:7370   */\n      tag_193\n      jump\t// in\n    tag_304:\n        /* \"#utility.yul\":7115:7377   */\n      swap3\n      swap2\n      pop\n      pop\n      jump\t// out\n        /* \"#utility.yul\":7383:7501   */\n    tag_194:\n        /* \"#utility.yul\":7470:7494   */\n      tag_306\n        /* \"#utility.yul\":7488:7493   */\n      dup2\n        /* \"#utility.yul\":7470:7494   */\n      tag_172\n      jump\t// in\n    tag_306:\n        /* \"#utility.yul\":7465:7468   */\n      dup3\n        /* \"#utility.yul\":7458:7495   */\n      mstore\n        /* \"#utility.yul\":7383:7501   */\n      pop\n      pop\n      jump\t// out\n        /* \"#utility.yul\":7507:7729   */\n    tag_54:\n        /* \"#utility.yul\":7600:7604   */\n      0x00\n        /* \"#utility.yul\":7638:7640   */\n      0x20\n        /* \"#utility.yul\":7627:7636   */\n      dup3\n        /* \"#utility.yul\":7623:7641   */\n      add\n        /* \"#utility.yul\":7615:7641   */\n      swap1\n      pop\n        /* \"#utility.yul\":7651:7722   */\n      tag_308\n        /* \"#utility.yul\":7719:7720   */\n      0x00\n        /* \"#utility.yul\":7708:7717   */\n      dup4\n        /* \"#utility.yul\":7704:7721   */\n      add\n        /* \"#utility.yul\":7695:7701   */\n      dup5\n        /* \"#utility.yul\":7651:7722   */\n      tag_194\n      jump\t// in\n    tag_308:\n        /* \"#utility.yul\":7507:7729   */\n      swap3\n      swap2\n      pop\n      pop\n      jump\t// out\n        /* \"#utility.yul\":7735:8244   */\n    tag_61:\n        /* \"#utility.yul\":7804:7810   */\n      0x00\n        /* \"#utility.yul\":7853:7855   */\n      0x20\n        /* \"#utility.yul\":7841:7850   */\n      dup3\n        /* \"#utility.yul\":7832:7839   */\n      dup5\n        /* \"#utility.yul\":7828:7851   */\n      sub\n        /* \"#utility.yul\":7824:7856   */\n      slt\n        /* \"#utility.yul\":7821:7940   */\n      iszero\n      tag_310\n      jumpi\n        /* \"#utility.yul\":7859:7938   */\n      tag_311\n      tag_169\n      jump\t// in\n    tag_311:\n        /* \"#utility.yul\":7821:7940   */\n    tag_310:\n        /* \"#utility.yul\":8007:8008   */\n      0x00\n        /* \"#utility.yul\":7996:8005   */\n      dup3\n        /* \"#utility.yul\":7992:8009   */\n      add\n        /* \"#utility.yul\":7979:8010   */\n      calldataload\n        /* \"#utility.yul\":8037:8055   */\n      0xffffffffffffffff\n        /* \"#utility.yul\":8029:8035   */\n      dup2\n        /* \"#utility.yul\":8026:8056   */\n      gt\n        /* \"#utility.yul\":8023:8140   */\n      iszero\n      tag_312\n      jumpi\n        /* \"#utility.yul\":8059:8138   */\n      tag_313\n      tag_170\n      jump\t// in\n    tag_313:\n        /* \"#utility.yul\":8023:8140   */\n    tag_312:\n        /* \"#utility.yul\":8164:8227   */\n      tag_314\n        /* \"#utility.yul\":8219:8226   */\n      dup5\n        /* \"#utility.yul\":8210:8216   */\n      dup3\n        /* \"#utility.yul\":8199:8208   */\n      dup6\n        /* \"#utility.yul\":8195:8217   */\n      add\n        /* \"#utility.yul\":8164:8227   */\n      tag_191\n      jump\t// in\n    tag_314:\n        /* \"#utility.yul\":8154:8227   */\n      swap2\n      pop\n        /* \"#utility.yul\":7950:8237   */\n      pop\n        /* \"#utility.yul\":7735:8244   */\n      swap3\n      swap2\n      pop\n      pop\n      jump\t// out\n        /* \"#utility.yul\":8250:8340   */\n    tag_195:\n        /* \"#utility.yul\":8284:8291   */\n      0x00\n        /* \"#utility.yul\":8327:8332   */\n      dup2\n        /* \"#utility.yul\":8320:8333   */\n      iszero\n        /* \"#utility.yul\":8313:8334   */\n      iszero\n        /* \"#utility.yul\":8302:8334   */\n      swap1\n      pop\n        /* \"#utility.yul\":8250:8340   */\n      swap2\n      swap1\n      pop\n      jump\t// out\n        /* \"#utility.yul\":8346:8455   */\n    tag_196:\n        /* \"#utility.yul\":8427:8448   */\n      tag_317\n        /* \"#utility.yul\":8442:8447   */\n      dup2\n        /* \"#utility.yul\":8427:8448   */\n      tag_195\n      jump\t// in\n    tag_317:\n        /* \"#utility.yul\":8422:8425   */\n      dup3\n        /* \"#utility.yul\":8415:8449   */\n      mstore\n        /* \"#utility.yul\":8346:8455   */\n      pop\n      pop\n      jump\t// out\n        /* \"#utility.yul\":8461:8671   */\n    tag_71:\n        /* \"#utility.yul\":8548:8552   */\n      0x00\n        /* \"#utility.yul\":8586:8588   */\n      0x20\n        /* \"#utility.yul\":8575:8584   */\n      dup3\n        /* \"#utility.yul\":8571:8589   */\n      add\n        /* \"#utility.yul\":8563:8589   */\n      swap1\n      pop\n        /* \"#utility.yul\":8599:8664   */\n      tag_319\n        /* \"#utility.yul\":8661:8662   */\n      0x00\n        /* \"#utility.yul\":8650:8659   */\n      dup4\n        /* \"#utility.yul\":8646:8663   */\n      add\n        /* \"#utility.yul\":8637:8643   */\n      dup5\n        /* \"#utility.yul\":8599:8664   */\n      tag_196\n      jump\t// in\n    tag_319:\n        /* \"#utility.yul\":8461:8671   */\n      swap3\n      swap2\n      pop\n      pop\n      jump\t// out\n        /* \"#utility.yul\":8677:8793   */\n    tag_197:\n        /* \"#utility.yul\":8747:8768   */\n      tag_321\n        /* \"#utility.yul\":8762:8767   */\n      dup2\n        /* \"#utility.yul\":8747:8768   */\n      tag_195\n      jump\t// in\n    tag_321:\n        /* \"#utility.yul\":8740:8745   */\n      dup2\n        /* \"#utility.yul\":8737:8769   */\n      eq\n        /* \"#utility.yul\":8727:8787   */\n      tag_322\n      jumpi\n        /* \"#utility.yul\":8783:8784   */\n      0x00\n        /* \"#utility.yul\":8780:8781   */\n      dup1\n        /* \"#utility.yul\":8773:8785   */\n      revert\n        /* \"#utility.yul\":8727:8787   */\n    tag_322:\n        /* \"#utility.yul\":8677:8793   */\n      pop\n      jump\t// out\n        /* \"#utility.yul\":8799:8932   */\n    tag_198:\n        /* \"#utility.yul\":8842:8847   */\n      0x00\n        /* \"#utility.yul\":8880:8886   */\n      dup2\n        /* \"#utility.yul\":8867:8887   */\n      calldataload\n        /* \"#utility.yul\":8858:8887   */\n      swap1\n      pop\n        /* \"#utility.yul\":8896:8926   */\n      tag_324\n        /* \"#utility.yul\":8920:8925   */\n      dup2\n        /* \"#utility.yul\":8896:8926   */\n      tag_197\n      jump\t// in\n    tag_324:\n        /* \"#utility.yul\":8799:8932   */\n      swap3\n      swap2\n      pop\n      pop\n      jump\t// out\n        /* \"#utility.yul\":8938:9406   */\n    tag_74:\n        /* \"#utility.yul\":9003:9009   */\n      0x00\n        /* \"#utility.yul\":9011:9017   */\n      dup1\n        /* \"#utility.yul\":9060:9062   */\n      0x40\n        /* \"#utility.yul\":9048:9057   */\n      dup4\n        /* \"#utility.yul\":9039:9046   */\n      dup6\n        /* \"#utility.yul\":9035:9058   */\n      sub\n        /* \"#utility.yul\":9031:9063   */\n      slt\n        /* \"#utility.yul\":9028:9147   */\n      iszero\n      tag_326\n      jumpi\n        /* \"#utility.yul\":9066:9145   */\n      tag_327\n      tag_169\n      jump\t// in\n    tag_327:\n        /* \"#utility.yul\":9028:9147   */\n    tag_326:\n        /* \"#utility.yul\":9186:9187   */\n      0x00\n        /* \"#utility.yul\":9211:9264   */\n      tag_328\n        /* \"#utility.yul\":9256:9263   */\n      dup6\n        /* \"#utility.yul\":9247:9253   */\n      dup3\n        /* \"#utility.yul\":9236:9245   */\n      dup7\n        /* \"#utility.yul\":9232:9254   */\n      add\n        /* \"#utility.yul\":9211:9264   */\n      tag_174\n      jump\t// in\n    tag_328:\n        /* \"#utility.yul\":9201:9264   */\n      swap3\n      pop\n        /* \"#utility.yul\":9157:9274   */\n      pop\n        /* \"#utility.yul\":9313:9315   */\n      0x20\n        /* \"#utility.yul\":9339:9389   */\n      tag_329\n        /* \"#utility.yul\":9381:9388   */\n      dup6\n        /* \"#utility.yul\":9372:9378   */\n      dup3\n        /* \"#utility.yul\":9361:9370   */\n      dup7\n        /* \"#utility.yul\":9357:9379   */\n      add\n        /* \"#utility.yul\":9339:9389   */\n      tag_198\n      jump\t// in\n    tag_329:\n        /* \"#utility.yul\":9329:9389   */\n      swap2\n      pop\n        /* \"#utility.yul\":9284:9399   */\n      pop\n        /* \"#utility.yul\":8938:9406   */\n      swap3\n      pop\n      swap3\n      swap1\n      pop\n      jump\t// out\n        /* \"#utility.yul\":9412:9744   */\n    tag_87:\n        /* \"#utility.yul\":9533:9537   */\n      0x00\n        /* \"#utility.yul\":9571:9573   */\n      0x40\n        /* \"#utility.yul\":9560:9569   */\n      dup3\n        /* \"#utility.yul\":9556:9574   */\n      add\n        /* \"#utility.yul\":9548:9574   */\n      swap1\n      pop\n        /* \"#utility.yul\":9584:9655   */\n      tag_331\n        /* \"#utility.yul\":9652:9653   */\n      0x00\n        /* \"#utility.yul\":9641:9650   */\n      dup4\n        /* \"#utility.yul\":9637:9654   */\n      add\n        /* \"#utility.yul\":9628:9634   */\n      dup6\n        /* \"#utility.yul\":9584:9655   */\n      tag_194\n      jump\t// in\n    tag_331:\n        /* \"#utility.yul\":9665:9737   */\n      tag_332\n        /* \"#utility.yul\":9733:9735   */\n      0x20\n        /* \"#utility.yul\":9722:9731   */\n      dup4\n        /* \"#utility.yul\":9718:9736   */\n      add\n        /* \"#utility.yul\":9709:9715   */\n      dup5\n        /* \"#utility.yul\":9665:9737   */\n      tag_194\n      jump\t// in\n    tag_332:\n        /* \"#utility.yul\":9412:9744   */\n      swap4\n      swap3\n      pop\n      pop\n      pop\n      jump\t// out\n        /* \"#utility.yul\":9750:9887   */\n    tag_199:\n        /* \"#utility.yul\":9804:9809   */\n      0x00\n        /* \"#utility.yul\":9835:9841   */\n      dup2\n        /* \"#utility.yul\":9829:9842   */\n      mload\n        /* \"#utility.yul\":9820:9842   */\n      swap1\n      pop\n        /* \"#utility.yul\":9851:9881   */\n      tag_334\n        /* \"#utility.yul\":9875:9880   */\n      dup2\n        /* \"#utility.yul\":9851:9881   */\n      tag_197\n      jump\t// in\n    tag_334:\n        /* \"#utility.yul\":9750:9887   */\n      swap3\n      swap2\n      pop\n      pop\n      jump\t// out\n        /* \"#utility.yul\":9893:10238   */\n    tag_91:\n        /* \"#utility.yul\":9960:9966   */\n      0x00\n        /* \"#utility.yul\":10009:10011   */\n      0x20\n        /* \"#utility.yul\":9997:10006   */\n      dup3\n        /* \"#utility.yul\":9988:9995   */\n      dup5\n        /* \"#utility.yul\":9984:10007   */\n      sub\n        /* \"#utility.yul\":9980:10012   */\n      slt\n        /* \"#utility.yul\":9977:10096   */\n      iszero\n      tag_336\n      jumpi\n        /* \"#utility.yul\":10015:10094   */\n      tag_337\n      tag_169\n      jump\t// in\n    tag_337:\n        /* \"#utility.yul\":9977:10096   */\n    tag_336:\n        /* \"#utility.yul\":10135:10136   */\n      0x00\n        /* \"#utility.yul\":10160:10221   */\n      tag_338\n        /* \"#utility.yul\":10213:10220   */\n      dup5\n        /* \"#utility.yul\":10204:10210   */\n      dup3\n        /* \"#utility.yul\":10193:10202   */\n      dup6\n        /* \"#utility.yul\":10189:10211   */\n      add\n        /* \"#utility.yul\":10160:10221   */\n      tag_199\n      jump\t// in\n    tag_338:\n        /* \"#utility.yul\":10150:10221   */\n      swap2\n      pop\n        /* \"#utility.yul\":10106:10231   */\n      pop\n        /* \"#utility.yul\":9893:10238   */\n      swap3\n      swap2\n      pop\n      pop\n      jump\t// out\n        /* \"#utility.yul\":10244:10413   */\n    tag_200:\n        /* \"#utility.yul\":10328:10339   */\n      0x00\n        /* \"#utility.yul\":10362:10368   */\n      dup3\n        /* \"#utility.yul\":10357:10360   */\n      dup3\n        /* \"#utility.yul\":10350:10369   */\n      mstore\n        /* \"#utility.yul\":10402:10406   */\n      0x20\n        /* \"#utility.yul\":10397:10400   */\n      dup3\n        /* \"#utility.yul\":10393:10407   */\n      add\n        /* \"#utility.yul\":10378:10407   */\n      swap1\n      pop\n        /* \"#utility.yul\":10244:10413   */\n      swap3\n      swap2\n      pop\n      pop\n      jump\t// out\n        /* \"#utility.yul\":10419:10734   */\n    tag_201:\n        /* \"#utility.yul\":10559:10593   */\n      0x526576657273655265676973747261723a2043616c6c6572206973206e6f7420\n        /* \"#utility.yul\":10555:10556   */\n      0x00\n        /* \"#utility.yul\":10547:10553   */\n      dup3\n        /* \"#utility.yul\":10543:10557   */\n      add\n        /* \"#utility.yul\":10536:10594   */\n      mstore\n        /* \"#utility.yul\":10628:10662   */\n      0x6120636f6e74726f6c6c6572206f7220617574686f7269736564206279206164\n        /* \"#utility.yul\":10623:10625   */\n      0x20\n        /* \"#utility.yul\":10615:10621   */\n      dup3\n        /* \"#utility.yul\":10611:10626   */\n      add\n        /* \"#utility.yul\":10604:10663   */\n      mstore\n        /* \"#utility.yul\":10697:10726   */\n      0x6472657373206f7220746865206164647265737320697473656c660000000000\n        /* \"#utility.yul\":10692:10694   */\n      0x40\n        /* \"#utility.yul\":10684:10690   */\n      dup3\n        /* \"#utility.yul\":10680:10695   */\n      add\n        /* \"#utility.yul\":10673:10727   */\n      mstore\n        /* \"#utility.yul\":10419:10734   */\n      pop\n      jump\t// out\n        /* \"#utility.yul\":10740:11106   */\n    tag_202:\n        /* \"#utility.yul\":10882:10885   */\n      0x00\n        /* \"#utility.yul\":10903:10970   */\n      tag_342\n        /* \"#utility.yul\":10967:10969   */\n      0x5b\n        /* \"#utility.yul\":10962:10965   */\n      dup4\n        /* \"#utility.yul\":10903:10970   */\n      tag_200\n      jump\t// in\n    tag_342:\n        /* \"#utility.yul\":10896:10970   */\n      swap2\n      pop\n        /* \"#utility.yul\":10979:11072   */\n      tag_343\n        /* \"#utility.yul\":11068:11071   */\n      dup3\n        /* \"#utility.yul\":10979:11072   */\n      tag_201\n      jump\t// in\n    tag_343:\n        /* \"#utility.yul\":11097:11099   */\n      0x60\n        /* \"#utility.yul\":11092:11095   */\n      dup3\n        /* \"#utility.yul\":11088:11100   */\n      add\n        /* \"#utility.yul\":11081:11100   */\n      swap1\n      pop\n        /* \"#utility.yul\":10740:11106   */\n      swap2\n      swap1\n      pop\n      jump\t// out\n        /* \"#utility.yul\":11112:11531   */\n    tag_97:\n        /* \"#utility.yul\":11278:11282   */\n      0x00\n        /* \"#utility.yul\":11316:11318   */\n      0x20\n        /* \"#utility.yul\":11305:11314   */\n      dup3\n        /* \"#utility.yul\":11301:11319   */\n      add\n        /* \"#utility.yul\":11293:11319   */\n      swap1\n      pop\n        /* \"#utility.yul\":11365:11374   */\n      dup2\n        /* \"#utility.yul\":11359:11363   */\n      dup2\n        /* \"#utility.yul\":11355:11375   */\n      sub\n        /* \"#utility.yul\":11351:11352   */\n      0x00\n        /* \"#utility.yul\":11340:11349   */\n      dup4\n        /* \"#utility.yul\":11336:11353   */\n      add\n        /* \"#utility.yul\":11329:11376   */\n      mstore\n        /* \"#utility.yul\":11393:11524   */\n      tag_345\n        /* \"#utility.yul\":11519:11523   */\n      dup2\n        /* \"#utility.yul\":11393:11524   */\n      tag_202\n      jump\t// in\n    tag_345:\n        /* \"#utility.yul\":11385:11524   */\n      swap1\n      pop\n        /* \"#utility.yul\":11112:11531   */\n      swap2\n      swap1\n      pop\n      jump\t// out\n        /* \"#utility.yul\":11537:11616   */\n    tag_203:\n        /* \"#utility.yul\":11576:11583   */\n      0x00\n        /* \"#utility.yul\":11605:11610   */\n      dup2\n        /* \"#utility.yul\":11594:11610   */\n      swap1\n      pop\n        /* \"#utility.yul\":11537:11616   */\n      swap2\n      swap1\n      pop\n      jump\t// out\n        /* \"#utility.yul\":11622:11779   */\n    tag_204:\n        /* \"#utility.yul\":11727:11772   */\n      tag_348\n        /* \"#utility.yul\":11747:11771   */\n      tag_349\n        /* \"#utility.yul\":11765:11770   */\n      dup3\n        /* \"#utility.yul\":11747:11771   */\n      tag_175\n      jump\t// in\n    tag_349:\n        /* \"#utility.yul\":11727:11772   */\n      tag_203\n      jump\t// in\n    tag_348:\n        /* \"#utility.yul\":11722:11725   */\n      dup3\n        /* \"#utility.yul\":11715:11773   */\n      mstore\n        /* \"#utility.yul\":11622:11779   */\n      pop\n      pop\n      jump\t// out\n        /* \"#utility.yul\":11785:12182   */\n    tag_102:\n        /* \"#utility.yul\":11925:11928   */\n      0x00\n        /* \"#utility.yul\":11940:12015   */\n      tag_351\n        /* \"#utility.yul\":12011:12014   */\n      dup3\n        /* \"#utility.yul\":12002:12008   */\n      dup6\n        /* \"#utility.yul\":11940:12015   */\n      tag_204\n      jump\t// in\n    tag_351:\n        /* \"#utility.yul\":12040:12042   */\n      0x20\n        /* \"#utility.yul\":12035:12038   */\n      dup3\n        /* \"#utility.yul\":12031:12043   */\n      add\n        /* \"#utility.yul\":12024:12043   */\n      swap2\n      pop\n        /* \"#utility.yul\":12053:12128   */\n      tag_352\n        /* \"#utility.yul\":12124:12127   */\n      dup3\n        /* \"#utility.yul\":12115:12121   */\n      dup5\n        /* \"#utility.yul\":12053:12128   */\n      tag_204\n      jump\t// in\n    tag_352:\n        /* \"#utility.yul\":12153:12155   */\n      0x20\n        /* \"#utility.yul\":12148:12151   */\n      dup3\n        /* \"#utility.yul\":12144:12156   */\n      add\n        /* \"#utility.yul\":12137:12156   */\n      swap2\n      pop\n        /* \"#utility.yul\":12173:12176   */\n      dup2\n        /* \"#utility.yul\":12166:12176   */\n      swap1\n      pop\n        /* \"#utility.yul\":11785:12182   */\n      swap4\n      swap3\n      pop\n      pop\n      pop\n      jump\t// out\n        /* \"#utility.yul\":12188:12273   */\n    tag_205:\n        /* \"#utility.yul\":12233:12240   */\n      0x00\n        /* \"#utility.yul\":12262:12267   */\n      dup2\n        /* \"#utility.yul\":12251:12267   */\n      swap1\n      pop\n        /* \"#utility.yul\":12188:12273   */\n      swap2\n      swap1\n      pop\n      jump\t// out\n        /* \"#utility.yul\":12279:12380   */\n    tag_206:\n        /* \"#utility.yul\":12315:12322   */\n      0x00\n        /* \"#utility.yul\":12355:12373   */\n      0xffffffffffffffff\n        /* \"#utility.yul\":12348:12353   */\n      dup3\n        /* \"#utility.yul\":12344:12374   */\n      and\n        /* \"#utility.yul\":12333:12374   */\n      swap1\n      pop\n        /* \"#utility.yul\":12279:12380   */\n      swap2\n      swap1\n      pop\n      jump\t// out\n        /* \"#utility.yul\":12386:12542   */\n    tag_207:\n        /* \"#utility.yul\":12443:12452   */\n      0x00\n        /* \"#utility.yul\":12476:12536   */\n      tag_356\n        /* \"#utility.yul\":12493:12535   */\n      tag_357\n        /* \"#utility.yul\":12502:12534   */\n      tag_358\n        /* \"#utility.yul\":12528:12533   */\n      dup5\n        /* \"#utility.yul\":12502:12534   */\n      tag_205\n      jump\t// in\n    tag_358:\n        /* \"#utility.yul\":12493:12535   */\n      tag_177\n      jump\t// in\n    tag_357:\n        /* \"#utility.yul\":12476:12536   */\n      tag_206\n      jump\t// in\n    tag_356:\n        /* \"#utility.yul\":12463:12536   */\n      swap1\n      pop\n        /* \"#utility.yul\":12386:12542   */\n      swap2\n      swap1\n      pop\n      jump\t// out\n        /* \"#utility.yul\":12548:12693   */\n    tag_208:\n        /* \"#utility.yul\":12642:12686   */\n      tag_360\n        /* \"#utility.yul\":12680:12685   */\n      dup2\n        /* \"#utility.yul\":12642:12686   */\n      tag_207\n      jump\t// in\n    tag_360:\n        /* \"#utility.yul\":12637:12640   */\n      dup3\n        /* \"#utility.yul\":12630:12687   */\n      mstore\n        /* \"#utility.yul\":12548:12693   */\n      pop\n      pop\n      jump\t// out\n        /* \"#utility.yul\":12699:13377   */\n    tag_104:\n        /* \"#utility.yul\":12911:12915   */\n      0x00\n        /* \"#utility.yul\":12949:12952   */\n      0xa0\n        /* \"#utility.yul\":12938:12947   */\n      dup3\n        /* \"#utility.yul\":12934:12953   */\n      add\n        /* \"#utility.yul\":12926:12953   */\n      swap1\n      pop\n        /* \"#utility.yul\":12963:13034   */\n      tag_362\n        /* \"#utility.yul\":13031:13032   */\n      0x00\n        /* \"#utility.yul\":13020:13029   */\n      dup4\n        /* \"#utility.yul\":13016:13033   */\n      add\n        /* \"#utility.yul\":13007:13013   */\n      dup9\n        /* \"#utility.yul\":12963:13034   */\n      tag_176\n      jump\t// in\n    tag_362:\n        /* \"#utility.yul\":13044:13116   */\n      tag_363\n        /* \"#utility.yul\":13112:13114   */\n      0x20\n        /* \"#utility.yul\":13101:13110   */\n      dup4\n        /* \"#utility.yul\":13097:13115   */\n      add\n        /* \"#utility.yul\":13088:13094   */\n      dup8\n        /* \"#utility.yul\":13044:13116   */\n      tag_176\n      jump\t// in\n    tag_363:\n        /* \"#utility.yul\":13126:13198   */\n      tag_364\n        /* \"#utility.yul\":13194:13196   */\n      0x40\n        /* \"#utility.yul\":13183:13192   */\n      dup4\n        /* \"#utility.yul\":13179:13197   */\n      add\n        /* \"#utility.yul\":13170:13176   */\n      dup7\n        /* \"#utility.yul\":13126:13198   */\n      tag_194\n      jump\t// in\n    tag_364:\n        /* \"#utility.yul\":13208:13280   */\n      tag_365\n        /* \"#utility.yul\":13276:13278   */\n      0x60\n        /* \"#utility.yul\":13265:13274   */\n      dup4\n        /* \"#utility.yul\":13261:13279   */\n      add\n        /* \"#utility.yul\":13252:13258   */\n      dup6\n        /* \"#utility.yul\":13208:13280   */\n      tag_194\n      jump\t// in\n    tag_365:\n        /* \"#utility.yul\":13290:13370   */\n      tag_366\n        /* \"#utility.yul\":13365:13368   */\n      0x80\n        /* \"#utility.yul\":13354:13363   */\n      dup4\n        /* \"#utility.yul\":13350:13369   */\n      add\n        /* \"#utility.yul\":13341:13347   */\n      dup5\n        /* \"#utility.yul\":13290:13370   */\n      tag_208\n      jump\t// in\n    tag_366:\n        /* \"#utility.yul\":12699:13377   */\n      swap7\n      swap6\n      pop\n      pop\n      pop\n      pop\n      pop\n      pop\n      jump\t// out\n        /* \"#utility.yul\":13383:13565   */\n    tag_209:\n        /* \"#utility.yul\":13523:13557   */\n      0x4f776e61626c653a2063616c6c6572206973206e6f7420746865206f776e6572\n        /* \"#utility.yul\":13519:13520   */\n      0x00\n        /* \"#utility.yul\":13511:13517   */\n      dup3\n        /* \"#utility.yul\":13507:13521   */\n      add\n        /* \"#utility.yul\":13500:13558   */\n      mstore\n        /* \"#utility.yul\":13383:13565   */\n      pop\n      jump\t// out\n        /* \"#utility.yul\":13571:13937   */\n    tag_210:\n        /* \"#utility.yul\":13713:13716   */\n      0x00\n        /* \"#utility.yul\":13734:13801   */\n      tag_369\n        /* \"#utility.yul\":13798:13800   */\n      0x20\n        /* \"#utility.yul\":13793:13796   */\n      dup4\n        /* \"#utility.yul\":13734:13801   */\n      tag_200\n      jump\t// in\n    tag_369:\n        /* \"#utility.yul\":13727:13801   */\n      swap2\n      pop\n        /* \"#utility.yul\":13810:13903   */\n      tag_370\n        /* \"#utility.yul\":13899:13902   */\n      dup3\n        /* \"#utility.yul\":13810:13903   */\n      tag_209\n      jump\t// in\n    tag_370:\n        /* \"#utility.yul\":13928:13930   */\n      0x20\n        /* \"#utility.yul\":13923:13926   */\n      dup3\n        /* \"#utility.yul\":13919:13931   */\n      add\n        /* \"#utility.yul\":13912:13931   */\n      swap1\n      pop\n        /* \"#utility.yul\":13571:13937   */\n      swap2\n      swap1\n      pop\n      jump\t// out\n        /* \"#utility.yul\":13943:14362   */\n    tag_114:\n        /* \"#utility.yul\":14109:14113   */\n      0x00\n        /* \"#utility.yul\":14147:14149   */\n      0x20\n        /* \"#utility.yul\":14136:14145   */\n      dup3\n        /* \"#utility.yul\":14132:14150   */\n      add\n        /* \"#utility.yul\":14124:14150   */\n      swap1\n      pop\n        /* \"#utility.yul\":14196:14205   */\n      dup2\n        /* \"#utility.yul\":14190:14194   */\n      dup2\n        /* \"#utility.yul\":14186:14206   */\n      sub\n        /* \"#utility.yul\":14182:14183   */\n      0x00\n        /* \"#utility.yul\":14171:14180   */\n      dup4\n        /* \"#utility.yul\":14167:14184   */\n      add\n        /* \"#utility.yul\":14160:14207   */\n      mstore\n        /* \"#utility.yul\":14224:14355   */\n      tag_372\n        /* \"#utility.yul\":14350:14354   */\n      dup2\n        /* \"#utility.yul\":14224:14355   */\n      tag_210\n      jump\t// in\n    tag_372:\n        /* \"#utility.yul\":14216:14355   */\n      swap1\n      pop\n        /* \"#utility.yul\":13943:14362   */\n      swap2\n      swap1\n      pop\n      jump\t// out\n        /* \"#utility.yul\":14368:14467   */\n    tag_211:\n        /* \"#utility.yul\":14420:14426   */\n      0x00\n        /* \"#utility.yul\":14454:14459   */\n      dup2\n        /* \"#utility.yul\":14448:14460   */\n      mload\n        /* \"#utility.yul\":14438:14460   */\n      swap1\n      pop\n        /* \"#utility.yul\":14368:14467   */\n      swap2\n      swap1\n      pop\n      jump\t// out\n        /* \"#utility.yul\":14473:14721   */\n    tag_212:\n        /* \"#utility.yul\":14555:14556   */\n      0x00\n        /* \"#utility.yul\":14565:14678   */\n    tag_375:\n        /* \"#utility.yul\":14579:14585   */\n      dup4\n        /* \"#utility.yul\":14576:14577   */\n      dup2\n        /* \"#utility.yul\":14573:14586   */\n      lt\n        /* \"#utility.yul\":14565:14678   */\n      iszero\n      tag_377\n      jumpi\n        /* \"#utility.yul\":14664:14665   */\n      dup1\n        /* \"#utility.yul\":14659:14662   */\n      dup3\n        /* \"#utility.yul\":14655:14666   */\n      add\n        /* \"#utility.yul\":14649:14667   */\n      mload\n        /* \"#utility.yul\":14645:14646   */\n      dup2\n        /* \"#utility.yul\":14640:14643   */\n      dup5\n        /* \"#utility.yul\":14636:14647   */\n      add\n        /* \"#utility.yul\":14629:14668   */\n      mstore\n        /* \"#utility.yul\":14601:14603   */\n      0x20\n        /* \"#utility.yul\":14598:14599   */\n      dup2\n        /* \"#utility.yul\":14594:14604   */\n      add\n        /* \"#utility.yul\":14589:14604   */\n      swap1\n      pop\n        /* \"#utility.yul\":14565:14678   */\n      jump(tag_375)\n    tag_377:\n        /* \"#utility.yul\":14712:14713   */\n      0x00\n        /* \"#utility.yul\":14703:14709   */\n      dup5\n        /* \"#utility.yul\":14698:14701   */\n      dup5\n        /* \"#utility.yul\":14694:14710   */\n      add\n        /* \"#utility.yul\":14687:14714   */\n      mstore\n        /* \"#utility.yul\":14535:14721   */\n      pop\n        /* \"#utility.yul\":14473:14721   */\n      pop\n      pop\n      pop\n      jump\t// out\n        /* \"#utility.yul\":14727:15104   */\n    tag_213:\n        /* \"#utility.yul\":14815:14818   */\n      0x00\n        /* \"#utility.yul\":14843:14882   */\n      tag_379\n        /* \"#utility.yul\":14876:14881   */\n      dup3\n        /* \"#utility.yul\":14843:14882   */\n      tag_211\n      jump\t// in\n    tag_379:\n        /* \"#utility.yul\":14898:14969   */\n      tag_380\n        /* \"#utility.yul\":14962:14968   */\n      dup2\n        /* \"#utility.yul\":14957:14960   */\n      dup6\n        /* \"#utility.yul\":14898:14969   */\n      tag_200\n      jump\t// in\n    tag_380:\n        /* \"#utility.yul\":14891:14969   */\n      swap4\n      pop\n        /* \"#utility.yul\":14978:15043   */\n      tag_381\n        /* \"#utility.yul\":15036:15042   */\n      dup2\n        /* \"#utility.yul\":15031:15034   */\n      dup6\n        /* \"#utility.yul\":15024:15028   */\n      0x20\n        /* \"#utility.yul\":15017:15022   */\n      dup7\n        /* \"#utility.yul\":15013:15029   */\n      add\n        /* \"#utility.yul\":14978:15043   */\n      tag_212\n      jump\t// in\n    tag_381:\n        /* \"#utility.yul\":15068:15097   */\n      tag_382\n        /* \"#utility.yul\":15090:15096   */\n      dup2\n        /* \"#utility.yul\":15068:15097   */\n      tag_184\n      jump\t// in\n    tag_382:\n        /* \"#utility.yul\":15063:15066   */\n      dup5\n        /* \"#utility.yul\":15059:15098   */\n      add\n        /* \"#utility.yul\":15052:15098   */\n      swap2\n      pop\n        /* \"#utility.yul\":14819:15104   */\n      pop\n        /* \"#utility.yul\":14727:15104   */\n      swap3\n      swap2\n      pop\n      pop\n      jump\t// out\n        /* \"#utility.yul\":15110:15533   */\n    tag_119:\n        /* \"#utility.yul\":15251:15255   */\n      0x00\n        /* \"#utility.yul\":15289:15291   */\n      0x40\n        /* \"#utility.yul\":15278:15287   */\n      dup3\n        /* \"#utility.yul\":15274:15292   */\n      add\n        /* \"#utility.yul\":15266:15292   */\n      swap1\n      pop\n        /* \"#utility.yul\":15302:15373   */\n      tag_384\n        /* \"#utility.yul\":15370:15371   */\n      0x00\n        /* \"#utility.yul\":15359:15368   */\n      dup4\n        /* \"#utility.yul\":15355:15372   */\n      add\n        /* \"#utility.yul\":15346:15352   */\n      dup6\n        /* \"#utility.yul\":15302:15373   */\n      tag_176\n      jump\t// in\n    tag_384:\n        /* \"#utility.yul\":15420:15429   */\n      dup2\n        /* \"#utility.yul\":15414:15418   */\n      dup2\n        /* \"#utility.yul\":15410:15430   */\n      sub\n        /* \"#utility.yul\":15405:15407   */\n      0x20\n        /* \"#utility.yul\":15394:15403   */\n      dup4\n        /* \"#utility.yul\":15390:15408   */\n      add\n        /* \"#utility.yul\":15383:15431   */\n      mstore\n        /* \"#utility.yul\":15448:15526   */\n      tag_385\n        /* \"#utility.yul\":15521:15525   */\n      dup2\n        /* \"#utility.yul\":15512:15518   */\n      dup5\n        /* \"#utility.yul\":15448:15526   */\n      tag_213\n      jump\t// in\n    tag_385:\n        /* \"#utility.yul\":15440:15526   */\n      swap1\n      pop\n        /* \"#utility.yul\":15110:15533   */\n      swap4\n      swap3\n      pop\n      pop\n      pop\n      jump\t// out\n        /* \"#utility.yul\":15539:15774   */\n    tag_214:\n        /* \"#utility.yul\":15679:15713   */\n      0x526576657273655265676973747261723a205265736f6c766572206164647265\n        /* \"#utility.yul\":15675:15676   */\n      0x00\n        /* \"#utility.yul\":15667:15673   */\n      dup3\n        /* \"#utility.yul\":15663:15677   */\n      add\n        /* \"#utility.yul\":15656:15714   */\n      mstore\n        /* \"#utility.yul\":15748:15766   */\n      0x7373206d757374206e6f74206265203000000000000000000000000000000000\n        /* \"#utility.yul\":15743:15745   */\n      0x20\n        /* \"#utility.yul\":15735:15741   */\n      dup3\n        /* \"#utility.yul\":15731:15746   */\n      add\n        /* \"#utility.yul\":15724:15767   */\n      mstore\n        /* \"#utility.yul\":15539:15774   */\n      pop\n      jump\t// out\n        /* \"#utility.yul\":15780:16146   */\n    tag_215:\n        /* \"#utility.yul\":15922:15925   */\n      0x00\n        /* \"#utility.yul\":15943:16010   */\n      tag_388\n        /* \"#utility.yul\":16007:16009   */\n      0x30\n        /* \"#utility.yul\":16002:16005   */\n      dup4\n        /* \"#utility.yul\":15943:16010   */\n      tag_200\n      jump\t// in\n    tag_388:\n        /* \"#utility.yul\":15936:16010   */\n      swap2\n      pop\n        /* \"#utility.yul\":16019:16112   */\n      tag_389\n        /* \"#utility.yul\":16108:16111   */\n      dup3\n        /* \"#utility.yul\":16019:16112   */\n      tag_214\n      jump\t// in\n    tag_389:\n        /* \"#utility.yul\":16137:16139   */\n      0x40\n        /* \"#utility.yul\":16132:16135   */\n      dup3\n        /* \"#utility.yul\":16128:16140   */\n      add\n        /* \"#utility.yul\":16121:16140   */\n      swap1\n      pop\n        /* \"#utility.yul\":15780:16146   */\n      swap2\n      swap1\n      pop\n      jump\t// out\n        /* \"#utility.yul\":16152:16571   */\n    tag_137:\n        /* \"#utility.yul\":16318:16322   */\n      0x00\n        /* \"#utility.yul\":16356:16358   */\n      0x20\n        /* \"#utility.yul\":16345:16354   */\n      dup3\n        /* \"#utility.yul\":16341:16359   */\n      add\n        /* \"#utility.yul\":16333:16359   */\n      swap1\n      pop\n        /* \"#utility.yul\":16405:16414   */\n      dup2\n        /* \"#utility.yul\":16399:16403   */\n      dup2\n        /* \"#utility.yul\":16395:16415   */\n      sub\n        /* \"#utility.yul\":16391:16392   */\n      0x00\n        /* \"#utility.yul\":16380:16389   */\n      dup4\n        /* \"#utility.yul\":16376:16393   */\n      add\n        /* \"#utility.yul\":16369:16416   */\n      mstore\n        /* \"#utility.yul\":16433:16564   */\n      tag_391\n        /* \"#utility.yul\":16559:16563   */\n      dup2\n        /* \"#utility.yul\":16433:16564   */\n      tag_215\n      jump\t// in\n    tag_391:\n        /* \"#utility.yul\":16425:16564   */\n      swap1\n      pop\n        /* \"#utility.yul\":16152:16571   */\n      swap2\n      swap1\n      pop\n      jump\t// out\n        /* \"#utility.yul\":16577:16802   */\n    tag_216:\n        /* \"#utility.yul\":16717:16751   */\n      0x4f776e61626c653a206e6577206f776e657220697320746865207a65726f2061\n        /* \"#utility.yul\":16713:16714   */\n      0x00\n        /* \"#utility.yul\":16705:16711   */\n      dup3\n        /* \"#utility.yul\":16701:16715   */\n      add\n        /* \"#utility.yul\":16694:16752   */\n      mstore\n        /* \"#utility.yul\":16786:16794   */\n      0x6464726573730000000000000000000000000000000000000000000000000000\n        /* \"#utility.yul\":16781:16783   */\n      0x20\n        /* \"#utility.yul\":16773:16779   */\n      dup3\n        /* \"#utility.yul\":16769:16784   */\n      add\n        /* \"#utility.yul\":16762:16795   */\n      mstore\n        /* \"#utility.yul\":16577:16802   */\n      pop\n      jump\t// out\n        /* \"#utility.yul\":16808:17174   */\n    tag_217:\n        /* \"#utility.yul\":16950:16953   */\n      0x00\n        /* \"#utility.yul\":16971:17038   */\n      tag_394\n        /* \"#utility.yul\":17035:17037   */\n      0x26\n        /* \"#utility.yul\":17030:17033   */\n      dup4\n        /* \"#utility.yul\":16971:17038   */\n      tag_200\n      jump\t// in\n    tag_394:\n        /* \"#utility.yul\":16964:17038   */\n      swap2\n      pop\n        /* \"#utility.yul\":17047:17140   */\n      tag_395\n        /* \"#utility.yul\":17136:17139   */\n      dup3\n        /* \"#utility.yul\":17047:17140   */\n      tag_216\n      jump\t// in\n    tag_395:\n        /* \"#utility.yul\":17165:17167   */\n      0x40\n        /* \"#utility.yul\":17160:17163   */\n      dup3\n        /* \"#utility.yul\":17156:17168   */\n      add\n        /* \"#utility.yul\":17149:17168   */\n      swap1\n      pop\n        /* \"#utility.yul\":16808:17174   */\n      swap2\n      swap1\n      pop\n      jump\t// out\n        /* \"#utility.yul\":17180:17599   */\n    tag_153:\n        /* \"#utility.yul\":17346:17350   */\n      0x00\n        /* \"#utility.yul\":17384:17386   */\n      0x20\n        /* \"#utility.yul\":17373:17382   */\n      dup3\n        /* \"#utility.yul\":17369:17387   */\n      add\n        /* \"#utility.yul\":17361:17387   */\n      swap1\n      pop\n        /* \"#utility.yul\":17433:17442   */\n      dup2\n        /* \"#utility.yul\":17427:17431   */\n      dup2\n        /* \"#utility.yul\":17423:17443   */\n      sub\n        /* \"#utility.yul\":17419:17420   */\n      0x00\n        /* \"#utility.yul\":17408:17417   */\n      dup4\n        /* \"#utility.yul\":17404:17421   */\n      add\n        /* \"#utility.yul\":17397:17444   */\n      mstore\n        /* \"#utility.yul\":17461:17592   */\n      tag_397\n        /* \"#utility.yul\":17587:17591   */\n      dup2\n        /* \"#utility.yul\":17461:17592   */\n      tag_217\n      jump\t// in\n    tag_397:\n        /* \"#utility.yul\":17453:17592   */\n      swap1\n      pop\n        /* \"#utility.yul\":17180:17599   */\n      swap2\n      swap1\n      pop\n      jump\t// out\n        /* \"#utility.yul\":17605:17748   */\n    tag_218:\n        /* \"#utility.yul\":17662:17667   */\n      0x00\n        /* \"#utility.yul\":17693:17699   */\n      dup2\n        /* \"#utility.yul\":17687:17700   */\n      mload\n        /* \"#utility.yul\":17678:17700   */\n      swap1\n      pop\n        /* \"#utility.yul\":17709:17742   */\n      tag_399\n        /* \"#utility.yul\":17736:17741   */\n      dup2\n        /* \"#utility.yul\":17709:17742   */\n      tag_173\n      jump\t// in\n    tag_399:\n        /* \"#utility.yul\":17605:17748   */\n      swap3\n      swap2\n      pop\n      pop\n      jump\t// out\n        /* \"#utility.yul\":17754:18105   */\n    tag_157:\n        /* \"#utility.yul\":17824:17830   */\n      0x00\n        /* \"#utility.yul\":17873:17875   */\n      0x20\n        /* \"#utility.yul\":17861:17870   */\n      dup3\n        /* \"#utility.yul\":17852:17859   */\n      dup5\n        /* \"#utility.yul\":17848:17871   */\n      sub\n        /* \"#utility.yul\":17844:17876   */\n      slt\n        /* \"#utility.yul\":17841:17960   */\n      iszero\n      tag_401\n      jumpi\n        /* \"#utility.yul\":17879:17958   */\n      tag_402\n      tag_169\n      jump\t// in\n    tag_402:\n        /* \"#utility.yul\":17841:17960   */\n    tag_401:\n        /* \"#utility.yul\":17999:18000   */\n      0x00\n        /* \"#utility.yul\":18024:18088   */\n      tag_403\n        /* \"#utility.yul\":18080:18087   */\n      dup5\n        /* \"#utility.yul\":18071:18077   */\n      dup3\n        /* \"#utility.yul\":18060:18069   */\n      dup6\n        /* \"#utility.yul\":18056:18078   */\n      add\n        /* \"#utility.yul\":18024:18088   */\n      tag_218\n      jump\t// in\n    tag_403:\n        /* \"#utility.yul\":18014:18088   */\n      swap2\n      pop\n        /* \"#utility.yul\":17970:18098   */\n      pop\n        /* \"#utility.yul\":17754:18105   */\n      swap3\n      swap2\n      pop\n      pop\n      jump\t// out\n\n    auxdata: 0xa2646970667358221220353adbe68ab1ec96ea961f7f3f0c7a074887905af02fb6afdf7bb820b815b58264736f6c634300081b0033\n}\n",
				"bytecode": {
					"linkReferences": {},
					"object": "60a060405234801561001057600080fd5b50604051611c9b380380611c9b833981810160405281019061003291906102eb565b600061004261026e60201b60201c565b9050806000806101000a81548173ffffffffffffffffffffffffffffffffffffffff021916908373ffffffffffffffffffffffffffffffffffffffff1602179055508073ffffffffffffffffffffffffffffffffffffffff16600073ffffffffffffffffffffffffffffffffffffffff167f8be0079c531659141344cd1fd0a4f28419497f9722a3daafe3b4186f6b6457e060405160405180910390a3508073ffffffffffffffffffffffffffffffffffffffff1660808173ffffffffffffffffffffffffffffffffffffffff168152505060008173ffffffffffffffffffffffffffffffffffffffff166302571be37f91d1777781884d03a6757a803996e38de2a42967fb37eeaca72729271025a9e260001b6040518263ffffffff1660e01b81526004016101729190610331565b602060405180830381865afa15801561018f573d6000803e3d6000fd5b505050506040513d601f19601f820116820180604052508101906101b39190610378565b9050600073ffffffffffffffffffffffffffffffffffffffff168173ffffffffffffffffffffffffffffffffffffffff1614610267578073ffffffffffffffffffffffffffffffffffffffff16631e83409a336040518263ffffffff1660e01b815260040161022291906103b4565b6020604051808303816000875af1158015610241573d6000803e3d6000fd5b505050506040513d601f19601f8201168201806040525081019061026591906103fb565b505b5050610428565b600033905090565b600080fd5b600073ffffffffffffffffffffffffffffffffffffffff82169050919050565b60006102a68261027b565b9050919050565b60006102b88261029b565b9050919050565b6102c8816102ad565b81146102d357600080fd5b50565b6000815190506102e5816102bf565b92915050565b60006020828403121561030157610300610276565b5b600061030f848285016102d6565b91505092915050565b6000819050919050565b61032b81610318565b82525050565b60006020820190506103466000830184610322565b92915050565b6103558161029b565b811461036057600080fd5b50565b6000815190506103728161034c565b92915050565b60006020828403121561038e5761038d610276565b5b600061039c84828501610363565b91505092915050565b6103ae8161029b565b82525050565b60006020820190506103c960008301846103a5565b92915050565b6103d881610318565b81146103e357600080fd5b50565b6000815190506103f5816103cf565b92915050565b60006020828403121561041157610410610276565b5b600061041f848285016103e6565b91505092915050565b60805161184a61045160003960008181610344015281816103f40152610581015261184a6000f3fe608060405234801561001057600080fd5b50600436106100ea5760003560e01c80638da5cb5b1161008c578063c66485b211610066578063c66485b214610273578063da8c229e1461028f578063e0dba60f146102bf578063f2fde38b146102db576100ea565b80638da5cb5b146101f5578063bffbe61c14610213578063c47f002714610243576100ea565b806365669631116100c8578063656696311461016d578063715018a61461019d5780637a806d6b146101a7578063828eab0e146101d7576100ea565b80630f5a5466146100ef5780631e83409a1461011f5780633f15457f1461014f575b600080fd5b61010960048036038101906101049190610ef9565b6102f7565b6040516101169190610f52565b60405180910390f35b61013960048036038101906101349190610f6d565b61030c565b6040516101469190610f52565b60405180910390f35b610157610342565b6040516101649190610ff9565b60405180910390f35b61018760048036038101906101829190611014565b610366565b6040516101949190610f52565b60405180910390f35b6101a5610643565b005b6101c160048036038101906101bc91906111ad565b61077d565b6040516101ce9190610f52565b60405180910390f35b6101df610806565b6040516101ec9190611251565b60405180910390f35b6101fd61082c565b60405161020a919061127b565b60405180910390f35b61022d60048036038101906102289190610f6d565b610855565b60405161023a9190610f52565b60405180910390f35b61025d60048036038101906102589190611296565b6108b2565b60405161026a9190610f52565b60405180910390f35b61028d60048036038101906102889190610f6d565b6108e9565b005b6102a960048036038101906102a49190610f6d565b610a5b565b6040516102b691906112fa565b60405180910390f35b6102d960048036038101906102d49190611341565b610a7b565b005b6102f560048036038101906102f09190610f6d565b610ba0565b005b6000610304338484610366565b905092915050565b600061033b3383600260009054906101000a900473ffffffffffffffffffffffffffffffffffffffff16610366565b9050919050565b7f000000000000000000000000000000000000000000000000000000000000000081565b6000833373ffffffffffffffffffffffffffffffffffffffff168173ffffffffffffffffffffffffffffffffffffffff1614806103ec5750600160003373ffffffffffffffffffffffffffffffffffffffff1673ffffffffffffffffffffffffffffffffffffffff16815260200190815260200160002060009054906101000a900460ff165b8061048f57507f000000000000000000000000000000000000000000000000000000000000000073ffffffffffffffffffffffffffffffffffffffff1663e985e9c582336040518363ffffffff1660e01b815260040161044d929190611381565b602060405180830381865afa15801561046a573d6000803e3d6000fd5b505050506040513d601f19601f8201168201806040525081019061048e91906113bf565b5b8061049f575061049e81610d48565b5b6104de576040517f08c379a00000000000000000000000000000000000000000000000000000000081526004016104d590611495565b60405180910390fd5b60006104e986610df7565b905060007f91d1777781884d03a6757a803996e38de2a42967fb37eeaca72729271025a9e260001b826040516020016105239291906114d6565b604051602081830303815290604052805190602001209050808773ffffffffffffffffffffffffffffffffffffffff167f6ada868dd3058cf77a48a74489fd7963688e5464b2b0fa957ace976243270e9260405160405180910390a37f000000000000000000000000000000000000000000000000000000000000000073ffffffffffffffffffffffffffffffffffffffff16635ef2c7f07f91d1777781884d03a6757a803996e38de2a42967fb37eeaca72729271025a9e260001b84898960006040518663ffffffff1660e01b8152600401610604959493929190611551565b600060405180830381600087803b15801561061e57600080fd5b505af1158015610632573d6000803e3d6000fd5b505050508093505050509392505050565b61064b610e7f565b73ffffffffffffffffffffffffffffffffffffffff1661066961082c565b73ffffffffffffffffffffffffffffffffffffffff16146106bf576040517f08c379a00000000000000000000000000000000000000000000000000000000081526004016106b6906115f0565b60405180910390fd5b600073ffffffffffffffffffffffffffffffffffffffff1660008054906101000a900473ffffffffffffffffffffffffffffffffffffffff1673ffffffffffffffffffffffffffffffffffffffff167f8be0079c531659141344cd1fd0a4f28419497f9722a3daafe3b4186f6b6457e060405160405180910390a360008060006101000a81548173ffffffffffffffffffffffffffffffffffffffff021916908373ffffffffffffffffffffffffffffffffffffffff160217905550565b60008061078b868686610366565b90508373ffffffffffffffffffffffffffffffffffffffff16637737221382856040518363ffffffff1660e01b81526004016107c892919061167e565b600060405180830381600087803b1580156107e257600080fd5b505af11580156107f6573d6000803e3d6000fd5b5050505080915050949350505050565b600260009054906101000a900473ffffffffffffffffffffffffffffffffffffffff1681565b60008060009054906101000a900473ffffffffffffffffffffffffffffffffffffffff16905090565b60007f91d1777781884d03a6757a803996e38de2a42967fb37eeaca72729271025a9e260001b61088483610df7565b6040516020016108959291906114d6565b604051602081830303815290604052805190602001209050919050565b60006108e23333600260009054906101000a900473ffffffffffffffffffffffffffffffffffffffff168561077d565b9050919050565b6108f1610e7f565b73ffffffffffffffffffffffffffffffffffffffff1661090f61082c565b73ffffffffffffffffffffffffffffffffffffffff1614610965576040517f08c379a000000000000000000000000000000000000000000000000000000000815260040161095c906115f0565b60405180910390fd5b600073ffffffffffffffffffffffffffffffffffffffff168173ffffffffffffffffffffffffffffffffffffffff16036109d4576040517f08c379a00000000000000000000000000000000000000000000000000000000081526004016109cb90611720565b60405180910390fd5b80600260006101000a81548173ffffffffffffffffffffffffffffffffffffffff021916908373ffffffffffffffffffffffffffffffffffffffff1602179055508073ffffffffffffffffffffffffffffffffffffffff167feae17a84d9eb83d8c8eb317f9e7d64857bc363fa51674d996c023f4340c577cf60405160405180910390a250565b60016020528060005260406000206000915054906101000a900460ff1681565b610a83610e7f565b73ffffffffffffffffffffffffffffffffffffffff16610aa161082c565b73ffffffffffffffffffffffffffffffffffffffff1614610af7576040517f08c379a0000000000000000000000000000000000000000000000000000000008152600401610aee906115f0565b60405180910390fd5b80600160008473ffffffffffffffffffffffffffffffffffffffff1673ffffffffffffffffffffffffffffffffffffffff16815260200190815260200160002060006101000a81548160ff0219169083151502179055508173ffffffffffffffffffffffffffffffffffffffff167f4c97694570a07277810af7e5669ffd5f6a2d6b74b6e9a274b8b870fd5114cf8782604051610b9491906112fa565b60405180910390a25050565b610ba8610e7f565b73ffffffffffffffffffffffffffffffffffffffff16610bc661082c565b73ffffffffffffffffffffffffffffffffffffffff1614610c1c576040517f08c379a0000000000000000000000000000000000000000000000000000000008152600401610c13906115f0565b60405180910390fd5b600073ffffffffffffffffffffffffffffffffffffffff168173ffffffffffffffffffffffffffffffffffffffff1603610c8b576040517f08c379a0000000000000000000000000000000000000000000000000000000008152600401610c82906117b2565b60405180910390fd5b8073ffffffffffffffffffffffffffffffffffffffff1660008054906101000a900473ffffffffffffffffffffffffffffffffffffffff1673ffffffffffffffffffffffffffffffffffffffff167f8be0079c531659141344cd1fd0a4f28419497f9722a3daafe3b4186f6b6457e060405160405180910390a3806000806101000a81548173ffffffffffffffffffffffffffffffffffffffff021916908373ffffffffffffffffffffffffffffffffffffffff16021790555050565b60008173ffffffffffffffffffffffffffffffffffffffff16638da5cb5b6040518163ffffffff1660e01b8152600401602060405180830381865afa925050508015610db257506040513d601f19601f82011682018060405250810190610daf91906117e7565b60015b610dbf5760009050610df2565b3373ffffffffffffffffffffffffffffffffffffffff168173ffffffffffffffffffffffffffffffffffffffff16149150505b919050565b600060285b6000811115610e72576001810390507f3031323334353637383961626364656600000000000000000000000000000000600f84161a81536010830492506001810390507f3031323334353637383961626364656600000000000000000000000000000000600f84161a8153601083049250610dfc565b5060286000209050919050565b600033905090565b6000604051905090565b600080fd5b600080fd5b600073ffffffffffffffffffffffffffffffffffffffff82169050919050565b6000610ec682610e9b565b9050919050565b610ed681610ebb565b8114610ee157600080fd5b50565b600081359050610ef381610ecd565b92915050565b60008060408385031215610f1057610f0f610e91565b5b6000610f1e85828601610ee4565b9250506020610f2f85828601610ee4565b9150509250929050565b6000819050919050565b610f4c81610f39565b82525050565b6000602082019050610f676000830184610f43565b92915050565b600060208284031215610f8357610f82610e91565b5b6000610f9184828501610ee4565b91505092915050565b6000819050919050565b6000610fbf610fba610fb584610e9b565b610f9a565b610e9b565b9050919050565b6000610fd182610fa4565b9050919050565b6000610fe382610fc6565b9050919050565b610ff381610fd8565b82525050565b600060208201905061100e6000830184610fea565b92915050565b60008060006060848603121561102d5761102c610e91565b5b600061103b86828701610ee4565b935050602061104c86828701610ee4565b925050604061105d86828701610ee4565b9150509250925092565b600080fd5b600080fd5b6000601f19601f8301169050919050565b7f4e487b7100000000000000000000000000000000000000000000000000000000600052604160045260246000fd5b6110ba82611071565b810181811067ffffffffffffffff821117156110d9576110d8611082565b5b80604052505050565b60006110ec610e87565b90506110f882826110b1565b919050565b600067ffffffffffffffff82111561111857611117611082565b5b61112182611071565b9050602081019050919050565b82818337600083830152505050565b600061115061114b846110fd565b6110e2565b90508281526020810184848401111561116c5761116b61106c565b5b61117784828561112e565b509392505050565b600082601f83011261119457611193611067565b5b81356111a484826020860161113d565b91505092915050565b600080600080608085870312156111c7576111c6610e91565b5b60006111d587828801610ee4565b94505060206111e687828801610ee4565b93505060406111f787828801610ee4565b925050606085013567ffffffffffffffff81111561121857611217610e96565b5b6112248782880161117f565b91505092959194509250565b600061123b82610fc6565b9050919050565b61124b81611230565b82525050565b60006020820190506112666000830184611242565b92915050565b61127581610ebb565b82525050565b6000602082019050611290600083018461126c565b92915050565b6000602082840312156112ac576112ab610e91565b5b600082013567ffffffffffffffff8111156112ca576112c9610e96565b5b6112d68482850161117f565b91505092915050565b60008115159050919050565b6112f4816112df565b82525050565b600060208201905061130f60008301846112eb565b92915050565b61131e816112df565b811461132957600080fd5b50565b60008135905061133b81611315565b92915050565b6000806040838503121561135857611357610e91565b5b600061136685828601610ee4565b92505060206113778582860161132c565b9150509250929050565b6000604082019050611396600083018561126c565b6113a3602083018461126c565b9392505050565b6000815190506113b981611315565b92915050565b6000602082840312156113d5576113d4610e91565b5b60006113e3848285016113aa565b91505092915050565b600082825260208201905092915050565b7f526576657273655265676973747261723a2043616c6c6572206973206e6f742060008201527f6120636f6e74726f6c6c6572206f7220617574686f726973656420627920616460208201527f6472657373206f7220746865206164647265737320697473656c660000000000604082015250565b600061147f605b836113ec565b915061148a826113fd565b606082019050919050565b600060208201905081810360008301526114ae81611472565b9050919050565b6000819050919050565b6114d06114cb82610f39565b6114b5565b82525050565b60006114e282856114bf565b6020820191506114f282846114bf565b6020820191508190509392505050565b6000819050919050565b600067ffffffffffffffff82169050919050565b600061153b61153661153184611502565b610f9a565b61150c565b9050919050565b61154b81611520565b82525050565b600060a0820190506115666000830188610f43565b6115736020830187610f43565b611580604083018661126c565b61158d606083018561126c565b61159a6080830184611542565b9695505050505050565b7f4f776e61626c653a2063616c6c6572206973206e6f7420746865206f776e6572600082015250565b60006115da6020836113ec565b91506115e5826115a4565b602082019050919050565b60006020820190508181036000830152611609816115cd565b9050919050565b600081519050919050565b60005b8381101561163957808201518184015260208101905061161e565b60008484015250505050565b600061165082611610565b61165a81856113ec565b935061166a81856020860161161b565b61167381611071565b840191505092915050565b60006040820190506116936000830185610f43565b81810360208301526116a58184611645565b90509392505050565b7f526576657273655265676973747261723a205265736f6c76657220616464726560008201527f7373206d757374206e6f74206265203000000000000000000000000000000000602082015250565b600061170a6030836113ec565b9150611715826116ae565b604082019050919050565b60006020820190508181036000830152611739816116fd565b9050919050565b7f4f776e61626c653a206e6577206f776e657220697320746865207a65726f206160008201527f6464726573730000000000000000000000000000000000000000000000000000602082015250565b600061179c6026836113ec565b91506117a782611740565b604082019050919050565b600060208201905081810360008301526117cb8161178f565b9050919050565b6000815190506117e181610ecd565b92915050565b6000602082840312156117fd576117fc610e91565b5b600061180b848285016117d2565b9150509291505056fea2646970667358221220353adbe68ab1ec96ea961f7f3f0c7a074887905af02fb6afdf7bb820b815b58264736f6c634300081b0033",
					"opcodes": "PUSH1 0xA0 PUSH1 0x40 MSTORE CALLVALUE DUP1 ISZERO PUSH2 0x10 JUMPI PUSH1 0x0 DUP1 REVERT JUMPDEST POP PUSH1 0x40 MLOAD PUSH2 0x1C9B CODESIZE SUB DUP1 PUSH2 0x1C9B DUP4 CODECOPY DUP2 DUP2 ADD PUSH1 0x40 MSTORE DUP2 ADD SWAP1 PUSH2 0x32 SWAP2 SWAP1 PUSH2 0x2EB JUMP JUMPDEST PUSH1 0x0 PUSH2 0x42 PUSH2 0x26E PUSH1 0x20 SHL PUSH1 0x20 SHR JUMP JUMPDEST SWAP1 POP DUP1 PUSH1 0x0 DUP1 PUSH2 0x100 EXP DUP2 SLOAD DUP2 PUSH20 0xFFFFFFFFFFFFFFFFFFFFFFFFFFFFFFFFFFFFFFFF MUL NOT AND SWAP1 DUP4 PUSH20 0xFFFFFFFFFFFFFFFFFFFFFFFFFFFFFFFFFFFFFFFF AND MUL OR SWAP1 SSTORE POP DUP1 PUSH20 0xFFFFFFFFFFFFFFFFFFFFFFFFFFFFFFFFFFFFFFFF AND PUSH1 0x0 PUSH20 0xFFFFFFFFFFFFFFFFFFFFFFFFFFFFFFFFFFFFFFFF AND PUSH32 0x8BE0079C531659141344CD1FD0A4F28419497F9722A3DAAFE3B4186F6B6457E0 PUSH1 0x40 MLOAD PUSH1 0x40 MLOAD DUP1 SWAP2 SUB SWAP1 LOG3 POP DUP1 PUSH20 0xFFFFFFFFFFFFFFFFFFFFFFFFFFFFFFFFFFFFFFFF AND PUSH1 0x80 DUP2 PUSH20 0xFFFFFFFFFFFFFFFFFFFFFFFFFFFFFFFFFFFFFFFF AND DUP2 MSTORE POP POP PUSH1 0x0 DUP2 PUSH20 0xFFFFFFFFFFFFFFFFFFFFFFFFFFFFFFFFFFFFFFFF AND PUSH4 0x2571BE3 PUSH32 0x91D1777781884D03A6757A803996E38DE2A42967FB37EEACA72729271025A9E2 PUSH1 0x0 SHL PUSH1 0x40 MLOAD DUP3 PUSH4 0xFFFFFFFF AND PUSH1 0xE0 SHL DUP2 MSTORE PUSH1 0x4 ADD PUSH2 0x172 SWAP2 SWAP1 PUSH2 0x331 JUMP JUMPDEST PUSH1 0x20 PUSH1 0x40 MLOAD DUP1 DUP4 SUB DUP2 DUP7 GAS STATICCALL ISZERO DUP1 ISZERO PUSH2 0x18F JUMPI RETURNDATASIZE PUSH1 0x0 DUP1 RETURNDATACOPY RETURNDATASIZE PUSH1 0x0 REVERT JUMPDEST POP POP POP POP PUSH1 0x40 MLOAD RETURNDATASIZE PUSH1 0x1F NOT PUSH1 0x1F DUP3 ADD AND DUP3 ADD DUP1 PUSH1 0x40 MSTORE POP DUP2 ADD SWAP1 PUSH2 0x1B3 SWAP2 SWAP1 PUSH2 0x378 JUMP JUMPDEST SWAP1 POP PUSH1 0x0 PUSH20 0xFFFFFFFFFFFFFFFFFFFFFFFFFFFFFFFFFFFFFFFF AND DUP2 PUSH20 0xFFFFFFFFFFFFFFFFFFFFFFFFFFFFFFFFFFFFFFFF AND EQ PUSH2 0x267 JUMPI DUP1 PUSH20 0xFFFFFFFFFFFFFFFFFFFFFFFFFFFFFFFFFFFFFFFF AND PUSH4 0x1E83409A CALLER PUSH1 0x40 MLOAD DUP3 PUSH4 0xFFFFFFFF AND PUSH1 0xE0 SHL DUP2 MSTORE PUSH1 0x4 ADD PUSH2 0x222 SWAP2 SWAP1 PUSH2 0x3B4 JUMP JUMPDEST PUSH1 0x20 PUSH1 0x40 MLOAD DUP1 DUP4 SUB DUP2 PUSH1 0x0 DUP8 GAS CALL ISZERO DUP1 ISZERO PUSH2 0x241 JUMPI RETURNDATASIZE PUSH1 0x0 DUP1 RETURNDATACOPY RETURNDATASIZE PUSH1 0x0 REVERT JUMPDEST POP POP POP POP PUSH1 0x40 MLOAD RETURNDATASIZE PUSH1 0x1F NOT PUSH1 0x1F DUP3 ADD AND DUP3 ADD DUP1 PUSH1 0x40 MSTORE POP DUP2 ADD SWAP1 PUSH2 0x265 SWAP2 SWAP1 PUSH2 0x3FB JUMP JUMPDEST POP JUMPDEST POP POP PUSH2 0x428 JUMP JUMPDEST PUSH1 0x0 CALLER SWAP1 POP SWAP1 JUMP JUMPDEST PUSH1 0x0 DUP1 REVERT JUMPDEST PUSH1 0x0 PUSH20 0xFFFFFFFFFFFFFFFFFFFFFFFFFFFFFFFFFFFFFFFF DUP3 AND SWAP1 POP SWAP2 SWAP1 POP JUMP JUMPDEST PUSH1 0x0 PUSH2 0x2A6 DUP3 PUSH2 0x27B JUMP JUMPDEST SWAP1 POP SWAP2 SWAP1 POP JUMP JUMPDEST PUSH1 0x0 PUSH2 0x2B8 DUP3 PUSH2 0x29B JUMP JUMPDEST SWAP1 POP SWAP2 SWAP1 POP JUMP JUMPDEST PUSH2 0x2C8 DUP2 PUSH2 0x2AD JUMP JUMPDEST DUP2 EQ PUSH2 0x2D3 JUMPI PUSH1 0x0 DUP1 REVERT JUMPDEST POP JUMP JUMPDEST PUSH1 0x0 DUP2 MLOAD SWAP1 POP PUSH2 0x2E5 DUP2 PUSH2 0x2BF JUMP JUMPDEST SWAP3 SWAP2 POP POP JUMP JUMPDEST PUSH1 0x0 PUSH1 0x20 DUP3 DUP5 SUB SLT ISZERO PUSH2 0x301 JUMPI PUSH2 0x300 PUSH2 0x276 JUMP JUMPDEST JUMPDEST PUSH1 0x0 PUSH2 0x30F DUP5 DUP3 DUP6 ADD PUSH2 0x2D6 JUMP JUMPDEST SWAP2 POP POP SWAP3 SWAP2 POP POP JUMP JUMPDEST PUSH1 0x0 DUP2 SWAP1 POP SWAP2 SWAP1 POP JUMP JUMPDEST PUSH2 0x32B DUP2 PUSH2 0x318 JUMP JUMPDEST DUP3 MSTORE POP POP JUMP JUMPDEST PUSH1 0x0 PUSH1 0x20 DUP3 ADD SWAP1 POP PUSH2 0x346 PUSH1 0x0 DUP4 ADD DUP5 PUSH2 0x322 JUMP JUMPDEST SWAP3 SWAP2 POP POP JUMP JUMPDEST PUSH2 0x355 DUP2 PUSH2 0x29B JUMP JUMPDEST DUP2 EQ PUSH2 0x360 JUMPI PUSH1 0x0 DUP1 REVERT JUMPDEST POP JUMP JUMPDEST PUSH1 0x0 DUP2 MLOAD SWAP1 POP PUSH2 0x372 DUP2 PUSH2 0x34C JUMP JUMPDEST SWAP3 SWAP2 POP POP JUMP JUMPDEST PUSH1 0x0 PUSH1 0x20 DUP3 DUP5 SUB SLT ISZERO PUSH2 0x38E JUMPI PUSH2 0x38D PUSH2 0x276 JUMP JUMPDEST JUMPDEST PUSH1 0x0 PUSH2 0x39C DUP5 DUP3 DUP6 ADD PUSH2 0x363 JUMP JUMPDEST SWAP2 POP POP SWAP3 SWAP2 POP POP JUMP JUMPDEST PUSH2 0x3AE DUP2 PUSH2 0x29B JUMP JUMPDEST DUP3 MSTORE POP POP JUMP JUMPDEST PUSH1 0x0 PUSH1 0x20 DUP3 ADD SWAP1 POP PUSH2 0x3C9 PUSH1 0x0 DUP4 ADD DUP5 PUSH2 0x3A5 JUMP JUMPDEST SWAP3 SWAP2 POP POP JUMP JUMPDEST PUSH2 0x3D8 DUP2 PUSH2 0x318 JUMP JUMPDEST DUP2 EQ PUSH2 0x3E3 JUMPI PUSH1 0x0 DUP1 REVERT JUMPDEST POP JUMP JUMPDEST PUSH1 0x0 DUP2 MLOAD SWAP1 POP PUSH2 0x3F5 DUP2 PUSH2 0x3CF JUMP JUMPDEST SWAP3 SWAP2 POP POP JUMP JUMPDEST PUSH1 0x0 PUSH1 0x20 DUP3 DUP5 SUB SLT ISZERO PUSH2 0x411 JUMPI PUSH2 0x410 PUSH2 0x276 JUMP JUMPDEST JUMPDEST PUSH1 0x0 PUSH2 0x41F DUP5 DUP3 DUP6 ADD PUSH2 0x3E6 JUMP JUMPDEST SWAP2 POP POP SWAP3 SWAP2 POP POP JUMP JUMPDEST PUSH1 0x80 MLOAD PUSH2 0x184A PUSH2 0x451 PUSH1 0x0 CODECOPY PUSH1 0x0 DUP2 DUP2 PUSH2 0x344 ADD MSTORE DUP2 DUP2 PUSH2 0x3F4 ADD MSTORE PUSH2 0x581 ADD MSTORE PUSH2 0x184A PUSH1 0x0 RETURN INVALID PUSH1 0x80 PUSH1 0x40 MSTORE CALLVALUE DUP1 ISZERO PUSH2 0x10 JUMPI PUSH1 0x0 DUP1 REVERT JUMPDEST POP PUSH1 0x4 CALLDATASIZE LT PUSH2 0xEA JUMPI PUSH1 0x0 CALLDATALOAD PUSH1 0xE0 SHR DUP1 PUSH4 0x8DA5CB5B GT PUSH2 0x8C JUMPI DUP1 PUSH4 0xC66485B2 GT PUSH2 0x66 JUMPI DUP1 PUSH4 0xC66485B2 EQ PUSH2 0x273 JUMPI DUP1 PUSH4 0xDA8C229E EQ PUSH2 0x28F JUMPI DUP1 PUSH4 0xE0DBA60F EQ PUSH2 0x2BF JUMPI DUP1 PUSH4 0xF2FDE38B EQ PUSH2 0x2DB JUMPI PUSH2 0xEA JUMP JUMPDEST DUP1 PUSH4 0x8DA5CB5B EQ PUSH2 0x1F5 JUMPI DUP1 PUSH4 0xBFFBE61C EQ PUSH2 0x213 JUMPI DUP1 PUSH4 0xC47F0027 EQ PUSH2 0x243 JUMPI PUSH2 0xEA JUMP JUMPDEST DUP1 PUSH4 0x65669631 GT PUSH2 0xC8 JUMPI DUP1 PUSH4 0x65669631 EQ PUSH2 0x16D JUMPI DUP1 PUSH4 0x715018A6 EQ PUSH2 0x19D JUMPI DUP1 PUSH4 0x7A806D6B EQ PUSH2 0x1A7 JUMPI DUP1 PUSH4 0x828EAB0E EQ PUSH2 0x1D7 JUMPI PUSH2 0xEA JUMP JUMPDEST DUP1 PUSH4 0xF5A5466 EQ PUSH2 0xEF JUMPI DUP1 PUSH4 0x1E83409A EQ PUSH2 0x11F JUMPI DUP1 PUSH4 0x3F15457F EQ PUSH2 0x14F JUMPI JUMPDEST PUSH1 0x0 DUP1 REVERT JUMPDEST PUSH2 0x109 PUSH1 0x4 DUP1 CALLDATASIZE SUB DUP2 ADD SWAP1 PUSH2 0x104 SWAP2 SWAP1 PUSH2 0xEF9 JUMP JUMPDEST PUSH2 0x2F7 JUMP JUMPDEST PUSH1 0x40 MLOAD PUSH2 0x116 SWAP2 SWAP1 PUSH2 0xF52 JUMP JUMPDEST PUSH1 0x40 MLOAD DUP1 SWAP2 SUB SWAP1 RETURN JUMPDEST PUSH2 0x139 PUSH1 0x4 DUP1 CALLDATASIZE SUB DUP2 ADD SWAP1 PUSH2 0x134 SWAP2 SWAP1 PUSH2 0xF6D JUMP JUMPDEST PUSH2 0x30C JUMP JUMPDEST PUSH1 0x40 MLOAD PUSH2 0x146 SWAP2 SWAP1 PUSH2 0xF52 JUMP JUMPDEST PUSH1 0x40 MLOAD DUP1 SWAP2 SUB SWAP1 RETURN JUMPDEST PUSH2 0x157 PUSH2 0x342 JUMP JUMPDEST PUSH1 0x40 MLOAD PUSH2 0x164 SWAP2 SWAP1 PUSH2 0xFF9 JUMP JUMPDEST PUSH1 0x40 MLOAD DUP1 SWAP2 SUB SWAP1 RETURN JUMPDEST PUSH2 0x187 PUSH1 0x4 DUP1 CALLDATASIZE SUB DUP2 ADD SWAP1 PUSH2 0x182 SWAP2 SWAP1 PUSH2 0x1014 JUMP JUMPDEST PUSH2 0x366 JUMP JUMPDEST PUSH1 0x40 MLOAD PUSH2 0x194 SWAP2 SWAP1 PUSH2 0xF52 JUMP JUMPDEST PUSH1 0x40 MLOAD DUP1 SWAP2 SUB SWAP1 RETURN JUMPDEST PUSH2 0x1A5 PUSH2 0x643 JUMP JUMPDEST STOP JUMPDEST PUSH2 0x1C1 PUSH1 0x4 DUP1 CALLDATASIZE SUB DUP2 ADD SWAP1 PUSH2 0x1BC SWAP2 SWAP1 PUSH2 0x11AD JUMP JUMPDEST PUSH2 0x77D JUMP JUMPDEST PUSH1 0x40 MLOAD PUSH2 0x1CE SWAP2 SWAP1 PUSH2 0xF52 JUMP JUMPDEST PUSH1 0x40 MLOAD DUP1 SWAP2 SUB SWAP1 RETURN JUMPDEST PUSH2 0x1DF PUSH2 0x806 JUMP JUMPDEST PUSH1 0x40 MLOAD PUSH2 0x1EC SWAP2 SWAP1 PUSH2 0x1251 JUMP JUMPDEST PUSH1 0x40 MLOAD DUP1 SWAP2 SUB SWAP1 RETURN JUMPDEST PUSH2 0x1FD PUSH2 0x82C JUMP JUMPDEST PUSH1 0x40 MLOAD PUSH2 0x20A SWAP2 SWAP1 PUSH2 0x127B JUMP JUMPDEST PUSH1 0x40 MLOAD DUP1 SWAP2 SUB SWAP1 RETURN JUMPDEST PUSH2 0x22D PUSH1 0x4 DUP1 CALLDATASIZE SUB DUP2 ADD SWAP1 PUSH2 0x228 SWAP2 SWAP1 PUSH2 0xF6D JUMP JUMPDEST PUSH2 0x855 JUMP JUMPDEST PUSH1 0x40 MLOAD PUSH2 0x23A SWAP2 SWAP1 PUSH2 0xF52 JUMP JUMPDEST PUSH1 0x40 MLOAD DUP1 SWAP2 SUB SWAP1 RETURN JUMPDEST PUSH2 0x25D PUSH1 0x4 DUP1 CALLDATASIZE SUB DUP2 ADD SWAP1 PUSH2 0x258 SWAP2 SWAP1 PUSH2 0x1296 JUMP JUMPDEST PUSH2 0x8B2 JUMP JUMPDEST PUSH1 0x40 MLOAD PUSH2 0x26A SWAP2 SWAP1 PUSH2 0xF52 JUMP JUMPDEST PUSH1 0x40 MLOAD DUP1 SWAP2 SUB SWAP1 RETURN JUMPDEST PUSH2 0x28D PUSH1 0x4 DUP1 CALLDATASIZE SUB DUP2 ADD SWAP1 PUSH2 0x288 SWAP2 SWAP1 PUSH2 0xF6D JUMP JUMPDEST PUSH2 0x8E9 JUMP JUMPDEST STOP JUMPDEST PUSH2 0x2A9 PUSH1 0x4 DUP1 CALLDATASIZE SUB DUP2 ADD SWAP1 PUSH2 0x2A4 SWAP2 SWAP1 PUSH2 0xF6D JUMP JUMPDEST PUSH2 0xA5B JUMP JUMPDEST PUSH1 0x40 MLOAD PUSH2 0x2B6 SWAP2 SWAP1 PUSH2 0x12FA JUMP JUMPDEST PUSH1 0x40 MLOAD DUP1 SWAP2 SUB SWAP1 RETURN JUMPDEST PUSH2 0x2D9 PUSH1 0x4 DUP1 CALLDATASIZE SUB DUP2 ADD SWAP1 PUSH2 0x2D4 SWAP2 SWAP1 PUSH2 0x1341 JUMP JUMPDEST PUSH2 0xA7B JUMP JUMPDEST STOP JUMPDEST PUSH2 0x2F5 PUSH1 0x4 DUP1 CALLDATASIZE SUB DUP2 ADD SWAP1 PUSH2 0x2F0 SWAP2 SWAP1 PUSH2 0xF6D JUMP JUMPDEST PUSH2 0xBA0 JUMP JUMPDEST STOP JUMPDEST PUSH1 0x0 PUSH2 0x304 CALLER DUP5 DUP5 PUSH2 0x366 JUMP JUMPDEST SWAP1 POP SWAP3 SWAP2 POP POP JUMP JUMPDEST PUSH1 0x0 PUSH2 0x33B CALLER DUP4 PUSH1 0x2 PUSH1 0x0 SWAP1 SLOAD SWAP1 PUSH2 0x100 EXP SWAP1 DIV PUSH20 0xFFFFFFFFFFFFFFFFFFFFFFFFFFFFFFFFFFFFFFFF AND PUSH2 0x366 JUMP JUMPDEST SWAP1 POP SWAP2 SWAP1 POP JUMP JUMPDEST PUSH32 0x0 DUP2 JUMP JUMPDEST PUSH1 0x0 DUP4 CALLER PUSH20 0xFFFFFFFFFFFFFFFFFFFFFFFFFFFFFFFFFFFFFFFF AND DUP2 PUSH20 0xFFFFFFFFFFFFFFFFFFFFFFFFFFFFFFFFFFFFFFFF AND EQ DUP1 PUSH2 0x3EC JUMPI POP PUSH1 0x1 PUSH1 0x0 CALLER PUSH20 0xFFFFFFFFFFFFFFFFFFFFFFFFFFFFFFFFFFFFFFFF AND PUSH20 0xFFFFFFFFFFFFFFFFFFFFFFFFFFFFFFFFFFFFFFFF AND DUP2 MSTORE PUSH1 0x20 ADD SWAP1 DUP2 MSTORE PUSH1 0x20 ADD PUSH1 0x0 KECCAK256 PUSH1 0x0 SWAP1 SLOAD SWAP1 PUSH2 0x100 EXP SWAP1 DIV PUSH1 0xFF AND JUMPDEST DUP1 PUSH2 0x48F JUMPI POP PUSH32 0x0 PUSH20 0xFFFFFFFFFFFFFFFFFFFFFFFFFFFFFFFFFFFFFFFF AND PUSH4 0xE985E9C5 DUP3 CALLER PUSH1 0x40 MLOAD DUP4 PUSH4 0xFFFFFFFF AND PUSH1 0xE0 SHL DUP2 MSTORE PUSH1 0x4 ADD PUSH2 0x44D SWAP3 SWAP2 SWAP1 PUSH2 0x1381 JUMP JUMPDEST PUSH1 0x20 PUSH1 0x40 MLOAD DUP1 DUP4 SUB DUP2 DUP7 GAS STATICCALL ISZERO DUP1 ISZERO PUSH2 0x46A JUMPI RETURNDATASIZE PUSH1 0x0 DUP1 RETURNDATACOPY RETURNDATASIZE PUSH1 0x0 REVERT JUMPDEST POP POP POP POP PUSH1 0x40 MLOAD RETURNDATASIZE PUSH1 0x1F NOT PUSH1 0x1F DUP3 ADD AND DUP3 ADD DUP1 PUSH1 0x40 MSTORE POP DUP2 ADD SWAP1 PUSH2 0x48E SWAP2 SWAP1 PUSH2 0x13BF JUMP JUMPDEST JUMPDEST DUP1 PUSH2 0x49F JUMPI POP PUSH2 0x49E DUP2 PUSH2 0xD48 JUMP JUMPDEST JUMPDEST PUSH2 0x4DE JUMPI PUSH1 0x40 MLOAD PUSH32 0x8C379A000000000000000000000000000000000000000000000000000000000 DUP2 MSTORE PUSH1 0x4 ADD PUSH2 0x4D5 SWAP1 PUSH2 0x1495 JUMP JUMPDEST PUSH1 0x40 MLOAD DUP1 SWAP2 SUB SWAP1 REVERT JUMPDEST PUSH1 0x0 PUSH2 0x4E9 DUP7 PUSH2 0xDF7 JUMP JUMPDEST SWAP1 POP PUSH1 0x0 PUSH32 0x91D1777781884D03A6757A803996E38DE2A42967FB37EEACA72729271025A9E2 PUSH1 0x0 SHL DUP3 PUSH1 0x40 MLOAD PUSH1 0x20 ADD PUSH2 0x523 SWAP3 SWAP2 SWAP1 PUSH2 0x14D6 JUMP JUMPDEST PUSH1 0x40 MLOAD PUSH1 0x20 DUP2 DUP4 SUB SUB DUP2 MSTORE SWAP1 PUSH1 0x40 MSTORE DUP1 MLOAD SWAP1 PUSH1 0x20 ADD KECCAK256 SWAP1 POP DUP1 DUP8 PUSH20 0xFFFFFFFFFFFFFFFFFFFFFFFFFFFFFFFFFFFFFFFF AND PUSH32 0x6ADA868DD3058CF77A48A74489FD7963688E5464B2B0FA957ACE976243270E92 PUSH1 0x40 MLOAD PUSH1 0x40 MLOAD DUP1 SWAP2 SUB SWAP1 LOG3 PUSH32 0x0 PUSH20 0xFFFFFFFFFFFFFFFFFFFFFFFFFFFFFFFFFFFFFFFF AND PUSH4 0x5EF2C7F0 PUSH32 0x91D1777781884D03A6757A803996E38DE2A42967FB37EEACA72729271025A9E2 PUSH1 0x0 SHL DUP5 DUP10 DUP10 PUSH1 0x0 PUSH1 0x40 MLOAD DUP7 PUSH4 0xFFFFFFFF AND PUSH1 0xE0 SHL DUP2 MSTORE PUSH1 0x4 ADD PUSH2 0x604 SWAP6 SWAP5 SWAP4 SWAP3 SWAP2 SWAP1 PUSH2 0x1551 JUMP JUMPDEST PUSH1 0x0 PUSH1 0x40 MLOAD DUP1 DUP4 SUB DUP2 PUSH1 0x0 DUP8 DUP1 EXTCODESIZE ISZERO DUP1 ISZERO PUSH2 0x61E JUMPI PUSH1 0x0 DUP1 REVERT JUMPDEST POP GAS CALL ISZERO DUP1 ISZERO PUSH2 0x632 JUMPI RETURNDATASIZE PUSH1 0x0 DUP1 RETURNDATACOPY RETURNDATASIZE PUSH1 0x0 REVERT JUMPDEST POP POP POP POP DUP1 SWAP4 POP POP POP POP SWAP4 SWAP3 POP POP POP JUMP JUMPDEST PUSH2 0x64B PUSH2 0xE7F JUMP JUMPDEST PUSH20 0xFFFFFFFFFFFFFFFFFFFFFFFFFFFFFFFFFFFFFFFF AND PUSH2 0x669 PUSH2 0x82C JUMP JUMPDEST PUSH20 0xFFFFFFFFFFFFFFFFFFFFFFFFFFFFFFFFFFFFFFFF AND EQ PUSH2 0x6BF JUMPI PUSH1 0x40 MLOAD PUSH32 0x8C379A000000000000000000000000000000000000000000000000000000000 DUP2 MSTORE PUSH1 0x4 ADD PUSH2 0x6B6 SWAP1 PUSH2 0x15F0 JUMP JUMPDEST PUSH1 0x40 MLOAD DUP1 SWAP2 SUB SWAP1 REVERT JUMPDEST PUSH1 0x0 PUSH20 0xFFFFFFFFFFFFFFFFFFFFFFFFFFFFFFFFFFFFFFFF AND PUSH1 0x0 DUP1 SLOAD SWAP1 PUSH2 0x100 EXP SWAP1 DIV PUSH20 0xFFFFFFFFFFFFFFFFFFFFFFFFFFFFFFFFFFFFFFFF AND PUSH20 0xFFFFFFFFFFFFFFFFFFFFFFFFFFFFFFFFFFFFFFFF AND PUSH32 0x8BE0079C531659141344CD1FD0A4F28419497F9722A3DAAFE3B4186F6B6457E0 PUSH1 0x40 MLOAD PUSH1 0x40 MLOAD DUP1 SWAP2 SUB SWAP1 LOG3 PUSH1 0x0 DUP1 PUSH1 0x0 PUSH2 0x100 EXP DUP2 SLOAD DUP2 PUSH20 0xFFFFFFFFFFFFFFFFFFFFFFFFFFFFFFFFFFFFFFFF MUL NOT AND SWAP1 DUP4 PUSH20 0xFFFFFFFFFFFFFFFFFFFFFFFFFFFFFFFFFFFFFFFF AND MUL OR SWAP1 SSTORE POP JUMP JUMPDEST PUSH1 0x0 DUP1 PUSH2 0x78B DUP7 DUP7 DUP7 PUSH2 0x366 JUMP JUMPDEST SWAP1 POP DUP4 PUSH20 0xFFFFFFFFFFFFFFFFFFFFFFFFFFFFFFFFFFFFFFFF AND PUSH4 0x77372213 DUP3 DUP6 PUSH1 0x40 MLOAD DUP4 PUSH4 0xFFFFFFFF AND PUSH1 0xE0 SHL DUP2 MSTORE PUSH1 0x4 ADD PUSH2 0x7C8 SWAP3 SWAP2 SWAP1 PUSH2 0x167E JUMP JUMPDEST PUSH1 0x0 PUSH1 0x40 MLOAD DUP1 DUP4 SUB DUP2 PUSH1 0x0 DUP8 DUP1 EXTCODESIZE ISZERO DUP1 ISZERO PUSH2 0x7E2 JUMPI PUSH1 0x0 DUP1 REVERT JUMPDEST POP GAS CALL ISZERO DUP1 ISZERO PUSH2 0x7F6 JUMPI RETURNDATASIZE PUSH1 0x0 DUP1 RETURNDATACOPY RETURNDATASIZE PUSH1 0x0 REVERT JUMPDEST POP POP POP POP DUP1 SWAP2 POP POP SWAP5 SWAP4 POP POP POP POP JUMP JUMPDEST PUSH1 0x2 PUSH1 0x0 SWAP1 SLOAD SWAP1 PUSH2 0x100 EXP SWAP1 DIV PUSH20 0xFFFFFFFFFFFFFFFFFFFFFFFFFFFFFFFFFFFFFFFF AND DUP2 JUMP JUMPDEST PUSH1 0x0 DUP1 PUSH1 0x0 SWAP1 SLOAD SWAP1 PUSH2 0x100 EXP SWAP1 DIV PUSH20 0xFFFFFFFFFFFFFFFFFFFFFFFFFFFFFFFFFFFFFFFF AND SWAP1 POP SWAP1 JUMP JUMPDEST PUSH1 0x0 PUSH32 0x91D1777781884D03A6757A803996E38DE2A42967FB37EEACA72729271025A9E2 PUSH1 0x0 SHL PUSH2 0x884 DUP4 PUSH2 0xDF7 JUMP JUMPDEST PUSH1 0x40 MLOAD PUSH1 0x20 ADD PUSH2 0x895 SWAP3 SWAP2 SWAP1 PUSH2 0x14D6 JUMP JUMPDEST PUSH1 0x40 MLOAD PUSH1 0x20 DUP2 DUP4 SUB SUB DUP2 MSTORE SWAP1 PUSH1 0x40 MSTORE DUP1 MLOAD SWAP1 PUSH1 0x20 ADD KECCAK256 SWAP1 POP SWAP2 SWAP1 POP JUMP JUMPDEST PUSH1 0x0 PUSH2 0x8E2 CALLER CALLER PUSH1 0x2 PUSH1 0x0 SWAP1 SLOAD SWAP1 PUSH2 0x100 EXP SWAP1 DIV PUSH20 0xFFFFFFFFFFFFFFFFFFFFFFFFFFFFFFFFFFFFFFFF AND DUP6 PUSH2 0x77D JUMP JUMPDEST SWAP1 POP SWAP2 SWAP1 POP JUMP JUMPDEST PUSH2 0x8F1 PUSH2 0xE7F JUMP JUMPDEST PUSH20 0xFFFFFFFFFFFFFFFFFFFFFFFFFFFFFFFFFFFFFFFF AND PUSH2 0x90F PUSH2 0x82C JUMP JUMPDEST PUSH20 0xFFFFFFFFFFFFFFFFFFFFFFFFFFFFFFFFFFFFFFFF AND EQ PUSH2 0x965 JUMPI PUSH1 0x40 MLOAD PUSH32 0x8C379A000000000000000000000000000000000000000000000000000000000 DUP2 MSTORE PUSH1 0x4 ADD PUSH2 0x95C SWAP1 PUSH2 0x15F0 JUMP JUMPDEST PUSH1 0x40 MLOAD DUP1 SWAP2 SUB SWAP1 REVERT JUMPDEST PUSH1 0x0 PUSH20 0xFFFFFFFFFFFFFFFFFFFFFFFFFFFFFFFFFFFFFFFF AND DUP2 PUSH20 0xFFFFFFFFFFFFFFFFFFFFFFFFFFFFFFFFFFFFFFFF AND SUB PUSH2 0x9D4 JUMPI PUSH1 0x40 MLOAD PUSH32 0x8C379A000000000000000000000000000000000000000000000000000000000 DUP2 MSTORE PUSH1 0x4 ADD PUSH2 0x9CB SWAP1 PUSH2 0x1720 JUMP JUMPDEST PUSH1 0x40 MLOAD DUP1 SWAP2 SUB SWAP1 REVERT JUMPDEST DUP1 PUSH1 0x2 PUSH1 0x0 PUSH2 0x100 EXP DUP2 SLOAD DUP2 PUSH20 0xFFFFFFFFFFFFFFFFFFFFFFFFFFFFFFFFFFFFFFFF MUL NOT AND SWAP1 DUP4 PUSH20 0xFFFFFFFFFFFFFFFFFFFFFFFFFFFFFFFFFFFFFFFF AND MUL OR SWAP1 SSTORE POP DUP1 PUSH20 0xFFFFFFFFFFFFFFFFFFFFFFFFFFFFFFFFFFFFFFFF AND PUSH32 0xEAE17A84D9EB83D8C8EB317F9E7D64857BC363FA51674D996C023F4340C577CF PUSH1 0x40 MLOAD PUSH1 0x40 MLOAD DUP1 SWAP2 SUB SWAP1 LOG2 POP JUMP JUMPDEST PUSH1 0x1 PUSH1 0x20 MSTORE DUP1 PUSH1 0x0 MSTORE PUSH1 0x40 PUSH1 0x0 KECCAK256 PUSH1 0x0 SWAP2 POP SLOAD SWAP1 PUSH2 0x100 EXP SWAP1 DIV PUSH1 0xFF AND DUP2 JUMP JUMPDEST PUSH2 0xA83 PUSH2 0xE7F JUMP JUMPDEST PUSH20 0xFFFFFFFFFFFFFFFFFFFFFFFFFFFFFFFFFFFFFFFF AND PUSH2 0xAA1 PUSH2 0x82C JUMP JUMPDEST PUSH20 0xFFFFFFFFFFFFFFFFFFFFFFFFFFFFFFFFFFFFFFFF AND EQ PUSH2 0xAF7 JUMPI PUSH1 0x40 MLOAD PUSH32 0x8C379A000000000000000000000000000000000000000000000000000000000 DUP2 MSTORE PUSH1 0x4 ADD PUSH2 0xAEE SWAP1 PUSH2 0x15F0 JUMP JUMPDEST PUSH1 0x40 MLOAD DUP1 SWAP2 SUB SWAP1 REVERT JUMPDEST DUP1 PUSH1 0x1 PUSH1 0x0 DUP5 PUSH20 0xFFFFFFFFFFFFFFFFFFFFFFFFFFFFFFFFFFFFFFFF AND PUSH20 0xFFFFFFFFFFFFFFFFFFFFFFFFFFFFFFFFFFFFFFFF AND DUP2 MSTORE PUSH1 0x20 ADD SWAP1 DUP2 MSTORE PUSH1 0x20 ADD PUSH1 0x0 KECCAK256 PUSH1 0x0 PUSH2 0x100 EXP DUP2 SLOAD DUP2 PUSH1 0xFF MUL NOT AND SWAP1 DUP4 ISZERO ISZERO MUL OR SWAP1 SSTORE POP DUP2 PUSH20 0xFFFFFFFFFFFFFFFFFFFFFFFFFFFFFFFFFFFFFFFF AND PUSH32 0x4C97694570A07277810AF7E5669FFD5F6A2D6B74B6E9A274B8B870FD5114CF87 DUP3 PUSH1 0x40 MLOAD PUSH2 0xB94 SWAP2 SWAP1 PUSH2 0x12FA JUMP JUMPDEST PUSH1 0x40 MLOAD DUP1 SWAP2 SUB SWAP1 LOG2 POP POP JUMP JUMPDEST PUSH2 0xBA8 PUSH2 0xE7F JUMP JUMPDEST PUSH20 0xFFFFFFFFFFFFFFFFFFFFFFFFFFFFFFFFFFFFFFFF AND PUSH2 0xBC6 PUSH2 0x82C JUMP JUMPDEST PUSH20 0xFFFFFFFFFFFFFFFFFFFFFFFFFFFFFFFFFFFFFFFF AND EQ PUSH2 0xC1C JUMPI PUSH1 0x40 MLOAD PUSH32 0x8C379A000000000000000000000000000000000000000000000000000000000 DUP2 MSTORE PUSH1 0x4 ADD PUSH2 0xC13 SWAP1 PUSH2 0x15F0 JUMP JUMPDEST PUSH1 0x40 MLOAD DUP1 SWAP2 SUB SWAP1 REVERT JUMPDEST PUSH1 0x0 PUSH20 0xFFFFFFFFFFFFFFFFFFFFFFFFFFFFFFFFFFFFFFFF AND DUP2 PUSH20 0xFFFFFFFFFFFFFFFFFFFFFFFFFFFFFFFFFFFFFFFF AND SUB PUSH2 0xC8B JUMPI PUSH1 0x40 MLOAD PUSH32 0x8C379A000000000000000000000000000000000000000000000000000000000 DUP2 MSTORE PUSH1 0x4 ADD PUSH2 0xC82 SWAP1 PUSH2 0x17B2 JUMP JUMPDEST PUSH1 0x40 MLOAD DUP1 SWAP2 SUB SWAP1 REVERT JUMPDEST DUP1 PUSH20 0xFFFFFFFFFFFFFFFFFFFFFFFFFFFFFFFFFFFFFFFF AND PUSH1 0x0 DUP1 SLOAD SWAP1 PUSH2 0x100 EXP SWAP1 DIV PUSH20 0xFFFFFFFFFFFFFFFFFFFFFFFFFFFFFFFFFFFFFFFF AND PUSH20 0xFFFFFFFFFFFFFFFFFFFFFFFFFFFFFFFFFFFFFFFF AND PUSH32 0x8BE0079C531659141344CD1FD0A4F28419497F9722A3DAAFE3B4186F6B6457E0 PUSH1 0x40 MLOAD PUSH1 0x40 MLOAD DUP1 SWAP2 SUB SWAP1 LOG3 DUP1 PUSH1 0x0 DUP1 PUSH2 0x100 EXP DUP2 SLOAD DUP2 PUSH20 0xFFFFFFFFFFFFFFFFFFFFFFFFFFFFFFFFFFFFFFFF MUL NOT AND SWAP1 DUP4 PUSH20 0xFFFFFFFFFFFFFFFFFFFFFFFFFFFFFFFFFFFFFFFF AND MUL OR SWAP1 SSTORE POP POP JUMP JUMPDEST PUSH1 0x0 DUP2 PUSH20 0xFFFFFFFFFFFFFFFFFFFFFFFFFFFFFFFFFFFFFFFF AND PUSH4 0x8DA5CB5B PUSH1 0x40 MLOAD DUP2 PUSH4 0xFFFFFFFF AND PUSH1 0xE0 SHL DUP2 MSTORE PUSH1 0x4 ADD PUSH1 0x20 PUSH1 0x40 MLOAD DUP1 DUP4 SUB DUP2 DUP7 GAS STATICCALL SWAP3 POP POP POP DUP1 ISZERO PUSH2 0xDB2 JUMPI POP PUSH1 0x40 MLOAD RETURNDATASIZE PUSH1 0x1F NOT PUSH1 0x1F DUP3 ADD AND DUP3 ADD DUP1 PUSH1 0x40 MSTORE POP DUP2 ADD SWAP1 PUSH2 0xDAF SWAP2 SWAP1 PUSH2 0x17E7 JUMP JUMPDEST PUSH1 0x1 JUMPDEST PUSH2 0xDBF JUMPI PUSH1 0x0 SWAP1 POP PUSH2 0xDF2 JUMP JUMPDEST CALLER PUSH20 0xFFFFFFFFFFFFFFFFFFFFFFFFFFFFFFFFFFFFFFFF AND DUP2 PUSH20 0xFFFFFFFFFFFFFFFFFFFFFFFFFFFFFFFFFFFFFFFF AND EQ SWAP2 POP POP JUMPDEST SWAP2 SWAP1 POP JUMP JUMPDEST PUSH1 0x0 PUSH1 0x28 JUMPDEST PUSH1 0x0 DUP2 GT ISZERO PUSH2 0xE72 JUMPI PUSH1 0x1 DUP2 SUB SWAP1 POP PUSH32 0x3031323334353637383961626364656600000000000000000000000000000000 PUSH1 0xF DUP5 AND BYTE DUP2 MSTORE8 PUSH1 0x10 DUP4 DIV SWAP3 POP PUSH1 0x1 DUP2 SUB SWAP1 POP PUSH32 0x3031323334353637383961626364656600000000000000000000000000000000 PUSH1 0xF DUP5 AND BYTE DUP2 MSTORE8 PUSH1 0x10 DUP4 DIV SWAP3 POP PUSH2 0xDFC JUMP JUMPDEST POP PUSH1 0x28 PUSH1 0x0 KECCAK256 SWAP1 POP SWAP2 SWAP1 POP JUMP JUMPDEST PUSH1 0x0 CALLER SWAP1 POP SWAP1 JUMP JUMPDEST PUSH1 0x0 PUSH1 0x40 MLOAD SWAP1 POP SWAP1 JUMP JUMPDEST PUSH1 0x0 DUP1 REVERT JUMPDEST PUSH1 0x0 DUP1 REVERT JUMPDEST PUSH1 0x0 PUSH20 0xFFFFFFFFFFFFFFFFFFFFFFFFFFFFFFFFFFFFFFFF DUP3 AND SWAP1 POP SWAP2 SWAP1 POP JUMP JUMPDEST PUSH1 0x0 PUSH2 0xEC6 DUP3 PUSH2 0xE9B JUMP JUMPDEST SWAP1 POP SWAP2 SWAP1 POP JUMP JUMPDEST PUSH2 0xED6 DUP2 PUSH2 0xEBB JUMP JUMPDEST DUP2 EQ PUSH2 0xEE1 JUMPI PUSH1 0x0 DUP1 REVERT JUMPDEST POP JUMP JUMPDEST PUSH1 0x0 DUP2 CALLDATALOAD SWAP1 POP PUSH2 0xEF3 DUP2 PUSH2 0xECD JUMP JUMPDEST SWAP3 SWAP2 POP POP JUMP JUMPDEST PUSH1 0x0 DUP1 PUSH1 0x40 DUP4 DUP6 SUB SLT ISZERO PUSH2 0xF10 JUMPI PUSH2 0xF0F PUSH2 0xE91 JUMP JUMPDEST JUMPDEST PUSH1 0x0 PUSH2 0xF1E DUP6 DUP3 DUP7 ADD PUSH2 0xEE4 JUMP JUMPDEST SWAP3 POP POP PUSH1 0x20 PUSH2 0xF2F DUP6 DUP3 DUP7 ADD PUSH2 0xEE4 JUMP JUMPDEST SWAP2 POP POP SWAP3 POP SWAP3 SWAP1 POP JUMP JUMPDEST PUSH1 0x0 DUP2 SWAP1 POP SWAP2 SWAP1 POP JUMP JUMPDEST PUSH2 0xF4C DUP2 PUSH2 0xF39 JUMP JUMPDEST DUP3 MSTORE POP POP JUMP JUMPDEST PUSH1 0x0 PUSH1 0x20 DUP3 ADD SWAP1 POP PUSH2 0xF67 PUSH1 0x0 DUP4 ADD DUP5 PUSH2 0xF43 JUMP JUMPDEST SWAP3 SWAP2 POP POP JUMP JUMPDEST PUSH1 0x0 PUSH1 0x20 DUP3 DUP5 SUB SLT ISZERO PUSH2 0xF83 JUMPI PUSH2 0xF82 PUSH2 0xE91 JUMP JUMPDEST JUMPDEST PUSH1 0x0 PUSH2 0xF91 DUP5 DUP3 DUP6 ADD PUSH2 0xEE4 JUMP JUMPDEST SWAP2 POP POP SWAP3 SWAP2 POP POP JUMP JUMPDEST PUSH1 0x0 DUP2 SWAP1 POP SWAP2 SWAP1 POP JUMP JUMPDEST PUSH1 0x0 PUSH2 0xFBF PUSH2 0xFBA PUSH2 0xFB5 DUP5 PUSH2 0xE9B JUMP JUMPDEST PUSH2 0xF9A JUMP JUMPDEST PUSH2 0xE9B JUMP JUMPDEST SWAP1 POP SWAP2 SWAP1 POP JUMP JUMPDEST PUSH1 0x0 PUSH2 0xFD1 DUP3 PUSH2 0xFA4 JUMP JUMPDEST SWAP1 POP SWAP2 SWAP1 POP JUMP JUMPDEST PUSH1 0x0 PUSH2 0xFE3 DUP3 PUSH2 0xFC6 JUMP JUMPDEST SWAP1 POP SWAP2 SWAP1 POP JUMP JUMPDEST PUSH2 0xFF3 DUP2 PUSH2 0xFD8 JUMP JUMPDEST DUP3 MSTORE POP POP JUMP JUMPDEST PUSH1 0x0 PUSH1 0x20 DUP3 ADD SWAP1 POP PUSH2 0x100E PUSH1 0x0 DUP4 ADD DUP5 PUSH2 0xFEA JUMP JUMPDEST SWAP3 SWAP2 POP POP JUMP JUMPDEST PUSH1 0x0 DUP1 PUSH1 0x0 PUSH1 0x60 DUP5 DUP7 SUB SLT ISZERO PUSH2 0x102D JUMPI PUSH2 0x102C PUSH2 0xE91 JUMP JUMPDEST JUMPDEST PUSH1 0x0 PUSH2 0x103B DUP7 DUP3 DUP8 ADD PUSH2 0xEE4 JUMP JUMPDEST SWAP4 POP POP PUSH1 0x20 PUSH2 0x104C DUP7 DUP3 DUP8 ADD PUSH2 0xEE4 JUMP JUMPDEST SWAP3 POP POP PUSH1 0x40 PUSH2 0x105D DUP7 DUP3 DUP8 ADD PUSH2 0xEE4 JUMP JUMPDEST SWAP2 POP POP SWAP3 POP SWAP3 POP SWAP3 JUMP JUMPDEST PUSH1 0x0 DUP1 REVERT JUMPDEST PUSH1 0x0 DUP1 REVERT JUMPDEST PUSH1 0x0 PUSH1 0x1F NOT PUSH1 0x1F DUP4 ADD AND SWAP1 POP SWAP2 SWAP1 POP JUMP JUMPDEST PUSH32 0x4E487B7100000000000000000000000000000000000000000000000000000000 PUSH1 0x0 MSTORE PUSH1 0x41 PUSH1 0x4 MSTORE PUSH1 0x24 PUSH1 0x0 REVERT JUMPDEST PUSH2 0x10BA DUP3 PUSH2 0x1071 JUMP JUMPDEST DUP2 ADD DUP2 DUP2 LT PUSH8 0xFFFFFFFFFFFFFFFF DUP3 GT OR ISZERO PUSH2 0x10D9 JUMPI PUSH2 0x10D8 PUSH2 0x1082 JUMP JUMPDEST JUMPDEST DUP1 PUSH1 0x40 MSTORE POP POP POP JUMP JUMPDEST PUSH1 0x0 PUSH2 0x10EC PUSH2 0xE87 JUMP JUMPDEST SWAP1 POP PUSH2 0x10F8 DUP3 DUP3 PUSH2 0x10B1 JUMP JUMPDEST SWAP2 SWAP1 POP JUMP JUMPDEST PUSH1 0x0 PUSH8 0xFFFFFFFFFFFFFFFF DUP3 GT ISZERO PUSH2 0x1118 JUMPI PUSH2 0x1117 PUSH2 0x1082 JUMP JUMPDEST JUMPDEST PUSH2 0x1121 DUP3 PUSH2 0x1071 JUMP JUMPDEST SWAP1 POP PUSH1 0x20 DUP2 ADD SWAP1 POP SWAP2 SWAP1 POP JUMP JUMPDEST DUP3 DUP2 DUP4 CALLDATACOPY PUSH1 0x0 DUP4 DUP4 ADD MSTORE POP POP POP JUMP JUMPDEST PUSH1 0x0 PUSH2 0x1150 PUSH2 0x114B DUP5 PUSH2 0x10FD JUMP JUMPDEST PUSH2 0x10E2 JUMP JUMPDEST SWAP1 POP DUP3 DUP2 MSTORE PUSH1 0x20 DUP2 ADD DUP5 DUP5 DUP5 ADD GT ISZERO PUSH2 0x116C JUMPI PUSH2 0x116B PUSH2 0x106C JUMP JUMPDEST JUMPDEST PUSH2 0x1177 DUP5 DUP3 DUP6 PUSH2 0x112E JUMP JUMPDEST POP SWAP4 SWAP3 POP POP POP JUMP JUMPDEST PUSH1 0x0 DUP3 PUSH1 0x1F DUP4 ADD SLT PUSH2 0x1194 JUMPI PUSH2 0x1193 PUSH2 0x1067 JUMP JUMPDEST JUMPDEST DUP2 CALLDATALOAD PUSH2 0x11A4 DUP5 DUP3 PUSH1 0x20 DUP7 ADD PUSH2 0x113D JUMP JUMPDEST SWAP2 POP POP SWAP3 SWAP2 POP POP JUMP JUMPDEST PUSH1 0x0 DUP1 PUSH1 0x0 DUP1 PUSH1 0x80 DUP6 DUP8 SUB SLT ISZERO PUSH2 0x11C7 JUMPI PUSH2 0x11C6 PUSH2 0xE91 JUMP JUMPDEST JUMPDEST PUSH1 0x0 PUSH2 0x11D5 DUP8 DUP3 DUP9 ADD PUSH2 0xEE4 JUMP JUMPDEST SWAP5 POP POP PUSH1 0x20 PUSH2 0x11E6 DUP8 DUP3 DUP9 ADD PUSH2 0xEE4 JUMP JUMPDEST SWAP4 POP POP PUSH1 0x40 PUSH2 0x11F7 DUP8 DUP3 DUP9 ADD PUSH2 0xEE4 JUMP JUMPDEST SWAP3 POP POP PUSH1 0x60 DUP6 ADD CALLDATALOAD PUSH8 0xFFFFFFFFFFFFFFFF DUP2 GT ISZERO PUSH2 0x1218 JUMPI PUSH2 0x1217 PUSH2 0xE96 JUMP JUMPDEST JUMPDEST PUSH2 0x1224 DUP8 DUP3 DUP9 ADD PUSH2 0x117F JUMP JUMPDEST SWAP2 POP POP SWAP3 SWAP6 SWAP2 SWAP5 POP SWAP3 POP JUMP JUMPDEST PUSH1 0x0 PUSH2 0x123B DUP3 PUSH2 0xFC6 JUMP JUMPDEST SWAP1 POP SWAP2 SWAP1 POP JUMP JUMPDEST PUSH2 0x124B DUP2 PUSH2 0x1230 JUMP JUMPDEST DUP3 MSTORE POP POP JUMP JUMPDEST PUSH1 0x0 PUSH1 0x20 DUP3 ADD SWAP1 POP PUSH2 0x1266 PUSH1 0x0 DUP4 ADD DUP5 PUSH2 0x1242 JUMP JUMPDEST SWAP3 SWAP2 POP POP JUMP JUMPDEST PUSH2 0x1275 DUP2 PUSH2 0xEBB JUMP JUMPDEST DUP3 MSTORE POP POP JUMP JUMPDEST PUSH1 0x0 PUSH1 0x20 DUP3 ADD SWAP1 POP PUSH2 0x1290 PUSH1 0x0 DUP4 ADD DUP5 PUSH2 0x126C JUMP JUMPDEST SWAP3 SWAP2 POP POP JUMP JUMPDEST PUSH1 0x0 PUSH1 0x20 DUP3 DUP5 SUB SLT ISZERO PUSH2 0x12AC JUMPI PUSH2 0x12AB PUSH2 0xE91 JUMP JUMPDEST JUMPDEST PUSH1 0x0 DUP3 ADD CALLDATALOAD PUSH8 0xFFFFFFFFFFFFFFFF DUP2 GT ISZERO PUSH2 0x12CA JUMPI PUSH2 0x12C9 PUSH2 0xE96 JUMP JUMPDEST JUMPDEST PUSH2 0x12D6 DUP5 DUP3 DUP6 ADD PUSH2 0x117F JUMP JUMPDEST SWAP2 POP POP SWAP3 SWAP2 POP POP JUMP JUMPDEST PUSH1 0x0 DUP2 ISZERO ISZERO SWAP1 POP SWAP2 SWAP1 POP JUMP JUMPDEST PUSH2 0x12F4 DUP2 PUSH2 0x12DF JUMP JUMPDEST DUP3 MSTORE POP POP JUMP JUMPDEST PUSH1 0x0 PUSH1 0x20 DUP3 ADD SWAP1 POP PUSH2 0x130F PUSH1 0x0 DUP4 ADD DUP5 PUSH2 0x12EB JUMP JUMPDEST SWAP3 SWAP2 POP POP JUMP JUMPDEST PUSH2 0x131E DUP2 PUSH2 0x12DF JUMP JUMPDEST DUP2 EQ PUSH2 0x1329 JUMPI PUSH1 0x0 DUP1 REVERT JUMPDEST POP JUMP JUMPDEST PUSH1 0x0 DUP2 CALLDATALOAD SWAP1 POP PUSH2 0x133B DUP2 PUSH2 0x1315 JUMP JUMPDEST SWAP3 SWAP2 POP POP JUMP JUMPDEST PUSH1 0x0 DUP1 PUSH1 0x40 DUP4 DUP6 SUB SLT ISZERO PUSH2 0x1358 JUMPI PUSH2 0x1357 PUSH2 0xE91 JUMP JUMPDEST JUMPDEST PUSH1 0x0 PUSH2 0x1366 DUP6 DUP3 DUP7 ADD PUSH2 0xEE4 JUMP JUMPDEST SWAP3 POP POP PUSH1 0x20 PUSH2 0x1377 DUP6 DUP3 DUP7 ADD PUSH2 0x132C JUMP JUMPDEST SWAP2 POP POP SWAP3 POP SWAP3 SWAP1 POP JUMP JUMPDEST PUSH1 0x0 PUSH1 0x40 DUP3 ADD SWAP1 POP PUSH2 0x1396 PUSH1 0x0 DUP4 ADD DUP6 PUSH2 0x126C JUMP JUMPDEST PUSH2 0x13A3 PUSH1 0x20 DUP4 ADD DUP5 PUSH2 0x126C JUMP JUMPDEST SWAP4 SWAP3 POP POP POP JUMP JUMPDEST PUSH1 0x0 DUP2 MLOAD SWAP1 POP PUSH2 0x13B9 DUP2 PUSH2 0x1315 JUMP JUMPDEST SWAP3 SWAP2 POP POP JUMP JUMPDEST PUSH1 0x0 PUSH1 0x20 DUP3 DUP5 SUB SLT ISZERO PUSH2 0x13D5 JUMPI PUSH2 0x13D4 PUSH2 0xE91 JUMP JUMPDEST JUMPDEST PUSH1 0x0 PUSH2 0x13E3 DUP5 DUP3 DUP6 ADD PUSH2 0x13AA JUMP JUMPDEST SWAP2 POP POP SWAP3 SWAP2 POP POP JUMP JUMPDEST PUSH1 0x0 DUP3 DUP3 MSTORE PUSH1 0x20 DUP3 ADD SWAP1 POP SWAP3 SWAP2 POP POP JUMP JUMPDEST PUSH32 0x526576657273655265676973747261723A2043616C6C6572206973206E6F7420 PUSH1 0x0 DUP3 ADD MSTORE PUSH32 0x6120636F6E74726F6C6C6572206F7220617574686F7269736564206279206164 PUSH1 0x20 DUP3 ADD MSTORE PUSH32 0x6472657373206F7220746865206164647265737320697473656C660000000000 PUSH1 0x40 DUP3 ADD MSTORE POP JUMP JUMPDEST PUSH1 0x0 PUSH2 0x147F PUSH1 0x5B DUP4 PUSH2 0x13EC JUMP JUMPDEST SWAP2 POP PUSH2 0x148A DUP3 PUSH2 0x13FD JUMP JUMPDEST PUSH1 0x60 DUP3 ADD SWAP1 POP SWAP2 SWAP1 POP JUMP JUMPDEST PUSH1 0x0 PUSH1 0x20 DUP3 ADD SWAP1 POP DUP2 DUP2 SUB PUSH1 0x0 DUP4 ADD MSTORE PUSH2 0x14AE DUP2 PUSH2 0x1472 JUMP JUMPDEST SWAP1 POP SWAP2 SWAP1 POP JUMP JUMPDEST PUSH1 0x0 DUP2 SWAP1 POP SWAP2 SWAP1 POP JUMP JUMPDEST PUSH2 0x14D0 PUSH2 0x14CB DUP3 PUSH2 0xF39 JUMP JUMPDEST PUSH2 0x14B5 JUMP JUMPDEST DUP3 MSTORE POP POP JUMP JUMPDEST PUSH1 0x0 PUSH2 0x14E2 DUP3 DUP6 PUSH2 0x14BF JUMP JUMPDEST PUSH1 0x20 DUP3 ADD SWAP2 POP PUSH2 0x14F2 DUP3 DUP5 PUSH2 0x14BF JUMP JUMPDEST PUSH1 0x20 DUP3 ADD SWAP2 POP DUP2 SWAP1 POP SWAP4 SWAP3 POP POP POP JUMP JUMPDEST PUSH1 0x0 DUP2 SWAP1 POP SWAP2 SWAP1 POP JUMP JUMPDEST PUSH1 0x0 PUSH8 0xFFFFFFFFFFFFFFFF DUP3 AND SWAP1 POP SWAP2 SWAP1 POP JUMP JUMPDEST PUSH1 0x0 PUSH2 0x153B PUSH2 0x1536 PUSH2 0x1531 DUP5 PUSH2 0x1502 JUMP JUMPDEST PUSH2 0xF9A JUMP JUMPDEST PUSH2 0x150C JUMP JUMPDEST SWAP1 POP SWAP2 SWAP1 POP JUMP JUMPDEST PUSH2 0x154B DUP2 PUSH2 0x1520 JUMP JUMPDEST DUP3 MSTORE POP POP JUMP JUMPDEST PUSH1 0x0 PUSH1 0xA0 DUP3 ADD SWAP1 POP PUSH2 0x1566 PUSH1 0x0 DUP4 ADD DUP9 PUSH2 0xF43 JUMP JUMPDEST PUSH2 0x1573 PUSH1 0x20 DUP4 ADD DUP8 PUSH2 0xF43 JUMP JUMPDEST PUSH2 0x1580 PUSH1 0x40 DUP4 ADD DUP7 PUSH2 0x126C JUMP JUMPDEST PUSH2 0x158D PUSH1 0x60 DUP4 ADD DUP6 PUSH2 0x126C JUMP JUMPDEST PUSH2 0x159A PUSH1 0x80 DUP4 ADD DUP5 PUSH2 0x1542 JUMP JUMPDEST SWAP7 SWAP6 POP POP POP POP POP POP JUMP JUMPDEST PUSH32 0x4F776E61626C653A2063616C6C6572206973206E6F7420746865206F776E6572 PUSH1 0x0 DUP3 ADD MSTORE POP JUMP JUMPDEST PUSH1 0x0 PUSH2 0x15DA PUSH1 0x20 DUP4 PUSH2 0x13EC JUMP JUMPDEST SWAP2 POP PUSH2 0x15E5 DUP3 PUSH2 0x15A4 JUMP JUMPDEST PUSH1 0x20 DUP3 ADD SWAP1 POP SWAP2 SWAP1 POP JUMP JUMPDEST PUSH1 0x0 PUSH1 0x20 DUP3 ADD SWAP1 POP DUP2 DUP2 SUB PUSH1 0x0 DUP4 ADD MSTORE PUSH2 0x1609 DUP2 PUSH2 0x15CD JUMP JUMPDEST SWAP1 POP SWAP2 SWAP1 POP JUMP JUMPDEST PUSH1 0x0 DUP2 MLOAD SWAP1 POP SWAP2 SWAP1 POP JUMP JUMPDEST PUSH1 0x0 JUMPDEST DUP4 DUP2 LT ISZERO PUSH2 0x1639 JUMPI DUP1 DUP3 ADD MLOAD DUP2 DUP5 ADD MSTORE PUSH1 0x20 DUP2 ADD SWAP1 POP PUSH2 0x161E JUMP JUMPDEST PUSH1 0x0 DUP5 DUP5 ADD MSTORE POP POP POP POP JUMP JUMPDEST PUSH1 0x0 PUSH2 0x1650 DUP3 PUSH2 0x1610 JUMP JUMPDEST PUSH2 0x165A DUP2 DUP6 PUSH2 0x13EC JUMP JUMPDEST SWAP4 POP PUSH2 0x166A DUP2 DUP6 PUSH1 0x20 DUP7 ADD PUSH2 0x161B JUMP JUMPDEST PUSH2 0x1673 DUP2 PUSH2 0x1071 JUMP JUMPDEST DUP5 ADD SWAP2 POP POP SWAP3 SWAP2 POP POP JUMP JUMPDEST PUSH1 0x0 PUSH1 0x40 DUP3 ADD SWAP1 POP PUSH2 0x1693 PUSH1 0x0 DUP4 ADD DUP6 PUSH2 0xF43 JUMP JUMPDEST DUP2 DUP2 SUB PUSH1 0x20 DUP4 ADD MSTORE PUSH2 0x16A5 DUP2 DUP5 PUSH2 0x1645 JUMP JUMPDEST SWAP1 POP SWAP4 SWAP3 POP POP POP JUMP JUMPDEST PUSH32 0x526576657273655265676973747261723A205265736F6C766572206164647265 PUSH1 0x0 DUP3 ADD MSTORE PUSH32 0x7373206D757374206E6F74206265203000000000000000000000000000000000 PUSH1 0x20 DUP3 ADD MSTORE POP JUMP JUMPDEST PUSH1 0x0 PUSH2 0x170A PUSH1 0x30 DUP4 PUSH2 0x13EC JUMP JUMPDEST SWAP2 POP PUSH2 0x1715 DUP3 PUSH2 0x16AE JUMP JUMPDEST PUSH1 0x40 DUP3 ADD SWAP1 POP SWAP2 SWAP1 POP JUMP JUMPDEST PUSH1 0x0 PUSH1 0x20 DUP3 ADD SWAP1 POP DUP2 DUP2 SUB PUSH1 0x0 DUP4 ADD MSTORE PUSH2 0x1739 DUP2 PUSH2 0x16FD JUMP JUMPDEST SWAP1 POP SWAP2 SWAP1 POP JUMP JUMPDEST PUSH32 0x4F776E61626C653A206E6577206F776E657220697320746865207A65726F2061 PUSH1 0x0 DUP3 ADD MSTORE PUSH32 0x6464726573730000000000000000000000000000000000000000000000000000 PUSH1 0x20 DUP3 ADD MSTORE POP JUMP JUMPDEST PUSH1 0x0 PUSH2 0x179C PUSH1 0x26 DUP4 PUSH2 0x13EC JUMP JUMPDEST SWAP2 POP PUSH2 0x17A7 DUP3 PUSH2 0x1740 JUMP JUMPDEST PUSH1 0x40 DUP3 ADD SWAP1 POP SWAP2 SWAP1 POP JUMP JUMPDEST PUSH1 0x0 PUSH1 0x20 DUP3 ADD SWAP1 POP DUP2 DUP2 SUB PUSH1 0x0 DUP4 ADD MSTORE PUSH2 0x17CB DUP2 PUSH2 0x178F JUMP JUMPDEST SWAP1 POP SWAP2 SWAP1 POP JUMP JUMPDEST PUSH1 0x0 DUP2 MLOAD SWAP1 POP PUSH2 0x17E1 DUP2 PUSH2 0xECD JUMP JUMPDEST SWAP3 SWAP2 POP POP JUMP JUMPDEST PUSH1 0x0 PUSH1 0x20 DUP3 DUP5 SUB SLT ISZERO PUSH2 0x17FD JUMPI PUSH2 0x17FC PUSH2 0xE91 JUMP JUMPDEST JUMPDEST PUSH1 0x0 PUSH2 0x180B DUP5 DUP3 DUP6 ADD PUSH2 0x17D2 JUMP JUMPDEST SWAP2 POP POP SWAP3 SWAP2 POP POP JUMP INVALID LOG2 PUSH5 0x6970667358 0x22 SLT KECCAK256 CALLDATALOAD GASPRICE 0xDB 0xE6 DUP11 0xB1 0xEC SWAP7 0xEA SWAP7 0x1F PUSH32 0x3F0C7A074887905AF02FB6AFDF7BB820B815B58264736F6C634300081B003300 "
				},
				"gasEstimates": {
					"creation": {
						"codeDepositCost": "1243600",
						"executionCost": "infinite",
						"totalCost": "infinite"
					},
					"external": {
						"claim(address)": "infinite",
						"claimForAddr(address,address,address)": "infinite",
						"claimWithResolver(address,address)": "infinite",
						"controllers(address)": "2889",
						"defaultResolver()": "infinite",
						"ens()": "infinite",
						"node(address)": "infinite",
						"owner()": "2545",
						"renounceOwnership()": "30374",
						"setController(address,bool)": "infinite",
						"setDefaultResolver(address)": "28180",
						"setName(string)": "infinite",
						"setNameForAddr(address,address,address,string)": "infinite",
						"transferOwnership(address)": "30763"
					},
					"internal": {
						"ownsContract(address)": "infinite",
						"sha3HexAddress(address)": "infinite"
					}
				},
				"methodIdentifiers": {
					"claim(address)": "1e83409a",
					"claimForAddr(address,address,address)": "65669631",
					"claimWithResolver(address,address)": "0f5a5466",
					"controllers(address)": "da8c229e",
					"defaultResolver()": "828eab0e",
					"ens()": "3f15457f",
					"node(address)": "bffbe61c",
					"owner()": "8da5cb5b",
					"renounceOwnership()": "715018a6",
					"setController(address,bool)": "e0dba60f",
					"setDefaultResolver(address)": "c66485b2",
					"setName(string)": "c47f0027",
					"setNameForAddr(address,address,address,string)": "7a806d6b",
					"transferOwnership(address)": "f2fde38b"
				}
			},
			"storageLayout": {
				"storage": [
					{
						"astId": 7,
						"contract": "package/contracts/reverseRegistrar/ReverseRegistrar.sol:ReverseRegistrar",
						"label": "_owner",
						"offset": 0,
						"slot": "0",
						"type": "t_address"
					},
					{
						"astId": 691,
						"contract": "package/contracts/reverseRegistrar/ReverseRegistrar.sol:ReverseRegistrar",
						"label": "controllers",
						"offset": 0,
						"slot": "1",
						"type": "t_mapping(t_address,t_bool)"
					},
					{
						"astId": 363,
						"contract": "package/contracts/reverseRegistrar/ReverseRegistrar.sol:ReverseRegistrar",
						"label": "defaultResolver",
						"offset": 0,
						"slot": "2",
						"type": "t_contract(NameResolver)345"
					}
				],
				"types": {
					"t_address": {
						"encoding": "inplace",
						"label": "address",
						"numberOfBytes": "20"
					},
					"t_bool": {
						"encoding": "inplace",
						"label": "bool",
						"numberOfBytes": "1"
					},
					"t_contract(NameResolver)345": {
						"encoding": "inplace",
						"label": "contract NameResolver",
						"numberOfBytes": "20"
					},
					"t_mapping(t_address,t_bool)": {
						"encoding": "mapping",
						"key": "t_address",
						"label": "mapping(address => bool)",
						"numberOfBytes": "32",
						"value": "t_bool"
					}
				}
			},
			"userdoc": {
				"kind": "user",
				"methods": {},
				"version": 1
			}
		}
	}
}