{
  "_format": "hh-sol-artifact-1",
  "contractName": "AttestationService",
  "sourceName": "contracts/AttestationService.sol",
  "abi": [
    {
      "inputs": [],
      "stateMutability": "nonpayable",
      "type": "constructor"
    },
    {
      "inputs": [],
      "name": "AccessControlBadConfirmation",
      "type": "error"
    },
    {
      "inputs": [
        {
          "internalType": "address",
          "name": "account",
          "type": "address"
        },
        {
          "internalType": "bytes32",
          "name": "neededRole",
          "type": "bytes32"
        }
      ],
      "name": "AccessControlUnauthorizedAccount",
      "type": "error"
    },
    {
      "inputs": [
        {
          "internalType": "address",
          "name": "target",
          "type": "address"
        }
      ],
      "name": "AddressEmptyCode",
      "type": "error"
    },
    {
      "inputs": [
        {
          "internalType": "address",
          "name": "implementation",
          "type": "address"
        }
      ],
      "name": "ERC1967InvalidImplementation",
      "type": "error"
    },
    {
      "inputs": [],
      "name": "ERC1967NonPayable",
      "type": "error"
    },
    {
      "inputs": [],
      "name": "FailedInnerCall",
      "type": "error"
    },
    {
      "inputs": [],
      "name": "InvalidInitialization",
      "type": "error"
    },
    {
      "inputs": [],
      "name": "NotInitializing",
      "type": "error"
    },
    {
      "inputs": [],
      "name": "UUPSUnauthorizedCallContext",
      "type": "error"
    },
    {
      "inputs": [
        {
          "internalType": "bytes32",
          "name": "slot",
          "type": "bytes32"
        }
      ],
      "name": "UUPSUnsupportedProxiableUUID",
      "type": "error"
    },
    {
      "anonymous": false,
      "inputs": [
        {
          "indexed": true,
          "internalType": "bytes32",
          "name": "attestationId",
          "type": "bytes32"
        },
        {
          "indexed": true,
          "internalType": "address",
          "name": "recipient",
          "type": "address"
        },
        {
          "indexed": true,
          "internalType": "address",
          "name": "attester",
          "type": "address"
        }
      ],
      "name": "AttestationCreated",
      "type": "event"
    },
    {
      "anonymous": false,
      "inputs": [
        {
          "indexed": false,
          "internalType": "uint64",
          "name": "version",
          "type": "uint64"
        }
      ],
      "name": "Initialized",
      "type": "event"
    },
    {
      "anonymous": false,
      "inputs": [
        {
          "indexed": true,
          "internalType": "bytes32",
          "name": "role",
          "type": "bytes32"
        },
        {
          "indexed": true,
          "internalType": "bytes32",
          "name": "previousAdminRole",
          "type": "bytes32"
        },
        {
          "indexed": true,
          "internalType": "bytes32",
          "name": "newAdminRole",
          "type": "bytes32"
        }
      ],
      "name": "RoleAdminChanged",
      "type": "event"
    },
    {
      "anonymous": false,
      "inputs": [
        {
          "indexed": true,
          "internalType": "bytes32",
          "name": "role",
          "type": "bytes32"
        },
        {
          "indexed": true,
          "internalType": "address",
          "name": "account",
          "type": "address"
        },
        {
          "indexed": true,
          "internalType": "address",
          "name": "sender",
          "type": "address"
        }
      ],
      "name": "RoleGranted",
      "type": "event"
    },
    {
      "anonymous": false,
      "inputs": [
        {
          "indexed": true,
          "internalType": "bytes32",
          "name": "role",
          "type": "bytes32"
        },
        {
          "indexed": true,
          "internalType": "address",
          "name": "account",
          "type": "address"
        },
        {
          "indexed": true,
          "internalType": "address",
          "name": "sender",
          "type": "address"
        }
      ],
      "name": "RoleRevoked",
      "type": "event"
    },
    {
      "anonymous": false,
      "inputs": [
        {
          "indexed": true,
          "internalType": "bytes32",
          "name": "schemaId",
          "type": "bytes32"
        }
      ],
      "name": "SchemaCreated",
      "type": "event"
    },
    {
      "anonymous": false,
      "inputs": [
        {
          "indexed": true,
          "internalType": "address",
          "name": "implementation",
          "type": "address"
        }
      ],
      "name": "Upgraded",
      "type": "event"
    },
    {
      "inputs": [],
      "name": "ATTESTATION_CREATOR_ROLE",
      "outputs": [
        {
          "internalType": "bytes32",
          "name": "",
          "type": "bytes32"
        }
      ],
      "stateMutability": "view",
      "type": "function"
    },
    {
      "inputs": [],
      "name": "DEFAULT_ADMIN_ROLE",
      "outputs": [
        {
          "internalType": "bytes32",
          "name": "",
          "type": "bytes32"
        }
      ],
      "stateMutability": "view",
      "type": "function"
    },
    {
      "inputs": [],
      "name": "UPGRADE_INTERFACE_VERSION",
      "outputs": [
        {
          "internalType": "string",
          "name": "",
          "type": "string"
        }
      ],
      "stateMutability": "view",
      "type": "function"
    },
    {
      "inputs": [
        {
          "internalType": "address",
          "name": "recipient",
          "type": "address"
        },
        {
          "internalType": "uint256",
          "name": "tokenId",
          "type": "uint256"
        }
      ],
      "name": "createMissionEnrollmentAttestation",
      "outputs": [
        {
          "internalType": "bytes32",
          "name": "",
          "type": "bytes32"
        }
      ],
      "stateMutability": "nonpayable",
      "type": "function"
    },
    {
      "inputs": [],
      "name": "createMissionEnrollmentSchema",
      "outputs": [],
      "stateMutability": "nonpayable",
      "type": "function"
    },
    {
      "inputs": [],
      "name": "getMissionEnrollmentSchema",
      "outputs": [
        {
          "internalType": "bytes32",
          "name": "",
          "type": "bytes32"
        }
      ],
      "stateMutability": "view",
      "type": "function"
    },
    {
      "inputs": [
        {
          "internalType": "bytes32",
          "name": "role",
          "type": "bytes32"
        }
      ],
      "name": "getRoleAdmin",
      "outputs": [
        {
          "internalType": "bytes32",
          "name": "",
          "type": "bytes32"
        }
      ],
      "stateMutability": "view",
      "type": "function"
    },
    {
      "inputs": [
        {
          "internalType": "address",
          "name": "account",
          "type": "address"
        }
      ],
      "name": "grantAttestationCreatorRole",
      "outputs": [],
      "stateMutability": "nonpayable",
      "type": "function"
    },
    {
      "inputs": [
        {
          "internalType": "bytes32",
          "name": "role",
          "type": "bytes32"
        },
        {
          "internalType": "address",
          "name": "account",
          "type": "address"
        }
      ],
      "name": "grantRole",
      "outputs": [],
      "stateMutability": "nonpayable",
      "type": "function"
    },
    {
      "inputs": [
        {
          "internalType": "bytes32",
          "name": "role",
          "type": "bytes32"
        },
        {
          "internalType": "address",
          "name": "account",
          "type": "address"
        }
      ],
      "name": "hasRole",
      "outputs": [
        {
          "internalType": "bool",
          "name": "",
          "type": "bool"
        }
      ],
      "stateMutability": "view",
      "type": "function"
    },
    {
      "inputs": [
        {
          "internalType": "address",
          "name": "_eas",
          "type": "address"
        },
        {
          "internalType": "address",
          "name": "_schemaRegistry",
          "type": "address"
        }
      ],
      "name": "initialize",
      "outputs": [],
      "stateMutability": "nonpayable",
      "type": "function"
    },
    {
      "inputs": [
        {
          "internalType": "address",
          "name": "account",
          "type": "address"
        }
      ],
      "name": "isApprovedAttestationCreator",
      "outputs": [
        {
          "internalType": "bool",
          "name": "",
          "type": "bool"
        }
      ],
      "stateMutability": "view",
      "type": "function"
    },
    {
      "inputs": [],
      "name": "proxiableUUID",
      "outputs": [
        {
          "internalType": "bytes32",
          "name": "",
          "type": "bytes32"
        }
      ],
      "stateMutability": "view",
      "type": "function"
    },
    {
      "inputs": [
        {
          "internalType": "bytes32",
          "name": "role",
          "type": "bytes32"
        },
        {
          "internalType": "address",
          "name": "callerConfirmation",
          "type": "address"
        }
      ],
      "name": "renounceRole",
      "outputs": [],
      "stateMutability": "nonpayable",
      "type": "function"
    },
    {
      "inputs": [
        {
          "internalType": "address",
          "name": "account",
          "type": "address"
        }
      ],
      "name": "revokeAttestationCreatorRole",
      "outputs": [],
      "stateMutability": "nonpayable",
      "type": "function"
    },
    {
      "inputs": [
        {
          "internalType": "bytes32",
          "name": "role",
          "type": "bytes32"
        },
        {
          "internalType": "address",
          "name": "account",
          "type": "address"
        }
      ],
      "name": "revokeRole",
      "outputs": [],
      "stateMutability": "nonpayable",
      "type": "function"
    },
    {
      "inputs": [
        {
          "internalType": "bytes4",
          "name": "interfaceId",
          "type": "bytes4"
        }
      ],
      "name": "supportsInterface",
      "outputs": [
        {
          "internalType": "bool",
          "name": "",
          "type": "bool"
        }
      ],
      "stateMutability": "view",
      "type": "function"
    },
    {
      "inputs": [
        {
          "internalType": "address",
          "name": "newImplementation",
          "type": "address"
        },
        {
          "internalType": "bytes",
          "name": "data",
          "type": "bytes"
        }
      ],
      "name": "upgradeToAndCall",
      "outputs": [],
      "stateMutability": "payable",
      "type": "function"
    },
    {
      "inputs": [
        {
          "internalType": "bytes32",
          "name": "attestationId",
          "type": "bytes32"
        }
      ],
      "name": "verifyAttestation",
      "outputs": [
        {
          "internalType": "bool",
          "name": "",
          "type": "bool"
        }
      ],
      "stateMutability": "view",
      "type": "function"
    }
  ],
  "bytecode": "0x60a06040523060805234801561001457600080fd5b5061001d610022565b6100d4565b7ff0c57e16840df040f15088dc2f81fe391c3923bec73e23a9662efc9c229c6a00805468010000000000000000900460ff16156100725760405163f92ee8a960e01b815260040160405180910390fd5b80546001600160401b03908116146100d15780546001600160401b0319166001600160401b0390811782556040519081527fc7f505b2f371ae2175ee4913f4499e1f2633a7b5936321eed1cdaeb6115181d29060200160405180910390a15b50565b60805161174b6100fd60003960008181610d9801528181610dc10152610f05015261174b6000f3fe6080604052600436106101145760003560e01c806352d1902d116100a0578063a217fddf11610064578063a217fddf146102f4578063ad3cb1cc14610309578063bd46204914610347578063d547741f1461037b578063e27fadab1461039b57600080fd5b806352d1902d1461026a5780635956ce451461027f578063624b04bd14610294578063677339ce146102b457806391d14854146102d457600080fd5b80632f2ff15d116100e75780632f2ff15d146101be57806336568abe146101de578063485cc955146101fe5780634a0145b61461021e5780634f1ef2861461025757600080fd5b806301ffc9a71461011957806308f469571461014e5780631ecf2fbf1461016e578063248a9ca314610190575b600080fd5b34801561012557600080fd5b5061013961013436600461119a565b6103b0565b60405190151581526020015b60405180910390f35b34801561015a57600080fd5b506101396101693660046111c4565b6103e7565b34801561017a57600080fd5b5061018e6101893660046111f2565b6104dc565b005b34801561019c57600080fd5b506101b06101ab3660046111c4565b61050c565b604051908152602001610145565b3480156101ca57600080fd5b5061018e6101d936600461120f565b61052e565b3480156101ea57600080fd5b5061018e6101f936600461120f565b610550565b34801561020a57600080fd5b5061018e61021936600461123f565b610588565b34801561022a57600080fd5b506101396102393660046111f2565b6001600160a01b031660009081526003602052604090205460ff1690565b61018e610265366004611306565b61077e565b34801561027657600080fd5b506101b061079d565b34801561028b57600080fd5b506002546101b0565b3480156102a057600080fd5b506101b06102af366004611399565b6107ba565b3480156102c057600080fd5b5061018e6102cf3660046111f2565b610a2a565b3480156102e057600080fd5b506101396102ef36600461120f565b610add565b34801561030057600080fd5b506101b0600081565b34801561031557600080fd5b5061033a604051806040016040528060058152602001640352e302e360dc1b81525081565b6040516101459190611415565b34801561035357600080fd5b506101b07ffe59eece44efc73d9bec857e15b77961120d43be620d135f2f6356bc328d55f181565b34801561038757600080fd5b5061018e61039636600461120f565b610b15565b3480156103a757600080fd5b5061018e610b31565b60006001600160e01b03198216637965db0b60e01b14806103e157506301ffc9a760e01b6001600160e01b03198316145b92915050565b6000816104345760405162461bcd60e51b8152602060048201526016602482015275125b9d985b1a5908185d1d195cdd185d1a5bdb88125160521b60448201526064015b60405180910390fd5b600080546040516328c44a9960e21b8152600481018590526001600160a01b039091169063a3112a6490602401600060405180830381865afa15801561047e573d6000803e3d6000fd5b505050506040513d6000823e601f3d908101601f191682016040526104a691908101906114ad565b8051909150831480156104d5575060e08101516001600160a01b031660009081526003602052604090205460ff165b9392505050565b60006104e781610c55565b506001600160a01b03166000908152600360205260409020805460ff19166001179055565b60009081526000805160206116f6833981519152602052604090206001015490565b6105378261050c565b61054081610c55565b61054a8383610c62565b50505050565b6001600160a01b03811633146105795760405163334bd91960e11b815260040160405180910390fd5b6105838282610d07565b505050565b7ff0c57e16840df040f15088dc2f81fe391c3923bec73e23a9662efc9c229c6a008054600160401b810460ff16159067ffffffffffffffff166000811580156105ce5750825b905060008267ffffffffffffffff1660011480156105eb5750303b155b9050811580156105f9575080155b156106175760405163f92ee8a960e01b815260040160405180910390fd5b845467ffffffffffffffff19166001178555831561064157845460ff60401b1916600160401b1785555b6001600160a01b0387161580159061066157506001600160a01b03861615155b61069f5760405162461bcd60e51b815260206004820152600f60248201526e496e76616c6964206164647265737360881b604482015260640161042b565b6106a7610d83565b6106af610d83565b600080546001600160a01b03808a166001600160a01b031992831617835560018054918a16919092161790556106e59033610c62565b5073f0bc5cc2b4866daaecb069430c60b2452007703760005260036020527fe25ada2f8bc6473c574413df8a42fc5776cb36009b41f9ba7f561ed55bb2b549805460ff19166001179055831561077557845460ff60401b19168555604051600181527fc7f505b2f371ae2175ee4913f4499e1f2633a7b5936321eed1cdaeb6115181d29060200160405180910390a15b50505050505050565b610786610d8d565b61078f82610e32565b6107998282610e3d565b5050565b60006107a7610efa565b5060008051602061169083398151915290565b3360009081526003602052604081205460ff166108275760405162461bcd60e51b815260206004820152602560248201527f4e6f7420617574686f72697a656420746f20637265617465206174746573746160448201526474696f6e7360d81b606482015260840161042b565b60025461086b5760405162461bcd60e51b815260206004820152601260248201527114d8da195b58481b9bdd0818dc99585d195960721b604482015260640161042b565b6001600160a01b0383166108b55760405162461bcd60e51b8152602060048201526011602482015270125b9d985b1a59081c9958da5c1a595b9d607a1b604482015260640161042b565b816000036108f85760405162461bcd60e51b815260206004820152601060248201526f125b9d985b1a59081d1bdad95b88125160821b604482015260640161042b565b604080516001600160a01b038516602082015290810183905242606082015233608082015260009060a00160408051601f1981840301815282820182526002548352815160c0810183526001600160a01b03808916825260006020838101829052600184870152606084018290526080840185905260a084018290528601929092528154935163f17325e760e01b81529295509092169063f17325e7906109a39085906004016115a4565b6020604051808303816000875af11580156109c2573d6000803e3d6000fd5b505050506040513d601f19601f820116820180604052508101906109e69190611627565b60405190915033906001600160a01b0388169083907f63f86f3e95d67d75fed996a7db68f9e7eabf0600abbd54fccabf34ec3b5fa4a790600090a495945050505050565b6000610a3581610c55565b73f0bc5cc2b4866daaecb069430c60b24520077036196001600160a01b03831601610abb5760405162461bcd60e51b815260206004820152603060248201527f43616e6e6f74207265766f6b6520726f6c652066726f6d206d61696e2061747460448201526f32b9ba30ba34b7b71031b932b0ba37b960811b606482015260840161042b565b506001600160a01b03166000908152600360205260409020805460ff19169055565b60009182526000805160206116f6833981519152602090815260408084206001600160a01b0393909316845291905290205460ff1690565b610b1e8261050c565b610b2781610c55565b61054a8383610d07565b6000610b3c81610c55565b60025415610b855760405162461bcd60e51b815260206004820152601660248201527514d8da195b5848185b1c9958591e4818dc99585d195960521b604482015260640161042b565b60006040518060800160405280604681526020016116b06046913960018054604051630c1af44f60e31b81529293506000926001600160a01b03909116916360d7a27891610bda918691869190600401611640565b6020604051808303816000875af1158015610bf9573d6000803e3d6000fd5b505050506040513d601f19601f82011682018060405250810190610c1d9190611627565b600281905560405190915081907fed68f5afea10be5233231e5d15186bf1c9c0b9f6d3a767404d90688bccf293af90600090a2505050565b610c5f8133610f43565b50565b60006000805160206116f6833981519152610c7d8484610add565b610cfd576000848152602082815260408083206001600160a01b03871684529091529020805460ff19166001179055610cb33390565b6001600160a01b0316836001600160a01b0316857f2f8788117e7eff1d82e926ec794901d17c78024a50270940304540a733656f0d60405160405180910390a460019150506103e1565b60009150506103e1565b60006000805160206116f6833981519152610d228484610add565b15610cfd576000848152602082815260408083206001600160a01b0387168085529252808320805460ff1916905551339287917ff6391f5c32d9c69d2a47ea670b442974b53935d1edc7fd64eb21e047a839171b9190a460019150506103e1565b610d8b610f7c565b565b306001600160a01b037f0000000000000000000000000000000000000000000000000000000000000000161480610e1457507f00000000000000000000000000000000000000000000000000000000000000006001600160a01b0316610e08600080516020611690833981519152546001600160a01b031690565b6001600160a01b031614155b15610d8b5760405163703e46dd60e11b815260040160405180910390fd5b600061079981610c55565b816001600160a01b03166352d1902d6040518163ffffffff1660e01b8152600401602060405180830381865afa925050508015610e97575060408051601f3d908101601f19168201909252610e9491810190611627565b60015b610ebf57604051634c9c8ce360e01b81526001600160a01b038316600482015260240161042b565b6000805160206116908339815191528114610ef057604051632a87526960e21b81526004810182905260240161042b565b6105838383610fc5565b306001600160a01b037f00000000000000000000000000000000000000000000000000000000000000001614610d8b5760405163703e46dd60e11b815260040160405180910390fd5b610f4d8282610add565b6107995760405163e2517d3f60e01b81526001600160a01b03821660048201526024810183905260440161042b565b7ff0c57e16840df040f15088dc2f81fe391c3923bec73e23a9662efc9c229c6a0054600160401b900460ff16610d8b57604051631afcd79f60e31b815260040160405180910390fd5b610fce8261101b565b6040516001600160a01b038316907fbc7cd75a20ee27fd9adebab32041f755214dbc6bffa90cc0225b39da2e5c2d3b90600090a2805115611013576105838282611080565b6107996110f6565b806001600160a01b03163b60000361105157604051634c9c8ce360e01b81526001600160a01b038216600482015260240161042b565b60008051602061169083398151915280546001600160a01b0319166001600160a01b0392909216919091179055565b6060600080846001600160a01b03168460405161109d9190611673565b600060405180830381855af49150503d80600081146110d8576040519150601f19603f3d011682016040523d82523d6000602084013e6110dd565b606091505b50915091506110ed858383611115565b95945050505050565b3415610d8b5760405163b398979f60e01b815260040160405180910390fd5b60608261112a5761112582611171565b6104d5565b815115801561114157506001600160a01b0384163b155b1561116a57604051639996b31560e01b81526001600160a01b038516600482015260240161042b565b5092915050565b8051156111815780518082602001fd5b604051630a12f52160e11b815260040160405180910390fd5b6000602082840312156111ac57600080fd5b81356001600160e01b0319811681146104d557600080fd5b6000602082840312156111d657600080fd5b5035919050565b6001600160a01b0381168114610c5f57600080fd5b60006020828403121561120457600080fd5b81356104d5816111dd565b6000806040838503121561122257600080fd5b823591506020830135611234816111dd565b809150509250929050565b6000806040838503121561125257600080fd5b823561125d816111dd565b91506020830135611234816111dd565b634e487b7160e01b600052604160045260246000fd5b604051610140810167ffffffffffffffff811182821017156112a7576112a761126d565b60405290565b604051601f8201601f1916810167ffffffffffffffff811182821017156112d6576112d661126d565b604052919050565b600067ffffffffffffffff8211156112f8576112f861126d565b50601f01601f191660200190565b6000806040838503121561131957600080fd5b8235611324816111dd565b9150602083013567ffffffffffffffff81111561134057600080fd5b8301601f8101851361135157600080fd5b803561136461135f826112de565b6112ad565b81815286602083850101111561137957600080fd5b816020840160208301376000602083830101528093505050509250929050565b600080604083850312156113ac57600080fd5b82356113b7816111dd565b946020939093013593505050565b60005b838110156113e05781810151838201526020016113c8565b50506000910152565b600081518084526114018160208601602086016113c5565b601f01601f19169290920160200192915050565b6020815260006104d560208301846113e9565b805167ffffffffffffffff8116811461144057600080fd5b919050565b8051611440816111dd565b8051801515811461144057600080fd5b600082601f83011261147157600080fd5b815161147f61135f826112de565b81815284602083860101111561149457600080fd5b6114a58260208301602087016113c5565b949350505050565b6000602082840312156114bf57600080fd5b815167ffffffffffffffff808211156114d757600080fd5b9083019061014082860312156114ec57600080fd5b6114f4611283565b825181526020830151602082015261150e60408401611428565b604082015261151f60608401611428565b606082015261153060808401611428565b608082015260a083015160a082015261154b60c08401611445565b60c082015261155c60e08401611445565b60e082015261010061156f818501611450565b90820152610120838101518381111561158757600080fd5b61159388828701611460565b918301919091525095945050505050565b60208152815160208201526000602083015160408084015260018060a01b03815116606084015267ffffffffffffffff60208201511660808401526040810151151560a0840152606081015160c0840152608081015160c060e085015261160f6101208501826113e9565b905060a0820151610100850152809250505092915050565b60006020828403121561163957600080fd5b5051919050565b60608152600061165360608301866113e9565b6001600160a01b0394909416602083015250901515604090910152919050565b600082516116858184602087016113c5565b919091019291505056fe360894a13ba1a3210667c828492db98dca3e2076cc3735a920a3ca505d382bbc616464726573732075736572416464726573732c75696e7432353620746f6b656e49642c75696e743235362074696d657374616d702c6164647265737320617474657374657202dd7bc7dec4dceedda775e58dd541e08a116c6c53815c0bd028192f7b626800a2646970667358221220ff6165ce9236c68bcd0d2b5a4b3f4d490fc1259abfcbafb35209fcce2e083a6664736f6c63430008140033",
  "linkReferences": {},
  "deployedLinkReferences": {}
}