{
  "_format": "hh-sol-artifact-1",
  "contractName": "AttestationService",
  "sourceName": "contracts/AttestationService.sol",
  "abi": [
    {
      "inputs": [
        {
          "internalType": "address",
          "name": "_eas",
          "type": "address"
        },
        {
          "internalType": "address",
          "name": "_schemaRegistry",
          "type": "address"
        }
      ],
      "stateMutability": "nonpayable",
      "type": "constructor"
    },
    {
      "inputs": [],
      "name": "AccessControlBadConfirmation",
      "type": "error"
    },
    {
      "inputs": [
        {
          "internalType": "address",
          "name": "account",
          "type": "address"
        },
        {
          "internalType": "bytes32",
          "name": "neededRole",
          "type": "bytes32"
        }
      ],
      "name": "AccessControlUnauthorizedAccount",
      "type": "error"
    },
    {
      "anonymous": false,
      "inputs": [
        {
          "indexed": true,
          "internalType": "bytes32",
          "name": "attestationId",
          "type": "bytes32"
        },
        {
          "indexed": true,
          "internalType": "address",
          "name": "recipient",
          "type": "address"
        },
        {
          "indexed": true,
          "internalType": "address",
          "name": "attester",
          "type": "address"
        }
      ],
      "name": "AttestationCreated",
      "type": "event"
    },
    {
      "anonymous": false,
      "inputs": [
        {
          "indexed": true,
          "internalType": "bytes32",
          "name": "role",
          "type": "bytes32"
        },
        {
          "indexed": true,
          "internalType": "bytes32",
          "name": "previousAdminRole",
          "type": "bytes32"
        },
        {
          "indexed": true,
          "internalType": "bytes32",
          "name": "newAdminRole",
          "type": "bytes32"
        }
      ],
      "name": "RoleAdminChanged",
      "type": "event"
    },
    {
      "anonymous": false,
      "inputs": [
        {
          "indexed": true,
          "internalType": "bytes32",
          "name": "role",
          "type": "bytes32"
        },
        {
          "indexed": true,
          "internalType": "address",
          "name": "account",
          "type": "address"
        },
        {
          "indexed": true,
          "internalType": "address",
          "name": "sender",
          "type": "address"
        }
      ],
      "name": "RoleGranted",
      "type": "event"
    },
    {
      "anonymous": false,
      "inputs": [
        {
          "indexed": true,
          "internalType": "bytes32",
          "name": "role",
          "type": "bytes32"
        },
        {
          "indexed": true,
          "internalType": "address",
          "name": "account",
          "type": "address"
        },
        {
          "indexed": true,
          "internalType": "address",
          "name": "sender",
          "type": "address"
        }
      ],
      "name": "RoleRevoked",
      "type": "event"
    },
    {
      "anonymous": false,
      "inputs": [
        {
          "indexed": true,
          "internalType": "bytes32",
          "name": "schemaId",
          "type": "bytes32"
        }
      ],
      "name": "SchemaCreated",
      "type": "event"
    },
    {
      "inputs": [],
      "name": "ATTESTATION_CREATOR_ROLE",
      "outputs": [
        {
          "internalType": "bytes32",
          "name": "",
          "type": "bytes32"
        }
      ],
      "stateMutability": "view",
      "type": "function"
    },
    {
      "inputs": [],
      "name": "DEFAULT_ADMIN_ROLE",
      "outputs": [
        {
          "internalType": "bytes32",
          "name": "",
          "type": "bytes32"
        }
      ],
      "stateMutability": "view",
      "type": "function"
    },
    {
      "inputs": [
        {
          "internalType": "address",
          "name": "recipient",
          "type": "address"
        },
        {
          "internalType": "uint256",
          "name": "tokenId",
          "type": "uint256"
        }
      ],
      "name": "createMissionEnrollmentAttestation",
      "outputs": [
        {
          "internalType": "bytes32",
          "name": "",
          "type": "bytes32"
        }
      ],
      "stateMutability": "nonpayable",
      "type": "function"
    },
    {
      "inputs": [],
      "name": "createMissionEnrollmentSchema",
      "outputs": [],
      "stateMutability": "nonpayable",
      "type": "function"
    },
    {
      "inputs": [
        {
          "internalType": "bytes32",
          "name": "role",
          "type": "bytes32"
        }
      ],
      "name": "getRoleAdmin",
      "outputs": [
        {
          "internalType": "bytes32",
          "name": "",
          "type": "bytes32"
        }
      ],
      "stateMutability": "view",
      "type": "function"
    },
    {
      "inputs": [
        {
          "internalType": "address",
          "name": "account",
          "type": "address"
        }
      ],
      "name": "grantAttestationCreatorRole",
      "outputs": [],
      "stateMutability": "nonpayable",
      "type": "function"
    },
    {
      "inputs": [
        {
          "internalType": "bytes32",
          "name": "role",
          "type": "bytes32"
        },
        {
          "internalType": "address",
          "name": "account",
          "type": "address"
        }
      ],
      "name": "grantRole",
      "outputs": [],
      "stateMutability": "nonpayable",
      "type": "function"
    },
    {
      "inputs": [
        {
          "internalType": "bytes32",
          "name": "role",
          "type": "bytes32"
        },
        {
          "internalType": "address",
          "name": "account",
          "type": "address"
        }
      ],
      "name": "hasRole",
      "outputs": [
        {
          "internalType": "bool",
          "name": "",
          "type": "bool"
        }
      ],
      "stateMutability": "view",
      "type": "function"
    },
    {
      "inputs": [],
      "name": "missionEnrollmentSchema",
      "outputs": [
        {
          "internalType": "bytes32",
          "name": "",
          "type": "bytes32"
        }
      ],
      "stateMutability": "view",
      "type": "function"
    },
    {
      "inputs": [
        {
          "internalType": "bytes32",
          "name": "role",
          "type": "bytes32"
        },
        {
          "internalType": "address",
          "name": "callerConfirmation",
          "type": "address"
        }
      ],
      "name": "renounceRole",
      "outputs": [],
      "stateMutability": "nonpayable",
      "type": "function"
    },
    {
      "inputs": [
        {
          "internalType": "address",
          "name": "account",
          "type": "address"
        }
      ],
      "name": "revokeAttestationCreatorRole",
      "outputs": [],
      "stateMutability": "nonpayable",
      "type": "function"
    },
    {
      "inputs": [
        {
          "internalType": "bytes32",
          "name": "role",
          "type": "bytes32"
        },
        {
          "internalType": "address",
          "name": "account",
          "type": "address"
        }
      ],
      "name": "revokeRole",
      "outputs": [],
      "stateMutability": "nonpayable",
      "type": "function"
    },
    {
      "inputs": [
        {
          "internalType": "bytes4",
          "name": "interfaceId",
          "type": "bytes4"
        }
      ],
      "name": "supportsInterface",
      "outputs": [
        {
          "internalType": "bool",
          "name": "",
          "type": "bool"
        }
      ],
      "stateMutability": "view",
      "type": "function"
    },
    {
      "inputs": [
        {
          "internalType": "bytes32",
          "name": "attestationId",
          "type": "bytes32"
        }
      ],
      "name": "verifyAttestation",
      "outputs": [
        {
          "internalType": "bool",
          "name": "",
          "type": "bool"
        }
      ],
      "stateMutability": "view",
      "type": "function"
    }
  ],
  "bytecode": "0x60c06040523480156200001157600080fd5b50604051620010dd380380620010dd8339810160408190526200003491620001ce565b6001600160a01b038216158015906200005557506001600160a01b03811615155b620000985760405162461bcd60e51b815260206004820152600f60248201526e496e76616c6964206164647265737360881b604482015260640160405180910390fd5b6001600160a01b03808316608052811660a052620000b860003362000102565b50620000f97ffe59eece44efc73d9bec857e15b77961120d43be620d135f2f6356bc328d55f173f0bc5cc2b4866daaecb069430c60b2452007703762000102565b50505062000206565b6000828152602081815260408083206001600160a01b038516845290915281205460ff16620001a7576000838152602081815260408083206001600160a01b03861684529091529020805460ff191660011790556200015e3390565b6001600160a01b0316826001600160a01b0316847f2f8788117e7eff1d82e926ec794901d17c78024a50270940304540a733656f0d60405160405180910390a4506001620001ab565b5060005b92915050565b80516001600160a01b0381168114620001c957600080fd5b919050565b60008060408385031215620001e257600080fd5b620001ed83620001b1565b9150620001fd60208401620001b1565b90509250929050565b60805160a051610eaa6200023360003960006108190152600081816102ad01526105f00152610eaa6000f3fe608060405234801561001057600080fd5b50600436106100ea5760003560e01c8063677339ce1161008c578063a217fddf11610066578063a217fddf146101d8578063bd462049146101e0578063d547741f146101f5578063e27fadab1461020857600080fd5b8063677339ce146101a95780636b823894146101bc57806391d14854146101c557600080fd5b8063248a9ca3116100c8578063248a9ca31461013f5780632f2ff15d1461017057806336568abe14610183578063624b04bd1461019657600080fd5b806301ffc9a7146100ef57806308f46957146101175780631ecf2fbf1461012a575b600080fd5b6101026100fd366004610a27565b610210565b60405190151581526020015b60405180910390f35b610102610125366004610a51565b610247565b61013d610138366004610a7f565b61035e565b005b61016261014d366004610a51565b60009081526020819052604090206001015490565b60405190815260200161010e565b61013d61017e366004610a9c565b61040b565b61013d610191366004610a9c565b610436565b6101626101a4366004610acc565b61046e565b61013d6101b7366004610a7f565b6106ad565b61016260015481565b6101026101d3366004610a9c565b610756565b610162600081565b610162600080516020610e0f83398151915281565b61013d610203366004610a9c565b61077f565b61013d6107a4565b60006001600160e01b03198216637965db0b60e01b148061024157506301ffc9a760e01b6001600160e01b03198316145b92915050565b6000816102945760405162461bcd60e51b8152602060048201526016602482015275125b9d985b1a5908185d1d195cdd185d1a5bdb88125160521b60448201526064015b60405180910390fd5b6040516328c44a9960e21b8152600481018390526000907f00000000000000000000000000000000000000000000000000000000000000006001600160a01b03169063a3112a6490602401600060405180830381865afa1580156102fc573d6000803e3d6000fd5b505050506040513d6000823e601f3d908101601f191682016040526103249190810190610c1c565b805190915083148015610357575060e08101516001600160a01b031673f0bc5cc2b4866daaecb069430c60b24520077037145b9392505050565b6000610369816108e4565b6001600160a01b03821673f0bc5cc2b4866daaecb069430c60b24520077037146103ef5760405162461bcd60e51b815260206004820152603160248201527f4f6e6c7920444151485249535f4554485f414444524553532063616e206265206044820152706772616e746564207468697320726f6c6560781b606482015260840161028b565b610407600080516020610e0f8339815191528361040b565b5050565b600082815260208190526040902060010154610426816108e4565b61043083836108f1565b50505050565b6001600160a01b038116331461045f5760405163334bd91960e11b815260040160405180910390fd5b6104698282610983565b505050565b6000600080516020610e0f833981519152610488816108e4565b6001546104cc5760405162461bcd60e51b815260206004820152601260248201527114d8da195b58481b9bdd0818dc99585d195960721b604482015260640161028b565b6001600160a01b0384166105165760405162461bcd60e51b8152602060048201526011602482015270125b9d985b1a59081c9958da5c1a595b9d607a1b604482015260640161028b565b826000036105595760405162461bcd60e51b815260206004820152601060248201526f125b9d985b1a59081d1bdad95b88125160821b604482015260640161028b565b604080516001600160a01b038616602082015290810184905242606082015233608082015260009060a00160408051601f198184030181528282018252600180548452825160c0810184526001600160a01b03808b1682526000602083810182905283870194909452606083018190526080830185905260a0830181905292860191909152925163f17325e760e01b8152919450917f0000000000000000000000000000000000000000000000000000000000000000169063f17325e790610625908590600401610d3f565b6020604051808303816000875af1158015610644573d6000803e3d6000fd5b505050506040513d601f19601f820116820180604052508101906106689190610dc2565b60405190915033906001600160a01b0389169083907f63f86f3e95d67d75fed996a7db68f9e7eabf0600abbd54fccabf34ec3b5fa4a790600090a49695505050505050565b60006106b8816108e4565b73f0bc5cc2b4866daaecb069430c60b24520077036196001600160a01b0383160161073e5760405162461bcd60e51b815260206004820152603060248201527f43616e6e6f74207265766f6b6520726f6c652066726f6d206d61696e2061747460448201526f32b9ba30ba34b7b71031b932b0ba37b960811b606482015260840161028b565b610407600080516020610e0f8339815191528361077f565b6000918252602082815260408084206001600160a01b0393909316845291905290205460ff1690565b60008281526020819052604090206001015461079a816108e4565b6104308383610983565b60006107af816108e4565b600154156107f85760405162461bcd60e51b815260206004820152601660248201527514d8da195b5848185b1c9958591e4818dc99585d195960521b604482015260640161028b565b6000604051806080016040528060468152602001610e2f60469139905060007f00000000000000000000000000000000000000000000000000000000000000006001600160a01b03166360d7a27883600060016040518463ffffffff1660e01b815260040161086993929190610ddb565b6020604051808303816000875af1158015610888573d6000803e3d6000fd5b505050506040513d601f19601f820116820180604052508101906108ac9190610dc2565b600181905560405190915081907fed68f5afea10be5233231e5d15186bf1c9c0b9f6d3a767404d90688bccf293af90600090a2505050565b6108ee81336109ee565b50565b60006108fd8383610756565b61097b576000838152602081815260408083206001600160a01b03861684529091529020805460ff191660011790556109333390565b6001600160a01b0316826001600160a01b0316847f2f8788117e7eff1d82e926ec794901d17c78024a50270940304540a733656f0d60405160405180910390a4506001610241565b506000610241565b600061098f8383610756565b1561097b576000838152602081815260408083206001600160a01b0386168085529252808320805460ff1916905551339286917ff6391f5c32d9c69d2a47ea670b442974b53935d1edc7fd64eb21e047a839171b9190a4506001610241565b6109f88282610756565b6104075760405163e2517d3f60e01b81526001600160a01b03821660048201526024810183905260440161028b565b600060208284031215610a3957600080fd5b81356001600160e01b03198116811461035757600080fd5b600060208284031215610a6357600080fd5b5035919050565b6001600160a01b03811681146108ee57600080fd5b600060208284031215610a9157600080fd5b813561035781610a6a565b60008060408385031215610aaf57600080fd5b823591506020830135610ac181610a6a565b809150509250929050565b60008060408385031215610adf57600080fd5b8235610aea81610a6a565b946020939093013593505050565b634e487b7160e01b600052604160045260246000fd5b604051610140810167ffffffffffffffff81118282101715610b3257610b32610af8565b60405290565b805167ffffffffffffffff81168114610b5057600080fd5b919050565b8051610b5081610a6a565b80518015158114610b5057600080fd5b60005b83811015610b8b578181015183820152602001610b73565b50506000910152565b600082601f830112610ba557600080fd5b815167ffffffffffffffff80821115610bc057610bc0610af8565b604051601f8301601f19908116603f01168101908282118183101715610be857610be8610af8565b81604052838152866020858801011115610c0157600080fd5b610c12846020830160208901610b70565b9695505050505050565b600060208284031215610c2e57600080fd5b815167ffffffffffffffff80821115610c4657600080fd5b908301906101408286031215610c5b57600080fd5b610c63610b0e565b8251815260208301516020820152610c7d60408401610b38565b6040820152610c8e60608401610b38565b6060820152610c9f60808401610b38565b608082015260a083015160a0820152610cba60c08401610b55565b60c0820152610ccb60e08401610b55565b60e0820152610100610cde818501610b60565b908201526101208381015183811115610cf657600080fd5b610d0288828701610b94565b918301919091525095945050505050565b60008151808452610d2b816020860160208601610b70565b601f01601f19169290920160200192915050565b60208152815160208201526000602083015160408084015260018060a01b03815116606084015267ffffffffffffffff60208201511660808401526040810151151560a0840152606081015160c0840152608081015160c060e0850152610daa610120850182610d13565b905060a0820151610100850152809250505092915050565b600060208284031215610dd457600080fd5b5051919050565b606081526000610dee6060830186610d13565b6001600160a01b039490941660208301525090151560409091015291905056fefe59eece44efc73d9bec857e15b77961120d43be620d135f2f6356bc328d55f1616464726573732075736572416464726573732c75696e7432353620746f6b656e49642c75696e743235362074696d657374616d702c61646472657373206174746573746572a26469706673582212209b1256a966eb8d5f1e80edd03a0eab0667d1cccc0d110831a964d1950eba9fe764736f6c63430008140033",
  "linkReferences": {},
  "deployedLinkReferences": {}
}